{
  "_format": "hh-sol-artifact-1",
  "contractName": "UAEPriceOracle",
  "sourceName": "contracts/UAE/UAEPriceOracle.sol",
  "abi": [
    {
      "inputs": [],
      "stateMutability": "nonpayable",
      "type": "constructor"
    },
    {
      "anonymous": false,
      "inputs": [
        {
          "indexed": true,
          "internalType": "address",
          "name": "updater",
          "type": "address"
        },
        {
          "indexed": false,
          "internalType": "string",
          "name": "currency",
          "type": "string"
        }
      ],
      "name": "AuthorizedUpdaterAdded",
      "type": "event"
    },
    {
      "anonymous": false,
      "inputs": [
        {
          "indexed": true,
          "internalType": "address",
          "name": "updater",
          "type": "address"
        }
      ],
      "name": "AuthorizedUpdaterRemoved",
      "type": "event"
    },
    {
      "anonymous": false,
      "inputs": [
        {
          "indexed": true,
          "internalType": "string",
          "name": "currency",
          "type": "string"
        },
        {
          "indexed": false,
          "internalType": "uint256",
          "name": "newRate",
          "type": "uint256"
        },
        {
          "indexed": false,
          "internalType": "uint256",
          "name": "timestamp",
          "type": "uint256"
        }
      ],
      "name": "ExchangeRateUpdated",
      "type": "event"
    },
    {
      "anonymous": false,
      "inputs": [
        {
          "indexed": true,
          "internalType": "string",
          "name": "dataType",
          "type": "string"
        },
        {
          "indexed": false,
          "internalType": "string",
          "name": "key",
          "type": "string"
        },
        {
          "indexed": false,
          "internalType": "uint256",
          "name": "value",
          "type": "uint256"
        }
      ],
      "name": "MarketDataUpdated",
      "type": "event"
    },
    {
      "anonymous": false,
      "inputs": [
        {
          "indexed": true,
          "internalType": "address",
          "name": "previousOwner",
          "type": "address"
        },
        {
          "indexed": true,
          "internalType": "address",
          "name": "newOwner",
          "type": "address"
        }
      ],
      "name": "OwnershipTransferred",
      "type": "event"
    },
    {
      "anonymous": false,
      "inputs": [
        {
          "indexed": false,
          "internalType": "address",
          "name": "account",
          "type": "address"
        }
      ],
      "name": "Paused",
      "type": "event"
    },
    {
      "anonymous": false,
      "inputs": [
        {
          "indexed": true,
          "internalType": "uint256",
          "name": "propertyId",
          "type": "uint256"
        },
        {
          "indexed": false,
          "internalType": "uint256",
          "name": "newPrice",
          "type": "uint256"
        },
        {
          "indexed": false,
          "internalType": "string",
          "name": "zone",
          "type": "string"
        }
      ],
      "name": "PropertyPriceUpdated",
      "type": "event"
    },
    {
      "anonymous": false,
      "inputs": [
        {
          "indexed": false,
          "internalType": "address",
          "name": "account",
          "type": "address"
        }
      ],
      "name": "Unpaused",
      "type": "event"
    },
    {
      "inputs": [],
      "name": "MAX_STALENESS",
      "outputs": [
        {
          "internalType": "uint256",
          "name": "",
          "type": "uint256"
        }
      ],
      "stateMutability": "view",
      "type": "function"
    },
    {
      "inputs": [],
      "name": "PRECISION",
      "outputs": [
        {
          "internalType": "uint256",
          "name": "",
          "type": "uint256"
        }
      ],
      "stateMutability": "view",
      "type": "function"
    },
    {
      "inputs": [
        {
          "internalType": "address",
          "name": "updater",
          "type": "address"
        },
        {
          "internalType": "string",
          "name": "currency",
          "type": "string"
        }
      ],
      "name": "addAuthorizedUpdater",
      "outputs": [],
      "stateMutability": "nonpayable",
      "type": "function"
    },
    {
      "inputs": [
        {
          "internalType": "string",
          "name": "currency",
          "type": "string"
        },
        {
          "internalType": "uint256",
          "name": "initialRate",
          "type": "uint256"
        }
      ],
      "name": "addSupportedCurrency",
      "outputs": [],
      "stateMutability": "nonpayable",
      "type": "function"
    },
    {
      "inputs": [
        {
          "internalType": "address",
          "name": "",
          "type": "address"
        }
      ],
      "name": "authorizedUpdaters",
      "outputs": [
        {
          "internalType": "bool",
          "name": "",
          "type": "bool"
        }
      ],
      "stateMutability": "view",
      "type": "function"
    },
    {
      "inputs": [
        {
          "internalType": "string",
          "name": "",
          "type": "string"
        }
      ],
      "name": "averageZonePrices",
      "outputs": [
        {
          "internalType": "uint256",
          "name": "",
          "type": "uint256"
        }
      ],
      "stateMutability": "view",
      "type": "function"
    },
    {
      "inputs": [
        {
          "internalType": "string[]",
          "name": "currencies",
          "type": "string[]"
        },
        {
          "internalType": "uint256[]",
          "name": "rates",
          "type": "uint256[]"
        }
      ],
      "name": "batchUpdateExchangeRates",
      "outputs": [],
      "stateMutability": "nonpayable",
      "type": "function"
    },
    {
      "inputs": [
        {
          "internalType": "uint256",
          "name": "aedAmount",
          "type": "uint256"
        },
        {
          "internalType": "string",
          "name": "targetCurrency",
          "type": "string"
        }
      ],
      "name": "convertFromAED",
      "outputs": [
        {
          "internalType": "uint256",
          "name": "convertedAmount",
          "type": "uint256"
        }
      ],
      "stateMutability": "view",
      "type": "function"
    },
    {
      "inputs": [
        {
          "internalType": "uint256",
          "name": "amount",
          "type": "uint256"
        },
        {
          "internalType": "string",
          "name": "sourceCurrency",
          "type": "string"
        }
      ],
      "name": "convertToAED",
      "outputs": [
        {
          "internalType": "uint256",
          "name": "aedAmount",
          "type": "uint256"
        }
      ],
      "stateMutability": "view",
      "type": "function"
    },
    {
      "inputs": [
        {
          "internalType": "string",
          "name": "",
          "type": "string"
        }
      ],
      "name": "currencySupported",
      "outputs": [
        {
          "internalType": "bool",
          "name": "",
          "type": "bool"
        }
      ],
      "stateMutability": "view",
      "type": "function"
    },
    {
      "inputs": [
        {
          "internalType": "string",
          "name": "",
          "type": "string"
        }
      ],
      "name": "exchangeRates",
      "outputs": [
        {
          "internalType": "uint256",
          "name": "rate",
          "type": "uint256"
        },
        {
          "internalType": "uint256",
          "name": "lastUpdated",
          "type": "uint256"
        },
        {
          "internalType": "bool",
          "name": "isActive",
          "type": "bool"
        },
        {
          "internalType": "address",
          "name": "updater",
          "type": "address"
        }
      ],
      "stateMutability": "view",
      "type": "function"
    },
    {
      "inputs": [
        {
          "internalType": "string",
          "name": "zone",
          "type": "string"
        }
      ],
      "name": "getAverageZonePrice",
      "outputs": [
        {
          "internalType": "uint256",
          "name": "averagePrice",
          "type": "uint256"
        }
      ],
      "stateMutability": "view",
      "type": "function"
    },
    {
      "inputs": [
        {
          "internalType": "string",
          "name": "currency",
          "type": "string"
        }
      ],
      "name": "getExchangeRate",
      "outputs": [
        {
          "internalType": "uint256",
          "name": "rate",
          "type": "uint256"
        },
        {
          "internalType": "uint256",
          "name": "lastUpdated",
          "type": "uint256"
        },
        {
          "internalType": "bool",
          "name": "isActive",
          "type": "bool"
        }
      ],
      "stateMutability": "view",
      "type": "function"
    },
    {
      "inputs": [],
      "name": "getOracleHealth",
      "outputs": [
        {
          "internalType": "uint256",
          "name": "totalCurrencies",
          "type": "uint256"
        },
        {
          "internalType": "uint256",
          "name": "activeCurrencies",
          "type": "uint256"
        },
        {
          "internalType": "uint256",
          "name": "stalePrices",
          "type": "uint256"
        }
      ],
      "stateMutability": "view",
      "type": "function"
    },
    {
      "inputs": [
        {
          "internalType": "uint256",
          "name": "propertyId",
          "type": "uint256"
        }
      ],
      "name": "getPropertyPrice",
      "outputs": [
        {
          "internalType": "uint256",
          "name": "pricePerSqFt",
          "type": "uint256"
        },
        {
          "internalType": "uint256",
          "name": "totalValue",
          "type": "uint256"
        },
        {
          "internalType": "uint256",
          "name": "lastUpdated",
          "type": "uint256"
        },
        {
          "internalType": "string",
          "name": "zone",
          "type": "string"
        },
        {
          "internalType": "string",
          "name": "emirate",
          "type": "string"
        },
        {
          "internalType": "bool",
          "name": "isVerified",
          "type": "bool"
        }
      ],
      "stateMutability": "view",
      "type": "function"
    },
    {
      "inputs": [
        {
          "internalType": "uint256",
          "name": "propertyId",
          "type": "uint256"
        },
        {
          "internalType": "string",
          "name": "currency",
          "type": "string"
        }
      ],
      "name": "getPropertyValueInCurrency",
      "outputs": [
        {
          "internalType": "uint256",
          "name": "value",
          "type": "uint256"
        }
      ],
      "stateMutability": "view",
      "type": "function"
    },
    {
      "inputs": [],
      "name": "getSupportedCurrencies",
      "outputs": [
        {
          "internalType": "string[]",
          "name": "currencies",
          "type": "string[]"
        }
      ],
      "stateMutability": "view",
      "type": "function"
    },
    {
      "inputs": [
        {
          "internalType": "string",
          "name": "currency",
          "type": "string"
        }
      ],
      "name": "isPriceFresh",
      "outputs": [
        {
          "internalType": "bool",
          "name": "isFresh",
          "type": "bool"
        }
      ],
      "stateMutability": "view",
      "type": "function"
    },
    {
      "inputs": [
        {
          "internalType": "string",
          "name": "",
          "type": "string"
        }
      ],
      "name": "marketCapitalization",
      "outputs": [
        {
          "internalType": "uint256",
          "name": "",
          "type": "uint256"
        }
      ],
      "stateMutability": "view",
      "type": "function"
    },
    {
      "inputs": [],
      "name": "owner",
      "outputs": [
        {
          "internalType": "address",
          "name": "",
          "type": "address"
        }
      ],
      "stateMutability": "view",
      "type": "function"
    },
    {
      "inputs": [],
      "name": "pause",
      "outputs": [],
      "stateMutability": "nonpayable",
      "type": "function"
    },
    {
      "inputs": [],
      "name": "paused",
      "outputs": [
        {
          "internalType": "bool",
          "name": "",
          "type": "bool"
        }
      ],
      "stateMutability": "view",
      "type": "function"
    },
    {
      "inputs": [
        {
          "internalType": "uint256",
          "name": "",
          "type": "uint256"
        }
      ],
      "name": "propertyPrices",
      "outputs": [
        {
          "internalType": "uint256",
          "name": "pricePerSqFt",
          "type": "uint256"
        },
        {
          "internalType": "uint256",
          "name": "totalValue",
          "type": "uint256"
        },
        {
          "internalType": "uint256",
          "name": "lastUpdated",
          "type": "uint256"
        },
        {
          "internalType": "string",
          "name": "zone",
          "type": "string"
        },
        {
          "internalType": "string",
          "name": "emirate",
          "type": "string"
        },
        {
          "internalType": "bool",
          "name": "isVerified",
          "type": "bool"
        }
      ],
      "stateMutability": "view",
      "type": "function"
    },
    {
      "inputs": [
        {
          "internalType": "address",
          "name": "updater",
          "type": "address"
        }
      ],
      "name": "removeAuthorizedUpdater",
      "outputs": [],
      "stateMutability": "nonpayable",
      "type": "function"
    },
    {
      "inputs": [],
      "name": "renounceOwnership",
      "outputs": [],
      "stateMutability": "nonpayable",
      "type": "function"
    },
    {
      "inputs": [
        {
          "internalType": "uint256",
          "name": "",
          "type": "uint256"
        }
      ],
      "name": "supportedCurrencies",
      "outputs": [
        {
          "internalType": "string",
          "name": "",
          "type": "string"
        }
      ],
      "stateMutability": "view",
      "type": "function"
    },
    {
      "inputs": [
        {
          "internalType": "string",
          "name": "",
          "type": "string"
        }
      ],
      "name": "tradingVolume24h",
      "outputs": [
        {
          "internalType": "uint256",
          "name": "",
          "type": "uint256"
        }
      ],
      "stateMutability": "view",
      "type": "function"
    },
    {
      "inputs": [
        {
          "internalType": "address",
          "name": "newOwner",
          "type": "address"
        }
      ],
      "name": "transferOwnership",
      "outputs": [],
      "stateMutability": "nonpayable",
      "type": "function"
    },
    {
      "inputs": [],
      "name": "unpause",
      "outputs": [],
      "stateMutability": "nonpayable",
      "type": "function"
    },
    {
      "inputs": [
        {
          "internalType": "string",
          "name": "currency",
          "type": "string"
        },
        {
          "internalType": "uint256",
          "name": "rate",
          "type": "uint256"
        }
      ],
      "name": "updateExchangeRate",
      "outputs": [],
      "stateMutability": "nonpayable",
      "type": "function"
    },
    {
      "inputs": [
        {
          "internalType": "string",
          "name": "emirate",
          "type": "string"
        },
        {
          "internalType": "uint256",
          "name": "marketCap",
          "type": "uint256"
        }
      ],
      "name": "updateMarketCap",
      "outputs": [],
      "stateMutability": "nonpayable",
      "type": "function"
    },
    {
      "inputs": [
        {
          "internalType": "uint256",
          "name": "propertyId",
          "type": "uint256"
        },
        {
          "internalType": "uint256",
          "name": "pricePerSqFt",
          "type": "uint256"
        },
        {
          "internalType": "uint256",
          "name": "totalValue",
          "type": "uint256"
        },
        {
          "internalType": "string",
          "name": "zone",
          "type": "string"
        },
        {
          "internalType": "string",
          "name": "emirate",
          "type": "string"
        },
        {
          "internalType": "bool",
          "name": "isVerified",
          "type": "bool"
        }
      ],
      "name": "updatePropertyPrice",
      "outputs": [],
      "stateMutability": "nonpayable",
      "type": "function"
    },
    {
      "inputs": [
        {
          "internalType": "string",
          "name": "currencyPair",
          "type": "string"
        },
        {
          "internalType": "uint256",
          "name": "volume",
          "type": "uint256"
        }
      ],
      "name": "updateTradingVolume",
      "outputs": [],
      "stateMutability": "nonpayable",
      "type": "function"
    },
    {
      "inputs": [
        {
          "internalType": "string",
          "name": "",
          "type": "string"
        },
        {
          "internalType": "uint256",
          "name": "",
          "type": "uint256"
        }
      ],
      "name": "zoneProperties",
      "outputs": [
        {
          "internalType": "uint256",
          "name": "",
          "type": "uint256"
        }
      ],
      "stateMutability": "view",
      "type": "function"
    }
  ],
  "bytecode": "0x6080604052346200140f576000543360018060a01b0382167f8be0079c531659141344cd1fd0a4f28419497f9722a3daafe3b4186f6b6457e0600080a36001600160a81b0319163360ff60a01b1916176000556200005c62001434565b60038152621554d160ea1b602082015260ff60405160208162000080818662001454565b6009815203019020541662000e2e57604051602081620000a1818562001454565b6009815203019020805460ff191660011790556008546801000000000000000081101562000e0257600181018060085581101562000e185760086000528151919060008051602062003671833981519152016001600160401b03831162000e02578054600181811c9116801562001404575b602082101462000de157601f8111620013b7575b506020601f8411600114620013475792806200020f946000916200133b575b508160011b916000199060031b1c19161790555b6000546001600160a01b03166200017062001414565b906703c6568f12e80000825242602083015260016040830152606082015260026060604051602081620001a4818862001454565b6001815203019020928051845560208101516001850155620001da604082015115158486019060ff801983541691151516179055565b015191018054610100600160a81b03191660089290921b610100600160a81b0316919091179055604051918291829062001454565b03902060008051602062003691833981519152604080516703c6568f12e800008152426020820152a26200024262001434565b600381526222aaa960e91b602082015260ff60405160208162000266818662001454565b6009815203019020541662000e2e5760405160208162000287818562001454565b6009815203019020805460ff191660011790556008546801000000000000000081101562000e0257600181018060085581101562000e1857600860005281516000805160206200367183398151915291909101906001600160401b03811162000e02578154600181811c9116801562001330575b602082101462000de157601f8111620012e7575b50806020601f82116001146200127b576000916200126f575b508160011b916000199060031b1c19161790555b6000546001600160a01b0316906000805160206200369183398151915290604090620003fe906200036c62001414565b67037112afa04c000095868252620003d0600260208401934285528781019460018652606082019485528851602081620003a7818b62001454565b6001815203019020915182555160018201550192511515839060ff801983541691151516179055565b518154610100600160a81b03191660089190911b610100600160a81b03161790558251918291829062001454565b039020928151908152426020820152a26200041862001434565b600381526204742560ec1b602082015260ff6040516020816200043c818662001454565b6009815203019020541662000e2e576040516020816200045d818562001454565b6009815203019020805460ff191660011790556008546801000000000000000081101562000e0257600181018060085581101562000e1857600860005281516000805160206200367183398151915291909101906001600160401b03811162000e02578154600181811c9116801562001264575b602082101462000de157601f81116200121b575b50806020601f8211600114620011af57600091620011a3575b508160011b916000199060031b1c19161790555b6000546001600160a01b03169060008051602062003691833981519152906040906200057d906200054262001414565b6702f847ddbdef000095868252620003d0600260208401934285528781019460018652606082019485528851602081620003a7818b62001454565b039020928151908152426020820152a26200059762001434565b600381526229a0a960e91b602082015260ff604051602081620005bb818662001454565b6009815203019020541662000e2e57604051602081620005dc818562001454565b6009815203019020805460ff191660011790556008546801000000000000000081101562000e0257600181018060085581101562000e1857600860005281516000805160206200367183398151915291909101906001600160401b03811162000e02578154600181811c9116801562001198575b602082101462000de157601f81116200114f575b50806020601f8211600114620010e357600091620010d7575b508160011b916000199060031b1c19161790555b6000546001600160a01b0316906000805160206200369183398151915290604090620006fc90620006c162001414565b670e27c49886e6000095868252620003d0600260208401934285528781019460018652606082019485528851602081620003a7818b62001454565b039020928151908152426020820152a26200071662001434565b600381526228a0a960e91b602082015260ff6040516020816200073a818662001454565b6009815203019020541662000e2e576040516020816200075b818562001454565b6009815203019020805460ff191660011790556008546801000000000000000081101562000e0257600181018060085581101562000e1857600860005281516000805160206200367183398151915291909101906001600160401b03811162000e02578154600181811c91168015620010cc575b602082101462000de157601f811162001083575b50806020601f821160011462001017576000916200100b575b508160011b916000199060031b1c19161790555b6000546001600160a01b03169060008051602062003691833981519152906040906200087b906200084062001414565b670dbd2fc137a3000095868252620003d0600260208401934285528781019460018652606082019485528851602081620003a7818b62001454565b039020928151908152426020820152a26200089562001434565b600381526212d5d160ea1b602082015260ff604051602081620008b9818662001454565b6009815203019020541662000e2e57604051602081620008da818562001454565b6009815203019020805460ff191660011790556008546801000000000000000081101562000e0257600181018060085581101562000e1857600860005281516000805160206200367183398151915291909101906001600160401b03811162000e025781548060011c90600181161562001000575b600116602082101462000de157601f811162000fb7575b50806020601f821160011462000f4b5760009162000f3f575b508160011b916000199060031b1c19161790555b6000546001600160a01b0316906000805160206200369183398151915290604090620009fe90620009c362001414565b670126e00f6c5b800095868252620003d0600260208401934285528781019460018652606082019485528851602081620003a7818b62001454565b039020928151908152426020820152a262000a1862001434565b600381526227a6a960e91b602082015260ff60405160208162000a3c818662001454565b6009815203019020541662000e2e5760405160208162000a5d818562001454565b6009815203019020805460ff191660011790556008546801000000000000000081101562000e0257600181018060085581101562000e1857600860005281516000805160206200367183398151915291909101906001600160401b03811162000e02578154600181811c9116801562000f34575b602082101462000de157601f811162000eeb575b50806020601f821160011462000e7f5760009162000e73575b508160011b916000199060031b1c19161790555b6000546001600160a01b031690600080516020620036918339815191529060409062000b7d9062000b4262001414565b67017508f1956a800095868252620003d0600260208401934285528781019460018652606082019485528851602081620003a7818b62001454565b039020928151908152426020820152a262000b9762001434565b600381526210921160ea1b602082015260ff60405160208162000bbb818662001454565b6009815203019020541662000e2e5760405160208162000bdc818562001454565b6009815203019020805460ff191660011790556008546801000000000000000081101562000e0257600181018060085581101562000e1857600860005281516000805160206200367183398151915291909101906001600160401b03811162000e02578154600181811c9116801562000df7575b602082101462000de157601f811162000d94575b50806020601f821160011462000d285760009162000d1c575b508160011b916000199060031b1c19161790555b6000546001600160a01b031690600080516020620036918339815191529060409062000cfc9062000cc162001414565b67016dedf44bdd800095868252620003d0600260208401934285528781019460018652606082019485528851602081620003a7818b62001454565b039020928151908152426020820152a26040516121ef9081620014828239f35b90508301513862000c7d565b91508260005260206000206000925b601f198316841062000d7b576001935082601f1981161062000d61575b5050811b01905562000c91565b85015160001960f88460031b161c19169055388062000d54565b8581015182556020938401936001909201910162000d37565b826000526020600020601f830160051c8101916020841062000dd6575b601f0160051c01905b81811062000dc9575062000c64565b6000815560010162000dba565b909150819062000db1565b634e487b7160e01b600052602260045260246000fd5b90607f169062000c50565b634e487b7160e01b600052604160045260246000fd5b634e487b7160e01b600052603260045260246000fd5b60405162461bcd60e51b815260206004820152601a60248201527f43757272656e637920616c726561647920737570706f727465640000000000006044820152606490fd5b90508301513862000afe565b91508260005260206000206000925b601f198316841062000ed2576001935082601f1981161062000eb8575b5050811b01905562000b12565b85015160001960f88460031b161c19169055388062000eab565b8581015182556020938401936001909201910162000e8e565b826000526020600020601f830160051c81016020841062000f2c575b601f830160051c8201811062000f1f57505062000ae5565b6000815560010162000f07565b508062000f07565b90607f169062000ad1565b9050830151386200097f565b91508260005260206000206000925b601f198316841062000f9e576001935082601f1981161062000f84575b5050811b01905562000993565b85015160001960f88460031b161c19169055388062000f77565b8581015182556020938401936001909201910162000f5a565b826000526020600020601f830160051c81016020841062000ff8575b601f830160051c8201811062000feb57505062000966565b6000815560010162000fd3565b508062000fd3565b90607f16906200094f565b905083015138620007fc565b91508260005260206000206000925b601f19831684106200106a576001935082601f1981161062001050575b5050811b01905562000810565b85015160001960f88460031b161c19169055388062001043565b8581015182556020938401936001909201910162001026565b826000526020600020601f830160051c810160208410620010c4575b601f830160051c82018110620010b7575050620007e3565b600081556001016200109f565b50806200109f565b90607f1690620007cf565b9050830151386200067d565b91508260005260206000206000925b601f198316841062001136576001935082601f198116106200111c575b5050811b01905562000691565b85015160001960f88460031b161c1916905538806200110f565b85810151825560209384019360019092019101620010f2565b826000526020600020601f830160051c81016020841062001190575b601f830160051c820181106200118357505062000664565b600081556001016200116b565b50806200116b565b90607f169062000650565b905083015138620004fe565b91508260005260206000206000925b601f198316841062001202576001935082601f19811610620011e8575b5050811b01905562000512565b85015160001960f88460031b161c191690553880620011db565b85810151825560209384019360019092019101620011be565b826000526020600020601f830160051c8101602084106200125c575b601f830160051c820181106200124f575050620004e5565b6000815560010162001237565b508062001237565b90607f1690620004d1565b90508301513862000328565b91508260005260206000206000925b601f1983168410620012ce576001935082601f19811610620012b4575b5050811b0190556200033c565b85015160001960f88460031b161c191690553880620012a7565b858101518255602093840193600190920191016200128a565b826000526020600020601f830160051c81016020841062001328575b601f830160051c820181106200131b5750506200030f565b6000815560010162001303565b508062001303565b90607f1690620002fb565b90508301513862000146565b8160005260206000209060005b601f19861681106200139e5750936001916200020f9582601f1981161062001384575b5050811b0190556200015a565b85015160001960f88460031b161c19169055388062001377565b9091602060018192858801518155019301910162001354565b816000526020600020601f850160051c81019160208610620013f9575b601f0160051c01905b818110620013ec575062000127565b60008155600101620013dd565b9091508190620013d4565b90607f169062000113565b600080fd5b60405190608082016001600160401b0381118382101762000e0257604052565b60408051919082016001600160401b0381118382101762000e0257604052565b9081519160005b8381106200146d575050016000815290565b80602080928401015181850152016200145b56fe6040608081526004908136101561001557600080fd5b600090813560e01c806302024fd8146117ed57806305657c13146117975780630592ca451461174d5780630789752c146116bb57806314c360a21461153a57806318b3163d146114685780631c7492031461125f57806322305ff914610bd157806324d434af146110065780632ce7586314610f245780633f4ba83a14610e8a57806343225acd14610e1257806344f428fa14610ca45780635c975abb14610c80578063603cda0914610c1b578063688b237114610bd157806369a7e2db14610b70578063715018a614610b165780638456cb5914610ab857806385135e0a14610a5c57806387326b36146108305780638da5cb5b146108095780638ff29cfe146107cc57806397bf7935146107675780639ac2478b14610678578063a8af6673146105d7578063aaf5eb68146105b5578063b1586e6c1461057b578063c21888fd146104cc578063caca95a4146104af578063dd671f50146103dd578063f2fde38b14610316578063f3ccf996146102695763f4b543141461019757600080fd5b346102655760209182600319360112610262578335906001600160401b0382116102625750826101cf60609561020c93369101611a21565b8351906101fc60ff8251938581818601966101eb81838a611995565b810160098152030190205416611bef565b8451938492839251928391611995565b8101600181520301902090805191610223836118b3565b805493848452600260018301549283838701520154938660ff8616151595868684015260018060a01b039060081c169101528251948552840152820152f35b80fd5b5080fd5b5034610265577fbe38ec07e0dd0749f29745591570ea1aaf31da2074f1a44517fdd2ca512bd2437fe9b08d987643de58f9c9b1b97479f3d8a16fcc7f6fb63bb399bd825a0b0b5890916102bb36611a7c565b6102c6929192611b97565b80825160208186516102db8183858b01611995565b8101600781520301902055690ac9e98aa9a8abe6468960b31b82515261030a82519383859485528401906119b8565b9060208301520390a280f35b5082346103d95760203660031901126103d957610331611b81565b9061033a611b97565b6001600160a01b0391821692831561038757505082546001600160a01b0319811683178455167f8be0079c531659141344cd1fd0a4f28419497f9722a3daafe3b4186f6b6457e08380a380f35b906020608492519162461bcd60e51b8352820152602660248201527f4f776e61626c653a206e6577206f776e657220697320746865207a65726f206160448201526564647265737360d01b6064820152fd5b8280fd5b508290346103d957602092836003193601126102625782356001600160401b03811161026557846104146104409236908701611a21565b84519061043060ff8251938581818601966101eb81838a611995565b8551938492839251928391611995565b810160018152030190208251610455816118b3565b81548152606060026001840154938489850152015460ff811615158684015260018060a01b039060081c1691015242039242841161049c5750506201518090519111158152f35b634e487b7160e01b825260119052602490fd5b503461026557816003193601126102655760209051620151808152f35b503461026557602090670de0b6b3a76400006105738361051d6104ee36611b38565b86939193519061050d60ff8251938581818601966101eb81838a611995565b8751938492839251928391611995565b8101600181520301902061056c6002865192610538846118b3565b80548452600181015489850152015460ff8116151587840181905260089190911c6001600160a01b03166060840152611d18565b5190611d64565b049051908152f35b5034610265576020906105ae61059036611b38565b906105a960ff8551878186516101eb8183858b01611995565b611ea6565b9051908152f35b503461026557816003193601126102655760209051670de0b6b3a76400008152f35b5034610265577fbe38ec07e0dd0749f29745591570ea1aaf31da2074f1a44517fdd2ca512bd2437fd2bdb209edbe5d56294b9b207a47c1a747d630309398cdc5be2c3b701cc3e7c09161062936611a7c565b610634929192611b97565b80825160208186516106498183858b01611995565b81016006815203019020556904d41524b45545f4341560b41b82515261030a82519383859485528401906119b8565b508290346103d957806003193601126103d957610693611b81565b91602435916001600160401b038311610763576106d761075d927fff7ff9b5d84d519b0864adeb71e1ff2a982ec456223864a14ce488c1559c5bd694369101611a21565b906106e0611b97565b61074b60018060a01b038616958688526002602052828820600160ff198254161790556002835160208187516107198183858c01611995565b600190820190815203019020018054610100600160a81b03191660089290921b610100600160a81b0316919091179055565b519182916020835260208301906119b8565b0390a280f35b8480fd5b5090346102625760203660031901126102625782356008548110156102655761078f90611ad3565b9390936107ba576107b6836107a3866118ef565b90519182916020835260208301906119b8565b0390f35b634e487b7160e01b8252819052602490fd5b50346102655760203660031901126102655760209160ff9082906001600160a01b036107f6611b81565b1681526002855220541690519015158152f35b5034610265578160031936011261026557905490516001600160a01b039091168152602090f35b50346102655760c0366003190112610265578235906044356001600160401b03602435606435828111610a585761086a9036908901611a21565b91608435908111610a58576108829036908901611a21565b9060a435918215158303610a5457610898611b97565b8615610a1b5781156109d857841561099f576108f692916108e4600592898b526003602052888b209283558760018401554260028401556108dc8760038501611d97565b8b8301611d97565b019060ff801983541691151516179055565b8251602081835161090a8183858801611995565b810189815203019020805490600160401b82101561098c5791610959827fbdc0d35f72e34d7d41c70861a638a20c950d7dfdd2228a250ee1666d9d586a8b969594600161075d95018155611b20565b81549060031b9088821b91600019901b19161790556109778161202e565b835193849384528060208501528301906119b8565b634e487b7160e01b875260418852602487fd5b855162461bcd60e51b81526020818b01526013602482015272496e76616c696420746f74616c2076616c756560681b6044820152606490fd5b855162461bcd60e51b81526020818b0152601760248201527f496e76616c6964207072696365207065722073712066740000000000000000006044820152606490fd5b855162461bcd60e51b81526020818b01526013602482015272125b9d985b1a59081c1c9bdc195c9d1e481251606a1b6044820152606490fd5b8780fd5b8680fd5b509034610262576020366003190112610262578235906001600160401b03821161026257506020610a948194610aa693369101611a21565b81845193828580945193849201611995565b81016006815203019020549051908152f35b503461026557816003193601126102655760207f62e78cea01bee320cd4e420270b5ea74000d11b0c9f74754ebdbfc544b05a25891610af5611b97565b610afd611c98565b835460ff60a01b1916600160a01b17845551338152a180f35b8234610262578060031936011261026257610b2f611b97565b80546001600160a01b03198116825581906001600160a01b03167f8be0079c531659141344cd1fd0a4f28419497f9722a3daafe3b4186f6b6457e08280a380f35b509034610262576020366003190112610262578235906001600160401b0382116102625750610bbc6020610baa819560ff94369101611a21565b81855193828580945193849201611995565b81016009815203019020541690519015158152f35b509034610262576020366003190112610262578235906001600160401b03821161026257506020610a948194610c0993369101611a21565b81016005815203019020549051908152f35b503461026557602036600319011261026557610c35611b81565b610c3d611b97565b6001600160a01b03168083526002602052908220805460ff191690557f50ae3647b181b6195683f16a0c98a3cd7ddc63732465548bc2e4cc18d44c629a8280a280f35b503461026557816003193601126102655760ff6020925460a01c1690519015158152f35b509034610262578060031936011261026257600891825492829083805b868110610cde575050506060945081519384526020840152820152f35b610ce781611ad3565b508551815490918285610cf984611848565b926001948581169081600014610df85750600114610dbe575b5060029250838152602094859103019020885192610d2f846118b3565b81548452810154938301938452015460ff8116151588830181905290861c6001600160a01b0316606090920191909152610dae575b514203428111610d9b576201518010610d86575b610d8190611cdf565b610cc1565b94610d93610d8191611cdf565b959050610d78565b634e487b7160e01b835260118952602483fd5b93610db890611cdf565b93610d64565b91505085528260208087208488915b858310610de35750505050600291810138610d12565b80548884015287945091830191869101610dcd565b60ff19168452506002938015150283019150389050610d12565b509034610262576020366003190112610262578235906001600160401b03821161026257506020610a94608094610e4b93369101611a21565b8101600181520301902080549160026001830154920154918151938452602084015260ff821615159083015260018060a01b039060081c166060820152f35b5082346103d957826003193601126103d957610ea4611b97565b82549060ff8260a01c1615610eea575060ff60a01b19168255513381527f5db9ee0a495bf2e6ff9c91a7834c1ba4fdd244a5e8aa4e537bd38aeae4b073aa90602090a180f35b606490602084519162461bcd60e51b8352820152601460248201527314185d5cd8589b194e881b9bdd081c185d5cd95960621b6044820152fd5b509034610262578060031936011261026257600854610f4281611b6a565b91610f4f845193846118ce565b8183526008815260209283810192827ff3f7a9fe364faab93b216da50a3214154f22a0a2b415b23a84c8169e8b636ee3855b838310610fe257505050508451938085019181865251809252858501958260051b8601019392955b828710610fb65785850386f35b909192938280610fd2600193603f198a820301865288516119b8565b9601920196019592919092610fa9565b6001888192610ff4859b98999b6118ef565b81520192019201919096949396610f81565b5091346102655782600319360112610265578035906001600160401b039081831161125b573660238401121561125b57828101359061104482611b6a565b91611051875193846118ce565b8083526020948584016024809360051b8301019136831161122957838101915b8383106112315750505050803593841161122d573660238501121561122d57838201359361109e85611b6a565b946110ab895196876118ce565b808652828787019160051b830101913683116112295783889101915b83831061121957505050506110da611b97565b6110e2611c98565b82518451036111de575050835b81518110156111da578061112260ff6101eb8761110f6111d59688611d04565b51818c5193828580945193849201611995565b61113761112f8286611d04565b511515611c34565b6111418185611d04565b5161115561114f8386611d04565b51611aad565b556001428161116761114f8588611d04565b0155600261117861114f8487611d04565b019060ff1982541617905561118d8184611d04565b517f301886e6c7c3689607c20b38181febf7ed6a192d69f4fd79065fd0fc869323b6886111c46111bd8589611d04565b5193611c78565b9281519081524289820152a2611cdf565b6110ef565b8480f35b865162461bcd60e51b815291820185905260169082015275082e4e4c2f2e640d8cadccee8d040dad2e6dac2e8c6d60531b6044820152606490fd5b82358152918101918891016110c7565b8880fd5b8580fd5b823588811161125757899161124c8392883691870101611a21565b815201920191611071565b8a80fd5b8380fd5b50346102655761126e36611a7c565b611279929192611b97565b815192805160ff602095868181860194611294818388611995565b8101600981520301902054166114255782156113eb578351858184516112bb818387611995565b81016009815203019020600160ff19825416179055600854600160401b81101561098c578060016112ef9201600855611ad3565b6113d957916113c585886113ca9461132a857f301886e6c7c3689607c20b38181febf7ed6a192d69f4fd79065fd0fc869323b69a9998611d97565b905482516001600160a01b0392918316916113a3916002916113788e61134f846118b3565b8c8452808401924284528b8a86019a60018c5260608701998a5251938492839251928391611995565b81016001815203019020915182555160018201550193511515849060ff801983541691151516179055565b518254610100600160a81b031916911660081b610100600160a81b0316179055565b611c78565b9382519182524290820152a280f35b634e487b7160e01b8752868852602487fd5b835162461bcd60e51b81528088018690526014602482015273496e76616c696420696e697469616c207261746560601b6044820152606490fd5b835162461bcd60e51b8152808801869052601a60248201527f43757272656e637920616c726561647920737570706f727465640000000000006044820152606490fd5b509034610262576020906114ad61147e36611b38565b85949194519061149d60ff8251938581818601966101eb81838a611995565b8651938492839251928391611995565b81016001815203019020906114fe60028551936114c9856118b3565b8054855260018101546020860152015460ff8116151586850181905260089190911c6001600160a01b03166060850152611d18565b670de0b6b3a764000092838102938185041490151715611527576020846105ae85855190611d77565b634e487b7160e01b815260118552602490fd5b5091346102655761154a36611a7c565b9390933384526020926002845260ff83862054168015611683575b8015611670575b1561163657506113ca839495600261161b7f301886e6c7c3689607c20b38181febf7ed6a192d69f4fd79065fd0fc869323b69686516115ba60ff8651928481818a01956101eb818389611995565b6115c2611c98565b6115cd871515611c34565b868851838188516115df818388611995565b81016001815203019020558751600186516115fb818486611995565b820191818352848142940301902001558751809381928751928391611995565b8101600181520301902001600160ff19825416179055611c78565b825162461bcd60e51b815290810184905260146024820152732ab730baba3437b934bd32b2103ab83230ba32b960611b6044820152606490fd5b5084546001600160a01b0316331461156c565b50825186516116958183888b01611995565b6001908201908152819003850190206002015460081c6001600160a01b03163314611565565b50903461026257602036600319011261026257816107b691843581526003602052208251906116e982611882565b805482526001810154936020830194855260028201549581840196875260ff6005611728611719600387016118ef565b936060880194855286016118ef565b948560808801520154161515938460a0820152519551965190519151968796876119dd565b509034610262576020366003190112610262578235906001600160401b03821161026257506020610a94819461178593369101611a21565b81016007815203019020549051908152f35b509034610262576117bf60206117ac36611a7c565b9582865194838680955193849201611995565b82019081520301902090815484101561026257506020926117df91611b20565b91905490519160031b1c8152f35b50903461026257602036600319011261026257816107b6918435815260036020522091825492600181015494600282015460ff6005611839611831600387016118ef565b9486016118ef565b940154169351968796876119dd565b90600182811c92168015611878575b602083101461186257565b634e487b7160e01b600052602260045260246000fd5b91607f1691611857565b60c081019081106001600160401b0382111761189d57604052565b634e487b7160e01b600052604160045260246000fd5b608081019081106001600160401b0382111761189d57604052565b90601f801991011681019081106001600160401b0382111761189d57604052565b906040519182600082549261190384611848565b908184526001948581169081600014611972575060011461192f575b505061192d925003836118ce565b565b9093915060005260209081600020936000915b81831061195a57505061192d9350820101388061191f565b85548884018501529485019487945091830191611942565b91505061192d94506020925060ff191682840152151560051b820101388061191f565b60005b8381106119a85750506000910152565b8181015183820152602001611998565b906020916119d181518092818552858086019101611995565b601f01601f1916010190565b949193611a199360a095611a0b9399989988526020880152604087015260c0606087015260c08601906119b8565b9084820360808601526119b8565b931515910152565b81601f82011215611a77578035906001600160401b03821161189d5760405192611a55601f8401601f1916602001856118ce565b82845260208383010111611a7757816000926020809301838601378301015290565b600080fd5b6040600319820112611a7757600435906001600160401b038211611a7757611aa691600401611a21565b9060243590565b6020611ac6918160405193828580945193849201611995565b8101600181520301902090565b600854811015611b0a5760086000527ff3f7a9fe364faab93b216da50a3214154f22a0a2b415b23a84c8169e8b636ee30190600090565b634e487b7160e01b600052603260045260246000fd5b8054821015611b0a5760005260206000200190600090565b906040600319830112611a775760043591602435906001600160401b038211611a7757611b6791600401611a21565b90565b6001600160401b03811161189d5760051b60200190565b600435906001600160a01b0382168203611a7757565b6000546001600160a01b03163303611bab57565b606460405162461bcd60e51b815260206004820152602060248201527f4f776e61626c653a2063616c6c6572206973206e6f7420746865206f776e65726044820152fd5b15611bf657565b60405162461bcd60e51b815260206004820152601660248201527510dd5c9c995b98de481b9bdd081cdd5c1c1bdc9d195960521b6044820152606490fd5b15611c3b57565b60405162461bcd60e51b8152602060048201526015602482015274496e76616c69642065786368616e6765207261746560581b6044820152606490fd5b611c9090602060405192828480945193849201611995565b810103902090565b60ff60005460a01c16611ca757565b60405162461bcd60e51b815260206004820152601060248201526f14185d5cd8589b194e881c185d5cd95960821b6044820152606490fd5b6000198114611cee5760010190565b634e487b7160e01b600052601160045260246000fd5b8051821015611b0a5760209160051b010190565b15611d1f57565b60405162461bcd60e51b815260206004820152601860248201527f45786368616e67652072617465206e6f742061637469766500000000000000006044820152606490fd5b81810292918115918404141715611cee57565b8115611d81570490565b634e487b7160e01b600052601260045260246000fd5b91909182516001600160401b03811161189d57611db48254611848565b601f8111611e5e575b50602080601f8311600114611dfa575081929394600092611def575b50508160011b916000199060031b1c1916179055565b015190503880611dd9565b90601f198316958460005282600020926000905b888210611e4657505083600195969710611e2d575b505050811b019055565b015160001960f88460031b161c19169055388080611e23565b80600185968294968601518155019501930190611e0e565b600083815260208120601f840160051c81019260208510611e9c575b601f0160051c01915b828110611e91575050611dbd565b818155600101611e83565b9092508290611e7a565b600052602060038152604080600020928151611ec181611882565b8454815260a060ff6005600188015497878501988952600281015487860152611eec600382016118ef565b6060860152611efd600482016118ef565b60808601520154161515910152835115611ff157805190838101918220835190848201918083106001600160401b0384111761189d57866210515160ea1b917f4dab77a640748de8588de6834d814a344372b205265984b969f3e97060955bfa94885260038152015214611fe957826002611f9586670de0b6b3a76400009895611fdc95611fe5999851938492839251928391611995565b81016001815203019020825195611fab876118b3565b81548752600182015490870152015460ff8116151591850182905260081c6001600160a01b03166060850152611d18565b51905190611d64565b0490565b505050505190565b815162461bcd60e51b8152600481018490526016602482015275141c9bdc195c9d1e481c1c9a58d9481b9bdd081cd95d60521b6044820152606490fd5b6040805192825191602080850193612047818887611995565b86019581816004988981520301902091805180818486549283815201600096875285872092875b878282106121a357505050612085925003826118ce565b8051156121995783948496855b835181101561214f57858560a060ff60058f6120f98d916120b3898d611d04565b5183526120ed87600394858b5220938851986120ce8a611882565b85548a5260018601549a8a019a8b526002860154908a015284016118ef565b606088015282016118ef565b60808601520154161515910152518061211c575b5061211790611cdf565b612092565b889199980180911161213c576121356121179198611cdf565b989061210d565b634e487b7160e01b875260118b52602487fd5b50945097505094909284612166575b505050505050565b6121839461217391611d77565b9451938492839251928391611995565b810160058152030190205538808080808061215e565b5050505092505050565b855484526001958601958795509301920161206e56fea2646970667358221220cfc68475cd7f335c43a432014a6e06c3397f1d67b69ced3f685c5aed0bb92d3364736f6c63430008130033f3f7a9fe364faab93b216da50a3214154f22a0a2b415b23a84c8169e8b636ee3301886e6c7c3689607c20b38181febf7ed6a192d69f4fd79065fd0fc869323b6",
  "linkReferences": {},
  "deployedLinkReferences": {}
}