{
  "_format": "hh-sol-artifact-1",
  "contractName": "PROPXToken",
  "sourceName": "contracts/PROPXToken.sol",
  "abi": [
    {
      "inputs": [
        {
          "internalType": "string",
          "name": "name",
          "type": "string"
        },
        {
          "internalType": "string",
          "name": "symbol",
          "type": "string"
        },
        {
          "internalType": "uint256",
          "name": "_totalSupply",
          "type": "uint256"
        },
        {
          "internalType": "uint256",
          "name": "_pricePerToken",
          "type": "uint256"
        },
        {
          "internalType": "address",
          "name": "_developer",
          "type": "address"
        },
        {
          "internalType": "address",
          "name": "_factory",
          "type": "address"
        },
        {
          "internalType": "string",
          "name": "_cityCode",
          "type": "string"
        },
        {
          "internalType": "uint8",
          "name": "_category",
          "type": "uint8"
        }
      ],
      "stateMutability": "nonpayable",
      "type": "constructor"
    },
    {
      "anonymous": false,
      "inputs": [
        {
          "indexed": true,
          "internalType": "address",
          "name": "owner",
          "type": "address"
        },
        {
          "indexed": true,
          "internalType": "address",
          "name": "spender",
          "type": "address"
        },
        {
          "indexed": false,
          "internalType": "uint256",
          "name": "value",
          "type": "uint256"
        }
      ],
      "name": "Approval",
      "type": "event"
    },
    {
      "anonymous": false,
      "inputs": [
        {
          "indexed": false,
          "internalType": "uint256",
          "name": "totalAmount",
          "type": "uint256"
        },
        {
          "indexed": false,
          "internalType": "uint256",
          "name": "perTokenAmount",
          "type": "uint256"
        }
      ],
      "name": "DividendDistributed",
      "type": "event"
    },
    {
      "anonymous": false,
      "inputs": [
        {
          "indexed": false,
          "internalType": "address",
          "name": "account",
          "type": "address"
        }
      ],
      "name": "Paused",
      "type": "event"
    },
    {
      "anonymous": false,
      "inputs": [
        {
          "indexed": false,
          "internalType": "uint256",
          "name": "newValuation",
          "type": "uint256"
        },
        {
          "indexed": false,
          "internalType": "uint256",
          "name": "occupancyRate",
          "type": "uint256"
        }
      ],
      "name": "PropertyMetricsUpdated",
      "type": "event"
    },
    {
      "anonymous": false,
      "inputs": [
        {
          "indexed": false,
          "internalType": "uint256",
          "name": "salePrice",
          "type": "uint256"
        },
        {
          "indexed": false,
          "internalType": "uint256",
          "name": "perTokenReturn",
          "type": "uint256"
        }
      ],
      "name": "PropertySold",
      "type": "event"
    },
    {
      "anonymous": false,
      "inputs": [
        {
          "indexed": true,
          "internalType": "address",
          "name": "investor",
          "type": "address"
        },
        {
          "indexed": false,
          "internalType": "uint256",
          "name": "amount",
          "type": "uint256"
        },
        {
          "indexed": false,
          "internalType": "uint256",
          "name": "cost",
          "type": "uint256"
        }
      ],
      "name": "TokensPurchased",
      "type": "event"
    },
    {
      "anonymous": false,
      "inputs": [
        {
          "indexed": true,
          "internalType": "address",
          "name": "from",
          "type": "address"
        },
        {
          "indexed": true,
          "internalType": "address",
          "name": "to",
          "type": "address"
        },
        {
          "indexed": false,
          "internalType": "uint256",
          "name": "value",
          "type": "uint256"
        }
      ],
      "name": "Transfer",
      "type": "event"
    },
    {
      "anonymous": false,
      "inputs": [
        {
          "indexed": false,
          "internalType": "address",
          "name": "account",
          "type": "address"
        }
      ],
      "name": "Unpaused",
      "type": "event"
    },
    {
      "inputs": [],
      "name": "MINIMUM_INVESTMENT",
      "outputs": [
        {
          "internalType": "uint256",
          "name": "",
          "type": "uint256"
        }
      ],
      "stateMutability": "view",
      "type": "function"
    },
    {
      "inputs": [],
      "name": "activateToken",
      "outputs": [],
      "stateMutability": "nonpayable",
      "type": "function"
    },
    {
      "inputs": [
        {
          "internalType": "address",
          "name": "owner",
          "type": "address"
        },
        {
          "internalType": "address",
          "name": "spender",
          "type": "address"
        }
      ],
      "name": "allowance",
      "outputs": [
        {
          "internalType": "uint256",
          "name": "",
          "type": "uint256"
        }
      ],
      "stateMutability": "view",
      "type": "function"
    },
    {
      "inputs": [
        {
          "internalType": "address",
          "name": "spender",
          "type": "address"
        },
        {
          "internalType": "uint256",
          "name": "amount",
          "type": "uint256"
        }
      ],
      "name": "approve",
      "outputs": [
        {
          "internalType": "bool",
          "name": "",
          "type": "bool"
        }
      ],
      "stateMutability": "nonpayable",
      "type": "function"
    },
    {
      "inputs": [
        {
          "internalType": "address",
          "name": "account",
          "type": "address"
        }
      ],
      "name": "balanceOf",
      "outputs": [
        {
          "internalType": "uint256",
          "name": "",
          "type": "uint256"
        }
      ],
      "stateMutability": "view",
      "type": "function"
    },
    {
      "inputs": [
        {
          "internalType": "uint256",
          "name": "tokenAmount",
          "type": "uint256"
        }
      ],
      "name": "buyTokens",
      "outputs": [],
      "stateMutability": "payable",
      "type": "function"
    },
    {
      "inputs": [],
      "name": "category",
      "outputs": [
        {
          "internalType": "uint8",
          "name": "",
          "type": "uint8"
        }
      ],
      "stateMutability": "view",
      "type": "function"
    },
    {
      "inputs": [],
      "name": "cityCode",
      "outputs": [
        {
          "internalType": "string",
          "name": "",
          "type": "string"
        }
      ],
      "stateMutability": "view",
      "type": "function"
    },
    {
      "inputs": [],
      "name": "claimDividends",
      "outputs": [],
      "stateMutability": "nonpayable",
      "type": "function"
    },
    {
      "inputs": [],
      "name": "decimals",
      "outputs": [
        {
          "internalType": "uint8",
          "name": "",
          "type": "uint8"
        }
      ],
      "stateMutability": "view",
      "type": "function"
    },
    {
      "inputs": [
        {
          "internalType": "address",
          "name": "spender",
          "type": "address"
        },
        {
          "internalType": "uint256",
          "name": "subtractedValue",
          "type": "uint256"
        }
      ],
      "name": "decreaseAllowance",
      "outputs": [
        {
          "internalType": "bool",
          "name": "",
          "type": "bool"
        }
      ],
      "stateMutability": "nonpayable",
      "type": "function"
    },
    {
      "inputs": [],
      "name": "developer",
      "outputs": [
        {
          "internalType": "address",
          "name": "",
          "type": "address"
        }
      ],
      "stateMutability": "view",
      "type": "function"
    },
    {
      "inputs": [],
      "name": "distributeDividends",
      "outputs": [],
      "stateMutability": "payable",
      "type": "function"
    },
    {
      "inputs": [],
      "name": "dividendPool",
      "outputs": [
        {
          "internalType": "uint256",
          "name": "",
          "type": "uint256"
        }
      ],
      "stateMutability": "view",
      "type": "function"
    },
    {
      "inputs": [
        {
          "internalType": "address",
          "name": "",
          "type": "address"
        }
      ],
      "name": "dividendsClaimed",
      "outputs": [
        {
          "internalType": "uint256",
          "name": "",
          "type": "uint256"
        }
      ],
      "stateMutability": "view",
      "type": "function"
    },
    {
      "inputs": [],
      "name": "factory",
      "outputs": [
        {
          "internalType": "address",
          "name": "",
          "type": "address"
        }
      ],
      "stateMutability": "view",
      "type": "function"
    },
    {
      "inputs": [],
      "name": "fundingDeadline",
      "outputs": [
        {
          "internalType": "uint256",
          "name": "",
          "type": "uint256"
        }
      ],
      "stateMutability": "view",
      "type": "function"
    },
    {
      "inputs": [],
      "name": "fundingGoal",
      "outputs": [
        {
          "internalType": "uint256",
          "name": "",
          "type": "uint256"
        }
      ],
      "stateMutability": "view",
      "type": "function"
    },
    {
      "inputs": [],
      "name": "getFundingStatus",
      "outputs": [
        {
          "internalType": "uint256",
          "name": "raised",
          "type": "uint256"
        },
        {
          "internalType": "uint256",
          "name": "goal",
          "type": "uint256"
        },
        {
          "internalType": "uint256",
          "name": "deadline",
          "type": "uint256"
        },
        {
          "internalType": "bool",
          "name": "funded",
          "type": "bool"
        },
        {
          "internalType": "uint256",
          "name": "tokensRemaining",
          "type": "uint256"
        },
        {
          "internalType": "uint256",
          "name": "investorCount",
          "type": "uint256"
        }
      ],
      "stateMutability": "view",
      "type": "function"
    },
    {
      "inputs": [],
      "name": "getInvestmentMetrics",
      "outputs": [
        {
          "internalType": "uint256",
          "name": "currentYield",
          "type": "uint256"
        },
        {
          "internalType": "uint256",
          "name": "capRate",
          "type": "uint256"
        },
        {
          "internalType": "uint256",
          "name": "occupancyRate",
          "type": "uint256"
        },
        {
          "internalType": "uint256",
          "name": "totalReturn",
          "type": "uint256"
        },
        {
          "internalType": "uint256",
          "name": "annualizedReturn",
          "type": "uint256"
        }
      ],
      "stateMutability": "view",
      "type": "function"
    },
    {
      "inputs": [],
      "name": "getTokenPrice",
      "outputs": [
        {
          "internalType": "uint256",
          "name": "marketPrice",
          "type": "uint256"
        },
        {
          "internalType": "uint256",
          "name": "navPrice",
          "type": "uint256"
        }
      ],
      "stateMutability": "view",
      "type": "function"
    },
    {
      "inputs": [
        {
          "internalType": "address",
          "name": "spender",
          "type": "address"
        },
        {
          "internalType": "uint256",
          "name": "addedValue",
          "type": "uint256"
        }
      ],
      "name": "increaseAllowance",
      "outputs": [
        {
          "internalType": "bool",
          "name": "",
          "type": "bool"
        }
      ],
      "stateMutability": "nonpayable",
      "type": "function"
    },
    {
      "inputs": [
        {
          "internalType": "address",
          "name": "",
          "type": "address"
        }
      ],
      "name": "investments",
      "outputs": [
        {
          "internalType": "uint256",
          "name": "",
          "type": "uint256"
        }
      ],
      "stateMutability": "view",
      "type": "function"
    },
    {
      "inputs": [],
      "name": "isActive",
      "outputs": [
        {
          "internalType": "bool",
          "name": "",
          "type": "bool"
        }
      ],
      "stateMutability": "view",
      "type": "function"
    },
    {
      "inputs": [],
      "name": "isFunded",
      "outputs": [
        {
          "internalType": "bool",
          "name": "",
          "type": "bool"
        }
      ],
      "stateMutability": "view",
      "type": "function"
    },
    {
      "inputs": [],
      "name": "name",
      "outputs": [
        {
          "internalType": "string",
          "name": "",
          "type": "string"
        }
      ],
      "stateMutability": "view",
      "type": "function"
    },
    {
      "inputs": [],
      "name": "paused",
      "outputs": [
        {
          "internalType": "bool",
          "name": "",
          "type": "bool"
        }
      ],
      "stateMutability": "view",
      "type": "function"
    },
    {
      "inputs": [],
      "name": "performanceData",
      "outputs": [
        {
          "internalType": "uint256",
          "name": "totalDividendsPaid",
          "type": "uint256"
        },
        {
          "internalType": "uint256",
          "name": "lastDividendDate",
          "type": "uint256"
        },
        {
          "internalType": "uint256",
          "name": "averageMonthlyReturn",
          "type": "uint256"
        },
        {
          "internalType": "uint256",
          "name": "annualizedReturn",
          "type": "uint256"
        },
        {
          "internalType": "uint256",
          "name": "totalAppreciation",
          "type": "uint256"
        }
      ],
      "stateMutability": "view",
      "type": "function"
    },
    {
      "inputs": [],
      "name": "pricePerToken",
      "outputs": [
        {
          "internalType": "uint256",
          "name": "",
          "type": "uint256"
        }
      ],
      "stateMutability": "view",
      "type": "function"
    },
    {
      "inputs": [],
      "name": "propertyMetrics",
      "outputs": [
        {
          "internalType": "uint256",
          "name": "currentValuation",
          "type": "uint256"
        },
        {
          "internalType": "uint256",
          "name": "lastValuationDate",
          "type": "uint256"
        },
        {
          "internalType": "uint256",
          "name": "monthlyRental",
          "type": "uint256"
        },
        {
          "internalType": "uint256",
          "name": "occupancyRate",
          "type": "uint256"
        },
        {
          "internalType": "uint256",
          "name": "maintenanceCosts",
          "type": "uint256"
        },
        {
          "internalType": "uint256",
          "name": "capRate",
          "type": "uint256"
        }
      ],
      "stateMutability": "view",
      "type": "function"
    },
    {
      "inputs": [],
      "name": "symbol",
      "outputs": [
        {
          "internalType": "string",
          "name": "",
          "type": "string"
        }
      ],
      "stateMutability": "view",
      "type": "function"
    },
    {
      "inputs": [],
      "name": "totalRaised",
      "outputs": [
        {
          "internalType": "uint256",
          "name": "",
          "type": "uint256"
        }
      ],
      "stateMutability": "view",
      "type": "function"
    },
    {
      "inputs": [],
      "name": "totalSupply",
      "outputs": [
        {
          "internalType": "uint256",
          "name": "",
          "type": "uint256"
        }
      ],
      "stateMutability": "view",
      "type": "function"
    },
    {
      "inputs": [
        {
          "internalType": "address",
          "name": "to",
          "type": "address"
        },
        {
          "internalType": "uint256",
          "name": "amount",
          "type": "uint256"
        }
      ],
      "name": "transfer",
      "outputs": [
        {
          "internalType": "bool",
          "name": "",
          "type": "bool"
        }
      ],
      "stateMutability": "nonpayable",
      "type": "function"
    },
    {
      "inputs": [
        {
          "internalType": "address",
          "name": "from",
          "type": "address"
        },
        {
          "internalType": "address",
          "name": "to",
          "type": "address"
        },
        {
          "internalType": "uint256",
          "name": "amount",
          "type": "uint256"
        }
      ],
      "name": "transferFrom",
      "outputs": [
        {
          "internalType": "bool",
          "name": "",
          "type": "bool"
        }
      ],
      "stateMutability": "nonpayable",
      "type": "function"
    },
    {
      "inputs": [
        {
          "internalType": "uint256",
          "name": "newValuation",
          "type": "uint256"
        },
        {
          "internalType": "uint256",
          "name": "monthlyRental",
          "type": "uint256"
        },
        {
          "internalType": "uint256",
          "name": "occupancyRate",
          "type": "uint256"
        },
        {
          "internalType": "uint256",
          "name": "maintenanceCosts",
          "type": "uint256"
        }
      ],
      "name": "updatePropertyMetrics",
      "outputs": [],
      "stateMutability": "nonpayable",
      "type": "function"
    },
    {
      "stateMutability": "payable",
      "type": "receive"
    }
  ],
  "bytecode": "0x60406080815234620006425762001ff490813803806200001f8162000647565b93843982019161010081840312620006425780516001600160401b039390848111620006425781620000539184016200066d565b90602080840151868111620006425782620000709186016200066d565b9385810151926060820151946200008a60808401620006df565b936200009960a08501620006df565b9260c08501518b8111620006425760e091620000b79187016200066d565b9401519360ff8516850362000642578251918b83116200053e57600354926001948585811c9516801562000637575b8386101462000621578190601f95868111620005ca575b508390868311600114620005605760009262000554575b505081861b916000199060031b1c1916176003555b89518c81116200053e5760049a8b548681811c9116801562000533575b848210146200051e57908186849311620004c8575b508390868311600114620004615760009262000455575b5050600019600383901b1c191690851b178a555b8360055560ff1996876006541660065530156200041457600254898101809111620003ff5760025530600052600082528b6000208981540190558b5189815260007fddf252ad1be2c89b69c2b068fc378daa952ba7f163c4a11628f55a4df523b3ef843093a3600a8a9055600780546001600160a01b0319166001600160a01b039290921691909117905560068054610100600160a81b031916600896871b610100600160a81b031617905581519b8c11620003ea5784548481811c91168015620003df575b82821014620003ca5780848e92116200037d575b505080928c116001146200030c5750998092819260ff9798999a9b9c60009462000300575b50501b916000199060031b1c19161790555b16906009541617600955818102918183041490151715620002eb57600b556276a700420190814211620002d65750600c55516118ff9081620006f58239f35b601190634e487b7160e01b6000525260246000fd5b601182634e487b7160e01b6000525260246000fd5b01519250388062000285565b909a91601f1983169b856000528c83600020936000915b8210620003645750508360ff98999a9b9c9d106200034a575b505050811b01905562000297565b015160001960f88460031b161c191690553880806200033c565b8284015185559386019392830192908101908e62000323565b866000528483600020918482850160051c84019410620003c0575b0160051c019085905b828110620003b357508d915062000260565b60008155018590620003a1565b9250819262000398565b60228b634e487b7160e01b6000525260246000fd5b90607f16906200024c565b60418a634e487b7160e01b6000525260246000fd5b60118c634e487b7160e01b6000525260246000fd5b60648b85848f519262461bcd60e51b845283015260248201527f45524332303a206d696e7420746f20746865207a65726f2061646472657373006044820152fd5b01519050388062000172565b60008e8152858120899550929190601f198516905b87828210620004b1575050841162000497575b505050811b018a5562000186565b015160001960f88460031b161c1916905538808062000489565b8385015186558b9790950194938401930162000476565b9091508c600052836000208680850160051c82019286861062000514575b918991869594930160051c01915b828110620005045750506200015b565b60008155859450899101620004f4565b92508192620004e6565b60228d634e487b7160e01b6000525260246000fd5b90607f169062000146565b634e487b7160e01b600052604160045260246000fd5b01519050388062000114565b90879350601f198316916003600052856000209260005b87828210620005b3575050841162000599575b505050811b0160035562000129565b015160001960f88460031b161c191690553880806200058a565b8385015186558b9790950194938401930162000577565b9091506003600052836000208680850160051c82019286861062000617575b918991869594930160051c01915b82811062000607575050620000fd565b60008155859450899101620005f7565b92508192620005e9565b634e487b7160e01b600052602260045260246000fd5b94607f1694620000e6565b600080fd5b6040519190601f01601f191682016001600160401b038111838210176200053e57604052565b919080601f84011215620006425782516001600160401b0381116200053e57602090620006a3601f8201601f1916830162000647565b92818452828287010111620006425760005b818110620006cb57508260009394955001015290565b8581018301518482018401528201620006b5565b51906001600160a01b0382168203620006425756fe60406080815260048036101561001f575b5050361561001d57600080fd5b005b600091823560e01c806303c833021461130e57806306fdde031461124c578063095ea7b314611222578063124403b9146111ea57806318160ddd146111cb57806318fa236c14611181578063207d0527146110fc57806322f3e2d4146110d857806323b872dd1461100c578063251d11dd14610eb057806330d172d514610e91578063313ce56714610e755780633610724e146109e9578063395093511461099a5780634b94f50e1461092a5780635c975abb14610906578063668038e0146107bf57806370a0823114610788578063796b23bb146107695780637a3a0e841461074a5780637b1b1de61461072b5780637c654303146107045780638955aa021461060e5780638a4660fe146105e957806395d89b41146104e957806396b98862146104b15780639778774714610467578063a457c2d7146103be578063a9059cbb1461038d578063c45a015514610360578063c5c4744c14610341578063ca4b208b14610318578063dd62ed3e146102ca578063ef430aa6146102a8578063f2dfc3fc1461022d5763f957417e146101b85750610010565b3461022957826003193601126102295760065460081c6001600160a01b031633036101ee5782600160ff19600e541617600e5580f35b906020606492519162461bcd60e51b8352820152601560248201527413db9b1e48199858dd1bdc9e4818d85b8818d85b1b605a1b6044820152fd5b8280fd5b8382346102a457816003193601126102a4579060c091600d5491600b5491600c5460ff600e5460081c169130845283602052808420549386151560001461029e575069021e19e0c9bab24000008604945b8151968752602087015285015215156060840152608083015260a0820152f35b9461027e565b5080fd5b8382346102a457816003193601126102a45760209060ff600954169051908152f35b8382346102a457806003193601126102a4576020916102e76114a3565b826102f06114be565b6001600160a01b03928316845260018652922091166000908152908352819020549051908152f35b8382346102a457816003193601126102a45760075490516001600160a01b039091168152602090f35b8382346102a457816003193601126102a457602090600d549051908152f35b8382346102a457816003193601126102a457600654905160089190911c6001600160a01b03168152602090f35b8382346102a457806003193601126102a4576020906103b76103ad6114a3565b602435903361152f565b5160018152f35b5091346104645782600319360112610464576103d86114a3565b91836024359233815260016020522060018060a01b038416600052602052836000205490828210610413576020856103b7858503873361169d565b608490602086519162461bcd60e51b8352820152602560248201527f45524332303a2064656372656173656420616c6c6f77616e63652062656c6f77604482015264207a65726f60d81b6064820152fd5b80fd5b508234610464578060031936011261046457506015546016546017546018546019549451938452602084019290925260408301526060820152608081019190915260a090f35b0390f35b8382346102a45760203660031901126102a45760209181906001600160a01b036104d96114a3565b168152601a845220549051908152f35b50823461046457806003193601126104645750805190600092805490600182811c918184169384156105df575b60209485851081146105cc578488529081156105aa5750600114610550575b6104ad8686610546828b03836114d4565b5191829182611477565b60009081529295507f8a35acfbc15ff81a39ae7d344fd709f28e8600b4aa8c65c6b64bfe7fe36bd19b5b82841061059757505050826104ad94610546928201019486610535565b805486850188015292860192810161057a565b60ff191687860152505050151560051b8301019250610546826104ad86610535565b634e487b7160e01b895260228352602489fd5b92607f1692610516565b8382346102a457816003193601126102a4576020905169021e19e0c9bab24000008152f35b50823461046457806003193601126104645750805190600092600854600181811c9181811680156106fa575b60209485851082146106e757508387529081156106c7575060011461066c575b505050610546826104ad9403836114d4565b600860009081529295507ff3f7a9fe364faab93b216da50a3214154f22a0a2b415b23a84c8169e8b636ee35b8284106106b457505050826104ad94610546928201019461065a565b8054868501880152928601928101610698565b60ff1916868501525050151560051b8301019250610546826104ad61065a565b634e487b7160e01b895260229052602488fd5b92607f169261063a565b8382346102a457816003193601126102a45760209060ff600e5460081c1690519015158152f35b8382346102a457816003193601126102a457602090600a549051908152f35b8382346102a457816003193601126102a457602090600b549051908152f35b8382346102a457816003193601126102a457602090600c549051908152f35b8382346102a45760203660031901126102a45760209181906001600160a01b036107b06114a3565b16815280845220549051908152f35b5090346102295782600319360112610229576107d9611873565b33835260208381528284205480156108d457600254903086528583528486205482039182116108c1579061081261081792601c546117eb565b6117fe565b91338552601b825283852054808403938085116108ae57146108745750838080938193338352601b8152601b610850838986205461150c565b9133855252868320553382f11561086a5750600160055580f35b51903d90823e3d90fd5b60649184519162461bcd60e51b835282015260166024820152754e6f206469766964656e647320617661696c61626c6560501b6044820152fd5b634e487b7160e01b875260118352602487fd5b634e487b7160e01b865260118452602486fd5b50606492519162461bcd60e51b8352820152600e60248201526d139bc81d1bdad95b9cc81a195b1960921b6044820152fd5b8382346102a457816003193601126102a45760209060ff6006541690519015158152f35b508234610464578060031936011261046457600a54600f54909190801561098f57600254913081528060205284812054830392831161097c5750610970929394506117fe565b82519182526020820152f35b634e487b7160e01b815260118652602490fd5b505080919250610970565b8382346102a457806003193601126102a4576103b7602092826109bb6114a3565b91338152600186522060018060a01b03821660005284526109e2602435846000205461150c565b903361169d565b50829060209283600319360112610229578035610a04611873565b60ff600e541615610e4057600a548015610e2b578069021e19e0c9bab2400000048210610de857610a3590826117eb565b3403610da657600c544211610d6d57308452838552808385205410610d2b57338452601a8552610a68348486205461150c565b338552601a865283852055610a7f34600d5461150c565b600d55610a8d81333061152f565b825190815234858201527f8fafebcaf9d154343dad25669bfa277f4fbacd7ac6b0c4fed522580e040a0f33833392a2600d54600b54811015610ad3575b83600160055580f35b610100918261ff0019600e541617600e556006549260018060a01b03968794856007541692888851809363030feae160e51b825286888301528160249d8e9260081c165afa918215610d21578992610c14575b50506060915001516003811015610c0257600203610be5576096830283810460961484151715610bd3576127109004925b83810392818411610bc1575086809850809697938193829387849114610bb8575bf115610bab5782809291819260065460081c16828215610ba2575bf11561086a5780808392610aca565b506108fc610b93565b50505051903d90823e3d90fd5b506108fc610b78565b634e487b7160e01b8852601190528787fd5b634e487b7160e01b8752601183528787fd5b60fa830283810460fa1484151715610bd357612710900492610b57565b634e487b7160e01b8752602183528787fd5b9091503d808a833e610c2681836114d4565b81018382820312610cfd57815167ffffffffffffffff92838211610d1d570191610120948584840312610d1d578a5195860186811083821117610d09578b5283518a81168103610d0557865280840151828111610d055783610c8991860161181e565b9086015289830151908111610d015790610ca491830161181e565b8884015260608101516003811015610cfd5760608401526080810151608084015260a081015160a084015260c081015160c084015260e08101518015158103610cfd5760e0840152810151908201526060908980610b26565b8980fd5b8a80fd5b8c80fd5b8d60418a634e487b7160e01b600052526000fd5b8b80fd5b88513d8b823e3d90fd5b5083606492519162461bcd60e51b8352820152601d60248201527f496e73756666696369656e7420746f6b656e7320617661696c61626c650000006044820152fd5b5083606492519162461bcd60e51b83528201526014602482015273119d5b991a5b99c81c195c9a5bd908195b99195960621b6044820152fd5b5083606492519162461bcd60e51b8352820152601860248201527f496e636f7272656374207061796d656e7420616d6f756e7400000000000000006044820152fd5b835162461bcd60e51b8152808401879052601860248201527f42656c6f77206d696e696d756d20696e766573746d656e7400000000000000006044820152606490fd5b601283634e487b7160e01b6000525260246000fd5b5083606492519162461bcd60e51b8352820152601060248201526f546f6b656e206e6f742061637469766560801b6044820152fd5b8382346102a457816003193601126102a4576020905160128152f35b8382346102a457816003193601126102a457602090601c549051908152f35b508290346102a45760803660031901126102a45782356024356044359060643590610ee660018060a01b0360075416331461179f565b83600f5542601055806011558260125581601355600c810290808204600c1490151715610ff957908291610f1e6127109384926117eb565b0490600c810290808204600c1490151715610fe65780820392828411610fd3578515610fa5578084029384041491141715610f92577f23c198dbe1a7bc6c0069db4509ebd9e5905eba75b79e3b28aba8fcf44a06666494955082610f81916117fe565b60145582519182526020820152a180f35b634e487b7160e01b855260118652602485fd5b50505050837f23c198dbe1a7bc6c0069db4509ebd9e5905eba75b79e3b28aba8fcf44a066664949550610f81565b634e487b7160e01b885260118952602488fd5b634e487b7160e01b875260118852602487fd5b634e487b7160e01b865260118752602486fd5b509190346102a45760603660031901126102a4576110286114a3565b6110306114be565b91846044359460018060a01b038416815260016020522033600052602052846000205490600019820361106c575b6020866103b787878761152f565b848210611095575091839161108a602096956103b79503338361169d565b91939481935061105e565b606490602087519162461bcd60e51b8352820152601d60248201527f45524332303a20696e73756666696369656e7420616c6c6f77616e63650000006044820152fd5b8382346102a457816003193601126102a45760209060ff600e541690519015158152f35b50913461046457806003193601126104645760175491600c830292808404600c149015171561116e5750506104ad601454926012546111406015546019549061150c565b906018549251958695869192608093969594919660a084019784526020840152604083015260608201520152565b634e487b7160e01b825260119052602490fd5b8382346102a457816003193601126102a45760c090600f549060105490601154601254906013549260145494815196875260208701528501526060840152608083015260a0820152f35b8382346102a457816003193601126102a4576020906002549051908152f35b8382346102a45760203660031901126102a45760209181906001600160a01b036112126114a3565b168152601b845220549051908152f35b8382346102a457806003193601126102a4576020906103b76112426114a3565b602435903361169d565b50823461046457806003193601126104645750805190600092600354600181811c918181168015611304575b60209485851082146106e757508387529081156106c757506001146112a957505050610546826104ad9403836114d4565b600360009081529295507fc2575a0e9e593c00f959f8c92f12db2869c3395a3b0502d05e2516446f71f85b5b8284106112f157505050826104ad94610546928201019461065a565b80548685018801529286019281016112d5565b92607f1692611278565b509190816003193601126102a45761133160018060a01b0360075416331461179f565b3415611411576002549030835282602052838320548211156113df5761135934601c5461150c565b601c55308352826020528383205482039182116113cc575061137b90346117fe565b916113883460155461150c565b60155542601655426113c7575b7f2f588cf4bb0247b0f3f60e06187f92e6fd1deaabb56e2bcc567235233787132791928151903482526020820152a180f35b611395565b634e487b7160e01b835260119052602482fd5b606490602085519162461bcd60e51b8352820152600c60248201526b4e6f20696e766573746f727360a01b6044820152fd5b606490602084519162461bcd60e51b8352820152601960248201527f4e6f206469766964656e6420746f2064697374726962757465000000000000006044820152fd5b60005b8381106114675750506000910152565b8181015183820152602001611457565b604091602082526114978151809281602086015260208686019101611454565b601f01601f1916010190565b600435906001600160a01b03821682036114b957565b600080fd5b602435906001600160a01b03821682036114b957565b90601f8019910116810190811067ffffffffffffffff8211176114f657604052565b634e487b7160e01b600052604160045260246000fd5b9190820180921161151957565b634e487b7160e01b600052601160045260246000fd5b6001600160a01b0390811691821561164a57169182156115f9576000828152806020526040812054918083106115a557604082827fddf252ad1be2c89b69c2b068fc378daa952ba7f163c4a11628f55a4df523b3ef958760209652828652038282205586815220818154019055604051908152a3565b60405162461bcd60e51b815260206004820152602660248201527f45524332303a207472616e7366657220616d6f756e7420657863656564732062604482015265616c616e636560d01b6064820152608490fd5b60405162461bcd60e51b815260206004820152602360248201527f45524332303a207472616e7366657220746f20746865207a65726f206164647260448201526265737360e81b6064820152608490fd5b60405162461bcd60e51b815260206004820152602560248201527f45524332303a207472616e736665722066726f6d20746865207a65726f206164604482015264647265737360d81b6064820152608490fd5b6001600160a01b0390811691821561174e57169182156116fe5760207f8c5be1e5ebec7d5bd14f71427d1e84f3dd0314c0f7b2291e5b200ac8c7c3b925918360005260018252604060002085600052825280604060002055604051908152a3565b60405162461bcd60e51b815260206004820152602260248201527f45524332303a20617070726f766520746f20746865207a65726f206164647265604482015261737360f01b6064820152608490fd5b60405162461bcd60e51b8152602060048201526024808201527f45524332303a20617070726f76652066726f6d20746865207a65726f206164646044820152637265737360e01b6064820152608490fd5b156117a657565b60405162461bcd60e51b815260206004820152601760248201527f4f6e6c7920646576656c6f7065722063616e2063616c6c0000000000000000006044820152606490fd5b8181029291811591840414171561151957565b8115611808570490565b634e487b7160e01b600052601260045260246000fd5b81601f820112156114b957805167ffffffffffffffff81116114f65760405192611852601f8301601f1916602001856114d4565b818452602082840101116114b9576118709160208085019101611454565b90565b600260055414611884576002600555565b60405162461bcd60e51b815260206004820152601f60248201527f5265656e7472616e637947756172643a207265656e7472616e742063616c6c006044820152606490fdfea264697066735822122097dc01171b3d1cd584a2906e2b781e81c8bbacec38338907b31641fc8b3dd75f64736f6c63430008130033",
  "linkReferences": {},
  "deployedLinkReferences": {}
}