{"contracts/UAE/UAEPriceOracle.sol":{"UAEPriceOracle":{"abi":[{"inputs":[],"stateMutability":"nonpayable","type":"constructor"},{"anonymous":false,"inputs":[{"indexed":true,"internalType":"address","name":"updater","type":"address"},{"indexed":false,"internalType":"string","name":"currency","type":"string"}],"name":"AuthorizedUpdaterAdded","type":"event"},{"anonymous":false,"inputs":[{"indexed":true,"internalType":"address","name":"updater","type":"address"}],"name":"AuthorizedUpdaterRemoved","type":"event"},{"anonymous":false,"inputs":[{"indexed":true,"internalType":"string","name":"currency","type":"string"},{"indexed":false,"internalType":"uint256","name":"newRate","type":"uint256"},{"indexed":false,"internalType":"uint256","name":"timestamp","type":"uint256"}],"name":"ExchangeRateUpdated","type":"event"},{"anonymous":false,"inputs":[{"indexed":true,"internalType":"string","name":"dataType","type":"string"},{"indexed":false,"internalType":"string","name":"key","type":"string"},{"indexed":false,"internalType":"uint256","name":"value","type":"uint256"}],"name":"MarketDataUpdated","type":"event"},{"anonymous":false,"inputs":[{"indexed":true,"internalType":"address","name":"previousOwner","type":"address"},{"indexed":true,"internalType":"address","name":"newOwner","type":"address"}],"name":"OwnershipTransferred","type":"event"},{"anonymous":false,"inputs":[{"indexed":false,"internalType":"address","name":"account","type":"address"}],"name":"Paused","type":"event"},{"anonymous":false,"inputs":[{"indexed":true,"internalType":"uint256","name":"propertyId","type":"uint256"},{"indexed":false,"internalType":"uint256","name":"newPrice","type":"uint256"},{"indexed":false,"internalType":"string","name":"zone","type":"string"}],"name":"PropertyPriceUpdated","type":"event"},{"anonymous":false,"inputs":[{"indexed":false,"internalType":"address","name":"account","type":"address"}],"name":"Unpaused","type":"event"},{"inputs":[],"name":"MAX_STALENESS","outputs":[{"internalType":"uint256","name":"","type":"uint256"}],"stateMutability":"view","type":"function"},{"inputs":[],"name":"PRECISION","outputs":[{"internalType":"uint256","name":"","type":"uint256"}],"stateMutability":"view","type":"function"},{"inputs":[{"internalType":"address","name":"updater","type":"address"},{"internalType":"string","name":"currency","type":"string"}],"name":"addAuthorizedUpdater","outputs":[],"stateMutability":"nonpayable","type":"function"},{"inputs":[{"internalType":"string","name":"currency","type":"string"},{"internalType":"uint256","name":"initialRate","type":"uint256"}],"name":"addSupportedCurrency","outputs":[],"stateMutability":"nonpayable","type":"function"},{"inputs":[{"internalType":"address","name":"","type":"address"}],"name":"authorizedUpdaters","outputs":[{"internalType":"bool","name":"","type":"bool"}],"stateMutability":"view","type":"function"},{"inputs":[{"internalType":"string","name":"","type":"string"}],"name":"averageZonePrices","outputs":[{"internalType":"uint256","name":"","type":"uint256"}],"stateMutability":"view","type":"function"},{"inputs":[{"internalType":"string[]","name":"currencies","type":"string[]"},{"internalType":"uint256[]","name":"rates","type":"uint256[]"}],"name":"batchUpdateExchangeRates","outputs":[],"stateMutability":"nonpayable","type":"function"},{"inputs":[{"internalType":"uint256","name":"aedAmount","type":"uint256"},{"internalType":"string","name":"targetCurrency","type":"string"}],"name":"convertFromAED","outputs":[{"internalType":"uint256","name":"convertedAmount","type":"uint256"}],"stateMutability":"view","type":"function"},{"inputs":[{"internalType":"uint256","name":"amount","type":"uint256"},{"internalType":"string","name":"sourceCurrency","type":"string"}],"name":"convertToAED","outputs":[{"internalType":"uint256","name":"aedAmount","type":"uint256"}],"stateMutability":"view","type":"function"},{"inputs":[{"internalType":"string","name":"","type":"string"}],"name":"currencySupported","outputs":[{"internalType":"bool","name":"","type":"bool"}],"stateMutability":"view","type":"function"},{"inputs":[{"internalType":"string","name":"","type":"string"}],"name":"exchangeRates","outputs":[{"internalType":"uint256","name":"rate","type":"uint256"},{"internalType":"uint256","name":"lastUpdated","type":"uint256"},{"internalType":"bool","name":"isActive","type":"bool"},{"internalType":"address","name":"updater","type":"address"}],"stateMutability":"view","type":"function"},{"inputs":[{"internalType":"string","name":"zone","type":"string"}],"name":"getAverageZonePrice","outputs":[{"internalType":"uint256","name":"averagePrice","type":"uint256"}],"stateMutability":"view","type":"function"},{"inputs":[{"internalType":"string","name":"currency","type":"string"}],"name":"getExchangeRate","outputs":[{"internalType":"uint256","name":"rate","type":"uint256"},{"internalType":"uint256","name":"lastUpdated","type":"uint256"},{"internalType":"bool","name":"isActive","type":"bool"}],"stateMutability":"view","type":"function"},{"inputs":[],"name":"getOracleHealth","outputs":[{"internalType":"uint256","name":"totalCurrencies","type":"uint256"},{"internalType":"uint256","name":"activeCurrencies","type":"uint256"},{"internalType":"uint256","name":"stalePrices","type":"uint256"}],"stateMutability":"view","type":"function"},{"inputs":[{"internalType":"uint256","name":"propertyId","type":"uint256"}],"name":"getPropertyPrice","outputs":[{"internalType":"uint256","name":"pricePerSqFt","type":"uint256"},{"internalType":"uint256","name":"totalValue","type":"uint256"},{"internalType":"uint256","name":"lastUpdated","type":"uint256"},{"internalType":"string","name":"zone","type":"string"},{"internalType":"string","name":"emirate","type":"string"},{"internalType":"bool","name":"isVerified","type":"bool"}],"stateMutability":"view","type":"function"},{"inputs":[{"internalType":"uint256","name":"propertyId","type":"uint256"},{"internalType":"string","name":"currency","type":"string"}],"name":"getPropertyValueInCurrency","outputs":[{"internalType":"uint256","name":"value","type":"uint256"}],"stateMutability":"view","type":"function"},{"inputs":[],"name":"getSupportedCurrencies","outputs":[{"internalType":"string[]","name":"currencies","type":"string[]"}],"stateMutability":"view","type":"function"},{"inputs":[{"internalType":"string","name":"currency","type":"string"}],"name":"isPriceFresh","outputs":[{"internalType":"bool","name":"isFresh","type":"bool"}],"stateMutability":"view","type":"function"},{"inputs":[{"internalType":"string","name":"","type":"string"}],"name":"marketCapitalization","outputs":[{"internalType":"uint256","name":"","type":"uint256"}],"stateMutability":"view","type":"function"},{"inputs":[],"name":"owner","outputs":[{"internalType":"address","name":"","type":"address"}],"stateMutability":"view","type":"function"},{"inputs":[],"name":"pause","outputs":[],"stateMutability":"nonpayable","type":"function"},{"inputs":[],"name":"paused","outputs":[{"internalType":"bool","name":"","type":"bool"}],"stateMutability":"view","type":"function"},{"inputs":[{"internalType":"uint256","name":"","type":"uint256"}],"name":"propertyPrices","outputs":[{"internalType":"uint256","name":"pricePerSqFt","type":"uint256"},{"internalType":"uint256","name":"totalValue","type":"uint256"},{"internalType":"uint256","name":"lastUpdated","type":"uint256"},{"internalType":"string","name":"zone","type":"string"},{"internalType":"string","name":"emirate","type":"string"},{"internalType":"bool","name":"isVerified","type":"bool"}],"stateMutability":"view","type":"function"},{"inputs":[{"internalType":"address","name":"updater","type":"address"}],"name":"removeAuthorizedUpdater","outputs":[],"stateMutability":"nonpayable","type":"function"},{"inputs":[],"name":"renounceOwnership","outputs":[],"stateMutability":"nonpayable","type":"function"},{"inputs":[{"internalType":"uint256","name":"","type":"uint256"}],"name":"supportedCurrencies","outputs":[{"internalType":"string","name":"","type":"string"}],"stateMutability":"view","type":"function"},{"inputs":[{"internalType":"string","name":"","type":"string"}],"name":"tradingVolume24h","outputs":[{"internalType":"uint256","name":"","type":"uint256"}],"stateMutability":"view","type":"function"},{"inputs":[{"internalType":"address","name":"newOwner","type":"address"}],"name":"transferOwnership","outputs":[],"stateMutability":"nonpayable","type":"function"},{"inputs":[],"name":"unpause","outputs":[],"stateMutability":"nonpayable","type":"function"},{"inputs":[{"internalType":"string","name":"currency","type":"string"},{"internalType":"uint256","name":"rate","type":"uint256"}],"name":"updateExchangeRate","outputs":[],"stateMutability":"nonpayable","type":"function"},{"inputs":[{"internalType":"string","name":"emirate","type":"string"},{"internalType":"uint256","name":"marketCap","type":"uint256"}],"name":"updateMarketCap","outputs":[],"stateMutability":"nonpayable","type":"function"},{"inputs":[{"internalType":"uint256","name":"propertyId","type":"uint256"},{"internalType":"uint256","name":"pricePerSqFt","type":"uint256"},{"internalType":"uint256","name":"totalValue","type":"uint256"},{"internalType":"string","name":"zone","type":"string"},{"internalType":"string","name":"emirate","type":"string"},{"internalType":"bool","name":"isVerified","type":"bool"}],"name":"updatePropertyPrice","outputs":[],"stateMutability":"nonpayable","type":"function"},{"inputs":[{"internalType":"string","name":"currencyPair","type":"string"},{"internalType":"uint256","name":"volume","type":"uint256"}],"name":"updateTradingVolume","outputs":[],"stateMutability":"nonpayable","type":"function"},{"inputs":[{"internalType":"string","name":"","type":"string"},{"internalType":"uint256","name":"","type":"uint256"}],"name":"zoneProperties","outputs":[{"internalType":"uint256","name":"","type":"uint256"}],"stateMutability":"view","type":"function"}],"evm":{"bytecode":{"linkReferences":{},"object":"6080604052346200140f576000543360018060a01b0382167f8be0079c531659141344cd1fd0a4f28419497f9722a3daafe3b4186f6b6457e0600080a36001600160a81b0319163360ff60a01b1916176000556200005c62001434565b60038152621554d160ea1b602082015260ff60405160208162000080818662001454565b6009815203019020541662000e2e57604051602081620000a1818562001454565b6009815203019020805460ff191660011790556008546801000000000000000081101562000e0257600181018060085581101562000e185760086000528151919060008051602062003671833981519152016001600160401b03831162000e02578054600181811c9116801562001404575b602082101462000de157601f8111620013b7575b506020601f8411600114620013475792806200020f946000916200133b575b508160011b916000199060031b1c19161790555b6000546001600160a01b03166200017062001414565b906703c6568f12e80000825242602083015260016040830152606082015260026060604051602081620001a4818862001454565b6001815203019020928051845560208101516001850155620001da604082015115158486019060ff801983541691151516179055565b015191018054610100600160a81b03191660089290921b610100600160a81b0316919091179055604051918291829062001454565b03902060008051602062003691833981519152604080516703c6568f12e800008152426020820152a26200024262001434565b600381526222aaa960e91b602082015260ff60405160208162000266818662001454565b6009815203019020541662000e2e5760405160208162000287818562001454565b6009815203019020805460ff191660011790556008546801000000000000000081101562000e0257600181018060085581101562000e1857600860005281516000805160206200367183398151915291909101906001600160401b03811162000e02578154600181811c9116801562001330575b602082101462000de157601f8111620012e7575b50806020601f82116001146200127b576000916200126f575b508160011b916000199060031b1c19161790555b6000546001600160a01b0316906000805160206200369183398151915290604090620003fe906200036c62001414565b67037112afa04c000095868252620003d0600260208401934285528781019460018652606082019485528851602081620003a7818b62001454565b6001815203019020915182555160018201550192511515839060ff801983541691151516179055565b518154610100600160a81b03191660089190911b610100600160a81b03161790558251918291829062001454565b039020928151908152426020820152a26200041862001434565b600381526204742560ec1b602082015260ff6040516020816200043c818662001454565b6009815203019020541662000e2e576040516020816200045d818562001454565b6009815203019020805460ff191660011790556008546801000000000000000081101562000e0257600181018060085581101562000e1857600860005281516000805160206200367183398151915291909101906001600160401b03811162000e02578154600181811c9116801562001264575b602082101462000de157601f81116200121b575b50806020601f8211600114620011af57600091620011a3575b508160011b916000199060031b1c19161790555b6000546001600160a01b03169060008051602062003691833981519152906040906200057d906200054262001414565b6702f847ddbdef000095868252620003d0600260208401934285528781019460018652606082019485528851602081620003a7818b62001454565b039020928151908152426020820152a26200059762001434565b600381526229a0a960e91b602082015260ff604051602081620005bb818662001454565b6009815203019020541662000e2e57604051602081620005dc818562001454565b6009815203019020805460ff191660011790556008546801000000000000000081101562000e0257600181018060085581101562000e1857600860005281516000805160206200367183398151915291909101906001600160401b03811162000e02578154600181811c9116801562001198575b602082101462000de157601f81116200114f575b50806020601f8211600114620010e357600091620010d7575b508160011b916000199060031b1c19161790555b6000546001600160a01b0316906000805160206200369183398151915290604090620006fc90620006c162001414565b670e27c49886e6000095868252620003d0600260208401934285528781019460018652606082019485528851602081620003a7818b62001454565b039020928151908152426020820152a26200071662001434565b600381526228a0a960e91b602082015260ff6040516020816200073a818662001454565b6009815203019020541662000e2e576040516020816200075b818562001454565b6009815203019020805460ff191660011790556008546801000000000000000081101562000e0257600181018060085581101562000e1857600860005281516000805160206200367183398151915291909101906001600160401b03811162000e02578154600181811c91168015620010cc575b602082101462000de157601f811162001083575b50806020601f821160011462001017576000916200100b575b508160011b916000199060031b1c19161790555b6000546001600160a01b03169060008051602062003691833981519152906040906200087b906200084062001414565b670dbd2fc137a3000095868252620003d0600260208401934285528781019460018652606082019485528851602081620003a7818b62001454565b039020928151908152426020820152a26200089562001434565b600381526212d5d160ea1b602082015260ff604051602081620008b9818662001454565b6009815203019020541662000e2e57604051602081620008da818562001454565b6009815203019020805460ff191660011790556008546801000000000000000081101562000e0257600181018060085581101562000e1857600860005281516000805160206200367183398151915291909101906001600160401b03811162000e025781548060011c90600181161562001000575b600116602082101462000de157601f811162000fb7575b50806020601f821160011462000f4b5760009162000f3f575b508160011b916000199060031b1c19161790555b6000546001600160a01b0316906000805160206200369183398151915290604090620009fe90620009c362001414565b670126e00f6c5b800095868252620003d0600260208401934285528781019460018652606082019485528851602081620003a7818b62001454565b039020928151908152426020820152a262000a1862001434565b600381526227a6a960e91b602082015260ff60405160208162000a3c818662001454565b6009815203019020541662000e2e5760405160208162000a5d818562001454565b6009815203019020805460ff191660011790556008546801000000000000000081101562000e0257600181018060085581101562000e1857600860005281516000805160206200367183398151915291909101906001600160401b03811162000e02578154600181811c9116801562000f34575b602082101462000de157601f811162000eeb575b50806020601f821160011462000e7f5760009162000e73575b508160011b916000199060031b1c19161790555b6000546001600160a01b031690600080516020620036918339815191529060409062000b7d9062000b4262001414565b67017508f1956a800095868252620003d0600260208401934285528781019460018652606082019485528851602081620003a7818b62001454565b039020928151908152426020820152a262000b9762001434565b600381526210921160ea1b602082015260ff60405160208162000bbb818662001454565b6009815203019020541662000e2e5760405160208162000bdc818562001454565b6009815203019020805460ff191660011790556008546801000000000000000081101562000e0257600181018060085581101562000e1857600860005281516000805160206200367183398151915291909101906001600160401b03811162000e02578154600181811c9116801562000df7575b602082101462000de157601f811162000d94575b50806020601f821160011462000d285760009162000d1c575b508160011b916000199060031b1c19161790555b6000546001600160a01b031690600080516020620036918339815191529060409062000cfc9062000cc162001414565b67016dedf44bdd800095868252620003d0600260208401934285528781019460018652606082019485528851602081620003a7818b62001454565b039020928151908152426020820152a26040516121ef9081620014828239f35b90508301513862000c7d565b91508260005260206000206000925b601f198316841062000d7b576001935082601f1981161062000d61575b5050811b01905562000c91565b85015160001960f88460031b161c19169055388062000d54565b8581015182556020938401936001909201910162000d37565b826000526020600020601f830160051c8101916020841062000dd6575b601f0160051c01905b81811062000dc9575062000c64565b6000815560010162000dba565b909150819062000db1565b634e487b7160e01b600052602260045260246000fd5b90607f169062000c50565b634e487b7160e01b600052604160045260246000fd5b634e487b7160e01b600052603260045260246000fd5b60405162461bcd60e51b815260206004820152601a60248201527f43757272656e637920616c726561647920737570706f727465640000000000006044820152606490fd5b90508301513862000afe565b91508260005260206000206000925b601f198316841062000ed2576001935082601f1981161062000eb8575b5050811b01905562000b12565b85015160001960f88460031b161c19169055388062000eab565b8581015182556020938401936001909201910162000e8e565b826000526020600020601f830160051c81016020841062000f2c575b601f830160051c8201811062000f1f57505062000ae5565b6000815560010162000f07565b508062000f07565b90607f169062000ad1565b9050830151386200097f565b91508260005260206000206000925b601f198316841062000f9e576001935082601f1981161062000f84575b5050811b01905562000993565b85015160001960f88460031b161c19169055388062000f77565b8581015182556020938401936001909201910162000f5a565b826000526020600020601f830160051c81016020841062000ff8575b601f830160051c8201811062000feb57505062000966565b6000815560010162000fd3565b508062000fd3565b90607f16906200094f565b905083015138620007fc565b91508260005260206000206000925b601f19831684106200106a576001935082601f1981161062001050575b5050811b01905562000810565b85015160001960f88460031b161c19169055388062001043565b8581015182556020938401936001909201910162001026565b826000526020600020601f830160051c810160208410620010c4575b601f830160051c82018110620010b7575050620007e3565b600081556001016200109f565b50806200109f565b90607f1690620007cf565b9050830151386200067d565b91508260005260206000206000925b601f198316841062001136576001935082601f198116106200111c575b5050811b01905562000691565b85015160001960f88460031b161c1916905538806200110f565b85810151825560209384019360019092019101620010f2565b826000526020600020601f830160051c81016020841062001190575b601f830160051c820181106200118357505062000664565b600081556001016200116b565b50806200116b565b90607f169062000650565b905083015138620004fe565b91508260005260206000206000925b601f198316841062001202576001935082601f19811610620011e8575b5050811b01905562000512565b85015160001960f88460031b161c191690553880620011db565b85810151825560209384019360019092019101620011be565b826000526020600020601f830160051c8101602084106200125c575b601f830160051c820181106200124f575050620004e5565b6000815560010162001237565b508062001237565b90607f1690620004d1565b90508301513862000328565b91508260005260206000206000925b601f1983168410620012ce576001935082601f19811610620012b4575b5050811b0190556200033c565b85015160001960f88460031b161c191690553880620012a7565b858101518255602093840193600190920191016200128a565b826000526020600020601f830160051c81016020841062001328575b601f830160051c820181106200131b5750506200030f565b6000815560010162001303565b508062001303565b90607f1690620002fb565b90508301513862000146565b8160005260206000209060005b601f19861681106200139e5750936001916200020f9582601f1981161062001384575b5050811b0190556200015a565b85015160001960f88460031b161c19169055388062001377565b9091602060018192858801518155019301910162001354565b816000526020600020601f850160051c81019160208610620013f9575b601f0160051c01905b818110620013ec575062000127565b60008155600101620013dd565b9091508190620013d4565b90607f169062000113565b600080fd5b60405190608082016001600160401b0381118382101762000e0257604052565b60408051919082016001600160401b0381118382101762000e0257604052565b9081519160005b8381106200146d575050016000815290565b80602080928401015181850152016200145b56fe6040608081526004908136101561001557600080fd5b600090813560e01c806302024fd8146117ed57806305657c13146117975780630592ca451461174d5780630789752c146116bb57806314c360a21461153a57806318b3163d146114685780631c7492031461125f57806322305ff914610bd157806324d434af146110065780632ce7586314610f245780633f4ba83a14610e8a57806343225acd14610e1257806344f428fa14610ca45780635c975abb14610c80578063603cda0914610c1b578063688b237114610bd157806369a7e2db14610b70578063715018a614610b165780638456cb5914610ab857806385135e0a14610a5c57806387326b36146108305780638da5cb5b146108095780638ff29cfe146107cc57806397bf7935146107675780639ac2478b14610678578063a8af6673146105d7578063aaf5eb68146105b5578063b1586e6c1461057b578063c21888fd146104cc578063caca95a4146104af578063dd671f50146103dd578063f2fde38b14610316578063f3ccf996146102695763f4b543141461019757600080fd5b346102655760209182600319360112610262578335906001600160401b0382116102625750826101cf60609561020c93369101611a21565b8351906101fc60ff8251938581818601966101eb81838a611995565b810160098152030190205416611bef565b8451938492839251928391611995565b8101600181520301902090805191610223836118b3565b805493848452600260018301549283838701520154938660ff8616151595868684015260018060a01b039060081c169101528251948552840152820152f35b80fd5b5080fd5b5034610265577fbe38ec07e0dd0749f29745591570ea1aaf31da2074f1a44517fdd2ca512bd2437fe9b08d987643de58f9c9b1b97479f3d8a16fcc7f6fb63bb399bd825a0b0b5890916102bb36611a7c565b6102c6929192611b97565b80825160208186516102db8183858b01611995565b8101600781520301902055690ac9e98aa9a8abe6468960b31b82515261030a82519383859485528401906119b8565b9060208301520390a280f35b5082346103d95760203660031901126103d957610331611b81565b9061033a611b97565b6001600160a01b0391821692831561038757505082546001600160a01b0319811683178455167f8be0079c531659141344cd1fd0a4f28419497f9722a3daafe3b4186f6b6457e08380a380f35b906020608492519162461bcd60e51b8352820152602660248201527f4f776e61626c653a206e6577206f776e657220697320746865207a65726f206160448201526564647265737360d01b6064820152fd5b8280fd5b508290346103d957602092836003193601126102625782356001600160401b03811161026557846104146104409236908701611a21565b84519061043060ff8251938581818601966101eb81838a611995565b8551938492839251928391611995565b810160018152030190208251610455816118b3565b81548152606060026001840154938489850152015460ff811615158684015260018060a01b039060081c1691015242039242841161049c5750506201518090519111158152f35b634e487b7160e01b825260119052602490fd5b503461026557816003193601126102655760209051620151808152f35b503461026557602090670de0b6b3a76400006105738361051d6104ee36611b38565b86939193519061050d60ff8251938581818601966101eb81838a611995565b8751938492839251928391611995565b8101600181520301902061056c6002865192610538846118b3565b80548452600181015489850152015460ff8116151587840181905260089190911c6001600160a01b03166060840152611d18565b5190611d64565b049051908152f35b5034610265576020906105ae61059036611b38565b906105a960ff8551878186516101eb8183858b01611995565b611ea6565b9051908152f35b503461026557816003193601126102655760209051670de0b6b3a76400008152f35b5034610265577fbe38ec07e0dd0749f29745591570ea1aaf31da2074f1a44517fdd2ca512bd2437fd2bdb209edbe5d56294b9b207a47c1a747d630309398cdc5be2c3b701cc3e7c09161062936611a7c565b610634929192611b97565b80825160208186516106498183858b01611995565b81016006815203019020556904d41524b45545f4341560b41b82515261030a82519383859485528401906119b8565b508290346103d957806003193601126103d957610693611b81565b91602435916001600160401b038311610763576106d761075d927fff7ff9b5d84d519b0864adeb71e1ff2a982ec456223864a14ce488c1559c5bd694369101611a21565b906106e0611b97565b61074b60018060a01b038616958688526002602052828820600160ff198254161790556002835160208187516107198183858c01611995565b600190820190815203019020018054610100600160a81b03191660089290921b610100600160a81b0316919091179055565b519182916020835260208301906119b8565b0390a280f35b8480fd5b5090346102625760203660031901126102625782356008548110156102655761078f90611ad3565b9390936107ba576107b6836107a3866118ef565b90519182916020835260208301906119b8565b0390f35b634e487b7160e01b8252819052602490fd5b50346102655760203660031901126102655760209160ff9082906001600160a01b036107f6611b81565b1681526002855220541690519015158152f35b5034610265578160031936011261026557905490516001600160a01b039091168152602090f35b50346102655760c0366003190112610265578235906044356001600160401b03602435606435828111610a585761086a9036908901611a21565b91608435908111610a58576108829036908901611a21565b9060a435918215158303610a5457610898611b97565b8615610a1b5781156109d857841561099f576108f692916108e4600592898b526003602052888b209283558760018401554260028401556108dc8760038501611d97565b8b8301611d97565b019060ff801983541691151516179055565b8251602081835161090a8183858801611995565b810189815203019020805490600160401b82101561098c5791610959827fbdc0d35f72e34d7d41c70861a638a20c950d7dfdd2228a250ee1666d9d586a8b969594600161075d95018155611b20565b81549060031b9088821b91600019901b19161790556109778161202e565b835193849384528060208501528301906119b8565b634e487b7160e01b875260418852602487fd5b855162461bcd60e51b81526020818b01526013602482015272496e76616c696420746f74616c2076616c756560681b6044820152606490fd5b855162461bcd60e51b81526020818b0152601760248201527f496e76616c6964207072696365207065722073712066740000000000000000006044820152606490fd5b855162461bcd60e51b81526020818b01526013602482015272125b9d985b1a59081c1c9bdc195c9d1e481251606a1b6044820152606490fd5b8780fd5b8680fd5b509034610262576020366003190112610262578235906001600160401b03821161026257506020610a948194610aa693369101611a21565b81845193828580945193849201611995565b81016006815203019020549051908152f35b503461026557816003193601126102655760207f62e78cea01bee320cd4e420270b5ea74000d11b0c9f74754ebdbfc544b05a25891610af5611b97565b610afd611c98565b835460ff60a01b1916600160a01b17845551338152a180f35b8234610262578060031936011261026257610b2f611b97565b80546001600160a01b03198116825581906001600160a01b03167f8be0079c531659141344cd1fd0a4f28419497f9722a3daafe3b4186f6b6457e08280a380f35b509034610262576020366003190112610262578235906001600160401b0382116102625750610bbc6020610baa819560ff94369101611a21565b81855193828580945193849201611995565b81016009815203019020541690519015158152f35b509034610262576020366003190112610262578235906001600160401b03821161026257506020610a948194610c0993369101611a21565b81016005815203019020549051908152f35b503461026557602036600319011261026557610c35611b81565b610c3d611b97565b6001600160a01b03168083526002602052908220805460ff191690557f50ae3647b181b6195683f16a0c98a3cd7ddc63732465548bc2e4cc18d44c629a8280a280f35b503461026557816003193601126102655760ff6020925460a01c1690519015158152f35b509034610262578060031936011261026257600891825492829083805b868110610cde575050506060945081519384526020840152820152f35b610ce781611ad3565b508551815490918285610cf984611848565b926001948581169081600014610df85750600114610dbe575b5060029250838152602094859103019020885192610d2f846118b3565b81548452810154938301938452015460ff8116151588830181905290861c6001600160a01b0316606090920191909152610dae575b514203428111610d9b576201518010610d86575b610d8190611cdf565b610cc1565b94610d93610d8191611cdf565b959050610d78565b634e487b7160e01b835260118952602483fd5b93610db890611cdf565b93610d64565b91505085528260208087208488915b858310610de35750505050600291810138610d12565b80548884015287945091830191869101610dcd565b60ff19168452506002938015150283019150389050610d12565b509034610262576020366003190112610262578235906001600160401b03821161026257506020610a94608094610e4b93369101611a21565b8101600181520301902080549160026001830154920154918151938452602084015260ff821615159083015260018060a01b039060081c166060820152f35b5082346103d957826003193601126103d957610ea4611b97565b82549060ff8260a01c1615610eea575060ff60a01b19168255513381527f5db9ee0a495bf2e6ff9c91a7834c1ba4fdd244a5e8aa4e537bd38aeae4b073aa90602090a180f35b606490602084519162461bcd60e51b8352820152601460248201527314185d5cd8589b194e881b9bdd081c185d5cd95960621b6044820152fd5b509034610262578060031936011261026257600854610f4281611b6a565b91610f4f845193846118ce565b8183526008815260209283810192827ff3f7a9fe364faab93b216da50a3214154f22a0a2b415b23a84c8169e8b636ee3855b838310610fe257505050508451938085019181865251809252858501958260051b8601019392955b828710610fb65785850386f35b909192938280610fd2600193603f198a820301865288516119b8565b9601920196019592919092610fa9565b6001888192610ff4859b98999b6118ef565b81520192019201919096949396610f81565b5091346102655782600319360112610265578035906001600160401b039081831161125b573660238401121561125b57828101359061104482611b6a565b91611051875193846118ce565b8083526020948584016024809360051b8301019136831161122957838101915b8383106112315750505050803593841161122d573660238501121561122d57838201359361109e85611b6a565b946110ab895196876118ce565b808652828787019160051b830101913683116112295783889101915b83831061121957505050506110da611b97565b6110e2611c98565b82518451036111de575050835b81518110156111da578061112260ff6101eb8761110f6111d59688611d04565b51818c5193828580945193849201611995565b61113761112f8286611d04565b511515611c34565b6111418185611d04565b5161115561114f8386611d04565b51611aad565b556001428161116761114f8588611d04565b0155600261117861114f8487611d04565b019060ff1982541617905561118d8184611d04565b517f301886e6c7c3689607c20b38181febf7ed6a192d69f4fd79065fd0fc869323b6886111c46111bd8589611d04565b5193611c78565b9281519081524289820152a2611cdf565b6110ef565b8480f35b865162461bcd60e51b815291820185905260169082015275082e4e4c2f2e640d8cadccee8d040dad2e6dac2e8c6d60531b6044820152606490fd5b82358152918101918891016110c7565b8880fd5b8580fd5b823588811161125757899161124c8392883691870101611a21565b815201920191611071565b8a80fd5b8380fd5b50346102655761126e36611a7c565b611279929192611b97565b815192805160ff602095868181860194611294818388611995565b8101600981520301902054166114255782156113eb578351858184516112bb818387611995565b81016009815203019020600160ff19825416179055600854600160401b81101561098c578060016112ef9201600855611ad3565b6113d957916113c585886113ca9461132a857f301886e6c7c3689607c20b38181febf7ed6a192d69f4fd79065fd0fc869323b69a9998611d97565b905482516001600160a01b0392918316916113a3916002916113788e61134f846118b3565b8c8452808401924284528b8a86019a60018c5260608701998a5251938492839251928391611995565b81016001815203019020915182555160018201550193511515849060ff801983541691151516179055565b518254610100600160a81b031916911660081b610100600160a81b0316179055565b611c78565b9382519182524290820152a280f35b634e487b7160e01b8752868852602487fd5b835162461bcd60e51b81528088018690526014602482015273496e76616c696420696e697469616c207261746560601b6044820152606490fd5b835162461bcd60e51b8152808801869052601a60248201527f43757272656e637920616c726561647920737570706f727465640000000000006044820152606490fd5b509034610262576020906114ad61147e36611b38565b85949194519061149d60ff8251938581818601966101eb81838a611995565b8651938492839251928391611995565b81016001815203019020906114fe60028551936114c9856118b3565b8054855260018101546020860152015460ff8116151586850181905260089190911c6001600160a01b03166060850152611d18565b670de0b6b3a764000092838102938185041490151715611527576020846105ae85855190611d77565b634e487b7160e01b815260118552602490fd5b5091346102655761154a36611a7c565b9390933384526020926002845260ff83862054168015611683575b8015611670575b1561163657506113ca839495600261161b7f301886e6c7c3689607c20b38181febf7ed6a192d69f4fd79065fd0fc869323b69686516115ba60ff8651928481818a01956101eb818389611995565b6115c2611c98565b6115cd871515611c34565b868851838188516115df818388611995565b81016001815203019020558751600186516115fb818486611995565b820191818352848142940301902001558751809381928751928391611995565b8101600181520301902001600160ff19825416179055611c78565b825162461bcd60e51b815290810184905260146024820152732ab730baba3437b934bd32b2103ab83230ba32b960611b6044820152606490fd5b5084546001600160a01b0316331461156c565b50825186516116958183888b01611995565b6001908201908152819003850190206002015460081c6001600160a01b03163314611565565b50903461026257602036600319011261026257816107b691843581526003602052208251906116e982611882565b805482526001810154936020830194855260028201549581840196875260ff6005611728611719600387016118ef565b936060880194855286016118ef565b948560808801520154161515938460a0820152519551965190519151968796876119dd565b509034610262576020366003190112610262578235906001600160401b03821161026257506020610a94819461178593369101611a21565b81016007815203019020549051908152f35b509034610262576117bf60206117ac36611a7c565b9582865194838680955193849201611995565b82019081520301902090815484101561026257506020926117df91611b20565b91905490519160031b1c8152f35b50903461026257602036600319011261026257816107b6918435815260036020522091825492600181015494600282015460ff6005611839611831600387016118ef565b9486016118ef565b940154169351968796876119dd565b90600182811c92168015611878575b602083101461186257565b634e487b7160e01b600052602260045260246000fd5b91607f1691611857565b60c081019081106001600160401b0382111761189d57604052565b634e487b7160e01b600052604160045260246000fd5b608081019081106001600160401b0382111761189d57604052565b90601f801991011681019081106001600160401b0382111761189d57604052565b906040519182600082549261190384611848565b908184526001948581169081600014611972575060011461192f575b505061192d925003836118ce565b565b9093915060005260209081600020936000915b81831061195a57505061192d9350820101388061191f565b85548884018501529485019487945091830191611942565b91505061192d94506020925060ff191682840152151560051b820101388061191f565b60005b8381106119a85750506000910152565b8181015183820152602001611998565b906020916119d181518092818552858086019101611995565b601f01601f1916010190565b949193611a199360a095611a0b9399989988526020880152604087015260c0606087015260c08601906119b8565b9084820360808601526119b8565b931515910152565b81601f82011215611a77578035906001600160401b03821161189d5760405192611a55601f8401601f1916602001856118ce565b82845260208383010111611a7757816000926020809301838601378301015290565b600080fd5b6040600319820112611a7757600435906001600160401b038211611a7757611aa691600401611a21565b9060243590565b6020611ac6918160405193828580945193849201611995565b8101600181520301902090565b600854811015611b0a5760086000527ff3f7a9fe364faab93b216da50a3214154f22a0a2b415b23a84c8169e8b636ee30190600090565b634e487b7160e01b600052603260045260246000fd5b8054821015611b0a5760005260206000200190600090565b906040600319830112611a775760043591602435906001600160401b038211611a7757611b6791600401611a21565b90565b6001600160401b03811161189d5760051b60200190565b600435906001600160a01b0382168203611a7757565b6000546001600160a01b03163303611bab57565b606460405162461bcd60e51b815260206004820152602060248201527f4f776e61626c653a2063616c6c6572206973206e6f7420746865206f776e65726044820152fd5b15611bf657565b60405162461bcd60e51b815260206004820152601660248201527510dd5c9c995b98de481b9bdd081cdd5c1c1bdc9d195960521b6044820152606490fd5b15611c3b57565b60405162461bcd60e51b8152602060048201526015602482015274496e76616c69642065786368616e6765207261746560581b6044820152606490fd5b611c9090602060405192828480945193849201611995565b810103902090565b60ff60005460a01c16611ca757565b60405162461bcd60e51b815260206004820152601060248201526f14185d5cd8589b194e881c185d5cd95960821b6044820152606490fd5b6000198114611cee5760010190565b634e487b7160e01b600052601160045260246000fd5b8051821015611b0a5760209160051b010190565b15611d1f57565b60405162461bcd60e51b815260206004820152601860248201527f45786368616e67652072617465206e6f742061637469766500000000000000006044820152606490fd5b81810292918115918404141715611cee57565b8115611d81570490565b634e487b7160e01b600052601260045260246000fd5b91909182516001600160401b03811161189d57611db48254611848565b601f8111611e5e575b50602080601f8311600114611dfa575081929394600092611def575b50508160011b916000199060031b1c1916179055565b015190503880611dd9565b90601f198316958460005282600020926000905b888210611e4657505083600195969710611e2d575b505050811b019055565b015160001960f88460031b161c19169055388080611e23565b80600185968294968601518155019501930190611e0e565b600083815260208120601f840160051c81019260208510611e9c575b601f0160051c01915b828110611e91575050611dbd565b818155600101611e83565b9092508290611e7a565b600052602060038152604080600020928151611ec181611882565b8454815260a060ff6005600188015497878501988952600281015487860152611eec600382016118ef565b6060860152611efd600482016118ef565b60808601520154161515910152835115611ff157805190838101918220835190848201918083106001600160401b0384111761189d57866210515160ea1b917f4dab77a640748de8588de6834d814a344372b205265984b969f3e97060955bfa94885260038152015214611fe957826002611f9586670de0b6b3a76400009895611fdc95611fe5999851938492839251928391611995565b81016001815203019020825195611fab876118b3565b81548752600182015490870152015460ff8116151591850182905260081c6001600160a01b03166060850152611d18565b51905190611d64565b0490565b505050505190565b815162461bcd60e51b8152600481018490526016602482015275141c9bdc195c9d1e481c1c9a58d9481b9bdd081cd95d60521b6044820152606490fd5b6040805192825191602080850193612047818887611995565b86019581816004988981520301902091805180818486549283815201600096875285872092875b878282106121a357505050612085925003826118ce565b8051156121995783948496855b835181101561214f57858560a060ff60058f6120f98d916120b3898d611d04565b5183526120ed87600394858b5220938851986120ce8a611882565b85548a5260018601549a8a019a8b526002860154908a015284016118ef565b606088015282016118ef565b60808601520154161515910152518061211c575b5061211790611cdf565b612092565b889199980180911161213c576121356121179198611cdf565b989061210d565b634e487b7160e01b875260118b52602487fd5b50945097505094909284612166575b505050505050565b6121839461217391611d77565b9451938492839251928391611995565b810160058152030190205538808080808061215e565b5050505092505050565b855484526001958601958795509301920161206e56fea2646970667358221220cfc68475cd7f335c43a432014a6e06c3397f1d67b69ced3f685c5aed0bb92d3364736f6c63430008130033f3f7a9fe364faab93b216da50a3214154f22a0a2b415b23a84c8169e8b636ee3301886e6c7c3689607c20b38181febf7ed6a192d69f4fd79065fd0fc869323b6","opcodes":"PUSH1 0x80 PUSH1 0x40 MSTORE CALLVALUE PUSH3 0x140F JUMPI PUSH1 0x0 SLOAD CALLER PUSH1 0x1 DUP1 PUSH1 0xA0 SHL SUB DUP3 AND PUSH32 0x8BE0079C531659141344CD1FD0A4F28419497F9722A3DAAFE3B4186F6B6457E0 PUSH1 0x0 DUP1 LOG3 PUSH1 0x1 PUSH1 0x1 PUSH1 0xA8 SHL SUB NOT AND CALLER PUSH1 0xFF PUSH1 0xA0 SHL NOT AND OR PUSH1 0x0 SSTORE PUSH3 0x5C PUSH3 0x1434 JUMP JUMPDEST PUSH1 0x3 DUP2 MSTORE PUSH3 0x1554D1 PUSH1 0xEA SHL PUSH1 0x20 DUP3 ADD MSTORE PUSH1 0xFF PUSH1 0x40 MLOAD PUSH1 0x20 DUP2 PUSH3 0x80 DUP2 DUP7 PUSH3 0x1454 JUMP JUMPDEST PUSH1 0x9 DUP2 MSTORE SUB ADD SWAP1 KECCAK256 SLOAD AND PUSH3 0xE2E JUMPI PUSH1 0x40 MLOAD PUSH1 0x20 DUP2 PUSH3 0xA1 DUP2 DUP6 PUSH3 0x1454 JUMP JUMPDEST PUSH1 0x9 DUP2 MSTORE SUB ADD SWAP1 KECCAK256 DUP1 SLOAD PUSH1 0xFF NOT AND PUSH1 0x1 OR SWAP1 SSTORE PUSH1 0x8 SLOAD PUSH9 0x10000000000000000 DUP2 LT ISZERO PUSH3 0xE02 JUMPI PUSH1 0x1 DUP2 ADD DUP1 PUSH1 0x8 SSTORE DUP2 LT ISZERO PUSH3 0xE18 JUMPI PUSH1 0x8 PUSH1 0x0 MSTORE DUP2 MLOAD SWAP2 SWAP1 PUSH1 0x0 DUP1 MLOAD PUSH1 0x20 PUSH3 0x3671 DUP4 CODECOPY DUP2 MLOAD SWAP2 MSTORE ADD PUSH1 0x1 PUSH1 0x1 PUSH1 0x40 SHL SUB DUP4 GT PUSH3 0xE02 JUMPI DUP1 SLOAD PUSH1 0x1 DUP2 DUP2 SHR SWAP2 AND DUP1 ISZERO PUSH3 0x1404 JUMPI JUMPDEST PUSH1 0x20 DUP3 LT EQ PUSH3 0xDE1 JUMPI PUSH1 0x1F DUP2 GT PUSH3 0x13B7 JUMPI JUMPDEST POP PUSH1 0x20 PUSH1 0x1F DUP5 GT PUSH1 0x1 EQ PUSH3 0x1347 JUMPI SWAP3 DUP1 PUSH3 0x20F SWAP5 PUSH1 0x0 SWAP2 PUSH3 0x133B JUMPI JUMPDEST POP DUP2 PUSH1 0x1 SHL SWAP2 PUSH1 0x0 NOT SWAP1 PUSH1 0x3 SHL SHR NOT AND OR SWAP1 SSTORE JUMPDEST PUSH1 0x0 SLOAD PUSH1 0x1 PUSH1 0x1 PUSH1 0xA0 SHL SUB AND PUSH3 0x170 PUSH3 0x1414 JUMP JUMPDEST SWAP1 PUSH8 0x3C6568F12E80000 DUP3 MSTORE TIMESTAMP PUSH1 0x20 DUP4 ADD MSTORE PUSH1 0x1 PUSH1 0x40 DUP4 ADD MSTORE PUSH1 0x60 DUP3 ADD MSTORE PUSH1 0x2 PUSH1 0x60 PUSH1 0x40 MLOAD PUSH1 0x20 DUP2 PUSH3 0x1A4 DUP2 DUP9 PUSH3 0x1454 JUMP JUMPDEST PUSH1 0x1 DUP2 MSTORE SUB ADD SWAP1 KECCAK256 SWAP3 DUP1 MLOAD DUP5 SSTORE PUSH1 0x20 DUP2 ADD MLOAD PUSH1 0x1 DUP6 ADD SSTORE PUSH3 0x1DA PUSH1 0x40 DUP3 ADD MLOAD ISZERO ISZERO DUP5 DUP7 ADD SWAP1 PUSH1 0xFF DUP1 NOT DUP4 SLOAD AND SWAP2 ISZERO ISZERO AND OR SWAP1 SSTORE JUMP JUMPDEST ADD MLOAD SWAP2 ADD DUP1 SLOAD PUSH2 0x100 PUSH1 0x1 PUSH1 0xA8 SHL SUB NOT AND PUSH1 0x8 SWAP3 SWAP1 SWAP3 SHL PUSH2 0x100 PUSH1 0x1 PUSH1 0xA8 SHL SUB AND SWAP2 SWAP1 SWAP2 OR SWAP1 SSTORE PUSH1 0x40 MLOAD SWAP2 DUP3 SWAP2 DUP3 SWAP1 PUSH3 0x1454 JUMP JUMPDEST SUB SWAP1 KECCAK256 PUSH1 0x0 DUP1 MLOAD PUSH1 0x20 PUSH3 0x3691 DUP4 CODECOPY DUP2 MLOAD SWAP2 MSTORE PUSH1 0x40 DUP1 MLOAD PUSH8 0x3C6568F12E80000 DUP2 MSTORE TIMESTAMP PUSH1 0x20 DUP3 ADD MSTORE LOG2 PUSH3 0x242 PUSH3 0x1434 JUMP JUMPDEST PUSH1 0x3 DUP2 MSTORE PUSH3 0x22AAA9 PUSH1 0xE9 SHL PUSH1 0x20 DUP3 ADD MSTORE PUSH1 0xFF PUSH1 0x40 MLOAD PUSH1 0x20 DUP2 PUSH3 0x266 DUP2 DUP7 PUSH3 0x1454 JUMP JUMPDEST PUSH1 0x9 DUP2 MSTORE SUB ADD SWAP1 KECCAK256 SLOAD AND PUSH3 0xE2E JUMPI PUSH1 0x40 MLOAD PUSH1 0x20 DUP2 PUSH3 0x287 DUP2 DUP6 PUSH3 0x1454 JUMP JUMPDEST PUSH1 0x9 DUP2 MSTORE SUB ADD SWAP1 KECCAK256 DUP1 SLOAD PUSH1 0xFF NOT AND PUSH1 0x1 OR SWAP1 SSTORE PUSH1 0x8 SLOAD PUSH9 0x10000000000000000 DUP2 LT ISZERO PUSH3 0xE02 JUMPI PUSH1 0x1 DUP2 ADD DUP1 PUSH1 0x8 SSTORE DUP2 LT ISZERO PUSH3 0xE18 JUMPI PUSH1 0x8 PUSH1 0x0 MSTORE DUP2 MLOAD PUSH1 0x0 DUP1 MLOAD PUSH1 0x20 PUSH3 0x3671 DUP4 CODECOPY DUP2 MLOAD SWAP2 MSTORE SWAP2 SWAP1 SWAP2 ADD SWAP1 PUSH1 0x1 PUSH1 0x1 PUSH1 0x40 SHL SUB DUP2 GT PUSH3 0xE02 JUMPI DUP2 SLOAD PUSH1 0x1 DUP2 DUP2 SHR SWAP2 AND DUP1 ISZERO PUSH3 0x1330 JUMPI JUMPDEST PUSH1 0x20 DUP3 LT EQ PUSH3 0xDE1 JUMPI PUSH1 0x1F DUP2 GT PUSH3 0x12E7 JUMPI JUMPDEST POP DUP1 PUSH1 0x20 PUSH1 0x1F DUP3 GT PUSH1 0x1 EQ PUSH3 0x127B JUMPI PUSH1 0x0 SWAP2 PUSH3 0x126F JUMPI JUMPDEST POP DUP2 PUSH1 0x1 SHL SWAP2 PUSH1 0x0 NOT SWAP1 PUSH1 0x3 SHL SHR NOT AND OR SWAP1 SSTORE JUMPDEST PUSH1 0x0 SLOAD PUSH1 0x1 PUSH1 0x1 PUSH1 0xA0 SHL SUB AND SWAP1 PUSH1 0x0 DUP1 MLOAD PUSH1 0x20 PUSH3 0x3691 DUP4 CODECOPY DUP2 MLOAD SWAP2 MSTORE SWAP1 PUSH1 0x40 SWAP1 PUSH3 0x3FE SWAP1 PUSH3 0x36C PUSH3 0x1414 JUMP JUMPDEST PUSH8 0x37112AFA04C0000 SWAP6 DUP7 DUP3 MSTORE PUSH3 0x3D0 PUSH1 0x2 PUSH1 0x20 DUP5 ADD SWAP4 TIMESTAMP DUP6 MSTORE DUP8 DUP2 ADD SWAP5 PUSH1 0x1 DUP7 MSTORE PUSH1 0x60 DUP3 ADD SWAP5 DUP6 MSTORE DUP9 MLOAD PUSH1 0x20 DUP2 PUSH3 0x3A7 DUP2 DUP12 PUSH3 0x1454 JUMP JUMPDEST PUSH1 0x1 DUP2 MSTORE SUB ADD SWAP1 KECCAK256 SWAP2 MLOAD DUP3 SSTORE MLOAD PUSH1 0x1 DUP3 ADD SSTORE ADD SWAP3 MLOAD ISZERO ISZERO DUP4 SWAP1 PUSH1 0xFF DUP1 NOT DUP4 SLOAD AND SWAP2 ISZERO ISZERO AND OR SWAP1 SSTORE JUMP JUMPDEST MLOAD DUP2 SLOAD PUSH2 0x100 PUSH1 0x1 PUSH1 0xA8 SHL SUB NOT AND PUSH1 0x8 SWAP2 SWAP1 SWAP2 SHL PUSH2 0x100 PUSH1 0x1 PUSH1 0xA8 SHL SUB AND OR SWAP1 SSTORE DUP3 MLOAD SWAP2 DUP3 SWAP2 DUP3 SWAP1 PUSH3 0x1454 JUMP JUMPDEST SUB SWAP1 KECCAK256 SWAP3 DUP2 MLOAD SWAP1 DUP2 MSTORE TIMESTAMP PUSH1 0x20 DUP3 ADD MSTORE LOG2 PUSH3 0x418 PUSH3 0x1434 JUMP JUMPDEST PUSH1 0x3 DUP2 MSTORE PUSH3 0x47425 PUSH1 0xEC SHL PUSH1 0x20 DUP3 ADD MSTORE PUSH1 0xFF PUSH1 0x40 MLOAD PUSH1 0x20 DUP2 PUSH3 0x43C DUP2 DUP7 PUSH3 0x1454 JUMP JUMPDEST PUSH1 0x9 DUP2 MSTORE SUB ADD SWAP1 KECCAK256 SLOAD AND PUSH3 0xE2E JUMPI PUSH1 0x40 MLOAD PUSH1 0x20 DUP2 PUSH3 0x45D DUP2 DUP6 PUSH3 0x1454 JUMP JUMPDEST PUSH1 0x9 DUP2 MSTORE SUB ADD SWAP1 KECCAK256 DUP1 SLOAD PUSH1 0xFF NOT AND PUSH1 0x1 OR SWAP1 SSTORE PUSH1 0x8 SLOAD PUSH9 0x10000000000000000 DUP2 LT ISZERO PUSH3 0xE02 JUMPI PUSH1 0x1 DUP2 ADD DUP1 PUSH1 0x8 SSTORE DUP2 LT ISZERO PUSH3 0xE18 JUMPI PUSH1 0x8 PUSH1 0x0 MSTORE DUP2 MLOAD PUSH1 0x0 DUP1 MLOAD PUSH1 0x20 PUSH3 0x3671 DUP4 CODECOPY DUP2 MLOAD SWAP2 MSTORE SWAP2 SWAP1 SWAP2 ADD SWAP1 PUSH1 0x1 PUSH1 0x1 PUSH1 0x40 SHL SUB DUP2 GT PUSH3 0xE02 JUMPI DUP2 SLOAD PUSH1 0x1 DUP2 DUP2 SHR SWAP2 AND DUP1 ISZERO PUSH3 0x1264 JUMPI JUMPDEST PUSH1 0x20 DUP3 LT EQ PUSH3 0xDE1 JUMPI PUSH1 0x1F DUP2 GT PUSH3 0x121B JUMPI JUMPDEST POP DUP1 PUSH1 0x20 PUSH1 0x1F DUP3 GT PUSH1 0x1 EQ PUSH3 0x11AF JUMPI PUSH1 0x0 SWAP2 PUSH3 0x11A3 JUMPI JUMPDEST POP DUP2 PUSH1 0x1 SHL SWAP2 PUSH1 0x0 NOT SWAP1 PUSH1 0x3 SHL SHR NOT AND OR SWAP1 SSTORE JUMPDEST PUSH1 0x0 SLOAD PUSH1 0x1 PUSH1 0x1 PUSH1 0xA0 SHL SUB AND SWAP1 PUSH1 0x0 DUP1 MLOAD PUSH1 0x20 PUSH3 0x3691 DUP4 CODECOPY DUP2 MLOAD SWAP2 MSTORE SWAP1 PUSH1 0x40 SWAP1 PUSH3 0x57D SWAP1 PUSH3 0x542 PUSH3 0x1414 JUMP JUMPDEST PUSH8 0x2F847DDBDEF0000 SWAP6 DUP7 DUP3 MSTORE PUSH3 0x3D0 PUSH1 0x2 PUSH1 0x20 DUP5 ADD SWAP4 TIMESTAMP DUP6 MSTORE DUP8 DUP2 ADD SWAP5 PUSH1 0x1 DUP7 MSTORE PUSH1 0x60 DUP3 ADD SWAP5 DUP6 MSTORE DUP9 MLOAD PUSH1 0x20 DUP2 PUSH3 0x3A7 DUP2 DUP12 PUSH3 0x1454 JUMP JUMPDEST SUB SWAP1 KECCAK256 SWAP3 DUP2 MLOAD SWAP1 DUP2 MSTORE TIMESTAMP PUSH1 0x20 DUP3 ADD MSTORE LOG2 PUSH3 0x597 PUSH3 0x1434 JUMP JUMPDEST PUSH1 0x3 DUP2 MSTORE PUSH3 0x29A0A9 PUSH1 0xE9 SHL PUSH1 0x20 DUP3 ADD MSTORE PUSH1 0xFF PUSH1 0x40 MLOAD PUSH1 0x20 DUP2 PUSH3 0x5BB DUP2 DUP7 PUSH3 0x1454 JUMP JUMPDEST PUSH1 0x9 DUP2 MSTORE SUB ADD SWAP1 KECCAK256 SLOAD AND PUSH3 0xE2E JUMPI PUSH1 0x40 MLOAD PUSH1 0x20 DUP2 PUSH3 0x5DC DUP2 DUP6 PUSH3 0x1454 JUMP JUMPDEST PUSH1 0x9 DUP2 MSTORE SUB ADD SWAP1 KECCAK256 DUP1 SLOAD PUSH1 0xFF NOT AND PUSH1 0x1 OR SWAP1 SSTORE PUSH1 0x8 SLOAD PUSH9 0x10000000000000000 DUP2 LT ISZERO PUSH3 0xE02 JUMPI PUSH1 0x1 DUP2 ADD DUP1 PUSH1 0x8 SSTORE DUP2 LT ISZERO PUSH3 0xE18 JUMPI PUSH1 0x8 PUSH1 0x0 MSTORE DUP2 MLOAD PUSH1 0x0 DUP1 MLOAD PUSH1 0x20 PUSH3 0x3671 DUP4 CODECOPY DUP2 MLOAD SWAP2 MSTORE SWAP2 SWAP1 SWAP2 ADD SWAP1 PUSH1 0x1 PUSH1 0x1 PUSH1 0x40 SHL SUB DUP2 GT PUSH3 0xE02 JUMPI DUP2 SLOAD PUSH1 0x1 DUP2 DUP2 SHR SWAP2 AND DUP1 ISZERO PUSH3 0x1198 JUMPI JUMPDEST PUSH1 0x20 DUP3 LT EQ PUSH3 0xDE1 JUMPI PUSH1 0x1F DUP2 GT PUSH3 0x114F JUMPI JUMPDEST POP DUP1 PUSH1 0x20 PUSH1 0x1F DUP3 GT PUSH1 0x1 EQ PUSH3 0x10E3 JUMPI PUSH1 0x0 SWAP2 PUSH3 0x10D7 JUMPI JUMPDEST POP DUP2 PUSH1 0x1 SHL SWAP2 PUSH1 0x0 NOT SWAP1 PUSH1 0x3 SHL SHR NOT AND OR SWAP1 SSTORE JUMPDEST PUSH1 0x0 SLOAD PUSH1 0x1 PUSH1 0x1 PUSH1 0xA0 SHL SUB AND SWAP1 PUSH1 0x0 DUP1 MLOAD PUSH1 0x20 PUSH3 0x3691 DUP4 CODECOPY DUP2 MLOAD SWAP2 MSTORE SWAP1 PUSH1 0x40 SWAP1 PUSH3 0x6FC SWAP1 PUSH3 0x6C1 PUSH3 0x1414 JUMP JUMPDEST PUSH8 0xE27C49886E60000 SWAP6 DUP7 DUP3 MSTORE PUSH3 0x3D0 PUSH1 0x2 PUSH1 0x20 DUP5 ADD SWAP4 TIMESTAMP DUP6 MSTORE DUP8 DUP2 ADD SWAP5 PUSH1 0x1 DUP7 MSTORE PUSH1 0x60 DUP3 ADD SWAP5 DUP6 MSTORE DUP9 MLOAD PUSH1 0x20 DUP2 PUSH3 0x3A7 DUP2 DUP12 PUSH3 0x1454 JUMP JUMPDEST SUB SWAP1 KECCAK256 SWAP3 DUP2 MLOAD SWAP1 DUP2 MSTORE TIMESTAMP PUSH1 0x20 DUP3 ADD MSTORE LOG2 PUSH3 0x716 PUSH3 0x1434 JUMP JUMPDEST PUSH1 0x3 DUP2 MSTORE PUSH3 0x28A0A9 PUSH1 0xE9 SHL PUSH1 0x20 DUP3 ADD MSTORE PUSH1 0xFF PUSH1 0x40 MLOAD PUSH1 0x20 DUP2 PUSH3 0x73A DUP2 DUP7 PUSH3 0x1454 JUMP JUMPDEST PUSH1 0x9 DUP2 MSTORE SUB ADD SWAP1 KECCAK256 SLOAD AND PUSH3 0xE2E JUMPI PUSH1 0x40 MLOAD PUSH1 0x20 DUP2 PUSH3 0x75B DUP2 DUP6 PUSH3 0x1454 JUMP JUMPDEST PUSH1 0x9 DUP2 MSTORE SUB ADD SWAP1 KECCAK256 DUP1 SLOAD PUSH1 0xFF NOT AND PUSH1 0x1 OR SWAP1 SSTORE PUSH1 0x8 SLOAD PUSH9 0x10000000000000000 DUP2 LT ISZERO PUSH3 0xE02 JUMPI PUSH1 0x1 DUP2 ADD DUP1 PUSH1 0x8 SSTORE DUP2 LT ISZERO PUSH3 0xE18 JUMPI PUSH1 0x8 PUSH1 0x0 MSTORE DUP2 MLOAD PUSH1 0x0 DUP1 MLOAD PUSH1 0x20 PUSH3 0x3671 DUP4 CODECOPY DUP2 MLOAD SWAP2 MSTORE SWAP2 SWAP1 SWAP2 ADD SWAP1 PUSH1 0x1 PUSH1 0x1 PUSH1 0x40 SHL SUB DUP2 GT PUSH3 0xE02 JUMPI DUP2 SLOAD PUSH1 0x1 DUP2 DUP2 SHR SWAP2 AND DUP1 ISZERO PUSH3 0x10CC JUMPI JUMPDEST PUSH1 0x20 DUP3 LT EQ PUSH3 0xDE1 JUMPI PUSH1 0x1F DUP2 GT PUSH3 0x1083 JUMPI JUMPDEST POP DUP1 PUSH1 0x20 PUSH1 0x1F DUP3 GT PUSH1 0x1 EQ PUSH3 0x1017 JUMPI PUSH1 0x0 SWAP2 PUSH3 0x100B JUMPI JUMPDEST POP DUP2 PUSH1 0x1 SHL SWAP2 PUSH1 0x0 NOT SWAP1 PUSH1 0x3 SHL SHR NOT AND OR SWAP1 SSTORE JUMPDEST PUSH1 0x0 SLOAD PUSH1 0x1 PUSH1 0x1 PUSH1 0xA0 SHL SUB AND SWAP1 PUSH1 0x0 DUP1 MLOAD PUSH1 0x20 PUSH3 0x3691 DUP4 CODECOPY DUP2 MLOAD SWAP2 MSTORE SWAP1 PUSH1 0x40 SWAP1 PUSH3 0x87B SWAP1 PUSH3 0x840 PUSH3 0x1414 JUMP JUMPDEST PUSH8 0xDBD2FC137A30000 SWAP6 DUP7 DUP3 MSTORE PUSH3 0x3D0 PUSH1 0x2 PUSH1 0x20 DUP5 ADD SWAP4 TIMESTAMP DUP6 MSTORE DUP8 DUP2 ADD SWAP5 PUSH1 0x1 DUP7 MSTORE PUSH1 0x60 DUP3 ADD SWAP5 DUP6 MSTORE DUP9 MLOAD PUSH1 0x20 DUP2 PUSH3 0x3A7 DUP2 DUP12 PUSH3 0x1454 JUMP JUMPDEST SUB SWAP1 KECCAK256 SWAP3 DUP2 MLOAD SWAP1 DUP2 MSTORE TIMESTAMP PUSH1 0x20 DUP3 ADD MSTORE LOG2 PUSH3 0x895 PUSH3 0x1434 JUMP JUMPDEST PUSH1 0x3 DUP2 MSTORE PUSH3 0x12D5D1 PUSH1 0xEA SHL PUSH1 0x20 DUP3 ADD MSTORE PUSH1 0xFF PUSH1 0x40 MLOAD PUSH1 0x20 DUP2 PUSH3 0x8B9 DUP2 DUP7 PUSH3 0x1454 JUMP JUMPDEST PUSH1 0x9 DUP2 MSTORE SUB ADD SWAP1 KECCAK256 SLOAD AND PUSH3 0xE2E JUMPI PUSH1 0x40 MLOAD PUSH1 0x20 DUP2 PUSH3 0x8DA DUP2 DUP6 PUSH3 0x1454 JUMP JUMPDEST PUSH1 0x9 DUP2 MSTORE SUB ADD SWAP1 KECCAK256 DUP1 SLOAD PUSH1 0xFF NOT AND PUSH1 0x1 OR SWAP1 SSTORE PUSH1 0x8 SLOAD PUSH9 0x10000000000000000 DUP2 LT ISZERO PUSH3 0xE02 JUMPI PUSH1 0x1 DUP2 ADD DUP1 PUSH1 0x8 SSTORE DUP2 LT ISZERO PUSH3 0xE18 JUMPI PUSH1 0x8 PUSH1 0x0 MSTORE DUP2 MLOAD PUSH1 0x0 DUP1 MLOAD PUSH1 0x20 PUSH3 0x3671 DUP4 CODECOPY DUP2 MLOAD SWAP2 MSTORE SWAP2 SWAP1 SWAP2 ADD SWAP1 PUSH1 0x1 PUSH1 0x1 PUSH1 0x40 SHL SUB DUP2 GT PUSH3 0xE02 JUMPI DUP2 SLOAD DUP1 PUSH1 0x1 SHR SWAP1 PUSH1 0x1 DUP2 AND ISZERO PUSH3 0x1000 JUMPI JUMPDEST PUSH1 0x1 AND PUSH1 0x20 DUP3 LT EQ PUSH3 0xDE1 JUMPI PUSH1 0x1F DUP2 GT PUSH3 0xFB7 JUMPI JUMPDEST POP DUP1 PUSH1 0x20 PUSH1 0x1F DUP3 GT PUSH1 0x1 EQ PUSH3 0xF4B JUMPI PUSH1 0x0 SWAP2 PUSH3 0xF3F JUMPI JUMPDEST POP DUP2 PUSH1 0x1 SHL SWAP2 PUSH1 0x0 NOT SWAP1 PUSH1 0x3 SHL SHR NOT AND OR SWAP1 SSTORE JUMPDEST PUSH1 0x0 SLOAD PUSH1 0x1 PUSH1 0x1 PUSH1 0xA0 SHL SUB AND SWAP1 PUSH1 0x0 DUP1 MLOAD PUSH1 0x20 PUSH3 0x3691 DUP4 CODECOPY DUP2 MLOAD SWAP2 MSTORE SWAP1 PUSH1 0x40 SWAP1 PUSH3 0x9FE SWAP1 PUSH3 0x9C3 PUSH3 0x1414 JUMP JUMPDEST PUSH8 0x126E00F6C5B8000 SWAP6 DUP7 DUP3 MSTORE PUSH3 0x3D0 PUSH1 0x2 PUSH1 0x20 DUP5 ADD SWAP4 TIMESTAMP DUP6 MSTORE DUP8 DUP2 ADD SWAP5 PUSH1 0x1 DUP7 MSTORE PUSH1 0x60 DUP3 ADD SWAP5 DUP6 MSTORE DUP9 MLOAD PUSH1 0x20 DUP2 PUSH3 0x3A7 DUP2 DUP12 PUSH3 0x1454 JUMP JUMPDEST SUB SWAP1 KECCAK256 SWAP3 DUP2 MLOAD SWAP1 DUP2 MSTORE TIMESTAMP PUSH1 0x20 DUP3 ADD MSTORE LOG2 PUSH3 0xA18 PUSH3 0x1434 JUMP JUMPDEST PUSH1 0x3 DUP2 MSTORE PUSH3 0x27A6A9 PUSH1 0xE9 SHL PUSH1 0x20 DUP3 ADD MSTORE PUSH1 0xFF PUSH1 0x40 MLOAD PUSH1 0x20 DUP2 PUSH3 0xA3C DUP2 DUP7 PUSH3 0x1454 JUMP JUMPDEST PUSH1 0x9 DUP2 MSTORE SUB ADD SWAP1 KECCAK256 SLOAD AND PUSH3 0xE2E JUMPI PUSH1 0x40 MLOAD PUSH1 0x20 DUP2 PUSH3 0xA5D DUP2 DUP6 PUSH3 0x1454 JUMP JUMPDEST PUSH1 0x9 DUP2 MSTORE SUB ADD SWAP1 KECCAK256 DUP1 SLOAD PUSH1 0xFF NOT AND PUSH1 0x1 OR SWAP1 SSTORE PUSH1 0x8 SLOAD PUSH9 0x10000000000000000 DUP2 LT ISZERO PUSH3 0xE02 JUMPI PUSH1 0x1 DUP2 ADD DUP1 PUSH1 0x8 SSTORE DUP2 LT ISZERO PUSH3 0xE18 JUMPI PUSH1 0x8 PUSH1 0x0 MSTORE DUP2 MLOAD PUSH1 0x0 DUP1 MLOAD PUSH1 0x20 PUSH3 0x3671 DUP4 CODECOPY DUP2 MLOAD SWAP2 MSTORE SWAP2 SWAP1 SWAP2 ADD SWAP1 PUSH1 0x1 PUSH1 0x1 PUSH1 0x40 SHL SUB DUP2 GT PUSH3 0xE02 JUMPI DUP2 SLOAD PUSH1 0x1 DUP2 DUP2 SHR SWAP2 AND DUP1 ISZERO PUSH3 0xF34 JUMPI JUMPDEST PUSH1 0x20 DUP3 LT EQ PUSH3 0xDE1 JUMPI PUSH1 0x1F DUP2 GT PUSH3 0xEEB JUMPI JUMPDEST POP DUP1 PUSH1 0x20 PUSH1 0x1F DUP3 GT PUSH1 0x1 EQ PUSH3 0xE7F JUMPI PUSH1 0x0 SWAP2 PUSH3 0xE73 JUMPI JUMPDEST POP DUP2 PUSH1 0x1 SHL SWAP2 PUSH1 0x0 NOT SWAP1 PUSH1 0x3 SHL SHR NOT AND OR SWAP1 SSTORE JUMPDEST PUSH1 0x0 SLOAD PUSH1 0x1 PUSH1 0x1 PUSH1 0xA0 SHL SUB AND SWAP1 PUSH1 0x0 DUP1 MLOAD PUSH1 0x20 PUSH3 0x3691 DUP4 CODECOPY DUP2 MLOAD SWAP2 MSTORE SWAP1 PUSH1 0x40 SWAP1 PUSH3 0xB7D SWAP1 PUSH3 0xB42 PUSH3 0x1414 JUMP JUMPDEST PUSH8 0x17508F1956A8000 SWAP6 DUP7 DUP3 MSTORE PUSH3 0x3D0 PUSH1 0x2 PUSH1 0x20 DUP5 ADD SWAP4 TIMESTAMP DUP6 MSTORE DUP8 DUP2 ADD SWAP5 PUSH1 0x1 DUP7 MSTORE PUSH1 0x60 DUP3 ADD SWAP5 DUP6 MSTORE DUP9 MLOAD PUSH1 0x20 DUP2 PUSH3 0x3A7 DUP2 DUP12 PUSH3 0x1454 JUMP JUMPDEST SUB SWAP1 KECCAK256 SWAP3 DUP2 MLOAD SWAP1 DUP2 MSTORE TIMESTAMP PUSH1 0x20 DUP3 ADD MSTORE LOG2 PUSH3 0xB97 PUSH3 0x1434 JUMP JUMPDEST PUSH1 0x3 DUP2 MSTORE PUSH3 0x109211 PUSH1 0xEA SHL PUSH1 0x20 DUP3 ADD MSTORE PUSH1 0xFF PUSH1 0x40 MLOAD PUSH1 0x20 DUP2 PUSH3 0xBBB DUP2 DUP7 PUSH3 0x1454 JUMP JUMPDEST PUSH1 0x9 DUP2 MSTORE SUB ADD SWAP1 KECCAK256 SLOAD AND PUSH3 0xE2E JUMPI PUSH1 0x40 MLOAD PUSH1 0x20 DUP2 PUSH3 0xBDC DUP2 DUP6 PUSH3 0x1454 JUMP JUMPDEST PUSH1 0x9 DUP2 MSTORE SUB ADD SWAP1 KECCAK256 DUP1 SLOAD PUSH1 0xFF NOT AND PUSH1 0x1 OR SWAP1 SSTORE PUSH1 0x8 SLOAD PUSH9 0x10000000000000000 DUP2 LT ISZERO PUSH3 0xE02 JUMPI PUSH1 0x1 DUP2 ADD DUP1 PUSH1 0x8 SSTORE DUP2 LT ISZERO PUSH3 0xE18 JUMPI PUSH1 0x8 PUSH1 0x0 MSTORE DUP2 MLOAD PUSH1 0x0 DUP1 MLOAD PUSH1 0x20 PUSH3 0x3671 DUP4 CODECOPY DUP2 MLOAD SWAP2 MSTORE SWAP2 SWAP1 SWAP2 ADD SWAP1 PUSH1 0x1 PUSH1 0x1 PUSH1 0x40 SHL SUB DUP2 GT PUSH3 0xE02 JUMPI DUP2 SLOAD PUSH1 0x1 DUP2 DUP2 SHR SWAP2 AND DUP1 ISZERO PUSH3 0xDF7 JUMPI JUMPDEST PUSH1 0x20 DUP3 LT EQ PUSH3 0xDE1 JUMPI PUSH1 0x1F DUP2 GT PUSH3 0xD94 JUMPI JUMPDEST POP DUP1 PUSH1 0x20 PUSH1 0x1F DUP3 GT PUSH1 0x1 EQ PUSH3 0xD28 JUMPI PUSH1 0x0 SWAP2 PUSH3 0xD1C JUMPI JUMPDEST POP DUP2 PUSH1 0x1 SHL SWAP2 PUSH1 0x0 NOT SWAP1 PUSH1 0x3 SHL SHR NOT AND OR SWAP1 SSTORE JUMPDEST PUSH1 0x0 SLOAD PUSH1 0x1 PUSH1 0x1 PUSH1 0xA0 SHL SUB AND SWAP1 PUSH1 0x0 DUP1 MLOAD PUSH1 0x20 PUSH3 0x3691 DUP4 CODECOPY DUP2 MLOAD SWAP2 MSTORE SWAP1 PUSH1 0x40 SWAP1 PUSH3 0xCFC SWAP1 PUSH3 0xCC1 PUSH3 0x1414 JUMP JUMPDEST PUSH8 0x16DEDF44BDD8000 SWAP6 DUP7 DUP3 MSTORE PUSH3 0x3D0 PUSH1 0x2 PUSH1 0x20 DUP5 ADD SWAP4 TIMESTAMP DUP6 MSTORE DUP8 DUP2 ADD SWAP5 PUSH1 0x1 DUP7 MSTORE PUSH1 0x60 DUP3 ADD SWAP5 DUP6 MSTORE DUP9 MLOAD PUSH1 0x20 DUP2 PUSH3 0x3A7 DUP2 DUP12 PUSH3 0x1454 JUMP JUMPDEST SUB SWAP1 KECCAK256 SWAP3 DUP2 MLOAD SWAP1 DUP2 MSTORE TIMESTAMP PUSH1 0x20 DUP3 ADD MSTORE LOG2 PUSH1 0x40 MLOAD PUSH2 0x21EF SWAP1 DUP2 PUSH3 0x1482 DUP3 CODECOPY RETURN JUMPDEST SWAP1 POP DUP4 ADD MLOAD CODESIZE PUSH3 0xC7D JUMP JUMPDEST SWAP2 POP DUP3 PUSH1 0x0 MSTORE PUSH1 0x20 PUSH1 0x0 KECCAK256 PUSH1 0x0 SWAP3 JUMPDEST PUSH1 0x1F NOT DUP4 AND DUP5 LT PUSH3 0xD7B JUMPI PUSH1 0x1 SWAP4 POP DUP3 PUSH1 0x1F NOT DUP2 AND LT PUSH3 0xD61 JUMPI JUMPDEST POP POP DUP2 SHL ADD SWAP1 SSTORE PUSH3 0xC91 JUMP JUMPDEST DUP6 ADD MLOAD PUSH1 0x0 NOT PUSH1 0xF8 DUP5 PUSH1 0x3 SHL AND SHR NOT AND SWAP1 SSTORE CODESIZE DUP1 PUSH3 0xD54 JUMP JUMPDEST DUP6 DUP2 ADD MLOAD DUP3 SSTORE PUSH1 0x20 SWAP4 DUP5 ADD SWAP4 PUSH1 0x1 SWAP1 SWAP3 ADD SWAP2 ADD PUSH3 0xD37 JUMP JUMPDEST DUP3 PUSH1 0x0 MSTORE PUSH1 0x20 PUSH1 0x0 KECCAK256 PUSH1 0x1F DUP4 ADD PUSH1 0x5 SHR DUP2 ADD SWAP2 PUSH1 0x20 DUP5 LT PUSH3 0xDD6 JUMPI JUMPDEST PUSH1 0x1F ADD PUSH1 0x5 SHR ADD SWAP1 JUMPDEST DUP2 DUP2 LT PUSH3 0xDC9 JUMPI POP PUSH3 0xC64 JUMP JUMPDEST PUSH1 0x0 DUP2 SSTORE PUSH1 0x1 ADD PUSH3 0xDBA JUMP JUMPDEST SWAP1 SWAP2 POP DUP2 SWAP1 PUSH3 0xDB1 JUMP JUMPDEST PUSH4 0x4E487B71 PUSH1 0xE0 SHL PUSH1 0x0 MSTORE PUSH1 0x22 PUSH1 0x4 MSTORE PUSH1 0x24 PUSH1 0x0 REVERT JUMPDEST SWAP1 PUSH1 0x7F AND SWAP1 PUSH3 0xC50 JUMP JUMPDEST PUSH4 0x4E487B71 PUSH1 0xE0 SHL PUSH1 0x0 MSTORE PUSH1 0x41 PUSH1 0x4 MSTORE PUSH1 0x24 PUSH1 0x0 REVERT JUMPDEST PUSH4 0x4E487B71 PUSH1 0xE0 SHL PUSH1 0x0 MSTORE PUSH1 0x32 PUSH1 0x4 MSTORE PUSH1 0x24 PUSH1 0x0 REVERT JUMPDEST PUSH1 0x40 MLOAD PUSH3 0x461BCD PUSH1 0xE5 SHL DUP2 MSTORE PUSH1 0x20 PUSH1 0x4 DUP3 ADD MSTORE PUSH1 0x1A PUSH1 0x24 DUP3 ADD MSTORE PUSH32 0x43757272656E637920616C726561647920737570706F72746564000000000000 PUSH1 0x44 DUP3 ADD MSTORE PUSH1 0x64 SWAP1 REVERT JUMPDEST SWAP1 POP DUP4 ADD MLOAD CODESIZE PUSH3 0xAFE JUMP JUMPDEST SWAP2 POP DUP3 PUSH1 0x0 MSTORE PUSH1 0x20 PUSH1 0x0 KECCAK256 PUSH1 0x0 SWAP3 JUMPDEST PUSH1 0x1F NOT DUP4 AND DUP5 LT PUSH3 0xED2 JUMPI PUSH1 0x1 SWAP4 POP DUP3 PUSH1 0x1F NOT DUP2 AND LT PUSH3 0xEB8 JUMPI JUMPDEST POP POP DUP2 SHL ADD SWAP1 SSTORE PUSH3 0xB12 JUMP JUMPDEST DUP6 ADD MLOAD PUSH1 0x0 NOT PUSH1 0xF8 DUP5 PUSH1 0x3 SHL AND SHR NOT AND SWAP1 SSTORE CODESIZE DUP1 PUSH3 0xEAB JUMP JUMPDEST DUP6 DUP2 ADD MLOAD DUP3 SSTORE PUSH1 0x20 SWAP4 DUP5 ADD SWAP4 PUSH1 0x1 SWAP1 SWAP3 ADD SWAP2 ADD PUSH3 0xE8E JUMP JUMPDEST DUP3 PUSH1 0x0 MSTORE PUSH1 0x20 PUSH1 0x0 KECCAK256 PUSH1 0x1F DUP4 ADD PUSH1 0x5 SHR DUP2 ADD PUSH1 0x20 DUP5 LT PUSH3 0xF2C JUMPI JUMPDEST PUSH1 0x1F DUP4 ADD PUSH1 0x5 SHR DUP3 ADD DUP2 LT PUSH3 0xF1F JUMPI POP POP PUSH3 0xAE5 JUMP JUMPDEST PUSH1 0x0 DUP2 SSTORE PUSH1 0x1 ADD PUSH3 0xF07 JUMP JUMPDEST POP DUP1 PUSH3 0xF07 JUMP JUMPDEST SWAP1 PUSH1 0x7F AND SWAP1 PUSH3 0xAD1 JUMP JUMPDEST SWAP1 POP DUP4 ADD MLOAD CODESIZE PUSH3 0x97F JUMP JUMPDEST SWAP2 POP DUP3 PUSH1 0x0 MSTORE PUSH1 0x20 PUSH1 0x0 KECCAK256 PUSH1 0x0 SWAP3 JUMPDEST PUSH1 0x1F NOT DUP4 AND DUP5 LT PUSH3 0xF9E JUMPI PUSH1 0x1 SWAP4 POP DUP3 PUSH1 0x1F NOT DUP2 AND LT PUSH3 0xF84 JUMPI JUMPDEST POP POP DUP2 SHL ADD SWAP1 SSTORE PUSH3 0x993 JUMP JUMPDEST DUP6 ADD MLOAD PUSH1 0x0 NOT PUSH1 0xF8 DUP5 PUSH1 0x3 SHL AND SHR NOT AND SWAP1 SSTORE CODESIZE DUP1 PUSH3 0xF77 JUMP JUMPDEST DUP6 DUP2 ADD MLOAD DUP3 SSTORE PUSH1 0x20 SWAP4 DUP5 ADD SWAP4 PUSH1 0x1 SWAP1 SWAP3 ADD SWAP2 ADD PUSH3 0xF5A JUMP JUMPDEST DUP3 PUSH1 0x0 MSTORE PUSH1 0x20 PUSH1 0x0 KECCAK256 PUSH1 0x1F DUP4 ADD PUSH1 0x5 SHR DUP2 ADD PUSH1 0x20 DUP5 LT PUSH3 0xFF8 JUMPI JUMPDEST PUSH1 0x1F DUP4 ADD PUSH1 0x5 SHR DUP3 ADD DUP2 LT PUSH3 0xFEB JUMPI POP POP PUSH3 0x966 JUMP JUMPDEST PUSH1 0x0 DUP2 SSTORE PUSH1 0x1 ADD PUSH3 0xFD3 JUMP JUMPDEST POP DUP1 PUSH3 0xFD3 JUMP JUMPDEST SWAP1 PUSH1 0x7F AND SWAP1 PUSH3 0x94F JUMP JUMPDEST SWAP1 POP DUP4 ADD MLOAD CODESIZE PUSH3 0x7FC JUMP JUMPDEST SWAP2 POP DUP3 PUSH1 0x0 MSTORE PUSH1 0x20 PUSH1 0x0 KECCAK256 PUSH1 0x0 SWAP3 JUMPDEST PUSH1 0x1F NOT DUP4 AND DUP5 LT PUSH3 0x106A JUMPI PUSH1 0x1 SWAP4 POP DUP3 PUSH1 0x1F NOT DUP2 AND LT PUSH3 0x1050 JUMPI JUMPDEST POP POP DUP2 SHL ADD SWAP1 SSTORE PUSH3 0x810 JUMP JUMPDEST DUP6 ADD MLOAD PUSH1 0x0 NOT PUSH1 0xF8 DUP5 PUSH1 0x3 SHL AND SHR NOT AND SWAP1 SSTORE CODESIZE DUP1 PUSH3 0x1043 JUMP JUMPDEST DUP6 DUP2 ADD MLOAD DUP3 SSTORE PUSH1 0x20 SWAP4 DUP5 ADD SWAP4 PUSH1 0x1 SWAP1 SWAP3 ADD SWAP2 ADD PUSH3 0x1026 JUMP JUMPDEST DUP3 PUSH1 0x0 MSTORE PUSH1 0x20 PUSH1 0x0 KECCAK256 PUSH1 0x1F DUP4 ADD PUSH1 0x5 SHR DUP2 ADD PUSH1 0x20 DUP5 LT PUSH3 0x10C4 JUMPI JUMPDEST PUSH1 0x1F DUP4 ADD PUSH1 0x5 SHR DUP3 ADD DUP2 LT PUSH3 0x10B7 JUMPI POP POP PUSH3 0x7E3 JUMP JUMPDEST PUSH1 0x0 DUP2 SSTORE PUSH1 0x1 ADD PUSH3 0x109F JUMP JUMPDEST POP DUP1 PUSH3 0x109F JUMP JUMPDEST SWAP1 PUSH1 0x7F AND SWAP1 PUSH3 0x7CF JUMP JUMPDEST SWAP1 POP DUP4 ADD MLOAD CODESIZE PUSH3 0x67D JUMP JUMPDEST SWAP2 POP DUP3 PUSH1 0x0 MSTORE PUSH1 0x20 PUSH1 0x0 KECCAK256 PUSH1 0x0 SWAP3 JUMPDEST PUSH1 0x1F NOT DUP4 AND DUP5 LT PUSH3 0x1136 JUMPI PUSH1 0x1 SWAP4 POP DUP3 PUSH1 0x1F NOT DUP2 AND LT PUSH3 0x111C JUMPI JUMPDEST POP POP DUP2 SHL ADD SWAP1 SSTORE PUSH3 0x691 JUMP JUMPDEST DUP6 ADD MLOAD PUSH1 0x0 NOT PUSH1 0xF8 DUP5 PUSH1 0x3 SHL AND SHR NOT AND SWAP1 SSTORE CODESIZE DUP1 PUSH3 0x110F JUMP JUMPDEST DUP6 DUP2 ADD MLOAD DUP3 SSTORE PUSH1 0x20 SWAP4 DUP5 ADD SWAP4 PUSH1 0x1 SWAP1 SWAP3 ADD SWAP2 ADD PUSH3 0x10F2 JUMP JUMPDEST DUP3 PUSH1 0x0 MSTORE PUSH1 0x20 PUSH1 0x0 KECCAK256 PUSH1 0x1F DUP4 ADD PUSH1 0x5 SHR DUP2 ADD PUSH1 0x20 DUP5 LT PUSH3 0x1190 JUMPI JUMPDEST PUSH1 0x1F DUP4 ADD PUSH1 0x5 SHR DUP3 ADD DUP2 LT PUSH3 0x1183 JUMPI POP POP PUSH3 0x664 JUMP JUMPDEST PUSH1 0x0 DUP2 SSTORE PUSH1 0x1 ADD PUSH3 0x116B JUMP JUMPDEST POP DUP1 PUSH3 0x116B JUMP JUMPDEST SWAP1 PUSH1 0x7F AND SWAP1 PUSH3 0x650 JUMP JUMPDEST SWAP1 POP DUP4 ADD MLOAD CODESIZE PUSH3 0x4FE JUMP JUMPDEST SWAP2 POP DUP3 PUSH1 0x0 MSTORE PUSH1 0x20 PUSH1 0x0 KECCAK256 PUSH1 0x0 SWAP3 JUMPDEST PUSH1 0x1F NOT DUP4 AND DUP5 LT PUSH3 0x1202 JUMPI PUSH1 0x1 SWAP4 POP DUP3 PUSH1 0x1F NOT DUP2 AND LT PUSH3 0x11E8 JUMPI JUMPDEST POP POP DUP2 SHL ADD SWAP1 SSTORE PUSH3 0x512 JUMP JUMPDEST DUP6 ADD MLOAD PUSH1 0x0 NOT PUSH1 0xF8 DUP5 PUSH1 0x3 SHL AND SHR NOT AND SWAP1 SSTORE CODESIZE DUP1 PUSH3 0x11DB JUMP JUMPDEST DUP6 DUP2 ADD MLOAD DUP3 SSTORE PUSH1 0x20 SWAP4 DUP5 ADD SWAP4 PUSH1 0x1 SWAP1 SWAP3 ADD SWAP2 ADD PUSH3 0x11BE JUMP JUMPDEST DUP3 PUSH1 0x0 MSTORE PUSH1 0x20 PUSH1 0x0 KECCAK256 PUSH1 0x1F DUP4 ADD PUSH1 0x5 SHR DUP2 ADD PUSH1 0x20 DUP5 LT PUSH3 0x125C JUMPI JUMPDEST PUSH1 0x1F DUP4 ADD PUSH1 0x5 SHR DUP3 ADD DUP2 LT PUSH3 0x124F JUMPI POP POP PUSH3 0x4E5 JUMP JUMPDEST PUSH1 0x0 DUP2 SSTORE PUSH1 0x1 ADD PUSH3 0x1237 JUMP JUMPDEST POP DUP1 PUSH3 0x1237 JUMP JUMPDEST SWAP1 PUSH1 0x7F AND SWAP1 PUSH3 0x4D1 JUMP JUMPDEST SWAP1 POP DUP4 ADD MLOAD CODESIZE PUSH3 0x328 JUMP JUMPDEST SWAP2 POP DUP3 PUSH1 0x0 MSTORE PUSH1 0x20 PUSH1 0x0 KECCAK256 PUSH1 0x0 SWAP3 JUMPDEST PUSH1 0x1F NOT DUP4 AND DUP5 LT PUSH3 0x12CE JUMPI PUSH1 0x1 SWAP4 POP DUP3 PUSH1 0x1F NOT DUP2 AND LT PUSH3 0x12B4 JUMPI JUMPDEST POP POP DUP2 SHL ADD SWAP1 SSTORE PUSH3 0x33C JUMP JUMPDEST DUP6 ADD MLOAD PUSH1 0x0 NOT PUSH1 0xF8 DUP5 PUSH1 0x3 SHL AND SHR NOT AND SWAP1 SSTORE CODESIZE DUP1 PUSH3 0x12A7 JUMP JUMPDEST DUP6 DUP2 ADD MLOAD DUP3 SSTORE PUSH1 0x20 SWAP4 DUP5 ADD SWAP4 PUSH1 0x1 SWAP1 SWAP3 ADD SWAP2 ADD PUSH3 0x128A JUMP JUMPDEST DUP3 PUSH1 0x0 MSTORE PUSH1 0x20 PUSH1 0x0 KECCAK256 PUSH1 0x1F DUP4 ADD PUSH1 0x5 SHR DUP2 ADD PUSH1 0x20 DUP5 LT PUSH3 0x1328 JUMPI JUMPDEST PUSH1 0x1F DUP4 ADD PUSH1 0x5 SHR DUP3 ADD DUP2 LT PUSH3 0x131B JUMPI POP POP PUSH3 0x30F JUMP JUMPDEST PUSH1 0x0 DUP2 SSTORE PUSH1 0x1 ADD PUSH3 0x1303 JUMP JUMPDEST POP DUP1 PUSH3 0x1303 JUMP JUMPDEST SWAP1 PUSH1 0x7F AND SWAP1 PUSH3 0x2FB JUMP JUMPDEST SWAP1 POP DUP4 ADD MLOAD CODESIZE PUSH3 0x146 JUMP JUMPDEST DUP2 PUSH1 0x0 MSTORE PUSH1 0x20 PUSH1 0x0 KECCAK256 SWAP1 PUSH1 0x0 JUMPDEST PUSH1 0x1F NOT DUP7 AND DUP2 LT PUSH3 0x139E JUMPI POP SWAP4 PUSH1 0x1 SWAP2 PUSH3 0x20F SWAP6 DUP3 PUSH1 0x1F NOT DUP2 AND LT PUSH3 0x1384 JUMPI JUMPDEST POP POP DUP2 SHL ADD SWAP1 SSTORE PUSH3 0x15A JUMP JUMPDEST DUP6 ADD MLOAD PUSH1 0x0 NOT PUSH1 0xF8 DUP5 PUSH1 0x3 SHL AND SHR NOT AND SWAP1 SSTORE CODESIZE DUP1 PUSH3 0x1377 JUMP JUMPDEST SWAP1 SWAP2 PUSH1 0x20 PUSH1 0x1 DUP2 SWAP3 DUP6 DUP9 ADD MLOAD DUP2 SSTORE ADD SWAP4 ADD SWAP2 ADD PUSH3 0x1354 JUMP JUMPDEST DUP2 PUSH1 0x0 MSTORE PUSH1 0x20 PUSH1 0x0 KECCAK256 PUSH1 0x1F DUP6 ADD PUSH1 0x5 SHR DUP2 ADD SWAP2 PUSH1 0x20 DUP7 LT PUSH3 0x13F9 JUMPI JUMPDEST PUSH1 0x1F ADD PUSH1 0x5 SHR ADD SWAP1 JUMPDEST DUP2 DUP2 LT PUSH3 0x13EC JUMPI POP PUSH3 0x127 JUMP JUMPDEST PUSH1 0x0 DUP2 SSTORE PUSH1 0x1 ADD PUSH3 0x13DD JUMP JUMPDEST SWAP1 SWAP2 POP DUP2 SWAP1 PUSH3 0x13D4 JUMP JUMPDEST SWAP1 PUSH1 0x7F AND SWAP1 PUSH3 0x113 JUMP JUMPDEST PUSH1 0x0 DUP1 REVERT JUMPDEST PUSH1 0x40 MLOAD SWAP1 PUSH1 0x80 DUP3 ADD PUSH1 0x1 PUSH1 0x1 PUSH1 0x40 SHL SUB DUP2 GT DUP4 DUP3 LT OR PUSH3 0xE02 JUMPI PUSH1 0x40 MSTORE JUMP JUMPDEST PUSH1 0x40 DUP1 MLOAD SWAP2 SWAP1 DUP3 ADD PUSH1 0x1 PUSH1 0x1 PUSH1 0x40 SHL SUB DUP2 GT DUP4 DUP3 LT OR PUSH3 0xE02 JUMPI PUSH1 0x40 MSTORE JUMP JUMPDEST SWAP1 DUP2 MLOAD SWAP2 PUSH1 0x0 JUMPDEST DUP4 DUP2 LT PUSH3 0x146D JUMPI POP POP ADD PUSH1 0x0 DUP2 MSTORE SWAP1 JUMP JUMPDEST DUP1 PUSH1 0x20 DUP1 SWAP3 DUP5 ADD ADD MLOAD DUP2 DUP6 ADD MSTORE ADD PUSH3 0x145B JUMP INVALID PUSH1 0x40 PUSH1 0x80 DUP2 MSTORE PUSH1 0x4 SWAP1 DUP2 CALLDATASIZE LT ISZERO PUSH2 0x15 JUMPI PUSH1 0x0 DUP1 REVERT JUMPDEST PUSH1 0x0 SWAP1 DUP2 CALLDATALOAD PUSH1 0xE0 SHR DUP1 PUSH4 0x2024FD8 EQ PUSH2 0x17ED JUMPI DUP1 PUSH4 0x5657C13 EQ PUSH2 0x1797 JUMPI DUP1 PUSH4 0x592CA45 EQ PUSH2 0x174D JUMPI DUP1 PUSH4 0x789752C EQ PUSH2 0x16BB JUMPI DUP1 PUSH4 0x14C360A2 EQ PUSH2 0x153A JUMPI DUP1 PUSH4 0x18B3163D EQ PUSH2 0x1468 JUMPI DUP1 PUSH4 0x1C749203 EQ PUSH2 0x125F JUMPI DUP1 PUSH4 0x22305FF9 EQ PUSH2 0xBD1 JUMPI DUP1 PUSH4 0x24D434AF EQ PUSH2 0x1006 JUMPI DUP1 PUSH4 0x2CE75863 EQ PUSH2 0xF24 JUMPI DUP1 PUSH4 0x3F4BA83A EQ PUSH2 0xE8A JUMPI DUP1 PUSH4 0x43225ACD EQ PUSH2 0xE12 JUMPI DUP1 PUSH4 0x44F428FA EQ PUSH2 0xCA4 JUMPI DUP1 PUSH4 0x5C975ABB EQ PUSH2 0xC80 JUMPI DUP1 PUSH4 0x603CDA09 EQ PUSH2 0xC1B JUMPI DUP1 PUSH4 0x688B2371 EQ PUSH2 0xBD1 JUMPI DUP1 PUSH4 0x69A7E2DB EQ PUSH2 0xB70 JUMPI DUP1 PUSH4 0x715018A6 EQ PUSH2 0xB16 JUMPI DUP1 PUSH4 0x8456CB59 EQ PUSH2 0xAB8 JUMPI DUP1 PUSH4 0x85135E0A EQ PUSH2 0xA5C JUMPI DUP1 PUSH4 0x87326B36 EQ PUSH2 0x830 JUMPI DUP1 PUSH4 0x8DA5CB5B EQ PUSH2 0x809 JUMPI DUP1 PUSH4 0x8FF29CFE EQ PUSH2 0x7CC JUMPI DUP1 PUSH4 0x97BF7935 EQ PUSH2 0x767 JUMPI DUP1 PUSH4 0x9AC2478B EQ PUSH2 0x678 JUMPI DUP1 PUSH4 0xA8AF6673 EQ PUSH2 0x5D7 JUMPI DUP1 PUSH4 0xAAF5EB68 EQ PUSH2 0x5B5 JUMPI DUP1 PUSH4 0xB1586E6C EQ PUSH2 0x57B JUMPI DUP1 PUSH4 0xC21888FD EQ PUSH2 0x4CC JUMPI DUP1 PUSH4 0xCACA95A4 EQ PUSH2 0x4AF JUMPI DUP1 PUSH4 0xDD671F50 EQ PUSH2 0x3DD JUMPI DUP1 PUSH4 0xF2FDE38B EQ PUSH2 0x316 JUMPI DUP1 PUSH4 0xF3CCF996 EQ PUSH2 0x269 JUMPI PUSH4 0xF4B54314 EQ PUSH2 0x197 JUMPI PUSH1 0x0 DUP1 REVERT JUMPDEST CALLVALUE PUSH2 0x265 JUMPI PUSH1 0x20 SWAP2 DUP3 PUSH1 0x3 NOT CALLDATASIZE ADD SLT PUSH2 0x262 JUMPI DUP4 CALLDATALOAD SWAP1 PUSH1 0x1 PUSH1 0x1 PUSH1 0x40 SHL SUB DUP3 GT PUSH2 0x262 JUMPI POP DUP3 PUSH2 0x1CF PUSH1 0x60 SWAP6 PUSH2 0x20C SWAP4 CALLDATASIZE SWAP2 ADD PUSH2 0x1A21 JUMP JUMPDEST DUP4 MLOAD SWAP1 PUSH2 0x1FC PUSH1 0xFF DUP3 MLOAD SWAP4 DUP6 DUP2 DUP2 DUP7 ADD SWAP7 PUSH2 0x1EB DUP2 DUP4 DUP11 PUSH2 0x1995 JUMP JUMPDEST DUP2 ADD PUSH1 0x9 DUP2 MSTORE SUB ADD SWAP1 KECCAK256 SLOAD AND PUSH2 0x1BEF JUMP JUMPDEST DUP5 MLOAD SWAP4 DUP5 SWAP3 DUP4 SWAP3 MLOAD SWAP3 DUP4 SWAP2 PUSH2 0x1995 JUMP JUMPDEST DUP2 ADD PUSH1 0x1 DUP2 MSTORE SUB ADD SWAP1 KECCAK256 SWAP1 DUP1 MLOAD SWAP2 PUSH2 0x223 DUP4 PUSH2 0x18B3 JUMP JUMPDEST DUP1 SLOAD SWAP4 DUP5 DUP5 MSTORE PUSH1 0x2 PUSH1 0x1 DUP4 ADD SLOAD SWAP3 DUP4 DUP4 DUP8 ADD MSTORE ADD SLOAD SWAP4 DUP7 PUSH1 0xFF DUP7 AND ISZERO ISZERO SWAP6 DUP7 DUP7 DUP5 ADD MSTORE PUSH1 0x1 DUP1 PUSH1 0xA0 SHL SUB SWAP1 PUSH1 0x8 SHR AND SWAP2 ADD MSTORE DUP3 MLOAD SWAP5 DUP6 MSTORE DUP5 ADD MSTORE DUP3 ADD MSTORE RETURN JUMPDEST DUP1 REVERT JUMPDEST POP DUP1 REVERT JUMPDEST POP CALLVALUE PUSH2 0x265 JUMPI PUSH32 0xBE38EC07E0DD0749F29745591570EA1AAF31DA2074F1A44517FDD2CA512BD243 PUSH32 0xE9B08D987643DE58F9C9B1B97479F3D8A16FCC7F6FB63BB399BD825A0B0B5890 SWAP2 PUSH2 0x2BB CALLDATASIZE PUSH2 0x1A7C JUMP JUMPDEST PUSH2 0x2C6 SWAP3 SWAP2 SWAP3 PUSH2 0x1B97 JUMP JUMPDEST DUP1 DUP3 MLOAD PUSH1 0x20 DUP2 DUP7 MLOAD PUSH2 0x2DB DUP2 DUP4 DUP6 DUP12 ADD PUSH2 0x1995 JUMP JUMPDEST DUP2 ADD PUSH1 0x7 DUP2 MSTORE SUB ADD SWAP1 KECCAK256 SSTORE PUSH10 0xAC9E98AA9A8ABE64689 PUSH1 0xB3 SHL DUP3 MLOAD MSTORE PUSH2 0x30A DUP3 MLOAD SWAP4 DUP4 DUP6 SWAP5 DUP6 MSTORE DUP5 ADD SWAP1 PUSH2 0x19B8 JUMP JUMPDEST SWAP1 PUSH1 0x20 DUP4 ADD MSTORE SUB SWAP1 LOG2 DUP1 RETURN JUMPDEST POP DUP3 CALLVALUE PUSH2 0x3D9 JUMPI PUSH1 0x20 CALLDATASIZE PUSH1 0x3 NOT ADD SLT PUSH2 0x3D9 JUMPI PUSH2 0x331 PUSH2 0x1B81 JUMP JUMPDEST SWAP1 PUSH2 0x33A PUSH2 0x1B97 JUMP JUMPDEST PUSH1 0x1 PUSH1 0x1 PUSH1 0xA0 SHL SUB SWAP2 DUP3 AND SWAP3 DUP4 ISZERO PUSH2 0x387 JUMPI POP POP DUP3 SLOAD PUSH1 0x1 PUSH1 0x1 PUSH1 0xA0 SHL SUB NOT DUP2 AND DUP4 OR DUP5 SSTORE AND PUSH32 0x8BE0079C531659141344CD1FD0A4F28419497F9722A3DAAFE3B4186F6B6457E0 DUP4 DUP1 LOG3 DUP1 RETURN JUMPDEST SWAP1 PUSH1 0x20 PUSH1 0x84 SWAP3 MLOAD SWAP2 PUSH3 0x461BCD PUSH1 0xE5 SHL DUP4 MSTORE DUP3 ADD MSTORE PUSH1 0x26 PUSH1 0x24 DUP3 ADD MSTORE PUSH32 0x4F776E61626C653A206E6577206F776E657220697320746865207A65726F2061 PUSH1 0x44 DUP3 ADD MSTORE PUSH6 0x646472657373 PUSH1 0xD0 SHL PUSH1 0x64 DUP3 ADD MSTORE REVERT JUMPDEST DUP3 DUP1 REVERT JUMPDEST POP DUP3 SWAP1 CALLVALUE PUSH2 0x3D9 JUMPI PUSH1 0x20 SWAP3 DUP4 PUSH1 0x3 NOT CALLDATASIZE ADD SLT PUSH2 0x262 JUMPI DUP3 CALLDATALOAD PUSH1 0x1 PUSH1 0x1 PUSH1 0x40 SHL SUB DUP2 GT PUSH2 0x265 JUMPI DUP5 PUSH2 0x414 PUSH2 0x440 SWAP3 CALLDATASIZE SWAP1 DUP8 ADD PUSH2 0x1A21 JUMP JUMPDEST DUP5 MLOAD SWAP1 PUSH2 0x430 PUSH1 0xFF DUP3 MLOAD SWAP4 DUP6 DUP2 DUP2 DUP7 ADD SWAP7 PUSH2 0x1EB DUP2 DUP4 DUP11 PUSH2 0x1995 JUMP JUMPDEST DUP6 MLOAD SWAP4 DUP5 SWAP3 DUP4 SWAP3 MLOAD SWAP3 DUP4 SWAP2 PUSH2 0x1995 JUMP JUMPDEST DUP2 ADD PUSH1 0x1 DUP2 MSTORE SUB ADD SWAP1 KECCAK256 DUP3 MLOAD PUSH2 0x455 DUP2 PUSH2 0x18B3 JUMP JUMPDEST DUP2 SLOAD DUP2 MSTORE PUSH1 0x60 PUSH1 0x2 PUSH1 0x1 DUP5 ADD SLOAD SWAP4 DUP5 DUP10 DUP6 ADD MSTORE ADD SLOAD PUSH1 0xFF DUP2 AND ISZERO ISZERO DUP7 DUP5 ADD MSTORE PUSH1 0x1 DUP1 PUSH1 0xA0 SHL SUB SWAP1 PUSH1 0x8 SHR AND SWAP2 ADD MSTORE TIMESTAMP SUB SWAP3 TIMESTAMP DUP5 GT PUSH2 0x49C JUMPI POP POP PUSH3 0x15180 SWAP1 MLOAD SWAP2 GT ISZERO DUP2 MSTORE RETURN JUMPDEST PUSH4 0x4E487B71 PUSH1 0xE0 SHL DUP3 MSTORE PUSH1 0x11 SWAP1 MSTORE PUSH1 0x24 SWAP1 REVERT JUMPDEST POP CALLVALUE PUSH2 0x265 JUMPI DUP2 PUSH1 0x3 NOT CALLDATASIZE ADD SLT PUSH2 0x265 JUMPI PUSH1 0x20 SWAP1 MLOAD PUSH3 0x15180 DUP2 MSTORE RETURN JUMPDEST POP CALLVALUE PUSH2 0x265 JUMPI PUSH1 0x20 SWAP1 PUSH8 0xDE0B6B3A7640000 PUSH2 0x573 DUP4 PUSH2 0x51D PUSH2 0x4EE CALLDATASIZE PUSH2 0x1B38 JUMP JUMPDEST DUP7 SWAP4 SWAP2 SWAP4 MLOAD SWAP1 PUSH2 0x50D PUSH1 0xFF DUP3 MLOAD SWAP4 DUP6 DUP2 DUP2 DUP7 ADD SWAP7 PUSH2 0x1EB DUP2 DUP4 DUP11 PUSH2 0x1995 JUMP JUMPDEST DUP8 MLOAD SWAP4 DUP5 SWAP3 DUP4 SWAP3 MLOAD SWAP3 DUP4 SWAP2 PUSH2 0x1995 JUMP JUMPDEST DUP2 ADD PUSH1 0x1 DUP2 MSTORE SUB ADD SWAP1 KECCAK256 PUSH2 0x56C PUSH1 0x2 DUP7 MLOAD SWAP3 PUSH2 0x538 DUP5 PUSH2 0x18B3 JUMP JUMPDEST DUP1 SLOAD DUP5 MSTORE PUSH1 0x1 DUP2 ADD SLOAD DUP10 DUP6 ADD MSTORE ADD SLOAD PUSH1 0xFF DUP2 AND ISZERO ISZERO DUP8 DUP5 ADD DUP2 SWAP1 MSTORE PUSH1 0x8 SWAP2 SWAP1 SWAP2 SHR PUSH1 0x1 PUSH1 0x1 PUSH1 0xA0 SHL SUB AND PUSH1 0x60 DUP5 ADD MSTORE PUSH2 0x1D18 JUMP JUMPDEST MLOAD SWAP1 PUSH2 0x1D64 JUMP JUMPDEST DIV SWAP1 MLOAD SWAP1 DUP2 MSTORE RETURN JUMPDEST POP CALLVALUE PUSH2 0x265 JUMPI PUSH1 0x20 SWAP1 PUSH2 0x5AE PUSH2 0x590 CALLDATASIZE PUSH2 0x1B38 JUMP JUMPDEST SWAP1 PUSH2 0x5A9 PUSH1 0xFF DUP6 MLOAD DUP8 DUP2 DUP7 MLOAD PUSH2 0x1EB DUP2 DUP4 DUP6 DUP12 ADD PUSH2 0x1995 JUMP JUMPDEST PUSH2 0x1EA6 JUMP JUMPDEST SWAP1 MLOAD SWAP1 DUP2 MSTORE RETURN JUMPDEST POP CALLVALUE PUSH2 0x265 JUMPI DUP2 PUSH1 0x3 NOT CALLDATASIZE ADD SLT PUSH2 0x265 JUMPI PUSH1 0x20 SWAP1 MLOAD PUSH8 0xDE0B6B3A7640000 DUP2 MSTORE RETURN JUMPDEST POP CALLVALUE PUSH2 0x265 JUMPI PUSH32 0xBE38EC07E0DD0749F29745591570EA1AAF31DA2074F1A44517FDD2CA512BD243 PUSH32 0xD2BDB209EDBE5D56294B9B207A47C1A747D630309398CDC5BE2C3B701CC3E7C0 SWAP2 PUSH2 0x629 CALLDATASIZE PUSH2 0x1A7C JUMP JUMPDEST PUSH2 0x634 SWAP3 SWAP2 SWAP3 PUSH2 0x1B97 JUMP JUMPDEST DUP1 DUP3 MLOAD PUSH1 0x20 DUP2 DUP7 MLOAD PUSH2 0x649 DUP2 DUP4 DUP6 DUP12 ADD PUSH2 0x1995 JUMP JUMPDEST DUP2 ADD PUSH1 0x6 DUP2 MSTORE SUB ADD SWAP1 KECCAK256 SSTORE PUSH10 0x4D41524B45545F43415 PUSH1 0xB4 SHL DUP3 MLOAD MSTORE PUSH2 0x30A DUP3 MLOAD SWAP4 DUP4 DUP6 SWAP5 DUP6 MSTORE DUP5 ADD SWAP1 PUSH2 0x19B8 JUMP JUMPDEST POP DUP3 SWAP1 CALLVALUE PUSH2 0x3D9 JUMPI DUP1 PUSH1 0x3 NOT CALLDATASIZE ADD SLT PUSH2 0x3D9 JUMPI PUSH2 0x693 PUSH2 0x1B81 JUMP JUMPDEST SWAP2 PUSH1 0x24 CALLDATALOAD SWAP2 PUSH1 0x1 PUSH1 0x1 PUSH1 0x40 SHL SUB DUP4 GT PUSH2 0x763 JUMPI PUSH2 0x6D7 PUSH2 0x75D SWAP3 PUSH32 0xFF7FF9B5D84D519B0864ADEB71E1FF2A982EC456223864A14CE488C1559C5BD6 SWAP5 CALLDATASIZE SWAP2 ADD PUSH2 0x1A21 JUMP JUMPDEST SWAP1 PUSH2 0x6E0 PUSH2 0x1B97 JUMP JUMPDEST PUSH2 0x74B PUSH1 0x1 DUP1 PUSH1 0xA0 SHL SUB DUP7 AND SWAP6 DUP7 DUP9 MSTORE PUSH1 0x2 PUSH1 0x20 MSTORE DUP3 DUP9 KECCAK256 PUSH1 0x1 PUSH1 0xFF NOT DUP3 SLOAD AND OR SWAP1 SSTORE PUSH1 0x2 DUP4 MLOAD PUSH1 0x20 DUP2 DUP8 MLOAD PUSH2 0x719 DUP2 DUP4 DUP6 DUP13 ADD PUSH2 0x1995 JUMP JUMPDEST PUSH1 0x1 SWAP1 DUP3 ADD SWAP1 DUP2 MSTORE SUB ADD SWAP1 KECCAK256 ADD DUP1 SLOAD PUSH2 0x100 PUSH1 0x1 PUSH1 0xA8 SHL SUB NOT AND PUSH1 0x8 SWAP3 SWAP1 SWAP3 SHL PUSH2 0x100 PUSH1 0x1 PUSH1 0xA8 SHL SUB AND SWAP2 SWAP1 SWAP2 OR SWAP1 SSTORE JUMP JUMPDEST MLOAD SWAP2 DUP3 SWAP2 PUSH1 0x20 DUP4 MSTORE PUSH1 0x20 DUP4 ADD SWAP1 PUSH2 0x19B8 JUMP JUMPDEST SUB SWAP1 LOG2 DUP1 RETURN JUMPDEST DUP5 DUP1 REVERT JUMPDEST POP SWAP1 CALLVALUE PUSH2 0x262 JUMPI PUSH1 0x20 CALLDATASIZE PUSH1 0x3 NOT ADD SLT PUSH2 0x262 JUMPI DUP3 CALLDATALOAD PUSH1 0x8 SLOAD DUP2 LT ISZERO PUSH2 0x265 JUMPI PUSH2 0x78F SWAP1 PUSH2 0x1AD3 JUMP JUMPDEST SWAP4 SWAP1 SWAP4 PUSH2 0x7BA JUMPI PUSH2 0x7B6 DUP4 PUSH2 0x7A3 DUP7 PUSH2 0x18EF JUMP JUMPDEST SWAP1 MLOAD SWAP2 DUP3 SWAP2 PUSH1 0x20 DUP4 MSTORE PUSH1 0x20 DUP4 ADD SWAP1 PUSH2 0x19B8 JUMP JUMPDEST SUB SWAP1 RETURN JUMPDEST PUSH4 0x4E487B71 PUSH1 0xE0 SHL DUP3 MSTORE DUP2 SWAP1 MSTORE PUSH1 0x24 SWAP1 REVERT JUMPDEST POP CALLVALUE PUSH2 0x265 JUMPI PUSH1 0x20 CALLDATASIZE PUSH1 0x3 NOT ADD SLT PUSH2 0x265 JUMPI PUSH1 0x20 SWAP2 PUSH1 0xFF SWAP1 DUP3 SWAP1 PUSH1 0x1 PUSH1 0x1 PUSH1 0xA0 SHL SUB PUSH2 0x7F6 PUSH2 0x1B81 JUMP JUMPDEST AND DUP2 MSTORE PUSH1 0x2 DUP6 MSTORE KECCAK256 SLOAD AND SWAP1 MLOAD SWAP1 ISZERO ISZERO DUP2 MSTORE RETURN JUMPDEST POP CALLVALUE PUSH2 0x265 JUMPI DUP2 PUSH1 0x3 NOT CALLDATASIZE ADD SLT PUSH2 0x265 JUMPI SWAP1 SLOAD SWAP1 MLOAD PUSH1 0x1 PUSH1 0x1 PUSH1 0xA0 SHL SUB SWAP1 SWAP2 AND DUP2 MSTORE PUSH1 0x20 SWAP1 RETURN JUMPDEST POP CALLVALUE PUSH2 0x265 JUMPI PUSH1 0xC0 CALLDATASIZE PUSH1 0x3 NOT ADD SLT PUSH2 0x265 JUMPI DUP3 CALLDATALOAD SWAP1 PUSH1 0x44 CALLDATALOAD PUSH1 0x1 PUSH1 0x1 PUSH1 0x40 SHL SUB PUSH1 0x24 CALLDATALOAD PUSH1 0x64 CALLDATALOAD DUP3 DUP2 GT PUSH2 0xA58 JUMPI PUSH2 0x86A SWAP1 CALLDATASIZE SWAP1 DUP10 ADD PUSH2 0x1A21 JUMP JUMPDEST SWAP2 PUSH1 0x84 CALLDATALOAD SWAP1 DUP2 GT PUSH2 0xA58 JUMPI PUSH2 0x882 SWAP1 CALLDATASIZE SWAP1 DUP10 ADD PUSH2 0x1A21 JUMP JUMPDEST SWAP1 PUSH1 0xA4 CALLDATALOAD SWAP2 DUP3 ISZERO ISZERO DUP4 SUB PUSH2 0xA54 JUMPI PUSH2 0x898 PUSH2 0x1B97 JUMP JUMPDEST DUP7 ISZERO PUSH2 0xA1B JUMPI DUP2 ISZERO PUSH2 0x9D8 JUMPI DUP5 ISZERO PUSH2 0x99F JUMPI PUSH2 0x8F6 SWAP3 SWAP2 PUSH2 0x8E4 PUSH1 0x5 SWAP3 DUP10 DUP12 MSTORE PUSH1 0x3 PUSH1 0x20 MSTORE DUP9 DUP12 KECCAK256 SWAP3 DUP4 SSTORE DUP8 PUSH1 0x1 DUP5 ADD SSTORE TIMESTAMP PUSH1 0x2 DUP5 ADD SSTORE PUSH2 0x8DC DUP8 PUSH1 0x3 DUP6 ADD PUSH2 0x1D97 JUMP JUMPDEST DUP12 DUP4 ADD PUSH2 0x1D97 JUMP JUMPDEST ADD SWAP1 PUSH1 0xFF DUP1 NOT DUP4 SLOAD AND SWAP2 ISZERO ISZERO AND OR SWAP1 SSTORE JUMP JUMPDEST DUP3 MLOAD PUSH1 0x20 DUP2 DUP4 MLOAD PUSH2 0x90A DUP2 DUP4 DUP6 DUP9 ADD PUSH2 0x1995 JUMP JUMPDEST DUP2 ADD DUP10 DUP2 MSTORE SUB ADD SWAP1 KECCAK256 DUP1 SLOAD SWAP1 PUSH1 0x1 PUSH1 0x40 SHL DUP3 LT ISZERO PUSH2 0x98C JUMPI SWAP2 PUSH2 0x959 DUP3 PUSH32 0xBDC0D35F72E34D7D41C70861A638A20C950D7DFDD2228A250EE1666D9D586A8B SWAP7 SWAP6 SWAP5 PUSH1 0x1 PUSH2 0x75D SWAP6 ADD DUP2 SSTORE PUSH2 0x1B20 JUMP JUMPDEST DUP2 SLOAD SWAP1 PUSH1 0x3 SHL SWAP1 DUP9 DUP3 SHL SWAP2 PUSH1 0x0 NOT SWAP1 SHL NOT AND OR SWAP1 SSTORE PUSH2 0x977 DUP2 PUSH2 0x202E JUMP JUMPDEST DUP4 MLOAD SWAP4 DUP5 SWAP4 DUP5 MSTORE DUP1 PUSH1 0x20 DUP6 ADD MSTORE DUP4 ADD SWAP1 PUSH2 0x19B8 JUMP JUMPDEST PUSH4 0x4E487B71 PUSH1 0xE0 SHL DUP8 MSTORE PUSH1 0x41 DUP9 MSTORE PUSH1 0x24 DUP8 REVERT JUMPDEST DUP6 MLOAD PUSH3 0x461BCD PUSH1 0xE5 SHL DUP2 MSTORE PUSH1 0x20 DUP2 DUP12 ADD MSTORE PUSH1 0x13 PUSH1 0x24 DUP3 ADD MSTORE PUSH19 0x496E76616C696420746F74616C2076616C7565 PUSH1 0x68 SHL PUSH1 0x44 DUP3 ADD MSTORE PUSH1 0x64 SWAP1 REVERT JUMPDEST DUP6 MLOAD PUSH3 0x461BCD PUSH1 0xE5 SHL DUP2 MSTORE PUSH1 0x20 DUP2 DUP12 ADD MSTORE PUSH1 0x17 PUSH1 0x24 DUP3 ADD MSTORE PUSH32 0x496E76616C696420707269636520706572207371206674000000000000000000 PUSH1 0x44 DUP3 ADD MSTORE PUSH1 0x64 SWAP1 REVERT JUMPDEST DUP6 MLOAD PUSH3 0x461BCD PUSH1 0xE5 SHL DUP2 MSTORE PUSH1 0x20 DUP2 DUP12 ADD MSTORE PUSH1 0x13 PUSH1 0x24 DUP3 ADD MSTORE PUSH19 0x125B9D985B1A59081C1C9BDC195C9D1E481251 PUSH1 0x6A SHL PUSH1 0x44 DUP3 ADD MSTORE PUSH1 0x64 SWAP1 REVERT JUMPDEST DUP8 DUP1 REVERT JUMPDEST DUP7 DUP1 REVERT JUMPDEST POP SWAP1 CALLVALUE PUSH2 0x262 JUMPI PUSH1 0x20 CALLDATASIZE PUSH1 0x3 NOT ADD SLT PUSH2 0x262 JUMPI DUP3 CALLDATALOAD SWAP1 PUSH1 0x1 PUSH1 0x1 PUSH1 0x40 SHL SUB DUP3 GT PUSH2 0x262 JUMPI POP PUSH1 0x20 PUSH2 0xA94 DUP2 SWAP5 PUSH2 0xAA6 SWAP4 CALLDATASIZE SWAP2 ADD PUSH2 0x1A21 JUMP JUMPDEST DUP2 DUP5 MLOAD SWAP4 DUP3 DUP6 DUP1 SWAP5 MLOAD SWAP4 DUP5 SWAP3 ADD PUSH2 0x1995 JUMP JUMPDEST DUP2 ADD PUSH1 0x6 DUP2 MSTORE SUB ADD SWAP1 KECCAK256 SLOAD SWAP1 MLOAD SWAP1 DUP2 MSTORE RETURN JUMPDEST POP CALLVALUE PUSH2 0x265 JUMPI DUP2 PUSH1 0x3 NOT CALLDATASIZE ADD SLT PUSH2 0x265 JUMPI PUSH1 0x20 PUSH32 0x62E78CEA01BEE320CD4E420270B5EA74000D11B0C9F74754EBDBFC544B05A258 SWAP2 PUSH2 0xAF5 PUSH2 0x1B97 JUMP JUMPDEST PUSH2 0xAFD PUSH2 0x1C98 JUMP JUMPDEST DUP4 SLOAD PUSH1 0xFF PUSH1 0xA0 SHL NOT AND PUSH1 0x1 PUSH1 0xA0 SHL OR DUP5 SSTORE MLOAD CALLER DUP2 MSTORE LOG1 DUP1 RETURN JUMPDEST DUP3 CALLVALUE PUSH2 0x262 JUMPI DUP1 PUSH1 0x3 NOT CALLDATASIZE ADD SLT PUSH2 0x262 JUMPI PUSH2 0xB2F PUSH2 0x1B97 JUMP JUMPDEST DUP1 SLOAD PUSH1 0x1 PUSH1 0x1 PUSH1 0xA0 SHL SUB NOT DUP2 AND DUP3 SSTORE DUP2 SWAP1 PUSH1 0x1 PUSH1 0x1 PUSH1 0xA0 SHL SUB AND PUSH32 0x8BE0079C531659141344CD1FD0A4F28419497F9722A3DAAFE3B4186F6B6457E0 DUP3 DUP1 LOG3 DUP1 RETURN JUMPDEST POP SWAP1 CALLVALUE PUSH2 0x262 JUMPI PUSH1 0x20 CALLDATASIZE PUSH1 0x3 NOT ADD SLT PUSH2 0x262 JUMPI DUP3 CALLDATALOAD SWAP1 PUSH1 0x1 PUSH1 0x1 PUSH1 0x40 SHL SUB DUP3 GT PUSH2 0x262 JUMPI POP PUSH2 0xBBC PUSH1 0x20 PUSH2 0xBAA DUP2 SWAP6 PUSH1 0xFF SWAP5 CALLDATASIZE SWAP2 ADD PUSH2 0x1A21 JUMP JUMPDEST DUP2 DUP6 MLOAD SWAP4 DUP3 DUP6 DUP1 SWAP5 MLOAD SWAP4 DUP5 SWAP3 ADD PUSH2 0x1995 JUMP JUMPDEST DUP2 ADD PUSH1 0x9 DUP2 MSTORE SUB ADD SWAP1 KECCAK256 SLOAD AND SWAP1 MLOAD SWAP1 ISZERO ISZERO DUP2 MSTORE RETURN JUMPDEST POP SWAP1 CALLVALUE PUSH2 0x262 JUMPI PUSH1 0x20 CALLDATASIZE PUSH1 0x3 NOT ADD SLT PUSH2 0x262 JUMPI DUP3 CALLDATALOAD SWAP1 PUSH1 0x1 PUSH1 0x1 PUSH1 0x40 SHL SUB DUP3 GT PUSH2 0x262 JUMPI POP PUSH1 0x20 PUSH2 0xA94 DUP2 SWAP5 PUSH2 0xC09 SWAP4 CALLDATASIZE SWAP2 ADD PUSH2 0x1A21 JUMP JUMPDEST DUP2 ADD PUSH1 0x5 DUP2 MSTORE SUB ADD SWAP1 KECCAK256 SLOAD SWAP1 MLOAD SWAP1 DUP2 MSTORE RETURN JUMPDEST POP CALLVALUE PUSH2 0x265 JUMPI PUSH1 0x20 CALLDATASIZE PUSH1 0x3 NOT ADD SLT PUSH2 0x265 JUMPI PUSH2 0xC35 PUSH2 0x1B81 JUMP JUMPDEST PUSH2 0xC3D PUSH2 0x1B97 JUMP JUMPDEST PUSH1 0x1 PUSH1 0x1 PUSH1 0xA0 SHL SUB AND DUP1 DUP4 MSTORE PUSH1 0x2 PUSH1 0x20 MSTORE SWAP1 DUP3 KECCAK256 DUP1 SLOAD PUSH1 0xFF NOT AND SWAP1 SSTORE PUSH32 0x50AE3647B181B6195683F16A0C98A3CD7DDC63732465548BC2E4CC18D44C629A DUP3 DUP1 LOG2 DUP1 RETURN JUMPDEST POP CALLVALUE PUSH2 0x265 JUMPI DUP2 PUSH1 0x3 NOT CALLDATASIZE ADD SLT PUSH2 0x265 JUMPI PUSH1 0xFF PUSH1 0x20 SWAP3 SLOAD PUSH1 0xA0 SHR AND SWAP1 MLOAD SWAP1 ISZERO ISZERO DUP2 MSTORE RETURN JUMPDEST POP SWAP1 CALLVALUE PUSH2 0x262 JUMPI DUP1 PUSH1 0x3 NOT CALLDATASIZE ADD SLT PUSH2 0x262 JUMPI PUSH1 0x8 SWAP2 DUP3 SLOAD SWAP3 DUP3 SWAP1 DUP4 DUP1 JUMPDEST DUP7 DUP2 LT PUSH2 0xCDE JUMPI POP POP POP PUSH1 0x60 SWAP5 POP DUP2 MLOAD SWAP4 DUP5 MSTORE PUSH1 0x20 DUP5 ADD MSTORE DUP3 ADD MSTORE RETURN JUMPDEST PUSH2 0xCE7 DUP2 PUSH2 0x1AD3 JUMP JUMPDEST POP DUP6 MLOAD DUP2 SLOAD SWAP1 SWAP2 DUP3 DUP6 PUSH2 0xCF9 DUP5 PUSH2 0x1848 JUMP JUMPDEST SWAP3 PUSH1 0x1 SWAP5 DUP6 DUP2 AND SWAP1 DUP2 PUSH1 0x0 EQ PUSH2 0xDF8 JUMPI POP PUSH1 0x1 EQ PUSH2 0xDBE JUMPI JUMPDEST POP PUSH1 0x2 SWAP3 POP DUP4 DUP2 MSTORE PUSH1 0x20 SWAP5 DUP6 SWAP2 SUB ADD SWAP1 KECCAK256 DUP9 MLOAD SWAP3 PUSH2 0xD2F DUP5 PUSH2 0x18B3 JUMP JUMPDEST DUP2 SLOAD DUP5 MSTORE DUP2 ADD SLOAD SWAP4 DUP4 ADD SWAP4 DUP5 MSTORE ADD SLOAD PUSH1 0xFF DUP2 AND ISZERO ISZERO DUP9 DUP4 ADD DUP2 SWAP1 MSTORE SWAP1 DUP7 SHR PUSH1 0x1 PUSH1 0x1 PUSH1 0xA0 SHL SUB AND PUSH1 0x60 SWAP1 SWAP3 ADD SWAP2 SWAP1 SWAP2 MSTORE PUSH2 0xDAE JUMPI JUMPDEST MLOAD TIMESTAMP SUB TIMESTAMP DUP2 GT PUSH2 0xD9B JUMPI PUSH3 0x15180 LT PUSH2 0xD86 JUMPI JUMPDEST PUSH2 0xD81 SWAP1 PUSH2 0x1CDF JUMP JUMPDEST PUSH2 0xCC1 JUMP JUMPDEST SWAP5 PUSH2 0xD93 PUSH2 0xD81 SWAP2 PUSH2 0x1CDF JUMP JUMPDEST SWAP6 SWAP1 POP PUSH2 0xD78 JUMP JUMPDEST PUSH4 0x4E487B71 PUSH1 0xE0 SHL DUP4 MSTORE PUSH1 0x11 DUP10 MSTORE PUSH1 0x24 DUP4 REVERT JUMPDEST SWAP4 PUSH2 0xDB8 SWAP1 PUSH2 0x1CDF JUMP JUMPDEST SWAP4 PUSH2 0xD64 JUMP JUMPDEST SWAP2 POP POP DUP6 MSTORE DUP3 PUSH1 0x20 DUP1 DUP8 KECCAK256 DUP5 DUP9 SWAP2 JUMPDEST DUP6 DUP4 LT PUSH2 0xDE3 JUMPI POP POP POP POP PUSH1 0x2 SWAP2 DUP2 ADD CODESIZE PUSH2 0xD12 JUMP JUMPDEST DUP1 SLOAD DUP9 DUP5 ADD MSTORE DUP8 SWAP5 POP SWAP2 DUP4 ADD SWAP2 DUP7 SWAP2 ADD PUSH2 0xDCD JUMP JUMPDEST PUSH1 0xFF NOT AND DUP5 MSTORE POP PUSH1 0x2 SWAP4 DUP1 ISZERO ISZERO MUL DUP4 ADD SWAP2 POP CODESIZE SWAP1 POP PUSH2 0xD12 JUMP JUMPDEST POP SWAP1 CALLVALUE PUSH2 0x262 JUMPI PUSH1 0x20 CALLDATASIZE PUSH1 0x3 NOT ADD SLT PUSH2 0x262 JUMPI DUP3 CALLDATALOAD SWAP1 PUSH1 0x1 PUSH1 0x1 PUSH1 0x40 SHL SUB DUP3 GT PUSH2 0x262 JUMPI POP PUSH1 0x20 PUSH2 0xA94 PUSH1 0x80 SWAP5 PUSH2 0xE4B SWAP4 CALLDATASIZE SWAP2 ADD PUSH2 0x1A21 JUMP JUMPDEST DUP2 ADD PUSH1 0x1 DUP2 MSTORE SUB ADD SWAP1 KECCAK256 DUP1 SLOAD SWAP2 PUSH1 0x2 PUSH1 0x1 DUP4 ADD SLOAD SWAP3 ADD SLOAD SWAP2 DUP2 MLOAD SWAP4 DUP5 MSTORE PUSH1 0x20 DUP5 ADD MSTORE PUSH1 0xFF DUP3 AND ISZERO ISZERO SWAP1 DUP4 ADD MSTORE PUSH1 0x1 DUP1 PUSH1 0xA0 SHL SUB SWAP1 PUSH1 0x8 SHR AND PUSH1 0x60 DUP3 ADD MSTORE RETURN JUMPDEST POP DUP3 CALLVALUE PUSH2 0x3D9 JUMPI DUP3 PUSH1 0x3 NOT CALLDATASIZE ADD SLT PUSH2 0x3D9 JUMPI PUSH2 0xEA4 PUSH2 0x1B97 JUMP JUMPDEST DUP3 SLOAD SWAP1 PUSH1 0xFF DUP3 PUSH1 0xA0 SHR AND ISZERO PUSH2 0xEEA JUMPI POP PUSH1 0xFF PUSH1 0xA0 SHL NOT AND DUP3 SSTORE MLOAD CALLER DUP2 MSTORE PUSH32 0x5DB9EE0A495BF2E6FF9C91A7834C1BA4FDD244A5E8AA4E537BD38AEAE4B073AA SWAP1 PUSH1 0x20 SWAP1 LOG1 DUP1 RETURN JUMPDEST PUSH1 0x64 SWAP1 PUSH1 0x20 DUP5 MLOAD SWAP2 PUSH3 0x461BCD PUSH1 0xE5 SHL DUP4 MSTORE DUP3 ADD MSTORE PUSH1 0x14 PUSH1 0x24 DUP3 ADD MSTORE PUSH20 0x14185D5CD8589B194E881B9BDD081C185D5CD959 PUSH1 0x62 SHL PUSH1 0x44 DUP3 ADD MSTORE REVERT JUMPDEST POP SWAP1 CALLVALUE PUSH2 0x262 JUMPI DUP1 PUSH1 0x3 NOT CALLDATASIZE ADD SLT PUSH2 0x262 JUMPI PUSH1 0x8 SLOAD PUSH2 0xF42 DUP2 PUSH2 0x1B6A JUMP JUMPDEST SWAP2 PUSH2 0xF4F DUP5 MLOAD SWAP4 DUP5 PUSH2 0x18CE JUMP JUMPDEST DUP2 DUP4 MSTORE PUSH1 0x8 DUP2 MSTORE PUSH1 0x20 SWAP3 DUP4 DUP2 ADD SWAP3 DUP3 PUSH32 0xF3F7A9FE364FAAB93B216DA50A3214154F22A0A2B415B23A84C8169E8B636EE3 DUP6 JUMPDEST DUP4 DUP4 LT PUSH2 0xFE2 JUMPI POP POP POP POP DUP5 MLOAD SWAP4 DUP1 DUP6 ADD SWAP2 DUP2 DUP7 MSTORE MLOAD DUP1 SWAP3 MSTORE DUP6 DUP6 ADD SWAP6 DUP3 PUSH1 0x5 SHL DUP7 ADD ADD SWAP4 SWAP3 SWAP6 JUMPDEST DUP3 DUP8 LT PUSH2 0xFB6 JUMPI DUP6 DUP6 SUB DUP7 RETURN JUMPDEST SWAP1 SWAP2 SWAP3 SWAP4 DUP3 DUP1 PUSH2 0xFD2 PUSH1 0x1 SWAP4 PUSH1 0x3F NOT DUP11 DUP3 SUB ADD DUP7 MSTORE DUP9 MLOAD PUSH2 0x19B8 JUMP JUMPDEST SWAP7 ADD SWAP3 ADD SWAP7 ADD SWAP6 SWAP3 SWAP2 SWAP1 SWAP3 PUSH2 0xFA9 JUMP JUMPDEST PUSH1 0x1 DUP9 DUP2 SWAP3 PUSH2 0xFF4 DUP6 SWAP12 SWAP9 SWAP10 SWAP12 PUSH2 0x18EF JUMP JUMPDEST DUP2 MSTORE ADD SWAP3 ADD SWAP3 ADD SWAP2 SWAP1 SWAP7 SWAP5 SWAP4 SWAP7 PUSH2 0xF81 JUMP JUMPDEST POP SWAP2 CALLVALUE PUSH2 0x265 JUMPI DUP3 PUSH1 0x3 NOT CALLDATASIZE ADD SLT PUSH2 0x265 JUMPI DUP1 CALLDATALOAD SWAP1 PUSH1 0x1 PUSH1 0x1 PUSH1 0x40 SHL SUB SWAP1 DUP2 DUP4 GT PUSH2 0x125B JUMPI CALLDATASIZE PUSH1 0x23 DUP5 ADD SLT ISZERO PUSH2 0x125B JUMPI DUP3 DUP2 ADD CALLDATALOAD SWAP1 PUSH2 0x1044 DUP3 PUSH2 0x1B6A JUMP JUMPDEST SWAP2 PUSH2 0x1051 DUP8 MLOAD SWAP4 DUP5 PUSH2 0x18CE JUMP JUMPDEST DUP1 DUP4 MSTORE PUSH1 0x20 SWAP5 DUP6 DUP5 ADD PUSH1 0x24 DUP1 SWAP4 PUSH1 0x5 SHL DUP4 ADD ADD SWAP2 CALLDATASIZE DUP4 GT PUSH2 0x1229 JUMPI DUP4 DUP2 ADD SWAP2 JUMPDEST DUP4 DUP4 LT PUSH2 0x1231 JUMPI POP POP POP POP DUP1 CALLDATALOAD SWAP4 DUP5 GT PUSH2 0x122D JUMPI CALLDATASIZE PUSH1 0x23 DUP6 ADD SLT ISZERO PUSH2 0x122D JUMPI DUP4 DUP3 ADD CALLDATALOAD SWAP4 PUSH2 0x109E DUP6 PUSH2 0x1B6A JUMP JUMPDEST SWAP5 PUSH2 0x10AB DUP10 MLOAD SWAP7 DUP8 PUSH2 0x18CE JUMP JUMPDEST DUP1 DUP7 MSTORE DUP3 DUP8 DUP8 ADD SWAP2 PUSH1 0x5 SHL DUP4 ADD ADD SWAP2 CALLDATASIZE DUP4 GT PUSH2 0x1229 JUMPI DUP4 DUP9 SWAP2 ADD SWAP2 JUMPDEST DUP4 DUP4 LT PUSH2 0x1219 JUMPI POP POP POP POP PUSH2 0x10DA PUSH2 0x1B97 JUMP JUMPDEST PUSH2 0x10E2 PUSH2 0x1C98 JUMP JUMPDEST DUP3 MLOAD DUP5 MLOAD SUB PUSH2 0x11DE JUMPI POP POP DUP4 JUMPDEST DUP2 MLOAD DUP2 LT ISZERO PUSH2 0x11DA JUMPI DUP1 PUSH2 0x1122 PUSH1 0xFF PUSH2 0x1EB DUP8 PUSH2 0x110F PUSH2 0x11D5 SWAP7 DUP9 PUSH2 0x1D04 JUMP JUMPDEST MLOAD DUP2 DUP13 MLOAD SWAP4 DUP3 DUP6 DUP1 SWAP5 MLOAD SWAP4 DUP5 SWAP3 ADD PUSH2 0x1995 JUMP JUMPDEST PUSH2 0x1137 PUSH2 0x112F DUP3 DUP7 PUSH2 0x1D04 JUMP JUMPDEST MLOAD ISZERO ISZERO PUSH2 0x1C34 JUMP JUMPDEST PUSH2 0x1141 DUP2 DUP6 PUSH2 0x1D04 JUMP JUMPDEST MLOAD PUSH2 0x1155 PUSH2 0x114F DUP4 DUP7 PUSH2 0x1D04 JUMP JUMPDEST MLOAD PUSH2 0x1AAD JUMP JUMPDEST SSTORE PUSH1 0x1 TIMESTAMP DUP2 PUSH2 0x1167 PUSH2 0x114F DUP6 DUP9 PUSH2 0x1D04 JUMP JUMPDEST ADD SSTORE PUSH1 0x2 PUSH2 0x1178 PUSH2 0x114F DUP5 DUP8 PUSH2 0x1D04 JUMP JUMPDEST ADD SWAP1 PUSH1 0xFF NOT DUP3 SLOAD AND OR SWAP1 SSTORE PUSH2 0x118D DUP2 DUP5 PUSH2 0x1D04 JUMP JUMPDEST MLOAD PUSH32 0x301886E6C7C3689607C20B38181FEBF7ED6A192D69F4FD79065FD0FC869323B6 DUP9 PUSH2 0x11C4 PUSH2 0x11BD DUP6 DUP10 PUSH2 0x1D04 JUMP JUMPDEST MLOAD SWAP4 PUSH2 0x1C78 JUMP JUMPDEST SWAP3 DUP2 MLOAD SWAP1 DUP2 MSTORE TIMESTAMP DUP10 DUP3 ADD MSTORE LOG2 PUSH2 0x1CDF JUMP JUMPDEST PUSH2 0x10EF JUMP JUMPDEST DUP5 DUP1 RETURN JUMPDEST DUP7 MLOAD PUSH3 0x461BCD PUSH1 0xE5 SHL DUP2 MSTORE SWAP2 DUP3 ADD DUP6 SWAP1 MSTORE PUSH1 0x16 SWAP1 DUP3 ADD MSTORE PUSH22 0x82E4E4C2F2E640D8CADCCEE8D040DAD2E6DAC2E8C6D PUSH1 0x53 SHL PUSH1 0x44 DUP3 ADD MSTORE PUSH1 0x64 SWAP1 REVERT JUMPDEST DUP3 CALLDATALOAD DUP2 MSTORE SWAP2 DUP2 ADD SWAP2 DUP9 SWAP2 ADD PUSH2 0x10C7 JUMP JUMPDEST DUP9 DUP1 REVERT JUMPDEST DUP6 DUP1 REVERT JUMPDEST DUP3 CALLDATALOAD DUP9 DUP2 GT PUSH2 0x1257 JUMPI DUP10 SWAP2 PUSH2 0x124C DUP4 SWAP3 DUP9 CALLDATASIZE SWAP2 DUP8 ADD ADD PUSH2 0x1A21 JUMP JUMPDEST DUP2 MSTORE ADD SWAP3 ADD SWAP2 PUSH2 0x1071 JUMP JUMPDEST DUP11 DUP1 REVERT JUMPDEST DUP4 DUP1 REVERT JUMPDEST POP CALLVALUE PUSH2 0x265 JUMPI PUSH2 0x126E CALLDATASIZE PUSH2 0x1A7C JUMP JUMPDEST PUSH2 0x1279 SWAP3 SWAP2 SWAP3 PUSH2 0x1B97 JUMP JUMPDEST DUP2 MLOAD SWAP3 DUP1 MLOAD PUSH1 0xFF PUSH1 0x20 SWAP6 DUP7 DUP2 DUP2 DUP7 ADD SWAP5 PUSH2 0x1294 DUP2 DUP4 DUP9 PUSH2 0x1995 JUMP JUMPDEST DUP2 ADD PUSH1 0x9 DUP2 MSTORE SUB ADD SWAP1 KECCAK256 SLOAD AND PUSH2 0x1425 JUMPI DUP3 ISZERO PUSH2 0x13EB JUMPI DUP4 MLOAD DUP6 DUP2 DUP5 MLOAD PUSH2 0x12BB DUP2 DUP4 DUP8 PUSH2 0x1995 JUMP JUMPDEST DUP2 ADD PUSH1 0x9 DUP2 MSTORE SUB ADD SWAP1 KECCAK256 PUSH1 0x1 PUSH1 0xFF NOT DUP3 SLOAD AND OR SWAP1 SSTORE PUSH1 0x8 SLOAD PUSH1 0x1 PUSH1 0x40 SHL DUP2 LT ISZERO PUSH2 0x98C JUMPI DUP1 PUSH1 0x1 PUSH2 0x12EF SWAP3 ADD PUSH1 0x8 SSTORE PUSH2 0x1AD3 JUMP JUMPDEST PUSH2 0x13D9 JUMPI SWAP2 PUSH2 0x13C5 DUP6 DUP9 PUSH2 0x13CA SWAP5 PUSH2 0x132A DUP6 PUSH32 0x301886E6C7C3689607C20B38181FEBF7ED6A192D69F4FD79065FD0FC869323B6 SWAP11 SWAP10 SWAP9 PUSH2 0x1D97 JUMP JUMPDEST SWAP1 SLOAD DUP3 MLOAD PUSH1 0x1 PUSH1 0x1 PUSH1 0xA0 SHL SUB SWAP3 SWAP2 DUP4 AND SWAP2 PUSH2 0x13A3 SWAP2 PUSH1 0x2 SWAP2 PUSH2 0x1378 DUP15 PUSH2 0x134F DUP5 PUSH2 0x18B3 JUMP JUMPDEST DUP13 DUP5 MSTORE DUP1 DUP5 ADD SWAP3 TIMESTAMP DUP5 MSTORE DUP12 DUP11 DUP7 ADD SWAP11 PUSH1 0x1 DUP13 MSTORE PUSH1 0x60 DUP8 ADD SWAP10 DUP11 MSTORE MLOAD SWAP4 DUP5 SWAP3 DUP4 SWAP3 MLOAD SWAP3 DUP4 SWAP2 PUSH2 0x1995 JUMP JUMPDEST DUP2 ADD PUSH1 0x1 DUP2 MSTORE SUB ADD SWAP1 KECCAK256 SWAP2 MLOAD DUP3 SSTORE MLOAD PUSH1 0x1 DUP3 ADD SSTORE ADD SWAP4 MLOAD ISZERO ISZERO DUP5 SWAP1 PUSH1 0xFF DUP1 NOT DUP4 SLOAD AND SWAP2 ISZERO ISZERO AND OR SWAP1 SSTORE JUMP JUMPDEST MLOAD DUP3 SLOAD PUSH2 0x100 PUSH1 0x1 PUSH1 0xA8 SHL SUB NOT AND SWAP2 AND PUSH1 0x8 SHL PUSH2 0x100 PUSH1 0x1 PUSH1 0xA8 SHL SUB AND OR SWAP1 SSTORE JUMP JUMPDEST PUSH2 0x1C78 JUMP JUMPDEST SWAP4 DUP3 MLOAD SWAP2 DUP3 MSTORE TIMESTAMP SWAP1 DUP3 ADD MSTORE LOG2 DUP1 RETURN JUMPDEST PUSH4 0x4E487B71 PUSH1 0xE0 SHL DUP8 MSTORE DUP7 DUP9 MSTORE PUSH1 0x24 DUP8 REVERT JUMPDEST DUP4 MLOAD PUSH3 0x461BCD PUSH1 0xE5 SHL DUP2 MSTORE DUP1 DUP9 ADD DUP7 SWAP1 MSTORE PUSH1 0x14 PUSH1 0x24 DUP3 ADD MSTORE PUSH20 0x496E76616C696420696E697469616C2072617465 PUSH1 0x60 SHL PUSH1 0x44 DUP3 ADD MSTORE PUSH1 0x64 SWAP1 REVERT JUMPDEST DUP4 MLOAD PUSH3 0x461BCD PUSH1 0xE5 SHL DUP2 MSTORE DUP1 DUP9 ADD DUP7 SWAP1 MSTORE PUSH1 0x1A PUSH1 0x24 DUP3 ADD MSTORE PUSH32 0x43757272656E637920616C726561647920737570706F72746564000000000000 PUSH1 0x44 DUP3 ADD MSTORE PUSH1 0x64 SWAP1 REVERT JUMPDEST POP SWAP1 CALLVALUE PUSH2 0x262 JUMPI PUSH1 0x20 SWAP1 PUSH2 0x14AD PUSH2 0x147E CALLDATASIZE PUSH2 0x1B38 JUMP JUMPDEST DUP6 SWAP5 SWAP2 SWAP5 MLOAD SWAP1 PUSH2 0x149D PUSH1 0xFF DUP3 MLOAD SWAP4 DUP6 DUP2 DUP2 DUP7 ADD SWAP7 PUSH2 0x1EB DUP2 DUP4 DUP11 PUSH2 0x1995 JUMP JUMPDEST DUP7 MLOAD SWAP4 DUP5 SWAP3 DUP4 SWAP3 MLOAD SWAP3 DUP4 SWAP2 PUSH2 0x1995 JUMP JUMPDEST DUP2 ADD PUSH1 0x1 DUP2 MSTORE SUB ADD SWAP1 KECCAK256 SWAP1 PUSH2 0x14FE PUSH1 0x2 DUP6 MLOAD SWAP4 PUSH2 0x14C9 DUP6 PUSH2 0x18B3 JUMP JUMPDEST DUP1 SLOAD DUP6 MSTORE PUSH1 0x1 DUP2 ADD SLOAD PUSH1 0x20 DUP7 ADD MSTORE ADD SLOAD PUSH1 0xFF DUP2 AND ISZERO ISZERO DUP7 DUP6 ADD DUP2 SWAP1 MSTORE PUSH1 0x8 SWAP2 SWAP1 SWAP2 SHR PUSH1 0x1 PUSH1 0x1 PUSH1 0xA0 SHL SUB AND PUSH1 0x60 DUP6 ADD MSTORE PUSH2 0x1D18 JUMP JUMPDEST PUSH8 0xDE0B6B3A7640000 SWAP3 DUP4 DUP2 MUL SWAP4 DUP2 DUP6 DIV EQ SWAP1 ISZERO OR ISZERO PUSH2 0x1527 JUMPI PUSH1 0x20 DUP5 PUSH2 0x5AE DUP6 DUP6 MLOAD SWAP1 PUSH2 0x1D77 JUMP JUMPDEST PUSH4 0x4E487B71 PUSH1 0xE0 SHL DUP2 MSTORE PUSH1 0x11 DUP6 MSTORE PUSH1 0x24 SWAP1 REVERT JUMPDEST POP SWAP2 CALLVALUE PUSH2 0x265 JUMPI PUSH2 0x154A CALLDATASIZE PUSH2 0x1A7C JUMP JUMPDEST SWAP4 SWAP1 SWAP4 CALLER DUP5 MSTORE PUSH1 0x20 SWAP3 PUSH1 0x2 DUP5 MSTORE PUSH1 0xFF DUP4 DUP7 KECCAK256 SLOAD AND DUP1 ISZERO PUSH2 0x1683 JUMPI JUMPDEST DUP1 ISZERO PUSH2 0x1670 JUMPI JUMPDEST ISZERO PUSH2 0x1636 JUMPI POP PUSH2 0x13CA DUP4 SWAP5 SWAP6 PUSH1 0x2 PUSH2 0x161B PUSH32 0x301886E6C7C3689607C20B38181FEBF7ED6A192D69F4FD79065FD0FC869323B6 SWAP7 DUP7 MLOAD PUSH2 0x15BA PUSH1 0xFF DUP7 MLOAD SWAP3 DUP5 DUP2 DUP2 DUP11 ADD SWAP6 PUSH2 0x1EB DUP2 DUP4 DUP10 PUSH2 0x1995 JUMP JUMPDEST PUSH2 0x15C2 PUSH2 0x1C98 JUMP JUMPDEST PUSH2 0x15CD DUP8 ISZERO ISZERO PUSH2 0x1C34 JUMP JUMPDEST DUP7 DUP9 MLOAD DUP4 DUP2 DUP9 MLOAD PUSH2 0x15DF DUP2 DUP4 DUP9 PUSH2 0x1995 JUMP JUMPDEST DUP2 ADD PUSH1 0x1 DUP2 MSTORE SUB ADD SWAP1 KECCAK256 SSTORE DUP8 MLOAD PUSH1 0x1 DUP7 MLOAD PUSH2 0x15FB DUP2 DUP5 DUP7 PUSH2 0x1995 JUMP JUMPDEST DUP3 ADD SWAP2 DUP2 DUP4 MSTORE DUP5 DUP2 TIMESTAMP SWAP5 SUB ADD SWAP1 KECCAK256 ADD SSTORE DUP8 MLOAD DUP1 SWAP4 DUP2 SWAP3 DUP8 MLOAD SWAP3 DUP4 SWAP2 PUSH2 0x1995 JUMP JUMPDEST DUP2 ADD PUSH1 0x1 DUP2 MSTORE SUB ADD SWAP1 KECCAK256 ADD PUSH1 0x1 PUSH1 0xFF NOT DUP3 SLOAD AND OR SWAP1 SSTORE PUSH2 0x1C78 JUMP JUMPDEST DUP3 MLOAD PUSH3 0x461BCD PUSH1 0xE5 SHL DUP2 MSTORE SWAP1 DUP2 ADD DUP5 SWAP1 MSTORE PUSH1 0x14 PUSH1 0x24 DUP3 ADD MSTORE PUSH20 0x2AB730BABA3437B934BD32B2103AB83230BA32B9 PUSH1 0x61 SHL PUSH1 0x44 DUP3 ADD MSTORE PUSH1 0x64 SWAP1 REVERT JUMPDEST POP DUP5 SLOAD PUSH1 0x1 PUSH1 0x1 PUSH1 0xA0 SHL SUB AND CALLER EQ PUSH2 0x156C JUMP JUMPDEST POP DUP3 MLOAD DUP7 MLOAD PUSH2 0x1695 DUP2 DUP4 DUP9 DUP12 ADD PUSH2 0x1995 JUMP JUMPDEST PUSH1 0x1 SWAP1 DUP3 ADD SWAP1 DUP2 MSTORE DUP2 SWAP1 SUB DUP6 ADD SWAP1 KECCAK256 PUSH1 0x2 ADD SLOAD PUSH1 0x8 SHR PUSH1 0x1 PUSH1 0x1 PUSH1 0xA0 SHL SUB AND CALLER EQ PUSH2 0x1565 JUMP JUMPDEST POP SWAP1 CALLVALUE PUSH2 0x262 JUMPI PUSH1 0x20 CALLDATASIZE PUSH1 0x3 NOT ADD SLT PUSH2 0x262 JUMPI DUP2 PUSH2 0x7B6 SWAP2 DUP5 CALLDATALOAD DUP2 MSTORE PUSH1 0x3 PUSH1 0x20 MSTORE KECCAK256 DUP3 MLOAD SWAP1 PUSH2 0x16E9 DUP3 PUSH2 0x1882 JUMP JUMPDEST DUP1 SLOAD DUP3 MSTORE PUSH1 0x1 DUP2 ADD SLOAD SWAP4 PUSH1 0x20 DUP4 ADD SWAP5 DUP6 MSTORE PUSH1 0x2 DUP3 ADD SLOAD SWAP6 DUP2 DUP5 ADD SWAP7 DUP8 MSTORE PUSH1 0xFF PUSH1 0x5 PUSH2 0x1728 PUSH2 0x1719 PUSH1 0x3 DUP8 ADD PUSH2 0x18EF JUMP JUMPDEST SWAP4 PUSH1 0x60 DUP9 ADD SWAP5 DUP6 MSTORE DUP7 ADD PUSH2 0x18EF JUMP JUMPDEST SWAP5 DUP6 PUSH1 0x80 DUP9 ADD MSTORE ADD SLOAD AND ISZERO ISZERO SWAP4 DUP5 PUSH1 0xA0 DUP3 ADD MSTORE MLOAD SWAP6 MLOAD SWAP7 MLOAD SWAP1 MLOAD SWAP2 MLOAD SWAP7 DUP8 SWAP7 DUP8 PUSH2 0x19DD JUMP JUMPDEST POP SWAP1 CALLVALUE PUSH2 0x262 JUMPI PUSH1 0x20 CALLDATASIZE PUSH1 0x3 NOT ADD SLT PUSH2 0x262 JUMPI DUP3 CALLDATALOAD SWAP1 PUSH1 0x1 PUSH1 0x1 PUSH1 0x40 SHL SUB DUP3 GT PUSH2 0x262 JUMPI POP PUSH1 0x20 PUSH2 0xA94 DUP2 SWAP5 PUSH2 0x1785 SWAP4 CALLDATASIZE SWAP2 ADD PUSH2 0x1A21 JUMP JUMPDEST DUP2 ADD PUSH1 0x7 DUP2 MSTORE SUB ADD SWAP1 KECCAK256 SLOAD SWAP1 MLOAD SWAP1 DUP2 MSTORE RETURN JUMPDEST POP SWAP1 CALLVALUE PUSH2 0x262 JUMPI PUSH2 0x17BF PUSH1 0x20 PUSH2 0x17AC CALLDATASIZE PUSH2 0x1A7C JUMP JUMPDEST SWAP6 DUP3 DUP7 MLOAD SWAP5 DUP4 DUP7 DUP1 SWAP6 MLOAD SWAP4 DUP5 SWAP3 ADD PUSH2 0x1995 JUMP JUMPDEST DUP3 ADD SWAP1 DUP2 MSTORE SUB ADD SWAP1 KECCAK256 SWAP1 DUP2 SLOAD DUP5 LT ISZERO PUSH2 0x262 JUMPI POP PUSH1 0x20 SWAP3 PUSH2 0x17DF SWAP2 PUSH2 0x1B20 JUMP JUMPDEST SWAP2 SWAP1 SLOAD SWAP1 MLOAD SWAP2 PUSH1 0x3 SHL SHR DUP2 MSTORE RETURN JUMPDEST POP SWAP1 CALLVALUE PUSH2 0x262 JUMPI PUSH1 0x20 CALLDATASIZE PUSH1 0x3 NOT ADD SLT PUSH2 0x262 JUMPI DUP2 PUSH2 0x7B6 SWAP2 DUP5 CALLDATALOAD DUP2 MSTORE PUSH1 0x3 PUSH1 0x20 MSTORE KECCAK256 SWAP2 DUP3 SLOAD SWAP3 PUSH1 0x1 DUP2 ADD SLOAD SWAP5 PUSH1 0x2 DUP3 ADD SLOAD PUSH1 0xFF PUSH1 0x5 PUSH2 0x1839 PUSH2 0x1831 PUSH1 0x3 DUP8 ADD PUSH2 0x18EF JUMP JUMPDEST SWAP5 DUP7 ADD PUSH2 0x18EF JUMP JUMPDEST SWAP5 ADD SLOAD AND SWAP4 MLOAD SWAP7 DUP8 SWAP7 DUP8 PUSH2 0x19DD JUMP JUMPDEST SWAP1 PUSH1 0x1 DUP3 DUP2 SHR SWAP3 AND DUP1 ISZERO PUSH2 0x1878 JUMPI JUMPDEST PUSH1 0x20 DUP4 LT EQ PUSH2 0x1862 JUMPI JUMP JUMPDEST PUSH4 0x4E487B71 PUSH1 0xE0 SHL PUSH1 0x0 MSTORE PUSH1 0x22 PUSH1 0x4 MSTORE PUSH1 0x24 PUSH1 0x0 REVERT JUMPDEST SWAP2 PUSH1 0x7F AND SWAP2 PUSH2 0x1857 JUMP JUMPDEST PUSH1 0xC0 DUP2 ADD SWAP1 DUP2 LT PUSH1 0x1 PUSH1 0x1 PUSH1 0x40 SHL SUB DUP3 GT OR PUSH2 0x189D JUMPI PUSH1 0x40 MSTORE JUMP JUMPDEST PUSH4 0x4E487B71 PUSH1 0xE0 SHL PUSH1 0x0 MSTORE PUSH1 0x41 PUSH1 0x4 MSTORE PUSH1 0x24 PUSH1 0x0 REVERT JUMPDEST PUSH1 0x80 DUP2 ADD SWAP1 DUP2 LT PUSH1 0x1 PUSH1 0x1 PUSH1 0x40 SHL SUB DUP3 GT OR PUSH2 0x189D JUMPI PUSH1 0x40 MSTORE JUMP JUMPDEST SWAP1 PUSH1 0x1F DUP1 NOT SWAP2 ADD AND DUP2 ADD SWAP1 DUP2 LT PUSH1 0x1 PUSH1 0x1 PUSH1 0x40 SHL SUB DUP3 GT OR PUSH2 0x189D JUMPI PUSH1 0x40 MSTORE JUMP JUMPDEST SWAP1 PUSH1 0x40 MLOAD SWAP2 DUP3 PUSH1 0x0 DUP3 SLOAD SWAP3 PUSH2 0x1903 DUP5 PUSH2 0x1848 JUMP JUMPDEST SWAP1 DUP2 DUP5 MSTORE PUSH1 0x1 SWAP5 DUP6 DUP2 AND SWAP1 DUP2 PUSH1 0x0 EQ PUSH2 0x1972 JUMPI POP PUSH1 0x1 EQ PUSH2 0x192F JUMPI JUMPDEST POP POP PUSH2 0x192D SWAP3 POP SUB DUP4 PUSH2 0x18CE JUMP JUMPDEST JUMP JUMPDEST SWAP1 SWAP4 SWAP2 POP PUSH1 0x0 MSTORE PUSH1 0x20 SWAP1 DUP2 PUSH1 0x0 KECCAK256 SWAP4 PUSH1 0x0 SWAP2 JUMPDEST DUP2 DUP4 LT PUSH2 0x195A JUMPI POP POP PUSH2 0x192D SWAP4 POP DUP3 ADD ADD CODESIZE DUP1 PUSH2 0x191F JUMP JUMPDEST DUP6 SLOAD DUP9 DUP5 ADD DUP6 ADD MSTORE SWAP5 DUP6 ADD SWAP5 DUP8 SWAP5 POP SWAP2 DUP4 ADD SWAP2 PUSH2 0x1942 JUMP JUMPDEST SWAP2 POP POP PUSH2 0x192D SWAP5 POP PUSH1 0x20 SWAP3 POP PUSH1 0xFF NOT AND DUP3 DUP5 ADD MSTORE ISZERO ISZERO PUSH1 0x5 SHL DUP3 ADD ADD CODESIZE DUP1 PUSH2 0x191F JUMP JUMPDEST PUSH1 0x0 JUMPDEST DUP4 DUP2 LT PUSH2 0x19A8 JUMPI POP POP PUSH1 0x0 SWAP2 ADD MSTORE JUMP JUMPDEST DUP2 DUP2 ADD MLOAD DUP4 DUP3 ADD MSTORE PUSH1 0x20 ADD PUSH2 0x1998 JUMP JUMPDEST SWAP1 PUSH1 0x20 SWAP2 PUSH2 0x19D1 DUP2 MLOAD DUP1 SWAP3 DUP2 DUP6 MSTORE DUP6 DUP1 DUP7 ADD SWAP2 ADD PUSH2 0x1995 JUMP JUMPDEST PUSH1 0x1F ADD PUSH1 0x1F NOT AND ADD ADD SWAP1 JUMP JUMPDEST SWAP5 SWAP2 SWAP4 PUSH2 0x1A19 SWAP4 PUSH1 0xA0 SWAP6 PUSH2 0x1A0B SWAP4 SWAP10 SWAP9 SWAP10 DUP9 MSTORE PUSH1 0x20 DUP9 ADD MSTORE PUSH1 0x40 DUP8 ADD MSTORE PUSH1 0xC0 PUSH1 0x60 DUP8 ADD MSTORE PUSH1 0xC0 DUP7 ADD SWAP1 PUSH2 0x19B8 JUMP JUMPDEST SWAP1 DUP5 DUP3 SUB PUSH1 0x80 DUP7 ADD MSTORE PUSH2 0x19B8 JUMP JUMPDEST SWAP4 ISZERO ISZERO SWAP2 ADD MSTORE JUMP JUMPDEST DUP2 PUSH1 0x1F DUP3 ADD SLT ISZERO PUSH2 0x1A77 JUMPI DUP1 CALLDATALOAD SWAP1 PUSH1 0x1 PUSH1 0x1 PUSH1 0x40 SHL SUB DUP3 GT PUSH2 0x189D JUMPI PUSH1 0x40 MLOAD SWAP3 PUSH2 0x1A55 PUSH1 0x1F DUP5 ADD PUSH1 0x1F NOT AND PUSH1 0x20 ADD DUP6 PUSH2 0x18CE JUMP JUMPDEST DUP3 DUP5 MSTORE PUSH1 0x20 DUP4 DUP4 ADD ADD GT PUSH2 0x1A77 JUMPI DUP2 PUSH1 0x0 SWAP3 PUSH1 0x20 DUP1 SWAP4 ADD DUP4 DUP7 ADD CALLDATACOPY DUP4 ADD ADD MSTORE SWAP1 JUMP JUMPDEST PUSH1 0x0 DUP1 REVERT JUMPDEST PUSH1 0x40 PUSH1 0x3 NOT DUP3 ADD SLT PUSH2 0x1A77 JUMPI PUSH1 0x4 CALLDATALOAD SWAP1 PUSH1 0x1 PUSH1 0x1 PUSH1 0x40 SHL SUB DUP3 GT PUSH2 0x1A77 JUMPI PUSH2 0x1AA6 SWAP2 PUSH1 0x4 ADD PUSH2 0x1A21 JUMP JUMPDEST SWAP1 PUSH1 0x24 CALLDATALOAD SWAP1 JUMP JUMPDEST PUSH1 0x20 PUSH2 0x1AC6 SWAP2 DUP2 PUSH1 0x40 MLOAD SWAP4 DUP3 DUP6 DUP1 SWAP5 MLOAD SWAP4 DUP5 SWAP3 ADD PUSH2 0x1995 JUMP JUMPDEST DUP2 ADD PUSH1 0x1 DUP2 MSTORE SUB ADD SWAP1 KECCAK256 SWAP1 JUMP JUMPDEST PUSH1 0x8 SLOAD DUP2 LT ISZERO PUSH2 0x1B0A JUMPI PUSH1 0x8 PUSH1 0x0 MSTORE PUSH32 0xF3F7A9FE364FAAB93B216DA50A3214154F22A0A2B415B23A84C8169E8B636EE3 ADD SWAP1 PUSH1 0x0 SWAP1 JUMP JUMPDEST PUSH4 0x4E487B71 PUSH1 0xE0 SHL PUSH1 0x0 MSTORE PUSH1 0x32 PUSH1 0x4 MSTORE PUSH1 0x24 PUSH1 0x0 REVERT JUMPDEST DUP1 SLOAD DUP3 LT ISZERO PUSH2 0x1B0A JUMPI PUSH1 0x0 MSTORE PUSH1 0x20 PUSH1 0x0 KECCAK256 ADD SWAP1 PUSH1 0x0 SWAP1 JUMP JUMPDEST SWAP1 PUSH1 0x40 PUSH1 0x3 NOT DUP4 ADD SLT PUSH2 0x1A77 JUMPI PUSH1 0x4 CALLDATALOAD SWAP2 PUSH1 0x24 CALLDATALOAD SWAP1 PUSH1 0x1 PUSH1 0x1 PUSH1 0x40 SHL SUB DUP3 GT PUSH2 0x1A77 JUMPI PUSH2 0x1B67 SWAP2 PUSH1 0x4 ADD PUSH2 0x1A21 JUMP JUMPDEST SWAP1 JUMP JUMPDEST PUSH1 0x1 PUSH1 0x1 PUSH1 0x40 SHL SUB DUP2 GT PUSH2 0x189D JUMPI PUSH1 0x5 SHL PUSH1 0x20 ADD SWAP1 JUMP JUMPDEST PUSH1 0x4 CALLDATALOAD SWAP1 PUSH1 0x1 PUSH1 0x1 PUSH1 0xA0 SHL SUB DUP3 AND DUP3 SUB PUSH2 0x1A77 JUMPI JUMP JUMPDEST PUSH1 0x0 SLOAD PUSH1 0x1 PUSH1 0x1 PUSH1 0xA0 SHL SUB AND CALLER SUB PUSH2 0x1BAB JUMPI JUMP JUMPDEST PUSH1 0x64 PUSH1 0x40 MLOAD PUSH3 0x461BCD PUSH1 0xE5 SHL DUP2 MSTORE PUSH1 0x20 PUSH1 0x4 DUP3 ADD MSTORE PUSH1 0x20 PUSH1 0x24 DUP3 ADD MSTORE PUSH32 0x4F776E61626C653A2063616C6C6572206973206E6F7420746865206F776E6572 PUSH1 0x44 DUP3 ADD MSTORE REVERT JUMPDEST ISZERO PUSH2 0x1BF6 JUMPI JUMP JUMPDEST PUSH1 0x40 MLOAD PUSH3 0x461BCD PUSH1 0xE5 SHL DUP2 MSTORE PUSH1 0x20 PUSH1 0x4 DUP3 ADD MSTORE PUSH1 0x16 PUSH1 0x24 DUP3 ADD MSTORE PUSH22 0x10DD5C9C995B98DE481B9BDD081CDD5C1C1BDC9D1959 PUSH1 0x52 SHL PUSH1 0x44 DUP3 ADD MSTORE PUSH1 0x64 SWAP1 REVERT JUMPDEST ISZERO PUSH2 0x1C3B JUMPI JUMP JUMPDEST PUSH1 0x40 MLOAD PUSH3 0x461BCD PUSH1 0xE5 SHL DUP2 MSTORE PUSH1 0x20 PUSH1 0x4 DUP3 ADD MSTORE PUSH1 0x15 PUSH1 0x24 DUP3 ADD MSTORE PUSH21 0x496E76616C69642065786368616E67652072617465 PUSH1 0x58 SHL PUSH1 0x44 DUP3 ADD MSTORE PUSH1 0x64 SWAP1 REVERT JUMPDEST PUSH2 0x1C90 SWAP1 PUSH1 0x20 PUSH1 0x40 MLOAD SWAP3 DUP3 DUP5 DUP1 SWAP5 MLOAD SWAP4 DUP5 SWAP3 ADD PUSH2 0x1995 JUMP JUMPDEST DUP2 ADD SUB SWAP1 KECCAK256 SWAP1 JUMP JUMPDEST PUSH1 0xFF PUSH1 0x0 SLOAD PUSH1 0xA0 SHR AND PUSH2 0x1CA7 JUMPI JUMP JUMPDEST PUSH1 0x40 MLOAD PUSH3 0x461BCD PUSH1 0xE5 SHL DUP2 MSTORE PUSH1 0x20 PUSH1 0x4 DUP3 ADD MSTORE PUSH1 0x10 PUSH1 0x24 DUP3 ADD MSTORE PUSH16 0x14185D5CD8589B194E881C185D5CD959 PUSH1 0x82 SHL PUSH1 0x44 DUP3 ADD MSTORE PUSH1 0x64 SWAP1 REVERT JUMPDEST PUSH1 0x0 NOT DUP2 EQ PUSH2 0x1CEE JUMPI PUSH1 0x1 ADD SWAP1 JUMP JUMPDEST PUSH4 0x4E487B71 PUSH1 0xE0 SHL PUSH1 0x0 MSTORE PUSH1 0x11 PUSH1 0x4 MSTORE PUSH1 0x24 PUSH1 0x0 REVERT JUMPDEST DUP1 MLOAD DUP3 LT ISZERO PUSH2 0x1B0A JUMPI PUSH1 0x20 SWAP2 PUSH1 0x5 SHL ADD ADD SWAP1 JUMP JUMPDEST ISZERO PUSH2 0x1D1F JUMPI JUMP JUMPDEST PUSH1 0x40 MLOAD PUSH3 0x461BCD PUSH1 0xE5 SHL DUP2 MSTORE PUSH1 0x20 PUSH1 0x4 DUP3 ADD MSTORE PUSH1 0x18 PUSH1 0x24 DUP3 ADD MSTORE PUSH32 0x45786368616E67652072617465206E6F74206163746976650000000000000000 PUSH1 0x44 DUP3 ADD MSTORE PUSH1 0x64 SWAP1 REVERT JUMPDEST DUP2 DUP2 MUL SWAP3 SWAP2 DUP2 ISZERO SWAP2 DUP5 DIV EQ OR ISZERO PUSH2 0x1CEE JUMPI JUMP JUMPDEST DUP2 ISZERO PUSH2 0x1D81 JUMPI DIV SWAP1 JUMP JUMPDEST PUSH4 0x4E487B71 PUSH1 0xE0 SHL PUSH1 0x0 MSTORE PUSH1 0x12 PUSH1 0x4 MSTORE PUSH1 0x24 PUSH1 0x0 REVERT JUMPDEST SWAP2 SWAP1 SWAP2 DUP3 MLOAD PUSH1 0x1 PUSH1 0x1 PUSH1 0x40 SHL SUB DUP2 GT PUSH2 0x189D JUMPI PUSH2 0x1DB4 DUP3 SLOAD PUSH2 0x1848 JUMP JUMPDEST PUSH1 0x1F DUP2 GT PUSH2 0x1E5E JUMPI JUMPDEST POP PUSH1 0x20 DUP1 PUSH1 0x1F DUP4 GT PUSH1 0x1 EQ PUSH2 0x1DFA JUMPI POP DUP2 SWAP3 SWAP4 SWAP5 PUSH1 0x0 SWAP3 PUSH2 0x1DEF JUMPI JUMPDEST POP POP DUP2 PUSH1 0x1 SHL SWAP2 PUSH1 0x0 NOT SWAP1 PUSH1 0x3 SHL SHR NOT AND OR SWAP1 SSTORE JUMP JUMPDEST ADD MLOAD SWAP1 POP CODESIZE DUP1 PUSH2 0x1DD9 JUMP JUMPDEST SWAP1 PUSH1 0x1F NOT DUP4 AND SWAP6 DUP5 PUSH1 0x0 MSTORE DUP3 PUSH1 0x0 KECCAK256 SWAP3 PUSH1 0x0 SWAP1 JUMPDEST DUP9 DUP3 LT PUSH2 0x1E46 JUMPI POP POP DUP4 PUSH1 0x1 SWAP6 SWAP7 SWAP8 LT PUSH2 0x1E2D JUMPI JUMPDEST POP POP POP DUP2 SHL ADD SWAP1 SSTORE JUMP JUMPDEST ADD MLOAD PUSH1 0x0 NOT PUSH1 0xF8 DUP5 PUSH1 0x3 SHL AND SHR NOT AND SWAP1 SSTORE CODESIZE DUP1 DUP1 PUSH2 0x1E23 JUMP JUMPDEST DUP1 PUSH1 0x1 DUP6 SWAP7 DUP3 SWAP5 SWAP7 DUP7 ADD MLOAD DUP2 SSTORE ADD SWAP6 ADD SWAP4 ADD SWAP1 PUSH2 0x1E0E JUMP JUMPDEST PUSH1 0x0 DUP4 DUP2 MSTORE PUSH1 0x20 DUP2 KECCAK256 PUSH1 0x1F DUP5 ADD PUSH1 0x5 SHR DUP2 ADD SWAP3 PUSH1 0x20 DUP6 LT PUSH2 0x1E9C JUMPI JUMPDEST PUSH1 0x1F ADD PUSH1 0x5 SHR ADD SWAP2 JUMPDEST DUP3 DUP2 LT PUSH2 0x1E91 JUMPI POP POP PUSH2 0x1DBD JUMP JUMPDEST DUP2 DUP2 SSTORE PUSH1 0x1 ADD PUSH2 0x1E83 JUMP JUMPDEST SWAP1 SWAP3 POP DUP3 SWAP1 PUSH2 0x1E7A JUMP JUMPDEST PUSH1 0x0 MSTORE PUSH1 0x20 PUSH1 0x3 DUP2 MSTORE PUSH1 0x40 DUP1 PUSH1 0x0 KECCAK256 SWAP3 DUP2 MLOAD PUSH2 0x1EC1 DUP2 PUSH2 0x1882 JUMP JUMPDEST DUP5 SLOAD DUP2 MSTORE PUSH1 0xA0 PUSH1 0xFF PUSH1 0x5 PUSH1 0x1 DUP9 ADD SLOAD SWAP8 DUP8 DUP6 ADD SWAP9 DUP10 MSTORE PUSH1 0x2 DUP2 ADD SLOAD DUP8 DUP7 ADD MSTORE PUSH2 0x1EEC PUSH1 0x3 DUP3 ADD PUSH2 0x18EF JUMP JUMPDEST PUSH1 0x60 DUP7 ADD MSTORE PUSH2 0x1EFD PUSH1 0x4 DUP3 ADD PUSH2 0x18EF JUMP JUMPDEST PUSH1 0x80 DUP7 ADD MSTORE ADD SLOAD AND ISZERO ISZERO SWAP2 ADD MSTORE DUP4 MLOAD ISZERO PUSH2 0x1FF1 JUMPI DUP1 MLOAD SWAP1 DUP4 DUP2 ADD SWAP2 DUP3 KECCAK256 DUP4 MLOAD SWAP1 DUP5 DUP3 ADD SWAP2 DUP1 DUP4 LT PUSH1 0x1 PUSH1 0x1 PUSH1 0x40 SHL SUB DUP5 GT OR PUSH2 0x189D JUMPI DUP7 PUSH3 0x105151 PUSH1 0xEA SHL SWAP2 PUSH32 0x4DAB77A640748DE8588DE6834D814A344372B205265984B969F3E97060955BFA SWAP5 DUP9 MSTORE PUSH1 0x3 DUP2 MSTORE ADD MSTORE EQ PUSH2 0x1FE9 JUMPI DUP3 PUSH1 0x2 PUSH2 0x1F95 DUP7 PUSH8 0xDE0B6B3A7640000 SWAP9 SWAP6 PUSH2 0x1FDC SWAP6 PUSH2 0x1FE5 SWAP10 SWAP9 MLOAD SWAP4 DUP5 SWAP3 DUP4 SWAP3 MLOAD SWAP3 DUP4 SWAP2 PUSH2 0x1995 JUMP JUMPDEST DUP2 ADD PUSH1 0x1 DUP2 MSTORE SUB ADD SWAP1 KECCAK256 DUP3 MLOAD SWAP6 PUSH2 0x1FAB DUP8 PUSH2 0x18B3 JUMP JUMPDEST DUP2 SLOAD DUP8 MSTORE PUSH1 0x1 DUP3 ADD SLOAD SWAP1 DUP8 ADD MSTORE ADD SLOAD PUSH1 0xFF DUP2 AND ISZERO ISZERO SWAP2 DUP6 ADD DUP3 SWAP1 MSTORE PUSH1 0x8 SHR PUSH1 0x1 PUSH1 0x1 PUSH1 0xA0 SHL SUB AND PUSH1 0x60 DUP6 ADD MSTORE PUSH2 0x1D18 JUMP JUMPDEST MLOAD SWAP1 MLOAD SWAP1 PUSH2 0x1D64 JUMP JUMPDEST DIV SWAP1 JUMP JUMPDEST POP POP POP POP MLOAD SWAP1 JUMP JUMPDEST DUP2 MLOAD PUSH3 0x461BCD PUSH1 0xE5 SHL DUP2 MSTORE PUSH1 0x4 DUP2 ADD DUP5 SWAP1 MSTORE PUSH1 0x16 PUSH1 0x24 DUP3 ADD MSTORE PUSH22 0x141C9BDC195C9D1E481C1C9A58D9481B9BDD081CD95D PUSH1 0x52 SHL PUSH1 0x44 DUP3 ADD MSTORE PUSH1 0x64 SWAP1 REVERT JUMPDEST PUSH1 0x40 DUP1 MLOAD SWAP3 DUP3 MLOAD SWAP2 PUSH1 0x20 DUP1 DUP6 ADD SWAP4 PUSH2 0x2047 DUP2 DUP9 DUP8 PUSH2 0x1995 JUMP JUMPDEST DUP7 ADD SWAP6 DUP2 DUP2 PUSH1 0x4 SWAP9 DUP10 DUP2 MSTORE SUB ADD SWAP1 KECCAK256 SWAP2 DUP1 MLOAD DUP1 DUP2 DUP5 DUP7 SLOAD SWAP3 DUP4 DUP2 MSTORE ADD PUSH1 0x0 SWAP7 DUP8 MSTORE DUP6 DUP8 KECCAK256 SWAP3 DUP8 JUMPDEST DUP8 DUP3 DUP3 LT PUSH2 0x21A3 JUMPI POP POP POP PUSH2 0x2085 SWAP3 POP SUB DUP3 PUSH2 0x18CE JUMP JUMPDEST DUP1 MLOAD ISZERO PUSH2 0x2199 JUMPI DUP4 SWAP5 DUP5 SWAP7 DUP6 JUMPDEST DUP4 MLOAD DUP2 LT ISZERO PUSH2 0x214F JUMPI DUP6 DUP6 PUSH1 0xA0 PUSH1 0xFF PUSH1 0x5 DUP16 PUSH2 0x20F9 DUP14 SWAP2 PUSH2 0x20B3 DUP10 DUP14 PUSH2 0x1D04 JUMP JUMPDEST MLOAD DUP4 MSTORE PUSH2 0x20ED DUP8 PUSH1 0x3 SWAP5 DUP6 DUP12 MSTORE KECCAK256 SWAP4 DUP9 MLOAD SWAP9 PUSH2 0x20CE DUP11 PUSH2 0x1882 JUMP JUMPDEST DUP6 SLOAD DUP11 MSTORE PUSH1 0x1 DUP7 ADD SLOAD SWAP11 DUP11 ADD SWAP11 DUP12 MSTORE PUSH1 0x2 DUP7 ADD SLOAD SWAP1 DUP11 ADD MSTORE DUP5 ADD PUSH2 0x18EF JUMP JUMPDEST PUSH1 0x60 DUP9 ADD MSTORE DUP3 ADD PUSH2 0x18EF JUMP JUMPDEST PUSH1 0x80 DUP7 ADD MSTORE ADD SLOAD AND ISZERO ISZERO SWAP2 ADD MSTORE MLOAD DUP1 PUSH2 0x211C JUMPI JUMPDEST POP PUSH2 0x2117 SWAP1 PUSH2 0x1CDF JUMP JUMPDEST PUSH2 0x2092 JUMP JUMPDEST DUP9 SWAP2 SWAP10 SWAP9 ADD DUP1 SWAP2 GT PUSH2 0x213C JUMPI PUSH2 0x2135 PUSH2 0x2117 SWAP2 SWAP9 PUSH2 0x1CDF JUMP JUMPDEST SWAP9 SWAP1 PUSH2 0x210D JUMP JUMPDEST PUSH4 0x4E487B71 PUSH1 0xE0 SHL DUP8 MSTORE PUSH1 0x11 DUP12 MSTORE PUSH1 0x24 DUP8 REVERT JUMPDEST POP SWAP5 POP SWAP8 POP POP SWAP5 SWAP1 SWAP3 DUP5 PUSH2 0x2166 JUMPI JUMPDEST POP POP POP POP POP POP JUMP JUMPDEST PUSH2 0x2183 SWAP5 PUSH2 0x2173 SWAP2 PUSH2 0x1D77 JUMP JUMPDEST SWAP5 MLOAD SWAP4 DUP5 SWAP3 DUP4 SWAP3 MLOAD SWAP3 DUP4 SWAP2 PUSH2 0x1995 JUMP JUMPDEST DUP2 ADD PUSH1 0x5 DUP2 MSTORE SUB ADD SWAP1 KECCAK256 SSTORE CODESIZE DUP1 DUP1 DUP1 DUP1 DUP1 PUSH2 0x215E JUMP JUMPDEST POP POP POP POP SWAP3 POP POP POP JUMP JUMPDEST DUP6 SLOAD DUP5 MSTORE PUSH1 0x1 SWAP6 DUP7 ADD SWAP6 DUP8 SWAP6 POP SWAP4 ADD SWAP3 ADD PUSH2 0x206E JUMP INVALID LOG2 PUSH5 0x6970667358 0x22 SLT KECCAK256 0xCF 0xC6 DUP5 PUSH22 0xCD7F335C43A432014A6E06C3397F1D67B69CED3F685C GAS 0xED SIGNEXTEND 0xB9 0x2D CALLER PUSH5 0x736F6C6343 STOP ADDMOD SGT STOP CALLER RETURN 0xF7 0xA9 INVALID CALLDATASIZE 0x4F 0xAA 0xB9 EXTCODESIZE 0x21 PUSH14 0xA50A3214154F22A0A2B415B23A84 0xC8 AND SWAP15 DUP12 PUSH4 0x6EE33018 DUP7 0xE6 0xC7 0xC3 PUSH9 0x9607C20B38181FEBF7 0xED PUSH11 0x192D69F4FD79065FD0FC86 SWAP4 0x23 0xB6 "},"methodIdentifiers":{"MAX_STALENESS()":"caca95a4","PRECISION()":"aaf5eb68","addAuthorizedUpdater(address,string)":"9ac2478b","addSupportedCurrency(string,uint256)":"1c749203","authorizedUpdaters(address)":"8ff29cfe","averageZonePrices(string)":"22305ff9","batchUpdateExchangeRates(string[],uint256[])":"24d434af","convertFromAED(uint256,string)":"c21888fd","convertToAED(uint256,string)":"18b3163d","currencySupported(string)":"69a7e2db","exchangeRates(string)":"43225acd","getAverageZonePrice(string)":"688b2371","getExchangeRate(string)":"f4b54314","getOracleHealth()":"44f428fa","getPropertyPrice(uint256)":"0789752c","getPropertyValueInCurrency(uint256,string)":"b1586e6c","getSupportedCurrencies()":"2ce75863","isPriceFresh(string)":"dd671f50","marketCapitalization(string)":"85135e0a","owner()":"8da5cb5b","pause()":"8456cb59","paused()":"5c975abb","propertyPrices(uint256)":"02024fd8","removeAuthorizedUpdater(address)":"603cda09","renounceOwnership()":"715018a6","supportedCurrencies(uint256)":"97bf7935","tradingVolume24h(string)":"0592ca45","transferOwnership(address)":"f2fde38b","unpause()":"3f4ba83a","updateExchangeRate(string,uint256)":"14c360a2","updateMarketCap(string,uint256)":"a8af6673","updatePropertyPrice(uint256,uint256,uint256,string,string,bool)":"87326b36","updateTradingVolume(string,uint256)":"f3ccf996","zoneProperties(string,uint256)":"05657c13"}}}}}