{"contracts/UAE/UAEPropertyToken.sol":{"UAEPropertyToken":{"abi":[{"inputs":[{"internalType":"string","name":"_uri","type":"string"},{"internalType":"address","name":"_reraCompliance","type":"address"},{"internalType":"address","name":"_dldRegistry","type":"address"}],"stateMutability":"nonpayable","type":"constructor"},{"anonymous":false,"inputs":[{"indexed":true,"internalType":"address","name":"account","type":"address"},{"indexed":true,"internalType":"address","name":"operator","type":"address"},{"indexed":false,"internalType":"bool","name":"approved","type":"bool"}],"name":"ApprovalForAll","type":"event"},{"anonymous":false,"inputs":[{"indexed":true,"internalType":"uint256","name":"tokenId","type":"uint256"},{"indexed":false,"internalType":"string","name":"checkType","type":"string"},{"indexed":false,"internalType":"bool","name":"passed","type":"bool"}],"name":"ComplianceCheckUpdated","type":"event"},{"anonymous":false,"inputs":[{"indexed":true,"internalType":"uint256","name":"tokenId","type":"uint256"},{"indexed":false,"internalType":"bool","name":"registered","type":"bool"},{"indexed":false,"internalType":"string","name":"titleDeedNumber","type":"string"}],"name":"DLDRegistrationUpdated","type":"event"},{"anonymous":false,"inputs":[{"indexed":true,"internalType":"uint256","name":"tokenId","type":"uint256"},{"indexed":true,"internalType":"address","name":"investor","type":"address"},{"indexed":false,"internalType":"uint256","name":"amount","type":"uint256"}],"name":"DividendClaimed","type":"event"},{"anonymous":false,"inputs":[{"indexed":true,"internalType":"uint256","name":"tokenId","type":"uint256"},{"indexed":false,"internalType":"uint256","name":"totalAmount","type":"uint256"},{"indexed":false,"internalType":"uint256","name":"perTokenAmount","type":"uint256"}],"name":"DividendDistributed","type":"event"},{"anonymous":false,"inputs":[{"indexed":true,"internalType":"address","name":"previousOwner","type":"address"},{"indexed":true,"internalType":"address","name":"newOwner","type":"address"}],"name":"OwnershipTransferred","type":"event"},{"anonymous":false,"inputs":[{"indexed":false,"internalType":"address","name":"account","type":"address"}],"name":"Paused","type":"event"},{"anonymous":false,"inputs":[{"indexed":true,"internalType":"uint256","name":"tokenId","type":"uint256"},{"indexed":false,"internalType":"uint256","name":"totalRaised","type":"uint256"},{"indexed":false,"internalType":"uint256","name":"totalInvestors","type":"uint256"}],"name":"PropertyFunded","type":"event"},{"anonymous":false,"inputs":[{"indexed":true,"internalType":"uint256","name":"tokenId","type":"uint256"},{"indexed":true,"internalType":"address","name":"investor","type":"address"},{"indexed":false,"internalType":"uint256","name":"amount","type":"uint256"},{"indexed":false,"internalType":"uint256","name":"tokens","type":"uint256"},{"indexed":false,"internalType":"string","name":"currency","type":"string"}],"name":"PropertyInvestment","type":"event"},{"anonymous":false,"inputs":[{"indexed":true,"internalType":"uint256","name":"tokenId","type":"uint256"},{"indexed":false,"internalType":"string","name":"reraNumber","type":"string"},{"indexed":false,"internalType":"string","name":"dldNumber","type":"string"},{"indexed":true,"internalType":"address","name":"developer","type":"address"},{"indexed":false,"internalType":"uint256","name":"totalValue","type":"uint256"},{"indexed":false,"internalType":"uint256","name":"totalSupply","type":"uint256"}],"name":"PropertyListed","type":"event"},{"anonymous":false,"inputs":[{"indexed":true,"internalType":"uint256","name":"tokenId","type":"uint256"},{"indexed":false,"internalType":"bool","name":"approved","type":"bool"},{"indexed":false,"internalType":"string","name":"registrationNumber","type":"string"}],"name":"RERAApprovalUpdated","type":"event"},{"anonymous":false,"inputs":[{"indexed":true,"internalType":"address","name":"operator","type":"address"},{"indexed":true,"internalType":"address","name":"from","type":"address"},{"indexed":true,"internalType":"address","name":"to","type":"address"},{"indexed":false,"internalType":"uint256[]","name":"ids","type":"uint256[]"},{"indexed":false,"internalType":"uint256[]","name":"values","type":"uint256[]"}],"name":"TransferBatch","type":"event"},{"anonymous":false,"inputs":[{"indexed":true,"internalType":"address","name":"operator","type":"address"},{"indexed":true,"internalType":"address","name":"from","type":"address"},{"indexed":true,"internalType":"address","name":"to","type":"address"},{"indexed":false,"internalType":"uint256","name":"id","type":"uint256"},{"indexed":false,"internalType":"uint256","name":"value","type":"uint256"}],"name":"TransferSingle","type":"event"},{"anonymous":false,"inputs":[{"indexed":false,"internalType":"string","name":"value","type":"string"},{"indexed":true,"internalType":"uint256","name":"id","type":"uint256"}],"name":"URI","type":"event"},{"anonymous":false,"inputs":[{"indexed":false,"internalType":"address","name":"account","type":"address"}],"name":"Unpaused","type":"event"},{"inputs":[],"name":"JURISDICTION","outputs":[{"internalType":"string","name":"","type":"string"}],"stateMutability":"view","type":"function"},{"inputs":[],"name":"REGULATORY_AUTHORITY","outputs":[{"internalType":"string","name":"","type":"string"}],"stateMutability":"view","type":"function"},{"inputs":[{"internalType":"string","name":"currency","type":"string"},{"internalType":"uint256","name":"initialRate","type":"uint256"}],"name":"addSupportedCurrency","outputs":[],"stateMutability":"nonpayable","type":"function"},{"inputs":[{"internalType":"address","name":"","type":"address"}],"name":"amlCleared","outputs":[{"internalType":"bool","name":"","type":"bool"}],"stateMutability":"view","type":"function"},{"inputs":[{"internalType":"address","name":"user","type":"address"},{"internalType":"bool","name":"approved","type":"bool"}],"name":"approveKYC","outputs":[],"stateMutability":"nonpayable","type":"function"},{"inputs":[{"internalType":"uint256","name":"tokenId","type":"uint256"},{"internalType":"bool","name":"approved","type":"bool"}],"name":"approvePropertyRERA","outputs":[],"stateMutability":"nonpayable","type":"function"},{"inputs":[{"internalType":"address","name":"account","type":"address"},{"internalType":"uint256","name":"id","type":"uint256"}],"name":"balanceOf","outputs":[{"internalType":"uint256","name":"","type":"uint256"}],"stateMutability":"view","type":"function"},{"inputs":[{"internalType":"address[]","name":"accounts","type":"address[]"},{"internalType":"uint256[]","name":"ids","type":"uint256[]"}],"name":"balanceOfBatch","outputs":[{"internalType":"uint256[]","name":"","type":"uint256[]"}],"stateMutability":"view","type":"function"},{"inputs":[{"internalType":"uint256","name":"tokenId","type":"uint256"}],"name":"claimDividends","outputs":[],"stateMutability":"nonpayable","type":"function"},{"inputs":[{"internalType":"address","name":"user","type":"address"},{"internalType":"bool","name":"cleared","type":"bool"}],"name":"clearAML","outputs":[],"stateMutability":"nonpayable","type":"function"},{"inputs":[{"internalType":"string","name":"currency","type":"string"},{"internalType":"uint256","name":"amount","type":"uint256"}],"name":"convertToAED","outputs":[{"internalType":"uint256","name":"","type":"uint256"}],"stateMutability":"view","type":"function"},{"inputs":[{"internalType":"uint256","name":"tokenId","type":"uint256"},{"internalType":"uint256","name":"totalDividend","type":"uint256"}],"name":"distributeDividends","outputs":[],"stateMutability":"nonpayable","type":"function"},{"inputs":[{"internalType":"uint256","name":"","type":"uint256"}],"name":"dividendPerToken","outputs":[{"internalType":"uint256","name":"","type":"uint256"}],"stateMutability":"view","type":"function"},{"inputs":[],"name":"dldRegistry","outputs":[{"internalType":"address","name":"","type":"address"}],"stateMutability":"view","type":"function"},{"inputs":[{"internalType":"string","name":"","type":"string"}],"name":"dldToTokenId","outputs":[{"internalType":"uint256","name":"","type":"uint256"}],"stateMutability":"view","type":"function"},{"inputs":[{"internalType":"string","name":"","type":"string"}],"name":"exchangeRates","outputs":[{"internalType":"uint256","name":"","type":"uint256"}],"stateMutability":"view","type":"function"},{"inputs":[{"internalType":"address","name":"","type":"address"}],"name":"gccResidents","outputs":[{"internalType":"bool","name":"","type":"bool"}],"stateMutability":"view","type":"function"},{"inputs":[{"internalType":"uint256","name":"tokenId","type":"uint256"}],"name":"getPropertyDetails","outputs":[{"internalType":"string","name":"reraNumber","type":"string"},{"internalType":"string","name":"dldNumber","type":"string"},{"internalType":"string","name":"propertyAddress","type":"string"},{"internalType":"string","name":"zone","type":"string"},{"internalType":"string","name":"emirate","type":"string"},{"internalType":"uint256","name":"totalValue","type":"uint256"},{"internalType":"uint256","name":"totalSupply","type":"uint256"},{"internalType":"uint256","name":"pricePerToken","type":"uint256"},{"internalType":"enum UAEPropertyToken.PropertyType","name":"propertyType","type":"uint8"},{"internalType":"enum UAEPropertyToken.PropertyStatus","name":"status","type":"uint8"},{"internalType":"address","name":"developer","type":"address"},{"internalType":"bool","name":"reraApproved","type":"bool"},{"internalType":"bool","name":"dldRegistered","type":"bool"}],"stateMutability":"view","type":"function"},{"inputs":[{"internalType":"address","name":"user","type":"address"},{"internalType":"uint256","name":"tokenId","type":"uint256"}],"name":"getUserInvestmentSummary","outputs":[{"internalType":"uint256","name":"tokensOwned","type":"uint256"},{"internalType":"uint256","name":"aedInvested","type":"uint256"},{"internalType":"uint256","name":"currentValue","type":"uint256"},{"internalType":"uint256","name":"unclaimedDividends","type":"uint256"}],"stateMutability":"view","type":"function"},{"inputs":[{"internalType":"uint256","name":"tokenId","type":"uint256"},{"internalType":"uint256","name":"tokenAmount","type":"uint256"},{"internalType":"string","name":"currency","type":"string"},{"internalType":"uint256","name":"currencyAmount","type":"uint256"}],"name":"invest","outputs":[],"stateMutability":"nonpayable","type":"function"},{"inputs":[{"internalType":"address","name":"account","type":"address"},{"internalType":"address","name":"operator","type":"address"}],"name":"isApprovedForAll","outputs":[{"internalType":"bool","name":"","type":"bool"}],"stateMutability":"view","type":"function"},{"inputs":[{"internalType":"address","name":"","type":"address"}],"name":"kycApproved","outputs":[{"internalType":"bool","name":"","type":"bool"}],"stateMutability":"view","type":"function"},{"inputs":[{"internalType":"string","name":"reraNumber","type":"string"},{"internalType":"string","name":"dldNumber","type":"string"},{"internalType":"string","name":"propertyAddress","type":"string"},{"internalType":"string","name":"zone","type":"string"},{"internalType":"string","name":"emirate","type":"string"},{"internalType":"uint256","name":"totalValue","type":"uint256"},{"internalType":"uint256","name":"totalSupply","type":"uint256"},{"internalType":"enum UAEPropertyToken.PropertyType","name":"propertyType","type":"uint8"},{"internalType":"address","name":"developer","type":"address"},{"internalType":"uint256","name":"fundingDurationDays","type":"uint256"}],"name":"listProperty","outputs":[{"internalType":"uint256","name":"","type":"uint256"}],"stateMutability":"nonpayable","type":"function"},{"inputs":[],"name":"owner","outputs":[{"internalType":"address","name":"","type":"address"}],"stateMutability":"view","type":"function"},{"inputs":[],"name":"pause","outputs":[],"stateMutability":"nonpayable","type":"function"},{"inputs":[],"name":"paused","outputs":[{"internalType":"bool","name":"","type":"bool"}],"stateMutability":"view","type":"function"},{"inputs":[{"internalType":"uint256","name":"","type":"uint256"}],"name":"properties","outputs":[{"internalType":"uint256","name":"tokenId","type":"uint256"},{"internalType":"string","name":"reraRegistrationNumber","type":"string"},{"internalType":"string","name":"dldTitleDeedNumber","type":"string"},{"internalType":"string","name":"propertyAddress","type":"string"},{"internalType":"string","name":"zone","type":"string"},{"internalType":"string","name":"emirate","type":"string"},{"internalType":"uint256","name":"totalValue","type":"uint256"},{"internalType":"uint256","name":"totalSupply","type":"uint256"},{"internalType":"uint256","name":"pricePerToken","type":"uint256"},{"internalType":"enum UAEPropertyToken.PropertyType","name":"propertyType","type":"uint8"},{"internalType":"enum UAEPropertyToken.PropertyStatus","name":"status","type":"uint8"},{"internalType":"address","name":"developer","type":"address"},{"internalType":"uint256","name":"createdAt","type":"uint256"},{"internalType":"uint256","name":"fundingDeadline","type":"uint256"},{"internalType":"bool","name":"reraApproved","type":"bool"},{"internalType":"bool","name":"dldRegistered","type":"bool"}],"stateMutability":"view","type":"function"},{"inputs":[{"internalType":"uint256","name":"tokenId","type":"uint256"},{"internalType":"bool","name":"registered","type":"bool"}],"name":"registerPropertyDLD","outputs":[],"stateMutability":"nonpayable","type":"function"},{"inputs":[],"name":"renounceOwnership","outputs":[],"stateMutability":"nonpayable","type":"function"},{"inputs":[],"name":"reraCompliance","outputs":[{"internalType":"address","name":"","type":"address"}],"stateMutability":"view","type":"function"},{"inputs":[{"internalType":"string","name":"","type":"string"}],"name":"reraToTokenId","outputs":[{"internalType":"uint256","name":"","type":"uint256"}],"stateMutability":"view","type":"function"},{"inputs":[{"internalType":"address","name":"","type":"address"}],"name":"reraVerifiedDevelopers","outputs":[{"internalType":"bool","name":"","type":"bool"}],"stateMutability":"view","type":"function"},{"inputs":[{"internalType":"address","name":"from","type":"address"},{"internalType":"address","name":"to","type":"address"},{"internalType":"uint256[]","name":"ids","type":"uint256[]"},{"internalType":"uint256[]","name":"amounts","type":"uint256[]"},{"internalType":"bytes","name":"data","type":"bytes"}],"name":"safeBatchTransferFrom","outputs":[],"stateMutability":"nonpayable","type":"function"},{"inputs":[{"internalType":"address","name":"from","type":"address"},{"internalType":"address","name":"to","type":"address"},{"internalType":"uint256","name":"id","type":"uint256"},{"internalType":"uint256","name":"amount","type":"uint256"},{"internalType":"bytes","name":"data","type":"bytes"}],"name":"safeTransferFrom","outputs":[],"stateMutability":"nonpayable","type":"function"},{"inputs":[{"internalType":"address","name":"operator","type":"address"},{"internalType":"bool","name":"approved","type":"bool"}],"name":"setApprovalForAll","outputs":[],"stateMutability":"nonpayable","type":"function"},{"inputs":[{"internalType":"address","name":"_dldRegistry","type":"address"}],"name":"setDLDRegistry","outputs":[],"stateMutability":"nonpayable","type":"function"},{"inputs":[{"internalType":"address","name":"_reraCompliance","type":"address"}],"name":"setRERACompliance","outputs":[],"stateMutability":"nonpayable","type":"function"},{"inputs":[{"internalType":"address","name":"user","type":"address"},{"internalType":"string","name":"emirate","type":"string"}],"name":"setUserEmirate","outputs":[],"stateMutability":"nonpayable","type":"function"},{"inputs":[{"internalType":"address","name":"user","type":"address"},{"internalType":"enum UAEPropertyToken.InvestmentTier","name":"tier","type":"uint8"}],"name":"setUserTier","outputs":[],"stateMutability":"nonpayable","type":"function"},{"inputs":[{"internalType":"string","name":"","type":"string"}],"name":"supportedCurrencies","outputs":[{"internalType":"bool","name":"","type":"bool"}],"stateMutability":"view","type":"function"},{"inputs":[{"internalType":"bytes4","name":"interfaceId","type":"bytes4"}],"name":"supportsInterface","outputs":[{"internalType":"bool","name":"","type":"bool"}],"stateMutability":"view","type":"function"},{"inputs":[{"internalType":"uint256","name":"","type":"uint256"}],"name":"totalDividendsPaid","outputs":[{"internalType":"uint256","name":"","type":"uint256"}],"stateMutability":"view","type":"function"},{"inputs":[{"internalType":"address","name":"newOwner","type":"address"}],"name":"transferOwnership","outputs":[],"stateMutability":"nonpayable","type":"function"},{"inputs":[{"internalType":"address","name":"","type":"address"}],"name":"uaeResidents","outputs":[{"internalType":"bool","name":"","type":"bool"}],"stateMutability":"view","type":"function"},{"inputs":[],"name":"unpause","outputs":[],"stateMutability":"nonpayable","type":"function"},{"inputs":[{"internalType":"string","name":"currency","type":"string"},{"internalType":"uint256","name":"rate","type":"uint256"}],"name":"updateExchangeRate","outputs":[],"stateMutability":"nonpayable","type":"function"},{"inputs":[{"internalType":"uint256","name":"tokenId","type":"uint256"},{"internalType":"enum UAEPropertyToken.PropertyStatus","name":"newStatus","type":"uint8"}],"name":"updatePropertyStatus","outputs":[],"stateMutability":"nonpayable","type":"function"},{"inputs":[{"internalType":"uint256","name":"tokenId","type":"uint256"}],"name":"uri","outputs":[{"internalType":"string","name":"","type":"string"}],"stateMutability":"view","type":"function"},{"inputs":[{"internalType":"uint256","name":"","type":"uint256"},{"internalType":"address","name":"","type":"address"}],"name":"userDividendsClaimed","outputs":[{"internalType":"uint256","name":"","type":"uint256"}],"stateMutability":"view","type":"function"},{"inputs":[{"internalType":"address","name":"","type":"address"}],"name":"userEmirates","outputs":[{"internalType":"string","name":"","type":"string"}],"stateMutability":"view","type":"function"},{"inputs":[{"internalType":"address","name":"","type":"address"},{"internalType":"uint256","name":"","type":"uint256"}],"name":"userInvestments","outputs":[{"internalType":"uint256","name":"","type":"uint256"}],"stateMutability":"view","type":"function"},{"inputs":[{"internalType":"address","name":"","type":"address"}],"name":"userTiers","outputs":[{"internalType":"enum UAEPropertyToken.InvestmentTier","name":"","type":"uint8"}],"stateMutability":"view","type":"function"},{"inputs":[{"internalType":"address","name":"developer","type":"address"},{"internalType":"bool","name":"verified","type":"bool"}],"name":"verifyDeveloper","outputs":[],"stateMutability":"nonpayable","type":"function"}],"evm":{"bytecode":{"linkReferences":{},"object":"6080604052346200045a57620046f4803803806200001d816200045f565b92833981016060828203126200045a5781516001600160401b0392908381116200045a57810192601f8381860112156200045a578451938285116200042f57602094601f199662000074878986850116016200045f565b928284528783830101116200045a57869060005b8381106200044557505060009183010152620000b46040620000ac87870162000485565b950162000485565b9481519384116200042f57600254600181811c9116801562000424575b828210146200040e57838111620003c5575b50809284116001146200035657506023955060009190836200034a575b50508160011b916000199060031b1c1916176002555b600354604051926001600160a01b0391338382167f8be0079c531659141344cd1fd0a4f28419497f9722a3daafe3b4186f6b6457e0600080a360ff60a01b1933169060018060a81b0319161760035560016004558160018060a01b03199316836006541617600655169060075416176007556210515160ea1b81526010600382015220600160ff198254161790556023604051621554d160ea1b81526010600382015220600160ff1982541617905560236040516222aaa960e91b81526010600382015220600160ff1982541617905560236040516204742560ec1b81526010600382015220600160ff1982541617905560236040516229a0a960e91b81526010600382015220600160ff1982541617905560236040516228a0a960e91b81526010600382015220600160ff1982541617905560236040516212d5d160ea1b81526010600382015220600160ff19825416179055670126e00f6c5b800060236040516210515160ea1b8152670de0b6b3a764000082601192836003820152205581604051621554d160ea1b81528260038201526703c6568f12e800009182912055670369f7b256bf0000836040516222aaa960e91b815284600382015220556702f847ddbdef0000836040516204742560ec1b81528460038201522055826040516229a0a960e91b81528360038201522055670e043da617250000826040516228a0a960e91b81528360038201522055604051906212d5d160ea1b82526003820152205560405161425990816200049b8239f35b01519050388062000100565b92958616600260005283600020936000905b828210620003ac575050916001939187602398941062000392575b505050811b0160025562000116565b015160001960f88460031b161c1916905538808062000383565b8060018697829497870151815501960194019062000368565b6002600052816000208480870160051c82019284881062000404575b0160051c01905b818110620003f75750620000e3565b60008155600101620003e8565b92508192620003e1565b634e487b7160e01b600052602260045260246000fd5b90607f1690620000d1565b634e487b7160e01b600052604160045260246000fd5b81810183015185820184015288920162000088565b600080fd5b6040519190601f01601f191682016001600160401b038111838210176200042f57604052565b51906001600160a01b03821682036200045a5756fe6080604052600436101561001257600080fd5b60003560e01c8062fdd58e146139e757806301ffc9a714613979578063051e66041461392b5780630bc82dea146138e85780630e89341c14613615578063126dbe431461346357806314c360a2146134295780631a6c4ca1146133ea5780631c7492031461337f5780631e0a90451461335357806324063c821461330d5780632d878b4e1461325c5780632eb2c2d614612e9a5780633f1ebf5314612e6e5780633f4ba83a14612dd257806341a1727b14612d9357806343225acd14612d4a5780634e1273f414612bac578063564c0aec14612b3d5780635c975abb14612b175780636641cc6414612ad85780636c29c25614612aaf578063715018a614612a52578063757e4b5b146128775780637b3d911214611ed557806381597f1214611e9157806382859fe614611e275780638456cb5914611dc55780638da5cb5b14611d9c5780639207d8b314611c19578063922bc48114611bf05780639244adcd14611ba8578063a031a1bd14611b63578063a04725c614611b0e578063a22cb46514611a24578063adfe3b01146119c6578063b362829b14611021578063b8f1d64d14610fce578063bd7047c414610e83578063c0a3417114610e3a578063c729c9f314610cc9578063c7602ea814610c6d578063cc30dc3c14610c2a578063d40e842914610be2578063e6359df514610ba3578063e985e9c514610b4d578063f242432a146107bd578063f2fde38b146106f4578063f6c3ac7c14610513578063f7b108081461035e578063f89f57ed146102fb578063fd12f788146102bc5763feaa414a1461026257600080fd5b346102b75760403660031901126102b7576102b561027e613a16565b610286613c1c565b9061028f613cfb565b60018060a01b0316600052600e60205260406000209060ff801983541691151516179055565b005b600080fd5b346102b75760203660031901126102b7576001600160a01b036102dd613a16565b166000526015602052602060ff604060002054166040519015158152f35b346102b75760203660031901126102b7576001600160a01b0361031c613a16565b16600052600f60205261035a61033f610346604060002060405192838092613c65565b0382613a5d565b604051918291602083526020830190613b03565b0390f35b346102b75760203660031901126102b757600435600052600860205260406000208054604051918280600183019061039591613c65565b036103a09084613a5d565b604051806103b18160028501613c65565b036103bc9082613a5d565b60405191826103ce8160038401613c65565b036103d99084613a5d565b60405192836103eb8160048501613c65565b036103f69085613a5d565b60405193846104088160058601613c65565b036104139086613a5d565b6006830154946007840154600885015491600986015493600a87015495600b88015497600c0154986040519c8d9c8d528c6102006020819201528d0161045891613b03565b8c810360408e015261046991613b03565b8b810360608d015261047a91613b03565b8a810360808c015261048b91613b03565b89810360a08b015261049c91613b03565b9660c089015260e0880152610100870152610120860160ff8216906104c091613b28565b6104d5610140870160ff600884901c16613b35565b60101c6001600160a01b03166101608601526101808501526101a084015260ff81811615156101c085015260089190911c1615156101e08301520390f35b346102b75760403660031901126102b75760043561052f613c1c565b811515806106e8575b610541906140d6565b600754336001600160a01b03918216149081156106da575b50156106955760807f20b345b4664a5508210399c82a489058c52a890c6f67bf425155cc1fa5cb6d2691836000526008602052604060002090847f67421c3f2530a41215a6f7be6a0b71ed990a01d4383295dd62b0b25496bd5e3e600c8401928015159380549061ff0019918261ff008860081b16911617905561060c82602e604051600e6d11131117d49151d254d51154915160921b9a8b835201600e820152209060ff801983541691151516179055565b818061067a575b610659575b5082600052600860205260026040600020019061063a6040519283928361411b565b0390a26040519160408352600e604084015260608301526020820152a2005b83600052600860205261010060096040600020019182541617905588610618565b5083600052600860205260ff600c6040600020015416610613565b60405162461bcd60e51b815260206004820152601d60248201527f556e617574686f72697a656420444c4420726567697374726174696f6e0000006044820152606490fd5b905060035416331483610559565b50600554821115610538565b346102b75760203660031901126102b75761070d613a16565b610715613cfb565b6001600160a01b0390811690811561076957600354826bffffffffffffffffffffffff60a01b821617600355167f8be0079c531659141344cd1fd0a4f28419497f9722a3daafe3b4186f6b6457e0600080a3005b60405162461bcd60e51b815260206004820152602660248201527f4f776e61626c653a206e6577206f776e657220697320746865207a65726f206160448201526564647265737360d01b6064820152608490fd5b346102b75760a03660031901126102b7576107d6613a16565b6107de613a2c565b906064356044356084356001600160401b0381116102b757610804903690600401613a99565b6001600160a01b03938416933385148015610b24575b61082390613e11565b851680151561083181613e74565b61083a84614032565b5061084485614032565b5061084d614179565b80610b1b575b610a64575b826000526020956000875260406000208660005287528460406000205461088182821015613ece565b85600052600089526040600020886000528952036040600020558360005260008752604060002082600052875260406000206108be868254613f2d565b90558186604051868152878a8201527fc3d58168c5ae7397731d063d5bbf3d657854427343f4c083240f7aacaa2d0f6260403392a43b6108fa57005b61093e93600087946040519687958694859363f23a6e6160e01b9b8c865233600487015260248601526044850152606484015260a0608484015260a4830190613b03565b03925af160009181610a35575b50610a0a57505060019061095d613fa3565b6308c379a0146109d5575b5061096f57005b60405162461bcd60e51b815260206004820152603460248201527f455243313135353a207472616e7366657220746f206e6f6e2d455243313135356044820152732932b1b2b4bb32b91034b6b83632b6b2b73a32b960611b6064820152608490fd5b0390fd5b6109dd613fc1565b90816109e95750610968565b6109d160405192839262461bcd60e51b845260048401526024830190613b03565b6001600160e01b0319161490506102b5575b60405162461bcd60e51b8152806109d160048201613f5a565b610a56919250843d8611610a5d575b610a4e8183613a5d565b810190613f3a565b908461094b565b503d610a44565b80600052600d60205260ff6040600020541615610ad65780600052600e60205260ff604060002054166108585760405162461bcd60e51b815260206004820152601d60248201527f526563697069656e74206d75737420626520414d4c20636c65617265640000006044820152606490fd5b60405162461bcd60e51b815260206004820152601e60248201527f526563697069656e74206d757374206265204b594320617070726f76656400006044820152606490fd5b50841515610853565b5084600052600160205260406000203360005260205261082360ff60406000205416905061081a565b346102b75760403660031901126102b757610b66613a16565b610b6e613a2c565b9060018060a01b03809116600052600160205260406000209116600052602052602060ff604060002054166040519015158152f35b346102b75760203660031901126102b7576001600160a01b03610bc4613a16565b166000526017602052602060ff604060002054166040519015158152f35b346102b75760403660031901126102b757610bfb613a2c565b600435600052601360205260406000209060018060a01b03166000526020526020604060002054604051908152f35b346102b75760203660031901126102b757610c43613a16565b610c4b613cfb565b600780546001600160a01b0319166001600160a01b0392909216919091179055005b346102b75760203660031901126102b7576004356001600160401b0381116102b757610cb66020610ca381933690600401613a99565b8160405193828580945193849201613ae0565b8101600981520301902054604051908152f35b346102b75760403660031901126102b757610ce2613a16565b6001600160401b036024358181116102b757610d02903690600401613a99565b91610d0b613cfb565b60018060a01b0316600052602090600f82526040600020918351918211610e2457610d368354613c2b565b601f8111610dde575b5080601f8311600114610d7b5750819293600092610d70575b5050600019600383901b1c191660019190911b179055005b015190508380610d58565b90601f198316948460005282600020926000905b878210610dc6575050836001959610610dad575b505050811b019055005b015160001960f88460031b161c19169055838080610da3565b80600185968294968601518155019501930190610d8f565b8360005281600020601f840160051c810191838510610e1a575b601f0160051c01905b818110610e0e5750610d3f565b60008155600101610e01565b9091508190610df8565b634e487b7160e01b600052604160045260246000fd5b346102b75760203660031901126102b7576004356001600160401b0381116102b757610e706020610ca381933690600401613a99565b8101600a81520301902054604051908152f35b346102b7576020806003193601126102b75760043580151580610fc2575b610eaa906140d6565b610eb26141c0565b610ebc8133613d53565b918215610f8c5781600052601481526040600020549260138252604060002033600052825260406000205480851115610f4f577fa1594d215a577c1905bcb0b5b186a40a0104714277441d4b2ac428c89bf7f4b19291610f1f610f259287614216565b90614077565b93836000526013825260406000203360005282526040600020556040519384523393a36001600455005b60405162461bcd60e51b81526004810184905260156024820152744e6f206469766964656e647320746f20636c61696d60581b6044820152606490fd5b6064906040519062461bcd60e51b82526004820152600f60248201526e139bc81d1bdad95b9cc81bdddb9959608a1b6044820152fd5b50600554811115610ea1565b346102b75760403660031901126102b7576102b5610fea613a16565b610ff2613c1c565b90610ffb613cfb565b60018060a01b0316600052600d60205260406000209060ff801983541691151516179055565b346102b75760803660031901126102b75760446004356001600160401b036024803584358381116102b75761105a903690600401613a99565b9433600052602092600d845260ff9081604060002054161561198c5733600052600e85528160406000205416156119515786151580611945575b61109d906140d6565b8660005260089283865282600960406000200154851c166007811015611930576001036118ee5787600052838652600b6040600020015442116118b55790859392916110e76141c0565b6110ef614179565b61111e8361110d878d6040519b8c9382859351928391019e8f613ae0565b810160108152030190205416614134565b851561187c5788600052838552604060002093600c850154848082169182611870575b505015611835578561115961116c9287015489614077565b988c604051938492839251928391613ae0565b8101601181520301902054670de0b6b3a764000061118d6064928335614077565b049788106117ff5733600052600c8652836040600020541660038110156117ea57806116ce575069054b40b1f852bda00000881061168e576969e10de76676d0800000881161164e575b6111f8876111f38c600052600860205260076040600020015490565b613f2d565b93600786019485541061160d5760405199878b019081118b8210176115f85760405260008a5233158015906115ac57908b96959493929161123888614032565b506112428a614032565b5061124b614179565b806115a4575b6114e7575b5085600052600087526040600020336000528752604060002061127a898254613f2d565b90556040518681528888820152600033917fc3d58168c5ae7397731d063d5bbf3d657854427343f4c083240f7aacaa2d0f6260403392a4333b6113b8575b5050507ff5fb598e03f67495efb1a6711179b937e6be4e2f376538db8351fcf91cf38681965033600052600b845260406000208360005284526040600020611301878254613f2d565b905533600052600d82018452604060002061131d868254613f2d565b905561133783600052600860205260076040600020015490565b9054111561136c575b5050604051928352820152606060408201528061136233956060830190613b03565b0390a36001600455005b60098101805461ff00191661020017905560060154604080519182526000848301527f5c2cb5015027cb95196f52d0d4ffe39c9702fc85ee2af6e06122d2c7f1dc50fc91a28487611340565b869193956113fa8994969b604051958694859463f23a6e6160e01b998a875233600488015260008c88015286015284015260a0608484015260a4830190613b03565b03816000335af1600091816114c8575b5061148e57505060019061141c613fa3565b6308c379a014611459575b5061096f577ff5fb598e03f67495efb1a6711179b937e6be4e2f376538db8351fcf91cf386819486915b8980806112b8565b611461613fc1565b8061146c5750611427565b60405162461bcd60e51b8152600481018690529182916109d191830190613b03565b6001600160e01b031916039050610a1c577ff5fb598e03f67495efb1a6711179b937e6be4e2f376538db8351fcf91cf38681948691611451565b6114e0919250863d8811610a5d57610a4e8183613a5d565b908b61140a565b9091929394955033600052600d87528060406000205416156115635733600052600e87526040600020541615611523579089949392918c611256565b60405162461bcd60e51b815260048101879052601d818501527f526563697069656e74206d75737420626520414d4c20636c656172656400000081840152fd5b5060405162461bcd60e51b815260048101879052601e818501527f526563697069656e74206d757374206265204b594320617070726f766564000081840152fd5b506000611251565b60405162461bcd60e51b8152600481018990526021818701527f455243313135353a206d696e7420746f20746865207a65726f2061646472657381860152607360f81b81850152608490fd5b84634e487b7160e01b60005260416004526000fd5b5060405162461bcd60e51b815260048101879052601d818501527f496e73756666696369656e7420746f6b656e7320617661696c61626c6500000081840152fd5b60405162461bcd60e51b815260048101879052601f818501527f41626f7665206d6178696d756d2072657461696c20696e766573746d656e740081840152fd5b60405162461bcd60e51b815260048101879052601f818501527f42656c6f77206d696e696d756d2072657461696c20696e766573746d656e740081840152fd5b6001810361178057506969e10de76676d08000008810611740576a01a784379d99db420000008811611700575b6111d7565b60405162461bcd60e51b8152600481018790528084018790527f41626f7665206d6178696d756d207072656d69756d20696e766573746d656e7481840152fd5b60405162461bcd60e51b8152600481018790528084018790527f42656c6f77206d696e696d756d207072656d69756d20696e766573746d656e7481840152fd5b6002036111d7576a01a784379d99db420000008810156116fb57651cdd1b595b9d60d21b907f42656c6f77206d696e696d756d20696e737469747574696f6e616c20696e7665879360266084966040519662461bcd60e51b88526004880152860152840152820152fd5b83634e487b7160e01b60005260216004526000fd5b60405162461bcd60e51b81526004810187905260138185015272125b9cdd59999a58da595b9d08185b5bdd5b9d606a1b81840152fd5b60405162461bcd60e51b81526004810187905260158185015274141c9bdc195c9d1e481b9bdd08185c1c1c9bdd9959605a1b81840152606490fd5b831c169050848d611141565b73125b9d985b1a59081d1bdad95b88185b5bdd5b9d60621b859160146064946040519462461bcd60e51b86526004860152840152820152fd5b73119d5b991a5b99c81c195c9a5bd908195b99195960621b869160146064946040519462461bcd60e51b86526004860152840152820152fd5b7f50726f7065727479206e6f7420696e2066756e6472616973696e6700000000008691601b6064946040519462461bcd60e51b86526004860152840152820152fd5b82634e487b7160e01b60005260216004526000fd5b50600554871115611094565b84751053530818db19585c985b98d9481c995c5d5a5c995960521b8460166064946040519462461bcd60e51b86526004860152840152820152fd5b847412d650c8185c1c1c9bdd985b081c995c5d5a5c9959605a1b8460156064946040519462461bcd60e51b86526004860152840152820152fd5b346102b75760403660031901126102b7576102b56119e2613a16565b6119ea613c1c565b60065490916001600160a01b0391611a05908316331461408a565b16600052601560205260406000209060ff801983541691151516179055565b346102b75760403660031901126102b757611a3d613a16565b611a45613c1c565b6001600160a01b0390911690338214611ab757336000526001602052604060002082600052602052611a878160406000209060ff801983541691151516179055565b60405190151581527f17307eab39ab6107e8899845ad3d59bd9653f200f220920489ca2b5937696c3160203392a3005b60405162461bcd60e51b815260206004820152602960248201527f455243313135353a2073657474696e6720617070726f76616c20737461747573604482015268103337b91039b2b63360b91b6064820152608490fd5b346102b75760403660031901126102b757611b27613a16565b6024359060038210156102b757611b3c613cfb565b60018060a01b0316600052600c60205260406000209060ff80198354169116179055600080f35b346102b75760003660031901126102b75761035a604051611b8381613a42565b60048152635245524160e01b6020820152604051918291602083526020830190613b03565b346102b75760403660031901126102b7576001600160a01b03611bc9613a16565b16600052600b60205260406000206024356000526020526020604060002054604051908152f35b346102b75760003660031901126102b7576007546040516001600160a01b039091168152602090f35b346102b75760403660031901126102b7576004357f20b345b4664a5508210399c82a489058c52a890c6f67bf425155cc1fa5cb6d266080611c58613c1c565b611c6d60018060a01b0360065416331461408a565b83151580611d90575b611c7f906140d6565b836000526008602052604060002090611ca781600c84019060ff801983541691151516179055565b611cdf81602d604051600e6c1491549057d054141493d59151609a1b9687835201600d820152209060ff801983541691151516179055565b8080611d72575b611d4f575b846000526008602052847fc3b0864b1eaca0c8d74db6616df1e38ca2b70b83f92f5e630a0f21ffc3a59481611d2e6001604060002001604051918291868361411b565b0390a26040519160408352600d6040840152606083015215156020820152a2005b846000526008602052600960406000200161010061ff0019825416179055611ceb565b5084600052600860205260ff600c6040600020015460081c16611ce6565b50600554841115611c76565b346102b75760003660031901126102b7576003546040516001600160a01b039091168152602090f35b346102b75760003660031901126102b757611dde613cfb565b611de6614179565b6003805460ff60a01b1916600160a01b1790556040513381527f62e78cea01bee320cd4e420270b5ea74000d11b0c9f74754ebdbfc544b05a25890602090a1005b346102b7576020670de0b6b3a7640000611e8882611e77611e4736613b42565b929060405190611e6660ff82519385818186019661110d81838a613ae0565b604051938492839251928391613ae0565b810160118152030190205490614077565b04604051908152f35b346102b75760003660031901126102b75761035a604051611eb181613a42565b600381526255414560e81b6020820152604051918291602083526020830190613b03565b346102b7576101403660031901126102b7576004356001600160401b0381116102b757611f06903690600401613a99565b6024356001600160401b0381116102b757611f25903690600401613a99565b9060449081356001600160401b0381116102b757611f47903690600401613a99565b926064356001600160401b0381116102b757611f67903690600401613a99565b926084356001600160401b0381116102b757611f87903690600401613a99565b90600860e43510156102b757610104356001600160a01b03811690036102b757611faf613cfb565b83511561283c578251156128025760a435156127c85760c4351561278d57610104356001600160a01b03161561274957610104356001600160a01b031660009081526015602052604090205460ff16156127055750600160055401938460055584600052600860205260406000209585875584516001600160401b038111610e245761203e6001890154613c2b565b601f81116126be575b50806020601f821160011461265157600091612646575b508160011b916000199060031b1c19161760018801555b83516001600160401b038111610e24576120926002890154613c2b565b601f81116125ff575b50806020601f821160011461259257600091612587575b508160011b916000199060031b1c19161760028801555b8051906001600160401b038211610e245781906120e960038a0154613c2b565b601f8111612534575b50602090601f83116001146124c7576000926124bc575b50508160011b916000199060031b1c19161760038701555b8051906001600160401b038211610e245781906121416004890154613c2b565b601f8111612469575b50602090601f83116001146123fc576000926123f1575b50508160011b916000199060031b1c19161760048601555b8051906001600160401b038211610e245781906121996005880154613c2b565b601f811161239e575b50602090601f831160011461233157600092612326575b50508160011b916000199060031b1c19161760058501555b60a435600685015560c43560078501556121ef60c43560a435614057565b60088501556009840180546001600160b01b03191660e43560ff16176101043560101b62010000600160b01b031617905542600a8501556201518061012435818102918115918304141715612310576122e48492600c6020976122737fa7289395817a5b3c8558c2a9ec68ca606c1642bc4102a0b20df09e23e123bcb89542613f2d565b600b8201550161ffff19815416905583604051888188516122978183858d01613ae0565b810160098152030190205583604051888184516122b78183858901613ae0565b8101600a815203019020556122d760405195608087526080870190613b03565b9085820388870152613b03565b60a435604085015260c4356060850152610104356001600160a01b0316939081900390a3604051908152f35b634e487b7160e01b600052601160045260246000fd5b0151905086806121b9565b600588016000908152602081209350601f198516905b818110612386575090846001959493921061236d575b505050811b0160058501556121d1565b015160001960f88460031b161c1916905586808061235d565b92936020600181928786015181550195019301612347565b909150600587016000526020600020601f840160051c8101602085106123ea575b90849392915b601f830160051c820181106123db5750506121a2565b600081558594506001016123c5565b50806123bf565b015190508780612161565b600489016000908152602081209350601f198516905b8181106124515750908460019594939210612438575b505050811b016004860155612179565b015160001960f88460031b161c19169055878080612428565b92936020600181928786015181550195019301612412565b909150600488016000526020600020601f840160051c8101602085106124b5575b90849392915b601f830160051c820181106124a657505061214a565b60008155859450600101612490565b508061248a565b015190508880612109565b60038a016000908152602081209350601f198516905b81811061251c5750908460019594939210612503575b505050811b016003870155612121565b015160001960f88460031b161c191690558880806124f3565b929360206001819287860151815501950193016124dd565b909150600389016000526020600020601f840160051c810160208510612580575b90849392915b601f830160051c820181106125715750506120f2565b6000815585945060010161255b565b5080612555565b9050850151896120b2565b91506002890160005260206000206000925b601f19831684106125e7576001935082601f198116106125ce575b5050811b0160028801556120c9565b87015160001960f88460031b161c1916905589806125bf565b878101518255602093840193600190920191016125a4565b600289016000526020600020601f830160051c81016020841061263f575b601f830160051c8201811061263357505061209b565b6000815560010161261d565b508061261d565b90508601518961205e565b91506001890160005260206000206000925b601f19831684106126a6576001935082601f1981161061268d575b5050811b016001880155612075565b88015160001960f88460031b161c19169055898061267e565b88810151825560209384019360019092019101612663565b600189016000526020600020601f830160051c8101602084106126fe575b601f830160051c820181106126f2575050612047565b600081556001016126dc565b50806126dc565b6064907f446576656c6f706572206e6f74205245524120766572696669656400000000006040519162461bcd60e51b835260206004840152601b6024840152820152fd5b6064907f496e76616c696420646576656c6f7065722061646472657373000000000000006040519162461bcd60e51b83526020600484015260196024840152820152fd5b60649073496e76616c696420746f74616c20737570706c7960601b6040519162461bcd60e51b83526020600484015260146024840152820152fd5b60649072496e76616c696420746f74616c2076616c756560681b6040519162461bcd60e51b83526020600484015260136024840152820152fd5b60649072111311081b9d5b58995c881c995c5d5a5c9959606a1b6040519162461bcd60e51b83526020600484015260136024840152820152fd5b6064907314915490481b9d5b58995c881c995c5d5a5c995960621b6040519162461bcd60e51b83526020600484015260146024840152820152fd5b346102b75760403660031901126102b75760043560243581151580612a46575b6128a0906140d6565b6128a8613cfb565b8015612a01578160005260206008815260ff60096040600020015460081c1660078110156129eb576005036129a7576128ef83600052600860205260076040600020015490565b801561296257916040916129247f63d71f07eb936381fc294fbded2b933703b98e1387a0c92bc886c12ae4f117c29483614057565b9085600052601481528360002061293c838254613f2d565b9055856000526012815283600020612955848254613f2d565b90558351928352820152a2005b60405162461bcd60e51b815260048101839052601860248201527f4e6f20746f6b656e7320696e2063697263756c6174696f6e00000000000000006044820152606490fd5b6064906040519062461bcd60e51b82526004820152601e60248201527f50726f7065727479206e6f742067656e65726174696e6720696e636f6d6500006044820152fd5b634e487b7160e01b600052602160045260246000fd5b60405162461bcd60e51b815260206004820152601760248201527f496e76616c6964206469766964656e6420616d6f756e740000000000000000006044820152606490fd5b50600554821115612897565b346102b75760003660031901126102b757612a6b613cfb565b600380546001600160a01b031981169091556000906001600160a01b03167f8be0079c531659141344cd1fd0a4f28419497f9722a3daafe3b4186f6b6457e08280a3005b346102b75760003660031901126102b7576006546040516001600160a01b039091168152602090f35b346102b75760203660031901126102b7576001600160a01b03612af9613a16565b16600052600d602052602060ff604060002054166040519015158152f35b346102b75760003660031901126102b757602060ff60035460a01c166040519015158152f35b346102b75760403660031901126102b75760243560043560078210156102b757612b65613cfb565b80151580612ba0575b612b77906140d6565b600052600860205260096040600020019061ff0082549160081b169061ff001916179055600080f35b50600554811115612b6e565b346102b75760403660031901126102b7576004356001600160401b038082116102b757366023830112156102b757816004013590612be982613b73565b92612bf76040519485613a5d565b82845260209260248486019160051b830101913683116102b757602401905b828210612d2b575050506024359081116102b757612c38903690600401613b8a565b8251815103612cd457825192612c4d84613b73565b93612c5b6040519586613a5d565b808552612c6a601f1991613b73565b01368486013760005b8151811015612cbd57612cb890612ca86001600160a01b03612c958386613de7565b5116612ca18387613de7565b5190613d53565b612cb28288613de7565b52613dd8565b612c73565b50505061035a604051928284938452830190613be8565b60405162461bcd60e51b815260048101839052602960248201527f455243313135353a206163636f756e747320616e6420696473206c656e677468604482015268040dad2e6dac2e8c6d60bb1b6064820152608490fd5b81356001600160a01b03811681036102b7578152908401908401612c16565b346102b75760203660031901126102b7576004356001600160401b0381116102b757612d806020610ca381933690600401613a99565b8101601181520301902054604051908152f35b346102b75760203660031901126102b7576001600160a01b03612db4613a16565b16600052600e602052602060ff604060002054166040519015158152f35b346102b75760003660031901126102b757612deb613cfb565b60035460ff8160a01c1615612e325760ff60a01b19166003556040513381527f5db9ee0a495bf2e6ff9c91a7834c1ba4fdd244a5e8aa4e537bd38aeae4b073aa90602090a1005b60405162461bcd60e51b815260206004820152601460248201527314185d5cd8589b194e881b9bdd081c185d5cd95960621b6044820152606490fd5b346102b75760203660031901126102b75760043560005260146020526020604060002054604051908152f35b346102b75760031960a0368201126102b757612eb4613a16565b90612ebd613a2c565b906001600160401b03906044358281116102b757612edf903690600401613b8a565b6064358381116102b757612ef7903690600401613b8a565b926084359081116102b757612f10903690600401613a99565b6001600160a01b03958616959092903387148015613233575b612f3290613e11565b82518551036131dd57851692831515612f4a81613e74565b612f52614179565b806131d4575b613162575b60005b8351811015612ff65780612f77612ff19286613de7565b51612f828289613de7565b5190806000526020906000825260406000208c600052825282604060002054612fad82821015613ece565b82600052600084528d604060002090600052845203604060002055600052600081526040600020908860005252612fea6040600020918254613f2d565b9055613dd8565b612f60565b509094939291938287604051604081527f4a39dc06d4c0dbc64b70af90fd698a233a518aa5d07e595d983b8c0526c8f7fb613034604083018a613be8565b9180830360208201528061304933948b613be8565b0390a43b61305357005b60006020946130b46130a59761309594604051998a988997889663bc197c8160e01b9e8f89523360048a0152602489015260a0604489015260a4880190613be8565b9084878303016064880152613be8565b91848303016084850152613b03565b03925af160009181613142575b5061311a57505060016130d2613fa3565b6308c379a0146130e3575b61096f57005b6130eb613fc1565b806130f657506130dd565b60405162461bcd60e51b8152602060048201529081906109d1906024830190613b03565b6001600160e01b031916146102b55760405162461bcd60e51b8152806109d160048201613f5a565b61315b91925060203d8111610a5d57610a4e8183613a5d565b90836130c1565b83600052600d60205260ff6040600020541615610ad65783600052600e60205260ff60406000205416612f5d5760405162461bcd60e51b815260206004820152601d60248201527f526563697069656e74206d75737420626520414d4c20636c65617265640000006044820152606490fd5b50861515612f58565b60405162461bcd60e51b815260206004820152602860248201527f455243313135353a2069647320616e6420616d6f756e7473206c656e677468206044820152670dad2e6dac2e8c6d60c31b6064820152608490fd5b50866000526001602052604060002033600052602052612f3260ff604060002054169050612f29565b346102b75760403660031901126102b7576080613277613a16565b6024356132848183613d53565b9160018060a01b03169081600052602091600b835260406000208260005283526132f76132f160406000205492600886526132c760086040600020015488614077565b94600052601486526040600020549060138752604060002090600052865260406000205490614216565b85614077565b9260405194855284015260408301526060820152f35b346102b75760203660031901126102b7576001600160a01b0361332e613a16565b16600052600c60205260ff6040600020541660405160038210156129eb576020918152f35b346102b75760203660031901126102b75760043560005260126020526020604060002054604051908152f35b346102b75760206133da61339236613b42565b929061339c613cfb565b604051908051918381818401946133b4818388613ae0565b81016010815203019020600160ff19825416179055604051938492839251928391613ae0565b8101601181520301902055600080f35b346102b75760203660031901126102b7576001600160a01b0361340b613a16565b166000526016602052602060ff604060002054166040519015158152f35b346102b75760206133da61343c36613b42565b9290613446613cfb565b60405190611e6660ff82519385818186019661110d81838a613ae0565b346102b75760203660031901126102b75760043580151580613609575b613489906140d6565b60005260086020526040600020600681015460078201549060088301546009840154600c8501549160405194858060018901906134c591613c65565b036134d09087613a5d565b60405196876134e28160028401613c65565b036134ed9089613a5d565b604051806134fe8160038501613c65565b036135099082613a5d565b604051908161351b8160048601613c65565b036135269083613a5d565b6040518060058195019061353991613c65565b036135449084613a5d565b604051998a996101a0808c528b0161355b91613b03565b8a810360208c015261356c91613b03565b89810360408b015261357d91613b03565b88810360608a015261358e91613b03565b878103608089015261359f91613b03565b9460a087015260c086015260e0850152610100840160ff8216906135c291613b28565b6135d7610120850160ff600884901c16613b35565b60101c6001600160a01b031661014084015260ff818116151561016085015260089190911c1615156101808301520390f35b50600554811115613480565b346102b7576020806003193601126102b75760043590811515806138dc575b156138a157604051600254600061364a82613c2b565b8084528385810192600194878682169182600014613886575050600114613828575b61367892500384613a5d565b600094807a184f03e93ff9f4daa797ed6e38ed64bf6a1f010000000000000000818181101561381a575b50506d04ee2d6d415b85acef81000000008083101561380c575b50662386f26fc10000808310156137fd575b506305f5e100808310156137ee575b50612710808310156137df575b5060648210156137cf575b600a809210156137c6575b928087019381602161372a61371488613a7e565b97613722604051998a613a5d565b808952613a7e565b878a019a90601f1901368c37870101905b613790575b6137618861377c818a8d8b6137708c60405198899551809288880190613ae0565b84019151809386840190613ae0565b01038085520183613a5d565b61035a604051928284938452830190613b03565b600019019083906f181899199a1a9b1b9c1cb0b131b232b360811b8282061a8353049182156137c15791908261373b565b613740565b95830195613700565b95906064600291049101956136f5565b600491979204910195876136ea565b600891979204910195876136dd565b601091979204910195876136ce565b8691979204910195876136bc565b6040985004915087806136a2565b5050600260005283857f405787fa12a823e0f2b7631cc41b3ba8828b3321ca811111fa75cd3aa3bb5ace856000915b85831061386d575050613678935082010161366c565b80919294505483858a0101520191018690858793613857565b60ff1916865261367894151560051b840101915061366c9050565b6064906040519062461bcd60e51b825260048201526014602482015273151bdad95b88191bd95cc81b9bdd08195e1a5cdd60621b6044820152fd5b50600554821115613634565b346102b75760203660031901126102b757613901613a16565b613909613cfb565b600680546001600160a01b0319166001600160a01b0392909216919091179055005b346102b75760203660031901126102b7576004356001600160401b0381116102b75760ff6139636020610ca381943690600401613a99565b8101601081520301902054166040519015158152f35b346102b75760203660031901126102b75760043563ffffffff60e01b81168091036102b757602090636cdb3d1360e11b81149081156139d6575b81156139c5575b506040519015158152f35b6301ffc9a760e01b149050826139ba565b6303a24d0760e21b811491506139b3565b346102b75760403660031901126102b7576020613a0e613a05613a16565b60243590613d53565b604051908152f35b600435906001600160a01b03821682036102b757565b602435906001600160a01b03821682036102b757565b604081019081106001600160401b03821117610e2457604052565b90601f801991011681019081106001600160401b03821117610e2457604052565b6001600160401b038111610e2457601f01601f191660200190565b81601f820112156102b757803590613ab082613a7e565b92613abe6040519485613a5d565b828452602083830101116102b757816000926020809301838601378301015290565b60005b838110613af35750506000910152565b8181015183820152602001613ae3565b90602091613b1c81518092818552858086019101613ae0565b601f01601f1916010190565b9060088210156129eb5752565b9060078210156129eb5752565b60406003198201126102b757600435906001600160401b0382116102b757613b6c91600401613a99565b9060243590565b6001600160401b038111610e245760051b60200190565b81601f820112156102b757803591613ba183613b73565b92613baf6040519485613a5d565b808452602092838086019260051b8201019283116102b7578301905b828210613bd9575050505090565b81358152908301908301613bcb565b90815180825260208080930193019160005b828110613c08575050505090565b835185529381019392810192600101613bfa565b6024359081151582036102b757565b90600182811c92168015613c5b575b6020831014613c4557565b634e487b7160e01b600052602260045260246000fd5b91607f1691613c3a565b9060009291805491613c7683613c2b565b918282526001938481169081600014613cd85750600114613c98575b50505050565b90919394506000526020928360002092846000945b838610613cc4575050505001019038808080613c92565b805485870183015294019385908201613cad565b9294505050602093945060ff191683830152151560051b01019038808080613c92565b6003546001600160a01b03163303613d0f57565b606460405162461bcd60e51b815260206004820152602060248201527f4f776e61626c653a2063616c6c6572206973206e6f7420746865206f776e65726044820152fd5b6001600160a01b0316908115613d8057600052600060205260406000209060005260205260406000205490565b60405162461bcd60e51b815260206004820152602a60248201527f455243313135353a2061646472657373207a65726f206973206e6f742061207660448201526930b634b21037bbb732b960b11b6064820152608490fd5b60001981146123105760010190565b8051821015613dfb5760209160051b010190565b634e487b7160e01b600052603260045260246000fd5b15613e1857565b60405162461bcd60e51b815260206004820152602e60248201527f455243313135353a2063616c6c6572206973206e6f7420746f6b656e206f776e60448201526d195c881bdc88185c1c1c9bdd995960921b6064820152608490fd5b15613e7b57565b60405162461bcd60e51b815260206004820152602560248201527f455243313135353a207472616e7366657220746f20746865207a65726f206164604482015264647265737360d81b6064820152608490fd5b15613ed557565b60405162461bcd60e51b815260206004820152602a60248201527f455243313135353a20696e73756666696369656e742062616c616e636520666f60448201526939103a3930b739b332b960b11b6064820152608490fd5b9190820180921161231057565b908160209103126102b757516001600160e01b0319811681036102b75790565b60809060208152602860208201527f455243313135353a204552433131353552656365697665722072656a656374656040820152676420746f6b656e7360c01b60608201520190565b60009060033d11613fb057565b905060046000803e60005160e01c90565b600060443d1061401e57604051600319913d83016004833e81516001600160401b03918282113d60248401111761402157818401948551938411614029573d85010160208487010111614021575061401e92910160200190613a5d565b90565b949350505050565b50949350505050565b6040519061403f82613a42565b60018252602082016020368237825115613dfb575290565b8115614061570490565b634e487b7160e01b600052601260045260246000fd5b8181029291811591840414171561231057565b1561409157565b60405162461bcd60e51b815260206004820152601c60248201527f4f6e6c79205245524120636f6d706c69616e6365206f666669636572000000006044820152606490fd5b156140dd57565b60405162461bcd60e51b815260206004820152601660248201527524b73b30b634b210383937b832b93a3c903a37b5b2b760511b6044820152606490fd5b60409061401e9392151581528160208201520190613c65565b1561413b57565b60405162461bcd60e51b815260206004820152601660248201527510dd5c9c995b98de481b9bdd081cdd5c1c1bdc9d195960521b6044820152606490fd5b60ff60035460a01c1661418857565b60405162461bcd60e51b815260206004820152601060248201526f14185d5cd8589b194e881c185d5cd95960821b6044820152606490fd5b6002600454146141d1576002600455565b60405162461bcd60e51b815260206004820152601f60248201527f5265656e7472616e637947756172643a207265656e7472616e742063616c6c006044820152606490fd5b919082039182116123105756fea264697066735822122097668ec18dfedfc25842bdeac6134d052529e1bc406c3cc0ebe6c1e9d322b53764736f6c63430008130033","opcodes":"PUSH1 0x80 PUSH1 0x40 MSTORE CALLVALUE PUSH3 0x45A JUMPI PUSH3 0x46F4 DUP1 CODESIZE SUB DUP1 PUSH3 0x1D DUP2 PUSH3 0x45F JUMP JUMPDEST SWAP3 DUP4 CODECOPY DUP2 ADD PUSH1 0x60 DUP3 DUP3 SUB SLT PUSH3 0x45A JUMPI DUP2 MLOAD PUSH1 0x1 PUSH1 0x1 PUSH1 0x40 SHL SUB SWAP3 SWAP1 DUP4 DUP2 GT PUSH3 0x45A JUMPI DUP2 ADD SWAP3 PUSH1 0x1F DUP4 DUP2 DUP7 ADD SLT ISZERO PUSH3 0x45A JUMPI DUP5 MLOAD SWAP4 DUP3 DUP6 GT PUSH3 0x42F JUMPI PUSH1 0x20 SWAP5 PUSH1 0x1F NOT SWAP7 PUSH3 0x74 DUP8 DUP10 DUP7 DUP6 ADD AND ADD PUSH3 0x45F JUMP JUMPDEST SWAP3 DUP3 DUP5 MSTORE DUP8 DUP4 DUP4 ADD ADD GT PUSH3 0x45A JUMPI DUP7 SWAP1 PUSH1 0x0 JUMPDEST DUP4 DUP2 LT PUSH3 0x445 JUMPI POP POP PUSH1 0x0 SWAP2 DUP4 ADD ADD MSTORE PUSH3 0xB4 PUSH1 0x40 PUSH3 0xAC DUP8 DUP8 ADD PUSH3 0x485 JUMP JUMPDEST SWAP6 ADD PUSH3 0x485 JUMP JUMPDEST SWAP5 DUP2 MLOAD SWAP4 DUP5 GT PUSH3 0x42F JUMPI PUSH1 0x2 SLOAD PUSH1 0x1 DUP2 DUP2 SHR SWAP2 AND DUP1 ISZERO PUSH3 0x424 JUMPI JUMPDEST DUP3 DUP3 LT EQ PUSH3 0x40E JUMPI DUP4 DUP2 GT PUSH3 0x3C5 JUMPI JUMPDEST POP DUP1 SWAP3 DUP5 GT PUSH1 0x1 EQ PUSH3 0x356 JUMPI POP PUSH1 0x23 SWAP6 POP PUSH1 0x0 SWAP2 SWAP1 DUP4 PUSH3 0x34A JUMPI JUMPDEST POP POP DUP2 PUSH1 0x1 SHL SWAP2 PUSH1 0x0 NOT SWAP1 PUSH1 0x3 SHL SHR NOT AND OR PUSH1 0x2 SSTORE JUMPDEST PUSH1 0x3 SLOAD PUSH1 0x40 MLOAD SWAP3 PUSH1 0x1 PUSH1 0x1 PUSH1 0xA0 SHL SUB SWAP2 CALLER DUP4 DUP3 AND PUSH32 0x8BE0079C531659141344CD1FD0A4F28419497F9722A3DAAFE3B4186F6B6457E0 PUSH1 0x0 DUP1 LOG3 PUSH1 0xFF PUSH1 0xA0 SHL NOT CALLER AND SWAP1 PUSH1 0x1 DUP1 PUSH1 0xA8 SHL SUB NOT AND OR PUSH1 0x3 SSTORE PUSH1 0x1 PUSH1 0x4 SSTORE DUP2 PUSH1 0x1 DUP1 PUSH1 0xA0 SHL SUB NOT SWAP4 AND DUP4 PUSH1 0x6 SLOAD AND OR PUSH1 0x6 SSTORE AND SWAP1 PUSH1 0x7 SLOAD AND OR PUSH1 0x7 SSTORE PUSH3 0x105151 PUSH1 0xEA SHL DUP2 MSTORE PUSH1 0x10 PUSH1 0x3 DUP3 ADD MSTORE KECCAK256 PUSH1 0x1 PUSH1 0xFF NOT DUP3 SLOAD AND OR SWAP1 SSTORE PUSH1 0x23 PUSH1 0x40 MLOAD PUSH3 0x1554D1 PUSH1 0xEA SHL DUP2 MSTORE PUSH1 0x10 PUSH1 0x3 DUP3 ADD MSTORE KECCAK256 PUSH1 0x1 PUSH1 0xFF NOT DUP3 SLOAD AND OR SWAP1 SSTORE PUSH1 0x23 PUSH1 0x40 MLOAD PUSH3 0x22AAA9 PUSH1 0xE9 SHL DUP2 MSTORE PUSH1 0x10 PUSH1 0x3 DUP3 ADD MSTORE KECCAK256 PUSH1 0x1 PUSH1 0xFF NOT DUP3 SLOAD AND OR SWAP1 SSTORE PUSH1 0x23 PUSH1 0x40 MLOAD PUSH3 0x47425 PUSH1 0xEC SHL DUP2 MSTORE PUSH1 0x10 PUSH1 0x3 DUP3 ADD MSTORE KECCAK256 PUSH1 0x1 PUSH1 0xFF NOT DUP3 SLOAD AND OR SWAP1 SSTORE PUSH1 0x23 PUSH1 0x40 MLOAD PUSH3 0x29A0A9 PUSH1 0xE9 SHL DUP2 MSTORE PUSH1 0x10 PUSH1 0x3 DUP3 ADD MSTORE KECCAK256 PUSH1 0x1 PUSH1 0xFF NOT DUP3 SLOAD AND OR SWAP1 SSTORE PUSH1 0x23 PUSH1 0x40 MLOAD PUSH3 0x28A0A9 PUSH1 0xE9 SHL DUP2 MSTORE PUSH1 0x10 PUSH1 0x3 DUP3 ADD MSTORE KECCAK256 PUSH1 0x1 PUSH1 0xFF NOT DUP3 SLOAD AND OR SWAP1 SSTORE PUSH1 0x23 PUSH1 0x40 MLOAD PUSH3 0x12D5D1 PUSH1 0xEA SHL DUP2 MSTORE PUSH1 0x10 PUSH1 0x3 DUP3 ADD MSTORE KECCAK256 PUSH1 0x1 PUSH1 0xFF NOT DUP3 SLOAD AND OR SWAP1 SSTORE PUSH8 0x126E00F6C5B8000 PUSH1 0x23 PUSH1 0x40 MLOAD PUSH3 0x105151 PUSH1 0xEA SHL DUP2 MSTORE PUSH8 0xDE0B6B3A7640000 DUP3 PUSH1 0x11 SWAP3 DUP4 PUSH1 0x3 DUP3 ADD MSTORE KECCAK256 SSTORE DUP2 PUSH1 0x40 MLOAD PUSH3 0x1554D1 PUSH1 0xEA SHL DUP2 MSTORE DUP3 PUSH1 0x3 DUP3 ADD MSTORE PUSH8 0x3C6568F12E80000 SWAP2 DUP3 SWAP2 KECCAK256 SSTORE PUSH8 0x369F7B256BF0000 DUP4 PUSH1 0x40 MLOAD PUSH3 0x22AAA9 PUSH1 0xE9 SHL DUP2 MSTORE DUP5 PUSH1 0x3 DUP3 ADD MSTORE KECCAK256 SSTORE PUSH8 0x2F847DDBDEF0000 DUP4 PUSH1 0x40 MLOAD PUSH3 0x47425 PUSH1 0xEC SHL DUP2 MSTORE DUP5 PUSH1 0x3 DUP3 ADD MSTORE KECCAK256 SSTORE DUP3 PUSH1 0x40 MLOAD PUSH3 0x29A0A9 PUSH1 0xE9 SHL DUP2 MSTORE DUP4 PUSH1 0x3 DUP3 ADD MSTORE KECCAK256 SSTORE PUSH8 0xE043DA617250000 DUP3 PUSH1 0x40 MLOAD PUSH3 0x28A0A9 PUSH1 0xE9 SHL DUP2 MSTORE DUP4 PUSH1 0x3 DUP3 ADD MSTORE KECCAK256 SSTORE PUSH1 0x40 MLOAD SWAP1 PUSH3 0x12D5D1 PUSH1 0xEA SHL DUP3 MSTORE PUSH1 0x3 DUP3 ADD MSTORE KECCAK256 SSTORE PUSH1 0x40 MLOAD PUSH2 0x4259 SWAP1 DUP2 PUSH3 0x49B DUP3 CODECOPY RETURN JUMPDEST ADD MLOAD SWAP1 POP CODESIZE DUP1 PUSH3 0x100 JUMP JUMPDEST SWAP3 SWAP6 DUP7 AND PUSH1 0x2 PUSH1 0x0 MSTORE DUP4 PUSH1 0x0 KECCAK256 SWAP4 PUSH1 0x0 SWAP1 JUMPDEST DUP3 DUP3 LT PUSH3 0x3AC JUMPI POP POP SWAP2 PUSH1 0x1 SWAP4 SWAP2 DUP8 PUSH1 0x23 SWAP9 SWAP5 LT PUSH3 0x392 JUMPI JUMPDEST POP POP POP DUP2 SHL ADD PUSH1 0x2 SSTORE PUSH3 0x116 JUMP JUMPDEST ADD MLOAD PUSH1 0x0 NOT PUSH1 0xF8 DUP5 PUSH1 0x3 SHL AND SHR NOT AND SWAP1 SSTORE CODESIZE DUP1 DUP1 PUSH3 0x383 JUMP JUMPDEST DUP1 PUSH1 0x1 DUP7 SWAP8 DUP3 SWAP5 SWAP8 DUP8 ADD MLOAD DUP2 SSTORE ADD SWAP7 ADD SWAP5 ADD SWAP1 PUSH3 0x368 JUMP JUMPDEST PUSH1 0x2 PUSH1 0x0 MSTORE DUP2 PUSH1 0x0 KECCAK256 DUP5 DUP1 DUP8 ADD PUSH1 0x5 SHR DUP3 ADD SWAP3 DUP5 DUP9 LT PUSH3 0x404 JUMPI JUMPDEST ADD PUSH1 0x5 SHR ADD SWAP1 JUMPDEST DUP2 DUP2 LT PUSH3 0x3F7 JUMPI POP PUSH3 0xE3 JUMP JUMPDEST PUSH1 0x0 DUP2 SSTORE PUSH1 0x1 ADD PUSH3 0x3E8 JUMP JUMPDEST SWAP3 POP DUP2 SWAP3 PUSH3 0x3E1 JUMP JUMPDEST PUSH4 0x4E487B71 PUSH1 0xE0 SHL PUSH1 0x0 MSTORE PUSH1 0x22 PUSH1 0x4 MSTORE PUSH1 0x24 PUSH1 0x0 REVERT JUMPDEST SWAP1 PUSH1 0x7F AND SWAP1 PUSH3 0xD1 JUMP JUMPDEST PUSH4 0x4E487B71 PUSH1 0xE0 SHL PUSH1 0x0 MSTORE PUSH1 0x41 PUSH1 0x4 MSTORE PUSH1 0x24 PUSH1 0x0 REVERT JUMPDEST DUP2 DUP2 ADD DUP4 ADD MLOAD DUP6 DUP3 ADD DUP5 ADD MSTORE DUP9 SWAP3 ADD PUSH3 0x88 JUMP JUMPDEST PUSH1 0x0 DUP1 REVERT JUMPDEST PUSH1 0x40 MLOAD SWAP2 SWAP1 PUSH1 0x1F ADD PUSH1 0x1F NOT AND DUP3 ADD PUSH1 0x1 PUSH1 0x1 PUSH1 0x40 SHL SUB DUP2 GT DUP4 DUP3 LT OR PUSH3 0x42F JUMPI PUSH1 0x40 MSTORE JUMP JUMPDEST MLOAD SWAP1 PUSH1 0x1 PUSH1 0x1 PUSH1 0xA0 SHL SUB DUP3 AND DUP3 SUB PUSH3 0x45A JUMPI JUMP INVALID PUSH1 0x80 PUSH1 0x40 MSTORE PUSH1 0x4 CALLDATASIZE LT ISZERO PUSH2 0x12 JUMPI PUSH1 0x0 DUP1 REVERT JUMPDEST PUSH1 0x0 CALLDATALOAD PUSH1 0xE0 SHR DUP1 PUSH3 0xFDD58E EQ PUSH2 0x39E7 JUMPI DUP1 PUSH4 0x1FFC9A7 EQ PUSH2 0x3979 JUMPI DUP1 PUSH4 0x51E6604 EQ PUSH2 0x392B JUMPI DUP1 PUSH4 0xBC82DEA EQ PUSH2 0x38E8 JUMPI DUP1 PUSH4 0xE89341C EQ PUSH2 0x3615 JUMPI DUP1 PUSH4 0x126DBE43 EQ PUSH2 0x3463 JUMPI DUP1 PUSH4 0x14C360A2 EQ PUSH2 0x3429 JUMPI DUP1 PUSH4 0x1A6C4CA1 EQ PUSH2 0x33EA JUMPI DUP1 PUSH4 0x1C749203 EQ PUSH2 0x337F JUMPI DUP1 PUSH4 0x1E0A9045 EQ PUSH2 0x3353 JUMPI DUP1 PUSH4 0x24063C82 EQ PUSH2 0x330D JUMPI DUP1 PUSH4 0x2D878B4E EQ PUSH2 0x325C JUMPI DUP1 PUSH4 0x2EB2C2D6 EQ PUSH2 0x2E9A JUMPI DUP1 PUSH4 0x3F1EBF53 EQ PUSH2 0x2E6E JUMPI DUP1 PUSH4 0x3F4BA83A EQ PUSH2 0x2DD2 JUMPI DUP1 PUSH4 0x41A1727B EQ PUSH2 0x2D93 JUMPI DUP1 PUSH4 0x43225ACD EQ PUSH2 0x2D4A JUMPI DUP1 PUSH4 0x4E1273F4 EQ PUSH2 0x2BAC JUMPI DUP1 PUSH4 0x564C0AEC EQ PUSH2 0x2B3D JUMPI DUP1 PUSH4 0x5C975ABB EQ PUSH2 0x2B17 JUMPI DUP1 PUSH4 0x6641CC64 EQ PUSH2 0x2AD8 JUMPI DUP1 PUSH4 0x6C29C256 EQ PUSH2 0x2AAF JUMPI DUP1 PUSH4 0x715018A6 EQ PUSH2 0x2A52 JUMPI DUP1 PUSH4 0x757E4B5B EQ PUSH2 0x2877 JUMPI DUP1 PUSH4 0x7B3D9112 EQ PUSH2 0x1ED5 JUMPI DUP1 PUSH4 0x81597F12 EQ PUSH2 0x1E91 JUMPI DUP1 PUSH4 0x82859FE6 EQ PUSH2 0x1E27 JUMPI DUP1 PUSH4 0x8456CB59 EQ PUSH2 0x1DC5 JUMPI DUP1 PUSH4 0x8DA5CB5B EQ PUSH2 0x1D9C JUMPI DUP1 PUSH4 0x9207D8B3 EQ PUSH2 0x1C19 JUMPI DUP1 PUSH4 0x922BC481 EQ PUSH2 0x1BF0 JUMPI DUP1 PUSH4 0x9244ADCD EQ PUSH2 0x1BA8 JUMPI DUP1 PUSH4 0xA031A1BD EQ PUSH2 0x1B63 JUMPI DUP1 PUSH4 0xA04725C6 EQ PUSH2 0x1B0E JUMPI DUP1 PUSH4 0xA22CB465 EQ PUSH2 0x1A24 JUMPI DUP1 PUSH4 0xADFE3B01 EQ PUSH2 0x19C6 JUMPI DUP1 PUSH4 0xB362829B EQ PUSH2 0x1021 JUMPI DUP1 PUSH4 0xB8F1D64D EQ PUSH2 0xFCE JUMPI DUP1 PUSH4 0xBD7047C4 EQ PUSH2 0xE83 JUMPI DUP1 PUSH4 0xC0A34171 EQ PUSH2 0xE3A JUMPI DUP1 PUSH4 0xC729C9F3 EQ PUSH2 0xCC9 JUMPI DUP1 PUSH4 0xC7602EA8 EQ PUSH2 0xC6D JUMPI DUP1 PUSH4 0xCC30DC3C EQ PUSH2 0xC2A JUMPI DUP1 PUSH4 0xD40E8429 EQ PUSH2 0xBE2 JUMPI DUP1 PUSH4 0xE6359DF5 EQ PUSH2 0xBA3 JUMPI DUP1 PUSH4 0xE985E9C5 EQ PUSH2 0xB4D JUMPI DUP1 PUSH4 0xF242432A EQ PUSH2 0x7BD JUMPI DUP1 PUSH4 0xF2FDE38B EQ PUSH2 0x6F4 JUMPI DUP1 PUSH4 0xF6C3AC7C EQ PUSH2 0x513 JUMPI DUP1 PUSH4 0xF7B10808 EQ PUSH2 0x35E JUMPI DUP1 PUSH4 0xF89F57ED EQ PUSH2 0x2FB JUMPI DUP1 PUSH4 0xFD12F788 EQ PUSH2 0x2BC JUMPI PUSH4 0xFEAA414A EQ PUSH2 0x262 JUMPI PUSH1 0x0 DUP1 REVERT JUMPDEST CALLVALUE PUSH2 0x2B7 JUMPI PUSH1 0x40 CALLDATASIZE PUSH1 0x3 NOT ADD SLT PUSH2 0x2B7 JUMPI PUSH2 0x2B5 PUSH2 0x27E PUSH2 0x3A16 JUMP JUMPDEST PUSH2 0x286 PUSH2 0x3C1C JUMP JUMPDEST SWAP1 PUSH2 0x28F PUSH2 0x3CFB JUMP JUMPDEST PUSH1 0x1 DUP1 PUSH1 0xA0 SHL SUB AND PUSH1 0x0 MSTORE PUSH1 0xE PUSH1 0x20 MSTORE PUSH1 0x40 PUSH1 0x0 KECCAK256 SWAP1 PUSH1 0xFF DUP1 NOT DUP4 SLOAD AND SWAP2 ISZERO ISZERO AND OR SWAP1 SSTORE JUMP JUMPDEST STOP JUMPDEST PUSH1 0x0 DUP1 REVERT JUMPDEST CALLVALUE PUSH2 0x2B7 JUMPI PUSH1 0x20 CALLDATASIZE PUSH1 0x3 NOT ADD SLT PUSH2 0x2B7 JUMPI PUSH1 0x1 PUSH1 0x1 PUSH1 0xA0 SHL SUB PUSH2 0x2DD PUSH2 0x3A16 JUMP JUMPDEST AND PUSH1 0x0 MSTORE PUSH1 0x15 PUSH1 0x20 MSTORE PUSH1 0x20 PUSH1 0xFF PUSH1 0x40 PUSH1 0x0 KECCAK256 SLOAD AND PUSH1 0x40 MLOAD SWAP1 ISZERO ISZERO DUP2 MSTORE RETURN JUMPDEST CALLVALUE PUSH2 0x2B7 JUMPI PUSH1 0x20 CALLDATASIZE PUSH1 0x3 NOT ADD SLT PUSH2 0x2B7 JUMPI PUSH1 0x1 PUSH1 0x1 PUSH1 0xA0 SHL SUB PUSH2 0x31C PUSH2 0x3A16 JUMP JUMPDEST AND PUSH1 0x0 MSTORE PUSH1 0xF PUSH1 0x20 MSTORE PUSH2 0x35A PUSH2 0x33F PUSH2 0x346 PUSH1 0x40 PUSH1 0x0 KECCAK256 PUSH1 0x40 MLOAD SWAP3 DUP4 DUP1 SWAP3 PUSH2 0x3C65 JUMP JUMPDEST SUB DUP3 PUSH2 0x3A5D JUMP JUMPDEST PUSH1 0x40 MLOAD SWAP2 DUP3 SWAP2 PUSH1 0x20 DUP4 MSTORE PUSH1 0x20 DUP4 ADD SWAP1 PUSH2 0x3B03 JUMP JUMPDEST SUB SWAP1 RETURN JUMPDEST CALLVALUE PUSH2 0x2B7 JUMPI PUSH1 0x20 CALLDATASIZE PUSH1 0x3 NOT ADD SLT PUSH2 0x2B7 JUMPI PUSH1 0x4 CALLDATALOAD PUSH1 0x0 MSTORE PUSH1 0x8 PUSH1 0x20 MSTORE PUSH1 0x40 PUSH1 0x0 KECCAK256 DUP1 SLOAD PUSH1 0x40 MLOAD SWAP2 DUP3 DUP1 PUSH1 0x1 DUP4 ADD SWAP1 PUSH2 0x395 SWAP2 PUSH2 0x3C65 JUMP JUMPDEST SUB PUSH2 0x3A0 SWAP1 DUP5 PUSH2 0x3A5D JUMP JUMPDEST PUSH1 0x40 MLOAD DUP1 PUSH2 0x3B1 DUP2 PUSH1 0x2 DUP6 ADD PUSH2 0x3C65 JUMP JUMPDEST SUB PUSH2 0x3BC SWAP1 DUP3 PUSH2 0x3A5D JUMP JUMPDEST PUSH1 0x40 MLOAD SWAP2 DUP3 PUSH2 0x3CE DUP2 PUSH1 0x3 DUP5 ADD PUSH2 0x3C65 JUMP JUMPDEST SUB PUSH2 0x3D9 SWAP1 DUP5 PUSH2 0x3A5D JUMP JUMPDEST PUSH1 0x40 MLOAD SWAP3 DUP4 PUSH2 0x3EB DUP2 PUSH1 0x4 DUP6 ADD PUSH2 0x3C65 JUMP JUMPDEST SUB PUSH2 0x3F6 SWAP1 DUP6 PUSH2 0x3A5D JUMP JUMPDEST PUSH1 0x40 MLOAD SWAP4 DUP5 PUSH2 0x408 DUP2 PUSH1 0x5 DUP7 ADD PUSH2 0x3C65 JUMP JUMPDEST SUB PUSH2 0x413 SWAP1 DUP7 PUSH2 0x3A5D JUMP JUMPDEST PUSH1 0x6 DUP4 ADD SLOAD SWAP5 PUSH1 0x7 DUP5 ADD SLOAD PUSH1 0x8 DUP6 ADD SLOAD SWAP2 PUSH1 0x9 DUP7 ADD SLOAD SWAP4 PUSH1 0xA DUP8 ADD SLOAD SWAP6 PUSH1 0xB DUP9 ADD SLOAD SWAP8 PUSH1 0xC ADD SLOAD SWAP9 PUSH1 0x40 MLOAD SWAP13 DUP14 SWAP13 DUP14 MSTORE DUP13 PUSH2 0x200 PUSH1 0x20 DUP2 SWAP3 ADD MSTORE DUP14 ADD PUSH2 0x458 SWAP2 PUSH2 0x3B03 JUMP JUMPDEST DUP13 DUP2 SUB PUSH1 0x40 DUP15 ADD MSTORE PUSH2 0x469 SWAP2 PUSH2 0x3B03 JUMP JUMPDEST DUP12 DUP2 SUB PUSH1 0x60 DUP14 ADD MSTORE PUSH2 0x47A SWAP2 PUSH2 0x3B03 JUMP JUMPDEST DUP11 DUP2 SUB PUSH1 0x80 DUP13 ADD MSTORE PUSH2 0x48B SWAP2 PUSH2 0x3B03 JUMP JUMPDEST DUP10 DUP2 SUB PUSH1 0xA0 DUP12 ADD MSTORE PUSH2 0x49C SWAP2 PUSH2 0x3B03 JUMP JUMPDEST SWAP7 PUSH1 0xC0 DUP10 ADD MSTORE PUSH1 0xE0 DUP9 ADD MSTORE PUSH2 0x100 DUP8 ADD MSTORE PUSH2 0x120 DUP7 ADD PUSH1 0xFF DUP3 AND SWAP1 PUSH2 0x4C0 SWAP2 PUSH2 0x3B28 JUMP JUMPDEST PUSH2 0x4D5 PUSH2 0x140 DUP8 ADD PUSH1 0xFF PUSH1 0x8 DUP5 SWAP1 SHR AND PUSH2 0x3B35 JUMP JUMPDEST PUSH1 0x10 SHR PUSH1 0x1 PUSH1 0x1 PUSH1 0xA0 SHL SUB AND PUSH2 0x160 DUP7 ADD MSTORE PUSH2 0x180 DUP6 ADD MSTORE PUSH2 0x1A0 DUP5 ADD MSTORE PUSH1 0xFF DUP2 DUP2 AND ISZERO ISZERO PUSH2 0x1C0 DUP6 ADD MSTORE PUSH1 0x8 SWAP2 SWAP1 SWAP2 SHR AND ISZERO ISZERO PUSH2 0x1E0 DUP4 ADD MSTORE SUB SWAP1 RETURN JUMPDEST CALLVALUE PUSH2 0x2B7 JUMPI PUSH1 0x40 CALLDATASIZE PUSH1 0x3 NOT ADD SLT PUSH2 0x2B7 JUMPI PUSH1 0x4 CALLDATALOAD PUSH2 0x52F PUSH2 0x3C1C JUMP JUMPDEST DUP2 ISZERO ISZERO DUP1 PUSH2 0x6E8 JUMPI JUMPDEST PUSH2 0x541 SWAP1 PUSH2 0x40D6 JUMP JUMPDEST PUSH1 0x7 SLOAD CALLER PUSH1 0x1 PUSH1 0x1 PUSH1 0xA0 SHL SUB SWAP2 DUP3 AND EQ SWAP1 DUP2 ISZERO PUSH2 0x6DA JUMPI JUMPDEST POP ISZERO PUSH2 0x695 JUMPI PUSH1 0x80 PUSH32 0x20B345B4664A5508210399C82A489058C52A890C6F67BF425155CC1FA5CB6D26 SWAP2 DUP4 PUSH1 0x0 MSTORE PUSH1 0x8 PUSH1 0x20 MSTORE PUSH1 0x40 PUSH1 0x0 KECCAK256 SWAP1 DUP5 PUSH32 0x67421C3F2530A41215A6F7BE6A0B71ED990A01D4383295DD62B0B25496BD5E3E PUSH1 0xC DUP5 ADD SWAP3 DUP1 ISZERO ISZERO SWAP4 DUP1 SLOAD SWAP1 PUSH2 0xFF00 NOT SWAP2 DUP3 PUSH2 0xFF00 DUP9 PUSH1 0x8 SHL AND SWAP2 AND OR SWAP1 SSTORE PUSH2 0x60C DUP3 PUSH1 0x2E PUSH1 0x40 MLOAD PUSH1 0xE PUSH14 0x11131117D49151D254D511549151 PUSH1 0x92 SHL SWAP11 DUP12 DUP4 MSTORE ADD PUSH1 0xE DUP3 ADD MSTORE KECCAK256 SWAP1 PUSH1 0xFF DUP1 NOT DUP4 SLOAD AND SWAP2 ISZERO ISZERO AND OR SWAP1 SSTORE JUMP JUMPDEST DUP2 DUP1 PUSH2 0x67A JUMPI JUMPDEST PUSH2 0x659 JUMPI JUMPDEST POP DUP3 PUSH1 0x0 MSTORE PUSH1 0x8 PUSH1 0x20 MSTORE PUSH1 0x2 PUSH1 0x40 PUSH1 0x0 KECCAK256 ADD SWAP1 PUSH2 0x63A PUSH1 0x40 MLOAD SWAP3 DUP4 SWAP3 DUP4 PUSH2 0x411B JUMP JUMPDEST SUB SWAP1 LOG2 PUSH1 0x40 MLOAD SWAP2 PUSH1 0x40 DUP4 MSTORE PUSH1 0xE PUSH1 0x40 DUP5 ADD MSTORE PUSH1 0x60 DUP4 ADD MSTORE PUSH1 0x20 DUP3 ADD MSTORE LOG2 STOP JUMPDEST DUP4 PUSH1 0x0 MSTORE PUSH1 0x8 PUSH1 0x20 MSTORE PUSH2 0x100 PUSH1 0x9 PUSH1 0x40 PUSH1 0x0 KECCAK256 ADD SWAP2 DUP3 SLOAD AND OR SWAP1 SSTORE DUP9 PUSH2 0x618 JUMP JUMPDEST POP DUP4 PUSH1 0x0 MSTORE PUSH1 0x8 PUSH1 0x20 MSTORE PUSH1 0xFF PUSH1 0xC PUSH1 0x40 PUSH1 0x0 KECCAK256 ADD SLOAD AND PUSH2 0x613 JUMP JUMPDEST PUSH1 0x40 MLOAD PUSH3 0x461BCD PUSH1 0xE5 SHL DUP2 MSTORE PUSH1 0x20 PUSH1 0x4 DUP3 ADD MSTORE PUSH1 0x1D PUSH1 0x24 DUP3 ADD MSTORE PUSH32 0x556E617574686F72697A656420444C4420726567697374726174696F6E000000 PUSH1 0x44 DUP3 ADD MSTORE PUSH1 0x64 SWAP1 REVERT JUMPDEST SWAP1 POP PUSH1 0x3 SLOAD AND CALLER EQ DUP4 PUSH2 0x559 JUMP JUMPDEST POP PUSH1 0x5 SLOAD DUP3 GT ISZERO PUSH2 0x538 JUMP JUMPDEST CALLVALUE PUSH2 0x2B7 JUMPI PUSH1 0x20 CALLDATASIZE PUSH1 0x3 NOT ADD SLT PUSH2 0x2B7 JUMPI PUSH2 0x70D PUSH2 0x3A16 JUMP JUMPDEST PUSH2 0x715 PUSH2 0x3CFB JUMP JUMPDEST PUSH1 0x1 PUSH1 0x1 PUSH1 0xA0 SHL SUB SWAP1 DUP2 AND SWAP1 DUP2 ISZERO PUSH2 0x769 JUMPI PUSH1 0x3 SLOAD DUP3 PUSH12 0xFFFFFFFFFFFFFFFFFFFFFFFF PUSH1 0xA0 SHL DUP3 AND OR PUSH1 0x3 SSTORE AND PUSH32 0x8BE0079C531659141344CD1FD0A4F28419497F9722A3DAAFE3B4186F6B6457E0 PUSH1 0x0 DUP1 LOG3 STOP JUMPDEST PUSH1 0x40 MLOAD PUSH3 0x461BCD PUSH1 0xE5 SHL DUP2 MSTORE PUSH1 0x20 PUSH1 0x4 DUP3 ADD MSTORE PUSH1 0x26 PUSH1 0x24 DUP3 ADD MSTORE PUSH32 0x4F776E61626C653A206E6577206F776E657220697320746865207A65726F2061 PUSH1 0x44 DUP3 ADD MSTORE PUSH6 0x646472657373 PUSH1 0xD0 SHL PUSH1 0x64 DUP3 ADD MSTORE PUSH1 0x84 SWAP1 REVERT JUMPDEST CALLVALUE PUSH2 0x2B7 JUMPI PUSH1 0xA0 CALLDATASIZE PUSH1 0x3 NOT ADD SLT PUSH2 0x2B7 JUMPI PUSH2 0x7D6 PUSH2 0x3A16 JUMP JUMPDEST PUSH2 0x7DE PUSH2 0x3A2C JUMP JUMPDEST SWAP1 PUSH1 0x64 CALLDATALOAD PUSH1 0x44 CALLDATALOAD PUSH1 0x84 CALLDATALOAD PUSH1 0x1 PUSH1 0x1 PUSH1 0x40 SHL SUB DUP2 GT PUSH2 0x2B7 JUMPI PUSH2 0x804 SWAP1 CALLDATASIZE SWAP1 PUSH1 0x4 ADD PUSH2 0x3A99 JUMP JUMPDEST PUSH1 0x1 PUSH1 0x1 PUSH1 0xA0 SHL SUB SWAP4 DUP5 AND SWAP4 CALLER DUP6 EQ DUP1 ISZERO PUSH2 0xB24 JUMPI JUMPDEST PUSH2 0x823 SWAP1 PUSH2 0x3E11 JUMP JUMPDEST DUP6 AND DUP1 ISZERO ISZERO PUSH2 0x831 DUP2 PUSH2 0x3E74 JUMP JUMPDEST PUSH2 0x83A DUP5 PUSH2 0x4032 JUMP JUMPDEST POP PUSH2 0x844 DUP6 PUSH2 0x4032 JUMP JUMPDEST POP PUSH2 0x84D PUSH2 0x4179 JUMP JUMPDEST DUP1 PUSH2 0xB1B JUMPI JUMPDEST PUSH2 0xA64 JUMPI JUMPDEST DUP3 PUSH1 0x0 MSTORE PUSH1 0x20 SWAP6 PUSH1 0x0 DUP8 MSTORE PUSH1 0x40 PUSH1 0x0 KECCAK256 DUP7 PUSH1 0x0 MSTORE DUP8 MSTORE DUP5 PUSH1 0x40 PUSH1 0x0 KECCAK256 SLOAD PUSH2 0x881 DUP3 DUP3 LT ISZERO PUSH2 0x3ECE JUMP JUMPDEST DUP6 PUSH1 0x0 MSTORE PUSH1 0x0 DUP10 MSTORE PUSH1 0x40 PUSH1 0x0 KECCAK256 DUP9 PUSH1 0x0 MSTORE DUP10 MSTORE SUB PUSH1 0x40 PUSH1 0x0 KECCAK256 SSTORE DUP4 PUSH1 0x0 MSTORE PUSH1 0x0 DUP8 MSTORE PUSH1 0x40 PUSH1 0x0 KECCAK256 DUP3 PUSH1 0x0 MSTORE DUP8 MSTORE PUSH1 0x40 PUSH1 0x0 KECCAK256 PUSH2 0x8BE DUP7 DUP3 SLOAD PUSH2 0x3F2D JUMP JUMPDEST SWAP1 SSTORE DUP2 DUP7 PUSH1 0x40 MLOAD DUP7 DUP2 MSTORE DUP8 DUP11 DUP3 ADD MSTORE PUSH32 0xC3D58168C5AE7397731D063D5BBF3D657854427343F4C083240F7AACAA2D0F62 PUSH1 0x40 CALLER SWAP3 LOG4 EXTCODESIZE PUSH2 0x8FA JUMPI STOP JUMPDEST PUSH2 0x93E SWAP4 PUSH1 0x0 DUP8 SWAP5 PUSH1 0x40 MLOAD SWAP7 DUP8 SWAP6 DUP7 SWAP5 DUP6 SWAP4 PUSH4 0xF23A6E61 PUSH1 0xE0 SHL SWAP12 DUP13 DUP7 MSTORE CALLER PUSH1 0x4 DUP8 ADD MSTORE PUSH1 0x24 DUP7 ADD MSTORE PUSH1 0x44 DUP6 ADD MSTORE PUSH1 0x64 DUP5 ADD MSTORE PUSH1 0xA0 PUSH1 0x84 DUP5 ADD MSTORE PUSH1 0xA4 DUP4 ADD SWAP1 PUSH2 0x3B03 JUMP JUMPDEST SUB SWAP3 GAS CALL PUSH1 0x0 SWAP2 DUP2 PUSH2 0xA35 JUMPI JUMPDEST POP PUSH2 0xA0A JUMPI POP POP PUSH1 0x1 SWAP1 PUSH2 0x95D PUSH2 0x3FA3 JUMP JUMPDEST PUSH4 0x8C379A0 EQ PUSH2 0x9D5 JUMPI JUMPDEST POP PUSH2 0x96F JUMPI STOP JUMPDEST PUSH1 0x40 MLOAD PUSH3 0x461BCD PUSH1 0xE5 SHL DUP2 MSTORE PUSH1 0x20 PUSH1 0x4 DUP3 ADD MSTORE PUSH1 0x34 PUSH1 0x24 DUP3 ADD MSTORE PUSH32 0x455243313135353A207472616E7366657220746F206E6F6E2D45524331313535 PUSH1 0x44 DUP3 ADD MSTORE PUSH20 0x2932B1B2B4BB32B91034B6B83632B6B2B73A32B9 PUSH1 0x61 SHL PUSH1 0x64 DUP3 ADD MSTORE PUSH1 0x84 SWAP1 REVERT JUMPDEST SUB SWAP1 REVERT JUMPDEST PUSH2 0x9DD PUSH2 0x3FC1 JUMP JUMPDEST SWAP1 DUP2 PUSH2 0x9E9 JUMPI POP PUSH2 0x968 JUMP JUMPDEST PUSH2 0x9D1 PUSH1 0x40 MLOAD SWAP3 DUP4 SWAP3 PUSH3 0x461BCD PUSH1 0xE5 SHL DUP5 MSTORE PUSH1 0x4 DUP5 ADD MSTORE PUSH1 0x24 DUP4 ADD SWAP1 PUSH2 0x3B03 JUMP JUMPDEST PUSH1 0x1 PUSH1 0x1 PUSH1 0xE0 SHL SUB NOT AND EQ SWAP1 POP PUSH2 0x2B5 JUMPI JUMPDEST PUSH1 0x40 MLOAD PUSH3 0x461BCD PUSH1 0xE5 SHL DUP2 MSTORE DUP1 PUSH2 0x9D1 PUSH1 0x4 DUP3 ADD PUSH2 0x3F5A JUMP JUMPDEST PUSH2 0xA56 SWAP2 SWAP3 POP DUP5 RETURNDATASIZE DUP7 GT PUSH2 0xA5D JUMPI JUMPDEST PUSH2 0xA4E DUP2 DUP4 PUSH2 0x3A5D JUMP JUMPDEST DUP2 ADD SWAP1 PUSH2 0x3F3A JUMP JUMPDEST SWAP1 DUP5 PUSH2 0x94B JUMP JUMPDEST POP RETURNDATASIZE PUSH2 0xA44 JUMP JUMPDEST DUP1 PUSH1 0x0 MSTORE PUSH1 0xD PUSH1 0x20 MSTORE PUSH1 0xFF PUSH1 0x40 PUSH1 0x0 KECCAK256 SLOAD AND ISZERO PUSH2 0xAD6 JUMPI DUP1 PUSH1 0x0 MSTORE PUSH1 0xE PUSH1 0x20 MSTORE PUSH1 0xFF PUSH1 0x40 PUSH1 0x0 KECCAK256 SLOAD AND PUSH2 0x858 JUMPI PUSH1 0x40 MLOAD PUSH3 0x461BCD PUSH1 0xE5 SHL DUP2 MSTORE PUSH1 0x20 PUSH1 0x4 DUP3 ADD MSTORE PUSH1 0x1D PUSH1 0x24 DUP3 ADD MSTORE PUSH32 0x526563697069656E74206D75737420626520414D4C20636C6561726564000000 PUSH1 0x44 DUP3 ADD MSTORE PUSH1 0x64 SWAP1 REVERT JUMPDEST PUSH1 0x40 MLOAD PUSH3 0x461BCD PUSH1 0xE5 SHL DUP2 MSTORE PUSH1 0x20 PUSH1 0x4 DUP3 ADD MSTORE PUSH1 0x1E PUSH1 0x24 DUP3 ADD MSTORE PUSH32 0x526563697069656E74206D757374206265204B594320617070726F7665640000 PUSH1 0x44 DUP3 ADD MSTORE PUSH1 0x64 SWAP1 REVERT JUMPDEST POP DUP5 ISZERO ISZERO PUSH2 0x853 JUMP JUMPDEST POP DUP5 PUSH1 0x0 MSTORE PUSH1 0x1 PUSH1 0x20 MSTORE PUSH1 0x40 PUSH1 0x0 KECCAK256 CALLER PUSH1 0x0 MSTORE PUSH1 0x20 MSTORE PUSH2 0x823 PUSH1 0xFF PUSH1 0x40 PUSH1 0x0 KECCAK256 SLOAD AND SWAP1 POP PUSH2 0x81A JUMP JUMPDEST CALLVALUE PUSH2 0x2B7 JUMPI PUSH1 0x40 CALLDATASIZE PUSH1 0x3 NOT ADD SLT PUSH2 0x2B7 JUMPI PUSH2 0xB66 PUSH2 0x3A16 JUMP JUMPDEST PUSH2 0xB6E PUSH2 0x3A2C JUMP JUMPDEST SWAP1 PUSH1 0x1 DUP1 PUSH1 0xA0 SHL SUB DUP1 SWAP2 AND PUSH1 0x0 MSTORE PUSH1 0x1 PUSH1 0x20 MSTORE PUSH1 0x40 PUSH1 0x0 KECCAK256 SWAP2 AND PUSH1 0x0 MSTORE PUSH1 0x20 MSTORE PUSH1 0x20 PUSH1 0xFF PUSH1 0x40 PUSH1 0x0 KECCAK256 SLOAD AND PUSH1 0x40 MLOAD SWAP1 ISZERO ISZERO DUP2 MSTORE RETURN JUMPDEST CALLVALUE PUSH2 0x2B7 JUMPI PUSH1 0x20 CALLDATASIZE PUSH1 0x3 NOT ADD SLT PUSH2 0x2B7 JUMPI PUSH1 0x1 PUSH1 0x1 PUSH1 0xA0 SHL SUB PUSH2 0xBC4 PUSH2 0x3A16 JUMP JUMPDEST AND PUSH1 0x0 MSTORE PUSH1 0x17 PUSH1 0x20 MSTORE PUSH1 0x20 PUSH1 0xFF PUSH1 0x40 PUSH1 0x0 KECCAK256 SLOAD AND PUSH1 0x40 MLOAD SWAP1 ISZERO ISZERO DUP2 MSTORE RETURN JUMPDEST CALLVALUE PUSH2 0x2B7 JUMPI PUSH1 0x40 CALLDATASIZE PUSH1 0x3 NOT ADD SLT PUSH2 0x2B7 JUMPI PUSH2 0xBFB PUSH2 0x3A2C JUMP JUMPDEST PUSH1 0x4 CALLDATALOAD PUSH1 0x0 MSTORE PUSH1 0x13 PUSH1 0x20 MSTORE PUSH1 0x40 PUSH1 0x0 KECCAK256 SWAP1 PUSH1 0x1 DUP1 PUSH1 0xA0 SHL SUB AND PUSH1 0x0 MSTORE PUSH1 0x20 MSTORE PUSH1 0x20 PUSH1 0x40 PUSH1 0x0 KECCAK256 SLOAD PUSH1 0x40 MLOAD SWAP1 DUP2 MSTORE RETURN JUMPDEST CALLVALUE PUSH2 0x2B7 JUMPI PUSH1 0x20 CALLDATASIZE PUSH1 0x3 NOT ADD SLT PUSH2 0x2B7 JUMPI PUSH2 0xC43 PUSH2 0x3A16 JUMP JUMPDEST PUSH2 0xC4B PUSH2 0x3CFB JUMP JUMPDEST PUSH1 0x7 DUP1 SLOAD PUSH1 0x1 PUSH1 0x1 PUSH1 0xA0 SHL SUB NOT AND PUSH1 0x1 PUSH1 0x1 PUSH1 0xA0 SHL SUB SWAP3 SWAP1 SWAP3 AND SWAP2 SWAP1 SWAP2 OR SWAP1 SSTORE STOP JUMPDEST CALLVALUE PUSH2 0x2B7 JUMPI PUSH1 0x20 CALLDATASIZE PUSH1 0x3 NOT ADD SLT PUSH2 0x2B7 JUMPI PUSH1 0x4 CALLDATALOAD PUSH1 0x1 PUSH1 0x1 PUSH1 0x40 SHL SUB DUP2 GT PUSH2 0x2B7 JUMPI PUSH2 0xCB6 PUSH1 0x20 PUSH2 0xCA3 DUP2 SWAP4 CALLDATASIZE SWAP1 PUSH1 0x4 ADD PUSH2 0x3A99 JUMP JUMPDEST DUP2 PUSH1 0x40 MLOAD SWAP4 DUP3 DUP6 DUP1 SWAP5 MLOAD SWAP4 DUP5 SWAP3 ADD PUSH2 0x3AE0 JUMP JUMPDEST DUP2 ADD PUSH1 0x9 DUP2 MSTORE SUB ADD SWAP1 KECCAK256 SLOAD PUSH1 0x40 MLOAD SWAP1 DUP2 MSTORE RETURN JUMPDEST CALLVALUE PUSH2 0x2B7 JUMPI PUSH1 0x40 CALLDATASIZE PUSH1 0x3 NOT ADD SLT PUSH2 0x2B7 JUMPI PUSH2 0xCE2 PUSH2 0x3A16 JUMP JUMPDEST PUSH1 0x1 PUSH1 0x1 PUSH1 0x40 SHL SUB PUSH1 0x24 CALLDATALOAD DUP2 DUP2 GT PUSH2 0x2B7 JUMPI PUSH2 0xD02 SWAP1 CALLDATASIZE SWAP1 PUSH1 0x4 ADD PUSH2 0x3A99 JUMP JUMPDEST SWAP2 PUSH2 0xD0B PUSH2 0x3CFB JUMP JUMPDEST PUSH1 0x1 DUP1 PUSH1 0xA0 SHL SUB AND PUSH1 0x0 MSTORE PUSH1 0x20 SWAP1 PUSH1 0xF DUP3 MSTORE PUSH1 0x40 PUSH1 0x0 KECCAK256 SWAP2 DUP4 MLOAD SWAP2 DUP3 GT PUSH2 0xE24 JUMPI PUSH2 0xD36 DUP4 SLOAD PUSH2 0x3C2B JUMP JUMPDEST PUSH1 0x1F DUP2 GT PUSH2 0xDDE JUMPI JUMPDEST POP DUP1 PUSH1 0x1F DUP4 GT PUSH1 0x1 EQ PUSH2 0xD7B JUMPI POP DUP2 SWAP3 SWAP4 PUSH1 0x0 SWAP3 PUSH2 0xD70 JUMPI JUMPDEST POP POP PUSH1 0x0 NOT PUSH1 0x3 DUP4 SWAP1 SHL SHR NOT AND PUSH1 0x1 SWAP2 SWAP1 SWAP2 SHL OR SWAP1 SSTORE STOP JUMPDEST ADD MLOAD SWAP1 POP DUP4 DUP1 PUSH2 0xD58 JUMP JUMPDEST SWAP1 PUSH1 0x1F NOT DUP4 AND SWAP5 DUP5 PUSH1 0x0 MSTORE DUP3 PUSH1 0x0 KECCAK256 SWAP3 PUSH1 0x0 SWAP1 JUMPDEST DUP8 DUP3 LT PUSH2 0xDC6 JUMPI POP POP DUP4 PUSH1 0x1 SWAP6 SWAP7 LT PUSH2 0xDAD JUMPI JUMPDEST POP POP POP DUP2 SHL ADD SWAP1 SSTORE STOP JUMPDEST ADD MLOAD PUSH1 0x0 NOT PUSH1 0xF8 DUP5 PUSH1 0x3 SHL AND SHR NOT AND SWAP1 SSTORE DUP4 DUP1 DUP1 PUSH2 0xDA3 JUMP JUMPDEST DUP1 PUSH1 0x1 DUP6 SWAP7 DUP3 SWAP5 SWAP7 DUP7 ADD MLOAD DUP2 SSTORE ADD SWAP6 ADD SWAP4 ADD SWAP1 PUSH2 0xD8F JUMP JUMPDEST DUP4 PUSH1 0x0 MSTORE DUP2 PUSH1 0x0 KECCAK256 PUSH1 0x1F DUP5 ADD PUSH1 0x5 SHR DUP2 ADD SWAP2 DUP4 DUP6 LT PUSH2 0xE1A JUMPI JUMPDEST PUSH1 0x1F ADD PUSH1 0x5 SHR ADD SWAP1 JUMPDEST DUP2 DUP2 LT PUSH2 0xE0E JUMPI POP PUSH2 0xD3F JUMP JUMPDEST PUSH1 0x0 DUP2 SSTORE PUSH1 0x1 ADD PUSH2 0xE01 JUMP JUMPDEST SWAP1 SWAP2 POP DUP2 SWAP1 PUSH2 0xDF8 JUMP JUMPDEST PUSH4 0x4E487B71 PUSH1 0xE0 SHL PUSH1 0x0 MSTORE PUSH1 0x41 PUSH1 0x4 MSTORE PUSH1 0x24 PUSH1 0x0 REVERT JUMPDEST CALLVALUE PUSH2 0x2B7 JUMPI PUSH1 0x20 CALLDATASIZE PUSH1 0x3 NOT ADD SLT PUSH2 0x2B7 JUMPI PUSH1 0x4 CALLDATALOAD PUSH1 0x1 PUSH1 0x1 PUSH1 0x40 SHL SUB DUP2 GT PUSH2 0x2B7 JUMPI PUSH2 0xE70 PUSH1 0x20 PUSH2 0xCA3 DUP2 SWAP4 CALLDATASIZE SWAP1 PUSH1 0x4 ADD PUSH2 0x3A99 JUMP JUMPDEST DUP2 ADD PUSH1 0xA DUP2 MSTORE SUB ADD SWAP1 KECCAK256 SLOAD PUSH1 0x40 MLOAD SWAP1 DUP2 MSTORE RETURN JUMPDEST CALLVALUE PUSH2 0x2B7 JUMPI PUSH1 0x20 DUP1 PUSH1 0x3 NOT CALLDATASIZE ADD SLT PUSH2 0x2B7 JUMPI PUSH1 0x4 CALLDATALOAD DUP1 ISZERO ISZERO DUP1 PUSH2 0xFC2 JUMPI JUMPDEST PUSH2 0xEAA SWAP1 PUSH2 0x40D6 JUMP JUMPDEST PUSH2 0xEB2 PUSH2 0x41C0 JUMP JUMPDEST PUSH2 0xEBC DUP2 CALLER PUSH2 0x3D53 JUMP JUMPDEST SWAP2 DUP3 ISZERO PUSH2 0xF8C JUMPI DUP2 PUSH1 0x0 MSTORE PUSH1 0x14 DUP2 MSTORE PUSH1 0x40 PUSH1 0x0 KECCAK256 SLOAD SWAP3 PUSH1 0x13 DUP3 MSTORE PUSH1 0x40 PUSH1 0x0 KECCAK256 CALLER PUSH1 0x0 MSTORE DUP3 MSTORE PUSH1 0x40 PUSH1 0x0 KECCAK256 SLOAD DUP1 DUP6 GT ISZERO PUSH2 0xF4F JUMPI PUSH32 0xA1594D215A577C1905BCB0B5B186A40A0104714277441D4B2AC428C89BF7F4B1 SWAP3 SWAP2 PUSH2 0xF1F PUSH2 0xF25 SWAP3 DUP8 PUSH2 0x4216 JUMP JUMPDEST SWAP1 PUSH2 0x4077 JUMP JUMPDEST SWAP4 DUP4 PUSH1 0x0 MSTORE PUSH1 0x13 DUP3 MSTORE PUSH1 0x40 PUSH1 0x0 KECCAK256 CALLER PUSH1 0x0 MSTORE DUP3 MSTORE PUSH1 0x40 PUSH1 0x0 KECCAK256 SSTORE PUSH1 0x40 MLOAD SWAP4 DUP5 MSTORE CALLER SWAP4 LOG3 PUSH1 0x1 PUSH1 0x4 SSTORE STOP JUMPDEST PUSH1 0x40 MLOAD PUSH3 0x461BCD PUSH1 0xE5 SHL DUP2 MSTORE PUSH1 0x4 DUP2 ADD DUP5 SWAP1 MSTORE PUSH1 0x15 PUSH1 0x24 DUP3 ADD MSTORE PUSH21 0x4E6F206469766964656E647320746F20636C61696D PUSH1 0x58 SHL PUSH1 0x44 DUP3 ADD MSTORE PUSH1 0x64 SWAP1 REVERT JUMPDEST PUSH1 0x64 SWAP1 PUSH1 0x40 MLOAD SWAP1 PUSH3 0x461BCD PUSH1 0xE5 SHL DUP3 MSTORE PUSH1 0x4 DUP3 ADD MSTORE PUSH1 0xF PUSH1 0x24 DUP3 ADD MSTORE PUSH15 0x139BC81D1BDAD95B9CC81BDDDB9959 PUSH1 0x8A SHL PUSH1 0x44 DUP3 ADD MSTORE REVERT JUMPDEST POP PUSH1 0x5 SLOAD DUP2 GT ISZERO PUSH2 0xEA1 JUMP JUMPDEST CALLVALUE PUSH2 0x2B7 JUMPI PUSH1 0x40 CALLDATASIZE PUSH1 0x3 NOT ADD SLT PUSH2 0x2B7 JUMPI PUSH2 0x2B5 PUSH2 0xFEA PUSH2 0x3A16 JUMP JUMPDEST PUSH2 0xFF2 PUSH2 0x3C1C JUMP JUMPDEST SWAP1 PUSH2 0xFFB PUSH2 0x3CFB JUMP JUMPDEST PUSH1 0x1 DUP1 PUSH1 0xA0 SHL SUB AND PUSH1 0x0 MSTORE PUSH1 0xD PUSH1 0x20 MSTORE PUSH1 0x40 PUSH1 0x0 KECCAK256 SWAP1 PUSH1 0xFF DUP1 NOT DUP4 SLOAD AND SWAP2 ISZERO ISZERO AND OR SWAP1 SSTORE JUMP JUMPDEST CALLVALUE PUSH2 0x2B7 JUMPI PUSH1 0x80 CALLDATASIZE PUSH1 0x3 NOT ADD SLT PUSH2 0x2B7 JUMPI PUSH1 0x44 PUSH1 0x4 CALLDATALOAD PUSH1 0x1 PUSH1 0x1 PUSH1 0x40 SHL SUB PUSH1 0x24 DUP1 CALLDATALOAD DUP5 CALLDATALOAD DUP4 DUP2 GT PUSH2 0x2B7 JUMPI PUSH2 0x105A SWAP1 CALLDATASIZE SWAP1 PUSH1 0x4 ADD PUSH2 0x3A99 JUMP JUMPDEST SWAP5 CALLER PUSH1 0x0 MSTORE PUSH1 0x20 SWAP3 PUSH1 0xD DUP5 MSTORE PUSH1 0xFF SWAP1 DUP2 PUSH1 0x40 PUSH1 0x0 KECCAK256 SLOAD AND ISZERO PUSH2 0x198C JUMPI CALLER PUSH1 0x0 MSTORE PUSH1 0xE DUP6 MSTORE DUP2 PUSH1 0x40 PUSH1 0x0 KECCAK256 SLOAD AND ISZERO PUSH2 0x1951 JUMPI DUP7 ISZERO ISZERO DUP1 PUSH2 0x1945 JUMPI JUMPDEST PUSH2 0x109D SWAP1 PUSH2 0x40D6 JUMP JUMPDEST DUP7 PUSH1 0x0 MSTORE PUSH1 0x8 SWAP3 DUP4 DUP7 MSTORE DUP3 PUSH1 0x9 PUSH1 0x40 PUSH1 0x0 KECCAK256 ADD SLOAD DUP6 SHR AND PUSH1 0x7 DUP2 LT ISZERO PUSH2 0x1930 JUMPI PUSH1 0x1 SUB PUSH2 0x18EE JUMPI DUP8 PUSH1 0x0 MSTORE DUP4 DUP7 MSTORE PUSH1 0xB PUSH1 0x40 PUSH1 0x0 KECCAK256 ADD SLOAD TIMESTAMP GT PUSH2 0x18B5 JUMPI SWAP1 DUP6 SWAP4 SWAP3 SWAP2 PUSH2 0x10E7 PUSH2 0x41C0 JUMP JUMPDEST PUSH2 0x10EF PUSH2 0x4179 JUMP JUMPDEST PUSH2 0x111E DUP4 PUSH2 0x110D DUP8 DUP14 PUSH1 0x40 MLOAD SWAP12 DUP13 SWAP4 DUP3 DUP6 SWAP4 MLOAD SWAP3 DUP4 SWAP2 ADD SWAP15 DUP16 PUSH2 0x3AE0 JUMP JUMPDEST DUP2 ADD PUSH1 0x10 DUP2 MSTORE SUB ADD SWAP1 KECCAK256 SLOAD AND PUSH2 0x4134 JUMP JUMPDEST DUP6 ISZERO PUSH2 0x187C JUMPI DUP9 PUSH1 0x0 MSTORE DUP4 DUP6 MSTORE PUSH1 0x40 PUSH1 0x0 KECCAK256 SWAP4 PUSH1 0xC DUP6 ADD SLOAD DUP5 DUP1 DUP3 AND SWAP2 DUP3 PUSH2 0x1870 JUMPI JUMPDEST POP POP ISZERO PUSH2 0x1835 JUMPI DUP6 PUSH2 0x1159 PUSH2 0x116C SWAP3 DUP8 ADD SLOAD DUP10 PUSH2 0x4077 JUMP JUMPDEST SWAP9 DUP13 PUSH1 0x40 MLOAD SWAP4 DUP5 SWAP3 DUP4 SWAP3 MLOAD SWAP3 DUP4 SWAP2 PUSH2 0x3AE0 JUMP JUMPDEST DUP2 ADD PUSH1 0x11 DUP2 MSTORE SUB ADD SWAP1 KECCAK256 SLOAD PUSH8 0xDE0B6B3A7640000 PUSH2 0x118D PUSH1 0x64 SWAP3 DUP4 CALLDATALOAD PUSH2 0x4077 JUMP JUMPDEST DIV SWAP8 DUP9 LT PUSH2 0x17FF JUMPI CALLER PUSH1 0x0 MSTORE PUSH1 0xC DUP7 MSTORE DUP4 PUSH1 0x40 PUSH1 0x0 KECCAK256 SLOAD AND PUSH1 0x3 DUP2 LT ISZERO PUSH2 0x17EA JUMPI DUP1 PUSH2 0x16CE JUMPI POP PUSH10 0x54B40B1F852BDA00000 DUP9 LT PUSH2 0x168E JUMPI PUSH10 0x69E10DE76676D0800000 DUP9 GT PUSH2 0x164E JUMPI JUMPDEST PUSH2 0x11F8 DUP8 PUSH2 0x11F3 DUP13 PUSH1 0x0 MSTORE PUSH1 0x8 PUSH1 0x20 MSTORE PUSH1 0x7 PUSH1 0x40 PUSH1 0x0 KECCAK256 ADD SLOAD SWAP1 JUMP JUMPDEST PUSH2 0x3F2D JUMP JUMPDEST SWAP4 PUSH1 0x7 DUP7 ADD SWAP5 DUP6 SLOAD LT PUSH2 0x160D JUMPI PUSH1 0x40 MLOAD SWAP10 DUP8 DUP12 ADD SWAP1 DUP2 GT DUP12 DUP3 LT OR PUSH2 0x15F8 JUMPI PUSH1 0x40 MSTORE PUSH1 0x0 DUP11 MSTORE CALLER ISZERO DUP1 ISZERO SWAP1 PUSH2 0x15AC JUMPI SWAP1 DUP12 SWAP7 SWAP6 SWAP5 SWAP4 SWAP3 SWAP2 PUSH2 0x1238 DUP9 PUSH2 0x4032 JUMP JUMPDEST POP PUSH2 0x1242 DUP11 PUSH2 0x4032 JUMP JUMPDEST POP PUSH2 0x124B PUSH2 0x4179 JUMP JUMPDEST DUP1 PUSH2 0x15A4 JUMPI JUMPDEST PUSH2 0x14E7 JUMPI JUMPDEST POP DUP6 PUSH1 0x0 MSTORE PUSH1 0x0 DUP8 MSTORE PUSH1 0x40 PUSH1 0x0 KECCAK256 CALLER PUSH1 0x0 MSTORE DUP8 MSTORE PUSH1 0x40 PUSH1 0x0 KECCAK256 PUSH2 0x127A DUP10 DUP3 SLOAD PUSH2 0x3F2D JUMP JUMPDEST SWAP1 SSTORE PUSH1 0x40 MLOAD DUP7 DUP2 MSTORE DUP9 DUP9 DUP3 ADD MSTORE PUSH1 0x0 CALLER SWAP2 PUSH32 0xC3D58168C5AE7397731D063D5BBF3D657854427343F4C083240F7AACAA2D0F62 PUSH1 0x40 CALLER SWAP3 LOG4 CALLER EXTCODESIZE PUSH2 0x13B8 JUMPI JUMPDEST POP POP POP PUSH32 0xF5FB598E03F67495EFB1A6711179B937E6BE4E2F376538DB8351FCF91CF38681 SWAP7 POP CALLER PUSH1 0x0 MSTORE PUSH1 0xB DUP5 MSTORE PUSH1 0x40 PUSH1 0x0 KECCAK256 DUP4 PUSH1 0x0 MSTORE DUP5 MSTORE PUSH1 0x40 PUSH1 0x0 KECCAK256 PUSH2 0x1301 DUP8 DUP3 SLOAD PUSH2 0x3F2D JUMP JUMPDEST SWAP1 SSTORE CALLER PUSH1 0x0 MSTORE PUSH1 0xD DUP3 ADD DUP5 MSTORE PUSH1 0x40 PUSH1 0x0 KECCAK256 PUSH2 0x131D DUP7 DUP3 SLOAD PUSH2 0x3F2D JUMP JUMPDEST SWAP1 SSTORE PUSH2 0x1337 DUP4 PUSH1 0x0 MSTORE PUSH1 0x8 PUSH1 0x20 MSTORE PUSH1 0x7 PUSH1 0x40 PUSH1 0x0 KECCAK256 ADD SLOAD SWAP1 JUMP JUMPDEST SWAP1 SLOAD GT ISZERO PUSH2 0x136C JUMPI JUMPDEST POP POP PUSH1 0x40 MLOAD SWAP3 DUP4 MSTORE DUP3 ADD MSTORE PUSH1 0x60 PUSH1 0x40 DUP3 ADD MSTORE DUP1 PUSH2 0x1362 CALLER SWAP6 PUSH1 0x60 DUP4 ADD SWAP1 PUSH2 0x3B03 JUMP JUMPDEST SUB SWAP1 LOG3 PUSH1 0x1 PUSH1 0x4 SSTORE STOP JUMPDEST PUSH1 0x9 DUP2 ADD DUP1 SLOAD PUSH2 0xFF00 NOT AND PUSH2 0x200 OR SWAP1 SSTORE PUSH1 0x6 ADD SLOAD PUSH1 0x40 DUP1 MLOAD SWAP2 DUP3 MSTORE PUSH1 0x0 DUP5 DUP4 ADD MSTORE PUSH32 0x5C2CB5015027CB95196F52D0D4FFE39C9702FC85EE2AF6E06122D2C7F1DC50FC SWAP2 LOG2 DUP5 DUP8 PUSH2 0x1340 JUMP JUMPDEST DUP7 SWAP2 SWAP4 SWAP6 PUSH2 0x13FA DUP10 SWAP5 SWAP7 SWAP12 PUSH1 0x40 MLOAD SWAP6 DUP7 SWAP5 DUP6 SWAP5 PUSH4 0xF23A6E61 PUSH1 0xE0 SHL SWAP10 DUP11 DUP8 MSTORE CALLER PUSH1 0x4 DUP9 ADD MSTORE PUSH1 0x0 DUP13 DUP9 ADD MSTORE DUP7 ADD MSTORE DUP5 ADD MSTORE PUSH1 0xA0 PUSH1 0x84 DUP5 ADD MSTORE PUSH1 0xA4 DUP4 ADD SWAP1 PUSH2 0x3B03 JUMP JUMPDEST SUB DUP2 PUSH1 0x0 CALLER GAS CALL PUSH1 0x0 SWAP2 DUP2 PUSH2 0x14C8 JUMPI JUMPDEST POP PUSH2 0x148E JUMPI POP POP PUSH1 0x1 SWAP1 PUSH2 0x141C PUSH2 0x3FA3 JUMP JUMPDEST PUSH4 0x8C379A0 EQ PUSH2 0x1459 JUMPI JUMPDEST POP PUSH2 0x96F JUMPI PUSH32 0xF5FB598E03F67495EFB1A6711179B937E6BE4E2F376538DB8351FCF91CF38681 SWAP5 DUP7 SWAP2 JUMPDEST DUP10 DUP1 DUP1 PUSH2 0x12B8 JUMP JUMPDEST PUSH2 0x1461 PUSH2 0x3FC1 JUMP JUMPDEST DUP1 PUSH2 0x146C JUMPI POP PUSH2 0x1427 JUMP JUMPDEST PUSH1 0x40 MLOAD PUSH3 0x461BCD PUSH1 0xE5 SHL DUP2 MSTORE PUSH1 0x4 DUP2 ADD DUP7 SWAP1 MSTORE SWAP2 DUP3 SWAP2 PUSH2 0x9D1 SWAP2 DUP4 ADD SWAP1 PUSH2 0x3B03 JUMP JUMPDEST PUSH1 0x1 PUSH1 0x1 PUSH1 0xE0 SHL SUB NOT AND SUB SWAP1 POP PUSH2 0xA1C JUMPI PUSH32 0xF5FB598E03F67495EFB1A6711179B937E6BE4E2F376538DB8351FCF91CF38681 SWAP5 DUP7 SWAP2 PUSH2 0x1451 JUMP JUMPDEST PUSH2 0x14E0 SWAP2 SWAP3 POP DUP7 RETURNDATASIZE DUP9 GT PUSH2 0xA5D JUMPI PUSH2 0xA4E DUP2 DUP4 PUSH2 0x3A5D JUMP JUMPDEST SWAP1 DUP12 PUSH2 0x140A JUMP JUMPDEST SWAP1 SWAP2 SWAP3 SWAP4 SWAP5 SWAP6 POP CALLER PUSH1 0x0 MSTORE PUSH1 0xD DUP8 MSTORE DUP1 PUSH1 0x40 PUSH1 0x0 KECCAK256 SLOAD AND ISZERO PUSH2 0x1563 JUMPI CALLER PUSH1 0x0 MSTORE PUSH1 0xE DUP8 MSTORE PUSH1 0x40 PUSH1 0x0 KECCAK256 SLOAD AND ISZERO PUSH2 0x1523 JUMPI SWAP1 DUP10 SWAP5 SWAP4 SWAP3 SWAP2 DUP13 PUSH2 0x1256 JUMP JUMPDEST PUSH1 0x40 MLOAD PUSH3 0x461BCD PUSH1 0xE5 SHL DUP2 MSTORE PUSH1 0x4 DUP2 ADD DUP8 SWAP1 MSTORE PUSH1 0x1D DUP2 DUP6 ADD MSTORE PUSH32 0x526563697069656E74206D75737420626520414D4C20636C6561726564000000 DUP2 DUP5 ADD MSTORE REVERT JUMPDEST POP PUSH1 0x40 MLOAD PUSH3 0x461BCD PUSH1 0xE5 SHL DUP2 MSTORE PUSH1 0x4 DUP2 ADD DUP8 SWAP1 MSTORE PUSH1 0x1E DUP2 DUP6 ADD MSTORE PUSH32 0x526563697069656E74206D757374206265204B594320617070726F7665640000 DUP2 DUP5 ADD MSTORE REVERT JUMPDEST POP PUSH1 0x0 PUSH2 0x1251 JUMP JUMPDEST PUSH1 0x40 MLOAD PUSH3 0x461BCD PUSH1 0xE5 SHL DUP2 MSTORE PUSH1 0x4 DUP2 ADD DUP10 SWAP1 MSTORE PUSH1 0x21 DUP2 DUP8 ADD MSTORE PUSH32 0x455243313135353A206D696E7420746F20746865207A65726F20616464726573 DUP2 DUP7 ADD MSTORE PUSH1 0x73 PUSH1 0xF8 SHL DUP2 DUP6 ADD MSTORE PUSH1 0x84 SWAP1 REVERT JUMPDEST DUP5 PUSH4 0x4E487B71 PUSH1 0xE0 SHL PUSH1 0x0 MSTORE PUSH1 0x41 PUSH1 0x4 MSTORE PUSH1 0x0 REVERT JUMPDEST POP PUSH1 0x40 MLOAD PUSH3 0x461BCD PUSH1 0xE5 SHL DUP2 MSTORE PUSH1 0x4 DUP2 ADD DUP8 SWAP1 MSTORE PUSH1 0x1D DUP2 DUP6 ADD MSTORE PUSH32 0x496E73756666696369656E7420746F6B656E7320617661696C61626C65000000 DUP2 DUP5 ADD MSTORE REVERT JUMPDEST PUSH1 0x40 MLOAD PUSH3 0x461BCD PUSH1 0xE5 SHL DUP2 MSTORE PUSH1 0x4 DUP2 ADD DUP8 SWAP1 MSTORE PUSH1 0x1F DUP2 DUP6 ADD MSTORE PUSH32 0x41626F7665206D6178696D756D2072657461696C20696E766573746D656E7400 DUP2 DUP5 ADD MSTORE REVERT JUMPDEST PUSH1 0x40 MLOAD PUSH3 0x461BCD PUSH1 0xE5 SHL DUP2 MSTORE PUSH1 0x4 DUP2 ADD DUP8 SWAP1 MSTORE PUSH1 0x1F DUP2 DUP6 ADD MSTORE PUSH32 0x42656C6F77206D696E696D756D2072657461696C20696E766573746D656E7400 DUP2 DUP5 ADD MSTORE REVERT JUMPDEST PUSH1 0x1 DUP2 SUB PUSH2 0x1780 JUMPI POP PUSH10 0x69E10DE76676D0800000 DUP9 LT PUSH2 0x1740 JUMPI PUSH11 0x1A784379D99DB42000000 DUP9 GT PUSH2 0x1700 JUMPI JUMPDEST PUSH2 0x11D7 JUMP JUMPDEST PUSH1 0x40 MLOAD PUSH3 0x461BCD PUSH1 0xE5 SHL DUP2 MSTORE PUSH1 0x4 DUP2 ADD DUP8 SWAP1 MSTORE DUP1 DUP5 ADD DUP8 SWAP1 MSTORE PUSH32 0x41626F7665206D6178696D756D207072656D69756D20696E766573746D656E74 DUP2 DUP5 ADD MSTORE REVERT JUMPDEST PUSH1 0x40 MLOAD PUSH3 0x461BCD PUSH1 0xE5 SHL DUP2 MSTORE PUSH1 0x4 DUP2 ADD DUP8 SWAP1 MSTORE DUP1 DUP5 ADD DUP8 SWAP1 MSTORE PUSH32 0x42656C6F77206D696E696D756D207072656D69756D20696E766573746D656E74 DUP2 DUP5 ADD MSTORE REVERT JUMPDEST PUSH1 0x2 SUB PUSH2 0x11D7 JUMPI PUSH11 0x1A784379D99DB42000000 DUP9 LT ISZERO PUSH2 0x16FB JUMPI PUSH6 0x1CDD1B595B9D PUSH1 0xD2 SHL SWAP1 PUSH32 0x42656C6F77206D696E696D756D20696E737469747574696F6E616C20696E7665 DUP8 SWAP4 PUSH1 0x26 PUSH1 0x84 SWAP7 PUSH1 0x40 MLOAD SWAP7 PUSH3 0x461BCD PUSH1 0xE5 SHL DUP9 MSTORE PUSH1 0x4 DUP9 ADD MSTORE DUP7 ADD MSTORE DUP5 ADD MSTORE DUP3 ADD MSTORE REVERT JUMPDEST DUP4 PUSH4 0x4E487B71 PUSH1 0xE0 SHL PUSH1 0x0 MSTORE PUSH1 0x21 PUSH1 0x4 MSTORE PUSH1 0x0 REVERT JUMPDEST PUSH1 0x40 MLOAD PUSH3 0x461BCD PUSH1 0xE5 SHL DUP2 MSTORE PUSH1 0x4 DUP2 ADD DUP8 SWAP1 MSTORE PUSH1 0x13 DUP2 DUP6 ADD MSTORE PUSH19 0x125B9CDD59999A58DA595B9D08185B5BDD5B9D PUSH1 0x6A SHL DUP2 DUP5 ADD MSTORE REVERT JUMPDEST PUSH1 0x40 MLOAD PUSH3 0x461BCD PUSH1 0xE5 SHL DUP2 MSTORE PUSH1 0x4 DUP2 ADD DUP8 SWAP1 MSTORE PUSH1 0x15 DUP2 DUP6 ADD MSTORE PUSH21 0x141C9BDC195C9D1E481B9BDD08185C1C1C9BDD9959 PUSH1 0x5A SHL DUP2 DUP5 ADD MSTORE PUSH1 0x64 SWAP1 REVERT JUMPDEST DUP4 SHR AND SWAP1 POP DUP5 DUP14 PUSH2 0x1141 JUMP JUMPDEST PUSH20 0x125B9D985B1A59081D1BDAD95B88185B5BDD5B9D PUSH1 0x62 SHL DUP6 SWAP2 PUSH1 0x14 PUSH1 0x64 SWAP5 PUSH1 0x40 MLOAD SWAP5 PUSH3 0x461BCD PUSH1 0xE5 SHL DUP7 MSTORE PUSH1 0x4 DUP7 ADD MSTORE DUP5 ADD MSTORE DUP3 ADD MSTORE REVERT JUMPDEST PUSH20 0x119D5B991A5B99C81C195C9A5BD908195B991959 PUSH1 0x62 SHL DUP7 SWAP2 PUSH1 0x14 PUSH1 0x64 SWAP5 PUSH1 0x40 MLOAD SWAP5 PUSH3 0x461BCD PUSH1 0xE5 SHL DUP7 MSTORE PUSH1 0x4 DUP7 ADD MSTORE DUP5 ADD MSTORE DUP3 ADD MSTORE REVERT JUMPDEST PUSH32 0x50726F7065727479206E6F7420696E2066756E6472616973696E670000000000 DUP7 SWAP2 PUSH1 0x1B PUSH1 0x64 SWAP5 PUSH1 0x40 MLOAD SWAP5 PUSH3 0x461BCD PUSH1 0xE5 SHL DUP7 MSTORE PUSH1 0x4 DUP7 ADD MSTORE DUP5 ADD MSTORE DUP3 ADD MSTORE REVERT JUMPDEST DUP3 PUSH4 0x4E487B71 PUSH1 0xE0 SHL PUSH1 0x0 MSTORE PUSH1 0x21 PUSH1 0x4 MSTORE PUSH1 0x0 REVERT JUMPDEST POP PUSH1 0x5 SLOAD DUP8 GT ISZERO PUSH2 0x1094 JUMP JUMPDEST DUP5 PUSH22 0x1053530818DB19585C985B98D9481C995C5D5A5C9959 PUSH1 0x52 SHL DUP5 PUSH1 0x16 PUSH1 0x64 SWAP5 PUSH1 0x40 MLOAD SWAP5 PUSH3 0x461BCD PUSH1 0xE5 SHL DUP7 MSTORE PUSH1 0x4 DUP7 ADD MSTORE DUP5 ADD MSTORE DUP3 ADD MSTORE REVERT JUMPDEST DUP5 PUSH21 0x12D650C8185C1C1C9BDD985B081C995C5D5A5C9959 PUSH1 0x5A SHL DUP5 PUSH1 0x15 PUSH1 0x64 SWAP5 PUSH1 0x40 MLOAD SWAP5 PUSH3 0x461BCD PUSH1 0xE5 SHL DUP7 MSTORE PUSH1 0x4 DUP7 ADD MSTORE DUP5 ADD MSTORE DUP3 ADD MSTORE REVERT JUMPDEST CALLVALUE PUSH2 0x2B7 JUMPI PUSH1 0x40 CALLDATASIZE PUSH1 0x3 NOT ADD SLT PUSH2 0x2B7 JUMPI PUSH2 0x2B5 PUSH2 0x19E2 PUSH2 0x3A16 JUMP JUMPDEST PUSH2 0x19EA PUSH2 0x3C1C JUMP JUMPDEST PUSH1 0x6 SLOAD SWAP1 SWAP2 PUSH1 0x1 PUSH1 0x1 PUSH1 0xA0 SHL SUB SWAP2 PUSH2 0x1A05 SWAP1 DUP4 AND CALLER EQ PUSH2 0x408A JUMP JUMPDEST AND PUSH1 0x0 MSTORE PUSH1 0x15 PUSH1 0x20 MSTORE PUSH1 0x40 PUSH1 0x0 KECCAK256 SWAP1 PUSH1 0xFF DUP1 NOT DUP4 SLOAD AND SWAP2 ISZERO ISZERO AND OR SWAP1 SSTORE JUMP JUMPDEST CALLVALUE PUSH2 0x2B7 JUMPI PUSH1 0x40 CALLDATASIZE PUSH1 0x3 NOT ADD SLT PUSH2 0x2B7 JUMPI PUSH2 0x1A3D PUSH2 0x3A16 JUMP JUMPDEST PUSH2 0x1A45 PUSH2 0x3C1C JUMP JUMPDEST PUSH1 0x1 PUSH1 0x1 PUSH1 0xA0 SHL SUB SWAP1 SWAP2 AND SWAP1 CALLER DUP3 EQ PUSH2 0x1AB7 JUMPI CALLER PUSH1 0x0 MSTORE PUSH1 0x1 PUSH1 0x20 MSTORE PUSH1 0x40 PUSH1 0x0 KECCAK256 DUP3 PUSH1 0x0 MSTORE PUSH1 0x20 MSTORE PUSH2 0x1A87 DUP2 PUSH1 0x40 PUSH1 0x0 KECCAK256 SWAP1 PUSH1 0xFF DUP1 NOT DUP4 SLOAD AND SWAP2 ISZERO ISZERO AND OR SWAP1 SSTORE JUMP JUMPDEST PUSH1 0x40 MLOAD SWAP1 ISZERO ISZERO DUP2 MSTORE PUSH32 0x17307EAB39AB6107E8899845AD3D59BD9653F200F220920489CA2B5937696C31 PUSH1 0x20 CALLER SWAP3 LOG3 STOP JUMPDEST PUSH1 0x40 MLOAD PUSH3 0x461BCD PUSH1 0xE5 SHL DUP2 MSTORE PUSH1 0x20 PUSH1 0x4 DUP3 ADD MSTORE PUSH1 0x29 PUSH1 0x24 DUP3 ADD MSTORE PUSH32 0x455243313135353A2073657474696E6720617070726F76616C20737461747573 PUSH1 0x44 DUP3 ADD MSTORE PUSH9 0x103337B91039B2B633 PUSH1 0xB9 SHL PUSH1 0x64 DUP3 ADD MSTORE PUSH1 0x84 SWAP1 REVERT JUMPDEST CALLVALUE PUSH2 0x2B7 JUMPI PUSH1 0x40 CALLDATASIZE PUSH1 0x3 NOT ADD SLT PUSH2 0x2B7 JUMPI PUSH2 0x1B27 PUSH2 0x3A16 JUMP JUMPDEST PUSH1 0x24 CALLDATALOAD SWAP1 PUSH1 0x3 DUP3 LT ISZERO PUSH2 0x2B7 JUMPI PUSH2 0x1B3C PUSH2 0x3CFB JUMP JUMPDEST PUSH1 0x1 DUP1 PUSH1 0xA0 SHL SUB AND PUSH1 0x0 MSTORE PUSH1 0xC PUSH1 0x20 MSTORE PUSH1 0x40 PUSH1 0x0 KECCAK256 SWAP1 PUSH1 0xFF DUP1 NOT DUP4 SLOAD AND SWAP2 AND OR SWAP1 SSTORE PUSH1 0x0 DUP1 RETURN JUMPDEST CALLVALUE PUSH2 0x2B7 JUMPI PUSH1 0x0 CALLDATASIZE PUSH1 0x3 NOT ADD SLT PUSH2 0x2B7 JUMPI PUSH2 0x35A PUSH1 0x40 MLOAD PUSH2 0x1B83 DUP2 PUSH2 0x3A42 JUMP JUMPDEST PUSH1 0x4 DUP2 MSTORE PUSH4 0x52455241 PUSH1 0xE0 SHL PUSH1 0x20 DUP3 ADD MSTORE PUSH1 0x40 MLOAD SWAP2 DUP3 SWAP2 PUSH1 0x20 DUP4 MSTORE PUSH1 0x20 DUP4 ADD SWAP1 PUSH2 0x3B03 JUMP JUMPDEST CALLVALUE PUSH2 0x2B7 JUMPI PUSH1 0x40 CALLDATASIZE PUSH1 0x3 NOT ADD SLT PUSH2 0x2B7 JUMPI PUSH1 0x1 PUSH1 0x1 PUSH1 0xA0 SHL SUB PUSH2 0x1BC9 PUSH2 0x3A16 JUMP JUMPDEST AND PUSH1 0x0 MSTORE PUSH1 0xB PUSH1 0x20 MSTORE PUSH1 0x40 PUSH1 0x0 KECCAK256 PUSH1 0x24 CALLDATALOAD PUSH1 0x0 MSTORE PUSH1 0x20 MSTORE PUSH1 0x20 PUSH1 0x40 PUSH1 0x0 KECCAK256 SLOAD PUSH1 0x40 MLOAD SWAP1 DUP2 MSTORE RETURN JUMPDEST CALLVALUE PUSH2 0x2B7 JUMPI PUSH1 0x0 CALLDATASIZE PUSH1 0x3 NOT ADD SLT PUSH2 0x2B7 JUMPI PUSH1 0x7 SLOAD PUSH1 0x40 MLOAD PUSH1 0x1 PUSH1 0x1 PUSH1 0xA0 SHL SUB SWAP1 SWAP2 AND DUP2 MSTORE PUSH1 0x20 SWAP1 RETURN JUMPDEST CALLVALUE PUSH2 0x2B7 JUMPI PUSH1 0x40 CALLDATASIZE PUSH1 0x3 NOT ADD SLT PUSH2 0x2B7 JUMPI PUSH1 0x4 CALLDATALOAD PUSH32 0x20B345B4664A5508210399C82A489058C52A890C6F67BF425155CC1FA5CB6D26 PUSH1 0x80 PUSH2 0x1C58 PUSH2 0x3C1C JUMP JUMPDEST PUSH2 0x1C6D PUSH1 0x1 DUP1 PUSH1 0xA0 SHL SUB PUSH1 0x6 SLOAD AND CALLER EQ PUSH2 0x408A JUMP JUMPDEST DUP4 ISZERO ISZERO DUP1 PUSH2 0x1D90 JUMPI JUMPDEST PUSH2 0x1C7F SWAP1 PUSH2 0x40D6 JUMP JUMPDEST DUP4 PUSH1 0x0 MSTORE PUSH1 0x8 PUSH1 0x20 MSTORE PUSH1 0x40 PUSH1 0x0 KECCAK256 SWAP1 PUSH2 0x1CA7 DUP2 PUSH1 0xC DUP5 ADD SWAP1 PUSH1 0xFF DUP1 NOT DUP4 SLOAD AND SWAP2 ISZERO ISZERO AND OR SWAP1 SSTORE JUMP JUMPDEST PUSH2 0x1CDF DUP2 PUSH1 0x2D PUSH1 0x40 MLOAD PUSH1 0xE PUSH13 0x1491549057D054141493D59151 PUSH1 0x9A SHL SWAP7 DUP8 DUP4 MSTORE ADD PUSH1 0xD DUP3 ADD MSTORE KECCAK256 SWAP1 PUSH1 0xFF DUP1 NOT DUP4 SLOAD AND SWAP2 ISZERO ISZERO AND OR SWAP1 SSTORE JUMP JUMPDEST DUP1 DUP1 PUSH2 0x1D72 JUMPI JUMPDEST PUSH2 0x1D4F JUMPI JUMPDEST DUP5 PUSH1 0x0 MSTORE PUSH1 0x8 PUSH1 0x20 MSTORE DUP5 PUSH32 0xC3B0864B1EACA0C8D74DB6616DF1E38CA2B70B83F92F5E630A0F21FFC3A59481 PUSH2 0x1D2E PUSH1 0x1 PUSH1 0x40 PUSH1 0x0 KECCAK256 ADD PUSH1 0x40 MLOAD SWAP2 DUP3 SWAP2 DUP7 DUP4 PUSH2 0x411B JUMP JUMPDEST SUB SWAP1 LOG2 PUSH1 0x40 MLOAD SWAP2 PUSH1 0x40 DUP4 MSTORE PUSH1 0xD PUSH1 0x40 DUP5 ADD MSTORE PUSH1 0x60 DUP4 ADD MSTORE ISZERO ISZERO PUSH1 0x20 DUP3 ADD MSTORE LOG2 STOP JUMPDEST DUP5 PUSH1 0x0 MSTORE PUSH1 0x8 PUSH1 0x20 MSTORE PUSH1 0x9 PUSH1 0x40 PUSH1 0x0 KECCAK256 ADD PUSH2 0x100 PUSH2 0xFF00 NOT DUP3 SLOAD AND OR SWAP1 SSTORE PUSH2 0x1CEB JUMP JUMPDEST POP DUP5 PUSH1 0x0 MSTORE PUSH1 0x8 PUSH1 0x20 MSTORE PUSH1 0xFF PUSH1 0xC PUSH1 0x40 PUSH1 0x0 KECCAK256 ADD SLOAD PUSH1 0x8 SHR AND PUSH2 0x1CE6 JUMP JUMPDEST POP PUSH1 0x5 SLOAD DUP5 GT ISZERO PUSH2 0x1C76 JUMP JUMPDEST CALLVALUE PUSH2 0x2B7 JUMPI PUSH1 0x0 CALLDATASIZE PUSH1 0x3 NOT ADD SLT PUSH2 0x2B7 JUMPI PUSH1 0x3 SLOAD PUSH1 0x40 MLOAD PUSH1 0x1 PUSH1 0x1 PUSH1 0xA0 SHL SUB SWAP1 SWAP2 AND DUP2 MSTORE PUSH1 0x20 SWAP1 RETURN JUMPDEST CALLVALUE PUSH2 0x2B7 JUMPI PUSH1 0x0 CALLDATASIZE PUSH1 0x3 NOT ADD SLT PUSH2 0x2B7 JUMPI PUSH2 0x1DDE PUSH2 0x3CFB JUMP JUMPDEST PUSH2 0x1DE6 PUSH2 0x4179 JUMP JUMPDEST PUSH1 0x3 DUP1 SLOAD PUSH1 0xFF PUSH1 0xA0 SHL NOT AND PUSH1 0x1 PUSH1 0xA0 SHL OR SWAP1 SSTORE PUSH1 0x40 MLOAD CALLER DUP2 MSTORE PUSH32 0x62E78CEA01BEE320CD4E420270B5EA74000D11B0C9F74754EBDBFC544B05A258 SWAP1 PUSH1 0x20 SWAP1 LOG1 STOP JUMPDEST CALLVALUE PUSH2 0x2B7 JUMPI PUSH1 0x20 PUSH8 0xDE0B6B3A7640000 PUSH2 0x1E88 DUP3 PUSH2 0x1E77 PUSH2 0x1E47 CALLDATASIZE PUSH2 0x3B42 JUMP JUMPDEST SWAP3 SWAP1 PUSH1 0x40 MLOAD SWAP1 PUSH2 0x1E66 PUSH1 0xFF DUP3 MLOAD SWAP4 DUP6 DUP2 DUP2 DUP7 ADD SWAP7 PUSH2 0x110D DUP2 DUP4 DUP11 PUSH2 0x3AE0 JUMP JUMPDEST PUSH1 0x40 MLOAD SWAP4 DUP5 SWAP3 DUP4 SWAP3 MLOAD SWAP3 DUP4 SWAP2 PUSH2 0x3AE0 JUMP JUMPDEST DUP2 ADD PUSH1 0x11 DUP2 MSTORE SUB ADD SWAP1 KECCAK256 SLOAD SWAP1 PUSH2 0x4077 JUMP JUMPDEST DIV PUSH1 0x40 MLOAD SWAP1 DUP2 MSTORE RETURN JUMPDEST CALLVALUE PUSH2 0x2B7 JUMPI PUSH1 0x0 CALLDATASIZE PUSH1 0x3 NOT ADD SLT PUSH2 0x2B7 JUMPI PUSH2 0x35A PUSH1 0x40 MLOAD PUSH2 0x1EB1 DUP2 PUSH2 0x3A42 JUMP JUMPDEST PUSH1 0x3 DUP2 MSTORE PUSH3 0x554145 PUSH1 0xE8 SHL PUSH1 0x20 DUP3 ADD MSTORE PUSH1 0x40 MLOAD SWAP2 DUP3 SWAP2 PUSH1 0x20 DUP4 MSTORE PUSH1 0x20 DUP4 ADD SWAP1 PUSH2 0x3B03 JUMP JUMPDEST CALLVALUE PUSH2 0x2B7 JUMPI PUSH2 0x140 CALLDATASIZE PUSH1 0x3 NOT ADD SLT PUSH2 0x2B7 JUMPI PUSH1 0x4 CALLDATALOAD PUSH1 0x1 PUSH1 0x1 PUSH1 0x40 SHL SUB DUP2 GT PUSH2 0x2B7 JUMPI PUSH2 0x1F06 SWAP1 CALLDATASIZE SWAP1 PUSH1 0x4 ADD PUSH2 0x3A99 JUMP JUMPDEST PUSH1 0x24 CALLDATALOAD PUSH1 0x1 PUSH1 0x1 PUSH1 0x40 SHL SUB DUP2 GT PUSH2 0x2B7 JUMPI PUSH2 0x1F25 SWAP1 CALLDATASIZE SWAP1 PUSH1 0x4 ADD PUSH2 0x3A99 JUMP JUMPDEST SWAP1 PUSH1 0x44 SWAP1 DUP2 CALLDATALOAD PUSH1 0x1 PUSH1 0x1 PUSH1 0x40 SHL SUB DUP2 GT PUSH2 0x2B7 JUMPI PUSH2 0x1F47 SWAP1 CALLDATASIZE SWAP1 PUSH1 0x4 ADD PUSH2 0x3A99 JUMP JUMPDEST SWAP3 PUSH1 0x64 CALLDATALOAD PUSH1 0x1 PUSH1 0x1 PUSH1 0x40 SHL SUB DUP2 GT PUSH2 0x2B7 JUMPI PUSH2 0x1F67 SWAP1 CALLDATASIZE SWAP1 PUSH1 0x4 ADD PUSH2 0x3A99 JUMP JUMPDEST SWAP3 PUSH1 0x84 CALLDATALOAD PUSH1 0x1 PUSH1 0x1 PUSH1 0x40 SHL SUB DUP2 GT PUSH2 0x2B7 JUMPI PUSH2 0x1F87 SWAP1 CALLDATASIZE SWAP1 PUSH1 0x4 ADD PUSH2 0x3A99 JUMP JUMPDEST SWAP1 PUSH1 0x8 PUSH1 0xE4 CALLDATALOAD LT ISZERO PUSH2 0x2B7 JUMPI PUSH2 0x104 CALLDATALOAD PUSH1 0x1 PUSH1 0x1 PUSH1 0xA0 SHL SUB DUP2 AND SWAP1 SUB PUSH2 0x2B7 JUMPI PUSH2 0x1FAF PUSH2 0x3CFB JUMP JUMPDEST DUP4 MLOAD ISZERO PUSH2 0x283C JUMPI DUP3 MLOAD ISZERO PUSH2 0x2802 JUMPI PUSH1 0xA4 CALLDATALOAD ISZERO PUSH2 0x27C8 JUMPI PUSH1 0xC4 CALLDATALOAD ISZERO PUSH2 0x278D JUMPI PUSH2 0x104 CALLDATALOAD PUSH1 0x1 PUSH1 0x1 PUSH1 0xA0 SHL SUB AND ISZERO PUSH2 0x2749 JUMPI PUSH2 0x104 CALLDATALOAD PUSH1 0x1 PUSH1 0x1 PUSH1 0xA0 SHL SUB AND PUSH1 0x0 SWAP1 DUP2 MSTORE PUSH1 0x15 PUSH1 0x20 MSTORE PUSH1 0x40 SWAP1 KECCAK256 SLOAD PUSH1 0xFF AND ISZERO PUSH2 0x2705 JUMPI POP PUSH1 0x1 PUSH1 0x5 SLOAD ADD SWAP4 DUP5 PUSH1 0x5 SSTORE DUP5 PUSH1 0x0 MSTORE PUSH1 0x8 PUSH1 0x20 MSTORE PUSH1 0x40 PUSH1 0x0 KECCAK256 SWAP6 DUP6 DUP8 SSTORE DUP5 MLOAD PUSH1 0x1 PUSH1 0x1 PUSH1 0x40 SHL SUB DUP2 GT PUSH2 0xE24 JUMPI PUSH2 0x203E PUSH1 0x1 DUP10 ADD SLOAD PUSH2 0x3C2B JUMP JUMPDEST PUSH1 0x1F DUP2 GT PUSH2 0x26BE JUMPI JUMPDEST POP DUP1 PUSH1 0x20 PUSH1 0x1F DUP3 GT PUSH1 0x1 EQ PUSH2 0x2651 JUMPI PUSH1 0x0 SWAP2 PUSH2 0x2646 JUMPI JUMPDEST POP DUP2 PUSH1 0x1 SHL SWAP2 PUSH1 0x0 NOT SWAP1 PUSH1 0x3 SHL SHR NOT AND OR PUSH1 0x1 DUP9 ADD SSTORE JUMPDEST DUP4 MLOAD PUSH1 0x1 PUSH1 0x1 PUSH1 0x40 SHL SUB DUP2 GT PUSH2 0xE24 JUMPI PUSH2 0x2092 PUSH1 0x2 DUP10 ADD SLOAD PUSH2 0x3C2B JUMP JUMPDEST PUSH1 0x1F DUP2 GT PUSH2 0x25FF JUMPI JUMPDEST POP DUP1 PUSH1 0x20 PUSH1 0x1F DUP3 GT PUSH1 0x1 EQ PUSH2 0x2592 JUMPI PUSH1 0x0 SWAP2 PUSH2 0x2587 JUMPI JUMPDEST POP DUP2 PUSH1 0x1 SHL SWAP2 PUSH1 0x0 NOT SWAP1 PUSH1 0x3 SHL SHR NOT AND OR PUSH1 0x2 DUP9 ADD SSTORE JUMPDEST DUP1 MLOAD SWAP1 PUSH1 0x1 PUSH1 0x1 PUSH1 0x40 SHL SUB DUP3 GT PUSH2 0xE24 JUMPI DUP2 SWAP1 PUSH2 0x20E9 PUSH1 0x3 DUP11 ADD SLOAD PUSH2 0x3C2B JUMP JUMPDEST PUSH1 0x1F DUP2 GT PUSH2 0x2534 JUMPI JUMPDEST POP PUSH1 0x20 SWAP1 PUSH1 0x1F DUP4 GT PUSH1 0x1 EQ PUSH2 0x24C7 JUMPI PUSH1 0x0 SWAP3 PUSH2 0x24BC JUMPI JUMPDEST POP POP DUP2 PUSH1 0x1 SHL SWAP2 PUSH1 0x0 NOT SWAP1 PUSH1 0x3 SHL SHR NOT AND OR PUSH1 0x3 DUP8 ADD SSTORE JUMPDEST DUP1 MLOAD SWAP1 PUSH1 0x1 PUSH1 0x1 PUSH1 0x40 SHL SUB DUP3 GT PUSH2 0xE24 JUMPI DUP2 SWAP1 PUSH2 0x2141 PUSH1 0x4 DUP10 ADD SLOAD PUSH2 0x3C2B JUMP JUMPDEST PUSH1 0x1F DUP2 GT PUSH2 0x2469 JUMPI JUMPDEST POP PUSH1 0x20 SWAP1 PUSH1 0x1F DUP4 GT PUSH1 0x1 EQ PUSH2 0x23FC JUMPI PUSH1 0x0 SWAP3 PUSH2 0x23F1 JUMPI JUMPDEST POP POP DUP2 PUSH1 0x1 SHL SWAP2 PUSH1 0x0 NOT SWAP1 PUSH1 0x3 SHL SHR NOT AND OR PUSH1 0x4 DUP7 ADD SSTORE JUMPDEST DUP1 MLOAD SWAP1 PUSH1 0x1 PUSH1 0x1 PUSH1 0x40 SHL SUB DUP3 GT PUSH2 0xE24 JUMPI DUP2 SWAP1 PUSH2 0x2199 PUSH1 0x5 DUP9 ADD SLOAD PUSH2 0x3C2B JUMP JUMPDEST PUSH1 0x1F DUP2 GT PUSH2 0x239E JUMPI JUMPDEST POP PUSH1 0x20 SWAP1 PUSH1 0x1F DUP4 GT PUSH1 0x1 EQ PUSH2 0x2331 JUMPI PUSH1 0x0 SWAP3 PUSH2 0x2326 JUMPI JUMPDEST POP POP DUP2 PUSH1 0x1 SHL SWAP2 PUSH1 0x0 NOT SWAP1 PUSH1 0x3 SHL SHR NOT AND OR PUSH1 0x5 DUP6 ADD SSTORE JUMPDEST PUSH1 0xA4 CALLDATALOAD PUSH1 0x6 DUP6 ADD SSTORE PUSH1 0xC4 CALLDATALOAD PUSH1 0x7 DUP6 ADD SSTORE PUSH2 0x21EF PUSH1 0xC4 CALLDATALOAD PUSH1 0xA4 CALLDATALOAD PUSH2 0x4057 JUMP JUMPDEST PUSH1 0x8 DUP6 ADD SSTORE PUSH1 0x9 DUP5 ADD DUP1 SLOAD PUSH1 0x1 PUSH1 0x1 PUSH1 0xB0 SHL SUB NOT AND PUSH1 0xE4 CALLDATALOAD PUSH1 0xFF AND OR PUSH2 0x104 CALLDATALOAD PUSH1 0x10 SHL PUSH3 0x10000 PUSH1 0x1 PUSH1 0xB0 SHL SUB AND OR SWAP1 SSTORE TIMESTAMP PUSH1 0xA DUP6 ADD SSTORE PUSH3 0x15180 PUSH2 0x124 CALLDATALOAD DUP2 DUP2 MUL SWAP2 DUP2 ISZERO SWAP2 DUP4 DIV EQ OR ISZERO PUSH2 0x2310 JUMPI PUSH2 0x22E4 DUP5 SWAP3 PUSH1 0xC PUSH1 0x20 SWAP8 PUSH2 0x2273 PUSH32 0xA7289395817A5B3C8558C2A9EC68CA606C1642BC4102A0B20DF09E23E123BCB8 SWAP6 TIMESTAMP PUSH2 0x3F2D JUMP JUMPDEST PUSH1 0xB DUP3 ADD SSTORE ADD PUSH2 0xFFFF NOT DUP2 SLOAD AND SWAP1 SSTORE DUP4 PUSH1 0x40 MLOAD DUP9 DUP2 DUP9 MLOAD PUSH2 0x2297 DUP2 DUP4 DUP6 DUP14 ADD PUSH2 0x3AE0 JUMP JUMPDEST DUP2 ADD PUSH1 0x9 DUP2 MSTORE SUB ADD SWAP1 KECCAK256 SSTORE DUP4 PUSH1 0x40 MLOAD DUP9 DUP2 DUP5 MLOAD PUSH2 0x22B7 DUP2 DUP4 DUP6 DUP10 ADD PUSH2 0x3AE0 JUMP JUMPDEST DUP2 ADD PUSH1 0xA DUP2 MSTORE SUB ADD SWAP1 KECCAK256 SSTORE PUSH2 0x22D7 PUSH1 0x40 MLOAD SWAP6 PUSH1 0x80 DUP8 MSTORE PUSH1 0x80 DUP8 ADD SWAP1 PUSH2 0x3B03 JUMP JUMPDEST SWAP1 DUP6 DUP3 SUB DUP9 DUP8 ADD MSTORE PUSH2 0x3B03 JUMP JUMPDEST PUSH1 0xA4 CALLDATALOAD PUSH1 0x40 DUP6 ADD MSTORE PUSH1 0xC4 CALLDATALOAD PUSH1 0x60 DUP6 ADD MSTORE PUSH2 0x104 CALLDATALOAD PUSH1 0x1 PUSH1 0x1 PUSH1 0xA0 SHL SUB AND SWAP4 SWAP1 DUP2 SWAP1 SUB SWAP1 LOG3 PUSH1 0x40 MLOAD SWAP1 DUP2 MSTORE RETURN JUMPDEST PUSH4 0x4E487B71 PUSH1 0xE0 SHL PUSH1 0x0 MSTORE PUSH1 0x11 PUSH1 0x4 MSTORE PUSH1 0x24 PUSH1 0x0 REVERT JUMPDEST ADD MLOAD SWAP1 POP DUP7 DUP1 PUSH2 0x21B9 JUMP JUMPDEST PUSH1 0x5 DUP9 ADD PUSH1 0x0 SWAP1 DUP2 MSTORE PUSH1 0x20 DUP2 KECCAK256 SWAP4 POP PUSH1 0x1F NOT DUP6 AND SWAP1 JUMPDEST DUP2 DUP2 LT PUSH2 0x2386 JUMPI POP SWAP1 DUP5 PUSH1 0x1 SWAP6 SWAP5 SWAP4 SWAP3 LT PUSH2 0x236D JUMPI JUMPDEST POP POP POP DUP2 SHL ADD PUSH1 0x5 DUP6 ADD SSTORE PUSH2 0x21D1 JUMP JUMPDEST ADD MLOAD PUSH1 0x0 NOT PUSH1 0xF8 DUP5 PUSH1 0x3 SHL AND SHR NOT AND SWAP1 SSTORE DUP7 DUP1 DUP1 PUSH2 0x235D JUMP JUMPDEST SWAP3 SWAP4 PUSH1 0x20 PUSH1 0x1 DUP2 SWAP3 DUP8 DUP7 ADD MLOAD DUP2 SSTORE ADD SWAP6 ADD SWAP4 ADD PUSH2 0x2347 JUMP JUMPDEST SWAP1 SWAP2 POP PUSH1 0x5 DUP8 ADD PUSH1 0x0 MSTORE PUSH1 0x20 PUSH1 0x0 KECCAK256 PUSH1 0x1F DUP5 ADD PUSH1 0x5 SHR DUP2 ADD PUSH1 0x20 DUP6 LT PUSH2 0x23EA JUMPI JUMPDEST SWAP1 DUP5 SWAP4 SWAP3 SWAP2 JUMPDEST PUSH1 0x1F DUP4 ADD PUSH1 0x5 SHR DUP3 ADD DUP2 LT PUSH2 0x23DB JUMPI POP POP PUSH2 0x21A2 JUMP JUMPDEST PUSH1 0x0 DUP2 SSTORE DUP6 SWAP5 POP PUSH1 0x1 ADD PUSH2 0x23C5 JUMP JUMPDEST POP DUP1 PUSH2 0x23BF JUMP JUMPDEST ADD MLOAD SWAP1 POP DUP8 DUP1 PUSH2 0x2161 JUMP JUMPDEST PUSH1 0x4 DUP10 ADD PUSH1 0x0 SWAP1 DUP2 MSTORE PUSH1 0x20 DUP2 KECCAK256 SWAP4 POP PUSH1 0x1F NOT DUP6 AND SWAP1 JUMPDEST DUP2 DUP2 LT PUSH2 0x2451 JUMPI POP SWAP1 DUP5 PUSH1 0x1 SWAP6 SWAP5 SWAP4 SWAP3 LT PUSH2 0x2438 JUMPI JUMPDEST POP POP POP DUP2 SHL ADD PUSH1 0x4 DUP7 ADD SSTORE PUSH2 0x2179 JUMP JUMPDEST ADD MLOAD PUSH1 0x0 NOT PUSH1 0xF8 DUP5 PUSH1 0x3 SHL AND SHR NOT AND SWAP1 SSTORE DUP8 DUP1 DUP1 PUSH2 0x2428 JUMP JUMPDEST SWAP3 SWAP4 PUSH1 0x20 PUSH1 0x1 DUP2 SWAP3 DUP8 DUP7 ADD MLOAD DUP2 SSTORE ADD SWAP6 ADD SWAP4 ADD PUSH2 0x2412 JUMP JUMPDEST SWAP1 SWAP2 POP PUSH1 0x4 DUP9 ADD PUSH1 0x0 MSTORE PUSH1 0x20 PUSH1 0x0 KECCAK256 PUSH1 0x1F DUP5 ADD PUSH1 0x5 SHR DUP2 ADD PUSH1 0x20 DUP6 LT PUSH2 0x24B5 JUMPI JUMPDEST SWAP1 DUP5 SWAP4 SWAP3 SWAP2 JUMPDEST PUSH1 0x1F DUP4 ADD PUSH1 0x5 SHR DUP3 ADD DUP2 LT PUSH2 0x24A6 JUMPI POP POP PUSH2 0x214A JUMP JUMPDEST PUSH1 0x0 DUP2 SSTORE DUP6 SWAP5 POP PUSH1 0x1 ADD PUSH2 0x2490 JUMP JUMPDEST POP DUP1 PUSH2 0x248A JUMP JUMPDEST ADD MLOAD SWAP1 POP DUP9 DUP1 PUSH2 0x2109 JUMP JUMPDEST PUSH1 0x3 DUP11 ADD PUSH1 0x0 SWAP1 DUP2 MSTORE PUSH1 0x20 DUP2 KECCAK256 SWAP4 POP PUSH1 0x1F NOT DUP6 AND SWAP1 JUMPDEST DUP2 DUP2 LT PUSH2 0x251C JUMPI POP SWAP1 DUP5 PUSH1 0x1 SWAP6 SWAP5 SWAP4 SWAP3 LT PUSH2 0x2503 JUMPI JUMPDEST POP POP POP DUP2 SHL ADD PUSH1 0x3 DUP8 ADD SSTORE PUSH2 0x2121 JUMP JUMPDEST ADD MLOAD PUSH1 0x0 NOT PUSH1 0xF8 DUP5 PUSH1 0x3 SHL AND SHR NOT AND SWAP1 SSTORE DUP9 DUP1 DUP1 PUSH2 0x24F3 JUMP JUMPDEST SWAP3 SWAP4 PUSH1 0x20 PUSH1 0x1 DUP2 SWAP3 DUP8 DUP7 ADD MLOAD DUP2 SSTORE ADD SWAP6 ADD SWAP4 ADD PUSH2 0x24DD JUMP JUMPDEST SWAP1 SWAP2 POP PUSH1 0x3 DUP10 ADD PUSH1 0x0 MSTORE PUSH1 0x20 PUSH1 0x0 KECCAK256 PUSH1 0x1F DUP5 ADD PUSH1 0x5 SHR DUP2 ADD PUSH1 0x20 DUP6 LT PUSH2 0x2580 JUMPI JUMPDEST SWAP1 DUP5 SWAP4 SWAP3 SWAP2 JUMPDEST PUSH1 0x1F DUP4 ADD PUSH1 0x5 SHR DUP3 ADD DUP2 LT PUSH2 0x2571 JUMPI POP POP PUSH2 0x20F2 JUMP JUMPDEST PUSH1 0x0 DUP2 SSTORE DUP6 SWAP5 POP PUSH1 0x1 ADD PUSH2 0x255B JUMP JUMPDEST POP DUP1 PUSH2 0x2555 JUMP JUMPDEST SWAP1 POP DUP6 ADD MLOAD DUP10 PUSH2 0x20B2 JUMP JUMPDEST SWAP2 POP PUSH1 0x2 DUP10 ADD PUSH1 0x0 MSTORE PUSH1 0x20 PUSH1 0x0 KECCAK256 PUSH1 0x0 SWAP3 JUMPDEST PUSH1 0x1F NOT DUP4 AND DUP5 LT PUSH2 0x25E7 JUMPI PUSH1 0x1 SWAP4 POP DUP3 PUSH1 0x1F NOT DUP2 AND LT PUSH2 0x25CE JUMPI JUMPDEST POP POP DUP2 SHL ADD PUSH1 0x2 DUP9 ADD SSTORE PUSH2 0x20C9 JUMP JUMPDEST DUP8 ADD MLOAD PUSH1 0x0 NOT PUSH1 0xF8 DUP5 PUSH1 0x3 SHL AND SHR NOT AND SWAP1 SSTORE DUP10 DUP1 PUSH2 0x25BF JUMP JUMPDEST DUP8 DUP2 ADD MLOAD DUP3 SSTORE PUSH1 0x20 SWAP4 DUP5 ADD SWAP4 PUSH1 0x1 SWAP1 SWAP3 ADD SWAP2 ADD PUSH2 0x25A4 JUMP JUMPDEST PUSH1 0x2 DUP10 ADD PUSH1 0x0 MSTORE PUSH1 0x20 PUSH1 0x0 KECCAK256 PUSH1 0x1F DUP4 ADD PUSH1 0x5 SHR DUP2 ADD PUSH1 0x20 DUP5 LT PUSH2 0x263F JUMPI JUMPDEST PUSH1 0x1F DUP4 ADD PUSH1 0x5 SHR DUP3 ADD DUP2 LT PUSH2 0x2633 JUMPI POP POP PUSH2 0x209B JUMP JUMPDEST PUSH1 0x0 DUP2 SSTORE PUSH1 0x1 ADD PUSH2 0x261D JUMP JUMPDEST POP DUP1 PUSH2 0x261D JUMP JUMPDEST SWAP1 POP DUP7 ADD MLOAD DUP10 PUSH2 0x205E JUMP JUMPDEST SWAP2 POP PUSH1 0x1 DUP10 ADD PUSH1 0x0 MSTORE PUSH1 0x20 PUSH1 0x0 KECCAK256 PUSH1 0x0 SWAP3 JUMPDEST PUSH1 0x1F NOT DUP4 AND DUP5 LT PUSH2 0x26A6 JUMPI PUSH1 0x1 SWAP4 POP DUP3 PUSH1 0x1F NOT DUP2 AND LT PUSH2 0x268D JUMPI JUMPDEST POP POP DUP2 SHL ADD PUSH1 0x1 DUP9 ADD SSTORE PUSH2 0x2075 JUMP JUMPDEST DUP9 ADD MLOAD PUSH1 0x0 NOT PUSH1 0xF8 DUP5 PUSH1 0x3 SHL AND SHR NOT AND SWAP1 SSTORE DUP10 DUP1 PUSH2 0x267E JUMP JUMPDEST DUP9 DUP2 ADD MLOAD DUP3 SSTORE PUSH1 0x20 SWAP4 DUP5 ADD SWAP4 PUSH1 0x1 SWAP1 SWAP3 ADD SWAP2 ADD PUSH2 0x2663 JUMP JUMPDEST PUSH1 0x1 DUP10 ADD PUSH1 0x0 MSTORE PUSH1 0x20 PUSH1 0x0 KECCAK256 PUSH1 0x1F DUP4 ADD PUSH1 0x5 SHR DUP2 ADD PUSH1 0x20 DUP5 LT PUSH2 0x26FE JUMPI JUMPDEST PUSH1 0x1F DUP4 ADD PUSH1 0x5 SHR DUP3 ADD DUP2 LT PUSH2 0x26F2 JUMPI POP POP PUSH2 0x2047 JUMP JUMPDEST PUSH1 0x0 DUP2 SSTORE PUSH1 0x1 ADD PUSH2 0x26DC JUMP JUMPDEST POP DUP1 PUSH2 0x26DC JUMP JUMPDEST PUSH1 0x64 SWAP1 PUSH32 0x446576656C6F706572206E6F7420524552412076657269666965640000000000 PUSH1 0x40 MLOAD SWAP2 PUSH3 0x461BCD PUSH1 0xE5 SHL DUP4 MSTORE PUSH1 0x20 PUSH1 0x4 DUP5 ADD MSTORE PUSH1 0x1B PUSH1 0x24 DUP5 ADD MSTORE DUP3 ADD MSTORE REVERT JUMPDEST PUSH1 0x64 SWAP1 PUSH32 0x496E76616C696420646576656C6F706572206164647265737300000000000000 PUSH1 0x40 MLOAD SWAP2 PUSH3 0x461BCD PUSH1 0xE5 SHL DUP4 MSTORE PUSH1 0x20 PUSH1 0x4 DUP5 ADD MSTORE PUSH1 0x19 PUSH1 0x24 DUP5 ADD MSTORE DUP3 ADD MSTORE REVERT JUMPDEST PUSH1 0x64 SWAP1 PUSH20 0x496E76616C696420746F74616C20737570706C79 PUSH1 0x60 SHL PUSH1 0x40 MLOAD SWAP2 PUSH3 0x461BCD PUSH1 0xE5 SHL DUP4 MSTORE PUSH1 0x20 PUSH1 0x4 DUP5 ADD MSTORE PUSH1 0x14 PUSH1 0x24 DUP5 ADD MSTORE DUP3 ADD MSTORE REVERT JUMPDEST PUSH1 0x64 SWAP1 PUSH19 0x496E76616C696420746F74616C2076616C7565 PUSH1 0x68 SHL PUSH1 0x40 MLOAD SWAP2 PUSH3 0x461BCD PUSH1 0xE5 SHL DUP4 MSTORE PUSH1 0x20 PUSH1 0x4 DUP5 ADD MSTORE PUSH1 0x13 PUSH1 0x24 DUP5 ADD MSTORE DUP3 ADD MSTORE REVERT JUMPDEST PUSH1 0x64 SWAP1 PUSH19 0x111311081B9D5B58995C881C995C5D5A5C9959 PUSH1 0x6A SHL PUSH1 0x40 MLOAD SWAP2 PUSH3 0x461BCD PUSH1 0xE5 SHL DUP4 MSTORE PUSH1 0x20 PUSH1 0x4 DUP5 ADD MSTORE PUSH1 0x13 PUSH1 0x24 DUP5 ADD MSTORE DUP3 ADD MSTORE REVERT JUMPDEST PUSH1 0x64 SWAP1 PUSH20 0x14915490481B9D5B58995C881C995C5D5A5C9959 PUSH1 0x62 SHL PUSH1 0x40 MLOAD SWAP2 PUSH3 0x461BCD PUSH1 0xE5 SHL DUP4 MSTORE PUSH1 0x20 PUSH1 0x4 DUP5 ADD MSTORE PUSH1 0x14 PUSH1 0x24 DUP5 ADD MSTORE DUP3 ADD MSTORE REVERT JUMPDEST CALLVALUE PUSH2 0x2B7 JUMPI PUSH1 0x40 CALLDATASIZE PUSH1 0x3 NOT ADD SLT PUSH2 0x2B7 JUMPI PUSH1 0x4 CALLDATALOAD PUSH1 0x24 CALLDATALOAD DUP2 ISZERO ISZERO DUP1 PUSH2 0x2A46 JUMPI JUMPDEST PUSH2 0x28A0 SWAP1 PUSH2 0x40D6 JUMP JUMPDEST PUSH2 0x28A8 PUSH2 0x3CFB JUMP JUMPDEST DUP1 ISZERO PUSH2 0x2A01 JUMPI DUP2 PUSH1 0x0 MSTORE PUSH1 0x20 PUSH1 0x8 DUP2 MSTORE PUSH1 0xFF PUSH1 0x9 PUSH1 0x40 PUSH1 0x0 KECCAK256 ADD SLOAD PUSH1 0x8 SHR AND PUSH1 0x7 DUP2 LT ISZERO PUSH2 0x29EB JUMPI PUSH1 0x5 SUB PUSH2 0x29A7 JUMPI PUSH2 0x28EF DUP4 PUSH1 0x0 MSTORE PUSH1 0x8 PUSH1 0x20 MSTORE PUSH1 0x7 PUSH1 0x40 PUSH1 0x0 KECCAK256 ADD SLOAD SWAP1 JUMP JUMPDEST DUP1 ISZERO PUSH2 0x2962 JUMPI SWAP2 PUSH1 0x40 SWAP2 PUSH2 0x2924 PUSH32 0x63D71F07EB936381FC294FBDED2B933703B98E1387A0C92BC886C12AE4F117C2 SWAP5 DUP4 PUSH2 0x4057 JUMP JUMPDEST SWAP1 DUP6 PUSH1 0x0 MSTORE PUSH1 0x14 DUP2 MSTORE DUP4 PUSH1 0x0 KECCAK256 PUSH2 0x293C DUP4 DUP3 SLOAD PUSH2 0x3F2D JUMP JUMPDEST SWAP1 SSTORE DUP6 PUSH1 0x0 MSTORE PUSH1 0x12 DUP2 MSTORE DUP4 PUSH1 0x0 KECCAK256 PUSH2 0x2955 DUP5 DUP3 SLOAD PUSH2 0x3F2D JUMP JUMPDEST SWAP1 SSTORE DUP4 MLOAD SWAP3 DUP4 MSTORE DUP3 ADD MSTORE LOG2 STOP JUMPDEST PUSH1 0x40 MLOAD PUSH3 0x461BCD PUSH1 0xE5 SHL DUP2 MSTORE PUSH1 0x4 DUP2 ADD DUP4 SWAP1 MSTORE PUSH1 0x18 PUSH1 0x24 DUP3 ADD MSTORE PUSH32 0x4E6F20746F6B656E7320696E2063697263756C6174696F6E0000000000000000 PUSH1 0x44 DUP3 ADD MSTORE PUSH1 0x64 SWAP1 REVERT JUMPDEST PUSH1 0x64 SWAP1 PUSH1 0x40 MLOAD SWAP1 PUSH3 0x461BCD PUSH1 0xE5 SHL DUP3 MSTORE PUSH1 0x4 DUP3 ADD MSTORE PUSH1 0x1E PUSH1 0x24 DUP3 ADD MSTORE PUSH32 0x50726F7065727479206E6F742067656E65726174696E6720696E636F6D650000 PUSH1 0x44 DUP3 ADD MSTORE REVERT JUMPDEST PUSH4 0x4E487B71 PUSH1 0xE0 SHL PUSH1 0x0 MSTORE PUSH1 0x21 PUSH1 0x4 MSTORE PUSH1 0x24 PUSH1 0x0 REVERT JUMPDEST PUSH1 0x40 MLOAD PUSH3 0x461BCD PUSH1 0xE5 SHL DUP2 MSTORE PUSH1 0x20 PUSH1 0x4 DUP3 ADD MSTORE PUSH1 0x17 PUSH1 0x24 DUP3 ADD MSTORE PUSH32 0x496E76616C6964206469766964656E6420616D6F756E74000000000000000000 PUSH1 0x44 DUP3 ADD MSTORE PUSH1 0x64 SWAP1 REVERT JUMPDEST POP PUSH1 0x5 SLOAD DUP3 GT ISZERO PUSH2 0x2897 JUMP JUMPDEST CALLVALUE PUSH2 0x2B7 JUMPI PUSH1 0x0 CALLDATASIZE PUSH1 0x3 NOT ADD SLT PUSH2 0x2B7 JUMPI PUSH2 0x2A6B PUSH2 0x3CFB JUMP JUMPDEST PUSH1 0x3 DUP1 SLOAD PUSH1 0x1 PUSH1 0x1 PUSH1 0xA0 SHL SUB NOT DUP2 AND SWAP1 SWAP2 SSTORE PUSH1 0x0 SWAP1 PUSH1 0x1 PUSH1 0x1 PUSH1 0xA0 SHL SUB AND PUSH32 0x8BE0079C531659141344CD1FD0A4F28419497F9722A3DAAFE3B4186F6B6457E0 DUP3 DUP1 LOG3 STOP JUMPDEST CALLVALUE PUSH2 0x2B7 JUMPI PUSH1 0x0 CALLDATASIZE PUSH1 0x3 NOT ADD SLT PUSH2 0x2B7 JUMPI PUSH1 0x6 SLOAD PUSH1 0x40 MLOAD PUSH1 0x1 PUSH1 0x1 PUSH1 0xA0 SHL SUB SWAP1 SWAP2 AND DUP2 MSTORE PUSH1 0x20 SWAP1 RETURN JUMPDEST CALLVALUE PUSH2 0x2B7 JUMPI PUSH1 0x20 CALLDATASIZE PUSH1 0x3 NOT ADD SLT PUSH2 0x2B7 JUMPI PUSH1 0x1 PUSH1 0x1 PUSH1 0xA0 SHL SUB PUSH2 0x2AF9 PUSH2 0x3A16 JUMP JUMPDEST AND PUSH1 0x0 MSTORE PUSH1 0xD PUSH1 0x20 MSTORE PUSH1 0x20 PUSH1 0xFF PUSH1 0x40 PUSH1 0x0 KECCAK256 SLOAD AND PUSH1 0x40 MLOAD SWAP1 ISZERO ISZERO DUP2 MSTORE RETURN JUMPDEST CALLVALUE PUSH2 0x2B7 JUMPI PUSH1 0x0 CALLDATASIZE PUSH1 0x3 NOT ADD SLT PUSH2 0x2B7 JUMPI PUSH1 0x20 PUSH1 0xFF PUSH1 0x3 SLOAD PUSH1 0xA0 SHR AND PUSH1 0x40 MLOAD SWAP1 ISZERO ISZERO DUP2 MSTORE RETURN JUMPDEST CALLVALUE PUSH2 0x2B7 JUMPI PUSH1 0x40 CALLDATASIZE PUSH1 0x3 NOT ADD SLT PUSH2 0x2B7 JUMPI PUSH1 0x24 CALLDATALOAD PUSH1 0x4 CALLDATALOAD PUSH1 0x7 DUP3 LT ISZERO PUSH2 0x2B7 JUMPI PUSH2 0x2B65 PUSH2 0x3CFB JUMP JUMPDEST DUP1 ISZERO ISZERO DUP1 PUSH2 0x2BA0 JUMPI JUMPDEST PUSH2 0x2B77 SWAP1 PUSH2 0x40D6 JUMP JUMPDEST PUSH1 0x0 MSTORE PUSH1 0x8 PUSH1 0x20 MSTORE PUSH1 0x9 PUSH1 0x40 PUSH1 0x0 KECCAK256 ADD SWAP1 PUSH2 0xFF00 DUP3 SLOAD SWAP2 PUSH1 0x8 SHL AND SWAP1 PUSH2 0xFF00 NOT AND OR SWAP1 SSTORE PUSH1 0x0 DUP1 RETURN JUMPDEST POP PUSH1 0x5 SLOAD DUP2 GT ISZERO PUSH2 0x2B6E JUMP JUMPDEST CALLVALUE PUSH2 0x2B7 JUMPI PUSH1 0x40 CALLDATASIZE PUSH1 0x3 NOT ADD SLT PUSH2 0x2B7 JUMPI PUSH1 0x4 CALLDATALOAD PUSH1 0x1 PUSH1 0x1 PUSH1 0x40 SHL SUB DUP1 DUP3 GT PUSH2 0x2B7 JUMPI CALLDATASIZE PUSH1 0x23 DUP4 ADD SLT ISZERO PUSH2 0x2B7 JUMPI DUP2 PUSH1 0x4 ADD CALLDATALOAD SWAP1 PUSH2 0x2BE9 DUP3 PUSH2 0x3B73 JUMP JUMPDEST SWAP3 PUSH2 0x2BF7 PUSH1 0x40 MLOAD SWAP5 DUP6 PUSH2 0x3A5D JUMP JUMPDEST DUP3 DUP5 MSTORE PUSH1 0x20 SWAP3 PUSH1 0x24 DUP5 DUP7 ADD SWAP2 PUSH1 0x5 SHL DUP4 ADD ADD SWAP2 CALLDATASIZE DUP4 GT PUSH2 0x2B7 JUMPI PUSH1 0x24 ADD SWAP1 JUMPDEST DUP3 DUP3 LT PUSH2 0x2D2B JUMPI POP POP POP PUSH1 0x24 CALLDATALOAD SWAP1 DUP2 GT PUSH2 0x2B7 JUMPI PUSH2 0x2C38 SWAP1 CALLDATASIZE SWAP1 PUSH1 0x4 ADD PUSH2 0x3B8A JUMP JUMPDEST DUP3 MLOAD DUP2 MLOAD SUB PUSH2 0x2CD4 JUMPI DUP3 MLOAD SWAP3 PUSH2 0x2C4D DUP5 PUSH2 0x3B73 JUMP JUMPDEST SWAP4 PUSH2 0x2C5B PUSH1 0x40 MLOAD SWAP6 DUP7 PUSH2 0x3A5D JUMP JUMPDEST DUP1 DUP6 MSTORE PUSH2 0x2C6A PUSH1 0x1F NOT SWAP2 PUSH2 0x3B73 JUMP JUMPDEST ADD CALLDATASIZE DUP5 DUP7 ADD CALLDATACOPY PUSH1 0x0 JUMPDEST DUP2 MLOAD DUP2 LT ISZERO PUSH2 0x2CBD JUMPI PUSH2 0x2CB8 SWAP1 PUSH2 0x2CA8 PUSH1 0x1 PUSH1 0x1 PUSH1 0xA0 SHL SUB PUSH2 0x2C95 DUP4 DUP7 PUSH2 0x3DE7 JUMP JUMPDEST MLOAD AND PUSH2 0x2CA1 DUP4 DUP8 PUSH2 0x3DE7 JUMP JUMPDEST MLOAD SWAP1 PUSH2 0x3D53 JUMP JUMPDEST PUSH2 0x2CB2 DUP3 DUP9 PUSH2 0x3DE7 JUMP JUMPDEST MSTORE PUSH2 0x3DD8 JUMP JUMPDEST PUSH2 0x2C73 JUMP JUMPDEST POP POP POP PUSH2 0x35A PUSH1 0x40 MLOAD SWAP3 DUP3 DUP5 SWAP4 DUP5 MSTORE DUP4 ADD SWAP1 PUSH2 0x3BE8 JUMP JUMPDEST PUSH1 0x40 MLOAD PUSH3 0x461BCD PUSH1 0xE5 SHL DUP2 MSTORE PUSH1 0x4 DUP2 ADD DUP4 SWAP1 MSTORE PUSH1 0x29 PUSH1 0x24 DUP3 ADD MSTORE PUSH32 0x455243313135353A206163636F756E747320616E6420696473206C656E677468 PUSH1 0x44 DUP3 ADD MSTORE PUSH9 0x40DAD2E6DAC2E8C6D PUSH1 0xBB SHL PUSH1 0x64 DUP3 ADD MSTORE PUSH1 0x84 SWAP1 REVERT JUMPDEST DUP2 CALLDATALOAD PUSH1 0x1 PUSH1 0x1 PUSH1 0xA0 SHL SUB DUP2 AND DUP2 SUB PUSH2 0x2B7 JUMPI DUP2 MSTORE SWAP1 DUP5 ADD SWAP1 DUP5 ADD PUSH2 0x2C16 JUMP JUMPDEST CALLVALUE PUSH2 0x2B7 JUMPI PUSH1 0x20 CALLDATASIZE PUSH1 0x3 NOT ADD SLT PUSH2 0x2B7 JUMPI PUSH1 0x4 CALLDATALOAD PUSH1 0x1 PUSH1 0x1 PUSH1 0x40 SHL SUB DUP2 GT PUSH2 0x2B7 JUMPI PUSH2 0x2D80 PUSH1 0x20 PUSH2 0xCA3 DUP2 SWAP4 CALLDATASIZE SWAP1 PUSH1 0x4 ADD PUSH2 0x3A99 JUMP JUMPDEST DUP2 ADD PUSH1 0x11 DUP2 MSTORE SUB ADD SWAP1 KECCAK256 SLOAD PUSH1 0x40 MLOAD SWAP1 DUP2 MSTORE RETURN JUMPDEST CALLVALUE PUSH2 0x2B7 JUMPI PUSH1 0x20 CALLDATASIZE PUSH1 0x3 NOT ADD SLT PUSH2 0x2B7 JUMPI PUSH1 0x1 PUSH1 0x1 PUSH1 0xA0 SHL SUB PUSH2 0x2DB4 PUSH2 0x3A16 JUMP JUMPDEST AND PUSH1 0x0 MSTORE PUSH1 0xE PUSH1 0x20 MSTORE PUSH1 0x20 PUSH1 0xFF PUSH1 0x40 PUSH1 0x0 KECCAK256 SLOAD AND PUSH1 0x40 MLOAD SWAP1 ISZERO ISZERO DUP2 MSTORE RETURN JUMPDEST CALLVALUE PUSH2 0x2B7 JUMPI PUSH1 0x0 CALLDATASIZE PUSH1 0x3 NOT ADD SLT PUSH2 0x2B7 JUMPI PUSH2 0x2DEB PUSH2 0x3CFB JUMP JUMPDEST PUSH1 0x3 SLOAD PUSH1 0xFF DUP2 PUSH1 0xA0 SHR AND ISZERO PUSH2 0x2E32 JUMPI PUSH1 0xFF PUSH1 0xA0 SHL NOT AND PUSH1 0x3 SSTORE PUSH1 0x40 MLOAD CALLER DUP2 MSTORE PUSH32 0x5DB9EE0A495BF2E6FF9C91A7834C1BA4FDD244A5E8AA4E537BD38AEAE4B073AA SWAP1 PUSH1 0x20 SWAP1 LOG1 STOP JUMPDEST PUSH1 0x40 MLOAD PUSH3 0x461BCD PUSH1 0xE5 SHL DUP2 MSTORE PUSH1 0x20 PUSH1 0x4 DUP3 ADD MSTORE PUSH1 0x14 PUSH1 0x24 DUP3 ADD MSTORE PUSH20 0x14185D5CD8589B194E881B9BDD081C185D5CD959 PUSH1 0x62 SHL PUSH1 0x44 DUP3 ADD MSTORE PUSH1 0x64 SWAP1 REVERT JUMPDEST CALLVALUE PUSH2 0x2B7 JUMPI PUSH1 0x20 CALLDATASIZE PUSH1 0x3 NOT ADD SLT PUSH2 0x2B7 JUMPI PUSH1 0x4 CALLDATALOAD PUSH1 0x0 MSTORE PUSH1 0x14 PUSH1 0x20 MSTORE PUSH1 0x20 PUSH1 0x40 PUSH1 0x0 KECCAK256 SLOAD PUSH1 0x40 MLOAD SWAP1 DUP2 MSTORE RETURN JUMPDEST CALLVALUE PUSH2 0x2B7 JUMPI PUSH1 0x3 NOT PUSH1 0xA0 CALLDATASIZE DUP3 ADD SLT PUSH2 0x2B7 JUMPI PUSH2 0x2EB4 PUSH2 0x3A16 JUMP JUMPDEST SWAP1 PUSH2 0x2EBD PUSH2 0x3A2C JUMP JUMPDEST SWAP1 PUSH1 0x1 PUSH1 0x1 PUSH1 0x40 SHL SUB SWAP1 PUSH1 0x44 CALLDATALOAD DUP3 DUP2 GT PUSH2 0x2B7 JUMPI PUSH2 0x2EDF SWAP1 CALLDATASIZE SWAP1 PUSH1 0x4 ADD PUSH2 0x3B8A JUMP JUMPDEST PUSH1 0x64 CALLDATALOAD DUP4 DUP2 GT PUSH2 0x2B7 JUMPI PUSH2 0x2EF7 SWAP1 CALLDATASIZE SWAP1 PUSH1 0x4 ADD PUSH2 0x3B8A JUMP JUMPDEST SWAP3 PUSH1 0x84 CALLDATALOAD SWAP1 DUP2 GT PUSH2 0x2B7 JUMPI PUSH2 0x2F10 SWAP1 CALLDATASIZE SWAP1 PUSH1 0x4 ADD PUSH2 0x3A99 JUMP JUMPDEST PUSH1 0x1 PUSH1 0x1 PUSH1 0xA0 SHL SUB SWAP6 DUP7 AND SWAP6 SWAP1 SWAP3 SWAP1 CALLER DUP8 EQ DUP1 ISZERO PUSH2 0x3233 JUMPI JUMPDEST PUSH2 0x2F32 SWAP1 PUSH2 0x3E11 JUMP JUMPDEST DUP3 MLOAD DUP6 MLOAD SUB PUSH2 0x31DD JUMPI DUP6 AND SWAP3 DUP4 ISZERO ISZERO PUSH2 0x2F4A DUP2 PUSH2 0x3E74 JUMP JUMPDEST PUSH2 0x2F52 PUSH2 0x4179 JUMP JUMPDEST DUP1 PUSH2 0x31D4 JUMPI JUMPDEST PUSH2 0x3162 JUMPI JUMPDEST PUSH1 0x0 JUMPDEST DUP4 MLOAD DUP2 LT ISZERO PUSH2 0x2FF6 JUMPI DUP1 PUSH2 0x2F77 PUSH2 0x2FF1 SWAP3 DUP7 PUSH2 0x3DE7 JUMP JUMPDEST MLOAD PUSH2 0x2F82 DUP3 DUP10 PUSH2 0x3DE7 JUMP JUMPDEST MLOAD SWAP1 DUP1 PUSH1 0x0 MSTORE PUSH1 0x20 SWAP1 PUSH1 0x0 DUP3 MSTORE PUSH1 0x40 PUSH1 0x0 KECCAK256 DUP13 PUSH1 0x0 MSTORE DUP3 MSTORE DUP3 PUSH1 0x40 PUSH1 0x0 KECCAK256 SLOAD PUSH2 0x2FAD DUP3 DUP3 LT ISZERO PUSH2 0x3ECE JUMP JUMPDEST DUP3 PUSH1 0x0 MSTORE PUSH1 0x0 DUP5 MSTORE DUP14 PUSH1 0x40 PUSH1 0x0 KECCAK256 SWAP1 PUSH1 0x0 MSTORE DUP5 MSTORE SUB PUSH1 0x40 PUSH1 0x0 KECCAK256 SSTORE PUSH1 0x0 MSTORE PUSH1 0x0 DUP2 MSTORE PUSH1 0x40 PUSH1 0x0 KECCAK256 SWAP1 DUP9 PUSH1 0x0 MSTORE MSTORE PUSH2 0x2FEA PUSH1 0x40 PUSH1 0x0 KECCAK256 SWAP2 DUP3 SLOAD PUSH2 0x3F2D JUMP JUMPDEST SWAP1 SSTORE PUSH2 0x3DD8 JUMP JUMPDEST PUSH2 0x2F60 JUMP JUMPDEST POP SWAP1 SWAP5 SWAP4 SWAP3 SWAP2 SWAP4 DUP3 DUP8 PUSH1 0x40 MLOAD PUSH1 0x40 DUP2 MSTORE PUSH32 0x4A39DC06D4C0DBC64B70AF90FD698A233A518AA5D07E595D983B8C0526C8F7FB PUSH2 0x3034 PUSH1 0x40 DUP4 ADD DUP11 PUSH2 0x3BE8 JUMP JUMPDEST SWAP2 DUP1 DUP4 SUB PUSH1 0x20 DUP3 ADD MSTORE DUP1 PUSH2 0x3049 CALLER SWAP5 DUP12 PUSH2 0x3BE8 JUMP JUMPDEST SUB SWAP1 LOG4 EXTCODESIZE PUSH2 0x3053 JUMPI STOP JUMPDEST PUSH1 0x0 PUSH1 0x20 SWAP5 PUSH2 0x30B4 PUSH2 0x30A5 SWAP8 PUSH2 0x3095 SWAP5 PUSH1 0x40 MLOAD SWAP10 DUP11 SWAP9 DUP10 SWAP8 DUP9 SWAP7 PUSH4 0xBC197C81 PUSH1 0xE0 SHL SWAP15 DUP16 DUP10 MSTORE CALLER PUSH1 0x4 DUP11 ADD MSTORE PUSH1 0x24 DUP10 ADD MSTORE PUSH1 0xA0 PUSH1 0x44 DUP10 ADD MSTORE PUSH1 0xA4 DUP9 ADD SWAP1 PUSH2 0x3BE8 JUMP JUMPDEST SWAP1 DUP5 DUP8 DUP4 SUB ADD PUSH1 0x64 DUP9 ADD MSTORE PUSH2 0x3BE8 JUMP JUMPDEST SWAP2 DUP5 DUP4 SUB ADD PUSH1 0x84 DUP6 ADD MSTORE PUSH2 0x3B03 JUMP JUMPDEST SUB SWAP3 GAS CALL PUSH1 0x0 SWAP2 DUP2 PUSH2 0x3142 JUMPI JUMPDEST POP PUSH2 0x311A JUMPI POP POP PUSH1 0x1 PUSH2 0x30D2 PUSH2 0x3FA3 JUMP JUMPDEST PUSH4 0x8C379A0 EQ PUSH2 0x30E3 JUMPI JUMPDEST PUSH2 0x96F JUMPI STOP JUMPDEST PUSH2 0x30EB PUSH2 0x3FC1 JUMP JUMPDEST DUP1 PUSH2 0x30F6 JUMPI POP PUSH2 0x30DD JUMP JUMPDEST PUSH1 0x40 MLOAD PUSH3 0x461BCD PUSH1 0xE5 SHL DUP2 MSTORE PUSH1 0x20 PUSH1 0x4 DUP3 ADD MSTORE SWAP1 DUP2 SWAP1 PUSH2 0x9D1 SWAP1 PUSH1 0x24 DUP4 ADD SWAP1 PUSH2 0x3B03 JUMP JUMPDEST PUSH1 0x1 PUSH1 0x1 PUSH1 0xE0 SHL SUB NOT AND EQ PUSH2 0x2B5 JUMPI PUSH1 0x40 MLOAD PUSH3 0x461BCD PUSH1 0xE5 SHL DUP2 MSTORE DUP1 PUSH2 0x9D1 PUSH1 0x4 DUP3 ADD PUSH2 0x3F5A JUMP JUMPDEST PUSH2 0x315B SWAP2 SWAP3 POP PUSH1 0x20 RETURNDATASIZE DUP2 GT PUSH2 0xA5D JUMPI PUSH2 0xA4E DUP2 DUP4 PUSH2 0x3A5D JUMP JUMPDEST SWAP1 DUP4 PUSH2 0x30C1 JUMP JUMPDEST DUP4 PUSH1 0x0 MSTORE PUSH1 0xD PUSH1 0x20 MSTORE PUSH1 0xFF PUSH1 0x40 PUSH1 0x0 KECCAK256 SLOAD AND ISZERO PUSH2 0xAD6 JUMPI DUP4 PUSH1 0x0 MSTORE PUSH1 0xE PUSH1 0x20 MSTORE PUSH1 0xFF PUSH1 0x40 PUSH1 0x0 KECCAK256 SLOAD AND PUSH2 0x2F5D JUMPI PUSH1 0x40 MLOAD PUSH3 0x461BCD PUSH1 0xE5 SHL DUP2 MSTORE PUSH1 0x20 PUSH1 0x4 DUP3 ADD MSTORE PUSH1 0x1D PUSH1 0x24 DUP3 ADD MSTORE PUSH32 0x526563697069656E74206D75737420626520414D4C20636C6561726564000000 PUSH1 0x44 DUP3 ADD MSTORE PUSH1 0x64 SWAP1 REVERT JUMPDEST POP DUP7 ISZERO ISZERO PUSH2 0x2F58 JUMP JUMPDEST PUSH1 0x40 MLOAD PUSH3 0x461BCD PUSH1 0xE5 SHL DUP2 MSTORE PUSH1 0x20 PUSH1 0x4 DUP3 ADD MSTORE PUSH1 0x28 PUSH1 0x24 DUP3 ADD MSTORE PUSH32 0x455243313135353A2069647320616E6420616D6F756E7473206C656E67746820 PUSH1 0x44 DUP3 ADD MSTORE PUSH8 0xDAD2E6DAC2E8C6D PUSH1 0xC3 SHL PUSH1 0x64 DUP3 ADD MSTORE PUSH1 0x84 SWAP1 REVERT JUMPDEST POP DUP7 PUSH1 0x0 MSTORE PUSH1 0x1 PUSH1 0x20 MSTORE PUSH1 0x40 PUSH1 0x0 KECCAK256 CALLER PUSH1 0x0 MSTORE PUSH1 0x20 MSTORE PUSH2 0x2F32 PUSH1 0xFF PUSH1 0x40 PUSH1 0x0 KECCAK256 SLOAD AND SWAP1 POP PUSH2 0x2F29 JUMP JUMPDEST CALLVALUE PUSH2 0x2B7 JUMPI PUSH1 0x40 CALLDATASIZE PUSH1 0x3 NOT ADD SLT PUSH2 0x2B7 JUMPI PUSH1 0x80 PUSH2 0x3277 PUSH2 0x3A16 JUMP JUMPDEST PUSH1 0x24 CALLDATALOAD PUSH2 0x3284 DUP2 DUP4 PUSH2 0x3D53 JUMP JUMPDEST SWAP2 PUSH1 0x1 DUP1 PUSH1 0xA0 SHL SUB AND SWAP1 DUP2 PUSH1 0x0 MSTORE PUSH1 0x20 SWAP2 PUSH1 0xB DUP4 MSTORE PUSH1 0x40 PUSH1 0x0 KECCAK256 DUP3 PUSH1 0x0 MSTORE DUP4 MSTORE PUSH2 0x32F7 PUSH2 0x32F1 PUSH1 0x40 PUSH1 0x0 KECCAK256 SLOAD SWAP3 PUSH1 0x8 DUP7 MSTORE PUSH2 0x32C7 PUSH1 0x8 PUSH1 0x40 PUSH1 0x0 KECCAK256 ADD SLOAD DUP9 PUSH2 0x4077 JUMP JUMPDEST SWAP5 PUSH1 0x0 MSTORE PUSH1 0x14 DUP7 MSTORE PUSH1 0x40 PUSH1 0x0 KECCAK256 SLOAD SWAP1 PUSH1 0x13 DUP8 MSTORE PUSH1 0x40 PUSH1 0x0 KECCAK256 SWAP1 PUSH1 0x0 MSTORE DUP7 MSTORE PUSH1 0x40 PUSH1 0x0 KECCAK256 SLOAD SWAP1 PUSH2 0x4216 JUMP JUMPDEST DUP6 PUSH2 0x4077 JUMP JUMPDEST SWAP3 PUSH1 0x40 MLOAD SWAP5 DUP6 MSTORE DUP5 ADD MSTORE PUSH1 0x40 DUP4 ADD MSTORE PUSH1 0x60 DUP3 ADD MSTORE RETURN JUMPDEST CALLVALUE PUSH2 0x2B7 JUMPI PUSH1 0x20 CALLDATASIZE PUSH1 0x3 NOT ADD SLT PUSH2 0x2B7 JUMPI PUSH1 0x1 PUSH1 0x1 PUSH1 0xA0 SHL SUB PUSH2 0x332E PUSH2 0x3A16 JUMP JUMPDEST AND PUSH1 0x0 MSTORE PUSH1 0xC PUSH1 0x20 MSTORE PUSH1 0xFF PUSH1 0x40 PUSH1 0x0 KECCAK256 SLOAD AND PUSH1 0x40 MLOAD PUSH1 0x3 DUP3 LT ISZERO PUSH2 0x29EB JUMPI PUSH1 0x20 SWAP2 DUP2 MSTORE RETURN JUMPDEST CALLVALUE PUSH2 0x2B7 JUMPI PUSH1 0x20 CALLDATASIZE PUSH1 0x3 NOT ADD SLT PUSH2 0x2B7 JUMPI PUSH1 0x4 CALLDATALOAD PUSH1 0x0 MSTORE PUSH1 0x12 PUSH1 0x20 MSTORE PUSH1 0x20 PUSH1 0x40 PUSH1 0x0 KECCAK256 SLOAD PUSH1 0x40 MLOAD SWAP1 DUP2 MSTORE RETURN JUMPDEST CALLVALUE PUSH2 0x2B7 JUMPI PUSH1 0x20 PUSH2 0x33DA PUSH2 0x3392 CALLDATASIZE PUSH2 0x3B42 JUMP JUMPDEST SWAP3 SWAP1 PUSH2 0x339C PUSH2 0x3CFB JUMP JUMPDEST PUSH1 0x40 MLOAD SWAP1 DUP1 MLOAD SWAP2 DUP4 DUP2 DUP2 DUP5 ADD SWAP5 PUSH2 0x33B4 DUP2 DUP4 DUP9 PUSH2 0x3AE0 JUMP JUMPDEST DUP2 ADD PUSH1 0x10 DUP2 MSTORE SUB ADD SWAP1 KECCAK256 PUSH1 0x1 PUSH1 0xFF NOT DUP3 SLOAD AND OR SWAP1 SSTORE PUSH1 0x40 MLOAD SWAP4 DUP5 SWAP3 DUP4 SWAP3 MLOAD SWAP3 DUP4 SWAP2 PUSH2 0x3AE0 JUMP JUMPDEST DUP2 ADD PUSH1 0x11 DUP2 MSTORE SUB ADD SWAP1 KECCAK256 SSTORE PUSH1 0x0 DUP1 RETURN JUMPDEST CALLVALUE PUSH2 0x2B7 JUMPI PUSH1 0x20 CALLDATASIZE PUSH1 0x3 NOT ADD SLT PUSH2 0x2B7 JUMPI PUSH1 0x1 PUSH1 0x1 PUSH1 0xA0 SHL SUB PUSH2 0x340B PUSH2 0x3A16 JUMP JUMPDEST AND PUSH1 0x0 MSTORE PUSH1 0x16 PUSH1 0x20 MSTORE PUSH1 0x20 PUSH1 0xFF PUSH1 0x40 PUSH1 0x0 KECCAK256 SLOAD AND PUSH1 0x40 MLOAD SWAP1 ISZERO ISZERO DUP2 MSTORE RETURN JUMPDEST CALLVALUE PUSH2 0x2B7 JUMPI PUSH1 0x20 PUSH2 0x33DA PUSH2 0x343C CALLDATASIZE PUSH2 0x3B42 JUMP JUMPDEST SWAP3 SWAP1 PUSH2 0x3446 PUSH2 0x3CFB JUMP JUMPDEST PUSH1 0x40 MLOAD SWAP1 PUSH2 0x1E66 PUSH1 0xFF DUP3 MLOAD SWAP4 DUP6 DUP2 DUP2 DUP7 ADD SWAP7 PUSH2 0x110D DUP2 DUP4 DUP11 PUSH2 0x3AE0 JUMP JUMPDEST CALLVALUE PUSH2 0x2B7 JUMPI PUSH1 0x20 CALLDATASIZE PUSH1 0x3 NOT ADD SLT PUSH2 0x2B7 JUMPI PUSH1 0x4 CALLDATALOAD DUP1 ISZERO ISZERO DUP1 PUSH2 0x3609 JUMPI JUMPDEST PUSH2 0x3489 SWAP1 PUSH2 0x40D6 JUMP JUMPDEST PUSH1 0x0 MSTORE PUSH1 0x8 PUSH1 0x20 MSTORE PUSH1 0x40 PUSH1 0x0 KECCAK256 PUSH1 0x6 DUP2 ADD SLOAD PUSH1 0x7 DUP3 ADD SLOAD SWAP1 PUSH1 0x8 DUP4 ADD SLOAD PUSH1 0x9 DUP5 ADD SLOAD PUSH1 0xC DUP6 ADD SLOAD SWAP2 PUSH1 0x40 MLOAD SWAP5 DUP6 DUP1 PUSH1 0x1 DUP10 ADD SWAP1 PUSH2 0x34C5 SWAP2 PUSH2 0x3C65 JUMP JUMPDEST SUB PUSH2 0x34D0 SWAP1 DUP8 PUSH2 0x3A5D JUMP JUMPDEST PUSH1 0x40 MLOAD SWAP7 DUP8 PUSH2 0x34E2 DUP2 PUSH1 0x2 DUP5 ADD PUSH2 0x3C65 JUMP JUMPDEST SUB PUSH2 0x34ED SWAP1 DUP10 PUSH2 0x3A5D JUMP JUMPDEST PUSH1 0x40 MLOAD DUP1 PUSH2 0x34FE DUP2 PUSH1 0x3 DUP6 ADD PUSH2 0x3C65 JUMP JUMPDEST SUB PUSH2 0x3509 SWAP1 DUP3 PUSH2 0x3A5D JUMP JUMPDEST PUSH1 0x40 MLOAD SWAP1 DUP2 PUSH2 0x351B DUP2 PUSH1 0x4 DUP7 ADD PUSH2 0x3C65 JUMP JUMPDEST SUB PUSH2 0x3526 SWAP1 DUP4 PUSH2 0x3A5D JUMP JUMPDEST PUSH1 0x40 MLOAD DUP1 PUSH1 0x5 DUP2 SWAP6 ADD SWAP1 PUSH2 0x3539 SWAP2 PUSH2 0x3C65 JUMP JUMPDEST SUB PUSH2 0x3544 SWAP1 DUP5 PUSH2 0x3A5D JUMP JUMPDEST PUSH1 0x40 MLOAD SWAP10 DUP11 SWAP10 PUSH2 0x1A0 DUP1 DUP13 MSTORE DUP12 ADD PUSH2 0x355B SWAP2 PUSH2 0x3B03 JUMP JUMPDEST DUP11 DUP2 SUB PUSH1 0x20 DUP13 ADD MSTORE PUSH2 0x356C SWAP2 PUSH2 0x3B03 JUMP JUMPDEST DUP10 DUP2 SUB PUSH1 0x40 DUP12 ADD MSTORE PUSH2 0x357D SWAP2 PUSH2 0x3B03 JUMP JUMPDEST DUP9 DUP2 SUB PUSH1 0x60 DUP11 ADD MSTORE PUSH2 0x358E SWAP2 PUSH2 0x3B03 JUMP JUMPDEST DUP8 DUP2 SUB PUSH1 0x80 DUP10 ADD MSTORE PUSH2 0x359F SWAP2 PUSH2 0x3B03 JUMP JUMPDEST SWAP5 PUSH1 0xA0 DUP8 ADD MSTORE PUSH1 0xC0 DUP7 ADD MSTORE PUSH1 0xE0 DUP6 ADD MSTORE PUSH2 0x100 DUP5 ADD PUSH1 0xFF DUP3 AND SWAP1 PUSH2 0x35C2 SWAP2 PUSH2 0x3B28 JUMP JUMPDEST PUSH2 0x35D7 PUSH2 0x120 DUP6 ADD PUSH1 0xFF PUSH1 0x8 DUP5 SWAP1 SHR AND PUSH2 0x3B35 JUMP JUMPDEST PUSH1 0x10 SHR PUSH1 0x1 PUSH1 0x1 PUSH1 0xA0 SHL SUB AND PUSH2 0x140 DUP5 ADD MSTORE PUSH1 0xFF DUP2 DUP2 AND ISZERO ISZERO PUSH2 0x160 DUP6 ADD MSTORE PUSH1 0x8 SWAP2 SWAP1 SWAP2 SHR AND ISZERO ISZERO PUSH2 0x180 DUP4 ADD MSTORE SUB SWAP1 RETURN JUMPDEST POP PUSH1 0x5 SLOAD DUP2 GT ISZERO PUSH2 0x3480 JUMP JUMPDEST CALLVALUE PUSH2 0x2B7 JUMPI PUSH1 0x20 DUP1 PUSH1 0x3 NOT CALLDATASIZE ADD SLT PUSH2 0x2B7 JUMPI PUSH1 0x4 CALLDATALOAD SWAP1 DUP2 ISZERO ISZERO DUP1 PUSH2 0x38DC JUMPI JUMPDEST ISZERO PUSH2 0x38A1 JUMPI PUSH1 0x40 MLOAD PUSH1 0x2 SLOAD PUSH1 0x0 PUSH2 0x364A DUP3 PUSH2 0x3C2B JUMP JUMPDEST DUP1 DUP5 MSTORE DUP4 DUP6 DUP2 ADD SWAP3 PUSH1 0x1 SWAP5 DUP8 DUP7 DUP3 AND SWAP2 DUP3 PUSH1 0x0 EQ PUSH2 0x3886 JUMPI POP POP PUSH1 0x1 EQ PUSH2 0x3828 JUMPI JUMPDEST PUSH2 0x3678 SWAP3 POP SUB DUP5 PUSH2 0x3A5D JUMP JUMPDEST PUSH1 0x0 SWAP5 DUP1 PUSH27 0x184F03E93FF9F4DAA797ED6E38ED64BF6A1F010000000000000000 DUP2 DUP2 DUP2 LT ISZERO PUSH2 0x381A JUMPI JUMPDEST POP POP PUSH14 0x4EE2D6D415B85ACEF8100000000 DUP1 DUP4 LT ISZERO PUSH2 0x380C JUMPI JUMPDEST POP PUSH7 0x2386F26FC10000 DUP1 DUP4 LT ISZERO PUSH2 0x37FD JUMPI JUMPDEST POP PUSH4 0x5F5E100 DUP1 DUP4 LT ISZERO PUSH2 0x37EE JUMPI JUMPDEST POP PUSH2 0x2710 DUP1 DUP4 LT ISZERO PUSH2 0x37DF JUMPI JUMPDEST POP PUSH1 0x64 DUP3 LT ISZERO PUSH2 0x37CF JUMPI JUMPDEST PUSH1 0xA DUP1 SWAP3 LT ISZERO PUSH2 0x37C6 JUMPI JUMPDEST SWAP3 DUP1 DUP8 ADD SWAP4 DUP2 PUSH1 0x21 PUSH2 0x372A PUSH2 0x3714 DUP9 PUSH2 0x3A7E JUMP JUMPDEST SWAP8 PUSH2 0x3722 PUSH1 0x40 MLOAD SWAP10 DUP11 PUSH2 0x3A5D JUMP JUMPDEST DUP1 DUP10 MSTORE PUSH2 0x3A7E JUMP JUMPDEST DUP8 DUP11 ADD SWAP11 SWAP1 PUSH1 0x1F NOT ADD CALLDATASIZE DUP13 CALLDATACOPY DUP8 ADD ADD SWAP1 JUMPDEST PUSH2 0x3790 JUMPI JUMPDEST PUSH2 0x3761 DUP9 PUSH2 0x377C DUP2 DUP11 DUP14 DUP12 PUSH2 0x3770 DUP13 PUSH1 0x40 MLOAD SWAP9 DUP10 SWAP6 MLOAD DUP1 SWAP3 DUP9 DUP9 ADD SWAP1 PUSH2 0x3AE0 JUMP JUMPDEST DUP5 ADD SWAP2 MLOAD DUP1 SWAP4 DUP7 DUP5 ADD SWAP1 PUSH2 0x3AE0 JUMP JUMPDEST ADD SUB DUP1 DUP6 MSTORE ADD DUP4 PUSH2 0x3A5D JUMP JUMPDEST PUSH2 0x35A PUSH1 0x40 MLOAD SWAP3 DUP3 DUP5 SWAP4 DUP5 MSTORE DUP4 ADD SWAP1 PUSH2 0x3B03 JUMP JUMPDEST PUSH1 0x0 NOT ADD SWAP1 DUP4 SWAP1 PUSH16 0x181899199A1A9B1B9C1CB0B131B232B3 PUSH1 0x81 SHL DUP3 DUP3 MOD BYTE DUP4 MSTORE8 DIV SWAP2 DUP3 ISZERO PUSH2 0x37C1 JUMPI SWAP2 SWAP1 DUP3 PUSH2 0x373B JUMP JUMPDEST PUSH2 0x3740 JUMP JUMPDEST SWAP6 DUP4 ADD SWAP6 PUSH2 0x3700 JUMP JUMPDEST SWAP6 SWAP1 PUSH1 0x64 PUSH1 0x2 SWAP2 DIV SWAP2 ADD SWAP6 PUSH2 0x36F5 JUMP JUMPDEST PUSH1 0x4 SWAP2 SWAP8 SWAP3 DIV SWAP2 ADD SWAP6 DUP8 PUSH2 0x36EA JUMP JUMPDEST PUSH1 0x8 SWAP2 SWAP8 SWAP3 DIV SWAP2 ADD SWAP6 DUP8 PUSH2 0x36DD JUMP JUMPDEST PUSH1 0x10 SWAP2 SWAP8 SWAP3 DIV SWAP2 ADD SWAP6 DUP8 PUSH2 0x36CE JUMP JUMPDEST DUP7 SWAP2 SWAP8 SWAP3 DIV SWAP2 ADD SWAP6 DUP8 PUSH2 0x36BC JUMP JUMPDEST PUSH1 0x40 SWAP9 POP DIV SWAP2 POP DUP8 DUP1 PUSH2 0x36A2 JUMP JUMPDEST POP POP PUSH1 0x2 PUSH1 0x0 MSTORE DUP4 DUP6 PUSH32 0x405787FA12A823E0F2B7631CC41B3BA8828B3321CA811111FA75CD3AA3BB5ACE DUP6 PUSH1 0x0 SWAP2 JUMPDEST DUP6 DUP4 LT PUSH2 0x386D JUMPI POP POP PUSH2 0x3678 SWAP4 POP DUP3 ADD ADD PUSH2 0x366C JUMP JUMPDEST DUP1 SWAP2 SWAP3 SWAP5 POP SLOAD DUP4 DUP6 DUP11 ADD ADD MSTORE ADD SWAP2 ADD DUP7 SWAP1 DUP6 DUP8 SWAP4 PUSH2 0x3857 JUMP JUMPDEST PUSH1 0xFF NOT AND DUP7 MSTORE PUSH2 0x3678 SWAP5 ISZERO ISZERO PUSH1 0x5 SHL DUP5 ADD ADD SWAP2 POP PUSH2 0x366C SWAP1 POP JUMP JUMPDEST PUSH1 0x64 SWAP1 PUSH1 0x40 MLOAD SWAP1 PUSH3 0x461BCD PUSH1 0xE5 SHL DUP3 MSTORE PUSH1 0x4 DUP3 ADD MSTORE PUSH1 0x14 PUSH1 0x24 DUP3 ADD MSTORE PUSH20 0x151BDAD95B88191BD95CC81B9BDD08195E1A5CDD PUSH1 0x62 SHL PUSH1 0x44 DUP3 ADD MSTORE REVERT JUMPDEST POP PUSH1 0x5 SLOAD DUP3 GT ISZERO PUSH2 0x3634 JUMP JUMPDEST CALLVALUE PUSH2 0x2B7 JUMPI PUSH1 0x20 CALLDATASIZE PUSH1 0x3 NOT ADD SLT PUSH2 0x2B7 JUMPI PUSH2 0x3901 PUSH2 0x3A16 JUMP JUMPDEST PUSH2 0x3909 PUSH2 0x3CFB JUMP JUMPDEST PUSH1 0x6 DUP1 SLOAD PUSH1 0x1 PUSH1 0x1 PUSH1 0xA0 SHL SUB NOT AND PUSH1 0x1 PUSH1 0x1 PUSH1 0xA0 SHL SUB SWAP3 SWAP1 SWAP3 AND SWAP2 SWAP1 SWAP2 OR SWAP1 SSTORE STOP JUMPDEST CALLVALUE PUSH2 0x2B7 JUMPI PUSH1 0x20 CALLDATASIZE PUSH1 0x3 NOT ADD SLT PUSH2 0x2B7 JUMPI PUSH1 0x4 CALLDATALOAD PUSH1 0x1 PUSH1 0x1 PUSH1 0x40 SHL SUB DUP2 GT PUSH2 0x2B7 JUMPI PUSH1 0xFF PUSH2 0x3963 PUSH1 0x20 PUSH2 0xCA3 DUP2 SWAP5 CALLDATASIZE SWAP1 PUSH1 0x4 ADD PUSH2 0x3A99 JUMP JUMPDEST DUP2 ADD PUSH1 0x10 DUP2 MSTORE SUB ADD SWAP1 KECCAK256 SLOAD AND PUSH1 0x40 MLOAD SWAP1 ISZERO ISZERO DUP2 MSTORE RETURN JUMPDEST CALLVALUE PUSH2 0x2B7 JUMPI PUSH1 0x20 CALLDATASIZE PUSH1 0x3 NOT ADD SLT PUSH2 0x2B7 JUMPI PUSH1 0x4 CALLDATALOAD PUSH4 0xFFFFFFFF PUSH1 0xE0 SHL DUP2 AND DUP1 SWAP2 SUB PUSH2 0x2B7 JUMPI PUSH1 0x20 SWAP1 PUSH4 0x6CDB3D13 PUSH1 0xE1 SHL DUP2 EQ SWAP1 DUP2 ISZERO PUSH2 0x39D6 JUMPI JUMPDEST DUP2 ISZERO PUSH2 0x39C5 JUMPI JUMPDEST POP PUSH1 0x40 MLOAD SWAP1 ISZERO ISZERO DUP2 MSTORE RETURN JUMPDEST PUSH4 0x1FFC9A7 PUSH1 0xE0 SHL EQ SWAP1 POP DUP3 PUSH2 0x39BA JUMP JUMPDEST PUSH4 0x3A24D07 PUSH1 0xE2 SHL DUP2 EQ SWAP2 POP PUSH2 0x39B3 JUMP JUMPDEST CALLVALUE PUSH2 0x2B7 JUMPI PUSH1 0x40 CALLDATASIZE PUSH1 0x3 NOT ADD SLT PUSH2 0x2B7 JUMPI PUSH1 0x20 PUSH2 0x3A0E PUSH2 0x3A05 PUSH2 0x3A16 JUMP JUMPDEST PUSH1 0x24 CALLDATALOAD SWAP1 PUSH2 0x3D53 JUMP JUMPDEST PUSH1 0x40 MLOAD SWAP1 DUP2 MSTORE RETURN JUMPDEST PUSH1 0x4 CALLDATALOAD SWAP1 PUSH1 0x1 PUSH1 0x1 PUSH1 0xA0 SHL SUB DUP3 AND DUP3 SUB PUSH2 0x2B7 JUMPI JUMP JUMPDEST PUSH1 0x24 CALLDATALOAD SWAP1 PUSH1 0x1 PUSH1 0x1 PUSH1 0xA0 SHL SUB DUP3 AND DUP3 SUB PUSH2 0x2B7 JUMPI JUMP JUMPDEST PUSH1 0x40 DUP2 ADD SWAP1 DUP2 LT PUSH1 0x1 PUSH1 0x1 PUSH1 0x40 SHL SUB DUP3 GT OR PUSH2 0xE24 JUMPI PUSH1 0x40 MSTORE JUMP JUMPDEST SWAP1 PUSH1 0x1F DUP1 NOT SWAP2 ADD AND DUP2 ADD SWAP1 DUP2 LT PUSH1 0x1 PUSH1 0x1 PUSH1 0x40 SHL SUB DUP3 GT OR PUSH2 0xE24 JUMPI PUSH1 0x40 MSTORE JUMP JUMPDEST PUSH1 0x1 PUSH1 0x1 PUSH1 0x40 SHL SUB DUP2 GT PUSH2 0xE24 JUMPI PUSH1 0x1F ADD PUSH1 0x1F NOT AND PUSH1 0x20 ADD SWAP1 JUMP JUMPDEST DUP2 PUSH1 0x1F DUP3 ADD SLT ISZERO PUSH2 0x2B7 JUMPI DUP1 CALLDATALOAD SWAP1 PUSH2 0x3AB0 DUP3 PUSH2 0x3A7E JUMP JUMPDEST SWAP3 PUSH2 0x3ABE PUSH1 0x40 MLOAD SWAP5 DUP6 PUSH2 0x3A5D JUMP JUMPDEST DUP3 DUP5 MSTORE PUSH1 0x20 DUP4 DUP4 ADD ADD GT PUSH2 0x2B7 JUMPI DUP2 PUSH1 0x0 SWAP3 PUSH1 0x20 DUP1 SWAP4 ADD DUP4 DUP7 ADD CALLDATACOPY DUP4 ADD ADD MSTORE SWAP1 JUMP JUMPDEST PUSH1 0x0 JUMPDEST DUP4 DUP2 LT PUSH2 0x3AF3 JUMPI POP POP PUSH1 0x0 SWAP2 ADD MSTORE JUMP JUMPDEST DUP2 DUP2 ADD MLOAD DUP4 DUP3 ADD MSTORE PUSH1 0x20 ADD PUSH2 0x3AE3 JUMP JUMPDEST SWAP1 PUSH1 0x20 SWAP2 PUSH2 0x3B1C DUP2 MLOAD DUP1 SWAP3 DUP2 DUP6 MSTORE DUP6 DUP1 DUP7 ADD SWAP2 ADD PUSH2 0x3AE0 JUMP JUMPDEST PUSH1 0x1F ADD PUSH1 0x1F NOT AND ADD ADD SWAP1 JUMP JUMPDEST SWAP1 PUSH1 0x8 DUP3 LT ISZERO PUSH2 0x29EB JUMPI MSTORE JUMP JUMPDEST SWAP1 PUSH1 0x7 DUP3 LT ISZERO PUSH2 0x29EB JUMPI MSTORE JUMP JUMPDEST PUSH1 0x40 PUSH1 0x3 NOT DUP3 ADD SLT PUSH2 0x2B7 JUMPI PUSH1 0x4 CALLDATALOAD SWAP1 PUSH1 0x1 PUSH1 0x1 PUSH1 0x40 SHL SUB DUP3 GT PUSH2 0x2B7 JUMPI PUSH2 0x3B6C SWAP2 PUSH1 0x4 ADD PUSH2 0x3A99 JUMP JUMPDEST SWAP1 PUSH1 0x24 CALLDATALOAD SWAP1 JUMP JUMPDEST PUSH1 0x1 PUSH1 0x1 PUSH1 0x40 SHL SUB DUP2 GT PUSH2 0xE24 JUMPI PUSH1 0x5 SHL PUSH1 0x20 ADD SWAP1 JUMP JUMPDEST DUP2 PUSH1 0x1F DUP3 ADD SLT ISZERO PUSH2 0x2B7 JUMPI DUP1 CALLDATALOAD SWAP2 PUSH2 0x3BA1 DUP4 PUSH2 0x3B73 JUMP JUMPDEST SWAP3 PUSH2 0x3BAF PUSH1 0x40 MLOAD SWAP5 DUP6 PUSH2 0x3A5D JUMP JUMPDEST DUP1 DUP5 MSTORE PUSH1 0x20 SWAP3 DUP4 DUP1 DUP7 ADD SWAP3 PUSH1 0x5 SHL DUP3 ADD ADD SWAP3 DUP4 GT PUSH2 0x2B7 JUMPI DUP4 ADD SWAP1 JUMPDEST DUP3 DUP3 LT PUSH2 0x3BD9 JUMPI POP POP POP POP SWAP1 JUMP JUMPDEST DUP2 CALLDATALOAD DUP2 MSTORE SWAP1 DUP4 ADD SWAP1 DUP4 ADD PUSH2 0x3BCB JUMP JUMPDEST SWAP1 DUP2 MLOAD DUP1 DUP3 MSTORE PUSH1 0x20 DUP1 DUP1 SWAP4 ADD SWAP4 ADD SWAP2 PUSH1 0x0 JUMPDEST DUP3 DUP2 LT PUSH2 0x3C08 JUMPI POP POP POP POP SWAP1 JUMP JUMPDEST DUP4 MLOAD DUP6 MSTORE SWAP4 DUP2 ADD SWAP4 SWAP3 DUP2 ADD SWAP3 PUSH1 0x1 ADD PUSH2 0x3BFA JUMP JUMPDEST PUSH1 0x24 CALLDATALOAD SWAP1 DUP2 ISZERO ISZERO DUP3 SUB PUSH2 0x2B7 JUMPI JUMP JUMPDEST SWAP1 PUSH1 0x1 DUP3 DUP2 SHR SWAP3 AND DUP1 ISZERO PUSH2 0x3C5B JUMPI JUMPDEST PUSH1 0x20 DUP4 LT EQ PUSH2 0x3C45 JUMPI JUMP JUMPDEST PUSH4 0x4E487B71 PUSH1 0xE0 SHL PUSH1 0x0 MSTORE PUSH1 0x22 PUSH1 0x4 MSTORE PUSH1 0x24 PUSH1 0x0 REVERT JUMPDEST SWAP2 PUSH1 0x7F AND SWAP2 PUSH2 0x3C3A JUMP JUMPDEST SWAP1 PUSH1 0x0 SWAP3 SWAP2 DUP1 SLOAD SWAP2 PUSH2 0x3C76 DUP4 PUSH2 0x3C2B JUMP JUMPDEST SWAP2 DUP3 DUP3 MSTORE PUSH1 0x1 SWAP4 DUP5 DUP2 AND SWAP1 DUP2 PUSH1 0x0 EQ PUSH2 0x3CD8 JUMPI POP PUSH1 0x1 EQ PUSH2 0x3C98 JUMPI JUMPDEST POP POP POP POP JUMP JUMPDEST SWAP1 SWAP2 SWAP4 SWAP5 POP PUSH1 0x0 MSTORE PUSH1 0x20 SWAP3 DUP4 PUSH1 0x0 KECCAK256 SWAP3 DUP5 PUSH1 0x0 SWAP5 JUMPDEST DUP4 DUP7 LT PUSH2 0x3CC4 JUMPI POP POP POP POP ADD ADD SWAP1 CODESIZE DUP1 DUP1 DUP1 PUSH2 0x3C92 JUMP JUMPDEST DUP1 SLOAD DUP6 DUP8 ADD DUP4 ADD MSTORE SWAP5 ADD SWAP4 DUP6 SWAP1 DUP3 ADD PUSH2 0x3CAD JUMP JUMPDEST SWAP3 SWAP5 POP POP POP PUSH1 0x20 SWAP4 SWAP5 POP PUSH1 0xFF NOT AND DUP4 DUP4 ADD MSTORE ISZERO ISZERO PUSH1 0x5 SHL ADD ADD SWAP1 CODESIZE DUP1 DUP1 DUP1 PUSH2 0x3C92 JUMP JUMPDEST PUSH1 0x3 SLOAD PUSH1 0x1 PUSH1 0x1 PUSH1 0xA0 SHL SUB AND CALLER SUB PUSH2 0x3D0F JUMPI JUMP JUMPDEST PUSH1 0x64 PUSH1 0x40 MLOAD PUSH3 0x461BCD PUSH1 0xE5 SHL DUP2 MSTORE PUSH1 0x20 PUSH1 0x4 DUP3 ADD MSTORE PUSH1 0x20 PUSH1 0x24 DUP3 ADD MSTORE PUSH32 0x4F776E61626C653A2063616C6C6572206973206E6F7420746865206F776E6572 PUSH1 0x44 DUP3 ADD MSTORE REVERT JUMPDEST PUSH1 0x1 PUSH1 0x1 PUSH1 0xA0 SHL SUB AND SWAP1 DUP2 ISZERO PUSH2 0x3D80 JUMPI PUSH1 0x0 MSTORE PUSH1 0x0 PUSH1 0x20 MSTORE PUSH1 0x40 PUSH1 0x0 KECCAK256 SWAP1 PUSH1 0x0 MSTORE PUSH1 0x20 MSTORE PUSH1 0x40 PUSH1 0x0 KECCAK256 SLOAD SWAP1 JUMP JUMPDEST PUSH1 0x40 MLOAD PUSH3 0x461BCD PUSH1 0xE5 SHL DUP2 MSTORE PUSH1 0x20 PUSH1 0x4 DUP3 ADD MSTORE PUSH1 0x2A PUSH1 0x24 DUP3 ADD MSTORE PUSH32 0x455243313135353A2061646472657373207A65726F206973206E6F7420612076 PUSH1 0x44 DUP3 ADD MSTORE PUSH10 0x30B634B21037BBB732B9 PUSH1 0xB1 SHL PUSH1 0x64 DUP3 ADD MSTORE PUSH1 0x84 SWAP1 REVERT JUMPDEST PUSH1 0x0 NOT DUP2 EQ PUSH2 0x2310 JUMPI PUSH1 0x1 ADD SWAP1 JUMP JUMPDEST DUP1 MLOAD DUP3 LT ISZERO PUSH2 0x3DFB JUMPI PUSH1 0x20 SWAP2 PUSH1 0x5 SHL ADD ADD SWAP1 JUMP JUMPDEST PUSH4 0x4E487B71 PUSH1 0xE0 SHL PUSH1 0x0 MSTORE PUSH1 0x32 PUSH1 0x4 MSTORE PUSH1 0x24 PUSH1 0x0 REVERT JUMPDEST ISZERO PUSH2 0x3E18 JUMPI JUMP JUMPDEST PUSH1 0x40 MLOAD PUSH3 0x461BCD PUSH1 0xE5 SHL DUP2 MSTORE PUSH1 0x20 PUSH1 0x4 DUP3 ADD MSTORE PUSH1 0x2E PUSH1 0x24 DUP3 ADD MSTORE PUSH32 0x455243313135353A2063616C6C6572206973206E6F7420746F6B656E206F776E PUSH1 0x44 DUP3 ADD MSTORE PUSH14 0x195C881BDC88185C1C1C9BDD9959 PUSH1 0x92 SHL PUSH1 0x64 DUP3 ADD MSTORE PUSH1 0x84 SWAP1 REVERT JUMPDEST ISZERO PUSH2 0x3E7B JUMPI JUMP JUMPDEST PUSH1 0x40 MLOAD PUSH3 0x461BCD PUSH1 0xE5 SHL DUP2 MSTORE PUSH1 0x20 PUSH1 0x4 DUP3 ADD MSTORE PUSH1 0x25 PUSH1 0x24 DUP3 ADD MSTORE PUSH32 0x455243313135353A207472616E7366657220746F20746865207A65726F206164 PUSH1 0x44 DUP3 ADD MSTORE PUSH5 0x6472657373 PUSH1 0xD8 SHL PUSH1 0x64 DUP3 ADD MSTORE PUSH1 0x84 SWAP1 REVERT JUMPDEST ISZERO PUSH2 0x3ED5 JUMPI JUMP JUMPDEST PUSH1 0x40 MLOAD PUSH3 0x461BCD PUSH1 0xE5 SHL DUP2 MSTORE PUSH1 0x20 PUSH1 0x4 DUP3 ADD MSTORE PUSH1 0x2A PUSH1 0x24 DUP3 ADD MSTORE PUSH32 0x455243313135353A20696E73756666696369656E742062616C616E636520666F PUSH1 0x44 DUP3 ADD MSTORE PUSH10 0x39103A3930B739B332B9 PUSH1 0xB1 SHL PUSH1 0x64 DUP3 ADD MSTORE PUSH1 0x84 SWAP1 REVERT JUMPDEST SWAP2 SWAP1 DUP3 ADD DUP1 SWAP3 GT PUSH2 0x2310 JUMPI JUMP JUMPDEST SWAP1 DUP2 PUSH1 0x20 SWAP2 SUB SLT PUSH2 0x2B7 JUMPI MLOAD PUSH1 0x1 PUSH1 0x1 PUSH1 0xE0 SHL SUB NOT DUP2 AND DUP2 SUB PUSH2 0x2B7 JUMPI SWAP1 JUMP JUMPDEST PUSH1 0x80 SWAP1 PUSH1 0x20 DUP2 MSTORE PUSH1 0x28 PUSH1 0x20 DUP3 ADD MSTORE PUSH32 0x455243313135353A204552433131353552656365697665722072656A65637465 PUSH1 0x40 DUP3 ADD MSTORE PUSH8 0x6420746F6B656E73 PUSH1 0xC0 SHL PUSH1 0x60 DUP3 ADD MSTORE ADD SWAP1 JUMP JUMPDEST PUSH1 0x0 SWAP1 PUSH1 0x3 RETURNDATASIZE GT PUSH2 0x3FB0 JUMPI JUMP JUMPDEST SWAP1 POP PUSH1 0x4 PUSH1 0x0 DUP1 RETURNDATACOPY PUSH1 0x0 MLOAD PUSH1 0xE0 SHR SWAP1 JUMP JUMPDEST PUSH1 0x0 PUSH1 0x44 RETURNDATASIZE LT PUSH2 0x401E JUMPI PUSH1 0x40 MLOAD PUSH1 0x3 NOT SWAP2 RETURNDATASIZE DUP4 ADD PUSH1 0x4 DUP4 RETURNDATACOPY DUP2 MLOAD PUSH1 0x1 PUSH1 0x1 PUSH1 0x40 SHL SUB SWAP2 DUP3 DUP3 GT RETURNDATASIZE PUSH1 0x24 DUP5 ADD GT OR PUSH2 0x4021 JUMPI DUP2 DUP5 ADD SWAP5 DUP6 MLOAD SWAP4 DUP5 GT PUSH2 0x4029 JUMPI RETURNDATASIZE DUP6 ADD ADD PUSH1 0x20 DUP5 DUP8 ADD ADD GT PUSH2 0x4021 JUMPI POP PUSH2 0x401E SWAP3 SWAP2 ADD PUSH1 0x20 ADD SWAP1 PUSH2 0x3A5D JUMP JUMPDEST SWAP1 JUMP JUMPDEST SWAP5 SWAP4 POP POP POP POP JUMP JUMPDEST POP SWAP5 SWAP4 POP POP POP POP JUMP JUMPDEST PUSH1 0x40 MLOAD SWAP1 PUSH2 0x403F DUP3 PUSH2 0x3A42 JUMP JUMPDEST PUSH1 0x1 DUP3 MSTORE PUSH1 0x20 DUP3 ADD PUSH1 0x20 CALLDATASIZE DUP3 CALLDATACOPY DUP3 MLOAD ISZERO PUSH2 0x3DFB JUMPI MSTORE SWAP1 JUMP JUMPDEST DUP2 ISZERO PUSH2 0x4061 JUMPI DIV SWAP1 JUMP JUMPDEST PUSH4 0x4E487B71 PUSH1 0xE0 SHL PUSH1 0x0 MSTORE PUSH1 0x12 PUSH1 0x4 MSTORE PUSH1 0x24 PUSH1 0x0 REVERT JUMPDEST DUP2 DUP2 MUL SWAP3 SWAP2 DUP2 ISZERO SWAP2 DUP5 DIV EQ OR ISZERO PUSH2 0x2310 JUMPI JUMP JUMPDEST ISZERO PUSH2 0x4091 JUMPI JUMP JUMPDEST PUSH1 0x40 MLOAD PUSH3 0x461BCD PUSH1 0xE5 SHL DUP2 MSTORE PUSH1 0x20 PUSH1 0x4 DUP3 ADD MSTORE PUSH1 0x1C PUSH1 0x24 DUP3 ADD MSTORE PUSH32 0x4F6E6C79205245524120636F6D706C69616E6365206F66666963657200000000 PUSH1 0x44 DUP3 ADD MSTORE PUSH1 0x64 SWAP1 REVERT JUMPDEST ISZERO PUSH2 0x40DD JUMPI JUMP JUMPDEST PUSH1 0x40 MLOAD PUSH3 0x461BCD PUSH1 0xE5 SHL DUP2 MSTORE PUSH1 0x20 PUSH1 0x4 DUP3 ADD MSTORE PUSH1 0x16 PUSH1 0x24 DUP3 ADD MSTORE PUSH22 0x24B73B30B634B210383937B832B93A3C903A37B5B2B7 PUSH1 0x51 SHL PUSH1 0x44 DUP3 ADD MSTORE PUSH1 0x64 SWAP1 REVERT JUMPDEST PUSH1 0x40 SWAP1 PUSH2 0x401E SWAP4 SWAP3 ISZERO ISZERO DUP2 MSTORE DUP2 PUSH1 0x20 DUP3 ADD MSTORE ADD SWAP1 PUSH2 0x3C65 JUMP JUMPDEST ISZERO PUSH2 0x413B JUMPI JUMP JUMPDEST PUSH1 0x40 MLOAD PUSH3 0x461BCD PUSH1 0xE5 SHL DUP2 MSTORE PUSH1 0x20 PUSH1 0x4 DUP3 ADD MSTORE PUSH1 0x16 PUSH1 0x24 DUP3 ADD MSTORE PUSH22 0x10DD5C9C995B98DE481B9BDD081CDD5C1C1BDC9D1959 PUSH1 0x52 SHL PUSH1 0x44 DUP3 ADD MSTORE PUSH1 0x64 SWAP1 REVERT JUMPDEST PUSH1 0xFF PUSH1 0x3 SLOAD PUSH1 0xA0 SHR AND PUSH2 0x4188 JUMPI JUMP JUMPDEST PUSH1 0x40 MLOAD PUSH3 0x461BCD PUSH1 0xE5 SHL DUP2 MSTORE PUSH1 0x20 PUSH1 0x4 DUP3 ADD MSTORE PUSH1 0x10 PUSH1 0x24 DUP3 ADD MSTORE PUSH16 0x14185D5CD8589B194E881C185D5CD959 PUSH1 0x82 SHL PUSH1 0x44 DUP3 ADD MSTORE PUSH1 0x64 SWAP1 REVERT JUMPDEST PUSH1 0x2 PUSH1 0x4 SLOAD EQ PUSH2 0x41D1 JUMPI PUSH1 0x2 PUSH1 0x4 SSTORE JUMP JUMPDEST PUSH1 0x40 MLOAD PUSH3 0x461BCD PUSH1 0xE5 SHL DUP2 MSTORE PUSH1 0x20 PUSH1 0x4 DUP3 ADD MSTORE PUSH1 0x1F PUSH1 0x24 DUP3 ADD MSTORE PUSH32 0x5265656E7472616E637947756172643A207265656E7472616E742063616C6C00 PUSH1 0x44 DUP3 ADD MSTORE PUSH1 0x64 SWAP1 REVERT JUMPDEST SWAP2 SWAP1 DUP3 SUB SWAP2 DUP3 GT PUSH2 0x2310 JUMPI JUMP INVALID LOG2 PUSH5 0x6970667358 0x22 SLT KECCAK256 SWAP8 PUSH7 0x8EC18DFEDFC258 TIMESTAMP 0xBD 0xEA 0xC6 SGT 0x4D SDIV 0x25 0x29 0xE1 0xBC BLOCKHASH PUSH13 0x3CC0EBE6C1E9D322B53764736F PUSH13 0x63430008130033000000000000 "},"methodIdentifiers":{"JURISDICTION()":"81597f12","REGULATORY_AUTHORITY()":"a031a1bd","addSupportedCurrency(string,uint256)":"1c749203","amlCleared(address)":"41a1727b","approveKYC(address,bool)":"b8f1d64d","approvePropertyRERA(uint256,bool)":"9207d8b3","balanceOf(address,uint256)":"00fdd58e","balanceOfBatch(address[],uint256[])":"4e1273f4","claimDividends(uint256)":"bd7047c4","clearAML(address,bool)":"feaa414a","convertToAED(string,uint256)":"82859fe6","distributeDividends(uint256,uint256)":"757e4b5b","dividendPerToken(uint256)":"3f1ebf53","dldRegistry()":"922bc481","dldToTokenId(string)":"c0a34171","exchangeRates(string)":"43225acd","gccResidents(address)":"e6359df5","getPropertyDetails(uint256)":"126dbe43","getUserInvestmentSummary(address,uint256)":"2d878b4e","invest(uint256,uint256,string,uint256)":"b362829b","isApprovedForAll(address,address)":"e985e9c5","kycApproved(address)":"6641cc64","listProperty(string,string,string,string,string,uint256,uint256,uint8,address,uint256)":"7b3d9112","owner()":"8da5cb5b","pause()":"8456cb59","paused()":"5c975abb","properties(uint256)":"f7b10808","registerPropertyDLD(uint256,bool)":"f6c3ac7c","renounceOwnership()":"715018a6","reraCompliance()":"6c29c256","reraToTokenId(string)":"c7602ea8","reraVerifiedDevelopers(address)":"fd12f788","safeBatchTransferFrom(address,address,uint256[],uint256[],bytes)":"2eb2c2d6","safeTransferFrom(address,address,uint256,uint256,bytes)":"f242432a","setApprovalForAll(address,bool)":"a22cb465","setDLDRegistry(address)":"cc30dc3c","setRERACompliance(address)":"0bc82dea","setUserEmirate(address,string)":"c729c9f3","setUserTier(address,uint8)":"a04725c6","supportedCurrencies(string)":"051e6604","supportsInterface(bytes4)":"01ffc9a7","totalDividendsPaid(uint256)":"1e0a9045","transferOwnership(address)":"f2fde38b","uaeResidents(address)":"1a6c4ca1","unpause()":"3f4ba83a","updateExchangeRate(string,uint256)":"14c360a2","updatePropertyStatus(uint256,uint8)":"564c0aec","uri(uint256)":"0e89341c","userDividendsClaimed(uint256,address)":"d40e8429","userEmirates(address)":"f89f57ed","userInvestments(address,uint256)":"9244adcd","userTiers(address)":"24063c82","verifyDeveloper(address,bool)":"adfe3b01"}}}}}