{"contracts/UAE/UAEStaking.sol":{"UAEStaking":{"abi":[{"inputs":[{"internalType":"address","name":"_propertyToken","type":"address"},{"internalType":"address","name":"_rewardToken","type":"address"},{"internalType":"uint256","name":"_rewardDuration","type":"uint256"},{"internalType":"uint256","name":"_baseRewardRate","type":"uint256"}],"stateMutability":"nonpayable","type":"constructor"},{"anonymous":false,"inputs":[{"indexed":true,"internalType":"address","name":"previousOwner","type":"address"},{"indexed":true,"internalType":"address","name":"newOwner","type":"address"}],"name":"OwnershipTransferred","type":"event"},{"anonymous":false,"inputs":[{"indexed":false,"internalType":"address","name":"account","type":"address"}],"name":"Paused","type":"event"},{"anonymous":false,"inputs":[{"indexed":false,"internalType":"uint256","name":"amount","type":"uint256"},{"indexed":false,"internalType":"uint256","name":"newTotal","type":"uint256"}],"name":"RewardPoolIncreased","type":"event"},{"anonymous":false,"inputs":[{"indexed":true,"internalType":"address","name":"user","type":"address"},{"indexed":false,"internalType":"uint256","name":"amount","type":"uint256"}],"name":"RewardsClaimed","type":"event"},{"anonymous":false,"inputs":[{"indexed":true,"internalType":"address","name":"user","type":"address"},{"indexed":false,"internalType":"uint256[]","name":"tokenIds","type":"uint256[]"},{"indexed":false,"internalType":"uint256[]","name":"amounts","type":"uint256[]"},{"indexed":false,"internalType":"uint256","name":"totalValue","type":"uint256"}],"name":"Staked","type":"event"},{"anonymous":false,"inputs":[{"indexed":true,"internalType":"address","name":"user","type":"address"},{"indexed":false,"internalType":"enum UAEStaking.StakingTier","name":"oldTier","type":"uint8"},{"indexed":false,"internalType":"enum UAEStaking.StakingTier","name":"newTier","type":"uint8"}],"name":"TierUpgrade","type":"event"},{"anonymous":false,"inputs":[{"indexed":false,"internalType":"address","name":"account","type":"address"}],"name":"Unpaused","type":"event"},{"anonymous":false,"inputs":[{"indexed":true,"internalType":"address","name":"user","type":"address"},{"indexed":false,"internalType":"uint256[]","name":"tokenIds","type":"uint256[]"},{"indexed":false,"internalType":"uint256[]","name":"amounts","type":"uint256[]"},{"indexed":false,"internalType":"uint256","name":"totalValue","type":"uint256"}],"name":"Unstaked","type":"event"},{"anonymous":false,"inputs":[{"indexed":true,"internalType":"address","name":"user","type":"address"},{"indexed":false,"internalType":"uint256","name":"amount","type":"uint256"},{"indexed":false,"internalType":"uint256","name":"newTotal","type":"uint256"}],"name":"VolumeRecorded","type":"event"},{"inputs":[],"name":"PRECISION","outputs":[{"internalType":"uint256","name":"","type":"uint256"}],"stateMutability":"view","type":"function"},{"inputs":[{"internalType":"uint256","name":"amount","type":"uint256"}],"name":"addRewardPool","outputs":[],"stateMutability":"nonpayable","type":"function"},{"inputs":[],"name":"baseRewardRate","outputs":[{"internalType":"uint256","name":"","type":"uint256"}],"stateMutability":"view","type":"function"},{"inputs":[{"internalType":"address","name":"user","type":"address"}],"name":"calculatePendingRewards","outputs":[{"internalType":"uint256","name":"","type":"uint256"}],"stateMutability":"view","type":"function"},{"inputs":[],"name":"claimRewards","outputs":[],"stateMutability":"nonpayable","type":"function"},{"inputs":[{"internalType":"address","name":"","type":"address"},{"internalType":"uint256","name":"","type":"uint256"}],"name":"dailyVolume","outputs":[{"internalType":"uint256","name":"","type":"uint256"}],"stateMutability":"view","type":"function"},{"inputs":[{"internalType":"address","name":"","type":"address"}],"name":"gccResidents","outputs":[{"internalType":"bool","name":"","type":"bool"}],"stateMutability":"view","type":"function"},{"inputs":[],"name":"getContractStats","outputs":[{"internalType":"uint256","name":"totalStakedAmount","type":"uint256"},{"internalType":"uint256","name":"totalRewards","type":"uint256"},{"internalType":"uint256","name":"currentRewardPool","type":"uint256"},{"internalType":"uint256","name":"totalStakers","type":"uint256"}],"stateMutability":"view","type":"function"},{"inputs":[{"internalType":"enum UAEStaking.StakingTier","name":"tier","type":"uint8"}],"name":"getTierInfo","outputs":[{"internalType":"uint256","name":"minStakeAmount","type":"uint256"},{"internalType":"uint256","name":"rewardMultiplier","type":"uint256"},{"internalType":"uint256","name":"volumeBonusRate","type":"uint256"},{"internalType":"bool","name":"unlocked","type":"bool"}],"stateMutability":"view","type":"function"},{"inputs":[{"internalType":"address","name":"user","type":"address"}],"name":"getUserStakingInfo","outputs":[{"internalType":"uint256[]","name":"tokenIds","type":"uint256[]"},{"internalType":"uint256[]","name":"amounts","type":"uint256[]"},{"internalType":"uint256","name":"totalValueStaked","type":"uint256"},{"internalType":"uint256","name":"pendingRewards","type":"uint256"},{"internalType":"enum UAEStaking.StakingTier","name":"tier","type":"uint8"},{"internalType":"uint256","name":"tradingVolume30d","type":"uint256"}],"stateMutability":"view","type":"function"},{"inputs":[{"internalType":"address","name":"","type":"address"}],"name":"lastVolumeUpdate","outputs":[{"internalType":"uint256","name":"","type":"uint256"}],"stateMutability":"view","type":"function"},{"inputs":[{"internalType":"address","name":"","type":"address"},{"internalType":"address","name":"","type":"address"},{"internalType":"uint256[]","name":"","type":"uint256[]"},{"internalType":"uint256[]","name":"","type":"uint256[]"},{"internalType":"bytes","name":"","type":"bytes"}],"name":"onERC1155BatchReceived","outputs":[{"internalType":"bytes4","name":"","type":"bytes4"}],"stateMutability":"nonpayable","type":"function"},{"inputs":[{"internalType":"address","name":"","type":"address"},{"internalType":"address","name":"","type":"address"},{"internalType":"uint256","name":"","type":"uint256"},{"internalType":"uint256","name":"","type":"uint256"},{"internalType":"bytes","name":"","type":"bytes"}],"name":"onERC1155Received","outputs":[{"internalType":"bytes4","name":"","type":"bytes4"}],"stateMutability":"nonpayable","type":"function"},{"inputs":[],"name":"owner","outputs":[{"internalType":"address","name":"","type":"address"}],"stateMutability":"view","type":"function"},{"inputs":[],"name":"pause","outputs":[],"stateMutability":"nonpayable","type":"function"},{"inputs":[],"name":"paused","outputs":[{"internalType":"bool","name":"","type":"bool"}],"stateMutability":"view","type":"function"},{"inputs":[],"name":"propertyToken","outputs":[{"internalType":"contract IERC1155","name":"","type":"address"}],"stateMutability":"view","type":"function"},{"inputs":[{"internalType":"address","name":"user","type":"address"},{"internalType":"uint256","name":"amount","type":"uint256"}],"name":"recordTradingVolume","outputs":[],"stateMutability":"nonpayable","type":"function"},{"inputs":[],"name":"renounceOwnership","outputs":[],"stateMutability":"nonpayable","type":"function"},{"inputs":[],"name":"rewardDuration","outputs":[{"internalType":"uint256","name":"","type":"uint256"}],"stateMutability":"view","type":"function"},{"inputs":[],"name":"rewardPool","outputs":[{"internalType":"uint256","name":"","type":"uint256"}],"stateMutability":"view","type":"function"},{"inputs":[],"name":"rewardToken","outputs":[{"internalType":"contract IERC20","name":"","type":"address"}],"stateMutability":"view","type":"function"},{"inputs":[{"internalType":"uint256","name":"tokenId","type":"uint256"},{"internalType":"uint256","name":"price","type":"uint256"}],"name":"setTokenPrice","outputs":[],"stateMutability":"nonpayable","type":"function"},{"inputs":[{"internalType":"address","name":"user","type":"address"},{"internalType":"bool","name":"isResident","type":"bool"}],"name":"setUAEResident","outputs":[],"stateMutability":"nonpayable","type":"function"},{"inputs":[{"internalType":"address","name":"user","type":"address"},{"internalType":"string","name":"emirate","type":"string"}],"name":"setUserEmirate","outputs":[],"stateMutability":"nonpayable","type":"function"},{"inputs":[{"internalType":"uint256[]","name":"tokenIds","type":"uint256[]"},{"internalType":"uint256[]","name":"amounts","type":"uint256[]"}],"name":"stake","outputs":[],"stateMutability":"nonpayable","type":"function"},{"inputs":[{"internalType":"address","name":"","type":"address"}],"name":"stakingInfo","outputs":[{"internalType":"uint256","name":"totalValueStaked","type":"uint256"},{"internalType":"uint256","name":"stakingStartTime","type":"uint256"},{"internalType":"uint256","name":"lastRewardClaim","type":"uint256"},{"internalType":"uint256","name":"accumulatedRewards","type":"uint256"},{"internalType":"enum UAEStaking.StakingTier","name":"tier","type":"uint8"},{"internalType":"uint256","name":"tradingVolume30d","type":"uint256"},{"internalType":"bool","name":"isActive","type":"bool"}],"stateMutability":"view","type":"function"},{"inputs":[{"internalType":"enum UAEStaking.StakingTier","name":"","type":"uint8"}],"name":"tierConfigs","outputs":[{"internalType":"uint256","name":"minStakeAmount","type":"uint256"},{"internalType":"uint256","name":"rewardMultiplier","type":"uint256"},{"internalType":"uint256","name":"volumeBonusRate","type":"uint256"},{"internalType":"bool","name":"unlocked","type":"bool"}],"stateMutability":"view","type":"function"},{"inputs":[{"internalType":"uint256","name":"","type":"uint256"}],"name":"tokenPrices","outputs":[{"internalType":"uint256","name":"","type":"uint256"}],"stateMutability":"view","type":"function"},{"inputs":[],"name":"totalRewardsDistributed","outputs":[{"internalType":"uint256","name":"","type":"uint256"}],"stateMutability":"view","type":"function"},{"inputs":[],"name":"totalStaked","outputs":[{"internalType":"uint256","name":"","type":"uint256"}],"stateMutability":"view","type":"function"},{"inputs":[{"internalType":"address","name":"newOwner","type":"address"}],"name":"transferOwnership","outputs":[],"stateMutability":"nonpayable","type":"function"},{"inputs":[{"internalType":"address","name":"","type":"address"}],"name":"uaeResidents","outputs":[{"internalType":"bool","name":"","type":"bool"}],"stateMutability":"view","type":"function"},{"inputs":[],"name":"unpause","outputs":[],"stateMutability":"nonpayable","type":"function"},{"inputs":[{"internalType":"uint256[]","name":"tokenIds","type":"uint256[]"},{"internalType":"uint256[]","name":"amounts","type":"uint256[]"}],"name":"unstake","outputs":[],"stateMutability":"nonpayable","type":"function"},{"inputs":[{"internalType":"enum UAEStaking.StakingTier","name":"tier","type":"uint8"},{"internalType":"uint256","name":"minStakeAmount","type":"uint256"},{"internalType":"uint256","name":"rewardMultiplier","type":"uint256"},{"internalType":"uint256","name":"volumeBonusRate","type":"uint256"},{"internalType":"bool","name":"unlocked","type":"bool"}],"name":"updateTierConfig","outputs":[],"stateMutability":"nonpayable","type":"function"},{"inputs":[{"internalType":"address","name":"","type":"address"}],"name":"userEmirates","outputs":[{"internalType":"string","name":"","type":"string"}],"stateMutability":"view","type":"function"}],"evm":{"bytecode":{"linkReferences":{},"object":"6080346200029d57601f6200245c38819003918201601f191683019291906001600160401b03841183851017620002a25781608092849260409687528339810103126200029d576200005181620002d8565b60ff60209262000063848201620002d8565b9085810151936060809201519160009283549660018060a01b0397338982167f8be0079c531659141344cd1fd0a4f28419497f9722a3daafe3b4186f6b6457e08880a38760a01b1933169060018060a81b03191617855560019788805560018060a01b0319908060029616828754161786556003971690875416178655600455600555620000f0620002b8565b9583875284888801976103e889528a81016032815284820199848b5287805260078c528c882092518355518483015551858201550196511515968619978789835416911617905562000141620002b8565b69152d02c7e14af6800000815285898201916104b083528b8101604b81528582019385855285895260078d528d8920925183555185830155518682015501905115158789835416911617905562000197620002b8565b6969e10de76676d0800000815285898201916105dc83528b8101606481528582019385855287895260078d528d89209251835551858301555186820155019051151587898354169116179055620001ed620002b8565b6a01a784379d99db42000000815285898201916107d083528b8101609681528582019385855283895260078d528d8920925183555185830155518682015501905115158789835416911617905562000244620002b8565b936a0422ca8b0a00a42500000085528989860191610bb8835260078288019560c8875288019b858d52600483525220945185555190840155519082015501925115159183541691161790555161216e9081620002ee8239f35b600080fd5b634e487b7160e01b600052604160045260246000fd5b60405190608082016001600160401b03811183821017620002a257604052565b51906001600160a01b03821682036200029d5756fe6040608081526004908136101561001557600080fd5b600091823560e01c908163097aad10146116cb5781631a6c4ca11461168d578163372500ab146116645781633f4ba83a146115ca57816343ae2695146115a15781635c975abb1461157c57816366666aa91461155d578163715018a61461150357816374c95081146114c25781637c6f7d32146113ef5781637ed85ff31461136457816380933608146112b8578163817b1cd2146112995781638456cb591461123a5781638da5cb5b1461121257816394eecb50146111885781639da9db2a14611126578163aaf5eb6814611103578163afbf3440146110e4578163b1adb08314610cd0578163b8e69b4e14610c3d578163bb16567c14610b24578163bc197c8114610a9d578163c3bec5c814610a65578163c729c9f3146108e2578163c9c71a3214610885578163dfe6b5d614610850578163e5afe3e614610828578163e6359df5146107ea578163e683ad4414610482578163eb685c4714610456578163ee17254614610437578163f23a6e61146103e1578163f2fde38b1461031e578163f520e7e5146102fc57508063f7c618c1146102d45763f89f57ed146101ba57600080fd5b346102d057602091826003193601126102cd576001600160a01b036101dd6116f8565b168152600f8352818120908383518093839080546101fa81611911565b808552916001918083169081156102aa575060011461026d575b50505061022792509593929503826117df565b82519382859384528251928382860152825b84811061025757505050828201840152601f01601f19168101030190f35b8181018301518882018801528795508201610239565b86528486209492508591905b8183106102925750889450508201016102273880610214565b85548884018501529485019487945091830191610279565b9250505061022794925060ff191682840152151560051b82010186923880610214565b80fd5b5080fd5b50346102d057816003193601126102d05760035490516001600160a01b039091168152602090f35b90503461031a578260031936011261031a5760209250549051908152f35b8280fd5b90503461031a57602036600319011261031a576103396116f8565b9061034261194b565b6001600160a01b0391821692831561038f57505082546001600160a01b0319811683178455167f8be0079c531659141344cd1fd0a4f28419497f9722a3daafe3b4186f6b6457e08380a380f35b906020608492519162461bcd60e51b8352820152602660248201527f4f776e61626c653a206e6577206f776e657220697320746865207a65726f206160448201526564647265737360d01b6064820152fd5b8284346102cd5760a03660031901126102cd576103fc6116f8565b50610405611713565b506084359067ffffffffffffffff82116102cd5750602092610429913691016118f6565b505163f23a6e6160e01b8152f35b5050346102d057816003193601126102d057602090600c549051908152f35b90503461031a578160031936011261031a5761047061194b565b35825260086020526024359082205580f35b90503461031a5761049236611868565b61049d939193611b2a565b6104a5611ae3565b6104b284518251146119a3565b8351156107b2573385526020936006855282862094869087915b8351831015610620576104ea6104e28487611a0c565b511515611a36565b6104f48385611a0c565b5189526008808352868a2054156105e75790610532610538926105178689611a0c565b51906105238789611a0c565b518d528552888c205490611b8d565b90611b80565b6002549092906001600160a01b0316896105528387611a0c565b519161055e8489611a0c565b5190803b1561031a578951637921219560e11b815233818d019081523060208201526040810195909552606085019290925260a060808501819052600090850152909283919082908490829060c00103925af180156105dd57906105c892916105ce575b506119e7565b916104cc565b6105d7906117cb565b386105c2565b87513d8c823e3d90fd5b865162461bcd60e51b81528089018490526013602482015272151bdad95b881c1c9a58d9481b9bdd081cd95d606a1b6044820152606490fd5b8886898787948b6008840190815460ff811615610795575b505050849394935b865185101561072e578095815b8554811015610722576106608187611a73565b905461066c898c611a0c565b5190600392831b1c146106885750610683906119e7565b61064d565b6106eb9398506106e1906106c86001999499936106c2858b01936106ac8386611a73565b9054911b1c6106bb888c611a0c565b5190611b80565b92611a73565b90919082549060031b91821b91600019901b1916179055565b156106f2576119e7565b9394610640565b6107066106ff828a611a0c565b5186611a8b565b61071d6107138286611a0c565b5160018701611a8b565b6119e7565b50946106eb91966106e1565b867f65a6c62234a80250dbd8bc1d34f15274648d17abbaf60c2f2a4379d52be1a47d838561078b8a60028a01610765858254611b80565b905561077384600b54611b80565b600b5561077f33611fcf565b51928392339684611ab5565b0390a26001805580f35b600191426003880155429087015560ff1916179055868080610638565b815162461bcd60e51b815260208185015260126024820152714e6f20746f6b656e7320746f207374616b6560701b6044820152606490fd5b5050346102d05760203660031901126102d05760209160ff9082906001600160a01b036108156116f8565b1681526010855220541690519015158152f35b90503461031a57602036600319011261031a5760209282913581526008845220549051908152f35b5050346102d057816003193601126102d057608091600b5491600c5490600d5491815194855260208501528301526060820152f35b5050346102d057806003193601126102d05761089f6116f8565b906024359081151582036108de576108db926108b961194b565b60018060a01b03168452600e60205283209060ff801983541691151516179055565b80f35b8380fd5b839150346102d057826003193601126102d0576108fd6116f8565b9267ffffffffffffffff90602435828111610a615736602382011215610a615761093090369060248187013591016118af565b9461093961194b565b6001600160a01b03168452600f60209081529084208551909390928311610a4e57506109658354611911565b601f8111610a0b575b5080601f83116001146109a9575083948293949261099e575b50508160011b916000199060031b1c191617905580f35b015190508480610987565b90601f198316958486528286209286905b8882106109f3575050836001959697106109da575b505050811b01905580f35b015160001960f88460031b161c191690558480806109cf565b806001859682949686015181550195019301906109ba565b838552818520601f840160051c810191838510610a44575b601f0160051c01905b818110610a39575061096e565b858155600101610a2c565b9091508190610a23565b634e487b7160e01b855260419052602484fd5b8480fd5b5050346102d05760203660031901126102d05760209181906001600160a01b03610a8d6116f8565b168152600a845220549051908152f35b8284346102cd5760a03660031901126102cd57610ab86116f8565b50610ac1611713565b5067ffffffffffffffff906044358281116102d057610ae39036908601611801565b506064358281116102d057610afb9036908601611801565b506084359182116102cd5750602092610b16913691016118f6565b505163bc197c8160e01b8152f35b8383346102d0576020928360031936011261031a57803590610b4461194b565b60035483516323b872dd60e01b81523383820152306024820152604481018490529086908290606490829089906001600160a01b03165af1908115610c33578591610c06575b5015610bd157507ffc3fb83e30d6008be25259a72095d113618338605017c9c2e740cfbba7d5fd689293610bc082600d54611b80565b9081600d558351928352820152a180f35b825162461bcd60e51b8152908101859052600f60248201526e151c985b9cd9995c8819985a5b1959608a1b6044820152606490fd5b610c269150863d8811610c2c575b610c1e81836117df565b810190611c2d565b86610b8a565b503d610c14565b84513d87823e3d90fd5b90503461031a5760a036600319011261031a573590600582101561031a57608435918215158093036108de576108db92600391610c7861194b565b835193610c8485611799565b6024358552610caa60208601916044358352860192606435845260608701948552611780565b9451855551600185015551600284015551151591019060ff801983541691151516179055565b839150346102d057610ce136611868565b9093610ceb611b2a565b610cf885518351146119a3565b8451156110ab57939293338552602091600683528186209560089182880196610d2460ff895416611ba0565b610d2d33611c45565b829383995b82518b101561104157610d486104e28c86611a0c565b8499855b825481101561103857610d6d8d610d638386611a73565b9290549188611a0c565b5190600392831b1c14610d895750610d84906119e7565b610d4c565b9790919c929b50600191828d0191610da18284611a73565b9054908b1b1c610db1868a611a0c565b5111610ff557610de69061053288888f8d610dd88b8f81610dd191611a0c565b5195611a0c565b519052528d8c205490611b8d565b98610e18610e0e610df78486611a73565b905490841b1c610e07888c611a0c565b5190611be0565b6106c88486611a73565b610e228284611a73565b905490821b1c15610f1b575b50506002546001600160a01b03169050610e488386611a0c565b5190610e548488611a0c565b5191813b15610f17578a51637921219560e11b815230818f019081523360208201526040810192909252606082019390935260a0608082018190526000908201528891839182908490829060c00103925af18015610f0d57610efe575b505b15610ec857610ec1906119e7565b9998610d32565b865162461bcd60e51b8152808a01899052601060248201526f151bdad95b881b9bdd081cdd185ad95960821b6044820152606490fd5b610f07906117cb565b8c610eb1565b89513d89823e3d90fd5b8880fd5b8d5480831015610fbc5760001990808201908111610fa9578f6106c885610f45610f519484611a73565b905490871b1c92611a73565b8354908101908111610f9557916106c8610f7f92610f738695610f8d97611a73565b9054911b1c9184611a73565b610f888d611bed565b611bed565b8c8080610e2e565b50634e487b7160e01b895260118d52602489fd5b634e487b7160e01b8b5260118f5260248bfd5b8b5162461bcd60e51b8152808f018e90526013602482015272496e646578206f7574206f6620626f756e647360681b6044820152606490fd5b8a5162461bcd60e51b8152808e018d9052601a60248201527f496e73756666696369656e74207374616b656420616d6f756e740000000000006044820152606490fd5b509a9099610eb3565b827fb30cdf47cae26b4622b4de44ba827a930e287cf16bcd43a9bf524759a06de2d5878661078b8b8f8b976002810161107b878254611be0565b905561108986600b54611be0565b600b55541561109d575b5061077f33611fcf565b805460ff1916905587611093565b5162461bcd60e51b815260208184015260146024820152734e6f20746f6b656e7320746f20756e7374616b6560601b6044820152606490fd5b5050346102d057816003193601126102d0576020906005549051908152f35b5050346102d057816003193601126102d05760209051670de0b6b3a76400008152f35b839150346102d05760203660031901126102d057359060058210156102cd575061114f90611780565b80546001820154600283015460039093015493519182526020820152604081019190915260ff90911615156060820152608090f35b0390f35b90503461031a57602036600319011261031a5760e09282906001600160a01b036111b06116f8565b16815260066020522061120460028201549360038301549383015460058401549060ff6006860154169260ff600860078801549701541696815198895260208901528701526060860152608085019061175d565b60a0830152151560c0820152f35b5050346102d057816003193601126102d057905490516001600160a01b039091168152602090f35b5050346102d057816003193601126102d05760207f62e78cea01bee320cd4e420270b5ea74000d11b0c9f74754ebdbfc544b05a2589161127861194b565b611280611ae3565b835460ff60a01b1916600160a01b17845551338152a180f35b5050346102d057816003193601126102d057602090600b549051908152f35b5050346102d05760203660031901126102d057908161133a926112d96116f8565b6001600160a01b0381168452600660205292206002810154909261135b9061130090611dc7565b60ff6006860154169060078601549361134861132760016113208a6120e9565b99016120e9565b8751998a9960c08b5260c08b0190611729565b9089820360208b0152611729565b958701526060860152608085019061175d565b60a08301520390f35b839150346102d05760203660031901126102d057359060058210156102cd575061138d90611780565b90611184606082519361139f85611799565b80549384865260018201549586602082015260ff60036002850154948585850152015416151593849101525194859485926060929594919560808501968552602085015260408401521515910152565b8383346102d057806003193601126102d0576114096116f8565b906024359161141661194b565b60018060a01b0316918284526006602052818420600a6020526201518080848720540490601e82018092116114af57916007917f72276b0ca282389c017b5786d95b83f0ec6bb47b7fbdde1266a9161d947d08e195949342041160001461149a5782828201555b858752600a6020524284882055015482519182526020820152a280f35b8181016114a8848254611b80565b905561147d565b634e487b7160e01b875260118852602487fd5b5050346102d057806003193601126102d05760209181906001600160a01b036114e96116f8565b168152600984528181206024358252845220549051908152f35b83346102cd57806003193601126102cd5761151c61194b565b80546001600160a01b03198116825581906001600160a01b03167f8be0079c531659141344cd1fd0a4f28419497f9722a3daafe3b4186f6b6457e08280a380f35b5050346102d057816003193601126102d057602090600d549051908152f35b5050346102d057816003193601126102d05760ff6020925460a01c1690519015158152f35b5050346102d057816003193601126102d05760025490516001600160a01b039091168152602090f35b90503461031a578260031936011261031a576115e461194b565b82549060ff8260a01c161561162a575060ff60a01b19168255513381527f5db9ee0a495bf2e6ff9c91a7834c1ba4fdd244a5e8aa4e537bd38aeae4b073aa90602090a180f35b606490602084519162461bcd60e51b8352820152601460248201527314185d5cd8589b194e881b9bdd081c185d5cd95960621b6044820152fd5b83346102cd57806003193601126102cd5761167d611b2a565b61168633611c45565b6001805580f35b5050346102d05760203660031901126102d05760209160ff9082906001600160a01b036116b86116f8565b168152600e855220541690519015158152f35b5050346102d05760203660031901126102d0576020906116f16116ec6116f8565b611dc7565b9051908152f35b600435906001600160a01b038216820361170e57565b600080fd5b602435906001600160a01b038216820361170e57565b90815180825260208080930193019160005b828110611749575050505090565b83518552938101939281019260010161173b565b90600582101561176a5752565b634e487b7160e01b600052602160045260246000fd5b600581101561176a576000526007602052604060002090565b6080810190811067ffffffffffffffff8211176117b557604052565b634e487b7160e01b600052604160045260246000fd5b67ffffffffffffffff81116117b557604052565b90601f8019910116810190811067ffffffffffffffff8211176117b557604052565b9080601f8301121561170e5781359067ffffffffffffffff82116117b5578160051b60405193602093611836858401876117df565b8552838086019282010192831161170e578301905b828210611859575050505090565b8135815290830190830161184b565b90604060031983011261170e5767ffffffffffffffff60043581811161170e578361189591600401611801565b9260243591821161170e576118ac91600401611801565b90565b92919267ffffffffffffffff82116117b557604051916118d9601f8201601f1916602001846117df565b82948184528183011161170e578281602093846000960137010152565b9080601f8301121561170e578160206118ac933591016118af565b90600182811c92168015611941575b602083101461192b57565b634e487b7160e01b600052602260045260246000fd5b91607f1691611920565b6000546001600160a01b0316330361195f57565b606460405162461bcd60e51b815260206004820152602060248201527f4f776e61626c653a2063616c6c6572206973206e6f7420746865206f776e65726044820152fd5b156119aa57565b60405162461bcd60e51b8152602060048201526015602482015274082e4e4c2f240d8cadccee8d040dad2e6dac2e8c6d605b1b6044820152606490fd5b60001981146119f65760010190565b634e487b7160e01b600052601160045260246000fd5b8051821015611a205760209160051b010190565b634e487b7160e01b600052603260045260246000fd5b15611a3d57565b60405162461bcd60e51b815260206004820152600e60248201526d125b9d985b1a5908185b5bdd5b9d60921b6044820152606490fd5b8054821015611a205760005260206000200190600090565b90815491680100000000000000008310156117b557826106c8916001611ab395018155611a73565b565b939291611ade90611ad0604093606088526060880190611729565b908682036020880152611729565b930152565b60ff60005460a01c16611af257565b60405162461bcd60e51b815260206004820152601060248201526f14185d5cd8589b194e881c185d5cd95960821b6044820152606490fd5b600260015414611b3b576002600155565b60405162461bcd60e51b815260206004820152601f60248201527f5265656e7472616e637947756172643a207265656e7472616e742063616c6c006044820152606490fd5b919082018092116119f657565b818102929181159184041417156119f657565b15611ba757565b60405162461bcd60e51b81526020600482015260116024820152704e6f20616374697665207374616b696e6760781b6044820152606490fd5b919082039182116119f657565b8054908115611c175760001991820191611c078383611a73565b909182549160031b1b1916905555565b634e487b7160e01b600052603160045260246000fd5b9081602091031261170e5751801515810361170e5790565b60018060a01b0390818116918260005260209060068252611c756040600020936116ec60ff600887015416611ba0565b9283611c83575b5050505050565b83600d5410611d825760058101611c9b858254611b80565b9055600442910155611caf83600d54611be0565b600d55611cbe83600c54611b80565b600c55600354169182611d00575b7ffc30cddea38e2bf4d6ea7d3f9ed3b6ad7f176419f4963bd81318067a4aee73fe9250604051908152a23880808080611c7c565b8160009360446040518096819363a9059cbb60e01b83528960048401528660248401525af1928315611d76577ffc30cddea38e2bf4d6ea7d3f9ed3b6ad7f176419f4963bd81318067a4aee73fe93611d59575b50611ccc565b611d6f90833d8511610c2c57610c1e81836117df565b5038611d53565b6040513d6000823e3d90fd5b60405162461bcd60e51b815260048101849052601860248201527f496e73756666696369656e742072657761726420706f6f6c00000000000000006044820152606490fd5b6001600160a01b0381166000818152600660205260408120600881015460ff16158015611f1b575b611f1457611e01600482015442611be0565b8015611f0c576002611e1960ff600685015416611780565b92604051611e2681611799565b84548152606060ff6003600188015497602085019889528681015460408601520154161515910152015490611e5d60055483611b8d565b91611e8e826103e86127108097611e8584611e806301e133809a8b945190611b8d565b611b8d565b04040498611f27565b9480968152600e60205260ff604082205416611ebc575b5050505050611eb7906118ac93611b80565b611b80565b90919293949550603282029180830460321490151715611ef8575091611eeb611eb794926118ac979694611b8d565b0404929381923880611ea5565b634e487b7160e01b81526011600452602490fd5b505091505090565b5091505090565b50600281015415611def565b60018060a01b03166000526006602052604060002090611f4d60ff600684015416611780565b90604051611f5a81611799565b8254815260018301546020820152606060ff60036002860154956040850196875201541615159101526007830154908115611fc657611e806301e1338093611fb961271096600269d3c21bcecceda1000000611fc19704910154611b8d565b905190611b8d565b040490565b50505050600090565b60018060a01b031660008181526006602052604080822091600683019283549060ff821692600281920154600482526007602052858220548110156000146120a25750600491505b600584101561208e57600582101561208e575082810361203a575b505050505050565b7fbd8c91b5265679b3fae7724a5e4587d7d0f3b38a6aca7391886d910158910cf4946120829260ff83169060ff19161790556120788451809461175d565b602083019061175d565ba2388080808080612032565b634e487b7160e01b81526021600452602490fd5b600382528582205481106120bb5750600391505b612017565b600282528582205481106120d3575060029150612017565b6001825285822054116120b65760019150612017565b9060405191828154918282526020928383019160005283600020936000905b82821061211e57505050611ab3925003836117df565b85548452600195860195889550938101939091019061210856fea2646970667358221220b6df5a47447074c84b6ad3cafaa8630dda1b1bd2568cfcb09b861d367d86955f64736f6c63430008130033","opcodes":"PUSH1 0x80 CALLVALUE PUSH3 0x29D JUMPI PUSH1 0x1F PUSH3 0x245C CODESIZE DUP2 SWAP1 SUB SWAP2 DUP3 ADD PUSH1 0x1F NOT AND DUP4 ADD SWAP3 SWAP2 SWAP1 PUSH1 0x1 PUSH1 0x1 PUSH1 0x40 SHL SUB DUP5 GT DUP4 DUP6 LT OR PUSH3 0x2A2 JUMPI DUP2 PUSH1 0x80 SWAP3 DUP5 SWAP3 PUSH1 0x40 SWAP7 DUP8 MSTORE DUP4 CODECOPY DUP2 ADD SUB SLT PUSH3 0x29D JUMPI PUSH3 0x51 DUP2 PUSH3 0x2D8 JUMP JUMPDEST PUSH1 0xFF PUSH1 0x20 SWAP3 PUSH3 0x63 DUP5 DUP3 ADD PUSH3 0x2D8 JUMP JUMPDEST SWAP1 DUP6 DUP2 ADD MLOAD SWAP4 PUSH1 0x60 DUP1 SWAP3 ADD MLOAD SWAP2 PUSH1 0x0 SWAP3 DUP4 SLOAD SWAP7 PUSH1 0x1 DUP1 PUSH1 0xA0 SHL SUB SWAP8 CALLER DUP10 DUP3 AND PUSH32 0x8BE0079C531659141344CD1FD0A4F28419497F9722A3DAAFE3B4186F6B6457E0 DUP9 DUP1 LOG3 DUP8 PUSH1 0xA0 SHL NOT CALLER AND SWAP1 PUSH1 0x1 DUP1 PUSH1 0xA8 SHL SUB NOT AND OR DUP6 SSTORE PUSH1 0x1 SWAP8 DUP9 DUP1 SSTORE PUSH1 0x1 DUP1 PUSH1 0xA0 SHL SUB NOT SWAP1 DUP1 PUSH1 0x2 SWAP7 AND DUP3 DUP8 SLOAD AND OR DUP7 SSTORE PUSH1 0x3 SWAP8 AND SWAP1 DUP8 SLOAD AND OR DUP7 SSTORE PUSH1 0x4 SSTORE PUSH1 0x5 SSTORE PUSH3 0xF0 PUSH3 0x2B8 JUMP JUMPDEST SWAP6 DUP4 DUP8 MSTORE DUP5 DUP9 DUP9 ADD SWAP8 PUSH2 0x3E8 DUP10 MSTORE DUP11 DUP2 ADD PUSH1 0x32 DUP2 MSTORE DUP5 DUP3 ADD SWAP10 DUP5 DUP12 MSTORE DUP8 DUP1 MSTORE PUSH1 0x7 DUP13 MSTORE DUP13 DUP9 KECCAK256 SWAP3 MLOAD DUP4 SSTORE MLOAD DUP5 DUP4 ADD SSTORE MLOAD DUP6 DUP3 ADD SSTORE ADD SWAP7 MLOAD ISZERO ISZERO SWAP7 DUP7 NOT SWAP8 DUP8 DUP10 DUP4 SLOAD AND SWAP2 AND OR SWAP1 SSTORE PUSH3 0x141 PUSH3 0x2B8 JUMP JUMPDEST PUSH10 0x152D02C7E14AF6800000 DUP2 MSTORE DUP6 DUP10 DUP3 ADD SWAP2 PUSH2 0x4B0 DUP4 MSTORE DUP12 DUP2 ADD PUSH1 0x4B DUP2 MSTORE DUP6 DUP3 ADD SWAP4 DUP6 DUP6 MSTORE DUP6 DUP10 MSTORE PUSH1 0x7 DUP14 MSTORE DUP14 DUP10 KECCAK256 SWAP3 MLOAD DUP4 SSTORE MLOAD DUP6 DUP4 ADD SSTORE MLOAD DUP7 DUP3 ADD SSTORE ADD SWAP1 MLOAD ISZERO ISZERO DUP8 DUP10 DUP4 SLOAD AND SWAP2 AND OR SWAP1 SSTORE PUSH3 0x197 PUSH3 0x2B8 JUMP JUMPDEST PUSH10 0x69E10DE76676D0800000 DUP2 MSTORE DUP6 DUP10 DUP3 ADD SWAP2 PUSH2 0x5DC DUP4 MSTORE DUP12 DUP2 ADD PUSH1 0x64 DUP2 MSTORE DUP6 DUP3 ADD SWAP4 DUP6 DUP6 MSTORE DUP8 DUP10 MSTORE PUSH1 0x7 DUP14 MSTORE DUP14 DUP10 KECCAK256 SWAP3 MLOAD DUP4 SSTORE MLOAD DUP6 DUP4 ADD SSTORE MLOAD DUP7 DUP3 ADD SSTORE ADD SWAP1 MLOAD ISZERO ISZERO DUP8 DUP10 DUP4 SLOAD AND SWAP2 AND OR SWAP1 SSTORE PUSH3 0x1ED PUSH3 0x2B8 JUMP JUMPDEST PUSH11 0x1A784379D99DB42000000 DUP2 MSTORE DUP6 DUP10 DUP3 ADD SWAP2 PUSH2 0x7D0 DUP4 MSTORE DUP12 DUP2 ADD PUSH1 0x96 DUP2 MSTORE DUP6 DUP3 ADD SWAP4 DUP6 DUP6 MSTORE DUP4 DUP10 MSTORE PUSH1 0x7 DUP14 MSTORE DUP14 DUP10 KECCAK256 SWAP3 MLOAD DUP4 SSTORE MLOAD DUP6 DUP4 ADD SSTORE MLOAD DUP7 DUP3 ADD SSTORE ADD SWAP1 MLOAD ISZERO ISZERO DUP8 DUP10 DUP4 SLOAD AND SWAP2 AND OR SWAP1 SSTORE PUSH3 0x244 PUSH3 0x2B8 JUMP JUMPDEST SWAP4 PUSH11 0x422CA8B0A00A425000000 DUP6 MSTORE DUP10 DUP10 DUP7 ADD SWAP2 PUSH2 0xBB8 DUP4 MSTORE PUSH1 0x7 DUP3 DUP9 ADD SWAP6 PUSH1 0xC8 DUP8 MSTORE DUP9 ADD SWAP12 DUP6 DUP14 MSTORE PUSH1 0x4 DUP4 MSTORE MSTORE KECCAK256 SWAP5 MLOAD DUP6 SSTORE MLOAD SWAP1 DUP5 ADD SSTORE MLOAD SWAP1 DUP3 ADD SSTORE ADD SWAP3 MLOAD ISZERO ISZERO SWAP2 DUP4 SLOAD AND SWAP2 AND OR SWAP1 SSTORE MLOAD PUSH2 0x216E SWAP1 DUP2 PUSH3 0x2EE DUP3 CODECOPY RETURN JUMPDEST PUSH1 0x0 DUP1 REVERT JUMPDEST PUSH4 0x4E487B71 PUSH1 0xE0 SHL PUSH1 0x0 MSTORE PUSH1 0x41 PUSH1 0x4 MSTORE PUSH1 0x24 PUSH1 0x0 REVERT JUMPDEST PUSH1 0x40 MLOAD SWAP1 PUSH1 0x80 DUP3 ADD PUSH1 0x1 PUSH1 0x1 PUSH1 0x40 SHL SUB DUP2 GT DUP4 DUP3 LT OR PUSH3 0x2A2 JUMPI PUSH1 0x40 MSTORE JUMP JUMPDEST MLOAD SWAP1 PUSH1 0x1 PUSH1 0x1 PUSH1 0xA0 SHL SUB DUP3 AND DUP3 SUB PUSH3 0x29D JUMPI JUMP INVALID PUSH1 0x40 PUSH1 0x80 DUP2 MSTORE PUSH1 0x4 SWAP1 DUP2 CALLDATASIZE LT ISZERO PUSH2 0x15 JUMPI PUSH1 0x0 DUP1 REVERT JUMPDEST PUSH1 0x0 SWAP2 DUP3 CALLDATALOAD PUSH1 0xE0 SHR SWAP1 DUP2 PUSH4 0x97AAD10 EQ PUSH2 0x16CB JUMPI DUP2 PUSH4 0x1A6C4CA1 EQ PUSH2 0x168D JUMPI DUP2 PUSH4 0x372500AB EQ PUSH2 0x1664 JUMPI DUP2 PUSH4 0x3F4BA83A EQ PUSH2 0x15CA JUMPI DUP2 PUSH4 0x43AE2695 EQ PUSH2 0x15A1 JUMPI DUP2 PUSH4 0x5C975ABB EQ PUSH2 0x157C JUMPI DUP2 PUSH4 0x66666AA9 EQ PUSH2 0x155D JUMPI DUP2 PUSH4 0x715018A6 EQ PUSH2 0x1503 JUMPI DUP2 PUSH4 0x74C95081 EQ PUSH2 0x14C2 JUMPI DUP2 PUSH4 0x7C6F7D32 EQ PUSH2 0x13EF JUMPI DUP2 PUSH4 0x7ED85FF3 EQ PUSH2 0x1364 JUMPI DUP2 PUSH4 0x80933608 EQ PUSH2 0x12B8 JUMPI DUP2 PUSH4 0x817B1CD2 EQ PUSH2 0x1299 JUMPI DUP2 PUSH4 0x8456CB59 EQ PUSH2 0x123A JUMPI DUP2 PUSH4 0x8DA5CB5B EQ PUSH2 0x1212 JUMPI DUP2 PUSH4 0x94EECB50 EQ PUSH2 0x1188 JUMPI DUP2 PUSH4 0x9DA9DB2A EQ PUSH2 0x1126 JUMPI DUP2 PUSH4 0xAAF5EB68 EQ PUSH2 0x1103 JUMPI DUP2 PUSH4 0xAFBF3440 EQ PUSH2 0x10E4 JUMPI DUP2 PUSH4 0xB1ADB083 EQ PUSH2 0xCD0 JUMPI DUP2 PUSH4 0xB8E69B4E EQ PUSH2 0xC3D JUMPI DUP2 PUSH4 0xBB16567C EQ PUSH2 0xB24 JUMPI DUP2 PUSH4 0xBC197C81 EQ PUSH2 0xA9D JUMPI DUP2 PUSH4 0xC3BEC5C8 EQ PUSH2 0xA65 JUMPI DUP2 PUSH4 0xC729C9F3 EQ PUSH2 0x8E2 JUMPI DUP2 PUSH4 0xC9C71A32 EQ PUSH2 0x885 JUMPI DUP2 PUSH4 0xDFE6B5D6 EQ PUSH2 0x850 JUMPI DUP2 PUSH4 0xE5AFE3E6 EQ PUSH2 0x828 JUMPI DUP2 PUSH4 0xE6359DF5 EQ PUSH2 0x7EA JUMPI DUP2 PUSH4 0xE683AD44 EQ PUSH2 0x482 JUMPI DUP2 PUSH4 0xEB685C47 EQ PUSH2 0x456 JUMPI DUP2 PUSH4 0xEE172546 EQ PUSH2 0x437 JUMPI DUP2 PUSH4 0xF23A6E61 EQ PUSH2 0x3E1 JUMPI DUP2 PUSH4 0xF2FDE38B EQ PUSH2 0x31E JUMPI DUP2 PUSH4 0xF520E7E5 EQ PUSH2 0x2FC JUMPI POP DUP1 PUSH4 0xF7C618C1 EQ PUSH2 0x2D4 JUMPI PUSH4 0xF89F57ED EQ PUSH2 0x1BA JUMPI PUSH1 0x0 DUP1 REVERT JUMPDEST CALLVALUE PUSH2 0x2D0 JUMPI PUSH1 0x20 SWAP2 DUP3 PUSH1 0x3 NOT CALLDATASIZE ADD SLT PUSH2 0x2CD JUMPI PUSH1 0x1 PUSH1 0x1 PUSH1 0xA0 SHL SUB PUSH2 0x1DD PUSH2 0x16F8 JUMP JUMPDEST AND DUP2 MSTORE PUSH1 0xF DUP4 MSTORE DUP2 DUP2 KECCAK256 SWAP1 DUP4 DUP4 MLOAD DUP1 SWAP4 DUP4 SWAP1 DUP1 SLOAD PUSH2 0x1FA DUP2 PUSH2 0x1911 JUMP JUMPDEST DUP1 DUP6 MSTORE SWAP2 PUSH1 0x1 SWAP2 DUP1 DUP4 AND SWAP1 DUP2 ISZERO PUSH2 0x2AA JUMPI POP PUSH1 0x1 EQ PUSH2 0x26D JUMPI JUMPDEST POP POP POP PUSH2 0x227 SWAP3 POP SWAP6 SWAP4 SWAP3 SWAP6 SUB DUP3 PUSH2 0x17DF JUMP JUMPDEST DUP3 MLOAD SWAP4 DUP3 DUP6 SWAP4 DUP5 MSTORE DUP3 MLOAD SWAP3 DUP4 DUP3 DUP7 ADD MSTORE DUP3 JUMPDEST DUP5 DUP2 LT PUSH2 0x257 JUMPI POP POP POP DUP3 DUP3 ADD DUP5 ADD MSTORE PUSH1 0x1F ADD PUSH1 0x1F NOT AND DUP2 ADD SUB ADD SWAP1 RETURN JUMPDEST DUP2 DUP2 ADD DUP4 ADD MLOAD DUP9 DUP3 ADD DUP9 ADD MSTORE DUP8 SWAP6 POP DUP3 ADD PUSH2 0x239 JUMP JUMPDEST DUP7 MSTORE DUP5 DUP7 KECCAK256 SWAP5 SWAP3 POP DUP6 SWAP2 SWAP1 JUMPDEST DUP2 DUP4 LT PUSH2 0x292 JUMPI POP DUP9 SWAP5 POP POP DUP3 ADD ADD PUSH2 0x227 CODESIZE DUP1 PUSH2 0x214 JUMP JUMPDEST DUP6 SLOAD DUP9 DUP5 ADD DUP6 ADD MSTORE SWAP5 DUP6 ADD SWAP5 DUP8 SWAP5 POP SWAP2 DUP4 ADD SWAP2 PUSH2 0x279 JUMP JUMPDEST SWAP3 POP POP POP PUSH2 0x227 SWAP5 SWAP3 POP PUSH1 0xFF NOT AND DUP3 DUP5 ADD MSTORE ISZERO ISZERO PUSH1 0x5 SHL DUP3 ADD ADD DUP7 SWAP3 CODESIZE DUP1 PUSH2 0x214 JUMP JUMPDEST DUP1 REVERT JUMPDEST POP DUP1 REVERT JUMPDEST POP CALLVALUE PUSH2 0x2D0 JUMPI DUP2 PUSH1 0x3 NOT CALLDATASIZE ADD SLT PUSH2 0x2D0 JUMPI PUSH1 0x3 SLOAD SWAP1 MLOAD PUSH1 0x1 PUSH1 0x1 PUSH1 0xA0 SHL SUB SWAP1 SWAP2 AND DUP2 MSTORE PUSH1 0x20 SWAP1 RETURN JUMPDEST SWAP1 POP CALLVALUE PUSH2 0x31A JUMPI DUP3 PUSH1 0x3 NOT CALLDATASIZE ADD SLT PUSH2 0x31A JUMPI PUSH1 0x20 SWAP3 POP SLOAD SWAP1 MLOAD SWAP1 DUP2 MSTORE RETURN JUMPDEST DUP3 DUP1 REVERT JUMPDEST SWAP1 POP CALLVALUE PUSH2 0x31A JUMPI PUSH1 0x20 CALLDATASIZE PUSH1 0x3 NOT ADD SLT PUSH2 0x31A JUMPI PUSH2 0x339 PUSH2 0x16F8 JUMP JUMPDEST SWAP1 PUSH2 0x342 PUSH2 0x194B JUMP JUMPDEST PUSH1 0x1 PUSH1 0x1 PUSH1 0xA0 SHL SUB SWAP2 DUP3 AND SWAP3 DUP4 ISZERO PUSH2 0x38F JUMPI POP POP DUP3 SLOAD PUSH1 0x1 PUSH1 0x1 PUSH1 0xA0 SHL SUB NOT DUP2 AND DUP4 OR DUP5 SSTORE AND PUSH32 0x8BE0079C531659141344CD1FD0A4F28419497F9722A3DAAFE3B4186F6B6457E0 DUP4 DUP1 LOG3 DUP1 RETURN JUMPDEST SWAP1 PUSH1 0x20 PUSH1 0x84 SWAP3 MLOAD SWAP2 PUSH3 0x461BCD PUSH1 0xE5 SHL DUP4 MSTORE DUP3 ADD MSTORE PUSH1 0x26 PUSH1 0x24 DUP3 ADD MSTORE PUSH32 0x4F776E61626C653A206E6577206F776E657220697320746865207A65726F2061 PUSH1 0x44 DUP3 ADD MSTORE PUSH6 0x646472657373 PUSH1 0xD0 SHL PUSH1 0x64 DUP3 ADD MSTORE REVERT JUMPDEST DUP3 DUP5 CALLVALUE PUSH2 0x2CD JUMPI PUSH1 0xA0 CALLDATASIZE PUSH1 0x3 NOT ADD SLT PUSH2 0x2CD JUMPI PUSH2 0x3FC PUSH2 0x16F8 JUMP JUMPDEST POP PUSH2 0x405 PUSH2 0x1713 JUMP JUMPDEST POP PUSH1 0x84 CALLDATALOAD SWAP1 PUSH8 0xFFFFFFFFFFFFFFFF DUP3 GT PUSH2 0x2CD JUMPI POP PUSH1 0x20 SWAP3 PUSH2 0x429 SWAP2 CALLDATASIZE SWAP2 ADD PUSH2 0x18F6 JUMP JUMPDEST POP MLOAD PUSH4 0xF23A6E61 PUSH1 0xE0 SHL DUP2 MSTORE RETURN JUMPDEST POP POP CALLVALUE PUSH2 0x2D0 JUMPI DUP2 PUSH1 0x3 NOT CALLDATASIZE ADD SLT PUSH2 0x2D0 JUMPI PUSH1 0x20 SWAP1 PUSH1 0xC SLOAD SWAP1 MLOAD SWAP1 DUP2 MSTORE RETURN JUMPDEST SWAP1 POP CALLVALUE PUSH2 0x31A JUMPI DUP2 PUSH1 0x3 NOT CALLDATASIZE ADD SLT PUSH2 0x31A JUMPI PUSH2 0x470 PUSH2 0x194B JUMP JUMPDEST CALLDATALOAD DUP3 MSTORE PUSH1 0x8 PUSH1 0x20 MSTORE PUSH1 0x24 CALLDATALOAD SWAP1 DUP3 KECCAK256 SSTORE DUP1 RETURN JUMPDEST SWAP1 POP CALLVALUE PUSH2 0x31A JUMPI PUSH2 0x492 CALLDATASIZE PUSH2 0x1868 JUMP JUMPDEST PUSH2 0x49D SWAP4 SWAP2 SWAP4 PUSH2 0x1B2A JUMP JUMPDEST PUSH2 0x4A5 PUSH2 0x1AE3 JUMP JUMPDEST PUSH2 0x4B2 DUP5 MLOAD DUP3 MLOAD EQ PUSH2 0x19A3 JUMP JUMPDEST DUP4 MLOAD ISZERO PUSH2 0x7B2 JUMPI CALLER DUP6 MSTORE PUSH1 0x20 SWAP4 PUSH1 0x6 DUP6 MSTORE DUP3 DUP7 KECCAK256 SWAP5 DUP7 SWAP1 DUP8 SWAP2 JUMPDEST DUP4 MLOAD DUP4 LT ISZERO PUSH2 0x620 JUMPI PUSH2 0x4EA PUSH2 0x4E2 DUP5 DUP8 PUSH2 0x1A0C JUMP JUMPDEST MLOAD ISZERO ISZERO PUSH2 0x1A36 JUMP JUMPDEST PUSH2 0x4F4 DUP4 DUP6 PUSH2 0x1A0C JUMP JUMPDEST MLOAD DUP10 MSTORE PUSH1 0x8 DUP1 DUP4 MSTORE DUP7 DUP11 KECCAK256 SLOAD ISZERO PUSH2 0x5E7 JUMPI SWAP1 PUSH2 0x532 PUSH2 0x538 SWAP3 PUSH2 0x517 DUP7 DUP10 PUSH2 0x1A0C JUMP JUMPDEST MLOAD SWAP1 PUSH2 0x523 DUP8 DUP10 PUSH2 0x1A0C JUMP JUMPDEST MLOAD DUP14 MSTORE DUP6 MSTORE DUP9 DUP13 KECCAK256 SLOAD SWAP1 PUSH2 0x1B8D JUMP JUMPDEST SWAP1 PUSH2 0x1B80 JUMP JUMPDEST PUSH1 0x2 SLOAD SWAP1 SWAP3 SWAP1 PUSH1 0x1 PUSH1 0x1 PUSH1 0xA0 SHL SUB AND DUP10 PUSH2 0x552 DUP4 DUP8 PUSH2 0x1A0C JUMP JUMPDEST MLOAD SWAP2 PUSH2 0x55E DUP5 DUP10 PUSH2 0x1A0C JUMP JUMPDEST MLOAD SWAP1 DUP1 EXTCODESIZE ISZERO PUSH2 0x31A JUMPI DUP10 MLOAD PUSH4 0x79212195 PUSH1 0xE1 SHL DUP2 MSTORE CALLER DUP2 DUP14 ADD SWAP1 DUP2 MSTORE ADDRESS PUSH1 0x20 DUP3 ADD MSTORE PUSH1 0x40 DUP2 ADD SWAP6 SWAP1 SWAP6 MSTORE PUSH1 0x60 DUP6 ADD SWAP3 SWAP1 SWAP3 MSTORE PUSH1 0xA0 PUSH1 0x80 DUP6 ADD DUP2 SWAP1 MSTORE PUSH1 0x0 SWAP1 DUP6 ADD MSTORE SWAP1 SWAP3 DUP4 SWAP2 SWAP1 DUP3 SWAP1 DUP5 SWAP1 DUP3 SWAP1 PUSH1 0xC0 ADD SUB SWAP3 GAS CALL DUP1 ISZERO PUSH2 0x5DD JUMPI SWAP1 PUSH2 0x5C8 SWAP3 SWAP2 PUSH2 0x5CE JUMPI JUMPDEST POP PUSH2 0x19E7 JUMP JUMPDEST SWAP2 PUSH2 0x4CC JUMP JUMPDEST PUSH2 0x5D7 SWAP1 PUSH2 0x17CB JUMP JUMPDEST CODESIZE PUSH2 0x5C2 JUMP JUMPDEST DUP8 MLOAD RETURNDATASIZE DUP13 DUP3 RETURNDATACOPY RETURNDATASIZE SWAP1 REVERT JUMPDEST DUP7 MLOAD PUSH3 0x461BCD PUSH1 0xE5 SHL DUP2 MSTORE DUP1 DUP10 ADD DUP5 SWAP1 MSTORE PUSH1 0x13 PUSH1 0x24 DUP3 ADD MSTORE PUSH19 0x151BDAD95B881C1C9A58D9481B9BDD081CD95D PUSH1 0x6A SHL PUSH1 0x44 DUP3 ADD MSTORE PUSH1 0x64 SWAP1 REVERT JUMPDEST DUP9 DUP7 DUP10 DUP8 DUP8 SWAP5 DUP12 PUSH1 0x8 DUP5 ADD SWAP1 DUP2 SLOAD PUSH1 0xFF DUP2 AND ISZERO PUSH2 0x795 JUMPI JUMPDEST POP POP POP DUP5 SWAP4 SWAP5 SWAP4 JUMPDEST DUP7 MLOAD DUP6 LT ISZERO PUSH2 0x72E JUMPI DUP1 SWAP6 DUP2 JUMPDEST DUP6 SLOAD DUP2 LT ISZERO PUSH2 0x722 JUMPI PUSH2 0x660 DUP2 DUP8 PUSH2 0x1A73 JUMP JUMPDEST SWAP1 SLOAD PUSH2 0x66C DUP10 DUP13 PUSH2 0x1A0C JUMP JUMPDEST MLOAD SWAP1 PUSH1 0x3 SWAP3 DUP4 SHL SHR EQ PUSH2 0x688 JUMPI POP PUSH2 0x683 SWAP1 PUSH2 0x19E7 JUMP JUMPDEST PUSH2 0x64D JUMP JUMPDEST PUSH2 0x6EB SWAP4 SWAP9 POP PUSH2 0x6E1 SWAP1 PUSH2 0x6C8 PUSH1 0x1 SWAP10 SWAP5 SWAP10 SWAP4 PUSH2 0x6C2 DUP6 DUP12 ADD SWAP4 PUSH2 0x6AC DUP4 DUP7 PUSH2 0x1A73 JUMP JUMPDEST SWAP1 SLOAD SWAP2 SHL SHR PUSH2 0x6BB DUP9 DUP13 PUSH2 0x1A0C JUMP JUMPDEST MLOAD SWAP1 PUSH2 0x1B80 JUMP JUMPDEST SWAP3 PUSH2 0x1A73 JUMP JUMPDEST SWAP1 SWAP2 SWAP1 DUP3 SLOAD SWAP1 PUSH1 0x3 SHL SWAP2 DUP3 SHL SWAP2 PUSH1 0x0 NOT SWAP1 SHL NOT AND OR SWAP1 SSTORE JUMP JUMPDEST ISZERO PUSH2 0x6F2 JUMPI PUSH2 0x19E7 JUMP JUMPDEST SWAP4 SWAP5 PUSH2 0x640 JUMP JUMPDEST PUSH2 0x706 PUSH2 0x6FF DUP3 DUP11 PUSH2 0x1A0C JUMP JUMPDEST MLOAD DUP7 PUSH2 0x1A8B JUMP JUMPDEST PUSH2 0x71D PUSH2 0x713 DUP3 DUP7 PUSH2 0x1A0C JUMP JUMPDEST MLOAD PUSH1 0x1 DUP8 ADD PUSH2 0x1A8B JUMP JUMPDEST PUSH2 0x19E7 JUMP JUMPDEST POP SWAP5 PUSH2 0x6EB SWAP2 SWAP7 PUSH2 0x6E1 JUMP JUMPDEST DUP7 PUSH32 0x65A6C62234A80250DBD8BC1D34F15274648D17ABBAF60C2F2A4379D52BE1A47D DUP4 DUP6 PUSH2 0x78B DUP11 PUSH1 0x2 DUP11 ADD PUSH2 0x765 DUP6 DUP3 SLOAD PUSH2 0x1B80 JUMP JUMPDEST SWAP1 SSTORE PUSH2 0x773 DUP5 PUSH1 0xB SLOAD PUSH2 0x1B80 JUMP JUMPDEST PUSH1 0xB SSTORE PUSH2 0x77F CALLER PUSH2 0x1FCF JUMP JUMPDEST MLOAD SWAP3 DUP4 SWAP3 CALLER SWAP7 DUP5 PUSH2 0x1AB5 JUMP JUMPDEST SUB SWAP1 LOG2 PUSH1 0x1 DUP1 SSTORE DUP1 RETURN JUMPDEST PUSH1 0x1 SWAP2 TIMESTAMP PUSH1 0x3 DUP9 ADD SSTORE TIMESTAMP SWAP1 DUP8 ADD SSTORE PUSH1 0xFF NOT AND OR SWAP1 SSTORE DUP7 DUP1 DUP1 PUSH2 0x638 JUMP JUMPDEST DUP2 MLOAD PUSH3 0x461BCD PUSH1 0xE5 SHL DUP2 MSTORE PUSH1 0x20 DUP2 DUP6 ADD MSTORE PUSH1 0x12 PUSH1 0x24 DUP3 ADD MSTORE PUSH18 0x4E6F20746F6B656E7320746F207374616B65 PUSH1 0x70 SHL PUSH1 0x44 DUP3 ADD MSTORE PUSH1 0x64 SWAP1 REVERT JUMPDEST POP POP CALLVALUE PUSH2 0x2D0 JUMPI PUSH1 0x20 CALLDATASIZE PUSH1 0x3 NOT ADD SLT PUSH2 0x2D0 JUMPI PUSH1 0x20 SWAP2 PUSH1 0xFF SWAP1 DUP3 SWAP1 PUSH1 0x1 PUSH1 0x1 PUSH1 0xA0 SHL SUB PUSH2 0x815 PUSH2 0x16F8 JUMP JUMPDEST AND DUP2 MSTORE PUSH1 0x10 DUP6 MSTORE KECCAK256 SLOAD AND SWAP1 MLOAD SWAP1 ISZERO ISZERO DUP2 MSTORE RETURN JUMPDEST SWAP1 POP CALLVALUE PUSH2 0x31A JUMPI PUSH1 0x20 CALLDATASIZE PUSH1 0x3 NOT ADD SLT PUSH2 0x31A JUMPI PUSH1 0x20 SWAP3 DUP3 SWAP2 CALLDATALOAD DUP2 MSTORE PUSH1 0x8 DUP5 MSTORE KECCAK256 SLOAD SWAP1 MLOAD SWAP1 DUP2 MSTORE RETURN JUMPDEST POP POP CALLVALUE PUSH2 0x2D0 JUMPI DUP2 PUSH1 0x3 NOT CALLDATASIZE ADD SLT PUSH2 0x2D0 JUMPI PUSH1 0x80 SWAP2 PUSH1 0xB SLOAD SWAP2 PUSH1 0xC SLOAD SWAP1 PUSH1 0xD SLOAD SWAP2 DUP2 MLOAD SWAP5 DUP6 MSTORE PUSH1 0x20 DUP6 ADD MSTORE DUP4 ADD MSTORE PUSH1 0x60 DUP3 ADD MSTORE RETURN JUMPDEST POP POP CALLVALUE PUSH2 0x2D0 JUMPI DUP1 PUSH1 0x3 NOT CALLDATASIZE ADD SLT PUSH2 0x2D0 JUMPI PUSH2 0x89F PUSH2 0x16F8 JUMP JUMPDEST SWAP1 PUSH1 0x24 CALLDATALOAD SWAP1 DUP2 ISZERO ISZERO DUP3 SUB PUSH2 0x8DE JUMPI PUSH2 0x8DB SWAP3 PUSH2 0x8B9 PUSH2 0x194B JUMP JUMPDEST PUSH1 0x1 DUP1 PUSH1 0xA0 SHL SUB AND DUP5 MSTORE PUSH1 0xE PUSH1 0x20 MSTORE DUP4 KECCAK256 SWAP1 PUSH1 0xFF DUP1 NOT DUP4 SLOAD AND SWAP2 ISZERO ISZERO AND OR SWAP1 SSTORE JUMP JUMPDEST DUP1 RETURN JUMPDEST DUP4 DUP1 REVERT JUMPDEST DUP4 SWAP2 POP CALLVALUE PUSH2 0x2D0 JUMPI DUP3 PUSH1 0x3 NOT CALLDATASIZE ADD SLT PUSH2 0x2D0 JUMPI PUSH2 0x8FD PUSH2 0x16F8 JUMP JUMPDEST SWAP3 PUSH8 0xFFFFFFFFFFFFFFFF SWAP1 PUSH1 0x24 CALLDATALOAD DUP3 DUP2 GT PUSH2 0xA61 JUMPI CALLDATASIZE PUSH1 0x23 DUP3 ADD SLT ISZERO PUSH2 0xA61 JUMPI PUSH2 0x930 SWAP1 CALLDATASIZE SWAP1 PUSH1 0x24 DUP2 DUP8 ADD CALLDATALOAD SWAP2 ADD PUSH2 0x18AF JUMP JUMPDEST SWAP5 PUSH2 0x939 PUSH2 0x194B JUMP JUMPDEST PUSH1 0x1 PUSH1 0x1 PUSH1 0xA0 SHL SUB AND DUP5 MSTORE PUSH1 0xF PUSH1 0x20 SWAP1 DUP2 MSTORE SWAP1 DUP5 KECCAK256 DUP6 MLOAD SWAP1 SWAP4 SWAP1 SWAP3 DUP4 GT PUSH2 0xA4E JUMPI POP PUSH2 0x965 DUP4 SLOAD PUSH2 0x1911 JUMP JUMPDEST PUSH1 0x1F DUP2 GT PUSH2 0xA0B JUMPI JUMPDEST POP DUP1 PUSH1 0x1F DUP4 GT PUSH1 0x1 EQ PUSH2 0x9A9 JUMPI POP DUP4 SWAP5 DUP3 SWAP4 SWAP5 SWAP3 PUSH2 0x99E JUMPI JUMPDEST POP POP DUP2 PUSH1 0x1 SHL SWAP2 PUSH1 0x0 NOT SWAP1 PUSH1 0x3 SHL SHR NOT AND OR SWAP1 SSTORE DUP1 RETURN JUMPDEST ADD MLOAD SWAP1 POP DUP5 DUP1 PUSH2 0x987 JUMP JUMPDEST SWAP1 PUSH1 0x1F NOT DUP4 AND SWAP6 DUP5 DUP7 MSTORE DUP3 DUP7 KECCAK256 SWAP3 DUP7 SWAP1 JUMPDEST DUP9 DUP3 LT PUSH2 0x9F3 JUMPI POP POP DUP4 PUSH1 0x1 SWAP6 SWAP7 SWAP8 LT PUSH2 0x9DA JUMPI JUMPDEST POP POP POP DUP2 SHL ADD SWAP1 SSTORE DUP1 RETURN JUMPDEST ADD MLOAD PUSH1 0x0 NOT PUSH1 0xF8 DUP5 PUSH1 0x3 SHL AND SHR NOT AND SWAP1 SSTORE DUP5 DUP1 DUP1 PUSH2 0x9CF JUMP JUMPDEST DUP1 PUSH1 0x1 DUP6 SWAP7 DUP3 SWAP5 SWAP7 DUP7 ADD MLOAD DUP2 SSTORE ADD SWAP6 ADD SWAP4 ADD SWAP1 PUSH2 0x9BA JUMP JUMPDEST DUP4 DUP6 MSTORE DUP2 DUP6 KECCAK256 PUSH1 0x1F DUP5 ADD PUSH1 0x5 SHR DUP2 ADD SWAP2 DUP4 DUP6 LT PUSH2 0xA44 JUMPI JUMPDEST PUSH1 0x1F ADD PUSH1 0x5 SHR ADD SWAP1 JUMPDEST DUP2 DUP2 LT PUSH2 0xA39 JUMPI POP PUSH2 0x96E JUMP JUMPDEST DUP6 DUP2 SSTORE PUSH1 0x1 ADD PUSH2 0xA2C JUMP JUMPDEST SWAP1 SWAP2 POP DUP2 SWAP1 PUSH2 0xA23 JUMP JUMPDEST PUSH4 0x4E487B71 PUSH1 0xE0 SHL DUP6 MSTORE PUSH1 0x41 SWAP1 MSTORE PUSH1 0x24 DUP5 REVERT JUMPDEST DUP5 DUP1 REVERT JUMPDEST POP POP CALLVALUE PUSH2 0x2D0 JUMPI PUSH1 0x20 CALLDATASIZE PUSH1 0x3 NOT ADD SLT PUSH2 0x2D0 JUMPI PUSH1 0x20 SWAP2 DUP2 SWAP1 PUSH1 0x1 PUSH1 0x1 PUSH1 0xA0 SHL SUB PUSH2 0xA8D PUSH2 0x16F8 JUMP JUMPDEST AND DUP2 MSTORE PUSH1 0xA DUP5 MSTORE KECCAK256 SLOAD SWAP1 MLOAD SWAP1 DUP2 MSTORE RETURN JUMPDEST DUP3 DUP5 CALLVALUE PUSH2 0x2CD JUMPI PUSH1 0xA0 CALLDATASIZE PUSH1 0x3 NOT ADD SLT PUSH2 0x2CD JUMPI PUSH2 0xAB8 PUSH2 0x16F8 JUMP JUMPDEST POP PUSH2 0xAC1 PUSH2 0x1713 JUMP JUMPDEST POP PUSH8 0xFFFFFFFFFFFFFFFF SWAP1 PUSH1 0x44 CALLDATALOAD DUP3 DUP2 GT PUSH2 0x2D0 JUMPI PUSH2 0xAE3 SWAP1 CALLDATASIZE SWAP1 DUP7 ADD PUSH2 0x1801 JUMP JUMPDEST POP PUSH1 0x64 CALLDATALOAD DUP3 DUP2 GT PUSH2 0x2D0 JUMPI PUSH2 0xAFB SWAP1 CALLDATASIZE SWAP1 DUP7 ADD PUSH2 0x1801 JUMP JUMPDEST POP PUSH1 0x84 CALLDATALOAD SWAP2 DUP3 GT PUSH2 0x2CD JUMPI POP PUSH1 0x20 SWAP3 PUSH2 0xB16 SWAP2 CALLDATASIZE SWAP2 ADD PUSH2 0x18F6 JUMP JUMPDEST POP MLOAD PUSH4 0xBC197C81 PUSH1 0xE0 SHL DUP2 MSTORE RETURN JUMPDEST DUP4 DUP4 CALLVALUE PUSH2 0x2D0 JUMPI PUSH1 0x20 SWAP3 DUP4 PUSH1 0x3 NOT CALLDATASIZE ADD SLT PUSH2 0x31A JUMPI DUP1 CALLDATALOAD SWAP1 PUSH2 0xB44 PUSH2 0x194B JUMP JUMPDEST PUSH1 0x3 SLOAD DUP4 MLOAD PUSH4 0x23B872DD PUSH1 0xE0 SHL DUP2 MSTORE CALLER DUP4 DUP3 ADD MSTORE ADDRESS PUSH1 0x24 DUP3 ADD MSTORE PUSH1 0x44 DUP2 ADD DUP5 SWAP1 MSTORE SWAP1 DUP7 SWAP1 DUP3 SWAP1 PUSH1 0x64 SWAP1 DUP3 SWAP1 DUP10 SWAP1 PUSH1 0x1 PUSH1 0x1 PUSH1 0xA0 SHL SUB AND GAS CALL SWAP1 DUP2 ISZERO PUSH2 0xC33 JUMPI DUP6 SWAP2 PUSH2 0xC06 JUMPI JUMPDEST POP ISZERO PUSH2 0xBD1 JUMPI POP PUSH32 0xFC3FB83E30D6008BE25259A72095D113618338605017C9C2E740CFBBA7D5FD68 SWAP3 SWAP4 PUSH2 0xBC0 DUP3 PUSH1 0xD SLOAD PUSH2 0x1B80 JUMP JUMPDEST SWAP1 DUP2 PUSH1 0xD SSTORE DUP4 MLOAD SWAP3 DUP4 MSTORE DUP3 ADD MSTORE LOG1 DUP1 RETURN JUMPDEST DUP3 MLOAD PUSH3 0x461BCD PUSH1 0xE5 SHL DUP2 MSTORE SWAP1 DUP2 ADD DUP6 SWAP1 MSTORE PUSH1 0xF PUSH1 0x24 DUP3 ADD MSTORE PUSH15 0x151C985B9CD9995C8819985A5B1959 PUSH1 0x8A SHL PUSH1 0x44 DUP3 ADD MSTORE PUSH1 0x64 SWAP1 REVERT JUMPDEST PUSH2 0xC26 SWAP2 POP DUP7 RETURNDATASIZE DUP9 GT PUSH2 0xC2C JUMPI JUMPDEST PUSH2 0xC1E DUP2 DUP4 PUSH2 0x17DF JUMP JUMPDEST DUP2 ADD SWAP1 PUSH2 0x1C2D JUMP JUMPDEST DUP7 PUSH2 0xB8A JUMP JUMPDEST POP RETURNDATASIZE PUSH2 0xC14 JUMP JUMPDEST DUP5 MLOAD RETURNDATASIZE DUP8 DUP3 RETURNDATACOPY RETURNDATASIZE SWAP1 REVERT JUMPDEST SWAP1 POP CALLVALUE PUSH2 0x31A JUMPI PUSH1 0xA0 CALLDATASIZE PUSH1 0x3 NOT ADD SLT PUSH2 0x31A JUMPI CALLDATALOAD SWAP1 PUSH1 0x5 DUP3 LT ISZERO PUSH2 0x31A JUMPI PUSH1 0x84 CALLDATALOAD SWAP2 DUP3 ISZERO ISZERO DUP1 SWAP4 SUB PUSH2 0x8DE JUMPI PUSH2 0x8DB SWAP3 PUSH1 0x3 SWAP2 PUSH2 0xC78 PUSH2 0x194B JUMP JUMPDEST DUP4 MLOAD SWAP4 PUSH2 0xC84 DUP6 PUSH2 0x1799 JUMP JUMPDEST PUSH1 0x24 CALLDATALOAD DUP6 MSTORE PUSH2 0xCAA PUSH1 0x20 DUP7 ADD SWAP2 PUSH1 0x44 CALLDATALOAD DUP4 MSTORE DUP7 ADD SWAP3 PUSH1 0x64 CALLDATALOAD DUP5 MSTORE PUSH1 0x60 DUP8 ADD SWAP5 DUP6 MSTORE PUSH2 0x1780 JUMP JUMPDEST SWAP5 MLOAD DUP6 SSTORE MLOAD PUSH1 0x1 DUP6 ADD SSTORE MLOAD PUSH1 0x2 DUP5 ADD SSTORE MLOAD ISZERO ISZERO SWAP2 ADD SWAP1 PUSH1 0xFF DUP1 NOT DUP4 SLOAD AND SWAP2 ISZERO ISZERO AND OR SWAP1 SSTORE JUMP JUMPDEST DUP4 SWAP2 POP CALLVALUE PUSH2 0x2D0 JUMPI PUSH2 0xCE1 CALLDATASIZE PUSH2 0x1868 JUMP JUMPDEST SWAP1 SWAP4 PUSH2 0xCEB PUSH2 0x1B2A JUMP JUMPDEST PUSH2 0xCF8 DUP6 MLOAD DUP4 MLOAD EQ PUSH2 0x19A3 JUMP JUMPDEST DUP5 MLOAD ISZERO PUSH2 0x10AB JUMPI SWAP4 SWAP3 SWAP4 CALLER DUP6 MSTORE PUSH1 0x20 SWAP2 PUSH1 0x6 DUP4 MSTORE DUP2 DUP7 KECCAK256 SWAP6 PUSH1 0x8 SWAP2 DUP3 DUP9 ADD SWAP7 PUSH2 0xD24 PUSH1 0xFF DUP10 SLOAD AND PUSH2 0x1BA0 JUMP JUMPDEST PUSH2 0xD2D CALLER PUSH2 0x1C45 JUMP JUMPDEST DUP3 SWAP4 DUP4 SWAP10 JUMPDEST DUP3 MLOAD DUP12 LT ISZERO PUSH2 0x1041 JUMPI PUSH2 0xD48 PUSH2 0x4E2 DUP13 DUP7 PUSH2 0x1A0C JUMP JUMPDEST DUP5 SWAP10 DUP6 JUMPDEST DUP3 SLOAD DUP2 LT ISZERO PUSH2 0x1038 JUMPI PUSH2 0xD6D DUP14 PUSH2 0xD63 DUP4 DUP7 PUSH2 0x1A73 JUMP JUMPDEST SWAP3 SWAP1 SLOAD SWAP2 DUP9 PUSH2 0x1A0C JUMP JUMPDEST MLOAD SWAP1 PUSH1 0x3 SWAP3 DUP4 SHL SHR EQ PUSH2 0xD89 JUMPI POP PUSH2 0xD84 SWAP1 PUSH2 0x19E7 JUMP JUMPDEST PUSH2 0xD4C JUMP JUMPDEST SWAP8 SWAP1 SWAP2 SWAP13 SWAP3 SWAP12 POP PUSH1 0x1 SWAP2 DUP3 DUP14 ADD SWAP2 PUSH2 0xDA1 DUP3 DUP5 PUSH2 0x1A73 JUMP JUMPDEST SWAP1 SLOAD SWAP1 DUP12 SHL SHR PUSH2 0xDB1 DUP7 DUP11 PUSH2 0x1A0C JUMP JUMPDEST MLOAD GT PUSH2 0xFF5 JUMPI PUSH2 0xDE6 SWAP1 PUSH2 0x532 DUP9 DUP9 DUP16 DUP14 PUSH2 0xDD8 DUP12 DUP16 DUP2 PUSH2 0xDD1 SWAP2 PUSH2 0x1A0C JUMP JUMPDEST MLOAD SWAP6 PUSH2 0x1A0C JUMP JUMPDEST MLOAD SWAP1 MSTORE MSTORE DUP14 DUP13 KECCAK256 SLOAD SWAP1 PUSH2 0x1B8D JUMP JUMPDEST SWAP9 PUSH2 0xE18 PUSH2 0xE0E PUSH2 0xDF7 DUP5 DUP7 PUSH2 0x1A73 JUMP JUMPDEST SWAP1 SLOAD SWAP1 DUP5 SHL SHR PUSH2 0xE07 DUP9 DUP13 PUSH2 0x1A0C JUMP JUMPDEST MLOAD SWAP1 PUSH2 0x1BE0 JUMP JUMPDEST PUSH2 0x6C8 DUP5 DUP7 PUSH2 0x1A73 JUMP JUMPDEST PUSH2 0xE22 DUP3 DUP5 PUSH2 0x1A73 JUMP JUMPDEST SWAP1 SLOAD SWAP1 DUP3 SHL SHR ISZERO PUSH2 0xF1B JUMPI JUMPDEST POP POP PUSH1 0x2 SLOAD PUSH1 0x1 PUSH1 0x1 PUSH1 0xA0 SHL SUB AND SWAP1 POP PUSH2 0xE48 DUP4 DUP7 PUSH2 0x1A0C JUMP JUMPDEST MLOAD SWAP1 PUSH2 0xE54 DUP5 DUP9 PUSH2 0x1A0C JUMP JUMPDEST MLOAD SWAP2 DUP2 EXTCODESIZE ISZERO PUSH2 0xF17 JUMPI DUP11 MLOAD PUSH4 0x79212195 PUSH1 0xE1 SHL DUP2 MSTORE ADDRESS DUP2 DUP16 ADD SWAP1 DUP2 MSTORE CALLER PUSH1 0x20 DUP3 ADD MSTORE PUSH1 0x40 DUP2 ADD SWAP3 SWAP1 SWAP3 MSTORE PUSH1 0x60 DUP3 ADD SWAP4 SWAP1 SWAP4 MSTORE PUSH1 0xA0 PUSH1 0x80 DUP3 ADD DUP2 SWAP1 MSTORE PUSH1 0x0 SWAP1 DUP3 ADD MSTORE DUP9 SWAP2 DUP4 SWAP2 DUP3 SWAP1 DUP5 SWAP1 DUP3 SWAP1 PUSH1 0xC0 ADD SUB SWAP3 GAS CALL DUP1 ISZERO PUSH2 0xF0D JUMPI PUSH2 0xEFE JUMPI JUMPDEST POP JUMPDEST ISZERO PUSH2 0xEC8 JUMPI PUSH2 0xEC1 SWAP1 PUSH2 0x19E7 JUMP JUMPDEST SWAP10 SWAP9 PUSH2 0xD32 JUMP JUMPDEST DUP7 MLOAD PUSH3 0x461BCD PUSH1 0xE5 SHL DUP2 MSTORE DUP1 DUP11 ADD DUP10 SWAP1 MSTORE PUSH1 0x10 PUSH1 0x24 DUP3 ADD MSTORE PUSH16 0x151BDAD95B881B9BDD081CDD185AD959 PUSH1 0x82 SHL PUSH1 0x44 DUP3 ADD MSTORE PUSH1 0x64 SWAP1 REVERT JUMPDEST PUSH2 0xF07 SWAP1 PUSH2 0x17CB JUMP JUMPDEST DUP13 PUSH2 0xEB1 JUMP JUMPDEST DUP10 MLOAD RETURNDATASIZE DUP10 DUP3 RETURNDATACOPY RETURNDATASIZE SWAP1 REVERT JUMPDEST DUP9 DUP1 REVERT JUMPDEST DUP14 SLOAD DUP1 DUP4 LT ISZERO PUSH2 0xFBC JUMPI PUSH1 0x0 NOT SWAP1 DUP1 DUP3 ADD SWAP1 DUP2 GT PUSH2 0xFA9 JUMPI DUP16 PUSH2 0x6C8 DUP6 PUSH2 0xF45 PUSH2 0xF51 SWAP5 DUP5 PUSH2 0x1A73 JUMP JUMPDEST SWAP1 SLOAD SWAP1 DUP8 SHL SHR SWAP3 PUSH2 0x1A73 JUMP JUMPDEST DUP4 SLOAD SWAP1 DUP2 ADD SWAP1 DUP2 GT PUSH2 0xF95 JUMPI SWAP2 PUSH2 0x6C8 PUSH2 0xF7F SWAP3 PUSH2 0xF73 DUP7 SWAP6 PUSH2 0xF8D SWAP8 PUSH2 0x1A73 JUMP JUMPDEST SWAP1 SLOAD SWAP2 SHL SHR SWAP2 DUP5 PUSH2 0x1A73 JUMP JUMPDEST PUSH2 0xF88 DUP14 PUSH2 0x1BED JUMP JUMPDEST PUSH2 0x1BED JUMP JUMPDEST DUP13 DUP1 DUP1 PUSH2 0xE2E JUMP JUMPDEST POP PUSH4 0x4E487B71 PUSH1 0xE0 SHL DUP10 MSTORE PUSH1 0x11 DUP14 MSTORE PUSH1 0x24 DUP10 REVERT JUMPDEST PUSH4 0x4E487B71 PUSH1 0xE0 SHL DUP12 MSTORE PUSH1 0x11 DUP16 MSTORE PUSH1 0x24 DUP12 REVERT JUMPDEST DUP12 MLOAD PUSH3 0x461BCD PUSH1 0xE5 SHL DUP2 MSTORE DUP1 DUP16 ADD DUP15 SWAP1 MSTORE PUSH1 0x13 PUSH1 0x24 DUP3 ADD MSTORE PUSH19 0x496E646578206F7574206F6620626F756E6473 PUSH1 0x68 SHL PUSH1 0x44 DUP3 ADD MSTORE PUSH1 0x64 SWAP1 REVERT JUMPDEST DUP11 MLOAD PUSH3 0x461BCD PUSH1 0xE5 SHL DUP2 MSTORE DUP1 DUP15 ADD DUP14 SWAP1 MSTORE PUSH1 0x1A PUSH1 0x24 DUP3 ADD MSTORE PUSH32 0x496E73756666696369656E74207374616B656420616D6F756E74000000000000 PUSH1 0x44 DUP3 ADD MSTORE PUSH1 0x64 SWAP1 REVERT JUMPDEST POP SWAP11 SWAP1 SWAP10 PUSH2 0xEB3 JUMP JUMPDEST DUP3 PUSH32 0xB30CDF47CAE26B4622B4DE44BA827A930E287CF16BCD43A9BF524759A06DE2D5 DUP8 DUP7 PUSH2 0x78B DUP12 DUP16 DUP12 SWAP8 PUSH1 0x2 DUP2 ADD PUSH2 0x107B DUP8 DUP3 SLOAD PUSH2 0x1BE0 JUMP JUMPDEST SWAP1 SSTORE PUSH2 0x1089 DUP7 PUSH1 0xB SLOAD PUSH2 0x1BE0 JUMP JUMPDEST PUSH1 0xB SSTORE SLOAD ISZERO PUSH2 0x109D JUMPI JUMPDEST POP PUSH2 0x77F CALLER PUSH2 0x1FCF JUMP JUMPDEST DUP1 SLOAD PUSH1 0xFF NOT AND SWAP1 SSTORE DUP8 PUSH2 0x1093 JUMP JUMPDEST MLOAD PUSH3 0x461BCD PUSH1 0xE5 SHL DUP2 MSTORE PUSH1 0x20 DUP2 DUP5 ADD MSTORE PUSH1 0x14 PUSH1 0x24 DUP3 ADD MSTORE PUSH20 0x4E6F20746F6B656E7320746F20756E7374616B65 PUSH1 0x60 SHL PUSH1 0x44 DUP3 ADD MSTORE PUSH1 0x64 SWAP1 REVERT JUMPDEST POP POP CALLVALUE PUSH2 0x2D0 JUMPI DUP2 PUSH1 0x3 NOT CALLDATASIZE ADD SLT PUSH2 0x2D0 JUMPI PUSH1 0x20 SWAP1 PUSH1 0x5 SLOAD SWAP1 MLOAD SWAP1 DUP2 MSTORE RETURN JUMPDEST POP POP CALLVALUE PUSH2 0x2D0 JUMPI DUP2 PUSH1 0x3 NOT CALLDATASIZE ADD SLT PUSH2 0x2D0 JUMPI PUSH1 0x20 SWAP1 MLOAD PUSH8 0xDE0B6B3A7640000 DUP2 MSTORE RETURN JUMPDEST DUP4 SWAP2 POP CALLVALUE PUSH2 0x2D0 JUMPI PUSH1 0x20 CALLDATASIZE PUSH1 0x3 NOT ADD SLT PUSH2 0x2D0 JUMPI CALLDATALOAD SWAP1 PUSH1 0x5 DUP3 LT ISZERO PUSH2 0x2CD JUMPI POP PUSH2 0x114F SWAP1 PUSH2 0x1780 JUMP JUMPDEST DUP1 SLOAD PUSH1 0x1 DUP3 ADD SLOAD PUSH1 0x2 DUP4 ADD SLOAD PUSH1 0x3 SWAP1 SWAP4 ADD SLOAD SWAP4 MLOAD SWAP2 DUP3 MSTORE PUSH1 0x20 DUP3 ADD MSTORE PUSH1 0x40 DUP2 ADD SWAP2 SWAP1 SWAP2 MSTORE PUSH1 0xFF SWAP1 SWAP2 AND ISZERO ISZERO PUSH1 0x60 DUP3 ADD MSTORE PUSH1 0x80 SWAP1 RETURN JUMPDEST SUB SWAP1 RETURN JUMPDEST SWAP1 POP CALLVALUE PUSH2 0x31A JUMPI PUSH1 0x20 CALLDATASIZE PUSH1 0x3 NOT ADD SLT PUSH2 0x31A JUMPI PUSH1 0xE0 SWAP3 DUP3 SWAP1 PUSH1 0x1 PUSH1 0x1 PUSH1 0xA0 SHL SUB PUSH2 0x11B0 PUSH2 0x16F8 JUMP JUMPDEST AND DUP2 MSTORE PUSH1 0x6 PUSH1 0x20 MSTORE KECCAK256 PUSH2 0x1204 PUSH1 0x2 DUP3 ADD SLOAD SWAP4 PUSH1 0x3 DUP4 ADD SLOAD SWAP4 DUP4 ADD SLOAD PUSH1 0x5 DUP5 ADD SLOAD SWAP1 PUSH1 0xFF PUSH1 0x6 DUP7 ADD SLOAD AND SWAP3 PUSH1 0xFF PUSH1 0x8 PUSH1 0x7 DUP9 ADD SLOAD SWAP8 ADD SLOAD AND SWAP7 DUP2 MLOAD SWAP9 DUP10 MSTORE PUSH1 0x20 DUP10 ADD MSTORE DUP8 ADD MSTORE PUSH1 0x60 DUP7 ADD MSTORE PUSH1 0x80 DUP6 ADD SWAP1 PUSH2 0x175D JUMP JUMPDEST PUSH1 0xA0 DUP4 ADD MSTORE ISZERO ISZERO PUSH1 0xC0 DUP3 ADD MSTORE RETURN JUMPDEST POP POP CALLVALUE PUSH2 0x2D0 JUMPI DUP2 PUSH1 0x3 NOT CALLDATASIZE ADD SLT PUSH2 0x2D0 JUMPI SWAP1 SLOAD SWAP1 MLOAD PUSH1 0x1 PUSH1 0x1 PUSH1 0xA0 SHL SUB SWAP1 SWAP2 AND DUP2 MSTORE PUSH1 0x20 SWAP1 RETURN JUMPDEST POP POP CALLVALUE PUSH2 0x2D0 JUMPI DUP2 PUSH1 0x3 NOT CALLDATASIZE ADD SLT PUSH2 0x2D0 JUMPI PUSH1 0x20 PUSH32 0x62E78CEA01BEE320CD4E420270B5EA74000D11B0C9F74754EBDBFC544B05A258 SWAP2 PUSH2 0x1278 PUSH2 0x194B JUMP JUMPDEST PUSH2 0x1280 PUSH2 0x1AE3 JUMP JUMPDEST DUP4 SLOAD PUSH1 0xFF PUSH1 0xA0 SHL NOT AND PUSH1 0x1 PUSH1 0xA0 SHL OR DUP5 SSTORE MLOAD CALLER DUP2 MSTORE LOG1 DUP1 RETURN JUMPDEST POP POP CALLVALUE PUSH2 0x2D0 JUMPI DUP2 PUSH1 0x3 NOT CALLDATASIZE ADD SLT PUSH2 0x2D0 JUMPI PUSH1 0x20 SWAP1 PUSH1 0xB SLOAD SWAP1 MLOAD SWAP1 DUP2 MSTORE RETURN JUMPDEST POP POP CALLVALUE PUSH2 0x2D0 JUMPI PUSH1 0x20 CALLDATASIZE PUSH1 0x3 NOT ADD SLT PUSH2 0x2D0 JUMPI SWAP1 DUP2 PUSH2 0x133A SWAP3 PUSH2 0x12D9 PUSH2 0x16F8 JUMP JUMPDEST PUSH1 0x1 PUSH1 0x1 PUSH1 0xA0 SHL SUB DUP2 AND DUP5 MSTORE PUSH1 0x6 PUSH1 0x20 MSTORE SWAP3 KECCAK256 PUSH1 0x2 DUP2 ADD SLOAD SWAP1 SWAP3 PUSH2 0x135B SWAP1 PUSH2 0x1300 SWAP1 PUSH2 0x1DC7 JUMP JUMPDEST PUSH1 0xFF PUSH1 0x6 DUP7 ADD SLOAD AND SWAP1 PUSH1 0x7 DUP7 ADD SLOAD SWAP4 PUSH2 0x1348 PUSH2 0x1327 PUSH1 0x1 PUSH2 0x1320 DUP11 PUSH2 0x20E9 JUMP JUMPDEST SWAP10 ADD PUSH2 0x20E9 JUMP JUMPDEST DUP8 MLOAD SWAP10 DUP11 SWAP10 PUSH1 0xC0 DUP12 MSTORE PUSH1 0xC0 DUP12 ADD SWAP1 PUSH2 0x1729 JUMP JUMPDEST SWAP1 DUP10 DUP3 SUB PUSH1 0x20 DUP12 ADD MSTORE PUSH2 0x1729 JUMP JUMPDEST SWAP6 DUP8 ADD MSTORE PUSH1 0x60 DUP7 ADD MSTORE PUSH1 0x80 DUP6 ADD SWAP1 PUSH2 0x175D JUMP JUMPDEST PUSH1 0xA0 DUP4 ADD MSTORE SUB SWAP1 RETURN JUMPDEST DUP4 SWAP2 POP CALLVALUE PUSH2 0x2D0 JUMPI PUSH1 0x20 CALLDATASIZE PUSH1 0x3 NOT ADD SLT PUSH2 0x2D0 JUMPI CALLDATALOAD SWAP1 PUSH1 0x5 DUP3 LT ISZERO PUSH2 0x2CD JUMPI POP PUSH2 0x138D SWAP1 PUSH2 0x1780 JUMP JUMPDEST SWAP1 PUSH2 0x1184 PUSH1 0x60 DUP3 MLOAD SWAP4 PUSH2 0x139F DUP6 PUSH2 0x1799 JUMP JUMPDEST DUP1 SLOAD SWAP4 DUP5 DUP7 MSTORE PUSH1 0x1 DUP3 ADD SLOAD SWAP6 DUP7 PUSH1 0x20 DUP3 ADD MSTORE PUSH1 0xFF PUSH1 0x3 PUSH1 0x2 DUP6 ADD SLOAD SWAP5 DUP6 DUP6 DUP6 ADD MSTORE ADD SLOAD AND ISZERO ISZERO SWAP4 DUP5 SWAP2 ADD MSTORE MLOAD SWAP5 DUP6 SWAP5 DUP6 SWAP3 PUSH1 0x60 SWAP3 SWAP6 SWAP5 SWAP2 SWAP6 PUSH1 0x80 DUP6 ADD SWAP7 DUP6 MSTORE PUSH1 0x20 DUP6 ADD MSTORE PUSH1 0x40 DUP5 ADD MSTORE ISZERO ISZERO SWAP2 ADD MSTORE JUMP JUMPDEST DUP4 DUP4 CALLVALUE PUSH2 0x2D0 JUMPI DUP1 PUSH1 0x3 NOT CALLDATASIZE ADD SLT PUSH2 0x2D0 JUMPI PUSH2 0x1409 PUSH2 0x16F8 JUMP JUMPDEST SWAP1 PUSH1 0x24 CALLDATALOAD SWAP2 PUSH2 0x1416 PUSH2 0x194B JUMP JUMPDEST PUSH1 0x1 DUP1 PUSH1 0xA0 SHL SUB AND SWAP2 DUP3 DUP5 MSTORE PUSH1 0x6 PUSH1 0x20 MSTORE DUP2 DUP5 KECCAK256 PUSH1 0xA PUSH1 0x20 MSTORE PUSH3 0x15180 DUP1 DUP5 DUP8 KECCAK256 SLOAD DIV SWAP1 PUSH1 0x1E DUP3 ADD DUP1 SWAP3 GT PUSH2 0x14AF JUMPI SWAP2 PUSH1 0x7 SWAP2 PUSH32 0x72276B0CA282389C017B5786D95B83F0EC6BB47B7FBDDE1266A9161D947D08E1 SWAP6 SWAP5 SWAP4 TIMESTAMP DIV GT PUSH1 0x0 EQ PUSH2 0x149A JUMPI DUP3 DUP3 DUP3 ADD SSTORE JUMPDEST DUP6 DUP8 MSTORE PUSH1 0xA PUSH1 0x20 MSTORE TIMESTAMP DUP5 DUP9 KECCAK256 SSTORE ADD SLOAD DUP3 MLOAD SWAP2 DUP3 MSTORE PUSH1 0x20 DUP3 ADD MSTORE LOG2 DUP1 RETURN JUMPDEST DUP2 DUP2 ADD PUSH2 0x14A8 DUP5 DUP3 SLOAD PUSH2 0x1B80 JUMP JUMPDEST SWAP1 SSTORE PUSH2 0x147D JUMP JUMPDEST PUSH4 0x4E487B71 PUSH1 0xE0 SHL DUP8 MSTORE PUSH1 0x11 DUP9 MSTORE PUSH1 0x24 DUP8 REVERT JUMPDEST POP POP CALLVALUE PUSH2 0x2D0 JUMPI DUP1 PUSH1 0x3 NOT CALLDATASIZE ADD SLT PUSH2 0x2D0 JUMPI PUSH1 0x20 SWAP2 DUP2 SWAP1 PUSH1 0x1 PUSH1 0x1 PUSH1 0xA0 SHL SUB PUSH2 0x14E9 PUSH2 0x16F8 JUMP JUMPDEST AND DUP2 MSTORE PUSH1 0x9 DUP5 MSTORE DUP2 DUP2 KECCAK256 PUSH1 0x24 CALLDATALOAD DUP3 MSTORE DUP5 MSTORE KECCAK256 SLOAD SWAP1 MLOAD SWAP1 DUP2 MSTORE RETURN JUMPDEST DUP4 CALLVALUE PUSH2 0x2CD JUMPI DUP1 PUSH1 0x3 NOT CALLDATASIZE ADD SLT PUSH2 0x2CD JUMPI PUSH2 0x151C PUSH2 0x194B JUMP JUMPDEST DUP1 SLOAD PUSH1 0x1 PUSH1 0x1 PUSH1 0xA0 SHL SUB NOT DUP2 AND DUP3 SSTORE DUP2 SWAP1 PUSH1 0x1 PUSH1 0x1 PUSH1 0xA0 SHL SUB AND PUSH32 0x8BE0079C531659141344CD1FD0A4F28419497F9722A3DAAFE3B4186F6B6457E0 DUP3 DUP1 LOG3 DUP1 RETURN JUMPDEST POP POP CALLVALUE PUSH2 0x2D0 JUMPI DUP2 PUSH1 0x3 NOT CALLDATASIZE ADD SLT PUSH2 0x2D0 JUMPI PUSH1 0x20 SWAP1 PUSH1 0xD SLOAD SWAP1 MLOAD SWAP1 DUP2 MSTORE RETURN JUMPDEST POP POP CALLVALUE PUSH2 0x2D0 JUMPI DUP2 PUSH1 0x3 NOT CALLDATASIZE ADD SLT PUSH2 0x2D0 JUMPI PUSH1 0xFF PUSH1 0x20 SWAP3 SLOAD PUSH1 0xA0 SHR AND SWAP1 MLOAD SWAP1 ISZERO ISZERO DUP2 MSTORE RETURN JUMPDEST POP POP CALLVALUE PUSH2 0x2D0 JUMPI DUP2 PUSH1 0x3 NOT CALLDATASIZE ADD SLT PUSH2 0x2D0 JUMPI PUSH1 0x2 SLOAD SWAP1 MLOAD PUSH1 0x1 PUSH1 0x1 PUSH1 0xA0 SHL SUB SWAP1 SWAP2 AND DUP2 MSTORE PUSH1 0x20 SWAP1 RETURN JUMPDEST SWAP1 POP CALLVALUE PUSH2 0x31A JUMPI DUP3 PUSH1 0x3 NOT CALLDATASIZE ADD SLT PUSH2 0x31A JUMPI PUSH2 0x15E4 PUSH2 0x194B JUMP JUMPDEST DUP3 SLOAD SWAP1 PUSH1 0xFF DUP3 PUSH1 0xA0 SHR AND ISZERO PUSH2 0x162A JUMPI POP PUSH1 0xFF PUSH1 0xA0 SHL NOT AND DUP3 SSTORE MLOAD CALLER DUP2 MSTORE PUSH32 0x5DB9EE0A495BF2E6FF9C91A7834C1BA4FDD244A5E8AA4E537BD38AEAE4B073AA SWAP1 PUSH1 0x20 SWAP1 LOG1 DUP1 RETURN JUMPDEST PUSH1 0x64 SWAP1 PUSH1 0x20 DUP5 MLOAD SWAP2 PUSH3 0x461BCD PUSH1 0xE5 SHL DUP4 MSTORE DUP3 ADD MSTORE PUSH1 0x14 PUSH1 0x24 DUP3 ADD MSTORE PUSH20 0x14185D5CD8589B194E881B9BDD081C185D5CD959 PUSH1 0x62 SHL PUSH1 0x44 DUP3 ADD MSTORE REVERT JUMPDEST DUP4 CALLVALUE PUSH2 0x2CD JUMPI DUP1 PUSH1 0x3 NOT CALLDATASIZE ADD SLT PUSH2 0x2CD JUMPI PUSH2 0x167D PUSH2 0x1B2A JUMP JUMPDEST PUSH2 0x1686 CALLER PUSH2 0x1C45 JUMP JUMPDEST PUSH1 0x1 DUP1 SSTORE DUP1 RETURN JUMPDEST POP POP CALLVALUE PUSH2 0x2D0 JUMPI PUSH1 0x20 CALLDATASIZE PUSH1 0x3 NOT ADD SLT PUSH2 0x2D0 JUMPI PUSH1 0x20 SWAP2 PUSH1 0xFF SWAP1 DUP3 SWAP1 PUSH1 0x1 PUSH1 0x1 PUSH1 0xA0 SHL SUB PUSH2 0x16B8 PUSH2 0x16F8 JUMP JUMPDEST AND DUP2 MSTORE PUSH1 0xE DUP6 MSTORE KECCAK256 SLOAD AND SWAP1 MLOAD SWAP1 ISZERO ISZERO DUP2 MSTORE RETURN JUMPDEST POP POP CALLVALUE PUSH2 0x2D0 JUMPI PUSH1 0x20 CALLDATASIZE PUSH1 0x3 NOT ADD SLT PUSH2 0x2D0 JUMPI PUSH1 0x20 SWAP1 PUSH2 0x16F1 PUSH2 0x16EC PUSH2 0x16F8 JUMP JUMPDEST PUSH2 0x1DC7 JUMP JUMPDEST SWAP1 MLOAD SWAP1 DUP2 MSTORE RETURN JUMPDEST PUSH1 0x4 CALLDATALOAD SWAP1 PUSH1 0x1 PUSH1 0x1 PUSH1 0xA0 SHL SUB DUP3 AND DUP3 SUB PUSH2 0x170E JUMPI JUMP JUMPDEST PUSH1 0x0 DUP1 REVERT JUMPDEST PUSH1 0x24 CALLDATALOAD SWAP1 PUSH1 0x1 PUSH1 0x1 PUSH1 0xA0 SHL SUB DUP3 AND DUP3 SUB PUSH2 0x170E JUMPI JUMP JUMPDEST SWAP1 DUP2 MLOAD DUP1 DUP3 MSTORE PUSH1 0x20 DUP1 DUP1 SWAP4 ADD SWAP4 ADD SWAP2 PUSH1 0x0 JUMPDEST DUP3 DUP2 LT PUSH2 0x1749 JUMPI POP POP POP POP SWAP1 JUMP JUMPDEST DUP4 MLOAD DUP6 MSTORE SWAP4 DUP2 ADD SWAP4 SWAP3 DUP2 ADD SWAP3 PUSH1 0x1 ADD PUSH2 0x173B JUMP JUMPDEST SWAP1 PUSH1 0x5 DUP3 LT ISZERO PUSH2 0x176A JUMPI MSTORE JUMP JUMPDEST PUSH4 0x4E487B71 PUSH1 0xE0 SHL PUSH1 0x0 MSTORE PUSH1 0x21 PUSH1 0x4 MSTORE PUSH1 0x24 PUSH1 0x0 REVERT JUMPDEST PUSH1 0x5 DUP2 LT ISZERO PUSH2 0x176A JUMPI PUSH1 0x0 MSTORE PUSH1 0x7 PUSH1 0x20 MSTORE PUSH1 0x40 PUSH1 0x0 KECCAK256 SWAP1 JUMP JUMPDEST PUSH1 0x80 DUP2 ADD SWAP1 DUP2 LT PUSH8 0xFFFFFFFFFFFFFFFF DUP3 GT OR PUSH2 0x17B5 JUMPI PUSH1 0x40 MSTORE JUMP JUMPDEST PUSH4 0x4E487B71 PUSH1 0xE0 SHL PUSH1 0x0 MSTORE PUSH1 0x41 PUSH1 0x4 MSTORE PUSH1 0x24 PUSH1 0x0 REVERT JUMPDEST PUSH8 0xFFFFFFFFFFFFFFFF DUP2 GT PUSH2 0x17B5 JUMPI PUSH1 0x40 MSTORE JUMP JUMPDEST SWAP1 PUSH1 0x1F DUP1 NOT SWAP2 ADD AND DUP2 ADD SWAP1 DUP2 LT PUSH8 0xFFFFFFFFFFFFFFFF DUP3 GT OR PUSH2 0x17B5 JUMPI PUSH1 0x40 MSTORE JUMP JUMPDEST SWAP1 DUP1 PUSH1 0x1F DUP4 ADD SLT ISZERO PUSH2 0x170E JUMPI DUP2 CALLDATALOAD SWAP1 PUSH8 0xFFFFFFFFFFFFFFFF DUP3 GT PUSH2 0x17B5 JUMPI DUP2 PUSH1 0x5 SHL PUSH1 0x40 MLOAD SWAP4 PUSH1 0x20 SWAP4 PUSH2 0x1836 DUP6 DUP5 ADD DUP8 PUSH2 0x17DF JUMP JUMPDEST DUP6 MSTORE DUP4 DUP1 DUP7 ADD SWAP3 DUP3 ADD ADD SWAP3 DUP4 GT PUSH2 0x170E JUMPI DUP4 ADD SWAP1 JUMPDEST DUP3 DUP3 LT PUSH2 0x1859 JUMPI POP POP POP POP SWAP1 JUMP JUMPDEST DUP2 CALLDATALOAD DUP2 MSTORE SWAP1 DUP4 ADD SWAP1 DUP4 ADD PUSH2 0x184B JUMP JUMPDEST SWAP1 PUSH1 0x40 PUSH1 0x3 NOT DUP4 ADD SLT PUSH2 0x170E JUMPI PUSH8 0xFFFFFFFFFFFFFFFF PUSH1 0x4 CALLDATALOAD DUP2 DUP2 GT PUSH2 0x170E JUMPI DUP4 PUSH2 0x1895 SWAP2 PUSH1 0x4 ADD PUSH2 0x1801 JUMP JUMPDEST SWAP3 PUSH1 0x24 CALLDATALOAD SWAP2 DUP3 GT PUSH2 0x170E JUMPI PUSH2 0x18AC SWAP2 PUSH1 0x4 ADD PUSH2 0x1801 JUMP JUMPDEST SWAP1 JUMP JUMPDEST SWAP3 SWAP2 SWAP3 PUSH8 0xFFFFFFFFFFFFFFFF DUP3 GT PUSH2 0x17B5 JUMPI PUSH1 0x40 MLOAD SWAP2 PUSH2 0x18D9 PUSH1 0x1F DUP3 ADD PUSH1 0x1F NOT AND PUSH1 0x20 ADD DUP5 PUSH2 0x17DF JUMP JUMPDEST DUP3 SWAP5 DUP2 DUP5 MSTORE DUP2 DUP4 ADD GT PUSH2 0x170E JUMPI DUP3 DUP2 PUSH1 0x20 SWAP4 DUP5 PUSH1 0x0 SWAP7 ADD CALLDATACOPY ADD ADD MSTORE JUMP JUMPDEST SWAP1 DUP1 PUSH1 0x1F DUP4 ADD SLT ISZERO PUSH2 0x170E JUMPI DUP2 PUSH1 0x20 PUSH2 0x18AC SWAP4 CALLDATALOAD SWAP2 ADD PUSH2 0x18AF JUMP JUMPDEST SWAP1 PUSH1 0x1 DUP3 DUP2 SHR SWAP3 AND DUP1 ISZERO PUSH2 0x1941 JUMPI JUMPDEST PUSH1 0x20 DUP4 LT EQ PUSH2 0x192B JUMPI JUMP JUMPDEST PUSH4 0x4E487B71 PUSH1 0xE0 SHL PUSH1 0x0 MSTORE PUSH1 0x22 PUSH1 0x4 MSTORE PUSH1 0x24 PUSH1 0x0 REVERT JUMPDEST SWAP2 PUSH1 0x7F AND SWAP2 PUSH2 0x1920 JUMP JUMPDEST PUSH1 0x0 SLOAD PUSH1 0x1 PUSH1 0x1 PUSH1 0xA0 SHL SUB AND CALLER SUB PUSH2 0x195F JUMPI JUMP JUMPDEST PUSH1 0x64 PUSH1 0x40 MLOAD PUSH3 0x461BCD PUSH1 0xE5 SHL DUP2 MSTORE PUSH1 0x20 PUSH1 0x4 DUP3 ADD MSTORE PUSH1 0x20 PUSH1 0x24 DUP3 ADD MSTORE PUSH32 0x4F776E61626C653A2063616C6C6572206973206E6F7420746865206F776E6572 PUSH1 0x44 DUP3 ADD MSTORE REVERT JUMPDEST ISZERO PUSH2 0x19AA JUMPI JUMP JUMPDEST PUSH1 0x40 MLOAD PUSH3 0x461BCD PUSH1 0xE5 SHL DUP2 MSTORE PUSH1 0x20 PUSH1 0x4 DUP3 ADD MSTORE PUSH1 0x15 PUSH1 0x24 DUP3 ADD MSTORE PUSH21 0x82E4E4C2F240D8CADCCEE8D040DAD2E6DAC2E8C6D PUSH1 0x5B SHL PUSH1 0x44 DUP3 ADD MSTORE PUSH1 0x64 SWAP1 REVERT JUMPDEST PUSH1 0x0 NOT DUP2 EQ PUSH2 0x19F6 JUMPI PUSH1 0x1 ADD SWAP1 JUMP JUMPDEST PUSH4 0x4E487B71 PUSH1 0xE0 SHL PUSH1 0x0 MSTORE PUSH1 0x11 PUSH1 0x4 MSTORE PUSH1 0x24 PUSH1 0x0 REVERT JUMPDEST DUP1 MLOAD DUP3 LT ISZERO PUSH2 0x1A20 JUMPI PUSH1 0x20 SWAP2 PUSH1 0x5 SHL ADD ADD SWAP1 JUMP JUMPDEST PUSH4 0x4E487B71 PUSH1 0xE0 SHL PUSH1 0x0 MSTORE PUSH1 0x32 PUSH1 0x4 MSTORE PUSH1 0x24 PUSH1 0x0 REVERT JUMPDEST ISZERO PUSH2 0x1A3D JUMPI JUMP JUMPDEST PUSH1 0x40 MLOAD PUSH3 0x461BCD PUSH1 0xE5 SHL DUP2 MSTORE PUSH1 0x20 PUSH1 0x4 DUP3 ADD MSTORE PUSH1 0xE PUSH1 0x24 DUP3 ADD MSTORE PUSH14 0x125B9D985B1A5908185B5BDD5B9D PUSH1 0x92 SHL PUSH1 0x44 DUP3 ADD MSTORE PUSH1 0x64 SWAP1 REVERT JUMPDEST DUP1 SLOAD DUP3 LT ISZERO PUSH2 0x1A20 JUMPI PUSH1 0x0 MSTORE PUSH1 0x20 PUSH1 0x0 KECCAK256 ADD SWAP1 PUSH1 0x0 SWAP1 JUMP JUMPDEST SWAP1 DUP2 SLOAD SWAP2 PUSH9 0x10000000000000000 DUP4 LT ISZERO PUSH2 0x17B5 JUMPI DUP3 PUSH2 0x6C8 SWAP2 PUSH1 0x1 PUSH2 0x1AB3 SWAP6 ADD DUP2 SSTORE PUSH2 0x1A73 JUMP JUMPDEST JUMP JUMPDEST SWAP4 SWAP3 SWAP2 PUSH2 0x1ADE SWAP1 PUSH2 0x1AD0 PUSH1 0x40 SWAP4 PUSH1 0x60 DUP9 MSTORE PUSH1 0x60 DUP9 ADD SWAP1 PUSH2 0x1729 JUMP JUMPDEST SWAP1 DUP7 DUP3 SUB PUSH1 0x20 DUP9 ADD MSTORE PUSH2 0x1729 JUMP JUMPDEST SWAP4 ADD MSTORE JUMP JUMPDEST PUSH1 0xFF PUSH1 0x0 SLOAD PUSH1 0xA0 SHR AND PUSH2 0x1AF2 JUMPI JUMP JUMPDEST PUSH1 0x40 MLOAD PUSH3 0x461BCD PUSH1 0xE5 SHL DUP2 MSTORE PUSH1 0x20 PUSH1 0x4 DUP3 ADD MSTORE PUSH1 0x10 PUSH1 0x24 DUP3 ADD MSTORE PUSH16 0x14185D5CD8589B194E881C185D5CD959 PUSH1 0x82 SHL PUSH1 0x44 DUP3 ADD MSTORE PUSH1 0x64 SWAP1 REVERT JUMPDEST PUSH1 0x2 PUSH1 0x1 SLOAD EQ PUSH2 0x1B3B JUMPI PUSH1 0x2 PUSH1 0x1 SSTORE JUMP JUMPDEST PUSH1 0x40 MLOAD PUSH3 0x461BCD PUSH1 0xE5 SHL DUP2 MSTORE PUSH1 0x20 PUSH1 0x4 DUP3 ADD MSTORE PUSH1 0x1F PUSH1 0x24 DUP3 ADD MSTORE PUSH32 0x5265656E7472616E637947756172643A207265656E7472616E742063616C6C00 PUSH1 0x44 DUP3 ADD MSTORE PUSH1 0x64 SWAP1 REVERT JUMPDEST SWAP2 SWAP1 DUP3 ADD DUP1 SWAP3 GT PUSH2 0x19F6 JUMPI JUMP JUMPDEST DUP2 DUP2 MUL SWAP3 SWAP2 DUP2 ISZERO SWAP2 DUP5 DIV EQ OR ISZERO PUSH2 0x19F6 JUMPI JUMP JUMPDEST ISZERO PUSH2 0x1BA7 JUMPI JUMP JUMPDEST PUSH1 0x40 MLOAD PUSH3 0x461BCD PUSH1 0xE5 SHL DUP2 MSTORE PUSH1 0x20 PUSH1 0x4 DUP3 ADD MSTORE PUSH1 0x11 PUSH1 0x24 DUP3 ADD MSTORE PUSH17 0x4E6F20616374697665207374616B696E67 PUSH1 0x78 SHL PUSH1 0x44 DUP3 ADD MSTORE PUSH1 0x64 SWAP1 REVERT JUMPDEST SWAP2 SWAP1 DUP3 SUB SWAP2 DUP3 GT PUSH2 0x19F6 JUMPI JUMP JUMPDEST DUP1 SLOAD SWAP1 DUP2 ISZERO PUSH2 0x1C17 JUMPI PUSH1 0x0 NOT SWAP2 DUP3 ADD SWAP2 PUSH2 0x1C07 DUP4 DUP4 PUSH2 0x1A73 JUMP JUMPDEST SWAP1 SWAP2 DUP3 SLOAD SWAP2 PUSH1 0x3 SHL SHL NOT AND SWAP1 SSTORE SSTORE JUMP JUMPDEST PUSH4 0x4E487B71 PUSH1 0xE0 SHL PUSH1 0x0 MSTORE PUSH1 0x31 PUSH1 0x4 MSTORE PUSH1 0x24 PUSH1 0x0 REVERT JUMPDEST SWAP1 DUP2 PUSH1 0x20 SWAP2 SUB SLT PUSH2 0x170E JUMPI MLOAD DUP1 ISZERO ISZERO DUP2 SUB PUSH2 0x170E JUMPI SWAP1 JUMP JUMPDEST PUSH1 0x1 DUP1 PUSH1 0xA0 SHL SUB SWAP1 DUP2 DUP2 AND SWAP2 DUP3 PUSH1 0x0 MSTORE PUSH1 0x20 SWAP1 PUSH1 0x6 DUP3 MSTORE PUSH2 0x1C75 PUSH1 0x40 PUSH1 0x0 KECCAK256 SWAP4 PUSH2 0x16EC PUSH1 0xFF PUSH1 0x8 DUP8 ADD SLOAD AND PUSH2 0x1BA0 JUMP JUMPDEST SWAP3 DUP4 PUSH2 0x1C83 JUMPI JUMPDEST POP POP POP POP POP JUMP JUMPDEST DUP4 PUSH1 0xD SLOAD LT PUSH2 0x1D82 JUMPI PUSH1 0x5 DUP2 ADD PUSH2 0x1C9B DUP6 DUP3 SLOAD PUSH2 0x1B80 JUMP JUMPDEST SWAP1 SSTORE PUSH1 0x4 TIMESTAMP SWAP2 ADD SSTORE PUSH2 0x1CAF DUP4 PUSH1 0xD SLOAD PUSH2 0x1BE0 JUMP JUMPDEST PUSH1 0xD SSTORE PUSH2 0x1CBE DUP4 PUSH1 0xC SLOAD PUSH2 0x1B80 JUMP JUMPDEST PUSH1 0xC SSTORE PUSH1 0x3 SLOAD AND SWAP2 DUP3 PUSH2 0x1D00 JUMPI JUMPDEST PUSH32 0xFC30CDDEA38E2BF4D6EA7D3F9ED3B6AD7F176419F4963BD81318067A4AEE73FE SWAP3 POP PUSH1 0x40 MLOAD SWAP1 DUP2 MSTORE LOG2 CODESIZE DUP1 DUP1 DUP1 DUP1 PUSH2 0x1C7C JUMP JUMPDEST DUP2 PUSH1 0x0 SWAP4 PUSH1 0x44 PUSH1 0x40 MLOAD DUP1 SWAP7 DUP2 SWAP4 PUSH4 0xA9059CBB PUSH1 0xE0 SHL DUP4 MSTORE DUP10 PUSH1 0x4 DUP5 ADD MSTORE DUP7 PUSH1 0x24 DUP5 ADD MSTORE GAS CALL SWAP3 DUP4 ISZERO PUSH2 0x1D76 JUMPI PUSH32 0xFC30CDDEA38E2BF4D6EA7D3F9ED3B6AD7F176419F4963BD81318067A4AEE73FE SWAP4 PUSH2 0x1D59 JUMPI JUMPDEST POP PUSH2 0x1CCC JUMP JUMPDEST PUSH2 0x1D6F SWAP1 DUP4 RETURNDATASIZE DUP6 GT PUSH2 0xC2C JUMPI PUSH2 0xC1E DUP2 DUP4 PUSH2 0x17DF JUMP JUMPDEST POP CODESIZE PUSH2 0x1D53 JUMP JUMPDEST PUSH1 0x40 MLOAD RETURNDATASIZE PUSH1 0x0 DUP3 RETURNDATACOPY RETURNDATASIZE SWAP1 REVERT JUMPDEST PUSH1 0x40 MLOAD PUSH3 0x461BCD PUSH1 0xE5 SHL DUP2 MSTORE PUSH1 0x4 DUP2 ADD DUP5 SWAP1 MSTORE PUSH1 0x18 PUSH1 0x24 DUP3 ADD MSTORE PUSH32 0x496E73756666696369656E742072657761726420706F6F6C0000000000000000 PUSH1 0x44 DUP3 ADD MSTORE PUSH1 0x64 SWAP1 REVERT JUMPDEST PUSH1 0x1 PUSH1 0x1 PUSH1 0xA0 SHL SUB DUP2 AND PUSH1 0x0 DUP2 DUP2 MSTORE PUSH1 0x6 PUSH1 0x20 MSTORE PUSH1 0x40 DUP2 KECCAK256 PUSH1 0x8 DUP2 ADD SLOAD PUSH1 0xFF AND ISZERO DUP1 ISZERO PUSH2 0x1F1B JUMPI JUMPDEST PUSH2 0x1F14 JUMPI PUSH2 0x1E01 PUSH1 0x4 DUP3 ADD SLOAD TIMESTAMP PUSH2 0x1BE0 JUMP JUMPDEST DUP1 ISZERO PUSH2 0x1F0C JUMPI PUSH1 0x2 PUSH2 0x1E19 PUSH1 0xFF PUSH1 0x6 DUP6 ADD SLOAD AND PUSH2 0x1780 JUMP JUMPDEST SWAP3 PUSH1 0x40 MLOAD PUSH2 0x1E26 DUP2 PUSH2 0x1799 JUMP JUMPDEST DUP5 SLOAD DUP2 MSTORE PUSH1 0x60 PUSH1 0xFF PUSH1 0x3 PUSH1 0x1 DUP9 ADD SLOAD SWAP8 PUSH1 0x20 DUP6 ADD SWAP9 DUP10 MSTORE DUP7 DUP2 ADD SLOAD PUSH1 0x40 DUP7 ADD MSTORE ADD SLOAD AND ISZERO ISZERO SWAP2 ADD MSTORE ADD SLOAD SWAP1 PUSH2 0x1E5D PUSH1 0x5 SLOAD DUP4 PUSH2 0x1B8D JUMP JUMPDEST SWAP2 PUSH2 0x1E8E DUP3 PUSH2 0x3E8 PUSH2 0x2710 DUP1 SWAP8 PUSH2 0x1E85 DUP5 PUSH2 0x1E80 PUSH4 0x1E13380 SWAP11 DUP12 SWAP5 MLOAD SWAP1 PUSH2 0x1B8D JUMP JUMPDEST PUSH2 0x1B8D JUMP JUMPDEST DIV DIV DIV SWAP9 PUSH2 0x1F27 JUMP JUMPDEST SWAP5 DUP1 SWAP7 DUP2 MSTORE PUSH1 0xE PUSH1 0x20 MSTORE PUSH1 0xFF PUSH1 0x40 DUP3 KECCAK256 SLOAD AND PUSH2 0x1EBC JUMPI JUMPDEST POP POP POP POP POP PUSH2 0x1EB7 SWAP1 PUSH2 0x18AC SWAP4 PUSH2 0x1B80 JUMP JUMPDEST PUSH2 0x1B80 JUMP JUMPDEST SWAP1 SWAP2 SWAP3 SWAP4 SWAP5 SWAP6 POP PUSH1 0x32 DUP3 MUL SWAP2 DUP1 DUP4 DIV PUSH1 0x32 EQ SWAP1 ISZERO OR ISZERO PUSH2 0x1EF8 JUMPI POP SWAP2 PUSH2 0x1EEB PUSH2 0x1EB7 SWAP5 SWAP3 PUSH2 0x18AC SWAP8 SWAP7 SWAP5 PUSH2 0x1B8D JUMP JUMPDEST DIV DIV SWAP3 SWAP4 DUP2 SWAP3 CODESIZE DUP1 PUSH2 0x1EA5 JUMP JUMPDEST PUSH4 0x4E487B71 PUSH1 0xE0 SHL DUP2 MSTORE PUSH1 0x11 PUSH1 0x4 MSTORE PUSH1 0x24 SWAP1 REVERT JUMPDEST POP POP SWAP2 POP POP SWAP1 JUMP JUMPDEST POP SWAP2 POP POP SWAP1 JUMP JUMPDEST POP PUSH1 0x2 DUP2 ADD SLOAD ISZERO PUSH2 0x1DEF JUMP JUMPDEST PUSH1 0x1 DUP1 PUSH1 0xA0 SHL SUB AND PUSH1 0x0 MSTORE PUSH1 0x6 PUSH1 0x20 MSTORE PUSH1 0x40 PUSH1 0x0 KECCAK256 SWAP1 PUSH2 0x1F4D PUSH1 0xFF PUSH1 0x6 DUP5 ADD SLOAD AND PUSH2 0x1780 JUMP JUMPDEST SWAP1 PUSH1 0x40 MLOAD PUSH2 0x1F5A DUP2 PUSH2 0x1799 JUMP JUMPDEST DUP3 SLOAD DUP2 MSTORE PUSH1 0x1 DUP4 ADD SLOAD PUSH1 0x20 DUP3 ADD MSTORE PUSH1 0x60 PUSH1 0xFF PUSH1 0x3 PUSH1 0x2 DUP7 ADD SLOAD SWAP6 PUSH1 0x40 DUP6 ADD SWAP7 DUP8 MSTORE ADD SLOAD AND ISZERO ISZERO SWAP2 ADD MSTORE PUSH1 0x7 DUP4 ADD SLOAD SWAP1 DUP2 ISZERO PUSH2 0x1FC6 JUMPI PUSH2 0x1E80 PUSH4 0x1E13380 SWAP4 PUSH2 0x1FB9 PUSH2 0x2710 SWAP7 PUSH1 0x2 PUSH10 0xD3C21BCECCEDA1000000 PUSH2 0x1FC1 SWAP8 DIV SWAP2 ADD SLOAD PUSH2 0x1B8D JUMP JUMPDEST SWAP1 MLOAD SWAP1 PUSH2 0x1B8D JUMP JUMPDEST DIV DIV SWAP1 JUMP JUMPDEST POP POP POP POP PUSH1 0x0 SWAP1 JUMP JUMPDEST PUSH1 0x1 DUP1 PUSH1 0xA0 SHL SUB AND PUSH1 0x0 DUP2 DUP2 MSTORE PUSH1 0x6 PUSH1 0x20 MSTORE PUSH1 0x40 DUP1 DUP3 KECCAK256 SWAP2 PUSH1 0x6 DUP4 ADD SWAP3 DUP4 SLOAD SWAP1 PUSH1 0xFF DUP3 AND SWAP3 PUSH1 0x2 DUP2 SWAP3 ADD SLOAD PUSH1 0x4 DUP3 MSTORE PUSH1 0x7 PUSH1 0x20 MSTORE DUP6 DUP3 KECCAK256 SLOAD DUP2 LT ISZERO PUSH1 0x0 EQ PUSH2 0x20A2 JUMPI POP PUSH1 0x4 SWAP2 POP JUMPDEST PUSH1 0x5 DUP5 LT ISZERO PUSH2 0x208E JUMPI PUSH1 0x5 DUP3 LT ISZERO PUSH2 0x208E JUMPI POP DUP3 DUP2 SUB PUSH2 0x203A JUMPI JUMPDEST POP POP POP POP POP POP JUMP JUMPDEST PUSH32 0xBD8C91B5265679B3FAE7724A5E4587D7D0F3B38A6ACA7391886D910158910CF4 SWAP5 PUSH2 0x2082 SWAP3 PUSH1 0xFF DUP4 AND SWAP1 PUSH1 0xFF NOT AND OR SWAP1 SSTORE PUSH2 0x2078 DUP5 MLOAD DUP1 SWAP5 PUSH2 0x175D JUMP JUMPDEST PUSH1 0x20 DUP4 ADD SWAP1 PUSH2 0x175D JUMP JUMPDEST LOG2 CODESIZE DUP1 DUP1 DUP1 DUP1 DUP1 PUSH2 0x2032 JUMP JUMPDEST PUSH4 0x4E487B71 PUSH1 0xE0 SHL DUP2 MSTORE PUSH1 0x21 PUSH1 0x4 MSTORE PUSH1 0x24 SWAP1 REVERT JUMPDEST PUSH1 0x3 DUP3 MSTORE DUP6 DUP3 KECCAK256 SLOAD DUP2 LT PUSH2 0x20BB JUMPI POP PUSH1 0x3 SWAP2 POP JUMPDEST PUSH2 0x2017 JUMP JUMPDEST PUSH1 0x2 DUP3 MSTORE DUP6 DUP3 KECCAK256 SLOAD DUP2 LT PUSH2 0x20D3 JUMPI POP PUSH1 0x2 SWAP2 POP PUSH2 0x2017 JUMP JUMPDEST PUSH1 0x1 DUP3 MSTORE DUP6 DUP3 KECCAK256 SLOAD GT PUSH2 0x20B6 JUMPI PUSH1 0x1 SWAP2 POP PUSH2 0x2017 JUMP JUMPDEST SWAP1 PUSH1 0x40 MLOAD SWAP2 DUP3 DUP2 SLOAD SWAP2 DUP3 DUP3 MSTORE PUSH1 0x20 SWAP3 DUP4 DUP4 ADD SWAP2 PUSH1 0x0 MSTORE DUP4 PUSH1 0x0 KECCAK256 SWAP4 PUSH1 0x0 SWAP1 JUMPDEST DUP3 DUP3 LT PUSH2 0x211E JUMPI POP POP POP PUSH2 0x1AB3 SWAP3 POP SUB DUP4 PUSH2 0x17DF JUMP JUMPDEST DUP6 SLOAD DUP5 MSTORE PUSH1 0x1 SWAP6 DUP7 ADD SWAP6 DUP9 SWAP6 POP SWAP4 DUP2 ADD SWAP4 SWAP1 SWAP2 ADD SWAP1 PUSH2 0x2108 JUMP INVALID LOG2 PUSH5 0x6970667358 0x22 SLT KECCAK256 0xB6 0xDF GAS SELFBALANCE PREVRANDAO PUSH17 0x74C84B6AD3CAFAA8630DDA1B1BD2568CFC 0xB0 SWAP12 DUP7 SAR CALLDATASIZE PUSH30 0x86955F64736F6C6343000813003300000000000000000000000000000000 "},"methodIdentifiers":{"PRECISION()":"aaf5eb68","addRewardPool(uint256)":"bb16567c","baseRewardRate()":"afbf3440","calculatePendingRewards(address)":"097aad10","claimRewards()":"372500ab","dailyVolume(address,uint256)":"74c95081","gccResidents(address)":"e6359df5","getContractStats()":"dfe6b5d6","getTierInfo(uint8)":"7ed85ff3","getUserStakingInfo(address)":"80933608","lastVolumeUpdate(address)":"c3bec5c8","onERC1155BatchReceived(address,address,uint256[],uint256[],bytes)":"bc197c81","onERC1155Received(address,address,uint256,uint256,bytes)":"f23a6e61","owner()":"8da5cb5b","pause()":"8456cb59","paused()":"5c975abb","propertyToken()":"43ae2695","recordTradingVolume(address,uint256)":"7c6f7d32","renounceOwnership()":"715018a6","rewardDuration()":"f520e7e5","rewardPool()":"66666aa9","rewardToken()":"f7c618c1","setTokenPrice(uint256,uint256)":"eb685c47","setUAEResident(address,bool)":"c9c71a32","setUserEmirate(address,string)":"c729c9f3","stake(uint256[],uint256[])":"e683ad44","stakingInfo(address)":"94eecb50","tierConfigs(uint8)":"9da9db2a","tokenPrices(uint256)":"e5afe3e6","totalRewardsDistributed()":"ee172546","totalStaked()":"817b1cd2","transferOwnership(address)":"f2fde38b","uaeResidents(address)":"1a6c4ca1","unpause()":"3f4ba83a","unstake(uint256[],uint256[])":"b1adb083","updateTierConfig(uint8,uint256,uint256,uint256,bool)":"b8e69b4e","userEmirates(address)":"f89f57ed"}}}}}