{"contracts/UAE/UAECompliance.sol":{"UAECompliance":{"abi":[{"inputs":[],"stateMutability":"nonpayable","type":"constructor"},{"anonymous":false,"inputs":[{"indexed":true,"internalType":"address","name":"user","type":"address"},{"indexed":false,"internalType":"uint256","name":"propertyId","type":"uint256"},{"indexed":false,"internalType":"string","name":"reason","type":"string"}],"name":"ComplianceCheckFailed","type":"event"},{"anonymous":false,"inputs":[{"indexed":true,"internalType":"uint256","name":"propertyId","type":"uint256"},{"indexed":false,"internalType":"string","name":"titleDeedNumber","type":"string"},{"indexed":false,"internalType":"bool","name":"isRegistered","type":"bool"}],"name":"DLDComplianceUpdated","type":"event"},{"anonymous":false,"inputs":[{"indexed":true,"internalType":"address","name":"developer","type":"address"},{"indexed":false,"internalType":"bool","name":"verified","type":"bool"}],"name":"DeveloperVerified","type":"event"},{"anonymous":false,"inputs":[{"indexed":false,"internalType":"address","name":"account","type":"address"}],"name":"Paused","type":"event"},{"anonymous":false,"inputs":[{"indexed":true,"internalType":"uint256","name":"propertyId","type":"uint256"},{"indexed":false,"internalType":"string","name":"registrationNumber","type":"string"},{"indexed":false,"internalType":"bool","name":"isActive","type":"bool"}],"name":"RERAComplianceUpdated","type":"event"},{"anonymous":false,"inputs":[{"indexed":true,"internalType":"bytes32","name":"role","type":"bytes32"},{"indexed":true,"internalType":"bytes32","name":"previousAdminRole","type":"bytes32"},{"indexed":true,"internalType":"bytes32","name":"newAdminRole","type":"bytes32"}],"name":"RoleAdminChanged","type":"event"},{"anonymous":false,"inputs":[{"indexed":true,"internalType":"bytes32","name":"role","type":"bytes32"},{"indexed":true,"internalType":"address","name":"account","type":"address"},{"indexed":true,"internalType":"address","name":"sender","type":"address"}],"name":"RoleGranted","type":"event"},{"anonymous":false,"inputs":[{"indexed":true,"internalType":"bytes32","name":"role","type":"bytes32"},{"indexed":true,"internalType":"address","name":"account","type":"address"},{"indexed":true,"internalType":"address","name":"sender","type":"address"}],"name":"RoleRevoked","type":"event"},{"anonymous":false,"inputs":[{"indexed":false,"internalType":"address","name":"account","type":"address"}],"name":"Unpaused","type":"event"},{"anonymous":false,"inputs":[{"indexed":true,"internalType":"address","name":"user","type":"address"},{"indexed":false,"internalType":"enum UAECompliance.AMLRisk","name":"oldRisk","type":"uint8"},{"indexed":false,"internalType":"enum UAECompliance.AMLRisk","name":"newRisk","type":"uint8"}],"name":"UserAMLUpdated","type":"event"},{"anonymous":false,"inputs":[{"indexed":true,"internalType":"address","name":"user","type":"address"},{"indexed":false,"internalType":"enum UAECompliance.KYCLevel","name":"oldLevel","type":"uint8"},{"indexed":false,"internalType":"enum UAECompliance.KYCLevel","name":"newLevel","type":"uint8"}],"name":"UserKYCUpdated","type":"event"},{"inputs":[],"name":"AML_OFFICER_ROLE","outputs":[{"internalType":"bytes32","name":"","type":"bytes32"}],"stateMutability":"view","type":"function"},{"inputs":[],"name":"COMPLIANCE_OFFICER_ROLE","outputs":[{"internalType":"bytes32","name":"","type":"bytes32"}],"stateMutability":"view","type":"function"},{"inputs":[],"name":"DEFAULT_ADMIN_ROLE","outputs":[{"internalType":"bytes32","name":"","type":"bytes32"}],"stateMutability":"view","type":"function"},{"inputs":[],"name":"DLD_OFFICER_ROLE","outputs":[{"internalType":"bytes32","name":"","type":"bytes32"}],"stateMutability":"view","type":"function"},{"inputs":[],"name":"KYC_OFFICER_ROLE","outputs":[{"internalType":"bytes32","name":"","type":"bytes32"}],"stateMutability":"view","type":"function"},{"inputs":[],"name":"RERA_OFFICER_ROLE","outputs":[{"internalType":"bytes32","name":"","type":"bytes32"}],"stateMutability":"view","type":"function"},{"inputs":[{"internalType":"enum UAECompliance.AMLRisk","name":"","type":"uint8"}],"name":"allowedInvestmentRisk","outputs":[{"internalType":"bool","name":"","type":"bool"}],"stateMutability":"view","type":"function"},{"inputs":[{"internalType":"address","name":"","type":"address"}],"name":"authorizedAgents","outputs":[{"internalType":"bool","name":"","type":"bool"}],"stateMutability":"view","type":"function"},{"inputs":[{"internalType":"uint256","name":"propertyId","type":"uint256"}],"name":"checkDLDCompliance","outputs":[{"internalType":"bool","name":"isCompliant","type":"bool"}],"stateMutability":"view","type":"function"},{"inputs":[{"internalType":"uint256","name":"propertyId","type":"uint256"}],"name":"checkRERACompliance","outputs":[{"internalType":"bool","name":"isCompliant","type":"bool"}],"stateMutability":"view","type":"function"},{"inputs":[{"internalType":"address","name":"user","type":"address"}],"name":"checkUserAML","outputs":[{"internalType":"bool","name":"isAcceptable","type":"bool"},{"internalType":"enum UAECompliance.AMLRisk","name":"risk","type":"uint8"}],"stateMutability":"view","type":"function"},{"inputs":[{"internalType":"address","name":"user","type":"address"}],"name":"checkUserKYC","outputs":[{"internalType":"bool","name":"isValid","type":"bool"},{"internalType":"enum UAECompliance.KYCLevel","name":"level","type":"uint8"}],"stateMutability":"view","type":"function"},{"inputs":[{"internalType":"uint256","name":"","type":"uint256"}],"name":"dldCompliance","outputs":[{"internalType":"string","name":"titleDeedNumber","type":"string"},{"internalType":"string","name":"plotNumber","type":"string"},{"internalType":"string","name":"district","type":"string"},{"internalType":"bool","name":"isRegistered","type":"bool"},{"internalType":"uint256","name":"registrationDate","type":"uint256"},{"internalType":"uint256","name":"lastUpdated","type":"uint256"}],"stateMutability":"view","type":"function"},{"inputs":[{"internalType":"string","name":"","type":"string"}],"name":"dldToPropertyId","outputs":[{"internalType":"uint256","name":"","type":"uint256"}],"stateMutability":"view","type":"function"},{"inputs":[{"internalType":"uint256","name":"propertyId","type":"uint256"}],"name":"getPropertyComplianceSummary","outputs":[{"internalType":"bool","name":"reraCompliant","type":"bool"},{"internalType":"bool","name":"dldCompliant","type":"bool"},{"internalType":"string","name":"reraNumber","type":"string"},{"internalType":"string","name":"dldNumber","type":"string"},{"internalType":"address","name":"developer","type":"address"}],"stateMutability":"view","type":"function"},{"inputs":[{"internalType":"bytes32","name":"role","type":"bytes32"}],"name":"getRoleAdmin","outputs":[{"internalType":"bytes32","name":"","type":"bytes32"}],"stateMutability":"view","type":"function"},{"inputs":[{"internalType":"address","name":"user","type":"address"}],"name":"getUserComplianceSummary","outputs":[{"internalType":"enum UAECompliance.KYCLevel","name":"kycLevel","type":"uint8"},{"internalType":"enum UAECompliance.AMLRisk","name":"amlRisk","type":"uint8"},{"internalType":"bool","name":"isApproved","type":"bool"},{"internalType":"uint256","name":"maxInvestment","type":"uint256"},{"internalType":"string","name":"emirate","type":"string"},{"internalType":"bool","name":"isUAEResident","type":"bool"}],"stateMutability":"view","type":"function"},{"inputs":[{"internalType":"bytes32","name":"role","type":"bytes32"},{"internalType":"address","name":"account","type":"address"}],"name":"grantRole","outputs":[],"stateMutability":"nonpayable","type":"function"},{"inputs":[{"internalType":"address","name":"user","type":"address"},{"internalType":"enum UAECompliance.KYCLevel","name":"requiredLevel","type":"uint8"}],"name":"hasRequiredDocuments","outputs":[{"internalType":"bool","name":"hasAll","type":"bool"}],"stateMutability":"view","type":"function"},{"inputs":[{"internalType":"bytes32","name":"role","type":"bytes32"},{"internalType":"address","name":"account","type":"address"}],"name":"hasRole","outputs":[{"internalType":"bool","name":"","type":"bool"}],"stateMutability":"view","type":"function"},{"inputs":[{"internalType":"address","name":"developer","type":"address"}],"name":"isDeveloperVerified","outputs":[{"internalType":"bool","name":"","type":"bool"}],"stateMutability":"view","type":"function"},{"inputs":[{"internalType":"enum UAECompliance.KYCLevel","name":"","type":"uint8"}],"name":"maxInvestmentLimits","outputs":[{"internalType":"uint256","name":"","type":"uint256"}],"stateMutability":"view","type":"function"},{"inputs":[],"name":"pause","outputs":[],"stateMutability":"nonpayable","type":"function"},{"inputs":[],"name":"paused","outputs":[{"internalType":"bool","name":"","type":"bool"}],"stateMutability":"view","type":"function"},{"inputs":[{"internalType":"bytes32","name":"role","type":"bytes32"},{"internalType":"address","name":"account","type":"address"}],"name":"renounceRole","outputs":[],"stateMutability":"nonpayable","type":"function"},{"inputs":[{"internalType":"enum UAECompliance.KYCLevel","name":"","type":"uint8"},{"internalType":"uint256","name":"","type":"uint256"}],"name":"requiredDocuments","outputs":[{"internalType":"string","name":"","type":"string"}],"stateMutability":"view","type":"function"},{"inputs":[{"internalType":"uint256","name":"","type":"uint256"}],"name":"reraCompliance","outputs":[{"internalType":"string","name":"registrationNumber","type":"string"},{"internalType":"uint256","name":"expiryDate","type":"uint256"},{"internalType":"bool","name":"isActive","type":"bool"},{"internalType":"string","name":"projectType","type":"string"},{"internalType":"address","name":"developer","type":"address"},{"internalType":"uint256","name":"lastUpdated","type":"uint256"}],"stateMutability":"view","type":"function"},{"inputs":[{"internalType":"string","name":"","type":"string"}],"name":"reraToPropertyId","outputs":[{"internalType":"uint256","name":"","type":"uint256"}],"stateMutability":"view","type":"function"},{"inputs":[{"internalType":"bytes32","name":"role","type":"bytes32"},{"internalType":"address","name":"account","type":"address"}],"name":"revokeRole","outputs":[],"stateMutability":"nonpayable","type":"function"},{"inputs":[{"internalType":"enum UAECompliance.AMLRisk","name":"risk","type":"uint8"},{"internalType":"bool","name":"allowed","type":"bool"}],"name":"setAMLRiskAllowance","outputs":[],"stateMutability":"nonpayable","type":"function"},{"inputs":[{"internalType":"enum UAECompliance.KYCLevel","name":"level","type":"uint8"},{"internalType":"uint256","name":"limit","type":"uint256"}],"name":"setInvestmentLimit","outputs":[],"stateMutability":"nonpayable","type":"function"},{"inputs":[{"internalType":"enum UAECompliance.KYCLevel","name":"level","type":"uint8"},{"internalType":"string[]","name":"documents","type":"string[]"}],"name":"setRequiredDocuments","outputs":[],"stateMutability":"nonpayable","type":"function"},{"inputs":[{"internalType":"address","name":"user","type":"address"},{"internalType":"string","name":"documentType","type":"string"},{"internalType":"bool","name":"isValid","type":"bool"}],"name":"submitDocument","outputs":[],"stateMutability":"nonpayable","type":"function"},{"inputs":[{"internalType":"bytes4","name":"interfaceId","type":"bytes4"}],"name":"supportsInterface","outputs":[{"internalType":"bool","name":"","type":"bool"}],"stateMutability":"view","type":"function"},{"inputs":[],"name":"unpause","outputs":[],"stateMutability":"nonpayable","type":"function"},{"inputs":[{"internalType":"uint256","name":"propertyId","type":"uint256"},{"internalType":"string","name":"titleDeedNumber","type":"string"},{"internalType":"string","name":"plotNumber","type":"string"},{"internalType":"string","name":"district","type":"string"},{"internalType":"bool","name":"isRegistered","type":"bool"}],"name":"updateDLDCompliance","outputs":[],"stateMutability":"nonpayable","type":"function"},{"inputs":[{"internalType":"uint256","name":"propertyId","type":"uint256"},{"internalType":"string","name":"registrationNumber","type":"string"},{"internalType":"uint256","name":"expiryDate","type":"uint256"},{"internalType":"bool","name":"isActive","type":"bool"},{"internalType":"string","name":"projectType","type":"string"},{"internalType":"address","name":"developer","type":"address"}],"name":"updateRERACompliance","outputs":[],"stateMutability":"nonpayable","type":"function"},{"inputs":[{"internalType":"address","name":"user","type":"address"},{"internalType":"enum UAECompliance.AMLRisk","name":"newRisk","type":"uint8"}],"name":"updateUserAML","outputs":[],"stateMutability":"nonpayable","type":"function"},{"inputs":[{"internalType":"address","name":"user","type":"address"},{"internalType":"enum UAECompliance.KYCLevel","name":"newLevel","type":"uint8"},{"internalType":"uint256","name":"expiryDate","type":"uint256"},{"internalType":"string","name":"emirate","type":"string"},{"internalType":"bool","name":"isUAEResident","type":"bool"},{"internalType":"bool","name":"isGCCResident","type":"bool"}],"name":"updateUserKYC","outputs":[],"stateMutability":"nonpayable","type":"function"},{"inputs":[{"internalType":"address","name":"","type":"address"}],"name":"userCompliance","outputs":[{"internalType":"enum UAECompliance.KYCLevel","name":"kycLevel","type":"uint8"},{"internalType":"enum UAECompliance.AMLRisk","name":"amlRisk","type":"uint8"},{"internalType":"bool","name":"isApproved","type":"bool"},{"internalType":"uint256","name":"approvalDate","type":"uint256"},{"internalType":"uint256","name":"expiryDate","type":"uint256"},{"internalType":"string","name":"emirate","type":"string"},{"internalType":"bool","name":"isUAEResident","type":"bool"},{"internalType":"bool","name":"isGCCResident","type":"bool"}],"stateMutability":"view","type":"function"},{"inputs":[{"internalType":"address","name":"user","type":"address"},{"internalType":"uint256","name":"propertyId","type":"uint256"},{"internalType":"uint256","name":"amount","type":"uint256"}],"name":"validateInvestment","outputs":[{"internalType":"bool","name":"isValid","type":"bool"},{"internalType":"string","name":"reason","type":"string"}],"stateMutability":"view","type":"function"},{"inputs":[{"internalType":"address","name":"","type":"address"}],"name":"verifiedDevelopers","outputs":[{"internalType":"bool","name":"","type":"bool"}],"stateMutability":"view","type":"function"},{"inputs":[{"internalType":"address","name":"developer","type":"address"},{"internalType":"bool","name":"verified","type":"bool"}],"name":"verifyDeveloper","outputs":[],"stateMutability":"nonpayable","type":"function"}],"evm":{"bytecode":{"linkReferences":{},"object":"6080604081815234620003435760ff1990600182815416815580600255600090818052600b6020838152848420338552815260ff808686205416156200030e575b7f83097fbfefd57fd31b39e2b5622f6a89d5f8c72f2c7fe78c26fdc120439eeb14808652858352868620338752835281878720541615620002d7575b507f869df3e22669c0d567ebd79e1befeae64ecbb3c33f68ecddbbc743b56d783e69808652858352868620338752835281878720541615620002a0575b507fb6f0283bd1ed00c6aa7e988a7516070240f3610a34d167391359b648eb37cefc80865285835286862033875283528187872054161562000269575b507f7f7f429094c37ff5c03b15f8faecf765516b1b4447846a09d1108959da23663b80865285835286862033875283528187872054161562000232575b507f0a74a1da23c8f1860390394f1186574990fff4ebb068f1afd56911d72636b3e4908186528583528686203387528352868620541615620001fb575b50828452600a8152690a968163f0a57b40000085852055600284526969e10de76676d080000085852055600384526a01a784379d99db4200000085852055600484526000198585205583805252828220818582541617905580825282822090848254161790556002815281812083815416905560038152209081541690556131359081620003498239f35b80855284825285852033865282528585208488825416179055339033906000805160206200347e8339815191528780a43862000170565b80865285835286862033875283528686208589825416179055339033906000805160206200347e8339815191528880a43862000133565b80865285835286862033875283528686208589825416179055339033906000805160206200347e8339815191528880a438620000f6565b80865285835286862033875283528686208589825416179055339033906000805160206200347e8339815191528880a438620000b9565b80865285835286862033875283528686208589825416179055339033906000805160206200347e8339815191528880a4386200007c565b848052848252858520338652825285852084888254161790553333866000805160206200347e8339815191528180a462000040565b600080fdfe608080604052600436101561001357600080fd5b600090813560e01c90816301ffc9a7146120bd575080630e9fdfbc14611f00578063198596b514611ec55780631dcf55b114611e8d5780631f89d6e514611e5b578063248a9ca314611e2f578063285d6f2914611de55780632f2ff15d14611d3757806336568abe14611ca45780633d9fbf9214611a335780633f4ba83a1461199e57806347a1aa76146119635780634a877973146116c8578063522f39061461165457806359746b2a146116175780635c975abb146115f457806366728c981461153b5780636850dede146114f15780636af4c0e8146114885780636d93677c1461036357806377e219c4146113e65780637d3cc6cf1461138a5780637dc1aac114610d1c57806381b829ab14610c765780638456cb5914610be257806391d1485414610b9a578063a217fddf14610b7e578063a2e0630314610b31578063adfe3b0114610ab3578063b49698a614610a80578063d2299c4914610a23578063d547741f146109e6578063dbe83777146109c1578063e1ac85ff14610902578063e5ec37ab146108c7578063e61fc7ce1461088c578063e69c368e1461073d578063ed5a8cd2146103a2578063ed79bae414610363578063edb40fdf14610310578063efd76065146102d1578063f288e1fd146102965763f41d07b8146101fa57600080fd5b3461029357602036600319011261029357604061026a91600435815260036020522061022581612285565b90600181015461028460ff6002840154169161024360038501612285565b600560018060a01b036004870154169501549360405197889760c0895260c089019061234e565b92602088015215156040870152858203606087015261234e565b91608084015260a08301520390f35b80fd5b503461029357806003193601126102935760206040517f0a74a1da23c8f1860390394f1186574990fff4ebb068f1afd56911d72636b3e48152f35b50346102935760203660031901126102935760209060ff906040906001600160a01b036102fc612112565b168152600984522054166040519015158152f35b503461029357604036600319011261029357600435600481101561035f5761035c9061034b61033d6123d8565b91610346612738565b612143565b9060ff801983541691151516179055565b80f35b5080fd5b50346102935760203660031901126102935760209060ff906040906001600160a01b0361038e612112565b168152600884522054166040519015158152f35b50346102935760c0366003190112610293576001600160401b03602435818111610739576103d4903690600401612373565b9060643515156064350361073957608435818111610735576103fa903690600401612373565b60a435906001600160a01b038216820361073157610416612871565b6104236004351515612c51565b8351156106ec576104374260443511612c93565b600435855260036020526040852092845181811161063b5761045985546121c3565b601f81116106bc575b50806020601f821160011461065a57889161064f575b508160011b916000199060031b1c19161784555b600191604435838601556104b1606435600287019060ff801983541691151516179055565b805191821161063b576104c760038601546121c3565b601f81116105fd575b50602090601f831160011461059657928293918392899461058b575b50501b916000199060031b1c19161760038301555b6004820180546001600160a01b0319166001600160a01b0390921691909117905542600590910155604051815161053c81836020860161232b565b810190600582526020816004359303019020557fccbc848a488121a945c48cfc4619f01f6e88a8269333d269d9f5df30e9b7e4d360405180610585600435946064359083612cf6565b0390a280f35b0151925038806104ec565b906003860188526020882091885b85601f19861682106105e757505083601f198116106105ce575b505050811b016003830155610501565b015160001960f88460031b161c191690553880806105be565b82840151855590930192602092830192016105a4565b61062b9060038701895260208920601f850160051c81019160208610610631575b601f0160051c0190612cdf565b386104d0565b909150819061061e565b634e487b7160e01b87526041600452602487fd5b905086015138610478565b868952602089209150601f198316895b8181106106a45750908360019493921061068b575b5050811b01845561048c565b88015160001960f88460031b161c19169055388061067f565b9192602060018192868d01518155019401920161066a565b6106e69086895260208920601f840160051c8101916020851061063157601f0160051c0190612cdf565b38610462565b60405162461bcd60e51b815260206004820152601b60248201527f496e76616c696420726567697374726174696f6e206e756d62657200000000006044820152606490fd5b8480fd5b8380fd5b8280fd5b50346102935760209081600319360112610293576004359081815260038352604081206040519161076d836121fd565b61077682612285565b8352600182015493858401948552604060ff6002850154169281860193151584526107a360038601612285565b606087015260018060a01b03926005846004880154169660808901978852015460a08801528152600488522093604051926107dd846121fd565b6107e686612285565b84526107f460018701612285565b8885015261080460028701612285565b6040850152600560ff60038801541615159687606087015260048101546080870152015460a0850152511515958661087f575b5091610867916108759493519151935116946040519788971515885287015260a0604087015260a086019061234e565b90848203606086015261234e565b9060808301520390f35b5142109550610867610837565b503461029357806003193601126102935760206040517f7f7f429094c37ff5c03b15f8faecf765516b1b4447846a09d1108959da23663b8152f35b503461029357806003193601126102935760206040517f869df3e22669c0d567ebd79e1befeae64ecbb3c33f68ecddbbc743b56d783e698152f35b50346102935760203660031901126102935761097b906040906001600160a01b0361092b612112565b1681526007602052208054906109a860ff83169260ff8160101c16806109b4575b610955856121aa565b549061098b61096e600360ff6004890154169701612285565b93604051988980996123fe565b60ff602089019160081c1661240b565b15156040860152606085015260c0608085015260c084019061234e565b90151560a08301520390f35b506002830154421061094c565b5034610293576109e26109d336612172565b91906109dd612738565b6121aa565b5580f35b50346102935760403660031901126102935761035c600435610a0661212d565b9080845283602052610a1e60016040862001546129aa565b612aa8565b503461029357602036600319011261029357600435906001600160401b038211610293576020610a6d81610a5a3660048701612373565b816040519382858094519384920161232b565b8101600581520301902054604051908152f35b503461029357602036600319011261029357600435906005821015610293576020610aaa836121aa565b54604051908152f35b503461029357604036600319011261029357610acd612112565b7fbe58c2037618fee881131be26473e2181da84864882ba3837538a236fef6d7f46020610af86123d8565b92610b01612871565b6001600160a01b03168085526008825260408520805460ff191660ff86151516179055926040519015158152a280f35b503461029357606036600319011261029357610b5b610b4e612112565b6044359060243590612d71565b90610b7a6040519283921515835260406020840152604083019061234e565b0390f35b5034610293578060031936011261029357602090604051908152f35b50346102935760403660031901126102935760ff6040602092610bbb61212d565b60043582528185528282206001600160a01b03909116825284522054604051911615158152f35b5034610293578060031936011261029357610bfb612620565b60015460ff8116610c3e5760019060ff1916176001557f62e78cea01bee320cd4e420270b5ea74000d11b0c9f74754ebdbfc544b05a2586020604051338152a180f35b60405162461bcd60e51b815260206004820152601060248201526f14185d5cd8589b194e881c185d5cd95960821b6044820152606490fd5b5034610293576020366003190112610293576040610cea916004358152600460205220610ca281612285565b90610caf60018201612285565b610cbb60028301612285565b91610d0660ff60038301541693610cf8600560048501549401549460405198899860c08a5260c08a019061234e565b9088820360208a015261234e565b90868203604088015261234e565b9215156060850152608084015260a08301520390f35b50346102935760a0366003190112610293576024906004356001600160401b03833581811161073557610d53903690600401612373565b9060443581811161073157610d6c903690600401612373565b9160643582811161138657610d85903690600401612373565b610d8d6123c9565b927f869df3e22669c0d567ebd79e1befeae64ecbb3c33f68ecddbbc743b56d783e699182885260209288845260408920338a52845260ff60408a205416156111c65750610ddb871515612c51565b83511561118257868852600483526040882091845181811161116f57610e0184546121c3565b90601f91828111611143575b5080868382116001146110e1578c916110d6575b508160011b916000199060031b1c19161784555b600197888501908051908c8583116110c3578291610e5385546121c3565b8a878211611096575b5050899186841160011461102e5792611023575b5050600019600383901b1c1916908a1b1790555b6002840192805192831161101057908392918b610ea48c989796546121c3565b87848211610fda575b5050508b86928411600114610f58577f6b5d92daf0275bdadf1718a3fe7fb9c59c288085c15d2671cf99f8577d9a13059a9092849283610f4d575b50501b916000199060031b1c19161790555b610f1385600383019060ff801983541691151516179055565b42600482015560054291015560405190818451610f33818385890161232b565b810160068152030190205561058560405192839283612cf6565b015192508d80610ee8565b50838c52858c20601f1984169a939290918d5b8c8110610fc25750837f6b5d92daf0275bdadf1718a3fe7fb9c59c288085c15d2671cf99f8577d9a13059c10610fa9575b505050811b019055610efa565b015160001960f88460031b161c191690558b8080610f9c565b8183015184558d995092850192918801918801610f6b565b8287610fff9452208480870160051c8201928a8810611007575b0160051c0190612cdf565b8b8d87610ead565b92508192610ff4565b634e487b7160e01b8b5260416004528b8bfd5b015190503880610e70565b91908d9450601f1984168684528b8420935b8c828210611077575050841161105e575b505050811b019055610e84565b015160001960f88460031b161c19169055388080611051565b91929395968291958786015181550195019301908e9594939291611040565b6110bc91878552888286209181880160051c8301938810611007570160051c0190612cdf565b388a610e5c565b634e487b7160e01b815260416004528e90fd5b905087015138610e21565b868d52878d209150601f1983168d5b898b83831061112e575050509083600194939210611115575b5050811b018455610e35565b89015160001960f88460031b161c191690553880611109565b840151855560019094019392830192016110f0565b61116990868d52878d208480850160051c8201928a8610611007570160051c0190612cdf565b38610e0d565b634e487b7160e01b8a5260416004528a8afd5b60405162461bcd60e51b8152600481018490526019818b01527f496e76616c6964207469746c652064656564206e756d626572000000000000006044820152606490fd5b838a918a6111d333612b43565b91604051906111e182612249565b6042825284820192606036853782511561137357603084538251906001918210156113605790607860218501536041915b8183116112f4575050506112b25760486112ae9361128393611292936040519586936000805160206130e08339815191528a86015261125a815180928c60378901910161232b565b8401917001034b99036b4b9b9b4b733903937b6329607d1b60378401525180938684019061232b565b01036028810184520182612264565b60405193849362461bcd60e51b8552600485015283019061234e565b0390fd5b606485856040519162461bcd60e51b83528160048401528201527f537472696e67733a20686578206c656e67746820696e73756666696369656e746044820152fd5b909192600f8116601081101561134d576f181899199a1a9b1b9c1cb0b131b232b360811b901a6113248587612b1c565b5360041c92801561133a57600019019190611212565b634e487b7160e01b825260116004528882fd5b634e487b7160e01b835260326004528983fd5b634e487b7160e01b815260326004528790fd5b634e487b7160e01b815260326004528690fd5b8580fd5b50346102935760203660031901126102935760409060ff9082906001600160a01b036113b4612112565b1681526007602052205460081c166113e460ff6113d083612143565b54169183519215158352602083019061240b565bf35b50346102935760203660031901126102935760406020916004358152600383522060405190611414826121fd565b61141d81612285565b825260018101549183810192835260a0600560ff6002850154169360408401941515855261144d60038201612285565b6060850152600180841b0360048201541660808501520154910152511515908161147d575b506040519015158152f35b905051421038611472565b50346102935760203660031901126102935760409081906001600160a01b036114af612112565b168152600760205220805460ff8160101c1691826114e1575b506113e4908351921515835260ff6020840191166123fe565b60020154421091506113e46114c8565b503461029357602036600319011261029357600435906001600160401b03821161029357602061152881610a5a3660048701612373565b8101600681520301902054604051908152f35b50346102935760203660031901126102935760ff906040906001600160a01b03611563612112565b168152600760205220805490826115da6001830154926002810154600461158c60038401612285565b9201549460405197876115a28a83819b166123fe565b6115b460208a01838360081c1661240b565b60101c1615156040880152606087015260808601526101008060a087015285019061234e565b91818116151560c085015260081c16151560e08301520390f35b5034610293578060031936011261029357602060ff600154166040519015158152f35b503461029357604036600319011261029357611631612112565b60243591600583101561029357602061164a8484612fff565b6040519015158152f35b50346102935760603660031901126102935761166e612112565b6024356001600160401b0381116107395761168d903690600401612373565b906044359081151582036107355761035c9261034b916116ab61243e565b6001600160a01b0316855260076020526040852060050190612418565b503461029357604036600319011261029357600435600580821015610739576024918235906001600160401b03808311611386573660238401121561138657826004013593611716856123e7565b926117246040519485612264565b858452602094858501888198851b8301019136831161195f57898101915b838310611935575050505061175e90611759612738565b612191565b9251946801000000000000000086116119225783548685558087106118b4575b50959287528387209287965b868810611795578880f35b80518051908582116118a1579087916117ae88546121c3565b908c601f928584821161186d575b5050508c849284116001146118065792600195928192879695926117fb575b5050600019600383901b1c191690841b1788555b0195019701969361178a565b0151905038806117db565b9190601f1984168a8452858420935b818110611855575091600196939185889796941061183c575b505050831b830188556117ef565b015160001960f88460031b161c1916905538808061182e565b8284015185558c966001909501949384019301611815565b828c611890945220848087018b1c820192888810611898575b018a1c0190612cdf565b8c38856117bc565b92508192611886565b634e487b7160e01b8b526041600452838bfd5b84895286868a2091820191015b8181106118ce575061177e565b808a6118dc600193546121c3565b806118ea575b5050016118c1565b601f808211851461190157505081555b8a386118e2565b611919908484528b84209201881c8201858301612cdf565b818355556118fa565b634e487b7160e01b885260416004528688fd5b823587811161195b57899161195083928e3691870101612373565b815201920191611742565b8c80fd5b8a80fd5b503461029357806003193601126102935760206040517f83097fbfefd57fd31b39e2b5622f6a89d5f8c72f2c7fe78c26fdc120439eeb148152f35b50346102935780600319360112610293576119b7612620565b60015460ff8116156119f75760ff19166001557f5db9ee0a495bf2e6ff9c91a7834c1ba4fdd244a5e8aa4e537bd38aeae4b073aa6020604051338152a180f35b60405162461bcd60e51b815260206004820152601460248201527314185d5cd8589b194e881b9bdd081c185d5cd95960621b6044820152606490fd5b50346102935760c036600319011261029357611a4d612112565b6024356005811015610739576001600160401b0360443560643582811161138657611a7c903690600401612373565b91611a856123c9565b60a43595861515809703611ca057611a9b61243e565b6001600160a01b031695611ab0871515612d16565b611abb428511612c93565b86885260209460078652604089209384549560ff891660ff1988161786556001904282880155600287015560038601928051928311611c8c578b611aff85546121c3565b8a601f8211611c5e575b50505088908c601f8511600114611bca5794848060ff9b96611bbb9b967f654640683b25f49efde9faeb5740fd5d756ceead1f5f9d22b410e344013be89c9f9b9660409f9b96611bb39b94611bbf575b50501b916000199060031b1c19161790555b611b856004840192839060ff801983541691151516179055565b815461ff00191660089190911b61ff0016179055805462ff00001916620100001790558651958691166123fe565b8301906123fe565ba280f35b015192503880611b59565b9190601f9493941984168684528b8420935b818110611c49575094847f654640683b25f49efde9faeb5740fd5d756ceead1f5f9d22b410e344013be89c9d999460409d9994611bb39994611bbb9d9860ff9f9a10611c30575b505050811b019055611b6b565b015160001960f88460031b161c19169055388080611c23565b82840151855593860193928c01928c01611bdc565b8287611c84945220601f860160051c8101918c871061063157601f0160051c0190612cdf565b8b388a611b09565b634e487b7160e01b8c52604160045260248cfd5b8780fd5b503461029357604036600319011261029357611cbe61212d565b336001600160a01b03821603611cda5761035c90600435612aa8565b60405162461bcd60e51b815260206004820152602f60248201527f416363657373436f6e74726f6c3a2063616e206f6e6c792072656e6f756e636560448201526e103937b632b9903337b91039b2b63360891b6064820152608490fd5b503461029357604036600319011261029357600435611d5461212d565b81835282602052611d6b60016040852001546129aa565b818352602083815260408085206001600160a01b039093168086529290915283205460ff1615611d99578280f35b818352826020526040832081845260205260408320600160ff1982541617905533917f2f8788117e7eff1d82e926ec794901d17c78024a50270940304540a733656f0d8480a438808280f35b503461029357611dfe611df736612172565b9190612191565b80548210156107395790602083611e1b93610b7a95522001612285565b60405191829160208352602083019061234e565b503461029357602036600319011261029357600160406020926004358152808452200154604051908152f35b50346102935760203660031901126102935760ff60036040602093600435815260048552200154166040519015158152f35b50346102935760203660031901126102935760043590600482101561029357602060ff611eb984612143565b54166040519015158152f35b503461029357806003193601126102935760206040517fb6f0283bd1ed00c6aa7e988a7516070240f3610a34d167391359b648eb37cefc8152f35b503461029357604036600319011261029357611f1a612112565b6024908135906004821015610735577f0a74a1da23c8f1860390394f1186574990fff4ebb068f1afd56911d72636b3e49283855260209385855260408620338752855260ff60408720541615611fe45750506001600160a01b0316917f5d2703bef49435c353cbfa5e5412c9f40584e6174ce00e4e425f68364daad5349160409160ff91611bbb91611fad871515612d16565b86885260078152611fdc85892080549061ff008560081b1661ff00198316179055865195869160081c1661240b565b83019061240b565b849086611ff033612b43565b9160405190611ffe82612249565b6042825284820192606036853782511561137357603084538251906001918210156113605790607860218501536041915b818311612077575050506112b25760486112ae9361128393611292936040519586936000805160206130e08339815191528a86015261125a815180928c60378901910161232b565b909192600f8116601081101561134d576f181899199a1a9b1b9c1cb0b131b232b360811b901a6120a78587612b1c565b5360041c92801561133a5760001901919061202f565b90503461035f57602036600319011261035f5760043563ffffffff60e01b81168091036107395760209250637965db0b60e01b8114908115612101575b5015158152f35b6301ffc9a760e01b149050386120fa565b600435906001600160a01b038216820361212857565b600080fd5b602435906001600160a01b038216820361212857565b600481101561215c57600052600b602052604060002090565b634e487b7160e01b600052602160045260246000fd5b6040906003190112612128576004356005811015612128579060243590565b600581101561215c57600052600c602052604060002090565b600581101561215c57600052600a602052604060002090565b90600182811c921680156121f3575b60208310146121dd57565b634e487b7160e01b600052602260045260246000fd5b91607f16916121d2565b60c081019081106001600160401b0382111761221857604052565b634e487b7160e01b600052604160045260246000fd5b604081019081106001600160401b0382111761221857604052565b608081019081106001600160401b0382111761221857604052565b90601f801991011681019081106001600160401b0382111761221857604052565b9060405191826000825492612299846121c3565b90818452600194858116908160001461230857506001146122c5575b50506122c392500383612264565b565b9093915060005260209081600020936000915b8183106122f05750506122c3935082010138806122b5565b855488840185015294850194879450918301916122d8565b9150506122c394506020925060ff191682840152151560051b82010138806122b5565b60005b83811061233e5750506000910152565b818101518382015260200161232e565b906020916123678151809281855285808601910161232b565b601f01601f1916010190565b81601f82011215612128578035906001600160401b03821161221857604051926123a7601f8401601f191660200185612264565b8284526020838301011161212857816000926020809301838601378301015290565b60843590811515820361212857565b60243590811515820361212857565b6001600160401b0381116122185760051b60200190565b90600582101561215c5752565b90600482101561215c5752565b60209061243292826040519483868095519384920161232b565b82019081520301902090565b3360009081527f166bd8d584f780704d1c153d47707b580c8e4d76b4d9a1cb29bc71795107d628602090815260408083205490927f7f7f429094c37ff5c03b15f8faecf765516b1b4447846a09d1108959da23663b9160ff16156124a25750505050565b6124ab33612b43565b918451906124b882612249565b6042825284820192606036853782511561260c576030845382519060019182101561260c5790607860218501536041915b81831161259e5750505061255c5760486112ae9386936125409361253198519889936000805160206130e08339815191528a86015261125a815180928c60378901910161232b565b01036028810187520185612264565b5192839262461bcd60e51b84526004840152602483019061234e565b60648486519062461bcd60e51b825280600483015260248201527f537472696e67733a20686578206c656e67746820696e73756666696369656e746044820152fd5b909192600f811660108110156125f8576f181899199a1a9b1b9c1cb0b131b232b360811b901a6125ce8587612b1c565b5360041c9280156125e4576000190191906124e9565b634e487b7160e01b82526011600452602482fd5b634e487b7160e01b83526032600452602483fd5b634e487b7160e01b81526032600452602490fd5b3360009081527fad3228b676f7d3cd4284a5443f17f1962b36e491b30a40b2405849e597ba5fb5602090815260408083205490929060ff161561266257505050565b61266b33612b43565b908084519061267982612249565b6042825284820192606036853782511561260c576030845382519060019182101561260c5790607860218501536041915b8183116126f25750505061255c5760486112ae9386936125409361253198519889936000805160206130e08339815191528a86015261125a815180928c60378901910161232b565b909192600f811660108110156125f8576f181899199a1a9b1b9c1cb0b131b232b360811b901a6127228587612b1c565b5360041c9280156125e4576000190191906126aa565b3360009081527f3a23f3a59d99cc05771291f7d14db8dc89910c5edd6302658701a433d05c7fc0602090815260408083205490927fb6f0283bd1ed00c6aa7e988a7516070240f3610a34d167391359b648eb37cefc9160ff161561279c5750505050565b6127a533612b43565b918451906127b282612249565b6042825284820192606036853782511561260c576030845382519060019182101561260c5790607860218501536041915b81831161282b5750505061255c5760486112ae9386936125409361253198519889936000805160206130e08339815191528a86015261125a815180928c60378901910161232b565b909192600f811660108110156125f8576f181899199a1a9b1b9c1cb0b131b232b360811b901a61285b8587612b1c565b5360041c9280156125e4576000190191906127e3565b3360009081527f40b1bd9cd7f4daa903acd4708b5ec90113ab5df409de851f4494e939d248f64e602090815260408083205490927f83097fbfefd57fd31b39e2b5622f6a89d5f8c72f2c7fe78c26fdc120439eeb149160ff16156128d55750505050565b6128de33612b43565b918451906128eb82612249565b6042825284820192606036853782511561260c576030845382519060019182101561260c5790607860218501536041915b8183116129645750505061255c5760486112ae9386936125409361253198519889936000805160206130e08339815191528a86015261125a815180928c60378901910161232b565b909192600f811660108110156125f8576f181899199a1a9b1b9c1cb0b131b232b360811b901a6129948587612b1c565b5360041c9280156125e45760001901919061291c565b600090808252602090828252604092838120338252835260ff8482205416156129d35750505050565b6129dc33612b43565b918451906129e982612249565b6042825284820192606036853782511561260c576030845382519060019182101561260c5790607860218501536041915b818311612a625750505061255c5760486112ae9386936125409361253198519889936000805160206130e08339815191528a86015261125a815180928c60378901910161232b565b909192600f811660108110156125f8576f181899199a1a9b1b9c1cb0b131b232b360811b901a612a928587612b1c565b5360041c9280156125e457600019019190612a1a565b9060009180835282602052604083209160018060a01b03169182845260205260ff604084205416612ad857505050565b80835282602052604083208284526020526040832060ff1981541690557ff6391f5c32d9c69d2a47ea670b442974b53935d1edc7fd64eb21e047a839171b339380a4565b908151811015612b2d570160200190565b634e487b7160e01b600052603260045260246000fd5b60405190606082018281106001600160401b0382111761221857604052602a8252602082016040368237825115612b2d57603090538151600190811015612b2d57607860218401536029905b808211612be3575050612b9f5790565b606460405162461bcd60e51b815260206004820152602060248201527f537472696e67733a20686578206c656e67746820696e73756666696369656e746044820152fd5b9091600f81166010811015612c3c576f181899199a1a9b1b9c1cb0b131b232b360811b901a612c128486612b1c565b5360041c918015612c27576000190190612b8f565b60246000634e487b7160e01b81526011600452fd5b60246000634e487b7160e01b81526032600452fd5b15612c5857565b60405162461bcd60e51b8152602060048201526013602482015272125b9d985b1a59081c1c9bdc195c9d1e481251606a1b6044820152606490fd5b15612c9a57565b60405162461bcd60e51b815260206004820152601d60248201527f4578706972792064617465206d75737420626520696e206675747572650000006044820152606490fd5b818110612cea575050565b60008155600101612cdf565b90612d0e60209194939460408452604084019061234e565b931515910152565b15612d1d57565b60405162461bcd60e51b8152602060048201526014602482015273496e76616c69642075736572206164647265737360601b6044820152606490fd5b90816020910312612128575180151581036121285790565b9291604093845192631df8867160e21b84528060048501526020938481602481305afa908115612ff457600091612fd7575b5015612fa557855190631f89d6e560e01b825260048201528381602481305afa908115612f9a57600091612f6d575b5015612f32576001600160a01b0316600090815260078352849020805490601082901c60ff1615908115612f23575b50612ee95760ff612e16818360081c16612143565b541615612eb55760ff612e2991166121aa565b5410612e5f5773125b9d995cdd1b595b9d081d985b1a59185d195960621b6001935191612e558361222e565b6014835282015290565b91600092815191606083018381106001600160401b0382111761221857621b5a5d60ea1b927f496e766573746d656e7420616d6f756e742065786365656473204b5943206c699183526023855284015282015290565b5050750aae6cae440829a9840e4d2e6d640e8dede40d0d2ced60531b6000935191612edf8361222e565b6016835282015290565b50507f55736572204b59432065787069726564206f72206e6f7420617070726f7665646000935191612f1a8361222e565b80835282015290565b60029150015442101538612e01565b50507f50726f7065727479206e6f7420444c44207265676973746572656400000000006000935191612f638361222e565b601b835282015290565b612f8d9150843d8611612f93575b612f858183612264565b810190612d59565b38612dd2565b503d612f7b565b86513d6000823e3d90fd5b5050507f50726f7065727479206e6f74205245524120636f6d706c69616e7400000000006000935191612f638361222e565b612fee9150853d8711612f9357612f858183612264565b38612da3565b87513d6000823e3d90fd5b919061300a90612191565b90815492613017846123e7565b906130256040519283612264565b848252602094858301600095865286862086915b8383106130bd57505050506001600160a01b03168352600784526040832060059490850191845b81518110156130b15760ff61307c8585848b1b86010151612418565b5416156130a857600019811461309457600101613060565b634e487b7160e01b86526011600452602486fd5b50505050915090565b50505050915050600190565b60018981926130ce859c999c612285565b81520192019201919097949761303956fe416363657373436f6e74726f6c3a206163636f756e7420000000000000000000a26469706673582212201b7ad92f506a033c8c92073ca3d9e8d4a3f06e7232edce87ffe38d5639df69d964736f6c634300081300332f8788117e7eff1d82e926ec794901d17c78024a50270940304540a733656f0d","opcodes":"PUSH1 0x80 PUSH1 0x40 DUP2 DUP2 MSTORE CALLVALUE PUSH3 0x343 JUMPI PUSH1 0xFF NOT SWAP1 PUSH1 0x1 DUP3 DUP2 SLOAD AND DUP2 SSTORE DUP1 PUSH1 0x2 SSTORE PUSH1 0x0 SWAP1 DUP2 DUP1 MSTORE PUSH1 0xB PUSH1 0x20 DUP4 DUP2 MSTORE DUP5 DUP5 KECCAK256 CALLER DUP6 MSTORE DUP2 MSTORE PUSH1 0xFF DUP1 DUP7 DUP7 KECCAK256 SLOAD AND ISZERO PUSH3 0x30E JUMPI JUMPDEST PUSH32 0x83097FBFEFD57FD31B39E2B5622F6A89D5F8C72F2C7FE78C26FDC120439EEB14 DUP1 DUP7 MSTORE DUP6 DUP4 MSTORE DUP7 DUP7 KECCAK256 CALLER DUP8 MSTORE DUP4 MSTORE DUP2 DUP8 DUP8 KECCAK256 SLOAD AND ISZERO PUSH3 0x2D7 JUMPI JUMPDEST POP PUSH32 0x869DF3E22669C0D567EBD79E1BEFEAE64ECBB3C33F68ECDDBBC743B56D783E69 DUP1 DUP7 MSTORE DUP6 DUP4 MSTORE DUP7 DUP7 KECCAK256 CALLER DUP8 MSTORE DUP4 MSTORE DUP2 DUP8 DUP8 KECCAK256 SLOAD AND ISZERO PUSH3 0x2A0 JUMPI JUMPDEST POP PUSH32 0xB6F0283BD1ED00C6AA7E988A7516070240F3610A34D167391359B648EB37CEFC DUP1 DUP7 MSTORE DUP6 DUP4 MSTORE DUP7 DUP7 KECCAK256 CALLER DUP8 MSTORE DUP4 MSTORE DUP2 DUP8 DUP8 KECCAK256 SLOAD AND ISZERO PUSH3 0x269 JUMPI JUMPDEST POP PUSH32 0x7F7F429094C37FF5C03B15F8FAECF765516B1B4447846A09D1108959DA23663B DUP1 DUP7 MSTORE DUP6 DUP4 MSTORE DUP7 DUP7 KECCAK256 CALLER DUP8 MSTORE DUP4 MSTORE DUP2 DUP8 DUP8 KECCAK256 SLOAD AND ISZERO PUSH3 0x232 JUMPI JUMPDEST POP PUSH32 0xA74A1DA23C8F1860390394F1186574990FFF4EBB068F1AFD56911D72636B3E4 SWAP1 DUP2 DUP7 MSTORE DUP6 DUP4 MSTORE DUP7 DUP7 KECCAK256 CALLER DUP8 MSTORE DUP4 MSTORE DUP7 DUP7 KECCAK256 SLOAD AND ISZERO PUSH3 0x1FB JUMPI JUMPDEST POP DUP3 DUP5 MSTORE PUSH1 0xA DUP2 MSTORE PUSH10 0xA968163F0A57B400000 DUP6 DUP6 KECCAK256 SSTORE PUSH1 0x2 DUP5 MSTORE PUSH10 0x69E10DE76676D0800000 DUP6 DUP6 KECCAK256 SSTORE PUSH1 0x3 DUP5 MSTORE PUSH11 0x1A784379D99DB42000000 DUP6 DUP6 KECCAK256 SSTORE PUSH1 0x4 DUP5 MSTORE PUSH1 0x0 NOT DUP6 DUP6 KECCAK256 SSTORE DUP4 DUP1 MSTORE MSTORE DUP3 DUP3 KECCAK256 DUP2 DUP6 DUP3 SLOAD AND OR SWAP1 SSTORE DUP1 DUP3 MSTORE DUP3 DUP3 KECCAK256 SWAP1 DUP5 DUP3 SLOAD AND OR SWAP1 SSTORE PUSH1 0x2 DUP2 MSTORE DUP2 DUP2 KECCAK256 DUP4 DUP2 SLOAD AND SWAP1 SSTORE PUSH1 0x3 DUP2 MSTORE KECCAK256 SWAP1 DUP2 SLOAD AND SWAP1 SSTORE PUSH2 0x3135 SWAP1 DUP2 PUSH3 0x349 DUP3 CODECOPY RETURN JUMPDEST DUP1 DUP6 MSTORE DUP5 DUP3 MSTORE DUP6 DUP6 KECCAK256 CALLER DUP7 MSTORE DUP3 MSTORE DUP6 DUP6 KECCAK256 DUP5 DUP9 DUP3 SLOAD AND OR SWAP1 SSTORE CALLER SWAP1 CALLER SWAP1 PUSH1 0x0 DUP1 MLOAD PUSH1 0x20 PUSH3 0x347E DUP4 CODECOPY DUP2 MLOAD SWAP2 MSTORE DUP8 DUP1 LOG4 CODESIZE PUSH3 0x170 JUMP JUMPDEST DUP1 DUP7 MSTORE DUP6 DUP4 MSTORE DUP7 DUP7 KECCAK256 CALLER DUP8 MSTORE DUP4 MSTORE DUP7 DUP7 KECCAK256 DUP6 DUP10 DUP3 SLOAD AND OR SWAP1 SSTORE CALLER SWAP1 CALLER SWAP1 PUSH1 0x0 DUP1 MLOAD PUSH1 0x20 PUSH3 0x347E DUP4 CODECOPY DUP2 MLOAD SWAP2 MSTORE DUP9 DUP1 LOG4 CODESIZE PUSH3 0x133 JUMP JUMPDEST DUP1 DUP7 MSTORE DUP6 DUP4 MSTORE DUP7 DUP7 KECCAK256 CALLER DUP8 MSTORE DUP4 MSTORE DUP7 DUP7 KECCAK256 DUP6 DUP10 DUP3 SLOAD AND OR SWAP1 SSTORE CALLER SWAP1 CALLER SWAP1 PUSH1 0x0 DUP1 MLOAD PUSH1 0x20 PUSH3 0x347E DUP4 CODECOPY DUP2 MLOAD SWAP2 MSTORE DUP9 DUP1 LOG4 CODESIZE PUSH3 0xF6 JUMP JUMPDEST DUP1 DUP7 MSTORE DUP6 DUP4 MSTORE DUP7 DUP7 KECCAK256 CALLER DUP8 MSTORE DUP4 MSTORE DUP7 DUP7 KECCAK256 DUP6 DUP10 DUP3 SLOAD AND OR SWAP1 SSTORE CALLER SWAP1 CALLER SWAP1 PUSH1 0x0 DUP1 MLOAD PUSH1 0x20 PUSH3 0x347E DUP4 CODECOPY DUP2 MLOAD SWAP2 MSTORE DUP9 DUP1 LOG4 CODESIZE PUSH3 0xB9 JUMP JUMPDEST DUP1 DUP7 MSTORE DUP6 DUP4 MSTORE DUP7 DUP7 KECCAK256 CALLER DUP8 MSTORE DUP4 MSTORE DUP7 DUP7 KECCAK256 DUP6 DUP10 DUP3 SLOAD AND OR SWAP1 SSTORE CALLER SWAP1 CALLER SWAP1 PUSH1 0x0 DUP1 MLOAD PUSH1 0x20 PUSH3 0x347E DUP4 CODECOPY DUP2 MLOAD SWAP2 MSTORE DUP9 DUP1 LOG4 CODESIZE PUSH3 0x7C JUMP JUMPDEST DUP5 DUP1 MSTORE DUP5 DUP3 MSTORE DUP6 DUP6 KECCAK256 CALLER DUP7 MSTORE DUP3 MSTORE DUP6 DUP6 KECCAK256 DUP5 DUP9 DUP3 SLOAD AND OR SWAP1 SSTORE CALLER CALLER DUP7 PUSH1 0x0 DUP1 MLOAD PUSH1 0x20 PUSH3 0x347E DUP4 CODECOPY DUP2 MLOAD SWAP2 MSTORE DUP2 DUP1 LOG4 PUSH3 0x40 JUMP JUMPDEST PUSH1 0x0 DUP1 REVERT INVALID PUSH1 0x80 DUP1 PUSH1 0x40 MSTORE PUSH1 0x4 CALLDATASIZE LT ISZERO PUSH2 0x13 JUMPI PUSH1 0x0 DUP1 REVERT JUMPDEST PUSH1 0x0 SWAP1 DUP2 CALLDATALOAD PUSH1 0xE0 SHR SWAP1 DUP2 PUSH4 0x1FFC9A7 EQ PUSH2 0x20BD JUMPI POP DUP1 PUSH4 0xE9FDFBC EQ PUSH2 0x1F00 JUMPI DUP1 PUSH4 0x198596B5 EQ PUSH2 0x1EC5 JUMPI DUP1 PUSH4 0x1DCF55B1 EQ PUSH2 0x1E8D JUMPI DUP1 PUSH4 0x1F89D6E5 EQ PUSH2 0x1E5B JUMPI DUP1 PUSH4 0x248A9CA3 EQ PUSH2 0x1E2F JUMPI DUP1 PUSH4 0x285D6F29 EQ PUSH2 0x1DE5 JUMPI DUP1 PUSH4 0x2F2FF15D EQ PUSH2 0x1D37 JUMPI DUP1 PUSH4 0x36568ABE EQ PUSH2 0x1CA4 JUMPI DUP1 PUSH4 0x3D9FBF92 EQ PUSH2 0x1A33 JUMPI DUP1 PUSH4 0x3F4BA83A EQ PUSH2 0x199E JUMPI DUP1 PUSH4 0x47A1AA76 EQ PUSH2 0x1963 JUMPI DUP1 PUSH4 0x4A877973 EQ PUSH2 0x16C8 JUMPI DUP1 PUSH4 0x522F3906 EQ PUSH2 0x1654 JUMPI DUP1 PUSH4 0x59746B2A EQ PUSH2 0x1617 JUMPI DUP1 PUSH4 0x5C975ABB EQ PUSH2 0x15F4 JUMPI DUP1 PUSH4 0x66728C98 EQ PUSH2 0x153B JUMPI DUP1 PUSH4 0x6850DEDE EQ PUSH2 0x14F1 JUMPI DUP1 PUSH4 0x6AF4C0E8 EQ PUSH2 0x1488 JUMPI DUP1 PUSH4 0x6D93677C EQ PUSH2 0x363 JUMPI DUP1 PUSH4 0x77E219C4 EQ PUSH2 0x13E6 JUMPI DUP1 PUSH4 0x7D3CC6CF EQ PUSH2 0x138A JUMPI DUP1 PUSH4 0x7DC1AAC1 EQ PUSH2 0xD1C JUMPI DUP1 PUSH4 0x81B829AB EQ PUSH2 0xC76 JUMPI DUP1 PUSH4 0x8456CB59 EQ PUSH2 0xBE2 JUMPI DUP1 PUSH4 0x91D14854 EQ PUSH2 0xB9A JUMPI DUP1 PUSH4 0xA217FDDF EQ PUSH2 0xB7E JUMPI DUP1 PUSH4 0xA2E06303 EQ PUSH2 0xB31 JUMPI DUP1 PUSH4 0xADFE3B01 EQ PUSH2 0xAB3 JUMPI DUP1 PUSH4 0xB49698A6 EQ PUSH2 0xA80 JUMPI DUP1 PUSH4 0xD2299C49 EQ PUSH2 0xA23 JUMPI DUP1 PUSH4 0xD547741F EQ PUSH2 0x9E6 JUMPI DUP1 PUSH4 0xDBE83777 EQ PUSH2 0x9C1 JUMPI DUP1 PUSH4 0xE1AC85FF EQ PUSH2 0x902 JUMPI DUP1 PUSH4 0xE5EC37AB EQ PUSH2 0x8C7 JUMPI DUP1 PUSH4 0xE61FC7CE EQ PUSH2 0x88C JUMPI DUP1 PUSH4 0xE69C368E EQ PUSH2 0x73D JUMPI DUP1 PUSH4 0xED5A8CD2 EQ PUSH2 0x3A2 JUMPI DUP1 PUSH4 0xED79BAE4 EQ PUSH2 0x363 JUMPI DUP1 PUSH4 0xEDB40FDF EQ PUSH2 0x310 JUMPI DUP1 PUSH4 0xEFD76065 EQ PUSH2 0x2D1 JUMPI DUP1 PUSH4 0xF288E1FD EQ PUSH2 0x296 JUMPI PUSH4 0xF41D07B8 EQ PUSH2 0x1FA JUMPI PUSH1 0x0 DUP1 REVERT JUMPDEST CALLVALUE PUSH2 0x293 JUMPI PUSH1 0x20 CALLDATASIZE PUSH1 0x3 NOT ADD SLT PUSH2 0x293 JUMPI PUSH1 0x40 PUSH2 0x26A SWAP2 PUSH1 0x4 CALLDATALOAD DUP2 MSTORE PUSH1 0x3 PUSH1 0x20 MSTORE KECCAK256 PUSH2 0x225 DUP2 PUSH2 0x2285 JUMP JUMPDEST SWAP1 PUSH1 0x1 DUP2 ADD SLOAD PUSH2 0x284 PUSH1 0xFF PUSH1 0x2 DUP5 ADD SLOAD AND SWAP2 PUSH2 0x243 PUSH1 0x3 DUP6 ADD PUSH2 0x2285 JUMP JUMPDEST PUSH1 0x5 PUSH1 0x1 DUP1 PUSH1 0xA0 SHL SUB PUSH1 0x4 DUP8 ADD SLOAD AND SWAP6 ADD SLOAD SWAP4 PUSH1 0x40 MLOAD SWAP8 DUP9 SWAP8 PUSH1 0xC0 DUP10 MSTORE PUSH1 0xC0 DUP10 ADD SWAP1 PUSH2 0x234E JUMP JUMPDEST SWAP3 PUSH1 0x20 DUP9 ADD MSTORE ISZERO ISZERO PUSH1 0x40 DUP8 ADD MSTORE DUP6 DUP3 SUB PUSH1 0x60 DUP8 ADD MSTORE PUSH2 0x234E JUMP JUMPDEST SWAP2 PUSH1 0x80 DUP5 ADD MSTORE PUSH1 0xA0 DUP4 ADD MSTORE SUB SWAP1 RETURN JUMPDEST DUP1 REVERT JUMPDEST POP CALLVALUE PUSH2 0x293 JUMPI DUP1 PUSH1 0x3 NOT CALLDATASIZE ADD SLT PUSH2 0x293 JUMPI PUSH1 0x20 PUSH1 0x40 MLOAD PUSH32 0xA74A1DA23C8F1860390394F1186574990FFF4EBB068F1AFD56911D72636B3E4 DUP2 MSTORE RETURN JUMPDEST POP CALLVALUE PUSH2 0x293 JUMPI PUSH1 0x20 CALLDATASIZE PUSH1 0x3 NOT ADD SLT PUSH2 0x293 JUMPI PUSH1 0x20 SWAP1 PUSH1 0xFF SWAP1 PUSH1 0x40 SWAP1 PUSH1 0x1 PUSH1 0x1 PUSH1 0xA0 SHL SUB PUSH2 0x2FC PUSH2 0x2112 JUMP JUMPDEST AND DUP2 MSTORE PUSH1 0x9 DUP5 MSTORE KECCAK256 SLOAD AND PUSH1 0x40 MLOAD SWAP1 ISZERO ISZERO DUP2 MSTORE RETURN JUMPDEST POP CALLVALUE PUSH2 0x293 JUMPI PUSH1 0x40 CALLDATASIZE PUSH1 0x3 NOT ADD SLT PUSH2 0x293 JUMPI PUSH1 0x4 CALLDATALOAD PUSH1 0x4 DUP2 LT ISZERO PUSH2 0x35F JUMPI PUSH2 0x35C SWAP1 PUSH2 0x34B PUSH2 0x33D PUSH2 0x23D8 JUMP JUMPDEST SWAP2 PUSH2 0x346 PUSH2 0x2738 JUMP JUMPDEST PUSH2 0x2143 JUMP JUMPDEST SWAP1 PUSH1 0xFF DUP1 NOT DUP4 SLOAD AND SWAP2 ISZERO ISZERO AND OR SWAP1 SSTORE JUMP JUMPDEST DUP1 RETURN JUMPDEST POP DUP1 REVERT JUMPDEST POP CALLVALUE PUSH2 0x293 JUMPI PUSH1 0x20 CALLDATASIZE PUSH1 0x3 NOT ADD SLT PUSH2 0x293 JUMPI PUSH1 0x20 SWAP1 PUSH1 0xFF SWAP1 PUSH1 0x40 SWAP1 PUSH1 0x1 PUSH1 0x1 PUSH1 0xA0 SHL SUB PUSH2 0x38E PUSH2 0x2112 JUMP JUMPDEST AND DUP2 MSTORE PUSH1 0x8 DUP5 MSTORE KECCAK256 SLOAD AND PUSH1 0x40 MLOAD SWAP1 ISZERO ISZERO DUP2 MSTORE RETURN JUMPDEST POP CALLVALUE PUSH2 0x293 JUMPI PUSH1 0xC0 CALLDATASIZE PUSH1 0x3 NOT ADD SLT PUSH2 0x293 JUMPI PUSH1 0x1 PUSH1 0x1 PUSH1 0x40 SHL SUB PUSH1 0x24 CALLDATALOAD DUP2 DUP2 GT PUSH2 0x739 JUMPI PUSH2 0x3D4 SWAP1 CALLDATASIZE SWAP1 PUSH1 0x4 ADD PUSH2 0x2373 JUMP JUMPDEST SWAP1 PUSH1 0x64 CALLDATALOAD ISZERO ISZERO PUSH1 0x64 CALLDATALOAD SUB PUSH2 0x739 JUMPI PUSH1 0x84 CALLDATALOAD DUP2 DUP2 GT PUSH2 0x735 JUMPI PUSH2 0x3FA SWAP1 CALLDATASIZE SWAP1 PUSH1 0x4 ADD PUSH2 0x2373 JUMP JUMPDEST PUSH1 0xA4 CALLDATALOAD SWAP1 PUSH1 0x1 PUSH1 0x1 PUSH1 0xA0 SHL SUB DUP3 AND DUP3 SUB PUSH2 0x731 JUMPI PUSH2 0x416 PUSH2 0x2871 JUMP JUMPDEST PUSH2 0x423 PUSH1 0x4 CALLDATALOAD ISZERO ISZERO PUSH2 0x2C51 JUMP JUMPDEST DUP4 MLOAD ISZERO PUSH2 0x6EC JUMPI PUSH2 0x437 TIMESTAMP PUSH1 0x44 CALLDATALOAD GT PUSH2 0x2C93 JUMP JUMPDEST PUSH1 0x4 CALLDATALOAD DUP6 MSTORE PUSH1 0x3 PUSH1 0x20 MSTORE PUSH1 0x40 DUP6 KECCAK256 SWAP3 DUP5 MLOAD DUP2 DUP2 GT PUSH2 0x63B JUMPI PUSH2 0x459 DUP6 SLOAD PUSH2 0x21C3 JUMP JUMPDEST PUSH1 0x1F DUP2 GT PUSH2 0x6BC JUMPI JUMPDEST POP DUP1 PUSH1 0x20 PUSH1 0x1F DUP3 GT PUSH1 0x1 EQ PUSH2 0x65A JUMPI DUP9 SWAP2 PUSH2 0x64F JUMPI JUMPDEST POP DUP2 PUSH1 0x1 SHL SWAP2 PUSH1 0x0 NOT SWAP1 PUSH1 0x3 SHL SHR NOT AND OR DUP5 SSTORE JUMPDEST PUSH1 0x1 SWAP2 PUSH1 0x44 CALLDATALOAD DUP4 DUP7 ADD SSTORE PUSH2 0x4B1 PUSH1 0x64 CALLDATALOAD PUSH1 0x2 DUP8 ADD SWAP1 PUSH1 0xFF DUP1 NOT DUP4 SLOAD AND SWAP2 ISZERO ISZERO AND OR SWAP1 SSTORE JUMP JUMPDEST DUP1 MLOAD SWAP2 DUP3 GT PUSH2 0x63B JUMPI PUSH2 0x4C7 PUSH1 0x3 DUP7 ADD SLOAD PUSH2 0x21C3 JUMP JUMPDEST PUSH1 0x1F DUP2 GT PUSH2 0x5FD JUMPI JUMPDEST POP PUSH1 0x20 SWAP1 PUSH1 0x1F DUP4 GT PUSH1 0x1 EQ PUSH2 0x596 JUMPI SWAP3 DUP3 SWAP4 SWAP2 DUP4 SWAP3 DUP10 SWAP5 PUSH2 0x58B JUMPI JUMPDEST POP POP SHL SWAP2 PUSH1 0x0 NOT SWAP1 PUSH1 0x3 SHL SHR NOT AND OR PUSH1 0x3 DUP4 ADD SSTORE JUMPDEST PUSH1 0x4 DUP3 ADD DUP1 SLOAD PUSH1 0x1 PUSH1 0x1 PUSH1 0xA0 SHL SUB NOT AND PUSH1 0x1 PUSH1 0x1 PUSH1 0xA0 SHL SUB SWAP1 SWAP3 AND SWAP2 SWAP1 SWAP2 OR SWAP1 SSTORE TIMESTAMP PUSH1 0x5 SWAP1 SWAP2 ADD SSTORE PUSH1 0x40 MLOAD DUP2 MLOAD PUSH2 0x53C DUP2 DUP4 PUSH1 0x20 DUP7 ADD PUSH2 0x232B JUMP JUMPDEST DUP2 ADD SWAP1 PUSH1 0x5 DUP3 MSTORE PUSH1 0x20 DUP2 PUSH1 0x4 CALLDATALOAD SWAP4 SUB ADD SWAP1 KECCAK256 SSTORE PUSH32 0xCCBC848A488121A945C48CFC4619F01F6E88A8269333D269D9F5DF30E9B7E4D3 PUSH1 0x40 MLOAD DUP1 PUSH2 0x585 PUSH1 0x4 CALLDATALOAD SWAP5 PUSH1 0x64 CALLDATALOAD SWAP1 DUP4 PUSH2 0x2CF6 JUMP JUMPDEST SUB SWAP1 LOG2 DUP1 RETURN JUMPDEST ADD MLOAD SWAP3 POP CODESIZE DUP1 PUSH2 0x4EC JUMP JUMPDEST SWAP1 PUSH1 0x3 DUP7 ADD DUP9 MSTORE PUSH1 0x20 DUP9 KECCAK256 SWAP2 DUP9 JUMPDEST DUP6 PUSH1 0x1F NOT DUP7 AND DUP3 LT PUSH2 0x5E7 JUMPI POP POP DUP4 PUSH1 0x1F NOT DUP2 AND LT PUSH2 0x5CE JUMPI JUMPDEST POP POP POP DUP2 SHL ADD PUSH1 0x3 DUP4 ADD SSTORE PUSH2 0x501 JUMP JUMPDEST ADD MLOAD PUSH1 0x0 NOT PUSH1 0xF8 DUP5 PUSH1 0x3 SHL AND SHR NOT AND SWAP1 SSTORE CODESIZE DUP1 DUP1 PUSH2 0x5BE JUMP JUMPDEST DUP3 DUP5 ADD MLOAD DUP6 SSTORE SWAP1 SWAP4 ADD SWAP3 PUSH1 0x20 SWAP3 DUP4 ADD SWAP3 ADD PUSH2 0x5A4 JUMP JUMPDEST PUSH2 0x62B SWAP1 PUSH1 0x3 DUP8 ADD DUP10 MSTORE PUSH1 0x20 DUP10 KECCAK256 PUSH1 0x1F DUP6 ADD PUSH1 0x5 SHR DUP2 ADD SWAP2 PUSH1 0x20 DUP7 LT PUSH2 0x631 JUMPI JUMPDEST PUSH1 0x1F ADD PUSH1 0x5 SHR ADD SWAP1 PUSH2 0x2CDF JUMP JUMPDEST CODESIZE PUSH2 0x4D0 JUMP JUMPDEST SWAP1 SWAP2 POP DUP2 SWAP1 PUSH2 0x61E JUMP JUMPDEST PUSH4 0x4E487B71 PUSH1 0xE0 SHL DUP8 MSTORE PUSH1 0x41 PUSH1 0x4 MSTORE PUSH1 0x24 DUP8 REVERT JUMPDEST SWAP1 POP DUP7 ADD MLOAD CODESIZE PUSH2 0x478 JUMP JUMPDEST DUP7 DUP10 MSTORE PUSH1 0x20 DUP10 KECCAK256 SWAP2 POP PUSH1 0x1F NOT DUP4 AND DUP10 JUMPDEST DUP2 DUP2 LT PUSH2 0x6A4 JUMPI POP SWAP1 DUP4 PUSH1 0x1 SWAP5 SWAP4 SWAP3 LT PUSH2 0x68B JUMPI JUMPDEST POP POP DUP2 SHL ADD DUP5 SSTORE PUSH2 0x48C JUMP JUMPDEST DUP9 ADD MLOAD PUSH1 0x0 NOT PUSH1 0xF8 DUP5 PUSH1 0x3 SHL AND SHR NOT AND SWAP1 SSTORE CODESIZE DUP1 PUSH2 0x67F JUMP JUMPDEST SWAP2 SWAP3 PUSH1 0x20 PUSH1 0x1 DUP2 SWAP3 DUP7 DUP14 ADD MLOAD DUP2 SSTORE ADD SWAP5 ADD SWAP3 ADD PUSH2 0x66A JUMP JUMPDEST PUSH2 0x6E6 SWAP1 DUP7 DUP10 MSTORE PUSH1 0x20 DUP10 KECCAK256 PUSH1 0x1F DUP5 ADD PUSH1 0x5 SHR DUP2 ADD SWAP2 PUSH1 0x20 DUP6 LT PUSH2 0x631 JUMPI PUSH1 0x1F ADD PUSH1 0x5 SHR ADD SWAP1 PUSH2 0x2CDF JUMP JUMPDEST CODESIZE PUSH2 0x462 JUMP JUMPDEST PUSH1 0x40 MLOAD PUSH3 0x461BCD PUSH1 0xE5 SHL DUP2 MSTORE PUSH1 0x20 PUSH1 0x4 DUP3 ADD MSTORE PUSH1 0x1B PUSH1 0x24 DUP3 ADD MSTORE PUSH32 0x496E76616C696420726567697374726174696F6E206E756D6265720000000000 PUSH1 0x44 DUP3 ADD MSTORE PUSH1 0x64 SWAP1 REVERT JUMPDEST DUP5 DUP1 REVERT JUMPDEST DUP4 DUP1 REVERT JUMPDEST DUP3 DUP1 REVERT JUMPDEST POP CALLVALUE PUSH2 0x293 JUMPI PUSH1 0x20 SWAP1 DUP2 PUSH1 0x3 NOT CALLDATASIZE ADD SLT PUSH2 0x293 JUMPI PUSH1 0x4 CALLDATALOAD SWAP1 DUP2 DUP2 MSTORE PUSH1 0x3 DUP4 MSTORE PUSH1 0x40 DUP2 KECCAK256 PUSH1 0x40 MLOAD SWAP2 PUSH2 0x76D DUP4 PUSH2 0x21FD JUMP JUMPDEST PUSH2 0x776 DUP3 PUSH2 0x2285 JUMP JUMPDEST DUP4 MSTORE PUSH1 0x1 DUP3 ADD SLOAD SWAP4 DUP6 DUP5 ADD SWAP5 DUP6 MSTORE PUSH1 0x40 PUSH1 0xFF PUSH1 0x2 DUP6 ADD SLOAD AND SWAP3 DUP2 DUP7 ADD SWAP4 ISZERO ISZERO DUP5 MSTORE PUSH2 0x7A3 PUSH1 0x3 DUP7 ADD PUSH2 0x2285 JUMP JUMPDEST PUSH1 0x60 DUP8 ADD MSTORE PUSH1 0x1 DUP1 PUSH1 0xA0 SHL SUB SWAP3 PUSH1 0x5 DUP5 PUSH1 0x4 DUP9 ADD SLOAD AND SWAP7 PUSH1 0x80 DUP10 ADD SWAP8 DUP9 MSTORE ADD SLOAD PUSH1 0xA0 DUP9 ADD MSTORE DUP2 MSTORE PUSH1 0x4 DUP9 MSTORE KECCAK256 SWAP4 PUSH1 0x40 MLOAD SWAP3 PUSH2 0x7DD DUP5 PUSH2 0x21FD JUMP JUMPDEST PUSH2 0x7E6 DUP7 PUSH2 0x2285 JUMP JUMPDEST DUP5 MSTORE PUSH2 0x7F4 PUSH1 0x1 DUP8 ADD PUSH2 0x2285 JUMP JUMPDEST DUP9 DUP6 ADD MSTORE PUSH2 0x804 PUSH1 0x2 DUP8 ADD PUSH2 0x2285 JUMP JUMPDEST PUSH1 0x40 DUP6 ADD MSTORE PUSH1 0x5 PUSH1 0xFF PUSH1 0x3 DUP9 ADD SLOAD AND ISZERO ISZERO SWAP7 DUP8 PUSH1 0x60 DUP8 ADD MSTORE PUSH1 0x4 DUP2 ADD SLOAD PUSH1 0x80 DUP8 ADD MSTORE ADD SLOAD PUSH1 0xA0 DUP6 ADD MSTORE MLOAD ISZERO ISZERO SWAP6 DUP7 PUSH2 0x87F JUMPI JUMPDEST POP SWAP2 PUSH2 0x867 SWAP2 PUSH2 0x875 SWAP5 SWAP4 MLOAD SWAP2 MLOAD SWAP4 MLOAD AND SWAP5 PUSH1 0x40 MLOAD SWAP8 DUP9 SWAP8 ISZERO ISZERO DUP9 MSTORE DUP8 ADD MSTORE PUSH1 0xA0 PUSH1 0x40 DUP8 ADD MSTORE PUSH1 0xA0 DUP7 ADD SWAP1 PUSH2 0x234E JUMP JUMPDEST SWAP1 DUP5 DUP3 SUB PUSH1 0x60 DUP7 ADD MSTORE PUSH2 0x234E JUMP JUMPDEST SWAP1 PUSH1 0x80 DUP4 ADD MSTORE SUB SWAP1 RETURN JUMPDEST MLOAD TIMESTAMP LT SWAP6 POP PUSH2 0x867 PUSH2 0x837 JUMP JUMPDEST POP CALLVALUE PUSH2 0x293 JUMPI DUP1 PUSH1 0x3 NOT CALLDATASIZE ADD SLT PUSH2 0x293 JUMPI PUSH1 0x20 PUSH1 0x40 MLOAD PUSH32 0x7F7F429094C37FF5C03B15F8FAECF765516B1B4447846A09D1108959DA23663B DUP2 MSTORE RETURN JUMPDEST POP CALLVALUE PUSH2 0x293 JUMPI DUP1 PUSH1 0x3 NOT CALLDATASIZE ADD SLT PUSH2 0x293 JUMPI PUSH1 0x20 PUSH1 0x40 MLOAD PUSH32 0x869DF3E22669C0D567EBD79E1BEFEAE64ECBB3C33F68ECDDBBC743B56D783E69 DUP2 MSTORE RETURN JUMPDEST POP CALLVALUE PUSH2 0x293 JUMPI PUSH1 0x20 CALLDATASIZE PUSH1 0x3 NOT ADD SLT PUSH2 0x293 JUMPI PUSH2 0x97B SWAP1 PUSH1 0x40 SWAP1 PUSH1 0x1 PUSH1 0x1 PUSH1 0xA0 SHL SUB PUSH2 0x92B PUSH2 0x2112 JUMP JUMPDEST AND DUP2 MSTORE PUSH1 0x7 PUSH1 0x20 MSTORE KECCAK256 DUP1 SLOAD SWAP1 PUSH2 0x9A8 PUSH1 0xFF DUP4 AND SWAP3 PUSH1 0xFF DUP2 PUSH1 0x10 SHR AND DUP1 PUSH2 0x9B4 JUMPI JUMPDEST PUSH2 0x955 DUP6 PUSH2 0x21AA JUMP JUMPDEST SLOAD SWAP1 PUSH2 0x98B PUSH2 0x96E PUSH1 0x3 PUSH1 0xFF PUSH1 0x4 DUP10 ADD SLOAD AND SWAP8 ADD PUSH2 0x2285 JUMP JUMPDEST SWAP4 PUSH1 0x40 MLOAD SWAP9 DUP10 DUP1 SWAP10 PUSH2 0x23FE JUMP JUMPDEST PUSH1 0xFF PUSH1 0x20 DUP10 ADD SWAP2 PUSH1 0x8 SHR AND PUSH2 0x240B JUMP JUMPDEST ISZERO ISZERO PUSH1 0x40 DUP7 ADD MSTORE PUSH1 0x60 DUP6 ADD MSTORE PUSH1 0xC0 PUSH1 0x80 DUP6 ADD MSTORE PUSH1 0xC0 DUP5 ADD SWAP1 PUSH2 0x234E JUMP JUMPDEST SWAP1 ISZERO ISZERO PUSH1 0xA0 DUP4 ADD MSTORE SUB SWAP1 RETURN JUMPDEST POP PUSH1 0x2 DUP4 ADD SLOAD TIMESTAMP LT PUSH2 0x94C JUMP JUMPDEST POP CALLVALUE PUSH2 0x293 JUMPI PUSH2 0x9E2 PUSH2 0x9D3 CALLDATASIZE PUSH2 0x2172 JUMP JUMPDEST SWAP2 SWAP1 PUSH2 0x9DD PUSH2 0x2738 JUMP JUMPDEST PUSH2 0x21AA JUMP JUMPDEST SSTORE DUP1 RETURN JUMPDEST POP CALLVALUE PUSH2 0x293 JUMPI PUSH1 0x40 CALLDATASIZE PUSH1 0x3 NOT ADD SLT PUSH2 0x293 JUMPI PUSH2 0x35C PUSH1 0x4 CALLDATALOAD PUSH2 0xA06 PUSH2 0x212D JUMP JUMPDEST SWAP1 DUP1 DUP5 MSTORE DUP4 PUSH1 0x20 MSTORE PUSH2 0xA1E PUSH1 0x1 PUSH1 0x40 DUP7 KECCAK256 ADD SLOAD PUSH2 0x29AA JUMP JUMPDEST PUSH2 0x2AA8 JUMP JUMPDEST POP CALLVALUE PUSH2 0x293 JUMPI PUSH1 0x20 CALLDATASIZE PUSH1 0x3 NOT ADD SLT PUSH2 0x293 JUMPI PUSH1 0x4 CALLDATALOAD SWAP1 PUSH1 0x1 PUSH1 0x1 PUSH1 0x40 SHL SUB DUP3 GT PUSH2 0x293 JUMPI PUSH1 0x20 PUSH2 0xA6D DUP2 PUSH2 0xA5A CALLDATASIZE PUSH1 0x4 DUP8 ADD PUSH2 0x2373 JUMP JUMPDEST DUP2 PUSH1 0x40 MLOAD SWAP4 DUP3 DUP6 DUP1 SWAP5 MLOAD SWAP4 DUP5 SWAP3 ADD PUSH2 0x232B JUMP JUMPDEST DUP2 ADD PUSH1 0x5 DUP2 MSTORE SUB ADD SWAP1 KECCAK256 SLOAD PUSH1 0x40 MLOAD SWAP1 DUP2 MSTORE RETURN JUMPDEST POP CALLVALUE PUSH2 0x293 JUMPI PUSH1 0x20 CALLDATASIZE PUSH1 0x3 NOT ADD SLT PUSH2 0x293 JUMPI PUSH1 0x4 CALLDATALOAD SWAP1 PUSH1 0x5 DUP3 LT ISZERO PUSH2 0x293 JUMPI PUSH1 0x20 PUSH2 0xAAA DUP4 PUSH2 0x21AA JUMP JUMPDEST SLOAD PUSH1 0x40 MLOAD SWAP1 DUP2 MSTORE RETURN JUMPDEST POP CALLVALUE PUSH2 0x293 JUMPI PUSH1 0x40 CALLDATASIZE PUSH1 0x3 NOT ADD SLT PUSH2 0x293 JUMPI PUSH2 0xACD PUSH2 0x2112 JUMP JUMPDEST PUSH32 0xBE58C2037618FEE881131BE26473E2181DA84864882BA3837538A236FEF6D7F4 PUSH1 0x20 PUSH2 0xAF8 PUSH2 0x23D8 JUMP JUMPDEST SWAP3 PUSH2 0xB01 PUSH2 0x2871 JUMP JUMPDEST PUSH1 0x1 PUSH1 0x1 PUSH1 0xA0 SHL SUB AND DUP1 DUP6 MSTORE PUSH1 0x8 DUP3 MSTORE PUSH1 0x40 DUP6 KECCAK256 DUP1 SLOAD PUSH1 0xFF NOT AND PUSH1 0xFF DUP7 ISZERO ISZERO AND OR SWAP1 SSTORE SWAP3 PUSH1 0x40 MLOAD SWAP1 ISZERO ISZERO DUP2 MSTORE LOG2 DUP1 RETURN JUMPDEST POP CALLVALUE PUSH2 0x293 JUMPI PUSH1 0x60 CALLDATASIZE PUSH1 0x3 NOT ADD SLT PUSH2 0x293 JUMPI PUSH2 0xB5B PUSH2 0xB4E PUSH2 0x2112 JUMP JUMPDEST PUSH1 0x44 CALLDATALOAD SWAP1 PUSH1 0x24 CALLDATALOAD SWAP1 PUSH2 0x2D71 JUMP JUMPDEST SWAP1 PUSH2 0xB7A PUSH1 0x40 MLOAD SWAP3 DUP4 SWAP3 ISZERO ISZERO DUP4 MSTORE PUSH1 0x40 PUSH1 0x20 DUP5 ADD MSTORE PUSH1 0x40 DUP4 ADD SWAP1 PUSH2 0x234E JUMP JUMPDEST SUB SWAP1 RETURN JUMPDEST POP CALLVALUE PUSH2 0x293 JUMPI DUP1 PUSH1 0x3 NOT CALLDATASIZE ADD SLT PUSH2 0x293 JUMPI PUSH1 0x20 SWAP1 PUSH1 0x40 MLOAD SWAP1 DUP2 MSTORE RETURN JUMPDEST POP CALLVALUE PUSH2 0x293 JUMPI PUSH1 0x40 CALLDATASIZE PUSH1 0x3 NOT ADD SLT PUSH2 0x293 JUMPI PUSH1 0xFF PUSH1 0x40 PUSH1 0x20 SWAP3 PUSH2 0xBBB PUSH2 0x212D JUMP JUMPDEST PUSH1 0x4 CALLDATALOAD DUP3 MSTORE DUP2 DUP6 MSTORE DUP3 DUP3 KECCAK256 PUSH1 0x1 PUSH1 0x1 PUSH1 0xA0 SHL SUB SWAP1 SWAP2 AND DUP3 MSTORE DUP5 MSTORE KECCAK256 SLOAD PUSH1 0x40 MLOAD SWAP2 AND ISZERO ISZERO DUP2 MSTORE RETURN JUMPDEST POP CALLVALUE PUSH2 0x293 JUMPI DUP1 PUSH1 0x3 NOT CALLDATASIZE ADD SLT PUSH2 0x293 JUMPI PUSH2 0xBFB PUSH2 0x2620 JUMP JUMPDEST PUSH1 0x1 SLOAD PUSH1 0xFF DUP2 AND PUSH2 0xC3E JUMPI PUSH1 0x1 SWAP1 PUSH1 0xFF NOT AND OR PUSH1 0x1 SSTORE PUSH32 0x62E78CEA01BEE320CD4E420270B5EA74000D11B0C9F74754EBDBFC544B05A258 PUSH1 0x20 PUSH1 0x40 MLOAD CALLER DUP2 MSTORE LOG1 DUP1 RETURN JUMPDEST PUSH1 0x40 MLOAD PUSH3 0x461BCD PUSH1 0xE5 SHL DUP2 MSTORE PUSH1 0x20 PUSH1 0x4 DUP3 ADD MSTORE PUSH1 0x10 PUSH1 0x24 DUP3 ADD MSTORE PUSH16 0x14185D5CD8589B194E881C185D5CD959 PUSH1 0x82 SHL PUSH1 0x44 DUP3 ADD MSTORE PUSH1 0x64 SWAP1 REVERT JUMPDEST POP CALLVALUE PUSH2 0x293 JUMPI PUSH1 0x20 CALLDATASIZE PUSH1 0x3 NOT ADD SLT PUSH2 0x293 JUMPI PUSH1 0x40 PUSH2 0xCEA SWAP2 PUSH1 0x4 CALLDATALOAD DUP2 MSTORE PUSH1 0x4 PUSH1 0x20 MSTORE KECCAK256 PUSH2 0xCA2 DUP2 PUSH2 0x2285 JUMP JUMPDEST SWAP1 PUSH2 0xCAF PUSH1 0x1 DUP3 ADD PUSH2 0x2285 JUMP JUMPDEST PUSH2 0xCBB PUSH1 0x2 DUP4 ADD PUSH2 0x2285 JUMP JUMPDEST SWAP2 PUSH2 0xD06 PUSH1 0xFF PUSH1 0x3 DUP4 ADD SLOAD AND SWAP4 PUSH2 0xCF8 PUSH1 0x5 PUSH1 0x4 DUP6 ADD SLOAD SWAP5 ADD SLOAD SWAP5 PUSH1 0x40 MLOAD SWAP9 DUP10 SWAP9 PUSH1 0xC0 DUP11 MSTORE PUSH1 0xC0 DUP11 ADD SWAP1 PUSH2 0x234E JUMP JUMPDEST SWAP1 DUP9 DUP3 SUB PUSH1 0x20 DUP11 ADD MSTORE PUSH2 0x234E JUMP JUMPDEST SWAP1 DUP7 DUP3 SUB PUSH1 0x40 DUP9 ADD MSTORE PUSH2 0x234E JUMP JUMPDEST SWAP3 ISZERO ISZERO PUSH1 0x60 DUP6 ADD MSTORE PUSH1 0x80 DUP5 ADD MSTORE PUSH1 0xA0 DUP4 ADD MSTORE SUB SWAP1 RETURN JUMPDEST POP CALLVALUE PUSH2 0x293 JUMPI PUSH1 0xA0 CALLDATASIZE PUSH1 0x3 NOT ADD SLT PUSH2 0x293 JUMPI PUSH1 0x24 SWAP1 PUSH1 0x4 CALLDATALOAD PUSH1 0x1 PUSH1 0x1 PUSH1 0x40 SHL SUB DUP4 CALLDATALOAD DUP2 DUP2 GT PUSH2 0x735 JUMPI PUSH2 0xD53 SWAP1 CALLDATASIZE SWAP1 PUSH1 0x4 ADD PUSH2 0x2373 JUMP JUMPDEST SWAP1 PUSH1 0x44 CALLDATALOAD DUP2 DUP2 GT PUSH2 0x731 JUMPI PUSH2 0xD6C SWAP1 CALLDATASIZE SWAP1 PUSH1 0x4 ADD PUSH2 0x2373 JUMP JUMPDEST SWAP2 PUSH1 0x64 CALLDATALOAD DUP3 DUP2 GT PUSH2 0x1386 JUMPI PUSH2 0xD85 SWAP1 CALLDATASIZE SWAP1 PUSH1 0x4 ADD PUSH2 0x2373 JUMP JUMPDEST PUSH2 0xD8D PUSH2 0x23C9 JUMP JUMPDEST SWAP3 PUSH32 0x869DF3E22669C0D567EBD79E1BEFEAE64ECBB3C33F68ECDDBBC743B56D783E69 SWAP2 DUP3 DUP9 MSTORE PUSH1 0x20 SWAP3 DUP9 DUP5 MSTORE PUSH1 0x40 DUP10 KECCAK256 CALLER DUP11 MSTORE DUP5 MSTORE PUSH1 0xFF PUSH1 0x40 DUP11 KECCAK256 SLOAD AND ISZERO PUSH2 0x11C6 JUMPI POP PUSH2 0xDDB DUP8 ISZERO ISZERO PUSH2 0x2C51 JUMP JUMPDEST DUP4 MLOAD ISZERO PUSH2 0x1182 JUMPI DUP7 DUP9 MSTORE PUSH1 0x4 DUP4 MSTORE PUSH1 0x40 DUP9 KECCAK256 SWAP2 DUP5 MLOAD DUP2 DUP2 GT PUSH2 0x116F JUMPI PUSH2 0xE01 DUP5 SLOAD PUSH2 0x21C3 JUMP JUMPDEST SWAP1 PUSH1 0x1F SWAP2 DUP3 DUP2 GT PUSH2 0x1143 JUMPI JUMPDEST POP DUP1 DUP7 DUP4 DUP3 GT PUSH1 0x1 EQ PUSH2 0x10E1 JUMPI DUP13 SWAP2 PUSH2 0x10D6 JUMPI JUMPDEST POP DUP2 PUSH1 0x1 SHL SWAP2 PUSH1 0x0 NOT SWAP1 PUSH1 0x3 SHL SHR NOT AND OR DUP5 SSTORE JUMPDEST PUSH1 0x1 SWAP8 DUP9 DUP6 ADD SWAP1 DUP1 MLOAD SWAP1 DUP13 DUP6 DUP4 GT PUSH2 0x10C3 JUMPI DUP3 SWAP2 PUSH2 0xE53 DUP6 SLOAD PUSH2 0x21C3 JUMP JUMPDEST DUP11 DUP8 DUP3 GT PUSH2 0x1096 JUMPI JUMPDEST POP POP DUP10 SWAP2 DUP7 DUP5 GT PUSH1 0x1 EQ PUSH2 0x102E JUMPI SWAP3 PUSH2 0x1023 JUMPI JUMPDEST POP POP PUSH1 0x0 NOT PUSH1 0x3 DUP4 SWAP1 SHL SHR NOT AND SWAP1 DUP11 SHL OR SWAP1 SSTORE JUMPDEST PUSH1 0x2 DUP5 ADD SWAP3 DUP1 MLOAD SWAP3 DUP4 GT PUSH2 0x1010 JUMPI SWAP1 DUP4 SWAP3 SWAP2 DUP12 PUSH2 0xEA4 DUP13 SWAP9 SWAP8 SWAP7 SLOAD PUSH2 0x21C3 JUMP JUMPDEST DUP8 DUP5 DUP3 GT PUSH2 0xFDA JUMPI JUMPDEST POP POP POP DUP12 DUP7 SWAP3 DUP5 GT PUSH1 0x1 EQ PUSH2 0xF58 JUMPI PUSH32 0x6B5D92DAF0275BDADF1718A3FE7FB9C59C288085C15D2671CF99F8577D9A1305 SWAP11 SWAP1 SWAP3 DUP5 SWAP3 DUP4 PUSH2 0xF4D JUMPI JUMPDEST POP POP SHL SWAP2 PUSH1 0x0 NOT SWAP1 PUSH1 0x3 SHL SHR NOT AND OR SWAP1 SSTORE JUMPDEST PUSH2 0xF13 DUP6 PUSH1 0x3 DUP4 ADD SWAP1 PUSH1 0xFF DUP1 NOT DUP4 SLOAD AND SWAP2 ISZERO ISZERO AND OR SWAP1 SSTORE JUMP JUMPDEST TIMESTAMP PUSH1 0x4 DUP3 ADD SSTORE PUSH1 0x5 TIMESTAMP SWAP2 ADD SSTORE PUSH1 0x40 MLOAD SWAP1 DUP2 DUP5 MLOAD PUSH2 0xF33 DUP2 DUP4 DUP6 DUP10 ADD PUSH2 0x232B JUMP JUMPDEST DUP2 ADD PUSH1 0x6 DUP2 MSTORE SUB ADD SWAP1 KECCAK256 SSTORE PUSH2 0x585 PUSH1 0x40 MLOAD SWAP3 DUP4 SWAP3 DUP4 PUSH2 0x2CF6 JUMP JUMPDEST ADD MLOAD SWAP3 POP DUP14 DUP1 PUSH2 0xEE8 JUMP JUMPDEST POP DUP4 DUP13 MSTORE DUP6 DUP13 KECCAK256 PUSH1 0x1F NOT DUP5 AND SWAP11 SWAP4 SWAP3 SWAP1 SWAP2 DUP14 JUMPDEST DUP13 DUP2 LT PUSH2 0xFC2 JUMPI POP DUP4 PUSH32 0x6B5D92DAF0275BDADF1718A3FE7FB9C59C288085C15D2671CF99F8577D9A1305 SWAP13 LT PUSH2 0xFA9 JUMPI JUMPDEST POP POP POP DUP2 SHL ADD SWAP1 SSTORE PUSH2 0xEFA JUMP JUMPDEST ADD MLOAD PUSH1 0x0 NOT PUSH1 0xF8 DUP5 PUSH1 0x3 SHL AND SHR NOT AND SWAP1 SSTORE DUP12 DUP1 DUP1 PUSH2 0xF9C JUMP JUMPDEST DUP2 DUP4 ADD MLOAD DUP5 SSTORE DUP14 SWAP10 POP SWAP3 DUP6 ADD SWAP3 SWAP2 DUP9 ADD SWAP2 DUP9 ADD PUSH2 0xF6B JUMP JUMPDEST DUP3 DUP8 PUSH2 0xFFF SWAP5 MSTORE KECCAK256 DUP5 DUP1 DUP8 ADD PUSH1 0x5 SHR DUP3 ADD SWAP3 DUP11 DUP9 LT PUSH2 0x1007 JUMPI JUMPDEST ADD PUSH1 0x5 SHR ADD SWAP1 PUSH2 0x2CDF JUMP JUMPDEST DUP12 DUP14 DUP8 PUSH2 0xEAD JUMP JUMPDEST SWAP3 POP DUP2 SWAP3 PUSH2 0xFF4 JUMP JUMPDEST PUSH4 0x4E487B71 PUSH1 0xE0 SHL DUP12 MSTORE PUSH1 0x41 PUSH1 0x4 MSTORE DUP12 DUP12 REVERT JUMPDEST ADD MLOAD SWAP1 POP CODESIZE DUP1 PUSH2 0xE70 JUMP JUMPDEST SWAP2 SWAP1 DUP14 SWAP5 POP PUSH1 0x1F NOT DUP5 AND DUP7 DUP5 MSTORE DUP12 DUP5 KECCAK256 SWAP4 JUMPDEST DUP13 DUP3 DUP3 LT PUSH2 0x1077 JUMPI POP POP DUP5 GT PUSH2 0x105E JUMPI JUMPDEST POP POP POP DUP2 SHL ADD SWAP1 SSTORE PUSH2 0xE84 JUMP JUMPDEST ADD MLOAD PUSH1 0x0 NOT PUSH1 0xF8 DUP5 PUSH1 0x3 SHL AND SHR NOT AND SWAP1 SSTORE CODESIZE DUP1 DUP1 PUSH2 0x1051 JUMP JUMPDEST SWAP2 SWAP3 SWAP4 SWAP6 SWAP7 DUP3 SWAP2 SWAP6 DUP8 DUP7 ADD MLOAD DUP2 SSTORE ADD SWAP6 ADD SWAP4 ADD SWAP1 DUP15 SWAP6 SWAP5 SWAP4 SWAP3 SWAP2 PUSH2 0x1040 JUMP JUMPDEST PUSH2 0x10BC SWAP2 DUP8 DUP6 MSTORE DUP9 DUP3 DUP7 KECCAK256 SWAP2 DUP2 DUP9 ADD PUSH1 0x5 SHR DUP4 ADD SWAP4 DUP9 LT PUSH2 0x1007 JUMPI ADD PUSH1 0x5 SHR ADD SWAP1 PUSH2 0x2CDF JUMP JUMPDEST CODESIZE DUP11 PUSH2 0xE5C JUMP JUMPDEST PUSH4 0x4E487B71 PUSH1 0xE0 SHL DUP2 MSTORE PUSH1 0x41 PUSH1 0x4 MSTORE DUP15 SWAP1 REVERT JUMPDEST SWAP1 POP DUP8 ADD MLOAD CODESIZE PUSH2 0xE21 JUMP JUMPDEST DUP7 DUP14 MSTORE DUP8 DUP14 KECCAK256 SWAP2 POP PUSH1 0x1F NOT DUP4 AND DUP14 JUMPDEST DUP10 DUP12 DUP4 DUP4 LT PUSH2 0x112E JUMPI POP POP POP SWAP1 DUP4 PUSH1 0x1 SWAP5 SWAP4 SWAP3 LT PUSH2 0x1115 JUMPI JUMPDEST POP POP DUP2 SHL ADD DUP5 SSTORE PUSH2 0xE35 JUMP JUMPDEST DUP10 ADD MLOAD PUSH1 0x0 NOT PUSH1 0xF8 DUP5 PUSH1 0x3 SHL AND SHR NOT AND SWAP1 SSTORE CODESIZE DUP1 PUSH2 0x1109 JUMP JUMPDEST DUP5 ADD MLOAD DUP6 SSTORE PUSH1 0x1 SWAP1 SWAP5 ADD SWAP4 SWAP3 DUP4 ADD SWAP3 ADD PUSH2 0x10F0 JUMP JUMPDEST PUSH2 0x1169 SWAP1 DUP7 DUP14 MSTORE DUP8 DUP14 KECCAK256 DUP5 DUP1 DUP6 ADD PUSH1 0x5 SHR DUP3 ADD SWAP3 DUP11 DUP7 LT PUSH2 0x1007 JUMPI ADD PUSH1 0x5 SHR ADD SWAP1 PUSH2 0x2CDF JUMP JUMPDEST CODESIZE PUSH2 0xE0D JUMP JUMPDEST PUSH4 0x4E487B71 PUSH1 0xE0 SHL DUP11 MSTORE PUSH1 0x41 PUSH1 0x4 MSTORE DUP11 DUP11 REVERT JUMPDEST PUSH1 0x40 MLOAD PUSH3 0x461BCD PUSH1 0xE5 SHL DUP2 MSTORE PUSH1 0x4 DUP2 ADD DUP5 SWAP1 MSTORE PUSH1 0x19 DUP2 DUP12 ADD MSTORE PUSH32 0x496E76616C6964207469746C652064656564206E756D62657200000000000000 PUSH1 0x44 DUP3 ADD MSTORE PUSH1 0x64 SWAP1 REVERT JUMPDEST DUP4 DUP11 SWAP2 DUP11 PUSH2 0x11D3 CALLER PUSH2 0x2B43 JUMP JUMPDEST SWAP2 PUSH1 0x40 MLOAD SWAP1 PUSH2 0x11E1 DUP3 PUSH2 0x2249 JUMP JUMPDEST PUSH1 0x42 DUP3 MSTORE DUP5 DUP3 ADD SWAP3 PUSH1 0x60 CALLDATASIZE DUP6 CALLDATACOPY DUP3 MLOAD ISZERO PUSH2 0x1373 JUMPI PUSH1 0x30 DUP5 MSTORE8 DUP3 MLOAD SWAP1 PUSH1 0x1 SWAP2 DUP3 LT ISZERO PUSH2 0x1360 JUMPI SWAP1 PUSH1 0x78 PUSH1 0x21 DUP6 ADD MSTORE8 PUSH1 0x41 SWAP2 JUMPDEST DUP2 DUP4 GT PUSH2 0x12F4 JUMPI POP POP POP PUSH2 0x12B2 JUMPI PUSH1 0x48 PUSH2 0x12AE SWAP4 PUSH2 0x1283 SWAP4 PUSH2 0x1292 SWAP4 PUSH1 0x40 MLOAD SWAP6 DUP7 SWAP4 PUSH1 0x0 DUP1 MLOAD PUSH1 0x20 PUSH2 0x30E0 DUP4 CODECOPY DUP2 MLOAD SWAP2 MSTORE DUP11 DUP7 ADD MSTORE PUSH2 0x125A DUP2 MLOAD DUP1 SWAP3 DUP13 PUSH1 0x37 DUP10 ADD SWAP2 ADD PUSH2 0x232B JUMP JUMPDEST DUP5 ADD SWAP2 PUSH17 0x1034B99036B4B9B9B4B733903937B6329 PUSH1 0x7D SHL PUSH1 0x37 DUP5 ADD MSTORE MLOAD DUP1 SWAP4 DUP7 DUP5 ADD SWAP1 PUSH2 0x232B JUMP JUMPDEST ADD SUB PUSH1 0x28 DUP2 ADD DUP5 MSTORE ADD DUP3 PUSH2 0x2264 JUMP JUMPDEST PUSH1 0x40 MLOAD SWAP4 DUP5 SWAP4 PUSH3 0x461BCD PUSH1 0xE5 SHL DUP6 MSTORE PUSH1 0x4 DUP6 ADD MSTORE DUP4 ADD SWAP1 PUSH2 0x234E JUMP JUMPDEST SUB SWAP1 REVERT JUMPDEST PUSH1 0x64 DUP6 DUP6 PUSH1 0x40 MLOAD SWAP2 PUSH3 0x461BCD PUSH1 0xE5 SHL DUP4 MSTORE DUP2 PUSH1 0x4 DUP5 ADD MSTORE DUP3 ADD MSTORE PUSH32 0x537472696E67733A20686578206C656E67746820696E73756666696369656E74 PUSH1 0x44 DUP3 ADD MSTORE REVERT JUMPDEST SWAP1 SWAP2 SWAP3 PUSH1 0xF DUP2 AND PUSH1 0x10 DUP2 LT ISZERO PUSH2 0x134D JUMPI PUSH16 0x181899199A1A9B1B9C1CB0B131B232B3 PUSH1 0x81 SHL SWAP1 BYTE PUSH2 0x1324 DUP6 DUP8 PUSH2 0x2B1C JUMP JUMPDEST MSTORE8 PUSH1 0x4 SHR SWAP3 DUP1 ISZERO PUSH2 0x133A JUMPI PUSH1 0x0 NOT ADD SWAP2 SWAP1 PUSH2 0x1212 JUMP JUMPDEST PUSH4 0x4E487B71 PUSH1 0xE0 SHL DUP3 MSTORE PUSH1 0x11 PUSH1 0x4 MSTORE DUP9 DUP3 REVERT JUMPDEST PUSH4 0x4E487B71 PUSH1 0xE0 SHL DUP4 MSTORE PUSH1 0x32 PUSH1 0x4 MSTORE DUP10 DUP4 REVERT JUMPDEST PUSH4 0x4E487B71 PUSH1 0xE0 SHL DUP2 MSTORE PUSH1 0x32 PUSH1 0x4 MSTORE DUP8 SWAP1 REVERT JUMPDEST PUSH4 0x4E487B71 PUSH1 0xE0 SHL DUP2 MSTORE PUSH1 0x32 PUSH1 0x4 MSTORE DUP7 SWAP1 REVERT JUMPDEST DUP6 DUP1 REVERT JUMPDEST POP CALLVALUE PUSH2 0x293 JUMPI PUSH1 0x20 CALLDATASIZE PUSH1 0x3 NOT ADD SLT PUSH2 0x293 JUMPI PUSH1 0x40 SWAP1 PUSH1 0xFF SWAP1 DUP3 SWAP1 PUSH1 0x1 PUSH1 0x1 PUSH1 0xA0 SHL SUB PUSH2 0x13B4 PUSH2 0x2112 JUMP JUMPDEST AND DUP2 MSTORE PUSH1 0x7 PUSH1 0x20 MSTORE KECCAK256 SLOAD PUSH1 0x8 SHR AND PUSH2 0x13E4 PUSH1 0xFF PUSH2 0x13D0 DUP4 PUSH2 0x2143 JUMP JUMPDEST SLOAD AND SWAP2 DUP4 MLOAD SWAP3 ISZERO ISZERO DUP4 MSTORE PUSH1 0x20 DUP4 ADD SWAP1 PUSH2 0x240B JUMP JUMPDEST RETURN JUMPDEST POP CALLVALUE PUSH2 0x293 JUMPI PUSH1 0x20 CALLDATASIZE PUSH1 0x3 NOT ADD SLT PUSH2 0x293 JUMPI PUSH1 0x40 PUSH1 0x20 SWAP2 PUSH1 0x4 CALLDATALOAD DUP2 MSTORE PUSH1 0x3 DUP4 MSTORE KECCAK256 PUSH1 0x40 MLOAD SWAP1 PUSH2 0x1414 DUP3 PUSH2 0x21FD JUMP JUMPDEST PUSH2 0x141D DUP2 PUSH2 0x2285 JUMP JUMPDEST DUP3 MSTORE PUSH1 0x1 DUP2 ADD SLOAD SWAP2 DUP4 DUP2 ADD SWAP3 DUP4 MSTORE PUSH1 0xA0 PUSH1 0x5 PUSH1 0xFF PUSH1 0x2 DUP6 ADD SLOAD AND SWAP4 PUSH1 0x40 DUP5 ADD SWAP5 ISZERO ISZERO DUP6 MSTORE PUSH2 0x144D PUSH1 0x3 DUP3 ADD PUSH2 0x2285 JUMP JUMPDEST PUSH1 0x60 DUP6 ADD MSTORE PUSH1 0x1 DUP1 DUP5 SHL SUB PUSH1 0x4 DUP3 ADD SLOAD AND PUSH1 0x80 DUP6 ADD MSTORE ADD SLOAD SWAP2 ADD MSTORE MLOAD ISZERO ISZERO SWAP1 DUP2 PUSH2 0x147D JUMPI JUMPDEST POP PUSH1 0x40 MLOAD SWAP1 ISZERO ISZERO DUP2 MSTORE RETURN JUMPDEST SWAP1 POP MLOAD TIMESTAMP LT CODESIZE PUSH2 0x1472 JUMP JUMPDEST POP CALLVALUE PUSH2 0x293 JUMPI PUSH1 0x20 CALLDATASIZE PUSH1 0x3 NOT ADD SLT PUSH2 0x293 JUMPI PUSH1 0x40 SWAP1 DUP2 SWAP1 PUSH1 0x1 PUSH1 0x1 PUSH1 0xA0 SHL SUB PUSH2 0x14AF PUSH2 0x2112 JUMP JUMPDEST AND DUP2 MSTORE PUSH1 0x7 PUSH1 0x20 MSTORE KECCAK256 DUP1 SLOAD PUSH1 0xFF DUP2 PUSH1 0x10 SHR AND SWAP2 DUP3 PUSH2 0x14E1 JUMPI JUMPDEST POP PUSH2 0x13E4 SWAP1 DUP4 MLOAD SWAP3 ISZERO ISZERO DUP4 MSTORE PUSH1 0xFF PUSH1 0x20 DUP5 ADD SWAP2 AND PUSH2 0x23FE JUMP JUMPDEST PUSH1 0x2 ADD SLOAD TIMESTAMP LT SWAP2 POP PUSH2 0x13E4 PUSH2 0x14C8 JUMP JUMPDEST POP CALLVALUE PUSH2 0x293 JUMPI PUSH1 0x20 CALLDATASIZE PUSH1 0x3 NOT ADD SLT PUSH2 0x293 JUMPI PUSH1 0x4 CALLDATALOAD SWAP1 PUSH1 0x1 PUSH1 0x1 PUSH1 0x40 SHL SUB DUP3 GT PUSH2 0x293 JUMPI PUSH1 0x20 PUSH2 0x1528 DUP2 PUSH2 0xA5A CALLDATASIZE PUSH1 0x4 DUP8 ADD PUSH2 0x2373 JUMP JUMPDEST DUP2 ADD PUSH1 0x6 DUP2 MSTORE SUB ADD SWAP1 KECCAK256 SLOAD PUSH1 0x40 MLOAD SWAP1 DUP2 MSTORE RETURN JUMPDEST POP CALLVALUE PUSH2 0x293 JUMPI PUSH1 0x20 CALLDATASIZE PUSH1 0x3 NOT ADD SLT PUSH2 0x293 JUMPI PUSH1 0xFF SWAP1 PUSH1 0x40 SWAP1 PUSH1 0x1 PUSH1 0x1 PUSH1 0xA0 SHL SUB PUSH2 0x1563 PUSH2 0x2112 JUMP JUMPDEST AND DUP2 MSTORE PUSH1 0x7 PUSH1 0x20 MSTORE KECCAK256 DUP1 SLOAD SWAP1 DUP3 PUSH2 0x15DA PUSH1 0x1 DUP4 ADD SLOAD SWAP3 PUSH1 0x2 DUP2 ADD SLOAD PUSH1 0x4 PUSH2 0x158C PUSH1 0x3 DUP5 ADD PUSH2 0x2285 JUMP JUMPDEST SWAP3 ADD SLOAD SWAP5 PUSH1 0x40 MLOAD SWAP8 DUP8 PUSH2 0x15A2 DUP11 DUP4 DUP2 SWAP12 AND PUSH2 0x23FE JUMP JUMPDEST PUSH2 0x15B4 PUSH1 0x20 DUP11 ADD DUP4 DUP4 PUSH1 0x8 SHR AND PUSH2 0x240B JUMP JUMPDEST PUSH1 0x10 SHR AND ISZERO ISZERO PUSH1 0x40 DUP9 ADD MSTORE PUSH1 0x60 DUP8 ADD MSTORE PUSH1 0x80 DUP7 ADD MSTORE PUSH2 0x100 DUP1 PUSH1 0xA0 DUP8 ADD MSTORE DUP6 ADD SWAP1 PUSH2 0x234E JUMP JUMPDEST SWAP2 DUP2 DUP2 AND ISZERO ISZERO PUSH1 0xC0 DUP6 ADD MSTORE PUSH1 0x8 SHR AND ISZERO ISZERO PUSH1 0xE0 DUP4 ADD MSTORE SUB SWAP1 RETURN JUMPDEST POP CALLVALUE PUSH2 0x293 JUMPI DUP1 PUSH1 0x3 NOT CALLDATASIZE ADD SLT PUSH2 0x293 JUMPI PUSH1 0x20 PUSH1 0xFF PUSH1 0x1 SLOAD AND PUSH1 0x40 MLOAD SWAP1 ISZERO ISZERO DUP2 MSTORE RETURN JUMPDEST POP CALLVALUE PUSH2 0x293 JUMPI PUSH1 0x40 CALLDATASIZE PUSH1 0x3 NOT ADD SLT PUSH2 0x293 JUMPI PUSH2 0x1631 PUSH2 0x2112 JUMP JUMPDEST PUSH1 0x24 CALLDATALOAD SWAP2 PUSH1 0x5 DUP4 LT ISZERO PUSH2 0x293 JUMPI PUSH1 0x20 PUSH2 0x164A DUP5 DUP5 PUSH2 0x2FFF JUMP JUMPDEST PUSH1 0x40 MLOAD SWAP1 ISZERO ISZERO DUP2 MSTORE RETURN JUMPDEST POP CALLVALUE PUSH2 0x293 JUMPI PUSH1 0x60 CALLDATASIZE PUSH1 0x3 NOT ADD SLT PUSH2 0x293 JUMPI PUSH2 0x166E PUSH2 0x2112 JUMP JUMPDEST PUSH1 0x24 CALLDATALOAD PUSH1 0x1 PUSH1 0x1 PUSH1 0x40 SHL SUB DUP2 GT PUSH2 0x739 JUMPI PUSH2 0x168D SWAP1 CALLDATASIZE SWAP1 PUSH1 0x4 ADD PUSH2 0x2373 JUMP JUMPDEST SWAP1 PUSH1 0x44 CALLDATALOAD SWAP1 DUP2 ISZERO ISZERO DUP3 SUB PUSH2 0x735 JUMPI PUSH2 0x35C SWAP3 PUSH2 0x34B SWAP2 PUSH2 0x16AB PUSH2 0x243E JUMP JUMPDEST PUSH1 0x1 PUSH1 0x1 PUSH1 0xA0 SHL SUB AND DUP6 MSTORE PUSH1 0x7 PUSH1 0x20 MSTORE PUSH1 0x40 DUP6 KECCAK256 PUSH1 0x5 ADD SWAP1 PUSH2 0x2418 JUMP JUMPDEST POP CALLVALUE PUSH2 0x293 JUMPI PUSH1 0x40 CALLDATASIZE PUSH1 0x3 NOT ADD SLT PUSH2 0x293 JUMPI PUSH1 0x4 CALLDATALOAD PUSH1 0x5 DUP1 DUP3 LT ISZERO PUSH2 0x739 JUMPI PUSH1 0x24 SWAP2 DUP3 CALLDATALOAD SWAP1 PUSH1 0x1 PUSH1 0x1 PUSH1 0x40 SHL SUB DUP1 DUP4 GT PUSH2 0x1386 JUMPI CALLDATASIZE PUSH1 0x23 DUP5 ADD SLT ISZERO PUSH2 0x1386 JUMPI DUP3 PUSH1 0x4 ADD CALLDATALOAD SWAP4 PUSH2 0x1716 DUP6 PUSH2 0x23E7 JUMP JUMPDEST SWAP3 PUSH2 0x1724 PUSH1 0x40 MLOAD SWAP5 DUP6 PUSH2 0x2264 JUMP JUMPDEST DUP6 DUP5 MSTORE PUSH1 0x20 SWAP5 DUP6 DUP6 ADD DUP9 DUP2 SWAP9 DUP6 SHL DUP4 ADD ADD SWAP2 CALLDATASIZE DUP4 GT PUSH2 0x195F JUMPI DUP10 DUP2 ADD SWAP2 JUMPDEST DUP4 DUP4 LT PUSH2 0x1935 JUMPI POP POP POP POP PUSH2 0x175E SWAP1 PUSH2 0x1759 PUSH2 0x2738 JUMP JUMPDEST PUSH2 0x2191 JUMP JUMPDEST SWAP3 MLOAD SWAP5 PUSH9 0x10000000000000000 DUP7 GT PUSH2 0x1922 JUMPI DUP4 SLOAD DUP7 DUP6 SSTORE DUP1 DUP8 LT PUSH2 0x18B4 JUMPI JUMPDEST POP SWAP6 SWAP3 DUP8 MSTORE DUP4 DUP8 KECCAK256 SWAP3 DUP8 SWAP7 JUMPDEST DUP7 DUP9 LT PUSH2 0x1795 JUMPI DUP9 DUP1 RETURN JUMPDEST DUP1 MLOAD DUP1 MLOAD SWAP1 DUP6 DUP3 GT PUSH2 0x18A1 JUMPI SWAP1 DUP8 SWAP2 PUSH2 0x17AE DUP9 SLOAD PUSH2 0x21C3 JUMP JUMPDEST SWAP1 DUP13 PUSH1 0x1F SWAP3 DUP6 DUP5 DUP3 GT PUSH2 0x186D JUMPI JUMPDEST POP POP POP DUP13 DUP5 SWAP3 DUP5 GT PUSH1 0x1 EQ PUSH2 0x1806 JUMPI SWAP3 PUSH1 0x1 SWAP6 SWAP3 DUP2 SWAP3 DUP8 SWAP7 SWAP6 SWAP3 PUSH2 0x17FB JUMPI JUMPDEST POP POP PUSH1 0x0 NOT PUSH1 0x3 DUP4 SWAP1 SHL SHR NOT AND SWAP1 DUP5 SHL OR DUP9 SSTORE JUMPDEST ADD SWAP6 ADD SWAP8 ADD SWAP7 SWAP4 PUSH2 0x178A JUMP JUMPDEST ADD MLOAD SWAP1 POP CODESIZE DUP1 PUSH2 0x17DB JUMP JUMPDEST SWAP2 SWAP1 PUSH1 0x1F NOT DUP5 AND DUP11 DUP5 MSTORE DUP6 DUP5 KECCAK256 SWAP4 JUMPDEST DUP2 DUP2 LT PUSH2 0x1855 JUMPI POP SWAP2 PUSH1 0x1 SWAP7 SWAP4 SWAP2 DUP6 DUP9 SWAP8 SWAP7 SWAP5 LT PUSH2 0x183C JUMPI JUMPDEST POP POP POP DUP4 SHL DUP4 ADD DUP9 SSTORE PUSH2 0x17EF JUMP JUMPDEST ADD MLOAD PUSH1 0x0 NOT PUSH1 0xF8 DUP5 PUSH1 0x3 SHL AND SHR NOT AND SWAP1 SSTORE CODESIZE DUP1 DUP1 PUSH2 0x182E JUMP JUMPDEST DUP3 DUP5 ADD MLOAD DUP6 SSTORE DUP13 SWAP7 PUSH1 0x1 SWAP1 SWAP6 ADD SWAP5 SWAP4 DUP5 ADD SWAP4 ADD PUSH2 0x1815 JUMP JUMPDEST DUP3 DUP13 PUSH2 0x1890 SWAP5 MSTORE KECCAK256 DUP5 DUP1 DUP8 ADD DUP12 SHR DUP3 ADD SWAP3 DUP9 DUP9 LT PUSH2 0x1898 JUMPI JUMPDEST ADD DUP11 SHR ADD SWAP1 PUSH2 0x2CDF JUMP JUMPDEST DUP13 CODESIZE DUP6 PUSH2 0x17BC JUMP JUMPDEST SWAP3 POP DUP2 SWAP3 PUSH2 0x1886 JUMP JUMPDEST PUSH4 0x4E487B71 PUSH1 0xE0 SHL DUP12 MSTORE PUSH1 0x41 PUSH1 0x4 MSTORE DUP4 DUP12 REVERT JUMPDEST DUP5 DUP10 MSTORE DUP7 DUP7 DUP11 KECCAK256 SWAP2 DUP3 ADD SWAP2 ADD JUMPDEST DUP2 DUP2 LT PUSH2 0x18CE JUMPI POP PUSH2 0x177E JUMP JUMPDEST DUP1 DUP11 PUSH2 0x18DC PUSH1 0x1 SWAP4 SLOAD PUSH2 0x21C3 JUMP JUMPDEST DUP1 PUSH2 0x18EA JUMPI JUMPDEST POP POP ADD PUSH2 0x18C1 JUMP JUMPDEST PUSH1 0x1F DUP1 DUP3 GT DUP6 EQ PUSH2 0x1901 JUMPI POP POP DUP2 SSTORE JUMPDEST DUP11 CODESIZE PUSH2 0x18E2 JUMP JUMPDEST PUSH2 0x1919 SWAP1 DUP5 DUP5 MSTORE DUP12 DUP5 KECCAK256 SWAP3 ADD DUP9 SHR DUP3 ADD DUP6 DUP4 ADD PUSH2 0x2CDF JUMP JUMPDEST DUP2 DUP4 SSTORE SSTORE PUSH2 0x18FA JUMP JUMPDEST PUSH4 0x4E487B71 PUSH1 0xE0 SHL DUP9 MSTORE PUSH1 0x41 PUSH1 0x4 MSTORE DUP7 DUP9 REVERT JUMPDEST DUP3 CALLDATALOAD DUP8 DUP2 GT PUSH2 0x195B JUMPI DUP10 SWAP2 PUSH2 0x1950 DUP4 SWAP3 DUP15 CALLDATASIZE SWAP2 DUP8 ADD ADD PUSH2 0x2373 JUMP JUMPDEST DUP2 MSTORE ADD SWAP3 ADD SWAP2 PUSH2 0x1742 JUMP JUMPDEST DUP13 DUP1 REVERT JUMPDEST DUP11 DUP1 REVERT JUMPDEST POP CALLVALUE PUSH2 0x293 JUMPI DUP1 PUSH1 0x3 NOT CALLDATASIZE ADD SLT PUSH2 0x293 JUMPI PUSH1 0x20 PUSH1 0x40 MLOAD PUSH32 0x83097FBFEFD57FD31B39E2B5622F6A89D5F8C72F2C7FE78C26FDC120439EEB14 DUP2 MSTORE RETURN JUMPDEST POP CALLVALUE PUSH2 0x293 JUMPI DUP1 PUSH1 0x3 NOT CALLDATASIZE ADD SLT PUSH2 0x293 JUMPI PUSH2 0x19B7 PUSH2 0x2620 JUMP JUMPDEST PUSH1 0x1 SLOAD PUSH1 0xFF DUP2 AND ISZERO PUSH2 0x19F7 JUMPI PUSH1 0xFF NOT AND PUSH1 0x1 SSTORE PUSH32 0x5DB9EE0A495BF2E6FF9C91A7834C1BA4FDD244A5E8AA4E537BD38AEAE4B073AA PUSH1 0x20 PUSH1 0x40 MLOAD CALLER DUP2 MSTORE LOG1 DUP1 RETURN JUMPDEST PUSH1 0x40 MLOAD PUSH3 0x461BCD PUSH1 0xE5 SHL DUP2 MSTORE PUSH1 0x20 PUSH1 0x4 DUP3 ADD MSTORE PUSH1 0x14 PUSH1 0x24 DUP3 ADD MSTORE PUSH20 0x14185D5CD8589B194E881B9BDD081C185D5CD959 PUSH1 0x62 SHL PUSH1 0x44 DUP3 ADD MSTORE PUSH1 0x64 SWAP1 REVERT JUMPDEST POP CALLVALUE PUSH2 0x293 JUMPI PUSH1 0xC0 CALLDATASIZE PUSH1 0x3 NOT ADD SLT PUSH2 0x293 JUMPI PUSH2 0x1A4D PUSH2 0x2112 JUMP JUMPDEST PUSH1 0x24 CALLDATALOAD PUSH1 0x5 DUP2 LT ISZERO PUSH2 0x739 JUMPI PUSH1 0x1 PUSH1 0x1 PUSH1 0x40 SHL SUB PUSH1 0x44 CALLDATALOAD PUSH1 0x64 CALLDATALOAD DUP3 DUP2 GT PUSH2 0x1386 JUMPI PUSH2 0x1A7C SWAP1 CALLDATASIZE SWAP1 PUSH1 0x4 ADD PUSH2 0x2373 JUMP JUMPDEST SWAP2 PUSH2 0x1A85 PUSH2 0x23C9 JUMP JUMPDEST PUSH1 0xA4 CALLDATALOAD SWAP6 DUP7 ISZERO ISZERO DUP1 SWAP8 SUB PUSH2 0x1CA0 JUMPI PUSH2 0x1A9B PUSH2 0x243E JUMP JUMPDEST PUSH1 0x1 PUSH1 0x1 PUSH1 0xA0 SHL SUB AND SWAP6 PUSH2 0x1AB0 DUP8 ISZERO ISZERO PUSH2 0x2D16 JUMP JUMPDEST PUSH2 0x1ABB TIMESTAMP DUP6 GT PUSH2 0x2C93 JUMP JUMPDEST DUP7 DUP9 MSTORE PUSH1 0x20 SWAP5 PUSH1 0x7 DUP7 MSTORE PUSH1 0x40 DUP10 KECCAK256 SWAP4 DUP5 SLOAD SWAP6 PUSH1 0xFF DUP10 AND PUSH1 0xFF NOT DUP9 AND OR DUP7 SSTORE PUSH1 0x1 SWAP1 TIMESTAMP DUP3 DUP9 ADD SSTORE PUSH1 0x2 DUP8 ADD SSTORE PUSH1 0x3 DUP7 ADD SWAP3 DUP1 MLOAD SWAP3 DUP4 GT PUSH2 0x1C8C JUMPI DUP12 PUSH2 0x1AFF DUP6 SLOAD PUSH2 0x21C3 JUMP JUMPDEST DUP11 PUSH1 0x1F DUP3 GT PUSH2 0x1C5E JUMPI JUMPDEST POP POP POP DUP9 SWAP1 DUP13 PUSH1 0x1F DUP6 GT PUSH1 0x1 EQ PUSH2 0x1BCA JUMPI SWAP5 DUP5 DUP1 PUSH1 0xFF SWAP12 SWAP7 PUSH2 0x1BBB SWAP12 SWAP7 PUSH32 0x654640683B25F49EFDE9FAEB5740FD5D756CEEAD1F5F9D22B410E344013BE89C SWAP16 SWAP12 SWAP7 PUSH1 0x40 SWAP16 SWAP12 SWAP7 PUSH2 0x1BB3 SWAP12 SWAP5 PUSH2 0x1BBF JUMPI JUMPDEST POP POP SHL SWAP2 PUSH1 0x0 NOT SWAP1 PUSH1 0x3 SHL SHR NOT AND OR SWAP1 SSTORE JUMPDEST PUSH2 0x1B85 PUSH1 0x4 DUP5 ADD SWAP3 DUP4 SWAP1 PUSH1 0xFF DUP1 NOT DUP4 SLOAD AND SWAP2 ISZERO ISZERO AND OR SWAP1 SSTORE JUMP JUMPDEST DUP2 SLOAD PUSH2 0xFF00 NOT AND PUSH1 0x8 SWAP2 SWAP1 SWAP2 SHL PUSH2 0xFF00 AND OR SWAP1 SSTORE DUP1 SLOAD PUSH3 0xFF0000 NOT AND PUSH3 0x10000 OR SWAP1 SSTORE DUP7 MLOAD SWAP6 DUP7 SWAP2 AND PUSH2 0x23FE JUMP JUMPDEST DUP4 ADD SWAP1 PUSH2 0x23FE JUMP JUMPDEST LOG2 DUP1 RETURN JUMPDEST ADD MLOAD SWAP3 POP CODESIZE DUP1 PUSH2 0x1B59 JUMP JUMPDEST SWAP2 SWAP1 PUSH1 0x1F SWAP5 SWAP4 SWAP5 NOT DUP5 AND DUP7 DUP5 MSTORE DUP12 DUP5 KECCAK256 SWAP4 JUMPDEST DUP2 DUP2 LT PUSH2 0x1C49 JUMPI POP SWAP5 DUP5 PUSH32 0x654640683B25F49EFDE9FAEB5740FD5D756CEEAD1F5F9D22B410E344013BE89C SWAP14 SWAP10 SWAP5 PUSH1 0x40 SWAP14 SWAP10 SWAP5 PUSH2 0x1BB3 SWAP10 SWAP5 PUSH2 0x1BBB SWAP14 SWAP9 PUSH1 0xFF SWAP16 SWAP11 LT PUSH2 0x1C30 JUMPI JUMPDEST POP POP POP DUP2 SHL ADD SWAP1 SSTORE PUSH2 0x1B6B JUMP JUMPDEST ADD MLOAD PUSH1 0x0 NOT PUSH1 0xF8 DUP5 PUSH1 0x3 SHL AND SHR NOT AND SWAP1 SSTORE CODESIZE DUP1 DUP1 PUSH2 0x1C23 JUMP JUMPDEST DUP3 DUP5 ADD MLOAD DUP6 SSTORE SWAP4 DUP7 ADD SWAP4 SWAP3 DUP13 ADD SWAP3 DUP13 ADD PUSH2 0x1BDC JUMP JUMPDEST DUP3 DUP8 PUSH2 0x1C84 SWAP5 MSTORE KECCAK256 PUSH1 0x1F DUP7 ADD PUSH1 0x5 SHR DUP2 ADD SWAP2 DUP13 DUP8 LT PUSH2 0x631 JUMPI PUSH1 0x1F ADD PUSH1 0x5 SHR ADD SWAP1 PUSH2 0x2CDF JUMP JUMPDEST DUP12 CODESIZE DUP11 PUSH2 0x1B09 JUMP JUMPDEST PUSH4 0x4E487B71 PUSH1 0xE0 SHL DUP13 MSTORE PUSH1 0x41 PUSH1 0x4 MSTORE PUSH1 0x24 DUP13 REVERT JUMPDEST DUP8 DUP1 REVERT JUMPDEST POP CALLVALUE PUSH2 0x293 JUMPI PUSH1 0x40 CALLDATASIZE PUSH1 0x3 NOT ADD SLT PUSH2 0x293 JUMPI PUSH2 0x1CBE PUSH2 0x212D JUMP JUMPDEST CALLER PUSH1 0x1 PUSH1 0x1 PUSH1 0xA0 SHL SUB DUP3 AND SUB PUSH2 0x1CDA JUMPI PUSH2 0x35C SWAP1 PUSH1 0x4 CALLDATALOAD PUSH2 0x2AA8 JUMP JUMPDEST PUSH1 0x40 MLOAD PUSH3 0x461BCD PUSH1 0xE5 SHL DUP2 MSTORE PUSH1 0x20 PUSH1 0x4 DUP3 ADD MSTORE PUSH1 0x2F PUSH1 0x24 DUP3 ADD MSTORE PUSH32 0x416363657373436F6E74726F6C3A2063616E206F6E6C792072656E6F756E6365 PUSH1 0x44 DUP3 ADD MSTORE PUSH15 0x103937B632B9903337B91039B2B633 PUSH1 0x89 SHL PUSH1 0x64 DUP3 ADD MSTORE PUSH1 0x84 SWAP1 REVERT JUMPDEST POP CALLVALUE PUSH2 0x293 JUMPI PUSH1 0x40 CALLDATASIZE PUSH1 0x3 NOT ADD SLT PUSH2 0x293 JUMPI PUSH1 0x4 CALLDATALOAD PUSH2 0x1D54 PUSH2 0x212D JUMP JUMPDEST DUP2 DUP4 MSTORE DUP3 PUSH1 0x20 MSTORE PUSH2 0x1D6B PUSH1 0x1 PUSH1 0x40 DUP6 KECCAK256 ADD SLOAD PUSH2 0x29AA JUMP JUMPDEST DUP2 DUP4 MSTORE PUSH1 0x20 DUP4 DUP2 MSTORE PUSH1 0x40 DUP1 DUP6 KECCAK256 PUSH1 0x1 PUSH1 0x1 PUSH1 0xA0 SHL SUB SWAP1 SWAP4 AND DUP1 DUP7 MSTORE SWAP3 SWAP1 SWAP2 MSTORE DUP4 KECCAK256 SLOAD PUSH1 0xFF AND ISZERO PUSH2 0x1D99 JUMPI DUP3 DUP1 RETURN JUMPDEST DUP2 DUP4 MSTORE DUP3 PUSH1 0x20 MSTORE PUSH1 0x40 DUP4 KECCAK256 DUP2 DUP5 MSTORE PUSH1 0x20 MSTORE PUSH1 0x40 DUP4 KECCAK256 PUSH1 0x1 PUSH1 0xFF NOT DUP3 SLOAD AND OR SWAP1 SSTORE CALLER SWAP2 PUSH32 0x2F8788117E7EFF1D82E926EC794901D17C78024A50270940304540A733656F0D DUP5 DUP1 LOG4 CODESIZE DUP1 DUP3 DUP1 RETURN JUMPDEST POP CALLVALUE PUSH2 0x293 JUMPI PUSH2 0x1DFE PUSH2 0x1DF7 CALLDATASIZE PUSH2 0x2172 JUMP JUMPDEST SWAP2 SWAP1 PUSH2 0x2191 JUMP JUMPDEST DUP1 SLOAD DUP3 LT ISZERO PUSH2 0x739 JUMPI SWAP1 PUSH1 0x20 DUP4 PUSH2 0x1E1B SWAP4 PUSH2 0xB7A SWAP6 MSTORE KECCAK256 ADD PUSH2 0x2285 JUMP JUMPDEST PUSH1 0x40 MLOAD SWAP2 DUP3 SWAP2 PUSH1 0x20 DUP4 MSTORE PUSH1 0x20 DUP4 ADD SWAP1 PUSH2 0x234E JUMP JUMPDEST POP CALLVALUE PUSH2 0x293 JUMPI PUSH1 0x20 CALLDATASIZE PUSH1 0x3 NOT ADD SLT PUSH2 0x293 JUMPI PUSH1 0x1 PUSH1 0x40 PUSH1 0x20 SWAP3 PUSH1 0x4 CALLDATALOAD DUP2 MSTORE DUP1 DUP5 MSTORE KECCAK256 ADD SLOAD PUSH1 0x40 MLOAD SWAP1 DUP2 MSTORE RETURN JUMPDEST POP CALLVALUE PUSH2 0x293 JUMPI PUSH1 0x20 CALLDATASIZE PUSH1 0x3 NOT ADD SLT PUSH2 0x293 JUMPI PUSH1 0xFF PUSH1 0x3 PUSH1 0x40 PUSH1 0x20 SWAP4 PUSH1 0x4 CALLDATALOAD DUP2 MSTORE PUSH1 0x4 DUP6 MSTORE KECCAK256 ADD SLOAD AND PUSH1 0x40 MLOAD SWAP1 ISZERO ISZERO DUP2 MSTORE RETURN JUMPDEST POP CALLVALUE PUSH2 0x293 JUMPI PUSH1 0x20 CALLDATASIZE PUSH1 0x3 NOT ADD SLT PUSH2 0x293 JUMPI PUSH1 0x4 CALLDATALOAD SWAP1 PUSH1 0x4 DUP3 LT ISZERO PUSH2 0x293 JUMPI PUSH1 0x20 PUSH1 0xFF PUSH2 0x1EB9 DUP5 PUSH2 0x2143 JUMP JUMPDEST SLOAD AND PUSH1 0x40 MLOAD SWAP1 ISZERO ISZERO DUP2 MSTORE RETURN JUMPDEST POP CALLVALUE PUSH2 0x293 JUMPI DUP1 PUSH1 0x3 NOT CALLDATASIZE ADD SLT PUSH2 0x293 JUMPI PUSH1 0x20 PUSH1 0x40 MLOAD PUSH32 0xB6F0283BD1ED00C6AA7E988A7516070240F3610A34D167391359B648EB37CEFC DUP2 MSTORE RETURN JUMPDEST POP CALLVALUE PUSH2 0x293 JUMPI PUSH1 0x40 CALLDATASIZE PUSH1 0x3 NOT ADD SLT PUSH2 0x293 JUMPI PUSH2 0x1F1A PUSH2 0x2112 JUMP JUMPDEST PUSH1 0x24 SWAP1 DUP2 CALLDATALOAD SWAP1 PUSH1 0x4 DUP3 LT ISZERO PUSH2 0x735 JUMPI PUSH32 0xA74A1DA23C8F1860390394F1186574990FFF4EBB068F1AFD56911D72636B3E4 SWAP3 DUP4 DUP6 MSTORE PUSH1 0x20 SWAP4 DUP6 DUP6 MSTORE PUSH1 0x40 DUP7 KECCAK256 CALLER DUP8 MSTORE DUP6 MSTORE PUSH1 0xFF PUSH1 0x40 DUP8 KECCAK256 SLOAD AND ISZERO PUSH2 0x1FE4 JUMPI POP POP PUSH1 0x1 PUSH1 0x1 PUSH1 0xA0 SHL SUB AND SWAP2 PUSH32 0x5D2703BEF49435C353CBFA5E5412C9F40584E6174CE00E4E425F68364DAAD534 SWAP2 PUSH1 0x40 SWAP2 PUSH1 0xFF SWAP2 PUSH2 0x1BBB SWAP2 PUSH2 0x1FAD DUP8 ISZERO ISZERO PUSH2 0x2D16 JUMP JUMPDEST DUP7 DUP9 MSTORE PUSH1 0x7 DUP2 MSTORE PUSH2 0x1FDC DUP6 DUP10 KECCAK256 DUP1 SLOAD SWAP1 PUSH2 0xFF00 DUP6 PUSH1 0x8 SHL AND PUSH2 0xFF00 NOT DUP4 AND OR SWAP1 SSTORE DUP7 MLOAD SWAP6 DUP7 SWAP2 PUSH1 0x8 SHR AND PUSH2 0x240B JUMP JUMPDEST DUP4 ADD SWAP1 PUSH2 0x240B JUMP JUMPDEST DUP5 SWAP1 DUP7 PUSH2 0x1FF0 CALLER PUSH2 0x2B43 JUMP JUMPDEST SWAP2 PUSH1 0x40 MLOAD SWAP1 PUSH2 0x1FFE DUP3 PUSH2 0x2249 JUMP JUMPDEST PUSH1 0x42 DUP3 MSTORE DUP5 DUP3 ADD SWAP3 PUSH1 0x60 CALLDATASIZE DUP6 CALLDATACOPY DUP3 MLOAD ISZERO PUSH2 0x1373 JUMPI PUSH1 0x30 DUP5 MSTORE8 DUP3 MLOAD SWAP1 PUSH1 0x1 SWAP2 DUP3 LT ISZERO PUSH2 0x1360 JUMPI SWAP1 PUSH1 0x78 PUSH1 0x21 DUP6 ADD MSTORE8 PUSH1 0x41 SWAP2 JUMPDEST DUP2 DUP4 GT PUSH2 0x2077 JUMPI POP POP POP PUSH2 0x12B2 JUMPI PUSH1 0x48 PUSH2 0x12AE SWAP4 PUSH2 0x1283 SWAP4 PUSH2 0x1292 SWAP4 PUSH1 0x40 MLOAD SWAP6 DUP7 SWAP4 PUSH1 0x0 DUP1 MLOAD PUSH1 0x20 PUSH2 0x30E0 DUP4 CODECOPY DUP2 MLOAD SWAP2 MSTORE DUP11 DUP7 ADD MSTORE PUSH2 0x125A DUP2 MLOAD DUP1 SWAP3 DUP13 PUSH1 0x37 DUP10 ADD SWAP2 ADD PUSH2 0x232B JUMP JUMPDEST SWAP1 SWAP2 SWAP3 PUSH1 0xF DUP2 AND PUSH1 0x10 DUP2 LT ISZERO PUSH2 0x134D JUMPI PUSH16 0x181899199A1A9B1B9C1CB0B131B232B3 PUSH1 0x81 SHL SWAP1 BYTE PUSH2 0x20A7 DUP6 DUP8 PUSH2 0x2B1C JUMP JUMPDEST MSTORE8 PUSH1 0x4 SHR SWAP3 DUP1 ISZERO PUSH2 0x133A JUMPI PUSH1 0x0 NOT ADD SWAP2 SWAP1 PUSH2 0x202F JUMP JUMPDEST SWAP1 POP CALLVALUE PUSH2 0x35F JUMPI PUSH1 0x20 CALLDATASIZE PUSH1 0x3 NOT ADD SLT PUSH2 0x35F JUMPI PUSH1 0x4 CALLDATALOAD PUSH4 0xFFFFFFFF PUSH1 0xE0 SHL DUP2 AND DUP1 SWAP2 SUB PUSH2 0x739 JUMPI PUSH1 0x20 SWAP3 POP PUSH4 0x7965DB0B PUSH1 0xE0 SHL DUP2 EQ SWAP1 DUP2 ISZERO PUSH2 0x2101 JUMPI JUMPDEST POP ISZERO ISZERO DUP2 MSTORE RETURN JUMPDEST PUSH4 0x1FFC9A7 PUSH1 0xE0 SHL EQ SWAP1 POP CODESIZE PUSH2 0x20FA JUMP JUMPDEST PUSH1 0x4 CALLDATALOAD SWAP1 PUSH1 0x1 PUSH1 0x1 PUSH1 0xA0 SHL SUB DUP3 AND DUP3 SUB PUSH2 0x2128 JUMPI JUMP JUMPDEST PUSH1 0x0 DUP1 REVERT JUMPDEST PUSH1 0x24 CALLDATALOAD SWAP1 PUSH1 0x1 PUSH1 0x1 PUSH1 0xA0 SHL SUB DUP3 AND DUP3 SUB PUSH2 0x2128 JUMPI JUMP JUMPDEST PUSH1 0x4 DUP2 LT ISZERO PUSH2 0x215C JUMPI PUSH1 0x0 MSTORE PUSH1 0xB PUSH1 0x20 MSTORE PUSH1 0x40 PUSH1 0x0 KECCAK256 SWAP1 JUMP JUMPDEST PUSH4 0x4E487B71 PUSH1 0xE0 SHL PUSH1 0x0 MSTORE PUSH1 0x21 PUSH1 0x4 MSTORE PUSH1 0x24 PUSH1 0x0 REVERT JUMPDEST PUSH1 0x40 SWAP1 PUSH1 0x3 NOT ADD SLT PUSH2 0x2128 JUMPI PUSH1 0x4 CALLDATALOAD PUSH1 0x5 DUP2 LT ISZERO PUSH2 0x2128 JUMPI SWAP1 PUSH1 0x24 CALLDATALOAD SWAP1 JUMP JUMPDEST PUSH1 0x5 DUP2 LT ISZERO PUSH2 0x215C JUMPI PUSH1 0x0 MSTORE PUSH1 0xC PUSH1 0x20 MSTORE PUSH1 0x40 PUSH1 0x0 KECCAK256 SWAP1 JUMP JUMPDEST PUSH1 0x5 DUP2 LT ISZERO PUSH2 0x215C JUMPI PUSH1 0x0 MSTORE PUSH1 0xA PUSH1 0x20 MSTORE PUSH1 0x40 PUSH1 0x0 KECCAK256 SWAP1 JUMP JUMPDEST SWAP1 PUSH1 0x1 DUP3 DUP2 SHR SWAP3 AND DUP1 ISZERO PUSH2 0x21F3 JUMPI JUMPDEST PUSH1 0x20 DUP4 LT EQ PUSH2 0x21DD JUMPI JUMP JUMPDEST PUSH4 0x4E487B71 PUSH1 0xE0 SHL PUSH1 0x0 MSTORE PUSH1 0x22 PUSH1 0x4 MSTORE PUSH1 0x24 PUSH1 0x0 REVERT JUMPDEST SWAP2 PUSH1 0x7F AND SWAP2 PUSH2 0x21D2 JUMP JUMPDEST PUSH1 0xC0 DUP2 ADD SWAP1 DUP2 LT PUSH1 0x1 PUSH1 0x1 PUSH1 0x40 SHL SUB DUP3 GT OR PUSH2 0x2218 JUMPI PUSH1 0x40 MSTORE JUMP JUMPDEST PUSH4 0x4E487B71 PUSH1 0xE0 SHL PUSH1 0x0 MSTORE PUSH1 0x41 PUSH1 0x4 MSTORE PUSH1 0x24 PUSH1 0x0 REVERT JUMPDEST PUSH1 0x40 DUP2 ADD SWAP1 DUP2 LT PUSH1 0x1 PUSH1 0x1 PUSH1 0x40 SHL SUB DUP3 GT OR PUSH2 0x2218 JUMPI PUSH1 0x40 MSTORE JUMP JUMPDEST PUSH1 0x80 DUP2 ADD SWAP1 DUP2 LT PUSH1 0x1 PUSH1 0x1 PUSH1 0x40 SHL SUB DUP3 GT OR PUSH2 0x2218 JUMPI PUSH1 0x40 MSTORE JUMP JUMPDEST SWAP1 PUSH1 0x1F DUP1 NOT SWAP2 ADD AND DUP2 ADD SWAP1 DUP2 LT PUSH1 0x1 PUSH1 0x1 PUSH1 0x40 SHL SUB DUP3 GT OR PUSH2 0x2218 JUMPI PUSH1 0x40 MSTORE JUMP JUMPDEST SWAP1 PUSH1 0x40 MLOAD SWAP2 DUP3 PUSH1 0x0 DUP3 SLOAD SWAP3 PUSH2 0x2299 DUP5 PUSH2 0x21C3 JUMP JUMPDEST SWAP1 DUP2 DUP5 MSTORE PUSH1 0x1 SWAP5 DUP6 DUP2 AND SWAP1 DUP2 PUSH1 0x0 EQ PUSH2 0x2308 JUMPI POP PUSH1 0x1 EQ PUSH2 0x22C5 JUMPI JUMPDEST POP POP PUSH2 0x22C3 SWAP3 POP SUB DUP4 PUSH2 0x2264 JUMP JUMPDEST JUMP JUMPDEST SWAP1 SWAP4 SWAP2 POP PUSH1 0x0 MSTORE PUSH1 0x20 SWAP1 DUP2 PUSH1 0x0 KECCAK256 SWAP4 PUSH1 0x0 SWAP2 JUMPDEST DUP2 DUP4 LT PUSH2 0x22F0 JUMPI POP POP PUSH2 0x22C3 SWAP4 POP DUP3 ADD ADD CODESIZE DUP1 PUSH2 0x22B5 JUMP JUMPDEST DUP6 SLOAD DUP9 DUP5 ADD DUP6 ADD MSTORE SWAP5 DUP6 ADD SWAP5 DUP8 SWAP5 POP SWAP2 DUP4 ADD SWAP2 PUSH2 0x22D8 JUMP JUMPDEST SWAP2 POP POP PUSH2 0x22C3 SWAP5 POP PUSH1 0x20 SWAP3 POP PUSH1 0xFF NOT AND DUP3 DUP5 ADD MSTORE ISZERO ISZERO PUSH1 0x5 SHL DUP3 ADD ADD CODESIZE DUP1 PUSH2 0x22B5 JUMP JUMPDEST PUSH1 0x0 JUMPDEST DUP4 DUP2 LT PUSH2 0x233E JUMPI POP POP PUSH1 0x0 SWAP2 ADD MSTORE JUMP JUMPDEST DUP2 DUP2 ADD MLOAD DUP4 DUP3 ADD MSTORE PUSH1 0x20 ADD PUSH2 0x232E JUMP JUMPDEST SWAP1 PUSH1 0x20 SWAP2 PUSH2 0x2367 DUP2 MLOAD DUP1 SWAP3 DUP2 DUP6 MSTORE DUP6 DUP1 DUP7 ADD SWAP2 ADD PUSH2 0x232B JUMP JUMPDEST PUSH1 0x1F ADD PUSH1 0x1F NOT AND ADD ADD SWAP1 JUMP JUMPDEST DUP2 PUSH1 0x1F DUP3 ADD SLT ISZERO PUSH2 0x2128 JUMPI DUP1 CALLDATALOAD SWAP1 PUSH1 0x1 PUSH1 0x1 PUSH1 0x40 SHL SUB DUP3 GT PUSH2 0x2218 JUMPI PUSH1 0x40 MLOAD SWAP3 PUSH2 0x23A7 PUSH1 0x1F DUP5 ADD PUSH1 0x1F NOT AND PUSH1 0x20 ADD DUP6 PUSH2 0x2264 JUMP JUMPDEST DUP3 DUP5 MSTORE PUSH1 0x20 DUP4 DUP4 ADD ADD GT PUSH2 0x2128 JUMPI DUP2 PUSH1 0x0 SWAP3 PUSH1 0x20 DUP1 SWAP4 ADD DUP4 DUP7 ADD CALLDATACOPY DUP4 ADD ADD MSTORE SWAP1 JUMP JUMPDEST PUSH1 0x84 CALLDATALOAD SWAP1 DUP2 ISZERO ISZERO DUP3 SUB PUSH2 0x2128 JUMPI JUMP JUMPDEST PUSH1 0x24 CALLDATALOAD SWAP1 DUP2 ISZERO ISZERO DUP3 SUB PUSH2 0x2128 JUMPI JUMP JUMPDEST PUSH1 0x1 PUSH1 0x1 PUSH1 0x40 SHL SUB DUP2 GT PUSH2 0x2218 JUMPI PUSH1 0x5 SHL PUSH1 0x20 ADD SWAP1 JUMP JUMPDEST SWAP1 PUSH1 0x5 DUP3 LT ISZERO PUSH2 0x215C JUMPI MSTORE JUMP JUMPDEST SWAP1 PUSH1 0x4 DUP3 LT ISZERO PUSH2 0x215C JUMPI MSTORE JUMP JUMPDEST PUSH1 0x20 SWAP1 PUSH2 0x2432 SWAP3 DUP3 PUSH1 0x40 MLOAD SWAP5 DUP4 DUP7 DUP1 SWAP6 MLOAD SWAP4 DUP5 SWAP3 ADD PUSH2 0x232B JUMP JUMPDEST DUP3 ADD SWAP1 DUP2 MSTORE SUB ADD SWAP1 KECCAK256 SWAP1 JUMP JUMPDEST CALLER PUSH1 0x0 SWAP1 DUP2 MSTORE PUSH32 0x166BD8D584F780704D1C153D47707B580C8E4D76B4D9A1CB29BC71795107D628 PUSH1 0x20 SWAP1 DUP2 MSTORE PUSH1 0x40 DUP1 DUP4 KECCAK256 SLOAD SWAP1 SWAP3 PUSH32 0x7F7F429094C37FF5C03B15F8FAECF765516B1B4447846A09D1108959DA23663B SWAP2 PUSH1 0xFF AND ISZERO PUSH2 0x24A2 JUMPI POP POP POP POP JUMP JUMPDEST PUSH2 0x24AB CALLER PUSH2 0x2B43 JUMP JUMPDEST SWAP2 DUP5 MLOAD SWAP1 PUSH2 0x24B8 DUP3 PUSH2 0x2249 JUMP JUMPDEST PUSH1 0x42 DUP3 MSTORE DUP5 DUP3 ADD SWAP3 PUSH1 0x60 CALLDATASIZE DUP6 CALLDATACOPY DUP3 MLOAD ISZERO PUSH2 0x260C JUMPI PUSH1 0x30 DUP5 MSTORE8 DUP3 MLOAD SWAP1 PUSH1 0x1 SWAP2 DUP3 LT ISZERO PUSH2 0x260C JUMPI SWAP1 PUSH1 0x78 PUSH1 0x21 DUP6 ADD MSTORE8 PUSH1 0x41 SWAP2 JUMPDEST DUP2 DUP4 GT PUSH2 0x259E JUMPI POP POP POP PUSH2 0x255C JUMPI PUSH1 0x48 PUSH2 0x12AE SWAP4 DUP7 SWAP4 PUSH2 0x2540 SWAP4 PUSH2 0x2531 SWAP9 MLOAD SWAP9 DUP10 SWAP4 PUSH1 0x0 DUP1 MLOAD PUSH1 0x20 PUSH2 0x30E0 DUP4 CODECOPY DUP2 MLOAD SWAP2 MSTORE DUP11 DUP7 ADD MSTORE PUSH2 0x125A DUP2 MLOAD DUP1 SWAP3 DUP13 PUSH1 0x37 DUP10 ADD SWAP2 ADD PUSH2 0x232B JUMP JUMPDEST ADD SUB PUSH1 0x28 DUP2 ADD DUP8 MSTORE ADD DUP6 PUSH2 0x2264 JUMP JUMPDEST MLOAD SWAP3 DUP4 SWAP3 PUSH3 0x461BCD PUSH1 0xE5 SHL DUP5 MSTORE PUSH1 0x4 DUP5 ADD MSTORE PUSH1 0x24 DUP4 ADD SWAP1 PUSH2 0x234E JUMP JUMPDEST PUSH1 0x64 DUP5 DUP7 MLOAD SWAP1 PUSH3 0x461BCD PUSH1 0xE5 SHL DUP3 MSTORE DUP1 PUSH1 0x4 DUP4 ADD MSTORE PUSH1 0x24 DUP3 ADD MSTORE PUSH32 0x537472696E67733A20686578206C656E67746820696E73756666696369656E74 PUSH1 0x44 DUP3 ADD MSTORE REVERT JUMPDEST SWAP1 SWAP2 SWAP3 PUSH1 0xF DUP2 AND PUSH1 0x10 DUP2 LT ISZERO PUSH2 0x25F8 JUMPI PUSH16 0x181899199A1A9B1B9C1CB0B131B232B3 PUSH1 0x81 SHL SWAP1 BYTE PUSH2 0x25CE DUP6 DUP8 PUSH2 0x2B1C JUMP JUMPDEST MSTORE8 PUSH1 0x4 SHR SWAP3 DUP1 ISZERO PUSH2 0x25E4 JUMPI PUSH1 0x0 NOT ADD SWAP2 SWAP1 PUSH2 0x24E9 JUMP JUMPDEST PUSH4 0x4E487B71 PUSH1 0xE0 SHL DUP3 MSTORE PUSH1 0x11 PUSH1 0x4 MSTORE PUSH1 0x24 DUP3 REVERT JUMPDEST PUSH4 0x4E487B71 PUSH1 0xE0 SHL DUP4 MSTORE PUSH1 0x32 PUSH1 0x4 MSTORE PUSH1 0x24 DUP4 REVERT JUMPDEST PUSH4 0x4E487B71 PUSH1 0xE0 SHL DUP2 MSTORE PUSH1 0x32 PUSH1 0x4 MSTORE PUSH1 0x24 SWAP1 REVERT JUMPDEST CALLER PUSH1 0x0 SWAP1 DUP2 MSTORE PUSH32 0xAD3228B676F7D3CD4284A5443F17F1962B36E491B30A40B2405849E597BA5FB5 PUSH1 0x20 SWAP1 DUP2 MSTORE PUSH1 0x40 DUP1 DUP4 KECCAK256 SLOAD SWAP1 SWAP3 SWAP1 PUSH1 0xFF AND ISZERO PUSH2 0x2662 JUMPI POP POP POP JUMP JUMPDEST PUSH2 0x266B CALLER PUSH2 0x2B43 JUMP JUMPDEST SWAP1 DUP1 DUP5 MLOAD SWAP1 PUSH2 0x2679 DUP3 PUSH2 0x2249 JUMP JUMPDEST PUSH1 0x42 DUP3 MSTORE DUP5 DUP3 ADD SWAP3 PUSH1 0x60 CALLDATASIZE DUP6 CALLDATACOPY DUP3 MLOAD ISZERO PUSH2 0x260C JUMPI PUSH1 0x30 DUP5 MSTORE8 DUP3 MLOAD SWAP1 PUSH1 0x1 SWAP2 DUP3 LT ISZERO PUSH2 0x260C JUMPI SWAP1 PUSH1 0x78 PUSH1 0x21 DUP6 ADD MSTORE8 PUSH1 0x41 SWAP2 JUMPDEST DUP2 DUP4 GT PUSH2 0x26F2 JUMPI POP POP POP PUSH2 0x255C JUMPI PUSH1 0x48 PUSH2 0x12AE SWAP4 DUP7 SWAP4 PUSH2 0x2540 SWAP4 PUSH2 0x2531 SWAP9 MLOAD SWAP9 DUP10 SWAP4 PUSH1 0x0 DUP1 MLOAD PUSH1 0x20 PUSH2 0x30E0 DUP4 CODECOPY DUP2 MLOAD SWAP2 MSTORE DUP11 DUP7 ADD MSTORE PUSH2 0x125A DUP2 MLOAD DUP1 SWAP3 DUP13 PUSH1 0x37 DUP10 ADD SWAP2 ADD PUSH2 0x232B JUMP JUMPDEST SWAP1 SWAP2 SWAP3 PUSH1 0xF DUP2 AND PUSH1 0x10 DUP2 LT ISZERO PUSH2 0x25F8 JUMPI PUSH16 0x181899199A1A9B1B9C1CB0B131B232B3 PUSH1 0x81 SHL SWAP1 BYTE PUSH2 0x2722 DUP6 DUP8 PUSH2 0x2B1C JUMP JUMPDEST MSTORE8 PUSH1 0x4 SHR SWAP3 DUP1 ISZERO PUSH2 0x25E4 JUMPI PUSH1 0x0 NOT ADD SWAP2 SWAP1 PUSH2 0x26AA JUMP JUMPDEST CALLER PUSH1 0x0 SWAP1 DUP2 MSTORE PUSH32 0x3A23F3A59D99CC05771291F7D14DB8DC89910C5EDD6302658701A433D05C7FC0 PUSH1 0x20 SWAP1 DUP2 MSTORE PUSH1 0x40 DUP1 DUP4 KECCAK256 SLOAD SWAP1 SWAP3 PUSH32 0xB6F0283BD1ED00C6AA7E988A7516070240F3610A34D167391359B648EB37CEFC SWAP2 PUSH1 0xFF AND ISZERO PUSH2 0x279C JUMPI POP POP POP POP JUMP JUMPDEST PUSH2 0x27A5 CALLER PUSH2 0x2B43 JUMP JUMPDEST SWAP2 DUP5 MLOAD SWAP1 PUSH2 0x27B2 DUP3 PUSH2 0x2249 JUMP JUMPDEST PUSH1 0x42 DUP3 MSTORE DUP5 DUP3 ADD SWAP3 PUSH1 0x60 CALLDATASIZE DUP6 CALLDATACOPY DUP3 MLOAD ISZERO PUSH2 0x260C JUMPI PUSH1 0x30 DUP5 MSTORE8 DUP3 MLOAD SWAP1 PUSH1 0x1 SWAP2 DUP3 LT ISZERO PUSH2 0x260C JUMPI SWAP1 PUSH1 0x78 PUSH1 0x21 DUP6 ADD MSTORE8 PUSH1 0x41 SWAP2 JUMPDEST DUP2 DUP4 GT PUSH2 0x282B JUMPI POP POP POP PUSH2 0x255C JUMPI PUSH1 0x48 PUSH2 0x12AE SWAP4 DUP7 SWAP4 PUSH2 0x2540 SWAP4 PUSH2 0x2531 SWAP9 MLOAD SWAP9 DUP10 SWAP4 PUSH1 0x0 DUP1 MLOAD PUSH1 0x20 PUSH2 0x30E0 DUP4 CODECOPY DUP2 MLOAD SWAP2 MSTORE DUP11 DUP7 ADD MSTORE PUSH2 0x125A DUP2 MLOAD DUP1 SWAP3 DUP13 PUSH1 0x37 DUP10 ADD SWAP2 ADD PUSH2 0x232B JUMP JUMPDEST SWAP1 SWAP2 SWAP3 PUSH1 0xF DUP2 AND PUSH1 0x10 DUP2 LT ISZERO PUSH2 0x25F8 JUMPI PUSH16 0x181899199A1A9B1B9C1CB0B131B232B3 PUSH1 0x81 SHL SWAP1 BYTE PUSH2 0x285B DUP6 DUP8 PUSH2 0x2B1C JUMP JUMPDEST MSTORE8 PUSH1 0x4 SHR SWAP3 DUP1 ISZERO PUSH2 0x25E4 JUMPI PUSH1 0x0 NOT ADD SWAP2 SWAP1 PUSH2 0x27E3 JUMP JUMPDEST CALLER PUSH1 0x0 SWAP1 DUP2 MSTORE PUSH32 0x40B1BD9CD7F4DAA903ACD4708B5EC90113AB5DF409DE851F4494E939D248F64E PUSH1 0x20 SWAP1 DUP2 MSTORE PUSH1 0x40 DUP1 DUP4 KECCAK256 SLOAD SWAP1 SWAP3 PUSH32 0x83097FBFEFD57FD31B39E2B5622F6A89D5F8C72F2C7FE78C26FDC120439EEB14 SWAP2 PUSH1 0xFF AND ISZERO PUSH2 0x28D5 JUMPI POP POP POP POP JUMP JUMPDEST PUSH2 0x28DE CALLER PUSH2 0x2B43 JUMP JUMPDEST SWAP2 DUP5 MLOAD SWAP1 PUSH2 0x28EB DUP3 PUSH2 0x2249 JUMP JUMPDEST PUSH1 0x42 DUP3 MSTORE DUP5 DUP3 ADD SWAP3 PUSH1 0x60 CALLDATASIZE DUP6 CALLDATACOPY DUP3 MLOAD ISZERO PUSH2 0x260C JUMPI PUSH1 0x30 DUP5 MSTORE8 DUP3 MLOAD SWAP1 PUSH1 0x1 SWAP2 DUP3 LT ISZERO PUSH2 0x260C JUMPI SWAP1 PUSH1 0x78 PUSH1 0x21 DUP6 ADD MSTORE8 PUSH1 0x41 SWAP2 JUMPDEST DUP2 DUP4 GT PUSH2 0x2964 JUMPI POP POP POP PUSH2 0x255C JUMPI PUSH1 0x48 PUSH2 0x12AE SWAP4 DUP7 SWAP4 PUSH2 0x2540 SWAP4 PUSH2 0x2531 SWAP9 MLOAD SWAP9 DUP10 SWAP4 PUSH1 0x0 DUP1 MLOAD PUSH1 0x20 PUSH2 0x30E0 DUP4 CODECOPY DUP2 MLOAD SWAP2 MSTORE DUP11 DUP7 ADD MSTORE PUSH2 0x125A DUP2 MLOAD DUP1 SWAP3 DUP13 PUSH1 0x37 DUP10 ADD SWAP2 ADD PUSH2 0x232B JUMP JUMPDEST SWAP1 SWAP2 SWAP3 PUSH1 0xF DUP2 AND PUSH1 0x10 DUP2 LT ISZERO PUSH2 0x25F8 JUMPI PUSH16 0x181899199A1A9B1B9C1CB0B131B232B3 PUSH1 0x81 SHL SWAP1 BYTE PUSH2 0x2994 DUP6 DUP8 PUSH2 0x2B1C JUMP JUMPDEST MSTORE8 PUSH1 0x4 SHR SWAP3 DUP1 ISZERO PUSH2 0x25E4 JUMPI PUSH1 0x0 NOT ADD SWAP2 SWAP1 PUSH2 0x291C JUMP JUMPDEST PUSH1 0x0 SWAP1 DUP1 DUP3 MSTORE PUSH1 0x20 SWAP1 DUP3 DUP3 MSTORE PUSH1 0x40 SWAP3 DUP4 DUP2 KECCAK256 CALLER DUP3 MSTORE DUP4 MSTORE PUSH1 0xFF DUP5 DUP3 KECCAK256 SLOAD AND ISZERO PUSH2 0x29D3 JUMPI POP POP POP POP JUMP JUMPDEST PUSH2 0x29DC CALLER PUSH2 0x2B43 JUMP JUMPDEST SWAP2 DUP5 MLOAD SWAP1 PUSH2 0x29E9 DUP3 PUSH2 0x2249 JUMP JUMPDEST PUSH1 0x42 DUP3 MSTORE DUP5 DUP3 ADD SWAP3 PUSH1 0x60 CALLDATASIZE DUP6 CALLDATACOPY DUP3 MLOAD ISZERO PUSH2 0x260C JUMPI PUSH1 0x30 DUP5 MSTORE8 DUP3 MLOAD SWAP1 PUSH1 0x1 SWAP2 DUP3 LT ISZERO PUSH2 0x260C JUMPI SWAP1 PUSH1 0x78 PUSH1 0x21 DUP6 ADD MSTORE8 PUSH1 0x41 SWAP2 JUMPDEST DUP2 DUP4 GT PUSH2 0x2A62 JUMPI POP POP POP PUSH2 0x255C JUMPI PUSH1 0x48 PUSH2 0x12AE SWAP4 DUP7 SWAP4 PUSH2 0x2540 SWAP4 PUSH2 0x2531 SWAP9 MLOAD SWAP9 DUP10 SWAP4 PUSH1 0x0 DUP1 MLOAD PUSH1 0x20 PUSH2 0x30E0 DUP4 CODECOPY DUP2 MLOAD SWAP2 MSTORE DUP11 DUP7 ADD MSTORE PUSH2 0x125A DUP2 MLOAD DUP1 SWAP3 DUP13 PUSH1 0x37 DUP10 ADD SWAP2 ADD PUSH2 0x232B JUMP JUMPDEST SWAP1 SWAP2 SWAP3 PUSH1 0xF DUP2 AND PUSH1 0x10 DUP2 LT ISZERO PUSH2 0x25F8 JUMPI PUSH16 0x181899199A1A9B1B9C1CB0B131B232B3 PUSH1 0x81 SHL SWAP1 BYTE PUSH2 0x2A92 DUP6 DUP8 PUSH2 0x2B1C JUMP JUMPDEST MSTORE8 PUSH1 0x4 SHR SWAP3 DUP1 ISZERO PUSH2 0x25E4 JUMPI PUSH1 0x0 NOT ADD SWAP2 SWAP1 PUSH2 0x2A1A JUMP JUMPDEST SWAP1 PUSH1 0x0 SWAP2 DUP1 DUP4 MSTORE DUP3 PUSH1 0x20 MSTORE PUSH1 0x40 DUP4 KECCAK256 SWAP2 PUSH1 0x1 DUP1 PUSH1 0xA0 SHL SUB AND SWAP2 DUP3 DUP5 MSTORE PUSH1 0x20 MSTORE PUSH1 0xFF PUSH1 0x40 DUP5 KECCAK256 SLOAD AND PUSH2 0x2AD8 JUMPI POP POP POP JUMP JUMPDEST DUP1 DUP4 MSTORE DUP3 PUSH1 0x20 MSTORE PUSH1 0x40 DUP4 KECCAK256 DUP3 DUP5 MSTORE PUSH1 0x20 MSTORE PUSH1 0x40 DUP4 KECCAK256 PUSH1 0xFF NOT DUP2 SLOAD AND SWAP1 SSTORE PUSH32 0xF6391F5C32D9C69D2A47EA670B442974B53935D1EDC7FD64EB21E047A839171B CALLER SWAP4 DUP1 LOG4 JUMP JUMPDEST SWAP1 DUP2 MLOAD DUP2 LT ISZERO PUSH2 0x2B2D JUMPI ADD PUSH1 0x20 ADD SWAP1 JUMP JUMPDEST PUSH4 0x4E487B71 PUSH1 0xE0 SHL PUSH1 0x0 MSTORE PUSH1 0x32 PUSH1 0x4 MSTORE PUSH1 0x24 PUSH1 0x0 REVERT JUMPDEST PUSH1 0x40 MLOAD SWAP1 PUSH1 0x60 DUP3 ADD DUP3 DUP2 LT PUSH1 0x1 PUSH1 0x1 PUSH1 0x40 SHL SUB DUP3 GT OR PUSH2 0x2218 JUMPI PUSH1 0x40 MSTORE PUSH1 0x2A DUP3 MSTORE PUSH1 0x20 DUP3 ADD PUSH1 0x40 CALLDATASIZE DUP3 CALLDATACOPY DUP3 MLOAD ISZERO PUSH2 0x2B2D JUMPI PUSH1 0x30 SWAP1 MSTORE8 DUP2 MLOAD PUSH1 0x1 SWAP1 DUP2 LT ISZERO PUSH2 0x2B2D JUMPI PUSH1 0x78 PUSH1 0x21 DUP5 ADD MSTORE8 PUSH1 0x29 SWAP1 JUMPDEST DUP1 DUP3 GT PUSH2 0x2BE3 JUMPI POP POP PUSH2 0x2B9F JUMPI SWAP1 JUMP JUMPDEST PUSH1 0x64 PUSH1 0x40 MLOAD PUSH3 0x461BCD PUSH1 0xE5 SHL DUP2 MSTORE PUSH1 0x20 PUSH1 0x4 DUP3 ADD MSTORE PUSH1 0x20 PUSH1 0x24 DUP3 ADD MSTORE PUSH32 0x537472696E67733A20686578206C656E67746820696E73756666696369656E74 PUSH1 0x44 DUP3 ADD MSTORE REVERT JUMPDEST SWAP1 SWAP2 PUSH1 0xF DUP2 AND PUSH1 0x10 DUP2 LT ISZERO PUSH2 0x2C3C JUMPI PUSH16 0x181899199A1A9B1B9C1CB0B131B232B3 PUSH1 0x81 SHL SWAP1 BYTE PUSH2 0x2C12 DUP5 DUP7 PUSH2 0x2B1C JUMP JUMPDEST MSTORE8 PUSH1 0x4 SHR SWAP2 DUP1 ISZERO PUSH2 0x2C27 JUMPI PUSH1 0x0 NOT ADD SWAP1 PUSH2 0x2B8F JUMP JUMPDEST PUSH1 0x24 PUSH1 0x0 PUSH4 0x4E487B71 PUSH1 0xE0 SHL DUP2 MSTORE PUSH1 0x11 PUSH1 0x4 MSTORE REVERT JUMPDEST PUSH1 0x24 PUSH1 0x0 PUSH4 0x4E487B71 PUSH1 0xE0 SHL DUP2 MSTORE PUSH1 0x32 PUSH1 0x4 MSTORE REVERT JUMPDEST ISZERO PUSH2 0x2C58 JUMPI JUMP JUMPDEST PUSH1 0x40 MLOAD PUSH3 0x461BCD PUSH1 0xE5 SHL DUP2 MSTORE PUSH1 0x20 PUSH1 0x4 DUP3 ADD MSTORE PUSH1 0x13 PUSH1 0x24 DUP3 ADD MSTORE PUSH19 0x125B9D985B1A59081C1C9BDC195C9D1E481251 PUSH1 0x6A SHL PUSH1 0x44 DUP3 ADD MSTORE PUSH1 0x64 SWAP1 REVERT JUMPDEST ISZERO PUSH2 0x2C9A JUMPI JUMP JUMPDEST PUSH1 0x40 MLOAD PUSH3 0x461BCD PUSH1 0xE5 SHL DUP2 MSTORE PUSH1 0x20 PUSH1 0x4 DUP3 ADD MSTORE PUSH1 0x1D PUSH1 0x24 DUP3 ADD MSTORE PUSH32 0x4578706972792064617465206D75737420626520696E20667574757265000000 PUSH1 0x44 DUP3 ADD MSTORE PUSH1 0x64 SWAP1 REVERT JUMPDEST DUP2 DUP2 LT PUSH2 0x2CEA JUMPI POP POP JUMP JUMPDEST PUSH1 0x0 DUP2 SSTORE PUSH1 0x1 ADD PUSH2 0x2CDF JUMP JUMPDEST SWAP1 PUSH2 0x2D0E PUSH1 0x20 SWAP2 SWAP5 SWAP4 SWAP5 PUSH1 0x40 DUP5 MSTORE PUSH1 0x40 DUP5 ADD SWAP1 PUSH2 0x234E JUMP JUMPDEST SWAP4 ISZERO ISZERO SWAP2 ADD MSTORE JUMP JUMPDEST ISZERO PUSH2 0x2D1D JUMPI JUMP JUMPDEST PUSH1 0x40 MLOAD PUSH3 0x461BCD PUSH1 0xE5 SHL DUP2 MSTORE PUSH1 0x20 PUSH1 0x4 DUP3 ADD MSTORE PUSH1 0x14 PUSH1 0x24 DUP3 ADD MSTORE PUSH20 0x496E76616C696420757365722061646472657373 PUSH1 0x60 SHL PUSH1 0x44 DUP3 ADD MSTORE PUSH1 0x64 SWAP1 REVERT JUMPDEST SWAP1 DUP2 PUSH1 0x20 SWAP2 SUB SLT PUSH2 0x2128 JUMPI MLOAD DUP1 ISZERO ISZERO DUP2 SUB PUSH2 0x2128 JUMPI SWAP1 JUMP JUMPDEST SWAP3 SWAP2 PUSH1 0x40 SWAP4 DUP5 MLOAD SWAP3 PUSH4 0x1DF88671 PUSH1 0xE2 SHL DUP5 MSTORE DUP1 PUSH1 0x4 DUP6 ADD MSTORE PUSH1 0x20 SWAP4 DUP5 DUP2 PUSH1 0x24 DUP2 ADDRESS GAS STATICCALL SWAP1 DUP2 ISZERO PUSH2 0x2FF4 JUMPI PUSH1 0x0 SWAP2 PUSH2 0x2FD7 JUMPI JUMPDEST POP ISZERO PUSH2 0x2FA5 JUMPI DUP6 MLOAD SWAP1 PUSH4 0x1F89D6E5 PUSH1 0xE0 SHL DUP3 MSTORE PUSH1 0x4 DUP3 ADD MSTORE DUP4 DUP2 PUSH1 0x24 DUP2 ADDRESS GAS STATICCALL SWAP1 DUP2 ISZERO PUSH2 0x2F9A JUMPI PUSH1 0x0 SWAP2 PUSH2 0x2F6D JUMPI JUMPDEST POP ISZERO PUSH2 0x2F32 JUMPI PUSH1 0x1 PUSH1 0x1 PUSH1 0xA0 SHL SUB AND PUSH1 0x0 SWAP1 DUP2 MSTORE PUSH1 0x7 DUP4 MSTORE DUP5 SWAP1 KECCAK256 DUP1 SLOAD SWAP1 PUSH1 0x10 DUP3 SWAP1 SHR PUSH1 0xFF AND ISZERO SWAP1 DUP2 ISZERO PUSH2 0x2F23 JUMPI JUMPDEST POP PUSH2 0x2EE9 JUMPI PUSH1 0xFF PUSH2 0x2E16 DUP2 DUP4 PUSH1 0x8 SHR AND PUSH2 0x2143 JUMP JUMPDEST SLOAD AND ISZERO PUSH2 0x2EB5 JUMPI PUSH1 0xFF PUSH2 0x2E29 SWAP2 AND PUSH2 0x21AA JUMP JUMPDEST SLOAD LT PUSH2 0x2E5F JUMPI PUSH20 0x125B9D995CDD1B595B9D081D985B1A59185D1959 PUSH1 0x62 SHL PUSH1 0x1 SWAP4 MLOAD SWAP2 PUSH2 0x2E55 DUP4 PUSH2 0x222E JUMP JUMPDEST PUSH1 0x14 DUP4 MSTORE DUP3 ADD MSTORE SWAP1 JUMP JUMPDEST SWAP2 PUSH1 0x0 SWAP3 DUP2 MLOAD SWAP2 PUSH1 0x60 DUP4 ADD DUP4 DUP2 LT PUSH1 0x1 PUSH1 0x1 PUSH1 0x40 SHL SUB DUP3 GT OR PUSH2 0x2218 JUMPI PUSH3 0x1B5A5D PUSH1 0xEA SHL SWAP3 PUSH32 0x496E766573746D656E7420616D6F756E742065786365656473204B5943206C69 SWAP2 DUP4 MSTORE PUSH1 0x23 DUP6 MSTORE DUP5 ADD MSTORE DUP3 ADD MSTORE SWAP1 JUMP JUMPDEST POP POP PUSH22 0xAAE6CAE440829A9840E4D2E6D640E8DEDE40D0D2CED PUSH1 0x53 SHL PUSH1 0x0 SWAP4 MLOAD SWAP2 PUSH2 0x2EDF DUP4 PUSH2 0x222E JUMP JUMPDEST PUSH1 0x16 DUP4 MSTORE DUP3 ADD MSTORE SWAP1 JUMP JUMPDEST POP POP PUSH32 0x55736572204B59432065787069726564206F72206E6F7420617070726F766564 PUSH1 0x0 SWAP4 MLOAD SWAP2 PUSH2 0x2F1A DUP4 PUSH2 0x222E JUMP JUMPDEST DUP1 DUP4 MSTORE DUP3 ADD MSTORE SWAP1 JUMP JUMPDEST PUSH1 0x2 SWAP2 POP ADD SLOAD TIMESTAMP LT ISZERO CODESIZE PUSH2 0x2E01 JUMP JUMPDEST POP POP PUSH32 0x50726F7065727479206E6F7420444C4420726567697374657265640000000000 PUSH1 0x0 SWAP4 MLOAD SWAP2 PUSH2 0x2F63 DUP4 PUSH2 0x222E JUMP JUMPDEST PUSH1 0x1B DUP4 MSTORE DUP3 ADD MSTORE SWAP1 JUMP JUMPDEST PUSH2 0x2F8D SWAP2 POP DUP5 RETURNDATASIZE DUP7 GT PUSH2 0x2F93 JUMPI JUMPDEST PUSH2 0x2F85 DUP2 DUP4 PUSH2 0x2264 JUMP JUMPDEST DUP2 ADD SWAP1 PUSH2 0x2D59 JUMP JUMPDEST CODESIZE PUSH2 0x2DD2 JUMP JUMPDEST POP RETURNDATASIZE PUSH2 0x2F7B JUMP JUMPDEST DUP7 MLOAD RETURNDATASIZE PUSH1 0x0 DUP3 RETURNDATACOPY RETURNDATASIZE SWAP1 REVERT JUMPDEST POP POP POP PUSH32 0x50726F7065727479206E6F74205245524120636F6D706C69616E740000000000 PUSH1 0x0 SWAP4 MLOAD SWAP2 PUSH2 0x2F63 DUP4 PUSH2 0x222E JUMP JUMPDEST PUSH2 0x2FEE SWAP2 POP DUP6 RETURNDATASIZE DUP8 GT PUSH2 0x2F93 JUMPI PUSH2 0x2F85 DUP2 DUP4 PUSH2 0x2264 JUMP JUMPDEST CODESIZE PUSH2 0x2DA3 JUMP JUMPDEST DUP8 MLOAD RETURNDATASIZE PUSH1 0x0 DUP3 RETURNDATACOPY RETURNDATASIZE SWAP1 REVERT JUMPDEST SWAP2 SWAP1 PUSH2 0x300A SWAP1 PUSH2 0x2191 JUMP JUMPDEST SWAP1 DUP2 SLOAD SWAP3 PUSH2 0x3017 DUP5 PUSH2 0x23E7 JUMP JUMPDEST SWAP1 PUSH2 0x3025 PUSH1 0x40 MLOAD SWAP3 DUP4 PUSH2 0x2264 JUMP JUMPDEST DUP5 DUP3 MSTORE PUSH1 0x20 SWAP5 DUP6 DUP4 ADD PUSH1 0x0 SWAP6 DUP7 MSTORE DUP7 DUP7 KECCAK256 DUP7 SWAP2 JUMPDEST DUP4 DUP4 LT PUSH2 0x30BD JUMPI POP POP POP POP PUSH1 0x1 PUSH1 0x1 PUSH1 0xA0 SHL SUB AND DUP4 MSTORE PUSH1 0x7 DUP5 MSTORE PUSH1 0x40 DUP4 KECCAK256 PUSH1 0x5 SWAP5 SWAP1 DUP6 ADD SWAP2 DUP5 JUMPDEST DUP2 MLOAD DUP2 LT ISZERO PUSH2 0x30B1 JUMPI PUSH1 0xFF PUSH2 0x307C DUP6 DUP6 DUP5 DUP12 SHL DUP7 ADD ADD MLOAD PUSH2 0x2418 JUMP JUMPDEST SLOAD AND ISZERO PUSH2 0x30A8 JUMPI PUSH1 0x0 NOT DUP2 EQ PUSH2 0x3094 JUMPI PUSH1 0x1 ADD PUSH2 0x3060 JUMP JUMPDEST PUSH4 0x4E487B71 PUSH1 0xE0 SHL DUP7 MSTORE PUSH1 0x11 PUSH1 0x4 MSTORE PUSH1 0x24 DUP7 REVERT JUMPDEST POP POP POP POP SWAP2 POP SWAP1 JUMP JUMPDEST POP POP POP POP SWAP2 POP POP PUSH1 0x1 SWAP1 JUMP JUMPDEST PUSH1 0x1 DUP10 DUP2 SWAP3 PUSH2 0x30CE DUP6 SWAP13 SWAP10 SWAP13 PUSH2 0x2285 JUMP JUMPDEST DUP2 MSTORE ADD SWAP3 ADD SWAP3 ADD SWAP2 SWAP1 SWAP8 SWAP5 SWAP8 PUSH2 0x3039 JUMP INVALID COINBASE PUSH4 0x63657373 NUMBER PUSH16 0x6E74726F6C3A206163636F756E742000 STOP STOP STOP STOP STOP STOP STOP STOP LOG2 PUSH5 0x6970667358 0x22 SLT KECCAK256 SHL PUSH27 0xD92F506A033C8C92073CA3D9E8D4A3F06E7232EDCE87FFE38D5639 0xDF PUSH10 0xD964736F6C6343000813 STOP CALLER 0x2F DUP8 DUP9 GT PUSH31 0x7EFF1D82E926EC794901D17C78024A50270940304540A733656F0D00000000 "},"methodIdentifiers":{"AML_OFFICER_ROLE()":"f288e1fd","COMPLIANCE_OFFICER_ROLE()":"198596b5","DEFAULT_ADMIN_ROLE()":"a217fddf","DLD_OFFICER_ROLE()":"e5ec37ab","KYC_OFFICER_ROLE()":"e61fc7ce","RERA_OFFICER_ROLE()":"47a1aa76","allowedInvestmentRisk(uint8)":"1dcf55b1","authorizedAgents(address)":"efd76065","checkDLDCompliance(uint256)":"1f89d6e5","checkRERACompliance(uint256)":"77e219c4","checkUserAML(address)":"7d3cc6cf","checkUserKYC(address)":"6af4c0e8","dldCompliance(uint256)":"81b829ab","dldToPropertyId(string)":"6850dede","getPropertyComplianceSummary(uint256)":"e69c368e","getRoleAdmin(bytes32)":"248a9ca3","getUserComplianceSummary(address)":"e1ac85ff","grantRole(bytes32,address)":"2f2ff15d","hasRequiredDocuments(address,uint8)":"59746b2a","hasRole(bytes32,address)":"91d14854","isDeveloperVerified(address)":"6d93677c","maxInvestmentLimits(uint8)":"b49698a6","pause()":"8456cb59","paused()":"5c975abb","renounceRole(bytes32,address)":"36568abe","requiredDocuments(uint8,uint256)":"285d6f29","reraCompliance(uint256)":"f41d07b8","reraToPropertyId(string)":"d2299c49","revokeRole(bytes32,address)":"d547741f","setAMLRiskAllowance(uint8,bool)":"edb40fdf","setInvestmentLimit(uint8,uint256)":"dbe83777","setRequiredDocuments(uint8,string[])":"4a877973","submitDocument(address,string,bool)":"522f3906","supportsInterface(bytes4)":"01ffc9a7","unpause()":"3f4ba83a","updateDLDCompliance(uint256,string,string,string,bool)":"7dc1aac1","updateRERACompliance(uint256,string,uint256,bool,string,address)":"ed5a8cd2","updateUserAML(address,uint8)":"0e9fdfbc","updateUserKYC(address,uint8,uint256,string,bool,bool)":"3d9fbf92","userCompliance(address)":"66728c98","validateInvestment(address,uint256,uint256)":"a2e06303","verifiedDevelopers(address)":"ed79bae4","verifyDeveloper(address,bool)":"adfe3b01"}}}}}