{"contracts/PROPXToken.sol":{"PROPXToken":{"abi":[{"inputs":[{"internalType":"string","name":"name","type":"string"},{"internalType":"string","name":"symbol","type":"string"},{"internalType":"uint256","name":"_totalSupply","type":"uint256"},{"internalType":"uint256","name":"_pricePerToken","type":"uint256"},{"internalType":"address","name":"_developer","type":"address"},{"internalType":"address","name":"_factory","type":"address"},{"internalType":"string","name":"_cityCode","type":"string"},{"internalType":"uint8","name":"_category","type":"uint8"}],"stateMutability":"nonpayable","type":"constructor"},{"anonymous":false,"inputs":[{"indexed":true,"internalType":"address","name":"owner","type":"address"},{"indexed":true,"internalType":"address","name":"spender","type":"address"},{"indexed":false,"internalType":"uint256","name":"value","type":"uint256"}],"name":"Approval","type":"event"},{"anonymous":false,"inputs":[{"indexed":false,"internalType":"uint256","name":"totalAmount","type":"uint256"},{"indexed":false,"internalType":"uint256","name":"perTokenAmount","type":"uint256"}],"name":"DividendDistributed","type":"event"},{"anonymous":false,"inputs":[{"indexed":false,"internalType":"address","name":"account","type":"address"}],"name":"Paused","type":"event"},{"anonymous":false,"inputs":[{"indexed":false,"internalType":"uint256","name":"newValuation","type":"uint256"},{"indexed":false,"internalType":"uint256","name":"occupancyRate","type":"uint256"}],"name":"PropertyMetricsUpdated","type":"event"},{"anonymous":false,"inputs":[{"indexed":false,"internalType":"uint256","name":"salePrice","type":"uint256"},{"indexed":false,"internalType":"uint256","name":"perTokenReturn","type":"uint256"}],"name":"PropertySold","type":"event"},{"anonymous":false,"inputs":[{"indexed":true,"internalType":"address","name":"investor","type":"address"},{"indexed":false,"internalType":"uint256","name":"amount","type":"uint256"},{"indexed":false,"internalType":"uint256","name":"cost","type":"uint256"}],"name":"TokensPurchased","type":"event"},{"anonymous":false,"inputs":[{"indexed":true,"internalType":"address","name":"from","type":"address"},{"indexed":true,"internalType":"address","name":"to","type":"address"},{"indexed":false,"internalType":"uint256","name":"value","type":"uint256"}],"name":"Transfer","type":"event"},{"anonymous":false,"inputs":[{"indexed":false,"internalType":"address","name":"account","type":"address"}],"name":"Unpaused","type":"event"},{"inputs":[],"name":"MINIMUM_INVESTMENT","outputs":[{"internalType":"uint256","name":"","type":"uint256"}],"stateMutability":"view","type":"function"},{"inputs":[],"name":"activateToken","outputs":[],"stateMutability":"nonpayable","type":"function"},{"inputs":[{"internalType":"address","name":"owner","type":"address"},{"internalType":"address","name":"spender","type":"address"}],"name":"allowance","outputs":[{"internalType":"uint256","name":"","type":"uint256"}],"stateMutability":"view","type":"function"},{"inputs":[{"internalType":"address","name":"spender","type":"address"},{"internalType":"uint256","name":"amount","type":"uint256"}],"name":"approve","outputs":[{"internalType":"bool","name":"","type":"bool"}],"stateMutability":"nonpayable","type":"function"},{"inputs":[{"internalType":"address","name":"account","type":"address"}],"name":"balanceOf","outputs":[{"internalType":"uint256","name":"","type":"uint256"}],"stateMutability":"view","type":"function"},{"inputs":[{"internalType":"uint256","name":"tokenAmount","type":"uint256"}],"name":"buyTokens","outputs":[],"stateMutability":"payable","type":"function"},{"inputs":[],"name":"category","outputs":[{"internalType":"uint8","name":"","type":"uint8"}],"stateMutability":"view","type":"function"},{"inputs":[],"name":"cityCode","outputs":[{"internalType":"string","name":"","type":"string"}],"stateMutability":"view","type":"function"},{"inputs":[],"name":"claimDividends","outputs":[],"stateMutability":"nonpayable","type":"function"},{"inputs":[],"name":"decimals","outputs":[{"internalType":"uint8","name":"","type":"uint8"}],"stateMutability":"view","type":"function"},{"inputs":[{"internalType":"address","name":"spender","type":"address"},{"internalType":"uint256","name":"subtractedValue","type":"uint256"}],"name":"decreaseAllowance","outputs":[{"internalType":"bool","name":"","type":"bool"}],"stateMutability":"nonpayable","type":"function"},{"inputs":[],"name":"developer","outputs":[{"internalType":"address","name":"","type":"address"}],"stateMutability":"view","type":"function"},{"inputs":[],"name":"distributeDividends","outputs":[],"stateMutability":"payable","type":"function"},{"inputs":[],"name":"dividendPool","outputs":[{"internalType":"uint256","name":"","type":"uint256"}],"stateMutability":"view","type":"function"},{"inputs":[{"internalType":"address","name":"","type":"address"}],"name":"dividendsClaimed","outputs":[{"internalType":"uint256","name":"","type":"uint256"}],"stateMutability":"view","type":"function"},{"inputs":[],"name":"factory","outputs":[{"internalType":"address","name":"","type":"address"}],"stateMutability":"view","type":"function"},{"inputs":[],"name":"fundingDeadline","outputs":[{"internalType":"uint256","name":"","type":"uint256"}],"stateMutability":"view","type":"function"},{"inputs":[],"name":"fundingGoal","outputs":[{"internalType":"uint256","name":"","type":"uint256"}],"stateMutability":"view","type":"function"},{"inputs":[],"name":"getFundingStatus","outputs":[{"internalType":"uint256","name":"raised","type":"uint256"},{"internalType":"uint256","name":"goal","type":"uint256"},{"internalType":"uint256","name":"deadline","type":"uint256"},{"internalType":"bool","name":"funded","type":"bool"},{"internalType":"uint256","name":"tokensRemaining","type":"uint256"},{"internalType":"uint256","name":"investorCount","type":"uint256"}],"stateMutability":"view","type":"function"},{"inputs":[],"name":"getInvestmentMetrics","outputs":[{"internalType":"uint256","name":"currentYield","type":"uint256"},{"internalType":"uint256","name":"capRate","type":"uint256"},{"internalType":"uint256","name":"occupancyRate","type":"uint256"},{"internalType":"uint256","name":"totalReturn","type":"uint256"},{"internalType":"uint256","name":"annualizedReturn","type":"uint256"}],"stateMutability":"view","type":"function"},{"inputs":[],"name":"getTokenPrice","outputs":[{"internalType":"uint256","name":"marketPrice","type":"uint256"},{"internalType":"uint256","name":"navPrice","type":"uint256"}],"stateMutability":"view","type":"function"},{"inputs":[{"internalType":"address","name":"spender","type":"address"},{"internalType":"uint256","name":"addedValue","type":"uint256"}],"name":"increaseAllowance","outputs":[{"internalType":"bool","name":"","type":"bool"}],"stateMutability":"nonpayable","type":"function"},{"inputs":[{"internalType":"address","name":"","type":"address"}],"name":"investments","outputs":[{"internalType":"uint256","name":"","type":"uint256"}],"stateMutability":"view","type":"function"},{"inputs":[],"name":"isActive","outputs":[{"internalType":"bool","name":"","type":"bool"}],"stateMutability":"view","type":"function"},{"inputs":[],"name":"isFunded","outputs":[{"internalType":"bool","name":"","type":"bool"}],"stateMutability":"view","type":"function"},{"inputs":[],"name":"name","outputs":[{"internalType":"string","name":"","type":"string"}],"stateMutability":"view","type":"function"},{"inputs":[],"name":"paused","outputs":[{"internalType":"bool","name":"","type":"bool"}],"stateMutability":"view","type":"function"},{"inputs":[],"name":"performanceData","outputs":[{"internalType":"uint256","name":"totalDividendsPaid","type":"uint256"},{"internalType":"uint256","name":"lastDividendDate","type":"uint256"},{"internalType":"uint256","name":"averageMonthlyReturn","type":"uint256"},{"internalType":"uint256","name":"annualizedReturn","type":"uint256"},{"internalType":"uint256","name":"totalAppreciation","type":"uint256"}],"stateMutability":"view","type":"function"},{"inputs":[],"name":"pricePerToken","outputs":[{"internalType":"uint256","name":"","type":"uint256"}],"stateMutability":"view","type":"function"},{"inputs":[],"name":"propertyMetrics","outputs":[{"internalType":"uint256","name":"currentValuation","type":"uint256"},{"internalType":"uint256","name":"lastValuationDate","type":"uint256"},{"internalType":"uint256","name":"monthlyRental","type":"uint256"},{"internalType":"uint256","name":"occupancyRate","type":"uint256"},{"internalType":"uint256","name":"maintenanceCosts","type":"uint256"},{"internalType":"uint256","name":"capRate","type":"uint256"}],"stateMutability":"view","type":"function"},{"inputs":[],"name":"symbol","outputs":[{"internalType":"string","name":"","type":"string"}],"stateMutability":"view","type":"function"},{"inputs":[],"name":"totalRaised","outputs":[{"internalType":"uint256","name":"","type":"uint256"}],"stateMutability":"view","type":"function"},{"inputs":[],"name":"totalSupply","outputs":[{"internalType":"uint256","name":"","type":"uint256"}],"stateMutability":"view","type":"function"},{"inputs":[{"internalType":"address","name":"to","type":"address"},{"internalType":"uint256","name":"amount","type":"uint256"}],"name":"transfer","outputs":[{"internalType":"bool","name":"","type":"bool"}],"stateMutability":"nonpayable","type":"function"},{"inputs":[{"internalType":"address","name":"from","type":"address"},{"internalType":"address","name":"to","type":"address"},{"internalType":"uint256","name":"amount","type":"uint256"}],"name":"transferFrom","outputs":[{"internalType":"bool","name":"","type":"bool"}],"stateMutability":"nonpayable","type":"function"},{"inputs":[{"internalType":"uint256","name":"newValuation","type":"uint256"},{"internalType":"uint256","name":"monthlyRental","type":"uint256"},{"internalType":"uint256","name":"occupancyRate","type":"uint256"},{"internalType":"uint256","name":"maintenanceCosts","type":"uint256"}],"name":"updatePropertyMetrics","outputs":[],"stateMutability":"nonpayable","type":"function"},{"stateMutability":"payable","type":"receive"}],"evm":{"bytecode":{"linkReferences":{},"object":"60406080815234620006425762001ff490813803806200001f8162000647565b93843982019161010081840312620006425780516001600160401b039390848111620006425781620000539184016200066d565b90602080840151868111620006425782620000709186016200066d565b9385810151926060820151946200008a60808401620006df565b936200009960a08501620006df565b9260c08501518b8111620006425760e091620000b79187016200066d565b9401519360ff8516850362000642578251918b83116200053e57600354926001948585811c9516801562000637575b8386101462000621578190601f95868111620005ca575b508390868311600114620005605760009262000554575b505081861b916000199060031b1c1916176003555b89518c81116200053e5760049a8b548681811c9116801562000533575b848210146200051e57908186849311620004c8575b508390868311600114620004615760009262000455575b5050600019600383901b1c191690851b178a555b8360055560ff1996876006541660065530156200041457600254898101809111620003ff5760025530600052600082528b6000208981540190558b5189815260007fddf252ad1be2c89b69c2b068fc378daa952ba7f163c4a11628f55a4df523b3ef843093a3600a8a9055600780546001600160a01b0319166001600160a01b039290921691909117905560068054610100600160a81b031916600896871b610100600160a81b031617905581519b8c11620003ea5784548481811c91168015620003df575b82821014620003ca5780848e92116200037d575b505080928c116001146200030c5750998092819260ff9798999a9b9c60009462000300575b50501b916000199060031b1c19161790555b16906009541617600955818102918183041490151715620002eb57600b556276a700420190814211620002d65750600c55516118ff9081620006f58239f35b601190634e487b7160e01b6000525260246000fd5b601182634e487b7160e01b6000525260246000fd5b01519250388062000285565b909a91601f1983169b856000528c83600020936000915b8210620003645750508360ff98999a9b9c9d106200034a575b505050811b01905562000297565b015160001960f88460031b161c191690553880806200033c565b8284015185559386019392830192908101908e62000323565b866000528483600020918482850160051c84019410620003c0575b0160051c019085905b828110620003b357508d915062000260565b60008155018590620003a1565b9250819262000398565b60228b634e487b7160e01b6000525260246000fd5b90607f16906200024c565b60418a634e487b7160e01b6000525260246000fd5b60118c634e487b7160e01b6000525260246000fd5b60648b85848f519262461bcd60e51b845283015260248201527f45524332303a206d696e7420746f20746865207a65726f2061646472657373006044820152fd5b01519050388062000172565b60008e8152858120899550929190601f198516905b87828210620004b1575050841162000497575b505050811b018a5562000186565b015160001960f88460031b161c1916905538808062000489565b8385015186558b9790950194938401930162000476565b9091508c600052836000208680850160051c82019286861062000514575b918991869594930160051c01915b828110620005045750506200015b565b60008155859450899101620004f4565b92508192620004e6565b60228d634e487b7160e01b6000525260246000fd5b90607f169062000146565b634e487b7160e01b600052604160045260246000fd5b01519050388062000114565b90879350601f198316916003600052856000209260005b87828210620005b3575050841162000599575b505050811b0160035562000129565b015160001960f88460031b161c191690553880806200058a565b8385015186558b9790950194938401930162000577565b9091506003600052836000208680850160051c82019286861062000617575b918991869594930160051c01915b82811062000607575050620000fd565b60008155859450899101620005f7565b92508192620005e9565b634e487b7160e01b600052602260045260246000fd5b94607f1694620000e6565b600080fd5b6040519190601f01601f191682016001600160401b038111838210176200053e57604052565b919080601f84011215620006425782516001600160401b0381116200053e57602090620006a3601f8201601f1916830162000647565b92818452828287010111620006425760005b818110620006cb57508260009394955001015290565b8581018301518482018401528201620006b5565b51906001600160a01b0382168203620006425756fe60406080815260048036101561001f575b5050361561001d57600080fd5b005b600091823560e01c806303c833021461130e57806306fdde031461124c578063095ea7b314611222578063124403b9146111ea57806318160ddd146111cb57806318fa236c14611181578063207d0527146110fc57806322f3e2d4146110d857806323b872dd1461100c578063251d11dd14610eb057806330d172d514610e91578063313ce56714610e755780633610724e146109e9578063395093511461099a5780634b94f50e1461092a5780635c975abb14610906578063668038e0146107bf57806370a0823114610788578063796b23bb146107695780637a3a0e841461074a5780637b1b1de61461072b5780637c654303146107045780638955aa021461060e5780638a4660fe146105e957806395d89b41146104e957806396b98862146104b15780639778774714610467578063a457c2d7146103be578063a9059cbb1461038d578063c45a015514610360578063c5c4744c14610341578063ca4b208b14610318578063dd62ed3e146102ca578063ef430aa6146102a8578063f2dfc3fc1461022d5763f957417e146101b85750610010565b3461022957826003193601126102295760065460081c6001600160a01b031633036101ee5782600160ff19600e541617600e5580f35b906020606492519162461bcd60e51b8352820152601560248201527413db9b1e48199858dd1bdc9e4818d85b8818d85b1b605a1b6044820152fd5b8280fd5b8382346102a457816003193601126102a4579060c091600d5491600b5491600c5460ff600e5460081c169130845283602052808420549386151560001461029e575069021e19e0c9bab24000008604945b8151968752602087015285015215156060840152608083015260a0820152f35b9461027e565b5080fd5b8382346102a457816003193601126102a45760209060ff600954169051908152f35b8382346102a457806003193601126102a4576020916102e76114a3565b826102f06114be565b6001600160a01b03928316845260018652922091166000908152908352819020549051908152f35b8382346102a457816003193601126102a45760075490516001600160a01b039091168152602090f35b8382346102a457816003193601126102a457602090600d549051908152f35b8382346102a457816003193601126102a457600654905160089190911c6001600160a01b03168152602090f35b8382346102a457806003193601126102a4576020906103b76103ad6114a3565b602435903361152f565b5160018152f35b5091346104645782600319360112610464576103d86114a3565b91836024359233815260016020522060018060a01b038416600052602052836000205490828210610413576020856103b7858503873361169d565b608490602086519162461bcd60e51b8352820152602560248201527f45524332303a2064656372656173656420616c6c6f77616e63652062656c6f77604482015264207a65726f60d81b6064820152fd5b80fd5b508234610464578060031936011261046457506015546016546017546018546019549451938452602084019290925260408301526060820152608081019190915260a090f35b0390f35b8382346102a45760203660031901126102a45760209181906001600160a01b036104d96114a3565b168152601a845220549051908152f35b50823461046457806003193601126104645750805190600092805490600182811c918184169384156105df575b60209485851081146105cc578488529081156105aa5750600114610550575b6104ad8686610546828b03836114d4565b5191829182611477565b60009081529295507f8a35acfbc15ff81a39ae7d344fd709f28e8600b4aa8c65c6b64bfe7fe36bd19b5b82841061059757505050826104ad94610546928201019486610535565b805486850188015292860192810161057a565b60ff191687860152505050151560051b8301019250610546826104ad86610535565b634e487b7160e01b895260228352602489fd5b92607f1692610516565b8382346102a457816003193601126102a4576020905169021e19e0c9bab24000008152f35b50823461046457806003193601126104645750805190600092600854600181811c9181811680156106fa575b60209485851082146106e757508387529081156106c7575060011461066c575b505050610546826104ad9403836114d4565b600860009081529295507ff3f7a9fe364faab93b216da50a3214154f22a0a2b415b23a84c8169e8b636ee35b8284106106b457505050826104ad94610546928201019461065a565b8054868501880152928601928101610698565b60ff1916868501525050151560051b8301019250610546826104ad61065a565b634e487b7160e01b895260229052602488fd5b92607f169261063a565b8382346102a457816003193601126102a45760209060ff600e5460081c1690519015158152f35b8382346102a457816003193601126102a457602090600a549051908152f35b8382346102a457816003193601126102a457602090600b549051908152f35b8382346102a457816003193601126102a457602090600c549051908152f35b8382346102a45760203660031901126102a45760209181906001600160a01b036107b06114a3565b16815280845220549051908152f35b5090346102295782600319360112610229576107d9611873565b33835260208381528284205480156108d457600254903086528583528486205482039182116108c1579061081261081792601c546117eb565b6117fe565b91338552601b825283852054808403938085116108ae57146108745750838080938193338352601b8152601b610850838986205461150c565b9133855252868320553382f11561086a5750600160055580f35b51903d90823e3d90fd5b60649184519162461bcd60e51b835282015260166024820152754e6f206469766964656e647320617661696c61626c6560501b6044820152fd5b634e487b7160e01b875260118352602487fd5b634e487b7160e01b865260118452602486fd5b50606492519162461bcd60e51b8352820152600e60248201526d139bc81d1bdad95b9cc81a195b1960921b6044820152fd5b8382346102a457816003193601126102a45760209060ff6006541690519015158152f35b508234610464578060031936011261046457600a54600f54909190801561098f57600254913081528060205284812054830392831161097c5750610970929394506117fe565b82519182526020820152f35b634e487b7160e01b815260118652602490fd5b505080919250610970565b8382346102a457806003193601126102a4576103b7602092826109bb6114a3565b91338152600186522060018060a01b03821660005284526109e2602435846000205461150c565b903361169d565b50829060209283600319360112610229578035610a04611873565b60ff600e541615610e4057600a548015610e2b578069021e19e0c9bab2400000048210610de857610a3590826117eb565b3403610da657600c544211610d6d57308452838552808385205410610d2b57338452601a8552610a68348486205461150c565b338552601a865283852055610a7f34600d5461150c565b600d55610a8d81333061152f565b825190815234858201527f8fafebcaf9d154343dad25669bfa277f4fbacd7ac6b0c4fed522580e040a0f33833392a2600d54600b54811015610ad3575b83600160055580f35b610100918261ff0019600e541617600e556006549260018060a01b03968794856007541692888851809363030feae160e51b825286888301528160249d8e9260081c165afa918215610d21578992610c14575b50506060915001516003811015610c0257600203610be5576096830283810460961484151715610bd3576127109004925b83810392818411610bc1575086809850809697938193829387849114610bb8575bf115610bab5782809291819260065460081c16828215610ba2575bf11561086a5780808392610aca565b506108fc610b93565b50505051903d90823e3d90fd5b506108fc610b78565b634e487b7160e01b8852601190528787fd5b634e487b7160e01b8752601183528787fd5b60fa830283810460fa1484151715610bd357612710900492610b57565b634e487b7160e01b8752602183528787fd5b9091503d808a833e610c2681836114d4565b81018382820312610cfd57815167ffffffffffffffff92838211610d1d570191610120948584840312610d1d578a5195860186811083821117610d09578b5283518a81168103610d0557865280840151828111610d055783610c8991860161181e565b9086015289830151908111610d015790610ca491830161181e565b8884015260608101516003811015610cfd5760608401526080810151608084015260a081015160a084015260c081015160c084015260e08101518015158103610cfd5760e0840152810151908201526060908980610b26565b8980fd5b8a80fd5b8c80fd5b8d60418a634e487b7160e01b600052526000fd5b8b80fd5b88513d8b823e3d90fd5b5083606492519162461bcd60e51b8352820152601d60248201527f496e73756666696369656e7420746f6b656e7320617661696c61626c650000006044820152fd5b5083606492519162461bcd60e51b83528201526014602482015273119d5b991a5b99c81c195c9a5bd908195b99195960621b6044820152fd5b5083606492519162461bcd60e51b8352820152601860248201527f496e636f7272656374207061796d656e7420616d6f756e7400000000000000006044820152fd5b835162461bcd60e51b8152808401879052601860248201527f42656c6f77206d696e696d756d20696e766573746d656e7400000000000000006044820152606490fd5b601283634e487b7160e01b6000525260246000fd5b5083606492519162461bcd60e51b8352820152601060248201526f546f6b656e206e6f742061637469766560801b6044820152fd5b8382346102a457816003193601126102a4576020905160128152f35b8382346102a457816003193601126102a457602090601c549051908152f35b508290346102a45760803660031901126102a45782356024356044359060643590610ee660018060a01b0360075416331461179f565b83600f5542601055806011558260125581601355600c810290808204600c1490151715610ff957908291610f1e6127109384926117eb565b0490600c810290808204600c1490151715610fe65780820392828411610fd3578515610fa5578084029384041491141715610f92577f23c198dbe1a7bc6c0069db4509ebd9e5905eba75b79e3b28aba8fcf44a06666494955082610f81916117fe565b60145582519182526020820152a180f35b634e487b7160e01b855260118652602485fd5b50505050837f23c198dbe1a7bc6c0069db4509ebd9e5905eba75b79e3b28aba8fcf44a066664949550610f81565b634e487b7160e01b885260118952602488fd5b634e487b7160e01b875260118852602487fd5b634e487b7160e01b865260118752602486fd5b509190346102a45760603660031901126102a4576110286114a3565b6110306114be565b91846044359460018060a01b038416815260016020522033600052602052846000205490600019820361106c575b6020866103b787878761152f565b848210611095575091839161108a602096956103b79503338361169d565b91939481935061105e565b606490602087519162461bcd60e51b8352820152601d60248201527f45524332303a20696e73756666696369656e7420616c6c6f77616e63650000006044820152fd5b8382346102a457816003193601126102a45760209060ff600e541690519015158152f35b50913461046457806003193601126104645760175491600c830292808404600c149015171561116e5750506104ad601454926012546111406015546019549061150c565b906018549251958695869192608093969594919660a084019784526020840152604083015260608201520152565b634e487b7160e01b825260119052602490fd5b8382346102a457816003193601126102a45760c090600f549060105490601154601254906013549260145494815196875260208701528501526060840152608083015260a0820152f35b8382346102a457816003193601126102a4576020906002549051908152f35b8382346102a45760203660031901126102a45760209181906001600160a01b036112126114a3565b168152601b845220549051908152f35b8382346102a457806003193601126102a4576020906103b76112426114a3565b602435903361169d565b50823461046457806003193601126104645750805190600092600354600181811c918181168015611304575b60209485851082146106e757508387529081156106c757506001146112a957505050610546826104ad9403836114d4565b600360009081529295507fc2575a0e9e593c00f959f8c92f12db2869c3395a3b0502d05e2516446f71f85b5b8284106112f157505050826104ad94610546928201019461065a565b80548685018801529286019281016112d5565b92607f1692611278565b509190816003193601126102a45761133160018060a01b0360075416331461179f565b3415611411576002549030835282602052838320548211156113df5761135934601c5461150c565b601c55308352826020528383205482039182116113cc575061137b90346117fe565b916113883460155461150c565b60155542601655426113c7575b7f2f588cf4bb0247b0f3f60e06187f92e6fd1deaabb56e2bcc567235233787132791928151903482526020820152a180f35b611395565b634e487b7160e01b835260119052602482fd5b606490602085519162461bcd60e51b8352820152600c60248201526b4e6f20696e766573746f727360a01b6044820152fd5b606490602084519162461bcd60e51b8352820152601960248201527f4e6f206469766964656e6420746f2064697374726962757465000000000000006044820152fd5b60005b8381106114675750506000910152565b8181015183820152602001611457565b604091602082526114978151809281602086015260208686019101611454565b601f01601f1916010190565b600435906001600160a01b03821682036114b957565b600080fd5b602435906001600160a01b03821682036114b957565b90601f8019910116810190811067ffffffffffffffff8211176114f657604052565b634e487b7160e01b600052604160045260246000fd5b9190820180921161151957565b634e487b7160e01b600052601160045260246000fd5b6001600160a01b0390811691821561164a57169182156115f9576000828152806020526040812054918083106115a557604082827fddf252ad1be2c89b69c2b068fc378daa952ba7f163c4a11628f55a4df523b3ef958760209652828652038282205586815220818154019055604051908152a3565b60405162461bcd60e51b815260206004820152602660248201527f45524332303a207472616e7366657220616d6f756e7420657863656564732062604482015265616c616e636560d01b6064820152608490fd5b60405162461bcd60e51b815260206004820152602360248201527f45524332303a207472616e7366657220746f20746865207a65726f206164647260448201526265737360e81b6064820152608490fd5b60405162461bcd60e51b815260206004820152602560248201527f45524332303a207472616e736665722066726f6d20746865207a65726f206164604482015264647265737360d81b6064820152608490fd5b6001600160a01b0390811691821561174e57169182156116fe5760207f8c5be1e5ebec7d5bd14f71427d1e84f3dd0314c0f7b2291e5b200ac8c7c3b925918360005260018252604060002085600052825280604060002055604051908152a3565b60405162461bcd60e51b815260206004820152602260248201527f45524332303a20617070726f766520746f20746865207a65726f206164647265604482015261737360f01b6064820152608490fd5b60405162461bcd60e51b8152602060048201526024808201527f45524332303a20617070726f76652066726f6d20746865207a65726f206164646044820152637265737360e01b6064820152608490fd5b156117a657565b60405162461bcd60e51b815260206004820152601760248201527f4f6e6c7920646576656c6f7065722063616e2063616c6c0000000000000000006044820152606490fd5b8181029291811591840414171561151957565b8115611808570490565b634e487b7160e01b600052601260045260246000fd5b81601f820112156114b957805167ffffffffffffffff81116114f65760405192611852601f8301601f1916602001856114d4565b818452602082840101116114b9576118709160208085019101611454565b90565b600260055414611884576002600555565b60405162461bcd60e51b815260206004820152601f60248201527f5265656e7472616e637947756172643a207265656e7472616e742063616c6c006044820152606490fdfea264697066735822122097dc01171b3d1cd584a2906e2b781e81c8bbacec38338907b31641fc8b3dd75f64736f6c63430008130033","opcodes":"PUSH1 0x40 PUSH1 0x80 DUP2 MSTORE CALLVALUE PUSH3 0x642 JUMPI PUSH3 0x1FF4 SWAP1 DUP2 CODESIZE SUB DUP1 PUSH3 0x1F DUP2 PUSH3 0x647 JUMP JUMPDEST SWAP4 DUP5 CODECOPY DUP3 ADD SWAP2 PUSH2 0x100 DUP2 DUP5 SUB SLT PUSH3 0x642 JUMPI DUP1 MLOAD PUSH1 0x1 PUSH1 0x1 PUSH1 0x40 SHL SUB SWAP4 SWAP1 DUP5 DUP2 GT PUSH3 0x642 JUMPI DUP2 PUSH3 0x53 SWAP2 DUP5 ADD PUSH3 0x66D JUMP JUMPDEST SWAP1 PUSH1 0x20 DUP1 DUP5 ADD MLOAD DUP7 DUP2 GT PUSH3 0x642 JUMPI DUP3 PUSH3 0x70 SWAP2 DUP7 ADD PUSH3 0x66D JUMP JUMPDEST SWAP4 DUP6 DUP2 ADD MLOAD SWAP3 PUSH1 0x60 DUP3 ADD MLOAD SWAP5 PUSH3 0x8A PUSH1 0x80 DUP5 ADD PUSH3 0x6DF JUMP JUMPDEST SWAP4 PUSH3 0x99 PUSH1 0xA0 DUP6 ADD PUSH3 0x6DF JUMP JUMPDEST SWAP3 PUSH1 0xC0 DUP6 ADD MLOAD DUP12 DUP2 GT PUSH3 0x642 JUMPI PUSH1 0xE0 SWAP2 PUSH3 0xB7 SWAP2 DUP8 ADD PUSH3 0x66D JUMP JUMPDEST SWAP5 ADD MLOAD SWAP4 PUSH1 0xFF DUP6 AND DUP6 SUB PUSH3 0x642 JUMPI DUP3 MLOAD SWAP2 DUP12 DUP4 GT PUSH3 0x53E JUMPI PUSH1 0x3 SLOAD SWAP3 PUSH1 0x1 SWAP5 DUP6 DUP6 DUP2 SHR SWAP6 AND DUP1 ISZERO PUSH3 0x637 JUMPI JUMPDEST DUP4 DUP7 LT EQ PUSH3 0x621 JUMPI DUP2 SWAP1 PUSH1 0x1F SWAP6 DUP7 DUP2 GT PUSH3 0x5CA JUMPI JUMPDEST POP DUP4 SWAP1 DUP7 DUP4 GT PUSH1 0x1 EQ PUSH3 0x560 JUMPI PUSH1 0x0 SWAP3 PUSH3 0x554 JUMPI JUMPDEST POP POP DUP2 DUP7 SHL SWAP2 PUSH1 0x0 NOT SWAP1 PUSH1 0x3 SHL SHR NOT AND OR PUSH1 0x3 SSTORE JUMPDEST DUP10 MLOAD DUP13 DUP2 GT PUSH3 0x53E JUMPI PUSH1 0x4 SWAP11 DUP12 SLOAD DUP7 DUP2 DUP2 SHR SWAP2 AND DUP1 ISZERO PUSH3 0x533 JUMPI JUMPDEST DUP5 DUP3 LT EQ PUSH3 0x51E JUMPI SWAP1 DUP2 DUP7 DUP5 SWAP4 GT PUSH3 0x4C8 JUMPI JUMPDEST POP DUP4 SWAP1 DUP7 DUP4 GT PUSH1 0x1 EQ PUSH3 0x461 JUMPI PUSH1 0x0 SWAP3 PUSH3 0x455 JUMPI JUMPDEST POP POP PUSH1 0x0 NOT PUSH1 0x3 DUP4 SWAP1 SHL SHR NOT AND SWAP1 DUP6 SHL OR DUP11 SSTORE JUMPDEST DUP4 PUSH1 0x5 SSTORE PUSH1 0xFF NOT SWAP7 DUP8 PUSH1 0x6 SLOAD AND PUSH1 0x6 SSTORE ADDRESS ISZERO PUSH3 0x414 JUMPI PUSH1 0x2 SLOAD DUP10 DUP2 ADD DUP1 SWAP2 GT PUSH3 0x3FF JUMPI PUSH1 0x2 SSTORE ADDRESS PUSH1 0x0 MSTORE PUSH1 0x0 DUP3 MSTORE DUP12 PUSH1 0x0 KECCAK256 DUP10 DUP2 SLOAD ADD SWAP1 SSTORE DUP12 MLOAD DUP10 DUP2 MSTORE PUSH1 0x0 PUSH32 0xDDF252AD1BE2C89B69C2B068FC378DAA952BA7F163C4A11628F55A4DF523B3EF DUP5 ADDRESS SWAP4 LOG3 PUSH1 0xA DUP11 SWAP1 SSTORE PUSH1 0x7 DUP1 SLOAD PUSH1 0x1 PUSH1 0x1 PUSH1 0xA0 SHL SUB NOT AND PUSH1 0x1 PUSH1 0x1 PUSH1 0xA0 SHL SUB SWAP3 SWAP1 SWAP3 AND SWAP2 SWAP1 SWAP2 OR SWAP1 SSTORE PUSH1 0x6 DUP1 SLOAD PUSH2 0x100 PUSH1 0x1 PUSH1 0xA8 SHL SUB NOT AND PUSH1 0x8 SWAP7 DUP8 SHL PUSH2 0x100 PUSH1 0x1 PUSH1 0xA8 SHL SUB AND OR SWAP1 SSTORE DUP2 MLOAD SWAP12 DUP13 GT PUSH3 0x3EA JUMPI DUP5 SLOAD DUP5 DUP2 DUP2 SHR SWAP2 AND DUP1 ISZERO PUSH3 0x3DF JUMPI JUMPDEST DUP3 DUP3 LT EQ PUSH3 0x3CA JUMPI DUP1 DUP5 DUP15 SWAP3 GT PUSH3 0x37D JUMPI JUMPDEST POP POP DUP1 SWAP3 DUP13 GT PUSH1 0x1 EQ PUSH3 0x30C JUMPI POP SWAP10 DUP1 SWAP3 DUP2 SWAP3 PUSH1 0xFF SWAP8 SWAP9 SWAP10 SWAP11 SWAP12 SWAP13 PUSH1 0x0 SWAP5 PUSH3 0x300 JUMPI JUMPDEST POP POP SHL SWAP2 PUSH1 0x0 NOT SWAP1 PUSH1 0x3 SHL SHR NOT AND OR SWAP1 SSTORE JUMPDEST AND SWAP1 PUSH1 0x9 SLOAD AND OR PUSH1 0x9 SSTORE DUP2 DUP2 MUL SWAP2 DUP2 DUP4 DIV EQ SWAP1 ISZERO OR ISZERO PUSH3 0x2EB JUMPI PUSH1 0xB SSTORE PUSH3 0x76A700 TIMESTAMP ADD SWAP1 DUP2 TIMESTAMP GT PUSH3 0x2D6 JUMPI POP PUSH1 0xC SSTORE MLOAD PUSH2 0x18FF SWAP1 DUP2 PUSH3 0x6F5 DUP3 CODECOPY RETURN JUMPDEST PUSH1 0x11 SWAP1 PUSH4 0x4E487B71 PUSH1 0xE0 SHL PUSH1 0x0 MSTORE MSTORE PUSH1 0x24 PUSH1 0x0 REVERT JUMPDEST PUSH1 0x11 DUP3 PUSH4 0x4E487B71 PUSH1 0xE0 SHL PUSH1 0x0 MSTORE MSTORE PUSH1 0x24 PUSH1 0x0 REVERT JUMPDEST ADD MLOAD SWAP3 POP CODESIZE DUP1 PUSH3 0x285 JUMP JUMPDEST SWAP1 SWAP11 SWAP2 PUSH1 0x1F NOT DUP4 AND SWAP12 DUP6 PUSH1 0x0 MSTORE DUP13 DUP4 PUSH1 0x0 KECCAK256 SWAP4 PUSH1 0x0 SWAP2 JUMPDEST DUP3 LT PUSH3 0x364 JUMPI POP POP DUP4 PUSH1 0xFF SWAP9 SWAP10 SWAP11 SWAP12 SWAP13 SWAP14 LT PUSH3 0x34A JUMPI JUMPDEST POP POP POP DUP2 SHL ADD SWAP1 SSTORE PUSH3 0x297 JUMP JUMPDEST ADD MLOAD PUSH1 0x0 NOT PUSH1 0xF8 DUP5 PUSH1 0x3 SHL AND SHR NOT AND SWAP1 SSTORE CODESIZE DUP1 DUP1 PUSH3 0x33C JUMP JUMPDEST DUP3 DUP5 ADD MLOAD DUP6 SSTORE SWAP4 DUP7 ADD SWAP4 SWAP3 DUP4 ADD SWAP3 SWAP1 DUP2 ADD SWAP1 DUP15 PUSH3 0x323 JUMP JUMPDEST DUP7 PUSH1 0x0 MSTORE DUP5 DUP4 PUSH1 0x0 KECCAK256 SWAP2 DUP5 DUP3 DUP6 ADD PUSH1 0x5 SHR DUP5 ADD SWAP5 LT PUSH3 0x3C0 JUMPI JUMPDEST ADD PUSH1 0x5 SHR ADD SWAP1 DUP6 SWAP1 JUMPDEST DUP3 DUP2 LT PUSH3 0x3B3 JUMPI POP DUP14 SWAP2 POP PUSH3 0x260 JUMP JUMPDEST PUSH1 0x0 DUP2 SSTORE ADD DUP6 SWAP1 PUSH3 0x3A1 JUMP JUMPDEST SWAP3 POP DUP2 SWAP3 PUSH3 0x398 JUMP JUMPDEST PUSH1 0x22 DUP12 PUSH4 0x4E487B71 PUSH1 0xE0 SHL PUSH1 0x0 MSTORE MSTORE PUSH1 0x24 PUSH1 0x0 REVERT JUMPDEST SWAP1 PUSH1 0x7F AND SWAP1 PUSH3 0x24C JUMP JUMPDEST PUSH1 0x41 DUP11 PUSH4 0x4E487B71 PUSH1 0xE0 SHL PUSH1 0x0 MSTORE MSTORE PUSH1 0x24 PUSH1 0x0 REVERT JUMPDEST PUSH1 0x11 DUP13 PUSH4 0x4E487B71 PUSH1 0xE0 SHL PUSH1 0x0 MSTORE MSTORE PUSH1 0x24 PUSH1 0x0 REVERT JUMPDEST PUSH1 0x64 DUP12 DUP6 DUP5 DUP16 MLOAD SWAP3 PUSH3 0x461BCD PUSH1 0xE5 SHL DUP5 MSTORE DUP4 ADD MSTORE PUSH1 0x24 DUP3 ADD MSTORE PUSH32 0x45524332303A206D696E7420746F20746865207A65726F206164647265737300 PUSH1 0x44 DUP3 ADD MSTORE REVERT JUMPDEST ADD MLOAD SWAP1 POP CODESIZE DUP1 PUSH3 0x172 JUMP JUMPDEST PUSH1 0x0 DUP15 DUP2 MSTORE DUP6 DUP2 KECCAK256 DUP10 SWAP6 POP SWAP3 SWAP2 SWAP1 PUSH1 0x1F NOT DUP6 AND SWAP1 JUMPDEST DUP8 DUP3 DUP3 LT PUSH3 0x4B1 JUMPI POP POP DUP5 GT PUSH3 0x497 JUMPI JUMPDEST POP POP POP DUP2 SHL ADD DUP11 SSTORE PUSH3 0x186 JUMP JUMPDEST ADD MLOAD PUSH1 0x0 NOT PUSH1 0xF8 DUP5 PUSH1 0x3 SHL AND SHR NOT AND SWAP1 SSTORE CODESIZE DUP1 DUP1 PUSH3 0x489 JUMP JUMPDEST DUP4 DUP6 ADD MLOAD DUP7 SSTORE DUP12 SWAP8 SWAP1 SWAP6 ADD SWAP5 SWAP4 DUP5 ADD SWAP4 ADD PUSH3 0x476 JUMP JUMPDEST SWAP1 SWAP2 POP DUP13 PUSH1 0x0 MSTORE DUP4 PUSH1 0x0 KECCAK256 DUP7 DUP1 DUP6 ADD PUSH1 0x5 SHR DUP3 ADD SWAP3 DUP7 DUP7 LT PUSH3 0x514 JUMPI JUMPDEST SWAP2 DUP10 SWAP2 DUP7 SWAP6 SWAP5 SWAP4 ADD PUSH1 0x5 SHR ADD SWAP2 JUMPDEST DUP3 DUP2 LT PUSH3 0x504 JUMPI POP POP PUSH3 0x15B JUMP JUMPDEST PUSH1 0x0 DUP2 SSTORE DUP6 SWAP5 POP DUP10 SWAP2 ADD PUSH3 0x4F4 JUMP JUMPDEST SWAP3 POP DUP2 SWAP3 PUSH3 0x4E6 JUMP JUMPDEST PUSH1 0x22 DUP14 PUSH4 0x4E487B71 PUSH1 0xE0 SHL PUSH1 0x0 MSTORE MSTORE PUSH1 0x24 PUSH1 0x0 REVERT JUMPDEST SWAP1 PUSH1 0x7F AND SWAP1 PUSH3 0x146 JUMP JUMPDEST PUSH4 0x4E487B71 PUSH1 0xE0 SHL PUSH1 0x0 MSTORE PUSH1 0x41 PUSH1 0x4 MSTORE PUSH1 0x24 PUSH1 0x0 REVERT JUMPDEST ADD MLOAD SWAP1 POP CODESIZE DUP1 PUSH3 0x114 JUMP JUMPDEST SWAP1 DUP8 SWAP4 POP PUSH1 0x1F NOT DUP4 AND SWAP2 PUSH1 0x3 PUSH1 0x0 MSTORE DUP6 PUSH1 0x0 KECCAK256 SWAP3 PUSH1 0x0 JUMPDEST DUP8 DUP3 DUP3 LT PUSH3 0x5B3 JUMPI POP POP DUP5 GT PUSH3 0x599 JUMPI JUMPDEST POP POP POP DUP2 SHL ADD PUSH1 0x3 SSTORE PUSH3 0x129 JUMP JUMPDEST ADD MLOAD PUSH1 0x0 NOT PUSH1 0xF8 DUP5 PUSH1 0x3 SHL AND SHR NOT AND SWAP1 SSTORE CODESIZE DUP1 DUP1 PUSH3 0x58A JUMP JUMPDEST DUP4 DUP6 ADD MLOAD DUP7 SSTORE DUP12 SWAP8 SWAP1 SWAP6 ADD SWAP5 SWAP4 DUP5 ADD SWAP4 ADD PUSH3 0x577 JUMP JUMPDEST SWAP1 SWAP2 POP PUSH1 0x3 PUSH1 0x0 MSTORE DUP4 PUSH1 0x0 KECCAK256 DUP7 DUP1 DUP6 ADD PUSH1 0x5 SHR DUP3 ADD SWAP3 DUP7 DUP7 LT PUSH3 0x617 JUMPI JUMPDEST SWAP2 DUP10 SWAP2 DUP7 SWAP6 SWAP5 SWAP4 ADD PUSH1 0x5 SHR ADD SWAP2 JUMPDEST DUP3 DUP2 LT PUSH3 0x607 JUMPI POP POP PUSH3 0xFD JUMP JUMPDEST PUSH1 0x0 DUP2 SSTORE DUP6 SWAP5 POP DUP10 SWAP2 ADD PUSH3 0x5F7 JUMP JUMPDEST SWAP3 POP DUP2 SWAP3 PUSH3 0x5E9 JUMP JUMPDEST PUSH4 0x4E487B71 PUSH1 0xE0 SHL PUSH1 0x0 MSTORE PUSH1 0x22 PUSH1 0x4 MSTORE PUSH1 0x24 PUSH1 0x0 REVERT JUMPDEST SWAP5 PUSH1 0x7F AND SWAP5 PUSH3 0xE6 JUMP JUMPDEST PUSH1 0x0 DUP1 REVERT JUMPDEST PUSH1 0x40 MLOAD SWAP2 SWAP1 PUSH1 0x1F ADD PUSH1 0x1F NOT AND DUP3 ADD PUSH1 0x1 PUSH1 0x1 PUSH1 0x40 SHL SUB DUP2 GT DUP4 DUP3 LT OR PUSH3 0x53E JUMPI PUSH1 0x40 MSTORE JUMP JUMPDEST SWAP2 SWAP1 DUP1 PUSH1 0x1F DUP5 ADD SLT ISZERO PUSH3 0x642 JUMPI DUP3 MLOAD PUSH1 0x1 PUSH1 0x1 PUSH1 0x40 SHL SUB DUP2 GT PUSH3 0x53E JUMPI PUSH1 0x20 SWAP1 PUSH3 0x6A3 PUSH1 0x1F DUP3 ADD PUSH1 0x1F NOT AND DUP4 ADD PUSH3 0x647 JUMP JUMPDEST SWAP3 DUP2 DUP5 MSTORE DUP3 DUP3 DUP8 ADD ADD GT PUSH3 0x642 JUMPI PUSH1 0x0 JUMPDEST DUP2 DUP2 LT PUSH3 0x6CB JUMPI POP DUP3 PUSH1 0x0 SWAP4 SWAP5 SWAP6 POP ADD ADD MSTORE SWAP1 JUMP JUMPDEST DUP6 DUP2 ADD DUP4 ADD MLOAD DUP5 DUP3 ADD DUP5 ADD MSTORE DUP3 ADD PUSH3 0x6B5 JUMP JUMPDEST MLOAD SWAP1 PUSH1 0x1 PUSH1 0x1 PUSH1 0xA0 SHL SUB DUP3 AND DUP3 SUB PUSH3 0x642 JUMPI JUMP INVALID PUSH1 0x40 PUSH1 0x80 DUP2 MSTORE PUSH1 0x4 DUP1 CALLDATASIZE LT ISZERO PUSH2 0x1F JUMPI JUMPDEST POP POP CALLDATASIZE ISZERO PUSH2 0x1D JUMPI PUSH1 0x0 DUP1 REVERT JUMPDEST STOP JUMPDEST PUSH1 0x0 SWAP2 DUP3 CALLDATALOAD PUSH1 0xE0 SHR DUP1 PUSH4 0x3C83302 EQ PUSH2 0x130E JUMPI DUP1 PUSH4 0x6FDDE03 EQ PUSH2 0x124C JUMPI DUP1 PUSH4 0x95EA7B3 EQ PUSH2 0x1222 JUMPI DUP1 PUSH4 0x124403B9 EQ PUSH2 0x11EA JUMPI DUP1 PUSH4 0x18160DDD EQ PUSH2 0x11CB JUMPI DUP1 PUSH4 0x18FA236C EQ PUSH2 0x1181 JUMPI DUP1 PUSH4 0x207D0527 EQ PUSH2 0x10FC JUMPI DUP1 PUSH4 0x22F3E2D4 EQ PUSH2 0x10D8 JUMPI DUP1 PUSH4 0x23B872DD EQ PUSH2 0x100C JUMPI DUP1 PUSH4 0x251D11DD EQ PUSH2 0xEB0 JUMPI DUP1 PUSH4 0x30D172D5 EQ PUSH2 0xE91 JUMPI DUP1 PUSH4 0x313CE567 EQ PUSH2 0xE75 JUMPI DUP1 PUSH4 0x3610724E EQ PUSH2 0x9E9 JUMPI DUP1 PUSH4 0x39509351 EQ PUSH2 0x99A JUMPI DUP1 PUSH4 0x4B94F50E EQ PUSH2 0x92A JUMPI DUP1 PUSH4 0x5C975ABB EQ PUSH2 0x906 JUMPI DUP1 PUSH4 0x668038E0 EQ PUSH2 0x7BF JUMPI DUP1 PUSH4 0x70A08231 EQ PUSH2 0x788 JUMPI DUP1 PUSH4 0x796B23BB EQ PUSH2 0x769 JUMPI DUP1 PUSH4 0x7A3A0E84 EQ PUSH2 0x74A JUMPI DUP1 PUSH4 0x7B1B1DE6 EQ PUSH2 0x72B JUMPI DUP1 PUSH4 0x7C654303 EQ PUSH2 0x704 JUMPI DUP1 PUSH4 0x8955AA02 EQ PUSH2 0x60E JUMPI DUP1 PUSH4 0x8A4660FE EQ PUSH2 0x5E9 JUMPI DUP1 PUSH4 0x95D89B41 EQ PUSH2 0x4E9 JUMPI DUP1 PUSH4 0x96B98862 EQ PUSH2 0x4B1 JUMPI DUP1 PUSH4 0x97787747 EQ PUSH2 0x467 JUMPI DUP1 PUSH4 0xA457C2D7 EQ PUSH2 0x3BE JUMPI DUP1 PUSH4 0xA9059CBB EQ PUSH2 0x38D JUMPI DUP1 PUSH4 0xC45A0155 EQ PUSH2 0x360 JUMPI DUP1 PUSH4 0xC5C4744C EQ PUSH2 0x341 JUMPI DUP1 PUSH4 0xCA4B208B EQ PUSH2 0x318 JUMPI DUP1 PUSH4 0xDD62ED3E EQ PUSH2 0x2CA JUMPI DUP1 PUSH4 0xEF430AA6 EQ PUSH2 0x2A8 JUMPI DUP1 PUSH4 0xF2DFC3FC EQ PUSH2 0x22D JUMPI PUSH4 0xF957417E EQ PUSH2 0x1B8 JUMPI POP PUSH2 0x10 JUMP JUMPDEST CALLVALUE PUSH2 0x229 JUMPI DUP3 PUSH1 0x3 NOT CALLDATASIZE ADD SLT PUSH2 0x229 JUMPI PUSH1 0x6 SLOAD PUSH1 0x8 SHR PUSH1 0x1 PUSH1 0x1 PUSH1 0xA0 SHL SUB AND CALLER SUB PUSH2 0x1EE JUMPI DUP3 PUSH1 0x1 PUSH1 0xFF NOT PUSH1 0xE SLOAD AND OR PUSH1 0xE SSTORE DUP1 RETURN JUMPDEST SWAP1 PUSH1 0x20 PUSH1 0x64 SWAP3 MLOAD SWAP2 PUSH3 0x461BCD PUSH1 0xE5 SHL DUP4 MSTORE DUP3 ADD MSTORE PUSH1 0x15 PUSH1 0x24 DUP3 ADD MSTORE PUSH21 0x13DB9B1E48199858DD1BDC9E4818D85B8818D85B1B PUSH1 0x5A SHL PUSH1 0x44 DUP3 ADD MSTORE REVERT JUMPDEST DUP3 DUP1 REVERT JUMPDEST DUP4 DUP3 CALLVALUE PUSH2 0x2A4 JUMPI DUP2 PUSH1 0x3 NOT CALLDATASIZE ADD SLT PUSH2 0x2A4 JUMPI SWAP1 PUSH1 0xC0 SWAP2 PUSH1 0xD SLOAD SWAP2 PUSH1 0xB SLOAD SWAP2 PUSH1 0xC SLOAD PUSH1 0xFF PUSH1 0xE SLOAD PUSH1 0x8 SHR AND SWAP2 ADDRESS DUP5 MSTORE DUP4 PUSH1 0x20 MSTORE DUP1 DUP5 KECCAK256 SLOAD SWAP4 DUP7 ISZERO ISZERO PUSH1 0x0 EQ PUSH2 0x29E JUMPI POP PUSH10 0x21E19E0C9BAB2400000 DUP7 DIV SWAP5 JUMPDEST DUP2 MLOAD SWAP7 DUP8 MSTORE PUSH1 0x20 DUP8 ADD MSTORE DUP6 ADD MSTORE ISZERO ISZERO PUSH1 0x60 DUP5 ADD MSTORE PUSH1 0x80 DUP4 ADD MSTORE PUSH1 0xA0 DUP3 ADD MSTORE RETURN JUMPDEST SWAP5 PUSH2 0x27E JUMP JUMPDEST POP DUP1 REVERT JUMPDEST DUP4 DUP3 CALLVALUE PUSH2 0x2A4 JUMPI DUP2 PUSH1 0x3 NOT CALLDATASIZE ADD SLT PUSH2 0x2A4 JUMPI PUSH1 0x20 SWAP1 PUSH1 0xFF PUSH1 0x9 SLOAD AND SWAP1 MLOAD SWAP1 DUP2 MSTORE RETURN JUMPDEST DUP4 DUP3 CALLVALUE PUSH2 0x2A4 JUMPI DUP1 PUSH1 0x3 NOT CALLDATASIZE ADD SLT PUSH2 0x2A4 JUMPI PUSH1 0x20 SWAP2 PUSH2 0x2E7 PUSH2 0x14A3 JUMP JUMPDEST DUP3 PUSH2 0x2F0 PUSH2 0x14BE JUMP JUMPDEST PUSH1 0x1 PUSH1 0x1 PUSH1 0xA0 SHL SUB SWAP3 DUP4 AND DUP5 MSTORE PUSH1 0x1 DUP7 MSTORE SWAP3 KECCAK256 SWAP2 AND PUSH1 0x0 SWAP1 DUP2 MSTORE SWAP1 DUP4 MSTORE DUP2 SWAP1 KECCAK256 SLOAD SWAP1 MLOAD SWAP1 DUP2 MSTORE RETURN JUMPDEST DUP4 DUP3 CALLVALUE PUSH2 0x2A4 JUMPI DUP2 PUSH1 0x3 NOT CALLDATASIZE ADD SLT PUSH2 0x2A4 JUMPI PUSH1 0x7 SLOAD SWAP1 MLOAD PUSH1 0x1 PUSH1 0x1 PUSH1 0xA0 SHL SUB SWAP1 SWAP2 AND DUP2 MSTORE PUSH1 0x20 SWAP1 RETURN JUMPDEST DUP4 DUP3 CALLVALUE PUSH2 0x2A4 JUMPI DUP2 PUSH1 0x3 NOT CALLDATASIZE ADD SLT PUSH2 0x2A4 JUMPI PUSH1 0x20 SWAP1 PUSH1 0xD SLOAD SWAP1 MLOAD SWAP1 DUP2 MSTORE RETURN JUMPDEST DUP4 DUP3 CALLVALUE PUSH2 0x2A4 JUMPI DUP2 PUSH1 0x3 NOT CALLDATASIZE ADD SLT PUSH2 0x2A4 JUMPI PUSH1 0x6 SLOAD SWAP1 MLOAD PUSH1 0x8 SWAP2 SWAP1 SWAP2 SHR PUSH1 0x1 PUSH1 0x1 PUSH1 0xA0 SHL SUB AND DUP2 MSTORE PUSH1 0x20 SWAP1 RETURN JUMPDEST DUP4 DUP3 CALLVALUE PUSH2 0x2A4 JUMPI DUP1 PUSH1 0x3 NOT CALLDATASIZE ADD SLT PUSH2 0x2A4 JUMPI PUSH1 0x20 SWAP1 PUSH2 0x3B7 PUSH2 0x3AD PUSH2 0x14A3 JUMP JUMPDEST PUSH1 0x24 CALLDATALOAD SWAP1 CALLER PUSH2 0x152F JUMP JUMPDEST MLOAD PUSH1 0x1 DUP2 MSTORE RETURN JUMPDEST POP SWAP2 CALLVALUE PUSH2 0x464 JUMPI DUP3 PUSH1 0x3 NOT CALLDATASIZE ADD SLT PUSH2 0x464 JUMPI PUSH2 0x3D8 PUSH2 0x14A3 JUMP JUMPDEST SWAP2 DUP4 PUSH1 0x24 CALLDATALOAD SWAP3 CALLER DUP2 MSTORE PUSH1 0x1 PUSH1 0x20 MSTORE KECCAK256 PUSH1 0x1 DUP1 PUSH1 0xA0 SHL SUB DUP5 AND PUSH1 0x0 MSTORE PUSH1 0x20 MSTORE DUP4 PUSH1 0x0 KECCAK256 SLOAD SWAP1 DUP3 DUP3 LT PUSH2 0x413 JUMPI PUSH1 0x20 DUP6 PUSH2 0x3B7 DUP6 DUP6 SUB DUP8 CALLER PUSH2 0x169D JUMP JUMPDEST PUSH1 0x84 SWAP1 PUSH1 0x20 DUP7 MLOAD SWAP2 PUSH3 0x461BCD PUSH1 0xE5 SHL DUP4 MSTORE DUP3 ADD MSTORE PUSH1 0x25 PUSH1 0x24 DUP3 ADD MSTORE PUSH32 0x45524332303A2064656372656173656420616C6C6F77616E63652062656C6F77 PUSH1 0x44 DUP3 ADD MSTORE PUSH5 0x207A65726F PUSH1 0xD8 SHL PUSH1 0x64 DUP3 ADD MSTORE REVERT JUMPDEST DUP1 REVERT JUMPDEST POP DUP3 CALLVALUE PUSH2 0x464 JUMPI DUP1 PUSH1 0x3 NOT CALLDATASIZE ADD SLT PUSH2 0x464 JUMPI POP PUSH1 0x15 SLOAD PUSH1 0x16 SLOAD PUSH1 0x17 SLOAD PUSH1 0x18 SLOAD PUSH1 0x19 SLOAD SWAP5 MLOAD SWAP4 DUP5 MSTORE PUSH1 0x20 DUP5 ADD SWAP3 SWAP1 SWAP3 MSTORE PUSH1 0x40 DUP4 ADD MSTORE PUSH1 0x60 DUP3 ADD MSTORE PUSH1 0x80 DUP2 ADD SWAP2 SWAP1 SWAP2 MSTORE PUSH1 0xA0 SWAP1 RETURN JUMPDEST SUB SWAP1 RETURN JUMPDEST DUP4 DUP3 CALLVALUE PUSH2 0x2A4 JUMPI PUSH1 0x20 CALLDATASIZE PUSH1 0x3 NOT ADD SLT PUSH2 0x2A4 JUMPI PUSH1 0x20 SWAP2 DUP2 SWAP1 PUSH1 0x1 PUSH1 0x1 PUSH1 0xA0 SHL SUB PUSH2 0x4D9 PUSH2 0x14A3 JUMP JUMPDEST AND DUP2 MSTORE PUSH1 0x1A DUP5 MSTORE KECCAK256 SLOAD SWAP1 MLOAD SWAP1 DUP2 MSTORE RETURN JUMPDEST POP DUP3 CALLVALUE PUSH2 0x464 JUMPI DUP1 PUSH1 0x3 NOT CALLDATASIZE ADD SLT PUSH2 0x464 JUMPI POP DUP1 MLOAD SWAP1 PUSH1 0x0 SWAP3 DUP1 SLOAD SWAP1 PUSH1 0x1 DUP3 DUP2 SHR SWAP2 DUP2 DUP5 AND SWAP4 DUP5 ISZERO PUSH2 0x5DF JUMPI JUMPDEST PUSH1 0x20 SWAP5 DUP6 DUP6 LT DUP2 EQ PUSH2 0x5CC JUMPI DUP5 DUP9 MSTORE SWAP1 DUP2 ISZERO PUSH2 0x5AA JUMPI POP PUSH1 0x1 EQ PUSH2 0x550 JUMPI JUMPDEST PUSH2 0x4AD DUP7 DUP7 PUSH2 0x546 DUP3 DUP12 SUB DUP4 PUSH2 0x14D4 JUMP JUMPDEST MLOAD SWAP2 DUP3 SWAP2 DUP3 PUSH2 0x1477 JUMP JUMPDEST PUSH1 0x0 SWAP1 DUP2 MSTORE SWAP3 SWAP6 POP PUSH32 0x8A35ACFBC15FF81A39AE7D344FD709F28E8600B4AA8C65C6B64BFE7FE36BD19B JUMPDEST DUP3 DUP5 LT PUSH2 0x597 JUMPI POP POP POP DUP3 PUSH2 0x4AD SWAP5 PUSH2 0x546 SWAP3 DUP3 ADD ADD SWAP5 DUP7 PUSH2 0x535 JUMP JUMPDEST DUP1 SLOAD DUP7 DUP6 ADD DUP9 ADD MSTORE SWAP3 DUP7 ADD SWAP3 DUP2 ADD PUSH2 0x57A JUMP JUMPDEST PUSH1 0xFF NOT AND DUP8 DUP7 ADD MSTORE POP POP POP ISZERO ISZERO PUSH1 0x5 SHL DUP4 ADD ADD SWAP3 POP PUSH2 0x546 DUP3 PUSH2 0x4AD DUP7 PUSH2 0x535 JUMP JUMPDEST PUSH4 0x4E487B71 PUSH1 0xE0 SHL DUP10 MSTORE PUSH1 0x22 DUP4 MSTORE PUSH1 0x24 DUP10 REVERT JUMPDEST SWAP3 PUSH1 0x7F AND SWAP3 PUSH2 0x516 JUMP JUMPDEST DUP4 DUP3 CALLVALUE PUSH2 0x2A4 JUMPI DUP2 PUSH1 0x3 NOT CALLDATASIZE ADD SLT PUSH2 0x2A4 JUMPI PUSH1 0x20 SWAP1 MLOAD PUSH10 0x21E19E0C9BAB2400000 DUP2 MSTORE RETURN JUMPDEST POP DUP3 CALLVALUE PUSH2 0x464 JUMPI DUP1 PUSH1 0x3 NOT CALLDATASIZE ADD SLT PUSH2 0x464 JUMPI POP DUP1 MLOAD SWAP1 PUSH1 0x0 SWAP3 PUSH1 0x8 SLOAD PUSH1 0x1 DUP2 DUP2 SHR SWAP2 DUP2 DUP2 AND DUP1 ISZERO PUSH2 0x6FA JUMPI JUMPDEST PUSH1 0x20 SWAP5 DUP6 DUP6 LT DUP3 EQ PUSH2 0x6E7 JUMPI POP DUP4 DUP8 MSTORE SWAP1 DUP2 ISZERO PUSH2 0x6C7 JUMPI POP PUSH1 0x1 EQ PUSH2 0x66C JUMPI JUMPDEST POP POP POP PUSH2 0x546 DUP3 PUSH2 0x4AD SWAP5 SUB DUP4 PUSH2 0x14D4 JUMP JUMPDEST PUSH1 0x8 PUSH1 0x0 SWAP1 DUP2 MSTORE SWAP3 SWAP6 POP PUSH32 0xF3F7A9FE364FAAB93B216DA50A3214154F22A0A2B415B23A84C8169E8B636EE3 JUMPDEST DUP3 DUP5 LT PUSH2 0x6B4 JUMPI POP POP POP DUP3 PUSH2 0x4AD SWAP5 PUSH2 0x546 SWAP3 DUP3 ADD ADD SWAP5 PUSH2 0x65A JUMP JUMPDEST DUP1 SLOAD DUP7 DUP6 ADD DUP9 ADD MSTORE SWAP3 DUP7 ADD SWAP3 DUP2 ADD PUSH2 0x698 JUMP JUMPDEST PUSH1 0xFF NOT AND DUP7 DUP6 ADD MSTORE POP POP ISZERO ISZERO PUSH1 0x5 SHL DUP4 ADD ADD SWAP3 POP PUSH2 0x546 DUP3 PUSH2 0x4AD PUSH2 0x65A JUMP JUMPDEST PUSH4 0x4E487B71 PUSH1 0xE0 SHL DUP10 MSTORE PUSH1 0x22 SWAP1 MSTORE PUSH1 0x24 DUP9 REVERT JUMPDEST SWAP3 PUSH1 0x7F AND SWAP3 PUSH2 0x63A JUMP JUMPDEST DUP4 DUP3 CALLVALUE PUSH2 0x2A4 JUMPI DUP2 PUSH1 0x3 NOT CALLDATASIZE ADD SLT PUSH2 0x2A4 JUMPI PUSH1 0x20 SWAP1 PUSH1 0xFF PUSH1 0xE SLOAD PUSH1 0x8 SHR AND SWAP1 MLOAD SWAP1 ISZERO ISZERO DUP2 MSTORE RETURN JUMPDEST DUP4 DUP3 CALLVALUE PUSH2 0x2A4 JUMPI DUP2 PUSH1 0x3 NOT CALLDATASIZE ADD SLT PUSH2 0x2A4 JUMPI PUSH1 0x20 SWAP1 PUSH1 0xA SLOAD SWAP1 MLOAD SWAP1 DUP2 MSTORE RETURN JUMPDEST DUP4 DUP3 CALLVALUE PUSH2 0x2A4 JUMPI DUP2 PUSH1 0x3 NOT CALLDATASIZE ADD SLT PUSH2 0x2A4 JUMPI PUSH1 0x20 SWAP1 PUSH1 0xB SLOAD SWAP1 MLOAD SWAP1 DUP2 MSTORE RETURN JUMPDEST DUP4 DUP3 CALLVALUE PUSH2 0x2A4 JUMPI DUP2 PUSH1 0x3 NOT CALLDATASIZE ADD SLT PUSH2 0x2A4 JUMPI PUSH1 0x20 SWAP1 PUSH1 0xC SLOAD SWAP1 MLOAD SWAP1 DUP2 MSTORE RETURN JUMPDEST DUP4 DUP3 CALLVALUE PUSH2 0x2A4 JUMPI PUSH1 0x20 CALLDATASIZE PUSH1 0x3 NOT ADD SLT PUSH2 0x2A4 JUMPI PUSH1 0x20 SWAP2 DUP2 SWAP1 PUSH1 0x1 PUSH1 0x1 PUSH1 0xA0 SHL SUB PUSH2 0x7B0 PUSH2 0x14A3 JUMP JUMPDEST AND DUP2 MSTORE DUP1 DUP5 MSTORE KECCAK256 SLOAD SWAP1 MLOAD SWAP1 DUP2 MSTORE RETURN JUMPDEST POP SWAP1 CALLVALUE PUSH2 0x229 JUMPI DUP3 PUSH1 0x3 NOT CALLDATASIZE ADD SLT PUSH2 0x229 JUMPI PUSH2 0x7D9 PUSH2 0x1873 JUMP JUMPDEST CALLER DUP4 MSTORE PUSH1 0x20 DUP4 DUP2 MSTORE DUP3 DUP5 KECCAK256 SLOAD DUP1 ISZERO PUSH2 0x8D4 JUMPI PUSH1 0x2 SLOAD SWAP1 ADDRESS DUP7 MSTORE DUP6 DUP4 MSTORE DUP5 DUP7 KECCAK256 SLOAD DUP3 SUB SWAP2 DUP3 GT PUSH2 0x8C1 JUMPI SWAP1 PUSH2 0x812 PUSH2 0x817 SWAP3 PUSH1 0x1C SLOAD PUSH2 0x17EB JUMP JUMPDEST PUSH2 0x17FE JUMP JUMPDEST SWAP2 CALLER DUP6 MSTORE PUSH1 0x1B DUP3 MSTORE DUP4 DUP6 KECCAK256 SLOAD DUP1 DUP5 SUB SWAP4 DUP1 DUP6 GT PUSH2 0x8AE JUMPI EQ PUSH2 0x874 JUMPI POP DUP4 DUP1 DUP1 SWAP4 DUP2 SWAP4 CALLER DUP4 MSTORE PUSH1 0x1B DUP2 MSTORE PUSH1 0x1B PUSH2 0x850 DUP4 DUP10 DUP7 KECCAK256 SLOAD PUSH2 0x150C JUMP JUMPDEST SWAP2 CALLER DUP6 MSTORE MSTORE DUP7 DUP4 KECCAK256 SSTORE CALLER DUP3 CALL ISZERO PUSH2 0x86A JUMPI POP PUSH1 0x1 PUSH1 0x5 SSTORE DUP1 RETURN JUMPDEST MLOAD SWAP1 RETURNDATASIZE SWAP1 DUP3 RETURNDATACOPY RETURNDATASIZE SWAP1 REVERT JUMPDEST PUSH1 0x64 SWAP2 DUP5 MLOAD SWAP2 PUSH3 0x461BCD PUSH1 0xE5 SHL DUP4 MSTORE DUP3 ADD MSTORE PUSH1 0x16 PUSH1 0x24 DUP3 ADD MSTORE PUSH22 0x4E6F206469766964656E647320617661696C61626C65 PUSH1 0x50 SHL PUSH1 0x44 DUP3 ADD MSTORE REVERT JUMPDEST PUSH4 0x4E487B71 PUSH1 0xE0 SHL DUP8 MSTORE PUSH1 0x11 DUP4 MSTORE PUSH1 0x24 DUP8 REVERT JUMPDEST PUSH4 0x4E487B71 PUSH1 0xE0 SHL DUP7 MSTORE PUSH1 0x11 DUP5 MSTORE PUSH1 0x24 DUP7 REVERT JUMPDEST POP PUSH1 0x64 SWAP3 MLOAD SWAP2 PUSH3 0x461BCD PUSH1 0xE5 SHL DUP4 MSTORE DUP3 ADD MSTORE PUSH1 0xE PUSH1 0x24 DUP3 ADD MSTORE PUSH14 0x139BC81D1BDAD95B9CC81A195B19 PUSH1 0x92 SHL PUSH1 0x44 DUP3 ADD MSTORE REVERT JUMPDEST DUP4 DUP3 CALLVALUE PUSH2 0x2A4 JUMPI DUP2 PUSH1 0x3 NOT CALLDATASIZE ADD SLT PUSH2 0x2A4 JUMPI PUSH1 0x20 SWAP1 PUSH1 0xFF PUSH1 0x6 SLOAD AND SWAP1 MLOAD SWAP1 ISZERO ISZERO DUP2 MSTORE RETURN JUMPDEST POP DUP3 CALLVALUE PUSH2 0x464 JUMPI DUP1 PUSH1 0x3 NOT CALLDATASIZE ADD SLT PUSH2 0x464 JUMPI PUSH1 0xA SLOAD PUSH1 0xF SLOAD SWAP1 SWAP2 SWAP1 DUP1 ISZERO PUSH2 0x98F JUMPI PUSH1 0x2 SLOAD SWAP2 ADDRESS DUP2 MSTORE DUP1 PUSH1 0x20 MSTORE DUP5 DUP2 KECCAK256 SLOAD DUP4 SUB SWAP3 DUP4 GT PUSH2 0x97C JUMPI POP PUSH2 0x970 SWAP3 SWAP4 SWAP5 POP PUSH2 0x17FE JUMP JUMPDEST DUP3 MLOAD SWAP2 DUP3 MSTORE PUSH1 0x20 DUP3 ADD MSTORE RETURN JUMPDEST PUSH4 0x4E487B71 PUSH1 0xE0 SHL DUP2 MSTORE PUSH1 0x11 DUP7 MSTORE PUSH1 0x24 SWAP1 REVERT JUMPDEST POP POP DUP1 SWAP2 SWAP3 POP PUSH2 0x970 JUMP JUMPDEST DUP4 DUP3 CALLVALUE PUSH2 0x2A4 JUMPI DUP1 PUSH1 0x3 NOT CALLDATASIZE ADD SLT PUSH2 0x2A4 JUMPI PUSH2 0x3B7 PUSH1 0x20 SWAP3 DUP3 PUSH2 0x9BB PUSH2 0x14A3 JUMP JUMPDEST SWAP2 CALLER DUP2 MSTORE PUSH1 0x1 DUP7 MSTORE KECCAK256 PUSH1 0x1 DUP1 PUSH1 0xA0 SHL SUB DUP3 AND PUSH1 0x0 MSTORE DUP5 MSTORE PUSH2 0x9E2 PUSH1 0x24 CALLDATALOAD DUP5 PUSH1 0x0 KECCAK256 SLOAD PUSH2 0x150C JUMP JUMPDEST SWAP1 CALLER PUSH2 0x169D JUMP JUMPDEST POP DUP3 SWAP1 PUSH1 0x20 SWAP3 DUP4 PUSH1 0x3 NOT CALLDATASIZE ADD SLT PUSH2 0x229 JUMPI DUP1 CALLDATALOAD PUSH2 0xA04 PUSH2 0x1873 JUMP JUMPDEST PUSH1 0xFF PUSH1 0xE SLOAD AND ISZERO PUSH2 0xE40 JUMPI PUSH1 0xA SLOAD DUP1 ISZERO PUSH2 0xE2B JUMPI DUP1 PUSH10 0x21E19E0C9BAB2400000 DIV DUP3 LT PUSH2 0xDE8 JUMPI PUSH2 0xA35 SWAP1 DUP3 PUSH2 0x17EB JUMP JUMPDEST CALLVALUE SUB PUSH2 0xDA6 JUMPI PUSH1 0xC SLOAD TIMESTAMP GT PUSH2 0xD6D JUMPI ADDRESS DUP5 MSTORE DUP4 DUP6 MSTORE DUP1 DUP4 DUP6 KECCAK256 SLOAD LT PUSH2 0xD2B JUMPI CALLER DUP5 MSTORE PUSH1 0x1A DUP6 MSTORE PUSH2 0xA68 CALLVALUE DUP5 DUP7 KECCAK256 SLOAD PUSH2 0x150C JUMP JUMPDEST CALLER DUP6 MSTORE PUSH1 0x1A DUP7 MSTORE DUP4 DUP6 KECCAK256 SSTORE PUSH2 0xA7F CALLVALUE PUSH1 0xD SLOAD PUSH2 0x150C JUMP JUMPDEST PUSH1 0xD SSTORE PUSH2 0xA8D DUP2 CALLER ADDRESS PUSH2 0x152F JUMP JUMPDEST DUP3 MLOAD SWAP1 DUP2 MSTORE CALLVALUE DUP6 DUP3 ADD MSTORE PUSH32 0x8FAFEBCAF9D154343DAD25669BFA277F4FBACD7AC6B0C4FED522580E040A0F33 DUP4 CALLER SWAP3 LOG2 PUSH1 0xD SLOAD PUSH1 0xB SLOAD DUP2 LT ISZERO PUSH2 0xAD3 JUMPI JUMPDEST DUP4 PUSH1 0x1 PUSH1 0x5 SSTORE DUP1 RETURN JUMPDEST PUSH2 0x100 SWAP2 DUP3 PUSH2 0xFF00 NOT PUSH1 0xE SLOAD AND OR PUSH1 0xE SSTORE PUSH1 0x6 SLOAD SWAP3 PUSH1 0x1 DUP1 PUSH1 0xA0 SHL SUB SWAP7 DUP8 SWAP5 DUP6 PUSH1 0x7 SLOAD AND SWAP3 DUP9 DUP9 MLOAD DUP1 SWAP4 PUSH4 0x30FEAE1 PUSH1 0xE5 SHL DUP3 MSTORE DUP7 DUP9 DUP4 ADD MSTORE DUP2 PUSH1 0x24 SWAP14 DUP15 SWAP3 PUSH1 0x8 SHR AND GAS STATICCALL SWAP2 DUP3 ISZERO PUSH2 0xD21 JUMPI DUP10 SWAP3 PUSH2 0xC14 JUMPI JUMPDEST POP POP PUSH1 0x60 SWAP2 POP ADD MLOAD PUSH1 0x3 DUP2 LT ISZERO PUSH2 0xC02 JUMPI PUSH1 0x2 SUB PUSH2 0xBE5 JUMPI PUSH1 0x96 DUP4 MUL DUP4 DUP2 DIV PUSH1 0x96 EQ DUP5 ISZERO OR ISZERO PUSH2 0xBD3 JUMPI PUSH2 0x2710 SWAP1 DIV SWAP3 JUMPDEST DUP4 DUP2 SUB SWAP3 DUP2 DUP5 GT PUSH2 0xBC1 JUMPI POP DUP7 DUP1 SWAP9 POP DUP1 SWAP7 SWAP8 SWAP4 DUP2 SWAP4 DUP3 SWAP4 DUP8 DUP5 SWAP2 EQ PUSH2 0xBB8 JUMPI JUMPDEST CALL ISZERO PUSH2 0xBAB JUMPI DUP3 DUP1 SWAP3 SWAP2 DUP2 SWAP3 PUSH1 0x6 SLOAD PUSH1 0x8 SHR AND DUP3 DUP3 ISZERO PUSH2 0xBA2 JUMPI JUMPDEST CALL ISZERO PUSH2 0x86A JUMPI DUP1 DUP1 DUP4 SWAP3 PUSH2 0xACA JUMP JUMPDEST POP PUSH2 0x8FC PUSH2 0xB93 JUMP JUMPDEST POP POP POP MLOAD SWAP1 RETURNDATASIZE SWAP1 DUP3 RETURNDATACOPY RETURNDATASIZE SWAP1 REVERT JUMPDEST POP PUSH2 0x8FC PUSH2 0xB78 JUMP JUMPDEST PUSH4 0x4E487B71 PUSH1 0xE0 SHL DUP9 MSTORE PUSH1 0x11 SWAP1 MSTORE DUP8 DUP8 REVERT JUMPDEST PUSH4 0x4E487B71 PUSH1 0xE0 SHL DUP8 MSTORE PUSH1 0x11 DUP4 MSTORE DUP8 DUP8 REVERT JUMPDEST PUSH1 0xFA DUP4 MUL DUP4 DUP2 DIV PUSH1 0xFA EQ DUP5 ISZERO OR ISZERO PUSH2 0xBD3 JUMPI PUSH2 0x2710 SWAP1 DIV SWAP3 PUSH2 0xB57 JUMP JUMPDEST PUSH4 0x4E487B71 PUSH1 0xE0 SHL DUP8 MSTORE PUSH1 0x21 DUP4 MSTORE DUP8 DUP8 REVERT JUMPDEST SWAP1 SWAP2 POP RETURNDATASIZE DUP1 DUP11 DUP4 RETURNDATACOPY PUSH2 0xC26 DUP2 DUP4 PUSH2 0x14D4 JUMP JUMPDEST DUP2 ADD DUP4 DUP3 DUP3 SUB SLT PUSH2 0xCFD JUMPI DUP2 MLOAD PUSH8 0xFFFFFFFFFFFFFFFF SWAP3 DUP4 DUP3 GT PUSH2 0xD1D JUMPI ADD SWAP2 PUSH2 0x120 SWAP5 DUP6 DUP5 DUP5 SUB SLT PUSH2 0xD1D JUMPI DUP11 MLOAD SWAP6 DUP7 ADD DUP7 DUP2 LT DUP4 DUP3 GT OR PUSH2 0xD09 JUMPI DUP12 MSTORE DUP4 MLOAD DUP11 DUP2 AND DUP2 SUB PUSH2 0xD05 JUMPI DUP7 MSTORE DUP1 DUP5 ADD MLOAD DUP3 DUP2 GT PUSH2 0xD05 JUMPI DUP4 PUSH2 0xC89 SWAP2 DUP7 ADD PUSH2 0x181E JUMP JUMPDEST SWAP1 DUP7 ADD MSTORE DUP10 DUP4 ADD MLOAD SWAP1 DUP2 GT PUSH2 0xD01 JUMPI SWAP1 PUSH2 0xCA4 SWAP2 DUP4 ADD PUSH2 0x181E JUMP JUMPDEST DUP9 DUP5 ADD MSTORE PUSH1 0x60 DUP2 ADD MLOAD PUSH1 0x3 DUP2 LT ISZERO PUSH2 0xCFD JUMPI PUSH1 0x60 DUP5 ADD MSTORE PUSH1 0x80 DUP2 ADD MLOAD PUSH1 0x80 DUP5 ADD MSTORE PUSH1 0xA0 DUP2 ADD MLOAD PUSH1 0xA0 DUP5 ADD MSTORE PUSH1 0xC0 DUP2 ADD MLOAD PUSH1 0xC0 DUP5 ADD MSTORE PUSH1 0xE0 DUP2 ADD MLOAD DUP1 ISZERO ISZERO DUP2 SUB PUSH2 0xCFD JUMPI PUSH1 0xE0 DUP5 ADD MSTORE DUP2 ADD MLOAD SWAP1 DUP3 ADD MSTORE PUSH1 0x60 SWAP1 DUP10 DUP1 PUSH2 0xB26 JUMP JUMPDEST DUP10 DUP1 REVERT JUMPDEST DUP11 DUP1 REVERT JUMPDEST DUP13 DUP1 REVERT JUMPDEST DUP14 PUSH1 0x41 DUP11 PUSH4 0x4E487B71 PUSH1 0xE0 SHL PUSH1 0x0 MSTORE MSTORE PUSH1 0x0 REVERT JUMPDEST DUP12 DUP1 REVERT JUMPDEST DUP9 MLOAD RETURNDATASIZE DUP12 DUP3 RETURNDATACOPY RETURNDATASIZE SWAP1 REVERT JUMPDEST POP DUP4 PUSH1 0x64 SWAP3 MLOAD SWAP2 PUSH3 0x461BCD PUSH1 0xE5 SHL DUP4 MSTORE DUP3 ADD MSTORE PUSH1 0x1D PUSH1 0x24 DUP3 ADD MSTORE PUSH32 0x496E73756666696369656E7420746F6B656E7320617661696C61626C65000000 PUSH1 0x44 DUP3 ADD MSTORE REVERT JUMPDEST POP DUP4 PUSH1 0x64 SWAP3 MLOAD SWAP2 PUSH3 0x461BCD PUSH1 0xE5 SHL DUP4 MSTORE DUP3 ADD MSTORE PUSH1 0x14 PUSH1 0x24 DUP3 ADD MSTORE PUSH20 0x119D5B991A5B99C81C195C9A5BD908195B991959 PUSH1 0x62 SHL PUSH1 0x44 DUP3 ADD MSTORE REVERT JUMPDEST POP DUP4 PUSH1 0x64 SWAP3 MLOAD SWAP2 PUSH3 0x461BCD PUSH1 0xE5 SHL DUP4 MSTORE DUP3 ADD MSTORE PUSH1 0x18 PUSH1 0x24 DUP3 ADD MSTORE PUSH32 0x496E636F7272656374207061796D656E7420616D6F756E740000000000000000 PUSH1 0x44 DUP3 ADD MSTORE REVERT JUMPDEST DUP4 MLOAD PUSH3 0x461BCD PUSH1 0xE5 SHL DUP2 MSTORE DUP1 DUP5 ADD DUP8 SWAP1 MSTORE PUSH1 0x18 PUSH1 0x24 DUP3 ADD MSTORE PUSH32 0x42656C6F77206D696E696D756D20696E766573746D656E740000000000000000 PUSH1 0x44 DUP3 ADD MSTORE PUSH1 0x64 SWAP1 REVERT JUMPDEST PUSH1 0x12 DUP4 PUSH4 0x4E487B71 PUSH1 0xE0 SHL PUSH1 0x0 MSTORE MSTORE PUSH1 0x24 PUSH1 0x0 REVERT JUMPDEST POP DUP4 PUSH1 0x64 SWAP3 MLOAD SWAP2 PUSH3 0x461BCD PUSH1 0xE5 SHL DUP4 MSTORE DUP3 ADD MSTORE PUSH1 0x10 PUSH1 0x24 DUP3 ADD MSTORE PUSH16 0x546F6B656E206E6F7420616374697665 PUSH1 0x80 SHL PUSH1 0x44 DUP3 ADD MSTORE REVERT JUMPDEST DUP4 DUP3 CALLVALUE PUSH2 0x2A4 JUMPI DUP2 PUSH1 0x3 NOT CALLDATASIZE ADD SLT PUSH2 0x2A4 JUMPI PUSH1 0x20 SWAP1 MLOAD PUSH1 0x12 DUP2 MSTORE RETURN JUMPDEST DUP4 DUP3 CALLVALUE PUSH2 0x2A4 JUMPI DUP2 PUSH1 0x3 NOT CALLDATASIZE ADD SLT PUSH2 0x2A4 JUMPI PUSH1 0x20 SWAP1 PUSH1 0x1C SLOAD SWAP1 MLOAD SWAP1 DUP2 MSTORE RETURN JUMPDEST POP DUP3 SWAP1 CALLVALUE PUSH2 0x2A4 JUMPI PUSH1 0x80 CALLDATASIZE PUSH1 0x3 NOT ADD SLT PUSH2 0x2A4 JUMPI DUP3 CALLDATALOAD PUSH1 0x24 CALLDATALOAD PUSH1 0x44 CALLDATALOAD SWAP1 PUSH1 0x64 CALLDATALOAD SWAP1 PUSH2 0xEE6 PUSH1 0x1 DUP1 PUSH1 0xA0 SHL SUB PUSH1 0x7 SLOAD AND CALLER EQ PUSH2 0x179F JUMP JUMPDEST DUP4 PUSH1 0xF SSTORE TIMESTAMP PUSH1 0x10 SSTORE DUP1 PUSH1 0x11 SSTORE DUP3 PUSH1 0x12 SSTORE DUP2 PUSH1 0x13 SSTORE PUSH1 0xC DUP2 MUL SWAP1 DUP1 DUP3 DIV PUSH1 0xC EQ SWAP1 ISZERO OR ISZERO PUSH2 0xFF9 JUMPI SWAP1 DUP3 SWAP2 PUSH2 0xF1E PUSH2 0x2710 SWAP4 DUP5 SWAP3 PUSH2 0x17EB JUMP JUMPDEST DIV SWAP1 PUSH1 0xC DUP2 MUL SWAP1 DUP1 DUP3 DIV PUSH1 0xC EQ SWAP1 ISZERO OR ISZERO PUSH2 0xFE6 JUMPI DUP1 DUP3 SUB SWAP3 DUP3 DUP5 GT PUSH2 0xFD3 JUMPI DUP6 ISZERO PUSH2 0xFA5 JUMPI DUP1 DUP5 MUL SWAP4 DUP5 DIV EQ SWAP2 EQ OR ISZERO PUSH2 0xF92 JUMPI PUSH32 0x23C198DBE1A7BC6C0069DB4509EBD9E5905EBA75B79E3B28ABA8FCF44A066664 SWAP5 SWAP6 POP DUP3 PUSH2 0xF81 SWAP2 PUSH2 0x17FE JUMP JUMPDEST PUSH1 0x14 SSTORE DUP3 MLOAD SWAP2 DUP3 MSTORE PUSH1 0x20 DUP3 ADD MSTORE LOG1 DUP1 RETURN JUMPDEST PUSH4 0x4E487B71 PUSH1 0xE0 SHL DUP6 MSTORE PUSH1 0x11 DUP7 MSTORE PUSH1 0x24 DUP6 REVERT JUMPDEST POP POP POP POP DUP4 PUSH32 0x23C198DBE1A7BC6C0069DB4509EBD9E5905EBA75B79E3B28ABA8FCF44A066664 SWAP5 SWAP6 POP PUSH2 0xF81 JUMP JUMPDEST PUSH4 0x4E487B71 PUSH1 0xE0 SHL DUP9 MSTORE PUSH1 0x11 DUP10 MSTORE PUSH1 0x24 DUP9 REVERT JUMPDEST PUSH4 0x4E487B71 PUSH1 0xE0 SHL DUP8 MSTORE PUSH1 0x11 DUP9 MSTORE PUSH1 0x24 DUP8 REVERT JUMPDEST PUSH4 0x4E487B71 PUSH1 0xE0 SHL DUP7 MSTORE PUSH1 0x11 DUP8 MSTORE PUSH1 0x24 DUP7 REVERT JUMPDEST POP SWAP2 SWAP1 CALLVALUE PUSH2 0x2A4 JUMPI PUSH1 0x60 CALLDATASIZE PUSH1 0x3 NOT ADD SLT PUSH2 0x2A4 JUMPI PUSH2 0x1028 PUSH2 0x14A3 JUMP JUMPDEST PUSH2 0x1030 PUSH2 0x14BE JUMP JUMPDEST SWAP2 DUP5 PUSH1 0x44 CALLDATALOAD SWAP5 PUSH1 0x1 DUP1 PUSH1 0xA0 SHL SUB DUP5 AND DUP2 MSTORE PUSH1 0x1 PUSH1 0x20 MSTORE KECCAK256 CALLER PUSH1 0x0 MSTORE PUSH1 0x20 MSTORE DUP5 PUSH1 0x0 KECCAK256 SLOAD SWAP1 PUSH1 0x0 NOT DUP3 SUB PUSH2 0x106C JUMPI JUMPDEST PUSH1 0x20 DUP7 PUSH2 0x3B7 DUP8 DUP8 DUP8 PUSH2 0x152F JUMP JUMPDEST DUP5 DUP3 LT PUSH2 0x1095 JUMPI POP SWAP2 DUP4 SWAP2 PUSH2 0x108A PUSH1 0x20 SWAP7 SWAP6 PUSH2 0x3B7 SWAP6 SUB CALLER DUP4 PUSH2 0x169D JUMP JUMPDEST SWAP2 SWAP4 SWAP5 DUP2 SWAP4 POP PUSH2 0x105E JUMP JUMPDEST PUSH1 0x64 SWAP1 PUSH1 0x20 DUP8 MLOAD SWAP2 PUSH3 0x461BCD PUSH1 0xE5 SHL DUP4 MSTORE DUP3 ADD MSTORE PUSH1 0x1D PUSH1 0x24 DUP3 ADD MSTORE PUSH32 0x45524332303A20696E73756666696369656E7420616C6C6F77616E6365000000 PUSH1 0x44 DUP3 ADD MSTORE REVERT JUMPDEST DUP4 DUP3 CALLVALUE PUSH2 0x2A4 JUMPI DUP2 PUSH1 0x3 NOT CALLDATASIZE ADD SLT PUSH2 0x2A4 JUMPI PUSH1 0x20 SWAP1 PUSH1 0xFF PUSH1 0xE SLOAD AND SWAP1 MLOAD SWAP1 ISZERO ISZERO DUP2 MSTORE RETURN JUMPDEST POP SWAP2 CALLVALUE PUSH2 0x464 JUMPI DUP1 PUSH1 0x3 NOT CALLDATASIZE ADD SLT PUSH2 0x464 JUMPI PUSH1 0x17 SLOAD SWAP2 PUSH1 0xC DUP4 MUL SWAP3 DUP1 DUP5 DIV PUSH1 0xC EQ SWAP1 ISZERO OR ISZERO PUSH2 0x116E JUMPI POP POP PUSH2 0x4AD PUSH1 0x14 SLOAD SWAP3 PUSH1 0x12 SLOAD PUSH2 0x1140 PUSH1 0x15 SLOAD PUSH1 0x19 SLOAD SWAP1 PUSH2 0x150C JUMP JUMPDEST SWAP1 PUSH1 0x18 SLOAD SWAP3 MLOAD SWAP6 DUP7 SWAP6 DUP7 SWAP2 SWAP3 PUSH1 0x80 SWAP4 SWAP7 SWAP6 SWAP5 SWAP2 SWAP7 PUSH1 0xA0 DUP5 ADD SWAP8 DUP5 MSTORE PUSH1 0x20 DUP5 ADD MSTORE PUSH1 0x40 DUP4 ADD MSTORE PUSH1 0x60 DUP3 ADD MSTORE ADD MSTORE JUMP JUMPDEST PUSH4 0x4E487B71 PUSH1 0xE0 SHL DUP3 MSTORE PUSH1 0x11 SWAP1 MSTORE PUSH1 0x24 SWAP1 REVERT JUMPDEST DUP4 DUP3 CALLVALUE PUSH2 0x2A4 JUMPI DUP2 PUSH1 0x3 NOT CALLDATASIZE ADD SLT PUSH2 0x2A4 JUMPI PUSH1 0xC0 SWAP1 PUSH1 0xF SLOAD SWAP1 PUSH1 0x10 SLOAD SWAP1 PUSH1 0x11 SLOAD PUSH1 0x12 SLOAD SWAP1 PUSH1 0x13 SLOAD SWAP3 PUSH1 0x14 SLOAD SWAP5 DUP2 MLOAD SWAP7 DUP8 MSTORE PUSH1 0x20 DUP8 ADD MSTORE DUP6 ADD MSTORE PUSH1 0x60 DUP5 ADD MSTORE PUSH1 0x80 DUP4 ADD MSTORE PUSH1 0xA0 DUP3 ADD MSTORE RETURN JUMPDEST DUP4 DUP3 CALLVALUE PUSH2 0x2A4 JUMPI DUP2 PUSH1 0x3 NOT CALLDATASIZE ADD SLT PUSH2 0x2A4 JUMPI PUSH1 0x20 SWAP1 PUSH1 0x2 SLOAD SWAP1 MLOAD SWAP1 DUP2 MSTORE RETURN JUMPDEST DUP4 DUP3 CALLVALUE PUSH2 0x2A4 JUMPI PUSH1 0x20 CALLDATASIZE PUSH1 0x3 NOT ADD SLT PUSH2 0x2A4 JUMPI PUSH1 0x20 SWAP2 DUP2 SWAP1 PUSH1 0x1 PUSH1 0x1 PUSH1 0xA0 SHL SUB PUSH2 0x1212 PUSH2 0x14A3 JUMP JUMPDEST AND DUP2 MSTORE PUSH1 0x1B DUP5 MSTORE KECCAK256 SLOAD SWAP1 MLOAD SWAP1 DUP2 MSTORE RETURN JUMPDEST DUP4 DUP3 CALLVALUE PUSH2 0x2A4 JUMPI DUP1 PUSH1 0x3 NOT CALLDATASIZE ADD SLT PUSH2 0x2A4 JUMPI PUSH1 0x20 SWAP1 PUSH2 0x3B7 PUSH2 0x1242 PUSH2 0x14A3 JUMP JUMPDEST PUSH1 0x24 CALLDATALOAD SWAP1 CALLER PUSH2 0x169D JUMP JUMPDEST POP DUP3 CALLVALUE PUSH2 0x464 JUMPI DUP1 PUSH1 0x3 NOT CALLDATASIZE ADD SLT PUSH2 0x464 JUMPI POP DUP1 MLOAD SWAP1 PUSH1 0x0 SWAP3 PUSH1 0x3 SLOAD PUSH1 0x1 DUP2 DUP2 SHR SWAP2 DUP2 DUP2 AND DUP1 ISZERO PUSH2 0x1304 JUMPI JUMPDEST PUSH1 0x20 SWAP5 DUP6 DUP6 LT DUP3 EQ PUSH2 0x6E7 JUMPI POP DUP4 DUP8 MSTORE SWAP1 DUP2 ISZERO PUSH2 0x6C7 JUMPI POP PUSH1 0x1 EQ PUSH2 0x12A9 JUMPI POP POP POP PUSH2 0x546 DUP3 PUSH2 0x4AD SWAP5 SUB DUP4 PUSH2 0x14D4 JUMP JUMPDEST PUSH1 0x3 PUSH1 0x0 SWAP1 DUP2 MSTORE SWAP3 SWAP6 POP PUSH32 0xC2575A0E9E593C00F959F8C92F12DB2869C3395A3B0502D05E2516446F71F85B JUMPDEST DUP3 DUP5 LT PUSH2 0x12F1 JUMPI POP POP POP DUP3 PUSH2 0x4AD SWAP5 PUSH2 0x546 SWAP3 DUP3 ADD ADD SWAP5 PUSH2 0x65A JUMP JUMPDEST DUP1 SLOAD DUP7 DUP6 ADD DUP9 ADD MSTORE SWAP3 DUP7 ADD SWAP3 DUP2 ADD PUSH2 0x12D5 JUMP JUMPDEST SWAP3 PUSH1 0x7F AND SWAP3 PUSH2 0x1278 JUMP JUMPDEST POP SWAP2 SWAP1 DUP2 PUSH1 0x3 NOT CALLDATASIZE ADD SLT PUSH2 0x2A4 JUMPI PUSH2 0x1331 PUSH1 0x1 DUP1 PUSH1 0xA0 SHL SUB PUSH1 0x7 SLOAD AND CALLER EQ PUSH2 0x179F JUMP JUMPDEST CALLVALUE ISZERO PUSH2 0x1411 JUMPI PUSH1 0x2 SLOAD SWAP1 ADDRESS DUP4 MSTORE DUP3 PUSH1 0x20 MSTORE DUP4 DUP4 KECCAK256 SLOAD DUP3 GT ISZERO PUSH2 0x13DF JUMPI PUSH2 0x1359 CALLVALUE PUSH1 0x1C SLOAD PUSH2 0x150C JUMP JUMPDEST PUSH1 0x1C SSTORE ADDRESS DUP4 MSTORE DUP3 PUSH1 0x20 MSTORE DUP4 DUP4 KECCAK256 SLOAD DUP3 SUB SWAP2 DUP3 GT PUSH2 0x13CC JUMPI POP PUSH2 0x137B SWAP1 CALLVALUE PUSH2 0x17FE JUMP JUMPDEST SWAP2 PUSH2 0x1388 CALLVALUE PUSH1 0x15 SLOAD PUSH2 0x150C JUMP JUMPDEST PUSH1 0x15 SSTORE TIMESTAMP PUSH1 0x16 SSTORE TIMESTAMP PUSH2 0x13C7 JUMPI JUMPDEST PUSH32 0x2F588CF4BB0247B0F3F60E06187F92E6FD1DEAABB56E2BCC5672352337871327 SWAP2 SWAP3 DUP2 MLOAD SWAP1 CALLVALUE DUP3 MSTORE PUSH1 0x20 DUP3 ADD MSTORE LOG1 DUP1 RETURN JUMPDEST PUSH2 0x1395 JUMP JUMPDEST PUSH4 0x4E487B71 PUSH1 0xE0 SHL DUP4 MSTORE PUSH1 0x11 SWAP1 MSTORE PUSH1 0x24 DUP3 REVERT JUMPDEST PUSH1 0x64 SWAP1 PUSH1 0x20 DUP6 MLOAD SWAP2 PUSH3 0x461BCD PUSH1 0xE5 SHL DUP4 MSTORE DUP3 ADD MSTORE PUSH1 0xC PUSH1 0x24 DUP3 ADD MSTORE PUSH12 0x4E6F20696E766573746F7273 PUSH1 0xA0 SHL PUSH1 0x44 DUP3 ADD MSTORE REVERT JUMPDEST PUSH1 0x64 SWAP1 PUSH1 0x20 DUP5 MLOAD SWAP2 PUSH3 0x461BCD PUSH1 0xE5 SHL DUP4 MSTORE DUP3 ADD MSTORE PUSH1 0x19 PUSH1 0x24 DUP3 ADD MSTORE PUSH32 0x4E6F206469766964656E6420746F206469737472696275746500000000000000 PUSH1 0x44 DUP3 ADD MSTORE REVERT JUMPDEST PUSH1 0x0 JUMPDEST DUP4 DUP2 LT PUSH2 0x1467 JUMPI POP POP PUSH1 0x0 SWAP2 ADD MSTORE JUMP JUMPDEST DUP2 DUP2 ADD MLOAD DUP4 DUP3 ADD MSTORE PUSH1 0x20 ADD PUSH2 0x1457 JUMP JUMPDEST PUSH1 0x40 SWAP2 PUSH1 0x20 DUP3 MSTORE PUSH2 0x1497 DUP2 MLOAD DUP1 SWAP3 DUP2 PUSH1 0x20 DUP7 ADD MSTORE PUSH1 0x20 DUP7 DUP7 ADD SWAP2 ADD PUSH2 0x1454 JUMP JUMPDEST PUSH1 0x1F ADD PUSH1 0x1F NOT AND ADD ADD SWAP1 JUMP JUMPDEST PUSH1 0x4 CALLDATALOAD SWAP1 PUSH1 0x1 PUSH1 0x1 PUSH1 0xA0 SHL SUB DUP3 AND DUP3 SUB PUSH2 0x14B9 JUMPI JUMP JUMPDEST PUSH1 0x0 DUP1 REVERT JUMPDEST PUSH1 0x24 CALLDATALOAD SWAP1 PUSH1 0x1 PUSH1 0x1 PUSH1 0xA0 SHL SUB DUP3 AND DUP3 SUB PUSH2 0x14B9 JUMPI JUMP JUMPDEST SWAP1 PUSH1 0x1F DUP1 NOT SWAP2 ADD AND DUP2 ADD SWAP1 DUP2 LT PUSH8 0xFFFFFFFFFFFFFFFF DUP3 GT OR PUSH2 0x14F6 JUMPI PUSH1 0x40 MSTORE JUMP JUMPDEST PUSH4 0x4E487B71 PUSH1 0xE0 SHL PUSH1 0x0 MSTORE PUSH1 0x41 PUSH1 0x4 MSTORE PUSH1 0x24 PUSH1 0x0 REVERT JUMPDEST SWAP2 SWAP1 DUP3 ADD DUP1 SWAP3 GT PUSH2 0x1519 JUMPI JUMP JUMPDEST PUSH4 0x4E487B71 PUSH1 0xE0 SHL PUSH1 0x0 MSTORE PUSH1 0x11 PUSH1 0x4 MSTORE PUSH1 0x24 PUSH1 0x0 REVERT JUMPDEST PUSH1 0x1 PUSH1 0x1 PUSH1 0xA0 SHL SUB SWAP1 DUP2 AND SWAP2 DUP3 ISZERO PUSH2 0x164A JUMPI AND SWAP2 DUP3 ISZERO PUSH2 0x15F9 JUMPI PUSH1 0x0 DUP3 DUP2 MSTORE DUP1 PUSH1 0x20 MSTORE PUSH1 0x40 DUP2 KECCAK256 SLOAD SWAP2 DUP1 DUP4 LT PUSH2 0x15A5 JUMPI PUSH1 0x40 DUP3 DUP3 PUSH32 0xDDF252AD1BE2C89B69C2B068FC378DAA952BA7F163C4A11628F55A4DF523B3EF SWAP6 DUP8 PUSH1 0x20 SWAP7 MSTORE DUP3 DUP7 MSTORE SUB DUP3 DUP3 KECCAK256 SSTORE DUP7 DUP2 MSTORE KECCAK256 DUP2 DUP2 SLOAD ADD SWAP1 SSTORE PUSH1 0x40 MLOAD SWAP1 DUP2 MSTORE LOG3 JUMP JUMPDEST PUSH1 0x40 MLOAD PUSH3 0x461BCD PUSH1 0xE5 SHL DUP2 MSTORE PUSH1 0x20 PUSH1 0x4 DUP3 ADD MSTORE PUSH1 0x26 PUSH1 0x24 DUP3 ADD MSTORE PUSH32 0x45524332303A207472616E7366657220616D6F756E7420657863656564732062 PUSH1 0x44 DUP3 ADD MSTORE PUSH6 0x616C616E6365 PUSH1 0xD0 SHL PUSH1 0x64 DUP3 ADD MSTORE PUSH1 0x84 SWAP1 REVERT JUMPDEST PUSH1 0x40 MLOAD PUSH3 0x461BCD PUSH1 0xE5 SHL DUP2 MSTORE PUSH1 0x20 PUSH1 0x4 DUP3 ADD MSTORE PUSH1 0x23 PUSH1 0x24 DUP3 ADD MSTORE PUSH32 0x45524332303A207472616E7366657220746F20746865207A65726F2061646472 PUSH1 0x44 DUP3 ADD MSTORE PUSH3 0x657373 PUSH1 0xE8 SHL PUSH1 0x64 DUP3 ADD MSTORE PUSH1 0x84 SWAP1 REVERT JUMPDEST PUSH1 0x40 MLOAD PUSH3 0x461BCD PUSH1 0xE5 SHL DUP2 MSTORE PUSH1 0x20 PUSH1 0x4 DUP3 ADD MSTORE PUSH1 0x25 PUSH1 0x24 DUP3 ADD MSTORE PUSH32 0x45524332303A207472616E736665722066726F6D20746865207A65726F206164 PUSH1 0x44 DUP3 ADD MSTORE PUSH5 0x6472657373 PUSH1 0xD8 SHL PUSH1 0x64 DUP3 ADD MSTORE PUSH1 0x84 SWAP1 REVERT JUMPDEST PUSH1 0x1 PUSH1 0x1 PUSH1 0xA0 SHL SUB SWAP1 DUP2 AND SWAP2 DUP3 ISZERO PUSH2 0x174E JUMPI AND SWAP2 DUP3 ISZERO PUSH2 0x16FE JUMPI PUSH1 0x20 PUSH32 0x8C5BE1E5EBEC7D5BD14F71427D1E84F3DD0314C0F7B2291E5B200AC8C7C3B925 SWAP2 DUP4 PUSH1 0x0 MSTORE PUSH1 0x1 DUP3 MSTORE PUSH1 0x40 PUSH1 0x0 KECCAK256 DUP6 PUSH1 0x0 MSTORE DUP3 MSTORE DUP1 PUSH1 0x40 PUSH1 0x0 KECCAK256 SSTORE PUSH1 0x40 MLOAD SWAP1 DUP2 MSTORE LOG3 JUMP JUMPDEST PUSH1 0x40 MLOAD PUSH3 0x461BCD PUSH1 0xE5 SHL DUP2 MSTORE PUSH1 0x20 PUSH1 0x4 DUP3 ADD MSTORE PUSH1 0x22 PUSH1 0x24 DUP3 ADD MSTORE PUSH32 0x45524332303A20617070726F766520746F20746865207A65726F206164647265 PUSH1 0x44 DUP3 ADD MSTORE PUSH2 0x7373 PUSH1 0xF0 SHL PUSH1 0x64 DUP3 ADD MSTORE PUSH1 0x84 SWAP1 REVERT JUMPDEST PUSH1 0x40 MLOAD PUSH3 0x461BCD PUSH1 0xE5 SHL DUP2 MSTORE PUSH1 0x20 PUSH1 0x4 DUP3 ADD MSTORE PUSH1 0x24 DUP1 DUP3 ADD MSTORE PUSH32 0x45524332303A20617070726F76652066726F6D20746865207A65726F20616464 PUSH1 0x44 DUP3 ADD MSTORE PUSH4 0x72657373 PUSH1 0xE0 SHL PUSH1 0x64 DUP3 ADD MSTORE PUSH1 0x84 SWAP1 REVERT JUMPDEST ISZERO PUSH2 0x17A6 JUMPI JUMP JUMPDEST PUSH1 0x40 MLOAD PUSH3 0x461BCD PUSH1 0xE5 SHL DUP2 MSTORE PUSH1 0x20 PUSH1 0x4 DUP3 ADD MSTORE PUSH1 0x17 PUSH1 0x24 DUP3 ADD MSTORE PUSH32 0x4F6E6C7920646576656C6F7065722063616E2063616C6C000000000000000000 PUSH1 0x44 DUP3 ADD MSTORE PUSH1 0x64 SWAP1 REVERT JUMPDEST DUP2 DUP2 MUL SWAP3 SWAP2 DUP2 ISZERO SWAP2 DUP5 DIV EQ OR ISZERO PUSH2 0x1519 JUMPI JUMP JUMPDEST DUP2 ISZERO PUSH2 0x1808 JUMPI DIV SWAP1 JUMP JUMPDEST PUSH4 0x4E487B71 PUSH1 0xE0 SHL PUSH1 0x0 MSTORE PUSH1 0x12 PUSH1 0x4 MSTORE PUSH1 0x24 PUSH1 0x0 REVERT JUMPDEST DUP2 PUSH1 0x1F DUP3 ADD SLT ISZERO PUSH2 0x14B9 JUMPI DUP1 MLOAD PUSH8 0xFFFFFFFFFFFFFFFF DUP2 GT PUSH2 0x14F6 JUMPI PUSH1 0x40 MLOAD SWAP3 PUSH2 0x1852 PUSH1 0x1F DUP4 ADD PUSH1 0x1F NOT AND PUSH1 0x20 ADD DUP6 PUSH2 0x14D4 JUMP JUMPDEST DUP2 DUP5 MSTORE PUSH1 0x20 DUP3 DUP5 ADD ADD GT PUSH2 0x14B9 JUMPI PUSH2 0x1870 SWAP2 PUSH1 0x20 DUP1 DUP6 ADD SWAP2 ADD PUSH2 0x1454 JUMP JUMPDEST SWAP1 JUMP JUMPDEST PUSH1 0x2 PUSH1 0x5 SLOAD EQ PUSH2 0x1884 JUMPI PUSH1 0x2 PUSH1 0x5 SSTORE JUMP JUMPDEST PUSH1 0x40 MLOAD PUSH3 0x461BCD PUSH1 0xE5 SHL DUP2 MSTORE PUSH1 0x20 PUSH1 0x4 DUP3 ADD MSTORE PUSH1 0x1F PUSH1 0x24 DUP3 ADD MSTORE PUSH32 0x5265656E7472616E637947756172643A207265656E7472616E742063616C6C00 PUSH1 0x44 DUP3 ADD MSTORE PUSH1 0x64 SWAP1 REVERT INVALID LOG2 PUSH5 0x6970667358 0x22 SLT KECCAK256 SWAP8 0xDC ADD OR SHL RETURNDATASIZE SHR 0xD5 DUP5 LOG2 SWAP1 PUSH15 0x2B781E81C8BBACEC38338907B31641 0xFC DUP12 RETURNDATASIZE 0xD7 0x5F PUSH5 0x736F6C6343 STOP ADDMOD SGT STOP CALLER "},"methodIdentifiers":{"MINIMUM_INVESTMENT()":"8a4660fe","activateToken()":"f957417e","allowance(address,address)":"dd62ed3e","approve(address,uint256)":"095ea7b3","balanceOf(address)":"70a08231","buyTokens(uint256)":"3610724e","category()":"ef430aa6","cityCode()":"8955aa02","claimDividends()":"668038e0","decimals()":"313ce567","decreaseAllowance(address,uint256)":"a457c2d7","developer()":"ca4b208b","distributeDividends()":"03c83302","dividendPool()":"30d172d5","dividendsClaimed(address)":"124403b9","factory()":"c45a0155","fundingDeadline()":"796b23bb","fundingGoal()":"7a3a0e84","getFundingStatus()":"f2dfc3fc","getInvestmentMetrics()":"207d0527","getTokenPrice()":"4b94f50e","increaseAllowance(address,uint256)":"39509351","investments(address)":"96b98862","isActive()":"22f3e2d4","isFunded()":"7c654303","name()":"06fdde03","paused()":"5c975abb","performanceData()":"97787747","pricePerToken()":"7b1b1de6","propertyMetrics()":"18fa236c","symbol()":"95d89b41","totalRaised()":"c5c4744c","totalSupply()":"18160ddd","transfer(address,uint256)":"a9059cbb","transferFrom(address,address,uint256)":"23b872dd","updatePropertyMetrics(uint256,uint256,uint256,uint256)":"251d11dd"}}}}}