{"contracts/XERAToken.sol":{"XERAToken":{"abi":[{"inputs":[],"stateMutability":"nonpayable","type":"constructor"},{"inputs":[],"name":"InvalidShortString","type":"error"},{"inputs":[{"internalType":"string","name":"str","type":"string"}],"name":"StringTooLong","type":"error"},{"anonymous":false,"inputs":[{"indexed":true,"internalType":"address","name":"owner","type":"address"},{"indexed":true,"internalType":"address","name":"spender","type":"address"},{"indexed":false,"internalType":"uint256","name":"value","type":"uint256"}],"name":"Approval","type":"event"},{"anonymous":false,"inputs":[{"indexed":true,"internalType":"string","name":"cityCode","type":"string"},{"indexed":false,"internalType":"uint256","name":"newValue","type":"uint256"}],"name":"CityPoolUpdated","type":"event"},{"anonymous":false,"inputs":[{"indexed":true,"internalType":"address","name":"delegator","type":"address"},{"indexed":true,"internalType":"address","name":"fromDelegate","type":"address"},{"indexed":true,"internalType":"address","name":"toDelegate","type":"address"}],"name":"DelegateChanged","type":"event"},{"anonymous":false,"inputs":[{"indexed":true,"internalType":"address","name":"delegate","type":"address"},{"indexed":false,"internalType":"uint256","name":"previousBalance","type":"uint256"},{"indexed":false,"internalType":"uint256","name":"newBalance","type":"uint256"}],"name":"DelegateVotesChanged","type":"event"},{"anonymous":false,"inputs":[{"indexed":true,"internalType":"address","name":"user","type":"address"},{"indexed":false,"internalType":"uint256","name":"amount","type":"uint256"},{"indexed":false,"internalType":"uint256","name":"periodId","type":"uint256"}],"name":"DividendClaimed","type":"event"},{"anonymous":false,"inputs":[{"indexed":true,"internalType":"uint256","name":"periodId","type":"uint256"},{"indexed":false,"internalType":"uint256","name":"totalAmount","type":"uint256"}],"name":"DividendDeclared","type":"event"},{"anonymous":false,"inputs":[],"name":"EIP712DomainChanged","type":"event"},{"anonymous":false,"inputs":[{"indexed":false,"internalType":"address","name":"account","type":"address"}],"name":"Paused","type":"event"},{"anonymous":false,"inputs":[{"indexed":true,"internalType":"uint256","name":"propertyId","type":"uint256"},{"indexed":true,"internalType":"address","name":"owner","type":"address"},{"indexed":false,"internalType":"uint256","name":"valuation","type":"uint256"},{"indexed":false,"internalType":"string","name":"cityCode","type":"string"},{"indexed":false,"internalType":"enum XERAToken.PropertyCategory","name":"category","type":"uint8"}],"name":"PropertyAdded","type":"event"},{"anonymous":false,"inputs":[{"indexed":true,"internalType":"uint256","name":"propertyId","type":"uint256"},{"indexed":false,"internalType":"uint256","name":"oldValuation","type":"uint256"},{"indexed":false,"internalType":"uint256","name":"newValuation","type":"uint256"}],"name":"PropertyRevalued","type":"event"},{"anonymous":false,"inputs":[{"indexed":true,"internalType":"uint256","name":"propertyId","type":"uint256"},{"indexed":false,"internalType":"uint256","name":"salePrice","type":"uint256"}],"name":"PropertySold","type":"event"},{"anonymous":false,"inputs":[{"indexed":true,"internalType":"bytes32","name":"role","type":"bytes32"},{"indexed":true,"internalType":"bytes32","name":"previousAdminRole","type":"bytes32"},{"indexed":true,"internalType":"bytes32","name":"newAdminRole","type":"bytes32"}],"name":"RoleAdminChanged","type":"event"},{"anonymous":false,"inputs":[{"indexed":true,"internalType":"bytes32","name":"role","type":"bytes32"},{"indexed":true,"internalType":"address","name":"account","type":"address"},{"indexed":true,"internalType":"address","name":"sender","type":"address"}],"name":"RoleGranted","type":"event"},{"anonymous":false,"inputs":[{"indexed":true,"internalType":"bytes32","name":"role","type":"bytes32"},{"indexed":true,"internalType":"address","name":"account","type":"address"},{"indexed":true,"internalType":"address","name":"sender","type":"address"}],"name":"RoleRevoked","type":"event"},{"anonymous":false,"inputs":[{"indexed":true,"internalType":"address","name":"from","type":"address"},{"indexed":true,"internalType":"address","name":"to","type":"address"},{"indexed":false,"internalType":"uint256","name":"value","type":"uint256"}],"name":"Transfer","type":"event"},{"anonymous":false,"inputs":[{"indexed":false,"internalType":"address","name":"account","type":"address"}],"name":"Unpaused","type":"event"},{"inputs":[],"name":"ADMIN_ROLE","outputs":[{"internalType":"bytes32","name":"","type":"bytes32"}],"stateMutability":"view","type":"function"},{"inputs":[],"name":"CLOCK_MODE","outputs":[{"internalType":"string","name":"","type":"string"}],"stateMutability":"view","type":"function"},{"inputs":[],"name":"DEFAULT_ADMIN_ROLE","outputs":[{"internalType":"bytes32","name":"","type":"bytes32"}],"stateMutability":"view","type":"function"},{"inputs":[],"name":"DOMAIN_SEPARATOR","outputs":[{"internalType":"bytes32","name":"","type":"bytes32"}],"stateMutability":"view","type":"function"},{"inputs":[],"name":"MAX_SUPPLY","outputs":[{"internalType":"uint256","name":"","type":"uint256"}],"stateMutability":"view","type":"function"},{"inputs":[],"name":"PROPERTY_MANAGER_ROLE","outputs":[{"internalType":"bytes32","name":"","type":"bytes32"}],"stateMutability":"view","type":"function"},{"inputs":[],"name":"VALUER_ROLE","outputs":[{"internalType":"bytes32","name":"","type":"bytes32"}],"stateMutability":"view","type":"function"},{"inputs":[{"internalType":"address","name":"propertyOwner","type":"address"},{"internalType":"string","name":"propertyAddress","type":"string"},{"internalType":"uint256","name":"valuationInWei","type":"uint256"},{"internalType":"string","name":"ipfsDocumentHash","type":"string"},{"internalType":"enum XERAToken.PropertyCategory","name":"category","type":"uint8"},{"internalType":"string","name":"cityCode","type":"string"}],"name":"addProperty","outputs":[{"internalType":"uint256","name":"","type":"uint256"}],"stateMutability":"nonpayable","type":"function"},{"inputs":[{"internalType":"address","name":"owner","type":"address"},{"internalType":"address","name":"spender","type":"address"}],"name":"allowance","outputs":[{"internalType":"uint256","name":"","type":"uint256"}],"stateMutability":"view","type":"function"},{"inputs":[{"internalType":"address","name":"spender","type":"address"},{"internalType":"uint256","name":"amount","type":"uint256"}],"name":"approve","outputs":[{"internalType":"bool","name":"","type":"bool"}],"stateMutability":"nonpayable","type":"function"},{"inputs":[{"internalType":"uint256","name":"propertyId","type":"uint256"}],"name":"approveProperty","outputs":[],"stateMutability":"nonpayable","type":"function"},{"inputs":[{"internalType":"address","name":"account","type":"address"}],"name":"balanceOf","outputs":[{"internalType":"uint256","name":"","type":"uint256"}],"stateMutability":"view","type":"function"},{"inputs":[],"name":"calculateDiversificationScore","outputs":[{"internalType":"uint256","name":"","type":"uint256"}],"stateMutability":"view","type":"function"},{"inputs":[{"internalType":"uint256","name":"propertyValue","type":"uint256"},{"internalType":"enum XERAToken.PropertyCategory","name":"category","type":"uint8"},{"internalType":"string","name":"cityCode","type":"string"}],"name":"calculateTokenAllocation","outputs":[{"internalType":"uint256","name":"","type":"uint256"}],"stateMutability":"view","type":"function"},{"inputs":[{"internalType":"enum XERAToken.PropertyCategory","name":"","type":"uint8"}],"name":"categoryValues","outputs":[{"internalType":"uint256","name":"","type":"uint256"}],"stateMutability":"view","type":"function"},{"inputs":[{"internalType":"address","name":"account","type":"address"},{"internalType":"uint32","name":"pos","type":"uint32"}],"name":"checkpoints","outputs":[{"components":[{"internalType":"uint32","name":"fromBlock","type":"uint32"},{"internalType":"uint224","name":"votes","type":"uint224"}],"internalType":"struct ERC20Votes.Checkpoint","name":"","type":"tuple"}],"stateMutability":"view","type":"function"},{"inputs":[{"internalType":"string","name":"","type":"string"}],"name":"cityPoolValues","outputs":[{"internalType":"uint256","name":"","type":"uint256"}],"stateMutability":"view","type":"function"},{"inputs":[{"internalType":"string","name":"","type":"string"},{"internalType":"uint256","name":"","type":"uint256"}],"name":"cityProperties","outputs":[{"internalType":"uint256","name":"","type":"uint256"}],"stateMutability":"view","type":"function"},{"inputs":[],"name":"claimAllAvailableDividends","outputs":[],"stateMutability":"nonpayable","type":"function"},{"inputs":[],"name":"clock","outputs":[{"internalType":"uint48","name":"","type":"uint48"}],"stateMutability":"view","type":"function"},{"inputs":[],"name":"currentDividendPeriod","outputs":[{"internalType":"uint256","name":"","type":"uint256"}],"stateMutability":"view","type":"function"},{"inputs":[],"name":"currentPropertyCount","outputs":[{"internalType":"uint256","name":"","type":"uint256"}],"stateMutability":"view","type":"function"},{"inputs":[],"name":"decimals","outputs":[{"internalType":"uint8","name":"","type":"uint8"}],"stateMutability":"view","type":"function"},{"inputs":[{"internalType":"string","name":"source","type":"string"}],"name":"declareDividend","outputs":[],"stateMutability":"payable","type":"function"},{"inputs":[{"internalType":"address","name":"spender","type":"address"},{"internalType":"uint256","name":"subtractedValue","type":"uint256"}],"name":"decreaseAllowance","outputs":[{"internalType":"bool","name":"","type":"bool"}],"stateMutability":"nonpayable","type":"function"},{"inputs":[{"internalType":"address","name":"delegatee","type":"address"}],"name":"delegate","outputs":[],"stateMutability":"nonpayable","type":"function"},{"inputs":[{"internalType":"address","name":"delegatee","type":"address"},{"internalType":"uint256","name":"nonce","type":"uint256"},{"internalType":"uint256","name":"expiry","type":"uint256"},{"internalType":"uint8","name":"v","type":"uint8"},{"internalType":"bytes32","name":"r","type":"bytes32"},{"internalType":"bytes32","name":"s","type":"bytes32"}],"name":"delegateBySig","outputs":[],"stateMutability":"nonpayable","type":"function"},{"inputs":[{"internalType":"address","name":"account","type":"address"}],"name":"delegates","outputs":[{"internalType":"address","name":"","type":"address"}],"stateMutability":"view","type":"function"},{"inputs":[{"internalType":"uint256","name":"","type":"uint256"}],"name":"dividendPeriods","outputs":[{"internalType":"uint256","name":"periodId","type":"uint256"},{"internalType":"uint256","name":"totalDividend","type":"uint256"},{"internalType":"uint256","name":"exDividendDate","type":"uint256"},{"internalType":"uint256","name":"paymentDate","type":"uint256"}],"stateMutability":"view","type":"function"},{"inputs":[],"name":"eip712Domain","outputs":[{"internalType":"bytes1","name":"fields","type":"bytes1"},{"internalType":"string","name":"name","type":"string"},{"internalType":"string","name":"version","type":"string"},{"internalType":"uint256","name":"chainId","type":"uint256"},{"internalType":"address","name":"verifyingContract","type":"address"},{"internalType":"bytes32","name":"salt","type":"bytes32"},{"internalType":"uint256[]","name":"extensions","type":"uint256[]"}],"stateMutability":"view","type":"function"},{"inputs":[],"name":"getCategoryBreakdown","outputs":[{"internalType":"uint256","name":"residential","type":"uint256"},{"internalType":"uint256","name":"commercial","type":"uint256"},{"internalType":"uint256","name":"mixedUse","type":"uint256"},{"internalType":"uint256","name":"land","type":"uint256"},{"internalType":"uint256","name":"industrial","type":"uint256"}],"stateMutability":"view","type":"function"},{"inputs":[{"internalType":"enum XERAToken.PropertyCategory","name":"category","type":"uint8"}],"name":"getCategoryMultiplier","outputs":[{"internalType":"uint256","name":"","type":"uint256"}],"stateMutability":"pure","type":"function"},{"inputs":[{"internalType":"string","name":"cityCode","type":"string"}],"name":"getCityMultiplier","outputs":[{"internalType":"uint256","name":"","type":"uint256"}],"stateMutability":"pure","type":"function"},{"inputs":[{"internalType":"string","name":"cityCode","type":"string"}],"name":"getCityPortfolio","outputs":[{"internalType":"uint256","name":"totalValue","type":"uint256"},{"internalType":"uint256","name":"propertyCount","type":"uint256"},{"internalType":"uint256[]","name":"propertyIds","type":"uint256[]"}],"stateMutability":"view","type":"function"},{"inputs":[],"name":"getNetAssetValue","outputs":[{"internalType":"uint256","name":"","type":"uint256"}],"stateMutability":"view","type":"function"},{"inputs":[{"internalType":"uint256","name":"timepoint","type":"uint256"}],"name":"getPastTotalSupply","outputs":[{"internalType":"uint256","name":"","type":"uint256"}],"stateMutability":"view","type":"function"},{"inputs":[{"internalType":"address","name":"account","type":"address"},{"internalType":"uint256","name":"timepoint","type":"uint256"}],"name":"getPastVotes","outputs":[{"internalType":"uint256","name":"","type":"uint256"}],"stateMutability":"view","type":"function"},{"inputs":[{"internalType":"uint256","name":"propertyId","type":"uint256"}],"name":"getProperty","outputs":[{"internalType":"uint256","name":"id","type":"uint256"},{"internalType":"address","name":"owner","type":"address"},{"internalType":"string","name":"propertyAddress","type":"string"},{"internalType":"uint256","name":"valuationInWei","type":"uint256"},{"internalType":"uint256","name":"tokenAllocation","type":"uint256"},{"internalType":"uint256","name":"lastValuationDate","type":"uint256"},{"internalType":"enum XERAToken.PropertyStatus","name":"status","type":"uint8"},{"internalType":"enum XERAToken.PropertyCategory","name":"category","type":"uint8"},{"internalType":"string","name":"cityCode","type":"string"}],"stateMutability":"view","type":"function"},{"inputs":[{"internalType":"bytes32","name":"role","type":"bytes32"}],"name":"getRoleAdmin","outputs":[{"internalType":"bytes32","name":"","type":"bytes32"}],"stateMutability":"view","type":"function"},{"inputs":[{"internalType":"address","name":"account","type":"address"}],"name":"getVotes","outputs":[{"internalType":"uint256","name":"","type":"uint256"}],"stateMutability":"view","type":"function"},{"inputs":[],"name":"getXERAMetrics","outputs":[{"internalType":"uint256","name":"netAssetValue","type":"uint256"},{"internalType":"uint256","name":"totalProperties","type":"uint256"},{"internalType":"uint256","name":"averagePropertyValue","type":"uint256"},{"internalType":"uint256","name":"diversificationScore","type":"uint256"}],"stateMutability":"view","type":"function"},{"inputs":[{"internalType":"bytes32","name":"role","type":"bytes32"},{"internalType":"address","name":"account","type":"address"}],"name":"grantRole","outputs":[],"stateMutability":"nonpayable","type":"function"},{"inputs":[{"internalType":"bytes32","name":"role","type":"bytes32"},{"internalType":"address","name":"account","type":"address"}],"name":"hasRole","outputs":[{"internalType":"bool","name":"","type":"bool"}],"stateMutability":"view","type":"function"},{"inputs":[{"internalType":"address","name":"spender","type":"address"},{"internalType":"uint256","name":"addedValue","type":"uint256"}],"name":"increaseAllowance","outputs":[{"internalType":"bool","name":"","type":"bool"}],"stateMutability":"nonpayable","type":"function"},{"inputs":[{"internalType":"address","name":"","type":"address"}],"name":"lastClaimedDividend","outputs":[{"internalType":"uint256","name":"","type":"uint256"}],"stateMutability":"view","type":"function"},{"inputs":[],"name":"minimumPropertyValue","outputs":[{"internalType":"uint256","name":"","type":"uint256"}],"stateMutability":"view","type":"function"},{"inputs":[],"name":"name","outputs":[{"internalType":"string","name":"","type":"string"}],"stateMutability":"view","type":"function"},{"inputs":[{"internalType":"address","name":"owner","type":"address"}],"name":"nonces","outputs":[{"internalType":"uint256","name":"","type":"uint256"}],"stateMutability":"view","type":"function"},{"inputs":[{"internalType":"address","name":"account","type":"address"}],"name":"numCheckpoints","outputs":[{"internalType":"uint32","name":"","type":"uint32"}],"stateMutability":"view","type":"function"},{"inputs":[],"name":"paused","outputs":[{"internalType":"bool","name":"","type":"bool"}],"stateMutability":"view","type":"function"},{"inputs":[{"internalType":"address","name":"owner","type":"address"},{"internalType":"address","name":"spender","type":"address"},{"internalType":"uint256","name":"value","type":"uint256"},{"internalType":"uint256","name":"deadline","type":"uint256"},{"internalType":"uint8","name":"v","type":"uint8"},{"internalType":"bytes32","name":"r","type":"bytes32"},{"internalType":"bytes32","name":"s","type":"bytes32"}],"name":"permit","outputs":[],"stateMutability":"nonpayable","type":"function"},{"inputs":[],"name":"platformFeePercentage","outputs":[{"internalType":"uint256","name":"","type":"uint256"}],"stateMutability":"view","type":"function"},{"inputs":[{"internalType":"uint256","name":"","type":"uint256"}],"name":"properties","outputs":[{"internalType":"uint256","name":"id","type":"uint256"},{"internalType":"address","name":"owner","type":"address"},{"internalType":"string","name":"propertyAddress","type":"string"},{"internalType":"uint256","name":"valuationInWei","type":"uint256"},{"internalType":"uint256","name":"tokenAllocation","type":"uint256"},{"internalType":"uint256","name":"lastValuationDate","type":"uint256"},{"internalType":"enum XERAToken.PropertyStatus","name":"status","type":"uint8"},{"internalType":"string","name":"ipfsDocumentHash","type":"string"},{"internalType":"enum XERAToken.PropertyCategory","name":"category","type":"uint8"},{"internalType":"string","name":"cityCode","type":"string"}],"stateMutability":"view","type":"function"},{"inputs":[{"internalType":"bytes32","name":"role","type":"bytes32"},{"internalType":"address","name":"account","type":"address"}],"name":"renounceRole","outputs":[],"stateMutability":"nonpayable","type":"function"},{"inputs":[],"name":"reserveRatio","outputs":[{"internalType":"uint256","name":"","type":"uint256"}],"stateMutability":"view","type":"function"},{"inputs":[{"internalType":"bytes32","name":"role","type":"bytes32"},{"internalType":"address","name":"account","type":"address"}],"name":"revokeRole","outputs":[],"stateMutability":"nonpayable","type":"function"},{"inputs":[{"internalType":"bytes4","name":"interfaceId","type":"bytes4"}],"name":"supportsInterface","outputs":[{"internalType":"bool","name":"","type":"bool"}],"stateMutability":"view","type":"function"},{"inputs":[],"name":"symbol","outputs":[{"internalType":"string","name":"","type":"string"}],"stateMutability":"view","type":"function"},{"inputs":[],"name":"totalPropertyValue","outputs":[{"internalType":"uint256","name":"","type":"uint256"}],"stateMutability":"view","type":"function"},{"inputs":[],"name":"totalSupply","outputs":[{"internalType":"uint256","name":"","type":"uint256"}],"stateMutability":"view","type":"function"},{"inputs":[{"internalType":"address","name":"to","type":"address"},{"internalType":"uint256","name":"amount","type":"uint256"}],"name":"transfer","outputs":[{"internalType":"bool","name":"","type":"bool"}],"stateMutability":"nonpayable","type":"function"},{"inputs":[{"internalType":"address","name":"from","type":"address"},{"internalType":"address","name":"to","type":"address"},{"internalType":"uint256","name":"amount","type":"uint256"}],"name":"transferFrom","outputs":[{"internalType":"bool","name":"","type":"bool"}],"stateMutability":"nonpayable","type":"function"},{"inputs":[{"internalType":"address","name":"","type":"address"},{"internalType":"uint256","name":"","type":"uint256"}],"name":"userProperties","outputs":[{"internalType":"uint256","name":"","type":"uint256"}],"stateMutability":"view","type":"function"}],"evm":{"bytecode":{"linkReferences":{},"object":"610160604052346200026e5762000015620002e0565b6200001f620002b6565b906020917f58455241205265616c2045737461746520496e646961000000000000000000008382015262000052620002e0565b6200005c620002cb565b603160f81b858201908152835190939192916001600160401b038211620002685762000095826200008f60035462000302565b6200033f565b8690601f8311600114620001d857620000cf93929160009183620001cc575b50508160011b916000199060031b1c191617600355620004a3565b620000da83620006df565b92610120938452620000ec82620007f2565b94610140958652815191012060e052519020916101009283524660a05262000113620009a3565b6080523060c052620001256001600c55565b6200013560ff19600d5416600d55565b6200014a6a0422ca8b0a00a425000000601255565b6200015560fa601355565b620001616103e8601455565b6200016c3362000596565b620001773362000629565b620001823362000a8b565b604051916147bb93846200127885396080518461349c015260a05184613557015260c05184613466015260e051846134eb01525183613511015251826113e4015251816114100152f35b015190503880620000b4565b6003600052601f19831691907fc2575a0e9e593c00f959f8c92f12db2869c3395a3b0502d05e2516446f71f85b9260005b8a82821062000251575050916001939185620000cf9796941062000237575b505050811b01600355620004a3565b015160001960f88460031b161c1916905538808062000228565b600185968293968601518155019501930162000209565b62000273565b600080fd5b634e487b7160e01b600052604160045260246000fd5b604081019081106001600160401b038211176200026857604052565b60405190620002b48262000289565b565b60405190620002c58262000289565b60168252565b60405190620002da8262000289565b60018252565b60405190620002ef8262000289565b60048252635845524160e01b6020830152565b90600182811c9216801562000334575b60208310146200031e57565b634e487b7160e01b600052602260045260246000fd5b91607f169162000312565b601f81116200034c575050565b6000906003825260208220906020601f850160051c830194106200038d575b601f0160051c01915b8281106200038157505050565b81815560010162000374565b90925082906200036b565b601f8111620003a5575050565b6000906004825260208220906020601f850160051c83019410620003e6575b601f0160051c01915b828110620003da57505050565b818155600101620003cd565b9092508290620003c4565b601f8111620003fe575050565b6000906005825260208220906020601f850160051c830194106200043f575b601f0160051c01915b8281106200043357505050565b81815560010162000426565b90925082906200041d565b601f811162000457575050565b6000906006825260208220906020601f850160051c8301941062000498575b601f0160051c01915b8281106200048c57505050565b8181556001016200047f565b909250829062000476565b80519091906001600160401b0381116200026857620004cf81620004c960045462000302565b62000398565b602080601f83116001146200050e575081929360009262000502575b50508160011b916000199060031b1c191617600455565b015190503880620004eb565b6004600052601f198316949091907f8a35acfbc15ff81a39ae7d344fd709f28e8600b4aa8c65c6b64bfe7fe36bd19b926000905b8782106200057d57505083600195961062000563575b505050811b01600455565b015160001960f88460031b161c1916905538808062000558565b8060018596829496860151815501950193019062000542565b6001600160a01b03811660009081527fe710864318d4a32f37d6ce54cb3fadbef648dd12d8dbdf53973564d56b7f881c602052604081205460ff1615620005db575050565b808052600e602090815260408083206001600160a01b038516600090815292529020805460ff1916600117905533916001600160a01b03169060008051602062005a338339815191528180a4565b6001600160a01b03811660009081527fffc6ee3e4785c143e1d4f7ff9785d2ddbd7bf0ad1148b890efdcfc74e32b5b6b60205260408120547fa49807205ce4d355092ef5a8a18f56e8913cf4a201fbe287825b095693c217759060ff16156200069157505050565b808252600e602090815260408084206001600160a01b038616600090815292529020805460ff1916600117905533926001600160a01b03169160008051602062005a338339815191529080a4565b90815160208082106000146200070057505090620006fd9062000926565b90565b6001600160401b038211620002685762000727826200072160055462000302565b620003f1565b80601f83116001146200076757508192936000926200075b575b50508160011b916000199060031b1c19161760055560ff90565b01519050388062000741565b6005600052601f198316949091907f036b6384b5eca791c62761152d0c79bb0604c104a5fb6f4eb0703f3154bb3db0926000905b878210620007d9575050836001959610620007bf575b505050811b0160055560ff90565b015160001960f88460031b161c19169055388080620007b1565b806001859682949686015181550195019301906200079b565b90815160208082106000146200081057505090620006fd9062000926565b6001600160401b038211620002685762000837826200083160065462000302565b6200044a565b80601f83116001146200087757508192936000926200086b575b50508160011b916000199060031b1c19161760065560ff90565b01519050388062000851565b6006600052601f198316949091907ff652222313e28459528d920b65115c16c04f3efc82aaedc97be59f3f377c0d3f926000905b878210620008e9575050836001959610620008cf575b505050811b0160065560ff90565b015160001960f88460031b161c19169055388080620008c1565b80600185968294968601518155019501930190620008ab565b60208151910151906020811062000917575090565b6000199060200360031b1b1690565b601f81511162000941576200093b8162000902565b90511790565b6040519063305a27a960e01b82528160208060048301528251908160248401526000935b82851062000989575050604492506000838284010152601f80199101168101030190fd5b848101820151868601604401529381019385935062000965565b60e051610100516040519060208201927f8b73c3c69bb8fe3d512ecc4cf759cc79239f7b179b0ffacaa9a75d522b39400f8452604083015260608201524660808201523060a082015260a0815260c0810181811060018060401b03821117620002685760405251902090565b634e487b7160e01b600052601160045260246000fd5b1562000a2d57565b60405162461bcd60e51b815260206004820152603060248201527f4552433230566f7465733a20746f74616c20737570706c79207269736b73206f60448201526f766572666c6f77696e6720766f74657360801b6064820152608490fd5b6001600160a01b03811690811562000b945760ff600d541662000b5c5762000b369162000ac362000abe60025462000bd9565b600255565b6001600160a01b03821660009081526020819052604090206a7c13bc4b2c133c56000000815401905560007fddf252ad1be2c89b69c2b068fc378daa952ba7f163c4a11628f55a4df523b3ef6040518062000b2d81906a7c13bc4b2c133c56000000602083019252565b0390a36200114b565b60025462000b4e906001600160e01b03101562000a25565b62000b5862000d02565b5050565b60405162461bcd60e51b815260206004820152601060248201526f14185d5cd8589b194e881c185d5cd95960821b6044820152606490fd5b60405162461bcd60e51b815260206004820152601f60248201527f45524332303a206d696e7420746f20746865207a65726f2061646472657373006044820152606490fd5b906a7c13bc4b2c133c56000000820180921162000bf257565b62000a0f565b604080519192919081016001600160401b038111828210176200026857604052602081935463ffffffff81168352811c910152565b600b54906801000000000000000082101562000268576001820180600b5582101562000c9b57600b600052805160209182015190911b63ffffffff191663ffffffff91909116177f0175b7a638427703f0dbe7bb9bbf987a2551717b34e79f33b5b1008d1fa01db990910155565b634e487b7160e01b600052603260045260246000fd5b9081546801000000000000000081101562000268576001810180845581101562000c9b57600092835260209283902082519284015190931b63ffffffff191663ffffffff9290921691909117910155565b600b5490811590811562000e495762000d1a620002a5565b6000815260006020820152925b602084015162000d47906001600160e01b03165b6001600160e01b031690565b9362000d538562001244565b9315908162000e22575b501562000dba57620002b49062000da362000d788562001013565b600b600052917f0175b7a638427703f0dbe7bb9bbf987a2551717b34e79f33b5b1008d1fa01db80190565b9063ffffffff82549181199060201b169116179055565b50620002b462000de362000ddd62000dd2436200107d565b65ffffffffffff1690565b620010e5565b62000e1c62000df28562001013565b62000e0c62000e00620002a5565b63ffffffff9094168452565b6001600160e01b03166020830152565b62000c2d565b5163ffffffff16905063ffffffff62000e3f62000dd2436200107d565b9116143862000d5d565b600b60005262000e817f0175b7a638427703f0dbe7bb9bbf987a2551717b34e79f33b5b1008d1fa01db8840162000bf8565b62000bf8565b9262000d27565b805491821591821562000f885762000e9f620002a5565b6000815260006020820152935b602085015162000ec5906001600160e01b031662000d3b565b9462000ed1866200125d565b9415908162000f61575b501562000f085762000da3620002b49262000ef68662001013565b92600019019060005260206000200190565b50620002b49062000f2162000ddd62000dd2436200107d565b9062000f5b62000f318662001013565b62000f4b62000f3f620002a5565b63ffffffff9095168552565b6001600160e01b03166020840152565b62000cb1565b5163ffffffff16905063ffffffff62000f7e62000dd2436200107d565b9116143862000edb565b62000fa262000e7b60001986018360005260206000200190565b9362000eac565b805491821591821562000ff25762000fc0620002a5565b6000815260006020820152935b602085015162000fe6906001600160e01b031662000d3b565b9462000ed18662001244565b6200100c62000e7b60001986018360005260206000200190565b9362000fcd565b6001600160e01b039081811162001028571690565b60405162461bcd60e51b815260206004820152602760248201527f53616665436173743a2076616c756520646f65736e27742066697420696e20326044820152663234206269747360c81b6064820152608490fd5b65ffffffffffff9081811162001091571690565b60405162461bcd60e51b815260206004820152602660248201527f53616665436173743a2076616c756520646f65736e27742066697420696e203460448201526538206269747360d01b6064820152608490fd5b63ffffffff90818111620010f7571690565b60405162461bcd60e51b815260206004820152602660248201527f53616665436173743a2076616c756520646f65736e27742066697420696e203360448201526532206269747360d01b6064820152608490fd5b60096020527fec8156718a8372b1db44bb411437d0870f3e3790d4a08526d024ce1b0b668f6b546001600160a01b03918216600090815260408120548316929091169081831415806200123b575b620011a357505050565b81620011fc575b505080620011b55750565b6001600160a01b0381166000908152600a6020526040902060008051602062005a5383398151915290620011e99062000fa9565b60408051928352602083019190915290a2565b620012226040828460008051602062005a538339815191529452600a6020522062000e88565b60408051928352602083019190915290a23880620011aa565b50600162001199565b6a7c13bc4b2c133c56000000810180911162000bf25790565b6a7c13bc4b2c133c55ffffff19810190811162000bf2579056fe6080604052600436101561001257600080fd5b60003560e01c806301ffc9a71461040757806306fdde0314610402578063095ea7b3146103fd5780630c7d5cd8146103f85780630e4d51ec146103f35780630fdb0c7d146103ee578063126063ac146103e957806318160ddd146103e45780631b1bddc1146103df57806323b872dd146103da578063248a9ca3146103d55780632f2ff15d146103d0578063300ccb51146103cb578063313ce567146103c657806332665ffb146103c157806332cb6b0c146103bc5780633644e515146103b757806336568abe146103b257806339509351146103ad5780633a46b1a8146103a85780633cb96391146103a357806347e646561461039e5780634bf5d7e914610399578063587cde1e146103945780635909d3c51461038f5780635981b7c01461038a5780635c19a95c146103855780635c975abb146103805780636639a81d1461037b5780636fcfff451461037657806370a0823114610371578063732fb0ed1461036c57806375b238fc146103675780637ecebe001461036257806384b0196e1461035d5780638b9eaf32146103585780638e539e8c1461035357806391d148541461034e57806391ddadf41461034957806395d89b41146103445780639ab24eb01461033f578063a0326d451461033a578063a217fddf14610335578063a457c2d714610330578063a9059cbb1461032b578063b596a6bf14610326578063bf645e8214610321578063c3cda5201461031c578063c686687414610317578063cb653aaa14610312578063cdd78cfc1461030d578063d505accf14610308578063d547741f14610303578063d7fac34b146102fe578063dd62ed3e146102f9578063e2271c9f146102f4578063e9b66f8c146102ef578063edef638b146102ea578063f1127ed8146102e5578063f2a3d623146102e0578063f366819d146102db578063f7b10808146102d65763fb2d4c53146102d157600080fd5b612325565b612290565b6120de565b6120a4565b61201d565b611fff565b611e99565b611e4f565b611e00565b611de2565b611da3565b611c5d565b611c3f565b611c05565b611b5b565b611a30565b6119b1565b61191e565b6118f8565b61184a565b61182e565b6117df565b61177d565b6116d6565b6116aa565b611658565b6114ff565b611495565b6113cb565b61135d565b611322565b611109565b6110cf565b611087565b61106c565b611049565b611027565b611009565b610fee565b610fb3565b610f01565b610ec6565b610ea5565b610cf1565b610c99565b610c05565b610bea565b610bc3565b610b3a565b610a95565b610a7d565b61098a565b61095b565b610890565b610865565b610847565b61080c565b610779565b61061e565b610600565b6105cf565b6104be565b3461045d57602036600319011261045d5760043563ffffffff60e01b811680910361045d57602090637965db0b60e01b811490811561044c575b506040519015158152f35b6301ffc9a760e01b14905038610441565b600080fd5b60005b8381106104755750506000910152565b8181015183820152602001610465565b9060209161049e81518092818552858086019101610462565b601f01601f1916010190565b9060206104bb928181520190610485565b90565b3461045d576000806003193601126105a05760405190806003546104e181612129565b80855291600191808316908115610576575060011461051b575b6105178561050b818703826106a8565b604051918291826104aa565b0390f35b9250600383527fc2575a0e9e593c00f959f8c92f12db2869c3395a3b0502d05e2516446f71f85b5b82841061055e57505050810160200161050b826105176104fb565b80546020858701810191909152909301928101610543565b8695506105179693506020925061050b94915060ff191682840152151560051b82010192936104fb565b80fd5b600435906001600160a01b038216820361045d57565b602435906001600160a01b038216820361045d57565b3461045d57604036600319011261045d576105f56105eb6105a3565b602435903361289e565b602060405160018152f35b3461045d57600036600319011261045d576020601454604051908152f35b3461045d57600036600319011261045d576020601054604051908152f35b634e487b7160e01b600052604160045260246000fd5b604081019081106001600160401b0382111761066d57604052565b61063c565b602081019081106001600160401b0382111761066d57604052565b60c081019081106001600160401b0382111761066d57604052565b90601f801991011681019081106001600160401b0382111761066d57604052565b604051906106d682610652565b565b6040519061014082018281106001600160401b0382111761066d57604052565b604051906106d68261068d565b81601f8201121561045d578035906001600160401b03821161066d5760405192610739601f8401601f1916602001856106a8565b8284526020838301011161045d57816000926020809301838601378301015290565b60843590600582101561045d57565b60043590600582101561045d57565b3461045d5760c036600319011261045d576107926105a3565b6001600160401b0360243581811161045d576107b2903690600401610705565b60643582811161045d576107ca903690600401610705565b6107d261075b565b9060a43593841161045d57610517946107f26107fc953690600401610705565b9360443591613a12565b6040519081529081906020820190565b3461045d57600036600319011261045d5760206040517fb45eae92260baf72ffda338588221db0509ad4d5064b052a6e9fea04988e38fa8152f35b3461045d57600036600319011261045d576020600254604051908152f35b3461045d57602036600319011261045d57602061088861088361076a565b6140c3565b604051908152f35b3461045d57606036600319011261045d576108a96105a3565b6108b16105b9565b6001600160a01b0382166000908152600160209081526040808320338452909152902060443591905492600184016108fa575b6108ee935061278a565b60405160018152602090f35b82841061091657610911836108ee9503338361289e565b6108e4565b60405162461bcd60e51b815260206004820152601d60248201527f45524332303a20696e73756666696369656e7420616c6c6f77616e63650000006044820152606490fd5b3461045d57602036600319011261045d57600435600052600e6020526020600160406000200154604051908152f35b3461045d57604036600319011261045d576004356109a66105b9565b600091808352600e6020526109c16001604085200154612534565b808352600e602090815260408085206001600160a01b0385166000908152925290205460ff16156109f0578280f35b808352600e602090815260408085206001600160a01b038516600090815292529020805460ff1916600117905533916001600160a01b0316907f2f8788117e7eff1d82e926ec794901d17c78024a50270940304540a733656f0d8480a438808280f35b602060031982011261045d57600435906001600160401b03821161045d576104bb91600401610705565b3461045d576020610888610a9036610a53565b61410c565b3461045d57600036600319011261045d57602060405160128152f35b60051115610abb57565b634e487b7160e01b600052602160045260246000fd5b95926104bb999794989592610b0092885260018060a01b03166020880152610120806040890152870190610485565b966060860152608085015260a0840152610b1981610ab1565b60c0830152610b2781610ab1565b60e0820152610100818403910152610485565b3461045d57602036600319011261045d5760043560005260186020526040600020805461051760018060a01b036001840154169260038101546004820154600583015460ff6006850154169160ff60088601541693610bb6600960405197610bb089610ba98160028501612163565b038a6106a8565b016121f9565b95604051998a998a610ad1565b3461045d57600036600319011261045d5760206040516b033b2e3c9fd0803ce80000008152f35b3461045d57600036600319011261045d576020610888613463565b3461045d57604036600319011261045d57610c1e6105b9565b336001600160a01b03821603610c3c57610c3a906004356125e7565b005b60405162461bcd60e51b815260206004820152602f60248201527f416363657373436f6e74726f6c3a2063616e206f6e6c792072656e6f756e636560448201526e103937b632b9903337b91039b2b63360891b6064820152608490fd5b3461045d57604036600319011261045d57610cb26105a3565b3360009081526001602090815260408083206001600160a01b03851684529091529020546024358101809111610cec576105f5913361289e565b61267a565b3461045d57604036600319011261045d57610d0a6105a3565b60243590610d2965ffffffffffff610d2143613946565b168310612a3c565b6001600160a01b03166000908152600a6020526040812080549290918360058111610df1575b50905b838210610da057505081610d79575050602060005b6040516001600160e01b039091168152f35b610d94610d9b91602093600019019060005260206000200190565b5460201c90565b610d67565b9092610dac8185613776565b908263ffffffff610dd1610dc7858860005260206000200190565b5463ffffffff1690565b161115610de15750925b90610d52565b9350610dec90612690565b610ddb565b80610e01610e079296939661378b565b90612a88565b908263ffffffff610e22610dc7858860005260206000200190565b161115610e325750925b38610d4f565b9350610e3d90612690565b610e2c565b90610e5560209282815194859201610462565b0190565b6020610e72918160405193828580945193849201610462565b8101601581520301902090565b6020610e98918160405193828580945193849201610462565b8101601681520301902090565b3461045d576020610ebd610eb836610a53565b610e59565b54604051908152f35b3461045d57600036600319011261045d5760206040517f5aa58c694aeb083df8754bf5e98675317e4137a5a8a2c6188d0228869e43da7e8152f35b3461045d57600036600319011261045d574365ffffffffffff610f2343613946565b1603610f6e57610517604051610f3881610652565b601d81527f6d6f64653d626c6f636b6e756d6265722666726f6d3d64656661756c740000006020820152604051918291826104aa565b60405162461bcd60e51b815260206004820152601d60248201527f4552433230566f7465733a2062726f6b656e20636c6f636b206d6f64650000006044820152606490fd5b3461045d57602036600319011261045d5760206001600160a01b0380610fd76105a3565b166000526009825260406000205416604051908152f35b3461045d57600036600319011261045d57602061088861436a565b3461045d57600036600319011261045d576020601154604051908152f35b3461045d57602036600319011261045d57610c3a6110436105a3565b33612ae1565b3461045d57600036600319011261045d57602060ff600d54166040519015158152f35b3461045d57600036600319011261045d57602061088861452d565b3461045d57602036600319011261045d576001600160a01b036110a86105a3565b16600052600a60205260206110c16040600020546139ad565b63ffffffff60405191168152f35b3461045d57602036600319011261045d576001600160a01b036110f06105a3565b1660005260006020526020604060002054604051908152f35b3461045d576000806003193601126105a057600280600c54146112dd57600c81905533600090815260208190526040902054826111478215156144ab565b336000908152601b602052604090206111609054612690565b601154811161125157600361117f826000526019602052604060002090565b015442101580611220575b61119d575b61119890613eaf565b611160565b906111d6611198916111d086546111cb8760016111c4896000526019602052604060002090565b015461302d565b613756565b906126ca565b9161121961120c3360046111f4856000526019602052604060002090565b019060018060a01b0316600052602052604060002090565b805460ff19166001179055565b905061118f565b5061124c6112486112413360046111f4866000526019602052604060002090565b5460ff1690565b1590565b61118a565b848281811561126081156144e8565b601154336000908152601b60205260409020558282916112d3575b8280929181923390f1156112ce5760115460408051928352602083019190915233917fa1c93169468f71ef26f4adf10bca8df21460f11843a01ed9c69da306e33c38479190a26112cb6001600c55565b80f35b6133d5565b6108fc915061127b565b60405162461bcd60e51b815260206004820152601f60248201527f5265656e7472616e637947756172643a207265656e7472616e742063616c6c006044820152606490fd5b3461045d57600036600319011261045d5760206040517fa49807205ce4d355092ef5a8a18f56e8913cf4a201fbe287825b095693c217758152f35b3461045d57602036600319011261045d576001600160a01b0361137e6105a3565b1660005260076020526020604060002054604051908152f35b90815180825260208080930193019160005b8281106113b7575050505090565b8351855293810193928101926001016113a9565b3461045d57600036600319011261045d576114666114087f00000000000000000000000000000000000000000000000000000000000000006135a3565b6105176114347f000000000000000000000000000000000000000000000000000000000000000061369c565b6114746040519161144483610672565b60008352604051958695600f60f81b875260e0602088015260e0870190610485565b908582036040870152610485565b90466060850152306080850152600060a085015283820360c0850152611397565b3461045d57600036600319011261045d576114ae61452d565b60105490600082156114f657506105176114ca83600f54613756565b6114d261436a565b90604051948594859094939260609260808301968352602083015260408201520152565b610517906114ca565b3461045d57602036600319011261045d5760043561152e65ffffffffffff61152643613946565b168210612a3c565b600b5490600082600581116115f1575b50905b82821061158e57828061155b575060405160008152602090f35b600b600052602090610d9b907f0175b7a638427703f0dbe7bb9bbf987a2551717b34e79f33b5b1008d1fa01db801610d94565b909161159a8184613776565b600b600052908263ffffffff6115d17f0175b7a638427703f0dbe7bb9bbf987a2551717b34e79f33b5b1008d1fa01db98501610dc7565b1611156115e15750915b90611541565b92506115ec90612690565b6115db565b80610e016116019295939561378b565b600b600052908263ffffffff6116387f0175b7a638427703f0dbe7bb9bbf987a2551717b34e79f33b5b1008d1fa01db98501610dc7565b1611156116485750915b3861153e565b925061165390612690565b611642565b3461045d57604036600319011261045d57602060ff61169e6116786105b9565b600435600052600e845260406000209060018060a01b0316600052602052604060002090565b54166040519015158152f35b3461045d57600036600319011261045d5760206116c643613946565b65ffffffffffff60405191168152f35b3461045d576000806003193601126105a05760405190806004546116f981612129565b808552916001918083169081156105765750600114611722576105178561050b818703826106a8565b9250600483527f8a35acfbc15ff81a39ae7d344fd709f28e8600b4aa8c65c6b64bfe7fe36bd19b5b82841061176557505050810160200161050b826105176104fb565b8054602085870181019190915290930192810161174a565b3461045d57602036600319011261045d576001600160a01b0361179e6105a3565b16600052600a6020526040600020805480156000146117c557505060405160008152602090f35b6020916117d6916000190190611994565b5054811c610d67565b3461045d57602036600319011261045d57600435600090815260196020908152604091829020805460018201546002830154600390930154855192835293820152928301526060820152608090f35b3461045d57600036600319011261045d57602060405160008152f35b3461045d57604036600319011261045d576118636105a3565b602435903360005260016020526118908160406000209060018060a01b0316600052602052604060002090565b54918083106118a5576108ee9203903361289e565b60405162461bcd60e51b815260206004820152602560248201527f45524332303a2064656372656173656420616c6c6f77616e63652062656c6f77604482015264207a65726f60d81b6064820152608490fd5b3461045d57604036600319011261045d576105f56119146105a3565b602435903361278a565b3461045d576000806003193601126105a057808060a0925260176020526040808220549160018152818120549160028252808220549060038352808084205493600481522054938151958652602086015284015260608301526080820152f35b634e487b7160e01b600052603260045260246000fd5b80548210156119ac5760005260206000200190600090565b61197e565b3461045d57604036600319011261045d576004356001600160401b03811161045d576119e1903690600401610705565b6119ed60243591610e7f565b805482101561045d57602091611a0291611994565b90546040519160031b1c8152f35b6064359060ff8216820361045d57565b6084359060ff8216820361045d57565b3461045d5760c036600319011261045d57611a496105a3565b60443590602435611a58611a10565b92804211611b1657611ae8611b1191610c3a9560405190611ad082611ac26020820195898b8860609194939260808201957fe48329057bfd03d55e49b547132e39cffd9c1820ad7b9d4c5307691425d15adf835260018060a01b0316602083015260408201520152565b03601f1981018452836106a8565b611ae360a435936084359351902061357d565b6132a3565b6001600160a01b0381166000908152600760205260409020805460018101909155909214612a95565b612ae1565b60405162461bcd60e51b815260206004820152601d60248201527f4552433230566f7465733a207369676e617475726520657870697265640000006044820152606490fd5b3461045d57611b6936610a53565b611b7281610e59565b54611b86611b7f83610e7f565b5492610e7f565b6040519283918054808652602080960191600052856000209060005b87828210611bd857876105178888611bbc828a03836106a8565b6040519485948552840152606060408401526060830190611397565b835485529093019260019283019201611ba2565b611bf581610ab1565b6000526017602052604060002090565b3461045d57602036600319011261045d57611c1e61076a565b611c2781610ab1565b60005260176020526020604060002054604051908152f35b3461045d57600036600319011261045d576020601354604051908152f35b3461045d5760e036600319011261045d57611c766105a3565b611c7e6105b9565b6044359060643592611c8e611a20565b93804211611d5e57611d46611d5991611ac2610c3a97611d33611ccc8760018060a01b03166000526007602052604060002090815491600183019055565b604080517f6e71edae12b1b97f4d1f60370fef10105fa2faae0126114a169c64845d6126c9602082019081526001600160a01b03808c1693830193909352918b166060820152608081018c905260a081019290925260c082019590955292839060e0820190565b611ae360c4359360a4359351902061357d565b6001600160a01b038381169116146129ce565b61289e565b60405162461bcd60e51b815260206004820152601d60248201527f45524332305065726d69743a206578706972656420646561646c696e650000006044820152606490fd5b3461045d57604036600319011261045d57610c3a600435611dc26105b9565b9080600052600e602052611ddd600160406000200154612534565b6125e7565b3461045d57600036600319011261045d576020600f54604051908152f35b3461045d57604036600319011261045d576020610ebd611e1e6105a3565b611e266105b9565b6001600160a01b0391821660009081526001855260408082209290931681526020919091522090565b3461045d57604036600319011261045d57611e686105a3565b6001600160a01b03166000908152601a602052604090208054602435919082101561045d57602091611a0291611994565b3461045d57602036600319011261045d57611f1a600435611eb86123fd565b611ed7611ecf826000526018602052604060002090565b541515613ee9565b611f0a611efb6006611ef3846000526018602052604060002090565b015460ff1690565b611f0481610ab1565b15613f35565b6000526018602052604060002090565b60068101805460ff191660011790556001810154611f46906001600160a01b0316600483015490614683565b600f54611f61611f5c60038401928354906126ca565b600f55565b611fb1611fab611f9860086009860195611f86611f7d88613ffa565b548754906126ca565b611f8f88613ffa565b55015460ff1690565b92611fa284611bec565b549054906126ca565b91611bec565b557fed030ee8c80bfa4f3fb2c7923a1bdb8f4604b1cab750b7ea3501c2293955dd77611ffa611fe9611fe284613ffa565b5493614017565b604051938452929081906020820190565b0390a2005b3461045d57600036600319011261045d576020601254604051908152f35b3461045d57604036600319011261045d576120366105a3565b63ffffffff602435818116810361045d576120806120869160409460006020875161206081610652565b82815201526001600160a01b03166000908152600a602052859020611994565b50612a1a565b8251815190921682526020908101516001600160e01b031690820152f35b3461045d57602036600319011261045d576001600160a01b036120c56105a3565b16600052601b6020526020604060002054604051908152f35b3461045d57606036600319011261045d57602435600581101561045d576044356001600160401b03811161045d57602091612120610888923690600401610705565b9060043561402d565b90600182811c92168015612159575b602083101461214357565b634e487b7160e01b600052602260045260246000fd5b91607f1691612138565b906000929180549161217483612129565b9182825260019384811690816000146121d65750600114612196575b50505050565b90919394506000526020928360002092846000945b8386106121c2575050505001019038808080612190565b8054858701830152940193859082016121ab565b9294505050602093945060ff191683830152151560051b01019038808080612190565b906106d661220d9260405193848092612163565b03836106a8565b96926122479061227297936104bb9c9a9697938a5260018060a01b031660208a01526101408060408b0152890190610485565b946060880152608087015260a086015261226081610ab1565b60c085015283820360e0850152610485565b9261227c81610ab1565b610100820152610120818403910152610485565b3461045d57602036600319011261045d5760043560005260186020526040600020805461051760018060a01b0360018401541692604051906122d98261220d8160028501612163565b60038101546004820154600583015460ff600685015416916122fd600786016121f9565b936123186009612311600889015460ff1690565b97016121f9565b966040519a8b9a8b612214565b61232e36610a53565b506123376123fd565b34156123b95761235061234b601154613eaf565b601155565b601154612367816000526019602052604060002090565b90815534600182015542600282015560036123814261269e565b9101556011546040513481527fae52e650e0d7846103a034e23a81f401f776de50bb5bb37a4c8900daa5e0f5b7908060208101611ffa565b606460405162461bcd60e51b815260206004820152602060248201527f4469766964656e6420616d6f756e74206d75737420626520706f7369746976656044820152fd5b3360009081527fffc6ee3e4785c143e1d4f7ff9785d2ddbd7bf0ad1148b890efdcfc74e32b5b6b602052604090205460ff161561243657565b6124db60486124c3612447336130f1565b6124b5612452613181565b6040519485937f416363657373436f6e74726f6c3a206163636f756e74200000000000000000006020860152612492815180926020603789019101610462565b84017001034b99036b4b9b9b4b733903937b6329607d1b60378201520190610e42565b03601f1981018352826106a8565b60405162461bcd60e51b8152918291600483016104aa565b0390fd5b3360009081527f3fd50133e5a3ff06752cde24e382b84d3e5a0a43ed2c34a28b62622aeb3ba920602052604090205460ff161561251857565b6124db60486124c3612529336130f1565b6124b5612452613212565b6000818152600e6020908152604080832033845290915290205460ff16156125595750565b612562336130f1565b61256a613040565b9160306125768461306b565b53607861258284613078565b5360415b600181116125a5576124db60486124c3856124b58861245288156130a6565b90600f81169060108210156119ac576125e2916f181899199a1a9b1b9c1cb0b131b232b360811b901a6125d88487613088565b5360041c91613099565b612586565b600090808252600e60205260ff61261384604085209060018060a01b0316600052602052604060002090565b541661261e57505050565b808252600e602090815260408084206001600160a01b038616600090815292529020805460ff1916905533926001600160a01b0316917ff6391f5c32d9c69d2a47ea670b442974b53935d1edc7fd64eb21e047a839171b9080a4565b634e487b7160e01b600052601160045260246000fd5b9060018201809211610cec57565b9062093a808201809211610cec57565b9060088201809211610cec57565b90600a8201809211610cec57565b91908201809211610cec57565b156126de57565b60405162461bcd60e51b815260206004820152602360248201527f45524332303a207472616e7366657220746f20746865207a65726f206164647260448201526265737360e81b6064820152608490fd5b1561273657565b60405162461bcd60e51b815260206004820152602660248201527f45524332303a207472616e7366657220616d6f756e7420657863656564732062604482015265616c616e636560d01b6064820152608490fd5b6001600160a01b03929190838116801561284b576106d6948316906127b08215156126d7565b6127b861455d565b6001600160a01b03831660009081526020819052604090208590546127df8282101561272f565b036127fc8460018060a01b03166000526000602052604060002090565b556001600160a01b0384166000908152602081815260409182902080548801905590518681527fddf252ad1be2c89b69c2b068fc378daa952ba7f163c4a11628f55a4df523b3ef9190a36145ec565b60405162461bcd60e51b815260206004820152602560248201527f45524332303a207472616e736665722066726f6d20746865207a65726f206164604482015264647265737360d81b6064820152608490fd5b6001600160a01b03808216929190831561297d57821693841561292d57806129177f8c5be1e5ebec7d5bd14f71427d1e84f3dd0314c0f7b2291e5b200ac8c7c3b925946129006129289560018060a01b03166000526001602052604060002090565b9060018060a01b0316600052602052604060002090565b556040519081529081906020820190565b0390a3565b60405162461bcd60e51b815260206004820152602260248201527f45524332303a20617070726f766520746f20746865207a65726f206164647265604482015261737360f01b6064820152608490fd5b60405162461bcd60e51b8152602060048201526024808201527f45524332303a20617070726f76652066726f6d20746865207a65726f206164646044820152637265737360e01b6064820152608490fd5b156129d557565b60405162461bcd60e51b815260206004820152601e60248201527f45524332305065726d69743a20696e76616c6964207369676e617475726500006044820152606490fd5b90604051612a2781610652565b602081935463ffffffff81168352811c910152565b15612a4357565b60405162461bcd60e51b815260206004820152601960248201527f4552433230566f7465733a20667574757265206c6f6f6b7570000000000000006044820152606490fd5b91908203918211610cec57565b15612a9c57565b60405162461bcd60e51b815260206004820152601960248201527f4552433230566f7465733a20696e76616c6964206e6f6e6365000000000000006044820152606490fd5b6001600160a01b039081166000818152600960208181526040808420805485845291852054939092528686166001600160a01b0319821681179092556106d69692959294921692909183917f3134e8a2e6d97e929a7e54011ea5485d7d196dd5f0ba4d4ef95803e8e3fc257f9080a45b6001600160a01b03808316939291168084141580612d63575b612b745750505050565b80612be2575b5082612b87575b80612190565b6001600160a01b03166000908152600a602052604090207fdec2bacdd2f05b59de34da9b523dff8be42e5e38e818c82fdb0bae774387a72491612bc991612e2d565b60408051928352602083019190915290a2388080612b81565b80600052600a6020527fdec2bacdd2f05b59de34da9b523dff8be42e5e38e818c82fdb0bae774387a7246040600020805480159182600014612d4057612c266106c9565b6000815260006020820152915b6020830151612c52906001600160e01b03165b6001600160e01b031690565b92612c5d898561476b565b94159081612d1d575b5015612cbb57612c8e612ca592612c7c866138dd565b92600019019060005260206000200190565b9063ffffffff82549181199060201b169116179055565b604080519182526020820192909252a238612b7a565b50612d1890612cdf612cda612ccf43613946565b65ffffffffffff1690565b6139ad565b90612d13612cec866138dd565b612d03612cf76106c9565b63ffffffff9095168552565b6001600160e01b03166020840152565b612dd3565b612ca5565b5163ffffffff16905063ffffffff612d37612ccf43613946565b91161438612c66565b612d5d612d5860001984018360005260206000200190565b612a1a565b91612c33565b50821515612b6a565b600b5490600160401b82101561066d576001820180600b558210156119ac57600b600052805160209182015190911b63ffffffff191663ffffffff91909116177f0175b7a638427703f0dbe7bb9bbf987a2551717b34e79f33b5b1008d1fa01db990910155565b8054600160401b81101561066d57612df091600182018155611994565b612e1757815160209283015190921b63ffffffff191663ffffffff92909216919091179055565b634e487b7160e01b600052600060045260246000fd5b909181549182159283600014612ec957612e456106c9565b60008152600060208201525b6020810151612e7390612e6c906001600160e01b0316612c46565b9687614778565b94159081612ea6575b5015612e9257612c8e6106d692612c7c866138dd565b506106d690612cdf612cda612ccf43613946565b5163ffffffff16905063ffffffff612ec0612ccf43613946565b91161438612e7c565b612ee1612d5860001983018460005260206000200190565b612e51565b600b5490918115918215612fe257612efc6106c9565b60008152600060208201525b6020810151612f2a90612f23906001600160e01b0316612c46565b9586614778565b93159081612fbf575b5015612f74576106d690612c8e612f49856138dd565b600b600052917f0175b7a638427703f0dbe7bb9bbf987a2551717b34e79f33b5b1008d1fa01db80190565b506106d6612f87612cda612ccf43613946565b612fba612f93856138dd565b612faa612f9e6106c9565b63ffffffff9094168452565b6001600160e01b03166020830152565b612d6c565b5163ffffffff16905063ffffffff612fd9612ccf43613946565b91161438612f33565b600b6000526130127f0175b7a638427703f0dbe7bb9bbf987a2551717b34e79f33b5b1008d1fa01db88201612a1a565b612f08565b90606482029180830460641490151715610cec57565b81810292918115918404141715610cec57565b60405190608082018281106001600160401b0382111761066d57604052604282526060366020840137565b8051156119ac5760200190565b8051600110156119ac5760210190565b9081518110156119ac570160200190565b8015610cec576000190190565b156130ad57565b606460405162461bcd60e51b815260206004820152602060248201527f537472696e67733a20686578206c656e67746820696e73756666696369656e746044820152fd5b60405190606082018281106001600160401b0382111761066d57604052602a8252604036602084013760306131258361306b565b53607861313183613078565b536029905b60018211613149576104bb9150156130a6565b600f81169060108210156119ac5761317b916f181899199a1a9b1b9c1cb0b131b232b360811b901a6125d88486613088565b90613136565b7fa49807205ce4d355092ef5a8a18f56e8913cf4a201fbe287825b095693c217756131aa613040565b9060306131b68361306b565b5360786131c283613078565b536041905b600182116131da576104bb9150156130a6565b600f81169060108210156119ac5761320c916f181899199a1a9b1b9c1cb0b131b232b360811b901a6125d88486613088565b906131c7565b7f5aa58c694aeb083df8754bf5e98675317e4137a5a8a2c6188d0228869e43da7e61323b613040565b9060306132478361306b565b53607861325383613078565b536041905b6001821161326b576104bb9150156130a6565b600f81169060108210156119ac5761329d916f181899199a1a9b1b9c1cb0b131b232b360811b901a6125d88486613088565b90613258565b916104bb93916132b2936133e1565b9190916132be81610ab1565b806132c65750565b6132cf81610ab1565b6001810361331c5760405162461bcd60e51b815260206004820152601860248201527f45434453413a20696e76616c6964207369676e617475726500000000000000006044820152606490fd5b61332581610ab1565b600281036133725760405162461bcd60e51b815260206004820152601f60248201527f45434453413a20696e76616c6964207369676e6174757265206c656e677468006044820152606490fd5b8061337e600392610ab1565b1461338557565b60405162461bcd60e51b815260206004820152602260248201527f45434453413a20696e76616c6964207369676e6174757265202773272076616c604482015261756560f01b6064820152608490fd5b6040513d6000823e3d90fd5b9291907f7fffffffffffffffffffffffffffffff5d576e7357a4501ddfe92f46681b20a083116134575791608094939160ff602094604051948552168484015260408301526060820152600093849182805260015afa156112ce5781516001600160a01b03811615613451579190565b50600190565b50505050600090600390565b307f00000000000000000000000000000000000000000000000000000000000000006001600160a01b03161480613554575b156134be577f000000000000000000000000000000000000000000000000000000000000000090565b60405160208101907f8b73c3c69bb8fe3d512ecc4cf759cc79239f7b179b0ffacaa9a75d522b39400f82527f000000000000000000000000000000000000000000000000000000000000000060408201527f000000000000000000000000000000000000000000000000000000000000000060608201524660808201523060a082015260a0815261354e8161068d565b51902090565b507f00000000000000000000000000000000000000000000000000000000000000004614613495565b604290613588613463565b906040519161190160f01b8352600283015260228201522090565b60ff81146135e15760ff811690601f82116135cf57604051916135c583610652565b8252602082015290565b604051632cd44ac360e21b8152600490fd5b506040516005548160006135f483612129565b8083529260019081811690811561367a575060011461361b575b506104bb925003826106a8565b6005600090815291507f036b6384b5eca791c62761152d0c79bb0604c104a5fb6f4eb0703f3154bb3db05b84831061365f57506104bb93505081016020013861360e565b81935090816020925483858901015201910190918492613646565b9050602092506104bb94915060ff191682840152151560051b8201013861360e565b60ff81146136be5760ff811690601f82116135cf57604051916135c583610652565b506040516006548160006136d183612129565b8083529260019081811690811561367a57506001146136f757506104bb925003826106a8565b6006600090815291507ff652222313e28459528d920b65115c16c04f3efc82aaedc97be59f3f377c0d3f5b84831061373b57506104bb93505081016020013861360e565b81935090816020925483858901015201910190918492613722565b8115613760570490565b634e487b7160e01b600052601260045260246000fd5b90808216911860011c8101809111610cec5790565b80156138c5578061385e61385761384d61384361383961382f61382561381b60016104bb9a6000908b60801c806138b9575b508060401c806138ac575b508060201c8061389f575b508060101c80613892575b508060081c80613885575b508060041c80613878575b508060021c8061386b575b50821c613864575b811c1b613814818b613756565b0160011c90565b613814818a613756565b6138148189613756565b6138148188613756565b6138148187613756565b6138148186613756565b6138148185613756565b8092613756565b906138cb565b8101613807565b60029150910190386137ff565b60049150910190386137f4565b60089150910190386137e9565b60109150910190386137de565b60209150910190386137d3565b60409150910190386137c8565b915050608090386137bd565b50600090565b90808210156138d8575090565b905090565b6001600160e01b03908181116138f1571690565b60405162461bcd60e51b815260206004820152602760248201527f53616665436173743a2076616c756520646f65736e27742066697420696e20326044820152663234206269747360c81b6064820152608490fd5b65ffffffffffff90818111613959571690565b60405162461bcd60e51b815260206004820152602660248201527f53616665436173743a2076616c756520646f65736e27742066697420696e203460448201526538206269747360d01b6064820152608490fd5b63ffffffff908181116139be571690565b60405162461bcd60e51b815260206004820152602660248201527f53616665436173743a2076616c756520646f65736e27742066697420696e203360448201526532206269747360d01b6064820152608490fd5b613b5d7f0832c747ae2a7bde86d5d19147bd5ce7024b9504050f3dcca5f0d9f61cd75e239395969296613a436124df565b613a51601254881015613b63565b613a5d88511515613baf565b613a6986511515613bfb565b613a7584511515613c40565b613afc613a83601054612690565b988997613a9187858c61402d565b613a996106d8565b8a81526001600160a01b03881660208201529260408401528a606084015260808301524260a0830152600060c083015260e0820152613adc836101008301613c81565b85610120820152613af7886000526018602052604060002090565b613dc7565b6001600160a01b0383166000908152601a60205260409020613b24908790613e7a565b613e7a565b613b3186613b1f86610e7f565b613b44613b3f601054613eaf565b601055565b6040516001600160a01b03909316969293849384613ebe565b0390a390565b15613b6a57565b60405162461bcd60e51b815260206004820152601c60248201527f50726f70657274792076616c75652062656c6f77206d696e696d756d000000006044820152606490fd5b15613bb657565b60405162461bcd60e51b815260206004820152601960248201527f50726f70657274792061646472657373207265717569726564000000000000006044820152606490fd5b15613c0257565b60405162461bcd60e51b8152602060048201526016602482015275111bd8dd5b595b9d081a185cda081c995c5d5a5c995960521b6044820152606490fd5b15613c4757565b60405162461bcd60e51b815260206004820152601260248201527110da5d1e4818dbd919481c995c5d5a5c995960721b6044820152606490fd5b613c8a82610ab1565b52565b90601f8111613c9b57505050565b600091825260208220906020601f850160051c83019410613cd7575b601f0160051c01915b828110613ccc57505050565b818155600101613cc0565b9092508290613cb7565b91909182516001600160401b03811161066d57613d0881613d028454612129565b84613c8d565b602080601f8311600114613d44575081929394600092613d39575b50508160011b916000199060031b1c1916179055565b015190503880613d23565b90601f19831695613d5a85600052602060002090565b926000905b888210613d9757505083600195969710613d7e575b505050811b019055565b015160001960f88460031b161c19169055388080613d74565b80600185968294968601518155019501930190613d5f565b90613db981610ab1565b60ff80198354169116179055565b8151815560208201516001820180546001600160a01b0319166001600160a01b039092169190911790556106d69160099061012090613e0d604082015160028601613ce1565b606081015160038501556080810151600485015560a08101516005850155613e4560c0820151613e3c81610ab1565b60068601613daf565b613e5660e082015160078601613ce1565b613e71610100820151613e6881610ab1565b60088601613daf565b01519101613ce1565b8054600160401b81101561066d57613e9791600182018155611994565b819291549060031b91821b91600019901b1916179055565b6000198114610cec5760010190565b939291613edb906040928652606060208701526060860190610485565b93613ee583610ab1565b0152565b15613ef057565b60405162461bcd60e51b815260206004820152601760248201527f50726f706572747920646f6573206e6f742065786973740000000000000000006044820152606490fd5b15613f3c57565b60405162461bcd60e51b815260206004820152601460248201527350726f7065727479206e6f742070656e64696e6760601b6044820152606490fd5b600092918154613f8781612129565b92600191808316908115613fdf5750600114613fa35750505050565b90919293945060005260209081600020906000915b858310613fce5750505050019038808080612190565b805485840152918301918101613fb8565b60ff1916845250505081151590910201915038808080612190565b602061400c9160405192838092613f78565b601581520301902090565b6140279060405191828092613f78565b03902090565b919091600f549081156140b157670de0b6b3a76400009182820291808304841481151715610cec578101809111610cec5761406e6140749161407a93613756565b946140c3565b9261410c565b906b0295be96e6406697200000009380850294850403610cec576140a76140ad936064959286930461302d565b0461302d565b0490565b5050505069a968163f0a57b400000090565b6140cc81610ab1565b60018114614106576140dd81610ab1565b6002811461410057806140f1600492610ab1565b146140fb57606490565b606990565b50606e90565b50607890565b604051614121816124b5602082018095610e42565b5190207f7565306c94e19ffadac91ff9491e0465bef48e2ce66079d3919a2e836c66caa281148015614274575b61426e577f7ce7ad787564a1a5b2de3174219d55c76367c05413ff67e2ac4f0a6973bba8a181148015614245575b801561421c575b614106577fa3ae6309d53d0ee7fd725a7482da89c8dcfeaa89a4055f51c2abc6b9c8f1d12581149081156141f2575b81156141c8575b506141c357606490565b606e90565b7ff4af7c06580393535c4e6c30aee4ff474f581b4eb6c2d2978966f968adcb9906915014386141b9565b7f2537590685e5f7ad8ba473de672bf96e801b06932ef9c77fb3149bff0cea9838811491506141b2565b507feed53daff12195494d0431c39fb1cc2078f56d22fc6d23c90b756f2f793948e28114614183565b507f05aba46f92e1186ca90d5093e19b47d6d21597a958eaef4af9ef7cd8052982f5811461417c565b50608290565b507f342e1b7d20f92e33ba7c6ebef5a7b50ebb59f7c23abdd1d63dd414420ab3c560811461414e565b604051906142aa82610652565b60038252624d554d60e81b6020830152565b604051906142c982610652565b600382526211115360ea1b6020830152565b604051906142e882610652565b600482526342414e4760e01b6020830152565b6040519061430882610652565b600482526321a422a760e11b6020830152565b6040519061432882610652565b600382526212165160ea1b6020830152565b6040519061434782610652565b6003825262282aa760e91b6020830152565b9060068110156119ac5760051b0190565b600f549081156144a557600061437e6106f8565b61438661429d565b81526143906142bc565b602082015261439d6142db565b60408201526143aa6142fb565b60608201526143b761431b565b60808201526143c461433a565b60a0820152815b6006811061444c575050600090815b600581106143ee57506104bb9293506126ca565b6143f781610ab1565b61440d856111cb61440784611bec565b54613017565b8015159081614440575b5061442b575b61442690613eaf565b6143da565b91614438614426916126bc565b92905061441d565b60289150111538614417565b614466856111cb6144076144608587614359565b51610e59565b8015159081614499575b50614484575b61447f90613eaf565b6143cb565b9161449161447f916126ae565b929050614476565b601e9150111538614470565b60009150565b156144b257565b60405162461bcd60e51b815260206004820152600e60248201526d139bc81d1bdad95b9cc81a195b1960921b6044820152606490fd5b156144ef57565b60405162461bcd60e51b81526020600482015260166024820152754e6f206469766964656e647320617661696c61626c6560501b6044820152606490fd5b60025480156138c557600f5490670de0b6b3a764000091828102928184041490151715610cec576104bb91613756565b60ff600d541661456957565b60405162461bcd60e51b815260206004820152601060248201526f14185d5cd8589b194e881c185d5cd95960821b6044820152606490fd5b60096020527fec8156718a8372b1db44bb411437d0870f3e3790d4a08526d024ce1b0b668f6b546001600160a01b03918216600090815260409020546106d693929081169116612b51565b6001600160a01b039081166000908152600960205260408082205493831682529020546106d693929082169116612b51565b1561462557565b60405162461bcd60e51b815260206004820152603060248201527f4552433230566f7465733a20746f74616c20737570706c79207269736b73206f60448201526f766572666c6f77696e6720766f74657360801b6064820152608490fd5b906001600160a01b03821680156147265761469c61455d565b600254828101809111610cec5761472293614707926146bb8593600255565b6001600160a01b038216600090815260208181526040808320805487019055518581527fddf252ad1be2c89b69c2b068fc378daa952ba7f163c4a11628f55a4df523b3ef9190a36145a1565b60025461471d906001600160e01b03101561461e565b612ee6565b5050565b60405162461bcd60e51b815260206004820152601f60248201527f45524332303a206d696e7420746f20746865207a65726f2061646472657373006044820152606490fd5b908103908111610cec5790565b908101809111610cec579056fea2646970667358221220494acc16f9ee2e16ee9cac149f3a8c3cb44c58c1de60ae5df394dde8a0c5cd5664736f6c634300081300332f8788117e7eff1d82e926ec794901d17c78024a50270940304540a733656f0ddec2bacdd2f05b59de34da9b523dff8be42e5e38e818c82fdb0bae774387a724","opcodes":"PUSH2 0x160 PUSH1 0x40 MSTORE CALLVALUE PUSH3 0x26E JUMPI PUSH3 0x15 PUSH3 0x2E0 JUMP JUMPDEST PUSH3 0x1F PUSH3 0x2B6 JUMP JUMPDEST SWAP1 PUSH1 0x20 SWAP2 PUSH32 0x58455241205265616C2045737461746520496E64696100000000000000000000 DUP4 DUP3 ADD MSTORE PUSH3 0x52 PUSH3 0x2E0 JUMP JUMPDEST PUSH3 0x5C PUSH3 0x2CB JUMP JUMPDEST PUSH1 0x31 PUSH1 0xF8 SHL DUP6 DUP3 ADD SWAP1 DUP2 MSTORE DUP4 MLOAD SWAP1 SWAP4 SWAP2 SWAP3 SWAP2 PUSH1 0x1 PUSH1 0x1 PUSH1 0x40 SHL SUB DUP3 GT PUSH3 0x268 JUMPI PUSH3 0x95 DUP3 PUSH3 0x8F PUSH1 0x3 SLOAD PUSH3 0x302 JUMP JUMPDEST PUSH3 0x33F JUMP JUMPDEST DUP7 SWAP1 PUSH1 0x1F DUP4 GT PUSH1 0x1 EQ PUSH3 0x1D8 JUMPI PUSH3 0xCF SWAP4 SWAP3 SWAP2 PUSH1 0x0 SWAP2 DUP4 PUSH3 0x1CC JUMPI JUMPDEST POP POP DUP2 PUSH1 0x1 SHL SWAP2 PUSH1 0x0 NOT SWAP1 PUSH1 0x3 SHL SHR NOT AND OR PUSH1 0x3 SSTORE PUSH3 0x4A3 JUMP JUMPDEST PUSH3 0xDA DUP4 PUSH3 0x6DF JUMP JUMPDEST SWAP3 PUSH2 0x120 SWAP4 DUP5 MSTORE PUSH3 0xEC DUP3 PUSH3 0x7F2 JUMP JUMPDEST SWAP5 PUSH2 0x140 SWAP6 DUP7 MSTORE DUP2 MLOAD SWAP2 ADD KECCAK256 PUSH1 0xE0 MSTORE MLOAD SWAP1 KECCAK256 SWAP2 PUSH2 0x100 SWAP3 DUP4 MSTORE CHAINID PUSH1 0xA0 MSTORE PUSH3 0x113 PUSH3 0x9A3 JUMP JUMPDEST PUSH1 0x80 MSTORE ADDRESS PUSH1 0xC0 MSTORE PUSH3 0x125 PUSH1 0x1 PUSH1 0xC SSTORE JUMP JUMPDEST PUSH3 0x135 PUSH1 0xFF NOT PUSH1 0xD SLOAD AND PUSH1 0xD SSTORE JUMP JUMPDEST PUSH3 0x14A PUSH11 0x422CA8B0A00A425000000 PUSH1 0x12 SSTORE JUMP JUMPDEST PUSH3 0x155 PUSH1 0xFA PUSH1 0x13 SSTORE JUMP JUMPDEST PUSH3 0x161 PUSH2 0x3E8 PUSH1 0x14 SSTORE JUMP JUMPDEST PUSH3 0x16C CALLER PUSH3 0x596 JUMP JUMPDEST PUSH3 0x177 CALLER PUSH3 0x629 JUMP JUMPDEST PUSH3 0x182 CALLER PUSH3 0xA8B JUMP JUMPDEST PUSH1 0x40 MLOAD SWAP2 PUSH2 0x47BB SWAP4 DUP5 PUSH3 0x1278 DUP6 CODECOPY PUSH1 0x80 MLOAD DUP5 PUSH2 0x349C ADD MSTORE PUSH1 0xA0 MLOAD DUP5 PUSH2 0x3557 ADD MSTORE PUSH1 0xC0 MLOAD DUP5 PUSH2 0x3466 ADD MSTORE PUSH1 0xE0 MLOAD DUP5 PUSH2 0x34EB ADD MSTORE MLOAD DUP4 PUSH2 0x3511 ADD MSTORE MLOAD DUP3 PUSH2 0x13E4 ADD MSTORE MLOAD DUP2 PUSH2 0x1410 ADD MSTORE RETURN JUMPDEST ADD MLOAD SWAP1 POP CODESIZE DUP1 PUSH3 0xB4 JUMP JUMPDEST PUSH1 0x3 PUSH1 0x0 MSTORE PUSH1 0x1F NOT DUP4 AND SWAP2 SWAP1 PUSH32 0xC2575A0E9E593C00F959F8C92F12DB2869C3395A3B0502D05E2516446F71F85B SWAP3 PUSH1 0x0 JUMPDEST DUP11 DUP3 DUP3 LT PUSH3 0x251 JUMPI POP POP SWAP2 PUSH1 0x1 SWAP4 SWAP2 DUP6 PUSH3 0xCF SWAP8 SWAP7 SWAP5 LT PUSH3 0x237 JUMPI JUMPDEST POP POP POP DUP2 SHL ADD PUSH1 0x3 SSTORE PUSH3 0x4A3 JUMP JUMPDEST ADD MLOAD PUSH1 0x0 NOT PUSH1 0xF8 DUP5 PUSH1 0x3 SHL AND SHR NOT AND SWAP1 SSTORE CODESIZE DUP1 DUP1 PUSH3 0x228 JUMP JUMPDEST PUSH1 0x1 DUP6 SWAP7 DUP3 SWAP4 SWAP7 DUP7 ADD MLOAD DUP2 SSTORE ADD SWAP6 ADD SWAP4 ADD PUSH3 0x209 JUMP JUMPDEST PUSH3 0x273 JUMP JUMPDEST PUSH1 0x0 DUP1 REVERT JUMPDEST PUSH4 0x4E487B71 PUSH1 0xE0 SHL PUSH1 0x0 MSTORE PUSH1 0x41 PUSH1 0x4 MSTORE PUSH1 0x24 PUSH1 0x0 REVERT JUMPDEST PUSH1 0x40 DUP2 ADD SWAP1 DUP2 LT PUSH1 0x1 PUSH1 0x1 PUSH1 0x40 SHL SUB DUP3 GT OR PUSH3 0x268 JUMPI PUSH1 0x40 MSTORE JUMP JUMPDEST PUSH1 0x40 MLOAD SWAP1 PUSH3 0x2B4 DUP3 PUSH3 0x289 JUMP JUMPDEST JUMP JUMPDEST PUSH1 0x40 MLOAD SWAP1 PUSH3 0x2C5 DUP3 PUSH3 0x289 JUMP JUMPDEST PUSH1 0x16 DUP3 MSTORE JUMP JUMPDEST PUSH1 0x40 MLOAD SWAP1 PUSH3 0x2DA DUP3 PUSH3 0x289 JUMP JUMPDEST PUSH1 0x1 DUP3 MSTORE JUMP JUMPDEST PUSH1 0x40 MLOAD SWAP1 PUSH3 0x2EF DUP3 PUSH3 0x289 JUMP JUMPDEST PUSH1 0x4 DUP3 MSTORE PUSH4 0x58455241 PUSH1 0xE0 SHL PUSH1 0x20 DUP4 ADD MSTORE JUMP JUMPDEST SWAP1 PUSH1 0x1 DUP3 DUP2 SHR SWAP3 AND DUP1 ISZERO PUSH3 0x334 JUMPI JUMPDEST PUSH1 0x20 DUP4 LT EQ PUSH3 0x31E JUMPI JUMP JUMPDEST PUSH4 0x4E487B71 PUSH1 0xE0 SHL PUSH1 0x0 MSTORE PUSH1 0x22 PUSH1 0x4 MSTORE PUSH1 0x24 PUSH1 0x0 REVERT JUMPDEST SWAP2 PUSH1 0x7F AND SWAP2 PUSH3 0x312 JUMP JUMPDEST PUSH1 0x1F DUP2 GT PUSH3 0x34C JUMPI POP POP JUMP JUMPDEST PUSH1 0x0 SWAP1 PUSH1 0x3 DUP3 MSTORE PUSH1 0x20 DUP3 KECCAK256 SWAP1 PUSH1 0x20 PUSH1 0x1F DUP6 ADD PUSH1 0x5 SHR DUP4 ADD SWAP5 LT PUSH3 0x38D JUMPI JUMPDEST PUSH1 0x1F ADD PUSH1 0x5 SHR ADD SWAP2 JUMPDEST DUP3 DUP2 LT PUSH3 0x381 JUMPI POP POP POP JUMP JUMPDEST DUP2 DUP2 SSTORE PUSH1 0x1 ADD PUSH3 0x374 JUMP JUMPDEST SWAP1 SWAP3 POP DUP3 SWAP1 PUSH3 0x36B JUMP JUMPDEST PUSH1 0x1F DUP2 GT PUSH3 0x3A5 JUMPI POP POP JUMP JUMPDEST PUSH1 0x0 SWAP1 PUSH1 0x4 DUP3 MSTORE PUSH1 0x20 DUP3 KECCAK256 SWAP1 PUSH1 0x20 PUSH1 0x1F DUP6 ADD PUSH1 0x5 SHR DUP4 ADD SWAP5 LT PUSH3 0x3E6 JUMPI JUMPDEST PUSH1 0x1F ADD PUSH1 0x5 SHR ADD SWAP2 JUMPDEST DUP3 DUP2 LT PUSH3 0x3DA JUMPI POP POP POP JUMP JUMPDEST DUP2 DUP2 SSTORE PUSH1 0x1 ADD PUSH3 0x3CD JUMP JUMPDEST SWAP1 SWAP3 POP DUP3 SWAP1 PUSH3 0x3C4 JUMP JUMPDEST PUSH1 0x1F DUP2 GT PUSH3 0x3FE JUMPI POP POP JUMP JUMPDEST PUSH1 0x0 SWAP1 PUSH1 0x5 DUP3 MSTORE PUSH1 0x20 DUP3 KECCAK256 SWAP1 PUSH1 0x20 PUSH1 0x1F DUP6 ADD PUSH1 0x5 SHR DUP4 ADD SWAP5 LT PUSH3 0x43F JUMPI JUMPDEST PUSH1 0x1F ADD PUSH1 0x5 SHR ADD SWAP2 JUMPDEST DUP3 DUP2 LT PUSH3 0x433 JUMPI POP POP POP JUMP JUMPDEST DUP2 DUP2 SSTORE PUSH1 0x1 ADD PUSH3 0x426 JUMP JUMPDEST SWAP1 SWAP3 POP DUP3 SWAP1 PUSH3 0x41D JUMP JUMPDEST PUSH1 0x1F DUP2 GT PUSH3 0x457 JUMPI POP POP JUMP JUMPDEST PUSH1 0x0 SWAP1 PUSH1 0x6 DUP3 MSTORE PUSH1 0x20 DUP3 KECCAK256 SWAP1 PUSH1 0x20 PUSH1 0x1F DUP6 ADD PUSH1 0x5 SHR DUP4 ADD SWAP5 LT PUSH3 0x498 JUMPI JUMPDEST PUSH1 0x1F ADD PUSH1 0x5 SHR ADD SWAP2 JUMPDEST DUP3 DUP2 LT PUSH3 0x48C JUMPI POP POP POP JUMP JUMPDEST DUP2 DUP2 SSTORE PUSH1 0x1 ADD PUSH3 0x47F JUMP JUMPDEST SWAP1 SWAP3 POP DUP3 SWAP1 PUSH3 0x476 JUMP JUMPDEST DUP1 MLOAD SWAP1 SWAP2 SWAP1 PUSH1 0x1 PUSH1 0x1 PUSH1 0x40 SHL SUB DUP2 GT PUSH3 0x268 JUMPI PUSH3 0x4CF DUP2 PUSH3 0x4C9 PUSH1 0x4 SLOAD PUSH3 0x302 JUMP JUMPDEST PUSH3 0x398 JUMP JUMPDEST PUSH1 0x20 DUP1 PUSH1 0x1F DUP4 GT PUSH1 0x1 EQ PUSH3 0x50E JUMPI POP DUP2 SWAP3 SWAP4 PUSH1 0x0 SWAP3 PUSH3 0x502 JUMPI JUMPDEST POP POP DUP2 PUSH1 0x1 SHL SWAP2 PUSH1 0x0 NOT SWAP1 PUSH1 0x3 SHL SHR NOT AND OR PUSH1 0x4 SSTORE JUMP JUMPDEST ADD MLOAD SWAP1 POP CODESIZE DUP1 PUSH3 0x4EB JUMP JUMPDEST PUSH1 0x4 PUSH1 0x0 MSTORE PUSH1 0x1F NOT DUP4 AND SWAP5 SWAP1 SWAP2 SWAP1 PUSH32 0x8A35ACFBC15FF81A39AE7D344FD709F28E8600B4AA8C65C6B64BFE7FE36BD19B SWAP3 PUSH1 0x0 SWAP1 JUMPDEST DUP8 DUP3 LT PUSH3 0x57D JUMPI POP POP DUP4 PUSH1 0x1 SWAP6 SWAP7 LT PUSH3 0x563 JUMPI JUMPDEST POP POP POP DUP2 SHL ADD PUSH1 0x4 SSTORE JUMP JUMPDEST ADD MLOAD PUSH1 0x0 NOT PUSH1 0xF8 DUP5 PUSH1 0x3 SHL AND SHR NOT AND SWAP1 SSTORE CODESIZE DUP1 DUP1 PUSH3 0x558 JUMP JUMPDEST DUP1 PUSH1 0x1 DUP6 SWAP7 DUP3 SWAP5 SWAP7 DUP7 ADD MLOAD DUP2 SSTORE ADD SWAP6 ADD SWAP4 ADD SWAP1 PUSH3 0x542 JUMP JUMPDEST PUSH1 0x1 PUSH1 0x1 PUSH1 0xA0 SHL SUB DUP2 AND PUSH1 0x0 SWAP1 DUP2 MSTORE PUSH32 0xE710864318D4A32F37D6CE54CB3FADBEF648DD12D8DBDF53973564D56B7F881C PUSH1 0x20 MSTORE PUSH1 0x40 DUP2 KECCAK256 SLOAD PUSH1 0xFF AND ISZERO PUSH3 0x5DB JUMPI POP POP JUMP JUMPDEST DUP1 DUP1 MSTORE PUSH1 0xE PUSH1 0x20 SWAP1 DUP2 MSTORE PUSH1 0x40 DUP1 DUP4 KECCAK256 PUSH1 0x1 PUSH1 0x1 PUSH1 0xA0 SHL SUB DUP6 AND PUSH1 0x0 SWAP1 DUP2 MSTORE SWAP3 MSTORE SWAP1 KECCAK256 DUP1 SLOAD PUSH1 0xFF NOT AND PUSH1 0x1 OR SWAP1 SSTORE CALLER SWAP2 PUSH1 0x1 PUSH1 0x1 PUSH1 0xA0 SHL SUB AND SWAP1 PUSH1 0x0 DUP1 MLOAD PUSH1 0x20 PUSH3 0x5A33 DUP4 CODECOPY DUP2 MLOAD SWAP2 MSTORE DUP2 DUP1 LOG4 JUMP JUMPDEST PUSH1 0x1 PUSH1 0x1 PUSH1 0xA0 SHL SUB DUP2 AND PUSH1 0x0 SWAP1 DUP2 MSTORE PUSH32 0xFFC6EE3E4785C143E1D4F7FF9785D2DDBD7BF0AD1148B890EFDCFC74E32B5B6B PUSH1 0x20 MSTORE PUSH1 0x40 DUP2 KECCAK256 SLOAD PUSH32 0xA49807205CE4D355092EF5A8A18F56E8913CF4A201FBE287825B095693C21775 SWAP1 PUSH1 0xFF AND ISZERO PUSH3 0x691 JUMPI POP POP POP JUMP JUMPDEST DUP1 DUP3 MSTORE PUSH1 0xE PUSH1 0x20 SWAP1 DUP2 MSTORE PUSH1 0x40 DUP1 DUP5 KECCAK256 PUSH1 0x1 PUSH1 0x1 PUSH1 0xA0 SHL SUB DUP7 AND PUSH1 0x0 SWAP1 DUP2 MSTORE SWAP3 MSTORE SWAP1 KECCAK256 DUP1 SLOAD PUSH1 0xFF NOT AND PUSH1 0x1 OR SWAP1 SSTORE CALLER SWAP3 PUSH1 0x1 PUSH1 0x1 PUSH1 0xA0 SHL SUB AND SWAP2 PUSH1 0x0 DUP1 MLOAD PUSH1 0x20 PUSH3 0x5A33 DUP4 CODECOPY DUP2 MLOAD SWAP2 MSTORE SWAP1 DUP1 LOG4 JUMP JUMPDEST SWAP1 DUP2 MLOAD PUSH1 0x20 DUP1 DUP3 LT PUSH1 0x0 EQ PUSH3 0x700 JUMPI POP POP SWAP1 PUSH3 0x6FD SWAP1 PUSH3 0x926 JUMP JUMPDEST SWAP1 JUMP JUMPDEST PUSH1 0x1 PUSH1 0x1 PUSH1 0x40 SHL SUB DUP3 GT PUSH3 0x268 JUMPI PUSH3 0x727 DUP3 PUSH3 0x721 PUSH1 0x5 SLOAD PUSH3 0x302 JUMP JUMPDEST PUSH3 0x3F1 JUMP JUMPDEST DUP1 PUSH1 0x1F DUP4 GT PUSH1 0x1 EQ PUSH3 0x767 JUMPI POP DUP2 SWAP3 SWAP4 PUSH1 0x0 SWAP3 PUSH3 0x75B JUMPI JUMPDEST POP POP DUP2 PUSH1 0x1 SHL SWAP2 PUSH1 0x0 NOT SWAP1 PUSH1 0x3 SHL SHR NOT AND OR PUSH1 0x5 SSTORE PUSH1 0xFF SWAP1 JUMP JUMPDEST ADD MLOAD SWAP1 POP CODESIZE DUP1 PUSH3 0x741 JUMP JUMPDEST PUSH1 0x5 PUSH1 0x0 MSTORE PUSH1 0x1F NOT DUP4 AND SWAP5 SWAP1 SWAP2 SWAP1 PUSH32 0x36B6384B5ECA791C62761152D0C79BB0604C104A5FB6F4EB0703F3154BB3DB0 SWAP3 PUSH1 0x0 SWAP1 JUMPDEST DUP8 DUP3 LT PUSH3 0x7D9 JUMPI POP POP DUP4 PUSH1 0x1 SWAP6 SWAP7 LT PUSH3 0x7BF JUMPI JUMPDEST POP POP POP DUP2 SHL ADD PUSH1 0x5 SSTORE PUSH1 0xFF SWAP1 JUMP JUMPDEST ADD MLOAD PUSH1 0x0 NOT PUSH1 0xF8 DUP5 PUSH1 0x3 SHL AND SHR NOT AND SWAP1 SSTORE CODESIZE DUP1 DUP1 PUSH3 0x7B1 JUMP JUMPDEST DUP1 PUSH1 0x1 DUP6 SWAP7 DUP3 SWAP5 SWAP7 DUP7 ADD MLOAD DUP2 SSTORE ADD SWAP6 ADD SWAP4 ADD SWAP1 PUSH3 0x79B JUMP JUMPDEST SWAP1 DUP2 MLOAD PUSH1 0x20 DUP1 DUP3 LT PUSH1 0x0 EQ PUSH3 0x810 JUMPI POP POP SWAP1 PUSH3 0x6FD SWAP1 PUSH3 0x926 JUMP JUMPDEST PUSH1 0x1 PUSH1 0x1 PUSH1 0x40 SHL SUB DUP3 GT PUSH3 0x268 JUMPI PUSH3 0x837 DUP3 PUSH3 0x831 PUSH1 0x6 SLOAD PUSH3 0x302 JUMP JUMPDEST PUSH3 0x44A JUMP JUMPDEST DUP1 PUSH1 0x1F DUP4 GT PUSH1 0x1 EQ PUSH3 0x877 JUMPI POP DUP2 SWAP3 SWAP4 PUSH1 0x0 SWAP3 PUSH3 0x86B JUMPI JUMPDEST POP POP DUP2 PUSH1 0x1 SHL SWAP2 PUSH1 0x0 NOT SWAP1 PUSH1 0x3 SHL SHR NOT AND OR PUSH1 0x6 SSTORE PUSH1 0xFF SWAP1 JUMP JUMPDEST ADD MLOAD SWAP1 POP CODESIZE DUP1 PUSH3 0x851 JUMP JUMPDEST PUSH1 0x6 PUSH1 0x0 MSTORE PUSH1 0x1F NOT DUP4 AND SWAP5 SWAP1 SWAP2 SWAP1 PUSH32 0xF652222313E28459528D920B65115C16C04F3EFC82AAEDC97BE59F3F377C0D3F SWAP3 PUSH1 0x0 SWAP1 JUMPDEST DUP8 DUP3 LT PUSH3 0x8E9 JUMPI POP POP DUP4 PUSH1 0x1 SWAP6 SWAP7 LT PUSH3 0x8CF JUMPI JUMPDEST POP POP POP DUP2 SHL ADD PUSH1 0x6 SSTORE PUSH1 0xFF SWAP1 JUMP JUMPDEST ADD MLOAD PUSH1 0x0 NOT PUSH1 0xF8 DUP5 PUSH1 0x3 SHL AND SHR NOT AND SWAP1 SSTORE CODESIZE DUP1 DUP1 PUSH3 0x8C1 JUMP JUMPDEST DUP1 PUSH1 0x1 DUP6 SWAP7 DUP3 SWAP5 SWAP7 DUP7 ADD MLOAD DUP2 SSTORE ADD SWAP6 ADD SWAP4 ADD SWAP1 PUSH3 0x8AB JUMP JUMPDEST PUSH1 0x20 DUP2 MLOAD SWAP2 ADD MLOAD SWAP1 PUSH1 0x20 DUP2 LT PUSH3 0x917 JUMPI POP SWAP1 JUMP JUMPDEST PUSH1 0x0 NOT SWAP1 PUSH1 0x20 SUB PUSH1 0x3 SHL SHL AND SWAP1 JUMP JUMPDEST PUSH1 0x1F DUP2 MLOAD GT PUSH3 0x941 JUMPI PUSH3 0x93B DUP2 PUSH3 0x902 JUMP JUMPDEST SWAP1 MLOAD OR SWAP1 JUMP JUMPDEST PUSH1 0x40 MLOAD SWAP1 PUSH4 0x305A27A9 PUSH1 0xE0 SHL DUP3 MSTORE DUP2 PUSH1 0x20 DUP1 PUSH1 0x4 DUP4 ADD MSTORE DUP3 MLOAD SWAP1 DUP2 PUSH1 0x24 DUP5 ADD MSTORE PUSH1 0x0 SWAP4 JUMPDEST DUP3 DUP6 LT PUSH3 0x989 JUMPI POP POP PUSH1 0x44 SWAP3 POP PUSH1 0x0 DUP4 DUP3 DUP5 ADD ADD MSTORE PUSH1 0x1F DUP1 NOT SWAP2 ADD AND DUP2 ADD SUB ADD SWAP1 REVERT JUMPDEST DUP5 DUP2 ADD DUP3 ADD MLOAD DUP7 DUP7 ADD PUSH1 0x44 ADD MSTORE SWAP4 DUP2 ADD SWAP4 DUP6 SWAP4 POP PUSH3 0x965 JUMP JUMPDEST PUSH1 0xE0 MLOAD PUSH2 0x100 MLOAD PUSH1 0x40 MLOAD SWAP1 PUSH1 0x20 DUP3 ADD SWAP3 PUSH32 0x8B73C3C69BB8FE3D512ECC4CF759CC79239F7B179B0FFACAA9A75D522B39400F DUP5 MSTORE PUSH1 0x40 DUP4 ADD MSTORE PUSH1 0x60 DUP3 ADD MSTORE CHAINID PUSH1 0x80 DUP3 ADD MSTORE ADDRESS PUSH1 0xA0 DUP3 ADD MSTORE PUSH1 0xA0 DUP2 MSTORE PUSH1 0xC0 DUP2 ADD DUP2 DUP2 LT PUSH1 0x1 DUP1 PUSH1 0x40 SHL SUB DUP3 GT OR PUSH3 0x268 JUMPI PUSH1 0x40 MSTORE MLOAD SWAP1 KECCAK256 SWAP1 JUMP JUMPDEST PUSH4 0x4E487B71 PUSH1 0xE0 SHL PUSH1 0x0 MSTORE PUSH1 0x11 PUSH1 0x4 MSTORE PUSH1 0x24 PUSH1 0x0 REVERT JUMPDEST ISZERO PUSH3 0xA2D JUMPI JUMP JUMPDEST PUSH1 0x40 MLOAD PUSH3 0x461BCD PUSH1 0xE5 SHL DUP2 MSTORE PUSH1 0x20 PUSH1 0x4 DUP3 ADD MSTORE PUSH1 0x30 PUSH1 0x24 DUP3 ADD MSTORE PUSH32 0x4552433230566F7465733A20746F74616C20737570706C79207269736B73206F PUSH1 0x44 DUP3 ADD MSTORE PUSH16 0x766572666C6F77696E6720766F746573 PUSH1 0x80 SHL PUSH1 0x64 DUP3 ADD MSTORE PUSH1 0x84 SWAP1 REVERT JUMPDEST PUSH1 0x1 PUSH1 0x1 PUSH1 0xA0 SHL SUB DUP2 AND SWAP1 DUP2 ISZERO PUSH3 0xB94 JUMPI PUSH1 0xFF PUSH1 0xD SLOAD AND PUSH3 0xB5C JUMPI PUSH3 0xB36 SWAP2 PUSH3 0xAC3 PUSH3 0xABE PUSH1 0x2 SLOAD PUSH3 0xBD9 JUMP JUMPDEST PUSH1 0x2 SSTORE JUMP JUMPDEST PUSH1 0x1 PUSH1 0x1 PUSH1 0xA0 SHL SUB DUP3 AND PUSH1 0x0 SWAP1 DUP2 MSTORE PUSH1 0x20 DUP2 SWAP1 MSTORE PUSH1 0x40 SWAP1 KECCAK256 PUSH11 0x7C13BC4B2C133C56000000 DUP2 SLOAD ADD SWAP1 SSTORE PUSH1 0x0 PUSH32 0xDDF252AD1BE2C89B69C2B068FC378DAA952BA7F163C4A11628F55A4DF523B3EF PUSH1 0x40 MLOAD DUP1 PUSH3 0xB2D DUP2 SWAP1 PUSH11 0x7C13BC4B2C133C56000000 PUSH1 0x20 DUP4 ADD SWAP3 MSTORE JUMP JUMPDEST SUB SWAP1 LOG3 PUSH3 0x114B JUMP JUMPDEST PUSH1 0x2 SLOAD PUSH3 0xB4E SWAP1 PUSH1 0x1 PUSH1 0x1 PUSH1 0xE0 SHL SUB LT ISZERO PUSH3 0xA25 JUMP JUMPDEST PUSH3 0xB58 PUSH3 0xD02 JUMP JUMPDEST POP POP JUMP JUMPDEST PUSH1 0x40 MLOAD PUSH3 0x461BCD PUSH1 0xE5 SHL DUP2 MSTORE PUSH1 0x20 PUSH1 0x4 DUP3 ADD MSTORE PUSH1 0x10 PUSH1 0x24 DUP3 ADD MSTORE PUSH16 0x14185D5CD8589B194E881C185D5CD959 PUSH1 0x82 SHL PUSH1 0x44 DUP3 ADD MSTORE PUSH1 0x64 SWAP1 REVERT JUMPDEST PUSH1 0x40 MLOAD PUSH3 0x461BCD PUSH1 0xE5 SHL DUP2 MSTORE PUSH1 0x20 PUSH1 0x4 DUP3 ADD MSTORE PUSH1 0x1F PUSH1 0x24 DUP3 ADD MSTORE PUSH32 0x45524332303A206D696E7420746F20746865207A65726F206164647265737300 PUSH1 0x44 DUP3 ADD MSTORE PUSH1 0x64 SWAP1 REVERT JUMPDEST SWAP1 PUSH11 0x7C13BC4B2C133C56000000 DUP3 ADD DUP1 SWAP3 GT PUSH3 0xBF2 JUMPI JUMP JUMPDEST PUSH3 0xA0F JUMP JUMPDEST PUSH1 0x40 DUP1 MLOAD SWAP2 SWAP3 SWAP2 SWAP1 DUP2 ADD PUSH1 0x1 PUSH1 0x1 PUSH1 0x40 SHL SUB DUP2 GT DUP3 DUP3 LT OR PUSH3 0x268 JUMPI PUSH1 0x40 MSTORE PUSH1 0x20 DUP2 SWAP4 SLOAD PUSH4 0xFFFFFFFF DUP2 AND DUP4 MSTORE DUP2 SHR SWAP2 ADD MSTORE JUMP JUMPDEST PUSH1 0xB SLOAD SWAP1 PUSH9 0x10000000000000000 DUP3 LT ISZERO PUSH3 0x268 JUMPI PUSH1 0x1 DUP3 ADD DUP1 PUSH1 0xB SSTORE DUP3 LT ISZERO PUSH3 0xC9B JUMPI PUSH1 0xB PUSH1 0x0 MSTORE DUP1 MLOAD PUSH1 0x20 SWAP2 DUP3 ADD MLOAD SWAP1 SWAP2 SHL PUSH4 0xFFFFFFFF NOT AND PUSH4 0xFFFFFFFF SWAP2 SWAP1 SWAP2 AND OR PUSH32 0x175B7A638427703F0DBE7BB9BBF987A2551717B34E79F33B5B1008D1FA01DB9 SWAP1 SWAP2 ADD SSTORE JUMP JUMPDEST PUSH4 0x4E487B71 PUSH1 0xE0 SHL PUSH1 0x0 MSTORE PUSH1 0x32 PUSH1 0x4 MSTORE PUSH1 0x24 PUSH1 0x0 REVERT JUMPDEST SWAP1 DUP2 SLOAD PUSH9 0x10000000000000000 DUP2 LT ISZERO PUSH3 0x268 JUMPI PUSH1 0x1 DUP2 ADD DUP1 DUP5 SSTORE DUP2 LT ISZERO PUSH3 0xC9B JUMPI PUSH1 0x0 SWAP3 DUP4 MSTORE PUSH1 0x20 SWAP3 DUP4 SWAP1 KECCAK256 DUP3 MLOAD SWAP3 DUP5 ADD MLOAD SWAP1 SWAP4 SHL PUSH4 0xFFFFFFFF NOT AND PUSH4 0xFFFFFFFF SWAP3 SWAP1 SWAP3 AND SWAP2 SWAP1 SWAP2 OR SWAP2 ADD SSTORE JUMP JUMPDEST PUSH1 0xB SLOAD SWAP1 DUP2 ISZERO SWAP1 DUP2 ISZERO PUSH3 0xE49 JUMPI PUSH3 0xD1A PUSH3 0x2A5 JUMP JUMPDEST PUSH1 0x0 DUP2 MSTORE PUSH1 0x0 PUSH1 0x20 DUP3 ADD MSTORE SWAP3 JUMPDEST PUSH1 0x20 DUP5 ADD MLOAD PUSH3 0xD47 SWAP1 PUSH1 0x1 PUSH1 0x1 PUSH1 0xE0 SHL SUB AND JUMPDEST PUSH1 0x1 PUSH1 0x1 PUSH1 0xE0 SHL SUB AND SWAP1 JUMP JUMPDEST SWAP4 PUSH3 0xD53 DUP6 PUSH3 0x1244 JUMP JUMPDEST SWAP4 ISZERO SWAP1 DUP2 PUSH3 0xE22 JUMPI JUMPDEST POP ISZERO PUSH3 0xDBA JUMPI PUSH3 0x2B4 SWAP1 PUSH3 0xDA3 PUSH3 0xD78 DUP6 PUSH3 0x1013 JUMP JUMPDEST PUSH1 0xB PUSH1 0x0 MSTORE SWAP2 PUSH32 0x175B7A638427703F0DBE7BB9BBF987A2551717B34E79F33B5B1008D1FA01DB8 ADD SWAP1 JUMP JUMPDEST SWAP1 PUSH4 0xFFFFFFFF DUP3 SLOAD SWAP2 DUP2 NOT SWAP1 PUSH1 0x20 SHL AND SWAP2 AND OR SWAP1 SSTORE JUMP JUMPDEST POP PUSH3 0x2B4 PUSH3 0xDE3 PUSH3 0xDDD PUSH3 0xDD2 NUMBER PUSH3 0x107D JUMP JUMPDEST PUSH6 0xFFFFFFFFFFFF AND SWAP1 JUMP JUMPDEST PUSH3 0x10E5 JUMP JUMPDEST PUSH3 0xE1C PUSH3 0xDF2 DUP6 PUSH3 0x1013 JUMP JUMPDEST PUSH3 0xE0C PUSH3 0xE00 PUSH3 0x2A5 JUMP JUMPDEST PUSH4 0xFFFFFFFF SWAP1 SWAP5 AND DUP5 MSTORE JUMP JUMPDEST PUSH1 0x1 PUSH1 0x1 PUSH1 0xE0 SHL SUB AND PUSH1 0x20 DUP4 ADD MSTORE JUMP JUMPDEST PUSH3 0xC2D JUMP JUMPDEST MLOAD PUSH4 0xFFFFFFFF AND SWAP1 POP PUSH4 0xFFFFFFFF PUSH3 0xE3F PUSH3 0xDD2 NUMBER PUSH3 0x107D JUMP JUMPDEST SWAP2 AND EQ CODESIZE PUSH3 0xD5D JUMP JUMPDEST PUSH1 0xB PUSH1 0x0 MSTORE PUSH3 0xE81 PUSH32 0x175B7A638427703F0DBE7BB9BBF987A2551717B34E79F33B5B1008D1FA01DB8 DUP5 ADD PUSH3 0xBF8 JUMP JUMPDEST PUSH3 0xBF8 JUMP JUMPDEST SWAP3 PUSH3 0xD27 JUMP JUMPDEST DUP1 SLOAD SWAP2 DUP3 ISZERO SWAP2 DUP3 ISZERO PUSH3 0xF88 JUMPI PUSH3 0xE9F PUSH3 0x2A5 JUMP JUMPDEST PUSH1 0x0 DUP2 MSTORE PUSH1 0x0 PUSH1 0x20 DUP3 ADD MSTORE SWAP4 JUMPDEST PUSH1 0x20 DUP6 ADD MLOAD PUSH3 0xEC5 SWAP1 PUSH1 0x1 PUSH1 0x1 PUSH1 0xE0 SHL SUB AND PUSH3 0xD3B JUMP JUMPDEST SWAP5 PUSH3 0xED1 DUP7 PUSH3 0x125D JUMP JUMPDEST SWAP5 ISZERO SWAP1 DUP2 PUSH3 0xF61 JUMPI JUMPDEST POP ISZERO PUSH3 0xF08 JUMPI PUSH3 0xDA3 PUSH3 0x2B4 SWAP3 PUSH3 0xEF6 DUP7 PUSH3 0x1013 JUMP JUMPDEST SWAP3 PUSH1 0x0 NOT ADD SWAP1 PUSH1 0x0 MSTORE PUSH1 0x20 PUSH1 0x0 KECCAK256 ADD SWAP1 JUMP JUMPDEST POP PUSH3 0x2B4 SWAP1 PUSH3 0xF21 PUSH3 0xDDD PUSH3 0xDD2 NUMBER PUSH3 0x107D JUMP JUMPDEST SWAP1 PUSH3 0xF5B PUSH3 0xF31 DUP7 PUSH3 0x1013 JUMP JUMPDEST PUSH3 0xF4B PUSH3 0xF3F PUSH3 0x2A5 JUMP JUMPDEST PUSH4 0xFFFFFFFF SWAP1 SWAP6 AND DUP6 MSTORE JUMP JUMPDEST PUSH1 0x1 PUSH1 0x1 PUSH1 0xE0 SHL SUB AND PUSH1 0x20 DUP5 ADD MSTORE JUMP JUMPDEST PUSH3 0xCB1 JUMP JUMPDEST MLOAD PUSH4 0xFFFFFFFF AND SWAP1 POP PUSH4 0xFFFFFFFF PUSH3 0xF7E PUSH3 0xDD2 NUMBER PUSH3 0x107D JUMP JUMPDEST SWAP2 AND EQ CODESIZE PUSH3 0xEDB JUMP JUMPDEST PUSH3 0xFA2 PUSH3 0xE7B PUSH1 0x0 NOT DUP7 ADD DUP4 PUSH1 0x0 MSTORE PUSH1 0x20 PUSH1 0x0 KECCAK256 ADD SWAP1 JUMP JUMPDEST SWAP4 PUSH3 0xEAC JUMP JUMPDEST DUP1 SLOAD SWAP2 DUP3 ISZERO SWAP2 DUP3 ISZERO PUSH3 0xFF2 JUMPI PUSH3 0xFC0 PUSH3 0x2A5 JUMP JUMPDEST PUSH1 0x0 DUP2 MSTORE PUSH1 0x0 PUSH1 0x20 DUP3 ADD MSTORE SWAP4 JUMPDEST PUSH1 0x20 DUP6 ADD MLOAD PUSH3 0xFE6 SWAP1 PUSH1 0x1 PUSH1 0x1 PUSH1 0xE0 SHL SUB AND PUSH3 0xD3B JUMP JUMPDEST SWAP5 PUSH3 0xED1 DUP7 PUSH3 0x1244 JUMP JUMPDEST PUSH3 0x100C PUSH3 0xE7B PUSH1 0x0 NOT DUP7 ADD DUP4 PUSH1 0x0 MSTORE PUSH1 0x20 PUSH1 0x0 KECCAK256 ADD SWAP1 JUMP JUMPDEST SWAP4 PUSH3 0xFCD JUMP JUMPDEST PUSH1 0x1 PUSH1 0x1 PUSH1 0xE0 SHL SUB SWAP1 DUP2 DUP2 GT PUSH3 0x1028 JUMPI AND SWAP1 JUMP JUMPDEST PUSH1 0x40 MLOAD PUSH3 0x461BCD PUSH1 0xE5 SHL DUP2 MSTORE PUSH1 0x20 PUSH1 0x4 DUP3 ADD MSTORE PUSH1 0x27 PUSH1 0x24 DUP3 ADD MSTORE PUSH32 0x53616665436173743A2076616C756520646F65736E27742066697420696E2032 PUSH1 0x44 DUP3 ADD MSTORE PUSH7 0x32342062697473 PUSH1 0xC8 SHL PUSH1 0x64 DUP3 ADD MSTORE PUSH1 0x84 SWAP1 REVERT JUMPDEST PUSH6 0xFFFFFFFFFFFF SWAP1 DUP2 DUP2 GT PUSH3 0x1091 JUMPI AND SWAP1 JUMP JUMPDEST PUSH1 0x40 MLOAD PUSH3 0x461BCD PUSH1 0xE5 SHL DUP2 MSTORE PUSH1 0x20 PUSH1 0x4 DUP3 ADD MSTORE PUSH1 0x26 PUSH1 0x24 DUP3 ADD MSTORE PUSH32 0x53616665436173743A2076616C756520646F65736E27742066697420696E2034 PUSH1 0x44 DUP3 ADD MSTORE PUSH6 0x382062697473 PUSH1 0xD0 SHL PUSH1 0x64 DUP3 ADD MSTORE PUSH1 0x84 SWAP1 REVERT JUMPDEST PUSH4 0xFFFFFFFF SWAP1 DUP2 DUP2 GT PUSH3 0x10F7 JUMPI AND SWAP1 JUMP JUMPDEST PUSH1 0x40 MLOAD PUSH3 0x461BCD PUSH1 0xE5 SHL DUP2 MSTORE PUSH1 0x20 PUSH1 0x4 DUP3 ADD MSTORE PUSH1 0x26 PUSH1 0x24 DUP3 ADD MSTORE PUSH32 0x53616665436173743A2076616C756520646F65736E27742066697420696E2033 PUSH1 0x44 DUP3 ADD MSTORE PUSH6 0x322062697473 PUSH1 0xD0 SHL PUSH1 0x64 DUP3 ADD MSTORE PUSH1 0x84 SWAP1 REVERT JUMPDEST PUSH1 0x9 PUSH1 0x20 MSTORE PUSH32 0xEC8156718A8372B1DB44BB411437D0870F3E3790D4A08526D024CE1B0B668F6B SLOAD PUSH1 0x1 PUSH1 0x1 PUSH1 0xA0 SHL SUB SWAP2 DUP3 AND PUSH1 0x0 SWAP1 DUP2 MSTORE PUSH1 0x40 DUP2 KECCAK256 SLOAD DUP4 AND SWAP3 SWAP1 SWAP2 AND SWAP1 DUP2 DUP4 EQ ISZERO DUP1 PUSH3 0x123B JUMPI JUMPDEST PUSH3 0x11A3 JUMPI POP POP POP JUMP JUMPDEST DUP2 PUSH3 0x11FC JUMPI JUMPDEST POP POP DUP1 PUSH3 0x11B5 JUMPI POP JUMP JUMPDEST PUSH1 0x1 PUSH1 0x1 PUSH1 0xA0 SHL SUB DUP2 AND PUSH1 0x0 SWAP1 DUP2 MSTORE PUSH1 0xA PUSH1 0x20 MSTORE PUSH1 0x40 SWAP1 KECCAK256 PUSH1 0x0 DUP1 MLOAD PUSH1 0x20 PUSH3 0x5A53 DUP4 CODECOPY DUP2 MLOAD SWAP2 MSTORE SWAP1 PUSH3 0x11E9 SWAP1 PUSH3 0xFA9 JUMP JUMPDEST PUSH1 0x40 DUP1 MLOAD SWAP3 DUP4 MSTORE PUSH1 0x20 DUP4 ADD SWAP2 SWAP1 SWAP2 MSTORE SWAP1 LOG2 JUMP JUMPDEST PUSH3 0x1222 PUSH1 0x40 DUP3 DUP5 PUSH1 0x0 DUP1 MLOAD PUSH1 0x20 PUSH3 0x5A53 DUP4 CODECOPY DUP2 MLOAD SWAP2 MSTORE SWAP5 MSTORE PUSH1 0xA PUSH1 0x20 MSTORE KECCAK256 PUSH3 0xE88 JUMP JUMPDEST PUSH1 0x40 DUP1 MLOAD SWAP3 DUP4 MSTORE PUSH1 0x20 DUP4 ADD SWAP2 SWAP1 SWAP2 MSTORE SWAP1 LOG2 CODESIZE DUP1 PUSH3 0x11AA JUMP JUMPDEST POP PUSH1 0x1 PUSH3 0x1199 JUMP JUMPDEST PUSH11 0x7C13BC4B2C133C56000000 DUP2 ADD DUP1 SWAP2 GT PUSH3 0xBF2 JUMPI SWAP1 JUMP JUMPDEST PUSH11 0x7C13BC4B2C133C55FFFFFF NOT DUP2 ADD SWAP1 DUP2 GT PUSH3 0xBF2 JUMPI SWAP1 JUMP INVALID PUSH1 0x80 PUSH1 0x40 MSTORE PUSH1 0x4 CALLDATASIZE LT ISZERO PUSH2 0x12 JUMPI PUSH1 0x0 DUP1 REVERT JUMPDEST PUSH1 0x0 CALLDATALOAD PUSH1 0xE0 SHR DUP1 PUSH4 0x1FFC9A7 EQ PUSH2 0x407 JUMPI DUP1 PUSH4 0x6FDDE03 EQ PUSH2 0x402 JUMPI DUP1 PUSH4 0x95EA7B3 EQ PUSH2 0x3FD JUMPI DUP1 PUSH4 0xC7D5CD8 EQ PUSH2 0x3F8 JUMPI DUP1 PUSH4 0xE4D51EC EQ PUSH2 0x3F3 JUMPI DUP1 PUSH4 0xFDB0C7D EQ PUSH2 0x3EE JUMPI DUP1 PUSH4 0x126063AC EQ PUSH2 0x3E9 JUMPI DUP1 PUSH4 0x18160DDD EQ PUSH2 0x3E4 JUMPI DUP1 PUSH4 0x1B1BDDC1 EQ PUSH2 0x3DF JUMPI DUP1 PUSH4 0x23B872DD EQ PUSH2 0x3DA JUMPI DUP1 PUSH4 0x248A9CA3 EQ PUSH2 0x3D5 JUMPI DUP1 PUSH4 0x2F2FF15D EQ PUSH2 0x3D0 JUMPI DUP1 PUSH4 0x300CCB51 EQ PUSH2 0x3CB JUMPI DUP1 PUSH4 0x313CE567 EQ PUSH2 0x3C6 JUMPI DUP1 PUSH4 0x32665FFB EQ PUSH2 0x3C1 JUMPI DUP1 PUSH4 0x32CB6B0C EQ PUSH2 0x3BC JUMPI DUP1 PUSH4 0x3644E515 EQ PUSH2 0x3B7 JUMPI DUP1 PUSH4 0x36568ABE EQ PUSH2 0x3B2 JUMPI DUP1 PUSH4 0x39509351 EQ PUSH2 0x3AD JUMPI DUP1 PUSH4 0x3A46B1A8 EQ PUSH2 0x3A8 JUMPI DUP1 PUSH4 0x3CB96391 EQ PUSH2 0x3A3 JUMPI DUP1 PUSH4 0x47E64656 EQ PUSH2 0x39E JUMPI DUP1 PUSH4 0x4BF5D7E9 EQ PUSH2 0x399 JUMPI DUP1 PUSH4 0x587CDE1E EQ PUSH2 0x394 JUMPI DUP1 PUSH4 0x5909D3C5 EQ PUSH2 0x38F JUMPI DUP1 PUSH4 0x5981B7C0 EQ PUSH2 0x38A JUMPI DUP1 PUSH4 0x5C19A95C EQ PUSH2 0x385 JUMPI DUP1 PUSH4 0x5C975ABB EQ PUSH2 0x380 JUMPI DUP1 PUSH4 0x6639A81D EQ PUSH2 0x37B JUMPI DUP1 PUSH4 0x6FCFFF45 EQ PUSH2 0x376 JUMPI DUP1 PUSH4 0x70A08231 EQ PUSH2 0x371 JUMPI DUP1 PUSH4 0x732FB0ED EQ PUSH2 0x36C JUMPI DUP1 PUSH4 0x75B238FC EQ PUSH2 0x367 JUMPI DUP1 PUSH4 0x7ECEBE00 EQ PUSH2 0x362 JUMPI DUP1 PUSH4 0x84B0196E EQ PUSH2 0x35D JUMPI DUP1 PUSH4 0x8B9EAF32 EQ PUSH2 0x358 JUMPI DUP1 PUSH4 0x8E539E8C EQ PUSH2 0x353 JUMPI DUP1 PUSH4 0x91D14854 EQ PUSH2 0x34E JUMPI DUP1 PUSH4 0x91DDADF4 EQ PUSH2 0x349 JUMPI DUP1 PUSH4 0x95D89B41 EQ PUSH2 0x344 JUMPI DUP1 PUSH4 0x9AB24EB0 EQ PUSH2 0x33F JUMPI DUP1 PUSH4 0xA0326D45 EQ PUSH2 0x33A JUMPI DUP1 PUSH4 0xA217FDDF EQ PUSH2 0x335 JUMPI DUP1 PUSH4 0xA457C2D7 EQ PUSH2 0x330 JUMPI DUP1 PUSH4 0xA9059CBB EQ PUSH2 0x32B JUMPI DUP1 PUSH4 0xB596A6BF EQ PUSH2 0x326 JUMPI DUP1 PUSH4 0xBF645E82 EQ PUSH2 0x321 JUMPI DUP1 PUSH4 0xC3CDA520 EQ PUSH2 0x31C JUMPI DUP1 PUSH4 0xC6866874 EQ PUSH2 0x317 JUMPI DUP1 PUSH4 0xCB653AAA EQ PUSH2 0x312 JUMPI DUP1 PUSH4 0xCDD78CFC EQ PUSH2 0x30D JUMPI DUP1 PUSH4 0xD505ACCF EQ PUSH2 0x308 JUMPI DUP1 PUSH4 0xD547741F EQ PUSH2 0x303 JUMPI DUP1 PUSH4 0xD7FAC34B EQ PUSH2 0x2FE JUMPI DUP1 PUSH4 0xDD62ED3E EQ PUSH2 0x2F9 JUMPI DUP1 PUSH4 0xE2271C9F EQ PUSH2 0x2F4 JUMPI DUP1 PUSH4 0xE9B66F8C EQ PUSH2 0x2EF JUMPI DUP1 PUSH4 0xEDEF638B EQ PUSH2 0x2EA JUMPI DUP1 PUSH4 0xF1127ED8 EQ PUSH2 0x2E5 JUMPI DUP1 PUSH4 0xF2A3D623 EQ PUSH2 0x2E0 JUMPI DUP1 PUSH4 0xF366819D EQ PUSH2 0x2DB JUMPI DUP1 PUSH4 0xF7B10808 EQ PUSH2 0x2D6 JUMPI PUSH4 0xFB2D4C53 EQ PUSH2 0x2D1 JUMPI PUSH1 0x0 DUP1 REVERT JUMPDEST PUSH2 0x2325 JUMP JUMPDEST PUSH2 0x2290 JUMP JUMPDEST PUSH2 0x20DE JUMP JUMPDEST PUSH2 0x20A4 JUMP JUMPDEST PUSH2 0x201D JUMP JUMPDEST PUSH2 0x1FFF JUMP JUMPDEST PUSH2 0x1E99 JUMP JUMPDEST PUSH2 0x1E4F JUMP JUMPDEST PUSH2 0x1E00 JUMP JUMPDEST PUSH2 0x1DE2 JUMP JUMPDEST PUSH2 0x1DA3 JUMP JUMPDEST PUSH2 0x1C5D JUMP JUMPDEST PUSH2 0x1C3F JUMP JUMPDEST PUSH2 0x1C05 JUMP JUMPDEST PUSH2 0x1B5B JUMP JUMPDEST PUSH2 0x1A30 JUMP JUMPDEST PUSH2 0x19B1 JUMP JUMPDEST PUSH2 0x191E JUMP JUMPDEST PUSH2 0x18F8 JUMP JUMPDEST PUSH2 0x184A JUMP JUMPDEST PUSH2 0x182E JUMP JUMPDEST PUSH2 0x17DF JUMP JUMPDEST PUSH2 0x177D JUMP JUMPDEST PUSH2 0x16D6 JUMP JUMPDEST PUSH2 0x16AA JUMP JUMPDEST PUSH2 0x1658 JUMP JUMPDEST PUSH2 0x14FF JUMP JUMPDEST PUSH2 0x1495 JUMP JUMPDEST PUSH2 0x13CB JUMP JUMPDEST PUSH2 0x135D JUMP JUMPDEST PUSH2 0x1322 JUMP JUMPDEST PUSH2 0x1109 JUMP JUMPDEST PUSH2 0x10CF JUMP JUMPDEST PUSH2 0x1087 JUMP JUMPDEST PUSH2 0x106C JUMP JUMPDEST PUSH2 0x1049 JUMP JUMPDEST PUSH2 0x1027 JUMP JUMPDEST PUSH2 0x1009 JUMP JUMPDEST PUSH2 0xFEE JUMP JUMPDEST PUSH2 0xFB3 JUMP JUMPDEST PUSH2 0xF01 JUMP JUMPDEST PUSH2 0xEC6 JUMP JUMPDEST PUSH2 0xEA5 JUMP JUMPDEST PUSH2 0xCF1 JUMP JUMPDEST PUSH2 0xC99 JUMP JUMPDEST PUSH2 0xC05 JUMP JUMPDEST PUSH2 0xBEA JUMP JUMPDEST PUSH2 0xBC3 JUMP JUMPDEST PUSH2 0xB3A JUMP JUMPDEST PUSH2 0xA95 JUMP JUMPDEST PUSH2 0xA7D JUMP JUMPDEST PUSH2 0x98A JUMP JUMPDEST PUSH2 0x95B JUMP JUMPDEST PUSH2 0x890 JUMP JUMPDEST PUSH2 0x865 JUMP JUMPDEST PUSH2 0x847 JUMP JUMPDEST PUSH2 0x80C JUMP JUMPDEST PUSH2 0x779 JUMP JUMPDEST PUSH2 0x61E JUMP JUMPDEST PUSH2 0x600 JUMP JUMPDEST PUSH2 0x5CF JUMP JUMPDEST PUSH2 0x4BE JUMP JUMPDEST CALLVALUE PUSH2 0x45D JUMPI PUSH1 0x20 CALLDATASIZE PUSH1 0x3 NOT ADD SLT PUSH2 0x45D JUMPI PUSH1 0x4 CALLDATALOAD PUSH4 0xFFFFFFFF PUSH1 0xE0 SHL DUP2 AND DUP1 SWAP2 SUB PUSH2 0x45D JUMPI PUSH1 0x20 SWAP1 PUSH4 0x7965DB0B PUSH1 0xE0 SHL DUP2 EQ SWAP1 DUP2 ISZERO PUSH2 0x44C JUMPI JUMPDEST POP PUSH1 0x40 MLOAD SWAP1 ISZERO ISZERO DUP2 MSTORE RETURN JUMPDEST PUSH4 0x1FFC9A7 PUSH1 0xE0 SHL EQ SWAP1 POP CODESIZE PUSH2 0x441 JUMP JUMPDEST PUSH1 0x0 DUP1 REVERT JUMPDEST PUSH1 0x0 JUMPDEST DUP4 DUP2 LT PUSH2 0x475 JUMPI POP POP PUSH1 0x0 SWAP2 ADD MSTORE JUMP JUMPDEST DUP2 DUP2 ADD MLOAD DUP4 DUP3 ADD MSTORE PUSH1 0x20 ADD PUSH2 0x465 JUMP JUMPDEST SWAP1 PUSH1 0x20 SWAP2 PUSH2 0x49E DUP2 MLOAD DUP1 SWAP3 DUP2 DUP6 MSTORE DUP6 DUP1 DUP7 ADD SWAP2 ADD PUSH2 0x462 JUMP JUMPDEST PUSH1 0x1F ADD PUSH1 0x1F NOT AND ADD ADD SWAP1 JUMP JUMPDEST SWAP1 PUSH1 0x20 PUSH2 0x4BB SWAP3 DUP2 DUP2 MSTORE ADD SWAP1 PUSH2 0x485 JUMP JUMPDEST SWAP1 JUMP JUMPDEST CALLVALUE PUSH2 0x45D JUMPI PUSH1 0x0 DUP1 PUSH1 0x3 NOT CALLDATASIZE ADD SLT PUSH2 0x5A0 JUMPI PUSH1 0x40 MLOAD SWAP1 DUP1 PUSH1 0x3 SLOAD PUSH2 0x4E1 DUP2 PUSH2 0x2129 JUMP JUMPDEST DUP1 DUP6 MSTORE SWAP2 PUSH1 0x1 SWAP2 DUP1 DUP4 AND SWAP1 DUP2 ISZERO PUSH2 0x576 JUMPI POP PUSH1 0x1 EQ PUSH2 0x51B JUMPI JUMPDEST PUSH2 0x517 DUP6 PUSH2 0x50B DUP2 DUP8 SUB DUP3 PUSH2 0x6A8 JUMP JUMPDEST PUSH1 0x40 MLOAD SWAP2 DUP3 SWAP2 DUP3 PUSH2 0x4AA JUMP JUMPDEST SUB SWAP1 RETURN JUMPDEST SWAP3 POP PUSH1 0x3 DUP4 MSTORE PUSH32 0xC2575A0E9E593C00F959F8C92F12DB2869C3395A3B0502D05E2516446F71F85B JUMPDEST DUP3 DUP5 LT PUSH2 0x55E JUMPI POP POP POP DUP2 ADD PUSH1 0x20 ADD PUSH2 0x50B DUP3 PUSH2 0x517 PUSH2 0x4FB JUMP JUMPDEST DUP1 SLOAD PUSH1 0x20 DUP6 DUP8 ADD DUP2 ADD SWAP2 SWAP1 SWAP2 MSTORE SWAP1 SWAP4 ADD SWAP3 DUP2 ADD PUSH2 0x543 JUMP JUMPDEST DUP7 SWAP6 POP PUSH2 0x517 SWAP7 SWAP4 POP PUSH1 0x20 SWAP3 POP PUSH2 0x50B SWAP5 SWAP2 POP PUSH1 0xFF NOT AND DUP3 DUP5 ADD MSTORE ISZERO ISZERO PUSH1 0x5 SHL DUP3 ADD ADD SWAP3 SWAP4 PUSH2 0x4FB JUMP JUMPDEST DUP1 REVERT JUMPDEST PUSH1 0x4 CALLDATALOAD SWAP1 PUSH1 0x1 PUSH1 0x1 PUSH1 0xA0 SHL SUB DUP3 AND DUP3 SUB PUSH2 0x45D JUMPI JUMP JUMPDEST PUSH1 0x24 CALLDATALOAD SWAP1 PUSH1 0x1 PUSH1 0x1 PUSH1 0xA0 SHL SUB DUP3 AND DUP3 SUB PUSH2 0x45D JUMPI JUMP JUMPDEST CALLVALUE PUSH2 0x45D JUMPI PUSH1 0x40 CALLDATASIZE PUSH1 0x3 NOT ADD SLT PUSH2 0x45D JUMPI PUSH2 0x5F5 PUSH2 0x5EB PUSH2 0x5A3 JUMP JUMPDEST PUSH1 0x24 CALLDATALOAD SWAP1 CALLER PUSH2 0x289E JUMP JUMPDEST PUSH1 0x20 PUSH1 0x40 MLOAD PUSH1 0x1 DUP2 MSTORE RETURN JUMPDEST CALLVALUE PUSH2 0x45D JUMPI PUSH1 0x0 CALLDATASIZE PUSH1 0x3 NOT ADD SLT PUSH2 0x45D JUMPI PUSH1 0x20 PUSH1 0x14 SLOAD PUSH1 0x40 MLOAD SWAP1 DUP2 MSTORE RETURN JUMPDEST CALLVALUE PUSH2 0x45D JUMPI PUSH1 0x0 CALLDATASIZE PUSH1 0x3 NOT ADD SLT PUSH2 0x45D JUMPI PUSH1 0x20 PUSH1 0x10 SLOAD PUSH1 0x40 MLOAD SWAP1 DUP2 MSTORE RETURN JUMPDEST PUSH4 0x4E487B71 PUSH1 0xE0 SHL PUSH1 0x0 MSTORE PUSH1 0x41 PUSH1 0x4 MSTORE PUSH1 0x24 PUSH1 0x0 REVERT JUMPDEST PUSH1 0x40 DUP2 ADD SWAP1 DUP2 LT PUSH1 0x1 PUSH1 0x1 PUSH1 0x40 SHL SUB DUP3 GT OR PUSH2 0x66D JUMPI PUSH1 0x40 MSTORE JUMP JUMPDEST PUSH2 0x63C JUMP JUMPDEST PUSH1 0x20 DUP2 ADD SWAP1 DUP2 LT PUSH1 0x1 PUSH1 0x1 PUSH1 0x40 SHL SUB DUP3 GT OR PUSH2 0x66D JUMPI PUSH1 0x40 MSTORE JUMP JUMPDEST PUSH1 0xC0 DUP2 ADD SWAP1 DUP2 LT PUSH1 0x1 PUSH1 0x1 PUSH1 0x40 SHL SUB DUP3 GT OR PUSH2 0x66D JUMPI PUSH1 0x40 MSTORE JUMP JUMPDEST SWAP1 PUSH1 0x1F DUP1 NOT SWAP2 ADD AND DUP2 ADD SWAP1 DUP2 LT PUSH1 0x1 PUSH1 0x1 PUSH1 0x40 SHL SUB DUP3 GT OR PUSH2 0x66D JUMPI PUSH1 0x40 MSTORE JUMP JUMPDEST PUSH1 0x40 MLOAD SWAP1 PUSH2 0x6D6 DUP3 PUSH2 0x652 JUMP JUMPDEST JUMP JUMPDEST PUSH1 0x40 MLOAD SWAP1 PUSH2 0x140 DUP3 ADD DUP3 DUP2 LT PUSH1 0x1 PUSH1 0x1 PUSH1 0x40 SHL SUB DUP3 GT OR PUSH2 0x66D JUMPI PUSH1 0x40 MSTORE JUMP JUMPDEST PUSH1 0x40 MLOAD SWAP1 PUSH2 0x6D6 DUP3 PUSH2 0x68D JUMP JUMPDEST DUP2 PUSH1 0x1F DUP3 ADD SLT ISZERO PUSH2 0x45D JUMPI DUP1 CALLDATALOAD SWAP1 PUSH1 0x1 PUSH1 0x1 PUSH1 0x40 SHL SUB DUP3 GT PUSH2 0x66D JUMPI PUSH1 0x40 MLOAD SWAP3 PUSH2 0x739 PUSH1 0x1F DUP5 ADD PUSH1 0x1F NOT AND PUSH1 0x20 ADD DUP6 PUSH2 0x6A8 JUMP JUMPDEST DUP3 DUP5 MSTORE PUSH1 0x20 DUP4 DUP4 ADD ADD GT PUSH2 0x45D JUMPI DUP2 PUSH1 0x0 SWAP3 PUSH1 0x20 DUP1 SWAP4 ADD DUP4 DUP7 ADD CALLDATACOPY DUP4 ADD ADD MSTORE SWAP1 JUMP JUMPDEST PUSH1 0x84 CALLDATALOAD SWAP1 PUSH1 0x5 DUP3 LT ISZERO PUSH2 0x45D JUMPI JUMP JUMPDEST PUSH1 0x4 CALLDATALOAD SWAP1 PUSH1 0x5 DUP3 LT ISZERO PUSH2 0x45D JUMPI JUMP JUMPDEST CALLVALUE PUSH2 0x45D JUMPI PUSH1 0xC0 CALLDATASIZE PUSH1 0x3 NOT ADD SLT PUSH2 0x45D JUMPI PUSH2 0x792 PUSH2 0x5A3 JUMP JUMPDEST PUSH1 0x1 PUSH1 0x1 PUSH1 0x40 SHL SUB PUSH1 0x24 CALLDATALOAD DUP2 DUP2 GT PUSH2 0x45D JUMPI PUSH2 0x7B2 SWAP1 CALLDATASIZE SWAP1 PUSH1 0x4 ADD PUSH2 0x705 JUMP JUMPDEST PUSH1 0x64 CALLDATALOAD DUP3 DUP2 GT PUSH2 0x45D JUMPI PUSH2 0x7CA SWAP1 CALLDATASIZE SWAP1 PUSH1 0x4 ADD PUSH2 0x705 JUMP JUMPDEST PUSH2 0x7D2 PUSH2 0x75B JUMP JUMPDEST SWAP1 PUSH1 0xA4 CALLDATALOAD SWAP4 DUP5 GT PUSH2 0x45D JUMPI PUSH2 0x517 SWAP5 PUSH2 0x7F2 PUSH2 0x7FC SWAP6 CALLDATASIZE SWAP1 PUSH1 0x4 ADD PUSH2 0x705 JUMP JUMPDEST SWAP4 PUSH1 0x44 CALLDATALOAD SWAP2 PUSH2 0x3A12 JUMP JUMPDEST PUSH1 0x40 MLOAD SWAP1 DUP2 MSTORE SWAP1 DUP2 SWAP1 PUSH1 0x20 DUP3 ADD SWAP1 JUMP JUMPDEST CALLVALUE PUSH2 0x45D JUMPI PUSH1 0x0 CALLDATASIZE PUSH1 0x3 NOT ADD SLT PUSH2 0x45D JUMPI PUSH1 0x20 PUSH1 0x40 MLOAD PUSH32 0xB45EAE92260BAF72FFDA338588221DB0509AD4D5064B052A6E9FEA04988E38FA DUP2 MSTORE RETURN JUMPDEST CALLVALUE PUSH2 0x45D JUMPI PUSH1 0x0 CALLDATASIZE PUSH1 0x3 NOT ADD SLT PUSH2 0x45D JUMPI PUSH1 0x20 PUSH1 0x2 SLOAD PUSH1 0x40 MLOAD SWAP1 DUP2 MSTORE RETURN JUMPDEST CALLVALUE PUSH2 0x45D JUMPI PUSH1 0x20 CALLDATASIZE PUSH1 0x3 NOT ADD SLT PUSH2 0x45D JUMPI PUSH1 0x20 PUSH2 0x888 PUSH2 0x883 PUSH2 0x76A JUMP JUMPDEST PUSH2 0x40C3 JUMP JUMPDEST PUSH1 0x40 MLOAD SWAP1 DUP2 MSTORE RETURN JUMPDEST CALLVALUE PUSH2 0x45D JUMPI PUSH1 0x60 CALLDATASIZE PUSH1 0x3 NOT ADD SLT PUSH2 0x45D JUMPI PUSH2 0x8A9 PUSH2 0x5A3 JUMP JUMPDEST PUSH2 0x8B1 PUSH2 0x5B9 JUMP JUMPDEST PUSH1 0x1 PUSH1 0x1 PUSH1 0xA0 SHL SUB DUP3 AND PUSH1 0x0 SWAP1 DUP2 MSTORE PUSH1 0x1 PUSH1 0x20 SWAP1 DUP2 MSTORE PUSH1 0x40 DUP1 DUP4 KECCAK256 CALLER DUP5 MSTORE SWAP1 SWAP2 MSTORE SWAP1 KECCAK256 PUSH1 0x44 CALLDATALOAD SWAP2 SWAP1 SLOAD SWAP3 PUSH1 0x1 DUP5 ADD PUSH2 0x8FA JUMPI JUMPDEST PUSH2 0x8EE SWAP4 POP PUSH2 0x278A JUMP JUMPDEST PUSH1 0x40 MLOAD PUSH1 0x1 DUP2 MSTORE PUSH1 0x20 SWAP1 RETURN JUMPDEST DUP3 DUP5 LT PUSH2 0x916 JUMPI PUSH2 0x911 DUP4 PUSH2 0x8EE SWAP6 SUB CALLER DUP4 PUSH2 0x289E JUMP JUMPDEST PUSH2 0x8E4 JUMP JUMPDEST PUSH1 0x40 MLOAD PUSH3 0x461BCD PUSH1 0xE5 SHL DUP2 MSTORE PUSH1 0x20 PUSH1 0x4 DUP3 ADD MSTORE PUSH1 0x1D PUSH1 0x24 DUP3 ADD MSTORE PUSH32 0x45524332303A20696E73756666696369656E7420616C6C6F77616E6365000000 PUSH1 0x44 DUP3 ADD MSTORE PUSH1 0x64 SWAP1 REVERT JUMPDEST CALLVALUE PUSH2 0x45D JUMPI PUSH1 0x20 CALLDATASIZE PUSH1 0x3 NOT ADD SLT PUSH2 0x45D JUMPI PUSH1 0x4 CALLDATALOAD PUSH1 0x0 MSTORE PUSH1 0xE PUSH1 0x20 MSTORE PUSH1 0x20 PUSH1 0x1 PUSH1 0x40 PUSH1 0x0 KECCAK256 ADD SLOAD PUSH1 0x40 MLOAD SWAP1 DUP2 MSTORE RETURN JUMPDEST CALLVALUE PUSH2 0x45D JUMPI PUSH1 0x40 CALLDATASIZE PUSH1 0x3 NOT ADD SLT PUSH2 0x45D JUMPI PUSH1 0x4 CALLDATALOAD PUSH2 0x9A6 PUSH2 0x5B9 JUMP JUMPDEST PUSH1 0x0 SWAP2 DUP1 DUP4 MSTORE PUSH1 0xE PUSH1 0x20 MSTORE PUSH2 0x9C1 PUSH1 0x1 PUSH1 0x40 DUP6 KECCAK256 ADD SLOAD PUSH2 0x2534 JUMP JUMPDEST DUP1 DUP4 MSTORE PUSH1 0xE PUSH1 0x20 SWAP1 DUP2 MSTORE PUSH1 0x40 DUP1 DUP6 KECCAK256 PUSH1 0x1 PUSH1 0x1 PUSH1 0xA0 SHL SUB DUP6 AND PUSH1 0x0 SWAP1 DUP2 MSTORE SWAP3 MSTORE SWAP1 KECCAK256 SLOAD PUSH1 0xFF AND ISZERO PUSH2 0x9F0 JUMPI DUP3 DUP1 RETURN JUMPDEST DUP1 DUP4 MSTORE PUSH1 0xE PUSH1 0x20 SWAP1 DUP2 MSTORE PUSH1 0x40 DUP1 DUP6 KECCAK256 PUSH1 0x1 PUSH1 0x1 PUSH1 0xA0 SHL SUB DUP6 AND PUSH1 0x0 SWAP1 DUP2 MSTORE SWAP3 MSTORE SWAP1 KECCAK256 DUP1 SLOAD PUSH1 0xFF NOT AND PUSH1 0x1 OR SWAP1 SSTORE CALLER SWAP2 PUSH1 0x1 PUSH1 0x1 PUSH1 0xA0 SHL SUB AND SWAP1 PUSH32 0x2F8788117E7EFF1D82E926EC794901D17C78024A50270940304540A733656F0D DUP5 DUP1 LOG4 CODESIZE DUP1 DUP3 DUP1 RETURN JUMPDEST PUSH1 0x20 PUSH1 0x3 NOT DUP3 ADD SLT PUSH2 0x45D JUMPI PUSH1 0x4 CALLDATALOAD SWAP1 PUSH1 0x1 PUSH1 0x1 PUSH1 0x40 SHL SUB DUP3 GT PUSH2 0x45D JUMPI PUSH2 0x4BB SWAP2 PUSH1 0x4 ADD PUSH2 0x705 JUMP JUMPDEST CALLVALUE PUSH2 0x45D JUMPI PUSH1 0x20 PUSH2 0x888 PUSH2 0xA90 CALLDATASIZE PUSH2 0xA53 JUMP JUMPDEST PUSH2 0x410C JUMP JUMPDEST CALLVALUE PUSH2 0x45D JUMPI PUSH1 0x0 CALLDATASIZE PUSH1 0x3 NOT ADD SLT PUSH2 0x45D JUMPI PUSH1 0x20 PUSH1 0x40 MLOAD PUSH1 0x12 DUP2 MSTORE RETURN JUMPDEST PUSH1 0x5 GT ISZERO PUSH2 0xABB JUMPI JUMP JUMPDEST PUSH4 0x4E487B71 PUSH1 0xE0 SHL PUSH1 0x0 MSTORE PUSH1 0x21 PUSH1 0x4 MSTORE PUSH1 0x24 PUSH1 0x0 REVERT JUMPDEST SWAP6 SWAP3 PUSH2 0x4BB SWAP10 SWAP8 SWAP5 SWAP9 SWAP6 SWAP3 PUSH2 0xB00 SWAP3 DUP9 MSTORE PUSH1 0x1 DUP1 PUSH1 0xA0 SHL SUB AND PUSH1 0x20 DUP9 ADD MSTORE PUSH2 0x120 DUP1 PUSH1 0x40 DUP10 ADD MSTORE DUP8 ADD SWAP1 PUSH2 0x485 JUMP JUMPDEST SWAP7 PUSH1 0x60 DUP7 ADD MSTORE PUSH1 0x80 DUP6 ADD MSTORE PUSH1 0xA0 DUP5 ADD MSTORE PUSH2 0xB19 DUP2 PUSH2 0xAB1 JUMP JUMPDEST PUSH1 0xC0 DUP4 ADD MSTORE PUSH2 0xB27 DUP2 PUSH2 0xAB1 JUMP JUMPDEST PUSH1 0xE0 DUP3 ADD MSTORE PUSH2 0x100 DUP2 DUP5 SUB SWAP2 ADD MSTORE PUSH2 0x485 JUMP JUMPDEST CALLVALUE PUSH2 0x45D JUMPI PUSH1 0x20 CALLDATASIZE PUSH1 0x3 NOT ADD SLT PUSH2 0x45D JUMPI PUSH1 0x4 CALLDATALOAD PUSH1 0x0 MSTORE PUSH1 0x18 PUSH1 0x20 MSTORE PUSH1 0x40 PUSH1 0x0 KECCAK256 DUP1 SLOAD PUSH2 0x517 PUSH1 0x1 DUP1 PUSH1 0xA0 SHL SUB PUSH1 0x1 DUP5 ADD SLOAD AND SWAP3 PUSH1 0x3 DUP2 ADD SLOAD PUSH1 0x4 DUP3 ADD SLOAD PUSH1 0x5 DUP4 ADD SLOAD PUSH1 0xFF PUSH1 0x6 DUP6 ADD SLOAD AND SWAP2 PUSH1 0xFF PUSH1 0x8 DUP7 ADD SLOAD AND SWAP4 PUSH2 0xBB6 PUSH1 0x9 PUSH1 0x40 MLOAD SWAP8 PUSH2 0xBB0 DUP10 PUSH2 0xBA9 DUP2 PUSH1 0x2 DUP6 ADD PUSH2 0x2163 JUMP JUMPDEST SUB DUP11 PUSH2 0x6A8 JUMP JUMPDEST ADD PUSH2 0x21F9 JUMP JUMPDEST SWAP6 PUSH1 0x40 MLOAD SWAP10 DUP11 SWAP10 DUP11 PUSH2 0xAD1 JUMP JUMPDEST CALLVALUE PUSH2 0x45D JUMPI PUSH1 0x0 CALLDATASIZE PUSH1 0x3 NOT ADD SLT PUSH2 0x45D JUMPI PUSH1 0x20 PUSH1 0x40 MLOAD PUSH12 0x33B2E3C9FD0803CE8000000 DUP2 MSTORE RETURN JUMPDEST CALLVALUE PUSH2 0x45D JUMPI PUSH1 0x0 CALLDATASIZE PUSH1 0x3 NOT ADD SLT PUSH2 0x45D JUMPI PUSH1 0x20 PUSH2 0x888 PUSH2 0x3463 JUMP JUMPDEST CALLVALUE PUSH2 0x45D JUMPI PUSH1 0x40 CALLDATASIZE PUSH1 0x3 NOT ADD SLT PUSH2 0x45D JUMPI PUSH2 0xC1E PUSH2 0x5B9 JUMP JUMPDEST CALLER PUSH1 0x1 PUSH1 0x1 PUSH1 0xA0 SHL SUB DUP3 AND SUB PUSH2 0xC3C JUMPI PUSH2 0xC3A SWAP1 PUSH1 0x4 CALLDATALOAD PUSH2 0x25E7 JUMP JUMPDEST STOP JUMPDEST PUSH1 0x40 MLOAD PUSH3 0x461BCD PUSH1 0xE5 SHL DUP2 MSTORE PUSH1 0x20 PUSH1 0x4 DUP3 ADD MSTORE PUSH1 0x2F PUSH1 0x24 DUP3 ADD MSTORE PUSH32 0x416363657373436F6E74726F6C3A2063616E206F6E6C792072656E6F756E6365 PUSH1 0x44 DUP3 ADD MSTORE PUSH15 0x103937B632B9903337B91039B2B633 PUSH1 0x89 SHL PUSH1 0x64 DUP3 ADD MSTORE PUSH1 0x84 SWAP1 REVERT JUMPDEST CALLVALUE PUSH2 0x45D JUMPI PUSH1 0x40 CALLDATASIZE PUSH1 0x3 NOT ADD SLT PUSH2 0x45D JUMPI PUSH2 0xCB2 PUSH2 0x5A3 JUMP JUMPDEST CALLER PUSH1 0x0 SWAP1 DUP2 MSTORE PUSH1 0x1 PUSH1 0x20 SWAP1 DUP2 MSTORE PUSH1 0x40 DUP1 DUP4 KECCAK256 PUSH1 0x1 PUSH1 0x1 PUSH1 0xA0 SHL SUB DUP6 AND DUP5 MSTORE SWAP1 SWAP2 MSTORE SWAP1 KECCAK256 SLOAD PUSH1 0x24 CALLDATALOAD DUP2 ADD DUP1 SWAP2 GT PUSH2 0xCEC JUMPI PUSH2 0x5F5 SWAP2 CALLER PUSH2 0x289E JUMP JUMPDEST PUSH2 0x267A JUMP JUMPDEST CALLVALUE PUSH2 0x45D JUMPI PUSH1 0x40 CALLDATASIZE PUSH1 0x3 NOT ADD SLT PUSH2 0x45D JUMPI PUSH2 0xD0A PUSH2 0x5A3 JUMP JUMPDEST PUSH1 0x24 CALLDATALOAD SWAP1 PUSH2 0xD29 PUSH6 0xFFFFFFFFFFFF PUSH2 0xD21 NUMBER PUSH2 0x3946 JUMP JUMPDEST AND DUP4 LT PUSH2 0x2A3C JUMP JUMPDEST PUSH1 0x1 PUSH1 0x1 PUSH1 0xA0 SHL SUB AND PUSH1 0x0 SWAP1 DUP2 MSTORE PUSH1 0xA PUSH1 0x20 MSTORE PUSH1 0x40 DUP2 KECCAK256 DUP1 SLOAD SWAP3 SWAP1 SWAP2 DUP4 PUSH1 0x5 DUP2 GT PUSH2 0xDF1 JUMPI JUMPDEST POP SWAP1 JUMPDEST DUP4 DUP3 LT PUSH2 0xDA0 JUMPI POP POP DUP2 PUSH2 0xD79 JUMPI POP POP PUSH1 0x20 PUSH1 0x0 JUMPDEST PUSH1 0x40 MLOAD PUSH1 0x1 PUSH1 0x1 PUSH1 0xE0 SHL SUB SWAP1 SWAP2 AND DUP2 MSTORE RETURN JUMPDEST PUSH2 0xD94 PUSH2 0xD9B SWAP2 PUSH1 0x20 SWAP4 PUSH1 0x0 NOT ADD SWAP1 PUSH1 0x0 MSTORE PUSH1 0x20 PUSH1 0x0 KECCAK256 ADD SWAP1 JUMP JUMPDEST SLOAD PUSH1 0x20 SHR SWAP1 JUMP JUMPDEST PUSH2 0xD67 JUMP JUMPDEST SWAP1 SWAP3 PUSH2 0xDAC DUP2 DUP6 PUSH2 0x3776 JUMP JUMPDEST SWAP1 DUP3 PUSH4 0xFFFFFFFF PUSH2 0xDD1 PUSH2 0xDC7 DUP6 DUP9 PUSH1 0x0 MSTORE PUSH1 0x20 PUSH1 0x0 KECCAK256 ADD SWAP1 JUMP JUMPDEST SLOAD PUSH4 0xFFFFFFFF AND SWAP1 JUMP JUMPDEST AND GT ISZERO PUSH2 0xDE1 JUMPI POP SWAP3 JUMPDEST SWAP1 PUSH2 0xD52 JUMP JUMPDEST SWAP4 POP PUSH2 0xDEC SWAP1 PUSH2 0x2690 JUMP JUMPDEST PUSH2 0xDDB JUMP JUMPDEST DUP1 PUSH2 0xE01 PUSH2 0xE07 SWAP3 SWAP7 SWAP4 SWAP7 PUSH2 0x378B JUMP JUMPDEST SWAP1 PUSH2 0x2A88 JUMP JUMPDEST SWAP1 DUP3 PUSH4 0xFFFFFFFF PUSH2 0xE22 PUSH2 0xDC7 DUP6 DUP9 PUSH1 0x0 MSTORE PUSH1 0x20 PUSH1 0x0 KECCAK256 ADD SWAP1 JUMP JUMPDEST AND GT ISZERO PUSH2 0xE32 JUMPI POP SWAP3 JUMPDEST CODESIZE PUSH2 0xD4F JUMP JUMPDEST SWAP4 POP PUSH2 0xE3D SWAP1 PUSH2 0x2690 JUMP JUMPDEST PUSH2 0xE2C JUMP JUMPDEST SWAP1 PUSH2 0xE55 PUSH1 0x20 SWAP3 DUP3 DUP2 MLOAD SWAP5 DUP6 SWAP3 ADD PUSH2 0x462 JUMP JUMPDEST ADD SWAP1 JUMP JUMPDEST PUSH1 0x20 PUSH2 0xE72 SWAP2 DUP2 PUSH1 0x40 MLOAD SWAP4 DUP3 DUP6 DUP1 SWAP5 MLOAD SWAP4 DUP5 SWAP3 ADD PUSH2 0x462 JUMP JUMPDEST DUP2 ADD PUSH1 0x15 DUP2 MSTORE SUB ADD SWAP1 KECCAK256 SWAP1 JUMP JUMPDEST PUSH1 0x20 PUSH2 0xE98 SWAP2 DUP2 PUSH1 0x40 MLOAD SWAP4 DUP3 DUP6 DUP1 SWAP5 MLOAD SWAP4 DUP5 SWAP3 ADD PUSH2 0x462 JUMP JUMPDEST DUP2 ADD PUSH1 0x16 DUP2 MSTORE SUB ADD SWAP1 KECCAK256 SWAP1 JUMP JUMPDEST CALLVALUE PUSH2 0x45D JUMPI PUSH1 0x20 PUSH2 0xEBD PUSH2 0xEB8 CALLDATASIZE PUSH2 0xA53 JUMP JUMPDEST PUSH2 0xE59 JUMP JUMPDEST SLOAD PUSH1 0x40 MLOAD SWAP1 DUP2 MSTORE RETURN JUMPDEST CALLVALUE PUSH2 0x45D JUMPI PUSH1 0x0 CALLDATASIZE PUSH1 0x3 NOT ADD SLT PUSH2 0x45D JUMPI PUSH1 0x20 PUSH1 0x40 MLOAD PUSH32 0x5AA58C694AEB083DF8754BF5E98675317E4137A5A8A2C6188D0228869E43DA7E DUP2 MSTORE RETURN JUMPDEST CALLVALUE PUSH2 0x45D JUMPI PUSH1 0x0 CALLDATASIZE PUSH1 0x3 NOT ADD SLT PUSH2 0x45D JUMPI NUMBER PUSH6 0xFFFFFFFFFFFF PUSH2 0xF23 NUMBER PUSH2 0x3946 JUMP JUMPDEST AND SUB PUSH2 0xF6E JUMPI PUSH2 0x517 PUSH1 0x40 MLOAD PUSH2 0xF38 DUP2 PUSH2 0x652 JUMP JUMPDEST PUSH1 0x1D DUP2 MSTORE PUSH32 0x6D6F64653D626C6F636B6E756D6265722666726F6D3D64656661756C74000000 PUSH1 0x20 DUP3 ADD MSTORE PUSH1 0x40 MLOAD SWAP2 DUP3 SWAP2 DUP3 PUSH2 0x4AA JUMP JUMPDEST PUSH1 0x40 MLOAD PUSH3 0x461BCD PUSH1 0xE5 SHL DUP2 MSTORE PUSH1 0x20 PUSH1 0x4 DUP3 ADD MSTORE PUSH1 0x1D PUSH1 0x24 DUP3 ADD MSTORE PUSH32 0x4552433230566F7465733A2062726F6B656E20636C6F636B206D6F6465000000 PUSH1 0x44 DUP3 ADD MSTORE PUSH1 0x64 SWAP1 REVERT JUMPDEST CALLVALUE PUSH2 0x45D JUMPI PUSH1 0x20 CALLDATASIZE PUSH1 0x3 NOT ADD SLT PUSH2 0x45D JUMPI PUSH1 0x20 PUSH1 0x1 PUSH1 0x1 PUSH1 0xA0 SHL SUB DUP1 PUSH2 0xFD7 PUSH2 0x5A3 JUMP JUMPDEST AND PUSH1 0x0 MSTORE PUSH1 0x9 DUP3 MSTORE PUSH1 0x40 PUSH1 0x0 KECCAK256 SLOAD AND PUSH1 0x40 MLOAD SWAP1 DUP2 MSTORE RETURN JUMPDEST CALLVALUE PUSH2 0x45D JUMPI PUSH1 0x0 CALLDATASIZE PUSH1 0x3 NOT ADD SLT PUSH2 0x45D JUMPI PUSH1 0x20 PUSH2 0x888 PUSH2 0x436A JUMP JUMPDEST CALLVALUE PUSH2 0x45D JUMPI PUSH1 0x0 CALLDATASIZE PUSH1 0x3 NOT ADD SLT PUSH2 0x45D JUMPI PUSH1 0x20 PUSH1 0x11 SLOAD PUSH1 0x40 MLOAD SWAP1 DUP2 MSTORE RETURN JUMPDEST CALLVALUE PUSH2 0x45D JUMPI PUSH1 0x20 CALLDATASIZE PUSH1 0x3 NOT ADD SLT PUSH2 0x45D JUMPI PUSH2 0xC3A PUSH2 0x1043 PUSH2 0x5A3 JUMP JUMPDEST CALLER PUSH2 0x2AE1 JUMP JUMPDEST CALLVALUE PUSH2 0x45D JUMPI PUSH1 0x0 CALLDATASIZE PUSH1 0x3 NOT ADD SLT PUSH2 0x45D JUMPI PUSH1 0x20 PUSH1 0xFF PUSH1 0xD SLOAD AND PUSH1 0x40 MLOAD SWAP1 ISZERO ISZERO DUP2 MSTORE RETURN JUMPDEST CALLVALUE PUSH2 0x45D JUMPI PUSH1 0x0 CALLDATASIZE PUSH1 0x3 NOT ADD SLT PUSH2 0x45D JUMPI PUSH1 0x20 PUSH2 0x888 PUSH2 0x452D JUMP JUMPDEST CALLVALUE PUSH2 0x45D JUMPI PUSH1 0x20 CALLDATASIZE PUSH1 0x3 NOT ADD SLT PUSH2 0x45D JUMPI PUSH1 0x1 PUSH1 0x1 PUSH1 0xA0 SHL SUB PUSH2 0x10A8 PUSH2 0x5A3 JUMP JUMPDEST AND PUSH1 0x0 MSTORE PUSH1 0xA PUSH1 0x20 MSTORE PUSH1 0x20 PUSH2 0x10C1 PUSH1 0x40 PUSH1 0x0 KECCAK256 SLOAD PUSH2 0x39AD JUMP JUMPDEST PUSH4 0xFFFFFFFF PUSH1 0x40 MLOAD SWAP2 AND DUP2 MSTORE RETURN JUMPDEST CALLVALUE PUSH2 0x45D JUMPI PUSH1 0x20 CALLDATASIZE PUSH1 0x3 NOT ADD SLT PUSH2 0x45D JUMPI PUSH1 0x1 PUSH1 0x1 PUSH1 0xA0 SHL SUB PUSH2 0x10F0 PUSH2 0x5A3 JUMP JUMPDEST AND PUSH1 0x0 MSTORE PUSH1 0x0 PUSH1 0x20 MSTORE PUSH1 0x20 PUSH1 0x40 PUSH1 0x0 KECCAK256 SLOAD PUSH1 0x40 MLOAD SWAP1 DUP2 MSTORE RETURN JUMPDEST CALLVALUE PUSH2 0x45D JUMPI PUSH1 0x0 DUP1 PUSH1 0x3 NOT CALLDATASIZE ADD SLT PUSH2 0x5A0 JUMPI PUSH1 0x2 DUP1 PUSH1 0xC SLOAD EQ PUSH2 0x12DD JUMPI PUSH1 0xC DUP2 SWAP1 SSTORE CALLER PUSH1 0x0 SWAP1 DUP2 MSTORE PUSH1 0x20 DUP2 SWAP1 MSTORE PUSH1 0x40 SWAP1 KECCAK256 SLOAD DUP3 PUSH2 0x1147 DUP3 ISZERO ISZERO PUSH2 0x44AB JUMP JUMPDEST CALLER PUSH1 0x0 SWAP1 DUP2 MSTORE PUSH1 0x1B PUSH1 0x20 MSTORE PUSH1 0x40 SWAP1 KECCAK256 PUSH2 0x1160 SWAP1 SLOAD PUSH2 0x2690 JUMP JUMPDEST PUSH1 0x11 SLOAD DUP2 GT PUSH2 0x1251 JUMPI PUSH1 0x3 PUSH2 0x117F DUP3 PUSH1 0x0 MSTORE PUSH1 0x19 PUSH1 0x20 MSTORE PUSH1 0x40 PUSH1 0x0 KECCAK256 SWAP1 JUMP JUMPDEST ADD SLOAD TIMESTAMP LT ISZERO DUP1 PUSH2 0x1220 JUMPI JUMPDEST PUSH2 0x119D JUMPI JUMPDEST PUSH2 0x1198 SWAP1 PUSH2 0x3EAF JUMP JUMPDEST PUSH2 0x1160 JUMP JUMPDEST SWAP1 PUSH2 0x11D6 PUSH2 0x1198 SWAP2 PUSH2 0x11D0 DUP7 SLOAD PUSH2 0x11CB DUP8 PUSH1 0x1 PUSH2 0x11C4 DUP10 PUSH1 0x0 MSTORE PUSH1 0x19 PUSH1 0x20 MSTORE PUSH1 0x40 PUSH1 0x0 KECCAK256 SWAP1 JUMP JUMPDEST ADD SLOAD PUSH2 0x302D JUMP JUMPDEST PUSH2 0x3756 JUMP JUMPDEST SWAP1 PUSH2 0x26CA JUMP JUMPDEST SWAP2 PUSH2 0x1219 PUSH2 0x120C CALLER PUSH1 0x4 PUSH2 0x11F4 DUP6 PUSH1 0x0 MSTORE PUSH1 0x19 PUSH1 0x20 MSTORE PUSH1 0x40 PUSH1 0x0 KECCAK256 SWAP1 JUMP JUMPDEST ADD SWAP1 PUSH1 0x1 DUP1 PUSH1 0xA0 SHL SUB AND PUSH1 0x0 MSTORE PUSH1 0x20 MSTORE PUSH1 0x40 PUSH1 0x0 KECCAK256 SWAP1 JUMP JUMPDEST DUP1 SLOAD PUSH1 0xFF NOT AND PUSH1 0x1 OR SWAP1 SSTORE JUMP JUMPDEST SWAP1 POP PUSH2 0x118F JUMP JUMPDEST POP PUSH2 0x124C PUSH2 0x1248 PUSH2 0x1241 CALLER PUSH1 0x4 PUSH2 0x11F4 DUP7 PUSH1 0x0 MSTORE PUSH1 0x19 PUSH1 0x20 MSTORE PUSH1 0x40 PUSH1 0x0 KECCAK256 SWAP1 JUMP JUMPDEST SLOAD PUSH1 0xFF AND SWAP1 JUMP JUMPDEST ISZERO SWAP1 JUMP JUMPDEST PUSH2 0x118A JUMP JUMPDEST DUP5 DUP3 DUP2 DUP2 ISZERO PUSH2 0x1260 DUP2 ISZERO PUSH2 0x44E8 JUMP JUMPDEST PUSH1 0x11 SLOAD CALLER PUSH1 0x0 SWAP1 DUP2 MSTORE PUSH1 0x1B PUSH1 0x20 MSTORE PUSH1 0x40 SWAP1 KECCAK256 SSTORE DUP3 DUP3 SWAP2 PUSH2 0x12D3 JUMPI JUMPDEST DUP3 DUP1 SWAP3 SWAP2 DUP2 SWAP3 CALLER SWAP1 CALL ISZERO PUSH2 0x12CE JUMPI PUSH1 0x11 SLOAD PUSH1 0x40 DUP1 MLOAD SWAP3 DUP4 MSTORE PUSH1 0x20 DUP4 ADD SWAP2 SWAP1 SWAP2 MSTORE CALLER SWAP2 PUSH32 0xA1C93169468F71EF26F4ADF10BCA8DF21460F11843A01ED9C69DA306E33C3847 SWAP2 SWAP1 LOG2 PUSH2 0x12CB PUSH1 0x1 PUSH1 0xC SSTORE JUMP JUMPDEST DUP1 RETURN JUMPDEST PUSH2 0x33D5 JUMP JUMPDEST PUSH2 0x8FC SWAP2 POP PUSH2 0x127B JUMP JUMPDEST PUSH1 0x40 MLOAD PUSH3 0x461BCD PUSH1 0xE5 SHL DUP2 MSTORE PUSH1 0x20 PUSH1 0x4 DUP3 ADD MSTORE PUSH1 0x1F PUSH1 0x24 DUP3 ADD MSTORE PUSH32 0x5265656E7472616E637947756172643A207265656E7472616E742063616C6C00 PUSH1 0x44 DUP3 ADD MSTORE PUSH1 0x64 SWAP1 REVERT JUMPDEST CALLVALUE PUSH2 0x45D JUMPI PUSH1 0x0 CALLDATASIZE PUSH1 0x3 NOT ADD SLT PUSH2 0x45D JUMPI PUSH1 0x20 PUSH1 0x40 MLOAD PUSH32 0xA49807205CE4D355092EF5A8A18F56E8913CF4A201FBE287825B095693C21775 DUP2 MSTORE RETURN JUMPDEST CALLVALUE PUSH2 0x45D JUMPI PUSH1 0x20 CALLDATASIZE PUSH1 0x3 NOT ADD SLT PUSH2 0x45D JUMPI PUSH1 0x1 PUSH1 0x1 PUSH1 0xA0 SHL SUB PUSH2 0x137E PUSH2 0x5A3 JUMP JUMPDEST AND PUSH1 0x0 MSTORE PUSH1 0x7 PUSH1 0x20 MSTORE PUSH1 0x20 PUSH1 0x40 PUSH1 0x0 KECCAK256 SLOAD PUSH1 0x40 MLOAD SWAP1 DUP2 MSTORE RETURN JUMPDEST SWAP1 DUP2 MLOAD DUP1 DUP3 MSTORE PUSH1 0x20 DUP1 DUP1 SWAP4 ADD SWAP4 ADD SWAP2 PUSH1 0x0 JUMPDEST DUP3 DUP2 LT PUSH2 0x13B7 JUMPI POP POP POP POP SWAP1 JUMP JUMPDEST DUP4 MLOAD DUP6 MSTORE SWAP4 DUP2 ADD SWAP4 SWAP3 DUP2 ADD SWAP3 PUSH1 0x1 ADD PUSH2 0x13A9 JUMP JUMPDEST CALLVALUE PUSH2 0x45D JUMPI PUSH1 0x0 CALLDATASIZE PUSH1 0x3 NOT ADD SLT PUSH2 0x45D JUMPI PUSH2 0x1466 PUSH2 0x1408 PUSH32 0x0 PUSH2 0x35A3 JUMP JUMPDEST PUSH2 0x517 PUSH2 0x1434 PUSH32 0x0 PUSH2 0x369C JUMP JUMPDEST PUSH2 0x1474 PUSH1 0x40 MLOAD SWAP2 PUSH2 0x1444 DUP4 PUSH2 0x672 JUMP JUMPDEST PUSH1 0x0 DUP4 MSTORE PUSH1 0x40 MLOAD SWAP6 DUP7 SWAP6 PUSH1 0xF PUSH1 0xF8 SHL DUP8 MSTORE PUSH1 0xE0 PUSH1 0x20 DUP9 ADD MSTORE PUSH1 0xE0 DUP8 ADD SWAP1 PUSH2 0x485 JUMP JUMPDEST SWAP1 DUP6 DUP3 SUB PUSH1 0x40 DUP8 ADD MSTORE PUSH2 0x485 JUMP JUMPDEST SWAP1 CHAINID PUSH1 0x60 DUP6 ADD MSTORE ADDRESS PUSH1 0x80 DUP6 ADD MSTORE PUSH1 0x0 PUSH1 0xA0 DUP6 ADD MSTORE DUP4 DUP3 SUB PUSH1 0xC0 DUP6 ADD MSTORE PUSH2 0x1397 JUMP JUMPDEST CALLVALUE PUSH2 0x45D JUMPI PUSH1 0x0 CALLDATASIZE PUSH1 0x3 NOT ADD SLT PUSH2 0x45D JUMPI PUSH2 0x14AE PUSH2 0x452D JUMP JUMPDEST PUSH1 0x10 SLOAD SWAP1 PUSH1 0x0 DUP3 ISZERO PUSH2 0x14F6 JUMPI POP PUSH2 0x517 PUSH2 0x14CA DUP4 PUSH1 0xF SLOAD PUSH2 0x3756 JUMP JUMPDEST PUSH2 0x14D2 PUSH2 0x436A JUMP JUMPDEST SWAP1 PUSH1 0x40 MLOAD SWAP5 DUP6 SWAP5 DUP6 SWAP1 SWAP5 SWAP4 SWAP3 PUSH1 0x60 SWAP3 PUSH1 0x80 DUP4 ADD SWAP7 DUP4 MSTORE PUSH1 0x20 DUP4 ADD MSTORE PUSH1 0x40 DUP3 ADD MSTORE ADD MSTORE JUMP JUMPDEST PUSH2 0x517 SWAP1 PUSH2 0x14CA JUMP JUMPDEST CALLVALUE PUSH2 0x45D JUMPI PUSH1 0x20 CALLDATASIZE PUSH1 0x3 NOT ADD SLT PUSH2 0x45D JUMPI PUSH1 0x4 CALLDATALOAD PUSH2 0x152E PUSH6 0xFFFFFFFFFFFF PUSH2 0x1526 NUMBER PUSH2 0x3946 JUMP JUMPDEST AND DUP3 LT PUSH2 0x2A3C JUMP JUMPDEST PUSH1 0xB SLOAD SWAP1 PUSH1 0x0 DUP3 PUSH1 0x5 DUP2 GT PUSH2 0x15F1 JUMPI JUMPDEST POP SWAP1 JUMPDEST DUP3 DUP3 LT PUSH2 0x158E JUMPI DUP3 DUP1 PUSH2 0x155B JUMPI POP PUSH1 0x40 MLOAD PUSH1 0x0 DUP2 MSTORE PUSH1 0x20 SWAP1 RETURN JUMPDEST PUSH1 0xB PUSH1 0x0 MSTORE PUSH1 0x20 SWAP1 PUSH2 0xD9B SWAP1 PUSH32 0x175B7A638427703F0DBE7BB9BBF987A2551717B34E79F33B5B1008D1FA01DB8 ADD PUSH2 0xD94 JUMP JUMPDEST SWAP1 SWAP2 PUSH2 0x159A DUP2 DUP5 PUSH2 0x3776 JUMP JUMPDEST PUSH1 0xB PUSH1 0x0 MSTORE SWAP1 DUP3 PUSH4 0xFFFFFFFF PUSH2 0x15D1 PUSH32 0x175B7A638427703F0DBE7BB9BBF987A2551717B34E79F33B5B1008D1FA01DB9 DUP6 ADD PUSH2 0xDC7 JUMP JUMPDEST AND GT ISZERO PUSH2 0x15E1 JUMPI POP SWAP2 JUMPDEST SWAP1 PUSH2 0x1541 JUMP JUMPDEST SWAP3 POP PUSH2 0x15EC SWAP1 PUSH2 0x2690 JUMP JUMPDEST PUSH2 0x15DB JUMP JUMPDEST DUP1 PUSH2 0xE01 PUSH2 0x1601 SWAP3 SWAP6 SWAP4 SWAP6 PUSH2 0x378B JUMP JUMPDEST PUSH1 0xB PUSH1 0x0 MSTORE SWAP1 DUP3 PUSH4 0xFFFFFFFF PUSH2 0x1638 PUSH32 0x175B7A638427703F0DBE7BB9BBF987A2551717B34E79F33B5B1008D1FA01DB9 DUP6 ADD PUSH2 0xDC7 JUMP JUMPDEST AND GT ISZERO PUSH2 0x1648 JUMPI POP SWAP2 JUMPDEST CODESIZE PUSH2 0x153E JUMP JUMPDEST SWAP3 POP PUSH2 0x1653 SWAP1 PUSH2 0x2690 JUMP JUMPDEST PUSH2 0x1642 JUMP JUMPDEST CALLVALUE PUSH2 0x45D JUMPI PUSH1 0x40 CALLDATASIZE PUSH1 0x3 NOT ADD SLT PUSH2 0x45D JUMPI PUSH1 0x20 PUSH1 0xFF PUSH2 0x169E PUSH2 0x1678 PUSH2 0x5B9 JUMP JUMPDEST PUSH1 0x4 CALLDATALOAD PUSH1 0x0 MSTORE PUSH1 0xE DUP5 MSTORE PUSH1 0x40 PUSH1 0x0 KECCAK256 SWAP1 PUSH1 0x1 DUP1 PUSH1 0xA0 SHL SUB AND PUSH1 0x0 MSTORE PUSH1 0x20 MSTORE PUSH1 0x40 PUSH1 0x0 KECCAK256 SWAP1 JUMP JUMPDEST SLOAD AND PUSH1 0x40 MLOAD SWAP1 ISZERO ISZERO DUP2 MSTORE RETURN JUMPDEST CALLVALUE PUSH2 0x45D JUMPI PUSH1 0x0 CALLDATASIZE PUSH1 0x3 NOT ADD SLT PUSH2 0x45D JUMPI PUSH1 0x20 PUSH2 0x16C6 NUMBER PUSH2 0x3946 JUMP JUMPDEST PUSH6 0xFFFFFFFFFFFF PUSH1 0x40 MLOAD SWAP2 AND DUP2 MSTORE RETURN JUMPDEST CALLVALUE PUSH2 0x45D JUMPI PUSH1 0x0 DUP1 PUSH1 0x3 NOT CALLDATASIZE ADD SLT PUSH2 0x5A0 JUMPI PUSH1 0x40 MLOAD SWAP1 DUP1 PUSH1 0x4 SLOAD PUSH2 0x16F9 DUP2 PUSH2 0x2129 JUMP JUMPDEST DUP1 DUP6 MSTORE SWAP2 PUSH1 0x1 SWAP2 DUP1 DUP4 AND SWAP1 DUP2 ISZERO PUSH2 0x576 JUMPI POP PUSH1 0x1 EQ PUSH2 0x1722 JUMPI PUSH2 0x517 DUP6 PUSH2 0x50B DUP2 DUP8 SUB DUP3 PUSH2 0x6A8 JUMP JUMPDEST SWAP3 POP PUSH1 0x4 DUP4 MSTORE PUSH32 0x8A35ACFBC15FF81A39AE7D344FD709F28E8600B4AA8C65C6B64BFE7FE36BD19B JUMPDEST DUP3 DUP5 LT PUSH2 0x1765 JUMPI POP POP POP DUP2 ADD PUSH1 0x20 ADD PUSH2 0x50B DUP3 PUSH2 0x517 PUSH2 0x4FB JUMP JUMPDEST DUP1 SLOAD PUSH1 0x20 DUP6 DUP8 ADD DUP2 ADD SWAP2 SWAP1 SWAP2 MSTORE SWAP1 SWAP4 ADD SWAP3 DUP2 ADD PUSH2 0x174A JUMP JUMPDEST CALLVALUE PUSH2 0x45D JUMPI PUSH1 0x20 CALLDATASIZE PUSH1 0x3 NOT ADD SLT PUSH2 0x45D JUMPI PUSH1 0x1 PUSH1 0x1 PUSH1 0xA0 SHL SUB PUSH2 0x179E PUSH2 0x5A3 JUMP JUMPDEST AND PUSH1 0x0 MSTORE PUSH1 0xA PUSH1 0x20 MSTORE PUSH1 0x40 PUSH1 0x0 KECCAK256 DUP1 SLOAD DUP1 ISZERO PUSH1 0x0 EQ PUSH2 0x17C5 JUMPI POP POP PUSH1 0x40 MLOAD PUSH1 0x0 DUP2 MSTORE PUSH1 0x20 SWAP1 RETURN JUMPDEST PUSH1 0x20 SWAP2 PUSH2 0x17D6 SWAP2 PUSH1 0x0 NOT ADD SWAP1 PUSH2 0x1994 JUMP JUMPDEST POP SLOAD DUP2 SHR PUSH2 0xD67 JUMP JUMPDEST CALLVALUE PUSH2 0x45D JUMPI PUSH1 0x20 CALLDATASIZE PUSH1 0x3 NOT ADD SLT PUSH2 0x45D JUMPI PUSH1 0x4 CALLDATALOAD PUSH1 0x0 SWAP1 DUP2 MSTORE PUSH1 0x19 PUSH1 0x20 SWAP1 DUP2 MSTORE PUSH1 0x40 SWAP2 DUP3 SWAP1 KECCAK256 DUP1 SLOAD PUSH1 0x1 DUP3 ADD SLOAD PUSH1 0x2 DUP4 ADD SLOAD PUSH1 0x3 SWAP1 SWAP4 ADD SLOAD DUP6 MLOAD SWAP3 DUP4 MSTORE SWAP4 DUP3 ADD MSTORE SWAP3 DUP4 ADD MSTORE PUSH1 0x60 DUP3 ADD MSTORE PUSH1 0x80 SWAP1 RETURN JUMPDEST CALLVALUE PUSH2 0x45D JUMPI PUSH1 0x0 CALLDATASIZE PUSH1 0x3 NOT ADD SLT PUSH2 0x45D JUMPI PUSH1 0x20 PUSH1 0x40 MLOAD PUSH1 0x0 DUP2 MSTORE RETURN JUMPDEST CALLVALUE PUSH2 0x45D JUMPI PUSH1 0x40 CALLDATASIZE PUSH1 0x3 NOT ADD SLT PUSH2 0x45D JUMPI PUSH2 0x1863 PUSH2 0x5A3 JUMP JUMPDEST PUSH1 0x24 CALLDATALOAD SWAP1 CALLER PUSH1 0x0 MSTORE PUSH1 0x1 PUSH1 0x20 MSTORE PUSH2 0x1890 DUP2 PUSH1 0x40 PUSH1 0x0 KECCAK256 SWAP1 PUSH1 0x1 DUP1 PUSH1 0xA0 SHL SUB AND PUSH1 0x0 MSTORE PUSH1 0x20 MSTORE PUSH1 0x40 PUSH1 0x0 KECCAK256 SWAP1 JUMP JUMPDEST SLOAD SWAP2 DUP1 DUP4 LT PUSH2 0x18A5 JUMPI PUSH2 0x8EE SWAP3 SUB SWAP1 CALLER PUSH2 0x289E JUMP JUMPDEST PUSH1 0x40 MLOAD PUSH3 0x461BCD PUSH1 0xE5 SHL DUP2 MSTORE PUSH1 0x20 PUSH1 0x4 DUP3 ADD MSTORE PUSH1 0x25 PUSH1 0x24 DUP3 ADD MSTORE PUSH32 0x45524332303A2064656372656173656420616C6C6F77616E63652062656C6F77 PUSH1 0x44 DUP3 ADD MSTORE PUSH5 0x207A65726F PUSH1 0xD8 SHL PUSH1 0x64 DUP3 ADD MSTORE PUSH1 0x84 SWAP1 REVERT JUMPDEST CALLVALUE PUSH2 0x45D JUMPI PUSH1 0x40 CALLDATASIZE PUSH1 0x3 NOT ADD SLT PUSH2 0x45D JUMPI PUSH2 0x5F5 PUSH2 0x1914 PUSH2 0x5A3 JUMP JUMPDEST PUSH1 0x24 CALLDATALOAD SWAP1 CALLER PUSH2 0x278A JUMP JUMPDEST CALLVALUE PUSH2 0x45D JUMPI PUSH1 0x0 DUP1 PUSH1 0x3 NOT CALLDATASIZE ADD SLT PUSH2 0x5A0 JUMPI DUP1 DUP1 PUSH1 0xA0 SWAP3 MSTORE PUSH1 0x17 PUSH1 0x20 MSTORE PUSH1 0x40 DUP1 DUP3 KECCAK256 SLOAD SWAP2 PUSH1 0x1 DUP2 MSTORE DUP2 DUP2 KECCAK256 SLOAD SWAP2 PUSH1 0x2 DUP3 MSTORE DUP1 DUP3 KECCAK256 SLOAD SWAP1 PUSH1 0x3 DUP4 MSTORE DUP1 DUP1 DUP5 KECCAK256 SLOAD SWAP4 PUSH1 0x4 DUP2 MSTORE KECCAK256 SLOAD SWAP4 DUP2 MLOAD SWAP6 DUP7 MSTORE PUSH1 0x20 DUP7 ADD MSTORE DUP5 ADD MSTORE PUSH1 0x60 DUP4 ADD MSTORE PUSH1 0x80 DUP3 ADD MSTORE RETURN JUMPDEST PUSH4 0x4E487B71 PUSH1 0xE0 SHL PUSH1 0x0 MSTORE PUSH1 0x32 PUSH1 0x4 MSTORE PUSH1 0x24 PUSH1 0x0 REVERT JUMPDEST DUP1 SLOAD DUP3 LT ISZERO PUSH2 0x19AC JUMPI PUSH1 0x0 MSTORE PUSH1 0x20 PUSH1 0x0 KECCAK256 ADD SWAP1 PUSH1 0x0 SWAP1 JUMP JUMPDEST PUSH2 0x197E JUMP JUMPDEST CALLVALUE PUSH2 0x45D JUMPI PUSH1 0x40 CALLDATASIZE PUSH1 0x3 NOT ADD SLT PUSH2 0x45D JUMPI PUSH1 0x4 CALLDATALOAD PUSH1 0x1 PUSH1 0x1 PUSH1 0x40 SHL SUB DUP2 GT PUSH2 0x45D JUMPI PUSH2 0x19E1 SWAP1 CALLDATASIZE SWAP1 PUSH1 0x4 ADD PUSH2 0x705 JUMP JUMPDEST PUSH2 0x19ED PUSH1 0x24 CALLDATALOAD SWAP2 PUSH2 0xE7F JUMP JUMPDEST DUP1 SLOAD DUP3 LT ISZERO PUSH2 0x45D JUMPI PUSH1 0x20 SWAP2 PUSH2 0x1A02 SWAP2 PUSH2 0x1994 JUMP JUMPDEST SWAP1 SLOAD PUSH1 0x40 MLOAD SWAP2 PUSH1 0x3 SHL SHR DUP2 MSTORE RETURN JUMPDEST PUSH1 0x64 CALLDATALOAD SWAP1 PUSH1 0xFF DUP3 AND DUP3 SUB PUSH2 0x45D JUMPI JUMP JUMPDEST PUSH1 0x84 CALLDATALOAD SWAP1 PUSH1 0xFF DUP3 AND DUP3 SUB PUSH2 0x45D JUMPI JUMP JUMPDEST CALLVALUE PUSH2 0x45D JUMPI PUSH1 0xC0 CALLDATASIZE PUSH1 0x3 NOT ADD SLT PUSH2 0x45D JUMPI PUSH2 0x1A49 PUSH2 0x5A3 JUMP JUMPDEST PUSH1 0x44 CALLDATALOAD SWAP1 PUSH1 0x24 CALLDATALOAD PUSH2 0x1A58 PUSH2 0x1A10 JUMP JUMPDEST SWAP3 DUP1 TIMESTAMP GT PUSH2 0x1B16 JUMPI PUSH2 0x1AE8 PUSH2 0x1B11 SWAP2 PUSH2 0xC3A SWAP6 PUSH1 0x40 MLOAD SWAP1 PUSH2 0x1AD0 DUP3 PUSH2 0x1AC2 PUSH1 0x20 DUP3 ADD SWAP6 DUP10 DUP12 DUP9 PUSH1 0x60 SWAP2 SWAP5 SWAP4 SWAP3 PUSH1 0x80 DUP3 ADD SWAP6 PUSH32 0xE48329057BFD03D55E49B547132E39CFFD9C1820AD7B9D4C5307691425D15ADF DUP4 MSTORE PUSH1 0x1 DUP1 PUSH1 0xA0 SHL SUB AND PUSH1 0x20 DUP4 ADD MSTORE PUSH1 0x40 DUP3 ADD MSTORE ADD MSTORE JUMP JUMPDEST SUB PUSH1 0x1F NOT DUP2 ADD DUP5 MSTORE DUP4 PUSH2 0x6A8 JUMP JUMPDEST PUSH2 0x1AE3 PUSH1 0xA4 CALLDATALOAD SWAP4 PUSH1 0x84 CALLDATALOAD SWAP4 MLOAD SWAP1 KECCAK256 PUSH2 0x357D JUMP JUMPDEST PUSH2 0x32A3 JUMP JUMPDEST PUSH1 0x1 PUSH1 0x1 PUSH1 0xA0 SHL SUB DUP2 AND PUSH1 0x0 SWAP1 DUP2 MSTORE PUSH1 0x7 PUSH1 0x20 MSTORE PUSH1 0x40 SWAP1 KECCAK256 DUP1 SLOAD PUSH1 0x1 DUP2 ADD SWAP1 SWAP2 SSTORE SWAP1 SWAP3 EQ PUSH2 0x2A95 JUMP JUMPDEST PUSH2 0x2AE1 JUMP JUMPDEST PUSH1 0x40 MLOAD PUSH3 0x461BCD PUSH1 0xE5 SHL DUP2 MSTORE PUSH1 0x20 PUSH1 0x4 DUP3 ADD MSTORE PUSH1 0x1D PUSH1 0x24 DUP3 ADD MSTORE PUSH32 0x4552433230566F7465733A207369676E61747572652065787069726564000000 PUSH1 0x44 DUP3 ADD MSTORE PUSH1 0x64 SWAP1 REVERT JUMPDEST CALLVALUE PUSH2 0x45D JUMPI PUSH2 0x1B69 CALLDATASIZE PUSH2 0xA53 JUMP JUMPDEST PUSH2 0x1B72 DUP2 PUSH2 0xE59 JUMP JUMPDEST SLOAD PUSH2 0x1B86 PUSH2 0x1B7F DUP4 PUSH2 0xE7F JUMP JUMPDEST SLOAD SWAP3 PUSH2 0xE7F JUMP JUMPDEST PUSH1 0x40 MLOAD SWAP3 DUP4 SWAP2 DUP1 SLOAD DUP1 DUP7 MSTORE PUSH1 0x20 DUP1 SWAP7 ADD SWAP2 PUSH1 0x0 MSTORE DUP6 PUSH1 0x0 KECCAK256 SWAP1 PUSH1 0x0 JUMPDEST DUP8 DUP3 DUP3 LT PUSH2 0x1BD8 JUMPI DUP8 PUSH2 0x517 DUP9 DUP9 PUSH2 0x1BBC DUP3 DUP11 SUB DUP4 PUSH2 0x6A8 JUMP JUMPDEST PUSH1 0x40 MLOAD SWAP5 DUP6 SWAP5 DUP6 MSTORE DUP5 ADD MSTORE PUSH1 0x60 PUSH1 0x40 DUP5 ADD MSTORE PUSH1 0x60 DUP4 ADD SWAP1 PUSH2 0x1397 JUMP JUMPDEST DUP4 SLOAD DUP6 MSTORE SWAP1 SWAP4 ADD SWAP3 PUSH1 0x1 SWAP3 DUP4 ADD SWAP3 ADD PUSH2 0x1BA2 JUMP JUMPDEST PUSH2 0x1BF5 DUP2 PUSH2 0xAB1 JUMP JUMPDEST PUSH1 0x0 MSTORE PUSH1 0x17 PUSH1 0x20 MSTORE PUSH1 0x40 PUSH1 0x0 KECCAK256 SWAP1 JUMP JUMPDEST CALLVALUE PUSH2 0x45D JUMPI PUSH1 0x20 CALLDATASIZE PUSH1 0x3 NOT ADD SLT PUSH2 0x45D JUMPI PUSH2 0x1C1E PUSH2 0x76A JUMP JUMPDEST PUSH2 0x1C27 DUP2 PUSH2 0xAB1 JUMP JUMPDEST PUSH1 0x0 MSTORE PUSH1 0x17 PUSH1 0x20 MSTORE PUSH1 0x20 PUSH1 0x40 PUSH1 0x0 KECCAK256 SLOAD PUSH1 0x40 MLOAD SWAP1 DUP2 MSTORE RETURN JUMPDEST CALLVALUE PUSH2 0x45D JUMPI PUSH1 0x0 CALLDATASIZE PUSH1 0x3 NOT ADD SLT PUSH2 0x45D JUMPI PUSH1 0x20 PUSH1 0x13 SLOAD PUSH1 0x40 MLOAD SWAP1 DUP2 MSTORE RETURN JUMPDEST CALLVALUE PUSH2 0x45D JUMPI PUSH1 0xE0 CALLDATASIZE PUSH1 0x3 NOT ADD SLT PUSH2 0x45D JUMPI PUSH2 0x1C76 PUSH2 0x5A3 JUMP JUMPDEST PUSH2 0x1C7E PUSH2 0x5B9 JUMP JUMPDEST PUSH1 0x44 CALLDATALOAD SWAP1 PUSH1 0x64 CALLDATALOAD SWAP3 PUSH2 0x1C8E PUSH2 0x1A20 JUMP JUMPDEST SWAP4 DUP1 TIMESTAMP GT PUSH2 0x1D5E JUMPI PUSH2 0x1D46 PUSH2 0x1D59 SWAP2 PUSH2 0x1AC2 PUSH2 0xC3A SWAP8 PUSH2 0x1D33 PUSH2 0x1CCC DUP8 PUSH1 0x1 DUP1 PUSH1 0xA0 SHL SUB AND PUSH1 0x0 MSTORE PUSH1 0x7 PUSH1 0x20 MSTORE PUSH1 0x40 PUSH1 0x0 KECCAK256 SWAP1 DUP2 SLOAD SWAP2 PUSH1 0x1 DUP4 ADD SWAP1 SSTORE JUMP JUMPDEST PUSH1 0x40 DUP1 MLOAD PUSH32 0x6E71EDAE12B1B97F4D1F60370FEF10105FA2FAAE0126114A169C64845D6126C9 PUSH1 0x20 DUP3 ADD SWAP1 DUP2 MSTORE PUSH1 0x1 PUSH1 0x1 PUSH1 0xA0 SHL SUB DUP1 DUP13 AND SWAP4 DUP4 ADD SWAP4 SWAP1 SWAP4 MSTORE SWAP2 DUP12 AND PUSH1 0x60 DUP3 ADD MSTORE PUSH1 0x80 DUP2 ADD DUP13 SWAP1 MSTORE PUSH1 0xA0 DUP2 ADD SWAP3 SWAP1 SWAP3 MSTORE PUSH1 0xC0 DUP3 ADD SWAP6 SWAP1 SWAP6 MSTORE SWAP3 DUP4 SWAP1 PUSH1 0xE0 DUP3 ADD SWAP1 JUMP JUMPDEST PUSH2 0x1AE3 PUSH1 0xC4 CALLDATALOAD SWAP4 PUSH1 0xA4 CALLDATALOAD SWAP4 MLOAD SWAP1 KECCAK256 PUSH2 0x357D JUMP JUMPDEST PUSH1 0x1 PUSH1 0x1 PUSH1 0xA0 SHL SUB DUP4 DUP2 AND SWAP2 AND EQ PUSH2 0x29CE JUMP JUMPDEST PUSH2 0x289E JUMP JUMPDEST PUSH1 0x40 MLOAD PUSH3 0x461BCD PUSH1 0xE5 SHL DUP2 MSTORE PUSH1 0x20 PUSH1 0x4 DUP3 ADD MSTORE PUSH1 0x1D PUSH1 0x24 DUP3 ADD MSTORE PUSH32 0x45524332305065726D69743A206578706972656420646561646C696E65000000 PUSH1 0x44 DUP3 ADD MSTORE PUSH1 0x64 SWAP1 REVERT JUMPDEST CALLVALUE PUSH2 0x45D JUMPI PUSH1 0x40 CALLDATASIZE PUSH1 0x3 NOT ADD SLT PUSH2 0x45D JUMPI PUSH2 0xC3A PUSH1 0x4 CALLDATALOAD PUSH2 0x1DC2 PUSH2 0x5B9 JUMP JUMPDEST SWAP1 DUP1 PUSH1 0x0 MSTORE PUSH1 0xE PUSH1 0x20 MSTORE PUSH2 0x1DDD PUSH1 0x1 PUSH1 0x40 PUSH1 0x0 KECCAK256 ADD SLOAD PUSH2 0x2534 JUMP JUMPDEST PUSH2 0x25E7 JUMP JUMPDEST CALLVALUE PUSH2 0x45D JUMPI PUSH1 0x0 CALLDATASIZE PUSH1 0x3 NOT ADD SLT PUSH2 0x45D JUMPI PUSH1 0x20 PUSH1 0xF SLOAD PUSH1 0x40 MLOAD SWAP1 DUP2 MSTORE RETURN JUMPDEST CALLVALUE PUSH2 0x45D JUMPI PUSH1 0x40 CALLDATASIZE PUSH1 0x3 NOT ADD SLT PUSH2 0x45D JUMPI PUSH1 0x20 PUSH2 0xEBD PUSH2 0x1E1E PUSH2 0x5A3 JUMP JUMPDEST PUSH2 0x1E26 PUSH2 0x5B9 JUMP JUMPDEST PUSH1 0x1 PUSH1 0x1 PUSH1 0xA0 SHL SUB SWAP2 DUP3 AND PUSH1 0x0 SWAP1 DUP2 MSTORE PUSH1 0x1 DUP6 MSTORE PUSH1 0x40 DUP1 DUP3 KECCAK256 SWAP3 SWAP1 SWAP4 AND DUP2 MSTORE PUSH1 0x20 SWAP2 SWAP1 SWAP2 MSTORE KECCAK256 SWAP1 JUMP JUMPDEST CALLVALUE PUSH2 0x45D JUMPI PUSH1 0x40 CALLDATASIZE PUSH1 0x3 NOT ADD SLT PUSH2 0x45D JUMPI PUSH2 0x1E68 PUSH2 0x5A3 JUMP JUMPDEST PUSH1 0x1 PUSH1 0x1 PUSH1 0xA0 SHL SUB AND PUSH1 0x0 SWAP1 DUP2 MSTORE PUSH1 0x1A PUSH1 0x20 MSTORE PUSH1 0x40 SWAP1 KECCAK256 DUP1 SLOAD PUSH1 0x24 CALLDATALOAD SWAP2 SWAP1 DUP3 LT ISZERO PUSH2 0x45D JUMPI PUSH1 0x20 SWAP2 PUSH2 0x1A02 SWAP2 PUSH2 0x1994 JUMP JUMPDEST CALLVALUE PUSH2 0x45D JUMPI PUSH1 0x20 CALLDATASIZE PUSH1 0x3 NOT ADD SLT PUSH2 0x45D JUMPI PUSH2 0x1F1A PUSH1 0x4 CALLDATALOAD PUSH2 0x1EB8 PUSH2 0x23FD JUMP JUMPDEST PUSH2 0x1ED7 PUSH2 0x1ECF DUP3 PUSH1 0x0 MSTORE PUSH1 0x18 PUSH1 0x20 MSTORE PUSH1 0x40 PUSH1 0x0 KECCAK256 SWAP1 JUMP JUMPDEST SLOAD ISZERO ISZERO PUSH2 0x3EE9 JUMP JUMPDEST PUSH2 0x1F0A PUSH2 0x1EFB PUSH1 0x6 PUSH2 0x1EF3 DUP5 PUSH1 0x0 MSTORE PUSH1 0x18 PUSH1 0x20 MSTORE PUSH1 0x40 PUSH1 0x0 KECCAK256 SWAP1 JUMP JUMPDEST ADD SLOAD PUSH1 0xFF AND SWAP1 JUMP JUMPDEST PUSH2 0x1F04 DUP2 PUSH2 0xAB1 JUMP JUMPDEST ISZERO PUSH2 0x3F35 JUMP JUMPDEST PUSH1 0x0 MSTORE PUSH1 0x18 PUSH1 0x20 MSTORE PUSH1 0x40 PUSH1 0x0 KECCAK256 SWAP1 JUMP JUMPDEST PUSH1 0x6 DUP2 ADD DUP1 SLOAD PUSH1 0xFF NOT AND PUSH1 0x1 OR SWAP1 SSTORE PUSH1 0x1 DUP2 ADD SLOAD PUSH2 0x1F46 SWAP1 PUSH1 0x1 PUSH1 0x1 PUSH1 0xA0 SHL SUB AND PUSH1 0x4 DUP4 ADD SLOAD SWAP1 PUSH2 0x4683 JUMP JUMPDEST PUSH1 0xF SLOAD PUSH2 0x1F61 PUSH2 0x1F5C PUSH1 0x3 DUP5 ADD SWAP3 DUP4 SLOAD SWAP1 PUSH2 0x26CA JUMP JUMPDEST PUSH1 0xF SSTORE JUMP JUMPDEST PUSH2 0x1FB1 PUSH2 0x1FAB PUSH2 0x1F98 PUSH1 0x8 PUSH1 0x9 DUP7 ADD SWAP6 PUSH2 0x1F86 PUSH2 0x1F7D DUP9 PUSH2 0x3FFA JUMP JUMPDEST SLOAD DUP8 SLOAD SWAP1 PUSH2 0x26CA JUMP JUMPDEST PUSH2 0x1F8F DUP9 PUSH2 0x3FFA JUMP JUMPDEST SSTORE ADD SLOAD PUSH1 0xFF AND SWAP1 JUMP JUMPDEST SWAP3 PUSH2 0x1FA2 DUP5 PUSH2 0x1BEC JUMP JUMPDEST SLOAD SWAP1 SLOAD SWAP1 PUSH2 0x26CA JUMP JUMPDEST SWAP2 PUSH2 0x1BEC JUMP JUMPDEST SSTORE PUSH32 0xED030EE8C80BFA4F3FB2C7923A1BDB8F4604B1CAB750B7EA3501C2293955DD77 PUSH2 0x1FFA PUSH2 0x1FE9 PUSH2 0x1FE2 DUP5 PUSH2 0x3FFA JUMP JUMPDEST SLOAD SWAP4 PUSH2 0x4017 JUMP JUMPDEST PUSH1 0x40 MLOAD SWAP4 DUP5 MSTORE SWAP3 SWAP1 DUP2 SWAP1 PUSH1 0x20 DUP3 ADD SWAP1 JUMP JUMPDEST SUB SWAP1 LOG2 STOP JUMPDEST CALLVALUE PUSH2 0x45D JUMPI PUSH1 0x0 CALLDATASIZE PUSH1 0x3 NOT ADD SLT PUSH2 0x45D JUMPI PUSH1 0x20 PUSH1 0x12 SLOAD PUSH1 0x40 MLOAD SWAP1 DUP2 MSTORE RETURN JUMPDEST CALLVALUE PUSH2 0x45D JUMPI PUSH1 0x40 CALLDATASIZE PUSH1 0x3 NOT ADD SLT PUSH2 0x45D JUMPI PUSH2 0x2036 PUSH2 0x5A3 JUMP JUMPDEST PUSH4 0xFFFFFFFF PUSH1 0x24 CALLDATALOAD DUP2 DUP2 AND DUP2 SUB PUSH2 0x45D JUMPI PUSH2 0x2080 PUSH2 0x2086 SWAP2 PUSH1 0x40 SWAP5 PUSH1 0x0 PUSH1 0x20 DUP8 MLOAD PUSH2 0x2060 DUP2 PUSH2 0x652 JUMP JUMPDEST DUP3 DUP2 MSTORE ADD MSTORE PUSH1 0x1 PUSH1 0x1 PUSH1 0xA0 SHL SUB AND PUSH1 0x0 SWAP1 DUP2 MSTORE PUSH1 0xA PUSH1 0x20 MSTORE DUP6 SWAP1 KECCAK256 PUSH2 0x1994 JUMP JUMPDEST POP PUSH2 0x2A1A JUMP JUMPDEST DUP3 MLOAD DUP2 MLOAD SWAP1 SWAP3 AND DUP3 MSTORE PUSH1 0x20 SWAP1 DUP2 ADD MLOAD PUSH1 0x1 PUSH1 0x1 PUSH1 0xE0 SHL SUB AND SWAP1 DUP3 ADD MSTORE RETURN JUMPDEST CALLVALUE PUSH2 0x45D JUMPI PUSH1 0x20 CALLDATASIZE PUSH1 0x3 NOT ADD SLT PUSH2 0x45D JUMPI PUSH1 0x1 PUSH1 0x1 PUSH1 0xA0 SHL SUB PUSH2 0x20C5 PUSH2 0x5A3 JUMP JUMPDEST AND PUSH1 0x0 MSTORE PUSH1 0x1B PUSH1 0x20 MSTORE PUSH1 0x20 PUSH1 0x40 PUSH1 0x0 KECCAK256 SLOAD PUSH1 0x40 MLOAD SWAP1 DUP2 MSTORE RETURN JUMPDEST CALLVALUE PUSH2 0x45D JUMPI PUSH1 0x60 CALLDATASIZE PUSH1 0x3 NOT ADD SLT PUSH2 0x45D JUMPI PUSH1 0x24 CALLDATALOAD PUSH1 0x5 DUP2 LT ISZERO PUSH2 0x45D JUMPI PUSH1 0x44 CALLDATALOAD PUSH1 0x1 PUSH1 0x1 PUSH1 0x40 SHL SUB DUP2 GT PUSH2 0x45D JUMPI PUSH1 0x20 SWAP2 PUSH2 0x2120 PUSH2 0x888 SWAP3 CALLDATASIZE SWAP1 PUSH1 0x4 ADD PUSH2 0x705 JUMP JUMPDEST SWAP1 PUSH1 0x4 CALLDATALOAD PUSH2 0x402D JUMP JUMPDEST SWAP1 PUSH1 0x1 DUP3 DUP2 SHR SWAP3 AND DUP1 ISZERO PUSH2 0x2159 JUMPI JUMPDEST PUSH1 0x20 DUP4 LT EQ PUSH2 0x2143 JUMPI JUMP JUMPDEST PUSH4 0x4E487B71 PUSH1 0xE0 SHL PUSH1 0x0 MSTORE PUSH1 0x22 PUSH1 0x4 MSTORE PUSH1 0x24 PUSH1 0x0 REVERT JUMPDEST SWAP2 PUSH1 0x7F AND SWAP2 PUSH2 0x2138 JUMP JUMPDEST SWAP1 PUSH1 0x0 SWAP3 SWAP2 DUP1 SLOAD SWAP2 PUSH2 0x2174 DUP4 PUSH2 0x2129 JUMP JUMPDEST SWAP2 DUP3 DUP3 MSTORE PUSH1 0x1 SWAP4 DUP5 DUP2 AND SWAP1 DUP2 PUSH1 0x0 EQ PUSH2 0x21D6 JUMPI POP PUSH1 0x1 EQ PUSH2 0x2196 JUMPI JUMPDEST POP POP POP POP JUMP JUMPDEST SWAP1 SWAP2 SWAP4 SWAP5 POP PUSH1 0x0 MSTORE PUSH1 0x20 SWAP3 DUP4 PUSH1 0x0 KECCAK256 SWAP3 DUP5 PUSH1 0x0 SWAP5 JUMPDEST DUP4 DUP7 LT PUSH2 0x21C2 JUMPI POP POP POP POP ADD ADD SWAP1 CODESIZE DUP1 DUP1 DUP1 PUSH2 0x2190 JUMP JUMPDEST DUP1 SLOAD DUP6 DUP8 ADD DUP4 ADD MSTORE SWAP5 ADD SWAP4 DUP6 SWAP1 DUP3 ADD PUSH2 0x21AB JUMP JUMPDEST SWAP3 SWAP5 POP POP POP PUSH1 0x20 SWAP4 SWAP5 POP PUSH1 0xFF NOT AND DUP4 DUP4 ADD MSTORE ISZERO ISZERO PUSH1 0x5 SHL ADD ADD SWAP1 CODESIZE DUP1 DUP1 DUP1 PUSH2 0x2190 JUMP JUMPDEST SWAP1 PUSH2 0x6D6 PUSH2 0x220D SWAP3 PUSH1 0x40 MLOAD SWAP4 DUP5 DUP1 SWAP3 PUSH2 0x2163 JUMP JUMPDEST SUB DUP4 PUSH2 0x6A8 JUMP JUMPDEST SWAP7 SWAP3 PUSH2 0x2247 SWAP1 PUSH2 0x2272 SWAP8 SWAP4 PUSH2 0x4BB SWAP13 SWAP11 SWAP7 SWAP8 SWAP4 DUP11 MSTORE PUSH1 0x1 DUP1 PUSH1 0xA0 SHL SUB AND PUSH1 0x20 DUP11 ADD MSTORE PUSH2 0x140 DUP1 PUSH1 0x40 DUP12 ADD MSTORE DUP10 ADD SWAP1 PUSH2 0x485 JUMP JUMPDEST SWAP5 PUSH1 0x60 DUP9 ADD MSTORE PUSH1 0x80 DUP8 ADD MSTORE PUSH1 0xA0 DUP7 ADD MSTORE PUSH2 0x2260 DUP2 PUSH2 0xAB1 JUMP JUMPDEST PUSH1 0xC0 DUP6 ADD MSTORE DUP4 DUP3 SUB PUSH1 0xE0 DUP6 ADD MSTORE PUSH2 0x485 JUMP JUMPDEST SWAP3 PUSH2 0x227C DUP2 PUSH2 0xAB1 JUMP JUMPDEST PUSH2 0x100 DUP3 ADD MSTORE PUSH2 0x120 DUP2 DUP5 SUB SWAP2 ADD MSTORE PUSH2 0x485 JUMP JUMPDEST CALLVALUE PUSH2 0x45D JUMPI PUSH1 0x20 CALLDATASIZE PUSH1 0x3 NOT ADD SLT PUSH2 0x45D JUMPI PUSH1 0x4 CALLDATALOAD PUSH1 0x0 MSTORE PUSH1 0x18 PUSH1 0x20 MSTORE PUSH1 0x40 PUSH1 0x0 KECCAK256 DUP1 SLOAD PUSH2 0x517 PUSH1 0x1 DUP1 PUSH1 0xA0 SHL SUB PUSH1 0x1 DUP5 ADD SLOAD AND SWAP3 PUSH1 0x40 MLOAD SWAP1 PUSH2 0x22D9 DUP3 PUSH2 0x220D DUP2 PUSH1 0x2 DUP6 ADD PUSH2 0x2163 JUMP JUMPDEST PUSH1 0x3 DUP2 ADD SLOAD PUSH1 0x4 DUP3 ADD SLOAD PUSH1 0x5 DUP4 ADD SLOAD PUSH1 0xFF PUSH1 0x6 DUP6 ADD SLOAD AND SWAP2 PUSH2 0x22FD PUSH1 0x7 DUP7 ADD PUSH2 0x21F9 JUMP JUMPDEST SWAP4 PUSH2 0x2318 PUSH1 0x9 PUSH2 0x2311 PUSH1 0x8 DUP10 ADD SLOAD PUSH1 0xFF AND SWAP1 JUMP JUMPDEST SWAP8 ADD PUSH2 0x21F9 JUMP JUMPDEST SWAP7 PUSH1 0x40 MLOAD SWAP11 DUP12 SWAP11 DUP12 PUSH2 0x2214 JUMP JUMPDEST PUSH2 0x232E CALLDATASIZE PUSH2 0xA53 JUMP JUMPDEST POP PUSH2 0x2337 PUSH2 0x23FD JUMP JUMPDEST CALLVALUE ISZERO PUSH2 0x23B9 JUMPI PUSH2 0x2350 PUSH2 0x234B PUSH1 0x11 SLOAD PUSH2 0x3EAF JUMP JUMPDEST PUSH1 0x11 SSTORE JUMP JUMPDEST PUSH1 0x11 SLOAD PUSH2 0x2367 DUP2 PUSH1 0x0 MSTORE PUSH1 0x19 PUSH1 0x20 MSTORE PUSH1 0x40 PUSH1 0x0 KECCAK256 SWAP1 JUMP JUMPDEST SWAP1 DUP2 SSTORE CALLVALUE PUSH1 0x1 DUP3 ADD SSTORE TIMESTAMP PUSH1 0x2 DUP3 ADD SSTORE PUSH1 0x3 PUSH2 0x2381 TIMESTAMP PUSH2 0x269E JUMP JUMPDEST SWAP2 ADD SSTORE PUSH1 0x11 SLOAD PUSH1 0x40 MLOAD CALLVALUE DUP2 MSTORE PUSH32 0xAE52E650E0D7846103A034E23A81F401F776DE50BB5BB37A4C8900DAA5E0F5B7 SWAP1 DUP1 PUSH1 0x20 DUP2 ADD PUSH2 0x1FFA JUMP JUMPDEST PUSH1 0x64 PUSH1 0x40 MLOAD PUSH3 0x461BCD PUSH1 0xE5 SHL DUP2 MSTORE PUSH1 0x20 PUSH1 0x4 DUP3 ADD MSTORE PUSH1 0x20 PUSH1 0x24 DUP3 ADD MSTORE PUSH32 0x4469766964656E6420616D6F756E74206D75737420626520706F736974697665 PUSH1 0x44 DUP3 ADD MSTORE REVERT JUMPDEST CALLER PUSH1 0x0 SWAP1 DUP2 MSTORE PUSH32 0xFFC6EE3E4785C143E1D4F7FF9785D2DDBD7BF0AD1148B890EFDCFC74E32B5B6B PUSH1 0x20 MSTORE PUSH1 0x40 SWAP1 KECCAK256 SLOAD PUSH1 0xFF AND ISZERO PUSH2 0x2436 JUMPI JUMP JUMPDEST PUSH2 0x24DB PUSH1 0x48 PUSH2 0x24C3 PUSH2 0x2447 CALLER PUSH2 0x30F1 JUMP JUMPDEST PUSH2 0x24B5 PUSH2 0x2452 PUSH2 0x3181 JUMP JUMPDEST PUSH1 0x40 MLOAD SWAP5 DUP6 SWAP4 PUSH32 0x416363657373436F6E74726F6C3A206163636F756E7420000000000000000000 PUSH1 0x20 DUP7 ADD MSTORE PUSH2 0x2492 DUP2 MLOAD DUP1 SWAP3 PUSH1 0x20 PUSH1 0x37 DUP10 ADD SWAP2 ADD PUSH2 0x462 JUMP JUMPDEST DUP5 ADD PUSH17 0x1034B99036B4B9B9B4B733903937B6329 PUSH1 0x7D SHL PUSH1 0x37 DUP3 ADD MSTORE ADD SWAP1 PUSH2 0xE42 JUMP JUMPDEST SUB PUSH1 0x1F NOT DUP2 ADD DUP4 MSTORE DUP3 PUSH2 0x6A8 JUMP JUMPDEST PUSH1 0x40 MLOAD PUSH3 0x461BCD PUSH1 0xE5 SHL DUP2 MSTORE SWAP2 DUP3 SWAP2 PUSH1 0x4 DUP4 ADD PUSH2 0x4AA JUMP JUMPDEST SUB SWAP1 REVERT JUMPDEST CALLER PUSH1 0x0 SWAP1 DUP2 MSTORE PUSH32 0x3FD50133E5A3FF06752CDE24E382B84D3E5A0A43ED2C34A28B62622AEB3BA920 PUSH1 0x20 MSTORE PUSH1 0x40 SWAP1 KECCAK256 SLOAD PUSH1 0xFF AND ISZERO PUSH2 0x2518 JUMPI JUMP JUMPDEST PUSH2 0x24DB PUSH1 0x48 PUSH2 0x24C3 PUSH2 0x2529 CALLER PUSH2 0x30F1 JUMP JUMPDEST PUSH2 0x24B5 PUSH2 0x2452 PUSH2 0x3212 JUMP JUMPDEST PUSH1 0x0 DUP2 DUP2 MSTORE PUSH1 0xE PUSH1 0x20 SWAP1 DUP2 MSTORE PUSH1 0x40 DUP1 DUP4 KECCAK256 CALLER DUP5 MSTORE SWAP1 SWAP2 MSTORE SWAP1 KECCAK256 SLOAD PUSH1 0xFF AND ISZERO PUSH2 0x2559 JUMPI POP JUMP JUMPDEST PUSH2 0x2562 CALLER PUSH2 0x30F1 JUMP JUMPDEST PUSH2 0x256A PUSH2 0x3040 JUMP JUMPDEST SWAP2 PUSH1 0x30 PUSH2 0x2576 DUP5 PUSH2 0x306B JUMP JUMPDEST MSTORE8 PUSH1 0x78 PUSH2 0x2582 DUP5 PUSH2 0x3078 JUMP JUMPDEST MSTORE8 PUSH1 0x41 JUMPDEST PUSH1 0x1 DUP2 GT PUSH2 0x25A5 JUMPI PUSH2 0x24DB PUSH1 0x48 PUSH2 0x24C3 DUP6 PUSH2 0x24B5 DUP9 PUSH2 0x2452 DUP9 ISZERO PUSH2 0x30A6 JUMP JUMPDEST SWAP1 PUSH1 0xF DUP2 AND SWAP1 PUSH1 0x10 DUP3 LT ISZERO PUSH2 0x19AC JUMPI PUSH2 0x25E2 SWAP2 PUSH16 0x181899199A1A9B1B9C1CB0B131B232B3 PUSH1 0x81 SHL SWAP1 BYTE PUSH2 0x25D8 DUP5 DUP8 PUSH2 0x3088 JUMP JUMPDEST MSTORE8 PUSH1 0x4 SHR SWAP2 PUSH2 0x3099 JUMP JUMPDEST PUSH2 0x2586 JUMP JUMPDEST PUSH1 0x0 SWAP1 DUP1 DUP3 MSTORE PUSH1 0xE PUSH1 0x20 MSTORE PUSH1 0xFF PUSH2 0x2613 DUP5 PUSH1 0x40 DUP6 KECCAK256 SWAP1 PUSH1 0x1 DUP1 PUSH1 0xA0 SHL SUB AND PUSH1 0x0 MSTORE PUSH1 0x20 MSTORE PUSH1 0x40 PUSH1 0x0 KECCAK256 SWAP1 JUMP JUMPDEST SLOAD AND PUSH2 0x261E JUMPI POP POP POP JUMP JUMPDEST DUP1 DUP3 MSTORE PUSH1 0xE PUSH1 0x20 SWAP1 DUP2 MSTORE PUSH1 0x40 DUP1 DUP5 KECCAK256 PUSH1 0x1 PUSH1 0x1 PUSH1 0xA0 SHL SUB DUP7 AND PUSH1 0x0 SWAP1 DUP2 MSTORE SWAP3 MSTORE SWAP1 KECCAK256 DUP1 SLOAD PUSH1 0xFF NOT AND SWAP1 SSTORE CALLER SWAP3 PUSH1 0x1 PUSH1 0x1 PUSH1 0xA0 SHL SUB AND SWAP2 PUSH32 0xF6391F5C32D9C69D2A47EA670B442974B53935D1EDC7FD64EB21E047A839171B SWAP1 DUP1 LOG4 JUMP JUMPDEST PUSH4 0x4E487B71 PUSH1 0xE0 SHL PUSH1 0x0 MSTORE PUSH1 0x11 PUSH1 0x4 MSTORE PUSH1 0x24 PUSH1 0x0 REVERT JUMPDEST SWAP1 PUSH1 0x1 DUP3 ADD DUP1 SWAP3 GT PUSH2 0xCEC JUMPI JUMP JUMPDEST SWAP1 PUSH3 0x93A80 DUP3 ADD DUP1 SWAP3 GT PUSH2 0xCEC JUMPI JUMP JUMPDEST SWAP1 PUSH1 0x8 DUP3 ADD DUP1 SWAP3 GT PUSH2 0xCEC JUMPI JUMP JUMPDEST SWAP1 PUSH1 0xA DUP3 ADD DUP1 SWAP3 GT PUSH2 0xCEC JUMPI JUMP JUMPDEST SWAP2 SWAP1 DUP3 ADD DUP1 SWAP3 GT PUSH2 0xCEC JUMPI JUMP JUMPDEST ISZERO PUSH2 0x26DE JUMPI JUMP JUMPDEST PUSH1 0x40 MLOAD PUSH3 0x461BCD PUSH1 0xE5 SHL DUP2 MSTORE PUSH1 0x20 PUSH1 0x4 DUP3 ADD MSTORE PUSH1 0x23 PUSH1 0x24 DUP3 ADD MSTORE PUSH32 0x45524332303A207472616E7366657220746F20746865207A65726F2061646472 PUSH1 0x44 DUP3 ADD MSTORE PUSH3 0x657373 PUSH1 0xE8 SHL PUSH1 0x64 DUP3 ADD MSTORE PUSH1 0x84 SWAP1 REVERT JUMPDEST ISZERO PUSH2 0x2736 JUMPI JUMP JUMPDEST PUSH1 0x40 MLOAD PUSH3 0x461BCD PUSH1 0xE5 SHL DUP2 MSTORE PUSH1 0x20 PUSH1 0x4 DUP3 ADD MSTORE PUSH1 0x26 PUSH1 0x24 DUP3 ADD MSTORE PUSH32 0x45524332303A207472616E7366657220616D6F756E7420657863656564732062 PUSH1 0x44 DUP3 ADD MSTORE PUSH6 0x616C616E6365 PUSH1 0xD0 SHL PUSH1 0x64 DUP3 ADD MSTORE PUSH1 0x84 SWAP1 REVERT JUMPDEST PUSH1 0x1 PUSH1 0x1 PUSH1 0xA0 SHL SUB SWAP3 SWAP2 SWAP1 DUP4 DUP2 AND DUP1 ISZERO PUSH2 0x284B JUMPI PUSH2 0x6D6 SWAP5 DUP4 AND SWAP1 PUSH2 0x27B0 DUP3 ISZERO ISZERO PUSH2 0x26D7 JUMP JUMPDEST PUSH2 0x27B8 PUSH2 0x455D JUMP JUMPDEST PUSH1 0x1 PUSH1 0x1 PUSH1 0xA0 SHL SUB DUP4 AND PUSH1 0x0 SWAP1 DUP2 MSTORE PUSH1 0x20 DUP2 SWAP1 MSTORE PUSH1 0x40 SWAP1 KECCAK256 DUP6 SWAP1 SLOAD PUSH2 0x27DF DUP3 DUP3 LT ISZERO PUSH2 0x272F JUMP JUMPDEST SUB PUSH2 0x27FC DUP5 PUSH1 0x1 DUP1 PUSH1 0xA0 SHL SUB AND PUSH1 0x0 MSTORE PUSH1 0x0 PUSH1 0x20 MSTORE PUSH1 0x40 PUSH1 0x0 KECCAK256 SWAP1 JUMP JUMPDEST SSTORE PUSH1 0x1 PUSH1 0x1 PUSH1 0xA0 SHL SUB DUP5 AND PUSH1 0x0 SWAP1 DUP2 MSTORE PUSH1 0x20 DUP2 DUP2 MSTORE PUSH1 0x40 SWAP2 DUP3 SWAP1 KECCAK256 DUP1 SLOAD DUP9 ADD SWAP1 SSTORE SWAP1 MLOAD DUP7 DUP2 MSTORE PUSH32 0xDDF252AD1BE2C89B69C2B068FC378DAA952BA7F163C4A11628F55A4DF523B3EF SWAP2 SWAP1 LOG3 PUSH2 0x45EC JUMP JUMPDEST PUSH1 0x40 MLOAD PUSH3 0x461BCD PUSH1 0xE5 SHL DUP2 MSTORE PUSH1 0x20 PUSH1 0x4 DUP3 ADD MSTORE PUSH1 0x25 PUSH1 0x24 DUP3 ADD MSTORE PUSH32 0x45524332303A207472616E736665722066726F6D20746865207A65726F206164 PUSH1 0x44 DUP3 ADD MSTORE PUSH5 0x6472657373 PUSH1 0xD8 SHL PUSH1 0x64 DUP3 ADD MSTORE PUSH1 0x84 SWAP1 REVERT JUMPDEST PUSH1 0x1 PUSH1 0x1 PUSH1 0xA0 SHL SUB DUP1 DUP3 AND SWAP3 SWAP2 SWAP1 DUP4 ISZERO PUSH2 0x297D JUMPI DUP3 AND SWAP4 DUP5 ISZERO PUSH2 0x292D JUMPI DUP1 PUSH2 0x2917 PUSH32 0x8C5BE1E5EBEC7D5BD14F71427D1E84F3DD0314C0F7B2291E5B200AC8C7C3B925 SWAP5 PUSH2 0x2900 PUSH2 0x2928 SWAP6 PUSH1 0x1 DUP1 PUSH1 0xA0 SHL SUB AND PUSH1 0x0 MSTORE PUSH1 0x1 PUSH1 0x20 MSTORE PUSH1 0x40 PUSH1 0x0 KECCAK256 SWAP1 JUMP JUMPDEST SWAP1 PUSH1 0x1 DUP1 PUSH1 0xA0 SHL SUB AND PUSH1 0x0 MSTORE PUSH1 0x20 MSTORE PUSH1 0x40 PUSH1 0x0 KECCAK256 SWAP1 JUMP JUMPDEST SSTORE PUSH1 0x40 MLOAD SWAP1 DUP2 MSTORE SWAP1 DUP2 SWAP1 PUSH1 0x20 DUP3 ADD SWAP1 JUMP JUMPDEST SUB SWAP1 LOG3 JUMP JUMPDEST PUSH1 0x40 MLOAD PUSH3 0x461BCD PUSH1 0xE5 SHL DUP2 MSTORE PUSH1 0x20 PUSH1 0x4 DUP3 ADD MSTORE PUSH1 0x22 PUSH1 0x24 DUP3 ADD MSTORE PUSH32 0x45524332303A20617070726F766520746F20746865207A65726F206164647265 PUSH1 0x44 DUP3 ADD MSTORE PUSH2 0x7373 PUSH1 0xF0 SHL PUSH1 0x64 DUP3 ADD MSTORE PUSH1 0x84 SWAP1 REVERT JUMPDEST PUSH1 0x40 MLOAD PUSH3 0x461BCD PUSH1 0xE5 SHL DUP2 MSTORE PUSH1 0x20 PUSH1 0x4 DUP3 ADD MSTORE PUSH1 0x24 DUP1 DUP3 ADD MSTORE PUSH32 0x45524332303A20617070726F76652066726F6D20746865207A65726F20616464 PUSH1 0x44 DUP3 ADD MSTORE PUSH4 0x72657373 PUSH1 0xE0 SHL PUSH1 0x64 DUP3 ADD MSTORE PUSH1 0x84 SWAP1 REVERT JUMPDEST ISZERO PUSH2 0x29D5 JUMPI JUMP JUMPDEST PUSH1 0x40 MLOAD PUSH3 0x461BCD PUSH1 0xE5 SHL DUP2 MSTORE PUSH1 0x20 PUSH1 0x4 DUP3 ADD MSTORE PUSH1 0x1E PUSH1 0x24 DUP3 ADD MSTORE PUSH32 0x45524332305065726D69743A20696E76616C6964207369676E61747572650000 PUSH1 0x44 DUP3 ADD MSTORE PUSH1 0x64 SWAP1 REVERT JUMPDEST SWAP1 PUSH1 0x40 MLOAD PUSH2 0x2A27 DUP2 PUSH2 0x652 JUMP JUMPDEST PUSH1 0x20 DUP2 SWAP4 SLOAD PUSH4 0xFFFFFFFF DUP2 AND DUP4 MSTORE DUP2 SHR SWAP2 ADD MSTORE JUMP JUMPDEST ISZERO PUSH2 0x2A43 JUMPI JUMP JUMPDEST PUSH1 0x40 MLOAD PUSH3 0x461BCD PUSH1 0xE5 SHL DUP2 MSTORE PUSH1 0x20 PUSH1 0x4 DUP3 ADD MSTORE PUSH1 0x19 PUSH1 0x24 DUP3 ADD MSTORE PUSH32 0x4552433230566F7465733A20667574757265206C6F6F6B757000000000000000 PUSH1 0x44 DUP3 ADD MSTORE PUSH1 0x64 SWAP1 REVERT JUMPDEST SWAP2 SWAP1 DUP3 SUB SWAP2 DUP3 GT PUSH2 0xCEC JUMPI JUMP JUMPDEST ISZERO PUSH2 0x2A9C JUMPI JUMP JUMPDEST PUSH1 0x40 MLOAD PUSH3 0x461BCD PUSH1 0xE5 SHL DUP2 MSTORE PUSH1 0x20 PUSH1 0x4 DUP3 ADD MSTORE PUSH1 0x19 PUSH1 0x24 DUP3 ADD MSTORE PUSH32 0x4552433230566F7465733A20696E76616C6964206E6F6E636500000000000000 PUSH1 0x44 DUP3 ADD MSTORE PUSH1 0x64 SWAP1 REVERT JUMPDEST PUSH1 0x1 PUSH1 0x1 PUSH1 0xA0 SHL SUB SWAP1 DUP2 AND PUSH1 0x0 DUP2 DUP2 MSTORE PUSH1 0x9 PUSH1 0x20 DUP2 DUP2 MSTORE PUSH1 0x40 DUP1 DUP5 KECCAK256 DUP1 SLOAD DUP6 DUP5 MSTORE SWAP2 DUP6 KECCAK256 SLOAD SWAP4 SWAP1 SWAP3 MSTORE DUP7 DUP7 AND PUSH1 0x1 PUSH1 0x1 PUSH1 0xA0 SHL SUB NOT DUP3 AND DUP2 OR SWAP1 SWAP3 SSTORE PUSH2 0x6D6 SWAP7 SWAP3 SWAP6 SWAP3 SWAP5 SWAP3 AND SWAP3 SWAP1 SWAP2 DUP4 SWAP2 PUSH32 0x3134E8A2E6D97E929A7E54011EA5485D7D196DD5F0BA4D4EF95803E8E3FC257F SWAP1 DUP1 LOG4 JUMPDEST PUSH1 0x1 PUSH1 0x1 PUSH1 0xA0 SHL SUB DUP1 DUP4 AND SWAP4 SWAP3 SWAP2 AND DUP1 DUP5 EQ ISZERO DUP1 PUSH2 0x2D63 JUMPI JUMPDEST PUSH2 0x2B74 JUMPI POP POP POP POP JUMP JUMPDEST DUP1 PUSH2 0x2BE2 JUMPI JUMPDEST POP DUP3 PUSH2 0x2B87 JUMPI JUMPDEST DUP1 PUSH2 0x2190 JUMP JUMPDEST PUSH1 0x1 PUSH1 0x1 PUSH1 0xA0 SHL SUB AND PUSH1 0x0 SWAP1 DUP2 MSTORE PUSH1 0xA PUSH1 0x20 MSTORE PUSH1 0x40 SWAP1 KECCAK256 PUSH32 0xDEC2BACDD2F05B59DE34DA9B523DFF8BE42E5E38E818C82FDB0BAE774387A724 SWAP2 PUSH2 0x2BC9 SWAP2 PUSH2 0x2E2D JUMP JUMPDEST PUSH1 0x40 DUP1 MLOAD SWAP3 DUP4 MSTORE PUSH1 0x20 DUP4 ADD SWAP2 SWAP1 SWAP2 MSTORE SWAP1 LOG2 CODESIZE DUP1 DUP1 PUSH2 0x2B81 JUMP JUMPDEST DUP1 PUSH1 0x0 MSTORE PUSH1 0xA PUSH1 0x20 MSTORE PUSH32 0xDEC2BACDD2F05B59DE34DA9B523DFF8BE42E5E38E818C82FDB0BAE774387A724 PUSH1 0x40 PUSH1 0x0 KECCAK256 DUP1 SLOAD DUP1 ISZERO SWAP2 DUP3 PUSH1 0x0 EQ PUSH2 0x2D40 JUMPI PUSH2 0x2C26 PUSH2 0x6C9 JUMP JUMPDEST PUSH1 0x0 DUP2 MSTORE PUSH1 0x0 PUSH1 0x20 DUP3 ADD MSTORE SWAP2 JUMPDEST PUSH1 0x20 DUP4 ADD MLOAD PUSH2 0x2C52 SWAP1 PUSH1 0x1 PUSH1 0x1 PUSH1 0xE0 SHL SUB AND JUMPDEST PUSH1 0x1 PUSH1 0x1 PUSH1 0xE0 SHL SUB AND SWAP1 JUMP JUMPDEST SWAP3 PUSH2 0x2C5D DUP10 DUP6 PUSH2 0x476B JUMP JUMPDEST SWAP5 ISZERO SWAP1 DUP2 PUSH2 0x2D1D JUMPI JUMPDEST POP ISZERO PUSH2 0x2CBB JUMPI PUSH2 0x2C8E PUSH2 0x2CA5 SWAP3 PUSH2 0x2C7C DUP7 PUSH2 0x38DD JUMP JUMPDEST SWAP3 PUSH1 0x0 NOT ADD SWAP1 PUSH1 0x0 MSTORE PUSH1 0x20 PUSH1 0x0 KECCAK256 ADD SWAP1 JUMP JUMPDEST SWAP1 PUSH4 0xFFFFFFFF DUP3 SLOAD SWAP2 DUP2 NOT SWAP1 PUSH1 0x20 SHL AND SWAP2 AND OR SWAP1 SSTORE JUMP JUMPDEST PUSH1 0x40 DUP1 MLOAD SWAP2 DUP3 MSTORE PUSH1 0x20 DUP3 ADD SWAP3 SWAP1 SWAP3 MSTORE LOG2 CODESIZE PUSH2 0x2B7A JUMP JUMPDEST POP PUSH2 0x2D18 SWAP1 PUSH2 0x2CDF PUSH2 0x2CDA PUSH2 0x2CCF NUMBER PUSH2 0x3946 JUMP JUMPDEST PUSH6 0xFFFFFFFFFFFF AND SWAP1 JUMP JUMPDEST PUSH2 0x39AD JUMP JUMPDEST SWAP1 PUSH2 0x2D13 PUSH2 0x2CEC DUP7 PUSH2 0x38DD JUMP JUMPDEST PUSH2 0x2D03 PUSH2 0x2CF7 PUSH2 0x6C9 JUMP JUMPDEST PUSH4 0xFFFFFFFF SWAP1 SWAP6 AND DUP6 MSTORE JUMP JUMPDEST PUSH1 0x1 PUSH1 0x1 PUSH1 0xE0 SHL SUB AND PUSH1 0x20 DUP5 ADD MSTORE JUMP JUMPDEST PUSH2 0x2DD3 JUMP JUMPDEST PUSH2 0x2CA5 JUMP JUMPDEST MLOAD PUSH4 0xFFFFFFFF AND SWAP1 POP PUSH4 0xFFFFFFFF PUSH2 0x2D37 PUSH2 0x2CCF NUMBER PUSH2 0x3946 JUMP JUMPDEST SWAP2 AND EQ CODESIZE PUSH2 0x2C66 JUMP JUMPDEST PUSH2 0x2D5D PUSH2 0x2D58 PUSH1 0x0 NOT DUP5 ADD DUP4 PUSH1 0x0 MSTORE PUSH1 0x20 PUSH1 0x0 KECCAK256 ADD SWAP1 JUMP JUMPDEST PUSH2 0x2A1A JUMP JUMPDEST SWAP2 PUSH2 0x2C33 JUMP JUMPDEST POP DUP3 ISZERO ISZERO PUSH2 0x2B6A JUMP JUMPDEST PUSH1 0xB SLOAD SWAP1 PUSH1 0x1 PUSH1 0x40 SHL DUP3 LT ISZERO PUSH2 0x66D JUMPI PUSH1 0x1 DUP3 ADD DUP1 PUSH1 0xB SSTORE DUP3 LT ISZERO PUSH2 0x19AC JUMPI PUSH1 0xB PUSH1 0x0 MSTORE DUP1 MLOAD PUSH1 0x20 SWAP2 DUP3 ADD MLOAD SWAP1 SWAP2 SHL PUSH4 0xFFFFFFFF NOT AND PUSH4 0xFFFFFFFF SWAP2 SWAP1 SWAP2 AND OR PUSH32 0x175B7A638427703F0DBE7BB9BBF987A2551717B34E79F33B5B1008D1FA01DB9 SWAP1 SWAP2 ADD SSTORE JUMP JUMPDEST DUP1 SLOAD PUSH1 0x1 PUSH1 0x40 SHL DUP2 LT ISZERO PUSH2 0x66D JUMPI PUSH2 0x2DF0 SWAP2 PUSH1 0x1 DUP3 ADD DUP2 SSTORE PUSH2 0x1994 JUMP JUMPDEST PUSH2 0x2E17 JUMPI DUP2 MLOAD PUSH1 0x20 SWAP3 DUP4 ADD MLOAD SWAP1 SWAP3 SHL PUSH4 0xFFFFFFFF NOT AND PUSH4 0xFFFFFFFF SWAP3 SWAP1 SWAP3 AND SWAP2 SWAP1 SWAP2 OR SWAP1 SSTORE JUMP JUMPDEST PUSH4 0x4E487B71 PUSH1 0xE0 SHL PUSH1 0x0 MSTORE PUSH1 0x0 PUSH1 0x4 MSTORE PUSH1 0x24 PUSH1 0x0 REVERT JUMPDEST SWAP1 SWAP2 DUP2 SLOAD SWAP2 DUP3 ISZERO SWAP3 DUP4 PUSH1 0x0 EQ PUSH2 0x2EC9 JUMPI PUSH2 0x2E45 PUSH2 0x6C9 JUMP JUMPDEST PUSH1 0x0 DUP2 MSTORE PUSH1 0x0 PUSH1 0x20 DUP3 ADD MSTORE JUMPDEST PUSH1 0x20 DUP2 ADD MLOAD PUSH2 0x2E73 SWAP1 PUSH2 0x2E6C SWAP1 PUSH1 0x1 PUSH1 0x1 PUSH1 0xE0 SHL SUB AND PUSH2 0x2C46 JUMP JUMPDEST SWAP7 DUP8 PUSH2 0x4778 JUMP JUMPDEST SWAP5 ISZERO SWAP1 DUP2 PUSH2 0x2EA6 JUMPI JUMPDEST POP ISZERO PUSH2 0x2E92 JUMPI PUSH2 0x2C8E PUSH2 0x6D6 SWAP3 PUSH2 0x2C7C DUP7 PUSH2 0x38DD JUMP JUMPDEST POP PUSH2 0x6D6 SWAP1 PUSH2 0x2CDF PUSH2 0x2CDA PUSH2 0x2CCF NUMBER PUSH2 0x3946 JUMP JUMPDEST MLOAD PUSH4 0xFFFFFFFF AND SWAP1 POP PUSH4 0xFFFFFFFF PUSH2 0x2EC0 PUSH2 0x2CCF NUMBER PUSH2 0x3946 JUMP JUMPDEST SWAP2 AND EQ CODESIZE PUSH2 0x2E7C JUMP JUMPDEST PUSH2 0x2EE1 PUSH2 0x2D58 PUSH1 0x0 NOT DUP4 ADD DUP5 PUSH1 0x0 MSTORE PUSH1 0x20 PUSH1 0x0 KECCAK256 ADD SWAP1 JUMP JUMPDEST PUSH2 0x2E51 JUMP JUMPDEST PUSH1 0xB SLOAD SWAP1 SWAP2 DUP2 ISZERO SWAP2 DUP3 ISZERO PUSH2 0x2FE2 JUMPI PUSH2 0x2EFC PUSH2 0x6C9 JUMP JUMPDEST PUSH1 0x0 DUP2 MSTORE PUSH1 0x0 PUSH1 0x20 DUP3 ADD MSTORE JUMPDEST PUSH1 0x20 DUP2 ADD MLOAD PUSH2 0x2F2A SWAP1 PUSH2 0x2F23 SWAP1 PUSH1 0x1 PUSH1 0x1 PUSH1 0xE0 SHL SUB AND PUSH2 0x2C46 JUMP JUMPDEST SWAP6 DUP7 PUSH2 0x4778 JUMP JUMPDEST SWAP4 ISZERO SWAP1 DUP2 PUSH2 0x2FBF JUMPI JUMPDEST POP ISZERO PUSH2 0x2F74 JUMPI PUSH2 0x6D6 SWAP1 PUSH2 0x2C8E PUSH2 0x2F49 DUP6 PUSH2 0x38DD JUMP JUMPDEST PUSH1 0xB PUSH1 0x0 MSTORE SWAP2 PUSH32 0x175B7A638427703F0DBE7BB9BBF987A2551717B34E79F33B5B1008D1FA01DB8 ADD SWAP1 JUMP JUMPDEST POP PUSH2 0x6D6 PUSH2 0x2F87 PUSH2 0x2CDA PUSH2 0x2CCF NUMBER PUSH2 0x3946 JUMP JUMPDEST PUSH2 0x2FBA PUSH2 0x2F93 DUP6 PUSH2 0x38DD JUMP JUMPDEST PUSH2 0x2FAA PUSH2 0x2F9E PUSH2 0x6C9 JUMP JUMPDEST PUSH4 0xFFFFFFFF SWAP1 SWAP5 AND DUP5 MSTORE JUMP JUMPDEST PUSH1 0x1 PUSH1 0x1 PUSH1 0xE0 SHL SUB AND PUSH1 0x20 DUP4 ADD MSTORE JUMP JUMPDEST PUSH2 0x2D6C JUMP JUMPDEST MLOAD PUSH4 0xFFFFFFFF AND SWAP1 POP PUSH4 0xFFFFFFFF PUSH2 0x2FD9 PUSH2 0x2CCF NUMBER PUSH2 0x3946 JUMP JUMPDEST SWAP2 AND EQ CODESIZE PUSH2 0x2F33 JUMP JUMPDEST PUSH1 0xB PUSH1 0x0 MSTORE PUSH2 0x3012 PUSH32 0x175B7A638427703F0DBE7BB9BBF987A2551717B34E79F33B5B1008D1FA01DB8 DUP3 ADD PUSH2 0x2A1A JUMP JUMPDEST PUSH2 0x2F08 JUMP JUMPDEST SWAP1 PUSH1 0x64 DUP3 MUL SWAP2 DUP1 DUP4 DIV PUSH1 0x64 EQ SWAP1 ISZERO OR ISZERO PUSH2 0xCEC JUMPI JUMP JUMPDEST DUP2 DUP2 MUL SWAP3 SWAP2 DUP2 ISZERO SWAP2 DUP5 DIV EQ OR ISZERO PUSH2 0xCEC JUMPI JUMP JUMPDEST PUSH1 0x40 MLOAD SWAP1 PUSH1 0x80 DUP3 ADD DUP3 DUP2 LT PUSH1 0x1 PUSH1 0x1 PUSH1 0x40 SHL SUB DUP3 GT OR PUSH2 0x66D JUMPI PUSH1 0x40 MSTORE PUSH1 0x42 DUP3 MSTORE PUSH1 0x60 CALLDATASIZE PUSH1 0x20 DUP5 ADD CALLDATACOPY JUMP JUMPDEST DUP1 MLOAD ISZERO PUSH2 0x19AC JUMPI PUSH1 0x20 ADD SWAP1 JUMP JUMPDEST DUP1 MLOAD PUSH1 0x1 LT ISZERO PUSH2 0x19AC JUMPI PUSH1 0x21 ADD SWAP1 JUMP JUMPDEST SWAP1 DUP2 MLOAD DUP2 LT ISZERO PUSH2 0x19AC JUMPI ADD PUSH1 0x20 ADD SWAP1 JUMP JUMPDEST DUP1 ISZERO PUSH2 0xCEC JUMPI PUSH1 0x0 NOT ADD SWAP1 JUMP JUMPDEST ISZERO PUSH2 0x30AD JUMPI JUMP JUMPDEST PUSH1 0x64 PUSH1 0x40 MLOAD PUSH3 0x461BCD PUSH1 0xE5 SHL DUP2 MSTORE PUSH1 0x20 PUSH1 0x4 DUP3 ADD MSTORE PUSH1 0x20 PUSH1 0x24 DUP3 ADD MSTORE PUSH32 0x537472696E67733A20686578206C656E67746820696E73756666696369656E74 PUSH1 0x44 DUP3 ADD MSTORE REVERT JUMPDEST PUSH1 0x40 MLOAD SWAP1 PUSH1 0x60 DUP3 ADD DUP3 DUP2 LT PUSH1 0x1 PUSH1 0x1 PUSH1 0x40 SHL SUB DUP3 GT OR PUSH2 0x66D JUMPI PUSH1 0x40 MSTORE PUSH1 0x2A DUP3 MSTORE PUSH1 0x40 CALLDATASIZE PUSH1 0x20 DUP5 ADD CALLDATACOPY PUSH1 0x30 PUSH2 0x3125 DUP4 PUSH2 0x306B JUMP JUMPDEST MSTORE8 PUSH1 0x78 PUSH2 0x3131 DUP4 PUSH2 0x3078 JUMP JUMPDEST MSTORE8 PUSH1 0x29 SWAP1 JUMPDEST PUSH1 0x1 DUP3 GT PUSH2 0x3149 JUMPI PUSH2 0x4BB SWAP2 POP ISZERO PUSH2 0x30A6 JUMP JUMPDEST PUSH1 0xF DUP2 AND SWAP1 PUSH1 0x10 DUP3 LT ISZERO PUSH2 0x19AC JUMPI PUSH2 0x317B SWAP2 PUSH16 0x181899199A1A9B1B9C1CB0B131B232B3 PUSH1 0x81 SHL SWAP1 BYTE PUSH2 0x25D8 DUP5 DUP7 PUSH2 0x3088 JUMP JUMPDEST SWAP1 PUSH2 0x3136 JUMP JUMPDEST PUSH32 0xA49807205CE4D355092EF5A8A18F56E8913CF4A201FBE287825B095693C21775 PUSH2 0x31AA PUSH2 0x3040 JUMP JUMPDEST SWAP1 PUSH1 0x30 PUSH2 0x31B6 DUP4 PUSH2 0x306B JUMP JUMPDEST MSTORE8 PUSH1 0x78 PUSH2 0x31C2 DUP4 PUSH2 0x3078 JUMP JUMPDEST MSTORE8 PUSH1 0x41 SWAP1 JUMPDEST PUSH1 0x1 DUP3 GT PUSH2 0x31DA JUMPI PUSH2 0x4BB SWAP2 POP ISZERO PUSH2 0x30A6 JUMP JUMPDEST PUSH1 0xF DUP2 AND SWAP1 PUSH1 0x10 DUP3 LT ISZERO PUSH2 0x19AC JUMPI PUSH2 0x320C SWAP2 PUSH16 0x181899199A1A9B1B9C1CB0B131B232B3 PUSH1 0x81 SHL SWAP1 BYTE PUSH2 0x25D8 DUP5 DUP7 PUSH2 0x3088 JUMP JUMPDEST SWAP1 PUSH2 0x31C7 JUMP JUMPDEST PUSH32 0x5AA58C694AEB083DF8754BF5E98675317E4137A5A8A2C6188D0228869E43DA7E PUSH2 0x323B PUSH2 0x3040 JUMP JUMPDEST SWAP1 PUSH1 0x30 PUSH2 0x3247 DUP4 PUSH2 0x306B JUMP JUMPDEST MSTORE8 PUSH1 0x78 PUSH2 0x3253 DUP4 PUSH2 0x3078 JUMP JUMPDEST MSTORE8 PUSH1 0x41 SWAP1 JUMPDEST PUSH1 0x1 DUP3 GT PUSH2 0x326B JUMPI PUSH2 0x4BB SWAP2 POP ISZERO PUSH2 0x30A6 JUMP JUMPDEST PUSH1 0xF DUP2 AND SWAP1 PUSH1 0x10 DUP3 LT ISZERO PUSH2 0x19AC JUMPI PUSH2 0x329D SWAP2 PUSH16 0x181899199A1A9B1B9C1CB0B131B232B3 PUSH1 0x81 SHL SWAP1 BYTE PUSH2 0x25D8 DUP5 DUP7 PUSH2 0x3088 JUMP JUMPDEST SWAP1 PUSH2 0x3258 JUMP JUMPDEST SWAP2 PUSH2 0x4BB SWAP4 SWAP2 PUSH2 0x32B2 SWAP4 PUSH2 0x33E1 JUMP JUMPDEST SWAP2 SWAP1 SWAP2 PUSH2 0x32BE DUP2 PUSH2 0xAB1 JUMP JUMPDEST DUP1 PUSH2 0x32C6 JUMPI POP JUMP JUMPDEST PUSH2 0x32CF DUP2 PUSH2 0xAB1 JUMP JUMPDEST PUSH1 0x1 DUP2 SUB PUSH2 0x331C JUMPI PUSH1 0x40 MLOAD PUSH3 0x461BCD PUSH1 0xE5 SHL DUP2 MSTORE PUSH1 0x20 PUSH1 0x4 DUP3 ADD MSTORE PUSH1 0x18 PUSH1 0x24 DUP3 ADD MSTORE PUSH32 0x45434453413A20696E76616C6964207369676E61747572650000000000000000 PUSH1 0x44 DUP3 ADD MSTORE PUSH1 0x64 SWAP1 REVERT JUMPDEST PUSH2 0x3325 DUP2 PUSH2 0xAB1 JUMP JUMPDEST PUSH1 0x2 DUP2 SUB PUSH2 0x3372 JUMPI PUSH1 0x40 MLOAD PUSH3 0x461BCD PUSH1 0xE5 SHL DUP2 MSTORE PUSH1 0x20 PUSH1 0x4 DUP3 ADD MSTORE PUSH1 0x1F PUSH1 0x24 DUP3 ADD MSTORE PUSH32 0x45434453413A20696E76616C6964207369676E6174757265206C656E67746800 PUSH1 0x44 DUP3 ADD MSTORE PUSH1 0x64 SWAP1 REVERT JUMPDEST DUP1 PUSH2 0x337E PUSH1 0x3 SWAP3 PUSH2 0xAB1 JUMP JUMPDEST EQ PUSH2 0x3385 JUMPI JUMP JUMPDEST PUSH1 0x40 MLOAD PUSH3 0x461BCD PUSH1 0xE5 SHL DUP2 MSTORE PUSH1 0x20 PUSH1 0x4 DUP3 ADD MSTORE PUSH1 0x22 PUSH1 0x24 DUP3 ADD MSTORE PUSH32 0x45434453413A20696E76616C6964207369676E6174757265202773272076616C PUSH1 0x44 DUP3 ADD MSTORE PUSH2 0x7565 PUSH1 0xF0 SHL PUSH1 0x64 DUP3 ADD MSTORE PUSH1 0x84 SWAP1 REVERT JUMPDEST PUSH1 0x40 MLOAD RETURNDATASIZE PUSH1 0x0 DUP3 RETURNDATACOPY RETURNDATASIZE SWAP1 REVERT JUMPDEST SWAP3 SWAP2 SWAP1 PUSH32 0x7FFFFFFFFFFFFFFFFFFFFFFFFFFFFFFF5D576E7357A4501DDFE92F46681B20A0 DUP4 GT PUSH2 0x3457 JUMPI SWAP2 PUSH1 0x80 SWAP5 SWAP4 SWAP2 PUSH1 0xFF PUSH1 0x20 SWAP5 PUSH1 0x40 MLOAD SWAP5 DUP6 MSTORE AND DUP5 DUP5 ADD MSTORE PUSH1 0x40 DUP4 ADD MSTORE PUSH1 0x60 DUP3 ADD MSTORE PUSH1 0x0 SWAP4 DUP5 SWAP2 DUP3 DUP1 MSTORE PUSH1 0x1 GAS STATICCALL ISZERO PUSH2 0x12CE JUMPI DUP2 MLOAD PUSH1 0x1 PUSH1 0x1 PUSH1 0xA0 SHL SUB DUP2 AND ISZERO PUSH2 0x3451 JUMPI SWAP2 SWAP1 JUMP JUMPDEST POP PUSH1 0x1 SWAP1 JUMP JUMPDEST POP POP POP POP PUSH1 0x0 SWAP1 PUSH1 0x3 SWAP1 JUMP JUMPDEST ADDRESS PUSH32 0x0 PUSH1 0x1 PUSH1 0x1 PUSH1 0xA0 SHL SUB AND EQ DUP1 PUSH2 0x3554 JUMPI JUMPDEST ISZERO PUSH2 0x34BE JUMPI PUSH32 0x0 SWAP1 JUMP JUMPDEST PUSH1 0x40 MLOAD PUSH1 0x20 DUP2 ADD SWAP1 PUSH32 0x8B73C3C69BB8FE3D512ECC4CF759CC79239F7B179B0FFACAA9A75D522B39400F DUP3 MSTORE PUSH32 0x0 PUSH1 0x40 DUP3 ADD MSTORE PUSH32 0x0 PUSH1 0x60 DUP3 ADD MSTORE CHAINID PUSH1 0x80 DUP3 ADD MSTORE ADDRESS PUSH1 0xA0 DUP3 ADD MSTORE PUSH1 0xA0 DUP2 MSTORE PUSH2 0x354E DUP2 PUSH2 0x68D JUMP JUMPDEST MLOAD SWAP1 KECCAK256 SWAP1 JUMP JUMPDEST POP PUSH32 0x0 CHAINID EQ PUSH2 0x3495 JUMP JUMPDEST PUSH1 0x42 SWAP1 PUSH2 0x3588 PUSH2 0x3463 JUMP JUMPDEST SWAP1 PUSH1 0x40 MLOAD SWAP2 PUSH2 0x1901 PUSH1 0xF0 SHL DUP4 MSTORE PUSH1 0x2 DUP4 ADD MSTORE PUSH1 0x22 DUP3 ADD MSTORE KECCAK256 SWAP1 JUMP JUMPDEST PUSH1 0xFF DUP2 EQ PUSH2 0x35E1 JUMPI PUSH1 0xFF DUP2 AND SWAP1 PUSH1 0x1F DUP3 GT PUSH2 0x35CF JUMPI PUSH1 0x40 MLOAD SWAP2 PUSH2 0x35C5 DUP4 PUSH2 0x652 JUMP JUMPDEST DUP3 MSTORE PUSH1 0x20 DUP3 ADD MSTORE SWAP1 JUMP JUMPDEST PUSH1 0x40 MLOAD PUSH4 0x2CD44AC3 PUSH1 0xE2 SHL DUP2 MSTORE PUSH1 0x4 SWAP1 REVERT JUMPDEST POP PUSH1 0x40 MLOAD PUSH1 0x5 SLOAD DUP2 PUSH1 0x0 PUSH2 0x35F4 DUP4 PUSH2 0x2129 JUMP JUMPDEST DUP1 DUP4 MSTORE SWAP3 PUSH1 0x1 SWAP1 DUP2 DUP2 AND SWAP1 DUP2 ISZERO PUSH2 0x367A JUMPI POP PUSH1 0x1 EQ PUSH2 0x361B JUMPI JUMPDEST POP PUSH2 0x4BB SWAP3 POP SUB DUP3 PUSH2 0x6A8 JUMP JUMPDEST PUSH1 0x5 PUSH1 0x0 SWAP1 DUP2 MSTORE SWAP2 POP PUSH32 0x36B6384B5ECA791C62761152D0C79BB0604C104A5FB6F4EB0703F3154BB3DB0 JUMPDEST DUP5 DUP4 LT PUSH2 0x365F JUMPI POP PUSH2 0x4BB SWAP4 POP POP DUP2 ADD PUSH1 0x20 ADD CODESIZE PUSH2 0x360E JUMP JUMPDEST DUP2 SWAP4 POP SWAP1 DUP2 PUSH1 0x20 SWAP3 SLOAD DUP4 DUP6 DUP10 ADD ADD MSTORE ADD SWAP2 ADD SWAP1 SWAP2 DUP5 SWAP3 PUSH2 0x3646 JUMP JUMPDEST SWAP1 POP PUSH1 0x20 SWAP3 POP PUSH2 0x4BB SWAP5 SWAP2 POP PUSH1 0xFF NOT AND DUP3 DUP5 ADD MSTORE ISZERO ISZERO PUSH1 0x5 SHL DUP3 ADD ADD CODESIZE PUSH2 0x360E JUMP JUMPDEST PUSH1 0xFF DUP2 EQ PUSH2 0x36BE JUMPI PUSH1 0xFF DUP2 AND SWAP1 PUSH1 0x1F DUP3 GT PUSH2 0x35CF JUMPI PUSH1 0x40 MLOAD SWAP2 PUSH2 0x35C5 DUP4 PUSH2 0x652 JUMP JUMPDEST POP PUSH1 0x40 MLOAD PUSH1 0x6 SLOAD DUP2 PUSH1 0x0 PUSH2 0x36D1 DUP4 PUSH2 0x2129 JUMP JUMPDEST DUP1 DUP4 MSTORE SWAP3 PUSH1 0x1 SWAP1 DUP2 DUP2 AND SWAP1 DUP2 ISZERO PUSH2 0x367A JUMPI POP PUSH1 0x1 EQ PUSH2 0x36F7 JUMPI POP PUSH2 0x4BB SWAP3 POP SUB DUP3 PUSH2 0x6A8 JUMP JUMPDEST PUSH1 0x6 PUSH1 0x0 SWAP1 DUP2 MSTORE SWAP2 POP PUSH32 0xF652222313E28459528D920B65115C16C04F3EFC82AAEDC97BE59F3F377C0D3F JUMPDEST DUP5 DUP4 LT PUSH2 0x373B JUMPI POP PUSH2 0x4BB SWAP4 POP POP DUP2 ADD PUSH1 0x20 ADD CODESIZE PUSH2 0x360E JUMP JUMPDEST DUP2 SWAP4 POP SWAP1 DUP2 PUSH1 0x20 SWAP3 SLOAD DUP4 DUP6 DUP10 ADD ADD MSTORE ADD SWAP2 ADD SWAP1 SWAP2 DUP5 SWAP3 PUSH2 0x3722 JUMP JUMPDEST DUP2 ISZERO PUSH2 0x3760 JUMPI DIV SWAP1 JUMP JUMPDEST PUSH4 0x4E487B71 PUSH1 0xE0 SHL PUSH1 0x0 MSTORE PUSH1 0x12 PUSH1 0x4 MSTORE PUSH1 0x24 PUSH1 0x0 REVERT JUMPDEST SWAP1 DUP1 DUP3 AND SWAP2 XOR PUSH1 0x1 SHR DUP2 ADD DUP1 SWAP2 GT PUSH2 0xCEC JUMPI SWAP1 JUMP JUMPDEST DUP1 ISZERO PUSH2 0x38C5 JUMPI DUP1 PUSH2 0x385E PUSH2 0x3857 PUSH2 0x384D PUSH2 0x3843 PUSH2 0x3839 PUSH2 0x382F PUSH2 0x3825 PUSH2 0x381B PUSH1 0x1 PUSH2 0x4BB SWAP11 PUSH1 0x0 SWAP1 DUP12 PUSH1 0x80 SHR DUP1 PUSH2 0x38B9 JUMPI JUMPDEST POP DUP1 PUSH1 0x40 SHR DUP1 PUSH2 0x38AC JUMPI JUMPDEST POP DUP1 PUSH1 0x20 SHR DUP1 PUSH2 0x389F JUMPI JUMPDEST POP DUP1 PUSH1 0x10 SHR DUP1 PUSH2 0x3892 JUMPI JUMPDEST POP DUP1 PUSH1 0x8 SHR DUP1 PUSH2 0x3885 JUMPI JUMPDEST POP DUP1 PUSH1 0x4 SHR DUP1 PUSH2 0x3878 JUMPI JUMPDEST POP DUP1 PUSH1 0x2 SHR DUP1 PUSH2 0x386B JUMPI JUMPDEST POP DUP3 SHR PUSH2 0x3864 JUMPI JUMPDEST DUP2 SHR SHL PUSH2 0x3814 DUP2 DUP12 PUSH2 0x3756 JUMP JUMPDEST ADD PUSH1 0x1 SHR SWAP1 JUMP JUMPDEST PUSH2 0x3814 DUP2 DUP11 PUSH2 0x3756 JUMP JUMPDEST PUSH2 0x3814 DUP2 DUP10 PUSH2 0x3756 JUMP JUMPDEST PUSH2 0x3814 DUP2 DUP9 PUSH2 0x3756 JUMP JUMPDEST PUSH2 0x3814 DUP2 DUP8 PUSH2 0x3756 JUMP JUMPDEST PUSH2 0x3814 DUP2 DUP7 PUSH2 0x3756 JUMP JUMPDEST PUSH2 0x3814 DUP2 DUP6 PUSH2 0x3756 JUMP JUMPDEST DUP1 SWAP3 PUSH2 0x3756 JUMP JUMPDEST SWAP1 PUSH2 0x38CB JUMP JUMPDEST DUP2 ADD PUSH2 0x3807 JUMP JUMPDEST PUSH1 0x2 SWAP2 POP SWAP2 ADD SWAP1 CODESIZE PUSH2 0x37FF JUMP JUMPDEST PUSH1 0x4 SWAP2 POP SWAP2 ADD SWAP1 CODESIZE PUSH2 0x37F4 JUMP JUMPDEST PUSH1 0x8 SWAP2 POP SWAP2 ADD SWAP1 CODESIZE PUSH2 0x37E9 JUMP JUMPDEST PUSH1 0x10 SWAP2 POP SWAP2 ADD SWAP1 CODESIZE PUSH2 0x37DE JUMP JUMPDEST PUSH1 0x20 SWAP2 POP SWAP2 ADD SWAP1 CODESIZE PUSH2 0x37D3 JUMP JUMPDEST PUSH1 0x40 SWAP2 POP SWAP2 ADD SWAP1 CODESIZE PUSH2 0x37C8 JUMP JUMPDEST SWAP2 POP POP PUSH1 0x80 SWAP1 CODESIZE PUSH2 0x37BD JUMP JUMPDEST POP PUSH1 0x0 SWAP1 JUMP JUMPDEST SWAP1 DUP1 DUP3 LT ISZERO PUSH2 0x38D8 JUMPI POP SWAP1 JUMP JUMPDEST SWAP1 POP SWAP1 JUMP JUMPDEST PUSH1 0x1 PUSH1 0x1 PUSH1 0xE0 SHL SUB SWAP1 DUP2 DUP2 GT PUSH2 0x38F1 JUMPI AND SWAP1 JUMP JUMPDEST PUSH1 0x40 MLOAD PUSH3 0x461BCD PUSH1 0xE5 SHL DUP2 MSTORE PUSH1 0x20 PUSH1 0x4 DUP3 ADD MSTORE PUSH1 0x27 PUSH1 0x24 DUP3 ADD MSTORE PUSH32 0x53616665436173743A2076616C756520646F65736E27742066697420696E2032 PUSH1 0x44 DUP3 ADD MSTORE PUSH7 0x32342062697473 PUSH1 0xC8 SHL PUSH1 0x64 DUP3 ADD MSTORE PUSH1 0x84 SWAP1 REVERT JUMPDEST PUSH6 0xFFFFFFFFFFFF SWAP1 DUP2 DUP2 GT PUSH2 0x3959 JUMPI AND SWAP1 JUMP JUMPDEST PUSH1 0x40 MLOAD PUSH3 0x461BCD PUSH1 0xE5 SHL DUP2 MSTORE PUSH1 0x20 PUSH1 0x4 DUP3 ADD MSTORE PUSH1 0x26 PUSH1 0x24 DUP3 ADD MSTORE PUSH32 0x53616665436173743A2076616C756520646F65736E27742066697420696E2034 PUSH1 0x44 DUP3 ADD MSTORE PUSH6 0x382062697473 PUSH1 0xD0 SHL PUSH1 0x64 DUP3 ADD MSTORE PUSH1 0x84 SWAP1 REVERT JUMPDEST PUSH4 0xFFFFFFFF SWAP1 DUP2 DUP2 GT PUSH2 0x39BE JUMPI AND SWAP1 JUMP JUMPDEST PUSH1 0x40 MLOAD PUSH3 0x461BCD PUSH1 0xE5 SHL DUP2 MSTORE PUSH1 0x20 PUSH1 0x4 DUP3 ADD MSTORE PUSH1 0x26 PUSH1 0x24 DUP3 ADD MSTORE PUSH32 0x53616665436173743A2076616C756520646F65736E27742066697420696E2033 PUSH1 0x44 DUP3 ADD MSTORE PUSH6 0x322062697473 PUSH1 0xD0 SHL PUSH1 0x64 DUP3 ADD MSTORE PUSH1 0x84 SWAP1 REVERT JUMPDEST PUSH2 0x3B5D PUSH32 0x832C747AE2A7BDE86D5D19147BD5CE7024B9504050F3DCCA5F0D9F61CD75E23 SWAP4 SWAP6 SWAP7 SWAP3 SWAP7 PUSH2 0x3A43 PUSH2 0x24DF JUMP JUMPDEST PUSH2 0x3A51 PUSH1 0x12 SLOAD DUP9 LT ISZERO PUSH2 0x3B63 JUMP JUMPDEST PUSH2 0x3A5D DUP9 MLOAD ISZERO ISZERO PUSH2 0x3BAF JUMP JUMPDEST PUSH2 0x3A69 DUP7 MLOAD ISZERO ISZERO PUSH2 0x3BFB JUMP JUMPDEST PUSH2 0x3A75 DUP5 MLOAD ISZERO ISZERO PUSH2 0x3C40 JUMP JUMPDEST PUSH2 0x3AFC PUSH2 0x3A83 PUSH1 0x10 SLOAD PUSH2 0x2690 JUMP JUMPDEST SWAP9 DUP10 SWAP8 PUSH2 0x3A91 DUP8 DUP6 DUP13 PUSH2 0x402D JUMP JUMPDEST PUSH2 0x3A99 PUSH2 0x6D8 JUMP JUMPDEST DUP11 DUP2 MSTORE PUSH1 0x1 PUSH1 0x1 PUSH1 0xA0 SHL SUB DUP9 AND PUSH1 0x20 DUP3 ADD MSTORE SWAP3 PUSH1 0x40 DUP5 ADD MSTORE DUP11 PUSH1 0x60 DUP5 ADD MSTORE PUSH1 0x80 DUP4 ADD MSTORE TIMESTAMP PUSH1 0xA0 DUP4 ADD MSTORE PUSH1 0x0 PUSH1 0xC0 DUP4 ADD MSTORE PUSH1 0xE0 DUP3 ADD MSTORE PUSH2 0x3ADC DUP4 PUSH2 0x100 DUP4 ADD PUSH2 0x3C81 JUMP JUMPDEST DUP6 PUSH2 0x120 DUP3 ADD MSTORE PUSH2 0x3AF7 DUP9 PUSH1 0x0 MSTORE PUSH1 0x18 PUSH1 0x20 MSTORE PUSH1 0x40 PUSH1 0x0 KECCAK256 SWAP1 JUMP JUMPDEST PUSH2 0x3DC7 JUMP JUMPDEST PUSH1 0x1 PUSH1 0x1 PUSH1 0xA0 SHL SUB DUP4 AND PUSH1 0x0 SWAP1 DUP2 MSTORE PUSH1 0x1A PUSH1 0x20 MSTORE PUSH1 0x40 SWAP1 KECCAK256 PUSH2 0x3B24 SWAP1 DUP8 SWAP1 PUSH2 0x3E7A JUMP JUMPDEST PUSH2 0x3E7A JUMP JUMPDEST PUSH2 0x3B31 DUP7 PUSH2 0x3B1F DUP7 PUSH2 0xE7F JUMP JUMPDEST PUSH2 0x3B44 PUSH2 0x3B3F PUSH1 0x10 SLOAD PUSH2 0x3EAF JUMP JUMPDEST PUSH1 0x10 SSTORE JUMP JUMPDEST PUSH1 0x40 MLOAD PUSH1 0x1 PUSH1 0x1 PUSH1 0xA0 SHL SUB SWAP1 SWAP4 AND SWAP7 SWAP3 SWAP4 DUP5 SWAP4 DUP5 PUSH2 0x3EBE JUMP JUMPDEST SUB SWAP1 LOG3 SWAP1 JUMP JUMPDEST ISZERO PUSH2 0x3B6A JUMPI JUMP JUMPDEST PUSH1 0x40 MLOAD PUSH3 0x461BCD PUSH1 0xE5 SHL DUP2 MSTORE PUSH1 0x20 PUSH1 0x4 DUP3 ADD MSTORE PUSH1 0x1C PUSH1 0x24 DUP3 ADD MSTORE PUSH32 0x50726F70657274792076616C75652062656C6F77206D696E696D756D00000000 PUSH1 0x44 DUP3 ADD MSTORE PUSH1 0x64 SWAP1 REVERT JUMPDEST ISZERO PUSH2 0x3BB6 JUMPI JUMP JUMPDEST PUSH1 0x40 MLOAD PUSH3 0x461BCD PUSH1 0xE5 SHL DUP2 MSTORE PUSH1 0x20 PUSH1 0x4 DUP3 ADD MSTORE PUSH1 0x19 PUSH1 0x24 DUP3 ADD MSTORE PUSH32 0x50726F7065727479206164647265737320726571756972656400000000000000 PUSH1 0x44 DUP3 ADD MSTORE PUSH1 0x64 SWAP1 REVERT JUMPDEST ISZERO PUSH2 0x3C02 JUMPI JUMP JUMPDEST PUSH1 0x40 MLOAD PUSH3 0x461BCD PUSH1 0xE5 SHL DUP2 MSTORE PUSH1 0x20 PUSH1 0x4 DUP3 ADD MSTORE PUSH1 0x16 PUSH1 0x24 DUP3 ADD MSTORE PUSH22 0x111BD8DD5B595B9D081A185CDA081C995C5D5A5C9959 PUSH1 0x52 SHL PUSH1 0x44 DUP3 ADD MSTORE PUSH1 0x64 SWAP1 REVERT JUMPDEST ISZERO PUSH2 0x3C47 JUMPI JUMP JUMPDEST PUSH1 0x40 MLOAD PUSH3 0x461BCD PUSH1 0xE5 SHL DUP2 MSTORE PUSH1 0x20 PUSH1 0x4 DUP3 ADD MSTORE PUSH1 0x12 PUSH1 0x24 DUP3 ADD MSTORE PUSH18 0x10DA5D1E4818DBD919481C995C5D5A5C9959 PUSH1 0x72 SHL PUSH1 0x44 DUP3 ADD MSTORE PUSH1 0x64 SWAP1 REVERT JUMPDEST PUSH2 0x3C8A DUP3 PUSH2 0xAB1 JUMP JUMPDEST MSTORE JUMP JUMPDEST SWAP1 PUSH1 0x1F DUP2 GT PUSH2 0x3C9B JUMPI POP POP POP JUMP JUMPDEST PUSH1 0x0 SWAP2 DUP3 MSTORE PUSH1 0x20 DUP3 KECCAK256 SWAP1 PUSH1 0x20 PUSH1 0x1F DUP6 ADD PUSH1 0x5 SHR DUP4 ADD SWAP5 LT PUSH2 0x3CD7 JUMPI JUMPDEST PUSH1 0x1F ADD PUSH1 0x5 SHR ADD SWAP2 JUMPDEST DUP3 DUP2 LT PUSH2 0x3CCC JUMPI POP POP POP JUMP JUMPDEST DUP2 DUP2 SSTORE PUSH1 0x1 ADD PUSH2 0x3CC0 JUMP JUMPDEST SWAP1 SWAP3 POP DUP3 SWAP1 PUSH2 0x3CB7 JUMP JUMPDEST SWAP2 SWAP1 SWAP2 DUP3 MLOAD PUSH1 0x1 PUSH1 0x1 PUSH1 0x40 SHL SUB DUP2 GT PUSH2 0x66D JUMPI PUSH2 0x3D08 DUP2 PUSH2 0x3D02 DUP5 SLOAD PUSH2 0x2129 JUMP JUMPDEST DUP5 PUSH2 0x3C8D JUMP JUMPDEST PUSH1 0x20 DUP1 PUSH1 0x1F DUP4 GT PUSH1 0x1 EQ PUSH2 0x3D44 JUMPI POP DUP2 SWAP3 SWAP4 SWAP5 PUSH1 0x0 SWAP3 PUSH2 0x3D39 JUMPI JUMPDEST POP POP DUP2 PUSH1 0x1 SHL SWAP2 PUSH1 0x0 NOT SWAP1 PUSH1 0x3 SHL SHR NOT AND OR SWAP1 SSTORE JUMP JUMPDEST ADD MLOAD SWAP1 POP CODESIZE DUP1 PUSH2 0x3D23 JUMP JUMPDEST SWAP1 PUSH1 0x1F NOT DUP4 AND SWAP6 PUSH2 0x3D5A DUP6 PUSH1 0x0 MSTORE PUSH1 0x20 PUSH1 0x0 KECCAK256 SWAP1 JUMP JUMPDEST SWAP3 PUSH1 0x0 SWAP1 JUMPDEST DUP9 DUP3 LT PUSH2 0x3D97 JUMPI POP POP DUP4 PUSH1 0x1 SWAP6 SWAP7 SWAP8 LT PUSH2 0x3D7E JUMPI JUMPDEST POP POP POP DUP2 SHL ADD SWAP1 SSTORE JUMP JUMPDEST ADD MLOAD PUSH1 0x0 NOT PUSH1 0xF8 DUP5 PUSH1 0x3 SHL AND SHR NOT AND SWAP1 SSTORE CODESIZE DUP1 DUP1 PUSH2 0x3D74 JUMP JUMPDEST DUP1 PUSH1 0x1 DUP6 SWAP7 DUP3 SWAP5 SWAP7 DUP7 ADD MLOAD DUP2 SSTORE ADD SWAP6 ADD SWAP4 ADD SWAP1 PUSH2 0x3D5F JUMP JUMPDEST SWAP1 PUSH2 0x3DB9 DUP2 PUSH2 0xAB1 JUMP JUMPDEST PUSH1 0xFF DUP1 NOT DUP4 SLOAD AND SWAP2 AND OR SWAP1 SSTORE JUMP JUMPDEST DUP2 MLOAD DUP2 SSTORE PUSH1 0x20 DUP3 ADD MLOAD PUSH1 0x1 DUP3 ADD DUP1 SLOAD PUSH1 0x1 PUSH1 0x1 PUSH1 0xA0 SHL SUB NOT AND PUSH1 0x1 PUSH1 0x1 PUSH1 0xA0 SHL SUB SWAP1 SWAP3 AND SWAP2 SWAP1 SWAP2 OR SWAP1 SSTORE PUSH2 0x6D6 SWAP2 PUSH1 0x9 SWAP1 PUSH2 0x120 SWAP1 PUSH2 0x3E0D PUSH1 0x40 DUP3 ADD MLOAD PUSH1 0x2 DUP7 ADD PUSH2 0x3CE1 JUMP JUMPDEST PUSH1 0x60 DUP2 ADD MLOAD PUSH1 0x3 DUP6 ADD SSTORE PUSH1 0x80 DUP2 ADD MLOAD PUSH1 0x4 DUP6 ADD SSTORE PUSH1 0xA0 DUP2 ADD MLOAD PUSH1 0x5 DUP6 ADD SSTORE PUSH2 0x3E45 PUSH1 0xC0 DUP3 ADD MLOAD PUSH2 0x3E3C DUP2 PUSH2 0xAB1 JUMP JUMPDEST PUSH1 0x6 DUP7 ADD PUSH2 0x3DAF JUMP JUMPDEST PUSH2 0x3E56 PUSH1 0xE0 DUP3 ADD MLOAD PUSH1 0x7 DUP7 ADD PUSH2 0x3CE1 JUMP JUMPDEST PUSH2 0x3E71 PUSH2 0x100 DUP3 ADD MLOAD PUSH2 0x3E68 DUP2 PUSH2 0xAB1 JUMP JUMPDEST PUSH1 0x8 DUP7 ADD PUSH2 0x3DAF JUMP JUMPDEST ADD MLOAD SWAP2 ADD PUSH2 0x3CE1 JUMP JUMPDEST DUP1 SLOAD PUSH1 0x1 PUSH1 0x40 SHL DUP2 LT ISZERO PUSH2 0x66D JUMPI PUSH2 0x3E97 SWAP2 PUSH1 0x1 DUP3 ADD DUP2 SSTORE PUSH2 0x1994 JUMP JUMPDEST DUP2 SWAP3 SWAP2 SLOAD SWAP1 PUSH1 0x3 SHL SWAP2 DUP3 SHL SWAP2 PUSH1 0x0 NOT SWAP1 SHL NOT AND OR SWAP1 SSTORE JUMP JUMPDEST PUSH1 0x0 NOT DUP2 EQ PUSH2 0xCEC JUMPI PUSH1 0x1 ADD SWAP1 JUMP JUMPDEST SWAP4 SWAP3 SWAP2 PUSH2 0x3EDB SWAP1 PUSH1 0x40 SWAP3 DUP7 MSTORE PUSH1 0x60 PUSH1 0x20 DUP8 ADD MSTORE PUSH1 0x60 DUP7 ADD SWAP1 PUSH2 0x485 JUMP JUMPDEST SWAP4 PUSH2 0x3EE5 DUP4 PUSH2 0xAB1 JUMP JUMPDEST ADD MSTORE JUMP JUMPDEST ISZERO PUSH2 0x3EF0 JUMPI JUMP JUMPDEST PUSH1 0x40 MLOAD PUSH3 0x461BCD PUSH1 0xE5 SHL DUP2 MSTORE PUSH1 0x20 PUSH1 0x4 DUP3 ADD MSTORE PUSH1 0x17 PUSH1 0x24 DUP3 ADD MSTORE PUSH32 0x50726F706572747920646F6573206E6F74206578697374000000000000000000 PUSH1 0x44 DUP3 ADD MSTORE PUSH1 0x64 SWAP1 REVERT JUMPDEST ISZERO PUSH2 0x3F3C JUMPI JUMP JUMPDEST PUSH1 0x40 MLOAD PUSH3 0x461BCD PUSH1 0xE5 SHL DUP2 MSTORE PUSH1 0x20 PUSH1 0x4 DUP3 ADD MSTORE PUSH1 0x14 PUSH1 0x24 DUP3 ADD MSTORE PUSH20 0x50726F7065727479206E6F742070656E64696E67 PUSH1 0x60 SHL PUSH1 0x44 DUP3 ADD MSTORE PUSH1 0x64 SWAP1 REVERT JUMPDEST PUSH1 0x0 SWAP3 SWAP2 DUP2 SLOAD PUSH2 0x3F87 DUP2 PUSH2 0x2129 JUMP JUMPDEST SWAP3 PUSH1 0x1 SWAP2 DUP1 DUP4 AND SWAP1 DUP2 ISZERO PUSH2 0x3FDF JUMPI POP PUSH1 0x1 EQ PUSH2 0x3FA3 JUMPI POP POP POP POP JUMP JUMPDEST SWAP1 SWAP2 SWAP3 SWAP4 SWAP5 POP PUSH1 0x0 MSTORE PUSH1 0x20 SWAP1 DUP2 PUSH1 0x0 KECCAK256 SWAP1 PUSH1 0x0 SWAP2 JUMPDEST DUP6 DUP4 LT PUSH2 0x3FCE JUMPI POP POP POP POP ADD SWAP1 CODESIZE DUP1 DUP1 DUP1 PUSH2 0x2190 JUMP JUMPDEST DUP1 SLOAD DUP6 DUP5 ADD MSTORE SWAP2 DUP4 ADD SWAP2 DUP2 ADD PUSH2 0x3FB8 JUMP JUMPDEST PUSH1 0xFF NOT AND DUP5 MSTORE POP POP POP DUP2 ISZERO ISZERO SWAP1 SWAP2 MUL ADD SWAP2 POP CODESIZE DUP1 DUP1 DUP1 PUSH2 0x2190 JUMP JUMPDEST PUSH1 0x20 PUSH2 0x400C SWAP2 PUSH1 0x40 MLOAD SWAP3 DUP4 DUP1 SWAP3 PUSH2 0x3F78 JUMP JUMPDEST PUSH1 0x15 DUP2 MSTORE SUB ADD SWAP1 KECCAK256 SWAP1 JUMP JUMPDEST PUSH2 0x4027 SWAP1 PUSH1 0x40 MLOAD SWAP2 DUP3 DUP1 SWAP3 PUSH2 0x3F78 JUMP JUMPDEST SUB SWAP1 KECCAK256 SWAP1 JUMP JUMPDEST SWAP2 SWAP1 SWAP2 PUSH1 0xF SLOAD SWAP1 DUP2 ISZERO PUSH2 0x40B1 JUMPI PUSH8 0xDE0B6B3A7640000 SWAP2 DUP3 DUP3 MUL SWAP2 DUP1 DUP4 DIV DUP5 EQ DUP2 ISZERO OR ISZERO PUSH2 0xCEC JUMPI DUP2 ADD DUP1 SWAP2 GT PUSH2 0xCEC JUMPI PUSH2 0x406E PUSH2 0x4074 SWAP2 PUSH2 0x407A SWAP4 PUSH2 0x3756 JUMP JUMPDEST SWAP5 PUSH2 0x40C3 JUMP JUMPDEST SWAP3 PUSH2 0x410C JUMP JUMPDEST SWAP1 PUSH12 0x295BE96E640669720000000 SWAP4 DUP1 DUP6 MUL SWAP5 DUP6 DIV SUB PUSH2 0xCEC JUMPI PUSH2 0x40A7 PUSH2 0x40AD SWAP4 PUSH1 0x64 SWAP6 SWAP3 DUP7 SWAP4 DIV PUSH2 0x302D JUMP JUMPDEST DIV PUSH2 0x302D JUMP JUMPDEST DIV SWAP1 JUMP JUMPDEST POP POP POP POP PUSH10 0xA968163F0A57B4000000 SWAP1 JUMP JUMPDEST PUSH2 0x40CC DUP2 PUSH2 0xAB1 JUMP JUMPDEST PUSH1 0x1 DUP2 EQ PUSH2 0x4106 JUMPI PUSH2 0x40DD DUP2 PUSH2 0xAB1 JUMP JUMPDEST PUSH1 0x2 DUP2 EQ PUSH2 0x4100 JUMPI DUP1 PUSH2 0x40F1 PUSH1 0x4 SWAP3 PUSH2 0xAB1 JUMP JUMPDEST EQ PUSH2 0x40FB JUMPI PUSH1 0x64 SWAP1 JUMP JUMPDEST PUSH1 0x69 SWAP1 JUMP JUMPDEST POP PUSH1 0x6E SWAP1 JUMP JUMPDEST POP PUSH1 0x78 SWAP1 JUMP JUMPDEST PUSH1 0x40 MLOAD PUSH2 0x4121 DUP2 PUSH2 0x24B5 PUSH1 0x20 DUP3 ADD DUP1 SWAP6 PUSH2 0xE42 JUMP JUMPDEST MLOAD SWAP1 KECCAK256 PUSH32 0x7565306C94E19FFADAC91FF9491E0465BEF48E2CE66079D3919A2E836C66CAA2 DUP2 EQ DUP1 ISZERO PUSH2 0x4274 JUMPI JUMPDEST PUSH2 0x426E JUMPI PUSH32 0x7CE7AD787564A1A5B2DE3174219D55C76367C05413FF67E2AC4F0A6973BBA8A1 DUP2 EQ DUP1 ISZERO PUSH2 0x4245 JUMPI JUMPDEST DUP1 ISZERO PUSH2 0x421C JUMPI JUMPDEST PUSH2 0x4106 JUMPI PUSH32 0xA3AE6309D53D0EE7FD725A7482DA89C8DCFEAA89A4055F51C2ABC6B9C8F1D125 DUP2 EQ SWAP1 DUP2 ISZERO PUSH2 0x41F2 JUMPI JUMPDEST DUP2 ISZERO PUSH2 0x41C8 JUMPI JUMPDEST POP PUSH2 0x41C3 JUMPI PUSH1 0x64 SWAP1 JUMP JUMPDEST PUSH1 0x6E SWAP1 JUMP JUMPDEST PUSH32 0xF4AF7C06580393535C4E6C30AEE4FF474F581B4EB6C2D2978966F968ADCB9906 SWAP2 POP EQ CODESIZE PUSH2 0x41B9 JUMP JUMPDEST PUSH32 0x2537590685E5F7AD8BA473DE672BF96E801B06932EF9C77FB3149BFF0CEA9838 DUP2 EQ SWAP2 POP PUSH2 0x41B2 JUMP JUMPDEST POP PUSH32 0xEED53DAFF12195494D0431C39FB1CC2078F56D22FC6D23C90B756F2F793948E2 DUP2 EQ PUSH2 0x4183 JUMP JUMPDEST POP PUSH32 0x5ABA46F92E1186CA90D5093E19B47D6D21597A958EAEF4AF9EF7CD8052982F5 DUP2 EQ PUSH2 0x417C JUMP JUMPDEST POP PUSH1 0x82 SWAP1 JUMP JUMPDEST POP PUSH32 0x342E1B7D20F92E33BA7C6EBEF5A7B50EBB59F7C23ABDD1D63DD414420AB3C560 DUP2 EQ PUSH2 0x414E JUMP JUMPDEST PUSH1 0x40 MLOAD SWAP1 PUSH2 0x42AA DUP3 PUSH2 0x652 JUMP JUMPDEST PUSH1 0x3 DUP3 MSTORE PUSH3 0x4D554D PUSH1 0xE8 SHL PUSH1 0x20 DUP4 ADD MSTORE JUMP JUMPDEST PUSH1 0x40 MLOAD SWAP1 PUSH2 0x42C9 DUP3 PUSH2 0x652 JUMP JUMPDEST PUSH1 0x3 DUP3 MSTORE PUSH3 0x111153 PUSH1 0xEA SHL PUSH1 0x20 DUP4 ADD MSTORE JUMP JUMPDEST PUSH1 0x40 MLOAD SWAP1 PUSH2 0x42E8 DUP3 PUSH2 0x652 JUMP JUMPDEST PUSH1 0x4 DUP3 MSTORE PUSH4 0x42414E47 PUSH1 0xE0 SHL PUSH1 0x20 DUP4 ADD MSTORE JUMP JUMPDEST PUSH1 0x40 MLOAD SWAP1 PUSH2 0x4308 DUP3 PUSH2 0x652 JUMP JUMPDEST PUSH1 0x4 DUP3 MSTORE PUSH4 0x21A422A7 PUSH1 0xE1 SHL PUSH1 0x20 DUP4 ADD MSTORE JUMP JUMPDEST PUSH1 0x40 MLOAD SWAP1 PUSH2 0x4328 DUP3 PUSH2 0x652 JUMP JUMPDEST PUSH1 0x3 DUP3 MSTORE PUSH3 0x121651 PUSH1 0xEA SHL PUSH1 0x20 DUP4 ADD MSTORE JUMP JUMPDEST PUSH1 0x40 MLOAD SWAP1 PUSH2 0x4347 DUP3 PUSH2 0x652 JUMP JUMPDEST PUSH1 0x3 DUP3 MSTORE PUSH3 0x282AA7 PUSH1 0xE9 SHL PUSH1 0x20 DUP4 ADD MSTORE JUMP JUMPDEST SWAP1 PUSH1 0x6 DUP2 LT ISZERO PUSH2 0x19AC JUMPI PUSH1 0x5 SHL ADD SWAP1 JUMP JUMPDEST PUSH1 0xF SLOAD SWAP1 DUP2 ISZERO PUSH2 0x44A5 JUMPI PUSH1 0x0 PUSH2 0x437E PUSH2 0x6F8 JUMP JUMPDEST PUSH2 0x4386 PUSH2 0x429D JUMP JUMPDEST DUP2 MSTORE PUSH2 0x4390 PUSH2 0x42BC JUMP JUMPDEST PUSH1 0x20 DUP3 ADD MSTORE PUSH2 0x439D PUSH2 0x42DB JUMP JUMPDEST PUSH1 0x40 DUP3 ADD MSTORE PUSH2 0x43AA PUSH2 0x42FB JUMP JUMPDEST PUSH1 0x60 DUP3 ADD MSTORE PUSH2 0x43B7 PUSH2 0x431B JUMP JUMPDEST PUSH1 0x80 DUP3 ADD MSTORE PUSH2 0x43C4 PUSH2 0x433A JUMP JUMPDEST PUSH1 0xA0 DUP3 ADD MSTORE DUP2 JUMPDEST PUSH1 0x6 DUP2 LT PUSH2 0x444C JUMPI POP POP PUSH1 0x0 SWAP1 DUP2 JUMPDEST PUSH1 0x5 DUP2 LT PUSH2 0x43EE JUMPI POP PUSH2 0x4BB SWAP3 SWAP4 POP PUSH2 0x26CA JUMP JUMPDEST PUSH2 0x43F7 DUP2 PUSH2 0xAB1 JUMP JUMPDEST PUSH2 0x440D DUP6 PUSH2 0x11CB PUSH2 0x4407 DUP5 PUSH2 0x1BEC JUMP JUMPDEST SLOAD PUSH2 0x3017 JUMP JUMPDEST DUP1 ISZERO ISZERO SWAP1 DUP2 PUSH2 0x4440 JUMPI JUMPDEST POP PUSH2 0x442B JUMPI JUMPDEST PUSH2 0x4426 SWAP1 PUSH2 0x3EAF JUMP JUMPDEST PUSH2 0x43DA JUMP JUMPDEST SWAP2 PUSH2 0x4438 PUSH2 0x4426 SWAP2 PUSH2 0x26BC JUMP JUMPDEST SWAP3 SWAP1 POP PUSH2 0x441D JUMP JUMPDEST PUSH1 0x28 SWAP2 POP GT ISZERO CODESIZE PUSH2 0x4417 JUMP JUMPDEST PUSH2 0x4466 DUP6 PUSH2 0x11CB PUSH2 0x4407 PUSH2 0x4460 DUP6 DUP8 PUSH2 0x4359 JUMP JUMPDEST MLOAD PUSH2 0xE59 JUMP JUMPDEST DUP1 ISZERO ISZERO SWAP1 DUP2 PUSH2 0x4499 JUMPI JUMPDEST POP PUSH2 0x4484 JUMPI JUMPDEST PUSH2 0x447F SWAP1 PUSH2 0x3EAF JUMP JUMPDEST PUSH2 0x43CB JUMP JUMPDEST SWAP2 PUSH2 0x4491 PUSH2 0x447F SWAP2 PUSH2 0x26AE JUMP JUMPDEST SWAP3 SWAP1 POP PUSH2 0x4476 JUMP JUMPDEST PUSH1 0x1E SWAP2 POP GT ISZERO CODESIZE PUSH2 0x4470 JUMP JUMPDEST PUSH1 0x0 SWAP2 POP JUMP JUMPDEST ISZERO PUSH2 0x44B2 JUMPI JUMP JUMPDEST PUSH1 0x40 MLOAD PUSH3 0x461BCD PUSH1 0xE5 SHL DUP2 MSTORE PUSH1 0x20 PUSH1 0x4 DUP3 ADD MSTORE PUSH1 0xE PUSH1 0x24 DUP3 ADD MSTORE PUSH14 0x139BC81D1BDAD95B9CC81A195B19 PUSH1 0x92 SHL PUSH1 0x44 DUP3 ADD MSTORE PUSH1 0x64 SWAP1 REVERT JUMPDEST ISZERO PUSH2 0x44EF JUMPI JUMP JUMPDEST PUSH1 0x40 MLOAD PUSH3 0x461BCD PUSH1 0xE5 SHL DUP2 MSTORE PUSH1 0x20 PUSH1 0x4 DUP3 ADD MSTORE PUSH1 0x16 PUSH1 0x24 DUP3 ADD MSTORE PUSH22 0x4E6F206469766964656E647320617661696C61626C65 PUSH1 0x50 SHL PUSH1 0x44 DUP3 ADD MSTORE PUSH1 0x64 SWAP1 REVERT JUMPDEST PUSH1 0x2 SLOAD DUP1 ISZERO PUSH2 0x38C5 JUMPI PUSH1 0xF SLOAD SWAP1 PUSH8 0xDE0B6B3A7640000 SWAP2 DUP3 DUP2 MUL SWAP3 DUP2 DUP5 DIV EQ SWAP1 ISZERO OR ISZERO PUSH2 0xCEC JUMPI PUSH2 0x4BB SWAP2 PUSH2 0x3756 JUMP JUMPDEST PUSH1 0xFF PUSH1 0xD SLOAD AND PUSH2 0x4569 JUMPI JUMP JUMPDEST PUSH1 0x40 MLOAD PUSH3 0x461BCD PUSH1 0xE5 SHL DUP2 MSTORE PUSH1 0x20 PUSH1 0x4 DUP3 ADD MSTORE PUSH1 0x10 PUSH1 0x24 DUP3 ADD MSTORE PUSH16 0x14185D5CD8589B194E881C185D5CD959 PUSH1 0x82 SHL PUSH1 0x44 DUP3 ADD MSTORE PUSH1 0x64 SWAP1 REVERT JUMPDEST PUSH1 0x9 PUSH1 0x20 MSTORE PUSH32 0xEC8156718A8372B1DB44BB411437D0870F3E3790D4A08526D024CE1B0B668F6B SLOAD PUSH1 0x1 PUSH1 0x1 PUSH1 0xA0 SHL SUB SWAP2 DUP3 AND PUSH1 0x0 SWAP1 DUP2 MSTORE PUSH1 0x40 SWAP1 KECCAK256 SLOAD PUSH2 0x6D6 SWAP4 SWAP3 SWAP1 DUP2 AND SWAP2 AND PUSH2 0x2B51 JUMP JUMPDEST PUSH1 0x1 PUSH1 0x1 PUSH1 0xA0 SHL SUB SWAP1 DUP2 AND PUSH1 0x0 SWAP1 DUP2 MSTORE PUSH1 0x9 PUSH1 0x20 MSTORE PUSH1 0x40 DUP1 DUP3 KECCAK256 SLOAD SWAP4 DUP4 AND DUP3 MSTORE SWAP1 KECCAK256 SLOAD PUSH2 0x6D6 SWAP4 SWAP3 SWAP1 DUP3 AND SWAP2 AND PUSH2 0x2B51 JUMP JUMPDEST ISZERO PUSH2 0x4625 JUMPI JUMP JUMPDEST PUSH1 0x40 MLOAD PUSH3 0x461BCD PUSH1 0xE5 SHL DUP2 MSTORE PUSH1 0x20 PUSH1 0x4 DUP3 ADD MSTORE PUSH1 0x30 PUSH1 0x24 DUP3 ADD MSTORE PUSH32 0x4552433230566F7465733A20746F74616C20737570706C79207269736B73206F PUSH1 0x44 DUP3 ADD MSTORE PUSH16 0x766572666C6F77696E6720766F746573 PUSH1 0x80 SHL PUSH1 0x64 DUP3 ADD MSTORE PUSH1 0x84 SWAP1 REVERT JUMPDEST SWAP1 PUSH1 0x1 PUSH1 0x1 PUSH1 0xA0 SHL SUB DUP3 AND DUP1 ISZERO PUSH2 0x4726 JUMPI PUSH2 0x469C PUSH2 0x455D JUMP JUMPDEST PUSH1 0x2 SLOAD DUP3 DUP2 ADD DUP1 SWAP2 GT PUSH2 0xCEC JUMPI PUSH2 0x4722 SWAP4 PUSH2 0x4707 SWAP3 PUSH2 0x46BB DUP6 SWAP4 PUSH1 0x2 SSTORE JUMP JUMPDEST PUSH1 0x1 PUSH1 0x1 PUSH1 0xA0 SHL SUB DUP3 AND PUSH1 0x0 SWAP1 DUP2 MSTORE PUSH1 0x20 DUP2 DUP2 MSTORE PUSH1 0x40 DUP1 DUP4 KECCAK256 DUP1 SLOAD DUP8 ADD SWAP1 SSTORE MLOAD DUP6 DUP2 MSTORE PUSH32 0xDDF252AD1BE2C89B69C2B068FC378DAA952BA7F163C4A11628F55A4DF523B3EF SWAP2 SWAP1 LOG3 PUSH2 0x45A1 JUMP JUMPDEST PUSH1 0x2 SLOAD PUSH2 0x471D SWAP1 PUSH1 0x1 PUSH1 0x1 PUSH1 0xE0 SHL SUB LT ISZERO PUSH2 0x461E JUMP JUMPDEST PUSH2 0x2EE6 JUMP JUMPDEST POP POP JUMP JUMPDEST PUSH1 0x40 MLOAD PUSH3 0x461BCD PUSH1 0xE5 SHL DUP2 MSTORE PUSH1 0x20 PUSH1 0x4 DUP3 ADD MSTORE PUSH1 0x1F PUSH1 0x24 DUP3 ADD MSTORE PUSH32 0x45524332303A206D696E7420746F20746865207A65726F206164647265737300 PUSH1 0x44 DUP3 ADD MSTORE PUSH1 0x64 SWAP1 REVERT JUMPDEST SWAP1 DUP2 SUB SWAP1 DUP2 GT PUSH2 0xCEC JUMPI SWAP1 JUMP JUMPDEST SWAP1 DUP2 ADD DUP1 SWAP2 GT PUSH2 0xCEC JUMPI SWAP1 JUMP INVALID LOG2 PUSH5 0x6970667358 0x22 SLT KECCAK256 0x49 0x4A 0xCC AND 0xF9 0xEE 0x2E AND 0xEE SWAP13 0xAC EQ SWAP16 GASPRICE DUP13 EXTCODECOPY 0xB4 0x4C PC 0xC1 0xDE PUSH1 0xAE 0x5D RETURN SWAP5 0xDD 0xE8 LOG0 0xC5 0xCD JUMP PUSH5 0x736F6C6343 STOP ADDMOD SGT STOP CALLER 0x2F DUP8 DUP9 GT PUSH31 0x7EFF1D82E926EC794901D17C78024A50270940304540A733656F0DDEC2BACD 0xD2 CREATE JUMPDEST MSIZE 0xDE CALLVALUE 0xDA SWAP12 MSTORE RETURNDATASIZE SELFDESTRUCT DUP12 0xE4 0x2E 0x5E CODESIZE 0xE8 XOR 0xC8 0x2F 0xDB SIGNEXTEND 0xAE PUSH24 0x4387A7240000000000000000000000000000000000000000 "},"methodIdentifiers":{"ADMIN_ROLE()":"75b238fc","CLOCK_MODE()":"4bf5d7e9","DEFAULT_ADMIN_ROLE()":"a217fddf","DOMAIN_SEPARATOR()":"3644e515","MAX_SUPPLY()":"32cb6b0c","PROPERTY_MANAGER_ROLE()":"47e64656","VALUER_ROLE()":"126063ac","addProperty(address,string,uint256,string,uint8,string)":"0fdb0c7d","allowance(address,address)":"dd62ed3e","approve(address,uint256)":"095ea7b3","approveProperty(uint256)":"e9b66f8c","balanceOf(address)":"70a08231","calculateDiversificationScore()":"5909d3c5","calculateTokenAllocation(uint256,uint8,string)":"f366819d","categoryValues(uint8)":"cb653aaa","checkpoints(address,uint32)":"f1127ed8","cityPoolValues(string)":"3cb96391","cityProperties(string,uint256)":"bf645e82","claimAllAvailableDividends()":"732fb0ed","clock()":"91ddadf4","currentDividendPeriod()":"5981b7c0","currentPropertyCount()":"0e4d51ec","decimals()":"313ce567","declareDividend(string)":"fb2d4c53","decreaseAllowance(address,uint256)":"a457c2d7","delegate(address)":"5c19a95c","delegateBySig(address,uint256,uint256,uint8,bytes32,bytes32)":"c3cda520","delegates(address)":"587cde1e","dividendPeriods(uint256)":"a0326d45","eip712Domain()":"84b0196e","getCategoryBreakdown()":"b596a6bf","getCategoryMultiplier(uint8)":"1b1bddc1","getCityMultiplier(string)":"300ccb51","getCityPortfolio(string)":"c6866874","getNetAssetValue()":"6639a81d","getPastTotalSupply(uint256)":"8e539e8c","getPastVotes(address,uint256)":"3a46b1a8","getProperty(uint256)":"32665ffb","getRoleAdmin(bytes32)":"248a9ca3","getVotes(address)":"9ab24eb0","getXERAMetrics()":"8b9eaf32","grantRole(bytes32,address)":"2f2ff15d","hasRole(bytes32,address)":"91d14854","increaseAllowance(address,uint256)":"39509351","lastClaimedDividend(address)":"f2a3d623","minimumPropertyValue()":"edef638b","name()":"06fdde03","nonces(address)":"7ecebe00","numCheckpoints(address)":"6fcfff45","paused()":"5c975abb","permit(address,address,uint256,uint256,uint8,bytes32,bytes32)":"d505accf","platformFeePercentage()":"cdd78cfc","properties(uint256)":"f7b10808","renounceRole(bytes32,address)":"36568abe","reserveRatio()":"0c7d5cd8","revokeRole(bytes32,address)":"d547741f","supportsInterface(bytes4)":"01ffc9a7","symbol()":"95d89b41","totalPropertyValue()":"d7fac34b","totalSupply()":"18160ddd","transfer(address,uint256)":"a9059cbb","transferFrom(address,address,uint256)":"23b872dd","userProperties(address,uint256)":"e2271c9f"}}}}}