{"contracts/UAE/UAEDualTokenClassifier.sol":{"UAEDualTokenClassifier":{"abi":[{"inputs":[],"stateMutability":"nonpayable","type":"constructor"},{"anonymous":false,"inputs":[{"indexed":true,"internalType":"address","name":"developer","type":"address"},{"indexed":false,"internalType":"string","name":"name","type":"string"},{"indexed":false,"internalType":"enum UAEDualTokenClassifier.DeveloperTier","name":"tier","type":"uint8"},{"indexed":false,"internalType":"string","name":"reraLicense","type":"string"}],"name":"DeveloperRegistered","type":"event"},{"anonymous":false,"inputs":[{"indexed":true,"internalType":"address","name":"previousOwner","type":"address"},{"indexed":true,"internalType":"address","name":"newOwner","type":"address"}],"name":"OwnershipTransferred","type":"event"},{"anonymous":false,"inputs":[{"indexed":false,"internalType":"address","name":"account","type":"address"}],"name":"Paused","type":"event"},{"anonymous":false,"inputs":[{"indexed":true,"internalType":"uint256","name":"propertyId","type":"uint256"},{"indexed":false,"internalType":"enum UAEDualTokenClassifier.TokenType","name":"tokenType","type":"uint8"},{"indexed":false,"internalType":"uint256","name":"valueInAED","type":"uint256"},{"indexed":false,"internalType":"address","name":"developer","type":"address"},{"indexed":false,"internalType":"string","name":"zone","type":"string"}],"name":"PropertyClassified","type":"event"},{"anonymous":false,"inputs":[{"indexed":false,"internalType":"address","name":"account","type":"address"}],"name":"Unpaused","type":"event"},{"anonymous":false,"inputs":[{"indexed":false,"internalType":"string","name":"zone","type":"string"},{"indexed":false,"internalType":"bool","name":"isPremium","type":"bool"}],"name":"ZoneClassificationUpdated","type":"event"},{"inputs":[],"name":"LUXURY_THRESHOLD","outputs":[{"internalType":"uint256","name":"","type":"uint256"}],"stateMutability":"view","type":"function"},{"inputs":[],"name":"MINIMUM_COMPLIANCE_SCORE","outputs":[{"internalType":"uint256","name":"","type":"uint256"}],"stateMutability":"view","type":"function"},{"inputs":[],"name":"PROPX_MINIMUM_VALUE","outputs":[{"internalType":"uint256","name":"","type":"uint256"}],"stateMutability":"view","type":"function"},{"inputs":[],"name":"XERA_MINIMUM_VALUE","outputs":[{"internalType":"uint256","name":"","type":"uint256"}],"stateMutability":"view","type":"function"},{"inputs":[{"internalType":"string","name":"zone","type":"string"},{"internalType":"enum UAEDualTokenClassifier.UAEEmirate","name":"emirate","type":"uint8"}],"name":"addPremiumZone","outputs":[],"stateMutability":"nonpayable","type":"function"},{"inputs":[{"internalType":"enum UAEDualTokenClassifier.PropertyCategory","name":"","type":"uint8"}],"name":"categoryMultipliers","outputs":[{"internalType":"uint256","name":"","type":"uint256"}],"stateMutability":"view","type":"function"},{"inputs":[{"components":[{"internalType":"uint256","name":"valueInAED","type":"uint256"},{"internalType":"enum UAEDualTokenClassifier.UAEEmirate","name":"emirate","type":"uint8"},{"internalType":"string","name":"zone","type":"string"},{"internalType":"enum UAEDualTokenClassifier.PropertyCategory","name":"category","type":"uint8"},{"internalType":"address","name":"developer","type":"address"},{"internalType":"uint256","name":"complianceScore","type":"uint256"},{"internalType":"bool","name":"isOffPlan","type":"bool"},{"internalType":"uint256","name":"completionDate","type":"uint256"},{"internalType":"bool","name":"isVerified","type":"bool"}],"internalType":"struct UAEDualTokenClassifier.PropertyData","name":"propertyData","type":"tuple"}],"name":"classifyProperty","outputs":[{"components":[{"internalType":"enum UAEDualTokenClassifier.TokenType","name":"tokenType","type":"uint8"},{"internalType":"uint256","name":"platformFeePercent","type":"uint256"},{"internalType":"uint256","name":"minimumInvestment","type":"uint256"},{"internalType":"string[]","name":"applicableFeatures","type":"string[]"},{"internalType":"string","name":"reason","type":"string"}],"internalType":"struct UAEDualTokenClassifier.ClassificationResult","name":"result","type":"tuple"}],"stateMutability":"view","type":"function"},{"inputs":[{"internalType":"string","name":"","type":"string"}],"name":"developerByName","outputs":[{"internalType":"address","name":"","type":"address"}],"stateMutability":"view","type":"function"},{"inputs":[{"internalType":"address","name":"","type":"address"}],"name":"developers","outputs":[{"internalType":"string","name":"name","type":"string"},{"internalType":"enum UAEDualTokenClassifier.DeveloperTier","name":"tier","type":"uint8"},{"internalType":"bool","name":"isActive","type":"bool"},{"internalType":"uint256","name":"registrationDate","type":"uint256"},{"internalType":"string","name":"reraLicense","type":"string"},{"internalType":"uint256","name":"completedProjects","type":"uint256"}],"stateMutability":"view","type":"function"},{"inputs":[{"internalType":"enum UAEDualTokenClassifier.UAEEmirate","name":"","type":"uint8"},{"internalType":"uint256","name":"","type":"uint256"}],"name":"emirateZones","outputs":[{"internalType":"string","name":"","type":"string"}],"stateMutability":"view","type":"function"},{"inputs":[{"internalType":"address","name":"developer","type":"address"}],"name":"getDeveloperInfo","outputs":[{"components":[{"internalType":"string","name":"name","type":"string"},{"internalType":"enum UAEDualTokenClassifier.DeveloperTier","name":"tier","type":"uint8"},{"internalType":"enum UAEDualTokenClassifier.UAEEmirate[]","name":"operatingEmirates","type":"uint8[]"},{"internalType":"bool","name":"isActive","type":"bool"},{"internalType":"uint256","name":"registrationDate","type":"uint256"},{"internalType":"string","name":"reraLicense","type":"string"},{"internalType":"uint256","name":"completedProjects","type":"uint256"}],"internalType":"struct UAEDualTokenClassifier.DeveloperInfo","name":"","type":"tuple"}],"stateMutability":"view","type":"function"},{"inputs":[{"internalType":"enum UAEDualTokenClassifier.UAEEmirate","name":"emirate","type":"uint8"}],"name":"getEmirateZones","outputs":[{"internalType":"string[]","name":"","type":"string[]"}],"stateMutability":"view","type":"function"},{"inputs":[{"internalType":"enum UAEDualTokenClassifier.DeveloperTier","name":"tier","type":"uint8"}],"name":"getTierFee","outputs":[{"internalType":"uint256","name":"","type":"uint256"}],"stateMutability":"view","type":"function"},{"inputs":[{"internalType":"string","name":"zone","type":"string"}],"name":"isPremiumZone","outputs":[{"internalType":"bool","name":"","type":"bool"}],"stateMutability":"view","type":"function"},{"inputs":[],"name":"owner","outputs":[{"internalType":"address","name":"","type":"address"}],"stateMutability":"view","type":"function"},{"inputs":[],"name":"paused","outputs":[{"internalType":"bool","name":"","type":"bool"}],"stateMutability":"view","type":"function"},{"inputs":[{"internalType":"string","name":"","type":"string"}],"name":"premiumZones","outputs":[{"internalType":"bool","name":"","type":"bool"}],"stateMutability":"view","type":"function"},{"inputs":[{"internalType":"address","name":"developerAddress","type":"address"},{"internalType":"string","name":"name","type":"string"},{"internalType":"enum UAEDualTokenClassifier.DeveloperTier","name":"tier","type":"uint8"},{"internalType":"enum UAEDualTokenClassifier.UAEEmirate[]","name":"operatingEmirates","type":"uint8[]"},{"internalType":"string","name":"reraLicense","type":"string"}],"name":"registerDeveloper","outputs":[],"stateMutability":"nonpayable","type":"function"},{"inputs":[{"internalType":"string","name":"zone","type":"string"}],"name":"removePremiumZone","outputs":[],"stateMutability":"nonpayable","type":"function"},{"inputs":[],"name":"renounceOwnership","outputs":[],"stateMutability":"nonpayable","type":"function"},{"inputs":[{"internalType":"enum UAEDualTokenClassifier.DeveloperTier","name":"","type":"uint8"}],"name":"tierFees","outputs":[{"internalType":"uint256","name":"","type":"uint256"}],"stateMutability":"view","type":"function"},{"inputs":[{"internalType":"address","name":"newOwner","type":"address"}],"name":"transferOwnership","outputs":[],"stateMutability":"nonpayable","type":"function"},{"inputs":[{"internalType":"address","name":"developer","type":"address"},{"internalType":"enum UAEDualTokenClassifier.DeveloperTier","name":"newTier","type":"uint8"}],"name":"updateDeveloperTier","outputs":[],"stateMutability":"nonpayable","type":"function"}],"evm":{"bytecode":{"linkReferences":{},"object":"6080806040523462001ce157602e906000543360018060a01b0382167f8be0079c531659141344cd1fd0a4f28419497f9722a3daafe3b4186f6b6457e0600080a36001600160a81b0319163360ff60a01b191617600090815560967f1471eb6eb2c5e789fc3de43f8ce62938c7d1836ec861730447e2ada8fd81017b5560fa7f89832631fb3c3307a103ba2c84ab569c64d6182a18893dcd163f0f1c2090733a5561015e7fa9bc9a3a348c357ba16b37005d7e6b3236198c0e939f4af8c5f19b8deeb8ebc05560066020526127107f54cdd369e4e8a8515e52ca72ec816c2101831ad1f18bf44102ed171459c9b4f855612ee07f3e5fec24aa4dc4e5aee2e025e51e1392c72a2500577559fae9665c6d52bd6a3155612af87f8819ef417987f8ae7a81f42cdfb18815282fe989326fbff903d13cf0e03ace29556132c87f75f96ab15d697e93042dc45b5c896c4b27e89bb6eaf39475c5c371cb2513f7d255612cec7fc5069e24aaadb2addc3e52e868fcf3f4f8acf5a87e24300992fd4540c2a87eed55600590526129047fbfd358e93f18da3ed276c3afdbdba00b8f0b6008a03476a6a86bd6320ee6938b556d446f776e746f776e20447562616960901b81526003600e80830182905292909120805460ff199081166001908117909255604080516b4475626169204d6172696e6160a01b8152600c808201869052602c91829020805485168617905582516b427573696e6573732042617960a01b81529081018690522080548316841790558051634449464360e01b81526004810185905260249020805483168417905580516c0a0c2d8da4094eadacad2e4c2d609b1b8152600d8101859052602d9020805483168417905580517f4a756d6569726168204265616368205265736964656e6365000000000000000081526018810185905260389020805483168417905580516d456d6972617465732048696c6c7360901b8152808601859052602e90819020805484168517905581517144756261692048696c6c732045737461746560701b815260128101869052603290208054841685179055815168436974792057616c6b60b81b81526009810186905260299020805484168517905581517f447562616920437265656b20486172626f757200000000000000000000000000815260138101869052603390208054841685179055815167436f726e6963686560c01b81526008808201879052602891829020805486168717905583516d105b081499595b48125cdb185b9960921b815297880187905291909620805484168517905581516916585cc8125cdb185b9960b21b8152600a8101869052602a9020805484168517905581516e14d858591a5e585d08125cdb185b99608a1b8152600f8101869052602f9020805484168517905581516f105b0813585c9e585a08125cdb185b9960821b81526010810186905260309020805484168517905581516720b61026b0b530bd60c11b815290810185905294909420805482168317905583516620b61025b430b760c91b8152600781019390935260279092208054909216179055516001600160401b0360608201908111908211176200112d57606081016040526002815260403660208301376000620004a68262001d26565b5280516001101562001ccb5760016040820152620004c362001ce6565b90620004ce62001d06565b601081526f454d4141522050726f7065727469657360801b6020820152825260016020830152806040830152600160608301524260808301526200051162001d06565b600e81526d524552412d454d4141522d30303160901b602082015260a0830152609660c083015273111111111111111111111111111111111111111160005260016020526040600020825192835160018060401b0381116200112d5782548060011c90600181161562001cc0575b60011660208210146200110c57601f811162001c8a575b506020601f821160011462001c1c57819293949560009262001c10575b50508160011b916000199060031b1c19161782555b602081015160048110156200119f57600183019060ff80198354169116179055604081015180519060018060401b0382116200112d576801000000000000000082116200112d57602090600285015483600287015580841062001bd7575b5001906002840160005260206000209060005b8160051c811062001b855750601f198116810362001b2a575b5050506200067560608201511515600384019060ff801983541691151516179055565b6080810151600483015560a08101518051906001600160401b0382116200112d576005840154600181811c9116801562001b1f575b60208210146200110c57601f811162001ae6575b50602090601f831160011462001a6c5791806006949260c09460009262001a60575b50508160011b916000199060031b1c19161760058501555b01519101556200070762001d06565b9060018252602036818401376000620007208362001d26565b526200072b62001ce6565b6200073562001d06565b600e81526d4d455241415320486f6c64696e6760901b6020820152815260016020820152826040820152600160608201524260808201526200077662001d06565b600f81526e524552412d4d45524141532d30303160881b602082015260a0820152605560c08201527322222222222222222222222222222222222222226000526001602052604060002090805180519060018060401b0382116200112d57835490600182811c9216801562001a55575b60208310146200110c5781601f84931162001a1f575b50602090601f8311600114620019ae57600092620019a2575b50508160011b916000199060031b1c19161782555b602081015160048110156200119f57600183019060ff80198354169116179055604081015180519060018060401b0382116200112d576801000000000000000082116200112d57602090600285015483600287015580841062001969575b5001906002840160005260206000209060005b8160051c8110620019175750601f1981168103620018bc575b505050620008d760608201511515600384019060ff801983541691151516179055565b6080810151600483015560a08101518051906001600160401b0382116200112d576005840154600181811c91168015620018b1575b60208210146200110c57601f811162001878575b50602090601f8311600114620017fe5791806006949260c094600092620017f2575b50508160011b916000199060031b1c19161760058501555b01519101556200096962001ce6565b916200097462001d06565b6007815266139052d211515360ca1b6020820152835260016020840152604083015260016060830152426080830152620009ad62001d06565b601081526f524552412d4e414b4845454c2d30303160801b602082015260a0830152607860c083015273333333333333333333333333333333333333333360005260016020526040600020825192835160018060401b0381116200112d578254600181811c91168015620017e7575b60208210146200110c57601f8111620017b1575b506020601f82116001146200174357819293949560009262001737575b50508160011b916000199060031b1c19161782555b602081015160048110156200119f57600183019060ff80198354169116179055604081015180519060018060401b0382116200112d576801000000000000000082116200112d576020906002850154836002870155808410620016fe575b5001906002840160005260206000209060005b8160051c8110620016ac5750601f198116810362001651575b50505062000b0f60608201511515600384019060ff801983541691151516179055565b6080810151600483015560a08101518051906001600160401b0382116200112d576005840154600181811c9116801562001646575b60208210146200110c57601f81116200160d575b50602090601f8311600114620015935791806006949260c09460009262001587575b50508160011b916000199060031b1c19161760058501555b015191015562000ba162001ce6565b9062000bac62001d06565b601081526f44414d41432050726f7065727469657360801b602082015282526002602083015260408201526001606082015242608082015262000bee62001d06565b600e81526d524552412d44414d41432d30303160901b602082015260a0820152605f60c082015273444444444444444444444444444444444444444460005260016020526040600020815191825160018060401b0381116200112d578254600181811c911680156200157c575b60208210146200110c57601f811162001546575b506020601f8211600114620014d95781929394600092620014cd575b50508160011b916000199060031b1c19161782555b602081015160048110156200119f57600183019060ff80198354169116179055604081015180519060018060401b0382116200112d576801000000000000000082116200112d57602090600285015483600287015580841062001494575b5001906002840160005260206000209060005b8160051c8110620014425750601f1981168103620013e7575b50505062000d4d60608201511515600384019060ff801983541691151516179055565b6080810151600483015560a08101518051906001600160401b0382116200112d576005840154600181811c91168015620013dc575b60208210146200110c57601f8111620013a3575b50602090601f8311600114620013295791806006949260c0946000926200131d575b50508160011b916000199060031b1c19161760058501555b015191015562000ddf62001d06565b6001815260203681830137600162000df78262001d26565b5262000e0262001ce6565b9062000e0d62001d06565b601081526f414c4441522050726f7065727469657360801b602082015282526001602083015260408201526001606082015242608082015262000e4f62001d06565b600e81526d414452412d414c4441522d30303160901b602082015260a082015260b460c08201527355555555555555555555555555555555555555556000526001602052604060002090805191825160018060401b0381116200112d578154600181811c9116801562001312575b60208210146200110c57601f8111620012dc575b506020601f82116001146200126f578192939460009262001263575b50508160011b916000199060031b1c19161781555b602082015160048110156200119f57600182019060ff80198354169116179055604082015180519060018060401b0382116200112d576801000000000000000082116200112d57602090600284015483600286015580841062001207575b5001906002830160005260206000209060005b8160051c8110620011b55750601f19811680820362001143575b5050505062000fb160608301511515600383019060ff801983541691151516179055565b6080820151600482015560a0820151805190929060058301906001600160401b0381116200112d578154600181811c9116801562001122575b60208210146200110c57601f8111620010ca575b506020601f82116001146200105757908060c0949392600696976000926200104b575b50508160011b916000199060031b1c19161790555b0151910155604051612c21908162001d4e8239f35b01519050388062001021565b601f198216958360005260206000209660005b818110620010b1575096600192849260c09796956006999a1062001097575b505050811b01905562001036565b015160001960f88460031b161c1916905538808062001089565b838301518955600190980197602093840193016200106a565b620010fa90836000526020600020601f840160051c8101916020851062001101575b601f0160051c019062001d34565b3862000ffe565b9091508190620010ec565b634e487b7160e01b600052602260045260246000fd5b90607f169062000fea565b634e487b7160e01b600052604160045260246000fd5b9260009360005b8184038110620011665750505060051c01553880808062000f8d565b909194855160078110156200119f5762001194602091846001949060ff809160031b9316831b921b19161790565b96019291016200114a565b634e487b7160e01b600052602160045260246000fd5b6000805b60208110620011d057508382015560010162000f73565b9490815160078110156200119f57620011fd602091886001949060ff809160031b9316831b921b19161790565b92019501620011b9565b6200123a9060028601600052601f84600020918187168062001241575b500160051c810190601f860160051c0162001d34565b3862000f60565b6000199081848a0160051c86010191825491890360031b1c1690553862001224565b01519050388062000eed565b8260005260206000209060005b601f1984168110620012c35750600193949583601f19811610620012a9575b505050811b01815562000f02565b015160001960f88460031b161c191690553880806200129b565b9091602060018192858a0151815501930191016200127c565b6200130b90836000526020600020601f840160051c810191602085106200110157601f0160051c019062001d34565b3862000ed1565b90607f169062000ebd565b01519050388062000db8565b906005850160005260206000209160005b601f19851681106200138a5750926006949260019260c09583601f1981161062001370575b505050811b01600585015562000dd0565b015160001960f88460031b161c191690553880806200135f565b919260206001819286850151815501940192016200133a565b620013d590600586016000526020600020601f850160051c810191602086106200110157601f0160051c019062001d34565b3862000d96565b90607f169062000d82565b60009260005b601f198316830381106200140b57505060051c015538808062000d2a565b9093845160078110156200119f5762001438602091846001949060ff809160031b9316831b921b19161790565b95019101620013ed565b6000805b602081106200145d57508382015560010162000d11565b9490815160078110156200119f576200148a602091886001949060ff809160031b9316831b921b19161790565b9201950162001446565b620014c69060028701600052601f8460002091818716806200124157500160051c810190601f860160051c0162001d34565b3862000cfe565b01519050388062000c8b565b8360005260206000209060005b601f19841681106200152d5750600193949583601f1981161062001513575b505050811b01825562000ca0565b015160001960f88460031b161c1916905538808062001505565b9091602060018192858a015181550193019101620014e6565b6200157590846000526020600020601f840160051c810191602085106200110157601f0160051c019062001d34565b3862000c6f565b90607f169062000c5b565b01519050388062000b7a565b906005850160005260206000209160005b601f1985168110620015f45750926006949260019260c09583601f19811610620015da575b505050811b01600585015562000b92565b015160001960f88460031b161c19169055388080620015c9565b91926020600181928685015181550194019201620015a4565b6200163f90600586016000526020600020601f850160051c810191602086106200110157601f0160051c019062001d34565b3862000b58565b90607f169062000b44565b60009260005b601f198316830381106200167557505060051c015538808062000aec565b9093845160078110156200119f57620016a2602091846001949060ff809160031b9316831b921b19161790565b9501910162001657565b6000805b60208110620016c757508382015560010162000ad3565b9490815160078110156200119f57620016f4602091886001949060ff809160031b9316831b921b19161790565b92019501620016b0565b620017309060028701600052601f8460002091818716806200124157500160051c810190601f860160051c0162001d34565b3862000ac0565b01519050388062000a4d565b8360005260206000209060005b601f198416811062001798575060019394959683601f198116106200177e575b505050811b01825562000a62565b015160001960f88460031b161c1916905538808062001770565b9091602060018192858b01518155019301910162001750565b620017e090846000526020600020601f840160051c810191602085106200110157601f0160051c019062001d34565b3862000a30565b90607f169062000a1c565b01519050388062000942565b906005850160005260206000209160005b601f19851681106200185f5750926006949260019260c09583601f1981161062001845575b505050811b0160058501556200095a565b015160001960f88460031b161c1916905538808062001834565b919260206001819286850151815501940192016200180f565b620018aa90600586016000526020600020601f850160051c810191602086106200110157601f0160051c019062001d34565b3862000920565b90607f16906200090c565b60009260005b601f19831683038110620018e057505060051c0155388080620008b4565b9093845160078110156200119f576200190d602091846001949060ff809160031b9316831b921b19161790565b95019101620018c2565b6000805b60208110620019325750838201556001016200089b565b9490815160078110156200119f576200195f602091886001949060ff809160031b9316831b921b19161790565b920195016200191b565b6200199b9060028701600052601f8460002091818716806200124157500160051c810190601f860160051c0162001d34565b3862000888565b01519050388062000815565b9250846000526020600020906000935b601f198416851062001a03576001945083601f19811610620019e9575b505050811b0182556200082a565b015160001960f88460031b161c19169055388080620019db565b81810151835560209485019460019093019290910190620019be565b62001a4e90866000526020600020601f850160051c810191602086106200110157601f0160051c019062001d34565b38620007fc565b91607f1691620007e6565b015190503880620006e0565b906005850160005260206000209160005b601f198516811062001acd5750926006949260019260c09583601f1981161062001ab3575b505050811b016005850155620006f8565b015160001960f88460031b161c1916905538808062001aa2565b9192602060018192868501518155019401920162001a7d565b62001b1890600586016000526020600020601f850160051c810191602086106200110157601f0160051c019062001d34565b38620006be565b90607f1690620006aa565b60009260005b601f1983168303811062001b4e57505060051c015538808062000652565b9093845160078110156200119f5762001b7b602091846001949060ff809160031b9316831b921b19161790565b9501910162001b30565b6000805b6020811062001ba057508382015560010162000639565b9490815160078110156200119f5762001bcd602091886001949060ff809160031b9316831b921b19161790565b9201950162001b89565b62001c099060028701600052601f8460002091818716806200124157500160051c810190601f860160051c0162001d34565b3862000626565b015190503880620005b3565b8360005260206000209060005b601f198416811062001c71575060019394959683601f1981161062001c57575b505050811b018255620005c8565b015160001960f88460031b161c1916905538808062001c49565b9091602060018192858b01518155019301910162001c29565b62001cb990846000526020600020601f840160051c810191602085106200110157601f0160051c019062001d34565b3862000596565b90607f16906200057f565b634e487b7160e01b600052603260045260246000fd5b600080fd5b6040519060e082016001600160401b038111838210176200112d57604052565b60408051919082016001600160401b038111838210176200112d57604052565b80511562001ccb5760200190565b81811062001d40575050565b6000815560010162001d3456fe6080604052600436101561001257600080fd5b60003560e01c80632899dacc1461160057806331d75ed214610e275780633621453d146115565780633704c9ed146115305780633a25bb161461150b5780635035951c1461146857806350a97ce9146114425780635124857b146114265780635c975abb1461140057806361fd5c2014611354578063715018a6146112fb57806373ef5d4014610e8857806376233c9e14610e275780638da5cb5b14610dfe57806390aa77b314610d205780639cb601f414610ceb5780639e42e1fc14610bee578063a324cae414610b74578063c342102c14610280578063d701de83146101e7578063e4b3c70814610218578063ebc471c4146101e75763f2fde38b1461011957600080fd5b346101e25760203660031901126101e257610132612506565b61013a6126e2565b6001600160a01b0390811690811561018e57600054826bffffffffffffffffffffffff60a01b821617600055167f8be0079c531659141344cd1fd0a4f28419497f9722a3daafe3b4186f6b6457e0600080a3005b60405162461bcd60e51b815260206004820152602660248201527f4f776e61626c653a206e6577206f776e657220697320746865207a65726f206160448201526564647265737360d01b6064820152608490fd5b600080fd5b346101e25760203660031901126101e25760043560048110156101e25761020f6020916126c9565b54604051908152f35b346101e25760203660031901126101e2576004356001600160401b0381116101e25761024a60209136906004016124bf565b8161025e6040519283815193849201612529565b600290820190815281900382019020546040516001600160a01b039091168152f35b346101e25760203660031901126101e257610299612506565b600060c06040516102a981612432565b6060815282602082015260606040820152826060820152826080820152606060a0820152015260018060a01b0316600052600160205260406000206040516102f081612432565b6102f9826125ab565b815261030f60ff60018401541660208301612767565b600282019160405180602085549182815201946000526020600020906000915b81601f8401106108f1579561044c9284926006979854918181106108d6575b8181106108b8575b81811061089a575b81811061087c575b81811061085f575b818110610841575b818110610823575b818110610805575b8181106107e7575b8181106107c9575b8181106107ab575b81811061078d575b81811061076f575b818110610751575b818110610733575b818110610715575b8181106106f7575b8181106106d9575b8181106106bb575b81811061069d575b81811061067f575b818110610661575b818110610643575b818110610625575b818110610607575b8181106105e9575b8181106105cb575b8181106105ad575b81811061058f575b818110610571575b818110610553575b1061053c575b500382612483565b604084015260ff6003820154161515606084015260048101546080840152610476600582016125ab565b60a0840152015460c0820152604051602081526104a0825160e0602084015261010083019061254c565b916104b360208201516040840190612651565b604081015192601f198382030160608401526020808551928381520194019060005b81811061051d5750505060c06105118394606084015115156080860152608084015160a086015260a0840151601f19868303018487015261254c565b91015160e08301520390f35b909194602080826105316001948a516126bc565b0196019291016104d5565b9061054c8160209360f81c6126bc565b0187610444565b9260208161056960019360ff8760f01c166126bc565b01930161043e565b9260208161058760019360ff8760e81c166126bc565b019301610436565b926020816105a560019360ff8760e01c166126bc565b01930161042e565b926020816105c360019360ff8760d81c166126bc565b019301610426565b926020816105e160019360ff8760d01c166126bc565b01930161041e565b926020816105ff60019360ff8760c81c166126bc565b019301610416565b9260208161061d60019360ff8760c01c166126bc565b01930161040e565b9260208161063b60019360ff8760b81c166126bc565b019301610406565b9260208161065960019360ff8760b01c166126bc565b0193016103fe565b9260208161067760019360ff8760a81c166126bc565b0193016103f6565b9260208161069560019360ff8760a01c166126bc565b0193016103ee565b926020816106b360019360ff8760981c166126bc565b0193016103e6565b926020816106d160019360ff8760901c166126bc565b0193016103de565b926020816106ef60019360ff8760881c166126bc565b0193016103d6565b9260208161070d60019360ff8760801c166126bc565b0193016103ce565b9260208161072b60019360ff8760781c166126bc565b0193016103c6565b9260208161074960019360ff8760701c166126bc565b0193016103be565b9260208161076760019360ff8760681c166126bc565b0193016103b6565b9260208161078560019360ff8760601c166126bc565b0193016103ae565b926020816107a360019360ff8760581c166126bc565b0193016103a6565b926020816107c160019360ff8760501c166126bc565b01930161039e565b926020816107df60019360ff8760481c166126bc565b019301610396565b926020816107fd60019360ff8760401c166126bc565b01930161038e565b9260208161081b60019360ff8760381c166126bc565b019301610386565b9260208161083960019360ff8760301c166126bc565b01930161037e565b9260208161085760019360ff8760281c166126bc565b019301610376565b9260208161087460019360ff87851c166126bc565b01930161036e565b9260208161089260019360ff8760181c166126bc565b019301610366565b926020816108b060019360ff8760101c166126bc565b01930161035e565b926020816108ce60019360ff8760081c166126bc565b019301610356565b926020816108e960019360ff87166126bc565b01930161034e565b956001610400602092610b698a5461090c8360ff83166126bc565b61091e86840160ff8360081c166126bc565b6109316040840160ff8360101c166126bc565b6109446060840160ff8360181c166126bc565b6109566080840160ff83891c166126bc565b61096960a0840160ff8360281c166126bc565b61097c60c0840160ff8360301c166126bc565b61098f60e0840160ff8360381c166126bc565b6109a3610100840160ff8360401c166126bc565b6109b7610120840160ff8360481c166126bc565b6109cb610140840160ff8360501c166126bc565b6109df610160840160ff8360581c166126bc565b6109f3610180840160ff8360601c166126bc565b610a076101a0840160ff8360681c166126bc565b610a1b6101c0840160ff8360701c166126bc565b610a2f6101e0840160ff8360781c166126bc565b610a43610200840160ff8360801c166126bc565b610a57610220840160ff8360881c166126bc565b610a6b610240840160ff8360901c166126bc565b610a7f610260840160ff8360981c166126bc565b610a93610280840160ff8360a01c166126bc565b610aa76102a0840160ff8360a81c166126bc565b610abb6102c0840160ff8360b01c166126bc565b610acf6102e0840160ff8360b81c166126bc565b610ae3610300840160ff8360c01c166126bc565b610af7610320840160ff8360c81c166126bc565b610b0b610340840160ff8360d01c166126bc565b610b1f610360840160ff8360d81c166126bc565b610b33610380840160ff8360e01c166126bc565b610b476103a0840160ff8360e81c166126bc565b610b5b6103c0840160ff8360f01c166126bc565b6103e083019060f81c6126bc565b01970192019161032f565b346101e25760403660031901126101e25760043560078110156101e257610b9d60243591612675565b9081548110156101e257610bb09161268e565b610bd857610bc0610bd4916125ab565b60405191829160208352602083019061254c565b0390f35b634e487b7160e01b600052600060045260246000fd5b346101e25760403660031901126101e2576004356001600160401b0381116101e257610c1e9036906004016124bf565b60243560078110156101e257610c6590610c366126e2565b6040516020818551610c4b8183858a01612529565b81016003815203019020600160ff19825416179055612675565b8054600160401b811015610cd557610c829160018201815561268e565b610bd85781610cb57f9644d3924374441a05a12b5ed9e37762704cbb51be65584b61f896565dded71d93610cc99361293d565b60405191829160408352604083019061254c565b600160208301520390a1005b634e487b7160e01b600052604160045260246000fd5b346101e25760203660031901126101e25760043560068110156101e25760005260066020526020604060002054604051908152f35b346101e2576020806003193601126101e25760043560078110156101e257610d4790612675565b90815491610d548361265e565b92610d626040519485612483565b8084528284018092600052836000206000915b838310610ddc5750505050604051918083019381845251809452604083019360408160051b85010192916000955b828710610db05785850386f35b909192938280610dcc600193603f198a8203018652885161254c565b9601920196019592919092610da3565b6001868192610ded859a999a6125ab565b815201920192019190959495610d75565b346101e25760003660031901126101e2576000546040516001600160a01b039091168152602090f35b346101e25760203660031901126101e2576004356001600160401b0381116101e25760ff610e726020610e5f819436906004016124bf565b8160405193828580945193849201612529565b8101600381520301902054166040519015158152f35b346101e25760a03660031901126101e257610ea1612506565b6001600160401b03906024358281116101e257610ec29036906004016124bf565b90600460443510156101e2576064358381116101e257366023820112156101e2578060040135610ef18161265e565b91610eff6040519384612483565b8183526024602084019260051b820101903682116101e257602401915b8183106112e2575050506084358481116101e257610f3e9036906004016124bf565b93610f476126e2565b6001600160a01b0383161561129d578351156112585784511561121b5760405190610f7182612432565b8482526020820192610f8560443585612767565b60408301908152600160608401524260808401528660a0840152600060c084015260018060a01b0385166000526001602052604060002093610fc884518661293d565b51600481101561116c57610fdf9060018601612a41565b51908151908111610cd557600160401b8111610cd5576020600285019283548385558084106111cf575b50019160005260206000209060005b8160051c81106111825750601f198116808203611113575b887fbbac4e248bee54382ca59562a25ba0e62b3557f67bd4ee28d47758fded6a07906110e78a61110e8b8b600660c08d600384016060820151151560ff801983541691161790556080810151600485015561109260a08201516005860161293d565b015191015560405160208185516110ac8183858a01612529565b60029082019081520301902080546001600160a01b0319166001600160a01b038316179055604051606080825290948594909185019061254c565b906110f760208501604435612651565b83820360408501526001600160a01b03169561254c565b0390a2005b9260009360005b81840381106111365750505060051c01558282600660c0611030565b9091948551600781101561116c57611162602091846001949060ff809160031b9316831b921b19161790565b960192910161111a565b634e487b7160e01b600052602160045260246000fd5b6000805b6020811061119b575083820155600101611018565b94908151600781101561116c576111c6602091886001949060ff809160031b9316831b921b19161790565b92019501611186565b6111fb908560005283600020601f80870160051c82019281881680611201575b500160051c0190612926565b89611009565b60001990818601918254918a0360031b1c1690558e6111ef565b60405162461bcd60e51b815260206004820152601560248201527414915490481b1a58d95b9cd9481c995c5d5a5c9959605a1b6044820152606490fd5b60405162461bcd60e51b815260206004820152601760248201527f446576656c6f706572206e616d652072657175697265640000000000000000006044820152606490fd5b60405162461bcd60e51b815260206004820152601960248201527f496e76616c696420646576656c6f7065722061646472657373000000000000006044820152606490fd5b823560078110156101e257815260209283019201610f1c565b346101e25760003660031901126101e2576113146126e2565b600080546001600160a01b0319811682556001600160a01b03167f8be0079c531659141344cd1fd0a4f28419497f9722a3daafe3b4186f6b6457e08280a3005b346101e25760203660031901126101e2576001600160a01b03611375612506565b1660005260016020526113d2604060002061138f816125ab565b906113f660ff60018301541660ff60038401541692600481015460066113b7600584016125ab565b920154946113dd60405198899860c08a5260c08a019061254c565b946020890190612651565b151560408701526060860152848203608086015261254c565b9060a08301520390f35b346101e25760003660031901126101e257602060ff60005460a01c166040519015158152f35b346101e25760003660031901126101e2576020604051604b8152f35b346101e25760003660031901126101e25760206040516a0422ca8b0a00a4250000008152f35b346101e25760203660031901126101e2576004356001600160401b0381116101e2576114ff6114bc7f9644d3924374441a05a12b5ed9e37762704cbb51be65584b61f896565dded71d9236906004016124bf565b6114c46126e2565b60405160208183516114d98183858801612529565b8101600381520301902060ff19815416905560405191829160408352604083019061254c565b600060208301520390a1005b346101e25760003660031901126101e257602060405169152d02c7e14af68000008152f35b346101e25760003660031901126101e25760206040516a084595161401484a0000008152f35b346101e25760403660031901126101e25761156f612506565b6024359060048210156101e2576115846126e2565b6001600160a01b031660008181526001602052604090206003015490919060ff16156115c5576115c39160005260016020526001604060002001612a41565b005b60405162461bcd60e51b815260206004820152601360248201527211195d995b1bdc195c881b9bdd08199bdd5b99606a1b6044820152606490fd5b346101e2576003196020368201126101e2576001600160401b03600435116101e25761012090600435360301126101e2576101a0604052600435600401356080526024600435013560078110156101e25760a052600435604401356001600160401b0381116101e25761167a9060043691813501016124bf565b60c0526004356064013560068110156101e25760e052600435608401356001600160a01b03811681036101e2576101005260043560a4810135610120526116c39060c40161251c565b6101405260043560e4810135610160526116e0906101040161251c565b6101809081526116ee61273a565b5069152d02c7e14af6800000608051106123ed5761012051604b116123a857511561235857610100516001600160a01b03166000908152600160205260409081902090519061173c82612432565b611745816125ab565b825261175b60ff60018301541660208401612767565b60028101604051808260208294549384815201906000526020600020926000905b80601f83011061232c57611891945491818110612311575b8181106122f3575b8181106122d5575b8181106122b7575b81811061229a575b81811061227c575b81811061225e575b818110612240575b818110612222575b818110612204575b8181106121e6575b8181106121c8575b8181106121aa575b81811061218c575b81811061216e575b818110612150575b818110612132575b818110612114575b8181106120f6575b8181106120d8575b8181106120ba575b81811061209c575b81811061207e575b818110612060575b818110612042575b818110612024575b818110612006575b818110611fe8575b818110611fca575b818110611fac575b818110611f8e575b10611f7757500382612483565b6040830152600660ff60038301541691606084019215158352600481015460808501526118c0600582016125ab565b60a0850152015460c08301525115611f26576118dd816080612773565b15611caa576118ea61273a565b50604051906118f882612432565b6006825260005b60c08110611c99575060405161191481612468565b601781527f494e444956494455414c5f544f4b454e495a4154494f4e0000000000000000006020820152611947836128c9565b52611951826128c9565b5060405161195e81612468565b601881527f5052454d49554d5f444556454c4f5045525f41434345535300000000000000006020820152611991836128d6565b5261199b826128d6565b506040516119a881612468565b601881527f494e535449545554494f4e414c5f494e564553544d454e54000000000000000060208201526119db836128e6565b526119e5826128e6565b506040516119f281612468565b6012815271414456414e4345445f414e414c595449435360701b6020820152611a1a836128f6565b52611a24826128f6565b50604051611a3181612468565b60128152715052494f524954595f4c495155494449545960701b6020820152611a5983612906565b52611a6382612906565b50604051611a7081612468565b60158152742224ab24a222a7222fa224a9aa2924a12aaa24a7a760591b6020820152611a9b83612916565b52611aa582612916565b506020810151600481101561116c57611abd906126c9565b5491608051611ae66103e8820469021e19e0c9bab2400000808211600014611c91575091612a59565b60208451940151600481101561116c57611bb991611b05604192612ab5565b60406080015190604051978893710283932b6b4bab690383937b832b93a3c9d160751b6020860152611b41815180926020603289019101612529565b84016501020a2a216160d51b6032820152611b66825180936020603885019101612529565b016510142a24a2a960d11b6038820152611b8a825180936020603e85019101612529565b016201496160ed1b603e820152611baa8251809360208785019101612529565b01036021810186520184612483565b60405193611bc68561244d565b6001855260208501526040840152606083015260808201525b604051906020825260c08201908051600281101561116c57908392916020840152602081015160408401526040810151606084015260608101519160a06080850152825180915260e0840190602060e08260051b8701019401916000905b828210611c60578680610bd4886080890151601f198483030160a085015261254c565b9193946001919396506020611c80819260df198b8203018652895161254c565b970192019201869594939192611c3d565b905091612a59565b8060606020809386010152016118ff565b611cb261273a565b506040519060c082018281106001600160401b03821117610cd5576040526005825260005b60a08110611f155750602090604051611cef81612468565b601981527f434954595f504f4f4c5f444956455253494649434154494f4e0000000000000083820152611d21846128c9565b52611d2b836128c9565b50604051611d3881612468565b600f81526e5354414b494e475f5245574152445360881b83820152611d5c846128d6565b52611d66836128d6565b50604051611d7381612468565b6011815270474f5645524e414e43455f564f54494e4760781b83820152611d99846128e6565b52611da3836128e6565b50604051611db081612468565b6013815272544945525f42415345445f42454e454649545360681b83820152611dd8846128f6565b52611de2836128f6565b50604051611def81612468565b601581527443524f53535f434841494e5f504f5254464f4c494f60581b83820152611e1984612906565b52611e2383612906565b500151600481101561116c57611e38906126c9565b549060328201809211611eff57611e50608051612a59565b90611ecb60546040518094720283630ba3337b93690383937b832b93a3c9d1606d1b6020830152611e8b815180926020603386019101612529565b81017f204145442c20646976657273696669656420706f6f6c20616c6c6f636174696f6033820152603760f91b6053820152036034810185520183612483565b60405192611ed88461244d565b600084526020840152683635c9adc5dea00000604084015260608301526080820152611bdf565b634e487b7160e01b600052601160045260246000fd5b806060602080938601015201611cd7565b60405162461bcd60e51b8152602060048201526024808201527f446576656c6f706572206e6f742072656769737465726564206f7220696e61636044820152637469766560e01b6064820152608490fd5b90611f878160209360f81c6126bc565b0186610444565b92602081611fa460019360ff8760f01c166126bc565b019301611884565b92602081611fc260019360ff8760e81c166126bc565b01930161187c565b92602081611fe060019360ff8760e01c166126bc565b019301611874565b92602081611ffe60019360ff8760d81c166126bc565b01930161186c565b9260208161201c60019360ff8760d01c166126bc565b019301611864565b9260208161203a60019360ff8760c81c166126bc565b01930161185c565b9260208161205860019360ff8760c01c166126bc565b019301611854565b9260208161207660019360ff8760b81c166126bc565b01930161184c565b9260208161209460019360ff8760b01c166126bc565b019301611844565b926020816120b260019360ff8760a81c166126bc565b01930161183c565b926020816120d060019360ff8760a01c166126bc565b019301611834565b926020816120ee60019360ff8760981c166126bc565b01930161182c565b9260208161210c60019360ff8760901c166126bc565b019301611824565b9260208161212a60019360ff8760881c166126bc565b01930161181c565b9260208161214860019360ff8760801c166126bc565b019301611814565b9260208161216660019360ff8760781c166126bc565b01930161180c565b9260208161218460019360ff8760701c166126bc565b019301611804565b926020816121a260019360ff8760681c166126bc565b0193016117fc565b926020816121c060019360ff8760601c166126bc565b0193016117f4565b926020816121de60019360ff8760581c166126bc565b0193016117ec565b926020816121fc60019360ff8760501c166126bc565b0193016117e4565b9260208161221a60019360ff8760481c166126bc565b0193016117dc565b9260208161223860019360ff8760401c166126bc565b0193016117d4565b9260208161225660019360ff8760381c166126bc565b0193016117cc565b9260208161227460019360ff8760301c166126bc565b0193016117c4565b9260208161229260019360ff8760281c166126bc565b0193016117bc565b926020816122af60019360ff87851c166126bc565b0193016117b4565b926020816122cd60019360ff8760181c166126bc565b0193016117ac565b926020816122eb60019360ff8760101c166126bc565b0193016117a4565b9260208161230960019360ff8760081c166126bc565b01930161179c565b9260208161232460019360ff87166126bc565b019301611794565b91602091935061040060019161234a875461090c8360ff83166126bc565b01940192018492939161177c565b60405162461bcd60e51b815260206004820152602260248201527f50726f7065727479206d75737420626520524552412f444c4420766572696669604482015261195960f21b6064820152608490fd5b60405162461bcd60e51b815260206004820152601d60248201527f496e73756666696369656e7420636f6d706c69616e63652073636f72650000006044820152606490fd5b60405162461bcd60e51b815260206004820152601c60248201527f50726f70657274792076616c75652062656c6f77206d696e696d756d000000006044820152606490fd5b60e081019081106001600160401b03821117610cd557604052565b60a081019081106001600160401b03821117610cd557604052565b604081019081106001600160401b03821117610cd557604052565b90601f801991011681019081106001600160401b03821117610cd557604052565b6001600160401b038111610cd557601f01601f191660200190565b81601f820112156101e2578035906124d6826124a4565b926124e46040519485612483565b828452602083830101116101e257816000926020809301838601378301015290565b600435906001600160a01b03821682036101e257565b359081151582036101e257565b60005b83811061253c5750506000910152565b818101518382015260200161252c565b9060209161256581518092818552858086019101612529565b601f01601f1916010190565b90600182811c921680156125a1575b602083101461258b57565b634e487b7160e01b600052602260045260246000fd5b91607f1691612580565b90604051918260008254926125bf84612571565b90818452600194858116908160001461262e57506001146125eb575b50506125e992500383612483565b565b9093915060005260209081600020936000915b8183106126165750506125e9935082010138806125db565b855488840185015294850194879450918301916125fe565b9150506125e994506020925060ff191682840152151560051b82010138806125db565b90600482101561116c5752565b6001600160401b038111610cd55760051b60200190565b600781101561116c576000526004602052604060002090565b80548210156126a65760005260206000200190600090565b634e487b7160e01b600052603260045260246000fd5b90600782101561116c5752565b600481101561116c576000526005602052604060002090565b6000546001600160a01b031633036126f657565b606460405162461bcd60e51b815260206004820152602060248201527f4f776e61626c653a2063616c6c6572206973206e6f7420746865206f776e65726044820152fd5b604051906127478261244d565b606060808360008152600060208201526000604082015282808201520152565b600482101561116c5752565b906a0422ca8b0a00a42500000082511061289b5760200180519060049182811015612872576003149081156128a2575b5061289b5760ff6127c7602060408501518160405193828580945193849201612529565b8101600381520301902054161561289b57605560a08301511061289b576060820180516006811015612872576001148015612887575b801561285f575b6128575751906006821015612842575015908161282b575b5061282657600190565b600190565b6a084595161401484a00000091505110153861281c565b602190634e487b7160e01b6000525260246000fd5b505050600190565b5080516006811015612872578214612804565b602183634e487b7160e01b6000525260246000fd5b5080516006811015612872576003146127fd565b5050600090565b905051818110156128b45715386127a3565b602182634e487b7160e01b6000525260246000fd5b8051156126a65760200190565b8051600110156126a65760400190565b8051600210156126a65760600190565b8051600310156126a65760800190565b8051600410156126a65760a00190565b8051600510156126a65760c00190565b818110612931575050565b60008155600101612926565b91909182516001600160401b038111610cd55761295a8254612571565b601f8111612a04575b50602080601f83116001146129a0575081929394600092612995575b50508160011b916000199060031b1c1916179055565b01519050388061297f565b90601f198316958460005282600020926000905b8882106129ec575050836001959697106129d3575b505050811b019055565b015160001960f88460031b161c191690553880806129c9565b806001859682949686015181550195019301906129b4565b612a3190836000526020600020601f840160051c81019160208510612a37575b601f0160051c0190612926565b38612963565b9091508190612a24565b90600481101561116c5760ff80198354169116179055565b670de0b6b3a7640000612a6c9104612b36565b612a95602060405183612a888295518092858086019101612529565b8101038084520182612483565b90565b60405190612aa582612468565b60018252600360fc1b6020830152565b600481101561116c5760018114612b185760028114612afa57600314612add57612a95612a98565b604051612ae981612468565b60018152603360f81b602082015290565b50604051612b0781612468565b60018152601960f91b602082015290565b50604051612b2581612468565b60018152603160f81b602082015290565b8015612be25780816000925b612bc85750612b50826124a4565b91612b5e6040519384612483565b80835281601f19612b6e836124a4565b013660208601375b612b7f57505090565b90600019820190828211611eff578192600a926030908484068201809211611eff57865111156126a65760f81b6001600160f81b03191660001a908501601f0153049081612b76565b90916000198114611eff576001019190600a900480612b42565b50612a95612a9856fea2646970667358221220c82832bd39dd35d0d20d3f18da24df94dbe41a4b8e2d314a7ccc0723291a8dfd64736f6c63430008130033","opcodes":"PUSH1 0x80 DUP1 PUSH1 0x40 MSTORE CALLVALUE PUSH3 0x1CE1 JUMPI PUSH1 0x2E SWAP1 PUSH1 0x0 SLOAD CALLER PUSH1 0x1 DUP1 PUSH1 0xA0 SHL SUB DUP3 AND PUSH32 0x8BE0079C531659141344CD1FD0A4F28419497F9722A3DAAFE3B4186F6B6457E0 PUSH1 0x0 DUP1 LOG3 PUSH1 0x1 PUSH1 0x1 PUSH1 0xA8 SHL SUB NOT AND CALLER PUSH1 0xFF PUSH1 0xA0 SHL NOT AND OR PUSH1 0x0 SWAP1 DUP2 SSTORE PUSH1 0x96 PUSH32 0x1471EB6EB2C5E789FC3DE43F8CE62938C7D1836EC861730447E2ADA8FD81017B SSTORE PUSH1 0xFA PUSH32 0x89832631FB3C3307A103BA2C84AB569C64D6182A18893DCD163F0F1C2090733A SSTORE PUSH2 0x15E PUSH32 0xA9BC9A3A348C357BA16B37005D7E6B3236198C0E939F4AF8C5F19B8DEEB8EBC0 SSTORE PUSH1 0x6 PUSH1 0x20 MSTORE PUSH2 0x2710 PUSH32 0x54CDD369E4E8A8515E52CA72EC816C2101831AD1F18BF44102ED171459C9B4F8 SSTORE PUSH2 0x2EE0 PUSH32 0x3E5FEC24AA4DC4E5AEE2E025E51E1392C72A2500577559FAE9665C6D52BD6A31 SSTORE PUSH2 0x2AF8 PUSH32 0x8819EF417987F8AE7A81F42CDFB18815282FE989326FBFF903D13CF0E03ACE29 SSTORE PUSH2 0x32C8 PUSH32 0x75F96AB15D697E93042DC45B5C896C4B27E89BB6EAF39475C5C371CB2513F7D2 SSTORE PUSH2 0x2CEC PUSH32 0xC5069E24AAADB2ADDC3E52E868FCF3F4F8ACF5A87E24300992FD4540C2A87EED SSTORE PUSH1 0x5 SWAP1 MSTORE PUSH2 0x2904 PUSH32 0xBFD358E93F18DA3ED276C3AFDBDBA00B8F0B6008A03476A6A86BD6320EE6938B SSTORE PUSH14 0x446F776E746F776E204475626169 PUSH1 0x90 SHL DUP2 MSTORE PUSH1 0x3 PUSH1 0xE DUP1 DUP4 ADD DUP3 SWAP1 MSTORE SWAP3 SWAP1 SWAP2 KECCAK256 DUP1 SLOAD PUSH1 0xFF NOT SWAP1 DUP2 AND PUSH1 0x1 SWAP1 DUP2 OR SWAP1 SWAP3 SSTORE PUSH1 0x40 DUP1 MLOAD PUSH12 0x4475626169204D6172696E61 PUSH1 0xA0 SHL DUP2 MSTORE PUSH1 0xC DUP1 DUP3 ADD DUP7 SWAP1 MSTORE PUSH1 0x2C SWAP2 DUP3 SWAP1 KECCAK256 DUP1 SLOAD DUP6 AND DUP7 OR SWAP1 SSTORE DUP3 MLOAD PUSH12 0x427573696E65737320426179 PUSH1 0xA0 SHL DUP2 MSTORE SWAP1 DUP2 ADD DUP7 SWAP1 MSTORE KECCAK256 DUP1 SLOAD DUP4 AND DUP5 OR SWAP1 SSTORE DUP1 MLOAD PUSH4 0x44494643 PUSH1 0xE0 SHL DUP2 MSTORE PUSH1 0x4 DUP2 ADD DUP6 SWAP1 MSTORE PUSH1 0x24 SWAP1 KECCAK256 DUP1 SLOAD DUP4 AND DUP5 OR SWAP1 SSTORE DUP1 MLOAD PUSH13 0xA0C2D8DA4094EADACAD2E4C2D PUSH1 0x9B SHL DUP2 MSTORE PUSH1 0xD DUP2 ADD DUP6 SWAP1 MSTORE PUSH1 0x2D SWAP1 KECCAK256 DUP1 SLOAD DUP4 AND DUP5 OR SWAP1 SSTORE DUP1 MLOAD PUSH32 0x4A756D6569726168204265616368205265736964656E63650000000000000000 DUP2 MSTORE PUSH1 0x18 DUP2 ADD DUP6 SWAP1 MSTORE PUSH1 0x38 SWAP1 KECCAK256 DUP1 SLOAD DUP4 AND DUP5 OR SWAP1 SSTORE DUP1 MLOAD PUSH14 0x456D6972617465732048696C6C73 PUSH1 0x90 SHL DUP2 MSTORE DUP1 DUP7 ADD DUP6 SWAP1 MSTORE PUSH1 0x2E SWAP1 DUP2 SWAP1 KECCAK256 DUP1 SLOAD DUP5 AND DUP6 OR SWAP1 SSTORE DUP2 MLOAD PUSH18 0x44756261692048696C6C7320457374617465 PUSH1 0x70 SHL DUP2 MSTORE PUSH1 0x12 DUP2 ADD DUP7 SWAP1 MSTORE PUSH1 0x32 SWAP1 KECCAK256 DUP1 SLOAD DUP5 AND DUP6 OR SWAP1 SSTORE DUP2 MLOAD PUSH9 0x436974792057616C6B PUSH1 0xB8 SHL DUP2 MSTORE PUSH1 0x9 DUP2 ADD DUP7 SWAP1 MSTORE PUSH1 0x29 SWAP1 KECCAK256 DUP1 SLOAD DUP5 AND DUP6 OR SWAP1 SSTORE DUP2 MLOAD PUSH32 0x447562616920437265656B20486172626F757200000000000000000000000000 DUP2 MSTORE PUSH1 0x13 DUP2 ADD DUP7 SWAP1 MSTORE PUSH1 0x33 SWAP1 KECCAK256 DUP1 SLOAD DUP5 AND DUP6 OR SWAP1 SSTORE DUP2 MLOAD PUSH8 0x436F726E69636865 PUSH1 0xC0 SHL DUP2 MSTORE PUSH1 0x8 DUP1 DUP3 ADD DUP8 SWAP1 MSTORE PUSH1 0x28 SWAP2 DUP3 SWAP1 KECCAK256 DUP1 SLOAD DUP7 AND DUP8 OR SWAP1 SSTORE DUP4 MLOAD PUSH14 0x105B081499595B48125CDB185B99 PUSH1 0x92 SHL DUP2 MSTORE SWAP8 DUP9 ADD DUP8 SWAP1 MSTORE SWAP2 SWAP1 SWAP7 KECCAK256 DUP1 SLOAD DUP5 AND DUP6 OR SWAP1 SSTORE DUP2 MLOAD PUSH10 0x16585CC8125CDB185B99 PUSH1 0xB2 SHL DUP2 MSTORE PUSH1 0xA DUP2 ADD DUP7 SWAP1 MSTORE PUSH1 0x2A SWAP1 KECCAK256 DUP1 SLOAD DUP5 AND DUP6 OR SWAP1 SSTORE DUP2 MLOAD PUSH15 0x14D858591A5E585D08125CDB185B99 PUSH1 0x8A SHL DUP2 MSTORE PUSH1 0xF DUP2 ADD DUP7 SWAP1 MSTORE PUSH1 0x2F SWAP1 KECCAK256 DUP1 SLOAD DUP5 AND DUP6 OR SWAP1 SSTORE DUP2 MLOAD PUSH16 0x105B0813585C9E585A08125CDB185B99 PUSH1 0x82 SHL DUP2 MSTORE PUSH1 0x10 DUP2 ADD DUP7 SWAP1 MSTORE PUSH1 0x30 SWAP1 KECCAK256 DUP1 SLOAD DUP5 AND DUP6 OR SWAP1 SSTORE DUP2 MLOAD PUSH8 0x20B61026B0B530BD PUSH1 0xC1 SHL DUP2 MSTORE SWAP1 DUP2 ADD DUP6 SWAP1 MSTORE SWAP5 SWAP1 SWAP5 KECCAK256 DUP1 SLOAD DUP3 AND DUP4 OR SWAP1 SSTORE DUP4 MLOAD PUSH7 0x20B61025B430B7 PUSH1 0xC9 SHL DUP2 MSTORE PUSH1 0x7 DUP2 ADD SWAP4 SWAP1 SWAP4 MSTORE PUSH1 0x27 SWAP1 SWAP3 KECCAK256 DUP1 SLOAD SWAP1 SWAP3 AND OR SWAP1 SSTORE MLOAD PUSH1 0x1 PUSH1 0x1 PUSH1 0x40 SHL SUB PUSH1 0x60 DUP3 ADD SWAP1 DUP2 GT SWAP1 DUP3 GT OR PUSH3 0x112D JUMPI PUSH1 0x60 DUP2 ADD PUSH1 0x40 MSTORE PUSH1 0x2 DUP2 MSTORE PUSH1 0x40 CALLDATASIZE PUSH1 0x20 DUP4 ADD CALLDATACOPY PUSH1 0x0 PUSH3 0x4A6 DUP3 PUSH3 0x1D26 JUMP JUMPDEST MSTORE DUP1 MLOAD PUSH1 0x1 LT ISZERO PUSH3 0x1CCB JUMPI PUSH1 0x1 PUSH1 0x40 DUP3 ADD MSTORE PUSH3 0x4C3 PUSH3 0x1CE6 JUMP JUMPDEST SWAP1 PUSH3 0x4CE PUSH3 0x1D06 JUMP JUMPDEST PUSH1 0x10 DUP2 MSTORE PUSH16 0x454D4141522050726F70657274696573 PUSH1 0x80 SHL PUSH1 0x20 DUP3 ADD MSTORE DUP3 MSTORE PUSH1 0x1 PUSH1 0x20 DUP4 ADD MSTORE DUP1 PUSH1 0x40 DUP4 ADD MSTORE PUSH1 0x1 PUSH1 0x60 DUP4 ADD MSTORE TIMESTAMP PUSH1 0x80 DUP4 ADD MSTORE PUSH3 0x511 PUSH3 0x1D06 JUMP JUMPDEST PUSH1 0xE DUP2 MSTORE PUSH14 0x524552412D454D4141522D303031 PUSH1 0x90 SHL PUSH1 0x20 DUP3 ADD MSTORE PUSH1 0xA0 DUP4 ADD MSTORE PUSH1 0x96 PUSH1 0xC0 DUP4 ADD MSTORE PUSH20 0x1111111111111111111111111111111111111111 PUSH1 0x0 MSTORE PUSH1 0x1 PUSH1 0x20 MSTORE PUSH1 0x40 PUSH1 0x0 KECCAK256 DUP3 MLOAD SWAP3 DUP4 MLOAD PUSH1 0x1 DUP1 PUSH1 0x40 SHL SUB DUP2 GT PUSH3 0x112D JUMPI DUP3 SLOAD DUP1 PUSH1 0x1 SHR SWAP1 PUSH1 0x1 DUP2 AND ISZERO PUSH3 0x1CC0 JUMPI JUMPDEST PUSH1 0x1 AND PUSH1 0x20 DUP3 LT EQ PUSH3 0x110C JUMPI PUSH1 0x1F DUP2 GT PUSH3 0x1C8A JUMPI JUMPDEST POP PUSH1 0x20 PUSH1 0x1F DUP3 GT PUSH1 0x1 EQ PUSH3 0x1C1C JUMPI DUP2 SWAP3 SWAP4 SWAP5 SWAP6 PUSH1 0x0 SWAP3 PUSH3 0x1C10 JUMPI JUMPDEST POP POP DUP2 PUSH1 0x1 SHL SWAP2 PUSH1 0x0 NOT SWAP1 PUSH1 0x3 SHL SHR NOT AND OR DUP3 SSTORE JUMPDEST PUSH1 0x20 DUP2 ADD MLOAD PUSH1 0x4 DUP2 LT ISZERO PUSH3 0x119F JUMPI PUSH1 0x1 DUP4 ADD SWAP1 PUSH1 0xFF DUP1 NOT DUP4 SLOAD AND SWAP2 AND OR SWAP1 SSTORE PUSH1 0x40 DUP2 ADD MLOAD DUP1 MLOAD SWAP1 PUSH1 0x1 DUP1 PUSH1 0x40 SHL SUB DUP3 GT PUSH3 0x112D JUMPI PUSH9 0x10000000000000000 DUP3 GT PUSH3 0x112D JUMPI PUSH1 0x20 SWAP1 PUSH1 0x2 DUP6 ADD SLOAD DUP4 PUSH1 0x2 DUP8 ADD SSTORE DUP1 DUP5 LT PUSH3 0x1BD7 JUMPI JUMPDEST POP ADD SWAP1 PUSH1 0x2 DUP5 ADD PUSH1 0x0 MSTORE PUSH1 0x20 PUSH1 0x0 KECCAK256 SWAP1 PUSH1 0x0 JUMPDEST DUP2 PUSH1 0x5 SHR DUP2 LT PUSH3 0x1B85 JUMPI POP PUSH1 0x1F NOT DUP2 AND DUP2 SUB PUSH3 0x1B2A JUMPI JUMPDEST POP POP POP PUSH3 0x675 PUSH1 0x60 DUP3 ADD MLOAD ISZERO ISZERO PUSH1 0x3 DUP5 ADD SWAP1 PUSH1 0xFF DUP1 NOT DUP4 SLOAD AND SWAP2 ISZERO ISZERO AND OR SWAP1 SSTORE JUMP JUMPDEST PUSH1 0x80 DUP2 ADD MLOAD PUSH1 0x4 DUP4 ADD SSTORE PUSH1 0xA0 DUP2 ADD MLOAD DUP1 MLOAD SWAP1 PUSH1 0x1 PUSH1 0x1 PUSH1 0x40 SHL SUB DUP3 GT PUSH3 0x112D JUMPI PUSH1 0x5 DUP5 ADD SLOAD PUSH1 0x1 DUP2 DUP2 SHR SWAP2 AND DUP1 ISZERO PUSH3 0x1B1F JUMPI JUMPDEST PUSH1 0x20 DUP3 LT EQ PUSH3 0x110C JUMPI PUSH1 0x1F DUP2 GT PUSH3 0x1AE6 JUMPI JUMPDEST POP PUSH1 0x20 SWAP1 PUSH1 0x1F DUP4 GT PUSH1 0x1 EQ PUSH3 0x1A6C JUMPI SWAP2 DUP1 PUSH1 0x6 SWAP5 SWAP3 PUSH1 0xC0 SWAP5 PUSH1 0x0 SWAP3 PUSH3 0x1A60 JUMPI JUMPDEST POP POP DUP2 PUSH1 0x1 SHL SWAP2 PUSH1 0x0 NOT SWAP1 PUSH1 0x3 SHL SHR NOT AND OR PUSH1 0x5 DUP6 ADD SSTORE JUMPDEST ADD MLOAD SWAP2 ADD SSTORE PUSH3 0x707 PUSH3 0x1D06 JUMP JUMPDEST SWAP1 PUSH1 0x1 DUP3 MSTORE PUSH1 0x20 CALLDATASIZE DUP2 DUP5 ADD CALLDATACOPY PUSH1 0x0 PUSH3 0x720 DUP4 PUSH3 0x1D26 JUMP JUMPDEST MSTORE PUSH3 0x72B PUSH3 0x1CE6 JUMP JUMPDEST PUSH3 0x735 PUSH3 0x1D06 JUMP JUMPDEST PUSH1 0xE DUP2 MSTORE PUSH14 0x4D455241415320486F6C64696E67 PUSH1 0x90 SHL PUSH1 0x20 DUP3 ADD MSTORE DUP2 MSTORE PUSH1 0x1 PUSH1 0x20 DUP3 ADD MSTORE DUP3 PUSH1 0x40 DUP3 ADD MSTORE PUSH1 0x1 PUSH1 0x60 DUP3 ADD MSTORE TIMESTAMP PUSH1 0x80 DUP3 ADD MSTORE PUSH3 0x776 PUSH3 0x1D06 JUMP JUMPDEST PUSH1 0xF DUP2 MSTORE PUSH15 0x524552412D4D45524141532D303031 PUSH1 0x88 SHL PUSH1 0x20 DUP3 ADD MSTORE PUSH1 0xA0 DUP3 ADD MSTORE PUSH1 0x55 PUSH1 0xC0 DUP3 ADD MSTORE PUSH20 0x2222222222222222222222222222222222222222 PUSH1 0x0 MSTORE PUSH1 0x1 PUSH1 0x20 MSTORE PUSH1 0x40 PUSH1 0x0 KECCAK256 SWAP1 DUP1 MLOAD DUP1 MLOAD SWAP1 PUSH1 0x1 DUP1 PUSH1 0x40 SHL SUB DUP3 GT PUSH3 0x112D JUMPI DUP4 SLOAD SWAP1 PUSH1 0x1 DUP3 DUP2 SHR SWAP3 AND DUP1 ISZERO PUSH3 0x1A55 JUMPI JUMPDEST PUSH1 0x20 DUP4 LT EQ PUSH3 0x110C JUMPI DUP2 PUSH1 0x1F DUP5 SWAP4 GT PUSH3 0x1A1F JUMPI JUMPDEST POP PUSH1 0x20 SWAP1 PUSH1 0x1F DUP4 GT PUSH1 0x1 EQ PUSH3 0x19AE JUMPI PUSH1 0x0 SWAP3 PUSH3 0x19A2 JUMPI JUMPDEST POP POP DUP2 PUSH1 0x1 SHL SWAP2 PUSH1 0x0 NOT SWAP1 PUSH1 0x3 SHL SHR NOT AND OR DUP3 SSTORE JUMPDEST PUSH1 0x20 DUP2 ADD MLOAD PUSH1 0x4 DUP2 LT ISZERO PUSH3 0x119F JUMPI PUSH1 0x1 DUP4 ADD SWAP1 PUSH1 0xFF DUP1 NOT DUP4 SLOAD AND SWAP2 AND OR SWAP1 SSTORE PUSH1 0x40 DUP2 ADD MLOAD DUP1 MLOAD SWAP1 PUSH1 0x1 DUP1 PUSH1 0x40 SHL SUB DUP3 GT PUSH3 0x112D JUMPI PUSH9 0x10000000000000000 DUP3 GT PUSH3 0x112D JUMPI PUSH1 0x20 SWAP1 PUSH1 0x2 DUP6 ADD SLOAD DUP4 PUSH1 0x2 DUP8 ADD SSTORE DUP1 DUP5 LT PUSH3 0x1969 JUMPI JUMPDEST POP ADD SWAP1 PUSH1 0x2 DUP5 ADD PUSH1 0x0 MSTORE PUSH1 0x20 PUSH1 0x0 KECCAK256 SWAP1 PUSH1 0x0 JUMPDEST DUP2 PUSH1 0x5 SHR DUP2 LT PUSH3 0x1917 JUMPI POP PUSH1 0x1F NOT DUP2 AND DUP2 SUB PUSH3 0x18BC JUMPI JUMPDEST POP POP POP PUSH3 0x8D7 PUSH1 0x60 DUP3 ADD MLOAD ISZERO ISZERO PUSH1 0x3 DUP5 ADD SWAP1 PUSH1 0xFF DUP1 NOT DUP4 SLOAD AND SWAP2 ISZERO ISZERO AND OR SWAP1 SSTORE JUMP JUMPDEST PUSH1 0x80 DUP2 ADD MLOAD PUSH1 0x4 DUP4 ADD SSTORE PUSH1 0xA0 DUP2 ADD MLOAD DUP1 MLOAD SWAP1 PUSH1 0x1 PUSH1 0x1 PUSH1 0x40 SHL SUB DUP3 GT PUSH3 0x112D JUMPI PUSH1 0x5 DUP5 ADD SLOAD PUSH1 0x1 DUP2 DUP2 SHR SWAP2 AND DUP1 ISZERO PUSH3 0x18B1 JUMPI JUMPDEST PUSH1 0x20 DUP3 LT EQ PUSH3 0x110C JUMPI PUSH1 0x1F DUP2 GT PUSH3 0x1878 JUMPI JUMPDEST POP PUSH1 0x20 SWAP1 PUSH1 0x1F DUP4 GT PUSH1 0x1 EQ PUSH3 0x17FE JUMPI SWAP2 DUP1 PUSH1 0x6 SWAP5 SWAP3 PUSH1 0xC0 SWAP5 PUSH1 0x0 SWAP3 PUSH3 0x17F2 JUMPI JUMPDEST POP POP DUP2 PUSH1 0x1 SHL SWAP2 PUSH1 0x0 NOT SWAP1 PUSH1 0x3 SHL SHR NOT AND OR PUSH1 0x5 DUP6 ADD SSTORE JUMPDEST ADD MLOAD SWAP2 ADD SSTORE PUSH3 0x969 PUSH3 0x1CE6 JUMP JUMPDEST SWAP2 PUSH3 0x974 PUSH3 0x1D06 JUMP JUMPDEST PUSH1 0x7 DUP2 MSTORE PUSH7 0x139052D2115153 PUSH1 0xCA SHL PUSH1 0x20 DUP3 ADD MSTORE DUP4 MSTORE PUSH1 0x1 PUSH1 0x20 DUP5 ADD MSTORE PUSH1 0x40 DUP4 ADD MSTORE PUSH1 0x1 PUSH1 0x60 DUP4 ADD MSTORE TIMESTAMP PUSH1 0x80 DUP4 ADD MSTORE PUSH3 0x9AD PUSH3 0x1D06 JUMP JUMPDEST PUSH1 0x10 DUP2 MSTORE PUSH16 0x524552412D4E414B4845454C2D303031 PUSH1 0x80 SHL PUSH1 0x20 DUP3 ADD MSTORE PUSH1 0xA0 DUP4 ADD MSTORE PUSH1 0x78 PUSH1 0xC0 DUP4 ADD MSTORE PUSH20 0x3333333333333333333333333333333333333333 PUSH1 0x0 MSTORE PUSH1 0x1 PUSH1 0x20 MSTORE PUSH1 0x40 PUSH1 0x0 KECCAK256 DUP3 MLOAD SWAP3 DUP4 MLOAD PUSH1 0x1 DUP1 PUSH1 0x40 SHL SUB DUP2 GT PUSH3 0x112D JUMPI DUP3 SLOAD PUSH1 0x1 DUP2 DUP2 SHR SWAP2 AND DUP1 ISZERO PUSH3 0x17E7 JUMPI JUMPDEST PUSH1 0x20 DUP3 LT EQ PUSH3 0x110C JUMPI PUSH1 0x1F DUP2 GT PUSH3 0x17B1 JUMPI JUMPDEST POP PUSH1 0x20 PUSH1 0x1F DUP3 GT PUSH1 0x1 EQ PUSH3 0x1743 JUMPI DUP2 SWAP3 SWAP4 SWAP5 SWAP6 PUSH1 0x0 SWAP3 PUSH3 0x1737 JUMPI JUMPDEST POP POP DUP2 PUSH1 0x1 SHL SWAP2 PUSH1 0x0 NOT SWAP1 PUSH1 0x3 SHL SHR NOT AND OR DUP3 SSTORE JUMPDEST PUSH1 0x20 DUP2 ADD MLOAD PUSH1 0x4 DUP2 LT ISZERO PUSH3 0x119F JUMPI PUSH1 0x1 DUP4 ADD SWAP1 PUSH1 0xFF DUP1 NOT DUP4 SLOAD AND SWAP2 AND OR SWAP1 SSTORE PUSH1 0x40 DUP2 ADD MLOAD DUP1 MLOAD SWAP1 PUSH1 0x1 DUP1 PUSH1 0x40 SHL SUB DUP3 GT PUSH3 0x112D JUMPI PUSH9 0x10000000000000000 DUP3 GT PUSH3 0x112D JUMPI PUSH1 0x20 SWAP1 PUSH1 0x2 DUP6 ADD SLOAD DUP4 PUSH1 0x2 DUP8 ADD SSTORE DUP1 DUP5 LT PUSH3 0x16FE JUMPI JUMPDEST POP ADD SWAP1 PUSH1 0x2 DUP5 ADD PUSH1 0x0 MSTORE PUSH1 0x20 PUSH1 0x0 KECCAK256 SWAP1 PUSH1 0x0 JUMPDEST DUP2 PUSH1 0x5 SHR DUP2 LT PUSH3 0x16AC JUMPI POP PUSH1 0x1F NOT DUP2 AND DUP2 SUB PUSH3 0x1651 JUMPI JUMPDEST POP POP POP PUSH3 0xB0F PUSH1 0x60 DUP3 ADD MLOAD ISZERO ISZERO PUSH1 0x3 DUP5 ADD SWAP1 PUSH1 0xFF DUP1 NOT DUP4 SLOAD AND SWAP2 ISZERO ISZERO AND OR SWAP1 SSTORE JUMP JUMPDEST PUSH1 0x80 DUP2 ADD MLOAD PUSH1 0x4 DUP4 ADD SSTORE PUSH1 0xA0 DUP2 ADD MLOAD DUP1 MLOAD SWAP1 PUSH1 0x1 PUSH1 0x1 PUSH1 0x40 SHL SUB DUP3 GT PUSH3 0x112D JUMPI PUSH1 0x5 DUP5 ADD SLOAD PUSH1 0x1 DUP2 DUP2 SHR SWAP2 AND DUP1 ISZERO PUSH3 0x1646 JUMPI JUMPDEST PUSH1 0x20 DUP3 LT EQ PUSH3 0x110C JUMPI PUSH1 0x1F DUP2 GT PUSH3 0x160D JUMPI JUMPDEST POP PUSH1 0x20 SWAP1 PUSH1 0x1F DUP4 GT PUSH1 0x1 EQ PUSH3 0x1593 JUMPI SWAP2 DUP1 PUSH1 0x6 SWAP5 SWAP3 PUSH1 0xC0 SWAP5 PUSH1 0x0 SWAP3 PUSH3 0x1587 JUMPI JUMPDEST POP POP DUP2 PUSH1 0x1 SHL SWAP2 PUSH1 0x0 NOT SWAP1 PUSH1 0x3 SHL SHR NOT AND OR PUSH1 0x5 DUP6 ADD SSTORE JUMPDEST ADD MLOAD SWAP2 ADD SSTORE PUSH3 0xBA1 PUSH3 0x1CE6 JUMP JUMPDEST SWAP1 PUSH3 0xBAC PUSH3 0x1D06 JUMP JUMPDEST PUSH1 0x10 DUP2 MSTORE PUSH16 0x44414D41432050726F70657274696573 PUSH1 0x80 SHL PUSH1 0x20 DUP3 ADD MSTORE DUP3 MSTORE PUSH1 0x2 PUSH1 0x20 DUP4 ADD MSTORE PUSH1 0x40 DUP3 ADD MSTORE PUSH1 0x1 PUSH1 0x60 DUP3 ADD MSTORE TIMESTAMP PUSH1 0x80 DUP3 ADD MSTORE PUSH3 0xBEE PUSH3 0x1D06 JUMP JUMPDEST PUSH1 0xE DUP2 MSTORE PUSH14 0x524552412D44414D41432D303031 PUSH1 0x90 SHL PUSH1 0x20 DUP3 ADD MSTORE PUSH1 0xA0 DUP3 ADD MSTORE PUSH1 0x5F PUSH1 0xC0 DUP3 ADD MSTORE PUSH20 0x4444444444444444444444444444444444444444 PUSH1 0x0 MSTORE PUSH1 0x1 PUSH1 0x20 MSTORE PUSH1 0x40 PUSH1 0x0 KECCAK256 DUP2 MLOAD SWAP2 DUP3 MLOAD PUSH1 0x1 DUP1 PUSH1 0x40 SHL SUB DUP2 GT PUSH3 0x112D JUMPI DUP3 SLOAD PUSH1 0x1 DUP2 DUP2 SHR SWAP2 AND DUP1 ISZERO PUSH3 0x157C JUMPI JUMPDEST PUSH1 0x20 DUP3 LT EQ PUSH3 0x110C JUMPI PUSH1 0x1F DUP2 GT PUSH3 0x1546 JUMPI JUMPDEST POP PUSH1 0x20 PUSH1 0x1F DUP3 GT PUSH1 0x1 EQ PUSH3 0x14D9 JUMPI DUP2 SWAP3 SWAP4 SWAP5 PUSH1 0x0 SWAP3 PUSH3 0x14CD JUMPI JUMPDEST POP POP DUP2 PUSH1 0x1 SHL SWAP2 PUSH1 0x0 NOT SWAP1 PUSH1 0x3 SHL SHR NOT AND OR DUP3 SSTORE JUMPDEST PUSH1 0x20 DUP2 ADD MLOAD PUSH1 0x4 DUP2 LT ISZERO PUSH3 0x119F JUMPI PUSH1 0x1 DUP4 ADD SWAP1 PUSH1 0xFF DUP1 NOT DUP4 SLOAD AND SWAP2 AND OR SWAP1 SSTORE PUSH1 0x40 DUP2 ADD MLOAD DUP1 MLOAD SWAP1 PUSH1 0x1 DUP1 PUSH1 0x40 SHL SUB DUP3 GT PUSH3 0x112D JUMPI PUSH9 0x10000000000000000 DUP3 GT PUSH3 0x112D JUMPI PUSH1 0x20 SWAP1 PUSH1 0x2 DUP6 ADD SLOAD DUP4 PUSH1 0x2 DUP8 ADD SSTORE DUP1 DUP5 LT PUSH3 0x1494 JUMPI JUMPDEST POP ADD SWAP1 PUSH1 0x2 DUP5 ADD PUSH1 0x0 MSTORE PUSH1 0x20 PUSH1 0x0 KECCAK256 SWAP1 PUSH1 0x0 JUMPDEST DUP2 PUSH1 0x5 SHR DUP2 LT PUSH3 0x1442 JUMPI POP PUSH1 0x1F NOT DUP2 AND DUP2 SUB PUSH3 0x13E7 JUMPI JUMPDEST POP POP POP PUSH3 0xD4D PUSH1 0x60 DUP3 ADD MLOAD ISZERO ISZERO PUSH1 0x3 DUP5 ADD SWAP1 PUSH1 0xFF DUP1 NOT DUP4 SLOAD AND SWAP2 ISZERO ISZERO AND OR SWAP1 SSTORE JUMP JUMPDEST PUSH1 0x80 DUP2 ADD MLOAD PUSH1 0x4 DUP4 ADD SSTORE PUSH1 0xA0 DUP2 ADD MLOAD DUP1 MLOAD SWAP1 PUSH1 0x1 PUSH1 0x1 PUSH1 0x40 SHL SUB DUP3 GT PUSH3 0x112D JUMPI PUSH1 0x5 DUP5 ADD SLOAD PUSH1 0x1 DUP2 DUP2 SHR SWAP2 AND DUP1 ISZERO PUSH3 0x13DC JUMPI JUMPDEST PUSH1 0x20 DUP3 LT EQ PUSH3 0x110C JUMPI PUSH1 0x1F DUP2 GT PUSH3 0x13A3 JUMPI JUMPDEST POP PUSH1 0x20 SWAP1 PUSH1 0x1F DUP4 GT PUSH1 0x1 EQ PUSH3 0x1329 JUMPI SWAP2 DUP1 PUSH1 0x6 SWAP5 SWAP3 PUSH1 0xC0 SWAP5 PUSH1 0x0 SWAP3 PUSH3 0x131D JUMPI JUMPDEST POP POP DUP2 PUSH1 0x1 SHL SWAP2 PUSH1 0x0 NOT SWAP1 PUSH1 0x3 SHL SHR NOT AND OR PUSH1 0x5 DUP6 ADD SSTORE JUMPDEST ADD MLOAD SWAP2 ADD SSTORE PUSH3 0xDDF PUSH3 0x1D06 JUMP JUMPDEST PUSH1 0x1 DUP2 MSTORE PUSH1 0x20 CALLDATASIZE DUP2 DUP4 ADD CALLDATACOPY PUSH1 0x1 PUSH3 0xDF7 DUP3 PUSH3 0x1D26 JUMP JUMPDEST MSTORE PUSH3 0xE02 PUSH3 0x1CE6 JUMP JUMPDEST SWAP1 PUSH3 0xE0D PUSH3 0x1D06 JUMP JUMPDEST PUSH1 0x10 DUP2 MSTORE PUSH16 0x414C4441522050726F70657274696573 PUSH1 0x80 SHL PUSH1 0x20 DUP3 ADD MSTORE DUP3 MSTORE PUSH1 0x1 PUSH1 0x20 DUP4 ADD MSTORE PUSH1 0x40 DUP3 ADD MSTORE PUSH1 0x1 PUSH1 0x60 DUP3 ADD MSTORE TIMESTAMP PUSH1 0x80 DUP3 ADD MSTORE PUSH3 0xE4F PUSH3 0x1D06 JUMP JUMPDEST PUSH1 0xE DUP2 MSTORE PUSH14 0x414452412D414C4441522D303031 PUSH1 0x90 SHL PUSH1 0x20 DUP3 ADD MSTORE PUSH1 0xA0 DUP3 ADD MSTORE PUSH1 0xB4 PUSH1 0xC0 DUP3 ADD MSTORE PUSH20 0x5555555555555555555555555555555555555555 PUSH1 0x0 MSTORE PUSH1 0x1 PUSH1 0x20 MSTORE PUSH1 0x40 PUSH1 0x0 KECCAK256 SWAP1 DUP1 MLOAD SWAP2 DUP3 MLOAD PUSH1 0x1 DUP1 PUSH1 0x40 SHL SUB DUP2 GT PUSH3 0x112D JUMPI DUP2 SLOAD PUSH1 0x1 DUP2 DUP2 SHR SWAP2 AND DUP1 ISZERO PUSH3 0x1312 JUMPI JUMPDEST PUSH1 0x20 DUP3 LT EQ PUSH3 0x110C JUMPI PUSH1 0x1F DUP2 GT PUSH3 0x12DC JUMPI JUMPDEST POP PUSH1 0x20 PUSH1 0x1F DUP3 GT PUSH1 0x1 EQ PUSH3 0x126F JUMPI DUP2 SWAP3 SWAP4 SWAP5 PUSH1 0x0 SWAP3 PUSH3 0x1263 JUMPI JUMPDEST POP POP DUP2 PUSH1 0x1 SHL SWAP2 PUSH1 0x0 NOT SWAP1 PUSH1 0x3 SHL SHR NOT AND OR DUP2 SSTORE JUMPDEST PUSH1 0x20 DUP3 ADD MLOAD PUSH1 0x4 DUP2 LT ISZERO PUSH3 0x119F JUMPI PUSH1 0x1 DUP3 ADD SWAP1 PUSH1 0xFF DUP1 NOT DUP4 SLOAD AND SWAP2 AND OR SWAP1 SSTORE PUSH1 0x40 DUP3 ADD MLOAD DUP1 MLOAD SWAP1 PUSH1 0x1 DUP1 PUSH1 0x40 SHL SUB DUP3 GT PUSH3 0x112D JUMPI PUSH9 0x10000000000000000 DUP3 GT PUSH3 0x112D JUMPI PUSH1 0x20 SWAP1 PUSH1 0x2 DUP5 ADD SLOAD DUP4 PUSH1 0x2 DUP7 ADD SSTORE DUP1 DUP5 LT PUSH3 0x1207 JUMPI JUMPDEST POP ADD SWAP1 PUSH1 0x2 DUP4 ADD PUSH1 0x0 MSTORE PUSH1 0x20 PUSH1 0x0 KECCAK256 SWAP1 PUSH1 0x0 JUMPDEST DUP2 PUSH1 0x5 SHR DUP2 LT PUSH3 0x11B5 JUMPI POP PUSH1 0x1F NOT DUP2 AND DUP1 DUP3 SUB PUSH3 0x1143 JUMPI JUMPDEST POP POP POP POP PUSH3 0xFB1 PUSH1 0x60 DUP4 ADD MLOAD ISZERO ISZERO PUSH1 0x3 DUP4 ADD SWAP1 PUSH1 0xFF DUP1 NOT DUP4 SLOAD AND SWAP2 ISZERO ISZERO AND OR SWAP1 SSTORE JUMP JUMPDEST PUSH1 0x80 DUP3 ADD MLOAD PUSH1 0x4 DUP3 ADD SSTORE PUSH1 0xA0 DUP3 ADD MLOAD DUP1 MLOAD SWAP1 SWAP3 SWAP1 PUSH1 0x5 DUP4 ADD SWAP1 PUSH1 0x1 PUSH1 0x1 PUSH1 0x40 SHL SUB DUP2 GT PUSH3 0x112D JUMPI DUP2 SLOAD PUSH1 0x1 DUP2 DUP2 SHR SWAP2 AND DUP1 ISZERO PUSH3 0x1122 JUMPI JUMPDEST PUSH1 0x20 DUP3 LT EQ PUSH3 0x110C JUMPI PUSH1 0x1F DUP2 GT PUSH3 0x10CA JUMPI JUMPDEST POP PUSH1 0x20 PUSH1 0x1F DUP3 GT PUSH1 0x1 EQ PUSH3 0x1057 JUMPI SWAP1 DUP1 PUSH1 0xC0 SWAP5 SWAP4 SWAP3 PUSH1 0x6 SWAP7 SWAP8 PUSH1 0x0 SWAP3 PUSH3 0x104B JUMPI JUMPDEST POP POP DUP2 PUSH1 0x1 SHL SWAP2 PUSH1 0x0 NOT SWAP1 PUSH1 0x3 SHL SHR NOT AND OR SWAP1 SSTORE JUMPDEST ADD MLOAD SWAP2 ADD SSTORE PUSH1 0x40 MLOAD PUSH2 0x2C21 SWAP1 DUP2 PUSH3 0x1D4E DUP3 CODECOPY RETURN JUMPDEST ADD MLOAD SWAP1 POP CODESIZE DUP1 PUSH3 0x1021 JUMP JUMPDEST PUSH1 0x1F NOT DUP3 AND SWAP6 DUP4 PUSH1 0x0 MSTORE PUSH1 0x20 PUSH1 0x0 KECCAK256 SWAP7 PUSH1 0x0 JUMPDEST DUP2 DUP2 LT PUSH3 0x10B1 JUMPI POP SWAP7 PUSH1 0x1 SWAP3 DUP5 SWAP3 PUSH1 0xC0 SWAP8 SWAP7 SWAP6 PUSH1 0x6 SWAP10 SWAP11 LT PUSH3 0x1097 JUMPI JUMPDEST POP POP POP DUP2 SHL ADD SWAP1 SSTORE PUSH3 0x1036 JUMP JUMPDEST ADD MLOAD PUSH1 0x0 NOT PUSH1 0xF8 DUP5 PUSH1 0x3 SHL AND SHR NOT AND SWAP1 SSTORE CODESIZE DUP1 DUP1 PUSH3 0x1089 JUMP JUMPDEST DUP4 DUP4 ADD MLOAD DUP10 SSTORE PUSH1 0x1 SWAP1 SWAP9 ADD SWAP8 PUSH1 0x20 SWAP4 DUP5 ADD SWAP4 ADD PUSH3 0x106A JUMP JUMPDEST PUSH3 0x10FA SWAP1 DUP4 PUSH1 0x0 MSTORE PUSH1 0x20 PUSH1 0x0 KECCAK256 PUSH1 0x1F DUP5 ADD PUSH1 0x5 SHR DUP2 ADD SWAP2 PUSH1 0x20 DUP6 LT PUSH3 0x1101 JUMPI JUMPDEST PUSH1 0x1F ADD PUSH1 0x5 SHR ADD SWAP1 PUSH3 0x1D34 JUMP JUMPDEST CODESIZE PUSH3 0xFFE JUMP JUMPDEST SWAP1 SWAP2 POP DUP2 SWAP1 PUSH3 0x10EC JUMP JUMPDEST PUSH4 0x4E487B71 PUSH1 0xE0 SHL PUSH1 0x0 MSTORE PUSH1 0x22 PUSH1 0x4 MSTORE PUSH1 0x24 PUSH1 0x0 REVERT JUMPDEST SWAP1 PUSH1 0x7F AND SWAP1 PUSH3 0xFEA JUMP JUMPDEST PUSH4 0x4E487B71 PUSH1 0xE0 SHL PUSH1 0x0 MSTORE PUSH1 0x41 PUSH1 0x4 MSTORE PUSH1 0x24 PUSH1 0x0 REVERT JUMPDEST SWAP3 PUSH1 0x0 SWAP4 PUSH1 0x0 JUMPDEST DUP2 DUP5 SUB DUP2 LT PUSH3 0x1166 JUMPI POP POP POP PUSH1 0x5 SHR ADD SSTORE CODESIZE DUP1 DUP1 DUP1 PUSH3 0xF8D JUMP JUMPDEST SWAP1 SWAP2 SWAP5 DUP6 MLOAD PUSH1 0x7 DUP2 LT ISZERO PUSH3 0x119F JUMPI PUSH3 0x1194 PUSH1 0x20 SWAP2 DUP5 PUSH1 0x1 SWAP5 SWAP1 PUSH1 0xFF DUP1 SWAP2 PUSH1 0x3 SHL SWAP4 AND DUP4 SHL SWAP3 SHL NOT AND OR SWAP1 JUMP JUMPDEST SWAP7 ADD SWAP3 SWAP2 ADD PUSH3 0x114A JUMP JUMPDEST PUSH4 0x4E487B71 PUSH1 0xE0 SHL PUSH1 0x0 MSTORE PUSH1 0x21 PUSH1 0x4 MSTORE PUSH1 0x24 PUSH1 0x0 REVERT JUMPDEST PUSH1 0x0 DUP1 JUMPDEST PUSH1 0x20 DUP2 LT PUSH3 0x11D0 JUMPI POP DUP4 DUP3 ADD SSTORE PUSH1 0x1 ADD PUSH3 0xF73 JUMP JUMPDEST SWAP5 SWAP1 DUP2 MLOAD PUSH1 0x7 DUP2 LT ISZERO PUSH3 0x119F JUMPI PUSH3 0x11FD PUSH1 0x20 SWAP2 DUP9 PUSH1 0x1 SWAP5 SWAP1 PUSH1 0xFF DUP1 SWAP2 PUSH1 0x3 SHL SWAP4 AND DUP4 SHL SWAP3 SHL NOT AND OR SWAP1 JUMP JUMPDEST SWAP3 ADD SWAP6 ADD PUSH3 0x11B9 JUMP JUMPDEST PUSH3 0x123A SWAP1 PUSH1 0x2 DUP7 ADD PUSH1 0x0 MSTORE PUSH1 0x1F DUP5 PUSH1 0x0 KECCAK256 SWAP2 DUP2 DUP8 AND DUP1 PUSH3 0x1241 JUMPI JUMPDEST POP ADD PUSH1 0x5 SHR DUP2 ADD SWAP1 PUSH1 0x1F DUP7 ADD PUSH1 0x5 SHR ADD PUSH3 0x1D34 JUMP JUMPDEST CODESIZE PUSH3 0xF60 JUMP JUMPDEST PUSH1 0x0 NOT SWAP1 DUP2 DUP5 DUP11 ADD PUSH1 0x5 SHR DUP7 ADD ADD SWAP2 DUP3 SLOAD SWAP2 DUP10 SUB PUSH1 0x3 SHL SHR AND SWAP1 SSTORE CODESIZE PUSH3 0x1224 JUMP JUMPDEST ADD MLOAD SWAP1 POP CODESIZE DUP1 PUSH3 0xEED JUMP JUMPDEST DUP3 PUSH1 0x0 MSTORE PUSH1 0x20 PUSH1 0x0 KECCAK256 SWAP1 PUSH1 0x0 JUMPDEST PUSH1 0x1F NOT DUP5 AND DUP2 LT PUSH3 0x12C3 JUMPI POP PUSH1 0x1 SWAP4 SWAP5 SWAP6 DUP4 PUSH1 0x1F NOT DUP2 AND LT PUSH3 0x12A9 JUMPI JUMPDEST POP POP POP DUP2 SHL ADD DUP2 SSTORE PUSH3 0xF02 JUMP JUMPDEST ADD MLOAD PUSH1 0x0 NOT PUSH1 0xF8 DUP5 PUSH1 0x3 SHL AND SHR NOT AND SWAP1 SSTORE CODESIZE DUP1 DUP1 PUSH3 0x129B JUMP JUMPDEST SWAP1 SWAP2 PUSH1 0x20 PUSH1 0x1 DUP2 SWAP3 DUP6 DUP11 ADD MLOAD DUP2 SSTORE ADD SWAP4 ADD SWAP2 ADD PUSH3 0x127C JUMP JUMPDEST PUSH3 0x130B SWAP1 DUP4 PUSH1 0x0 MSTORE PUSH1 0x20 PUSH1 0x0 KECCAK256 PUSH1 0x1F DUP5 ADD PUSH1 0x5 SHR DUP2 ADD SWAP2 PUSH1 0x20 DUP6 LT PUSH3 0x1101 JUMPI PUSH1 0x1F ADD PUSH1 0x5 SHR ADD SWAP1 PUSH3 0x1D34 JUMP JUMPDEST CODESIZE PUSH3 0xED1 JUMP JUMPDEST SWAP1 PUSH1 0x7F AND SWAP1 PUSH3 0xEBD JUMP JUMPDEST ADD MLOAD SWAP1 POP CODESIZE DUP1 PUSH3 0xDB8 JUMP JUMPDEST SWAP1 PUSH1 0x5 DUP6 ADD PUSH1 0x0 MSTORE PUSH1 0x20 PUSH1 0x0 KECCAK256 SWAP2 PUSH1 0x0 JUMPDEST PUSH1 0x1F NOT DUP6 AND DUP2 LT PUSH3 0x138A JUMPI POP SWAP3 PUSH1 0x6 SWAP5 SWAP3 PUSH1 0x1 SWAP3 PUSH1 0xC0 SWAP6 DUP4 PUSH1 0x1F NOT DUP2 AND LT PUSH3 0x1370 JUMPI JUMPDEST POP POP POP DUP2 SHL ADD PUSH1 0x5 DUP6 ADD SSTORE PUSH3 0xDD0 JUMP JUMPDEST ADD MLOAD PUSH1 0x0 NOT PUSH1 0xF8 DUP5 PUSH1 0x3 SHL AND SHR NOT AND SWAP1 SSTORE CODESIZE DUP1 DUP1 PUSH3 0x135F JUMP JUMPDEST SWAP2 SWAP3 PUSH1 0x20 PUSH1 0x1 DUP2 SWAP3 DUP7 DUP6 ADD MLOAD DUP2 SSTORE ADD SWAP5 ADD SWAP3 ADD PUSH3 0x133A JUMP JUMPDEST PUSH3 0x13D5 SWAP1 PUSH1 0x5 DUP7 ADD PUSH1 0x0 MSTORE PUSH1 0x20 PUSH1 0x0 KECCAK256 PUSH1 0x1F DUP6 ADD PUSH1 0x5 SHR DUP2 ADD SWAP2 PUSH1 0x20 DUP7 LT PUSH3 0x1101 JUMPI PUSH1 0x1F ADD PUSH1 0x5 SHR ADD SWAP1 PUSH3 0x1D34 JUMP JUMPDEST CODESIZE PUSH3 0xD96 JUMP JUMPDEST SWAP1 PUSH1 0x7F AND SWAP1 PUSH3 0xD82 JUMP JUMPDEST PUSH1 0x0 SWAP3 PUSH1 0x0 JUMPDEST PUSH1 0x1F NOT DUP4 AND DUP4 SUB DUP2 LT PUSH3 0x140B JUMPI POP POP PUSH1 0x5 SHR ADD SSTORE CODESIZE DUP1 DUP1 PUSH3 0xD2A JUMP JUMPDEST SWAP1 SWAP4 DUP5 MLOAD PUSH1 0x7 DUP2 LT ISZERO PUSH3 0x119F JUMPI PUSH3 0x1438 PUSH1 0x20 SWAP2 DUP5 PUSH1 0x1 SWAP5 SWAP1 PUSH1 0xFF DUP1 SWAP2 PUSH1 0x3 SHL SWAP4 AND DUP4 SHL SWAP3 SHL NOT AND OR SWAP1 JUMP JUMPDEST SWAP6 ADD SWAP2 ADD PUSH3 0x13ED JUMP JUMPDEST PUSH1 0x0 DUP1 JUMPDEST PUSH1 0x20 DUP2 LT PUSH3 0x145D JUMPI POP DUP4 DUP3 ADD SSTORE PUSH1 0x1 ADD PUSH3 0xD11 JUMP JUMPDEST SWAP5 SWAP1 DUP2 MLOAD PUSH1 0x7 DUP2 LT ISZERO PUSH3 0x119F JUMPI PUSH3 0x148A PUSH1 0x20 SWAP2 DUP9 PUSH1 0x1 SWAP5 SWAP1 PUSH1 0xFF DUP1 SWAP2 PUSH1 0x3 SHL SWAP4 AND DUP4 SHL SWAP3 SHL NOT AND OR SWAP1 JUMP JUMPDEST SWAP3 ADD SWAP6 ADD PUSH3 0x1446 JUMP JUMPDEST PUSH3 0x14C6 SWAP1 PUSH1 0x2 DUP8 ADD PUSH1 0x0 MSTORE PUSH1 0x1F DUP5 PUSH1 0x0 KECCAK256 SWAP2 DUP2 DUP8 AND DUP1 PUSH3 0x1241 JUMPI POP ADD PUSH1 0x5 SHR DUP2 ADD SWAP1 PUSH1 0x1F DUP7 ADD PUSH1 0x5 SHR ADD PUSH3 0x1D34 JUMP JUMPDEST CODESIZE PUSH3 0xCFE JUMP JUMPDEST ADD MLOAD SWAP1 POP CODESIZE DUP1 PUSH3 0xC8B JUMP JUMPDEST DUP4 PUSH1 0x0 MSTORE PUSH1 0x20 PUSH1 0x0 KECCAK256 SWAP1 PUSH1 0x0 JUMPDEST PUSH1 0x1F NOT DUP5 AND DUP2 LT PUSH3 0x152D JUMPI POP PUSH1 0x1 SWAP4 SWAP5 SWAP6 DUP4 PUSH1 0x1F NOT DUP2 AND LT PUSH3 0x1513 JUMPI JUMPDEST POP POP POP DUP2 SHL ADD DUP3 SSTORE PUSH3 0xCA0 JUMP JUMPDEST ADD MLOAD PUSH1 0x0 NOT PUSH1 0xF8 DUP5 PUSH1 0x3 SHL AND SHR NOT AND SWAP1 SSTORE CODESIZE DUP1 DUP1 PUSH3 0x1505 JUMP JUMPDEST SWAP1 SWAP2 PUSH1 0x20 PUSH1 0x1 DUP2 SWAP3 DUP6 DUP11 ADD MLOAD DUP2 SSTORE ADD SWAP4 ADD SWAP2 ADD PUSH3 0x14E6 JUMP JUMPDEST PUSH3 0x1575 SWAP1 DUP5 PUSH1 0x0 MSTORE PUSH1 0x20 PUSH1 0x0 KECCAK256 PUSH1 0x1F DUP5 ADD PUSH1 0x5 SHR DUP2 ADD SWAP2 PUSH1 0x20 DUP6 LT PUSH3 0x1101 JUMPI PUSH1 0x1F ADD PUSH1 0x5 SHR ADD SWAP1 PUSH3 0x1D34 JUMP JUMPDEST CODESIZE PUSH3 0xC6F JUMP JUMPDEST SWAP1 PUSH1 0x7F AND SWAP1 PUSH3 0xC5B JUMP JUMPDEST ADD MLOAD SWAP1 POP CODESIZE DUP1 PUSH3 0xB7A JUMP JUMPDEST SWAP1 PUSH1 0x5 DUP6 ADD PUSH1 0x0 MSTORE PUSH1 0x20 PUSH1 0x0 KECCAK256 SWAP2 PUSH1 0x0 JUMPDEST PUSH1 0x1F NOT DUP6 AND DUP2 LT PUSH3 0x15F4 JUMPI POP SWAP3 PUSH1 0x6 SWAP5 SWAP3 PUSH1 0x1 SWAP3 PUSH1 0xC0 SWAP6 DUP4 PUSH1 0x1F NOT DUP2 AND LT PUSH3 0x15DA JUMPI JUMPDEST POP POP POP DUP2 SHL ADD PUSH1 0x5 DUP6 ADD SSTORE PUSH3 0xB92 JUMP JUMPDEST ADD MLOAD PUSH1 0x0 NOT PUSH1 0xF8 DUP5 PUSH1 0x3 SHL AND SHR NOT AND SWAP1 SSTORE CODESIZE DUP1 DUP1 PUSH3 0x15C9 JUMP JUMPDEST SWAP2 SWAP3 PUSH1 0x20 PUSH1 0x1 DUP2 SWAP3 DUP7 DUP6 ADD MLOAD DUP2 SSTORE ADD SWAP5 ADD SWAP3 ADD PUSH3 0x15A4 JUMP JUMPDEST PUSH3 0x163F SWAP1 PUSH1 0x5 DUP7 ADD PUSH1 0x0 MSTORE PUSH1 0x20 PUSH1 0x0 KECCAK256 PUSH1 0x1F DUP6 ADD PUSH1 0x5 SHR DUP2 ADD SWAP2 PUSH1 0x20 DUP7 LT PUSH3 0x1101 JUMPI PUSH1 0x1F ADD PUSH1 0x5 SHR ADD SWAP1 PUSH3 0x1D34 JUMP JUMPDEST CODESIZE PUSH3 0xB58 JUMP JUMPDEST SWAP1 PUSH1 0x7F AND SWAP1 PUSH3 0xB44 JUMP JUMPDEST PUSH1 0x0 SWAP3 PUSH1 0x0 JUMPDEST PUSH1 0x1F NOT DUP4 AND DUP4 SUB DUP2 LT PUSH3 0x1675 JUMPI POP POP PUSH1 0x5 SHR ADD SSTORE CODESIZE DUP1 DUP1 PUSH3 0xAEC JUMP JUMPDEST SWAP1 SWAP4 DUP5 MLOAD PUSH1 0x7 DUP2 LT ISZERO PUSH3 0x119F JUMPI PUSH3 0x16A2 PUSH1 0x20 SWAP2 DUP5 PUSH1 0x1 SWAP5 SWAP1 PUSH1 0xFF DUP1 SWAP2 PUSH1 0x3 SHL SWAP4 AND DUP4 SHL SWAP3 SHL NOT AND OR SWAP1 JUMP JUMPDEST SWAP6 ADD SWAP2 ADD PUSH3 0x1657 JUMP JUMPDEST PUSH1 0x0 DUP1 JUMPDEST PUSH1 0x20 DUP2 LT PUSH3 0x16C7 JUMPI POP DUP4 DUP3 ADD SSTORE PUSH1 0x1 ADD PUSH3 0xAD3 JUMP JUMPDEST SWAP5 SWAP1 DUP2 MLOAD PUSH1 0x7 DUP2 LT ISZERO PUSH3 0x119F JUMPI PUSH3 0x16F4 PUSH1 0x20 SWAP2 DUP9 PUSH1 0x1 SWAP5 SWAP1 PUSH1 0xFF DUP1 SWAP2 PUSH1 0x3 SHL SWAP4 AND DUP4 SHL SWAP3 SHL NOT AND OR SWAP1 JUMP JUMPDEST SWAP3 ADD SWAP6 ADD PUSH3 0x16B0 JUMP JUMPDEST PUSH3 0x1730 SWAP1 PUSH1 0x2 DUP8 ADD PUSH1 0x0 MSTORE PUSH1 0x1F DUP5 PUSH1 0x0 KECCAK256 SWAP2 DUP2 DUP8 AND DUP1 PUSH3 0x1241 JUMPI POP ADD PUSH1 0x5 SHR DUP2 ADD SWAP1 PUSH1 0x1F DUP7 ADD PUSH1 0x5 SHR ADD PUSH3 0x1D34 JUMP JUMPDEST CODESIZE PUSH3 0xAC0 JUMP JUMPDEST ADD MLOAD SWAP1 POP CODESIZE DUP1 PUSH3 0xA4D JUMP JUMPDEST DUP4 PUSH1 0x0 MSTORE PUSH1 0x20 PUSH1 0x0 KECCAK256 SWAP1 PUSH1 0x0 JUMPDEST PUSH1 0x1F NOT DUP5 AND DUP2 LT PUSH3 0x1798 JUMPI POP PUSH1 0x1 SWAP4 SWAP5 SWAP6 SWAP7 DUP4 PUSH1 0x1F NOT DUP2 AND LT PUSH3 0x177E JUMPI JUMPDEST POP POP POP DUP2 SHL ADD DUP3 SSTORE PUSH3 0xA62 JUMP JUMPDEST ADD MLOAD PUSH1 0x0 NOT PUSH1 0xF8 DUP5 PUSH1 0x3 SHL AND SHR NOT AND SWAP1 SSTORE CODESIZE DUP1 DUP1 PUSH3 0x1770 JUMP JUMPDEST SWAP1 SWAP2 PUSH1 0x20 PUSH1 0x1 DUP2 SWAP3 DUP6 DUP12 ADD MLOAD DUP2 SSTORE ADD SWAP4 ADD SWAP2 ADD PUSH3 0x1750 JUMP JUMPDEST PUSH3 0x17E0 SWAP1 DUP5 PUSH1 0x0 MSTORE PUSH1 0x20 PUSH1 0x0 KECCAK256 PUSH1 0x1F DUP5 ADD PUSH1 0x5 SHR DUP2 ADD SWAP2 PUSH1 0x20 DUP6 LT PUSH3 0x1101 JUMPI PUSH1 0x1F ADD PUSH1 0x5 SHR ADD SWAP1 PUSH3 0x1D34 JUMP JUMPDEST CODESIZE PUSH3 0xA30 JUMP JUMPDEST SWAP1 PUSH1 0x7F AND SWAP1 PUSH3 0xA1C JUMP JUMPDEST ADD MLOAD SWAP1 POP CODESIZE DUP1 PUSH3 0x942 JUMP JUMPDEST SWAP1 PUSH1 0x5 DUP6 ADD PUSH1 0x0 MSTORE PUSH1 0x20 PUSH1 0x0 KECCAK256 SWAP2 PUSH1 0x0 JUMPDEST PUSH1 0x1F NOT DUP6 AND DUP2 LT PUSH3 0x185F JUMPI POP SWAP3 PUSH1 0x6 SWAP5 SWAP3 PUSH1 0x1 SWAP3 PUSH1 0xC0 SWAP6 DUP4 PUSH1 0x1F NOT DUP2 AND LT PUSH3 0x1845 JUMPI JUMPDEST POP POP POP DUP2 SHL ADD PUSH1 0x5 DUP6 ADD SSTORE PUSH3 0x95A JUMP JUMPDEST ADD MLOAD PUSH1 0x0 NOT PUSH1 0xF8 DUP5 PUSH1 0x3 SHL AND SHR NOT AND SWAP1 SSTORE CODESIZE DUP1 DUP1 PUSH3 0x1834 JUMP JUMPDEST SWAP2 SWAP3 PUSH1 0x20 PUSH1 0x1 DUP2 SWAP3 DUP7 DUP6 ADD MLOAD DUP2 SSTORE ADD SWAP5 ADD SWAP3 ADD PUSH3 0x180F JUMP JUMPDEST PUSH3 0x18AA SWAP1 PUSH1 0x5 DUP7 ADD PUSH1 0x0 MSTORE PUSH1 0x20 PUSH1 0x0 KECCAK256 PUSH1 0x1F DUP6 ADD PUSH1 0x5 SHR DUP2 ADD SWAP2 PUSH1 0x20 DUP7 LT PUSH3 0x1101 JUMPI PUSH1 0x1F ADD PUSH1 0x5 SHR ADD SWAP1 PUSH3 0x1D34 JUMP JUMPDEST CODESIZE PUSH3 0x920 JUMP JUMPDEST SWAP1 PUSH1 0x7F AND SWAP1 PUSH3 0x90C JUMP JUMPDEST PUSH1 0x0 SWAP3 PUSH1 0x0 JUMPDEST PUSH1 0x1F NOT DUP4 AND DUP4 SUB DUP2 LT PUSH3 0x18E0 JUMPI POP POP PUSH1 0x5 SHR ADD SSTORE CODESIZE DUP1 DUP1 PUSH3 0x8B4 JUMP JUMPDEST SWAP1 SWAP4 DUP5 MLOAD PUSH1 0x7 DUP2 LT ISZERO PUSH3 0x119F JUMPI PUSH3 0x190D PUSH1 0x20 SWAP2 DUP5 PUSH1 0x1 SWAP5 SWAP1 PUSH1 0xFF DUP1 SWAP2 PUSH1 0x3 SHL SWAP4 AND DUP4 SHL SWAP3 SHL NOT AND OR SWAP1 JUMP JUMPDEST SWAP6 ADD SWAP2 ADD PUSH3 0x18C2 JUMP JUMPDEST PUSH1 0x0 DUP1 JUMPDEST PUSH1 0x20 DUP2 LT PUSH3 0x1932 JUMPI POP DUP4 DUP3 ADD SSTORE PUSH1 0x1 ADD PUSH3 0x89B JUMP JUMPDEST SWAP5 SWAP1 DUP2 MLOAD PUSH1 0x7 DUP2 LT ISZERO PUSH3 0x119F JUMPI PUSH3 0x195F PUSH1 0x20 SWAP2 DUP9 PUSH1 0x1 SWAP5 SWAP1 PUSH1 0xFF DUP1 SWAP2 PUSH1 0x3 SHL SWAP4 AND DUP4 SHL SWAP3 SHL NOT AND OR SWAP1 JUMP JUMPDEST SWAP3 ADD SWAP6 ADD PUSH3 0x191B JUMP JUMPDEST PUSH3 0x199B SWAP1 PUSH1 0x2 DUP8 ADD PUSH1 0x0 MSTORE PUSH1 0x1F DUP5 PUSH1 0x0 KECCAK256 SWAP2 DUP2 DUP8 AND DUP1 PUSH3 0x1241 JUMPI POP ADD PUSH1 0x5 SHR DUP2 ADD SWAP1 PUSH1 0x1F DUP7 ADD PUSH1 0x5 SHR ADD PUSH3 0x1D34 JUMP JUMPDEST CODESIZE PUSH3 0x888 JUMP JUMPDEST ADD MLOAD SWAP1 POP CODESIZE DUP1 PUSH3 0x815 JUMP JUMPDEST SWAP3 POP DUP5 PUSH1 0x0 MSTORE PUSH1 0x20 PUSH1 0x0 KECCAK256 SWAP1 PUSH1 0x0 SWAP4 JUMPDEST PUSH1 0x1F NOT DUP5 AND DUP6 LT PUSH3 0x1A03 JUMPI PUSH1 0x1 SWAP5 POP DUP4 PUSH1 0x1F NOT DUP2 AND LT PUSH3 0x19E9 JUMPI JUMPDEST POP POP POP DUP2 SHL ADD DUP3 SSTORE PUSH3 0x82A JUMP JUMPDEST ADD MLOAD PUSH1 0x0 NOT PUSH1 0xF8 DUP5 PUSH1 0x3 SHL AND SHR NOT AND SWAP1 SSTORE CODESIZE DUP1 DUP1 PUSH3 0x19DB JUMP JUMPDEST DUP2 DUP2 ADD MLOAD DUP4 SSTORE PUSH1 0x20 SWAP5 DUP6 ADD SWAP5 PUSH1 0x1 SWAP1 SWAP4 ADD SWAP3 SWAP1 SWAP2 ADD SWAP1 PUSH3 0x19BE JUMP JUMPDEST PUSH3 0x1A4E SWAP1 DUP7 PUSH1 0x0 MSTORE PUSH1 0x20 PUSH1 0x0 KECCAK256 PUSH1 0x1F DUP6 ADD PUSH1 0x5 SHR DUP2 ADD SWAP2 PUSH1 0x20 DUP7 LT PUSH3 0x1101 JUMPI PUSH1 0x1F ADD PUSH1 0x5 SHR ADD SWAP1 PUSH3 0x1D34 JUMP JUMPDEST CODESIZE PUSH3 0x7FC JUMP JUMPDEST SWAP2 PUSH1 0x7F AND SWAP2 PUSH3 0x7E6 JUMP JUMPDEST ADD MLOAD SWAP1 POP CODESIZE DUP1 PUSH3 0x6E0 JUMP JUMPDEST SWAP1 PUSH1 0x5 DUP6 ADD PUSH1 0x0 MSTORE PUSH1 0x20 PUSH1 0x0 KECCAK256 SWAP2 PUSH1 0x0 JUMPDEST PUSH1 0x1F NOT DUP6 AND DUP2 LT PUSH3 0x1ACD JUMPI POP SWAP3 PUSH1 0x6 SWAP5 SWAP3 PUSH1 0x1 SWAP3 PUSH1 0xC0 SWAP6 DUP4 PUSH1 0x1F NOT DUP2 AND LT PUSH3 0x1AB3 JUMPI JUMPDEST POP POP POP DUP2 SHL ADD PUSH1 0x5 DUP6 ADD SSTORE PUSH3 0x6F8 JUMP JUMPDEST ADD MLOAD PUSH1 0x0 NOT PUSH1 0xF8 DUP5 PUSH1 0x3 SHL AND SHR NOT AND SWAP1 SSTORE CODESIZE DUP1 DUP1 PUSH3 0x1AA2 JUMP JUMPDEST SWAP2 SWAP3 PUSH1 0x20 PUSH1 0x1 DUP2 SWAP3 DUP7 DUP6 ADD MLOAD DUP2 SSTORE ADD SWAP5 ADD SWAP3 ADD PUSH3 0x1A7D JUMP JUMPDEST PUSH3 0x1B18 SWAP1 PUSH1 0x5 DUP7 ADD PUSH1 0x0 MSTORE PUSH1 0x20 PUSH1 0x0 KECCAK256 PUSH1 0x1F DUP6 ADD PUSH1 0x5 SHR DUP2 ADD SWAP2 PUSH1 0x20 DUP7 LT PUSH3 0x1101 JUMPI PUSH1 0x1F ADD PUSH1 0x5 SHR ADD SWAP1 PUSH3 0x1D34 JUMP JUMPDEST CODESIZE PUSH3 0x6BE JUMP JUMPDEST SWAP1 PUSH1 0x7F AND SWAP1 PUSH3 0x6AA JUMP JUMPDEST PUSH1 0x0 SWAP3 PUSH1 0x0 JUMPDEST PUSH1 0x1F NOT DUP4 AND DUP4 SUB DUP2 LT PUSH3 0x1B4E JUMPI POP POP PUSH1 0x5 SHR ADD SSTORE CODESIZE DUP1 DUP1 PUSH3 0x652 JUMP JUMPDEST SWAP1 SWAP4 DUP5 MLOAD PUSH1 0x7 DUP2 LT ISZERO PUSH3 0x119F JUMPI PUSH3 0x1B7B PUSH1 0x20 SWAP2 DUP5 PUSH1 0x1 SWAP5 SWAP1 PUSH1 0xFF DUP1 SWAP2 PUSH1 0x3 SHL SWAP4 AND DUP4 SHL SWAP3 SHL NOT AND OR SWAP1 JUMP JUMPDEST SWAP6 ADD SWAP2 ADD PUSH3 0x1B30 JUMP JUMPDEST PUSH1 0x0 DUP1 JUMPDEST PUSH1 0x20 DUP2 LT PUSH3 0x1BA0 JUMPI POP DUP4 DUP3 ADD SSTORE PUSH1 0x1 ADD PUSH3 0x639 JUMP JUMPDEST SWAP5 SWAP1 DUP2 MLOAD PUSH1 0x7 DUP2 LT ISZERO PUSH3 0x119F JUMPI PUSH3 0x1BCD PUSH1 0x20 SWAP2 DUP9 PUSH1 0x1 SWAP5 SWAP1 PUSH1 0xFF DUP1 SWAP2 PUSH1 0x3 SHL SWAP4 AND DUP4 SHL SWAP3 SHL NOT AND OR SWAP1 JUMP JUMPDEST SWAP3 ADD SWAP6 ADD PUSH3 0x1B89 JUMP JUMPDEST PUSH3 0x1C09 SWAP1 PUSH1 0x2 DUP8 ADD PUSH1 0x0 MSTORE PUSH1 0x1F DUP5 PUSH1 0x0 KECCAK256 SWAP2 DUP2 DUP8 AND DUP1 PUSH3 0x1241 JUMPI POP ADD PUSH1 0x5 SHR DUP2 ADD SWAP1 PUSH1 0x1F DUP7 ADD PUSH1 0x5 SHR ADD PUSH3 0x1D34 JUMP JUMPDEST CODESIZE PUSH3 0x626 JUMP JUMPDEST ADD MLOAD SWAP1 POP CODESIZE DUP1 PUSH3 0x5B3 JUMP JUMPDEST DUP4 PUSH1 0x0 MSTORE PUSH1 0x20 PUSH1 0x0 KECCAK256 SWAP1 PUSH1 0x0 JUMPDEST PUSH1 0x1F NOT DUP5 AND DUP2 LT PUSH3 0x1C71 JUMPI POP PUSH1 0x1 SWAP4 SWAP5 SWAP6 SWAP7 DUP4 PUSH1 0x1F NOT DUP2 AND LT PUSH3 0x1C57 JUMPI JUMPDEST POP POP POP DUP2 SHL ADD DUP3 SSTORE PUSH3 0x5C8 JUMP JUMPDEST ADD MLOAD PUSH1 0x0 NOT PUSH1 0xF8 DUP5 PUSH1 0x3 SHL AND SHR NOT AND SWAP1 SSTORE CODESIZE DUP1 DUP1 PUSH3 0x1C49 JUMP JUMPDEST SWAP1 SWAP2 PUSH1 0x20 PUSH1 0x1 DUP2 SWAP3 DUP6 DUP12 ADD MLOAD DUP2 SSTORE ADD SWAP4 ADD SWAP2 ADD PUSH3 0x1C29 JUMP JUMPDEST PUSH3 0x1CB9 SWAP1 DUP5 PUSH1 0x0 MSTORE PUSH1 0x20 PUSH1 0x0 KECCAK256 PUSH1 0x1F DUP5 ADD PUSH1 0x5 SHR DUP2 ADD SWAP2 PUSH1 0x20 DUP6 LT PUSH3 0x1101 JUMPI PUSH1 0x1F ADD PUSH1 0x5 SHR ADD SWAP1 PUSH3 0x1D34 JUMP JUMPDEST CODESIZE PUSH3 0x596 JUMP JUMPDEST SWAP1 PUSH1 0x7F AND SWAP1 PUSH3 0x57F JUMP JUMPDEST PUSH4 0x4E487B71 PUSH1 0xE0 SHL PUSH1 0x0 MSTORE PUSH1 0x32 PUSH1 0x4 MSTORE PUSH1 0x24 PUSH1 0x0 REVERT JUMPDEST PUSH1 0x0 DUP1 REVERT JUMPDEST PUSH1 0x40 MLOAD SWAP1 PUSH1 0xE0 DUP3 ADD PUSH1 0x1 PUSH1 0x1 PUSH1 0x40 SHL SUB DUP2 GT DUP4 DUP3 LT OR PUSH3 0x112D JUMPI PUSH1 0x40 MSTORE JUMP JUMPDEST PUSH1 0x40 DUP1 MLOAD SWAP2 SWAP1 DUP3 ADD PUSH1 0x1 PUSH1 0x1 PUSH1 0x40 SHL SUB DUP2 GT DUP4 DUP3 LT OR PUSH3 0x112D JUMPI PUSH1 0x40 MSTORE JUMP JUMPDEST DUP1 MLOAD ISZERO PUSH3 0x1CCB JUMPI PUSH1 0x20 ADD SWAP1 JUMP JUMPDEST DUP2 DUP2 LT PUSH3 0x1D40 JUMPI POP POP JUMP JUMPDEST PUSH1 0x0 DUP2 SSTORE PUSH1 0x1 ADD PUSH3 0x1D34 JUMP INVALID PUSH1 0x80 PUSH1 0x40 MSTORE PUSH1 0x4 CALLDATASIZE LT ISZERO PUSH2 0x12 JUMPI PUSH1 0x0 DUP1 REVERT JUMPDEST PUSH1 0x0 CALLDATALOAD PUSH1 0xE0 SHR DUP1 PUSH4 0x2899DACC EQ PUSH2 0x1600 JUMPI DUP1 PUSH4 0x31D75ED2 EQ PUSH2 0xE27 JUMPI DUP1 PUSH4 0x3621453D EQ PUSH2 0x1556 JUMPI DUP1 PUSH4 0x3704C9ED EQ PUSH2 0x1530 JUMPI DUP1 PUSH4 0x3A25BB16 EQ PUSH2 0x150B JUMPI DUP1 PUSH4 0x5035951C EQ PUSH2 0x1468 JUMPI DUP1 PUSH4 0x50A97CE9 EQ PUSH2 0x1442 JUMPI DUP1 PUSH4 0x5124857B EQ PUSH2 0x1426 JUMPI DUP1 PUSH4 0x5C975ABB EQ PUSH2 0x1400 JUMPI DUP1 PUSH4 0x61FD5C20 EQ PUSH2 0x1354 JUMPI DUP1 PUSH4 0x715018A6 EQ PUSH2 0x12FB JUMPI DUP1 PUSH4 0x73EF5D40 EQ PUSH2 0xE88 JUMPI DUP1 PUSH4 0x76233C9E EQ PUSH2 0xE27 JUMPI DUP1 PUSH4 0x8DA5CB5B EQ PUSH2 0xDFE JUMPI DUP1 PUSH4 0x90AA77B3 EQ PUSH2 0xD20 JUMPI DUP1 PUSH4 0x9CB601F4 EQ PUSH2 0xCEB JUMPI DUP1 PUSH4 0x9E42E1FC EQ PUSH2 0xBEE JUMPI DUP1 PUSH4 0xA324CAE4 EQ PUSH2 0xB74 JUMPI DUP1 PUSH4 0xC342102C EQ PUSH2 0x280 JUMPI DUP1 PUSH4 0xD701DE83 EQ PUSH2 0x1E7 JUMPI DUP1 PUSH4 0xE4B3C708 EQ PUSH2 0x218 JUMPI DUP1 PUSH4 0xEBC471C4 EQ PUSH2 0x1E7 JUMPI PUSH4 0xF2FDE38B EQ PUSH2 0x119 JUMPI PUSH1 0x0 DUP1 REVERT JUMPDEST CALLVALUE PUSH2 0x1E2 JUMPI PUSH1 0x20 CALLDATASIZE PUSH1 0x3 NOT ADD SLT PUSH2 0x1E2 JUMPI PUSH2 0x132 PUSH2 0x2506 JUMP JUMPDEST PUSH2 0x13A PUSH2 0x26E2 JUMP JUMPDEST PUSH1 0x1 PUSH1 0x1 PUSH1 0xA0 SHL SUB SWAP1 DUP2 AND SWAP1 DUP2 ISZERO PUSH2 0x18E JUMPI PUSH1 0x0 SLOAD DUP3 PUSH12 0xFFFFFFFFFFFFFFFFFFFFFFFF PUSH1 0xA0 SHL DUP3 AND OR PUSH1 0x0 SSTORE AND PUSH32 0x8BE0079C531659141344CD1FD0A4F28419497F9722A3DAAFE3B4186F6B6457E0 PUSH1 0x0 DUP1 LOG3 STOP JUMPDEST PUSH1 0x40 MLOAD PUSH3 0x461BCD PUSH1 0xE5 SHL DUP2 MSTORE PUSH1 0x20 PUSH1 0x4 DUP3 ADD MSTORE PUSH1 0x26 PUSH1 0x24 DUP3 ADD MSTORE PUSH32 0x4F776E61626C653A206E6577206F776E657220697320746865207A65726F2061 PUSH1 0x44 DUP3 ADD MSTORE PUSH6 0x646472657373 PUSH1 0xD0 SHL PUSH1 0x64 DUP3 ADD MSTORE PUSH1 0x84 SWAP1 REVERT JUMPDEST PUSH1 0x0 DUP1 REVERT JUMPDEST CALLVALUE PUSH2 0x1E2 JUMPI PUSH1 0x20 CALLDATASIZE PUSH1 0x3 NOT ADD SLT PUSH2 0x1E2 JUMPI PUSH1 0x4 CALLDATALOAD PUSH1 0x4 DUP2 LT ISZERO PUSH2 0x1E2 JUMPI PUSH2 0x20F PUSH1 0x20 SWAP2 PUSH2 0x26C9 JUMP JUMPDEST SLOAD PUSH1 0x40 MLOAD SWAP1 DUP2 MSTORE RETURN JUMPDEST CALLVALUE PUSH2 0x1E2 JUMPI PUSH1 0x20 CALLDATASIZE PUSH1 0x3 NOT ADD SLT PUSH2 0x1E2 JUMPI PUSH1 0x4 CALLDATALOAD PUSH1 0x1 PUSH1 0x1 PUSH1 0x40 SHL SUB DUP2 GT PUSH2 0x1E2 JUMPI PUSH2 0x24A PUSH1 0x20 SWAP2 CALLDATASIZE SWAP1 PUSH1 0x4 ADD PUSH2 0x24BF JUMP JUMPDEST DUP2 PUSH2 0x25E PUSH1 0x40 MLOAD SWAP3 DUP4 DUP2 MLOAD SWAP4 DUP5 SWAP3 ADD PUSH2 0x2529 JUMP JUMPDEST PUSH1 0x2 SWAP1 DUP3 ADD SWAP1 DUP2 MSTORE DUP2 SWAP1 SUB DUP3 ADD SWAP1 KECCAK256 SLOAD PUSH1 0x40 MLOAD PUSH1 0x1 PUSH1 0x1 PUSH1 0xA0 SHL SUB SWAP1 SWAP2 AND DUP2 MSTORE RETURN JUMPDEST CALLVALUE PUSH2 0x1E2 JUMPI PUSH1 0x20 CALLDATASIZE PUSH1 0x3 NOT ADD SLT PUSH2 0x1E2 JUMPI PUSH2 0x299 PUSH2 0x2506 JUMP JUMPDEST PUSH1 0x0 PUSH1 0xC0 PUSH1 0x40 MLOAD PUSH2 0x2A9 DUP2 PUSH2 0x2432 JUMP JUMPDEST PUSH1 0x60 DUP2 MSTORE DUP3 PUSH1 0x20 DUP3 ADD MSTORE PUSH1 0x60 PUSH1 0x40 DUP3 ADD MSTORE DUP3 PUSH1 0x60 DUP3 ADD MSTORE DUP3 PUSH1 0x80 DUP3 ADD MSTORE PUSH1 0x60 PUSH1 0xA0 DUP3 ADD MSTORE ADD MSTORE PUSH1 0x1 DUP1 PUSH1 0xA0 SHL SUB AND PUSH1 0x0 MSTORE PUSH1 0x1 PUSH1 0x20 MSTORE PUSH1 0x40 PUSH1 0x0 KECCAK256 PUSH1 0x40 MLOAD PUSH2 0x2F0 DUP2 PUSH2 0x2432 JUMP JUMPDEST PUSH2 0x2F9 DUP3 PUSH2 0x25AB JUMP JUMPDEST DUP2 MSTORE PUSH2 0x30F PUSH1 0xFF PUSH1 0x1 DUP5 ADD SLOAD AND PUSH1 0x20 DUP4 ADD PUSH2 0x2767 JUMP JUMPDEST PUSH1 0x2 DUP3 ADD SWAP2 PUSH1 0x40 MLOAD DUP1 PUSH1 0x20 DUP6 SLOAD SWAP2 DUP3 DUP2 MSTORE ADD SWAP5 PUSH1 0x0 MSTORE PUSH1 0x20 PUSH1 0x0 KECCAK256 SWAP1 PUSH1 0x0 SWAP2 JUMPDEST DUP2 PUSH1 0x1F DUP5 ADD LT PUSH2 0x8F1 JUMPI SWAP6 PUSH2 0x44C SWAP3 DUP5 SWAP3 PUSH1 0x6 SWAP8 SWAP9 SLOAD SWAP2 DUP2 DUP2 LT PUSH2 0x8D6 JUMPI JUMPDEST DUP2 DUP2 LT PUSH2 0x8B8 JUMPI JUMPDEST DUP2 DUP2 LT PUSH2 0x89A JUMPI JUMPDEST DUP2 DUP2 LT PUSH2 0x87C JUMPI JUMPDEST DUP2 DUP2 LT PUSH2 0x85F JUMPI JUMPDEST DUP2 DUP2 LT PUSH2 0x841 JUMPI JUMPDEST DUP2 DUP2 LT PUSH2 0x823 JUMPI JUMPDEST DUP2 DUP2 LT PUSH2 0x805 JUMPI JUMPDEST DUP2 DUP2 LT PUSH2 0x7E7 JUMPI JUMPDEST DUP2 DUP2 LT PUSH2 0x7C9 JUMPI JUMPDEST DUP2 DUP2 LT PUSH2 0x7AB JUMPI JUMPDEST DUP2 DUP2 LT PUSH2 0x78D JUMPI JUMPDEST DUP2 DUP2 LT PUSH2 0x76F JUMPI JUMPDEST DUP2 DUP2 LT PUSH2 0x751 JUMPI JUMPDEST DUP2 DUP2 LT PUSH2 0x733 JUMPI JUMPDEST DUP2 DUP2 LT PUSH2 0x715 JUMPI JUMPDEST DUP2 DUP2 LT PUSH2 0x6F7 JUMPI JUMPDEST DUP2 DUP2 LT PUSH2 0x6D9 JUMPI JUMPDEST DUP2 DUP2 LT PUSH2 0x6BB JUMPI JUMPDEST DUP2 DUP2 LT PUSH2 0x69D JUMPI JUMPDEST DUP2 DUP2 LT PUSH2 0x67F JUMPI JUMPDEST DUP2 DUP2 LT PUSH2 0x661 JUMPI JUMPDEST DUP2 DUP2 LT PUSH2 0x643 JUMPI JUMPDEST DUP2 DUP2 LT PUSH2 0x625 JUMPI JUMPDEST DUP2 DUP2 LT PUSH2 0x607 JUMPI JUMPDEST DUP2 DUP2 LT PUSH2 0x5E9 JUMPI JUMPDEST DUP2 DUP2 LT PUSH2 0x5CB JUMPI JUMPDEST DUP2 DUP2 LT PUSH2 0x5AD JUMPI JUMPDEST DUP2 DUP2 LT PUSH2 0x58F JUMPI JUMPDEST DUP2 DUP2 LT PUSH2 0x571 JUMPI JUMPDEST DUP2 DUP2 LT PUSH2 0x553 JUMPI JUMPDEST LT PUSH2 0x53C JUMPI JUMPDEST POP SUB DUP3 PUSH2 0x2483 JUMP JUMPDEST PUSH1 0x40 DUP5 ADD MSTORE PUSH1 0xFF PUSH1 0x3 DUP3 ADD SLOAD AND ISZERO ISZERO PUSH1 0x60 DUP5 ADD MSTORE PUSH1 0x4 DUP2 ADD SLOAD PUSH1 0x80 DUP5 ADD MSTORE PUSH2 0x476 PUSH1 0x5 DUP3 ADD PUSH2 0x25AB JUMP JUMPDEST PUSH1 0xA0 DUP5 ADD MSTORE ADD SLOAD PUSH1 0xC0 DUP3 ADD MSTORE PUSH1 0x40 MLOAD PUSH1 0x20 DUP2 MSTORE PUSH2 0x4A0 DUP3 MLOAD PUSH1 0xE0 PUSH1 0x20 DUP5 ADD MSTORE PUSH2 0x100 DUP4 ADD SWAP1 PUSH2 0x254C JUMP JUMPDEST SWAP2 PUSH2 0x4B3 PUSH1 0x20 DUP3 ADD MLOAD PUSH1 0x40 DUP5 ADD SWAP1 PUSH2 0x2651 JUMP JUMPDEST PUSH1 0x40 DUP2 ADD MLOAD SWAP3 PUSH1 0x1F NOT DUP4 DUP3 SUB ADD PUSH1 0x60 DUP5 ADD MSTORE PUSH1 0x20 DUP1 DUP6 MLOAD SWAP3 DUP4 DUP2 MSTORE ADD SWAP5 ADD SWAP1 PUSH1 0x0 JUMPDEST DUP2 DUP2 LT PUSH2 0x51D JUMPI POP POP POP PUSH1 0xC0 PUSH2 0x511 DUP4 SWAP5 PUSH1 0x60 DUP5 ADD MLOAD ISZERO ISZERO PUSH1 0x80 DUP7 ADD MSTORE PUSH1 0x80 DUP5 ADD MLOAD PUSH1 0xA0 DUP7 ADD MSTORE PUSH1 0xA0 DUP5 ADD MLOAD PUSH1 0x1F NOT DUP7 DUP4 SUB ADD DUP5 DUP8 ADD MSTORE PUSH2 0x254C JUMP JUMPDEST SWAP2 ADD MLOAD PUSH1 0xE0 DUP4 ADD MSTORE SUB SWAP1 RETURN JUMPDEST SWAP1 SWAP2 SWAP5 PUSH1 0x20 DUP1 DUP3 PUSH2 0x531 PUSH1 0x1 SWAP5 DUP11 MLOAD PUSH2 0x26BC JUMP JUMPDEST ADD SWAP7 ADD SWAP3 SWAP2 ADD PUSH2 0x4D5 JUMP JUMPDEST SWAP1 PUSH2 0x54C DUP2 PUSH1 0x20 SWAP4 PUSH1 0xF8 SHR PUSH2 0x26BC JUMP JUMPDEST ADD DUP8 PUSH2 0x444 JUMP JUMPDEST SWAP3 PUSH1 0x20 DUP2 PUSH2 0x569 PUSH1 0x1 SWAP4 PUSH1 0xFF DUP8 PUSH1 0xF0 SHR AND PUSH2 0x26BC JUMP JUMPDEST ADD SWAP4 ADD PUSH2 0x43E JUMP JUMPDEST SWAP3 PUSH1 0x20 DUP2 PUSH2 0x587 PUSH1 0x1 SWAP4 PUSH1 0xFF DUP8 PUSH1 0xE8 SHR AND PUSH2 0x26BC JUMP JUMPDEST ADD SWAP4 ADD PUSH2 0x436 JUMP JUMPDEST SWAP3 PUSH1 0x20 DUP2 PUSH2 0x5A5 PUSH1 0x1 SWAP4 PUSH1 0xFF DUP8 PUSH1 0xE0 SHR AND PUSH2 0x26BC JUMP JUMPDEST ADD SWAP4 ADD PUSH2 0x42E JUMP JUMPDEST SWAP3 PUSH1 0x20 DUP2 PUSH2 0x5C3 PUSH1 0x1 SWAP4 PUSH1 0xFF DUP8 PUSH1 0xD8 SHR AND PUSH2 0x26BC JUMP JUMPDEST ADD SWAP4 ADD PUSH2 0x426 JUMP JUMPDEST SWAP3 PUSH1 0x20 DUP2 PUSH2 0x5E1 PUSH1 0x1 SWAP4 PUSH1 0xFF DUP8 PUSH1 0xD0 SHR AND PUSH2 0x26BC JUMP JUMPDEST ADD SWAP4 ADD PUSH2 0x41E JUMP JUMPDEST SWAP3 PUSH1 0x20 DUP2 PUSH2 0x5FF PUSH1 0x1 SWAP4 PUSH1 0xFF DUP8 PUSH1 0xC8 SHR AND PUSH2 0x26BC JUMP JUMPDEST ADD SWAP4 ADD PUSH2 0x416 JUMP JUMPDEST SWAP3 PUSH1 0x20 DUP2 PUSH2 0x61D PUSH1 0x1 SWAP4 PUSH1 0xFF DUP8 PUSH1 0xC0 SHR AND PUSH2 0x26BC JUMP JUMPDEST ADD SWAP4 ADD PUSH2 0x40E JUMP JUMPDEST SWAP3 PUSH1 0x20 DUP2 PUSH2 0x63B PUSH1 0x1 SWAP4 PUSH1 0xFF DUP8 PUSH1 0xB8 SHR AND PUSH2 0x26BC JUMP JUMPDEST ADD SWAP4 ADD PUSH2 0x406 JUMP JUMPDEST SWAP3 PUSH1 0x20 DUP2 PUSH2 0x659 PUSH1 0x1 SWAP4 PUSH1 0xFF DUP8 PUSH1 0xB0 SHR AND PUSH2 0x26BC JUMP JUMPDEST ADD SWAP4 ADD PUSH2 0x3FE JUMP JUMPDEST SWAP3 PUSH1 0x20 DUP2 PUSH2 0x677 PUSH1 0x1 SWAP4 PUSH1 0xFF DUP8 PUSH1 0xA8 SHR AND PUSH2 0x26BC JUMP JUMPDEST ADD SWAP4 ADD PUSH2 0x3F6 JUMP JUMPDEST SWAP3 PUSH1 0x20 DUP2 PUSH2 0x695 PUSH1 0x1 SWAP4 PUSH1 0xFF DUP8 PUSH1 0xA0 SHR AND PUSH2 0x26BC JUMP JUMPDEST ADD SWAP4 ADD PUSH2 0x3EE JUMP JUMPDEST SWAP3 PUSH1 0x20 DUP2 PUSH2 0x6B3 PUSH1 0x1 SWAP4 PUSH1 0xFF DUP8 PUSH1 0x98 SHR AND PUSH2 0x26BC JUMP JUMPDEST ADD SWAP4 ADD PUSH2 0x3E6 JUMP JUMPDEST SWAP3 PUSH1 0x20 DUP2 PUSH2 0x6D1 PUSH1 0x1 SWAP4 PUSH1 0xFF DUP8 PUSH1 0x90 SHR AND PUSH2 0x26BC JUMP JUMPDEST ADD SWAP4 ADD PUSH2 0x3DE JUMP JUMPDEST SWAP3 PUSH1 0x20 DUP2 PUSH2 0x6EF PUSH1 0x1 SWAP4 PUSH1 0xFF DUP8 PUSH1 0x88 SHR AND PUSH2 0x26BC JUMP JUMPDEST ADD SWAP4 ADD PUSH2 0x3D6 JUMP JUMPDEST SWAP3 PUSH1 0x20 DUP2 PUSH2 0x70D PUSH1 0x1 SWAP4 PUSH1 0xFF DUP8 PUSH1 0x80 SHR AND PUSH2 0x26BC JUMP JUMPDEST ADD SWAP4 ADD PUSH2 0x3CE JUMP JUMPDEST SWAP3 PUSH1 0x20 DUP2 PUSH2 0x72B PUSH1 0x1 SWAP4 PUSH1 0xFF DUP8 PUSH1 0x78 SHR AND PUSH2 0x26BC JUMP JUMPDEST ADD SWAP4 ADD PUSH2 0x3C6 JUMP JUMPDEST SWAP3 PUSH1 0x20 DUP2 PUSH2 0x749 PUSH1 0x1 SWAP4 PUSH1 0xFF DUP8 PUSH1 0x70 SHR AND PUSH2 0x26BC JUMP JUMPDEST ADD SWAP4 ADD PUSH2 0x3BE JUMP JUMPDEST SWAP3 PUSH1 0x20 DUP2 PUSH2 0x767 PUSH1 0x1 SWAP4 PUSH1 0xFF DUP8 PUSH1 0x68 SHR AND PUSH2 0x26BC JUMP JUMPDEST ADD SWAP4 ADD PUSH2 0x3B6 JUMP JUMPDEST SWAP3 PUSH1 0x20 DUP2 PUSH2 0x785 PUSH1 0x1 SWAP4 PUSH1 0xFF DUP8 PUSH1 0x60 SHR AND PUSH2 0x26BC JUMP JUMPDEST ADD SWAP4 ADD PUSH2 0x3AE JUMP JUMPDEST SWAP3 PUSH1 0x20 DUP2 PUSH2 0x7A3 PUSH1 0x1 SWAP4 PUSH1 0xFF DUP8 PUSH1 0x58 SHR AND PUSH2 0x26BC JUMP JUMPDEST ADD SWAP4 ADD PUSH2 0x3A6 JUMP JUMPDEST SWAP3 PUSH1 0x20 DUP2 PUSH2 0x7C1 PUSH1 0x1 SWAP4 PUSH1 0xFF DUP8 PUSH1 0x50 SHR AND PUSH2 0x26BC JUMP JUMPDEST ADD SWAP4 ADD PUSH2 0x39E JUMP JUMPDEST SWAP3 PUSH1 0x20 DUP2 PUSH2 0x7DF PUSH1 0x1 SWAP4 PUSH1 0xFF DUP8 PUSH1 0x48 SHR AND PUSH2 0x26BC JUMP JUMPDEST ADD SWAP4 ADD PUSH2 0x396 JUMP JUMPDEST SWAP3 PUSH1 0x20 DUP2 PUSH2 0x7FD PUSH1 0x1 SWAP4 PUSH1 0xFF DUP8 PUSH1 0x40 SHR AND PUSH2 0x26BC JUMP JUMPDEST ADD SWAP4 ADD PUSH2 0x38E JUMP JUMPDEST SWAP3 PUSH1 0x20 DUP2 PUSH2 0x81B PUSH1 0x1 SWAP4 PUSH1 0xFF DUP8 PUSH1 0x38 SHR AND PUSH2 0x26BC JUMP JUMPDEST ADD SWAP4 ADD PUSH2 0x386 JUMP JUMPDEST SWAP3 PUSH1 0x20 DUP2 PUSH2 0x839 PUSH1 0x1 SWAP4 PUSH1 0xFF DUP8 PUSH1 0x30 SHR AND PUSH2 0x26BC JUMP JUMPDEST ADD SWAP4 ADD PUSH2 0x37E JUMP JUMPDEST SWAP3 PUSH1 0x20 DUP2 PUSH2 0x857 PUSH1 0x1 SWAP4 PUSH1 0xFF DUP8 PUSH1 0x28 SHR AND PUSH2 0x26BC JUMP JUMPDEST ADD SWAP4 ADD PUSH2 0x376 JUMP JUMPDEST SWAP3 PUSH1 0x20 DUP2 PUSH2 0x874 PUSH1 0x1 SWAP4 PUSH1 0xFF DUP8 DUP6 SHR AND PUSH2 0x26BC JUMP JUMPDEST ADD SWAP4 ADD PUSH2 0x36E JUMP JUMPDEST SWAP3 PUSH1 0x20 DUP2 PUSH2 0x892 PUSH1 0x1 SWAP4 PUSH1 0xFF DUP8 PUSH1 0x18 SHR AND PUSH2 0x26BC JUMP JUMPDEST ADD SWAP4 ADD PUSH2 0x366 JUMP JUMPDEST SWAP3 PUSH1 0x20 DUP2 PUSH2 0x8B0 PUSH1 0x1 SWAP4 PUSH1 0xFF DUP8 PUSH1 0x10 SHR AND PUSH2 0x26BC JUMP JUMPDEST ADD SWAP4 ADD PUSH2 0x35E JUMP JUMPDEST SWAP3 PUSH1 0x20 DUP2 PUSH2 0x8CE PUSH1 0x1 SWAP4 PUSH1 0xFF DUP8 PUSH1 0x8 SHR AND PUSH2 0x26BC JUMP JUMPDEST ADD SWAP4 ADD PUSH2 0x356 JUMP JUMPDEST SWAP3 PUSH1 0x20 DUP2 PUSH2 0x8E9 PUSH1 0x1 SWAP4 PUSH1 0xFF DUP8 AND PUSH2 0x26BC JUMP JUMPDEST ADD SWAP4 ADD PUSH2 0x34E JUMP JUMPDEST SWAP6 PUSH1 0x1 PUSH2 0x400 PUSH1 0x20 SWAP3 PUSH2 0xB69 DUP11 SLOAD PUSH2 0x90C DUP4 PUSH1 0xFF DUP4 AND PUSH2 0x26BC JUMP JUMPDEST PUSH2 0x91E DUP7 DUP5 ADD PUSH1 0xFF DUP4 PUSH1 0x8 SHR AND PUSH2 0x26BC JUMP JUMPDEST PUSH2 0x931 PUSH1 0x40 DUP5 ADD PUSH1 0xFF DUP4 PUSH1 0x10 SHR AND PUSH2 0x26BC JUMP JUMPDEST PUSH2 0x944 PUSH1 0x60 DUP5 ADD PUSH1 0xFF DUP4 PUSH1 0x18 SHR AND PUSH2 0x26BC JUMP JUMPDEST PUSH2 0x956 PUSH1 0x80 DUP5 ADD PUSH1 0xFF DUP4 DUP10 SHR AND PUSH2 0x26BC JUMP JUMPDEST PUSH2 0x969 PUSH1 0xA0 DUP5 ADD PUSH1 0xFF DUP4 PUSH1 0x28 SHR AND PUSH2 0x26BC JUMP JUMPDEST PUSH2 0x97C PUSH1 0xC0 DUP5 ADD PUSH1 0xFF DUP4 PUSH1 0x30 SHR AND PUSH2 0x26BC JUMP JUMPDEST PUSH2 0x98F PUSH1 0xE0 DUP5 ADD PUSH1 0xFF DUP4 PUSH1 0x38 SHR AND PUSH2 0x26BC JUMP JUMPDEST PUSH2 0x9A3 PUSH2 0x100 DUP5 ADD PUSH1 0xFF DUP4 PUSH1 0x40 SHR AND PUSH2 0x26BC JUMP JUMPDEST PUSH2 0x9B7 PUSH2 0x120 DUP5 ADD PUSH1 0xFF DUP4 PUSH1 0x48 SHR AND PUSH2 0x26BC JUMP JUMPDEST PUSH2 0x9CB PUSH2 0x140 DUP5 ADD PUSH1 0xFF DUP4 PUSH1 0x50 SHR AND PUSH2 0x26BC JUMP JUMPDEST PUSH2 0x9DF PUSH2 0x160 DUP5 ADD PUSH1 0xFF DUP4 PUSH1 0x58 SHR AND PUSH2 0x26BC JUMP JUMPDEST PUSH2 0x9F3 PUSH2 0x180 DUP5 ADD PUSH1 0xFF DUP4 PUSH1 0x60 SHR AND PUSH2 0x26BC JUMP JUMPDEST PUSH2 0xA07 PUSH2 0x1A0 DUP5 ADD PUSH1 0xFF DUP4 PUSH1 0x68 SHR AND PUSH2 0x26BC JUMP JUMPDEST PUSH2 0xA1B PUSH2 0x1C0 DUP5 ADD PUSH1 0xFF DUP4 PUSH1 0x70 SHR AND PUSH2 0x26BC JUMP JUMPDEST PUSH2 0xA2F PUSH2 0x1E0 DUP5 ADD PUSH1 0xFF DUP4 PUSH1 0x78 SHR AND PUSH2 0x26BC JUMP JUMPDEST PUSH2 0xA43 PUSH2 0x200 DUP5 ADD PUSH1 0xFF DUP4 PUSH1 0x80 SHR AND PUSH2 0x26BC JUMP JUMPDEST PUSH2 0xA57 PUSH2 0x220 DUP5 ADD PUSH1 0xFF DUP4 PUSH1 0x88 SHR AND PUSH2 0x26BC JUMP JUMPDEST PUSH2 0xA6B PUSH2 0x240 DUP5 ADD PUSH1 0xFF DUP4 PUSH1 0x90 SHR AND PUSH2 0x26BC JUMP JUMPDEST PUSH2 0xA7F PUSH2 0x260 DUP5 ADD PUSH1 0xFF DUP4 PUSH1 0x98 SHR AND PUSH2 0x26BC JUMP JUMPDEST PUSH2 0xA93 PUSH2 0x280 DUP5 ADD PUSH1 0xFF DUP4 PUSH1 0xA0 SHR AND PUSH2 0x26BC JUMP JUMPDEST PUSH2 0xAA7 PUSH2 0x2A0 DUP5 ADD PUSH1 0xFF DUP4 PUSH1 0xA8 SHR AND PUSH2 0x26BC JUMP JUMPDEST PUSH2 0xABB PUSH2 0x2C0 DUP5 ADD PUSH1 0xFF DUP4 PUSH1 0xB0 SHR AND PUSH2 0x26BC JUMP JUMPDEST PUSH2 0xACF PUSH2 0x2E0 DUP5 ADD PUSH1 0xFF DUP4 PUSH1 0xB8 SHR AND PUSH2 0x26BC JUMP JUMPDEST PUSH2 0xAE3 PUSH2 0x300 DUP5 ADD PUSH1 0xFF DUP4 PUSH1 0xC0 SHR AND PUSH2 0x26BC JUMP JUMPDEST PUSH2 0xAF7 PUSH2 0x320 DUP5 ADD PUSH1 0xFF DUP4 PUSH1 0xC8 SHR AND PUSH2 0x26BC JUMP JUMPDEST PUSH2 0xB0B PUSH2 0x340 DUP5 ADD PUSH1 0xFF DUP4 PUSH1 0xD0 SHR AND PUSH2 0x26BC JUMP JUMPDEST PUSH2 0xB1F PUSH2 0x360 DUP5 ADD PUSH1 0xFF DUP4 PUSH1 0xD8 SHR AND PUSH2 0x26BC JUMP JUMPDEST PUSH2 0xB33 PUSH2 0x380 DUP5 ADD PUSH1 0xFF DUP4 PUSH1 0xE0 SHR AND PUSH2 0x26BC JUMP JUMPDEST PUSH2 0xB47 PUSH2 0x3A0 DUP5 ADD PUSH1 0xFF DUP4 PUSH1 0xE8 SHR AND PUSH2 0x26BC JUMP JUMPDEST PUSH2 0xB5B PUSH2 0x3C0 DUP5 ADD PUSH1 0xFF DUP4 PUSH1 0xF0 SHR AND PUSH2 0x26BC JUMP JUMPDEST PUSH2 0x3E0 DUP4 ADD SWAP1 PUSH1 0xF8 SHR PUSH2 0x26BC JUMP JUMPDEST ADD SWAP8 ADD SWAP3 ADD SWAP2 PUSH2 0x32F JUMP JUMPDEST CALLVALUE PUSH2 0x1E2 JUMPI PUSH1 0x40 CALLDATASIZE PUSH1 0x3 NOT ADD SLT PUSH2 0x1E2 JUMPI PUSH1 0x4 CALLDATALOAD PUSH1 0x7 DUP2 LT ISZERO PUSH2 0x1E2 JUMPI PUSH2 0xB9D PUSH1 0x24 CALLDATALOAD SWAP2 PUSH2 0x2675 JUMP JUMPDEST SWAP1 DUP2 SLOAD DUP2 LT ISZERO PUSH2 0x1E2 JUMPI PUSH2 0xBB0 SWAP2 PUSH2 0x268E JUMP JUMPDEST PUSH2 0xBD8 JUMPI PUSH2 0xBC0 PUSH2 0xBD4 SWAP2 PUSH2 0x25AB JUMP JUMPDEST PUSH1 0x40 MLOAD SWAP2 DUP3 SWAP2 PUSH1 0x20 DUP4 MSTORE PUSH1 0x20 DUP4 ADD SWAP1 PUSH2 0x254C JUMP JUMPDEST SUB SWAP1 RETURN JUMPDEST PUSH4 0x4E487B71 PUSH1 0xE0 SHL PUSH1 0x0 MSTORE PUSH1 0x0 PUSH1 0x4 MSTORE PUSH1 0x24 PUSH1 0x0 REVERT JUMPDEST CALLVALUE PUSH2 0x1E2 JUMPI PUSH1 0x40 CALLDATASIZE PUSH1 0x3 NOT ADD SLT PUSH2 0x1E2 JUMPI PUSH1 0x4 CALLDATALOAD PUSH1 0x1 PUSH1 0x1 PUSH1 0x40 SHL SUB DUP2 GT PUSH2 0x1E2 JUMPI PUSH2 0xC1E SWAP1 CALLDATASIZE SWAP1 PUSH1 0x4 ADD PUSH2 0x24BF JUMP JUMPDEST PUSH1 0x24 CALLDATALOAD PUSH1 0x7 DUP2 LT ISZERO PUSH2 0x1E2 JUMPI PUSH2 0xC65 SWAP1 PUSH2 0xC36 PUSH2 0x26E2 JUMP JUMPDEST PUSH1 0x40 MLOAD PUSH1 0x20 DUP2 DUP6 MLOAD PUSH2 0xC4B DUP2 DUP4 DUP6 DUP11 ADD PUSH2 0x2529 JUMP JUMPDEST DUP2 ADD PUSH1 0x3 DUP2 MSTORE SUB ADD SWAP1 KECCAK256 PUSH1 0x1 PUSH1 0xFF NOT DUP3 SLOAD AND OR SWAP1 SSTORE PUSH2 0x2675 JUMP JUMPDEST DUP1 SLOAD PUSH1 0x1 PUSH1 0x40 SHL DUP2 LT ISZERO PUSH2 0xCD5 JUMPI PUSH2 0xC82 SWAP2 PUSH1 0x1 DUP3 ADD DUP2 SSTORE PUSH2 0x268E JUMP JUMPDEST PUSH2 0xBD8 JUMPI DUP2 PUSH2 0xCB5 PUSH32 0x9644D3924374441A05A12B5ED9E37762704CBB51BE65584B61F896565DDED71D SWAP4 PUSH2 0xCC9 SWAP4 PUSH2 0x293D JUMP JUMPDEST PUSH1 0x40 MLOAD SWAP2 DUP3 SWAP2 PUSH1 0x40 DUP4 MSTORE PUSH1 0x40 DUP4 ADD SWAP1 PUSH2 0x254C JUMP JUMPDEST PUSH1 0x1 PUSH1 0x20 DUP4 ADD MSTORE SUB SWAP1 LOG1 STOP JUMPDEST PUSH4 0x4E487B71 PUSH1 0xE0 SHL PUSH1 0x0 MSTORE PUSH1 0x41 PUSH1 0x4 MSTORE PUSH1 0x24 PUSH1 0x0 REVERT JUMPDEST CALLVALUE PUSH2 0x1E2 JUMPI PUSH1 0x20 CALLDATASIZE PUSH1 0x3 NOT ADD SLT PUSH2 0x1E2 JUMPI PUSH1 0x4 CALLDATALOAD PUSH1 0x6 DUP2 LT ISZERO PUSH2 0x1E2 JUMPI PUSH1 0x0 MSTORE PUSH1 0x6 PUSH1 0x20 MSTORE PUSH1 0x20 PUSH1 0x40 PUSH1 0x0 KECCAK256 SLOAD PUSH1 0x40 MLOAD SWAP1 DUP2 MSTORE RETURN JUMPDEST CALLVALUE PUSH2 0x1E2 JUMPI PUSH1 0x20 DUP1 PUSH1 0x3 NOT CALLDATASIZE ADD SLT PUSH2 0x1E2 JUMPI PUSH1 0x4 CALLDATALOAD PUSH1 0x7 DUP2 LT ISZERO PUSH2 0x1E2 JUMPI PUSH2 0xD47 SWAP1 PUSH2 0x2675 JUMP JUMPDEST SWAP1 DUP2 SLOAD SWAP2 PUSH2 0xD54 DUP4 PUSH2 0x265E JUMP JUMPDEST SWAP3 PUSH2 0xD62 PUSH1 0x40 MLOAD SWAP5 DUP6 PUSH2 0x2483 JUMP JUMPDEST DUP1 DUP5 MSTORE DUP3 DUP5 ADD DUP1 SWAP3 PUSH1 0x0 MSTORE DUP4 PUSH1 0x0 KECCAK256 PUSH1 0x0 SWAP2 JUMPDEST DUP4 DUP4 LT PUSH2 0xDDC JUMPI POP POP POP POP PUSH1 0x40 MLOAD SWAP2 DUP1 DUP4 ADD SWAP4 DUP2 DUP5 MSTORE MLOAD DUP1 SWAP5 MSTORE PUSH1 0x40 DUP4 ADD SWAP4 PUSH1 0x40 DUP2 PUSH1 0x5 SHL DUP6 ADD ADD SWAP3 SWAP2 PUSH1 0x0 SWAP6 JUMPDEST DUP3 DUP8 LT PUSH2 0xDB0 JUMPI DUP6 DUP6 SUB DUP7 RETURN JUMPDEST SWAP1 SWAP2 SWAP3 SWAP4 DUP3 DUP1 PUSH2 0xDCC PUSH1 0x1 SWAP4 PUSH1 0x3F NOT DUP11 DUP3 SUB ADD DUP7 MSTORE DUP9 MLOAD PUSH2 0x254C JUMP JUMPDEST SWAP7 ADD SWAP3 ADD SWAP7 ADD SWAP6 SWAP3 SWAP2 SWAP1 SWAP3 PUSH2 0xDA3 JUMP JUMPDEST PUSH1 0x1 DUP7 DUP2 SWAP3 PUSH2 0xDED DUP6 SWAP11 SWAP10 SWAP11 PUSH2 0x25AB JUMP JUMPDEST DUP2 MSTORE ADD SWAP3 ADD SWAP3 ADD SWAP2 SWAP1 SWAP6 SWAP5 SWAP6 PUSH2 0xD75 JUMP JUMPDEST CALLVALUE PUSH2 0x1E2 JUMPI PUSH1 0x0 CALLDATASIZE PUSH1 0x3 NOT ADD SLT PUSH2 0x1E2 JUMPI PUSH1 0x0 SLOAD PUSH1 0x40 MLOAD PUSH1 0x1 PUSH1 0x1 PUSH1 0xA0 SHL SUB SWAP1 SWAP2 AND DUP2 MSTORE PUSH1 0x20 SWAP1 RETURN JUMPDEST CALLVALUE PUSH2 0x1E2 JUMPI PUSH1 0x20 CALLDATASIZE PUSH1 0x3 NOT ADD SLT PUSH2 0x1E2 JUMPI PUSH1 0x4 CALLDATALOAD PUSH1 0x1 PUSH1 0x1 PUSH1 0x40 SHL SUB DUP2 GT PUSH2 0x1E2 JUMPI PUSH1 0xFF PUSH2 0xE72 PUSH1 0x20 PUSH2 0xE5F DUP2 SWAP5 CALLDATASIZE SWAP1 PUSH1 0x4 ADD PUSH2 0x24BF JUMP JUMPDEST DUP2 PUSH1 0x40 MLOAD SWAP4 DUP3 DUP6 DUP1 SWAP5 MLOAD SWAP4 DUP5 SWAP3 ADD PUSH2 0x2529 JUMP JUMPDEST DUP2 ADD PUSH1 0x3 DUP2 MSTORE SUB ADD SWAP1 KECCAK256 SLOAD AND PUSH1 0x40 MLOAD SWAP1 ISZERO ISZERO DUP2 MSTORE RETURN JUMPDEST CALLVALUE PUSH2 0x1E2 JUMPI PUSH1 0xA0 CALLDATASIZE PUSH1 0x3 NOT ADD SLT PUSH2 0x1E2 JUMPI PUSH2 0xEA1 PUSH2 0x2506 JUMP JUMPDEST PUSH1 0x1 PUSH1 0x1 PUSH1 0x40 SHL SUB SWAP1 PUSH1 0x24 CALLDATALOAD DUP3 DUP2 GT PUSH2 0x1E2 JUMPI PUSH2 0xEC2 SWAP1 CALLDATASIZE SWAP1 PUSH1 0x4 ADD PUSH2 0x24BF JUMP JUMPDEST SWAP1 PUSH1 0x4 PUSH1 0x44 CALLDATALOAD LT ISZERO PUSH2 0x1E2 JUMPI PUSH1 0x64 CALLDATALOAD DUP4 DUP2 GT PUSH2 0x1E2 JUMPI CALLDATASIZE PUSH1 0x23 DUP3 ADD SLT ISZERO PUSH2 0x1E2 JUMPI DUP1 PUSH1 0x4 ADD CALLDATALOAD PUSH2 0xEF1 DUP2 PUSH2 0x265E JUMP JUMPDEST SWAP2 PUSH2 0xEFF PUSH1 0x40 MLOAD SWAP4 DUP5 PUSH2 0x2483 JUMP JUMPDEST DUP2 DUP4 MSTORE PUSH1 0x24 PUSH1 0x20 DUP5 ADD SWAP3 PUSH1 0x5 SHL DUP3 ADD ADD SWAP1 CALLDATASIZE DUP3 GT PUSH2 0x1E2 JUMPI PUSH1 0x24 ADD SWAP2 JUMPDEST DUP2 DUP4 LT PUSH2 0x12E2 JUMPI POP POP POP PUSH1 0x84 CALLDATALOAD DUP5 DUP2 GT PUSH2 0x1E2 JUMPI PUSH2 0xF3E SWAP1 CALLDATASIZE SWAP1 PUSH1 0x4 ADD PUSH2 0x24BF JUMP JUMPDEST SWAP4 PUSH2 0xF47 PUSH2 0x26E2 JUMP JUMPDEST PUSH1 0x1 PUSH1 0x1 PUSH1 0xA0 SHL SUB DUP4 AND ISZERO PUSH2 0x129D JUMPI DUP4 MLOAD ISZERO PUSH2 0x1258 JUMPI DUP5 MLOAD ISZERO PUSH2 0x121B JUMPI PUSH1 0x40 MLOAD SWAP1 PUSH2 0xF71 DUP3 PUSH2 0x2432 JUMP JUMPDEST DUP5 DUP3 MSTORE PUSH1 0x20 DUP3 ADD SWAP3 PUSH2 0xF85 PUSH1 0x44 CALLDATALOAD DUP6 PUSH2 0x2767 JUMP JUMPDEST PUSH1 0x40 DUP4 ADD SWAP1 DUP2 MSTORE PUSH1 0x1 PUSH1 0x60 DUP5 ADD MSTORE TIMESTAMP PUSH1 0x80 DUP5 ADD MSTORE DUP7 PUSH1 0xA0 DUP5 ADD MSTORE PUSH1 0x0 PUSH1 0xC0 DUP5 ADD MSTORE PUSH1 0x1 DUP1 PUSH1 0xA0 SHL SUB DUP6 AND PUSH1 0x0 MSTORE PUSH1 0x1 PUSH1 0x20 MSTORE PUSH1 0x40 PUSH1 0x0 KECCAK256 SWAP4 PUSH2 0xFC8 DUP5 MLOAD DUP7 PUSH2 0x293D JUMP JUMPDEST MLOAD PUSH1 0x4 DUP2 LT ISZERO PUSH2 0x116C JUMPI PUSH2 0xFDF SWAP1 PUSH1 0x1 DUP7 ADD PUSH2 0x2A41 JUMP JUMPDEST MLOAD SWAP1 DUP2 MLOAD SWAP1 DUP2 GT PUSH2 0xCD5 JUMPI PUSH1 0x1 PUSH1 0x40 SHL DUP2 GT PUSH2 0xCD5 JUMPI PUSH1 0x20 PUSH1 0x2 DUP6 ADD SWAP3 DUP4 SLOAD DUP4 DUP6 SSTORE DUP1 DUP5 LT PUSH2 0x11CF JUMPI JUMPDEST POP ADD SWAP2 PUSH1 0x0 MSTORE PUSH1 0x20 PUSH1 0x0 KECCAK256 SWAP1 PUSH1 0x0 JUMPDEST DUP2 PUSH1 0x5 SHR DUP2 LT PUSH2 0x1182 JUMPI POP PUSH1 0x1F NOT DUP2 AND DUP1 DUP3 SUB PUSH2 0x1113 JUMPI JUMPDEST DUP9 PUSH32 0xBBAC4E248BEE54382CA59562A25BA0E62B3557F67BD4EE28D47758FDED6A0790 PUSH2 0x10E7 DUP11 PUSH2 0x110E DUP12 DUP12 PUSH1 0x6 PUSH1 0xC0 DUP14 PUSH1 0x3 DUP5 ADD PUSH1 0x60 DUP3 ADD MLOAD ISZERO ISZERO PUSH1 0xFF DUP1 NOT DUP4 SLOAD AND SWAP2 AND OR SWAP1 SSTORE PUSH1 0x80 DUP2 ADD MLOAD PUSH1 0x4 DUP6 ADD SSTORE PUSH2 0x1092 PUSH1 0xA0 DUP3 ADD MLOAD PUSH1 0x5 DUP7 ADD PUSH2 0x293D JUMP JUMPDEST ADD MLOAD SWAP2 ADD SSTORE PUSH1 0x40 MLOAD PUSH1 0x20 DUP2 DUP6 MLOAD PUSH2 0x10AC DUP2 DUP4 DUP6 DUP11 ADD PUSH2 0x2529 JUMP JUMPDEST PUSH1 0x2 SWAP1 DUP3 ADD SWAP1 DUP2 MSTORE SUB ADD SWAP1 KECCAK256 DUP1 SLOAD PUSH1 0x1 PUSH1 0x1 PUSH1 0xA0 SHL SUB NOT AND PUSH1 0x1 PUSH1 0x1 PUSH1 0xA0 SHL SUB DUP4 AND OR SWAP1 SSTORE PUSH1 0x40 MLOAD PUSH1 0x60 DUP1 DUP3 MSTORE SWAP1 SWAP5 DUP6 SWAP5 SWAP1 SWAP2 DUP6 ADD SWAP1 PUSH2 0x254C JUMP JUMPDEST SWAP1 PUSH2 0x10F7 PUSH1 0x20 DUP6 ADD PUSH1 0x44 CALLDATALOAD PUSH2 0x2651 JUMP JUMPDEST DUP4 DUP3 SUB PUSH1 0x40 DUP6 ADD MSTORE PUSH1 0x1 PUSH1 0x1 PUSH1 0xA0 SHL SUB AND SWAP6 PUSH2 0x254C JUMP JUMPDEST SUB SWAP1 LOG2 STOP JUMPDEST SWAP3 PUSH1 0x0 SWAP4 PUSH1 0x0 JUMPDEST DUP2 DUP5 SUB DUP2 LT PUSH2 0x1136 JUMPI POP POP POP PUSH1 0x5 SHR ADD SSTORE DUP3 DUP3 PUSH1 0x6 PUSH1 0xC0 PUSH2 0x1030 JUMP JUMPDEST SWAP1 SWAP2 SWAP5 DUP6 MLOAD PUSH1 0x7 DUP2 LT ISZERO PUSH2 0x116C JUMPI PUSH2 0x1162 PUSH1 0x20 SWAP2 DUP5 PUSH1 0x1 SWAP5 SWAP1 PUSH1 0xFF DUP1 SWAP2 PUSH1 0x3 SHL SWAP4 AND DUP4 SHL SWAP3 SHL NOT AND OR SWAP1 JUMP JUMPDEST SWAP7 ADD SWAP3 SWAP2 ADD PUSH2 0x111A JUMP JUMPDEST PUSH4 0x4E487B71 PUSH1 0xE0 SHL PUSH1 0x0 MSTORE PUSH1 0x21 PUSH1 0x4 MSTORE PUSH1 0x24 PUSH1 0x0 REVERT JUMPDEST PUSH1 0x0 DUP1 JUMPDEST PUSH1 0x20 DUP2 LT PUSH2 0x119B JUMPI POP DUP4 DUP3 ADD SSTORE PUSH1 0x1 ADD PUSH2 0x1018 JUMP JUMPDEST SWAP5 SWAP1 DUP2 MLOAD PUSH1 0x7 DUP2 LT ISZERO PUSH2 0x116C JUMPI PUSH2 0x11C6 PUSH1 0x20 SWAP2 DUP9 PUSH1 0x1 SWAP5 SWAP1 PUSH1 0xFF DUP1 SWAP2 PUSH1 0x3 SHL SWAP4 AND DUP4 SHL SWAP3 SHL NOT AND OR SWAP1 JUMP JUMPDEST SWAP3 ADD SWAP6 ADD PUSH2 0x1186 JUMP JUMPDEST PUSH2 0x11FB SWAP1 DUP6 PUSH1 0x0 MSTORE DUP4 PUSH1 0x0 KECCAK256 PUSH1 0x1F DUP1 DUP8 ADD PUSH1 0x5 SHR DUP3 ADD SWAP3 DUP2 DUP9 AND DUP1 PUSH2 0x1201 JUMPI JUMPDEST POP ADD PUSH1 0x5 SHR ADD SWAP1 PUSH2 0x2926 JUMP JUMPDEST DUP10 PUSH2 0x1009 JUMP JUMPDEST PUSH1 0x0 NOT SWAP1 DUP2 DUP7 ADD SWAP2 DUP3 SLOAD SWAP2 DUP11 SUB PUSH1 0x3 SHL SHR AND SWAP1 SSTORE DUP15 PUSH2 0x11EF JUMP JUMPDEST PUSH1 0x40 MLOAD PUSH3 0x461BCD PUSH1 0xE5 SHL DUP2 MSTORE PUSH1 0x20 PUSH1 0x4 DUP3 ADD MSTORE PUSH1 0x15 PUSH1 0x24 DUP3 ADD MSTORE PUSH21 0x14915490481B1A58D95B9CD9481C995C5D5A5C9959 PUSH1 0x5A SHL PUSH1 0x44 DUP3 ADD MSTORE PUSH1 0x64 SWAP1 REVERT JUMPDEST PUSH1 0x40 MLOAD PUSH3 0x461BCD PUSH1 0xE5 SHL DUP2 MSTORE PUSH1 0x20 PUSH1 0x4 DUP3 ADD MSTORE PUSH1 0x17 PUSH1 0x24 DUP3 ADD MSTORE PUSH32 0x446576656C6F706572206E616D65207265717569726564000000000000000000 PUSH1 0x44 DUP3 ADD MSTORE PUSH1 0x64 SWAP1 REVERT JUMPDEST PUSH1 0x40 MLOAD PUSH3 0x461BCD PUSH1 0xE5 SHL DUP2 MSTORE PUSH1 0x20 PUSH1 0x4 DUP3 ADD MSTORE PUSH1 0x19 PUSH1 0x24 DUP3 ADD MSTORE PUSH32 0x496E76616C696420646576656C6F706572206164647265737300000000000000 PUSH1 0x44 DUP3 ADD MSTORE PUSH1 0x64 SWAP1 REVERT JUMPDEST DUP3 CALLDATALOAD PUSH1 0x7 DUP2 LT ISZERO PUSH2 0x1E2 JUMPI DUP2 MSTORE PUSH1 0x20 SWAP3 DUP4 ADD SWAP3 ADD PUSH2 0xF1C JUMP JUMPDEST CALLVALUE PUSH2 0x1E2 JUMPI PUSH1 0x0 CALLDATASIZE PUSH1 0x3 NOT ADD SLT PUSH2 0x1E2 JUMPI PUSH2 0x1314 PUSH2 0x26E2 JUMP JUMPDEST PUSH1 0x0 DUP1 SLOAD PUSH1 0x1 PUSH1 0x1 PUSH1 0xA0 SHL SUB NOT DUP2 AND DUP3 SSTORE PUSH1 0x1 PUSH1 0x1 PUSH1 0xA0 SHL SUB AND PUSH32 0x8BE0079C531659141344CD1FD0A4F28419497F9722A3DAAFE3B4186F6B6457E0 DUP3 DUP1 LOG3 STOP JUMPDEST CALLVALUE PUSH2 0x1E2 JUMPI PUSH1 0x20 CALLDATASIZE PUSH1 0x3 NOT ADD SLT PUSH2 0x1E2 JUMPI PUSH1 0x1 PUSH1 0x1 PUSH1 0xA0 SHL SUB PUSH2 0x1375 PUSH2 0x2506 JUMP JUMPDEST AND PUSH1 0x0 MSTORE PUSH1 0x1 PUSH1 0x20 MSTORE PUSH2 0x13D2 PUSH1 0x40 PUSH1 0x0 KECCAK256 PUSH2 0x138F DUP2 PUSH2 0x25AB JUMP JUMPDEST SWAP1 PUSH2 0x13F6 PUSH1 0xFF PUSH1 0x1 DUP4 ADD SLOAD AND PUSH1 0xFF PUSH1 0x3 DUP5 ADD SLOAD AND SWAP3 PUSH1 0x4 DUP2 ADD SLOAD PUSH1 0x6 PUSH2 0x13B7 PUSH1 0x5 DUP5 ADD PUSH2 0x25AB JUMP JUMPDEST SWAP3 ADD SLOAD SWAP5 PUSH2 0x13DD PUSH1 0x40 MLOAD SWAP9 DUP10 SWAP9 PUSH1 0xC0 DUP11 MSTORE PUSH1 0xC0 DUP11 ADD SWAP1 PUSH2 0x254C JUMP JUMPDEST SWAP5 PUSH1 0x20 DUP10 ADD SWAP1 PUSH2 0x2651 JUMP JUMPDEST ISZERO ISZERO PUSH1 0x40 DUP8 ADD MSTORE PUSH1 0x60 DUP7 ADD MSTORE DUP5 DUP3 SUB PUSH1 0x80 DUP7 ADD MSTORE PUSH2 0x254C JUMP JUMPDEST SWAP1 PUSH1 0xA0 DUP4 ADD MSTORE SUB SWAP1 RETURN JUMPDEST CALLVALUE PUSH2 0x1E2 JUMPI PUSH1 0x0 CALLDATASIZE PUSH1 0x3 NOT ADD SLT PUSH2 0x1E2 JUMPI PUSH1 0x20 PUSH1 0xFF PUSH1 0x0 SLOAD PUSH1 0xA0 SHR AND PUSH1 0x40 MLOAD SWAP1 ISZERO ISZERO DUP2 MSTORE RETURN JUMPDEST CALLVALUE PUSH2 0x1E2 JUMPI PUSH1 0x0 CALLDATASIZE PUSH1 0x3 NOT ADD SLT PUSH2 0x1E2 JUMPI PUSH1 0x20 PUSH1 0x40 MLOAD PUSH1 0x4B DUP2 MSTORE RETURN JUMPDEST CALLVALUE PUSH2 0x1E2 JUMPI PUSH1 0x0 CALLDATASIZE PUSH1 0x3 NOT ADD SLT PUSH2 0x1E2 JUMPI PUSH1 0x20 PUSH1 0x40 MLOAD PUSH11 0x422CA8B0A00A425000000 DUP2 MSTORE RETURN JUMPDEST CALLVALUE PUSH2 0x1E2 JUMPI PUSH1 0x20 CALLDATASIZE PUSH1 0x3 NOT ADD SLT PUSH2 0x1E2 JUMPI PUSH1 0x4 CALLDATALOAD PUSH1 0x1 PUSH1 0x1 PUSH1 0x40 SHL SUB DUP2 GT PUSH2 0x1E2 JUMPI PUSH2 0x14FF PUSH2 0x14BC PUSH32 0x9644D3924374441A05A12B5ED9E37762704CBB51BE65584B61F896565DDED71D SWAP3 CALLDATASIZE SWAP1 PUSH1 0x4 ADD PUSH2 0x24BF JUMP JUMPDEST PUSH2 0x14C4 PUSH2 0x26E2 JUMP JUMPDEST PUSH1 0x40 MLOAD PUSH1 0x20 DUP2 DUP4 MLOAD PUSH2 0x14D9 DUP2 DUP4 DUP6 DUP9 ADD PUSH2 0x2529 JUMP JUMPDEST DUP2 ADD PUSH1 0x3 DUP2 MSTORE SUB ADD SWAP1 KECCAK256 PUSH1 0xFF NOT DUP2 SLOAD AND SWAP1 SSTORE PUSH1 0x40 MLOAD SWAP2 DUP3 SWAP2 PUSH1 0x40 DUP4 MSTORE PUSH1 0x40 DUP4 ADD SWAP1 PUSH2 0x254C JUMP JUMPDEST PUSH1 0x0 PUSH1 0x20 DUP4 ADD MSTORE SUB SWAP1 LOG1 STOP JUMPDEST CALLVALUE PUSH2 0x1E2 JUMPI PUSH1 0x0 CALLDATASIZE PUSH1 0x3 NOT ADD SLT PUSH2 0x1E2 JUMPI PUSH1 0x20 PUSH1 0x40 MLOAD PUSH10 0x152D02C7E14AF6800000 DUP2 MSTORE RETURN JUMPDEST CALLVALUE PUSH2 0x1E2 JUMPI PUSH1 0x0 CALLDATASIZE PUSH1 0x3 NOT ADD SLT PUSH2 0x1E2 JUMPI PUSH1 0x20 PUSH1 0x40 MLOAD PUSH11 0x84595161401484A000000 DUP2 MSTORE RETURN JUMPDEST CALLVALUE PUSH2 0x1E2 JUMPI PUSH1 0x40 CALLDATASIZE PUSH1 0x3 NOT ADD SLT PUSH2 0x1E2 JUMPI PUSH2 0x156F PUSH2 0x2506 JUMP JUMPDEST PUSH1 0x24 CALLDATALOAD SWAP1 PUSH1 0x4 DUP3 LT ISZERO PUSH2 0x1E2 JUMPI PUSH2 0x1584 PUSH2 0x26E2 JUMP JUMPDEST PUSH1 0x1 PUSH1 0x1 PUSH1 0xA0 SHL SUB AND PUSH1 0x0 DUP2 DUP2 MSTORE PUSH1 0x1 PUSH1 0x20 MSTORE PUSH1 0x40 SWAP1 KECCAK256 PUSH1 0x3 ADD SLOAD SWAP1 SWAP2 SWAP1 PUSH1 0xFF AND ISZERO PUSH2 0x15C5 JUMPI PUSH2 0x15C3 SWAP2 PUSH1 0x0 MSTORE PUSH1 0x1 PUSH1 0x20 MSTORE PUSH1 0x1 PUSH1 0x40 PUSH1 0x0 KECCAK256 ADD PUSH2 0x2A41 JUMP JUMPDEST STOP JUMPDEST PUSH1 0x40 MLOAD PUSH3 0x461BCD PUSH1 0xE5 SHL DUP2 MSTORE PUSH1 0x20 PUSH1 0x4 DUP3 ADD MSTORE PUSH1 0x13 PUSH1 0x24 DUP3 ADD MSTORE PUSH19 0x11195D995B1BDC195C881B9BDD08199BDD5B99 PUSH1 0x6A SHL PUSH1 0x44 DUP3 ADD MSTORE PUSH1 0x64 SWAP1 REVERT JUMPDEST CALLVALUE PUSH2 0x1E2 JUMPI PUSH1 0x3 NOT PUSH1 0x20 CALLDATASIZE DUP3 ADD SLT PUSH2 0x1E2 JUMPI PUSH1 0x1 PUSH1 0x1 PUSH1 0x40 SHL SUB PUSH1 0x4 CALLDATALOAD GT PUSH2 0x1E2 JUMPI PUSH2 0x120 SWAP1 PUSH1 0x4 CALLDATALOAD CALLDATASIZE SUB ADD SLT PUSH2 0x1E2 JUMPI PUSH2 0x1A0 PUSH1 0x40 MSTORE PUSH1 0x4 CALLDATALOAD PUSH1 0x4 ADD CALLDATALOAD PUSH1 0x80 MSTORE PUSH1 0x24 PUSH1 0x4 CALLDATALOAD ADD CALLDATALOAD PUSH1 0x7 DUP2 LT ISZERO PUSH2 0x1E2 JUMPI PUSH1 0xA0 MSTORE PUSH1 0x4 CALLDATALOAD PUSH1 0x44 ADD CALLDATALOAD PUSH1 0x1 PUSH1 0x1 PUSH1 0x40 SHL SUB DUP2 GT PUSH2 0x1E2 JUMPI PUSH2 0x167A SWAP1 PUSH1 0x4 CALLDATASIZE SWAP2 DUP2 CALLDATALOAD ADD ADD PUSH2 0x24BF JUMP JUMPDEST PUSH1 0xC0 MSTORE PUSH1 0x4 CALLDATALOAD PUSH1 0x64 ADD CALLDATALOAD PUSH1 0x6 DUP2 LT ISZERO PUSH2 0x1E2 JUMPI PUSH1 0xE0 MSTORE PUSH1 0x4 CALLDATALOAD PUSH1 0x84 ADD CALLDATALOAD PUSH1 0x1 PUSH1 0x1 PUSH1 0xA0 SHL SUB DUP2 AND DUP2 SUB PUSH2 0x1E2 JUMPI PUSH2 0x100 MSTORE PUSH1 0x4 CALLDATALOAD PUSH1 0xA4 DUP2 ADD CALLDATALOAD PUSH2 0x120 MSTORE PUSH2 0x16C3 SWAP1 PUSH1 0xC4 ADD PUSH2 0x251C JUMP JUMPDEST PUSH2 0x140 MSTORE PUSH1 0x4 CALLDATALOAD PUSH1 0xE4 DUP2 ADD CALLDATALOAD PUSH2 0x160 MSTORE PUSH2 0x16E0 SWAP1 PUSH2 0x104 ADD PUSH2 0x251C JUMP JUMPDEST PUSH2 0x180 SWAP1 DUP2 MSTORE PUSH2 0x16EE PUSH2 0x273A JUMP JUMPDEST POP PUSH10 0x152D02C7E14AF6800000 PUSH1 0x80 MLOAD LT PUSH2 0x23ED JUMPI PUSH2 0x120 MLOAD PUSH1 0x4B GT PUSH2 0x23A8 JUMPI MLOAD ISZERO PUSH2 0x2358 JUMPI PUSH2 0x100 MLOAD PUSH1 0x1 PUSH1 0x1 PUSH1 0xA0 SHL SUB AND PUSH1 0x0 SWAP1 DUP2 MSTORE PUSH1 0x1 PUSH1 0x20 MSTORE PUSH1 0x40 SWAP1 DUP2 SWAP1 KECCAK256 SWAP1 MLOAD SWAP1 PUSH2 0x173C DUP3 PUSH2 0x2432 JUMP JUMPDEST PUSH2 0x1745 DUP2 PUSH2 0x25AB JUMP JUMPDEST DUP3 MSTORE PUSH2 0x175B PUSH1 0xFF PUSH1 0x1 DUP4 ADD SLOAD AND PUSH1 0x20 DUP5 ADD PUSH2 0x2767 JUMP JUMPDEST PUSH1 0x2 DUP2 ADD PUSH1 0x40 MLOAD DUP1 DUP3 PUSH1 0x20 DUP3 SWAP5 SLOAD SWAP4 DUP5 DUP2 MSTORE ADD SWAP1 PUSH1 0x0 MSTORE PUSH1 0x20 PUSH1 0x0 KECCAK256 SWAP3 PUSH1 0x0 SWAP1 JUMPDEST DUP1 PUSH1 0x1F DUP4 ADD LT PUSH2 0x232C JUMPI PUSH2 0x1891 SWAP5 SLOAD SWAP2 DUP2 DUP2 LT PUSH2 0x2311 JUMPI JUMPDEST DUP2 DUP2 LT PUSH2 0x22F3 JUMPI JUMPDEST DUP2 DUP2 LT PUSH2 0x22D5 JUMPI JUMPDEST DUP2 DUP2 LT PUSH2 0x22B7 JUMPI JUMPDEST DUP2 DUP2 LT PUSH2 0x229A JUMPI JUMPDEST DUP2 DUP2 LT PUSH2 0x227C JUMPI JUMPDEST DUP2 DUP2 LT PUSH2 0x225E JUMPI JUMPDEST DUP2 DUP2 LT PUSH2 0x2240 JUMPI JUMPDEST DUP2 DUP2 LT PUSH2 0x2222 JUMPI JUMPDEST DUP2 DUP2 LT PUSH2 0x2204 JUMPI JUMPDEST DUP2 DUP2 LT PUSH2 0x21E6 JUMPI JUMPDEST DUP2 DUP2 LT PUSH2 0x21C8 JUMPI JUMPDEST DUP2 DUP2 LT PUSH2 0x21AA JUMPI JUMPDEST DUP2 DUP2 LT PUSH2 0x218C JUMPI JUMPDEST DUP2 DUP2 LT PUSH2 0x216E JUMPI JUMPDEST DUP2 DUP2 LT PUSH2 0x2150 JUMPI JUMPDEST DUP2 DUP2 LT PUSH2 0x2132 JUMPI JUMPDEST DUP2 DUP2 LT PUSH2 0x2114 JUMPI JUMPDEST DUP2 DUP2 LT PUSH2 0x20F6 JUMPI JUMPDEST DUP2 DUP2 LT PUSH2 0x20D8 JUMPI JUMPDEST DUP2 DUP2 LT PUSH2 0x20BA JUMPI JUMPDEST DUP2 DUP2 LT PUSH2 0x209C JUMPI JUMPDEST DUP2 DUP2 LT PUSH2 0x207E JUMPI JUMPDEST DUP2 DUP2 LT PUSH2 0x2060 JUMPI JUMPDEST DUP2 DUP2 LT PUSH2 0x2042 JUMPI JUMPDEST DUP2 DUP2 LT PUSH2 0x2024 JUMPI JUMPDEST DUP2 DUP2 LT PUSH2 0x2006 JUMPI JUMPDEST DUP2 DUP2 LT PUSH2 0x1FE8 JUMPI JUMPDEST DUP2 DUP2 LT PUSH2 0x1FCA JUMPI JUMPDEST DUP2 DUP2 LT PUSH2 0x1FAC JUMPI JUMPDEST DUP2 DUP2 LT PUSH2 0x1F8E JUMPI JUMPDEST LT PUSH2 0x1F77 JUMPI POP SUB DUP3 PUSH2 0x2483 JUMP JUMPDEST PUSH1 0x40 DUP4 ADD MSTORE PUSH1 0x6 PUSH1 0xFF PUSH1 0x3 DUP4 ADD SLOAD AND SWAP2 PUSH1 0x60 DUP5 ADD SWAP3 ISZERO ISZERO DUP4 MSTORE PUSH1 0x4 DUP2 ADD SLOAD PUSH1 0x80 DUP6 ADD MSTORE PUSH2 0x18C0 PUSH1 0x5 DUP3 ADD PUSH2 0x25AB JUMP JUMPDEST PUSH1 0xA0 DUP6 ADD MSTORE ADD SLOAD PUSH1 0xC0 DUP4 ADD MSTORE MLOAD ISZERO PUSH2 0x1F26 JUMPI PUSH2 0x18DD DUP2 PUSH1 0x80 PUSH2 0x2773 JUMP JUMPDEST ISZERO PUSH2 0x1CAA JUMPI PUSH2 0x18EA PUSH2 0x273A JUMP JUMPDEST POP PUSH1 0x40 MLOAD SWAP1 PUSH2 0x18F8 DUP3 PUSH2 0x2432 JUMP JUMPDEST PUSH1 0x6 DUP3 MSTORE PUSH1 0x0 JUMPDEST PUSH1 0xC0 DUP2 LT PUSH2 0x1C99 JUMPI POP PUSH1 0x40 MLOAD PUSH2 0x1914 DUP2 PUSH2 0x2468 JUMP JUMPDEST PUSH1 0x17 DUP2 MSTORE PUSH32 0x494E444956494455414C5F544F4B454E495A4154494F4E000000000000000000 PUSH1 0x20 DUP3 ADD MSTORE PUSH2 0x1947 DUP4 PUSH2 0x28C9 JUMP JUMPDEST MSTORE PUSH2 0x1951 DUP3 PUSH2 0x28C9 JUMP JUMPDEST POP PUSH1 0x40 MLOAD PUSH2 0x195E DUP2 PUSH2 0x2468 JUMP JUMPDEST PUSH1 0x18 DUP2 MSTORE PUSH32 0x5052454D49554D5F444556454C4F5045525F4143434553530000000000000000 PUSH1 0x20 DUP3 ADD MSTORE PUSH2 0x1991 DUP4 PUSH2 0x28D6 JUMP JUMPDEST MSTORE PUSH2 0x199B DUP3 PUSH2 0x28D6 JUMP JUMPDEST POP PUSH1 0x40 MLOAD PUSH2 0x19A8 DUP2 PUSH2 0x2468 JUMP JUMPDEST PUSH1 0x18 DUP2 MSTORE PUSH32 0x494E535449545554494F4E414C5F494E564553544D454E540000000000000000 PUSH1 0x20 DUP3 ADD MSTORE PUSH2 0x19DB DUP4 PUSH2 0x28E6 JUMP JUMPDEST MSTORE PUSH2 0x19E5 DUP3 PUSH2 0x28E6 JUMP JUMPDEST POP PUSH1 0x40 MLOAD PUSH2 0x19F2 DUP2 PUSH2 0x2468 JUMP JUMPDEST PUSH1 0x12 DUP2 MSTORE PUSH18 0x414456414E4345445F414E414C5954494353 PUSH1 0x70 SHL PUSH1 0x20 DUP3 ADD MSTORE PUSH2 0x1A1A DUP4 PUSH2 0x28F6 JUMP JUMPDEST MSTORE PUSH2 0x1A24 DUP3 PUSH2 0x28F6 JUMP JUMPDEST POP PUSH1 0x40 MLOAD PUSH2 0x1A31 DUP2 PUSH2 0x2468 JUMP JUMPDEST PUSH1 0x12 DUP2 MSTORE PUSH18 0x5052494F524954595F4C4951554944495459 PUSH1 0x70 SHL PUSH1 0x20 DUP3 ADD MSTORE PUSH2 0x1A59 DUP4 PUSH2 0x2906 JUMP JUMPDEST MSTORE PUSH2 0x1A63 DUP3 PUSH2 0x2906 JUMP JUMPDEST POP PUSH1 0x40 MLOAD PUSH2 0x1A70 DUP2 PUSH2 0x2468 JUMP JUMPDEST PUSH1 0x15 DUP2 MSTORE PUSH21 0x2224AB24A222A7222FA224A9AA2924A12AAA24A7A7 PUSH1 0x59 SHL PUSH1 0x20 DUP3 ADD MSTORE PUSH2 0x1A9B DUP4 PUSH2 0x2916 JUMP JUMPDEST MSTORE PUSH2 0x1AA5 DUP3 PUSH2 0x2916 JUMP JUMPDEST POP PUSH1 0x20 DUP2 ADD MLOAD PUSH1 0x4 DUP2 LT ISZERO PUSH2 0x116C JUMPI PUSH2 0x1ABD SWAP1 PUSH2 0x26C9 JUMP JUMPDEST SLOAD SWAP2 PUSH1 0x80 MLOAD PUSH2 0x1AE6 PUSH2 0x3E8 DUP3 DIV PUSH10 0x21E19E0C9BAB2400000 DUP1 DUP3 GT PUSH1 0x0 EQ PUSH2 0x1C91 JUMPI POP SWAP2 PUSH2 0x2A59 JUMP JUMPDEST PUSH1 0x20 DUP5 MLOAD SWAP5 ADD MLOAD PUSH1 0x4 DUP2 LT ISZERO PUSH2 0x116C JUMPI PUSH2 0x1BB9 SWAP2 PUSH2 0x1B05 PUSH1 0x41 SWAP3 PUSH2 0x2AB5 JUMP JUMPDEST PUSH1 0x40 PUSH1 0x80 ADD MLOAD SWAP1 PUSH1 0x40 MLOAD SWAP8 DUP9 SWAP4 PUSH18 0x283932B6B4BAB690383937B832B93A3C9D1 PUSH1 0x75 SHL PUSH1 0x20 DUP7 ADD MSTORE PUSH2 0x1B41 DUP2 MLOAD DUP1 SWAP3 PUSH1 0x20 PUSH1 0x32 DUP10 ADD SWAP2 ADD PUSH2 0x2529 JUMP JUMPDEST DUP5 ADD PUSH6 0x1020A2A2161 PUSH1 0xD5 SHL PUSH1 0x32 DUP3 ADD MSTORE PUSH2 0x1B66 DUP3 MLOAD DUP1 SWAP4 PUSH1 0x20 PUSH1 0x38 DUP6 ADD SWAP2 ADD PUSH2 0x2529 JUMP JUMPDEST ADD PUSH6 0x10142A24A2A9 PUSH1 0xD1 SHL PUSH1 0x38 DUP3 ADD MSTORE PUSH2 0x1B8A DUP3 MLOAD DUP1 SWAP4 PUSH1 0x20 PUSH1 0x3E DUP6 ADD SWAP2 ADD PUSH2 0x2529 JUMP JUMPDEST ADD PUSH3 0x14961 PUSH1 0xED SHL PUSH1 0x3E DUP3 ADD MSTORE PUSH2 0x1BAA DUP3 MLOAD DUP1 SWAP4 PUSH1 0x20 DUP8 DUP6 ADD SWAP2 ADD PUSH2 0x2529 JUMP JUMPDEST ADD SUB PUSH1 0x21 DUP2 ADD DUP7 MSTORE ADD DUP5 PUSH2 0x2483 JUMP JUMPDEST PUSH1 0x40 MLOAD SWAP4 PUSH2 0x1BC6 DUP6 PUSH2 0x244D JUMP JUMPDEST PUSH1 0x1 DUP6 MSTORE PUSH1 0x20 DUP6 ADD MSTORE PUSH1 0x40 DUP5 ADD MSTORE PUSH1 0x60 DUP4 ADD MSTORE PUSH1 0x80 DUP3 ADD MSTORE JUMPDEST PUSH1 0x40 MLOAD SWAP1 PUSH1 0x20 DUP3 MSTORE PUSH1 0xC0 DUP3 ADD SWAP1 DUP1 MLOAD PUSH1 0x2 DUP2 LT ISZERO PUSH2 0x116C JUMPI SWAP1 DUP4 SWAP3 SWAP2 PUSH1 0x20 DUP5 ADD MSTORE PUSH1 0x20 DUP2 ADD MLOAD PUSH1 0x40 DUP5 ADD MSTORE PUSH1 0x40 DUP2 ADD MLOAD PUSH1 0x60 DUP5 ADD MSTORE PUSH1 0x60 DUP2 ADD MLOAD SWAP2 PUSH1 0xA0 PUSH1 0x80 DUP6 ADD MSTORE DUP3 MLOAD DUP1 SWAP2 MSTORE PUSH1 0xE0 DUP5 ADD SWAP1 PUSH1 0x20 PUSH1 0xE0 DUP3 PUSH1 0x5 SHL DUP8 ADD ADD SWAP5 ADD SWAP2 PUSH1 0x0 SWAP1 JUMPDEST DUP3 DUP3 LT PUSH2 0x1C60 JUMPI DUP7 DUP1 PUSH2 0xBD4 DUP9 PUSH1 0x80 DUP10 ADD MLOAD PUSH1 0x1F NOT DUP5 DUP4 SUB ADD PUSH1 0xA0 DUP6 ADD MSTORE PUSH2 0x254C JUMP JUMPDEST SWAP2 SWAP4 SWAP5 PUSH1 0x1 SWAP2 SWAP4 SWAP7 POP PUSH1 0x20 PUSH2 0x1C80 DUP2 SWAP3 PUSH1 0xDF NOT DUP12 DUP3 SUB ADD DUP7 MSTORE DUP10 MLOAD PUSH2 0x254C JUMP JUMPDEST SWAP8 ADD SWAP3 ADD SWAP3 ADD DUP7 SWAP6 SWAP5 SWAP4 SWAP2 SWAP3 PUSH2 0x1C3D JUMP JUMPDEST SWAP1 POP SWAP2 PUSH2 0x2A59 JUMP JUMPDEST DUP1 PUSH1 0x60 PUSH1 0x20 DUP1 SWAP4 DUP7 ADD ADD MSTORE ADD PUSH2 0x18FF JUMP JUMPDEST PUSH2 0x1CB2 PUSH2 0x273A JUMP JUMPDEST POP PUSH1 0x40 MLOAD SWAP1 PUSH1 0xC0 DUP3 ADD DUP3 DUP2 LT PUSH1 0x1 PUSH1 0x1 PUSH1 0x40 SHL SUB DUP3 GT OR PUSH2 0xCD5 JUMPI PUSH1 0x40 MSTORE PUSH1 0x5 DUP3 MSTORE PUSH1 0x0 JUMPDEST PUSH1 0xA0 DUP2 LT PUSH2 0x1F15 JUMPI POP PUSH1 0x20 SWAP1 PUSH1 0x40 MLOAD PUSH2 0x1CEF DUP2 PUSH2 0x2468 JUMP JUMPDEST PUSH1 0x19 DUP2 MSTORE PUSH32 0x434954595F504F4F4C5F444956455253494649434154494F4E00000000000000 DUP4 DUP3 ADD MSTORE PUSH2 0x1D21 DUP5 PUSH2 0x28C9 JUMP JUMPDEST MSTORE PUSH2 0x1D2B DUP4 PUSH2 0x28C9 JUMP JUMPDEST POP PUSH1 0x40 MLOAD PUSH2 0x1D38 DUP2 PUSH2 0x2468 JUMP JUMPDEST PUSH1 0xF DUP2 MSTORE PUSH15 0x5354414B494E475F52455741524453 PUSH1 0x88 SHL DUP4 DUP3 ADD MSTORE PUSH2 0x1D5C DUP5 PUSH2 0x28D6 JUMP JUMPDEST MSTORE PUSH2 0x1D66 DUP4 PUSH2 0x28D6 JUMP JUMPDEST POP PUSH1 0x40 MLOAD PUSH2 0x1D73 DUP2 PUSH2 0x2468 JUMP JUMPDEST PUSH1 0x11 DUP2 MSTORE PUSH17 0x474F5645524E414E43455F564F54494E47 PUSH1 0x78 SHL DUP4 DUP3 ADD MSTORE PUSH2 0x1D99 DUP5 PUSH2 0x28E6 JUMP JUMPDEST MSTORE PUSH2 0x1DA3 DUP4 PUSH2 0x28E6 JUMP JUMPDEST POP PUSH1 0x40 MLOAD PUSH2 0x1DB0 DUP2 PUSH2 0x2468 JUMP JUMPDEST PUSH1 0x13 DUP2 MSTORE PUSH19 0x544945525F42415345445F42454E4546495453 PUSH1 0x68 SHL DUP4 DUP3 ADD MSTORE PUSH2 0x1DD8 DUP5 PUSH2 0x28F6 JUMP JUMPDEST MSTORE PUSH2 0x1DE2 DUP4 PUSH2 0x28F6 JUMP JUMPDEST POP PUSH1 0x40 MLOAD PUSH2 0x1DEF DUP2 PUSH2 0x2468 JUMP JUMPDEST PUSH1 0x15 DUP2 MSTORE PUSH21 0x43524F53535F434841494E5F504F5254464F4C494F PUSH1 0x58 SHL DUP4 DUP3 ADD MSTORE PUSH2 0x1E19 DUP5 PUSH2 0x2906 JUMP JUMPDEST MSTORE PUSH2 0x1E23 DUP4 PUSH2 0x2906 JUMP JUMPDEST POP ADD MLOAD PUSH1 0x4 DUP2 LT ISZERO PUSH2 0x116C JUMPI PUSH2 0x1E38 SWAP1 PUSH2 0x26C9 JUMP JUMPDEST SLOAD SWAP1 PUSH1 0x32 DUP3 ADD DUP1 SWAP3 GT PUSH2 0x1EFF JUMPI PUSH2 0x1E50 PUSH1 0x80 MLOAD PUSH2 0x2A59 JUMP JUMPDEST SWAP1 PUSH2 0x1ECB PUSH1 0x54 PUSH1 0x40 MLOAD DUP1 SWAP5 PUSH19 0x283630BA3337B93690383937B832B93A3C9D1 PUSH1 0x6D SHL PUSH1 0x20 DUP4 ADD MSTORE PUSH2 0x1E8B DUP2 MLOAD DUP1 SWAP3 PUSH1 0x20 PUSH1 0x33 DUP7 ADD SWAP2 ADD PUSH2 0x2529 JUMP JUMPDEST DUP2 ADD PUSH32 0x204145442C20646976657273696669656420706F6F6C20616C6C6F636174696F PUSH1 0x33 DUP3 ADD MSTORE PUSH1 0x37 PUSH1 0xF9 SHL PUSH1 0x53 DUP3 ADD MSTORE SUB PUSH1 0x34 DUP2 ADD DUP6 MSTORE ADD DUP4 PUSH2 0x2483 JUMP JUMPDEST PUSH1 0x40 MLOAD SWAP3 PUSH2 0x1ED8 DUP5 PUSH2 0x244D JUMP JUMPDEST PUSH1 0x0 DUP5 MSTORE PUSH1 0x20 DUP5 ADD MSTORE PUSH9 0x3635C9ADC5DEA00000 PUSH1 0x40 DUP5 ADD MSTORE PUSH1 0x60 DUP4 ADD MSTORE PUSH1 0x80 DUP3 ADD MSTORE PUSH2 0x1BDF JUMP JUMPDEST PUSH4 0x4E487B71 PUSH1 0xE0 SHL PUSH1 0x0 MSTORE PUSH1 0x11 PUSH1 0x4 MSTORE PUSH1 0x24 PUSH1 0x0 REVERT JUMPDEST DUP1 PUSH1 0x60 PUSH1 0x20 DUP1 SWAP4 DUP7 ADD ADD MSTORE ADD PUSH2 0x1CD7 JUMP JUMPDEST PUSH1 0x40 MLOAD PUSH3 0x461BCD PUSH1 0xE5 SHL DUP2 MSTORE PUSH1 0x20 PUSH1 0x4 DUP3 ADD MSTORE PUSH1 0x24 DUP1 DUP3 ADD MSTORE PUSH32 0x446576656C6F706572206E6F742072656769737465726564206F7220696E6163 PUSH1 0x44 DUP3 ADD MSTORE PUSH4 0x74697665 PUSH1 0xE0 SHL PUSH1 0x64 DUP3 ADD MSTORE PUSH1 0x84 SWAP1 REVERT JUMPDEST SWAP1 PUSH2 0x1F87 DUP2 PUSH1 0x20 SWAP4 PUSH1 0xF8 SHR PUSH2 0x26BC JUMP JUMPDEST ADD DUP7 PUSH2 0x444 JUMP JUMPDEST SWAP3 PUSH1 0x20 DUP2 PUSH2 0x1FA4 PUSH1 0x1 SWAP4 PUSH1 0xFF DUP8 PUSH1 0xF0 SHR AND PUSH2 0x26BC JUMP JUMPDEST ADD SWAP4 ADD PUSH2 0x1884 JUMP JUMPDEST SWAP3 PUSH1 0x20 DUP2 PUSH2 0x1FC2 PUSH1 0x1 SWAP4 PUSH1 0xFF DUP8 PUSH1 0xE8 SHR AND PUSH2 0x26BC JUMP JUMPDEST ADD SWAP4 ADD PUSH2 0x187C JUMP JUMPDEST SWAP3 PUSH1 0x20 DUP2 PUSH2 0x1FE0 PUSH1 0x1 SWAP4 PUSH1 0xFF DUP8 PUSH1 0xE0 SHR AND PUSH2 0x26BC JUMP JUMPDEST ADD SWAP4 ADD PUSH2 0x1874 JUMP JUMPDEST SWAP3 PUSH1 0x20 DUP2 PUSH2 0x1FFE PUSH1 0x1 SWAP4 PUSH1 0xFF DUP8 PUSH1 0xD8 SHR AND PUSH2 0x26BC JUMP JUMPDEST ADD SWAP4 ADD PUSH2 0x186C JUMP JUMPDEST SWAP3 PUSH1 0x20 DUP2 PUSH2 0x201C PUSH1 0x1 SWAP4 PUSH1 0xFF DUP8 PUSH1 0xD0 SHR AND PUSH2 0x26BC JUMP JUMPDEST ADD SWAP4 ADD PUSH2 0x1864 JUMP JUMPDEST SWAP3 PUSH1 0x20 DUP2 PUSH2 0x203A PUSH1 0x1 SWAP4 PUSH1 0xFF DUP8 PUSH1 0xC8 SHR AND PUSH2 0x26BC JUMP JUMPDEST ADD SWAP4 ADD PUSH2 0x185C JUMP JUMPDEST SWAP3 PUSH1 0x20 DUP2 PUSH2 0x2058 PUSH1 0x1 SWAP4 PUSH1 0xFF DUP8 PUSH1 0xC0 SHR AND PUSH2 0x26BC JUMP JUMPDEST ADD SWAP4 ADD PUSH2 0x1854 JUMP JUMPDEST SWAP3 PUSH1 0x20 DUP2 PUSH2 0x2076 PUSH1 0x1 SWAP4 PUSH1 0xFF DUP8 PUSH1 0xB8 SHR AND PUSH2 0x26BC JUMP JUMPDEST ADD SWAP4 ADD PUSH2 0x184C JUMP JUMPDEST SWAP3 PUSH1 0x20 DUP2 PUSH2 0x2094 PUSH1 0x1 SWAP4 PUSH1 0xFF DUP8 PUSH1 0xB0 SHR AND PUSH2 0x26BC JUMP JUMPDEST ADD SWAP4 ADD PUSH2 0x1844 JUMP JUMPDEST SWAP3 PUSH1 0x20 DUP2 PUSH2 0x20B2 PUSH1 0x1 SWAP4 PUSH1 0xFF DUP8 PUSH1 0xA8 SHR AND PUSH2 0x26BC JUMP JUMPDEST ADD SWAP4 ADD PUSH2 0x183C JUMP JUMPDEST SWAP3 PUSH1 0x20 DUP2 PUSH2 0x20D0 PUSH1 0x1 SWAP4 PUSH1 0xFF DUP8 PUSH1 0xA0 SHR AND PUSH2 0x26BC JUMP JUMPDEST ADD SWAP4 ADD PUSH2 0x1834 JUMP JUMPDEST SWAP3 PUSH1 0x20 DUP2 PUSH2 0x20EE PUSH1 0x1 SWAP4 PUSH1 0xFF DUP8 PUSH1 0x98 SHR AND PUSH2 0x26BC JUMP JUMPDEST ADD SWAP4 ADD PUSH2 0x182C JUMP JUMPDEST SWAP3 PUSH1 0x20 DUP2 PUSH2 0x210C PUSH1 0x1 SWAP4 PUSH1 0xFF DUP8 PUSH1 0x90 SHR AND PUSH2 0x26BC JUMP JUMPDEST ADD SWAP4 ADD PUSH2 0x1824 JUMP JUMPDEST SWAP3 PUSH1 0x20 DUP2 PUSH2 0x212A PUSH1 0x1 SWAP4 PUSH1 0xFF DUP8 PUSH1 0x88 SHR AND PUSH2 0x26BC JUMP JUMPDEST ADD SWAP4 ADD PUSH2 0x181C JUMP JUMPDEST SWAP3 PUSH1 0x20 DUP2 PUSH2 0x2148 PUSH1 0x1 SWAP4 PUSH1 0xFF DUP8 PUSH1 0x80 SHR AND PUSH2 0x26BC JUMP JUMPDEST ADD SWAP4 ADD PUSH2 0x1814 JUMP JUMPDEST SWAP3 PUSH1 0x20 DUP2 PUSH2 0x2166 PUSH1 0x1 SWAP4 PUSH1 0xFF DUP8 PUSH1 0x78 SHR AND PUSH2 0x26BC JUMP JUMPDEST ADD SWAP4 ADD PUSH2 0x180C JUMP JUMPDEST SWAP3 PUSH1 0x20 DUP2 PUSH2 0x2184 PUSH1 0x1 SWAP4 PUSH1 0xFF DUP8 PUSH1 0x70 SHR AND PUSH2 0x26BC JUMP JUMPDEST ADD SWAP4 ADD PUSH2 0x1804 JUMP JUMPDEST SWAP3 PUSH1 0x20 DUP2 PUSH2 0x21A2 PUSH1 0x1 SWAP4 PUSH1 0xFF DUP8 PUSH1 0x68 SHR AND PUSH2 0x26BC JUMP JUMPDEST ADD SWAP4 ADD PUSH2 0x17FC JUMP JUMPDEST SWAP3 PUSH1 0x20 DUP2 PUSH2 0x21C0 PUSH1 0x1 SWAP4 PUSH1 0xFF DUP8 PUSH1 0x60 SHR AND PUSH2 0x26BC JUMP JUMPDEST ADD SWAP4 ADD PUSH2 0x17F4 JUMP JUMPDEST SWAP3 PUSH1 0x20 DUP2 PUSH2 0x21DE PUSH1 0x1 SWAP4 PUSH1 0xFF DUP8 PUSH1 0x58 SHR AND PUSH2 0x26BC JUMP JUMPDEST ADD SWAP4 ADD PUSH2 0x17EC JUMP JUMPDEST SWAP3 PUSH1 0x20 DUP2 PUSH2 0x21FC PUSH1 0x1 SWAP4 PUSH1 0xFF DUP8 PUSH1 0x50 SHR AND PUSH2 0x26BC JUMP JUMPDEST ADD SWAP4 ADD PUSH2 0x17E4 JUMP JUMPDEST SWAP3 PUSH1 0x20 DUP2 PUSH2 0x221A PUSH1 0x1 SWAP4 PUSH1 0xFF DUP8 PUSH1 0x48 SHR AND PUSH2 0x26BC JUMP JUMPDEST ADD SWAP4 ADD PUSH2 0x17DC JUMP JUMPDEST SWAP3 PUSH1 0x20 DUP2 PUSH2 0x2238 PUSH1 0x1 SWAP4 PUSH1 0xFF DUP8 PUSH1 0x40 SHR AND PUSH2 0x26BC JUMP JUMPDEST ADD SWAP4 ADD PUSH2 0x17D4 JUMP JUMPDEST SWAP3 PUSH1 0x20 DUP2 PUSH2 0x2256 PUSH1 0x1 SWAP4 PUSH1 0xFF DUP8 PUSH1 0x38 SHR AND PUSH2 0x26BC JUMP JUMPDEST ADD SWAP4 ADD PUSH2 0x17CC JUMP JUMPDEST SWAP3 PUSH1 0x20 DUP2 PUSH2 0x2274 PUSH1 0x1 SWAP4 PUSH1 0xFF DUP8 PUSH1 0x30 SHR AND PUSH2 0x26BC JUMP JUMPDEST ADD SWAP4 ADD PUSH2 0x17C4 JUMP JUMPDEST SWAP3 PUSH1 0x20 DUP2 PUSH2 0x2292 PUSH1 0x1 SWAP4 PUSH1 0xFF DUP8 PUSH1 0x28 SHR AND PUSH2 0x26BC JUMP JUMPDEST ADD SWAP4 ADD PUSH2 0x17BC JUMP JUMPDEST SWAP3 PUSH1 0x20 DUP2 PUSH2 0x22AF PUSH1 0x1 SWAP4 PUSH1 0xFF DUP8 DUP6 SHR AND PUSH2 0x26BC JUMP JUMPDEST ADD SWAP4 ADD PUSH2 0x17B4 JUMP JUMPDEST SWAP3 PUSH1 0x20 DUP2 PUSH2 0x22CD PUSH1 0x1 SWAP4 PUSH1 0xFF DUP8 PUSH1 0x18 SHR AND PUSH2 0x26BC JUMP JUMPDEST ADD SWAP4 ADD PUSH2 0x17AC JUMP JUMPDEST SWAP3 PUSH1 0x20 DUP2 PUSH2 0x22EB PUSH1 0x1 SWAP4 PUSH1 0xFF DUP8 PUSH1 0x10 SHR AND PUSH2 0x26BC JUMP JUMPDEST ADD SWAP4 ADD PUSH2 0x17A4 JUMP JUMPDEST SWAP3 PUSH1 0x20 DUP2 PUSH2 0x2309 PUSH1 0x1 SWAP4 PUSH1 0xFF DUP8 PUSH1 0x8 SHR AND PUSH2 0x26BC JUMP JUMPDEST ADD SWAP4 ADD PUSH2 0x179C JUMP JUMPDEST SWAP3 PUSH1 0x20 DUP2 PUSH2 0x2324 PUSH1 0x1 SWAP4 PUSH1 0xFF DUP8 AND PUSH2 0x26BC JUMP JUMPDEST ADD SWAP4 ADD PUSH2 0x1794 JUMP JUMPDEST SWAP2 PUSH1 0x20 SWAP2 SWAP4 POP PUSH2 0x400 PUSH1 0x1 SWAP2 PUSH2 0x234A DUP8 SLOAD PUSH2 0x90C DUP4 PUSH1 0xFF DUP4 AND PUSH2 0x26BC JUMP JUMPDEST ADD SWAP5 ADD SWAP3 ADD DUP5 SWAP3 SWAP4 SWAP2 PUSH2 0x177C JUMP JUMPDEST PUSH1 0x40 MLOAD PUSH3 0x461BCD PUSH1 0xE5 SHL DUP2 MSTORE PUSH1 0x20 PUSH1 0x4 DUP3 ADD MSTORE PUSH1 0x22 PUSH1 0x24 DUP3 ADD MSTORE PUSH32 0x50726F7065727479206D75737420626520524552412F444C4420766572696669 PUSH1 0x44 DUP3 ADD MSTORE PUSH2 0x1959 PUSH1 0xF2 SHL PUSH1 0x64 DUP3 ADD MSTORE PUSH1 0x84 SWAP1 REVERT JUMPDEST PUSH1 0x40 MLOAD PUSH3 0x461BCD PUSH1 0xE5 SHL DUP2 MSTORE PUSH1 0x20 PUSH1 0x4 DUP3 ADD MSTORE PUSH1 0x1D PUSH1 0x24 DUP3 ADD MSTORE PUSH32 0x496E73756666696369656E7420636F6D706C69616E63652073636F7265000000 PUSH1 0x44 DUP3 ADD MSTORE PUSH1 0x64 SWAP1 REVERT JUMPDEST PUSH1 0x40 MLOAD PUSH3 0x461BCD PUSH1 0xE5 SHL DUP2 MSTORE PUSH1 0x20 PUSH1 0x4 DUP3 ADD MSTORE PUSH1 0x1C PUSH1 0x24 DUP3 ADD MSTORE PUSH32 0x50726F70657274792076616C75652062656C6F77206D696E696D756D00000000 PUSH1 0x44 DUP3 ADD MSTORE PUSH1 0x64 SWAP1 REVERT JUMPDEST PUSH1 0xE0 DUP2 ADD SWAP1 DUP2 LT PUSH1 0x1 PUSH1 0x1 PUSH1 0x40 SHL SUB DUP3 GT OR PUSH2 0xCD5 JUMPI PUSH1 0x40 MSTORE JUMP JUMPDEST PUSH1 0xA0 DUP2 ADD SWAP1 DUP2 LT PUSH1 0x1 PUSH1 0x1 PUSH1 0x40 SHL SUB DUP3 GT OR PUSH2 0xCD5 JUMPI PUSH1 0x40 MSTORE JUMP JUMPDEST PUSH1 0x40 DUP2 ADD SWAP1 DUP2 LT PUSH1 0x1 PUSH1 0x1 PUSH1 0x40 SHL SUB DUP3 GT OR PUSH2 0xCD5 JUMPI PUSH1 0x40 MSTORE JUMP JUMPDEST SWAP1 PUSH1 0x1F DUP1 NOT SWAP2 ADD AND DUP2 ADD SWAP1 DUP2 LT PUSH1 0x1 PUSH1 0x1 PUSH1 0x40 SHL SUB DUP3 GT OR PUSH2 0xCD5 JUMPI PUSH1 0x40 MSTORE JUMP JUMPDEST PUSH1 0x1 PUSH1 0x1 PUSH1 0x40 SHL SUB DUP2 GT PUSH2 0xCD5 JUMPI PUSH1 0x1F ADD PUSH1 0x1F NOT AND PUSH1 0x20 ADD SWAP1 JUMP JUMPDEST DUP2 PUSH1 0x1F DUP3 ADD SLT ISZERO PUSH2 0x1E2 JUMPI DUP1 CALLDATALOAD SWAP1 PUSH2 0x24D6 DUP3 PUSH2 0x24A4 JUMP JUMPDEST SWAP3 PUSH2 0x24E4 PUSH1 0x40 MLOAD SWAP5 DUP6 PUSH2 0x2483 JUMP JUMPDEST DUP3 DUP5 MSTORE PUSH1 0x20 DUP4 DUP4 ADD ADD GT PUSH2 0x1E2 JUMPI DUP2 PUSH1 0x0 SWAP3 PUSH1 0x20 DUP1 SWAP4 ADD DUP4 DUP7 ADD CALLDATACOPY DUP4 ADD ADD MSTORE SWAP1 JUMP JUMPDEST PUSH1 0x4 CALLDATALOAD SWAP1 PUSH1 0x1 PUSH1 0x1 PUSH1 0xA0 SHL SUB DUP3 AND DUP3 SUB PUSH2 0x1E2 JUMPI JUMP JUMPDEST CALLDATALOAD SWAP1 DUP2 ISZERO ISZERO DUP3 SUB PUSH2 0x1E2 JUMPI JUMP JUMPDEST PUSH1 0x0 JUMPDEST DUP4 DUP2 LT PUSH2 0x253C JUMPI POP POP PUSH1 0x0 SWAP2 ADD MSTORE JUMP JUMPDEST DUP2 DUP2 ADD MLOAD DUP4 DUP3 ADD MSTORE PUSH1 0x20 ADD PUSH2 0x252C JUMP JUMPDEST SWAP1 PUSH1 0x20 SWAP2 PUSH2 0x2565 DUP2 MLOAD DUP1 SWAP3 DUP2 DUP6 MSTORE DUP6 DUP1 DUP7 ADD SWAP2 ADD PUSH2 0x2529 JUMP JUMPDEST PUSH1 0x1F ADD PUSH1 0x1F NOT AND ADD ADD SWAP1 JUMP JUMPDEST SWAP1 PUSH1 0x1 DUP3 DUP2 SHR SWAP3 AND DUP1 ISZERO PUSH2 0x25A1 JUMPI JUMPDEST PUSH1 0x20 DUP4 LT EQ PUSH2 0x258B JUMPI JUMP JUMPDEST PUSH4 0x4E487B71 PUSH1 0xE0 SHL PUSH1 0x0 MSTORE PUSH1 0x22 PUSH1 0x4 MSTORE PUSH1 0x24 PUSH1 0x0 REVERT JUMPDEST SWAP2 PUSH1 0x7F AND SWAP2 PUSH2 0x2580 JUMP JUMPDEST SWAP1 PUSH1 0x40 MLOAD SWAP2 DUP3 PUSH1 0x0 DUP3 SLOAD SWAP3 PUSH2 0x25BF DUP5 PUSH2 0x2571 JUMP JUMPDEST SWAP1 DUP2 DUP5 MSTORE PUSH1 0x1 SWAP5 DUP6 DUP2 AND SWAP1 DUP2 PUSH1 0x0 EQ PUSH2 0x262E JUMPI POP PUSH1 0x1 EQ PUSH2 0x25EB JUMPI JUMPDEST POP POP PUSH2 0x25E9 SWAP3 POP SUB DUP4 PUSH2 0x2483 JUMP JUMPDEST JUMP JUMPDEST SWAP1 SWAP4 SWAP2 POP PUSH1 0x0 MSTORE PUSH1 0x20 SWAP1 DUP2 PUSH1 0x0 KECCAK256 SWAP4 PUSH1 0x0 SWAP2 JUMPDEST DUP2 DUP4 LT PUSH2 0x2616 JUMPI POP POP PUSH2 0x25E9 SWAP4 POP DUP3 ADD ADD CODESIZE DUP1 PUSH2 0x25DB JUMP JUMPDEST DUP6 SLOAD DUP9 DUP5 ADD DUP6 ADD MSTORE SWAP5 DUP6 ADD SWAP5 DUP8 SWAP5 POP SWAP2 DUP4 ADD SWAP2 PUSH2 0x25FE JUMP JUMPDEST SWAP2 POP POP PUSH2 0x25E9 SWAP5 POP PUSH1 0x20 SWAP3 POP PUSH1 0xFF NOT AND DUP3 DUP5 ADD MSTORE ISZERO ISZERO PUSH1 0x5 SHL DUP3 ADD ADD CODESIZE DUP1 PUSH2 0x25DB JUMP JUMPDEST SWAP1 PUSH1 0x4 DUP3 LT ISZERO PUSH2 0x116C JUMPI MSTORE JUMP JUMPDEST PUSH1 0x1 PUSH1 0x1 PUSH1 0x40 SHL SUB DUP2 GT PUSH2 0xCD5 JUMPI PUSH1 0x5 SHL PUSH1 0x20 ADD SWAP1 JUMP JUMPDEST PUSH1 0x7 DUP2 LT ISZERO PUSH2 0x116C JUMPI PUSH1 0x0 MSTORE PUSH1 0x4 PUSH1 0x20 MSTORE PUSH1 0x40 PUSH1 0x0 KECCAK256 SWAP1 JUMP JUMPDEST DUP1 SLOAD DUP3 LT ISZERO PUSH2 0x26A6 JUMPI PUSH1 0x0 MSTORE PUSH1 0x20 PUSH1 0x0 KECCAK256 ADD SWAP1 PUSH1 0x0 SWAP1 JUMP JUMPDEST PUSH4 0x4E487B71 PUSH1 0xE0 SHL PUSH1 0x0 MSTORE PUSH1 0x32 PUSH1 0x4 MSTORE PUSH1 0x24 PUSH1 0x0 REVERT JUMPDEST SWAP1 PUSH1 0x7 DUP3 LT ISZERO PUSH2 0x116C JUMPI MSTORE JUMP JUMPDEST PUSH1 0x4 DUP2 LT ISZERO PUSH2 0x116C JUMPI PUSH1 0x0 MSTORE PUSH1 0x5 PUSH1 0x20 MSTORE PUSH1 0x40 PUSH1 0x0 KECCAK256 SWAP1 JUMP JUMPDEST PUSH1 0x0 SLOAD PUSH1 0x1 PUSH1 0x1 PUSH1 0xA0 SHL SUB AND CALLER SUB PUSH2 0x26F6 JUMPI JUMP JUMPDEST PUSH1 0x64 PUSH1 0x40 MLOAD PUSH3 0x461BCD PUSH1 0xE5 SHL DUP2 MSTORE PUSH1 0x20 PUSH1 0x4 DUP3 ADD MSTORE PUSH1 0x20 PUSH1 0x24 DUP3 ADD MSTORE PUSH32 0x4F776E61626C653A2063616C6C6572206973206E6F7420746865206F776E6572 PUSH1 0x44 DUP3 ADD MSTORE REVERT JUMPDEST PUSH1 0x40 MLOAD SWAP1 PUSH2 0x2747 DUP3 PUSH2 0x244D JUMP JUMPDEST PUSH1 0x60 PUSH1 0x80 DUP4 PUSH1 0x0 DUP2 MSTORE PUSH1 0x0 PUSH1 0x20 DUP3 ADD MSTORE PUSH1 0x0 PUSH1 0x40 DUP3 ADD MSTORE DUP3 DUP1 DUP3 ADD MSTORE ADD MSTORE JUMP JUMPDEST PUSH1 0x4 DUP3 LT ISZERO PUSH2 0x116C JUMPI MSTORE JUMP JUMPDEST SWAP1 PUSH11 0x422CA8B0A00A425000000 DUP3 MLOAD LT PUSH2 0x289B JUMPI PUSH1 0x20 ADD DUP1 MLOAD SWAP1 PUSH1 0x4 SWAP2 DUP3 DUP2 LT ISZERO PUSH2 0x2872 JUMPI PUSH1 0x3 EQ SWAP1 DUP2 ISZERO PUSH2 0x28A2 JUMPI JUMPDEST POP PUSH2 0x289B JUMPI PUSH1 0xFF PUSH2 0x27C7 PUSH1 0x20 PUSH1 0x40 DUP6 ADD MLOAD DUP2 PUSH1 0x40 MLOAD SWAP4 DUP3 DUP6 DUP1 SWAP5 MLOAD SWAP4 DUP5 SWAP3 ADD PUSH2 0x2529 JUMP JUMPDEST DUP2 ADD PUSH1 0x3 DUP2 MSTORE SUB ADD SWAP1 KECCAK256 SLOAD AND ISZERO PUSH2 0x289B JUMPI PUSH1 0x55 PUSH1 0xA0 DUP4 ADD MLOAD LT PUSH2 0x289B JUMPI PUSH1 0x60 DUP3 ADD DUP1 MLOAD PUSH1 0x6 DUP2 LT ISZERO PUSH2 0x2872 JUMPI PUSH1 0x1 EQ DUP1 ISZERO PUSH2 0x2887 JUMPI JUMPDEST DUP1 ISZERO PUSH2 0x285F JUMPI JUMPDEST PUSH2 0x2857 JUMPI MLOAD SWAP1 PUSH1 0x6 DUP3 LT ISZERO PUSH2 0x2842 JUMPI POP ISZERO SWAP1 DUP2 PUSH2 0x282B JUMPI JUMPDEST POP PUSH2 0x2826 JUMPI PUSH1 0x1 SWAP1 JUMP JUMPDEST PUSH1 0x1 SWAP1 JUMP JUMPDEST PUSH11 0x84595161401484A000000 SWAP2 POP MLOAD LT ISZERO CODESIZE PUSH2 0x281C JUMP JUMPDEST PUSH1 0x21 SWAP1 PUSH4 0x4E487B71 PUSH1 0xE0 SHL PUSH1 0x0 MSTORE MSTORE PUSH1 0x24 PUSH1 0x0 REVERT JUMPDEST POP POP POP PUSH1 0x1 SWAP1 JUMP JUMPDEST POP DUP1 MLOAD PUSH1 0x6 DUP2 LT ISZERO PUSH2 0x2872 JUMPI DUP3 EQ PUSH2 0x2804 JUMP JUMPDEST PUSH1 0x21 DUP4 PUSH4 0x4E487B71 PUSH1 0xE0 SHL PUSH1 0x0 MSTORE MSTORE PUSH1 0x24 PUSH1 0x0 REVERT JUMPDEST POP DUP1 MLOAD PUSH1 0x6 DUP2 LT ISZERO PUSH2 0x2872 JUMPI PUSH1 0x3 EQ PUSH2 0x27FD JUMP JUMPDEST POP POP PUSH1 0x0 SWAP1 JUMP JUMPDEST SWAP1 POP MLOAD DUP2 DUP2 LT ISZERO PUSH2 0x28B4 JUMPI ISZERO CODESIZE PUSH2 0x27A3 JUMP JUMPDEST PUSH1 0x21 DUP3 PUSH4 0x4E487B71 PUSH1 0xE0 SHL PUSH1 0x0 MSTORE MSTORE PUSH1 0x24 PUSH1 0x0 REVERT JUMPDEST DUP1 MLOAD ISZERO PUSH2 0x26A6 JUMPI PUSH1 0x20 ADD SWAP1 JUMP JUMPDEST DUP1 MLOAD PUSH1 0x1 LT ISZERO PUSH2 0x26A6 JUMPI PUSH1 0x40 ADD SWAP1 JUMP JUMPDEST DUP1 MLOAD PUSH1 0x2 LT ISZERO PUSH2 0x26A6 JUMPI PUSH1 0x60 ADD SWAP1 JUMP JUMPDEST DUP1 MLOAD PUSH1 0x3 LT ISZERO PUSH2 0x26A6 JUMPI PUSH1 0x80 ADD SWAP1 JUMP JUMPDEST DUP1 MLOAD PUSH1 0x4 LT ISZERO PUSH2 0x26A6 JUMPI PUSH1 0xA0 ADD SWAP1 JUMP JUMPDEST DUP1 MLOAD PUSH1 0x5 LT ISZERO PUSH2 0x26A6 JUMPI PUSH1 0xC0 ADD SWAP1 JUMP JUMPDEST DUP2 DUP2 LT PUSH2 0x2931 JUMPI POP POP JUMP JUMPDEST PUSH1 0x0 DUP2 SSTORE PUSH1 0x1 ADD PUSH2 0x2926 JUMP JUMPDEST SWAP2 SWAP1 SWAP2 DUP3 MLOAD PUSH1 0x1 PUSH1 0x1 PUSH1 0x40 SHL SUB DUP2 GT PUSH2 0xCD5 JUMPI PUSH2 0x295A DUP3 SLOAD PUSH2 0x2571 JUMP JUMPDEST PUSH1 0x1F DUP2 GT PUSH2 0x2A04 JUMPI JUMPDEST POP PUSH1 0x20 DUP1 PUSH1 0x1F DUP4 GT PUSH1 0x1 EQ PUSH2 0x29A0 JUMPI POP DUP2 SWAP3 SWAP4 SWAP5 PUSH1 0x0 SWAP3 PUSH2 0x2995 JUMPI JUMPDEST POP POP DUP2 PUSH1 0x1 SHL SWAP2 PUSH1 0x0 NOT SWAP1 PUSH1 0x3 SHL SHR NOT AND OR SWAP1 SSTORE JUMP JUMPDEST ADD MLOAD SWAP1 POP CODESIZE DUP1 PUSH2 0x297F JUMP JUMPDEST SWAP1 PUSH1 0x1F NOT DUP4 AND SWAP6 DUP5 PUSH1 0x0 MSTORE DUP3 PUSH1 0x0 KECCAK256 SWAP3 PUSH1 0x0 SWAP1 JUMPDEST DUP9 DUP3 LT PUSH2 0x29EC JUMPI POP POP DUP4 PUSH1 0x1 SWAP6 SWAP7 SWAP8 LT PUSH2 0x29D3 JUMPI JUMPDEST POP POP POP DUP2 SHL ADD SWAP1 SSTORE JUMP JUMPDEST ADD MLOAD PUSH1 0x0 NOT PUSH1 0xF8 DUP5 PUSH1 0x3 SHL AND SHR NOT AND SWAP1 SSTORE CODESIZE DUP1 DUP1 PUSH2 0x29C9 JUMP JUMPDEST DUP1 PUSH1 0x1 DUP6 SWAP7 DUP3 SWAP5 SWAP7 DUP7 ADD MLOAD DUP2 SSTORE ADD SWAP6 ADD SWAP4 ADD SWAP1 PUSH2 0x29B4 JUMP JUMPDEST PUSH2 0x2A31 SWAP1 DUP4 PUSH1 0x0 MSTORE PUSH1 0x20 PUSH1 0x0 KECCAK256 PUSH1 0x1F DUP5 ADD PUSH1 0x5 SHR DUP2 ADD SWAP2 PUSH1 0x20 DUP6 LT PUSH2 0x2A37 JUMPI JUMPDEST PUSH1 0x1F ADD PUSH1 0x5 SHR ADD SWAP1 PUSH2 0x2926 JUMP JUMPDEST CODESIZE PUSH2 0x2963 JUMP JUMPDEST SWAP1 SWAP2 POP DUP2 SWAP1 PUSH2 0x2A24 JUMP JUMPDEST SWAP1 PUSH1 0x4 DUP2 LT ISZERO PUSH2 0x116C JUMPI PUSH1 0xFF DUP1 NOT DUP4 SLOAD AND SWAP2 AND OR SWAP1 SSTORE JUMP JUMPDEST PUSH8 0xDE0B6B3A7640000 PUSH2 0x2A6C SWAP2 DIV PUSH2 0x2B36 JUMP JUMPDEST PUSH2 0x2A95 PUSH1 0x20 PUSH1 0x40 MLOAD DUP4 PUSH2 0x2A88 DUP3 SWAP6 MLOAD DUP1 SWAP3 DUP6 DUP1 DUP7 ADD SWAP2 ADD PUSH2 0x2529 JUMP JUMPDEST DUP2 ADD SUB DUP1 DUP5 MSTORE ADD DUP3 PUSH2 0x2483 JUMP JUMPDEST SWAP1 JUMP JUMPDEST PUSH1 0x40 MLOAD SWAP1 PUSH2 0x2AA5 DUP3 PUSH2 0x2468 JUMP JUMPDEST PUSH1 0x1 DUP3 MSTORE PUSH1 0x3 PUSH1 0xFC SHL PUSH1 0x20 DUP4 ADD MSTORE JUMP JUMPDEST PUSH1 0x4 DUP2 LT ISZERO PUSH2 0x116C JUMPI PUSH1 0x1 DUP2 EQ PUSH2 0x2B18 JUMPI PUSH1 0x2 DUP2 EQ PUSH2 0x2AFA JUMPI PUSH1 0x3 EQ PUSH2 0x2ADD JUMPI PUSH2 0x2A95 PUSH2 0x2A98 JUMP JUMPDEST PUSH1 0x40 MLOAD PUSH2 0x2AE9 DUP2 PUSH2 0x2468 JUMP JUMPDEST PUSH1 0x1 DUP2 MSTORE PUSH1 0x33 PUSH1 0xF8 SHL PUSH1 0x20 DUP3 ADD MSTORE SWAP1 JUMP JUMPDEST POP PUSH1 0x40 MLOAD PUSH2 0x2B07 DUP2 PUSH2 0x2468 JUMP JUMPDEST PUSH1 0x1 DUP2 MSTORE PUSH1 0x19 PUSH1 0xF9 SHL PUSH1 0x20 DUP3 ADD MSTORE SWAP1 JUMP JUMPDEST POP PUSH1 0x40 MLOAD PUSH2 0x2B25 DUP2 PUSH2 0x2468 JUMP JUMPDEST PUSH1 0x1 DUP2 MSTORE PUSH1 0x31 PUSH1 0xF8 SHL PUSH1 0x20 DUP3 ADD MSTORE SWAP1 JUMP JUMPDEST DUP1 ISZERO PUSH2 0x2BE2 JUMPI DUP1 DUP2 PUSH1 0x0 SWAP3 JUMPDEST PUSH2 0x2BC8 JUMPI POP PUSH2 0x2B50 DUP3 PUSH2 0x24A4 JUMP JUMPDEST SWAP2 PUSH2 0x2B5E PUSH1 0x40 MLOAD SWAP4 DUP5 PUSH2 0x2483 JUMP JUMPDEST DUP1 DUP4 MSTORE DUP2 PUSH1 0x1F NOT PUSH2 0x2B6E DUP4 PUSH2 0x24A4 JUMP JUMPDEST ADD CALLDATASIZE PUSH1 0x20 DUP7 ADD CALLDATACOPY JUMPDEST PUSH2 0x2B7F JUMPI POP POP SWAP1 JUMP JUMPDEST SWAP1 PUSH1 0x0 NOT DUP3 ADD SWAP1 DUP3 DUP3 GT PUSH2 0x1EFF JUMPI DUP2 SWAP3 PUSH1 0xA SWAP3 PUSH1 0x30 SWAP1 DUP5 DUP5 MOD DUP3 ADD DUP1 SWAP3 GT PUSH2 0x1EFF JUMPI DUP7 MLOAD GT ISZERO PUSH2 0x26A6 JUMPI PUSH1 0xF8 SHL PUSH1 0x1 PUSH1 0x1 PUSH1 0xF8 SHL SUB NOT AND PUSH1 0x0 BYTE SWAP1 DUP6 ADD PUSH1 0x1F ADD MSTORE8 DIV SWAP1 DUP2 PUSH2 0x2B76 JUMP JUMPDEST SWAP1 SWAP2 PUSH1 0x0 NOT DUP2 EQ PUSH2 0x1EFF JUMPI PUSH1 0x1 ADD SWAP2 SWAP1 PUSH1 0xA SWAP1 DIV DUP1 PUSH2 0x2B42 JUMP JUMPDEST POP PUSH2 0x2A95 PUSH2 0x2A98 JUMP INVALID LOG2 PUSH5 0x6970667358 0x22 SLT KECCAK256 0xC8 0x28 ORIGIN 0xBD CODECOPY 0xDD CALLDATALOAD 0xD0 0xD2 0xD EXTCODEHASH XOR 0xDA 0x24 0xDF SWAP5 0xDB 0xE4 BYTE 0x4B DUP15 0x2D BALANCE 0x4A PUSH29 0xCC0723291A8DFD64736F6C634300081300330000000000000000000000 "},"methodIdentifiers":{"LUXURY_THRESHOLD()":"3704c9ed","MINIMUM_COMPLIANCE_SCORE()":"5124857b","PROPX_MINIMUM_VALUE()":"50a97ce9","XERA_MINIMUM_VALUE()":"3a25bb16","addPremiumZone(string,uint8)":"9e42e1fc","categoryMultipliers(uint8)":"9cb601f4","classifyProperty((uint256,uint8,string,uint8,address,uint256,bool,uint256,bool))":"2899dacc","developerByName(string)":"e4b3c708","developers(address)":"61fd5c20","emirateZones(uint8,uint256)":"a324cae4","getDeveloperInfo(address)":"c342102c","getEmirateZones(uint8)":"90aa77b3","getTierFee(uint8)":"d701de83","isPremiumZone(string)":"76233c9e","owner()":"8da5cb5b","paused()":"5c975abb","premiumZones(string)":"31d75ed2","registerDeveloper(address,string,uint8,uint8[],string)":"73ef5d40","removePremiumZone(string)":"5035951c","renounceOwnership()":"715018a6","tierFees(uint8)":"ebc471c4","transferOwnership(address)":"f2fde38b","updateDeveloperTier(address,uint8)":"3621453d"}}}}}