{"contracts/UAE/UAEPROPXFactory.sol":{"UAEPROPXFactory":{"abi":[{"inputs":[{"internalType":"address","name":"_classifier","type":"address"},{"internalType":"address","name":"_feeRecipient","type":"address"}],"stateMutability":"nonpayable","type":"constructor"},{"anonymous":false,"inputs":[{"indexed":true,"internalType":"address","name":"developer","type":"address"},{"indexed":false,"internalType":"string","name":"name","type":"string"},{"indexed":false,"internalType":"enum UAEDualTokenClassifier.DeveloperTier","name":"tier","type":"uint8"}],"name":"DeveloperRegistered","type":"event"},{"anonymous":false,"inputs":[{"indexed":true,"internalType":"uint256","name":"tokenId","type":"uint256"},{"indexed":true,"internalType":"address","name":"investor","type":"address"},{"indexed":false,"internalType":"uint256","name":"amount","type":"uint256"},{"indexed":false,"internalType":"uint256","name":"tokensAllocated","type":"uint256"}],"name":"FundingReceived","type":"event"},{"anonymous":false,"inputs":[{"indexed":true,"internalType":"uint256","name":"tokenId","type":"uint256"},{"indexed":false,"internalType":"enum UAEPROPXFactory.FundingStage","name":"oldStage","type":"uint8"},{"indexed":false,"internalType":"enum UAEPROPXFactory.FundingStage","name":"newStage","type":"uint8"}],"name":"FundingStageChanged","type":"event"},{"anonymous":false,"inputs":[{"indexed":true,"internalType":"uint256","name":"tokenId","type":"uint256"},{"indexed":true,"internalType":"address","name":"tokenAddress","type":"address"},{"indexed":false,"internalType":"string","name":"name","type":"string"},{"indexed":false,"internalType":"uint256","name":"propertyValue","type":"uint256"},{"indexed":false,"internalType":"address","name":"developer","type":"address"}],"name":"PROPXTokenCreated","type":"event"},{"anonymous":false,"inputs":[{"indexed":true,"internalType":"bytes32","name":"role","type":"bytes32"},{"indexed":true,"internalType":"bytes32","name":"previousAdminRole","type":"bytes32"},{"indexed":true,"internalType":"bytes32","name":"newAdminRole","type":"bytes32"}],"name":"RoleAdminChanged","type":"event"},{"anonymous":false,"inputs":[{"indexed":true,"internalType":"bytes32","name":"role","type":"bytes32"},{"indexed":true,"internalType":"address","name":"account","type":"address"},{"indexed":true,"internalType":"address","name":"sender","type":"address"}],"name":"RoleGranted","type":"event"},{"anonymous":false,"inputs":[{"indexed":true,"internalType":"bytes32","name":"role","type":"bytes32"},{"indexed":true,"internalType":"address","name":"account","type":"address"},{"indexed":true,"internalType":"address","name":"sender","type":"address"}],"name":"RoleRevoked","type":"event"},{"inputs":[],"name":"DEFAULT_ADMIN_ROLE","outputs":[{"internalType":"bytes32","name":"","type":"bytes32"}],"stateMutability":"view","type":"function"},{"inputs":[],"name":"DEVELOPER_ROLE","outputs":[{"internalType":"bytes32","name":"","type":"bytes32"}],"stateMutability":"view","type":"function"},{"inputs":[],"name":"PROPERTY_MANAGER_ROLE","outputs":[{"internalType":"bytes32","name":"","type":"bytes32"}],"stateMutability":"view","type":"function"},{"inputs":[],"name":"classifier","outputs":[{"internalType":"contract UAEDualTokenClassifier","name":"","type":"address"}],"stateMutability":"view","type":"function"},{"inputs":[{"internalType":"string","name":"name","type":"string"},{"internalType":"string","name":"symbol","type":"string"},{"internalType":"uint256","name":"propertyValueAED","type":"uint256"},{"internalType":"uint256","name":"targetFundingAED","type":"uint256"},{"internalType":"enum UAEPROPXFactory.PropertyType","name":"propertyType","type":"uint8"},{"internalType":"enum UAEDualTokenClassifier.UAEEmirate","name":"emirate","type":"uint8"},{"internalType":"string","name":"zone","type":"string"},{"internalType":"uint256","name":"dividendRate","type":"uint256"},{"internalType":"uint256","name":"fundingDurationDays","type":"uint256"},{"internalType":"uint256","name":"expectedCompletionTimestamp","type":"uint256"},{"internalType":"string","name":"metadataURI","type":"string"},{"internalType":"string","name":"reraLicense","type":"string"}],"name":"createPROPXToken","outputs":[{"internalType":"uint256","name":"tokenId","type":"uint256"}],"stateMutability":"nonpayable","type":"function"},{"inputs":[{"internalType":"address","name":"","type":"address"}],"name":"developers","outputs":[{"internalType":"string","name":"name","type":"string"},{"internalType":"enum UAEDualTokenClassifier.DeveloperTier","name":"tier","type":"uint8"},{"internalType":"uint256","name":"platformFeePercent","type":"uint256"},{"internalType":"uint256","name":"totalProjects","type":"uint256"},{"internalType":"uint256","name":"totalValueTokenized","type":"uint256"},{"internalType":"bool","name":"isActive","type":"bool"},{"internalType":"string","name":"reraLicense","type":"string"},{"internalType":"string","name":"website","type":"string"}],"stateMutability":"view","type":"function"},{"inputs":[],"name":"feeRecipient","outputs":[{"internalType":"address","name":"","type":"address"}],"stateMutability":"view","type":"function"},{"inputs":[{"internalType":"address","name":"developer","type":"address"}],"name":"getDeveloperProfile","outputs":[{"components":[{"internalType":"string","name":"name","type":"string"},{"internalType":"enum UAEDualTokenClassifier.DeveloperTier","name":"tier","type":"uint8"},{"internalType":"uint256","name":"platformFeePercent","type":"uint256"},{"internalType":"uint256","name":"totalProjects","type":"uint256"},{"internalType":"uint256","name":"totalValueTokenized","type":"uint256"},{"internalType":"uint256[]","name":"projectIds","type":"uint256[]"},{"internalType":"bool","name":"isActive","type":"bool"},{"internalType":"string","name":"reraLicense","type":"string"},{"internalType":"string","name":"website","type":"string"},{"internalType":"enum UAEDualTokenClassifier.UAEEmirate[]","name":"operatingEmirates","type":"uint8[]"}],"internalType":"struct UAEPROPXFactory.DeveloperProfile","name":"","type":"tuple"}],"stateMutability":"view","type":"function"},{"inputs":[{"internalType":"address","name":"developer","type":"address"}],"name":"getDeveloperProjects","outputs":[{"internalType":"uint256[]","name":"","type":"uint256[]"}],"stateMutability":"view","type":"function"},{"inputs":[{"internalType":"uint256","name":"tokenId","type":"uint256"},{"internalType":"address","name":"investor","type":"address"}],"name":"getInvestorBalance","outputs":[{"internalType":"uint256","name":"","type":"uint256"}],"stateMutability":"view","type":"function"},{"inputs":[{"internalType":"uint256","name":"tokenId","type":"uint256"}],"name":"getPROPXToken","outputs":[{"components":[{"internalType":"address","name":"tokenAddress","type":"address"},{"internalType":"string","name":"name","type":"string"},{"internalType":"string","name":"symbol","type":"string"},{"internalType":"uint256","name":"totalSupply","type":"uint256"},{"internalType":"uint256","name":"propertyValue","type":"uint256"},{"internalType":"uint256","name":"minimumInvestment","type":"uint256"},{"internalType":"uint256","name":"targetFunding","type":"uint256"},{"internalType":"uint256","name":"currentFunding","type":"uint256"},{"internalType":"uint256","name":"dividendRate","type":"uint256"},{"internalType":"enum UAEPROPXFactory.FundingStage","name":"stage","type":"uint8"},{"internalType":"enum UAEPROPXFactory.PropertyType","name":"propertyType","type":"uint8"},{"internalType":"enum UAEDualTokenClassifier.UAEEmirate","name":"emirate","type":"uint8"},{"internalType":"string","name":"zone","type":"string"},{"internalType":"address","name":"developer","type":"address"},{"internalType":"string","name":"developerName","type":"string"},{"internalType":"enum UAEDualTokenClassifier.DeveloperTier","name":"developerTier","type":"uint8"},{"internalType":"uint256","name":"creationTime","type":"uint256"},{"internalType":"uint256","name":"fundingDeadline","type":"uint256"},{"internalType":"bool","name":"isActive","type":"bool"},{"internalType":"string","name":"metadataURI","type":"string"},{"internalType":"uint256","name":"expectedCompletion","type":"uint256"},{"internalType":"string","name":"reraLicense","type":"string"}],"internalType":"struct UAEPROPXFactory.UAEPROPXToken","name":"","type":"tuple"}],"stateMutability":"view","type":"function"},{"inputs":[],"name":"getPremiumDevelopers","outputs":[{"internalType":"address[]","name":"","type":"address[]"}],"stateMutability":"view","type":"function"},{"inputs":[{"internalType":"uint256","name":"tokenId","type":"uint256"}],"name":"getProjectMetrics","outputs":[{"internalType":"uint256","name":"totalInvestors","type":"uint256"},{"internalType":"uint256","name":"averageInvestment","type":"uint256"},{"internalType":"uint256","name":"institutionalInvestment","type":"uint256"},{"internalType":"uint256","name":"retailInvestment","type":"uint256"}],"stateMutability":"view","type":"function"},{"inputs":[{"internalType":"bytes32","name":"role","type":"bytes32"}],"name":"getRoleAdmin","outputs":[{"internalType":"bytes32","name":"","type":"bytes32"}],"stateMutability":"view","type":"function"},{"inputs":[{"internalType":"bytes32","name":"role","type":"bytes32"},{"internalType":"address","name":"account","type":"address"}],"name":"grantRole","outputs":[],"stateMutability":"nonpayable","type":"function"},{"inputs":[{"internalType":"bytes32","name":"role","type":"bytes32"},{"internalType":"address","name":"account","type":"address"}],"name":"hasRole","outputs":[{"internalType":"bool","name":"","type":"bool"}],"stateMutability":"view","type":"function"},{"inputs":[{"internalType":"uint256","name":"tokenId","type":"uint256"},{"internalType":"uint256","name":"aedAmount","type":"uint256"}],"name":"investInPROPX","outputs":[],"stateMutability":"payable","type":"function"},{"inputs":[],"name":"nextTokenId","outputs":[{"internalType":"uint256","name":"","type":"uint256"}],"stateMutability":"view","type":"function"},{"inputs":[],"name":"platformFeeCollected","outputs":[{"internalType":"uint256","name":"","type":"uint256"}],"stateMutability":"view","type":"function"},{"inputs":[{"internalType":"uint256","name":"","type":"uint256"}],"name":"premiumDevelopers","outputs":[{"internalType":"address","name":"","type":"address"}],"stateMutability":"view","type":"function"},{"inputs":[{"internalType":"uint256","name":"","type":"uint256"}],"name":"projectMetrics","outputs":[{"internalType":"uint256","name":"totalInvestors","type":"uint256"},{"internalType":"uint256","name":"averageInvestment","type":"uint256"},{"internalType":"uint256","name":"institutionalInvestment","type":"uint256"},{"internalType":"uint256","name":"retailInvestment","type":"uint256"}],"stateMutability":"view","type":"function"},{"inputs":[{"internalType":"uint256","name":"","type":"uint256"}],"name":"propxTokens","outputs":[{"internalType":"address","name":"tokenAddress","type":"address"},{"internalType":"string","name":"name","type":"string"},{"internalType":"string","name":"symbol","type":"string"},{"internalType":"uint256","name":"totalSupply","type":"uint256"},{"internalType":"uint256","name":"propertyValue","type":"uint256"},{"internalType":"uint256","name":"minimumInvestment","type":"uint256"},{"internalType":"uint256","name":"targetFunding","type":"uint256"},{"internalType":"uint256","name":"currentFunding","type":"uint256"},{"internalType":"uint256","name":"dividendRate","type":"uint256"},{"internalType":"enum UAEPROPXFactory.FundingStage","name":"stage","type":"uint8"},{"internalType":"enum UAEPROPXFactory.PropertyType","name":"propertyType","type":"uint8"},{"internalType":"enum UAEDualTokenClassifier.UAEEmirate","name":"emirate","type":"uint8"},{"internalType":"string","name":"zone","type":"string"},{"internalType":"address","name":"developer","type":"address"},{"internalType":"string","name":"developerName","type":"string"},{"internalType":"enum UAEDualTokenClassifier.DeveloperTier","name":"developerTier","type":"uint8"},{"internalType":"uint256","name":"creationTime","type":"uint256"},{"internalType":"uint256","name":"fundingDeadline","type":"uint256"},{"internalType":"bool","name":"isActive","type":"bool"},{"internalType":"string","name":"metadataURI","type":"string"},{"internalType":"uint256","name":"expectedCompletion","type":"uint256"},{"internalType":"string","name":"reraLicense","type":"string"}],"stateMutability":"view","type":"function"},{"inputs":[{"internalType":"address","name":"developerAddress","type":"address"},{"internalType":"string","name":"name","type":"string"},{"internalType":"enum UAEDualTokenClassifier.DeveloperTier","name":"tier","type":"uint8"},{"internalType":"string","name":"reraLicense","type":"string"},{"internalType":"string","name":"website","type":"string"},{"internalType":"enum UAEDualTokenClassifier.UAEEmirate[]","name":"operatingEmirates","type":"uint8[]"}],"name":"registerDeveloper","outputs":[],"stateMutability":"nonpayable","type":"function"},{"inputs":[{"internalType":"bytes32","name":"role","type":"bytes32"},{"internalType":"address","name":"account","type":"address"}],"name":"renounceRole","outputs":[],"stateMutability":"nonpayable","type":"function"},{"inputs":[{"internalType":"bytes32","name":"role","type":"bytes32"},{"internalType":"address","name":"account","type":"address"}],"name":"revokeRole","outputs":[],"stateMutability":"nonpayable","type":"function"},{"inputs":[{"internalType":"bytes4","name":"interfaceId","type":"bytes4"}],"name":"supportsInterface","outputs":[{"internalType":"bool","name":"","type":"bool"}],"stateMutability":"view","type":"function"},{"inputs":[{"internalType":"address","name":"","type":"address"}],"name":"tokenToId","outputs":[{"internalType":"uint256","name":"","type":"uint256"}],"stateMutability":"view","type":"function"},{"inputs":[],"name":"totalProjectsCreated","outputs":[{"internalType":"uint256","name":"","type":"uint256"}],"stateMutability":"view","type":"function"},{"inputs":[],"name":"totalValueTokenized","outputs":[{"internalType":"uint256","name":"","type":"uint256"}],"stateMutability":"view","type":"function"}],"evm":{"bytecode":{"linkReferences":{},"object":"60a03462002a5057601f62006e1538819003918201601f19168301916001600160401b03831184841017620016ee57808492604094855283398101031262002a50576200005a6020620000528362002ad6565b920162002ad6565b60018080556006556001600160a01b039182169190821562002a0b5716908115620029c657608052600b80546001600160a01b03191691909117905533600090815260008051602062006dd5833981519152602052604090205460ff161562002983575b3360009081527f3a814d6eac3306bf154f1d02bc4f57bb4f0390c16247e6c5afa43a262f9bf19560205260409020547f5aa58c694aeb083df8754bf5e98675317e4137a5a8a2c6188d0228869e43da7e9060ff16156200293f575b506200012462002a76565b601081526f454d4141522050726f7065727469657360801b60208201526200014b62002a76565b600e81526d524552412d454d4141522d30303160901b60208201526200017062002a96565b9060028252604036602084013760006200018a8362002aeb565b526001620001988362002af9565b52620001a362002ab6565b60008152620001b162002a55565b9384526001602085015260966040850152600060608501526000608085015260a0840152600160c084015260e0830152620001eb62002ab6565b600081526101008301526101208201527311111111111111111111111111111111111111116000526004602052604060002090805191825160018060401b038111620016ee578154600181811c9116801562002934575b6020821014620017d057601f8111620028fe575b506020601f821160011462002891578192939460009262002885575b50508160011b916000199060031b1c19161781555b60208201516004811015620016355760ff8019600184015416911617600182015560408201516002820155606082015160038201556080820151600482015560a082015180519060018060401b038211620016ee57680100000000000000008211620016ee57602090600584015483600586015580841062002862575b500160058301600052602060002060005b8381106200284d5785856200033f60c08301511515600683019060ff801983541691151516179055565b60e082015180519092906001600160401b038111620016ee576007830154600181811c9116801562002842575b6020821014620017d057601f811162002809575b506020601f82116001146200279657819293946000926200278a575b50508160011b916000199060031b1c19161760078301555b6101008101518051906001600160401b038211620016ee576008840154600181811c911680156200277f575b6020821014620017d057601f811162002746575b50602090601f8311600114620026cd5761012093929160009183620026c1575b50508160011b916000199060031b1c19161760088401555b01518051906001600160401b038211620016ee57680100000000000000008211620016ee57602060099182850154848487015580851062002689575b5001920160005260206000209060005b8160051c8110620026375750601f1981168103620025dc575b50507311111111111111111111111111111111111111116000525060008051602062006d7583398151915260205260008051602062006d558339815191525460ff161562002567575b60095468010000000000000000811015620016ee576001810180600955811015620019a657600960005260008051602062006d958339815191520180546001600160a01b0319167311111111111111111111111111111111111111111790556200054362002a76565b600e81526d4d455241415320486f6c64696e6760901b60208201526200056862002a76565b600f81526e524552412d4d45524141532d30303160881b60208201526200058e62002a96565b906002825260403660208401376000620005a88362002aeb565b526001620005b68362002af9565b52620005c162002ab6565b60008152620005cf62002a55565b9384526001602085015260966040850152600060608501526000608085015260a0840152600160c084015260e08301526200060962002ab6565b600081526101008301526101208201527322222222222222222222222222222222222222226000526004602052604060002090805191825160018060401b038111620016ee578154600181811c911680156200255c575b6020821014620017d057601f811162002526575b506020601f8211600114620024b95781929394600092620024ad575b50508160011b916000199060031b1c19161781555b602082015160048110156200163557600182019060ff8019835416911617905560408201516002820155606082015160038201556080820151600482015560a082015180519060018060401b038211620016ee57680100000000000000008211620016ee5760209060058401548360058601558084106200248a575b500160058301600052602060002060005b838110620024755785856200075c60c08301511515600683019060ff801983541691151516179055565b60e082015180519092906001600160401b038111620016ee576007830154600181811c911680156200246a575b6020821014620017d057601f811162002431575b506020601f8211600114620023be5781929394600092620023b2575b50508160011b916000199060031b1c19161760078301555b6101008101518051906001600160401b038211620016ee576008840154600181811c91168015620023a7575b6020821014620017d057601f81116200236e575b50602090601f8311600114620022f55761012093929160009183620022e9575b50508160011b916000199060031b1c19161760088401555b01518051906001600160401b038211620016ee57680100000000000000008211620016ee576020600991828501548484870155808510620022b1575b5001920160005260206000209060005b8160051c81106200225f5750601f198116810362002204575b50507322222222222222222222222222222222222222226000525060008051602062006d7583398151915260205260008051602062006db58339815191525460ff16156200218f575b60095468010000000000000000811015620016ee576001810180600955811015620019a657600960005260008051602062006d958339815191520180546001600160a01b0319167322222222222222222222222222222222222222221790556200096062002a76565b6007815266139052d211515360ca1b60208201526200097e62002a76565b601081526f524552412d4e414b4845454c2d30303160801b6020820152620009a562002a96565b906002825260403660208401376000620009bf8362002aeb565b526001620009cd8362002af9565b52620009d862002ab6565b60008152620009e662002a55565b9384526001602085015260966040850152600060608501526000608085015260a0840152600160c084015260e083015262000a2062002ab6565b600081526101008301526101208201527333333333333333333333333333333333333333336000526004602052604060002090805191825160018060401b038111620016ee578154600181811c9116801562002184575b6020821014620017d057601f81116200214e575b506020601f8211600114620020e15781929394600092620020d5575b50508160011b916000199060031b1c19161781555b602082015160048110156200163557600182019060ff8019835416911617905560408201516002820155606082015160038201556080820151600482015560a082015180519060018060401b038211620016ee57680100000000000000008211620016ee576020906005840154836005860155808410620020b2575b500160058301600052602060002060005b8381106200209d57858562000b7360c08301511515600683019060ff801983541691151516179055565b60e082015180519092906001600160401b038111620016ee576007830154600181811c9116801562002092575b6020821014620017d057601f811162002059575b506020601f821160011462001fe6578192939460009262001fda575b50508160011b916000199060031b1c19161760078301555b6101008101518051906001600160401b038211620016ee576008840154600181811c9116801562001fcf575b6020821014620017d057601f811162001f96575b50602090601f831160011462001f1d576101209392916000918362001f11575b50508160011b916000199060031b1c19161760088401555b01518051906001600160401b038211620016ee57680100000000000000008211620016ee57602060099182850154848487015580851062001ed9575b5001920160005260206000209060005b8160051c811062001e875750601f198116810362001e2c575b50507333333333333333333333333333333333333333336000525060008051602062006d7583398151915260205260008051602062006df58339815191525460ff161562001db7575b60095468010000000000000000811015620016ee576001810180600955811015620019a657600960005260008051602062006d958339815191520180546001600160a01b03191673333333333333333333333333333333333333333317905562000d7762002a76565b601081526f414c4441522050726f7065727469657360801b602082015262000d9e62002a76565b600e81526d414452412d414c4441522d30303160901b602082015262000dc362002a96565b90600282526040366020840137600062000ddd8362002aeb565b52600162000deb8362002af9565b5262000df662002ab6565b6000815262000e0462002a55565b9384526001602085015260966040850152600060608501526000608085015260a0840152600160c084015260e083015262000e3e62002ab6565b600081526101008301526101208201527355555555555555555555555555555555555555556000526004602052604060002090805191825160018060401b038111620016ee578154600181811c9116801562001dac575b6020821014620017d057601f811162001d76575b506020601f821160011462001d09578192939460009262001cfd575b50508160011b916000199060031b1c19161781555b602082015160048110156200163557600182019060ff8019835416911617905560408201516002820155606082015160038201556080820151600482015560a082015180519060018060401b038211620016ee57680100000000000000008211620016ee57602090600584015483600586015580841062001cda575b500160058301600052602060002060005b83811062001cc557858562000f9160c08301511515600683019060ff801983541691151516179055565b60e082015180519092906001600160401b038111620016ee576007830154600181811c9116801562001cba575b6020821014620017d057601f811162001c81575b506020601f821160011462001c0e578192939460009262001c02575b50508160011b916000199060031b1c19161760078301555b6101008101518051906001600160401b038211620016ee576008840154600181811c9116801562001bf7575b6020821014620017d057601f811162001bbe575b50602090601f831160011462001b45576101209392916000918362001b39575b50508160011b916000199060031b1c19161760088401555b01518051906001600160401b038211620016ee57680100000000000000008211620016ee57602060099182850154848487015580851062001ade575b5001920160005260206000209060005b8160051c811062001a8c5750601f198116810362001a31575b50507355555555555555555555555555555555555555556000525060008051602062006d7583398151915260205260008051602062006d158339815191525460ff1615620019bc575b60095468010000000000000000811015620016ee576001810180600955811015620019a657600960005260008051602062006d958339815191520180546001600160a01b0319167355555555555555555555555555555555555555551790556200119562002a76565b601081526f44414d41432050726f7065727469657360801b6020820152620011bc62002a76565b600e81526d524552412d44414d41432d30303160901b6020820152620011e162002a96565b906002825260403660208401376000620011fb8362002aeb565b526001620012098362002af9565b526200121462002ab6565b600081526200122262002a55565b9384526002602085015260fa6040850152600060608501526000608085015260a0840152600160c084015260e08301526200125c62002ab6565b6000815261010083015261012082015273444444444444444444444444444444444444444460005260046020526040600020815191825160018060401b038111620016ee578254600181811c911680156200199b575b6020821014620017d057601f811162001965575b506020601f8211600114620018f85781929394600092620018ec575b50508160011b916000199060031b1c19161782555b602081015160048110156200163557600183019060ff8019835416911617905560408101516002830155606081015160038301556080810151600483015560a081015180519060018060401b038211620016ee57680100000000000000008211620016ee576020906005850154836005870155808410620018c9575b500160058401600052602060002060005b838110620018b4578585620013ae60c08201511515600684019060ff801983541691151516179055565b60e081015180519092906001600160401b038111620016ee576007820154600181811c91168015620018a9575b6020821014620017d057601f811162001870575b506020601f8211600114620017fd5781929394600092620017f1575b50508160011b916000199060031b1c19161760078201555b6101008201518051906001600160401b038211620016ee576008830154600181811c91168015620017e6575b6020821014620017d057601f81116200178b575b50602090601f831160011462001710579180610120949260099460009262001704575b50508160011b916000199060031b1c19161760088201555b0191015180519060018060401b038211620016ee57680100000000000000008211620016ee5760209083548385558084106200169d575b50019160005260206000208160051c9160005b8381106200164b5750601f198116900380620015de575b5050734444444444444444444444444444444444444444600052505060008051602062006d7583398151915260205260008051602062006d358339815191525460ff161562001569575b6040516141b1908162002b2482396080518181816107680152612b030152f35b734444444444444444444444444444444444444444600081815260008051602062006d7583398151915260205260008051602062006d35833981519152805460ff1916600117905533919060008051602062006cf58339815191529060008051602062006cd58339815191529080a462001549565b9260009360005b818110620015fc57505050015580808080620014ff565b9091948551600781101562001635576200162a602091846001949060ff809160031b9316831b921b19161790565b9601929101620015e5565b634e487b7160e01b600052602160045260246000fd5b6000805b6020811062001666575083820155600101620014e8565b959081516007811015620016355762001693602091896001949060ff809160031b9316831b921b19161790565b920196016200164f565b620016cc908560005283600020601f80870160051c82019281881680620016d3575b500160051c019062002b0a565b84620014d5565b60001990818601918254918a0360031b1c16905589620016bf565b634e487b7160e01b600052604160045260246000fd5b01519050868062001486565b906008840160005260206000209160005b601f198516811062001772575092610120949260019260099583601f1981161062001758575b505050811b0160088201556200149e565b015160001960f88460031b161c1916905586808062001747565b9192602060018192868501518155019401920162001721565b620017be90600885016000526020600020601f850160051c81019160208610620017c5575b601f0160051c019062002b0a565b8462001463565b9091508190620017b0565b634e487b7160e01b600052602260045260246000fd5b90607f16906200144f565b0151905084806200140b565b6007830160005260206000209060005b601f1984168110620018575750600193949583601f198116106200183d575b505050811b01600782015562001423565b015160001960f88460031b161c191690558480806200182c565b9091602060018192858a0151815501930191016200180d565b620018a290600784016000526020600020601f840160051c81019160208510620017c557601f0160051c019062002b0a565b84620013ef565b90607f1690620013db565b60019060208451940193818401550162001384565b620018e590600587016000528484600020918201910162002b0a565b8562001373565b015190508480620012e2565b8360005260206000209060005b601f19841681106200194c5750600193949583601f1981161062001932575b505050811b018255620012f7565b015160001960f88460031b161c1916905584808062001924565b9091602060018192858a01518155019301910162001905565b6200199490846000526020600020601f840160051c81019160208510620017c557601f0160051c019062002b0a565b84620012c6565b90607f1690620012b2565b634e487b7160e01b600052603260045260246000fd5b735555555555555555555555555555555555555555600081815260008051602062006d7583398151915260205260008051602062006d15833981519152805460ff1916600117905533919060008051602062006cf58339815191529060008051602062006cd58339815191529080a46200112c565b60009260005b601f1983168303811062001a5557505060051c0155808080620010e3565b909384516007811015620016355762001a82602091846001949060ff809160031b9316831b921b19161790565b9501910162001a37565b6000805b6020811062001aa7575083820155600101620010ca565b949081516007811015620016355762001ad4602091886001949060ff809160031b9316831b921b19161790565b9201950162001a90565b62001b1090848701600052601f84600020918188168062001b17575b500160051c810190601f870160051c0162002b0a565b85620010ba565b6000199081848b0160051c86010191825491890360031b1c1690558962001afa565b01519050858062001066565b906008850160005260206000209160005b601f198516811062001ba557509183916001936101209695601f1981161062001b8b575b505050811b0160088401556200107e565b015160001960f88460031b161c1916905585808062001b7a565b9192602060018192868501518155019401920162001b56565b62001bf090600886016000526020600020601f850160051c81019160208610620017c557601f0160051c019062002b0a565b8462001046565b90607f169062001032565b01519050848062000fee565b6007840160005260206000209060005b601f198416811062001c685750600193949583601f1981161062001c4e575b505050811b01600783015562001006565b015160001960f88460031b161c1916905584808062001c3d565b9091602060018192858a01518155019301910162001c1e565b62001cb390600785016000526020600020601f840160051c81019160208510620017c557601f0160051c019062002b0a565b8462000fd2565b90607f169062000fbe565b60019060208451940193818401550162000f67565b62001cf690600586016000528484600020918201910162002b0a565b8562000f56565b01519050848062000ec5565b8260005260206000209060005b601f198416811062001d5d5750600193949583601f1981161062001d43575b505050811b01815562000eda565b015160001960f88460031b161c1916905584808062001d35565b9091602060018192858a01518155019301910162001d16565b62001da590836000526020600020601f840160051c81019160208510620017c557601f0160051c019062002b0a565b8462000ea9565b90607f169062000e95565b733333333333333333333333333333333333333333600081815260008051602062006d7583398151915260205260008051602062006df5833981519152805460ff1916600117905533919060008051602062006cf58339815191529060008051602062006cd58339815191529080a462000d0e565b60009260005b601f1983168303811062001e5057505060051c015580808062000cc5565b909384516007811015620016355762001e7d602091846001949060ff809160031b9316831b921b19161790565b9501910162001e32565b6000805b6020811062001ea257508382015560010162000cac565b949081516007811015620016355762001ecf602091886001949060ff809160031b9316831b921b19161790565b9201950162001e8b565b62001f0a90848701600052601f84600020918188168062001b1757500160051c810190601f870160051c0162002b0a565b8562000c9c565b01519050858062000c48565b906008850160005260206000209160005b601f198516811062001f7d57509183916001936101209695601f1981161062001f63575b505050811b01600884015562000c60565b015160001960f88460031b161c1916905585808062001f52565b9192602060018192868501518155019401920162001f2e565b62001fc890600886016000526020600020601f850160051c81019160208610620017c557601f0160051c019062002b0a565b8462000c28565b90607f169062000c14565b01519050848062000bd0565b6007840160005260206000209060005b601f1984168110620020405750600193949583601f1981161062002026575b505050811b01600783015562000be8565b015160001960f88460031b161c1916905584808062002015565b9091602060018192858a01518155019301910162001ff6565b6200208b90600785016000526020600020601f840160051c81019160208510620017c557601f0160051c019062002b0a565b8462000bb4565b90607f169062000ba0565b60019060208451940193818401550162000b49565b620020ce90600586016000528484600020918201910162002b0a565b8562000b38565b01519050848062000aa7565b8260005260206000209060005b601f1984168110620021355750600193949583601f198116106200211b575b505050811b01815562000abc565b015160001960f88460031b161c191690558480806200210d565b9091602060018192858a015181550193019101620020ee565b6200217d90836000526020600020601f840160051c81019160208510620017c557601f0160051c019062002b0a565b8462000a8b565b90607f169062000a77565b732222222222222222222222222222222222222222600081815260008051602062006d7583398151915260205260008051602062006db5833981519152805460ff1916600117905533919060008051602062006cf58339815191529060008051602062006cd58339815191529080a4620008f7565b60009260005b601f198316830381106200222857505060051c0155808080620008ae565b909384516007811015620016355762002255602091846001949060ff809160031b9316831b921b19161790565b950191016200220a565b6000805b602081106200227a57508382015560010162000895565b9490815160078110156200163557620022a7602091886001949060ff809160031b9316831b921b19161790565b9201950162002263565b620022e290848701600052601f84600020918188168062001b1757500160051c810190601f870160051c0162002b0a565b8562000885565b01519050858062000831565b906008850160005260206000209160005b601f19851681106200235557509183916001936101209695601f198116106200233b575b505050811b01600884015562000849565b015160001960f88460031b161c191690558580806200232a565b9192602060018192868501518155019401920162002306565b620023a090600886016000526020600020601f850160051c81019160208610620017c557601f0160051c019062002b0a565b8462000811565b90607f1690620007fd565b015190508480620007b9565b6007840160005260206000209060005b601f1984168110620024185750600193949583601f19811610620023fe575b505050811b016007830155620007d1565b015160001960f88460031b161c19169055848080620023ed565b9091602060018192858a015181550193019101620023ce565b6200246390600785016000526020600020601f840160051c81019160208510620017c557601f0160051c019062002b0a565b846200079d565b90607f169062000789565b60019060208451940193818401550162000732565b620024a690600586016000528484600020918201910162002b0a565b8562000721565b01519050848062000690565b8260005260206000209060005b601f19841681106200250d5750600193949583601f19811610620024f3575b505050811b018155620006a5565b015160001960f88460031b161c19169055848080620024e5565b9091602060018192858a015181550193019101620024c6565b6200255590836000526020600020601f840160051c81019160208510620017c557601f0160051c019062002b0a565b8462000674565b90607f169062000660565b731111111111111111111111111111111111111111600081815260008051602062006d7583398151915260205260008051602062006d55833981519152805460ff1916600117905533919060008051602062006cf58339815191529060008051602062006cd58339815191529080a4620004da565b60009260005b601f198316830381106200260057505060051c015580808062000491565b90938451600781101562001635576200262d602091846001949060ff809160031b9316831b921b19161790565b95019101620025e2565b6000805b602081106200265257508382015560010162000478565b94908151600781101562001635576200267f602091886001949060ff809160031b9316831b921b19161790565b920195016200263b565b620026ba90848701600052601f84600020918188168062001b1757500160051c810190601f870160051c0162002b0a565b8562000468565b01519050858062000414565b906008850160005260206000209160005b601f19851681106200272d57509183916001936101209695601f1981161062002713575b505050811b0160088401556200042c565b015160001960f88460031b161c1916905585808062002702565b91926020600181928685015181550194019201620026de565b6200277890600886016000526020600020601f850160051c81019160208610620017c557601f0160051c019062002b0a565b84620003f4565b90607f1690620003e0565b0151905084806200039c565b6007840160005260206000209060005b601f1984168110620027f05750600193949583601f19811610620027d6575b505050811b016007830155620003b4565b015160001960f88460031b161c19169055848080620027c5565b9091602060018192858a015181550193019101620027a6565b6200283b90600785016000526020600020601f840160051c81019160208510620017c557601f0160051c019062002b0a565b8462000380565b90607f16906200036c565b60019060208451940193818401550162000315565b6200287e90600586016000528484600020918201910162002b0a565b3862000304565b01519050388062000272565b8260005260206000209060005b601f1984168110620028e55750600193949583601f19811610620028cb575b505050811b01815562000287565b015160001960f88460031b161c19169055388080620028bd565b9091602060018192858a0151815501930191016200289e565b6200292d90836000526020600020601f840160051c81019160208510620017c557601f0160051c019062002b0a565b3862000256565b90607f169062000242565b8060005260006020526040600020336000526020526040600020600160ff198254161790553390339060008051602062006cd5833981519152600080a43862000119565b33600081815260008051602062006dd583398151915260205260408120805460ff19166001179055819060008051602062006cd58339815191528180a4620000be565b60405162461bcd60e51b815260206004820152601560248201527f496e76616c69642066656520726563697069656e7400000000000000000000006044820152606490fd5b60405162461bcd60e51b815260206004820152601a60248201527f496e76616c696420636c617373696669657220616464726573730000000000006044820152606490fd5b600080fd5b6040519061014082016001600160401b03811183821017620016ee57604052565b60408051919082016001600160401b03811183821017620016ee57604052565b60405190606082016001600160401b03811183821017620016ee57604052565b60405190602082016001600160401b03811183821017620016ee57604052565b51906001600160a01b038216820362002a5057565b805115620019a65760200190565b805160011015620019a65760400190565b81811062002b16575050565b6000815560010162002b0a56fe61018080604052600436101561001457600080fd5b600090813560e01c90816301ffc9a7146139fe5750806307a873b214612f0e5780630ded369b14612b5057806313cd1c35146118385780631c91ecb614612b325780631cd90adc14612aed578063248a9ca314612ac15780632630d318146125a55780632f2ff15d146124ee57806336568abe1461245b5780633a6c363214612395578063469048401461236c57806347e646561461233157806361fd5c201461226157806364900f5f146118ec57806375794a3c146118ce5780637cf00f63146118855780638807379f146118385780638e61c67a146117f45780639103a0e0146117b957806391d148541461176e57806391f83cf1146104e4578063a217fddf146104c8578063ca5c5007146104aa578063ca82a01414610471578063d547741f14610431578063dbd0b271146103da578063f809abab146101815763ff3a3c251461016157600080fd5b3461017e578060031936011261017e576020600854604051908152f35b80fd5b503461017e57602036600319011261017e57600435815260026020526040902080546001600160a01b03919082166101bb60018301613c3a565b6080526101ca60028301613c3a565b60a052600382015492600483015460e0526005830154936006840154916007850154916008860154600987015490600a880161020590613c3a565b93600b8901541694600c890161021a90613c3a565b96600d8a015460ff1660c052600e8a01549a600f8b01549960108c015460ff169b6011810161024890613c3a565b6101005260128101546101605260130161026190613c3a565b610120526040518061014052526102c080610140516020015261014051016080519061028c91613b94565b61014051808203906040015260a051906102a591613b94565b95610140516060015260e05161014051608001526101405160a001526101405160c001526101405160e00152610140516101000152610140516101200160ff8216906102f091613bb9565b8060081c60ff1661030081613bdc565b61014051610140015261014051610160019060101c60ff169061032291613be6565b6101405180820390610180015261033891613b94565b90610140516101a0015261014051808203906101c0015261035891613b94565b92610140516101e00160c0519061036e91613bf3565b61014051610200015261014051610220015215156101405161024001526101405180820390610260015261010051906103a691613b94565b6101605161014051610280015261014051808203906102a00152610140519061012051906103d391613b94565b0361014051f35b503461017e57602036600319011261017e5761042d90610419906005906040906001600160a01b0361040a613a53565b1681526004602052200161412c565b604051918291602083526020830190613ce0565b0390f35b503461017e57604036600319011261017e5761046e600435610451613a6e565b90808452836020526104696001604086200154613d4b565b613ec2565b80f35b503461017e57602036600319011261017e576020906040906001600160a01b03610499613a53565b168152600383522054604051908152f35b503461017e578060031936011261017e576020600a54604051908152f35b503461017e578060031936011261017e57602090604051908152f35b503461017e5761018036600319011261017e576004356001600160401b03811161176a57610516903690600401613b13565b906024356001600160401b03811161176a57610536903690600401613b13565b6006608435101561176a57600760a435101561176a5760c4356001600160401b0381116117665761056b903690600401613b13565b91610144356001600160401b03811161176a5761058c903690600401613b13565b91610164356001600160401b038111611766576105ad903690600401613b13565b3360009081527fcf0e2fee954c1b210b650a2cee16f85c2d817015d3803a8d10b7d7ece2d53212602052604090205490919060ff16156115c6576a0422ca8b0a00a42500000060443510611582576044356064351161152f576107d060e435116114f1578551156114bc57805115611485573383526004602052604083209160ff60068401541615611434576106446084356140b7565b9460405195866101208101106001600160401b036101208901111761140b576101208701604052604435875261067f60a4356020890161401e565b87604088015261068e81613bdc565b6060870152336080870152605a60a087015242610124351160c08701526101243560e0870152600161010087015284604051808098630a2676b360e21b825260206004830152805160248301526106ed60208201516044840190613be6565b61010061070b60408301516101206064860152610144850190613b94565b91606081015161071a81613bdc565b608485015260808101516001600160a01b0390811660a486015260a082015160c486015260c0820151151560e486015260e082015161010486015291015115156101248401529190039082907f0000000000000000000000000000000000000000000000000000000000000000165afa95861561142957859661128b575b508551600281101561127757600103611219576006549660001988146112055760018801600655604080518a610809838360206107de8183019586815193849201613b71565b81018a51906107f4828d60208085019101613b71565b01426020820152036020810185520183613ad7565b60018060a01b0391519020169701519060ff6001870154169061010435620151809080828102048214811517156111f1576108e493929161084b910242613f36565b936040519761085989613aa0565b8b89528d60208a015260408901526064356060890152604435608089015260a088015260643560c08801528860e088015260e435610100880152886101208801526108a5608435613bdc565b6084356101408801526108be60a435610160890161401e565b610180870152336101a08701526108d487613c3a565b6101c08701526101e0860161406f565b426102008501526102208401526001610240840152610260830152610124356102808301526102a08201528483526002602052604083209060018060a01b038151166bffffffffffffffffffffffff60a01b83541617825560208101518051906001600160401b038211610f015781906109616001860154613c00565b601f81116111be575b50602090601f831160011461114f578792611144575b50508160011b916000199060031b1c19161760018301555b60408101518051906001600160401b038211610f015781906109bd6002860154613c00565b601f8111611111575b50602090601f83116001146110a2578792611097575b50508160011b916000199060031b1c19161760028301555b606081015160038301556080810151600483015560a0810151600583015560c0810151600683015560e0810151600783015561010081015160088301556101208101516005811015610f155760098301549061014083015191610a5683613bdc565b610a5f83613bdc565b61016084015160078110156110835761ff0062ff000060ff9260101b169460081b1692169062ffffff191617171760098301556101808101518051906001600160401b038211610f01578190610ab8600a860154613c00565b601f8111611050575b50602090601f8311600114610fe1578792610fd6575b50508160011b916000199060031b1c191617600a8301555b600b820160018060a01b036101a0830151166bffffffffffffffffffffffff60a01b8254161790556101c08101518051906001600160401b038211610f01578190610b3d600c860154613c00565b601f8111610fa3575b50602090601f8311600114610f34578792610f29575b50508160011b916000199060031b1c191617600c8301555b6101e08101516004811015610f1557610b9090600d8401614092565b610200810151600e830155610220810151600f830155610bc66102408201511515601084019060ff801983541691151516179055565b6102608101518051906001600160401b038211610f0157610bea6011850154613c00565b601f8111610ece575b50602090601f8311600114610e5d576102a0939291879183610e52575b50508160011b916000199060031b1c19161760118401555b61028081015160128401550151908151906001600160401b038211610e3e57601382910192610c578454613c00565b601f8111610e03575b50602090601f8311600114610d9f578692610d94575b50508160011b916000199060031b1c19161790555b82825260036020528360408320556003810180549060018201809211610d80575560050180549091600160401b821015610d6c575060018101808355811015610d565783916000526020600020015560075460018101809111610d40577f764dd9ac505ec672337c4f7562125a06d655ee17e39f3c98b7a7730ec3f0467d610d286020958593600755604051918291606083526060830190613b94565b604435888301523360408301520390a3604051908152f35b634e487b7160e01b600052601160045260246000fd5b634e487b7160e01b600052603260045260246000fd5b634e487b7160e01b81526041600452602490fd5b634e487b7160e01b84526011600452602484fd5b015190503880610c76565b848752602087209250601f198416875b818110610deb5750908460019594939210610dd2575b505050811b019055610c8b565b015160001960f88460031b161c19169055388080610dc5565b92936020600181928786015181550195019301610daf565b610e2e9085885260208820601f850160051c81019160208610610e34575b601f0160051c019061407b565b38610c60565b9091508190610e21565b634e487b7160e01b85526041600452602485fd5b015190503880610c10565b906011850187526020872091875b601f1985168110610eb657509183916001936102a09695601f19811610610e9d575b505050811b016011840155610c28565b015160001960f88460031b161c19169055388080610e8d565b91926020600181928685015181550194019201610e6b565b610efb9060118601885260208820601f850160051c81019160208610610e3457601f0160051c019061407b565b38610bf3565b634e487b7160e01b86526041600452602486fd5b634e487b7160e01b85526021600452602485fd5b015190503880610b5c565b9250600c85018752602087209087935b601f1984168510610f88576001945083601f19811610610f6f575b505050811b01600c830155610b74565b015160001960f88460031b161c19169055388080610f5f565b81810151835560209485019460019093019290910190610f44565b610fd090600c8701895260208920601f850160051c81019160208610610e3457601f0160051c019061407b565b38610b46565b015190503880610ad7565b9250600a85018752602087209087935b601f1984168510611035576001945083601f1981161061101c575b505050811b01600a830155610aef565b015160001960f88460031b161c1916905538808061100c565b81810151835560209485019460019093019290910190610ff1565b61107d90600a8701895260208920601f850160051c81019160208610610e3457601f0160051c019061407b565b38610ac1565b634e487b7160e01b88526021600452602488fd5b0151905038806109dc565b9250600285018752602087209087935b601f19841685106110f6576001945083601f198116106110dd575b505050811b0160028301556109f4565b015160001960f88460031b161c191690553880806110cd565b818101518355602094850194600190930192909101906110b2565b61113e9060028701895260208920601f850160051c81019160208610610e3457601f0160051c019061407b565b386109c6565b015190503880610980565b9250600185018752602087209087935b601f19841685106111a3576001945083601f1981161061118a575b505050811b016001830155610998565b015160001960f88460031b161c1916905538808061117a565b8181015183556020948501946001909301929091019061115f565b6111eb9060018701895260208920601f850160051c81019160208610610e3457601f0160051c019061407b565b3861096a565b634e487b7160e01b8a52601160045260248afd5b634e487b7160e01b86526011600452602486fd5b60405162461bcd60e51b815260206004820152603060248201527f50726f70657274792073686f756c6420626520636c617373696669656420617360448201526f040b08aa4825840dcdee840a0a49ea0b60831b6064820152608490fd5b634e487b7160e01b86526021600452602486fd5b9095503d908186823e61129e8282613ad7565b6020818381010312611425578051916001600160401b0383116114215760a0838301828401031261142157604051928360a08101106001600160401b0360a08601111761140b5760a084016040528083015160028110156113c85784528281016020818101519086015260408082015190860152606001516001600160401b0381116113c857828401601f82848701010112156113c8578082850101519061134582613b5a565b916113536040519384613ad7565b808352602083019185870160208360051b83888b0101010111611407576020818689010101925b60208360051b83888b0101010184106113cc5750505050606085015260808184010151916001600160401b0383116113c8576113bc939081019291010161402a565b60808201529438610798565b8880fd5b83516001600160401b03811161140357602080926113f68b838095888d8f8501940101010161402a565b815201940193905061137a565b8d80fd5b8b80fd5b634e487b7160e01b600052604160045260246000fd5b8680fd5b8580fd5b6040513d87823e3d90fd5b60405162461bcd60e51b8152602060048201526024808201527f446576656c6f706572206e6f742072656769737465726564206f7220696e61636044820152637469766560e01b6064820152608490fd5b60405162461bcd60e51b815260206004820152600f60248201526e14de5b589bdb081c995c5d5a5c9959608a1b6044820152606490fd5b60405162461bcd60e51b815260206004820152600d60248201526c13985b59481c995c5d5a5c9959609a1b6044820152606490fd5b60405162461bcd60e51b8152602060048201526016602482015275088d2ecd2c8cadcc840e4c2e8ca40e8dede40d0d2ced60531b6044820152606490fd5b60405162461bcd60e51b815260206004820152602560248201527f5461726765742066756e64696e6720657863656564732070726f70657274792060448201526476616c756560d81b6064820152608490fd5b606460405162461bcd60e51b815260206004820152602060248201527f50726f70657274792076616c756520746f6f206c6f7720666f722050524f50586044820152fd5b6115cf33613f54565b604051907f4504b9dfd7400a1522f49a8b4a100552da9236849581fd59b7363eb48c6a474c6115fd83613abc565b6042835260208301906060368337835115610d5657603082538351600190811015610d5657607860218601536041905b8082116117225750506116de5760486116ab926116ba926116da9560405195869376020b1b1b2b9b9a1b7b73a3937b61d1030b1b1b7bab73a1604d1b6020860152611682815180926020603789019101613b71565b8401917001034b99036b4b9b9b4b733903937b6329607d1b603784015251809386840190613b71565b01036028810184520182613ad7565b60405162461bcd60e51b8152602060048201529182916024830190613b94565b0390fd5b606460405162461bcd60e51b815260206004820152602060248201527f537472696e67733a20686578206c656e67746820696e73756666696369656e746044820152fd5b9091600f81166010811015610d56576f181899199a1a9b1b9c1cb0b131b232b360811b901a6117518488613f43565b5360041c918015610d4057600019019061162d565b8280fd5b5080fd5b503461017e57604036600319011261017e57604061178a613a6e565b91600435815280602052209060018060a01b0316600052602052602060ff604060002054166040519015158152f35b503461017e578060031936011261017e5760206040517f4504b9dfd7400a1522f49a8b4a100552da9236849581fd59b7363eb48c6a474c8152f35b503461017e57602036600319011261017e576004359060095482101561017e57602061181f83613d14565b905460405160039290921b1c6001600160a01b03168152f35b503461017e57602036600319011261017e57600435815260056020908152604091829020805460018201546002830154600390930154855192835293820152928301526060820152608090f35b503461017e57604036600319011261017e57600460406118a3613a6e565b9282358152600560205220019060018060a01b03166000526020526020604060002054604051908152f35b503461017e578060031936011261017e576020600654604051908152f35b503461017e57602036600319011261017e57611906613a53565b606061012060405161191781613a84565b82815284602082015284604082015284838201528460808201528260a08201528460c08201528260e082015282610100820152015260018060a01b031681526004602052604081209060096040519261196f84613a84565b61197881613c3a565b845261198e60ff6001830154166020860161406f565b6002810154604085015260038101546060850152600481015460808501526119b86005820161412c565b60a085015260ff600682015416151560c08501526119d860078201613c3a565b60e08501526119e960088201613c3a565b61010085015260405191018054808352908352602080842091839182019085905b80601f830110611fd857611b20945491818110611fbd575b818110611f9f575b818110611f81575b818110611f63575b818110611f46575b818110611f28575b818110611f0a575b818110611eec575b818110611ece575b818110611eb0575b818110611e92575b818110611e74575b818110611e56575b818110611e38575b818110611e1a575b818110611dfc575b818110611dde575b818110611dc0575b818110611da2575b818110611d84575b818110611d66575b818110611d48575b818110611d2a575b818110611d0c575b818110611cee575b818110611cd0575b818110611cb2575b818110611c94575b818110611c76575b818110611c58575b818110611c3a575b10611c23575b500382613ad7565b61012083015260405191829160208352610120611bd3611bbd611b9a611b54865161014060208a0152610160890190613b94565b611b66602088015160408a0190613bf3565b6040870151606089015260608701516080890152608087015160a089015260a0870151601f198983030160c08a0152613ce0565b60c0860151151560e088015260e0860151601f1988830301610100890152613b94565b610100850151868203601f190184880152613b94565b92015191601f1984820301610140850152602080845192838152019301915b818110611c00575050500390f35b9193509160208082611c156001948851613be6565b019401910191849392611bf2565b90611c338160209360f81c613be6565b0138611b18565b92602081611c5060019360ff8760f01c16613be6565b019301611b12565b92602081611c6e60019360ff8760e81c16613be6565b019301611b0a565b92602081611c8c60019360ff8760e01c16613be6565b019301611b02565b92602081611caa60019360ff8760d81c16613be6565b019301611afa565b92602081611cc860019360ff8760d01c16613be6565b019301611af2565b92602081611ce660019360ff8760c81c16613be6565b019301611aea565b92602081611d0460019360ff8760c01c16613be6565b019301611ae2565b92602081611d2260019360ff8760b81c16613be6565b019301611ada565b92602081611d4060019360ff8760b01c16613be6565b019301611ad2565b92602081611d5e60019360ff8760a81c16613be6565b019301611aca565b92602081611d7c60019360ff8760a01c16613be6565b019301611ac2565b92602081611d9a60019360ff8760981c16613be6565b019301611aba565b92602081611db860019360ff8760901c16613be6565b019301611ab2565b92602081611dd660019360ff8760881c16613be6565b019301611aaa565b92602081611df460019360ff8760801c16613be6565b019301611aa2565b92602081611e1260019360ff8760781c16613be6565b019301611a9a565b92602081611e3060019360ff8760701c16613be6565b019301611a92565b92602081611e4e60019360ff8760681c16613be6565b019301611a8a565b92602081611e6c60019360ff8760601c16613be6565b019301611a82565b92602081611e8a60019360ff8760581c16613be6565b019301611a7a565b92602081611ea860019360ff8760501c16613be6565b019301611a72565b92602081611ec660019360ff8760481c16613be6565b019301611a6a565b92602081611ee460019360ff8760401c16613be6565b019301611a62565b92602081611f0260019360ff8760381c16613be6565b019301611a5a565b92602081611f2060019360ff8760301c16613be6565b019301611a52565b92602081611f3e60019360ff8760281c16613be6565b019301611a4a565b92602081611f5b60019360ff87851c16613be6565b019301611a42565b92602081611f7960019360ff8760181c16613be6565b019301611a3a565b92602081611f9760019360ff8760101c16613be6565b019301611a32565b92602081611fb560019360ff8760081c16613be6565b019301611a2a565b92602081611fd060019360ff8716613be6565b019301611a22565b9160209193506104006001916122538754611ff68360ff8316613be6565b61200886840160ff8360081c16613be6565b61201b6040840160ff8360101c16613be6565b61202e6060840160ff8360181c16613be6565b6120406080840160ff83891c16613be6565b61205360a0840160ff8360281c16613be6565b61206660c0840160ff8360301c16613be6565b61207960e0840160ff8360381c16613be6565b61208d610100840160ff8360401c16613be6565b6120a1610120840160ff8360481c16613be6565b6120b5610140840160ff8360501c16613be6565b6120c9610160840160ff8360581c16613be6565b6120dd610180840160ff8360601c16613be6565b6120f16101a0840160ff8360681c16613be6565b6121056101c0840160ff8360701c16613be6565b6121196101e0840160ff8360781c16613be6565b61212d610200840160ff8360801c16613be6565b612141610220840160ff8360881c16613be6565b612155610240840160ff8360901c16613be6565b612169610260840160ff8360981c16613be6565b61217d610280840160ff8360a01c16613be6565b6121916102a0840160ff8360a81c16613be6565b6121a56102c0840160ff8360b01c16613be6565b6121b96102e0840160ff8360b81c16613be6565b6121cd610300840160ff8360c01c16613be6565b6121e1610320840160ff8360c81c16613be6565b6121f5610340840160ff8360d01c16613be6565b612209610360840160ff8360d81c16613be6565b61221d610380840160ff8360e01c16613be6565b6122316103a0840160ff8360e81c16613be6565b6122456103c0840160ff8360f01c16613be6565b6103e083019060f81c613be6565b019401920184929391611a0a565b503461017e57602036600319011261017e576122f5906040906001600160a01b0361228a613a53565b16815260046020522061042d61229f82613c3a565b9161232360ff6001830154166002830154926003810154600482015460ff600684015416916122dc60086122d560078701613c3a565b9501613c3a565b966123006040519b8c9b8c6101008091528d0190613b94565b9660208c0190613bf3565b60408a015260608901526080880152151560a087015285820360c0870152613b94565b9083820360e0850152613b94565b503461017e578060031936011261017e5760206040517f5aa58c694aeb083df8754bf5e98675317e4137a5a8a2c6188d0228869e43da7e8152f35b503461017e578060031936011261017e57600b546040516001600160a01b039091168152602090f35b503461017e578060031936011261017e5760405180916009549081835260208093018092600983527f6e1540171b6c0c960b71a7020d9f60077f6af931a8bbf590da0223dacf75c7af90835b81811061243e57505050846123f7910385613ad7565b60405193838594850191818652518092526040850193925b82811061241e57505050500390f35b83516001600160a01b03168552869550938101939281019260010161240f565b82546001600160a01b0316845292860192600192830192016123e1565b503461017e57604036600319011261017e57612475613a6e565b336001600160a01b038216036124915761046e90600435613ec2565b60405162461bcd60e51b815260206004820152602f60248201527f416363657373436f6e74726f6c3a2063616e206f6e6c792072656e6f756e636560448201526e103937b632b9903337b91039b2b63360891b6064820152608490fd5b503461017e57604036600319011261017e5760043561250b613a6e565b818352826020526125226001604085200154613d4b565b81600052600060205260406000209060018060a01b0316908160005260205260ff6040600020541615612553578280f35b8160005260006020526040600020816000526020526040600020600160ff1982541617905533917f2f8788117e7eff1d82e926ec794901d17c78024a50270940304540a733656f0d600080a438808280f35b50604036600319011261017e57600260015414612a7c576002600155600435815260026020526040812060ff60108201541615612a4457600981019060ff8254166005811015612881578015908115612a39575b5015612a0357600f81015442116129be576005810154602435106129795760068101908154600782019161262f835480936140aa565b6024351161293b57600b8101546001600160a01b031686526004602052604086206002015460243580820293918115918504141715612927576126869061267c61271085046024356140aa565b5060243590613f36565b83556004358652600560205260408620338752600481016020526040872054156128fd575b338752600481016020526126c56024356040892054613f36565b338852600482016020526040882055600581016020524260408820556969e10de76676d080000060243510156000146128e557600281016127096024358254613f36565b90555b61271f6002820154600383015490613f36565b81549081156128d157046001909101555485906001600160a01b0316803b1561176a5781906044604051809481936340c10f1960e01b835233600484015260243560248401525af180156128c657612895575b506127106127839104600a54613f36565b600a555490541161281e57805460ff198116600217909155604051906127ad90829060ff16613bb9565b600260208201527fa3faacdb08966166ca0be23ed578eb9af9e036f3d6808d0f793695e10c7cf3e1604060043592a25b6040516024358152602435602082015233907ff813449d3ec425cf9e85cfc22bc09f6aacbbd036a3254c904433b76e99c5fadb604060043592a36001805580f35b805460ff81166005811015612881571561283a575b50506127dd565b60019060ff191617905560405160008152600160208201527fa3faacdb08966166ca0be23ed578eb9af9e036f3d6808d0f793695e10c7cf3e1604060043592a23880612833565b634e487b7160e01b84526021600452602484fd5b6001600160401b0381969296116128b25760405293612710612772565b634e487b7160e01b82526041600452602482fd5b6040513d88823e3d90fd5b634e487b7160e01b89526012600452602489fd5b600381016128f66024358254613f36565b905561270c565b80546001810181116129135760010181556126ab565b634e487b7160e01b88526011600452602488fd5b634e487b7160e01b87526011600452602487fd5b60405162461bcd60e51b8152602060048201526016602482015275115e18d959591cc8199d5b991a5b99c81d185c99d95d60521b6044820152606490fd5b60405162461bcd60e51b815260206004820152601860248201527f42656c6f77206d696e696d756d20696e766573746d656e7400000000000000006044820152606490fd5b60405162461bcd60e51b815260206004820152601760248201527f46756e64696e6720646561646c696e65207061737365640000000000000000006044820152606490fd5b60405162461bcd60e51b815260206004820152600e60248201526d119d5b991a5b99c818db1bdcd95960921b6044820152606490fd5b6001915014386125f9565b60405162461bcd60e51b815260206004820152601060248201526f546f6b656e206e6f742061637469766560801b6044820152606490fd5b60405162461bcd60e51b815260206004820152601f60248201527f5265656e7472616e637947756172643a207265656e7472616e742063616c6c006044820152606490fd5b503461017e57602036600319011261017e57600160406020926004358152808452200154604051908152f35b503461017e578060031936011261017e576040517f00000000000000000000000000000000000000000000000000000000000000006001600160a01b03168152602090f35b503461017e578060031936011261017e576020600754604051908152f35b503461017e57602036600319011261017e5760606102a0604051612b7381613aa0565b83815282602082015282604082015283838201528360808201528360a08201528360c08201528360e08201528361010082015283610120820152836101408201528361016082015282610180820152836101a0820152826101c0820152836101e08201528361020082015283610220820152836102408201528261026082015283610280820152015260043581526002602052604081209060405190612c1882613aa0565b82546001600160a01b03168252612c3160018401613c3a565b6020830152612c4260028401613c3a565b60408301526003830154606083015260048301546080830152600583015460a0830152600683015460c0830152600783015460e08301526008830154610100830152600983015490600560ff83161015612efa5750601361042d93612cd260ff8481612d689616610120880152818160081c16612cbe81613bdc565b61014088015260101c16610160860161401e565b612cde600a8201613c3a565b610180850152600b8101546001600160a01b03166101a0850152612d04600c8201613c3a565b6101c0850152612d1f60ff600d830154166101e0860161406f565b600e810154610200850152600f81015461022085015260ff6010820154161515610240850152612d5160118201613c3a565b610260850152601281015461028085015201613c3a565b6102a08201526040519182916020835260018060a01b0381511660208401526102a0612edb612e89612e5b612dc7612db160208701516102c060408b01526102e08a0190613b94565b6040870151898203601f190160608b0152613b94565b60608601516080890152608086015160a089015260a086015160c089015260c086015160e089015260e0860151610100890152610100860151610120890152612e1a6101208701516101408a0190613bb9565b610140860151612e2981613bdc565b610160890152612e436101608701516101808a0190613be6565b610180860151888203601f19016101a08a0152613b94565b6101a08501516001600160a01b03166101c088810191909152850151878203601f19016101e0890152613b94565b612e9d6101e0850151610200880190613bf3565b6102008401516102208701526102208401516102408701526102408401511515610260870152610260840151601f1987830301610280880152613b94565b61028083015185830152910151838203601f19016102c0850152613b94565b634e487b7160e01b81526021600452602490fd5b503461017e5760c036600319011261017e57612f28613a53565b6024356001600160401b03811161176657612f47903690600401613b13565b60046044351015611766576064356001600160401b0381116139fa57612f71903690600401613b13565b6084356001600160401b0381116139f657612f90903690600401613b13565b9060a4356001600160401b0381116114255736602382011215611425578060040135612fbb81613b5a565b91612fc96040519384613ad7565b8183526024602084019260051b820101903682116113c857602401915b8183106139d957505050858052856020526040862033875260205260ff604087205416156138b7576001600160a01b03851615613872576001600160a01b03851686526004602052604086206006015460ff1661382d57859260443560010361380f576096925b6040518060208101106001600160401b036020830111176137fb57602081016040528881526040519461307f86613a84565b8786526130916044356020880161406f565b604086015288606086015288608086015260a0850152600160c085015260e084015261010083015261012082015260018060a01b03841685526004602052604085209080518051906001600160401b0382116136515781906130f38554613c00565b601f81116137cb575b50602090601f8311600114613762578992613757575b50508160011b916000199060031b1c19161782555b60208101516004811015613743576131429060018401614092565b60408101516002830155606081015160038301556080810151600483015560a08101518051906001600160401b03821161365157600160401b8211613651576020906005850154836005870155808410613726575b500160058401885260208820885b83811061371257505050506131cf60c08201511515600684019060ff801983541691151516179055565b60e08101518051906001600160401b0382116136515781906131f46007860154613c00565b601f81116136df575b50602090601f8311600114613670578992613665575b50508160011b916000199060031b1c19161760078301555b6101008101518051906001600160401b0382116136515761324f6008850154613c00565b601f811161361e575b50602090601f83116001146135ad576101209392918991836135a2575b50508160011b916000199060031b1c19161760088401555b01518051906001600160401b03821161358e57600160401b821161358e57602060099182850154848487015580851061353a575b5001920186526020862090865b8160051c81106134ed5750601f19811692838203613483575b505050507f4504b9dfd7400a1522f49a8b4a100552da9236849581fd59b7363eb48c6a474c808552846020526040852060018060a01b038516865260205260ff6040862054161561342e575b5061341a5760016044351461339c575b61337c7f0bfef8d1a17ebc1779569b60c7c349b6ba106d24a1d47d14e5c5f962007f5a3791604051918291604083526040830190613b94565b9361338c60208301604435613bf3565b6001600160a01b0316930390a280f35b600954600160401b811015613406577f0bfef8d1a17ebc1779569b60c7c349b6ba106d24a1d47d14e5c5f962007f5a37916133e082600161337c9401600955613d14565b81546001600160a01b0387811660039390931b92831b921b191617905591506133439050565b634e487b7160e01b84526041600452602484fd5b634e487b7160e01b83526021600452602483fd5b808552602085815260408087206001600160a01b03871680895292528620805460ff1916600117905533917f2f8788117e7eff1d82e926ec794901d17c78024a50270940304540a733656f0d8780a438613333565b879388905b80840382106134a25750505060051c0155388080806132e7565b90919485519060078210156134d9576134cf600192856020939060ff809160031b9316831b921b19161790565b9601920190613488565b634e487b7160e01b8b52602160045260248bfd5b87885b602081106135055750838201556001016132ce565b949081519060078210156134d957613531600192886020939060ff809160031b9316831b921b19161790565b920195016134f0565b613567908487018b52601f848c20918188168061356d575b500160051c810190601f870160051c0161407b565b386132c1565b6000199081848b0160051c86010191825491890360031b1c16905538613552565b634e487b7160e01b87526041600452602487fd5b015190503880613275565b906008850189526020892091895b601f198516811061360657509183916001936101209695601f198116106135ed575b505050811b01600884015561328d565b015160001960f88460031b161c191690553880806135dd565b919260206001819286850151815501940192016135bb565b61364b90600886018a5260208a20601f850160051c81019160208610610e3457601f0160051c019061407b565b38613258565b634e487b7160e01b88526041600452602488fd5b015190503880613213565b9250600785018952602089209089935b601f19841685106136c4576001945083601f198116106136ab575b505050811b01600783015561322b565b015160001960f88460031b161c1916905538808061369b565b81810151835560209485019460019093019290910190613680565b61370c90600787018b5260208b20601f850160051c81019160208610610e3457601f0160051c019061407b565b386131fd565b6001906020845194019381840155016131a5565b600586018a52828a2061373d91810190850161407b565b38613197565b634e487b7160e01b87526021600452602487fd5b015190503880613112565b9250848952602089209089935b601f19841685106137b0576001945083601f19811610613797575b505050811b018255613127565b015160001960f88460031b161c1916905538808061378a565b8181015183556020948501946001909301929091019061376f565b6137f590868b5260208b20601f850160051c81019160208610610e3457601f0160051c019061407b565b386130fc565b634e487b7160e01b89526041600452602489fd5b8693506044356002036138245760fa9261304d565b61015e9261304d565b60405162461bcd60e51b815260206004820152601c60248201527f446576656c6f70657220616c72656164792072656769737465726564000000006044820152606490fd5b60405162461bcd60e51b815260206004820152601960248201527f496e76616c696420646576656c6f7065722061646472657373000000000000006044820152606490fd5b856138c133613f54565b81604051926138cf84613abc565b60428452602084019160603684378451156139c557603083538451906001918210156139c55790607860218701536041915b818311613957575050506116de5760486116ab926116ba926116da9560405195869376020b1b1b2b9b9a1b7b73a3937b61d1030b1b1b7bab73a1604d1b6020860152611682815180926020603789019101613b71565b909192600f811660108110156139b1576f181899199a1a9b1b9c1cb0b131b232b360811b901a6139878589613f43565b5360041c92801561399d57600019019190613901565b634e487b7160e01b82526011600452602482fd5b634e487b7160e01b83526032600452602483fd5b634e487b7160e01b81526032600452602490fd5b823560078110156139f257815260209283019201612fe6565b8980fd5b8480fd5b8380fd5b90503461176a57602036600319011261176a5760043563ffffffff60e01b81168091036117665760209250637965db0b60e01b8114908115613a42575b5015158152f35b6301ffc9a760e01b14905038613a3b565b600435906001600160a01b0382168203613a6957565b600080fd5b602435906001600160a01b0382168203613a6957565b61014081019081106001600160401b0382111761140b57604052565b6102c081019081106001600160401b0382111761140b57604052565b608081019081106001600160401b0382111761140b57604052565b90601f801991011681019081106001600160401b0382111761140b57604052565b6001600160401b03811161140b57601f01601f191660200190565b81601f82011215613a6957803590613b2a82613af8565b92613b386040519485613ad7565b82845260208383010111613a6957816000926020809301838601378301015290565b6001600160401b03811161140b5760051b60200190565b60005b838110613b845750506000910152565b8181015183820152602001613b74565b90602091613bad81518092818552858086019101613b71565b601f01601f1916010190565b906005821015613bc65752565b634e487b7160e01b600052602160045260246000fd5b60061115613bc657565b906007821015613bc65752565b906004821015613bc65752565b90600182811c92168015613c30575b6020831014613c1a57565b634e487b7160e01b600052602260045260246000fd5b91607f1691613c0f565b9060405191826000825492613c4e84613c00565b908184526001948581169081600014613cbd5750600114613c7a575b5050613c7892500383613ad7565b565b9093915060005260209081600020936000915b818310613ca5575050613c7893508201013880613c6a565b85548884018501529485019487945091830191613c8d565b915050613c7894506020925060ff191682840152151560051b8201013880613c6a565b90815180825260208080930193019160005b828110613d00575050505090565b835185529381019392810192600101613cf2565b600954811015610d565760096000527f6e1540171b6c0c960b71a7020d9f60077f6af931a8bbf590da0223dacf75c7af0190600090565b600090808252602090828252604092838120338252835260ff848220541615613d745750505050565b613d7d33613f54565b91845190613d8a82613abc565b604282528482019260603685378251156139c557603084538251906001918210156139c55790607860218501536041915b818311613e7c57505050613e3a5760486116da938693613e1e93613e0f985198899376020b1b1b2b9b9a1b7b73a3937b61d1030b1b1b7bab73a1604d1b8a860152611682815180928c603789019101613b71565b01036028810187520185613ad7565b5192839262461bcd60e51b845260048401526024830190613b94565b60648486519062461bcd60e51b825280600483015260248201527f537472696e67733a20686578206c656e67746820696e73756666696369656e746044820152fd5b909192600f811660108110156139b1576f181899199a1a9b1b9c1cb0b131b232b360811b901a613eac8587613f43565b5360041c92801561399d57600019019190613dbb565b9060009180835282602052604083209160018060a01b03169182845260205260ff604084205416613ef257505050565b80835282602052604083208284526020526040832060ff1981541690557ff6391f5c32d9c69d2a47ea670b442974b53935d1edc7fd64eb21e047a839171b339380a4565b91908201809211610d4057565b908151811015610d56570160200190565b60405190606082018281106001600160401b0382111761140b57604052602a8252602082016040368237825115610d5657603090538151600190811015610d5657607860218401536029905b808211613fb05750506116de5790565b9091600f81166010811015614009576f181899199a1a9b1b9c1cb0b131b232b360811b901a613fdf8486613f43565b5360041c918015613ff4576000190190613fa0565b60246000634e487b7160e01b81526011600452fd5b60246000634e487b7160e01b81526032600452fd5b6007821015613bc65752565b81601f82011215613a6957805161404081613af8565b9261404e6040519485613ad7565b81845260208284010111613a695761406c9160208085019101613b71565b90565b6004821015613bc65752565b818110614086575050565b6000815560010161407b565b906004811015613bc65760ff80198354169116179055565b91908203918211610d4057565b6140c081613bdc565b8015614126576140cf81613bdc565b60018114614120576140e081613bdc565b6002811461411a576140f181613bdc565b600481146141145780614105600592613bdc565b1461410f57600090565b600590565b50600490565b50600290565b50600190565b50600090565b9060405191828154918282526020928383019160005283600020936000905b82821061416157505050613c7892500383613ad7565b85548452600195860195889550938101939091019061414b56fea2646970667358221220d31885570b9081077723865daee88c5cd611253402ceca4b03ed980de28c174b64736f6c634300081300332f8788117e7eff1d82e926ec794901d17c78024a50270940304540a733656f0d4504b9dfd7400a1522f49a8b4a100552da9236849581fd59b7363eb48c6a474c7738825a24d04bf35d2bf59a7e19fd6796a6e8017df89dec56a0568b864b4eeb4af78d333037e18e965353f2516dee481cb202b72068f1ca46ca3e75ce284ce8a34554088ad6867f2dfc9fa603bc5552a424e336b5b832d60c824b89d2afe69fcf0e2fee954c1b210b650a2cee16f85c2d817015d3803a8d10b7d7ece2d532126e1540171b6c0c960b71a7020d9f60077f6af931a8bbf590da0223dacf75c7af544c608c6ac15425a4787a3a4ad17209edca66df58b85c636a41715610469845ad3228b676f7d3cd4284a5443f17f1962b36e491b30a40b2405849e597ba5fb559830c25d35125d78709397515616a8b1eac46590a36db81e8f45a66626c8d99","opcodes":"PUSH1 0xA0 CALLVALUE PUSH3 0x2A50 JUMPI PUSH1 0x1F PUSH3 0x6E15 CODESIZE DUP2 SWAP1 SUB SWAP2 DUP3 ADD PUSH1 0x1F NOT AND DUP4 ADD SWAP2 PUSH1 0x1 PUSH1 0x1 PUSH1 0x40 SHL SUB DUP4 GT DUP5 DUP5 LT OR PUSH3 0x16EE JUMPI DUP1 DUP5 SWAP3 PUSH1 0x40 SWAP5 DUP6 MSTORE DUP4 CODECOPY DUP2 ADD SUB SLT PUSH3 0x2A50 JUMPI PUSH3 0x5A PUSH1 0x20 PUSH3 0x52 DUP4 PUSH3 0x2AD6 JUMP JUMPDEST SWAP3 ADD PUSH3 0x2AD6 JUMP JUMPDEST PUSH1 0x1 DUP1 DUP1 SSTORE PUSH1 0x6 SSTORE PUSH1 0x1 PUSH1 0x1 PUSH1 0xA0 SHL SUB SWAP2 DUP3 AND SWAP2 SWAP1 DUP3 ISZERO PUSH3 0x2A0B JUMPI AND SWAP1 DUP2 ISZERO PUSH3 0x29C6 JUMPI PUSH1 0x80 MSTORE PUSH1 0xB DUP1 SLOAD PUSH1 0x1 PUSH1 0x1 PUSH1 0xA0 SHL SUB NOT AND SWAP2 SWAP1 SWAP2 OR SWAP1 SSTORE CALLER PUSH1 0x0 SWAP1 DUP2 MSTORE PUSH1 0x0 DUP1 MLOAD PUSH1 0x20 PUSH3 0x6DD5 DUP4 CODECOPY DUP2 MLOAD SWAP2 MSTORE PUSH1 0x20 MSTORE PUSH1 0x40 SWAP1 KECCAK256 SLOAD PUSH1 0xFF AND ISZERO PUSH3 0x2983 JUMPI JUMPDEST CALLER PUSH1 0x0 SWAP1 DUP2 MSTORE PUSH32 0x3A814D6EAC3306BF154F1D02BC4F57BB4F0390C16247E6C5AFA43A262F9BF195 PUSH1 0x20 MSTORE PUSH1 0x40 SWAP1 KECCAK256 SLOAD PUSH32 0x5AA58C694AEB083DF8754BF5E98675317E4137A5A8A2C6188D0228869E43DA7E SWAP1 PUSH1 0xFF AND ISZERO PUSH3 0x293F JUMPI JUMPDEST POP PUSH3 0x124 PUSH3 0x2A76 JUMP JUMPDEST PUSH1 0x10 DUP2 MSTORE PUSH16 0x454D4141522050726F70657274696573 PUSH1 0x80 SHL PUSH1 0x20 DUP3 ADD MSTORE PUSH3 0x14B PUSH3 0x2A76 JUMP JUMPDEST PUSH1 0xE DUP2 MSTORE PUSH14 0x524552412D454D4141522D303031 PUSH1 0x90 SHL PUSH1 0x20 DUP3 ADD MSTORE PUSH3 0x170 PUSH3 0x2A96 JUMP JUMPDEST SWAP1 PUSH1 0x2 DUP3 MSTORE PUSH1 0x40 CALLDATASIZE PUSH1 0x20 DUP5 ADD CALLDATACOPY PUSH1 0x0 PUSH3 0x18A DUP4 PUSH3 0x2AEB JUMP JUMPDEST MSTORE PUSH1 0x1 PUSH3 0x198 DUP4 PUSH3 0x2AF9 JUMP JUMPDEST MSTORE PUSH3 0x1A3 PUSH3 0x2AB6 JUMP JUMPDEST PUSH1 0x0 DUP2 MSTORE PUSH3 0x1B1 PUSH3 0x2A55 JUMP JUMPDEST SWAP4 DUP5 MSTORE PUSH1 0x1 PUSH1 0x20 DUP6 ADD MSTORE PUSH1 0x96 PUSH1 0x40 DUP6 ADD MSTORE PUSH1 0x0 PUSH1 0x60 DUP6 ADD MSTORE PUSH1 0x0 PUSH1 0x80 DUP6 ADD MSTORE PUSH1 0xA0 DUP5 ADD MSTORE PUSH1 0x1 PUSH1 0xC0 DUP5 ADD MSTORE PUSH1 0xE0 DUP4 ADD MSTORE PUSH3 0x1EB PUSH3 0x2AB6 JUMP JUMPDEST PUSH1 0x0 DUP2 MSTORE PUSH2 0x100 DUP4 ADD MSTORE PUSH2 0x120 DUP3 ADD MSTORE PUSH20 0x1111111111111111111111111111111111111111 PUSH1 0x0 MSTORE PUSH1 0x4 PUSH1 0x20 MSTORE PUSH1 0x40 PUSH1 0x0 KECCAK256 SWAP1 DUP1 MLOAD SWAP2 DUP3 MLOAD PUSH1 0x1 DUP1 PUSH1 0x40 SHL SUB DUP2 GT PUSH3 0x16EE JUMPI DUP2 SLOAD PUSH1 0x1 DUP2 DUP2 SHR SWAP2 AND DUP1 ISZERO PUSH3 0x2934 JUMPI JUMPDEST PUSH1 0x20 DUP3 LT EQ PUSH3 0x17D0 JUMPI PUSH1 0x1F DUP2 GT PUSH3 0x28FE JUMPI JUMPDEST POP PUSH1 0x20 PUSH1 0x1F DUP3 GT PUSH1 0x1 EQ PUSH3 0x2891 JUMPI DUP2 SWAP3 SWAP4 SWAP5 PUSH1 0x0 SWAP3 PUSH3 0x2885 JUMPI JUMPDEST POP POP DUP2 PUSH1 0x1 SHL SWAP2 PUSH1 0x0 NOT SWAP1 PUSH1 0x3 SHL SHR NOT AND OR DUP2 SSTORE JUMPDEST PUSH1 0x20 DUP3 ADD MLOAD PUSH1 0x4 DUP2 LT ISZERO PUSH3 0x1635 JUMPI PUSH1 0xFF DUP1 NOT PUSH1 0x1 DUP5 ADD SLOAD AND SWAP2 AND OR PUSH1 0x1 DUP3 ADD SSTORE PUSH1 0x40 DUP3 ADD MLOAD PUSH1 0x2 DUP3 ADD SSTORE PUSH1 0x60 DUP3 ADD MLOAD PUSH1 0x3 DUP3 ADD SSTORE PUSH1 0x80 DUP3 ADD MLOAD PUSH1 0x4 DUP3 ADD SSTORE PUSH1 0xA0 DUP3 ADD MLOAD DUP1 MLOAD SWAP1 PUSH1 0x1 DUP1 PUSH1 0x40 SHL SUB DUP3 GT PUSH3 0x16EE JUMPI PUSH9 0x10000000000000000 DUP3 GT PUSH3 0x16EE JUMPI PUSH1 0x20 SWAP1 PUSH1 0x5 DUP5 ADD SLOAD DUP4 PUSH1 0x5 DUP7 ADD SSTORE DUP1 DUP5 LT PUSH3 0x2862 JUMPI JUMPDEST POP ADD PUSH1 0x5 DUP4 ADD PUSH1 0x0 MSTORE PUSH1 0x20 PUSH1 0x0 KECCAK256 PUSH1 0x0 JUMPDEST DUP4 DUP2 LT PUSH3 0x284D JUMPI DUP6 DUP6 PUSH3 0x33F PUSH1 0xC0 DUP4 ADD MLOAD ISZERO ISZERO PUSH1 0x6 DUP4 ADD SWAP1 PUSH1 0xFF DUP1 NOT DUP4 SLOAD AND SWAP2 ISZERO ISZERO AND OR SWAP1 SSTORE JUMP JUMPDEST PUSH1 0xE0 DUP3 ADD MLOAD DUP1 MLOAD SWAP1 SWAP3 SWAP1 PUSH1 0x1 PUSH1 0x1 PUSH1 0x40 SHL SUB DUP2 GT PUSH3 0x16EE JUMPI PUSH1 0x7 DUP4 ADD SLOAD PUSH1 0x1 DUP2 DUP2 SHR SWAP2 AND DUP1 ISZERO PUSH3 0x2842 JUMPI JUMPDEST PUSH1 0x20 DUP3 LT EQ PUSH3 0x17D0 JUMPI PUSH1 0x1F DUP2 GT PUSH3 0x2809 JUMPI JUMPDEST POP PUSH1 0x20 PUSH1 0x1F DUP3 GT PUSH1 0x1 EQ PUSH3 0x2796 JUMPI DUP2 SWAP3 SWAP4 SWAP5 PUSH1 0x0 SWAP3 PUSH3 0x278A JUMPI JUMPDEST POP POP DUP2 PUSH1 0x1 SHL SWAP2 PUSH1 0x0 NOT SWAP1 PUSH1 0x3 SHL SHR NOT AND OR PUSH1 0x7 DUP4 ADD SSTORE JUMPDEST PUSH2 0x100 DUP2 ADD MLOAD DUP1 MLOAD SWAP1 PUSH1 0x1 PUSH1 0x1 PUSH1 0x40 SHL SUB DUP3 GT PUSH3 0x16EE JUMPI PUSH1 0x8 DUP5 ADD SLOAD PUSH1 0x1 DUP2 DUP2 SHR SWAP2 AND DUP1 ISZERO PUSH3 0x277F JUMPI JUMPDEST PUSH1 0x20 DUP3 LT EQ PUSH3 0x17D0 JUMPI PUSH1 0x1F DUP2 GT PUSH3 0x2746 JUMPI JUMPDEST POP PUSH1 0x20 SWAP1 PUSH1 0x1F DUP4 GT PUSH1 0x1 EQ PUSH3 0x26CD JUMPI PUSH2 0x120 SWAP4 SWAP3 SWAP2 PUSH1 0x0 SWAP2 DUP4 PUSH3 0x26C1 JUMPI JUMPDEST POP POP DUP2 PUSH1 0x1 SHL SWAP2 PUSH1 0x0 NOT SWAP1 PUSH1 0x3 SHL SHR NOT AND OR PUSH1 0x8 DUP5 ADD SSTORE JUMPDEST ADD MLOAD DUP1 MLOAD SWAP1 PUSH1 0x1 PUSH1 0x1 PUSH1 0x40 SHL SUB DUP3 GT PUSH3 0x16EE JUMPI PUSH9 0x10000000000000000 DUP3 GT PUSH3 0x16EE JUMPI PUSH1 0x20 PUSH1 0x9 SWAP2 DUP3 DUP6 ADD SLOAD DUP5 DUP5 DUP8 ADD SSTORE DUP1 DUP6 LT PUSH3 0x2689 JUMPI JUMPDEST POP ADD SWAP3 ADD PUSH1 0x0 MSTORE PUSH1 0x20 PUSH1 0x0 KECCAK256 SWAP1 PUSH1 0x0 JUMPDEST DUP2 PUSH1 0x5 SHR DUP2 LT PUSH3 0x2637 JUMPI POP PUSH1 0x1F NOT DUP2 AND DUP2 SUB PUSH3 0x25DC JUMPI JUMPDEST POP POP PUSH20 0x1111111111111111111111111111111111111111 PUSH1 0x0 MSTORE POP PUSH1 0x0 DUP1 MLOAD PUSH1 0x20 PUSH3 0x6D75 DUP4 CODECOPY DUP2 MLOAD SWAP2 MSTORE PUSH1 0x20 MSTORE PUSH1 0x0 DUP1 MLOAD PUSH1 0x20 PUSH3 0x6D55 DUP4 CODECOPY DUP2 MLOAD SWAP2 MSTORE SLOAD PUSH1 0xFF AND ISZERO PUSH3 0x2567 JUMPI JUMPDEST PUSH1 0x9 SLOAD PUSH9 0x10000000000000000 DUP2 LT ISZERO PUSH3 0x16EE JUMPI PUSH1 0x1 DUP2 ADD DUP1 PUSH1 0x9 SSTORE DUP2 LT ISZERO PUSH3 0x19A6 JUMPI PUSH1 0x9 PUSH1 0x0 MSTORE PUSH1 0x0 DUP1 MLOAD PUSH1 0x20 PUSH3 0x6D95 DUP4 CODECOPY DUP2 MLOAD SWAP2 MSTORE ADD DUP1 SLOAD PUSH1 0x1 PUSH1 0x1 PUSH1 0xA0 SHL SUB NOT AND PUSH20 0x1111111111111111111111111111111111111111 OR SWAP1 SSTORE PUSH3 0x543 PUSH3 0x2A76 JUMP JUMPDEST PUSH1 0xE DUP2 MSTORE PUSH14 0x4D455241415320486F6C64696E67 PUSH1 0x90 SHL PUSH1 0x20 DUP3 ADD MSTORE PUSH3 0x568 PUSH3 0x2A76 JUMP JUMPDEST PUSH1 0xF DUP2 MSTORE PUSH15 0x524552412D4D45524141532D303031 PUSH1 0x88 SHL PUSH1 0x20 DUP3 ADD MSTORE PUSH3 0x58E PUSH3 0x2A96 JUMP JUMPDEST SWAP1 PUSH1 0x2 DUP3 MSTORE PUSH1 0x40 CALLDATASIZE PUSH1 0x20 DUP5 ADD CALLDATACOPY PUSH1 0x0 PUSH3 0x5A8 DUP4 PUSH3 0x2AEB JUMP JUMPDEST MSTORE PUSH1 0x1 PUSH3 0x5B6 DUP4 PUSH3 0x2AF9 JUMP JUMPDEST MSTORE PUSH3 0x5C1 PUSH3 0x2AB6 JUMP JUMPDEST PUSH1 0x0 DUP2 MSTORE PUSH3 0x5CF PUSH3 0x2A55 JUMP JUMPDEST SWAP4 DUP5 MSTORE PUSH1 0x1 PUSH1 0x20 DUP6 ADD MSTORE PUSH1 0x96 PUSH1 0x40 DUP6 ADD MSTORE PUSH1 0x0 PUSH1 0x60 DUP6 ADD MSTORE PUSH1 0x0 PUSH1 0x80 DUP6 ADD MSTORE PUSH1 0xA0 DUP5 ADD MSTORE PUSH1 0x1 PUSH1 0xC0 DUP5 ADD MSTORE PUSH1 0xE0 DUP4 ADD MSTORE PUSH3 0x609 PUSH3 0x2AB6 JUMP JUMPDEST PUSH1 0x0 DUP2 MSTORE PUSH2 0x100 DUP4 ADD MSTORE PUSH2 0x120 DUP3 ADD MSTORE PUSH20 0x2222222222222222222222222222222222222222 PUSH1 0x0 MSTORE PUSH1 0x4 PUSH1 0x20 MSTORE PUSH1 0x40 PUSH1 0x0 KECCAK256 SWAP1 DUP1 MLOAD SWAP2 DUP3 MLOAD PUSH1 0x1 DUP1 PUSH1 0x40 SHL SUB DUP2 GT PUSH3 0x16EE JUMPI DUP2 SLOAD PUSH1 0x1 DUP2 DUP2 SHR SWAP2 AND DUP1 ISZERO PUSH3 0x255C JUMPI JUMPDEST PUSH1 0x20 DUP3 LT EQ PUSH3 0x17D0 JUMPI PUSH1 0x1F DUP2 GT PUSH3 0x2526 JUMPI JUMPDEST POP PUSH1 0x20 PUSH1 0x1F DUP3 GT PUSH1 0x1 EQ PUSH3 0x24B9 JUMPI DUP2 SWAP3 SWAP4 SWAP5 PUSH1 0x0 SWAP3 PUSH3 0x24AD JUMPI JUMPDEST POP POP DUP2 PUSH1 0x1 SHL SWAP2 PUSH1 0x0 NOT SWAP1 PUSH1 0x3 SHL SHR NOT AND OR DUP2 SSTORE JUMPDEST PUSH1 0x20 DUP3 ADD MLOAD PUSH1 0x4 DUP2 LT ISZERO PUSH3 0x1635 JUMPI PUSH1 0x1 DUP3 ADD SWAP1 PUSH1 0xFF DUP1 NOT DUP4 SLOAD AND SWAP2 AND OR SWAP1 SSTORE PUSH1 0x40 DUP3 ADD MLOAD PUSH1 0x2 DUP3 ADD SSTORE PUSH1 0x60 DUP3 ADD MLOAD PUSH1 0x3 DUP3 ADD SSTORE PUSH1 0x80 DUP3 ADD MLOAD PUSH1 0x4 DUP3 ADD SSTORE PUSH1 0xA0 DUP3 ADD MLOAD DUP1 MLOAD SWAP1 PUSH1 0x1 DUP1 PUSH1 0x40 SHL SUB DUP3 GT PUSH3 0x16EE JUMPI PUSH9 0x10000000000000000 DUP3 GT PUSH3 0x16EE JUMPI PUSH1 0x20 SWAP1 PUSH1 0x5 DUP5 ADD SLOAD DUP4 PUSH1 0x5 DUP7 ADD SSTORE DUP1 DUP5 LT PUSH3 0x248A JUMPI JUMPDEST POP ADD PUSH1 0x5 DUP4 ADD PUSH1 0x0 MSTORE PUSH1 0x20 PUSH1 0x0 KECCAK256 PUSH1 0x0 JUMPDEST DUP4 DUP2 LT PUSH3 0x2475 JUMPI DUP6 DUP6 PUSH3 0x75C PUSH1 0xC0 DUP4 ADD MLOAD ISZERO ISZERO PUSH1 0x6 DUP4 ADD SWAP1 PUSH1 0xFF DUP1 NOT DUP4 SLOAD AND SWAP2 ISZERO ISZERO AND OR SWAP1 SSTORE JUMP JUMPDEST PUSH1 0xE0 DUP3 ADD MLOAD DUP1 MLOAD SWAP1 SWAP3 SWAP1 PUSH1 0x1 PUSH1 0x1 PUSH1 0x40 SHL SUB DUP2 GT PUSH3 0x16EE JUMPI PUSH1 0x7 DUP4 ADD SLOAD PUSH1 0x1 DUP2 DUP2 SHR SWAP2 AND DUP1 ISZERO PUSH3 0x246A JUMPI JUMPDEST PUSH1 0x20 DUP3 LT EQ PUSH3 0x17D0 JUMPI PUSH1 0x1F DUP2 GT PUSH3 0x2431 JUMPI JUMPDEST POP PUSH1 0x20 PUSH1 0x1F DUP3 GT PUSH1 0x1 EQ PUSH3 0x23BE JUMPI DUP2 SWAP3 SWAP4 SWAP5 PUSH1 0x0 SWAP3 PUSH3 0x23B2 JUMPI JUMPDEST POP POP DUP2 PUSH1 0x1 SHL SWAP2 PUSH1 0x0 NOT SWAP1 PUSH1 0x3 SHL SHR NOT AND OR PUSH1 0x7 DUP4 ADD SSTORE JUMPDEST PUSH2 0x100 DUP2 ADD MLOAD DUP1 MLOAD SWAP1 PUSH1 0x1 PUSH1 0x1 PUSH1 0x40 SHL SUB DUP3 GT PUSH3 0x16EE JUMPI PUSH1 0x8 DUP5 ADD SLOAD PUSH1 0x1 DUP2 DUP2 SHR SWAP2 AND DUP1 ISZERO PUSH3 0x23A7 JUMPI JUMPDEST PUSH1 0x20 DUP3 LT EQ PUSH3 0x17D0 JUMPI PUSH1 0x1F DUP2 GT PUSH3 0x236E JUMPI JUMPDEST POP PUSH1 0x20 SWAP1 PUSH1 0x1F DUP4 GT PUSH1 0x1 EQ PUSH3 0x22F5 JUMPI PUSH2 0x120 SWAP4 SWAP3 SWAP2 PUSH1 0x0 SWAP2 DUP4 PUSH3 0x22E9 JUMPI JUMPDEST POP POP DUP2 PUSH1 0x1 SHL SWAP2 PUSH1 0x0 NOT SWAP1 PUSH1 0x3 SHL SHR NOT AND OR PUSH1 0x8 DUP5 ADD SSTORE JUMPDEST ADD MLOAD DUP1 MLOAD SWAP1 PUSH1 0x1 PUSH1 0x1 PUSH1 0x40 SHL SUB DUP3 GT PUSH3 0x16EE JUMPI PUSH9 0x10000000000000000 DUP3 GT PUSH3 0x16EE JUMPI PUSH1 0x20 PUSH1 0x9 SWAP2 DUP3 DUP6 ADD SLOAD DUP5 DUP5 DUP8 ADD SSTORE DUP1 DUP6 LT PUSH3 0x22B1 JUMPI JUMPDEST POP ADD SWAP3 ADD PUSH1 0x0 MSTORE PUSH1 0x20 PUSH1 0x0 KECCAK256 SWAP1 PUSH1 0x0 JUMPDEST DUP2 PUSH1 0x5 SHR DUP2 LT PUSH3 0x225F JUMPI POP PUSH1 0x1F NOT DUP2 AND DUP2 SUB PUSH3 0x2204 JUMPI JUMPDEST POP POP PUSH20 0x2222222222222222222222222222222222222222 PUSH1 0x0 MSTORE POP PUSH1 0x0 DUP1 MLOAD PUSH1 0x20 PUSH3 0x6D75 DUP4 CODECOPY DUP2 MLOAD SWAP2 MSTORE PUSH1 0x20 MSTORE PUSH1 0x0 DUP1 MLOAD PUSH1 0x20 PUSH3 0x6DB5 DUP4 CODECOPY DUP2 MLOAD SWAP2 MSTORE SLOAD PUSH1 0xFF AND ISZERO PUSH3 0x218F JUMPI JUMPDEST PUSH1 0x9 SLOAD PUSH9 0x10000000000000000 DUP2 LT ISZERO PUSH3 0x16EE JUMPI PUSH1 0x1 DUP2 ADD DUP1 PUSH1 0x9 SSTORE DUP2 LT ISZERO PUSH3 0x19A6 JUMPI PUSH1 0x9 PUSH1 0x0 MSTORE PUSH1 0x0 DUP1 MLOAD PUSH1 0x20 PUSH3 0x6D95 DUP4 CODECOPY DUP2 MLOAD SWAP2 MSTORE ADD DUP1 SLOAD PUSH1 0x1 PUSH1 0x1 PUSH1 0xA0 SHL SUB NOT AND PUSH20 0x2222222222222222222222222222222222222222 OR SWAP1 SSTORE PUSH3 0x960 PUSH3 0x2A76 JUMP JUMPDEST PUSH1 0x7 DUP2 MSTORE PUSH7 0x139052D2115153 PUSH1 0xCA SHL PUSH1 0x20 DUP3 ADD MSTORE PUSH3 0x97E PUSH3 0x2A76 JUMP JUMPDEST PUSH1 0x10 DUP2 MSTORE PUSH16 0x524552412D4E414B4845454C2D303031 PUSH1 0x80 SHL PUSH1 0x20 DUP3 ADD MSTORE PUSH3 0x9A5 PUSH3 0x2A96 JUMP JUMPDEST SWAP1 PUSH1 0x2 DUP3 MSTORE PUSH1 0x40 CALLDATASIZE PUSH1 0x20 DUP5 ADD CALLDATACOPY PUSH1 0x0 PUSH3 0x9BF DUP4 PUSH3 0x2AEB JUMP JUMPDEST MSTORE PUSH1 0x1 PUSH3 0x9CD DUP4 PUSH3 0x2AF9 JUMP JUMPDEST MSTORE PUSH3 0x9D8 PUSH3 0x2AB6 JUMP JUMPDEST PUSH1 0x0 DUP2 MSTORE PUSH3 0x9E6 PUSH3 0x2A55 JUMP JUMPDEST SWAP4 DUP5 MSTORE PUSH1 0x1 PUSH1 0x20 DUP6 ADD MSTORE PUSH1 0x96 PUSH1 0x40 DUP6 ADD MSTORE PUSH1 0x0 PUSH1 0x60 DUP6 ADD MSTORE PUSH1 0x0 PUSH1 0x80 DUP6 ADD MSTORE PUSH1 0xA0 DUP5 ADD MSTORE PUSH1 0x1 PUSH1 0xC0 DUP5 ADD MSTORE PUSH1 0xE0 DUP4 ADD MSTORE PUSH3 0xA20 PUSH3 0x2AB6 JUMP JUMPDEST PUSH1 0x0 DUP2 MSTORE PUSH2 0x100 DUP4 ADD MSTORE PUSH2 0x120 DUP3 ADD MSTORE PUSH20 0x3333333333333333333333333333333333333333 PUSH1 0x0 MSTORE PUSH1 0x4 PUSH1 0x20 MSTORE PUSH1 0x40 PUSH1 0x0 KECCAK256 SWAP1 DUP1 MLOAD SWAP2 DUP3 MLOAD PUSH1 0x1 DUP1 PUSH1 0x40 SHL SUB DUP2 GT PUSH3 0x16EE JUMPI DUP2 SLOAD PUSH1 0x1 DUP2 DUP2 SHR SWAP2 AND DUP1 ISZERO PUSH3 0x2184 JUMPI JUMPDEST PUSH1 0x20 DUP3 LT EQ PUSH3 0x17D0 JUMPI PUSH1 0x1F DUP2 GT PUSH3 0x214E JUMPI JUMPDEST POP PUSH1 0x20 PUSH1 0x1F DUP3 GT PUSH1 0x1 EQ PUSH3 0x20E1 JUMPI DUP2 SWAP3 SWAP4 SWAP5 PUSH1 0x0 SWAP3 PUSH3 0x20D5 JUMPI JUMPDEST POP POP DUP2 PUSH1 0x1 SHL SWAP2 PUSH1 0x0 NOT SWAP1 PUSH1 0x3 SHL SHR NOT AND OR DUP2 SSTORE JUMPDEST PUSH1 0x20 DUP3 ADD MLOAD PUSH1 0x4 DUP2 LT ISZERO PUSH3 0x1635 JUMPI PUSH1 0x1 DUP3 ADD SWAP1 PUSH1 0xFF DUP1 NOT DUP4 SLOAD AND SWAP2 AND OR SWAP1 SSTORE PUSH1 0x40 DUP3 ADD MLOAD PUSH1 0x2 DUP3 ADD SSTORE PUSH1 0x60 DUP3 ADD MLOAD PUSH1 0x3 DUP3 ADD SSTORE PUSH1 0x80 DUP3 ADD MLOAD PUSH1 0x4 DUP3 ADD SSTORE PUSH1 0xA0 DUP3 ADD MLOAD DUP1 MLOAD SWAP1 PUSH1 0x1 DUP1 PUSH1 0x40 SHL SUB DUP3 GT PUSH3 0x16EE JUMPI PUSH9 0x10000000000000000 DUP3 GT PUSH3 0x16EE JUMPI PUSH1 0x20 SWAP1 PUSH1 0x5 DUP5 ADD SLOAD DUP4 PUSH1 0x5 DUP7 ADD SSTORE DUP1 DUP5 LT PUSH3 0x20B2 JUMPI JUMPDEST POP ADD PUSH1 0x5 DUP4 ADD PUSH1 0x0 MSTORE PUSH1 0x20 PUSH1 0x0 KECCAK256 PUSH1 0x0 JUMPDEST DUP4 DUP2 LT PUSH3 0x209D JUMPI DUP6 DUP6 PUSH3 0xB73 PUSH1 0xC0 DUP4 ADD MLOAD ISZERO ISZERO PUSH1 0x6 DUP4 ADD SWAP1 PUSH1 0xFF DUP1 NOT DUP4 SLOAD AND SWAP2 ISZERO ISZERO AND OR SWAP1 SSTORE JUMP JUMPDEST PUSH1 0xE0 DUP3 ADD MLOAD DUP1 MLOAD SWAP1 SWAP3 SWAP1 PUSH1 0x1 PUSH1 0x1 PUSH1 0x40 SHL SUB DUP2 GT PUSH3 0x16EE JUMPI PUSH1 0x7 DUP4 ADD SLOAD PUSH1 0x1 DUP2 DUP2 SHR SWAP2 AND DUP1 ISZERO PUSH3 0x2092 JUMPI JUMPDEST PUSH1 0x20 DUP3 LT EQ PUSH3 0x17D0 JUMPI PUSH1 0x1F DUP2 GT PUSH3 0x2059 JUMPI JUMPDEST POP PUSH1 0x20 PUSH1 0x1F DUP3 GT PUSH1 0x1 EQ PUSH3 0x1FE6 JUMPI DUP2 SWAP3 SWAP4 SWAP5 PUSH1 0x0 SWAP3 PUSH3 0x1FDA JUMPI JUMPDEST POP POP DUP2 PUSH1 0x1 SHL SWAP2 PUSH1 0x0 NOT SWAP1 PUSH1 0x3 SHL SHR NOT AND OR PUSH1 0x7 DUP4 ADD SSTORE JUMPDEST PUSH2 0x100 DUP2 ADD MLOAD DUP1 MLOAD SWAP1 PUSH1 0x1 PUSH1 0x1 PUSH1 0x40 SHL SUB DUP3 GT PUSH3 0x16EE JUMPI PUSH1 0x8 DUP5 ADD SLOAD PUSH1 0x1 DUP2 DUP2 SHR SWAP2 AND DUP1 ISZERO PUSH3 0x1FCF JUMPI JUMPDEST PUSH1 0x20 DUP3 LT EQ PUSH3 0x17D0 JUMPI PUSH1 0x1F DUP2 GT PUSH3 0x1F96 JUMPI JUMPDEST POP PUSH1 0x20 SWAP1 PUSH1 0x1F DUP4 GT PUSH1 0x1 EQ PUSH3 0x1F1D JUMPI PUSH2 0x120 SWAP4 SWAP3 SWAP2 PUSH1 0x0 SWAP2 DUP4 PUSH3 0x1F11 JUMPI JUMPDEST POP POP DUP2 PUSH1 0x1 SHL SWAP2 PUSH1 0x0 NOT SWAP1 PUSH1 0x3 SHL SHR NOT AND OR PUSH1 0x8 DUP5 ADD SSTORE JUMPDEST ADD MLOAD DUP1 MLOAD SWAP1 PUSH1 0x1 PUSH1 0x1 PUSH1 0x40 SHL SUB DUP3 GT PUSH3 0x16EE JUMPI PUSH9 0x10000000000000000 DUP3 GT PUSH3 0x16EE JUMPI PUSH1 0x20 PUSH1 0x9 SWAP2 DUP3 DUP6 ADD SLOAD DUP5 DUP5 DUP8 ADD SSTORE DUP1 DUP6 LT PUSH3 0x1ED9 JUMPI JUMPDEST POP ADD SWAP3 ADD PUSH1 0x0 MSTORE PUSH1 0x20 PUSH1 0x0 KECCAK256 SWAP1 PUSH1 0x0 JUMPDEST DUP2 PUSH1 0x5 SHR DUP2 LT PUSH3 0x1E87 JUMPI POP PUSH1 0x1F NOT DUP2 AND DUP2 SUB PUSH3 0x1E2C JUMPI JUMPDEST POP POP PUSH20 0x3333333333333333333333333333333333333333 PUSH1 0x0 MSTORE POP PUSH1 0x0 DUP1 MLOAD PUSH1 0x20 PUSH3 0x6D75 DUP4 CODECOPY DUP2 MLOAD SWAP2 MSTORE PUSH1 0x20 MSTORE PUSH1 0x0 DUP1 MLOAD PUSH1 0x20 PUSH3 0x6DF5 DUP4 CODECOPY DUP2 MLOAD SWAP2 MSTORE SLOAD PUSH1 0xFF AND ISZERO PUSH3 0x1DB7 JUMPI JUMPDEST PUSH1 0x9 SLOAD PUSH9 0x10000000000000000 DUP2 LT ISZERO PUSH3 0x16EE JUMPI PUSH1 0x1 DUP2 ADD DUP1 PUSH1 0x9 SSTORE DUP2 LT ISZERO PUSH3 0x19A6 JUMPI PUSH1 0x9 PUSH1 0x0 MSTORE PUSH1 0x0 DUP1 MLOAD PUSH1 0x20 PUSH3 0x6D95 DUP4 CODECOPY DUP2 MLOAD SWAP2 MSTORE ADD DUP1 SLOAD PUSH1 0x1 PUSH1 0x1 PUSH1 0xA0 SHL SUB NOT AND PUSH20 0x3333333333333333333333333333333333333333 OR SWAP1 SSTORE PUSH3 0xD77 PUSH3 0x2A76 JUMP JUMPDEST PUSH1 0x10 DUP2 MSTORE PUSH16 0x414C4441522050726F70657274696573 PUSH1 0x80 SHL PUSH1 0x20 DUP3 ADD MSTORE PUSH3 0xD9E PUSH3 0x2A76 JUMP JUMPDEST PUSH1 0xE DUP2 MSTORE PUSH14 0x414452412D414C4441522D303031 PUSH1 0x90 SHL PUSH1 0x20 DUP3 ADD MSTORE PUSH3 0xDC3 PUSH3 0x2A96 JUMP JUMPDEST SWAP1 PUSH1 0x2 DUP3 MSTORE PUSH1 0x40 CALLDATASIZE PUSH1 0x20 DUP5 ADD CALLDATACOPY PUSH1 0x0 PUSH3 0xDDD DUP4 PUSH3 0x2AEB JUMP JUMPDEST MSTORE PUSH1 0x1 PUSH3 0xDEB DUP4 PUSH3 0x2AF9 JUMP JUMPDEST MSTORE PUSH3 0xDF6 PUSH3 0x2AB6 JUMP JUMPDEST PUSH1 0x0 DUP2 MSTORE PUSH3 0xE04 PUSH3 0x2A55 JUMP JUMPDEST SWAP4 DUP5 MSTORE PUSH1 0x1 PUSH1 0x20 DUP6 ADD MSTORE PUSH1 0x96 PUSH1 0x40 DUP6 ADD MSTORE PUSH1 0x0 PUSH1 0x60 DUP6 ADD MSTORE PUSH1 0x0 PUSH1 0x80 DUP6 ADD MSTORE PUSH1 0xA0 DUP5 ADD MSTORE PUSH1 0x1 PUSH1 0xC0 DUP5 ADD MSTORE PUSH1 0xE0 DUP4 ADD MSTORE PUSH3 0xE3E PUSH3 0x2AB6 JUMP JUMPDEST PUSH1 0x0 DUP2 MSTORE PUSH2 0x100 DUP4 ADD MSTORE PUSH2 0x120 DUP3 ADD MSTORE PUSH20 0x5555555555555555555555555555555555555555 PUSH1 0x0 MSTORE PUSH1 0x4 PUSH1 0x20 MSTORE PUSH1 0x40 PUSH1 0x0 KECCAK256 SWAP1 DUP1 MLOAD SWAP2 DUP3 MLOAD PUSH1 0x1 DUP1 PUSH1 0x40 SHL SUB DUP2 GT PUSH3 0x16EE JUMPI DUP2 SLOAD PUSH1 0x1 DUP2 DUP2 SHR SWAP2 AND DUP1 ISZERO PUSH3 0x1DAC JUMPI JUMPDEST PUSH1 0x20 DUP3 LT EQ PUSH3 0x17D0 JUMPI PUSH1 0x1F DUP2 GT PUSH3 0x1D76 JUMPI JUMPDEST POP PUSH1 0x20 PUSH1 0x1F DUP3 GT PUSH1 0x1 EQ PUSH3 0x1D09 JUMPI DUP2 SWAP3 SWAP4 SWAP5 PUSH1 0x0 SWAP3 PUSH3 0x1CFD JUMPI JUMPDEST POP POP DUP2 PUSH1 0x1 SHL SWAP2 PUSH1 0x0 NOT SWAP1 PUSH1 0x3 SHL SHR NOT AND OR DUP2 SSTORE JUMPDEST PUSH1 0x20 DUP3 ADD MLOAD PUSH1 0x4 DUP2 LT ISZERO PUSH3 0x1635 JUMPI PUSH1 0x1 DUP3 ADD SWAP1 PUSH1 0xFF DUP1 NOT DUP4 SLOAD AND SWAP2 AND OR SWAP1 SSTORE PUSH1 0x40 DUP3 ADD MLOAD PUSH1 0x2 DUP3 ADD SSTORE PUSH1 0x60 DUP3 ADD MLOAD PUSH1 0x3 DUP3 ADD SSTORE PUSH1 0x80 DUP3 ADD MLOAD PUSH1 0x4 DUP3 ADD SSTORE PUSH1 0xA0 DUP3 ADD MLOAD DUP1 MLOAD SWAP1 PUSH1 0x1 DUP1 PUSH1 0x40 SHL SUB DUP3 GT PUSH3 0x16EE JUMPI PUSH9 0x10000000000000000 DUP3 GT PUSH3 0x16EE JUMPI PUSH1 0x20 SWAP1 PUSH1 0x5 DUP5 ADD SLOAD DUP4 PUSH1 0x5 DUP7 ADD SSTORE DUP1 DUP5 LT PUSH3 0x1CDA JUMPI JUMPDEST POP ADD PUSH1 0x5 DUP4 ADD PUSH1 0x0 MSTORE PUSH1 0x20 PUSH1 0x0 KECCAK256 PUSH1 0x0 JUMPDEST DUP4 DUP2 LT PUSH3 0x1CC5 JUMPI DUP6 DUP6 PUSH3 0xF91 PUSH1 0xC0 DUP4 ADD MLOAD ISZERO ISZERO PUSH1 0x6 DUP4 ADD SWAP1 PUSH1 0xFF DUP1 NOT DUP4 SLOAD AND SWAP2 ISZERO ISZERO AND OR SWAP1 SSTORE JUMP JUMPDEST PUSH1 0xE0 DUP3 ADD MLOAD DUP1 MLOAD SWAP1 SWAP3 SWAP1 PUSH1 0x1 PUSH1 0x1 PUSH1 0x40 SHL SUB DUP2 GT PUSH3 0x16EE JUMPI PUSH1 0x7 DUP4 ADD SLOAD PUSH1 0x1 DUP2 DUP2 SHR SWAP2 AND DUP1 ISZERO PUSH3 0x1CBA JUMPI JUMPDEST PUSH1 0x20 DUP3 LT EQ PUSH3 0x17D0 JUMPI PUSH1 0x1F DUP2 GT PUSH3 0x1C81 JUMPI JUMPDEST POP PUSH1 0x20 PUSH1 0x1F DUP3 GT PUSH1 0x1 EQ PUSH3 0x1C0E JUMPI DUP2 SWAP3 SWAP4 SWAP5 PUSH1 0x0 SWAP3 PUSH3 0x1C02 JUMPI JUMPDEST POP POP DUP2 PUSH1 0x1 SHL SWAP2 PUSH1 0x0 NOT SWAP1 PUSH1 0x3 SHL SHR NOT AND OR PUSH1 0x7 DUP4 ADD SSTORE JUMPDEST PUSH2 0x100 DUP2 ADD MLOAD DUP1 MLOAD SWAP1 PUSH1 0x1 PUSH1 0x1 PUSH1 0x40 SHL SUB DUP3 GT PUSH3 0x16EE JUMPI PUSH1 0x8 DUP5 ADD SLOAD PUSH1 0x1 DUP2 DUP2 SHR SWAP2 AND DUP1 ISZERO PUSH3 0x1BF7 JUMPI JUMPDEST PUSH1 0x20 DUP3 LT EQ PUSH3 0x17D0 JUMPI PUSH1 0x1F DUP2 GT PUSH3 0x1BBE JUMPI JUMPDEST POP PUSH1 0x20 SWAP1 PUSH1 0x1F DUP4 GT PUSH1 0x1 EQ PUSH3 0x1B45 JUMPI PUSH2 0x120 SWAP4 SWAP3 SWAP2 PUSH1 0x0 SWAP2 DUP4 PUSH3 0x1B39 JUMPI JUMPDEST POP POP DUP2 PUSH1 0x1 SHL SWAP2 PUSH1 0x0 NOT SWAP1 PUSH1 0x3 SHL SHR NOT AND OR PUSH1 0x8 DUP5 ADD SSTORE JUMPDEST ADD MLOAD DUP1 MLOAD SWAP1 PUSH1 0x1 PUSH1 0x1 PUSH1 0x40 SHL SUB DUP3 GT PUSH3 0x16EE JUMPI PUSH9 0x10000000000000000 DUP3 GT PUSH3 0x16EE JUMPI PUSH1 0x20 PUSH1 0x9 SWAP2 DUP3 DUP6 ADD SLOAD DUP5 DUP5 DUP8 ADD SSTORE DUP1 DUP6 LT PUSH3 0x1ADE JUMPI JUMPDEST POP ADD SWAP3 ADD PUSH1 0x0 MSTORE PUSH1 0x20 PUSH1 0x0 KECCAK256 SWAP1 PUSH1 0x0 JUMPDEST DUP2 PUSH1 0x5 SHR DUP2 LT PUSH3 0x1A8C JUMPI POP PUSH1 0x1F NOT DUP2 AND DUP2 SUB PUSH3 0x1A31 JUMPI JUMPDEST POP POP PUSH20 0x5555555555555555555555555555555555555555 PUSH1 0x0 MSTORE POP PUSH1 0x0 DUP1 MLOAD PUSH1 0x20 PUSH3 0x6D75 DUP4 CODECOPY DUP2 MLOAD SWAP2 MSTORE PUSH1 0x20 MSTORE PUSH1 0x0 DUP1 MLOAD PUSH1 0x20 PUSH3 0x6D15 DUP4 CODECOPY DUP2 MLOAD SWAP2 MSTORE SLOAD PUSH1 0xFF AND ISZERO PUSH3 0x19BC JUMPI JUMPDEST PUSH1 0x9 SLOAD PUSH9 0x10000000000000000 DUP2 LT ISZERO PUSH3 0x16EE JUMPI PUSH1 0x1 DUP2 ADD DUP1 PUSH1 0x9 SSTORE DUP2 LT ISZERO PUSH3 0x19A6 JUMPI PUSH1 0x9 PUSH1 0x0 MSTORE PUSH1 0x0 DUP1 MLOAD PUSH1 0x20 PUSH3 0x6D95 DUP4 CODECOPY DUP2 MLOAD SWAP2 MSTORE ADD DUP1 SLOAD PUSH1 0x1 PUSH1 0x1 PUSH1 0xA0 SHL SUB NOT AND PUSH20 0x5555555555555555555555555555555555555555 OR SWAP1 SSTORE PUSH3 0x1195 PUSH3 0x2A76 JUMP JUMPDEST PUSH1 0x10 DUP2 MSTORE PUSH16 0x44414D41432050726F70657274696573 PUSH1 0x80 SHL PUSH1 0x20 DUP3 ADD MSTORE PUSH3 0x11BC PUSH3 0x2A76 JUMP JUMPDEST PUSH1 0xE DUP2 MSTORE PUSH14 0x524552412D44414D41432D303031 PUSH1 0x90 SHL PUSH1 0x20 DUP3 ADD MSTORE PUSH3 0x11E1 PUSH3 0x2A96 JUMP JUMPDEST SWAP1 PUSH1 0x2 DUP3 MSTORE PUSH1 0x40 CALLDATASIZE PUSH1 0x20 DUP5 ADD CALLDATACOPY PUSH1 0x0 PUSH3 0x11FB DUP4 PUSH3 0x2AEB JUMP JUMPDEST MSTORE PUSH1 0x1 PUSH3 0x1209 DUP4 PUSH3 0x2AF9 JUMP JUMPDEST MSTORE PUSH3 0x1214 PUSH3 0x2AB6 JUMP JUMPDEST PUSH1 0x0 DUP2 MSTORE PUSH3 0x1222 PUSH3 0x2A55 JUMP JUMPDEST SWAP4 DUP5 MSTORE PUSH1 0x2 PUSH1 0x20 DUP6 ADD MSTORE PUSH1 0xFA PUSH1 0x40 DUP6 ADD MSTORE PUSH1 0x0 PUSH1 0x60 DUP6 ADD MSTORE PUSH1 0x0 PUSH1 0x80 DUP6 ADD MSTORE PUSH1 0xA0 DUP5 ADD MSTORE PUSH1 0x1 PUSH1 0xC0 DUP5 ADD MSTORE PUSH1 0xE0 DUP4 ADD MSTORE PUSH3 0x125C PUSH3 0x2AB6 JUMP JUMPDEST PUSH1 0x0 DUP2 MSTORE PUSH2 0x100 DUP4 ADD MSTORE PUSH2 0x120 DUP3 ADD MSTORE PUSH20 0x4444444444444444444444444444444444444444 PUSH1 0x0 MSTORE PUSH1 0x4 PUSH1 0x20 MSTORE PUSH1 0x40 PUSH1 0x0 KECCAK256 DUP2 MLOAD SWAP2 DUP3 MLOAD PUSH1 0x1 DUP1 PUSH1 0x40 SHL SUB DUP2 GT PUSH3 0x16EE JUMPI DUP3 SLOAD PUSH1 0x1 DUP2 DUP2 SHR SWAP2 AND DUP1 ISZERO PUSH3 0x199B JUMPI JUMPDEST PUSH1 0x20 DUP3 LT EQ PUSH3 0x17D0 JUMPI PUSH1 0x1F DUP2 GT PUSH3 0x1965 JUMPI JUMPDEST POP PUSH1 0x20 PUSH1 0x1F DUP3 GT PUSH1 0x1 EQ PUSH3 0x18F8 JUMPI DUP2 SWAP3 SWAP4 SWAP5 PUSH1 0x0 SWAP3 PUSH3 0x18EC JUMPI JUMPDEST POP POP DUP2 PUSH1 0x1 SHL SWAP2 PUSH1 0x0 NOT SWAP1 PUSH1 0x3 SHL SHR NOT AND OR DUP3 SSTORE JUMPDEST PUSH1 0x20 DUP2 ADD MLOAD PUSH1 0x4 DUP2 LT ISZERO PUSH3 0x1635 JUMPI PUSH1 0x1 DUP4 ADD SWAP1 PUSH1 0xFF DUP1 NOT DUP4 SLOAD AND SWAP2 AND OR SWAP1 SSTORE PUSH1 0x40 DUP2 ADD MLOAD PUSH1 0x2 DUP4 ADD SSTORE PUSH1 0x60 DUP2 ADD MLOAD PUSH1 0x3 DUP4 ADD SSTORE PUSH1 0x80 DUP2 ADD MLOAD PUSH1 0x4 DUP4 ADD SSTORE PUSH1 0xA0 DUP2 ADD MLOAD DUP1 MLOAD SWAP1 PUSH1 0x1 DUP1 PUSH1 0x40 SHL SUB DUP3 GT PUSH3 0x16EE JUMPI PUSH9 0x10000000000000000 DUP3 GT PUSH3 0x16EE JUMPI PUSH1 0x20 SWAP1 PUSH1 0x5 DUP6 ADD SLOAD DUP4 PUSH1 0x5 DUP8 ADD SSTORE DUP1 DUP5 LT PUSH3 0x18C9 JUMPI JUMPDEST POP ADD PUSH1 0x5 DUP5 ADD PUSH1 0x0 MSTORE PUSH1 0x20 PUSH1 0x0 KECCAK256 PUSH1 0x0 JUMPDEST DUP4 DUP2 LT PUSH3 0x18B4 JUMPI DUP6 DUP6 PUSH3 0x13AE PUSH1 0xC0 DUP3 ADD MLOAD ISZERO ISZERO PUSH1 0x6 DUP5 ADD SWAP1 PUSH1 0xFF DUP1 NOT DUP4 SLOAD AND SWAP2 ISZERO ISZERO AND OR SWAP1 SSTORE JUMP JUMPDEST PUSH1 0xE0 DUP2 ADD MLOAD DUP1 MLOAD SWAP1 SWAP3 SWAP1 PUSH1 0x1 PUSH1 0x1 PUSH1 0x40 SHL SUB DUP2 GT PUSH3 0x16EE JUMPI PUSH1 0x7 DUP3 ADD SLOAD PUSH1 0x1 DUP2 DUP2 SHR SWAP2 AND DUP1 ISZERO PUSH3 0x18A9 JUMPI JUMPDEST PUSH1 0x20 DUP3 LT EQ PUSH3 0x17D0 JUMPI PUSH1 0x1F DUP2 GT PUSH3 0x1870 JUMPI JUMPDEST POP PUSH1 0x20 PUSH1 0x1F DUP3 GT PUSH1 0x1 EQ PUSH3 0x17FD JUMPI DUP2 SWAP3 SWAP4 SWAP5 PUSH1 0x0 SWAP3 PUSH3 0x17F1 JUMPI JUMPDEST POP POP DUP2 PUSH1 0x1 SHL SWAP2 PUSH1 0x0 NOT SWAP1 PUSH1 0x3 SHL SHR NOT AND OR PUSH1 0x7 DUP3 ADD SSTORE JUMPDEST PUSH2 0x100 DUP3 ADD MLOAD DUP1 MLOAD SWAP1 PUSH1 0x1 PUSH1 0x1 PUSH1 0x40 SHL SUB DUP3 GT PUSH3 0x16EE JUMPI PUSH1 0x8 DUP4 ADD SLOAD PUSH1 0x1 DUP2 DUP2 SHR SWAP2 AND DUP1 ISZERO PUSH3 0x17E6 JUMPI JUMPDEST PUSH1 0x20 DUP3 LT EQ PUSH3 0x17D0 JUMPI PUSH1 0x1F DUP2 GT PUSH3 0x178B JUMPI JUMPDEST POP PUSH1 0x20 SWAP1 PUSH1 0x1F DUP4 GT PUSH1 0x1 EQ PUSH3 0x1710 JUMPI SWAP2 DUP1 PUSH2 0x120 SWAP5 SWAP3 PUSH1 0x9 SWAP5 PUSH1 0x0 SWAP3 PUSH3 0x1704 JUMPI JUMPDEST POP POP DUP2 PUSH1 0x1 SHL SWAP2 PUSH1 0x0 NOT SWAP1 PUSH1 0x3 SHL SHR NOT AND OR PUSH1 0x8 DUP3 ADD SSTORE JUMPDEST ADD SWAP2 ADD MLOAD DUP1 MLOAD SWAP1 PUSH1 0x1 DUP1 PUSH1 0x40 SHL SUB DUP3 GT PUSH3 0x16EE JUMPI PUSH9 0x10000000000000000 DUP3 GT PUSH3 0x16EE JUMPI PUSH1 0x20 SWAP1 DUP4 SLOAD DUP4 DUP6 SSTORE DUP1 DUP5 LT PUSH3 0x169D JUMPI JUMPDEST POP ADD SWAP2 PUSH1 0x0 MSTORE PUSH1 0x20 PUSH1 0x0 KECCAK256 DUP2 PUSH1 0x5 SHR SWAP2 PUSH1 0x0 JUMPDEST DUP4 DUP2 LT PUSH3 0x164B JUMPI POP PUSH1 0x1F NOT DUP2 AND SWAP1 SUB DUP1 PUSH3 0x15DE JUMPI JUMPDEST POP POP PUSH20 0x4444444444444444444444444444444444444444 PUSH1 0x0 MSTORE POP POP PUSH1 0x0 DUP1 MLOAD PUSH1 0x20 PUSH3 0x6D75 DUP4 CODECOPY DUP2 MLOAD SWAP2 MSTORE PUSH1 0x20 MSTORE PUSH1 0x0 DUP1 MLOAD PUSH1 0x20 PUSH3 0x6D35 DUP4 CODECOPY DUP2 MLOAD SWAP2 MSTORE SLOAD PUSH1 0xFF AND ISZERO PUSH3 0x1569 JUMPI JUMPDEST PUSH1 0x40 MLOAD PUSH2 0x41B1 SWAP1 DUP2 PUSH3 0x2B24 DUP3 CODECOPY PUSH1 0x80 MLOAD DUP2 DUP2 DUP2 PUSH2 0x768 ADD MSTORE PUSH2 0x2B03 ADD MSTORE RETURN JUMPDEST PUSH20 0x4444444444444444444444444444444444444444 PUSH1 0x0 DUP2 DUP2 MSTORE PUSH1 0x0 DUP1 MLOAD PUSH1 0x20 PUSH3 0x6D75 DUP4 CODECOPY DUP2 MLOAD SWAP2 MSTORE PUSH1 0x20 MSTORE PUSH1 0x0 DUP1 MLOAD PUSH1 0x20 PUSH3 0x6D35 DUP4 CODECOPY DUP2 MLOAD SWAP2 MSTORE DUP1 SLOAD PUSH1 0xFF NOT AND PUSH1 0x1 OR SWAP1 SSTORE CALLER SWAP2 SWAP1 PUSH1 0x0 DUP1 MLOAD PUSH1 0x20 PUSH3 0x6CF5 DUP4 CODECOPY DUP2 MLOAD SWAP2 MSTORE SWAP1 PUSH1 0x0 DUP1 MLOAD PUSH1 0x20 PUSH3 0x6CD5 DUP4 CODECOPY DUP2 MLOAD SWAP2 MSTORE SWAP1 DUP1 LOG4 PUSH3 0x1549 JUMP JUMPDEST SWAP3 PUSH1 0x0 SWAP4 PUSH1 0x0 JUMPDEST DUP2 DUP2 LT PUSH3 0x15FC JUMPI POP POP POP ADD SSTORE DUP1 DUP1 DUP1 DUP1 PUSH3 0x14FF JUMP JUMPDEST SWAP1 SWAP2 SWAP5 DUP6 MLOAD PUSH1 0x7 DUP2 LT ISZERO PUSH3 0x1635 JUMPI PUSH3 0x162A PUSH1 0x20 SWAP2 DUP5 PUSH1 0x1 SWAP5 SWAP1 PUSH1 0xFF DUP1 SWAP2 PUSH1 0x3 SHL SWAP4 AND DUP4 SHL SWAP3 SHL NOT AND OR SWAP1 JUMP JUMPDEST SWAP7 ADD SWAP3 SWAP2 ADD PUSH3 0x15E5 JUMP JUMPDEST PUSH4 0x4E487B71 PUSH1 0xE0 SHL PUSH1 0x0 MSTORE PUSH1 0x21 PUSH1 0x4 MSTORE PUSH1 0x24 PUSH1 0x0 REVERT JUMPDEST PUSH1 0x0 DUP1 JUMPDEST PUSH1 0x20 DUP2 LT PUSH3 0x1666 JUMPI POP DUP4 DUP3 ADD SSTORE PUSH1 0x1 ADD PUSH3 0x14E8 JUMP JUMPDEST SWAP6 SWAP1 DUP2 MLOAD PUSH1 0x7 DUP2 LT ISZERO PUSH3 0x1635 JUMPI PUSH3 0x1693 PUSH1 0x20 SWAP2 DUP10 PUSH1 0x1 SWAP5 SWAP1 PUSH1 0xFF DUP1 SWAP2 PUSH1 0x3 SHL SWAP4 AND DUP4 SHL SWAP3 SHL NOT AND OR SWAP1 JUMP JUMPDEST SWAP3 ADD SWAP7 ADD PUSH3 0x164F JUMP JUMPDEST PUSH3 0x16CC SWAP1 DUP6 PUSH1 0x0 MSTORE DUP4 PUSH1 0x0 KECCAK256 PUSH1 0x1F DUP1 DUP8 ADD PUSH1 0x5 SHR DUP3 ADD SWAP3 DUP2 DUP9 AND DUP1 PUSH3 0x16D3 JUMPI JUMPDEST POP ADD PUSH1 0x5 SHR ADD SWAP1 PUSH3 0x2B0A JUMP JUMPDEST DUP5 PUSH3 0x14D5 JUMP JUMPDEST PUSH1 0x0 NOT SWAP1 DUP2 DUP7 ADD SWAP2 DUP3 SLOAD SWAP2 DUP11 SUB PUSH1 0x3 SHL SHR AND SWAP1 SSTORE DUP10 PUSH3 0x16BF JUMP JUMPDEST PUSH4 0x4E487B71 PUSH1 0xE0 SHL PUSH1 0x0 MSTORE PUSH1 0x41 PUSH1 0x4 MSTORE PUSH1 0x24 PUSH1 0x0 REVERT JUMPDEST ADD MLOAD SWAP1 POP DUP7 DUP1 PUSH3 0x1486 JUMP JUMPDEST SWAP1 PUSH1 0x8 DUP5 ADD PUSH1 0x0 MSTORE PUSH1 0x20 PUSH1 0x0 KECCAK256 SWAP2 PUSH1 0x0 JUMPDEST PUSH1 0x1F NOT DUP6 AND DUP2 LT PUSH3 0x1772 JUMPI POP SWAP3 PUSH2 0x120 SWAP5 SWAP3 PUSH1 0x1 SWAP3 PUSH1 0x9 SWAP6 DUP4 PUSH1 0x1F NOT DUP2 AND LT PUSH3 0x1758 JUMPI JUMPDEST POP POP POP DUP2 SHL ADD PUSH1 0x8 DUP3 ADD SSTORE PUSH3 0x149E JUMP JUMPDEST ADD MLOAD PUSH1 0x0 NOT PUSH1 0xF8 DUP5 PUSH1 0x3 SHL AND SHR NOT AND SWAP1 SSTORE DUP7 DUP1 DUP1 PUSH3 0x1747 JUMP JUMPDEST SWAP2 SWAP3 PUSH1 0x20 PUSH1 0x1 DUP2 SWAP3 DUP7 DUP6 ADD MLOAD DUP2 SSTORE ADD SWAP5 ADD SWAP3 ADD PUSH3 0x1721 JUMP JUMPDEST PUSH3 0x17BE SWAP1 PUSH1 0x8 DUP6 ADD PUSH1 0x0 MSTORE PUSH1 0x20 PUSH1 0x0 KECCAK256 PUSH1 0x1F DUP6 ADD PUSH1 0x5 SHR DUP2 ADD SWAP2 PUSH1 0x20 DUP7 LT PUSH3 0x17C5 JUMPI JUMPDEST PUSH1 0x1F ADD PUSH1 0x5 SHR ADD SWAP1 PUSH3 0x2B0A JUMP JUMPDEST DUP5 PUSH3 0x1463 JUMP JUMPDEST SWAP1 SWAP2 POP DUP2 SWAP1 PUSH3 0x17B0 JUMP JUMPDEST PUSH4 0x4E487B71 PUSH1 0xE0 SHL PUSH1 0x0 MSTORE PUSH1 0x22 PUSH1 0x4 MSTORE PUSH1 0x24 PUSH1 0x0 REVERT JUMPDEST SWAP1 PUSH1 0x7F AND SWAP1 PUSH3 0x144F JUMP JUMPDEST ADD MLOAD SWAP1 POP DUP5 DUP1 PUSH3 0x140B JUMP JUMPDEST PUSH1 0x7 DUP4 ADD PUSH1 0x0 MSTORE PUSH1 0x20 PUSH1 0x0 KECCAK256 SWAP1 PUSH1 0x0 JUMPDEST PUSH1 0x1F NOT DUP5 AND DUP2 LT PUSH3 0x1857 JUMPI POP PUSH1 0x1 SWAP4 SWAP5 SWAP6 DUP4 PUSH1 0x1F NOT DUP2 AND LT PUSH3 0x183D JUMPI JUMPDEST POP POP POP DUP2 SHL ADD PUSH1 0x7 DUP3 ADD SSTORE PUSH3 0x1423 JUMP JUMPDEST ADD MLOAD PUSH1 0x0 NOT PUSH1 0xF8 DUP5 PUSH1 0x3 SHL AND SHR NOT AND SWAP1 SSTORE DUP5 DUP1 DUP1 PUSH3 0x182C JUMP JUMPDEST SWAP1 SWAP2 PUSH1 0x20 PUSH1 0x1 DUP2 SWAP3 DUP6 DUP11 ADD MLOAD DUP2 SSTORE ADD SWAP4 ADD SWAP2 ADD PUSH3 0x180D JUMP JUMPDEST PUSH3 0x18A2 SWAP1 PUSH1 0x7 DUP5 ADD PUSH1 0x0 MSTORE PUSH1 0x20 PUSH1 0x0 KECCAK256 PUSH1 0x1F DUP5 ADD PUSH1 0x5 SHR DUP2 ADD SWAP2 PUSH1 0x20 DUP6 LT PUSH3 0x17C5 JUMPI PUSH1 0x1F ADD PUSH1 0x5 SHR ADD SWAP1 PUSH3 0x2B0A JUMP JUMPDEST DUP5 PUSH3 0x13EF JUMP JUMPDEST SWAP1 PUSH1 0x7F AND SWAP1 PUSH3 0x13DB JUMP JUMPDEST PUSH1 0x1 SWAP1 PUSH1 0x20 DUP5 MLOAD SWAP5 ADD SWAP4 DUP2 DUP5 ADD SSTORE ADD PUSH3 0x1384 JUMP JUMPDEST PUSH3 0x18E5 SWAP1 PUSH1 0x5 DUP8 ADD PUSH1 0x0 MSTORE DUP5 DUP5 PUSH1 0x0 KECCAK256 SWAP2 DUP3 ADD SWAP2 ADD PUSH3 0x2B0A JUMP JUMPDEST DUP6 PUSH3 0x1373 JUMP JUMPDEST ADD MLOAD SWAP1 POP DUP5 DUP1 PUSH3 0x12E2 JUMP JUMPDEST DUP4 PUSH1 0x0 MSTORE PUSH1 0x20 PUSH1 0x0 KECCAK256 SWAP1 PUSH1 0x0 JUMPDEST PUSH1 0x1F NOT DUP5 AND DUP2 LT PUSH3 0x194C JUMPI POP PUSH1 0x1 SWAP4 SWAP5 SWAP6 DUP4 PUSH1 0x1F NOT DUP2 AND LT PUSH3 0x1932 JUMPI JUMPDEST POP POP POP DUP2 SHL ADD DUP3 SSTORE PUSH3 0x12F7 JUMP JUMPDEST ADD MLOAD PUSH1 0x0 NOT PUSH1 0xF8 DUP5 PUSH1 0x3 SHL AND SHR NOT AND SWAP1 SSTORE DUP5 DUP1 DUP1 PUSH3 0x1924 JUMP JUMPDEST SWAP1 SWAP2 PUSH1 0x20 PUSH1 0x1 DUP2 SWAP3 DUP6 DUP11 ADD MLOAD DUP2 SSTORE ADD SWAP4 ADD SWAP2 ADD PUSH3 0x1905 JUMP JUMPDEST PUSH3 0x1994 SWAP1 DUP5 PUSH1 0x0 MSTORE PUSH1 0x20 PUSH1 0x0 KECCAK256 PUSH1 0x1F DUP5 ADD PUSH1 0x5 SHR DUP2 ADD SWAP2 PUSH1 0x20 DUP6 LT PUSH3 0x17C5 JUMPI PUSH1 0x1F ADD PUSH1 0x5 SHR ADD SWAP1 PUSH3 0x2B0A JUMP JUMPDEST DUP5 PUSH3 0x12C6 JUMP JUMPDEST SWAP1 PUSH1 0x7F AND SWAP1 PUSH3 0x12B2 JUMP JUMPDEST PUSH4 0x4E487B71 PUSH1 0xE0 SHL PUSH1 0x0 MSTORE PUSH1 0x32 PUSH1 0x4 MSTORE PUSH1 0x24 PUSH1 0x0 REVERT JUMPDEST PUSH20 0x5555555555555555555555555555555555555555 PUSH1 0x0 DUP2 DUP2 MSTORE PUSH1 0x0 DUP1 MLOAD PUSH1 0x20 PUSH3 0x6D75 DUP4 CODECOPY DUP2 MLOAD SWAP2 MSTORE PUSH1 0x20 MSTORE PUSH1 0x0 DUP1 MLOAD PUSH1 0x20 PUSH3 0x6D15 DUP4 CODECOPY DUP2 MLOAD SWAP2 MSTORE DUP1 SLOAD PUSH1 0xFF NOT AND PUSH1 0x1 OR SWAP1 SSTORE CALLER SWAP2 SWAP1 PUSH1 0x0 DUP1 MLOAD PUSH1 0x20 PUSH3 0x6CF5 DUP4 CODECOPY DUP2 MLOAD SWAP2 MSTORE SWAP1 PUSH1 0x0 DUP1 MLOAD PUSH1 0x20 PUSH3 0x6CD5 DUP4 CODECOPY DUP2 MLOAD SWAP2 MSTORE SWAP1 DUP1 LOG4 PUSH3 0x112C JUMP JUMPDEST PUSH1 0x0 SWAP3 PUSH1 0x0 JUMPDEST PUSH1 0x1F NOT DUP4 AND DUP4 SUB DUP2 LT PUSH3 0x1A55 JUMPI POP POP PUSH1 0x5 SHR ADD SSTORE DUP1 DUP1 DUP1 PUSH3 0x10E3 JUMP JUMPDEST SWAP1 SWAP4 DUP5 MLOAD PUSH1 0x7 DUP2 LT ISZERO PUSH3 0x1635 JUMPI PUSH3 0x1A82 PUSH1 0x20 SWAP2 DUP5 PUSH1 0x1 SWAP5 SWAP1 PUSH1 0xFF DUP1 SWAP2 PUSH1 0x3 SHL SWAP4 AND DUP4 SHL SWAP3 SHL NOT AND OR SWAP1 JUMP JUMPDEST SWAP6 ADD SWAP2 ADD PUSH3 0x1A37 JUMP JUMPDEST PUSH1 0x0 DUP1 JUMPDEST PUSH1 0x20 DUP2 LT PUSH3 0x1AA7 JUMPI POP DUP4 DUP3 ADD SSTORE PUSH1 0x1 ADD PUSH3 0x10CA JUMP JUMPDEST SWAP5 SWAP1 DUP2 MLOAD PUSH1 0x7 DUP2 LT ISZERO PUSH3 0x1635 JUMPI PUSH3 0x1AD4 PUSH1 0x20 SWAP2 DUP9 PUSH1 0x1 SWAP5 SWAP1 PUSH1 0xFF DUP1 SWAP2 PUSH1 0x3 SHL SWAP4 AND DUP4 SHL SWAP3 SHL NOT AND OR SWAP1 JUMP JUMPDEST SWAP3 ADD SWAP6 ADD PUSH3 0x1A90 JUMP JUMPDEST PUSH3 0x1B10 SWAP1 DUP5 DUP8 ADD PUSH1 0x0 MSTORE PUSH1 0x1F DUP5 PUSH1 0x0 KECCAK256 SWAP2 DUP2 DUP9 AND DUP1 PUSH3 0x1B17 JUMPI JUMPDEST POP ADD PUSH1 0x5 SHR DUP2 ADD SWAP1 PUSH1 0x1F DUP8 ADD PUSH1 0x5 SHR ADD PUSH3 0x2B0A JUMP JUMPDEST DUP6 PUSH3 0x10BA JUMP JUMPDEST PUSH1 0x0 NOT SWAP1 DUP2 DUP5 DUP12 ADD PUSH1 0x5 SHR DUP7 ADD ADD SWAP2 DUP3 SLOAD SWAP2 DUP10 SUB PUSH1 0x3 SHL SHR AND SWAP1 SSTORE DUP10 PUSH3 0x1AFA JUMP JUMPDEST ADD MLOAD SWAP1 POP DUP6 DUP1 PUSH3 0x1066 JUMP JUMPDEST SWAP1 PUSH1 0x8 DUP6 ADD PUSH1 0x0 MSTORE PUSH1 0x20 PUSH1 0x0 KECCAK256 SWAP2 PUSH1 0x0 JUMPDEST PUSH1 0x1F NOT DUP6 AND DUP2 LT PUSH3 0x1BA5 JUMPI POP SWAP2 DUP4 SWAP2 PUSH1 0x1 SWAP4 PUSH2 0x120 SWAP7 SWAP6 PUSH1 0x1F NOT DUP2 AND LT PUSH3 0x1B8B JUMPI JUMPDEST POP POP POP DUP2 SHL ADD PUSH1 0x8 DUP5 ADD SSTORE PUSH3 0x107E JUMP JUMPDEST ADD MLOAD PUSH1 0x0 NOT PUSH1 0xF8 DUP5 PUSH1 0x3 SHL AND SHR NOT AND SWAP1 SSTORE DUP6 DUP1 DUP1 PUSH3 0x1B7A JUMP JUMPDEST SWAP2 SWAP3 PUSH1 0x20 PUSH1 0x1 DUP2 SWAP3 DUP7 DUP6 ADD MLOAD DUP2 SSTORE ADD SWAP5 ADD SWAP3 ADD PUSH3 0x1B56 JUMP JUMPDEST PUSH3 0x1BF0 SWAP1 PUSH1 0x8 DUP7 ADD PUSH1 0x0 MSTORE PUSH1 0x20 PUSH1 0x0 KECCAK256 PUSH1 0x1F DUP6 ADD PUSH1 0x5 SHR DUP2 ADD SWAP2 PUSH1 0x20 DUP7 LT PUSH3 0x17C5 JUMPI PUSH1 0x1F ADD PUSH1 0x5 SHR ADD SWAP1 PUSH3 0x2B0A JUMP JUMPDEST DUP5 PUSH3 0x1046 JUMP JUMPDEST SWAP1 PUSH1 0x7F AND SWAP1 PUSH3 0x1032 JUMP JUMPDEST ADD MLOAD SWAP1 POP DUP5 DUP1 PUSH3 0xFEE JUMP JUMPDEST PUSH1 0x7 DUP5 ADD PUSH1 0x0 MSTORE PUSH1 0x20 PUSH1 0x0 KECCAK256 SWAP1 PUSH1 0x0 JUMPDEST PUSH1 0x1F NOT DUP5 AND DUP2 LT PUSH3 0x1C68 JUMPI POP PUSH1 0x1 SWAP4 SWAP5 SWAP6 DUP4 PUSH1 0x1F NOT DUP2 AND LT PUSH3 0x1C4E JUMPI JUMPDEST POP POP POP DUP2 SHL ADD PUSH1 0x7 DUP4 ADD SSTORE PUSH3 0x1006 JUMP JUMPDEST ADD MLOAD PUSH1 0x0 NOT PUSH1 0xF8 DUP5 PUSH1 0x3 SHL AND SHR NOT AND SWAP1 SSTORE DUP5 DUP1 DUP1 PUSH3 0x1C3D JUMP JUMPDEST SWAP1 SWAP2 PUSH1 0x20 PUSH1 0x1 DUP2 SWAP3 DUP6 DUP11 ADD MLOAD DUP2 SSTORE ADD SWAP4 ADD SWAP2 ADD PUSH3 0x1C1E JUMP JUMPDEST PUSH3 0x1CB3 SWAP1 PUSH1 0x7 DUP6 ADD PUSH1 0x0 MSTORE PUSH1 0x20 PUSH1 0x0 KECCAK256 PUSH1 0x1F DUP5 ADD PUSH1 0x5 SHR DUP2 ADD SWAP2 PUSH1 0x20 DUP6 LT PUSH3 0x17C5 JUMPI PUSH1 0x1F ADD PUSH1 0x5 SHR ADD SWAP1 PUSH3 0x2B0A JUMP JUMPDEST DUP5 PUSH3 0xFD2 JUMP JUMPDEST SWAP1 PUSH1 0x7F AND SWAP1 PUSH3 0xFBE JUMP JUMPDEST PUSH1 0x1 SWAP1 PUSH1 0x20 DUP5 MLOAD SWAP5 ADD SWAP4 DUP2 DUP5 ADD SSTORE ADD PUSH3 0xF67 JUMP JUMPDEST PUSH3 0x1CF6 SWAP1 PUSH1 0x5 DUP7 ADD PUSH1 0x0 MSTORE DUP5 DUP5 PUSH1 0x0 KECCAK256 SWAP2 DUP3 ADD SWAP2 ADD PUSH3 0x2B0A JUMP JUMPDEST DUP6 PUSH3 0xF56 JUMP JUMPDEST ADD MLOAD SWAP1 POP DUP5 DUP1 PUSH3 0xEC5 JUMP JUMPDEST DUP3 PUSH1 0x0 MSTORE PUSH1 0x20 PUSH1 0x0 KECCAK256 SWAP1 PUSH1 0x0 JUMPDEST PUSH1 0x1F NOT DUP5 AND DUP2 LT PUSH3 0x1D5D JUMPI POP PUSH1 0x1 SWAP4 SWAP5 SWAP6 DUP4 PUSH1 0x1F NOT DUP2 AND LT PUSH3 0x1D43 JUMPI JUMPDEST POP POP POP DUP2 SHL ADD DUP2 SSTORE PUSH3 0xEDA JUMP JUMPDEST ADD MLOAD PUSH1 0x0 NOT PUSH1 0xF8 DUP5 PUSH1 0x3 SHL AND SHR NOT AND SWAP1 SSTORE DUP5 DUP1 DUP1 PUSH3 0x1D35 JUMP JUMPDEST SWAP1 SWAP2 PUSH1 0x20 PUSH1 0x1 DUP2 SWAP3 DUP6 DUP11 ADD MLOAD DUP2 SSTORE ADD SWAP4 ADD SWAP2 ADD PUSH3 0x1D16 JUMP JUMPDEST PUSH3 0x1DA5 SWAP1 DUP4 PUSH1 0x0 MSTORE PUSH1 0x20 PUSH1 0x0 KECCAK256 PUSH1 0x1F DUP5 ADD PUSH1 0x5 SHR DUP2 ADD SWAP2 PUSH1 0x20 DUP6 LT PUSH3 0x17C5 JUMPI PUSH1 0x1F ADD PUSH1 0x5 SHR ADD SWAP1 PUSH3 0x2B0A JUMP JUMPDEST DUP5 PUSH3 0xEA9 JUMP JUMPDEST SWAP1 PUSH1 0x7F AND SWAP1 PUSH3 0xE95 JUMP JUMPDEST PUSH20 0x3333333333333333333333333333333333333333 PUSH1 0x0 DUP2 DUP2 MSTORE PUSH1 0x0 DUP1 MLOAD PUSH1 0x20 PUSH3 0x6D75 DUP4 CODECOPY DUP2 MLOAD SWAP2 MSTORE PUSH1 0x20 MSTORE PUSH1 0x0 DUP1 MLOAD PUSH1 0x20 PUSH3 0x6DF5 DUP4 CODECOPY DUP2 MLOAD SWAP2 MSTORE DUP1 SLOAD PUSH1 0xFF NOT AND PUSH1 0x1 OR SWAP1 SSTORE CALLER SWAP2 SWAP1 PUSH1 0x0 DUP1 MLOAD PUSH1 0x20 PUSH3 0x6CF5 DUP4 CODECOPY DUP2 MLOAD SWAP2 MSTORE SWAP1 PUSH1 0x0 DUP1 MLOAD PUSH1 0x20 PUSH3 0x6CD5 DUP4 CODECOPY DUP2 MLOAD SWAP2 MSTORE SWAP1 DUP1 LOG4 PUSH3 0xD0E JUMP JUMPDEST PUSH1 0x0 SWAP3 PUSH1 0x0 JUMPDEST PUSH1 0x1F NOT DUP4 AND DUP4 SUB DUP2 LT PUSH3 0x1E50 JUMPI POP POP PUSH1 0x5 SHR ADD SSTORE DUP1 DUP1 DUP1 PUSH3 0xCC5 JUMP JUMPDEST SWAP1 SWAP4 DUP5 MLOAD PUSH1 0x7 DUP2 LT ISZERO PUSH3 0x1635 JUMPI PUSH3 0x1E7D PUSH1 0x20 SWAP2 DUP5 PUSH1 0x1 SWAP5 SWAP1 PUSH1 0xFF DUP1 SWAP2 PUSH1 0x3 SHL SWAP4 AND DUP4 SHL SWAP3 SHL NOT AND OR SWAP1 JUMP JUMPDEST SWAP6 ADD SWAP2 ADD PUSH3 0x1E32 JUMP JUMPDEST PUSH1 0x0 DUP1 JUMPDEST PUSH1 0x20 DUP2 LT PUSH3 0x1EA2 JUMPI POP DUP4 DUP3 ADD SSTORE PUSH1 0x1 ADD PUSH3 0xCAC JUMP JUMPDEST SWAP5 SWAP1 DUP2 MLOAD PUSH1 0x7 DUP2 LT ISZERO PUSH3 0x1635 JUMPI PUSH3 0x1ECF PUSH1 0x20 SWAP2 DUP9 PUSH1 0x1 SWAP5 SWAP1 PUSH1 0xFF DUP1 SWAP2 PUSH1 0x3 SHL SWAP4 AND DUP4 SHL SWAP3 SHL NOT AND OR SWAP1 JUMP JUMPDEST SWAP3 ADD SWAP6 ADD PUSH3 0x1E8B JUMP JUMPDEST PUSH3 0x1F0A SWAP1 DUP5 DUP8 ADD PUSH1 0x0 MSTORE PUSH1 0x1F DUP5 PUSH1 0x0 KECCAK256 SWAP2 DUP2 DUP9 AND DUP1 PUSH3 0x1B17 JUMPI POP ADD PUSH1 0x5 SHR DUP2 ADD SWAP1 PUSH1 0x1F DUP8 ADD PUSH1 0x5 SHR ADD PUSH3 0x2B0A JUMP JUMPDEST DUP6 PUSH3 0xC9C JUMP JUMPDEST ADD MLOAD SWAP1 POP DUP6 DUP1 PUSH3 0xC48 JUMP JUMPDEST SWAP1 PUSH1 0x8 DUP6 ADD PUSH1 0x0 MSTORE PUSH1 0x20 PUSH1 0x0 KECCAK256 SWAP2 PUSH1 0x0 JUMPDEST PUSH1 0x1F NOT DUP6 AND DUP2 LT PUSH3 0x1F7D JUMPI POP SWAP2 DUP4 SWAP2 PUSH1 0x1 SWAP4 PUSH2 0x120 SWAP7 SWAP6 PUSH1 0x1F NOT DUP2 AND LT PUSH3 0x1F63 JUMPI JUMPDEST POP POP POP DUP2 SHL ADD PUSH1 0x8 DUP5 ADD SSTORE PUSH3 0xC60 JUMP JUMPDEST ADD MLOAD PUSH1 0x0 NOT PUSH1 0xF8 DUP5 PUSH1 0x3 SHL AND SHR NOT AND SWAP1 SSTORE DUP6 DUP1 DUP1 PUSH3 0x1F52 JUMP JUMPDEST SWAP2 SWAP3 PUSH1 0x20 PUSH1 0x1 DUP2 SWAP3 DUP7 DUP6 ADD MLOAD DUP2 SSTORE ADD SWAP5 ADD SWAP3 ADD PUSH3 0x1F2E JUMP JUMPDEST PUSH3 0x1FC8 SWAP1 PUSH1 0x8 DUP7 ADD PUSH1 0x0 MSTORE PUSH1 0x20 PUSH1 0x0 KECCAK256 PUSH1 0x1F DUP6 ADD PUSH1 0x5 SHR DUP2 ADD SWAP2 PUSH1 0x20 DUP7 LT PUSH3 0x17C5 JUMPI PUSH1 0x1F ADD PUSH1 0x5 SHR ADD SWAP1 PUSH3 0x2B0A JUMP JUMPDEST DUP5 PUSH3 0xC28 JUMP JUMPDEST SWAP1 PUSH1 0x7F AND SWAP1 PUSH3 0xC14 JUMP JUMPDEST ADD MLOAD SWAP1 POP DUP5 DUP1 PUSH3 0xBD0 JUMP JUMPDEST PUSH1 0x7 DUP5 ADD PUSH1 0x0 MSTORE PUSH1 0x20 PUSH1 0x0 KECCAK256 SWAP1 PUSH1 0x0 JUMPDEST PUSH1 0x1F NOT DUP5 AND DUP2 LT PUSH3 0x2040 JUMPI POP PUSH1 0x1 SWAP4 SWAP5 SWAP6 DUP4 PUSH1 0x1F NOT DUP2 AND LT PUSH3 0x2026 JUMPI JUMPDEST POP POP POP DUP2 SHL ADD PUSH1 0x7 DUP4 ADD SSTORE PUSH3 0xBE8 JUMP JUMPDEST ADD MLOAD PUSH1 0x0 NOT PUSH1 0xF8 DUP5 PUSH1 0x3 SHL AND SHR NOT AND SWAP1 SSTORE DUP5 DUP1 DUP1 PUSH3 0x2015 JUMP JUMPDEST SWAP1 SWAP2 PUSH1 0x20 PUSH1 0x1 DUP2 SWAP3 DUP6 DUP11 ADD MLOAD DUP2 SSTORE ADD SWAP4 ADD SWAP2 ADD PUSH3 0x1FF6 JUMP JUMPDEST PUSH3 0x208B SWAP1 PUSH1 0x7 DUP6 ADD PUSH1 0x0 MSTORE PUSH1 0x20 PUSH1 0x0 KECCAK256 PUSH1 0x1F DUP5 ADD PUSH1 0x5 SHR DUP2 ADD SWAP2 PUSH1 0x20 DUP6 LT PUSH3 0x17C5 JUMPI PUSH1 0x1F ADD PUSH1 0x5 SHR ADD SWAP1 PUSH3 0x2B0A JUMP JUMPDEST DUP5 PUSH3 0xBB4 JUMP JUMPDEST SWAP1 PUSH1 0x7F AND SWAP1 PUSH3 0xBA0 JUMP JUMPDEST PUSH1 0x1 SWAP1 PUSH1 0x20 DUP5 MLOAD SWAP5 ADD SWAP4 DUP2 DUP5 ADD SSTORE ADD PUSH3 0xB49 JUMP JUMPDEST PUSH3 0x20CE SWAP1 PUSH1 0x5 DUP7 ADD PUSH1 0x0 MSTORE DUP5 DUP5 PUSH1 0x0 KECCAK256 SWAP2 DUP3 ADD SWAP2 ADD PUSH3 0x2B0A JUMP JUMPDEST DUP6 PUSH3 0xB38 JUMP JUMPDEST ADD MLOAD SWAP1 POP DUP5 DUP1 PUSH3 0xAA7 JUMP JUMPDEST DUP3 PUSH1 0x0 MSTORE PUSH1 0x20 PUSH1 0x0 KECCAK256 SWAP1 PUSH1 0x0 JUMPDEST PUSH1 0x1F NOT DUP5 AND DUP2 LT PUSH3 0x2135 JUMPI POP PUSH1 0x1 SWAP4 SWAP5 SWAP6 DUP4 PUSH1 0x1F NOT DUP2 AND LT PUSH3 0x211B JUMPI JUMPDEST POP POP POP DUP2 SHL ADD DUP2 SSTORE PUSH3 0xABC JUMP JUMPDEST ADD MLOAD PUSH1 0x0 NOT PUSH1 0xF8 DUP5 PUSH1 0x3 SHL AND SHR NOT AND SWAP1 SSTORE DUP5 DUP1 DUP1 PUSH3 0x210D JUMP JUMPDEST SWAP1 SWAP2 PUSH1 0x20 PUSH1 0x1 DUP2 SWAP3 DUP6 DUP11 ADD MLOAD DUP2 SSTORE ADD SWAP4 ADD SWAP2 ADD PUSH3 0x20EE JUMP JUMPDEST PUSH3 0x217D SWAP1 DUP4 PUSH1 0x0 MSTORE PUSH1 0x20 PUSH1 0x0 KECCAK256 PUSH1 0x1F DUP5 ADD PUSH1 0x5 SHR DUP2 ADD SWAP2 PUSH1 0x20 DUP6 LT PUSH3 0x17C5 JUMPI PUSH1 0x1F ADD PUSH1 0x5 SHR ADD SWAP1 PUSH3 0x2B0A JUMP JUMPDEST DUP5 PUSH3 0xA8B JUMP JUMPDEST SWAP1 PUSH1 0x7F AND SWAP1 PUSH3 0xA77 JUMP JUMPDEST PUSH20 0x2222222222222222222222222222222222222222 PUSH1 0x0 DUP2 DUP2 MSTORE PUSH1 0x0 DUP1 MLOAD PUSH1 0x20 PUSH3 0x6D75 DUP4 CODECOPY DUP2 MLOAD SWAP2 MSTORE PUSH1 0x20 MSTORE PUSH1 0x0 DUP1 MLOAD PUSH1 0x20 PUSH3 0x6DB5 DUP4 CODECOPY DUP2 MLOAD SWAP2 MSTORE DUP1 SLOAD PUSH1 0xFF NOT AND PUSH1 0x1 OR SWAP1 SSTORE CALLER SWAP2 SWAP1 PUSH1 0x0 DUP1 MLOAD PUSH1 0x20 PUSH3 0x6CF5 DUP4 CODECOPY DUP2 MLOAD SWAP2 MSTORE SWAP1 PUSH1 0x0 DUP1 MLOAD PUSH1 0x20 PUSH3 0x6CD5 DUP4 CODECOPY DUP2 MLOAD SWAP2 MSTORE SWAP1 DUP1 LOG4 PUSH3 0x8F7 JUMP JUMPDEST PUSH1 0x0 SWAP3 PUSH1 0x0 JUMPDEST PUSH1 0x1F NOT DUP4 AND DUP4 SUB DUP2 LT PUSH3 0x2228 JUMPI POP POP PUSH1 0x5 SHR ADD SSTORE DUP1 DUP1 DUP1 PUSH3 0x8AE JUMP JUMPDEST SWAP1 SWAP4 DUP5 MLOAD PUSH1 0x7 DUP2 LT ISZERO PUSH3 0x1635 JUMPI PUSH3 0x2255 PUSH1 0x20 SWAP2 DUP5 PUSH1 0x1 SWAP5 SWAP1 PUSH1 0xFF DUP1 SWAP2 PUSH1 0x3 SHL SWAP4 AND DUP4 SHL SWAP3 SHL NOT AND OR SWAP1 JUMP JUMPDEST SWAP6 ADD SWAP2 ADD PUSH3 0x220A JUMP JUMPDEST PUSH1 0x0 DUP1 JUMPDEST PUSH1 0x20 DUP2 LT PUSH3 0x227A JUMPI POP DUP4 DUP3 ADD SSTORE PUSH1 0x1 ADD PUSH3 0x895 JUMP JUMPDEST SWAP5 SWAP1 DUP2 MLOAD PUSH1 0x7 DUP2 LT ISZERO PUSH3 0x1635 JUMPI PUSH3 0x22A7 PUSH1 0x20 SWAP2 DUP9 PUSH1 0x1 SWAP5 SWAP1 PUSH1 0xFF DUP1 SWAP2 PUSH1 0x3 SHL SWAP4 AND DUP4 SHL SWAP3 SHL NOT AND OR SWAP1 JUMP JUMPDEST SWAP3 ADD SWAP6 ADD PUSH3 0x2263 JUMP JUMPDEST PUSH3 0x22E2 SWAP1 DUP5 DUP8 ADD PUSH1 0x0 MSTORE PUSH1 0x1F DUP5 PUSH1 0x0 KECCAK256 SWAP2 DUP2 DUP9 AND DUP1 PUSH3 0x1B17 JUMPI POP ADD PUSH1 0x5 SHR DUP2 ADD SWAP1 PUSH1 0x1F DUP8 ADD PUSH1 0x5 SHR ADD PUSH3 0x2B0A JUMP JUMPDEST DUP6 PUSH3 0x885 JUMP JUMPDEST ADD MLOAD SWAP1 POP DUP6 DUP1 PUSH3 0x831 JUMP JUMPDEST SWAP1 PUSH1 0x8 DUP6 ADD PUSH1 0x0 MSTORE PUSH1 0x20 PUSH1 0x0 KECCAK256 SWAP2 PUSH1 0x0 JUMPDEST PUSH1 0x1F NOT DUP6 AND DUP2 LT PUSH3 0x2355 JUMPI POP SWAP2 DUP4 SWAP2 PUSH1 0x1 SWAP4 PUSH2 0x120 SWAP7 SWAP6 PUSH1 0x1F NOT DUP2 AND LT PUSH3 0x233B JUMPI JUMPDEST POP POP POP DUP2 SHL ADD PUSH1 0x8 DUP5 ADD SSTORE PUSH3 0x849 JUMP JUMPDEST ADD MLOAD PUSH1 0x0 NOT PUSH1 0xF8 DUP5 PUSH1 0x3 SHL AND SHR NOT AND SWAP1 SSTORE DUP6 DUP1 DUP1 PUSH3 0x232A JUMP JUMPDEST SWAP2 SWAP3 PUSH1 0x20 PUSH1 0x1 DUP2 SWAP3 DUP7 DUP6 ADD MLOAD DUP2 SSTORE ADD SWAP5 ADD SWAP3 ADD PUSH3 0x2306 JUMP JUMPDEST PUSH3 0x23A0 SWAP1 PUSH1 0x8 DUP7 ADD PUSH1 0x0 MSTORE PUSH1 0x20 PUSH1 0x0 KECCAK256 PUSH1 0x1F DUP6 ADD PUSH1 0x5 SHR DUP2 ADD SWAP2 PUSH1 0x20 DUP7 LT PUSH3 0x17C5 JUMPI PUSH1 0x1F ADD PUSH1 0x5 SHR ADD SWAP1 PUSH3 0x2B0A JUMP JUMPDEST DUP5 PUSH3 0x811 JUMP JUMPDEST SWAP1 PUSH1 0x7F AND SWAP1 PUSH3 0x7FD JUMP JUMPDEST ADD MLOAD SWAP1 POP DUP5 DUP1 PUSH3 0x7B9 JUMP JUMPDEST PUSH1 0x7 DUP5 ADD PUSH1 0x0 MSTORE PUSH1 0x20 PUSH1 0x0 KECCAK256 SWAP1 PUSH1 0x0 JUMPDEST PUSH1 0x1F NOT DUP5 AND DUP2 LT PUSH3 0x2418 JUMPI POP PUSH1 0x1 SWAP4 SWAP5 SWAP6 DUP4 PUSH1 0x1F NOT DUP2 AND LT PUSH3 0x23FE JUMPI JUMPDEST POP POP POP DUP2 SHL ADD PUSH1 0x7 DUP4 ADD SSTORE PUSH3 0x7D1 JUMP JUMPDEST ADD MLOAD PUSH1 0x0 NOT PUSH1 0xF8 DUP5 PUSH1 0x3 SHL AND SHR NOT AND SWAP1 SSTORE DUP5 DUP1 DUP1 PUSH3 0x23ED JUMP JUMPDEST SWAP1 SWAP2 PUSH1 0x20 PUSH1 0x1 DUP2 SWAP3 DUP6 DUP11 ADD MLOAD DUP2 SSTORE ADD SWAP4 ADD SWAP2 ADD PUSH3 0x23CE JUMP JUMPDEST PUSH3 0x2463 SWAP1 PUSH1 0x7 DUP6 ADD PUSH1 0x0 MSTORE PUSH1 0x20 PUSH1 0x0 KECCAK256 PUSH1 0x1F DUP5 ADD PUSH1 0x5 SHR DUP2 ADD SWAP2 PUSH1 0x20 DUP6 LT PUSH3 0x17C5 JUMPI PUSH1 0x1F ADD PUSH1 0x5 SHR ADD SWAP1 PUSH3 0x2B0A JUMP JUMPDEST DUP5 PUSH3 0x79D JUMP JUMPDEST SWAP1 PUSH1 0x7F AND SWAP1 PUSH3 0x789 JUMP JUMPDEST PUSH1 0x1 SWAP1 PUSH1 0x20 DUP5 MLOAD SWAP5 ADD SWAP4 DUP2 DUP5 ADD SSTORE ADD PUSH3 0x732 JUMP JUMPDEST PUSH3 0x24A6 SWAP1 PUSH1 0x5 DUP7 ADD PUSH1 0x0 MSTORE DUP5 DUP5 PUSH1 0x0 KECCAK256 SWAP2 DUP3 ADD SWAP2 ADD PUSH3 0x2B0A JUMP JUMPDEST DUP6 PUSH3 0x721 JUMP JUMPDEST ADD MLOAD SWAP1 POP DUP5 DUP1 PUSH3 0x690 JUMP JUMPDEST DUP3 PUSH1 0x0 MSTORE PUSH1 0x20 PUSH1 0x0 KECCAK256 SWAP1 PUSH1 0x0 JUMPDEST PUSH1 0x1F NOT DUP5 AND DUP2 LT PUSH3 0x250D JUMPI POP PUSH1 0x1 SWAP4 SWAP5 SWAP6 DUP4 PUSH1 0x1F NOT DUP2 AND LT PUSH3 0x24F3 JUMPI JUMPDEST POP POP POP DUP2 SHL ADD DUP2 SSTORE PUSH3 0x6A5 JUMP JUMPDEST ADD MLOAD PUSH1 0x0 NOT PUSH1 0xF8 DUP5 PUSH1 0x3 SHL AND SHR NOT AND SWAP1 SSTORE DUP5 DUP1 DUP1 PUSH3 0x24E5 JUMP JUMPDEST SWAP1 SWAP2 PUSH1 0x20 PUSH1 0x1 DUP2 SWAP3 DUP6 DUP11 ADD MLOAD DUP2 SSTORE ADD SWAP4 ADD SWAP2 ADD PUSH3 0x24C6 JUMP JUMPDEST PUSH3 0x2555 SWAP1 DUP4 PUSH1 0x0 MSTORE PUSH1 0x20 PUSH1 0x0 KECCAK256 PUSH1 0x1F DUP5 ADD PUSH1 0x5 SHR DUP2 ADD SWAP2 PUSH1 0x20 DUP6 LT PUSH3 0x17C5 JUMPI PUSH1 0x1F ADD PUSH1 0x5 SHR ADD SWAP1 PUSH3 0x2B0A JUMP JUMPDEST DUP5 PUSH3 0x674 JUMP JUMPDEST SWAP1 PUSH1 0x7F AND SWAP1 PUSH3 0x660 JUMP JUMPDEST PUSH20 0x1111111111111111111111111111111111111111 PUSH1 0x0 DUP2 DUP2 MSTORE PUSH1 0x0 DUP1 MLOAD PUSH1 0x20 PUSH3 0x6D75 DUP4 CODECOPY DUP2 MLOAD SWAP2 MSTORE PUSH1 0x20 MSTORE PUSH1 0x0 DUP1 MLOAD PUSH1 0x20 PUSH3 0x6D55 DUP4 CODECOPY DUP2 MLOAD SWAP2 MSTORE DUP1 SLOAD PUSH1 0xFF NOT AND PUSH1 0x1 OR SWAP1 SSTORE CALLER SWAP2 SWAP1 PUSH1 0x0 DUP1 MLOAD PUSH1 0x20 PUSH3 0x6CF5 DUP4 CODECOPY DUP2 MLOAD SWAP2 MSTORE SWAP1 PUSH1 0x0 DUP1 MLOAD PUSH1 0x20 PUSH3 0x6CD5 DUP4 CODECOPY DUP2 MLOAD SWAP2 MSTORE SWAP1 DUP1 LOG4 PUSH3 0x4DA JUMP JUMPDEST PUSH1 0x0 SWAP3 PUSH1 0x0 JUMPDEST PUSH1 0x1F NOT DUP4 AND DUP4 SUB DUP2 LT PUSH3 0x2600 JUMPI POP POP PUSH1 0x5 SHR ADD SSTORE DUP1 DUP1 DUP1 PUSH3 0x491 JUMP JUMPDEST SWAP1 SWAP4 DUP5 MLOAD PUSH1 0x7 DUP2 LT ISZERO PUSH3 0x1635 JUMPI PUSH3 0x262D PUSH1 0x20 SWAP2 DUP5 PUSH1 0x1 SWAP5 SWAP1 PUSH1 0xFF DUP1 SWAP2 PUSH1 0x3 SHL SWAP4 AND DUP4 SHL SWAP3 SHL NOT AND OR SWAP1 JUMP JUMPDEST SWAP6 ADD SWAP2 ADD PUSH3 0x25E2 JUMP JUMPDEST PUSH1 0x0 DUP1 JUMPDEST PUSH1 0x20 DUP2 LT PUSH3 0x2652 JUMPI POP DUP4 DUP3 ADD SSTORE PUSH1 0x1 ADD PUSH3 0x478 JUMP JUMPDEST SWAP5 SWAP1 DUP2 MLOAD PUSH1 0x7 DUP2 LT ISZERO PUSH3 0x1635 JUMPI PUSH3 0x267F PUSH1 0x20 SWAP2 DUP9 PUSH1 0x1 SWAP5 SWAP1 PUSH1 0xFF DUP1 SWAP2 PUSH1 0x3 SHL SWAP4 AND DUP4 SHL SWAP3 SHL NOT AND OR SWAP1 JUMP JUMPDEST SWAP3 ADD SWAP6 ADD PUSH3 0x263B JUMP JUMPDEST PUSH3 0x26BA SWAP1 DUP5 DUP8 ADD PUSH1 0x0 MSTORE PUSH1 0x1F DUP5 PUSH1 0x0 KECCAK256 SWAP2 DUP2 DUP9 AND DUP1 PUSH3 0x1B17 JUMPI POP ADD PUSH1 0x5 SHR DUP2 ADD SWAP1 PUSH1 0x1F DUP8 ADD PUSH1 0x5 SHR ADD PUSH3 0x2B0A JUMP JUMPDEST DUP6 PUSH3 0x468 JUMP JUMPDEST ADD MLOAD SWAP1 POP DUP6 DUP1 PUSH3 0x414 JUMP JUMPDEST SWAP1 PUSH1 0x8 DUP6 ADD PUSH1 0x0 MSTORE PUSH1 0x20 PUSH1 0x0 KECCAK256 SWAP2 PUSH1 0x0 JUMPDEST PUSH1 0x1F NOT DUP6 AND DUP2 LT PUSH3 0x272D JUMPI POP SWAP2 DUP4 SWAP2 PUSH1 0x1 SWAP4 PUSH2 0x120 SWAP7 SWAP6 PUSH1 0x1F NOT DUP2 AND LT PUSH3 0x2713 JUMPI JUMPDEST POP POP POP DUP2 SHL ADD PUSH1 0x8 DUP5 ADD SSTORE PUSH3 0x42C JUMP JUMPDEST ADD MLOAD PUSH1 0x0 NOT PUSH1 0xF8 DUP5 PUSH1 0x3 SHL AND SHR NOT AND SWAP1 SSTORE DUP6 DUP1 DUP1 PUSH3 0x2702 JUMP JUMPDEST SWAP2 SWAP3 PUSH1 0x20 PUSH1 0x1 DUP2 SWAP3 DUP7 DUP6 ADD MLOAD DUP2 SSTORE ADD SWAP5 ADD SWAP3 ADD PUSH3 0x26DE JUMP JUMPDEST PUSH3 0x2778 SWAP1 PUSH1 0x8 DUP7 ADD PUSH1 0x0 MSTORE PUSH1 0x20 PUSH1 0x0 KECCAK256 PUSH1 0x1F DUP6 ADD PUSH1 0x5 SHR DUP2 ADD SWAP2 PUSH1 0x20 DUP7 LT PUSH3 0x17C5 JUMPI PUSH1 0x1F ADD PUSH1 0x5 SHR ADD SWAP1 PUSH3 0x2B0A JUMP JUMPDEST DUP5 PUSH3 0x3F4 JUMP JUMPDEST SWAP1 PUSH1 0x7F AND SWAP1 PUSH3 0x3E0 JUMP JUMPDEST ADD MLOAD SWAP1 POP DUP5 DUP1 PUSH3 0x39C JUMP JUMPDEST PUSH1 0x7 DUP5 ADD PUSH1 0x0 MSTORE PUSH1 0x20 PUSH1 0x0 KECCAK256 SWAP1 PUSH1 0x0 JUMPDEST PUSH1 0x1F NOT DUP5 AND DUP2 LT PUSH3 0x27F0 JUMPI POP PUSH1 0x1 SWAP4 SWAP5 SWAP6 DUP4 PUSH1 0x1F NOT DUP2 AND LT PUSH3 0x27D6 JUMPI JUMPDEST POP POP POP DUP2 SHL ADD PUSH1 0x7 DUP4 ADD SSTORE PUSH3 0x3B4 JUMP JUMPDEST ADD MLOAD PUSH1 0x0 NOT PUSH1 0xF8 DUP5 PUSH1 0x3 SHL AND SHR NOT AND SWAP1 SSTORE DUP5 DUP1 DUP1 PUSH3 0x27C5 JUMP JUMPDEST SWAP1 SWAP2 PUSH1 0x20 PUSH1 0x1 DUP2 SWAP3 DUP6 DUP11 ADD MLOAD DUP2 SSTORE ADD SWAP4 ADD SWAP2 ADD PUSH3 0x27A6 JUMP JUMPDEST PUSH3 0x283B SWAP1 PUSH1 0x7 DUP6 ADD PUSH1 0x0 MSTORE PUSH1 0x20 PUSH1 0x0 KECCAK256 PUSH1 0x1F DUP5 ADD PUSH1 0x5 SHR DUP2 ADD SWAP2 PUSH1 0x20 DUP6 LT PUSH3 0x17C5 JUMPI PUSH1 0x1F ADD PUSH1 0x5 SHR ADD SWAP1 PUSH3 0x2B0A JUMP JUMPDEST DUP5 PUSH3 0x380 JUMP JUMPDEST SWAP1 PUSH1 0x7F AND SWAP1 PUSH3 0x36C JUMP JUMPDEST PUSH1 0x1 SWAP1 PUSH1 0x20 DUP5 MLOAD SWAP5 ADD SWAP4 DUP2 DUP5 ADD SSTORE ADD PUSH3 0x315 JUMP JUMPDEST PUSH3 0x287E SWAP1 PUSH1 0x5 DUP7 ADD PUSH1 0x0 MSTORE DUP5 DUP5 PUSH1 0x0 KECCAK256 SWAP2 DUP3 ADD SWAP2 ADD PUSH3 0x2B0A JUMP JUMPDEST CODESIZE PUSH3 0x304 JUMP JUMPDEST ADD MLOAD SWAP1 POP CODESIZE DUP1 PUSH3 0x272 JUMP JUMPDEST DUP3 PUSH1 0x0 MSTORE PUSH1 0x20 PUSH1 0x0 KECCAK256 SWAP1 PUSH1 0x0 JUMPDEST PUSH1 0x1F NOT DUP5 AND DUP2 LT PUSH3 0x28E5 JUMPI POP PUSH1 0x1 SWAP4 SWAP5 SWAP6 DUP4 PUSH1 0x1F NOT DUP2 AND LT PUSH3 0x28CB JUMPI JUMPDEST POP POP POP DUP2 SHL ADD DUP2 SSTORE PUSH3 0x287 JUMP JUMPDEST ADD MLOAD PUSH1 0x0 NOT PUSH1 0xF8 DUP5 PUSH1 0x3 SHL AND SHR NOT AND SWAP1 SSTORE CODESIZE DUP1 DUP1 PUSH3 0x28BD JUMP JUMPDEST SWAP1 SWAP2 PUSH1 0x20 PUSH1 0x1 DUP2 SWAP3 DUP6 DUP11 ADD MLOAD DUP2 SSTORE ADD SWAP4 ADD SWAP2 ADD PUSH3 0x289E JUMP JUMPDEST PUSH3 0x292D SWAP1 DUP4 PUSH1 0x0 MSTORE PUSH1 0x20 PUSH1 0x0 KECCAK256 PUSH1 0x1F DUP5 ADD PUSH1 0x5 SHR DUP2 ADD SWAP2 PUSH1 0x20 DUP6 LT PUSH3 0x17C5 JUMPI PUSH1 0x1F ADD PUSH1 0x5 SHR ADD SWAP1 PUSH3 0x2B0A JUMP JUMPDEST CODESIZE PUSH3 0x256 JUMP JUMPDEST SWAP1 PUSH1 0x7F AND SWAP1 PUSH3 0x242 JUMP JUMPDEST DUP1 PUSH1 0x0 MSTORE PUSH1 0x0 PUSH1 0x20 MSTORE PUSH1 0x40 PUSH1 0x0 KECCAK256 CALLER PUSH1 0x0 MSTORE PUSH1 0x20 MSTORE PUSH1 0x40 PUSH1 0x0 KECCAK256 PUSH1 0x1 PUSH1 0xFF NOT DUP3 SLOAD AND OR SWAP1 SSTORE CALLER SWAP1 CALLER SWAP1 PUSH1 0x0 DUP1 MLOAD PUSH1 0x20 PUSH3 0x6CD5 DUP4 CODECOPY DUP2 MLOAD SWAP2 MSTORE PUSH1 0x0 DUP1 LOG4 CODESIZE PUSH3 0x119 JUMP JUMPDEST CALLER PUSH1 0x0 DUP2 DUP2 MSTORE PUSH1 0x0 DUP1 MLOAD PUSH1 0x20 PUSH3 0x6DD5 DUP4 CODECOPY DUP2 MLOAD SWAP2 MSTORE PUSH1 0x20 MSTORE PUSH1 0x40 DUP2 KECCAK256 DUP1 SLOAD PUSH1 0xFF NOT AND PUSH1 0x1 OR SWAP1 SSTORE DUP2 SWAP1 PUSH1 0x0 DUP1 MLOAD PUSH1 0x20 PUSH3 0x6CD5 DUP4 CODECOPY DUP2 MLOAD SWAP2 MSTORE DUP2 DUP1 LOG4 PUSH3 0xBE JUMP JUMPDEST PUSH1 0x40 MLOAD PUSH3 0x461BCD PUSH1 0xE5 SHL DUP2 MSTORE PUSH1 0x20 PUSH1 0x4 DUP3 ADD MSTORE PUSH1 0x15 PUSH1 0x24 DUP3 ADD MSTORE PUSH32 0x496E76616C69642066656520726563697069656E740000000000000000000000 PUSH1 0x44 DUP3 ADD MSTORE PUSH1 0x64 SWAP1 REVERT JUMPDEST PUSH1 0x40 MLOAD PUSH3 0x461BCD PUSH1 0xE5 SHL DUP2 MSTORE PUSH1 0x20 PUSH1 0x4 DUP3 ADD MSTORE PUSH1 0x1A PUSH1 0x24 DUP3 ADD MSTORE PUSH32 0x496E76616C696420636C61737369666965722061646472657373000000000000 PUSH1 0x44 DUP3 ADD MSTORE PUSH1 0x64 SWAP1 REVERT JUMPDEST PUSH1 0x0 DUP1 REVERT JUMPDEST PUSH1 0x40 MLOAD SWAP1 PUSH2 0x140 DUP3 ADD PUSH1 0x1 PUSH1 0x1 PUSH1 0x40 SHL SUB DUP2 GT DUP4 DUP3 LT OR PUSH3 0x16EE JUMPI PUSH1 0x40 MSTORE JUMP JUMPDEST PUSH1 0x40 DUP1 MLOAD SWAP2 SWAP1 DUP3 ADD PUSH1 0x1 PUSH1 0x1 PUSH1 0x40 SHL SUB DUP2 GT DUP4 DUP3 LT OR PUSH3 0x16EE JUMPI PUSH1 0x40 MSTORE JUMP JUMPDEST PUSH1 0x40 MLOAD SWAP1 PUSH1 0x60 DUP3 ADD PUSH1 0x1 PUSH1 0x1 PUSH1 0x40 SHL SUB DUP2 GT DUP4 DUP3 LT OR PUSH3 0x16EE JUMPI PUSH1 0x40 MSTORE JUMP JUMPDEST PUSH1 0x40 MLOAD SWAP1 PUSH1 0x20 DUP3 ADD PUSH1 0x1 PUSH1 0x1 PUSH1 0x40 SHL SUB DUP2 GT DUP4 DUP3 LT OR PUSH3 0x16EE JUMPI PUSH1 0x40 MSTORE JUMP JUMPDEST MLOAD SWAP1 PUSH1 0x1 PUSH1 0x1 PUSH1 0xA0 SHL SUB DUP3 AND DUP3 SUB PUSH3 0x2A50 JUMPI JUMP JUMPDEST DUP1 MLOAD ISZERO PUSH3 0x19A6 JUMPI PUSH1 0x20 ADD SWAP1 JUMP JUMPDEST DUP1 MLOAD PUSH1 0x1 LT ISZERO PUSH3 0x19A6 JUMPI PUSH1 0x40 ADD SWAP1 JUMP JUMPDEST DUP2 DUP2 LT PUSH3 0x2B16 JUMPI POP POP JUMP JUMPDEST PUSH1 0x0 DUP2 SSTORE PUSH1 0x1 ADD PUSH3 0x2B0A JUMP INVALID PUSH2 0x180 DUP1 PUSH1 0x40 MSTORE PUSH1 0x4 CALLDATASIZE LT ISZERO PUSH2 0x14 JUMPI PUSH1 0x0 DUP1 REVERT JUMPDEST PUSH1 0x0 SWAP1 DUP2 CALLDATALOAD PUSH1 0xE0 SHR SWAP1 DUP2 PUSH4 0x1FFC9A7 EQ PUSH2 0x39FE JUMPI POP DUP1 PUSH4 0x7A873B2 EQ PUSH2 0x2F0E JUMPI DUP1 PUSH4 0xDED369B EQ PUSH2 0x2B50 JUMPI DUP1 PUSH4 0x13CD1C35 EQ PUSH2 0x1838 JUMPI DUP1 PUSH4 0x1C91ECB6 EQ PUSH2 0x2B32 JUMPI DUP1 PUSH4 0x1CD90ADC EQ PUSH2 0x2AED JUMPI DUP1 PUSH4 0x248A9CA3 EQ PUSH2 0x2AC1 JUMPI DUP1 PUSH4 0x2630D318 EQ PUSH2 0x25A5 JUMPI DUP1 PUSH4 0x2F2FF15D EQ PUSH2 0x24EE JUMPI DUP1 PUSH4 0x36568ABE EQ PUSH2 0x245B JUMPI DUP1 PUSH4 0x3A6C3632 EQ PUSH2 0x2395 JUMPI DUP1 PUSH4 0x46904840 EQ PUSH2 0x236C JUMPI DUP1 PUSH4 0x47E64656 EQ PUSH2 0x2331 JUMPI DUP1 PUSH4 0x61FD5C20 EQ PUSH2 0x2261 JUMPI DUP1 PUSH4 0x64900F5F EQ PUSH2 0x18EC JUMPI DUP1 PUSH4 0x75794A3C EQ PUSH2 0x18CE JUMPI DUP1 PUSH4 0x7CF00F63 EQ PUSH2 0x1885 JUMPI DUP1 PUSH4 0x8807379F EQ PUSH2 0x1838 JUMPI DUP1 PUSH4 0x8E61C67A EQ PUSH2 0x17F4 JUMPI DUP1 PUSH4 0x9103A0E0 EQ PUSH2 0x17B9 JUMPI DUP1 PUSH4 0x91D14854 EQ PUSH2 0x176E JUMPI DUP1 PUSH4 0x91F83CF1 EQ PUSH2 0x4E4 JUMPI DUP1 PUSH4 0xA217FDDF EQ PUSH2 0x4C8 JUMPI DUP1 PUSH4 0xCA5C5007 EQ PUSH2 0x4AA JUMPI DUP1 PUSH4 0xCA82A014 EQ PUSH2 0x471 JUMPI DUP1 PUSH4 0xD547741F EQ PUSH2 0x431 JUMPI DUP1 PUSH4 0xDBD0B271 EQ PUSH2 0x3DA JUMPI DUP1 PUSH4 0xF809ABAB EQ PUSH2 0x181 JUMPI PUSH4 0xFF3A3C25 EQ PUSH2 0x161 JUMPI PUSH1 0x0 DUP1 REVERT JUMPDEST CALLVALUE PUSH2 0x17E JUMPI DUP1 PUSH1 0x3 NOT CALLDATASIZE ADD SLT PUSH2 0x17E JUMPI PUSH1 0x20 PUSH1 0x8 SLOAD PUSH1 0x40 MLOAD SWAP1 DUP2 MSTORE RETURN JUMPDEST DUP1 REVERT JUMPDEST POP CALLVALUE PUSH2 0x17E JUMPI PUSH1 0x20 CALLDATASIZE PUSH1 0x3 NOT ADD SLT PUSH2 0x17E JUMPI PUSH1 0x4 CALLDATALOAD DUP2 MSTORE PUSH1 0x2 PUSH1 0x20 MSTORE PUSH1 0x40 SWAP1 KECCAK256 DUP1 SLOAD PUSH1 0x1 PUSH1 0x1 PUSH1 0xA0 SHL SUB SWAP2 SWAP1 DUP3 AND PUSH2 0x1BB PUSH1 0x1 DUP4 ADD PUSH2 0x3C3A JUMP JUMPDEST PUSH1 0x80 MSTORE PUSH2 0x1CA PUSH1 0x2 DUP4 ADD PUSH2 0x3C3A JUMP JUMPDEST PUSH1 0xA0 MSTORE PUSH1 0x3 DUP3 ADD SLOAD SWAP3 PUSH1 0x4 DUP4 ADD SLOAD PUSH1 0xE0 MSTORE PUSH1 0x5 DUP4 ADD SLOAD SWAP4 PUSH1 0x6 DUP5 ADD SLOAD SWAP2 PUSH1 0x7 DUP6 ADD SLOAD SWAP2 PUSH1 0x8 DUP7 ADD SLOAD PUSH1 0x9 DUP8 ADD SLOAD SWAP1 PUSH1 0xA DUP9 ADD PUSH2 0x205 SWAP1 PUSH2 0x3C3A JUMP JUMPDEST SWAP4 PUSH1 0xB DUP10 ADD SLOAD AND SWAP5 PUSH1 0xC DUP10 ADD PUSH2 0x21A SWAP1 PUSH2 0x3C3A JUMP JUMPDEST SWAP7 PUSH1 0xD DUP11 ADD SLOAD PUSH1 0xFF AND PUSH1 0xC0 MSTORE PUSH1 0xE DUP11 ADD SLOAD SWAP11 PUSH1 0xF DUP12 ADD SLOAD SWAP10 PUSH1 0x10 DUP13 ADD SLOAD PUSH1 0xFF AND SWAP12 PUSH1 0x11 DUP2 ADD PUSH2 0x248 SWAP1 PUSH2 0x3C3A JUMP JUMPDEST PUSH2 0x100 MSTORE PUSH1 0x12 DUP2 ADD SLOAD PUSH2 0x160 MSTORE PUSH1 0x13 ADD PUSH2 0x261 SWAP1 PUSH2 0x3C3A JUMP JUMPDEST PUSH2 0x120 MSTORE PUSH1 0x40 MLOAD DUP1 PUSH2 0x140 MSTORE MSTORE PUSH2 0x2C0 DUP1 PUSH2 0x140 MLOAD PUSH1 0x20 ADD MSTORE PUSH2 0x140 MLOAD ADD PUSH1 0x80 MLOAD SWAP1 PUSH2 0x28C SWAP2 PUSH2 0x3B94 JUMP JUMPDEST PUSH2 0x140 MLOAD DUP1 DUP3 SUB SWAP1 PUSH1 0x40 ADD MSTORE PUSH1 0xA0 MLOAD SWAP1 PUSH2 0x2A5 SWAP2 PUSH2 0x3B94 JUMP JUMPDEST SWAP6 PUSH2 0x140 MLOAD PUSH1 0x60 ADD MSTORE PUSH1 0xE0 MLOAD PUSH2 0x140 MLOAD PUSH1 0x80 ADD MSTORE PUSH2 0x140 MLOAD PUSH1 0xA0 ADD MSTORE PUSH2 0x140 MLOAD PUSH1 0xC0 ADD MSTORE PUSH2 0x140 MLOAD PUSH1 0xE0 ADD MSTORE PUSH2 0x140 MLOAD PUSH2 0x100 ADD MSTORE PUSH2 0x140 MLOAD PUSH2 0x120 ADD PUSH1 0xFF DUP3 AND SWAP1 PUSH2 0x2F0 SWAP2 PUSH2 0x3BB9 JUMP JUMPDEST DUP1 PUSH1 0x8 SHR PUSH1 0xFF AND PUSH2 0x300 DUP2 PUSH2 0x3BDC JUMP JUMPDEST PUSH2 0x140 MLOAD PUSH2 0x140 ADD MSTORE PUSH2 0x140 MLOAD PUSH2 0x160 ADD SWAP1 PUSH1 0x10 SHR PUSH1 0xFF AND SWAP1 PUSH2 0x322 SWAP2 PUSH2 0x3BE6 JUMP JUMPDEST PUSH2 0x140 MLOAD DUP1 DUP3 SUB SWAP1 PUSH2 0x180 ADD MSTORE PUSH2 0x338 SWAP2 PUSH2 0x3B94 JUMP JUMPDEST SWAP1 PUSH2 0x140 MLOAD PUSH2 0x1A0 ADD MSTORE PUSH2 0x140 MLOAD DUP1 DUP3 SUB SWAP1 PUSH2 0x1C0 ADD MSTORE PUSH2 0x358 SWAP2 PUSH2 0x3B94 JUMP JUMPDEST SWAP3 PUSH2 0x140 MLOAD PUSH2 0x1E0 ADD PUSH1 0xC0 MLOAD SWAP1 PUSH2 0x36E SWAP2 PUSH2 0x3BF3 JUMP JUMPDEST PUSH2 0x140 MLOAD PUSH2 0x200 ADD MSTORE PUSH2 0x140 MLOAD PUSH2 0x220 ADD MSTORE ISZERO ISZERO PUSH2 0x140 MLOAD PUSH2 0x240 ADD MSTORE PUSH2 0x140 MLOAD DUP1 DUP3 SUB SWAP1 PUSH2 0x260 ADD MSTORE PUSH2 0x100 MLOAD SWAP1 PUSH2 0x3A6 SWAP2 PUSH2 0x3B94 JUMP JUMPDEST PUSH2 0x160 MLOAD PUSH2 0x140 MLOAD PUSH2 0x280 ADD MSTORE PUSH2 0x140 MLOAD DUP1 DUP3 SUB SWAP1 PUSH2 0x2A0 ADD MSTORE PUSH2 0x140 MLOAD SWAP1 PUSH2 0x120 MLOAD SWAP1 PUSH2 0x3D3 SWAP2 PUSH2 0x3B94 JUMP JUMPDEST SUB PUSH2 0x140 MLOAD RETURN JUMPDEST POP CALLVALUE PUSH2 0x17E JUMPI PUSH1 0x20 CALLDATASIZE PUSH1 0x3 NOT ADD SLT PUSH2 0x17E JUMPI PUSH2 0x42D SWAP1 PUSH2 0x419 SWAP1 PUSH1 0x5 SWAP1 PUSH1 0x40 SWAP1 PUSH1 0x1 PUSH1 0x1 PUSH1 0xA0 SHL SUB PUSH2 0x40A PUSH2 0x3A53 JUMP JUMPDEST AND DUP2 MSTORE PUSH1 0x4 PUSH1 0x20 MSTORE KECCAK256 ADD PUSH2 0x412C JUMP JUMPDEST PUSH1 0x40 MLOAD SWAP2 DUP3 SWAP2 PUSH1 0x20 DUP4 MSTORE PUSH1 0x20 DUP4 ADD SWAP1 PUSH2 0x3CE0 JUMP JUMPDEST SUB SWAP1 RETURN JUMPDEST POP CALLVALUE PUSH2 0x17E JUMPI PUSH1 0x40 CALLDATASIZE PUSH1 0x3 NOT ADD SLT PUSH2 0x17E JUMPI PUSH2 0x46E PUSH1 0x4 CALLDATALOAD PUSH2 0x451 PUSH2 0x3A6E JUMP JUMPDEST SWAP1 DUP1 DUP5 MSTORE DUP4 PUSH1 0x20 MSTORE PUSH2 0x469 PUSH1 0x1 PUSH1 0x40 DUP7 KECCAK256 ADD SLOAD PUSH2 0x3D4B JUMP JUMPDEST PUSH2 0x3EC2 JUMP JUMPDEST DUP1 RETURN JUMPDEST POP CALLVALUE PUSH2 0x17E JUMPI PUSH1 0x20 CALLDATASIZE PUSH1 0x3 NOT ADD SLT PUSH2 0x17E JUMPI PUSH1 0x20 SWAP1 PUSH1 0x40 SWAP1 PUSH1 0x1 PUSH1 0x1 PUSH1 0xA0 SHL SUB PUSH2 0x499 PUSH2 0x3A53 JUMP JUMPDEST AND DUP2 MSTORE PUSH1 0x3 DUP4 MSTORE KECCAK256 SLOAD PUSH1 0x40 MLOAD SWAP1 DUP2 MSTORE RETURN JUMPDEST POP CALLVALUE PUSH2 0x17E JUMPI DUP1 PUSH1 0x3 NOT CALLDATASIZE ADD SLT PUSH2 0x17E JUMPI PUSH1 0x20 PUSH1 0xA SLOAD PUSH1 0x40 MLOAD SWAP1 DUP2 MSTORE RETURN JUMPDEST POP CALLVALUE PUSH2 0x17E JUMPI DUP1 PUSH1 0x3 NOT CALLDATASIZE ADD SLT PUSH2 0x17E JUMPI PUSH1 0x20 SWAP1 PUSH1 0x40 MLOAD SWAP1 DUP2 MSTORE RETURN JUMPDEST POP CALLVALUE PUSH2 0x17E JUMPI PUSH2 0x180 CALLDATASIZE PUSH1 0x3 NOT ADD SLT PUSH2 0x17E JUMPI PUSH1 0x4 CALLDATALOAD PUSH1 0x1 PUSH1 0x1 PUSH1 0x40 SHL SUB DUP2 GT PUSH2 0x176A JUMPI PUSH2 0x516 SWAP1 CALLDATASIZE SWAP1 PUSH1 0x4 ADD PUSH2 0x3B13 JUMP JUMPDEST SWAP1 PUSH1 0x24 CALLDATALOAD PUSH1 0x1 PUSH1 0x1 PUSH1 0x40 SHL SUB DUP2 GT PUSH2 0x176A JUMPI PUSH2 0x536 SWAP1 CALLDATASIZE SWAP1 PUSH1 0x4 ADD PUSH2 0x3B13 JUMP JUMPDEST PUSH1 0x6 PUSH1 0x84 CALLDATALOAD LT ISZERO PUSH2 0x176A JUMPI PUSH1 0x7 PUSH1 0xA4 CALLDATALOAD LT ISZERO PUSH2 0x176A JUMPI PUSH1 0xC4 CALLDATALOAD PUSH1 0x1 PUSH1 0x1 PUSH1 0x40 SHL SUB DUP2 GT PUSH2 0x1766 JUMPI PUSH2 0x56B SWAP1 CALLDATASIZE SWAP1 PUSH1 0x4 ADD PUSH2 0x3B13 JUMP JUMPDEST SWAP2 PUSH2 0x144 CALLDATALOAD PUSH1 0x1 PUSH1 0x1 PUSH1 0x40 SHL SUB DUP2 GT PUSH2 0x176A JUMPI PUSH2 0x58C SWAP1 CALLDATASIZE SWAP1 PUSH1 0x4 ADD PUSH2 0x3B13 JUMP JUMPDEST SWAP2 PUSH2 0x164 CALLDATALOAD PUSH1 0x1 PUSH1 0x1 PUSH1 0x40 SHL SUB DUP2 GT PUSH2 0x1766 JUMPI PUSH2 0x5AD SWAP1 CALLDATASIZE SWAP1 PUSH1 0x4 ADD PUSH2 0x3B13 JUMP JUMPDEST CALLER PUSH1 0x0 SWAP1 DUP2 MSTORE PUSH32 0xCF0E2FEE954C1B210B650A2CEE16F85C2D817015D3803A8D10B7D7ECE2D53212 PUSH1 0x20 MSTORE PUSH1 0x40 SWAP1 KECCAK256 SLOAD SWAP1 SWAP2 SWAP1 PUSH1 0xFF AND ISZERO PUSH2 0x15C6 JUMPI PUSH11 0x422CA8B0A00A425000000 PUSH1 0x44 CALLDATALOAD LT PUSH2 0x1582 JUMPI PUSH1 0x44 CALLDATALOAD PUSH1 0x64 CALLDATALOAD GT PUSH2 0x152F JUMPI PUSH2 0x7D0 PUSH1 0xE4 CALLDATALOAD GT PUSH2 0x14F1 JUMPI DUP6 MLOAD ISZERO PUSH2 0x14BC JUMPI DUP1 MLOAD ISZERO PUSH2 0x1485 JUMPI CALLER DUP4 MSTORE PUSH1 0x4 PUSH1 0x20 MSTORE PUSH1 0x40 DUP4 KECCAK256 SWAP2 PUSH1 0xFF PUSH1 0x6 DUP5 ADD SLOAD AND ISZERO PUSH2 0x1434 JUMPI PUSH2 0x644 PUSH1 0x84 CALLDATALOAD PUSH2 0x40B7 JUMP JUMPDEST SWAP5 PUSH1 0x40 MLOAD SWAP6 DUP7 PUSH2 0x120 DUP2 ADD LT PUSH1 0x1 PUSH1 0x1 PUSH1 0x40 SHL SUB PUSH2 0x120 DUP10 ADD GT OR PUSH2 0x140B JUMPI PUSH2 0x120 DUP8 ADD PUSH1 0x40 MSTORE PUSH1 0x44 CALLDATALOAD DUP8 MSTORE PUSH2 0x67F PUSH1 0xA4 CALLDATALOAD PUSH1 0x20 DUP10 ADD PUSH2 0x401E JUMP JUMPDEST DUP8 PUSH1 0x40 DUP9 ADD MSTORE PUSH2 0x68E DUP2 PUSH2 0x3BDC JUMP JUMPDEST PUSH1 0x60 DUP8 ADD MSTORE CALLER PUSH1 0x80 DUP8 ADD MSTORE PUSH1 0x5A PUSH1 0xA0 DUP8 ADD MSTORE TIMESTAMP PUSH2 0x124 CALLDATALOAD GT PUSH1 0xC0 DUP8 ADD MSTORE PUSH2 0x124 CALLDATALOAD PUSH1 0xE0 DUP8 ADD MSTORE PUSH1 0x1 PUSH2 0x100 DUP8 ADD MSTORE DUP5 PUSH1 0x40 MLOAD DUP1 DUP1 SWAP9 PUSH4 0xA2676B3 PUSH1 0xE2 SHL DUP3 MSTORE PUSH1 0x20 PUSH1 0x4 DUP4 ADD MSTORE DUP1 MLOAD PUSH1 0x24 DUP4 ADD MSTORE PUSH2 0x6ED PUSH1 0x20 DUP3 ADD MLOAD PUSH1 0x44 DUP5 ADD SWAP1 PUSH2 0x3BE6 JUMP JUMPDEST PUSH2 0x100 PUSH2 0x70B PUSH1 0x40 DUP4 ADD MLOAD PUSH2 0x120 PUSH1 0x64 DUP7 ADD MSTORE PUSH2 0x144 DUP6 ADD SWAP1 PUSH2 0x3B94 JUMP JUMPDEST SWAP2 PUSH1 0x60 DUP2 ADD MLOAD PUSH2 0x71A DUP2 PUSH2 0x3BDC JUMP JUMPDEST PUSH1 0x84 DUP6 ADD MSTORE PUSH1 0x80 DUP2 ADD MLOAD PUSH1 0x1 PUSH1 0x1 PUSH1 0xA0 SHL SUB SWAP1 DUP2 AND PUSH1 0xA4 DUP7 ADD MSTORE PUSH1 0xA0 DUP3 ADD MLOAD PUSH1 0xC4 DUP7 ADD MSTORE PUSH1 0xC0 DUP3 ADD MLOAD ISZERO ISZERO PUSH1 0xE4 DUP7 ADD MSTORE PUSH1 0xE0 DUP3 ADD MLOAD PUSH2 0x104 DUP7 ADD MSTORE SWAP2 ADD MLOAD ISZERO ISZERO PUSH2 0x124 DUP5 ADD MSTORE SWAP2 SWAP1 SUB SWAP1 DUP3 SWAP1 PUSH32 0x0 AND GAS STATICCALL SWAP6 DUP7 ISZERO PUSH2 0x1429 JUMPI DUP6 SWAP7 PUSH2 0x128B JUMPI JUMPDEST POP DUP6 MLOAD PUSH1 0x2 DUP2 LT ISZERO PUSH2 0x1277 JUMPI PUSH1 0x1 SUB PUSH2 0x1219 JUMPI PUSH1 0x6 SLOAD SWAP7 PUSH1 0x0 NOT DUP9 EQ PUSH2 0x1205 JUMPI PUSH1 0x1 DUP9 ADD PUSH1 0x6 SSTORE PUSH1 0x40 DUP1 MLOAD DUP11 PUSH2 0x809 DUP4 DUP4 PUSH1 0x20 PUSH2 0x7DE DUP2 DUP4 ADD SWAP6 DUP7 DUP2 MLOAD SWAP4 DUP5 SWAP3 ADD PUSH2 0x3B71 JUMP JUMPDEST DUP2 ADD DUP11 MLOAD SWAP1 PUSH2 0x7F4 DUP3 DUP14 PUSH1 0x20 DUP1 DUP6 ADD SWAP2 ADD PUSH2 0x3B71 JUMP JUMPDEST ADD TIMESTAMP PUSH1 0x20 DUP3 ADD MSTORE SUB PUSH1 0x20 DUP2 ADD DUP6 MSTORE ADD DUP4 PUSH2 0x3AD7 JUMP JUMPDEST PUSH1 0x1 DUP1 PUSH1 0xA0 SHL SUB SWAP2 MLOAD SWAP1 KECCAK256 AND SWAP8 ADD MLOAD SWAP1 PUSH1 0xFF PUSH1 0x1 DUP8 ADD SLOAD AND SWAP1 PUSH2 0x104 CALLDATALOAD PUSH3 0x15180 SWAP1 DUP1 DUP3 DUP2 MUL DIV DUP3 EQ DUP2 ISZERO OR ISZERO PUSH2 0x11F1 JUMPI PUSH2 0x8E4 SWAP4 SWAP3 SWAP2 PUSH2 0x84B SWAP2 MUL TIMESTAMP PUSH2 0x3F36 JUMP JUMPDEST SWAP4 PUSH1 0x40 MLOAD SWAP8 PUSH2 0x859 DUP10 PUSH2 0x3AA0 JUMP JUMPDEST DUP12 DUP10 MSTORE DUP14 PUSH1 0x20 DUP11 ADD MSTORE PUSH1 0x40 DUP10 ADD MSTORE PUSH1 0x64 CALLDATALOAD PUSH1 0x60 DUP10 ADD MSTORE PUSH1 0x44 CALLDATALOAD PUSH1 0x80 DUP10 ADD MSTORE PUSH1 0xA0 DUP9 ADD MSTORE PUSH1 0x64 CALLDATALOAD PUSH1 0xC0 DUP9 ADD MSTORE DUP9 PUSH1 0xE0 DUP9 ADD MSTORE PUSH1 0xE4 CALLDATALOAD PUSH2 0x100 DUP9 ADD MSTORE DUP9 PUSH2 0x120 DUP9 ADD MSTORE PUSH2 0x8A5 PUSH1 0x84 CALLDATALOAD PUSH2 0x3BDC JUMP JUMPDEST PUSH1 0x84 CALLDATALOAD PUSH2 0x140 DUP9 ADD MSTORE PUSH2 0x8BE PUSH1 0xA4 CALLDATALOAD PUSH2 0x160 DUP10 ADD PUSH2 0x401E JUMP JUMPDEST PUSH2 0x180 DUP8 ADD MSTORE CALLER PUSH2 0x1A0 DUP8 ADD MSTORE PUSH2 0x8D4 DUP8 PUSH2 0x3C3A JUMP JUMPDEST PUSH2 0x1C0 DUP8 ADD MSTORE PUSH2 0x1E0 DUP7 ADD PUSH2 0x406F JUMP JUMPDEST TIMESTAMP PUSH2 0x200 DUP6 ADD MSTORE PUSH2 0x220 DUP5 ADD MSTORE PUSH1 0x1 PUSH2 0x240 DUP5 ADD MSTORE PUSH2 0x260 DUP4 ADD MSTORE PUSH2 0x124 CALLDATALOAD PUSH2 0x280 DUP4 ADD MSTORE PUSH2 0x2A0 DUP3 ADD MSTORE DUP5 DUP4 MSTORE PUSH1 0x2 PUSH1 0x20 MSTORE PUSH1 0x40 DUP4 KECCAK256 SWAP1 PUSH1 0x1 DUP1 PUSH1 0xA0 SHL SUB DUP2 MLOAD AND PUSH12 0xFFFFFFFFFFFFFFFFFFFFFFFF PUSH1 0xA0 SHL DUP4 SLOAD AND OR DUP3 SSTORE PUSH1 0x20 DUP2 ADD MLOAD DUP1 MLOAD SWAP1 PUSH1 0x1 PUSH1 0x1 PUSH1 0x40 SHL SUB DUP3 GT PUSH2 0xF01 JUMPI DUP2 SWAP1 PUSH2 0x961 PUSH1 0x1 DUP7 ADD SLOAD PUSH2 0x3C00 JUMP JUMPDEST PUSH1 0x1F DUP2 GT PUSH2 0x11BE JUMPI JUMPDEST POP PUSH1 0x20 SWAP1 PUSH1 0x1F DUP4 GT PUSH1 0x1 EQ PUSH2 0x114F JUMPI DUP8 SWAP3 PUSH2 0x1144 JUMPI JUMPDEST POP POP DUP2 PUSH1 0x1 SHL SWAP2 PUSH1 0x0 NOT SWAP1 PUSH1 0x3 SHL SHR NOT AND OR PUSH1 0x1 DUP4 ADD SSTORE JUMPDEST PUSH1 0x40 DUP2 ADD MLOAD DUP1 MLOAD SWAP1 PUSH1 0x1 PUSH1 0x1 PUSH1 0x40 SHL SUB DUP3 GT PUSH2 0xF01 JUMPI DUP2 SWAP1 PUSH2 0x9BD PUSH1 0x2 DUP7 ADD SLOAD PUSH2 0x3C00 JUMP JUMPDEST PUSH1 0x1F DUP2 GT PUSH2 0x1111 JUMPI JUMPDEST POP PUSH1 0x20 SWAP1 PUSH1 0x1F DUP4 GT PUSH1 0x1 EQ PUSH2 0x10A2 JUMPI DUP8 SWAP3 PUSH2 0x1097 JUMPI JUMPDEST POP POP DUP2 PUSH1 0x1 SHL SWAP2 PUSH1 0x0 NOT SWAP1 PUSH1 0x3 SHL SHR NOT AND OR PUSH1 0x2 DUP4 ADD SSTORE JUMPDEST PUSH1 0x60 DUP2 ADD MLOAD PUSH1 0x3 DUP4 ADD SSTORE PUSH1 0x80 DUP2 ADD MLOAD PUSH1 0x4 DUP4 ADD SSTORE PUSH1 0xA0 DUP2 ADD MLOAD PUSH1 0x5 DUP4 ADD SSTORE PUSH1 0xC0 DUP2 ADD MLOAD PUSH1 0x6 DUP4 ADD SSTORE PUSH1 0xE0 DUP2 ADD MLOAD PUSH1 0x7 DUP4 ADD SSTORE PUSH2 0x100 DUP2 ADD MLOAD PUSH1 0x8 DUP4 ADD SSTORE PUSH2 0x120 DUP2 ADD MLOAD PUSH1 0x5 DUP2 LT ISZERO PUSH2 0xF15 JUMPI PUSH1 0x9 DUP4 ADD SLOAD SWAP1 PUSH2 0x140 DUP4 ADD MLOAD SWAP2 PUSH2 0xA56 DUP4 PUSH2 0x3BDC JUMP JUMPDEST PUSH2 0xA5F DUP4 PUSH2 0x3BDC JUMP JUMPDEST PUSH2 0x160 DUP5 ADD MLOAD PUSH1 0x7 DUP2 LT ISZERO PUSH2 0x1083 JUMPI PUSH2 0xFF00 PUSH3 0xFF0000 PUSH1 0xFF SWAP3 PUSH1 0x10 SHL AND SWAP5 PUSH1 0x8 SHL AND SWAP3 AND SWAP1 PUSH3 0xFFFFFF NOT AND OR OR OR PUSH1 0x9 DUP4 ADD SSTORE PUSH2 0x180 DUP2 ADD MLOAD DUP1 MLOAD SWAP1 PUSH1 0x1 PUSH1 0x1 PUSH1 0x40 SHL SUB DUP3 GT PUSH2 0xF01 JUMPI DUP2 SWAP1 PUSH2 0xAB8 PUSH1 0xA DUP7 ADD SLOAD PUSH2 0x3C00 JUMP JUMPDEST PUSH1 0x1F DUP2 GT PUSH2 0x1050 JUMPI JUMPDEST POP PUSH1 0x20 SWAP1 PUSH1 0x1F DUP4 GT PUSH1 0x1 EQ PUSH2 0xFE1 JUMPI DUP8 SWAP3 PUSH2 0xFD6 JUMPI JUMPDEST POP POP DUP2 PUSH1 0x1 SHL SWAP2 PUSH1 0x0 NOT SWAP1 PUSH1 0x3 SHL SHR NOT AND OR PUSH1 0xA DUP4 ADD SSTORE JUMPDEST PUSH1 0xB DUP3 ADD PUSH1 0x1 DUP1 PUSH1 0xA0 SHL SUB PUSH2 0x1A0 DUP4 ADD MLOAD AND PUSH12 0xFFFFFFFFFFFFFFFFFFFFFFFF PUSH1 0xA0 SHL DUP3 SLOAD AND OR SWAP1 SSTORE PUSH2 0x1C0 DUP2 ADD MLOAD DUP1 MLOAD SWAP1 PUSH1 0x1 PUSH1 0x1 PUSH1 0x40 SHL SUB DUP3 GT PUSH2 0xF01 JUMPI DUP2 SWAP1 PUSH2 0xB3D PUSH1 0xC DUP7 ADD SLOAD PUSH2 0x3C00 JUMP JUMPDEST PUSH1 0x1F DUP2 GT PUSH2 0xFA3 JUMPI JUMPDEST POP PUSH1 0x20 SWAP1 PUSH1 0x1F DUP4 GT PUSH1 0x1 EQ PUSH2 0xF34 JUMPI DUP8 SWAP3 PUSH2 0xF29 JUMPI JUMPDEST POP POP DUP2 PUSH1 0x1 SHL SWAP2 PUSH1 0x0 NOT SWAP1 PUSH1 0x3 SHL SHR NOT AND OR PUSH1 0xC DUP4 ADD SSTORE JUMPDEST PUSH2 0x1E0 DUP2 ADD MLOAD PUSH1 0x4 DUP2 LT ISZERO PUSH2 0xF15 JUMPI PUSH2 0xB90 SWAP1 PUSH1 0xD DUP5 ADD PUSH2 0x4092 JUMP JUMPDEST PUSH2 0x200 DUP2 ADD MLOAD PUSH1 0xE DUP4 ADD SSTORE PUSH2 0x220 DUP2 ADD MLOAD PUSH1 0xF DUP4 ADD SSTORE PUSH2 0xBC6 PUSH2 0x240 DUP3 ADD MLOAD ISZERO ISZERO PUSH1 0x10 DUP5 ADD SWAP1 PUSH1 0xFF DUP1 NOT DUP4 SLOAD AND SWAP2 ISZERO ISZERO AND OR SWAP1 SSTORE JUMP JUMPDEST PUSH2 0x260 DUP2 ADD MLOAD DUP1 MLOAD SWAP1 PUSH1 0x1 PUSH1 0x1 PUSH1 0x40 SHL SUB DUP3 GT PUSH2 0xF01 JUMPI PUSH2 0xBEA PUSH1 0x11 DUP6 ADD SLOAD PUSH2 0x3C00 JUMP JUMPDEST PUSH1 0x1F DUP2 GT PUSH2 0xECE JUMPI JUMPDEST POP PUSH1 0x20 SWAP1 PUSH1 0x1F DUP4 GT PUSH1 0x1 EQ PUSH2 0xE5D JUMPI PUSH2 0x2A0 SWAP4 SWAP3 SWAP2 DUP8 SWAP2 DUP4 PUSH2 0xE52 JUMPI JUMPDEST POP POP DUP2 PUSH1 0x1 SHL SWAP2 PUSH1 0x0 NOT SWAP1 PUSH1 0x3 SHL SHR NOT AND OR PUSH1 0x11 DUP5 ADD SSTORE JUMPDEST PUSH2 0x280 DUP2 ADD MLOAD PUSH1 0x12 DUP5 ADD SSTORE ADD MLOAD SWAP1 DUP2 MLOAD SWAP1 PUSH1 0x1 PUSH1 0x1 PUSH1 0x40 SHL SUB DUP3 GT PUSH2 0xE3E JUMPI PUSH1 0x13 DUP3 SWAP2 ADD SWAP3 PUSH2 0xC57 DUP5 SLOAD PUSH2 0x3C00 JUMP JUMPDEST PUSH1 0x1F DUP2 GT PUSH2 0xE03 JUMPI JUMPDEST POP PUSH1 0x20 SWAP1 PUSH1 0x1F DUP4 GT PUSH1 0x1 EQ PUSH2 0xD9F JUMPI DUP7 SWAP3 PUSH2 0xD94 JUMPI JUMPDEST POP POP DUP2 PUSH1 0x1 SHL SWAP2 PUSH1 0x0 NOT SWAP1 PUSH1 0x3 SHL SHR NOT AND OR SWAP1 SSTORE JUMPDEST DUP3 DUP3 MSTORE PUSH1 0x3 PUSH1 0x20 MSTORE DUP4 PUSH1 0x40 DUP4 KECCAK256 SSTORE PUSH1 0x3 DUP2 ADD DUP1 SLOAD SWAP1 PUSH1 0x1 DUP3 ADD DUP1 SWAP3 GT PUSH2 0xD80 JUMPI SSTORE PUSH1 0x5 ADD DUP1 SLOAD SWAP1 SWAP2 PUSH1 0x1 PUSH1 0x40 SHL DUP3 LT ISZERO PUSH2 0xD6C JUMPI POP PUSH1 0x1 DUP2 ADD DUP1 DUP4 SSTORE DUP2 LT ISZERO PUSH2 0xD56 JUMPI DUP4 SWAP2 PUSH1 0x0 MSTORE PUSH1 0x20 PUSH1 0x0 KECCAK256 ADD SSTORE PUSH1 0x7 SLOAD PUSH1 0x1 DUP2 ADD DUP1 SWAP2 GT PUSH2 0xD40 JUMPI PUSH32 0x764DD9AC505EC672337C4F7562125A06D655EE17E39F3C98B7A7730EC3F0467D PUSH2 0xD28 PUSH1 0x20 SWAP6 DUP6 SWAP4 PUSH1 0x7 SSTORE PUSH1 0x40 MLOAD SWAP2 DUP3 SWAP2 PUSH1 0x60 DUP4 MSTORE PUSH1 0x60 DUP4 ADD SWAP1 PUSH2 0x3B94 JUMP JUMPDEST PUSH1 0x44 CALLDATALOAD DUP9 DUP4 ADD MSTORE CALLER PUSH1 0x40 DUP4 ADD MSTORE SUB SWAP1 LOG3 PUSH1 0x40 MLOAD SWAP1 DUP2 MSTORE RETURN JUMPDEST PUSH4 0x4E487B71 PUSH1 0xE0 SHL PUSH1 0x0 MSTORE PUSH1 0x11 PUSH1 0x4 MSTORE PUSH1 0x24 PUSH1 0x0 REVERT JUMPDEST PUSH4 0x4E487B71 PUSH1 0xE0 SHL PUSH1 0x0 MSTORE PUSH1 0x32 PUSH1 0x4 MSTORE PUSH1 0x24 PUSH1 0x0 REVERT JUMPDEST PUSH4 0x4E487B71 PUSH1 0xE0 SHL DUP2 MSTORE PUSH1 0x41 PUSH1 0x4 MSTORE PUSH1 0x24 SWAP1 REVERT JUMPDEST PUSH4 0x4E487B71 PUSH1 0xE0 SHL DUP5 MSTORE PUSH1 0x11 PUSH1 0x4 MSTORE PUSH1 0x24 DUP5 REVERT JUMPDEST ADD MLOAD SWAP1 POP CODESIZE DUP1 PUSH2 0xC76 JUMP JUMPDEST DUP5 DUP8 MSTORE PUSH1 0x20 DUP8 KECCAK256 SWAP3 POP PUSH1 0x1F NOT DUP5 AND DUP8 JUMPDEST DUP2 DUP2 LT PUSH2 0xDEB JUMPI POP SWAP1 DUP5 PUSH1 0x1 SWAP6 SWAP5 SWAP4 SWAP3 LT PUSH2 0xDD2 JUMPI JUMPDEST POP POP POP DUP2 SHL ADD SWAP1 SSTORE PUSH2 0xC8B JUMP JUMPDEST ADD MLOAD PUSH1 0x0 NOT PUSH1 0xF8 DUP5 PUSH1 0x3 SHL AND SHR NOT AND SWAP1 SSTORE CODESIZE DUP1 DUP1 PUSH2 0xDC5 JUMP JUMPDEST SWAP3 SWAP4 PUSH1 0x20 PUSH1 0x1 DUP2 SWAP3 DUP8 DUP7 ADD MLOAD DUP2 SSTORE ADD SWAP6 ADD SWAP4 ADD PUSH2 0xDAF JUMP JUMPDEST PUSH2 0xE2E SWAP1 DUP6 DUP9 MSTORE PUSH1 0x20 DUP9 KECCAK256 PUSH1 0x1F DUP6 ADD PUSH1 0x5 SHR DUP2 ADD SWAP2 PUSH1 0x20 DUP7 LT PUSH2 0xE34 JUMPI JUMPDEST PUSH1 0x1F ADD PUSH1 0x5 SHR ADD SWAP1 PUSH2 0x407B JUMP JUMPDEST CODESIZE PUSH2 0xC60 JUMP JUMPDEST SWAP1 SWAP2 POP DUP2 SWAP1 PUSH2 0xE21 JUMP JUMPDEST PUSH4 0x4E487B71 PUSH1 0xE0 SHL DUP6 MSTORE PUSH1 0x41 PUSH1 0x4 MSTORE PUSH1 0x24 DUP6 REVERT JUMPDEST ADD MLOAD SWAP1 POP CODESIZE DUP1 PUSH2 0xC10 JUMP JUMPDEST SWAP1 PUSH1 0x11 DUP6 ADD DUP8 MSTORE PUSH1 0x20 DUP8 KECCAK256 SWAP2 DUP8 JUMPDEST PUSH1 0x1F NOT DUP6 AND DUP2 LT PUSH2 0xEB6 JUMPI POP SWAP2 DUP4 SWAP2 PUSH1 0x1 SWAP4 PUSH2 0x2A0 SWAP7 SWAP6 PUSH1 0x1F NOT DUP2 AND LT PUSH2 0xE9D JUMPI JUMPDEST POP POP POP DUP2 SHL ADD PUSH1 0x11 DUP5 ADD SSTORE PUSH2 0xC28 JUMP JUMPDEST ADD MLOAD PUSH1 0x0 NOT PUSH1 0xF8 DUP5 PUSH1 0x3 SHL AND SHR NOT AND SWAP1 SSTORE CODESIZE DUP1 DUP1 PUSH2 0xE8D JUMP JUMPDEST SWAP2 SWAP3 PUSH1 0x20 PUSH1 0x1 DUP2 SWAP3 DUP7 DUP6 ADD MLOAD DUP2 SSTORE ADD SWAP5 ADD SWAP3 ADD PUSH2 0xE6B JUMP JUMPDEST PUSH2 0xEFB SWAP1 PUSH1 0x11 DUP7 ADD DUP9 MSTORE PUSH1 0x20 DUP9 KECCAK256 PUSH1 0x1F DUP6 ADD PUSH1 0x5 SHR DUP2 ADD SWAP2 PUSH1 0x20 DUP7 LT PUSH2 0xE34 JUMPI PUSH1 0x1F ADD PUSH1 0x5 SHR ADD SWAP1 PUSH2 0x407B JUMP JUMPDEST CODESIZE PUSH2 0xBF3 JUMP JUMPDEST PUSH4 0x4E487B71 PUSH1 0xE0 SHL DUP7 MSTORE PUSH1 0x41 PUSH1 0x4 MSTORE PUSH1 0x24 DUP7 REVERT JUMPDEST PUSH4 0x4E487B71 PUSH1 0xE0 SHL DUP6 MSTORE PUSH1 0x21 PUSH1 0x4 MSTORE PUSH1 0x24 DUP6 REVERT JUMPDEST ADD MLOAD SWAP1 POP CODESIZE DUP1 PUSH2 0xB5C JUMP JUMPDEST SWAP3 POP PUSH1 0xC DUP6 ADD DUP8 MSTORE PUSH1 0x20 DUP8 KECCAK256 SWAP1 DUP8 SWAP4 JUMPDEST PUSH1 0x1F NOT DUP5 AND DUP6 LT PUSH2 0xF88 JUMPI PUSH1 0x1 SWAP5 POP DUP4 PUSH1 0x1F NOT DUP2 AND LT PUSH2 0xF6F JUMPI JUMPDEST POP POP POP DUP2 SHL ADD PUSH1 0xC DUP4 ADD SSTORE PUSH2 0xB74 JUMP JUMPDEST ADD MLOAD PUSH1 0x0 NOT PUSH1 0xF8 DUP5 PUSH1 0x3 SHL AND SHR NOT AND SWAP1 SSTORE CODESIZE DUP1 DUP1 PUSH2 0xF5F JUMP JUMPDEST DUP2 DUP2 ADD MLOAD DUP4 SSTORE PUSH1 0x20 SWAP5 DUP6 ADD SWAP5 PUSH1 0x1 SWAP1 SWAP4 ADD SWAP3 SWAP1 SWAP2 ADD SWAP1 PUSH2 0xF44 JUMP JUMPDEST PUSH2 0xFD0 SWAP1 PUSH1 0xC DUP8 ADD DUP10 MSTORE PUSH1 0x20 DUP10 KECCAK256 PUSH1 0x1F DUP6 ADD PUSH1 0x5 SHR DUP2 ADD SWAP2 PUSH1 0x20 DUP7 LT PUSH2 0xE34 JUMPI PUSH1 0x1F ADD PUSH1 0x5 SHR ADD SWAP1 PUSH2 0x407B JUMP JUMPDEST CODESIZE PUSH2 0xB46 JUMP JUMPDEST ADD MLOAD SWAP1 POP CODESIZE DUP1 PUSH2 0xAD7 JUMP JUMPDEST SWAP3 POP PUSH1 0xA DUP6 ADD DUP8 MSTORE PUSH1 0x20 DUP8 KECCAK256 SWAP1 DUP8 SWAP4 JUMPDEST PUSH1 0x1F NOT DUP5 AND DUP6 LT PUSH2 0x1035 JUMPI PUSH1 0x1 SWAP5 POP DUP4 PUSH1 0x1F NOT DUP2 AND LT PUSH2 0x101C JUMPI JUMPDEST POP POP POP DUP2 SHL ADD PUSH1 0xA DUP4 ADD SSTORE PUSH2 0xAEF JUMP JUMPDEST ADD MLOAD PUSH1 0x0 NOT PUSH1 0xF8 DUP5 PUSH1 0x3 SHL AND SHR NOT AND SWAP1 SSTORE CODESIZE DUP1 DUP1 PUSH2 0x100C JUMP JUMPDEST DUP2 DUP2 ADD MLOAD DUP4 SSTORE PUSH1 0x20 SWAP5 DUP6 ADD SWAP5 PUSH1 0x1 SWAP1 SWAP4 ADD SWAP3 SWAP1 SWAP2 ADD SWAP1 PUSH2 0xFF1 JUMP JUMPDEST PUSH2 0x107D SWAP1 PUSH1 0xA DUP8 ADD DUP10 MSTORE PUSH1 0x20 DUP10 KECCAK256 PUSH1 0x1F DUP6 ADD PUSH1 0x5 SHR DUP2 ADD SWAP2 PUSH1 0x20 DUP7 LT PUSH2 0xE34 JUMPI PUSH1 0x1F ADD PUSH1 0x5 SHR ADD SWAP1 PUSH2 0x407B JUMP JUMPDEST CODESIZE PUSH2 0xAC1 JUMP JUMPDEST PUSH4 0x4E487B71 PUSH1 0xE0 SHL DUP9 MSTORE PUSH1 0x21 PUSH1 0x4 MSTORE PUSH1 0x24 DUP9 REVERT JUMPDEST ADD MLOAD SWAP1 POP CODESIZE DUP1 PUSH2 0x9DC JUMP JUMPDEST SWAP3 POP PUSH1 0x2 DUP6 ADD DUP8 MSTORE PUSH1 0x20 DUP8 KECCAK256 SWAP1 DUP8 SWAP4 JUMPDEST PUSH1 0x1F NOT DUP5 AND DUP6 LT PUSH2 0x10F6 JUMPI PUSH1 0x1 SWAP5 POP DUP4 PUSH1 0x1F NOT DUP2 AND LT PUSH2 0x10DD JUMPI JUMPDEST POP POP POP DUP2 SHL ADD PUSH1 0x2 DUP4 ADD SSTORE PUSH2 0x9F4 JUMP JUMPDEST ADD MLOAD PUSH1 0x0 NOT PUSH1 0xF8 DUP5 PUSH1 0x3 SHL AND SHR NOT AND SWAP1 SSTORE CODESIZE DUP1 DUP1 PUSH2 0x10CD JUMP JUMPDEST DUP2 DUP2 ADD MLOAD DUP4 SSTORE PUSH1 0x20 SWAP5 DUP6 ADD SWAP5 PUSH1 0x1 SWAP1 SWAP4 ADD SWAP3 SWAP1 SWAP2 ADD SWAP1 PUSH2 0x10B2 JUMP JUMPDEST PUSH2 0x113E SWAP1 PUSH1 0x2 DUP8 ADD DUP10 MSTORE PUSH1 0x20 DUP10 KECCAK256 PUSH1 0x1F DUP6 ADD PUSH1 0x5 SHR DUP2 ADD SWAP2 PUSH1 0x20 DUP7 LT PUSH2 0xE34 JUMPI PUSH1 0x1F ADD PUSH1 0x5 SHR ADD SWAP1 PUSH2 0x407B JUMP JUMPDEST CODESIZE PUSH2 0x9C6 JUMP JUMPDEST ADD MLOAD SWAP1 POP CODESIZE DUP1 PUSH2 0x980 JUMP JUMPDEST SWAP3 POP PUSH1 0x1 DUP6 ADD DUP8 MSTORE PUSH1 0x20 DUP8 KECCAK256 SWAP1 DUP8 SWAP4 JUMPDEST PUSH1 0x1F NOT DUP5 AND DUP6 LT PUSH2 0x11A3 JUMPI PUSH1 0x1 SWAP5 POP DUP4 PUSH1 0x1F NOT DUP2 AND LT PUSH2 0x118A JUMPI JUMPDEST POP POP POP DUP2 SHL ADD PUSH1 0x1 DUP4 ADD SSTORE PUSH2 0x998 JUMP JUMPDEST ADD MLOAD PUSH1 0x0 NOT PUSH1 0xF8 DUP5 PUSH1 0x3 SHL AND SHR NOT AND SWAP1 SSTORE CODESIZE DUP1 DUP1 PUSH2 0x117A JUMP JUMPDEST DUP2 DUP2 ADD MLOAD DUP4 SSTORE PUSH1 0x20 SWAP5 DUP6 ADD SWAP5 PUSH1 0x1 SWAP1 SWAP4 ADD SWAP3 SWAP1 SWAP2 ADD SWAP1 PUSH2 0x115F JUMP JUMPDEST PUSH2 0x11EB SWAP1 PUSH1 0x1 DUP8 ADD DUP10 MSTORE PUSH1 0x20 DUP10 KECCAK256 PUSH1 0x1F DUP6 ADD PUSH1 0x5 SHR DUP2 ADD SWAP2 PUSH1 0x20 DUP7 LT PUSH2 0xE34 JUMPI PUSH1 0x1F ADD PUSH1 0x5 SHR ADD SWAP1 PUSH2 0x407B JUMP JUMPDEST CODESIZE PUSH2 0x96A JUMP JUMPDEST PUSH4 0x4E487B71 PUSH1 0xE0 SHL DUP11 MSTORE PUSH1 0x11 PUSH1 0x4 MSTORE PUSH1 0x24 DUP11 REVERT JUMPDEST PUSH4 0x4E487B71 PUSH1 0xE0 SHL DUP7 MSTORE PUSH1 0x11 PUSH1 0x4 MSTORE PUSH1 0x24 DUP7 REVERT JUMPDEST PUSH1 0x40 MLOAD PUSH3 0x461BCD PUSH1 0xE5 SHL DUP2 MSTORE PUSH1 0x20 PUSH1 0x4 DUP3 ADD MSTORE PUSH1 0x30 PUSH1 0x24 DUP3 ADD MSTORE PUSH32 0x50726F70657274792073686F756C6420626520636C6173736966696564206173 PUSH1 0x44 DUP3 ADD MSTORE PUSH16 0x40B08AA4825840DCDEE840A0A49EA0B PUSH1 0x83 SHL PUSH1 0x64 DUP3 ADD MSTORE PUSH1 0x84 SWAP1 REVERT JUMPDEST PUSH4 0x4E487B71 PUSH1 0xE0 SHL DUP7 MSTORE PUSH1 0x21 PUSH1 0x4 MSTORE PUSH1 0x24 DUP7 REVERT JUMPDEST SWAP1 SWAP6 POP RETURNDATASIZE SWAP1 DUP2 DUP7 DUP3 RETURNDATACOPY PUSH2 0x129E DUP3 DUP3 PUSH2 0x3AD7 JUMP JUMPDEST PUSH1 0x20 DUP2 DUP4 DUP2 ADD SUB SLT PUSH2 0x1425 JUMPI DUP1 MLOAD SWAP2 PUSH1 0x1 PUSH1 0x1 PUSH1 0x40 SHL SUB DUP4 GT PUSH2 0x1421 JUMPI PUSH1 0xA0 DUP4 DUP4 ADD DUP3 DUP5 ADD SUB SLT PUSH2 0x1421 JUMPI PUSH1 0x40 MLOAD SWAP3 DUP4 PUSH1 0xA0 DUP2 ADD LT PUSH1 0x1 PUSH1 0x1 PUSH1 0x40 SHL SUB PUSH1 0xA0 DUP7 ADD GT OR PUSH2 0x140B JUMPI PUSH1 0xA0 DUP5 ADD PUSH1 0x40 MSTORE DUP1 DUP4 ADD MLOAD PUSH1 0x2 DUP2 LT ISZERO PUSH2 0x13C8 JUMPI DUP5 MSTORE DUP3 DUP2 ADD PUSH1 0x20 DUP2 DUP2 ADD MLOAD SWAP1 DUP7 ADD MSTORE PUSH1 0x40 DUP1 DUP3 ADD MLOAD SWAP1 DUP7 ADD MSTORE PUSH1 0x60 ADD MLOAD PUSH1 0x1 PUSH1 0x1 PUSH1 0x40 SHL SUB DUP2 GT PUSH2 0x13C8 JUMPI DUP3 DUP5 ADD PUSH1 0x1F DUP3 DUP5 DUP8 ADD ADD ADD SLT ISZERO PUSH2 0x13C8 JUMPI DUP1 DUP3 DUP6 ADD ADD MLOAD SWAP1 PUSH2 0x1345 DUP3 PUSH2 0x3B5A JUMP JUMPDEST SWAP2 PUSH2 0x1353 PUSH1 0x40 MLOAD SWAP4 DUP5 PUSH2 0x3AD7 JUMP JUMPDEST DUP1 DUP4 MSTORE PUSH1 0x20 DUP4 ADD SWAP2 DUP6 DUP8 ADD PUSH1 0x20 DUP4 PUSH1 0x5 SHL DUP4 DUP9 DUP12 ADD ADD ADD ADD GT PUSH2 0x1407 JUMPI PUSH1 0x20 DUP2 DUP7 DUP10 ADD ADD ADD SWAP3 JUMPDEST PUSH1 0x20 DUP4 PUSH1 0x5 SHL DUP4 DUP9 DUP12 ADD ADD ADD ADD DUP5 LT PUSH2 0x13CC JUMPI POP POP POP POP PUSH1 0x60 DUP6 ADD MSTORE PUSH1 0x80 DUP2 DUP5 ADD ADD MLOAD SWAP2 PUSH1 0x1 PUSH1 0x1 PUSH1 0x40 SHL SUB DUP4 GT PUSH2 0x13C8 JUMPI PUSH2 0x13BC SWAP4 SWAP1 DUP2 ADD SWAP3 SWAP2 ADD ADD PUSH2 0x402A JUMP JUMPDEST PUSH1 0x80 DUP3 ADD MSTORE SWAP5 CODESIZE PUSH2 0x798 JUMP JUMPDEST DUP9 DUP1 REVERT JUMPDEST DUP4 MLOAD PUSH1 0x1 PUSH1 0x1 PUSH1 0x40 SHL SUB DUP2 GT PUSH2 0x1403 JUMPI PUSH1 0x20 DUP1 SWAP3 PUSH2 0x13F6 DUP12 DUP4 DUP1 SWAP6 DUP9 DUP14 DUP16 DUP6 ADD SWAP5 ADD ADD ADD ADD PUSH2 0x402A JUMP JUMPDEST DUP2 MSTORE ADD SWAP5 ADD SWAP4 SWAP1 POP PUSH2 0x137A JUMP JUMPDEST DUP14 DUP1 REVERT JUMPDEST DUP12 DUP1 REVERT JUMPDEST PUSH4 0x4E487B71 PUSH1 0xE0 SHL PUSH1 0x0 MSTORE PUSH1 0x41 PUSH1 0x4 MSTORE PUSH1 0x24 PUSH1 0x0 REVERT JUMPDEST DUP7 DUP1 REVERT JUMPDEST DUP6 DUP1 REVERT JUMPDEST PUSH1 0x40 MLOAD RETURNDATASIZE DUP8 DUP3 RETURNDATACOPY RETURNDATASIZE SWAP1 REVERT JUMPDEST PUSH1 0x40 MLOAD PUSH3 0x461BCD PUSH1 0xE5 SHL DUP2 MSTORE PUSH1 0x20 PUSH1 0x4 DUP3 ADD MSTORE PUSH1 0x24 DUP1 DUP3 ADD MSTORE PUSH32 0x446576656C6F706572206E6F742072656769737465726564206F7220696E6163 PUSH1 0x44 DUP3 ADD MSTORE PUSH4 0x74697665 PUSH1 0xE0 SHL PUSH1 0x64 DUP3 ADD MSTORE PUSH1 0x84 SWAP1 REVERT JUMPDEST PUSH1 0x40 MLOAD PUSH3 0x461BCD PUSH1 0xE5 SHL DUP2 MSTORE PUSH1 0x20 PUSH1 0x4 DUP3 ADD MSTORE PUSH1 0xF PUSH1 0x24 DUP3 ADD MSTORE PUSH15 0x14DE5B589BDB081C995C5D5A5C9959 PUSH1 0x8A SHL PUSH1 0x44 DUP3 ADD MSTORE PUSH1 0x64 SWAP1 REVERT JUMPDEST PUSH1 0x40 MLOAD PUSH3 0x461BCD PUSH1 0xE5 SHL DUP2 MSTORE PUSH1 0x20 PUSH1 0x4 DUP3 ADD MSTORE PUSH1 0xD PUSH1 0x24 DUP3 ADD MSTORE PUSH13 0x13985B59481C995C5D5A5C9959 PUSH1 0x9A SHL PUSH1 0x44 DUP3 ADD MSTORE PUSH1 0x64 SWAP1 REVERT JUMPDEST PUSH1 0x40 MLOAD PUSH3 0x461BCD PUSH1 0xE5 SHL DUP2 MSTORE PUSH1 0x20 PUSH1 0x4 DUP3 ADD MSTORE PUSH1 0x16 PUSH1 0x24 DUP3 ADD MSTORE PUSH22 0x88D2ECD2C8CADCC840E4C2E8CA40E8DEDE40D0D2CED PUSH1 0x53 SHL PUSH1 0x44 DUP3 ADD MSTORE PUSH1 0x64 SWAP1 REVERT JUMPDEST PUSH1 0x40 MLOAD PUSH3 0x461BCD PUSH1 0xE5 SHL DUP2 MSTORE PUSH1 0x20 PUSH1 0x4 DUP3 ADD MSTORE PUSH1 0x25 PUSH1 0x24 DUP3 ADD MSTORE PUSH32 0x5461726765742066756E64696E6720657863656564732070726F706572747920 PUSH1 0x44 DUP3 ADD MSTORE PUSH5 0x76616C7565 PUSH1 0xD8 SHL PUSH1 0x64 DUP3 ADD MSTORE PUSH1 0x84 SWAP1 REVERT JUMPDEST PUSH1 0x64 PUSH1 0x40 MLOAD PUSH3 0x461BCD PUSH1 0xE5 SHL DUP2 MSTORE PUSH1 0x20 PUSH1 0x4 DUP3 ADD MSTORE PUSH1 0x20 PUSH1 0x24 DUP3 ADD MSTORE PUSH32 0x50726F70657274792076616C756520746F6F206C6F7720666F722050524F5058 PUSH1 0x44 DUP3 ADD MSTORE REVERT JUMPDEST PUSH2 0x15CF CALLER PUSH2 0x3F54 JUMP JUMPDEST PUSH1 0x40 MLOAD SWAP1 PUSH32 0x4504B9DFD7400A1522F49A8B4A100552DA9236849581FD59B7363EB48C6A474C PUSH2 0x15FD DUP4 PUSH2 0x3ABC JUMP JUMPDEST PUSH1 0x42 DUP4 MSTORE PUSH1 0x20 DUP4 ADD SWAP1 PUSH1 0x60 CALLDATASIZE DUP4 CALLDATACOPY DUP4 MLOAD ISZERO PUSH2 0xD56 JUMPI PUSH1 0x30 DUP3 MSTORE8 DUP4 MLOAD PUSH1 0x1 SWAP1 DUP2 LT ISZERO PUSH2 0xD56 JUMPI PUSH1 0x78 PUSH1 0x21 DUP7 ADD MSTORE8 PUSH1 0x41 SWAP1 JUMPDEST DUP1 DUP3 GT PUSH2 0x1722 JUMPI POP POP PUSH2 0x16DE JUMPI PUSH1 0x48 PUSH2 0x16AB SWAP3 PUSH2 0x16BA SWAP3 PUSH2 0x16DA SWAP6 PUSH1 0x40 MLOAD SWAP6 DUP7 SWAP4 PUSH23 0x20B1B1B2B9B9A1B7B73A3937B61D1030B1B1B7BAB73A1 PUSH1 0x4D SHL PUSH1 0x20 DUP7 ADD MSTORE PUSH2 0x1682 DUP2 MLOAD DUP1 SWAP3 PUSH1 0x20 PUSH1 0x37 DUP10 ADD SWAP2 ADD PUSH2 0x3B71 JUMP JUMPDEST DUP5 ADD SWAP2 PUSH17 0x1034B99036B4B9B9B4B733903937B6329 PUSH1 0x7D SHL PUSH1 0x37 DUP5 ADD MSTORE MLOAD DUP1 SWAP4 DUP7 DUP5 ADD SWAP1 PUSH2 0x3B71 JUMP JUMPDEST ADD SUB PUSH1 0x28 DUP2 ADD DUP5 MSTORE ADD DUP3 PUSH2 0x3AD7 JUMP JUMPDEST PUSH1 0x40 MLOAD PUSH3 0x461BCD PUSH1 0xE5 SHL DUP2 MSTORE PUSH1 0x20 PUSH1 0x4 DUP3 ADD MSTORE SWAP2 DUP3 SWAP2 PUSH1 0x24 DUP4 ADD SWAP1 PUSH2 0x3B94 JUMP JUMPDEST SUB SWAP1 REVERT JUMPDEST PUSH1 0x64 PUSH1 0x40 MLOAD PUSH3 0x461BCD PUSH1 0xE5 SHL DUP2 MSTORE PUSH1 0x20 PUSH1 0x4 DUP3 ADD MSTORE PUSH1 0x20 PUSH1 0x24 DUP3 ADD MSTORE PUSH32 0x537472696E67733A20686578206C656E67746820696E73756666696369656E74 PUSH1 0x44 DUP3 ADD MSTORE REVERT JUMPDEST SWAP1 SWAP2 PUSH1 0xF DUP2 AND PUSH1 0x10 DUP2 LT ISZERO PUSH2 0xD56 JUMPI PUSH16 0x181899199A1A9B1B9C1CB0B131B232B3 PUSH1 0x81 SHL SWAP1 BYTE PUSH2 0x1751 DUP5 DUP9 PUSH2 0x3F43 JUMP JUMPDEST MSTORE8 PUSH1 0x4 SHR SWAP2 DUP1 ISZERO PUSH2 0xD40 JUMPI PUSH1 0x0 NOT ADD SWAP1 PUSH2 0x162D JUMP JUMPDEST DUP3 DUP1 REVERT JUMPDEST POP DUP1 REVERT JUMPDEST POP CALLVALUE PUSH2 0x17E JUMPI PUSH1 0x40 CALLDATASIZE PUSH1 0x3 NOT ADD SLT PUSH2 0x17E JUMPI PUSH1 0x40 PUSH2 0x178A PUSH2 0x3A6E JUMP JUMPDEST SWAP2 PUSH1 0x4 CALLDATALOAD DUP2 MSTORE DUP1 PUSH1 0x20 MSTORE KECCAK256 SWAP1 PUSH1 0x1 DUP1 PUSH1 0xA0 SHL SUB AND PUSH1 0x0 MSTORE PUSH1 0x20 MSTORE PUSH1 0x20 PUSH1 0xFF PUSH1 0x40 PUSH1 0x0 KECCAK256 SLOAD AND PUSH1 0x40 MLOAD SWAP1 ISZERO ISZERO DUP2 MSTORE RETURN JUMPDEST POP CALLVALUE PUSH2 0x17E JUMPI DUP1 PUSH1 0x3 NOT CALLDATASIZE ADD SLT PUSH2 0x17E JUMPI PUSH1 0x20 PUSH1 0x40 MLOAD PUSH32 0x4504B9DFD7400A1522F49A8B4A100552DA9236849581FD59B7363EB48C6A474C DUP2 MSTORE RETURN JUMPDEST POP CALLVALUE PUSH2 0x17E JUMPI PUSH1 0x20 CALLDATASIZE PUSH1 0x3 NOT ADD SLT PUSH2 0x17E JUMPI PUSH1 0x4 CALLDATALOAD SWAP1 PUSH1 0x9 SLOAD DUP3 LT ISZERO PUSH2 0x17E JUMPI PUSH1 0x20 PUSH2 0x181F DUP4 PUSH2 0x3D14 JUMP JUMPDEST SWAP1 SLOAD PUSH1 0x40 MLOAD PUSH1 0x3 SWAP3 SWAP1 SWAP3 SHL SHR PUSH1 0x1 PUSH1 0x1 PUSH1 0xA0 SHL SUB AND DUP2 MSTORE RETURN JUMPDEST POP CALLVALUE PUSH2 0x17E JUMPI PUSH1 0x20 CALLDATASIZE PUSH1 0x3 NOT ADD SLT PUSH2 0x17E JUMPI PUSH1 0x4 CALLDATALOAD DUP2 MSTORE PUSH1 0x5 PUSH1 0x20 SWAP1 DUP2 MSTORE PUSH1 0x40 SWAP2 DUP3 SWAP1 KECCAK256 DUP1 SLOAD PUSH1 0x1 DUP3 ADD SLOAD PUSH1 0x2 DUP4 ADD SLOAD PUSH1 0x3 SWAP1 SWAP4 ADD SLOAD DUP6 MLOAD SWAP3 DUP4 MSTORE SWAP4 DUP3 ADD MSTORE SWAP3 DUP4 ADD MSTORE PUSH1 0x60 DUP3 ADD MSTORE PUSH1 0x80 SWAP1 RETURN JUMPDEST POP CALLVALUE PUSH2 0x17E JUMPI PUSH1 0x40 CALLDATASIZE PUSH1 0x3 NOT ADD SLT PUSH2 0x17E JUMPI PUSH1 0x4 PUSH1 0x40 PUSH2 0x18A3 PUSH2 0x3A6E JUMP JUMPDEST SWAP3 DUP3 CALLDATALOAD DUP2 MSTORE PUSH1 0x5 PUSH1 0x20 MSTORE KECCAK256 ADD SWAP1 PUSH1 0x1 DUP1 PUSH1 0xA0 SHL SUB AND PUSH1 0x0 MSTORE PUSH1 0x20 MSTORE PUSH1 0x20 PUSH1 0x40 PUSH1 0x0 KECCAK256 SLOAD PUSH1 0x40 MLOAD SWAP1 DUP2 MSTORE RETURN JUMPDEST POP CALLVALUE PUSH2 0x17E JUMPI DUP1 PUSH1 0x3 NOT CALLDATASIZE ADD SLT PUSH2 0x17E JUMPI PUSH1 0x20 PUSH1 0x6 SLOAD PUSH1 0x40 MLOAD SWAP1 DUP2 MSTORE RETURN JUMPDEST POP CALLVALUE PUSH2 0x17E JUMPI PUSH1 0x20 CALLDATASIZE PUSH1 0x3 NOT ADD SLT PUSH2 0x17E JUMPI PUSH2 0x1906 PUSH2 0x3A53 JUMP JUMPDEST PUSH1 0x60 PUSH2 0x120 PUSH1 0x40 MLOAD PUSH2 0x1917 DUP2 PUSH2 0x3A84 JUMP JUMPDEST DUP3 DUP2 MSTORE DUP5 PUSH1 0x20 DUP3 ADD MSTORE DUP5 PUSH1 0x40 DUP3 ADD MSTORE DUP5 DUP4 DUP3 ADD MSTORE DUP5 PUSH1 0x80 DUP3 ADD MSTORE DUP3 PUSH1 0xA0 DUP3 ADD MSTORE DUP5 PUSH1 0xC0 DUP3 ADD MSTORE DUP3 PUSH1 0xE0 DUP3 ADD MSTORE DUP3 PUSH2 0x100 DUP3 ADD MSTORE ADD MSTORE PUSH1 0x1 DUP1 PUSH1 0xA0 SHL SUB AND DUP2 MSTORE PUSH1 0x4 PUSH1 0x20 MSTORE PUSH1 0x40 DUP2 KECCAK256 SWAP1 PUSH1 0x9 PUSH1 0x40 MLOAD SWAP3 PUSH2 0x196F DUP5 PUSH2 0x3A84 JUMP JUMPDEST PUSH2 0x1978 DUP2 PUSH2 0x3C3A JUMP JUMPDEST DUP5 MSTORE PUSH2 0x198E PUSH1 0xFF PUSH1 0x1 DUP4 ADD SLOAD AND PUSH1 0x20 DUP7 ADD PUSH2 0x406F JUMP JUMPDEST PUSH1 0x2 DUP2 ADD SLOAD PUSH1 0x40 DUP6 ADD MSTORE PUSH1 0x3 DUP2 ADD SLOAD PUSH1 0x60 DUP6 ADD MSTORE PUSH1 0x4 DUP2 ADD SLOAD PUSH1 0x80 DUP6 ADD MSTORE PUSH2 0x19B8 PUSH1 0x5 DUP3 ADD PUSH2 0x412C JUMP JUMPDEST PUSH1 0xA0 DUP6 ADD MSTORE PUSH1 0xFF PUSH1 0x6 DUP3 ADD SLOAD AND ISZERO ISZERO PUSH1 0xC0 DUP6 ADD MSTORE PUSH2 0x19D8 PUSH1 0x7 DUP3 ADD PUSH2 0x3C3A JUMP JUMPDEST PUSH1 0xE0 DUP6 ADD MSTORE PUSH2 0x19E9 PUSH1 0x8 DUP3 ADD PUSH2 0x3C3A JUMP JUMPDEST PUSH2 0x100 DUP6 ADD MSTORE PUSH1 0x40 MLOAD SWAP2 ADD DUP1 SLOAD DUP1 DUP4 MSTORE SWAP1 DUP4 MSTORE PUSH1 0x20 DUP1 DUP5 KECCAK256 SWAP2 DUP4 SWAP2 DUP3 ADD SWAP1 DUP6 SWAP1 JUMPDEST DUP1 PUSH1 0x1F DUP4 ADD LT PUSH2 0x1FD8 JUMPI PUSH2 0x1B20 SWAP5 SLOAD SWAP2 DUP2 DUP2 LT PUSH2 0x1FBD JUMPI JUMPDEST DUP2 DUP2 LT PUSH2 0x1F9F JUMPI JUMPDEST DUP2 DUP2 LT PUSH2 0x1F81 JUMPI JUMPDEST DUP2 DUP2 LT PUSH2 0x1F63 JUMPI JUMPDEST DUP2 DUP2 LT PUSH2 0x1F46 JUMPI JUMPDEST DUP2 DUP2 LT PUSH2 0x1F28 JUMPI JUMPDEST DUP2 DUP2 LT PUSH2 0x1F0A JUMPI JUMPDEST DUP2 DUP2 LT PUSH2 0x1EEC JUMPI JUMPDEST DUP2 DUP2 LT PUSH2 0x1ECE JUMPI JUMPDEST DUP2 DUP2 LT PUSH2 0x1EB0 JUMPI JUMPDEST DUP2 DUP2 LT PUSH2 0x1E92 JUMPI JUMPDEST DUP2 DUP2 LT PUSH2 0x1E74 JUMPI JUMPDEST DUP2 DUP2 LT PUSH2 0x1E56 JUMPI JUMPDEST DUP2 DUP2 LT PUSH2 0x1E38 JUMPI JUMPDEST DUP2 DUP2 LT PUSH2 0x1E1A JUMPI JUMPDEST DUP2 DUP2 LT PUSH2 0x1DFC JUMPI JUMPDEST DUP2 DUP2 LT PUSH2 0x1DDE JUMPI JUMPDEST DUP2 DUP2 LT PUSH2 0x1DC0 JUMPI JUMPDEST DUP2 DUP2 LT PUSH2 0x1DA2 JUMPI JUMPDEST DUP2 DUP2 LT PUSH2 0x1D84 JUMPI JUMPDEST DUP2 DUP2 LT PUSH2 0x1D66 JUMPI JUMPDEST DUP2 DUP2 LT PUSH2 0x1D48 JUMPI JUMPDEST DUP2 DUP2 LT PUSH2 0x1D2A JUMPI JUMPDEST DUP2 DUP2 LT PUSH2 0x1D0C JUMPI JUMPDEST DUP2 DUP2 LT PUSH2 0x1CEE JUMPI JUMPDEST DUP2 DUP2 LT PUSH2 0x1CD0 JUMPI JUMPDEST DUP2 DUP2 LT PUSH2 0x1CB2 JUMPI JUMPDEST DUP2 DUP2 LT PUSH2 0x1C94 JUMPI JUMPDEST DUP2 DUP2 LT PUSH2 0x1C76 JUMPI JUMPDEST DUP2 DUP2 LT PUSH2 0x1C58 JUMPI JUMPDEST DUP2 DUP2 LT PUSH2 0x1C3A JUMPI JUMPDEST LT PUSH2 0x1C23 JUMPI JUMPDEST POP SUB DUP3 PUSH2 0x3AD7 JUMP JUMPDEST PUSH2 0x120 DUP4 ADD MSTORE PUSH1 0x40 MLOAD SWAP2 DUP3 SWAP2 PUSH1 0x20 DUP4 MSTORE PUSH2 0x120 PUSH2 0x1BD3 PUSH2 0x1BBD PUSH2 0x1B9A PUSH2 0x1B54 DUP7 MLOAD PUSH2 0x140 PUSH1 0x20 DUP11 ADD MSTORE PUSH2 0x160 DUP10 ADD SWAP1 PUSH2 0x3B94 JUMP JUMPDEST PUSH2 0x1B66 PUSH1 0x20 DUP9 ADD MLOAD PUSH1 0x40 DUP11 ADD SWAP1 PUSH2 0x3BF3 JUMP JUMPDEST PUSH1 0x40 DUP8 ADD MLOAD PUSH1 0x60 DUP10 ADD MSTORE PUSH1 0x60 DUP8 ADD MLOAD PUSH1 0x80 DUP10 ADD MSTORE PUSH1 0x80 DUP8 ADD MLOAD PUSH1 0xA0 DUP10 ADD MSTORE PUSH1 0xA0 DUP8 ADD MLOAD PUSH1 0x1F NOT DUP10 DUP4 SUB ADD PUSH1 0xC0 DUP11 ADD MSTORE PUSH2 0x3CE0 JUMP JUMPDEST PUSH1 0xC0 DUP7 ADD MLOAD ISZERO ISZERO PUSH1 0xE0 DUP9 ADD MSTORE PUSH1 0xE0 DUP7 ADD MLOAD PUSH1 0x1F NOT DUP9 DUP4 SUB ADD PUSH2 0x100 DUP10 ADD MSTORE PUSH2 0x3B94 JUMP JUMPDEST PUSH2 0x100 DUP6 ADD MLOAD DUP7 DUP3 SUB PUSH1 0x1F NOT ADD DUP5 DUP9 ADD MSTORE PUSH2 0x3B94 JUMP JUMPDEST SWAP3 ADD MLOAD SWAP2 PUSH1 0x1F NOT DUP5 DUP3 SUB ADD PUSH2 0x140 DUP6 ADD MSTORE PUSH1 0x20 DUP1 DUP5 MLOAD SWAP3 DUP4 DUP2 MSTORE ADD SWAP4 ADD SWAP2 JUMPDEST DUP2 DUP2 LT PUSH2 0x1C00 JUMPI POP POP POP SUB SWAP1 RETURN JUMPDEST SWAP2 SWAP4 POP SWAP2 PUSH1 0x20 DUP1 DUP3 PUSH2 0x1C15 PUSH1 0x1 SWAP5 DUP9 MLOAD PUSH2 0x3BE6 JUMP JUMPDEST ADD SWAP5 ADD SWAP2 ADD SWAP2 DUP5 SWAP4 SWAP3 PUSH2 0x1BF2 JUMP JUMPDEST SWAP1 PUSH2 0x1C33 DUP2 PUSH1 0x20 SWAP4 PUSH1 0xF8 SHR PUSH2 0x3BE6 JUMP JUMPDEST ADD CODESIZE PUSH2 0x1B18 JUMP JUMPDEST SWAP3 PUSH1 0x20 DUP2 PUSH2 0x1C50 PUSH1 0x1 SWAP4 PUSH1 0xFF DUP8 PUSH1 0xF0 SHR AND PUSH2 0x3BE6 JUMP JUMPDEST ADD SWAP4 ADD PUSH2 0x1B12 JUMP JUMPDEST SWAP3 PUSH1 0x20 DUP2 PUSH2 0x1C6E PUSH1 0x1 SWAP4 PUSH1 0xFF DUP8 PUSH1 0xE8 SHR AND PUSH2 0x3BE6 JUMP JUMPDEST ADD SWAP4 ADD PUSH2 0x1B0A JUMP JUMPDEST SWAP3 PUSH1 0x20 DUP2 PUSH2 0x1C8C PUSH1 0x1 SWAP4 PUSH1 0xFF DUP8 PUSH1 0xE0 SHR AND PUSH2 0x3BE6 JUMP JUMPDEST ADD SWAP4 ADD PUSH2 0x1B02 JUMP JUMPDEST SWAP3 PUSH1 0x20 DUP2 PUSH2 0x1CAA PUSH1 0x1 SWAP4 PUSH1 0xFF DUP8 PUSH1 0xD8 SHR AND PUSH2 0x3BE6 JUMP JUMPDEST ADD SWAP4 ADD PUSH2 0x1AFA JUMP JUMPDEST SWAP3 PUSH1 0x20 DUP2 PUSH2 0x1CC8 PUSH1 0x1 SWAP4 PUSH1 0xFF DUP8 PUSH1 0xD0 SHR AND PUSH2 0x3BE6 JUMP JUMPDEST ADD SWAP4 ADD PUSH2 0x1AF2 JUMP JUMPDEST SWAP3 PUSH1 0x20 DUP2 PUSH2 0x1CE6 PUSH1 0x1 SWAP4 PUSH1 0xFF DUP8 PUSH1 0xC8 SHR AND PUSH2 0x3BE6 JUMP JUMPDEST ADD SWAP4 ADD PUSH2 0x1AEA JUMP JUMPDEST SWAP3 PUSH1 0x20 DUP2 PUSH2 0x1D04 PUSH1 0x1 SWAP4 PUSH1 0xFF DUP8 PUSH1 0xC0 SHR AND PUSH2 0x3BE6 JUMP JUMPDEST ADD SWAP4 ADD PUSH2 0x1AE2 JUMP JUMPDEST SWAP3 PUSH1 0x20 DUP2 PUSH2 0x1D22 PUSH1 0x1 SWAP4 PUSH1 0xFF DUP8 PUSH1 0xB8 SHR AND PUSH2 0x3BE6 JUMP JUMPDEST ADD SWAP4 ADD PUSH2 0x1ADA JUMP JUMPDEST SWAP3 PUSH1 0x20 DUP2 PUSH2 0x1D40 PUSH1 0x1 SWAP4 PUSH1 0xFF DUP8 PUSH1 0xB0 SHR AND PUSH2 0x3BE6 JUMP JUMPDEST ADD SWAP4 ADD PUSH2 0x1AD2 JUMP JUMPDEST SWAP3 PUSH1 0x20 DUP2 PUSH2 0x1D5E PUSH1 0x1 SWAP4 PUSH1 0xFF DUP8 PUSH1 0xA8 SHR AND PUSH2 0x3BE6 JUMP JUMPDEST ADD SWAP4 ADD PUSH2 0x1ACA JUMP JUMPDEST SWAP3 PUSH1 0x20 DUP2 PUSH2 0x1D7C PUSH1 0x1 SWAP4 PUSH1 0xFF DUP8 PUSH1 0xA0 SHR AND PUSH2 0x3BE6 JUMP JUMPDEST ADD SWAP4 ADD PUSH2 0x1AC2 JUMP JUMPDEST SWAP3 PUSH1 0x20 DUP2 PUSH2 0x1D9A PUSH1 0x1 SWAP4 PUSH1 0xFF DUP8 PUSH1 0x98 SHR AND PUSH2 0x3BE6 JUMP JUMPDEST ADD SWAP4 ADD PUSH2 0x1ABA JUMP JUMPDEST SWAP3 PUSH1 0x20 DUP2 PUSH2 0x1DB8 PUSH1 0x1 SWAP4 PUSH1 0xFF DUP8 PUSH1 0x90 SHR AND PUSH2 0x3BE6 JUMP JUMPDEST ADD SWAP4 ADD PUSH2 0x1AB2 JUMP JUMPDEST SWAP3 PUSH1 0x20 DUP2 PUSH2 0x1DD6 PUSH1 0x1 SWAP4 PUSH1 0xFF DUP8 PUSH1 0x88 SHR AND PUSH2 0x3BE6 JUMP JUMPDEST ADD SWAP4 ADD PUSH2 0x1AAA JUMP JUMPDEST SWAP3 PUSH1 0x20 DUP2 PUSH2 0x1DF4 PUSH1 0x1 SWAP4 PUSH1 0xFF DUP8 PUSH1 0x80 SHR AND PUSH2 0x3BE6 JUMP JUMPDEST ADD SWAP4 ADD PUSH2 0x1AA2 JUMP JUMPDEST SWAP3 PUSH1 0x20 DUP2 PUSH2 0x1E12 PUSH1 0x1 SWAP4 PUSH1 0xFF DUP8 PUSH1 0x78 SHR AND PUSH2 0x3BE6 JUMP JUMPDEST ADD SWAP4 ADD PUSH2 0x1A9A JUMP JUMPDEST SWAP3 PUSH1 0x20 DUP2 PUSH2 0x1E30 PUSH1 0x1 SWAP4 PUSH1 0xFF DUP8 PUSH1 0x70 SHR AND PUSH2 0x3BE6 JUMP JUMPDEST ADD SWAP4 ADD PUSH2 0x1A92 JUMP JUMPDEST SWAP3 PUSH1 0x20 DUP2 PUSH2 0x1E4E PUSH1 0x1 SWAP4 PUSH1 0xFF DUP8 PUSH1 0x68 SHR AND PUSH2 0x3BE6 JUMP JUMPDEST ADD SWAP4 ADD PUSH2 0x1A8A JUMP JUMPDEST SWAP3 PUSH1 0x20 DUP2 PUSH2 0x1E6C PUSH1 0x1 SWAP4 PUSH1 0xFF DUP8 PUSH1 0x60 SHR AND PUSH2 0x3BE6 JUMP JUMPDEST ADD SWAP4 ADD PUSH2 0x1A82 JUMP JUMPDEST SWAP3 PUSH1 0x20 DUP2 PUSH2 0x1E8A PUSH1 0x1 SWAP4 PUSH1 0xFF DUP8 PUSH1 0x58 SHR AND PUSH2 0x3BE6 JUMP JUMPDEST ADD SWAP4 ADD PUSH2 0x1A7A JUMP JUMPDEST SWAP3 PUSH1 0x20 DUP2 PUSH2 0x1EA8 PUSH1 0x1 SWAP4 PUSH1 0xFF DUP8 PUSH1 0x50 SHR AND PUSH2 0x3BE6 JUMP JUMPDEST ADD SWAP4 ADD PUSH2 0x1A72 JUMP JUMPDEST SWAP3 PUSH1 0x20 DUP2 PUSH2 0x1EC6 PUSH1 0x1 SWAP4 PUSH1 0xFF DUP8 PUSH1 0x48 SHR AND PUSH2 0x3BE6 JUMP JUMPDEST ADD SWAP4 ADD PUSH2 0x1A6A JUMP JUMPDEST SWAP3 PUSH1 0x20 DUP2 PUSH2 0x1EE4 PUSH1 0x1 SWAP4 PUSH1 0xFF DUP8 PUSH1 0x40 SHR AND PUSH2 0x3BE6 JUMP JUMPDEST ADD SWAP4 ADD PUSH2 0x1A62 JUMP JUMPDEST SWAP3 PUSH1 0x20 DUP2 PUSH2 0x1F02 PUSH1 0x1 SWAP4 PUSH1 0xFF DUP8 PUSH1 0x38 SHR AND PUSH2 0x3BE6 JUMP JUMPDEST ADD SWAP4 ADD PUSH2 0x1A5A JUMP JUMPDEST SWAP3 PUSH1 0x20 DUP2 PUSH2 0x1F20 PUSH1 0x1 SWAP4 PUSH1 0xFF DUP8 PUSH1 0x30 SHR AND PUSH2 0x3BE6 JUMP JUMPDEST ADD SWAP4 ADD PUSH2 0x1A52 JUMP JUMPDEST SWAP3 PUSH1 0x20 DUP2 PUSH2 0x1F3E PUSH1 0x1 SWAP4 PUSH1 0xFF DUP8 PUSH1 0x28 SHR AND PUSH2 0x3BE6 JUMP JUMPDEST ADD SWAP4 ADD PUSH2 0x1A4A JUMP JUMPDEST SWAP3 PUSH1 0x20 DUP2 PUSH2 0x1F5B PUSH1 0x1 SWAP4 PUSH1 0xFF DUP8 DUP6 SHR AND PUSH2 0x3BE6 JUMP JUMPDEST ADD SWAP4 ADD PUSH2 0x1A42 JUMP JUMPDEST SWAP3 PUSH1 0x20 DUP2 PUSH2 0x1F79 PUSH1 0x1 SWAP4 PUSH1 0xFF DUP8 PUSH1 0x18 SHR AND PUSH2 0x3BE6 JUMP JUMPDEST ADD SWAP4 ADD PUSH2 0x1A3A JUMP JUMPDEST SWAP3 PUSH1 0x20 DUP2 PUSH2 0x1F97 PUSH1 0x1 SWAP4 PUSH1 0xFF DUP8 PUSH1 0x10 SHR AND PUSH2 0x3BE6 JUMP JUMPDEST ADD SWAP4 ADD PUSH2 0x1A32 JUMP JUMPDEST SWAP3 PUSH1 0x20 DUP2 PUSH2 0x1FB5 PUSH1 0x1 SWAP4 PUSH1 0xFF DUP8 PUSH1 0x8 SHR AND PUSH2 0x3BE6 JUMP JUMPDEST ADD SWAP4 ADD PUSH2 0x1A2A JUMP JUMPDEST SWAP3 PUSH1 0x20 DUP2 PUSH2 0x1FD0 PUSH1 0x1 SWAP4 PUSH1 0xFF DUP8 AND PUSH2 0x3BE6 JUMP JUMPDEST ADD SWAP4 ADD PUSH2 0x1A22 JUMP JUMPDEST SWAP2 PUSH1 0x20 SWAP2 SWAP4 POP PUSH2 0x400 PUSH1 0x1 SWAP2 PUSH2 0x2253 DUP8 SLOAD PUSH2 0x1FF6 DUP4 PUSH1 0xFF DUP4 AND PUSH2 0x3BE6 JUMP JUMPDEST PUSH2 0x2008 DUP7 DUP5 ADD PUSH1 0xFF DUP4 PUSH1 0x8 SHR AND PUSH2 0x3BE6 JUMP JUMPDEST PUSH2 0x201B PUSH1 0x40 DUP5 ADD PUSH1 0xFF DUP4 PUSH1 0x10 SHR AND PUSH2 0x3BE6 JUMP JUMPDEST PUSH2 0x202E PUSH1 0x60 DUP5 ADD PUSH1 0xFF DUP4 PUSH1 0x18 SHR AND PUSH2 0x3BE6 JUMP JUMPDEST PUSH2 0x2040 PUSH1 0x80 DUP5 ADD PUSH1 0xFF DUP4 DUP10 SHR AND PUSH2 0x3BE6 JUMP JUMPDEST PUSH2 0x2053 PUSH1 0xA0 DUP5 ADD PUSH1 0xFF DUP4 PUSH1 0x28 SHR AND PUSH2 0x3BE6 JUMP JUMPDEST PUSH2 0x2066 PUSH1 0xC0 DUP5 ADD PUSH1 0xFF DUP4 PUSH1 0x30 SHR AND PUSH2 0x3BE6 JUMP JUMPDEST PUSH2 0x2079 PUSH1 0xE0 DUP5 ADD PUSH1 0xFF DUP4 PUSH1 0x38 SHR AND PUSH2 0x3BE6 JUMP JUMPDEST PUSH2 0x208D PUSH2 0x100 DUP5 ADD PUSH1 0xFF DUP4 PUSH1 0x40 SHR AND PUSH2 0x3BE6 JUMP JUMPDEST PUSH2 0x20A1 PUSH2 0x120 DUP5 ADD PUSH1 0xFF DUP4 PUSH1 0x48 SHR AND PUSH2 0x3BE6 JUMP JUMPDEST PUSH2 0x20B5 PUSH2 0x140 DUP5 ADD PUSH1 0xFF DUP4 PUSH1 0x50 SHR AND PUSH2 0x3BE6 JUMP JUMPDEST PUSH2 0x20C9 PUSH2 0x160 DUP5 ADD PUSH1 0xFF DUP4 PUSH1 0x58 SHR AND PUSH2 0x3BE6 JUMP JUMPDEST PUSH2 0x20DD PUSH2 0x180 DUP5 ADD PUSH1 0xFF DUP4 PUSH1 0x60 SHR AND PUSH2 0x3BE6 JUMP JUMPDEST PUSH2 0x20F1 PUSH2 0x1A0 DUP5 ADD PUSH1 0xFF DUP4 PUSH1 0x68 SHR AND PUSH2 0x3BE6 JUMP JUMPDEST PUSH2 0x2105 PUSH2 0x1C0 DUP5 ADD PUSH1 0xFF DUP4 PUSH1 0x70 SHR AND PUSH2 0x3BE6 JUMP JUMPDEST PUSH2 0x2119 PUSH2 0x1E0 DUP5 ADD PUSH1 0xFF DUP4 PUSH1 0x78 SHR AND PUSH2 0x3BE6 JUMP JUMPDEST PUSH2 0x212D PUSH2 0x200 DUP5 ADD PUSH1 0xFF DUP4 PUSH1 0x80 SHR AND PUSH2 0x3BE6 JUMP JUMPDEST PUSH2 0x2141 PUSH2 0x220 DUP5 ADD PUSH1 0xFF DUP4 PUSH1 0x88 SHR AND PUSH2 0x3BE6 JUMP JUMPDEST PUSH2 0x2155 PUSH2 0x240 DUP5 ADD PUSH1 0xFF DUP4 PUSH1 0x90 SHR AND PUSH2 0x3BE6 JUMP JUMPDEST PUSH2 0x2169 PUSH2 0x260 DUP5 ADD PUSH1 0xFF DUP4 PUSH1 0x98 SHR AND PUSH2 0x3BE6 JUMP JUMPDEST PUSH2 0x217D PUSH2 0x280 DUP5 ADD PUSH1 0xFF DUP4 PUSH1 0xA0 SHR AND PUSH2 0x3BE6 JUMP JUMPDEST PUSH2 0x2191 PUSH2 0x2A0 DUP5 ADD PUSH1 0xFF DUP4 PUSH1 0xA8 SHR AND PUSH2 0x3BE6 JUMP JUMPDEST PUSH2 0x21A5 PUSH2 0x2C0 DUP5 ADD PUSH1 0xFF DUP4 PUSH1 0xB0 SHR AND PUSH2 0x3BE6 JUMP JUMPDEST PUSH2 0x21B9 PUSH2 0x2E0 DUP5 ADD PUSH1 0xFF DUP4 PUSH1 0xB8 SHR AND PUSH2 0x3BE6 JUMP JUMPDEST PUSH2 0x21CD PUSH2 0x300 DUP5 ADD PUSH1 0xFF DUP4 PUSH1 0xC0 SHR AND PUSH2 0x3BE6 JUMP JUMPDEST PUSH2 0x21E1 PUSH2 0x320 DUP5 ADD PUSH1 0xFF DUP4 PUSH1 0xC8 SHR AND PUSH2 0x3BE6 JUMP JUMPDEST PUSH2 0x21F5 PUSH2 0x340 DUP5 ADD PUSH1 0xFF DUP4 PUSH1 0xD0 SHR AND PUSH2 0x3BE6 JUMP JUMPDEST PUSH2 0x2209 PUSH2 0x360 DUP5 ADD PUSH1 0xFF DUP4 PUSH1 0xD8 SHR AND PUSH2 0x3BE6 JUMP JUMPDEST PUSH2 0x221D PUSH2 0x380 DUP5 ADD PUSH1 0xFF DUP4 PUSH1 0xE0 SHR AND PUSH2 0x3BE6 JUMP JUMPDEST PUSH2 0x2231 PUSH2 0x3A0 DUP5 ADD PUSH1 0xFF DUP4 PUSH1 0xE8 SHR AND PUSH2 0x3BE6 JUMP JUMPDEST PUSH2 0x2245 PUSH2 0x3C0 DUP5 ADD PUSH1 0xFF DUP4 PUSH1 0xF0 SHR AND PUSH2 0x3BE6 JUMP JUMPDEST PUSH2 0x3E0 DUP4 ADD SWAP1 PUSH1 0xF8 SHR PUSH2 0x3BE6 JUMP JUMPDEST ADD SWAP5 ADD SWAP3 ADD DUP5 SWAP3 SWAP4 SWAP2 PUSH2 0x1A0A JUMP JUMPDEST POP CALLVALUE PUSH2 0x17E JUMPI PUSH1 0x20 CALLDATASIZE PUSH1 0x3 NOT ADD SLT PUSH2 0x17E JUMPI PUSH2 0x22F5 SWAP1 PUSH1 0x40 SWAP1 PUSH1 0x1 PUSH1 0x1 PUSH1 0xA0 SHL SUB PUSH2 0x228A PUSH2 0x3A53 JUMP JUMPDEST AND DUP2 MSTORE PUSH1 0x4 PUSH1 0x20 MSTORE KECCAK256 PUSH2 0x42D PUSH2 0x229F DUP3 PUSH2 0x3C3A JUMP JUMPDEST SWAP2 PUSH2 0x2323 PUSH1 0xFF PUSH1 0x1 DUP4 ADD SLOAD AND PUSH1 0x2 DUP4 ADD SLOAD SWAP3 PUSH1 0x3 DUP2 ADD SLOAD PUSH1 0x4 DUP3 ADD SLOAD PUSH1 0xFF PUSH1 0x6 DUP5 ADD SLOAD AND SWAP2 PUSH2 0x22DC PUSH1 0x8 PUSH2 0x22D5 PUSH1 0x7 DUP8 ADD PUSH2 0x3C3A JUMP JUMPDEST SWAP6 ADD PUSH2 0x3C3A JUMP JUMPDEST SWAP7 PUSH2 0x2300 PUSH1 0x40 MLOAD SWAP12 DUP13 SWAP12 DUP13 PUSH2 0x100 DUP1 SWAP2 MSTORE DUP14 ADD SWAP1 PUSH2 0x3B94 JUMP JUMPDEST SWAP7 PUSH1 0x20 DUP13 ADD SWAP1 PUSH2 0x3BF3 JUMP JUMPDEST PUSH1 0x40 DUP11 ADD MSTORE PUSH1 0x60 DUP10 ADD MSTORE PUSH1 0x80 DUP9 ADD MSTORE ISZERO ISZERO PUSH1 0xA0 DUP8 ADD MSTORE DUP6 DUP3 SUB PUSH1 0xC0 DUP8 ADD MSTORE PUSH2 0x3B94 JUMP JUMPDEST SWAP1 DUP4 DUP3 SUB PUSH1 0xE0 DUP6 ADD MSTORE PUSH2 0x3B94 JUMP JUMPDEST POP CALLVALUE PUSH2 0x17E JUMPI DUP1 PUSH1 0x3 NOT CALLDATASIZE ADD SLT PUSH2 0x17E JUMPI PUSH1 0x20 PUSH1 0x40 MLOAD PUSH32 0x5AA58C694AEB083DF8754BF5E98675317E4137A5A8A2C6188D0228869E43DA7E DUP2 MSTORE RETURN JUMPDEST POP CALLVALUE PUSH2 0x17E JUMPI DUP1 PUSH1 0x3 NOT CALLDATASIZE ADD SLT PUSH2 0x17E JUMPI PUSH1 0xB SLOAD PUSH1 0x40 MLOAD PUSH1 0x1 PUSH1 0x1 PUSH1 0xA0 SHL SUB SWAP1 SWAP2 AND DUP2 MSTORE PUSH1 0x20 SWAP1 RETURN JUMPDEST POP CALLVALUE PUSH2 0x17E JUMPI DUP1 PUSH1 0x3 NOT CALLDATASIZE ADD SLT PUSH2 0x17E JUMPI PUSH1 0x40 MLOAD DUP1 SWAP2 PUSH1 0x9 SLOAD SWAP1 DUP2 DUP4 MSTORE PUSH1 0x20 DUP1 SWAP4 ADD DUP1 SWAP3 PUSH1 0x9 DUP4 MSTORE PUSH32 0x6E1540171B6C0C960B71A7020D9F60077F6AF931A8BBF590DA0223DACF75C7AF SWAP1 DUP4 JUMPDEST DUP2 DUP2 LT PUSH2 0x243E JUMPI POP POP POP DUP5 PUSH2 0x23F7 SWAP2 SUB DUP6 PUSH2 0x3AD7 JUMP JUMPDEST PUSH1 0x40 MLOAD SWAP4 DUP4 DUP6 SWAP5 DUP6 ADD SWAP2 DUP2 DUP7 MSTORE MLOAD DUP1 SWAP3 MSTORE PUSH1 0x40 DUP6 ADD SWAP4 SWAP3 JUMPDEST DUP3 DUP2 LT PUSH2 0x241E JUMPI POP POP POP POP SUB SWAP1 RETURN JUMPDEST DUP4 MLOAD PUSH1 0x1 PUSH1 0x1 PUSH1 0xA0 SHL SUB AND DUP6 MSTORE DUP7 SWAP6 POP SWAP4 DUP2 ADD SWAP4 SWAP3 DUP2 ADD SWAP3 PUSH1 0x1 ADD PUSH2 0x240F JUMP JUMPDEST DUP3 SLOAD PUSH1 0x1 PUSH1 0x1 PUSH1 0xA0 SHL SUB AND DUP5 MSTORE SWAP3 DUP7 ADD SWAP3 PUSH1 0x1 SWAP3 DUP4 ADD SWAP3 ADD PUSH2 0x23E1 JUMP JUMPDEST POP CALLVALUE PUSH2 0x17E JUMPI PUSH1 0x40 CALLDATASIZE PUSH1 0x3 NOT ADD SLT PUSH2 0x17E JUMPI PUSH2 0x2475 PUSH2 0x3A6E JUMP JUMPDEST CALLER PUSH1 0x1 PUSH1 0x1 PUSH1 0xA0 SHL SUB DUP3 AND SUB PUSH2 0x2491 JUMPI PUSH2 0x46E SWAP1 PUSH1 0x4 CALLDATALOAD PUSH2 0x3EC2 JUMP JUMPDEST PUSH1 0x40 MLOAD PUSH3 0x461BCD PUSH1 0xE5 SHL DUP2 MSTORE PUSH1 0x20 PUSH1 0x4 DUP3 ADD MSTORE PUSH1 0x2F PUSH1 0x24 DUP3 ADD MSTORE PUSH32 0x416363657373436F6E74726F6C3A2063616E206F6E6C792072656E6F756E6365 PUSH1 0x44 DUP3 ADD MSTORE PUSH15 0x103937B632B9903337B91039B2B633 PUSH1 0x89 SHL PUSH1 0x64 DUP3 ADD MSTORE PUSH1 0x84 SWAP1 REVERT JUMPDEST POP CALLVALUE PUSH2 0x17E JUMPI PUSH1 0x40 CALLDATASIZE PUSH1 0x3 NOT ADD SLT PUSH2 0x17E JUMPI PUSH1 0x4 CALLDATALOAD PUSH2 0x250B PUSH2 0x3A6E JUMP JUMPDEST DUP2 DUP4 MSTORE DUP3 PUSH1 0x20 MSTORE PUSH2 0x2522 PUSH1 0x1 PUSH1 0x40 DUP6 KECCAK256 ADD SLOAD PUSH2 0x3D4B JUMP JUMPDEST DUP2 PUSH1 0x0 MSTORE PUSH1 0x0 PUSH1 0x20 MSTORE PUSH1 0x40 PUSH1 0x0 KECCAK256 SWAP1 PUSH1 0x1 DUP1 PUSH1 0xA0 SHL SUB AND SWAP1 DUP2 PUSH1 0x0 MSTORE PUSH1 0x20 MSTORE PUSH1 0xFF PUSH1 0x40 PUSH1 0x0 KECCAK256 SLOAD AND ISZERO PUSH2 0x2553 JUMPI DUP3 DUP1 RETURN JUMPDEST DUP2 PUSH1 0x0 MSTORE PUSH1 0x0 PUSH1 0x20 MSTORE PUSH1 0x40 PUSH1 0x0 KECCAK256 DUP2 PUSH1 0x0 MSTORE PUSH1 0x20 MSTORE PUSH1 0x40 PUSH1 0x0 KECCAK256 PUSH1 0x1 PUSH1 0xFF NOT DUP3 SLOAD AND OR SWAP1 SSTORE CALLER SWAP2 PUSH32 0x2F8788117E7EFF1D82E926EC794901D17C78024A50270940304540A733656F0D PUSH1 0x0 DUP1 LOG4 CODESIZE DUP1 DUP3 DUP1 RETURN JUMPDEST POP PUSH1 0x40 CALLDATASIZE PUSH1 0x3 NOT ADD SLT PUSH2 0x17E JUMPI PUSH1 0x2 PUSH1 0x1 SLOAD EQ PUSH2 0x2A7C JUMPI PUSH1 0x2 PUSH1 0x1 SSTORE PUSH1 0x4 CALLDATALOAD DUP2 MSTORE PUSH1 0x2 PUSH1 0x20 MSTORE PUSH1 0x40 DUP2 KECCAK256 PUSH1 0xFF PUSH1 0x10 DUP3 ADD SLOAD AND ISZERO PUSH2 0x2A44 JUMPI PUSH1 0x9 DUP2 ADD SWAP1 PUSH1 0xFF DUP3 SLOAD AND PUSH1 0x5 DUP2 LT ISZERO PUSH2 0x2881 JUMPI DUP1 ISZERO SWAP1 DUP2 ISZERO PUSH2 0x2A39 JUMPI JUMPDEST POP ISZERO PUSH2 0x2A03 JUMPI PUSH1 0xF DUP2 ADD SLOAD TIMESTAMP GT PUSH2 0x29BE JUMPI PUSH1 0x5 DUP2 ADD SLOAD PUSH1 0x24 CALLDATALOAD LT PUSH2 0x2979 JUMPI PUSH1 0x6 DUP2 ADD SWAP1 DUP2 SLOAD PUSH1 0x7 DUP3 ADD SWAP2 PUSH2 0x262F DUP4 SLOAD DUP1 SWAP4 PUSH2 0x40AA JUMP JUMPDEST PUSH1 0x24 CALLDATALOAD GT PUSH2 0x293B JUMPI PUSH1 0xB DUP2 ADD SLOAD PUSH1 0x1 PUSH1 0x1 PUSH1 0xA0 SHL SUB AND DUP7 MSTORE PUSH1 0x4 PUSH1 0x20 MSTORE PUSH1 0x40 DUP7 KECCAK256 PUSH1 0x2 ADD SLOAD PUSH1 0x24 CALLDATALOAD DUP1 DUP3 MUL SWAP4 SWAP2 DUP2 ISZERO SWAP2 DUP6 DIV EQ OR ISZERO PUSH2 0x2927 JUMPI PUSH2 0x2686 SWAP1 PUSH2 0x267C PUSH2 0x2710 DUP6 DIV PUSH1 0x24 CALLDATALOAD PUSH2 0x40AA JUMP JUMPDEST POP PUSH1 0x24 CALLDATALOAD SWAP1 PUSH2 0x3F36 JUMP JUMPDEST DUP4 SSTORE PUSH1 0x4 CALLDATALOAD DUP7 MSTORE PUSH1 0x5 PUSH1 0x20 MSTORE PUSH1 0x40 DUP7 KECCAK256 CALLER DUP8 MSTORE PUSH1 0x4 DUP2 ADD PUSH1 0x20 MSTORE PUSH1 0x40 DUP8 KECCAK256 SLOAD ISZERO PUSH2 0x28FD JUMPI JUMPDEST CALLER DUP8 MSTORE PUSH1 0x4 DUP2 ADD PUSH1 0x20 MSTORE PUSH2 0x26C5 PUSH1 0x24 CALLDATALOAD PUSH1 0x40 DUP10 KECCAK256 SLOAD PUSH2 0x3F36 JUMP JUMPDEST CALLER DUP9 MSTORE PUSH1 0x4 DUP3 ADD PUSH1 0x20 MSTORE PUSH1 0x40 DUP9 KECCAK256 SSTORE PUSH1 0x5 DUP2 ADD PUSH1 0x20 MSTORE TIMESTAMP PUSH1 0x40 DUP9 KECCAK256 SSTORE PUSH10 0x69E10DE76676D0800000 PUSH1 0x24 CALLDATALOAD LT ISZERO PUSH1 0x0 EQ PUSH2 0x28E5 JUMPI PUSH1 0x2 DUP2 ADD PUSH2 0x2709 PUSH1 0x24 CALLDATALOAD DUP3 SLOAD PUSH2 0x3F36 JUMP JUMPDEST SWAP1 SSTORE JUMPDEST PUSH2 0x271F PUSH1 0x2 DUP3 ADD SLOAD PUSH1 0x3 DUP4 ADD SLOAD SWAP1 PUSH2 0x3F36 JUMP JUMPDEST DUP2 SLOAD SWAP1 DUP2 ISZERO PUSH2 0x28D1 JUMPI DIV PUSH1 0x1 SWAP1 SWAP2 ADD SSTORE SLOAD DUP6 SWAP1 PUSH1 0x1 PUSH1 0x1 PUSH1 0xA0 SHL SUB AND DUP1 EXTCODESIZE ISZERO PUSH2 0x176A JUMPI DUP2 SWAP1 PUSH1 0x44 PUSH1 0x40 MLOAD DUP1 SWAP5 DUP2 SWAP4 PUSH4 0x40C10F19 PUSH1 0xE0 SHL DUP4 MSTORE CALLER PUSH1 0x4 DUP5 ADD MSTORE PUSH1 0x24 CALLDATALOAD PUSH1 0x24 DUP5 ADD MSTORE GAS CALL DUP1 ISZERO PUSH2 0x28C6 JUMPI PUSH2 0x2895 JUMPI JUMPDEST POP PUSH2 0x2710 PUSH2 0x2783 SWAP2 DIV PUSH1 0xA SLOAD PUSH2 0x3F36 JUMP JUMPDEST PUSH1 0xA SSTORE SLOAD SWAP1 SLOAD GT PUSH2 0x281E JUMPI DUP1 SLOAD PUSH1 0xFF NOT DUP2 AND PUSH1 0x2 OR SWAP1 SWAP2 SSTORE PUSH1 0x40 MLOAD SWAP1 PUSH2 0x27AD SWAP1 DUP3 SWAP1 PUSH1 0xFF AND PUSH2 0x3BB9 JUMP JUMPDEST PUSH1 0x2 PUSH1 0x20 DUP3 ADD MSTORE PUSH32 0xA3FAACDB08966166CA0BE23ED578EB9AF9E036F3D6808D0F793695E10C7CF3E1 PUSH1 0x40 PUSH1 0x4 CALLDATALOAD SWAP3 LOG2 JUMPDEST PUSH1 0x40 MLOAD PUSH1 0x24 CALLDATALOAD DUP2 MSTORE PUSH1 0x24 CALLDATALOAD PUSH1 0x20 DUP3 ADD MSTORE CALLER SWAP1 PUSH32 0xF813449D3EC425CF9E85CFC22BC09F6AACBBD036A3254C904433B76E99C5FADB PUSH1 0x40 PUSH1 0x4 CALLDATALOAD SWAP3 LOG3 PUSH1 0x1 DUP1 SSTORE DUP1 RETURN JUMPDEST DUP1 SLOAD PUSH1 0xFF DUP2 AND PUSH1 0x5 DUP2 LT ISZERO PUSH2 0x2881 JUMPI ISZERO PUSH2 0x283A JUMPI JUMPDEST POP POP PUSH2 0x27DD JUMP JUMPDEST PUSH1 0x1 SWAP1 PUSH1 0xFF NOT AND OR SWAP1 SSTORE PUSH1 0x40 MLOAD PUSH1 0x0 DUP2 MSTORE PUSH1 0x1 PUSH1 0x20 DUP3 ADD MSTORE PUSH32 0xA3FAACDB08966166CA0BE23ED578EB9AF9E036F3D6808D0F793695E10C7CF3E1 PUSH1 0x40 PUSH1 0x4 CALLDATALOAD SWAP3 LOG2 CODESIZE DUP1 PUSH2 0x2833 JUMP JUMPDEST PUSH4 0x4E487B71 PUSH1 0xE0 SHL DUP5 MSTORE PUSH1 0x21 PUSH1 0x4 MSTORE PUSH1 0x24 DUP5 REVERT JUMPDEST PUSH1 0x1 PUSH1 0x1 PUSH1 0x40 SHL SUB DUP2 SWAP7 SWAP3 SWAP7 GT PUSH2 0x28B2 JUMPI PUSH1 0x40 MSTORE SWAP4 PUSH2 0x2710 PUSH2 0x2772 JUMP JUMPDEST PUSH4 0x4E487B71 PUSH1 0xE0 SHL DUP3 MSTORE PUSH1 0x41 PUSH1 0x4 MSTORE PUSH1 0x24 DUP3 REVERT JUMPDEST PUSH1 0x40 MLOAD RETURNDATASIZE DUP9 DUP3 RETURNDATACOPY RETURNDATASIZE SWAP1 REVERT JUMPDEST PUSH4 0x4E487B71 PUSH1 0xE0 SHL DUP10 MSTORE PUSH1 0x12 PUSH1 0x4 MSTORE PUSH1 0x24 DUP10 REVERT JUMPDEST PUSH1 0x3 DUP2 ADD PUSH2 0x28F6 PUSH1 0x24 CALLDATALOAD DUP3 SLOAD PUSH2 0x3F36 JUMP JUMPDEST SWAP1 SSTORE PUSH2 0x270C JUMP JUMPDEST DUP1 SLOAD PUSH1 0x1 DUP2 ADD DUP2 GT PUSH2 0x2913 JUMPI PUSH1 0x1 ADD DUP2 SSTORE PUSH2 0x26AB JUMP JUMPDEST PUSH4 0x4E487B71 PUSH1 0xE0 SHL DUP9 MSTORE PUSH1 0x11 PUSH1 0x4 MSTORE PUSH1 0x24 DUP9 REVERT JUMPDEST PUSH4 0x4E487B71 PUSH1 0xE0 SHL DUP8 MSTORE PUSH1 0x11 PUSH1 0x4 MSTORE PUSH1 0x24 DUP8 REVERT JUMPDEST PUSH1 0x40 MLOAD PUSH3 0x461BCD PUSH1 0xE5 SHL DUP2 MSTORE PUSH1 0x20 PUSH1 0x4 DUP3 ADD MSTORE PUSH1 0x16 PUSH1 0x24 DUP3 ADD MSTORE PUSH22 0x115E18D959591CC8199D5B991A5B99C81D185C99D95D PUSH1 0x52 SHL PUSH1 0x44 DUP3 ADD MSTORE PUSH1 0x64 SWAP1 REVERT JUMPDEST PUSH1 0x40 MLOAD PUSH3 0x461BCD PUSH1 0xE5 SHL DUP2 MSTORE PUSH1 0x20 PUSH1 0x4 DUP3 ADD MSTORE PUSH1 0x18 PUSH1 0x24 DUP3 ADD MSTORE PUSH32 0x42656C6F77206D696E696D756D20696E766573746D656E740000000000000000 PUSH1 0x44 DUP3 ADD MSTORE PUSH1 0x64 SWAP1 REVERT JUMPDEST PUSH1 0x40 MLOAD PUSH3 0x461BCD PUSH1 0xE5 SHL DUP2 MSTORE PUSH1 0x20 PUSH1 0x4 DUP3 ADD MSTORE PUSH1 0x17 PUSH1 0x24 DUP3 ADD MSTORE PUSH32 0x46756E64696E6720646561646C696E6520706173736564000000000000000000 PUSH1 0x44 DUP3 ADD MSTORE PUSH1 0x64 SWAP1 REVERT JUMPDEST PUSH1 0x40 MLOAD PUSH3 0x461BCD PUSH1 0xE5 SHL DUP2 MSTORE PUSH1 0x20 PUSH1 0x4 DUP3 ADD MSTORE PUSH1 0xE PUSH1 0x24 DUP3 ADD MSTORE PUSH14 0x119D5B991A5B99C818DB1BDCD959 PUSH1 0x92 SHL PUSH1 0x44 DUP3 ADD MSTORE PUSH1 0x64 SWAP1 REVERT JUMPDEST PUSH1 0x1 SWAP2 POP EQ CODESIZE PUSH2 0x25F9 JUMP JUMPDEST PUSH1 0x40 MLOAD PUSH3 0x461BCD PUSH1 0xE5 SHL DUP2 MSTORE PUSH1 0x20 PUSH1 0x4 DUP3 ADD MSTORE PUSH1 0x10 PUSH1 0x24 DUP3 ADD MSTORE PUSH16 0x546F6B656E206E6F7420616374697665 PUSH1 0x80 SHL PUSH1 0x44 DUP3 ADD MSTORE PUSH1 0x64 SWAP1 REVERT JUMPDEST PUSH1 0x40 MLOAD PUSH3 0x461BCD PUSH1 0xE5 SHL DUP2 MSTORE PUSH1 0x20 PUSH1 0x4 DUP3 ADD MSTORE PUSH1 0x1F PUSH1 0x24 DUP3 ADD MSTORE PUSH32 0x5265656E7472616E637947756172643A207265656E7472616E742063616C6C00 PUSH1 0x44 DUP3 ADD MSTORE PUSH1 0x64 SWAP1 REVERT JUMPDEST POP CALLVALUE PUSH2 0x17E JUMPI PUSH1 0x20 CALLDATASIZE PUSH1 0x3 NOT ADD SLT PUSH2 0x17E JUMPI PUSH1 0x1 PUSH1 0x40 PUSH1 0x20 SWAP3 PUSH1 0x4 CALLDATALOAD DUP2 MSTORE DUP1 DUP5 MSTORE KECCAK256 ADD SLOAD PUSH1 0x40 MLOAD SWAP1 DUP2 MSTORE RETURN JUMPDEST POP CALLVALUE PUSH2 0x17E JUMPI DUP1 PUSH1 0x3 NOT CALLDATASIZE ADD SLT PUSH2 0x17E JUMPI PUSH1 0x40 MLOAD PUSH32 0x0 PUSH1 0x1 PUSH1 0x1 PUSH1 0xA0 SHL SUB AND DUP2 MSTORE PUSH1 0x20 SWAP1 RETURN JUMPDEST POP CALLVALUE PUSH2 0x17E JUMPI DUP1 PUSH1 0x3 NOT CALLDATASIZE ADD SLT PUSH2 0x17E JUMPI PUSH1 0x20 PUSH1 0x7 SLOAD PUSH1 0x40 MLOAD SWAP1 DUP2 MSTORE RETURN JUMPDEST POP CALLVALUE PUSH2 0x17E JUMPI PUSH1 0x20 CALLDATASIZE PUSH1 0x3 NOT ADD SLT PUSH2 0x17E JUMPI PUSH1 0x60 PUSH2 0x2A0 PUSH1 0x40 MLOAD PUSH2 0x2B73 DUP2 PUSH2 0x3AA0 JUMP JUMPDEST DUP4 DUP2 MSTORE DUP3 PUSH1 0x20 DUP3 ADD MSTORE DUP3 PUSH1 0x40 DUP3 ADD MSTORE DUP4 DUP4 DUP3 ADD MSTORE DUP4 PUSH1 0x80 DUP3 ADD MSTORE DUP4 PUSH1 0xA0 DUP3 ADD MSTORE DUP4 PUSH1 0xC0 DUP3 ADD MSTORE DUP4 PUSH1 0xE0 DUP3 ADD MSTORE DUP4 PUSH2 0x100 DUP3 ADD MSTORE DUP4 PUSH2 0x120 DUP3 ADD MSTORE DUP4 PUSH2 0x140 DUP3 ADD MSTORE DUP4 PUSH2 0x160 DUP3 ADD MSTORE DUP3 PUSH2 0x180 DUP3 ADD MSTORE DUP4 PUSH2 0x1A0 DUP3 ADD MSTORE DUP3 PUSH2 0x1C0 DUP3 ADD MSTORE DUP4 PUSH2 0x1E0 DUP3 ADD MSTORE DUP4 PUSH2 0x200 DUP3 ADD MSTORE DUP4 PUSH2 0x220 DUP3 ADD MSTORE DUP4 PUSH2 0x240 DUP3 ADD MSTORE DUP3 PUSH2 0x260 DUP3 ADD MSTORE DUP4 PUSH2 0x280 DUP3 ADD MSTORE ADD MSTORE PUSH1 0x4 CALLDATALOAD DUP2 MSTORE PUSH1 0x2 PUSH1 0x20 MSTORE PUSH1 0x40 DUP2 KECCAK256 SWAP1 PUSH1 0x40 MLOAD SWAP1 PUSH2 0x2C18 DUP3 PUSH2 0x3AA0 JUMP JUMPDEST DUP3 SLOAD PUSH1 0x1 PUSH1 0x1 PUSH1 0xA0 SHL SUB AND DUP3 MSTORE PUSH2 0x2C31 PUSH1 0x1 DUP5 ADD PUSH2 0x3C3A JUMP JUMPDEST PUSH1 0x20 DUP4 ADD MSTORE PUSH2 0x2C42 PUSH1 0x2 DUP5 ADD PUSH2 0x3C3A JUMP JUMPDEST PUSH1 0x40 DUP4 ADD MSTORE PUSH1 0x3 DUP4 ADD SLOAD PUSH1 0x60 DUP4 ADD MSTORE PUSH1 0x4 DUP4 ADD SLOAD PUSH1 0x80 DUP4 ADD MSTORE PUSH1 0x5 DUP4 ADD SLOAD PUSH1 0xA0 DUP4 ADD MSTORE PUSH1 0x6 DUP4 ADD SLOAD PUSH1 0xC0 DUP4 ADD MSTORE PUSH1 0x7 DUP4 ADD SLOAD PUSH1 0xE0 DUP4 ADD MSTORE PUSH1 0x8 DUP4 ADD SLOAD PUSH2 0x100 DUP4 ADD MSTORE PUSH1 0x9 DUP4 ADD SLOAD SWAP1 PUSH1 0x5 PUSH1 0xFF DUP4 AND LT ISZERO PUSH2 0x2EFA JUMPI POP PUSH1 0x13 PUSH2 0x42D SWAP4 PUSH2 0x2CD2 PUSH1 0xFF DUP5 DUP2 PUSH2 0x2D68 SWAP7 AND PUSH2 0x120 DUP9 ADD MSTORE DUP2 DUP2 PUSH1 0x8 SHR AND PUSH2 0x2CBE DUP2 PUSH2 0x3BDC JUMP JUMPDEST PUSH2 0x140 DUP9 ADD MSTORE PUSH1 0x10 SHR AND PUSH2 0x160 DUP7 ADD PUSH2 0x401E JUMP JUMPDEST PUSH2 0x2CDE PUSH1 0xA DUP3 ADD PUSH2 0x3C3A JUMP JUMPDEST PUSH2 0x180 DUP6 ADD MSTORE PUSH1 0xB DUP2 ADD SLOAD PUSH1 0x1 PUSH1 0x1 PUSH1 0xA0 SHL SUB AND PUSH2 0x1A0 DUP6 ADD MSTORE PUSH2 0x2D04 PUSH1 0xC DUP3 ADD PUSH2 0x3C3A JUMP JUMPDEST PUSH2 0x1C0 DUP6 ADD MSTORE PUSH2 0x2D1F PUSH1 0xFF PUSH1 0xD DUP4 ADD SLOAD AND PUSH2 0x1E0 DUP7 ADD PUSH2 0x406F JUMP JUMPDEST PUSH1 0xE DUP2 ADD SLOAD PUSH2 0x200 DUP6 ADD MSTORE PUSH1 0xF DUP2 ADD SLOAD PUSH2 0x220 DUP6 ADD MSTORE PUSH1 0xFF PUSH1 0x10 DUP3 ADD SLOAD AND ISZERO ISZERO PUSH2 0x240 DUP6 ADD MSTORE PUSH2 0x2D51 PUSH1 0x11 DUP3 ADD PUSH2 0x3C3A JUMP JUMPDEST PUSH2 0x260 DUP6 ADD MSTORE PUSH1 0x12 DUP2 ADD SLOAD PUSH2 0x280 DUP6 ADD MSTORE ADD PUSH2 0x3C3A JUMP JUMPDEST PUSH2 0x2A0 DUP3 ADD MSTORE PUSH1 0x40 MLOAD SWAP2 DUP3 SWAP2 PUSH1 0x20 DUP4 MSTORE PUSH1 0x1 DUP1 PUSH1 0xA0 SHL SUB DUP2 MLOAD AND PUSH1 0x20 DUP5 ADD MSTORE PUSH2 0x2A0 PUSH2 0x2EDB PUSH2 0x2E89 PUSH2 0x2E5B PUSH2 0x2DC7 PUSH2 0x2DB1 PUSH1 0x20 DUP8 ADD MLOAD PUSH2 0x2C0 PUSH1 0x40 DUP12 ADD MSTORE PUSH2 0x2E0 DUP11 ADD SWAP1 PUSH2 0x3B94 JUMP JUMPDEST PUSH1 0x40 DUP8 ADD MLOAD DUP10 DUP3 SUB PUSH1 0x1F NOT ADD PUSH1 0x60 DUP12 ADD MSTORE PUSH2 0x3B94 JUMP JUMPDEST PUSH1 0x60 DUP7 ADD MLOAD PUSH1 0x80 DUP10 ADD MSTORE PUSH1 0x80 DUP7 ADD MLOAD PUSH1 0xA0 DUP10 ADD MSTORE PUSH1 0xA0 DUP7 ADD MLOAD PUSH1 0xC0 DUP10 ADD MSTORE PUSH1 0xC0 DUP7 ADD MLOAD PUSH1 0xE0 DUP10 ADD MSTORE PUSH1 0xE0 DUP7 ADD MLOAD PUSH2 0x100 DUP10 ADD MSTORE PUSH2 0x100 DUP7 ADD MLOAD PUSH2 0x120 DUP10 ADD MSTORE PUSH2 0x2E1A PUSH2 0x120 DUP8 ADD MLOAD PUSH2 0x140 DUP11 ADD SWAP1 PUSH2 0x3BB9 JUMP JUMPDEST PUSH2 0x140 DUP7 ADD MLOAD PUSH2 0x2E29 DUP2 PUSH2 0x3BDC JUMP JUMPDEST PUSH2 0x160 DUP10 ADD MSTORE PUSH2 0x2E43 PUSH2 0x160 DUP8 ADD MLOAD PUSH2 0x180 DUP11 ADD SWAP1 PUSH2 0x3BE6 JUMP JUMPDEST PUSH2 0x180 DUP7 ADD MLOAD DUP9 DUP3 SUB PUSH1 0x1F NOT ADD PUSH2 0x1A0 DUP11 ADD MSTORE PUSH2 0x3B94 JUMP JUMPDEST PUSH2 0x1A0 DUP6 ADD MLOAD PUSH1 0x1 PUSH1 0x1 PUSH1 0xA0 SHL SUB AND PUSH2 0x1C0 DUP9 DUP2 ADD SWAP2 SWAP1 SWAP2 MSTORE DUP6 ADD MLOAD DUP8 DUP3 SUB PUSH1 0x1F NOT ADD PUSH2 0x1E0 DUP10 ADD MSTORE PUSH2 0x3B94 JUMP JUMPDEST PUSH2 0x2E9D PUSH2 0x1E0 DUP6 ADD MLOAD PUSH2 0x200 DUP9 ADD SWAP1 PUSH2 0x3BF3 JUMP JUMPDEST PUSH2 0x200 DUP5 ADD MLOAD PUSH2 0x220 DUP8 ADD MSTORE PUSH2 0x220 DUP5 ADD MLOAD PUSH2 0x240 DUP8 ADD MSTORE PUSH2 0x240 DUP5 ADD MLOAD ISZERO ISZERO PUSH2 0x260 DUP8 ADD MSTORE PUSH2 0x260 DUP5 ADD MLOAD PUSH1 0x1F NOT DUP8 DUP4 SUB ADD PUSH2 0x280 DUP9 ADD MSTORE PUSH2 0x3B94 JUMP JUMPDEST PUSH2 0x280 DUP4 ADD MLOAD DUP6 DUP4 ADD MSTORE SWAP2 ADD MLOAD DUP4 DUP3 SUB PUSH1 0x1F NOT ADD PUSH2 0x2C0 DUP6 ADD MSTORE PUSH2 0x3B94 JUMP JUMPDEST PUSH4 0x4E487B71 PUSH1 0xE0 SHL DUP2 MSTORE PUSH1 0x21 PUSH1 0x4 MSTORE PUSH1 0x24 SWAP1 REVERT JUMPDEST POP CALLVALUE PUSH2 0x17E JUMPI PUSH1 0xC0 CALLDATASIZE PUSH1 0x3 NOT ADD SLT PUSH2 0x17E JUMPI PUSH2 0x2F28 PUSH2 0x3A53 JUMP JUMPDEST PUSH1 0x24 CALLDATALOAD PUSH1 0x1 PUSH1 0x1 PUSH1 0x40 SHL SUB DUP2 GT PUSH2 0x1766 JUMPI PUSH2 0x2F47 SWAP1 CALLDATASIZE SWAP1 PUSH1 0x4 ADD PUSH2 0x3B13 JUMP JUMPDEST PUSH1 0x4 PUSH1 0x44 CALLDATALOAD LT ISZERO PUSH2 0x1766 JUMPI PUSH1 0x64 CALLDATALOAD PUSH1 0x1 PUSH1 0x1 PUSH1 0x40 SHL SUB DUP2 GT PUSH2 0x39FA JUMPI PUSH2 0x2F71 SWAP1 CALLDATASIZE SWAP1 PUSH1 0x4 ADD PUSH2 0x3B13 JUMP JUMPDEST PUSH1 0x84 CALLDATALOAD PUSH1 0x1 PUSH1 0x1 PUSH1 0x40 SHL SUB DUP2 GT PUSH2 0x39F6 JUMPI PUSH2 0x2F90 SWAP1 CALLDATASIZE SWAP1 PUSH1 0x4 ADD PUSH2 0x3B13 JUMP JUMPDEST SWAP1 PUSH1 0xA4 CALLDATALOAD PUSH1 0x1 PUSH1 0x1 PUSH1 0x40 SHL SUB DUP2 GT PUSH2 0x1425 JUMPI CALLDATASIZE PUSH1 0x23 DUP3 ADD SLT ISZERO PUSH2 0x1425 JUMPI DUP1 PUSH1 0x4 ADD CALLDATALOAD PUSH2 0x2FBB DUP2 PUSH2 0x3B5A JUMP JUMPDEST SWAP2 PUSH2 0x2FC9 PUSH1 0x40 MLOAD SWAP4 DUP5 PUSH2 0x3AD7 JUMP JUMPDEST DUP2 DUP4 MSTORE PUSH1 0x24 PUSH1 0x20 DUP5 ADD SWAP3 PUSH1 0x5 SHL DUP3 ADD ADD SWAP1 CALLDATASIZE DUP3 GT PUSH2 0x13C8 JUMPI PUSH1 0x24 ADD SWAP2 JUMPDEST DUP2 DUP4 LT PUSH2 0x39D9 JUMPI POP POP POP DUP6 DUP1 MSTORE DUP6 PUSH1 0x20 MSTORE PUSH1 0x40 DUP7 KECCAK256 CALLER DUP8 MSTORE PUSH1 0x20 MSTORE PUSH1 0xFF PUSH1 0x40 DUP8 KECCAK256 SLOAD AND ISZERO PUSH2 0x38B7 JUMPI PUSH1 0x1 PUSH1 0x1 PUSH1 0xA0 SHL SUB DUP6 AND ISZERO PUSH2 0x3872 JUMPI PUSH1 0x1 PUSH1 0x1 PUSH1 0xA0 SHL SUB DUP6 AND DUP7 MSTORE PUSH1 0x4 PUSH1 0x20 MSTORE PUSH1 0x40 DUP7 KECCAK256 PUSH1 0x6 ADD SLOAD PUSH1 0xFF AND PUSH2 0x382D JUMPI DUP6 SWAP3 PUSH1 0x44 CALLDATALOAD PUSH1 0x1 SUB PUSH2 0x380F JUMPI PUSH1 0x96 SWAP3 JUMPDEST PUSH1 0x40 MLOAD DUP1 PUSH1 0x20 DUP2 ADD LT PUSH1 0x1 PUSH1 0x1 PUSH1 0x40 SHL SUB PUSH1 0x20 DUP4 ADD GT OR PUSH2 0x37FB JUMPI PUSH1 0x20 DUP2 ADD PUSH1 0x40 MSTORE DUP9 DUP2 MSTORE PUSH1 0x40 MLOAD SWAP5 PUSH2 0x307F DUP7 PUSH2 0x3A84 JUMP JUMPDEST DUP8 DUP7 MSTORE PUSH2 0x3091 PUSH1 0x44 CALLDATALOAD PUSH1 0x20 DUP9 ADD PUSH2 0x406F JUMP JUMPDEST PUSH1 0x40 DUP7 ADD MSTORE DUP9 PUSH1 0x60 DUP7 ADD MSTORE DUP9 PUSH1 0x80 DUP7 ADD MSTORE PUSH1 0xA0 DUP6 ADD MSTORE PUSH1 0x1 PUSH1 0xC0 DUP6 ADD MSTORE PUSH1 0xE0 DUP5 ADD MSTORE PUSH2 0x100 DUP4 ADD MSTORE PUSH2 0x120 DUP3 ADD MSTORE PUSH1 0x1 DUP1 PUSH1 0xA0 SHL SUB DUP5 AND DUP6 MSTORE PUSH1 0x4 PUSH1 0x20 MSTORE PUSH1 0x40 DUP6 KECCAK256 SWAP1 DUP1 MLOAD DUP1 MLOAD SWAP1 PUSH1 0x1 PUSH1 0x1 PUSH1 0x40 SHL SUB DUP3 GT PUSH2 0x3651 JUMPI DUP2 SWAP1 PUSH2 0x30F3 DUP6 SLOAD PUSH2 0x3C00 JUMP JUMPDEST PUSH1 0x1F DUP2 GT PUSH2 0x37CB JUMPI JUMPDEST POP PUSH1 0x20 SWAP1 PUSH1 0x1F DUP4 GT PUSH1 0x1 EQ PUSH2 0x3762 JUMPI DUP10 SWAP3 PUSH2 0x3757 JUMPI JUMPDEST POP POP DUP2 PUSH1 0x1 SHL SWAP2 PUSH1 0x0 NOT SWAP1 PUSH1 0x3 SHL SHR NOT AND OR DUP3 SSTORE JUMPDEST PUSH1 0x20 DUP2 ADD MLOAD PUSH1 0x4 DUP2 LT ISZERO PUSH2 0x3743 JUMPI PUSH2 0x3142 SWAP1 PUSH1 0x1 DUP5 ADD PUSH2 0x4092 JUMP JUMPDEST PUSH1 0x40 DUP2 ADD MLOAD PUSH1 0x2 DUP4 ADD SSTORE PUSH1 0x60 DUP2 ADD MLOAD PUSH1 0x3 DUP4 ADD SSTORE PUSH1 0x80 DUP2 ADD MLOAD PUSH1 0x4 DUP4 ADD SSTORE PUSH1 0xA0 DUP2 ADD MLOAD DUP1 MLOAD SWAP1 PUSH1 0x1 PUSH1 0x1 PUSH1 0x40 SHL SUB DUP3 GT PUSH2 0x3651 JUMPI PUSH1 0x1 PUSH1 0x40 SHL DUP3 GT PUSH2 0x3651 JUMPI PUSH1 0x20 SWAP1 PUSH1 0x5 DUP6 ADD SLOAD DUP4 PUSH1 0x5 DUP8 ADD SSTORE DUP1 DUP5 LT PUSH2 0x3726 JUMPI JUMPDEST POP ADD PUSH1 0x5 DUP5 ADD DUP9 MSTORE PUSH1 0x20 DUP9 KECCAK256 DUP9 JUMPDEST DUP4 DUP2 LT PUSH2 0x3712 JUMPI POP POP POP POP PUSH2 0x31CF PUSH1 0xC0 DUP3 ADD MLOAD ISZERO ISZERO PUSH1 0x6 DUP5 ADD SWAP1 PUSH1 0xFF DUP1 NOT DUP4 SLOAD AND SWAP2 ISZERO ISZERO AND OR SWAP1 SSTORE JUMP JUMPDEST PUSH1 0xE0 DUP2 ADD MLOAD DUP1 MLOAD SWAP1 PUSH1 0x1 PUSH1 0x1 PUSH1 0x40 SHL SUB DUP3 GT PUSH2 0x3651 JUMPI DUP2 SWAP1 PUSH2 0x31F4 PUSH1 0x7 DUP7 ADD SLOAD PUSH2 0x3C00 JUMP JUMPDEST PUSH1 0x1F DUP2 GT PUSH2 0x36DF JUMPI JUMPDEST POP PUSH1 0x20 SWAP1 PUSH1 0x1F DUP4 GT PUSH1 0x1 EQ PUSH2 0x3670 JUMPI DUP10 SWAP3 PUSH2 0x3665 JUMPI JUMPDEST POP POP DUP2 PUSH1 0x1 SHL SWAP2 PUSH1 0x0 NOT SWAP1 PUSH1 0x3 SHL SHR NOT AND OR PUSH1 0x7 DUP4 ADD SSTORE JUMPDEST PUSH2 0x100 DUP2 ADD MLOAD DUP1 MLOAD SWAP1 PUSH1 0x1 PUSH1 0x1 PUSH1 0x40 SHL SUB DUP3 GT PUSH2 0x3651 JUMPI PUSH2 0x324F PUSH1 0x8 DUP6 ADD SLOAD PUSH2 0x3C00 JUMP JUMPDEST PUSH1 0x1F DUP2 GT PUSH2 0x361E JUMPI JUMPDEST POP PUSH1 0x20 SWAP1 PUSH1 0x1F DUP4 GT PUSH1 0x1 EQ PUSH2 0x35AD JUMPI PUSH2 0x120 SWAP4 SWAP3 SWAP2 DUP10 SWAP2 DUP4 PUSH2 0x35A2 JUMPI JUMPDEST POP POP DUP2 PUSH1 0x1 SHL SWAP2 PUSH1 0x0 NOT SWAP1 PUSH1 0x3 SHL SHR NOT AND OR PUSH1 0x8 DUP5 ADD SSTORE JUMPDEST ADD MLOAD DUP1 MLOAD SWAP1 PUSH1 0x1 PUSH1 0x1 PUSH1 0x40 SHL SUB DUP3 GT PUSH2 0x358E JUMPI PUSH1 0x1 PUSH1 0x40 SHL DUP3 GT PUSH2 0x358E JUMPI PUSH1 0x20 PUSH1 0x9 SWAP2 DUP3 DUP6 ADD SLOAD DUP5 DUP5 DUP8 ADD SSTORE DUP1 DUP6 LT PUSH2 0x353A JUMPI JUMPDEST POP ADD SWAP3 ADD DUP7 MSTORE PUSH1 0x20 DUP7 KECCAK256 SWAP1 DUP7 JUMPDEST DUP2 PUSH1 0x5 SHR DUP2 LT PUSH2 0x34ED JUMPI POP PUSH1 0x1F NOT DUP2 AND SWAP3 DUP4 DUP3 SUB PUSH2 0x3483 JUMPI JUMPDEST POP POP POP POP PUSH32 0x4504B9DFD7400A1522F49A8B4A100552DA9236849581FD59B7363EB48C6A474C DUP1 DUP6 MSTORE DUP5 PUSH1 0x20 MSTORE PUSH1 0x40 DUP6 KECCAK256 PUSH1 0x1 DUP1 PUSH1 0xA0 SHL SUB DUP6 AND DUP7 MSTORE PUSH1 0x20 MSTORE PUSH1 0xFF PUSH1 0x40 DUP7 KECCAK256 SLOAD AND ISZERO PUSH2 0x342E JUMPI JUMPDEST POP PUSH2 0x341A JUMPI PUSH1 0x1 PUSH1 0x44 CALLDATALOAD EQ PUSH2 0x339C JUMPI JUMPDEST PUSH2 0x337C PUSH32 0xBFEF8D1A17EBC1779569B60C7C349B6BA106D24A1D47D14E5C5F962007F5A37 SWAP2 PUSH1 0x40 MLOAD SWAP2 DUP3 SWAP2 PUSH1 0x40 DUP4 MSTORE PUSH1 0x40 DUP4 ADD SWAP1 PUSH2 0x3B94 JUMP JUMPDEST SWAP4 PUSH2 0x338C PUSH1 0x20 DUP4 ADD PUSH1 0x44 CALLDATALOAD PUSH2 0x3BF3 JUMP JUMPDEST PUSH1 0x1 PUSH1 0x1 PUSH1 0xA0 SHL SUB AND SWAP4 SUB SWAP1 LOG2 DUP1 RETURN JUMPDEST PUSH1 0x9 SLOAD PUSH1 0x1 PUSH1 0x40 SHL DUP2 LT ISZERO PUSH2 0x3406 JUMPI PUSH32 0xBFEF8D1A17EBC1779569B60C7C349B6BA106D24A1D47D14E5C5F962007F5A37 SWAP2 PUSH2 0x33E0 DUP3 PUSH1 0x1 PUSH2 0x337C SWAP5 ADD PUSH1 0x9 SSTORE PUSH2 0x3D14 JUMP JUMPDEST DUP2 SLOAD PUSH1 0x1 PUSH1 0x1 PUSH1 0xA0 SHL SUB DUP8 DUP2 AND PUSH1 0x3 SWAP4 SWAP1 SWAP4 SHL SWAP3 DUP4 SHL SWAP3 SHL NOT AND OR SWAP1 SSTORE SWAP2 POP PUSH2 0x3343 SWAP1 POP JUMP JUMPDEST PUSH4 0x4E487B71 PUSH1 0xE0 SHL DUP5 MSTORE PUSH1 0x41 PUSH1 0x4 MSTORE PUSH1 0x24 DUP5 REVERT JUMPDEST PUSH4 0x4E487B71 PUSH1 0xE0 SHL DUP4 MSTORE PUSH1 0x21 PUSH1 0x4 MSTORE PUSH1 0x24 DUP4 REVERT JUMPDEST DUP1 DUP6 MSTORE PUSH1 0x20 DUP6 DUP2 MSTORE PUSH1 0x40 DUP1 DUP8 KECCAK256 PUSH1 0x1 PUSH1 0x1 PUSH1 0xA0 SHL SUB DUP8 AND DUP1 DUP10 MSTORE SWAP3 MSTORE DUP7 KECCAK256 DUP1 SLOAD PUSH1 0xFF NOT AND PUSH1 0x1 OR SWAP1 SSTORE CALLER SWAP2 PUSH32 0x2F8788117E7EFF1D82E926EC794901D17C78024A50270940304540A733656F0D DUP8 DUP1 LOG4 CODESIZE PUSH2 0x3333 JUMP JUMPDEST DUP8 SWAP4 DUP9 SWAP1 JUMPDEST DUP1 DUP5 SUB DUP3 LT PUSH2 0x34A2 JUMPI POP POP POP PUSH1 0x5 SHR ADD SSTORE CODESIZE DUP1 DUP1 DUP1 PUSH2 0x32E7 JUMP JUMPDEST SWAP1 SWAP2 SWAP5 DUP6 MLOAD SWAP1 PUSH1 0x7 DUP3 LT ISZERO PUSH2 0x34D9 JUMPI PUSH2 0x34CF PUSH1 0x1 SWAP3 DUP6 PUSH1 0x20 SWAP4 SWAP1 PUSH1 0xFF DUP1 SWAP2 PUSH1 0x3 SHL SWAP4 AND DUP4 SHL SWAP3 SHL NOT AND OR SWAP1 JUMP JUMPDEST SWAP7 ADD SWAP3 ADD SWAP1 PUSH2 0x3488 JUMP JUMPDEST PUSH4 0x4E487B71 PUSH1 0xE0 SHL DUP12 MSTORE PUSH1 0x21 PUSH1 0x4 MSTORE PUSH1 0x24 DUP12 REVERT JUMPDEST DUP8 DUP9 JUMPDEST PUSH1 0x20 DUP2 LT PUSH2 0x3505 JUMPI POP DUP4 DUP3 ADD SSTORE PUSH1 0x1 ADD PUSH2 0x32CE JUMP JUMPDEST SWAP5 SWAP1 DUP2 MLOAD SWAP1 PUSH1 0x7 DUP3 LT ISZERO PUSH2 0x34D9 JUMPI PUSH2 0x3531 PUSH1 0x1 SWAP3 DUP9 PUSH1 0x20 SWAP4 SWAP1 PUSH1 0xFF DUP1 SWAP2 PUSH1 0x3 SHL SWAP4 AND DUP4 SHL SWAP3 SHL NOT AND OR SWAP1 JUMP JUMPDEST SWAP3 ADD SWAP6 ADD PUSH2 0x34F0 JUMP JUMPDEST PUSH2 0x3567 SWAP1 DUP5 DUP8 ADD DUP12 MSTORE PUSH1 0x1F DUP5 DUP13 KECCAK256 SWAP2 DUP2 DUP9 AND DUP1 PUSH2 0x356D JUMPI JUMPDEST POP ADD PUSH1 0x5 SHR DUP2 ADD SWAP1 PUSH1 0x1F DUP8 ADD PUSH1 0x5 SHR ADD PUSH2 0x407B JUMP JUMPDEST CODESIZE PUSH2 0x32C1 JUMP JUMPDEST PUSH1 0x0 NOT SWAP1 DUP2 DUP5 DUP12 ADD PUSH1 0x5 SHR DUP7 ADD ADD SWAP2 DUP3 SLOAD SWAP2 DUP10 SUB PUSH1 0x3 SHL SHR AND SWAP1 SSTORE CODESIZE PUSH2 0x3552 JUMP JUMPDEST PUSH4 0x4E487B71 PUSH1 0xE0 SHL DUP8 MSTORE PUSH1 0x41 PUSH1 0x4 MSTORE PUSH1 0x24 DUP8 REVERT JUMPDEST ADD MLOAD SWAP1 POP CODESIZE DUP1 PUSH2 0x3275 JUMP JUMPDEST SWAP1 PUSH1 0x8 DUP6 ADD DUP10 MSTORE PUSH1 0x20 DUP10 KECCAK256 SWAP2 DUP10 JUMPDEST PUSH1 0x1F NOT DUP6 AND DUP2 LT PUSH2 0x3606 JUMPI POP SWAP2 DUP4 SWAP2 PUSH1 0x1 SWAP4 PUSH2 0x120 SWAP7 SWAP6 PUSH1 0x1F NOT DUP2 AND LT PUSH2 0x35ED JUMPI JUMPDEST POP POP POP DUP2 SHL ADD PUSH1 0x8 DUP5 ADD SSTORE PUSH2 0x328D JUMP JUMPDEST ADD MLOAD PUSH1 0x0 NOT PUSH1 0xF8 DUP5 PUSH1 0x3 SHL AND SHR NOT AND SWAP1 SSTORE CODESIZE DUP1 DUP1 PUSH2 0x35DD JUMP JUMPDEST SWAP2 SWAP3 PUSH1 0x20 PUSH1 0x1 DUP2 SWAP3 DUP7 DUP6 ADD MLOAD DUP2 SSTORE ADD SWAP5 ADD SWAP3 ADD PUSH2 0x35BB JUMP JUMPDEST PUSH2 0x364B SWAP1 PUSH1 0x8 DUP7 ADD DUP11 MSTORE PUSH1 0x20 DUP11 KECCAK256 PUSH1 0x1F DUP6 ADD PUSH1 0x5 SHR DUP2 ADD SWAP2 PUSH1 0x20 DUP7 LT PUSH2 0xE34 JUMPI PUSH1 0x1F ADD PUSH1 0x5 SHR ADD SWAP1 PUSH2 0x407B JUMP JUMPDEST CODESIZE PUSH2 0x3258 JUMP JUMPDEST PUSH4 0x4E487B71 PUSH1 0xE0 SHL DUP9 MSTORE PUSH1 0x41 PUSH1 0x4 MSTORE PUSH1 0x24 DUP9 REVERT JUMPDEST ADD MLOAD SWAP1 POP CODESIZE DUP1 PUSH2 0x3213 JUMP JUMPDEST SWAP3 POP PUSH1 0x7 DUP6 ADD DUP10 MSTORE PUSH1 0x20 DUP10 KECCAK256 SWAP1 DUP10 SWAP4 JUMPDEST PUSH1 0x1F NOT DUP5 AND DUP6 LT PUSH2 0x36C4 JUMPI PUSH1 0x1 SWAP5 POP DUP4 PUSH1 0x1F NOT DUP2 AND LT PUSH2 0x36AB JUMPI JUMPDEST POP POP POP DUP2 SHL ADD PUSH1 0x7 DUP4 ADD SSTORE PUSH2 0x322B JUMP JUMPDEST ADD MLOAD PUSH1 0x0 NOT PUSH1 0xF8 DUP5 PUSH1 0x3 SHL AND SHR NOT AND SWAP1 SSTORE CODESIZE DUP1 DUP1 PUSH2 0x369B JUMP JUMPDEST DUP2 DUP2 ADD MLOAD DUP4 SSTORE PUSH1 0x20 SWAP5 DUP6 ADD SWAP5 PUSH1 0x1 SWAP1 SWAP4 ADD SWAP3 SWAP1 SWAP2 ADD SWAP1 PUSH2 0x3680 JUMP JUMPDEST PUSH2 0x370C SWAP1 PUSH1 0x7 DUP8 ADD DUP12 MSTORE PUSH1 0x20 DUP12 KECCAK256 PUSH1 0x1F DUP6 ADD PUSH1 0x5 SHR DUP2 ADD SWAP2 PUSH1 0x20 DUP7 LT PUSH2 0xE34 JUMPI PUSH1 0x1F ADD PUSH1 0x5 SHR ADD SWAP1 PUSH2 0x407B JUMP JUMPDEST CODESIZE PUSH2 0x31FD JUMP JUMPDEST PUSH1 0x1 SWAP1 PUSH1 0x20 DUP5 MLOAD SWAP5 ADD SWAP4 DUP2 DUP5 ADD SSTORE ADD PUSH2 0x31A5 JUMP JUMPDEST PUSH1 0x5 DUP7 ADD DUP11 MSTORE DUP3 DUP11 KECCAK256 PUSH2 0x373D SWAP2 DUP2 ADD SWAP1 DUP6 ADD PUSH2 0x407B JUMP JUMPDEST CODESIZE PUSH2 0x3197 JUMP JUMPDEST PUSH4 0x4E487B71 PUSH1 0xE0 SHL DUP8 MSTORE PUSH1 0x21 PUSH1 0x4 MSTORE PUSH1 0x24 DUP8 REVERT JUMPDEST ADD MLOAD SWAP1 POP CODESIZE DUP1 PUSH2 0x3112 JUMP JUMPDEST SWAP3 POP DUP5 DUP10 MSTORE PUSH1 0x20 DUP10 KECCAK256 SWAP1 DUP10 SWAP4 JUMPDEST PUSH1 0x1F NOT DUP5 AND DUP6 LT PUSH2 0x37B0 JUMPI PUSH1 0x1 SWAP5 POP DUP4 PUSH1 0x1F NOT DUP2 AND LT PUSH2 0x3797 JUMPI JUMPDEST POP POP POP DUP2 SHL ADD DUP3 SSTORE PUSH2 0x3127 JUMP JUMPDEST ADD MLOAD PUSH1 0x0 NOT PUSH1 0xF8 DUP5 PUSH1 0x3 SHL AND SHR NOT AND SWAP1 SSTORE CODESIZE DUP1 DUP1 PUSH2 0x378A JUMP JUMPDEST DUP2 DUP2 ADD MLOAD DUP4 SSTORE PUSH1 0x20 SWAP5 DUP6 ADD SWAP5 PUSH1 0x1 SWAP1 SWAP4 ADD SWAP3 SWAP1 SWAP2 ADD SWAP1 PUSH2 0x376F JUMP JUMPDEST PUSH2 0x37F5 SWAP1 DUP7 DUP12 MSTORE PUSH1 0x20 DUP12 KECCAK256 PUSH1 0x1F DUP6 ADD PUSH1 0x5 SHR DUP2 ADD SWAP2 PUSH1 0x20 DUP7 LT PUSH2 0xE34 JUMPI PUSH1 0x1F ADD PUSH1 0x5 SHR ADD SWAP1 PUSH2 0x407B JUMP JUMPDEST CODESIZE PUSH2 0x30FC JUMP JUMPDEST PUSH4 0x4E487B71 PUSH1 0xE0 SHL DUP10 MSTORE PUSH1 0x41 PUSH1 0x4 MSTORE PUSH1 0x24 DUP10 REVERT JUMPDEST DUP7 SWAP4 POP PUSH1 0x44 CALLDATALOAD PUSH1 0x2 SUB PUSH2 0x3824 JUMPI PUSH1 0xFA SWAP3 PUSH2 0x304D JUMP JUMPDEST PUSH2 0x15E SWAP3 PUSH2 0x304D JUMP JUMPDEST PUSH1 0x40 MLOAD PUSH3 0x461BCD PUSH1 0xE5 SHL DUP2 MSTORE PUSH1 0x20 PUSH1 0x4 DUP3 ADD MSTORE PUSH1 0x1C PUSH1 0x24 DUP3 ADD MSTORE PUSH32 0x446576656C6F70657220616C7265616479207265676973746572656400000000 PUSH1 0x44 DUP3 ADD MSTORE PUSH1 0x64 SWAP1 REVERT JUMPDEST PUSH1 0x40 MLOAD PUSH3 0x461BCD PUSH1 0xE5 SHL DUP2 MSTORE PUSH1 0x20 PUSH1 0x4 DUP3 ADD MSTORE PUSH1 0x19 PUSH1 0x24 DUP3 ADD MSTORE PUSH32 0x496E76616C696420646576656C6F706572206164647265737300000000000000 PUSH1 0x44 DUP3 ADD MSTORE PUSH1 0x64 SWAP1 REVERT JUMPDEST DUP6 PUSH2 0x38C1 CALLER PUSH2 0x3F54 JUMP JUMPDEST DUP2 PUSH1 0x40 MLOAD SWAP3 PUSH2 0x38CF DUP5 PUSH2 0x3ABC JUMP JUMPDEST PUSH1 0x42 DUP5 MSTORE PUSH1 0x20 DUP5 ADD SWAP2 PUSH1 0x60 CALLDATASIZE DUP5 CALLDATACOPY DUP5 MLOAD ISZERO PUSH2 0x39C5 JUMPI PUSH1 0x30 DUP4 MSTORE8 DUP5 MLOAD SWAP1 PUSH1 0x1 SWAP2 DUP3 LT ISZERO PUSH2 0x39C5 JUMPI SWAP1 PUSH1 0x78 PUSH1 0x21 DUP8 ADD MSTORE8 PUSH1 0x41 SWAP2 JUMPDEST DUP2 DUP4 GT PUSH2 0x3957 JUMPI POP POP POP PUSH2 0x16DE JUMPI PUSH1 0x48 PUSH2 0x16AB SWAP3 PUSH2 0x16BA SWAP3 PUSH2 0x16DA SWAP6 PUSH1 0x40 MLOAD SWAP6 DUP7 SWAP4 PUSH23 0x20B1B1B2B9B9A1B7B73A3937B61D1030B1B1B7BAB73A1 PUSH1 0x4D SHL PUSH1 0x20 DUP7 ADD MSTORE PUSH2 0x1682 DUP2 MLOAD DUP1 SWAP3 PUSH1 0x20 PUSH1 0x37 DUP10 ADD SWAP2 ADD PUSH2 0x3B71 JUMP JUMPDEST SWAP1 SWAP2 SWAP3 PUSH1 0xF DUP2 AND PUSH1 0x10 DUP2 LT ISZERO PUSH2 0x39B1 JUMPI PUSH16 0x181899199A1A9B1B9C1CB0B131B232B3 PUSH1 0x81 SHL SWAP1 BYTE PUSH2 0x3987 DUP6 DUP10 PUSH2 0x3F43 JUMP JUMPDEST MSTORE8 PUSH1 0x4 SHR SWAP3 DUP1 ISZERO PUSH2 0x399D JUMPI PUSH1 0x0 NOT ADD SWAP2 SWAP1 PUSH2 0x3901 JUMP JUMPDEST PUSH4 0x4E487B71 PUSH1 0xE0 SHL DUP3 MSTORE PUSH1 0x11 PUSH1 0x4 MSTORE PUSH1 0x24 DUP3 REVERT JUMPDEST PUSH4 0x4E487B71 PUSH1 0xE0 SHL DUP4 MSTORE PUSH1 0x32 PUSH1 0x4 MSTORE PUSH1 0x24 DUP4 REVERT JUMPDEST PUSH4 0x4E487B71 PUSH1 0xE0 SHL DUP2 MSTORE PUSH1 0x32 PUSH1 0x4 MSTORE PUSH1 0x24 SWAP1 REVERT JUMPDEST DUP3 CALLDATALOAD PUSH1 0x7 DUP2 LT ISZERO PUSH2 0x39F2 JUMPI DUP2 MSTORE PUSH1 0x20 SWAP3 DUP4 ADD SWAP3 ADD PUSH2 0x2FE6 JUMP JUMPDEST DUP10 DUP1 REVERT JUMPDEST DUP5 DUP1 REVERT JUMPDEST DUP4 DUP1 REVERT JUMPDEST SWAP1 POP CALLVALUE PUSH2 0x176A JUMPI PUSH1 0x20 CALLDATASIZE PUSH1 0x3 NOT ADD SLT PUSH2 0x176A JUMPI PUSH1 0x4 CALLDATALOAD PUSH4 0xFFFFFFFF PUSH1 0xE0 SHL DUP2 AND DUP1 SWAP2 SUB PUSH2 0x1766 JUMPI PUSH1 0x20 SWAP3 POP PUSH4 0x7965DB0B PUSH1 0xE0 SHL DUP2 EQ SWAP1 DUP2 ISZERO PUSH2 0x3A42 JUMPI JUMPDEST POP ISZERO ISZERO DUP2 MSTORE RETURN JUMPDEST PUSH4 0x1FFC9A7 PUSH1 0xE0 SHL EQ SWAP1 POP CODESIZE PUSH2 0x3A3B JUMP JUMPDEST PUSH1 0x4 CALLDATALOAD SWAP1 PUSH1 0x1 PUSH1 0x1 PUSH1 0xA0 SHL SUB DUP3 AND DUP3 SUB PUSH2 0x3A69 JUMPI JUMP JUMPDEST PUSH1 0x0 DUP1 REVERT JUMPDEST PUSH1 0x24 CALLDATALOAD SWAP1 PUSH1 0x1 PUSH1 0x1 PUSH1 0xA0 SHL SUB DUP3 AND DUP3 SUB PUSH2 0x3A69 JUMPI JUMP JUMPDEST PUSH2 0x140 DUP2 ADD SWAP1 DUP2 LT PUSH1 0x1 PUSH1 0x1 PUSH1 0x40 SHL SUB DUP3 GT OR PUSH2 0x140B JUMPI PUSH1 0x40 MSTORE JUMP JUMPDEST PUSH2 0x2C0 DUP2 ADD SWAP1 DUP2 LT PUSH1 0x1 PUSH1 0x1 PUSH1 0x40 SHL SUB DUP3 GT OR PUSH2 0x140B JUMPI PUSH1 0x40 MSTORE JUMP JUMPDEST PUSH1 0x80 DUP2 ADD SWAP1 DUP2 LT PUSH1 0x1 PUSH1 0x1 PUSH1 0x40 SHL SUB DUP3 GT OR PUSH2 0x140B JUMPI PUSH1 0x40 MSTORE JUMP JUMPDEST SWAP1 PUSH1 0x1F DUP1 NOT SWAP2 ADD AND DUP2 ADD SWAP1 DUP2 LT PUSH1 0x1 PUSH1 0x1 PUSH1 0x40 SHL SUB DUP3 GT OR PUSH2 0x140B JUMPI PUSH1 0x40 MSTORE JUMP JUMPDEST PUSH1 0x1 PUSH1 0x1 PUSH1 0x40 SHL SUB DUP2 GT PUSH2 0x140B JUMPI PUSH1 0x1F ADD PUSH1 0x1F NOT AND PUSH1 0x20 ADD SWAP1 JUMP JUMPDEST DUP2 PUSH1 0x1F DUP3 ADD SLT ISZERO PUSH2 0x3A69 JUMPI DUP1 CALLDATALOAD SWAP1 PUSH2 0x3B2A DUP3 PUSH2 0x3AF8 JUMP JUMPDEST SWAP3 PUSH2 0x3B38 PUSH1 0x40 MLOAD SWAP5 DUP6 PUSH2 0x3AD7 JUMP JUMPDEST DUP3 DUP5 MSTORE PUSH1 0x20 DUP4 DUP4 ADD ADD GT PUSH2 0x3A69 JUMPI DUP2 PUSH1 0x0 SWAP3 PUSH1 0x20 DUP1 SWAP4 ADD DUP4 DUP7 ADD CALLDATACOPY DUP4 ADD ADD MSTORE SWAP1 JUMP JUMPDEST PUSH1 0x1 PUSH1 0x1 PUSH1 0x40 SHL SUB DUP2 GT PUSH2 0x140B JUMPI PUSH1 0x5 SHL PUSH1 0x20 ADD SWAP1 JUMP JUMPDEST PUSH1 0x0 JUMPDEST DUP4 DUP2 LT PUSH2 0x3B84 JUMPI POP POP PUSH1 0x0 SWAP2 ADD MSTORE JUMP JUMPDEST DUP2 DUP2 ADD MLOAD DUP4 DUP3 ADD MSTORE PUSH1 0x20 ADD PUSH2 0x3B74 JUMP JUMPDEST SWAP1 PUSH1 0x20 SWAP2 PUSH2 0x3BAD DUP2 MLOAD DUP1 SWAP3 DUP2 DUP6 MSTORE DUP6 DUP1 DUP7 ADD SWAP2 ADD PUSH2 0x3B71 JUMP JUMPDEST PUSH1 0x1F ADD PUSH1 0x1F NOT AND ADD ADD SWAP1 JUMP JUMPDEST SWAP1 PUSH1 0x5 DUP3 LT ISZERO PUSH2 0x3BC6 JUMPI MSTORE JUMP JUMPDEST PUSH4 0x4E487B71 PUSH1 0xE0 SHL PUSH1 0x0 MSTORE PUSH1 0x21 PUSH1 0x4 MSTORE PUSH1 0x24 PUSH1 0x0 REVERT JUMPDEST PUSH1 0x6 GT ISZERO PUSH2 0x3BC6 JUMPI JUMP JUMPDEST SWAP1 PUSH1 0x7 DUP3 LT ISZERO PUSH2 0x3BC6 JUMPI MSTORE JUMP JUMPDEST SWAP1 PUSH1 0x4 DUP3 LT ISZERO PUSH2 0x3BC6 JUMPI MSTORE JUMP JUMPDEST SWAP1 PUSH1 0x1 DUP3 DUP2 SHR SWAP3 AND DUP1 ISZERO PUSH2 0x3C30 JUMPI JUMPDEST PUSH1 0x20 DUP4 LT EQ PUSH2 0x3C1A JUMPI JUMP JUMPDEST PUSH4 0x4E487B71 PUSH1 0xE0 SHL PUSH1 0x0 MSTORE PUSH1 0x22 PUSH1 0x4 MSTORE PUSH1 0x24 PUSH1 0x0 REVERT JUMPDEST SWAP2 PUSH1 0x7F AND SWAP2 PUSH2 0x3C0F JUMP JUMPDEST SWAP1 PUSH1 0x40 MLOAD SWAP2 DUP3 PUSH1 0x0 DUP3 SLOAD SWAP3 PUSH2 0x3C4E DUP5 PUSH2 0x3C00 JUMP JUMPDEST SWAP1 DUP2 DUP5 MSTORE PUSH1 0x1 SWAP5 DUP6 DUP2 AND SWAP1 DUP2 PUSH1 0x0 EQ PUSH2 0x3CBD JUMPI POP PUSH1 0x1 EQ PUSH2 0x3C7A JUMPI JUMPDEST POP POP PUSH2 0x3C78 SWAP3 POP SUB DUP4 PUSH2 0x3AD7 JUMP JUMPDEST JUMP JUMPDEST SWAP1 SWAP4 SWAP2 POP PUSH1 0x0 MSTORE PUSH1 0x20 SWAP1 DUP2 PUSH1 0x0 KECCAK256 SWAP4 PUSH1 0x0 SWAP2 JUMPDEST DUP2 DUP4 LT PUSH2 0x3CA5 JUMPI POP POP PUSH2 0x3C78 SWAP4 POP DUP3 ADD ADD CODESIZE DUP1 PUSH2 0x3C6A JUMP JUMPDEST DUP6 SLOAD DUP9 DUP5 ADD DUP6 ADD MSTORE SWAP5 DUP6 ADD SWAP5 DUP8 SWAP5 POP SWAP2 DUP4 ADD SWAP2 PUSH2 0x3C8D JUMP JUMPDEST SWAP2 POP POP PUSH2 0x3C78 SWAP5 POP PUSH1 0x20 SWAP3 POP PUSH1 0xFF NOT AND DUP3 DUP5 ADD MSTORE ISZERO ISZERO PUSH1 0x5 SHL DUP3 ADD ADD CODESIZE DUP1 PUSH2 0x3C6A JUMP JUMPDEST SWAP1 DUP2 MLOAD DUP1 DUP3 MSTORE PUSH1 0x20 DUP1 DUP1 SWAP4 ADD SWAP4 ADD SWAP2 PUSH1 0x0 JUMPDEST DUP3 DUP2 LT PUSH2 0x3D00 JUMPI POP POP POP POP SWAP1 JUMP JUMPDEST DUP4 MLOAD DUP6 MSTORE SWAP4 DUP2 ADD SWAP4 SWAP3 DUP2 ADD SWAP3 PUSH1 0x1 ADD PUSH2 0x3CF2 JUMP JUMPDEST PUSH1 0x9 SLOAD DUP2 LT ISZERO PUSH2 0xD56 JUMPI PUSH1 0x9 PUSH1 0x0 MSTORE PUSH32 0x6E1540171B6C0C960B71A7020D9F60077F6AF931A8BBF590DA0223DACF75C7AF ADD SWAP1 PUSH1 0x0 SWAP1 JUMP JUMPDEST PUSH1 0x0 SWAP1 DUP1 DUP3 MSTORE PUSH1 0x20 SWAP1 DUP3 DUP3 MSTORE PUSH1 0x40 SWAP3 DUP4 DUP2 KECCAK256 CALLER DUP3 MSTORE DUP4 MSTORE PUSH1 0xFF DUP5 DUP3 KECCAK256 SLOAD AND ISZERO PUSH2 0x3D74 JUMPI POP POP POP POP JUMP JUMPDEST PUSH2 0x3D7D CALLER PUSH2 0x3F54 JUMP JUMPDEST SWAP2 DUP5 MLOAD SWAP1 PUSH2 0x3D8A DUP3 PUSH2 0x3ABC JUMP JUMPDEST PUSH1 0x42 DUP3 MSTORE DUP5 DUP3 ADD SWAP3 PUSH1 0x60 CALLDATASIZE DUP6 CALLDATACOPY DUP3 MLOAD ISZERO PUSH2 0x39C5 JUMPI PUSH1 0x30 DUP5 MSTORE8 DUP3 MLOAD SWAP1 PUSH1 0x1 SWAP2 DUP3 LT ISZERO PUSH2 0x39C5 JUMPI SWAP1 PUSH1 0x78 PUSH1 0x21 DUP6 ADD MSTORE8 PUSH1 0x41 SWAP2 JUMPDEST DUP2 DUP4 GT PUSH2 0x3E7C JUMPI POP POP POP PUSH2 0x3E3A JUMPI PUSH1 0x48 PUSH2 0x16DA SWAP4 DUP7 SWAP4 PUSH2 0x3E1E SWAP4 PUSH2 0x3E0F SWAP9 MLOAD SWAP9 DUP10 SWAP4 PUSH23 0x20B1B1B2B9B9A1B7B73A3937B61D1030B1B1B7BAB73A1 PUSH1 0x4D SHL DUP11 DUP7 ADD MSTORE PUSH2 0x1682 DUP2 MLOAD DUP1 SWAP3 DUP13 PUSH1 0x37 DUP10 ADD SWAP2 ADD PUSH2 0x3B71 JUMP JUMPDEST ADD SUB PUSH1 0x28 DUP2 ADD DUP8 MSTORE ADD DUP6 PUSH2 0x3AD7 JUMP JUMPDEST MLOAD SWAP3 DUP4 SWAP3 PUSH3 0x461BCD PUSH1 0xE5 SHL DUP5 MSTORE PUSH1 0x4 DUP5 ADD MSTORE PUSH1 0x24 DUP4 ADD SWAP1 PUSH2 0x3B94 JUMP JUMPDEST PUSH1 0x64 DUP5 DUP7 MLOAD SWAP1 PUSH3 0x461BCD PUSH1 0xE5 SHL DUP3 MSTORE DUP1 PUSH1 0x4 DUP4 ADD MSTORE PUSH1 0x24 DUP3 ADD MSTORE PUSH32 0x537472696E67733A20686578206C656E67746820696E73756666696369656E74 PUSH1 0x44 DUP3 ADD MSTORE REVERT JUMPDEST SWAP1 SWAP2 SWAP3 PUSH1 0xF DUP2 AND PUSH1 0x10 DUP2 LT ISZERO PUSH2 0x39B1 JUMPI PUSH16 0x181899199A1A9B1B9C1CB0B131B232B3 PUSH1 0x81 SHL SWAP1 BYTE PUSH2 0x3EAC DUP6 DUP8 PUSH2 0x3F43 JUMP JUMPDEST MSTORE8 PUSH1 0x4 SHR SWAP3 DUP1 ISZERO PUSH2 0x399D JUMPI PUSH1 0x0 NOT ADD SWAP2 SWAP1 PUSH2 0x3DBB JUMP JUMPDEST SWAP1 PUSH1 0x0 SWAP2 DUP1 DUP4 MSTORE DUP3 PUSH1 0x20 MSTORE PUSH1 0x40 DUP4 KECCAK256 SWAP2 PUSH1 0x1 DUP1 PUSH1 0xA0 SHL SUB AND SWAP2 DUP3 DUP5 MSTORE PUSH1 0x20 MSTORE PUSH1 0xFF PUSH1 0x40 DUP5 KECCAK256 SLOAD AND PUSH2 0x3EF2 JUMPI POP POP POP JUMP JUMPDEST DUP1 DUP4 MSTORE DUP3 PUSH1 0x20 MSTORE PUSH1 0x40 DUP4 KECCAK256 DUP3 DUP5 MSTORE PUSH1 0x20 MSTORE PUSH1 0x40 DUP4 KECCAK256 PUSH1 0xFF NOT DUP2 SLOAD AND SWAP1 SSTORE PUSH32 0xF6391F5C32D9C69D2A47EA670B442974B53935D1EDC7FD64EB21E047A839171B CALLER SWAP4 DUP1 LOG4 JUMP JUMPDEST SWAP2 SWAP1 DUP3 ADD DUP1 SWAP3 GT PUSH2 0xD40 JUMPI JUMP JUMPDEST SWAP1 DUP2 MLOAD DUP2 LT ISZERO PUSH2 0xD56 JUMPI ADD PUSH1 0x20 ADD SWAP1 JUMP JUMPDEST PUSH1 0x40 MLOAD SWAP1 PUSH1 0x60 DUP3 ADD DUP3 DUP2 LT PUSH1 0x1 PUSH1 0x1 PUSH1 0x40 SHL SUB DUP3 GT OR PUSH2 0x140B JUMPI PUSH1 0x40 MSTORE PUSH1 0x2A DUP3 MSTORE PUSH1 0x20 DUP3 ADD PUSH1 0x40 CALLDATASIZE DUP3 CALLDATACOPY DUP3 MLOAD ISZERO PUSH2 0xD56 JUMPI PUSH1 0x30 SWAP1 MSTORE8 DUP2 MLOAD PUSH1 0x1 SWAP1 DUP2 LT ISZERO PUSH2 0xD56 JUMPI PUSH1 0x78 PUSH1 0x21 DUP5 ADD MSTORE8 PUSH1 0x29 SWAP1 JUMPDEST DUP1 DUP3 GT PUSH2 0x3FB0 JUMPI POP POP PUSH2 0x16DE JUMPI SWAP1 JUMP JUMPDEST SWAP1 SWAP2 PUSH1 0xF DUP2 AND PUSH1 0x10 DUP2 LT ISZERO PUSH2 0x4009 JUMPI PUSH16 0x181899199A1A9B1B9C1CB0B131B232B3 PUSH1 0x81 SHL SWAP1 BYTE PUSH2 0x3FDF DUP5 DUP7 PUSH2 0x3F43 JUMP JUMPDEST MSTORE8 PUSH1 0x4 SHR SWAP2 DUP1 ISZERO PUSH2 0x3FF4 JUMPI PUSH1 0x0 NOT ADD SWAP1 PUSH2 0x3FA0 JUMP JUMPDEST PUSH1 0x24 PUSH1 0x0 PUSH4 0x4E487B71 PUSH1 0xE0 SHL DUP2 MSTORE PUSH1 0x11 PUSH1 0x4 MSTORE REVERT JUMPDEST PUSH1 0x24 PUSH1 0x0 PUSH4 0x4E487B71 PUSH1 0xE0 SHL DUP2 MSTORE PUSH1 0x32 PUSH1 0x4 MSTORE REVERT JUMPDEST PUSH1 0x7 DUP3 LT ISZERO PUSH2 0x3BC6 JUMPI MSTORE JUMP JUMPDEST DUP2 PUSH1 0x1F DUP3 ADD SLT ISZERO PUSH2 0x3A69 JUMPI DUP1 MLOAD PUSH2 0x4040 DUP2 PUSH2 0x3AF8 JUMP JUMPDEST SWAP3 PUSH2 0x404E PUSH1 0x40 MLOAD SWAP5 DUP6 PUSH2 0x3AD7 JUMP JUMPDEST DUP2 DUP5 MSTORE PUSH1 0x20 DUP3 DUP5 ADD ADD GT PUSH2 0x3A69 JUMPI PUSH2 0x406C SWAP2 PUSH1 0x20 DUP1 DUP6 ADD SWAP2 ADD PUSH2 0x3B71 JUMP JUMPDEST SWAP1 JUMP JUMPDEST PUSH1 0x4 DUP3 LT ISZERO PUSH2 0x3BC6 JUMPI MSTORE JUMP JUMPDEST DUP2 DUP2 LT PUSH2 0x4086 JUMPI POP POP JUMP JUMPDEST PUSH1 0x0 DUP2 SSTORE PUSH1 0x1 ADD PUSH2 0x407B JUMP JUMPDEST SWAP1 PUSH1 0x4 DUP2 LT ISZERO PUSH2 0x3BC6 JUMPI PUSH1 0xFF DUP1 NOT DUP4 SLOAD AND SWAP2 AND OR SWAP1 SSTORE JUMP JUMPDEST SWAP2 SWAP1 DUP3 SUB SWAP2 DUP3 GT PUSH2 0xD40 JUMPI JUMP JUMPDEST PUSH2 0x40C0 DUP2 PUSH2 0x3BDC JUMP JUMPDEST DUP1 ISZERO PUSH2 0x4126 JUMPI PUSH2 0x40CF DUP2 PUSH2 0x3BDC JUMP JUMPDEST PUSH1 0x1 DUP2 EQ PUSH2 0x4120 JUMPI PUSH2 0x40E0 DUP2 PUSH2 0x3BDC JUMP JUMPDEST PUSH1 0x2 DUP2 EQ PUSH2 0x411A JUMPI PUSH2 0x40F1 DUP2 PUSH2 0x3BDC JUMP JUMPDEST PUSH1 0x4 DUP2 EQ PUSH2 0x4114 JUMPI DUP1 PUSH2 0x4105 PUSH1 0x5 SWAP3 PUSH2 0x3BDC JUMP JUMPDEST EQ PUSH2 0x410F JUMPI PUSH1 0x0 SWAP1 JUMP JUMPDEST PUSH1 0x5 SWAP1 JUMP JUMPDEST POP PUSH1 0x4 SWAP1 JUMP JUMPDEST POP PUSH1 0x2 SWAP1 JUMP JUMPDEST POP PUSH1 0x1 SWAP1 JUMP JUMPDEST POP PUSH1 0x0 SWAP1 JUMP JUMPDEST SWAP1 PUSH1 0x40 MLOAD SWAP2 DUP3 DUP2 SLOAD SWAP2 DUP3 DUP3 MSTORE PUSH1 0x20 SWAP3 DUP4 DUP4 ADD SWAP2 PUSH1 0x0 MSTORE DUP4 PUSH1 0x0 KECCAK256 SWAP4 PUSH1 0x0 SWAP1 JUMPDEST DUP3 DUP3 LT PUSH2 0x4161 JUMPI POP POP POP PUSH2 0x3C78 SWAP3 POP SUB DUP4 PUSH2 0x3AD7 JUMP JUMPDEST DUP6 SLOAD DUP5 MSTORE PUSH1 0x1 SWAP6 DUP7 ADD SWAP6 DUP9 SWAP6 POP SWAP4 DUP2 ADD SWAP4 SWAP1 SWAP2 ADD SWAP1 PUSH2 0x414B JUMP INVALID LOG2 PUSH5 0x6970667358 0x22 SLT KECCAK256 0xD3 XOR DUP6 JUMPI SIGNEXTEND SWAP1 DUP2 SMOD PUSH24 0x23865DAEE88C5CD611253402CECA4B03ED980DE28C174B64 PUSH20 0x6F6C634300081300332F8788117E7EFF1D82E926 0xEC PUSH26 0x4901D17C78024A50270940304540A733656F0D4504B9DFD7400A ISZERO 0x22 DELEGATECALL SWAP11 DUP12 0x4A LT SDIV MSTORE 0xDA SWAP3 CALLDATASIZE DUP5 SWAP6 DUP2 REVERT MSIZE 0xB7 CALLDATASIZE RETURNDATACOPY 0xB4 DUP13 PUSH11 0x474C7738825A24D04BF35D 0x2B CREATE2 SWAP11 PUSH31 0x19FD6796A6E8017DF89DEC56A0568B864B4EEB4AF78D333037E18E965353F2 MLOAD PUSH14 0xEE481CB202B72068F1CA46CA3E75 0xCE 0x28 0x4C 0xE8 LOG3 GASLIMIT SLOAD ADDMOD DUP11 0xD6 DUP7 PUSH32 0x2DFC9FA603BC5552A424E336B5B832D60C824B89D2AFE69FCF0E2FEE954C1B21 SIGNEXTEND PUSH6 0xA2CEE16F85C 0x2D DUP2 PUSH17 0x15D3803A8D10B7D7ECE2D532126E154017 SHL PUSH13 0xC960B71A7020D9F60077F6AF9 BALANCE 0xA8 0xBB CREATE2 SWAP1 0xDA MUL 0x23 0xDA 0xCF PUSH22 0xC7AF544C608C6AC15425A4787A3A4AD17209EDCA66DF PC 0xB8 0x5C PUSH4 0x6A417156 LT CHAINID SWAP9 GASLIMIT 0xAD ORIGIN 0x28 0xB6 PUSH23 0xF7D3CD4284A5443F17F1962B36E491B30A40B2405849E5 SWAP8 0xBA 0x5F 0xB5 MSIZE DUP4 0xC 0x25 0xD3 MLOAD 0x25 0xD7 DUP8 MULMOD CODECOPY PUSH22 0x15616A8B1EAC46590A36DB81E8F45A66626C8D990000 "},"methodIdentifiers":{"DEFAULT_ADMIN_ROLE()":"a217fddf","DEVELOPER_ROLE()":"9103a0e0","PROPERTY_MANAGER_ROLE()":"47e64656","classifier()":"1cd90adc","createPROPXToken(string,string,uint256,uint256,uint8,uint8,string,uint256,uint256,uint256,string,string)":"91f83cf1","developers(address)":"61fd5c20","feeRecipient()":"46904840","getDeveloperProfile(address)":"64900f5f","getDeveloperProjects(address)":"dbd0b271","getInvestorBalance(uint256,address)":"7cf00f63","getPROPXToken(uint256)":"0ded369b","getPremiumDevelopers()":"3a6c3632","getProjectMetrics(uint256)":"13cd1c35","getRoleAdmin(bytes32)":"248a9ca3","grantRole(bytes32,address)":"2f2ff15d","hasRole(bytes32,address)":"91d14854","investInPROPX(uint256,uint256)":"2630d318","nextTokenId()":"75794a3c","platformFeeCollected()":"ca5c5007","premiumDevelopers(uint256)":"8e61c67a","projectMetrics(uint256)":"8807379f","propxTokens(uint256)":"f809abab","registerDeveloper(address,string,uint8,string,string,uint8[])":"07a873b2","renounceRole(bytes32,address)":"36568abe","revokeRole(bytes32,address)":"d547741f","supportsInterface(bytes4)":"01ffc9a7","tokenToId(address)":"ca82a014","totalProjectsCreated()":"1c91ecb6","totalValueTokenized()":"ff3a3c25"}}}}}