{"contracts/security/MultiOracleManager.sol":{"MultiOracleManager":{"abi":[{"inputs":[],"stateMutability":"nonpayable","type":"constructor"},{"anonymous":false,"inputs":[{"indexed":true,"internalType":"string","name":"symbol","type":"string"}],"name":"AssetAdded","type":"event"},{"anonymous":false,"inputs":[{"indexed":true,"internalType":"string","name":"symbol","type":"string"}],"name":"AssetRemoved","type":"event"},{"anonymous":false,"inputs":[{"indexed":true,"internalType":"string","name":"symbol","type":"string"}],"name":"CircuitBreakerReset","type":"event"},{"anonymous":false,"inputs":[{"indexed":true,"internalType":"string","name":"symbol","type":"string"},{"indexed":false,"internalType":"uint256","name":"oldPrice","type":"uint256"},{"indexed":false,"internalType":"uint256","name":"newPrice","type":"uint256"}],"name":"CircuitBreakerTriggered","type":"event"},{"anonymous":false,"inputs":[{"indexed":true,"internalType":"string","name":"symbol","type":"string"},{"indexed":true,"internalType":"address","name":"oracle","type":"address"},{"indexed":false,"internalType":"uint256","name":"weight","type":"uint256"}],"name":"OracleAdded","type":"event"},{"anonymous":false,"inputs":[{"indexed":true,"internalType":"string","name":"symbol","type":"string"},{"indexed":true,"internalType":"address","name":"oracle","type":"address"}],"name":"OracleRemoved","type":"event"},{"anonymous":false,"inputs":[{"indexed":true,"internalType":"string","name":"symbol","type":"string"},{"indexed":true,"internalType":"address","name":"oracle","type":"address"},{"indexed":false,"internalType":"uint256","name":"newWeight","type":"uint256"}],"name":"OracleUpdated","type":"event"},{"anonymous":false,"inputs":[{"indexed":true,"internalType":"address","name":"previousOwner","type":"address"},{"indexed":true,"internalType":"address","name":"newOwner","type":"address"}],"name":"OwnershipTransferred","type":"event"},{"anonymous":false,"inputs":[{"indexed":false,"internalType":"address","name":"account","type":"address"}],"name":"Paused","type":"event"},{"anonymous":false,"inputs":[{"indexed":true,"internalType":"string","name":"symbol","type":"string"},{"indexed":false,"internalType":"uint256","name":"price","type":"uint256"},{"indexed":false,"internalType":"uint256","name":"timestamp","type":"uint256"}],"name":"PriceUpdated","type":"event"},{"anonymous":false,"inputs":[{"indexed":false,"internalType":"address","name":"account","type":"address"}],"name":"Unpaused","type":"event"},{"inputs":[],"name":"BASIS_POINTS","outputs":[{"internalType":"uint256","name":"","type":"uint256"}],"stateMutability":"view","type":"function"},{"inputs":[],"name":"CIRCUIT_BREAKER_THRESHOLD","outputs":[{"internalType":"uint256","name":"","type":"uint256"}],"stateMutability":"view","type":"function"},{"inputs":[],"name":"DEFAULT_TWAP_WINDOW","outputs":[{"internalType":"uint256","name":"","type":"uint256"}],"stateMutability":"view","type":"function"},{"inputs":[],"name":"MAX_ORACLE_COUNT","outputs":[{"internalType":"uint256","name":"","type":"uint256"}],"stateMutability":"view","type":"function"},{"inputs":[],"name":"MAX_PRICE_STALENESS","outputs":[{"internalType":"uint256","name":"","type":"uint256"}],"stateMutability":"view","type":"function"},{"inputs":[],"name":"MIN_ORACLE_COUNT","outputs":[{"internalType":"uint256","name":"","type":"uint256"}],"stateMutability":"view","type":"function"},{"inputs":[{"internalType":"string","name":"symbol","type":"string"},{"internalType":"uint256","name":"twapWindow","type":"uint256"}],"name":"addAsset","outputs":[],"stateMutability":"nonpayable","type":"function"},{"inputs":[{"internalType":"string","name":"symbol","type":"string"},{"internalType":"address","name":"oracleAddress","type":"address"},{"internalType":"uint256","name":"maxDeviation","type":"uint256"},{"internalType":"uint256","name":"heartbeat","type":"uint256"},{"internalType":"uint256","name":"weight","type":"uint256"},{"internalType":"string","name":"description","type":"string"}],"name":"addOracle","outputs":[],"stateMutability":"nonpayable","type":"function"},{"inputs":[{"internalType":"string","name":"","type":"string"}],"name":"circuitBreakerTriggered","outputs":[{"internalType":"bool","name":"","type":"bool"}],"stateMutability":"view","type":"function"},{"inputs":[{"internalType":"string","name":"symbol","type":"string"}],"name":"getOracleCount","outputs":[{"internalType":"uint256","name":"","type":"uint256"}],"stateMutability":"view","type":"function"},{"inputs":[{"internalType":"string","name":"symbol","type":"string"},{"internalType":"uint256","name":"index","type":"uint256"}],"name":"getOracleData","outputs":[{"internalType":"address","name":"oracle","type":"address"},{"internalType":"uint256","name":"maxDeviation","type":"uint256"},{"internalType":"uint256","name":"heartbeat","type":"uint256"},{"internalType":"bool","name":"isActive","type":"bool"},{"internalType":"uint256","name":"weight","type":"uint256"},{"internalType":"string","name":"description","type":"string"}],"stateMutability":"view","type":"function"},{"inputs":[{"internalType":"string","name":"symbol","type":"string"},{"internalType":"uint256","name":"index","type":"uint256"}],"name":"getOraclePrice","outputs":[{"internalType":"uint256","name":"price","type":"uint256"},{"internalType":"uint256","name":"timestamp","type":"uint256"},{"internalType":"bool","name":"isStale","type":"bool"}],"stateMutability":"view","type":"function"},{"inputs":[{"internalType":"string","name":"symbol","type":"string"}],"name":"getPrice","outputs":[{"internalType":"uint256","name":"price","type":"uint256"},{"internalType":"uint256","name":"timestamp","type":"uint256"}],"stateMutability":"view","type":"function"},{"inputs":[],"name":"getSystemHealth","outputs":[{"internalType":"uint256","name":"totalAssets","type":"uint256"},{"internalType":"uint256","name":"activeAssets","type":"uint256"},{"internalType":"uint256","name":"circuitBreakersTriggered","type":"uint256"},{"internalType":"bool","name":"systemPaused","type":"bool"}],"stateMutability":"view","type":"function"},{"inputs":[{"internalType":"string","name":"symbol","type":"string"}],"name":"getTWAPPrice","outputs":[{"internalType":"uint256","name":"price","type":"uint256"},{"internalType":"uint256","name":"timestamp","type":"uint256"}],"stateMutability":"view","type":"function"},{"inputs":[{"internalType":"string","name":"","type":"string"}],"name":"lastValidPrices","outputs":[{"internalType":"uint256","name":"","type":"uint256"}],"stateMutability":"view","type":"function"},{"inputs":[{"internalType":"string","name":"","type":"string"},{"internalType":"uint256","name":"","type":"uint256"}],"name":"oracles","outputs":[{"internalType":"contract AggregatorV3Interface","name":"priceFeed","type":"address"},{"internalType":"uint256","name":"maxDeviation","type":"uint256"},{"internalType":"uint256","name":"heartbeat","type":"uint256"},{"internalType":"bool","name":"isActive","type":"bool"},{"internalType":"uint256","name":"weight","type":"uint256"},{"internalType":"string","name":"description","type":"string"}],"stateMutability":"view","type":"function"},{"inputs":[],"name":"owner","outputs":[{"internalType":"address","name":"","type":"address"}],"stateMutability":"view","type":"function"},{"inputs":[],"name":"pause","outputs":[],"stateMutability":"nonpayable","type":"function"},{"inputs":[],"name":"paused","outputs":[{"internalType":"bool","name":"","type":"bool"}],"stateMutability":"view","type":"function"},{"inputs":[{"internalType":"string","name":"symbol","type":"string"}],"name":"removeAsset","outputs":[],"stateMutability":"nonpayable","type":"function"},{"inputs":[{"internalType":"string","name":"symbol","type":"string"},{"internalType":"address","name":"oracleAddress","type":"address"}],"name":"removeOracle","outputs":[],"stateMutability":"nonpayable","type":"function"},{"inputs":[],"name":"renounceOwnership","outputs":[],"stateMutability":"nonpayable","type":"function"},{"inputs":[{"internalType":"string","name":"symbol","type":"string"}],"name":"resetCircuitBreaker","outputs":[],"stateMutability":"nonpayable","type":"function"},{"inputs":[{"internalType":"string","name":"","type":"string"}],"name":"supportedAssets","outputs":[{"internalType":"bool","name":"","type":"bool"}],"stateMutability":"view","type":"function"},{"inputs":[{"internalType":"string","name":"symbol","type":"string"},{"internalType":"address","name":"oracleAddress","type":"address"}],"name":"toggleOracle","outputs":[],"stateMutability":"nonpayable","type":"function"},{"inputs":[{"internalType":"address","name":"newOwner","type":"address"}],"name":"transferOwnership","outputs":[],"stateMutability":"nonpayable","type":"function"},{"inputs":[{"internalType":"string","name":"","type":"string"}],"name":"twapData","outputs":[{"internalType":"uint256","name":"cumulativePrice","type":"uint256"},{"internalType":"uint256","name":"lastUpdateTime","type":"uint256"},{"internalType":"uint256","name":"windowSize","type":"uint256"},{"internalType":"uint256","name":"currentIndex","type":"uint256"}],"stateMutability":"view","type":"function"},{"inputs":[],"name":"unpause","outputs":[],"stateMutability":"nonpayable","type":"function"},{"inputs":[{"internalType":"string","name":"symbol","type":"string"},{"internalType":"address","name":"oracleAddress","type":"address"},{"internalType":"uint256","name":"newWeight","type":"uint256"}],"name":"updateOracleWeight","outputs":[],"stateMutability":"nonpayable","type":"function"},{"inputs":[{"internalType":"string","name":"symbol","type":"string"}],"name":"updatePrice","outputs":[],"stateMutability":"nonpayable","type":"function"}],"evm":{"bytecode":{"linkReferences":{},"object":"608080604052346100695760008054336001600160a01b0319821681178355916001600160a01b03909116907f8be0079c531659141344cd1fd0a4f28419497f9722a3daafe3b4186f6b6457e09080a36001805560ff1960025416600255612b25908161006f8239f35b600080fdfe6080604052600436101561001257600080fd5b60003560e01c80630503bc0a146110405780630ca55cd7146110235780630dc3292614610f6e5780631bc7ffe914610d0157806331a6be8c14610cc95780633212f47f14610c6a5780633f4ba83a14610bd6578063524f388914610b075780635c975abb14610ae45780635fcb212014610417578063715018a614610a8b578063759af9ec1461085a578063775f5d3c146107af5780637d43edfb146107435780638456cb59146106e95780638745c73c146106585780638da5cb5b1461062f578063a47f474e146105e1578063ab1e710c146105c5578063af72ba2e14610519578063bf146fe6146104fd578063bfb9ffac146104af578063d312ded01461041c578063d6913b3214610417578063d7f47317146103a0578063ddac2a8014610367578063dffd37341461030b578063e1f1c4a7146102ee578063e219af5b14610288578063f2fde38b146101c25763fe618c781461017157600080fd5b346101bd576101bb61018236611732565b9061018b611773565b6101b660ff60405160208185516101a58183858a016115d8565b810160058152030190205416611884565b611a42565b005b600080fd5b346101bd5760203660031901126101bd576004356001600160a01b03818116918290036101bd576101f1611773565b811561023457600054826001600160601b0360a01b821617600055167f8be0079c531659141344cd1fd0a4f28419497f9722a3daafe3b4186f6b6457e0600080a3005b60405162461bcd60e51b815260206004820152602660248201527f4f776e61626c653a206e6577206f776e657220697320746865207a65726f206160448201526564647265737360d01b6064820152608490fd5b346101bd5760603660031901126101bd576004356001600160401b0381116101bd576102bb6101bb91369060040161151e565b6102c3611574565b6102cb611773565b6102e560ff60405160208186516101a58183858b016115d8565b60443591611d60565b346101bd5760003660031901126101bd5760206040516127108152f35b346101bd5760203660031901126101bd576004356001600160401b0381116101bd5761035460206103418193369060040161151e565b81604051938285809451938492016115d8565b8101600681520301902054604051908152f35b346101bd576101bb61037836611732565b90610381611773565b61039b60ff60405160208185516101a58183858a016115d8565b611e9b565b346101bd5760203660031901126101bd576004356001600160401b0381116101bd5761040460206103d68193369060040161151e565b604051906103f360ff8251938581818601966101a581838a6115d8565b6040519384928392519283916115d8565b8101600381520301902054604051908152f35b6115bb565b346101bd57606061049a61049561048f602061048061043a3661158a565b92906040519061045960ff8251938581818601966101a581838a6115d8565b6103f36040518481845161046e8183896115d8565b810160038152030190205486106120e2565b81016003815203019020611620565b50612125565b61252f565b90604051928352602083015215156040820152f35b346101bd5760203660031901126101bd576004356001600160401b0381116101bd5760ff6104e760206103418194369060040161151e565b8101600581520301902054166040519015158152f35b346101bd5760003660031901126101bd576020604051600a8152f35b346101bd57602061054161052c3661158a565b929081604051938285809451938492016115d8565b810160038152030190209081548110156101bd5761055e91611620565b5060018060a01b038154166105c160018301549260028101549060ff60038201541661059160056004840154930161168c565b9260405196879687526020870152604086015215156060850152608084015260c060a084015260c08301906115fb565b0390f35b346101bd5760003660031901126101bd57602060405160038152f35b346101bd5760203660031901126101bd576004356001600160401b0381116101bd5760ff61061960206103418194369060040161151e565b8101600781520301902054166040519015158152f35b346101bd5760003660031901126101bd576000546040516001600160a01b039091168152602090f35b346101bd5760ff61069361048f6104806106713661158a565b919060405190805190610459602098848a8096818601966101a581838a6115d8565b6105c160018060a01b038251169183810151906040810151606082015115159060a0608084015193015193604051978897885287015260408601526060850152608084015260c060a084015260c08301906115fb565b346101bd5760003660031901126101bd57610702611773565b61070a61209e565b600160ff1960025416176002557f62e78cea01bee320cd4e420270b5ea74000d11b0c9f74754ebdbfc544b05a2586020604051338152a1005b346101bd5760203660031901126101bd576004356001600160401b0381116101bd5761077a6020610341608093369060040161151e565b810160048152030190208054906001810154906005600282015491015491604051938452602084015260408301526060820152f35b346101bd5760203660031901126101bd576004356001600160401b0381116101bd576107e261083391369060040161151e565b6107ea611773565b61081c602060405161080b60ff8551928481818901956101a58183896115d8565b6040518093819286519283916115d8565b8101600781520301902060ff198154169055611864565b7ff9b6094402b8dd6aacde1d951753f76a4087f721159a0c723c7cbfcc839367c4600080a2005b346101bd576020806003193601126101bd576004356001600160401b0381116101bd5761088b90369060040161151e565b610893611773565b604051918151906108c460ff828501936108ae8188876115d8565b8601958381600598898152030190205416611884565b604051818185516108d68183886115d8565b8101878152030190209360ff1994858154169055604051828186516108fc8183896115d8565b8101600481520301902090600082556001916000838201556109978460029660008885015560008560039561093287820161180c565b61093e6004820161180c565b01556040519960008b6109548c518092866115d8565b8c019b848160069e8f8152030190205560405183818c516109768183886115d8565b81016007815203019020908154169055604051809381928b519283916115d8565b8101848152030190209485549560008155866109de575b6109b788611864565b7f7704a686b2fb3541aea5ffdeb387f0119accdfafd1824299e97eb81dee7be835600080a2005b8689029689880403610a755760005284600020958601955b868110156109ae578060008a925560008682015560008382015560008482015560006004820155848101610a2a8154611652565b9081610a39575b5050016109f6565b600091601f808211600114610a53575050555b8a80610a31565b91610a6e8492938284528c842094018a1c84018b85016117f5565b5555610a4c565b634e487b7160e01b600052601160045260246000fd5b346101bd5760003660031901126101bd57610aa4611773565b600080546001600160a01b0319811682556001600160a01b03167f8be0079c531659141344cd1fd0a4f28419497f9722a3daafe3b4186f6b6457e08280a3005b346101bd5760003660031901126101bd57602060ff600254166040519015158152f35b346101bd576020806003193601126101bd576004356001600160401b0381116101bd57610b3890369060040161151e565b9060ff610b6b82604051610b5a848751928481818b01956101a58183896115d8565b6040518093819288519283916115d8565b810160078152030190205416610b9257610b866040926121c4565b90918351928352820152f35b6064906040519062461bcd60e51b82526004820152601960248201527f4369726375697420627265616b657220747269676765726564000000000000006044820152fd5b346101bd5760003660031901126101bd57610bef611773565b60025460ff811615610c2e5760ff19166002557f5db9ee0a495bf2e6ff9c91a7834c1ba4fdd244a5e8aa4e537bd38aeae4b073aa6020604051338152a1005b60405162461bcd60e51b815260206004820152601460248201527314185d5cd8589b194e881b9bdd081c185d5cd95960621b6044820152606490fd5b346101bd5760203660031901126101bd576004356001600160401b0381116101bd57610cbd610c9f604092369060040161151e565b610cb860ff845160208185516101a58183858a016115d8565b612946565b82519182526020820152f35b346101bd5760003660031901126101bd57608060ff600254166040519060008252600060208301526000604083015215156060820152f35b346101bd57610d0f3661158a565b90610d18611773565b6040519181519260ff602091828181870197610d3581838b6115d8565b810160058152030190205416610f2a5761012c82101580610f1d575b15610ee35760405181818551610d6881838a6115d8565b81016005815203019020906001918260ff1982541617905560405190610d8d826114e2565b6000825260405190610d9e826114e2565b6000825260405194610daf866114c7565b60008652818601428152604087019182526060870194855260808701938452610dec8360a089019a60008c52604051809381928d519283916115d8565b81016004815203019020965187555185870155516002860155600385019251928351906001600160401b0394858311610ebb578390610e2b8484611830565b0190600052826000208660005b848110610ed15750505050506004850191518051938411610ebb578190610e5f8585611830565b0191600052806000209060005b848110610eaa5788516005880155610e8388611864565b7f724df0596d75f7cca867e95fdadd6c1397e175dc9a54f0a3f46167ec8577ecae600080a2005b835183820155928101928501610e6c565b634e487b7160e01b600052604160045260246000fd5b85845194019381840155018790610e38565b6064906040519062461bcd60e51b825260048201526013602482015272496e76616c696420545741502077696e646f7760681b6044820152fd5b5062015180821115610d51565b6064906040519062461bcd60e51b82526004820152601760248201527f417373657420616c726561647920737570706f727465640000000000000000006044820152fd5b346101bd5760203660031901126101bd576004356001600160401b0381116101bd57610f9e90369060040161151e565b600260015414610fde57610fd8906002600155610fb961209e565b610fd360ff60405160208185516101a58183858a016115d8565b611f77565b60018055005b60405162461bcd60e51b815260206004820152601f60248201527f5265656e7472616e637947756172643a207265656e7472616e742063616c6c006044820152606490fd5b346101bd5760003660031901126101bd5760206040516103e88152f35b346101bd5760c03660031901126101bd576004356001600160401b0381116101bd5761107090369060040161151e565b611078611574565b60a4356001600160401b0381116101bd5761109790369060040161151e565b906110a0611773565b6110ba60ff60405160208187516101a58183858c016115d8565b6001600160a01b0381161561148957600a60405160208186516110e08183858b016115d8565b8101600381520301902054101561144e57608435151580611441575b611105906118c6565b6107d06044351161140357606492603c84351015806113f5575b156113bd5760005b604051602081845161113c81838589016115d8565b81016003815203019020548110156111c5576111678160405160208186516104808183858b016115d8565b50546001600160a01b038481169116146111895761118490611903565b611127565b60405162461bcd60e51b81526020600482015260156024820152744f7261636c6520616c72656164792065786973747360581b60448201528590fd5b50909160405160208184516111dd81838589016115d8565b81016003815203019020604051946111f4866114c7565b60018060a01b038516865260208601916044358352604087019135825260608701966001978881526080820192608435845260a083019687528054600160401b811015610ebb57611249918b82018155611620565b9490946113a7576005956112959360018060a01b039051166001600160601b0360a01b875416178655518a860155516002850155511515600384019060ff801983541691151516179055565b516004820155019051938451946001600160401b038611610ebb576112c4866112be8554611652565b85611912565b602090601f87116001146113415795809281926112fa9798600094611336575b50501b916000199060031b1c1916179055611864565b60405160843581526001600160a01b03909216917f117d912accda34e414b7f63575e19232386ecf2a297541d5ebb1dd038431966090602090a3005b0151925088806112e4565b9590601f198216908460005260206000209160005b818110611391575097836112fa989910611378575b505050811b019055611864565b015160001960f88460031b161c1916905586808061136b565b8983015184559285019260209283019201611356565b634e487b7160e01b600052600060045260246000fd5b60405162461bcd60e51b8152602060048201526011602482015270125b9d985b1a59081a19585c9d1899585d607a1b60448201528490fd5b50620151808435111561111f565b60405162461bcd60e51b815260206004820152601660248201527509ac2f040c8caecd2c2e8d2dedc40e8dede40d0d2ced60531b6044820152606490fd5b50606460843511156110fc565b60405162461bcd60e51b815260206004820152601360248201527213585e081bdc9858db195cc81c995858da1959606a1b6044820152606490fd5b60405162461bcd60e51b8152602060048201526016602482015275496e76616c6964206f7261636c65206164647265737360501b6044820152606490fd5b60c081019081106001600160401b03821117610ebb57604052565b602081019081106001600160401b03821117610ebb57604052565b90601f801991011681019081106001600160401b03821117610ebb57604052565b81601f820112156101bd578035906001600160401b038211610ebb5760405192611552601f8401601f1916602001856114fd565b828452602083830101116101bd57816000926020809301838601378301015290565b602435906001600160a01b03821682036101bd57565b60406003198201126101bd57600435906001600160401b0382116101bd576115b49160040161151e565b9060243590565b346101bd5760003660031901126101bd576020604051610e108152f35b60005b8381106115eb5750506000910152565b81810151838201526020016115db565b90602091611614815180928185528580860191016115d8565b601f01601f1916010190565b805482101561163c576000526006602060002091020190600090565b634e487b7160e01b600052603260045260246000fd5b90600182811c92168015611682575b602083101461166c57565b634e487b7160e01b600052602260045260246000fd5b91607f1691611661565b90604051918260008254926116a084611652565b90818452600194858116908160001461170f57506001146116cc575b50506116ca925003836114fd565b565b9093915060005260209081600020936000915b8183106116f75750506116ca935082010138806116bc565b855488840185015294850194879450918301916116df565b9150506116ca94506020925060ff191682840152151560051b82010138806116bc565b60406003198201126101bd57600435906001600160401b0382116101bd5761175c9160040161151e565b906024356001600160a01b03811681036101bd5790565b6000546001600160a01b0316330361178757565b606460405162461bcd60e51b815260206004820152602060248201527f4f776e61626c653a2063616c6c6572206973206e6f7420746865206f776e65726044820152fd5b6001600160401b038111610ebb5760051b60200190565b81810292918115918404141715610a7557565b818110611800575050565b600081556001016117f5565b8054600082558061181b575050565b6116ca916000526020600020908101906117f5565b90600160401b8111610ebb5781549080835581811061184e57505050565b6116ca92600052602060002091820191016117f5565b61187c906020604051928284809451938492016115d8565b810103902090565b1561188b57565b60405162461bcd60e51b8152602060048201526013602482015272105cdcd95d081b9bdd081cdd5c1c1bdc9d1959606a1b6044820152606490fd5b156118cd57565b60405162461bcd60e51b815260206004820152600e60248201526d125b9d985b1a59081dd95a59da1d60921b6044820152606490fd5b6000198114610a755760010190565b9190601f811161192157505050565b6116ca926000526020600020906020601f840160051c8301931061194d575b601f0160051c01906117f5565b9091508190611940565b91908203918211610a7557565b90808214611a3e576119768154611652565b906001600160401b038211610ebb57819061199b826119958654611652565b86611912565b600090601f83116001146119d2576000926119c7575b50508160011b916000199060031b1c1916179055565b0154905038806119b1565b81526020808220858352818320935090601f1985169083905b828210611a25575050908460019594939210611a0c575b505050811b019055565b015460001960f88460031b161c19169055388080611a02565b84958192958501548155600180910196019401906119eb565b5050565b9060409182519080519360209081830195611a5e8186896115d8565b84018483600396838880955203019020541115611d115760005b815183818651611a8981838d6115d8565b81018881520301902054811015611cda57611abf818351858180611ab18d8b519283916115d8565b81018a815203019020611620565b50546001600160a01b038781169181168214611ae5575050611ae090611903565b611a78565b928094959697509790975185818851611aff8183876115d8565b81018a81520301902093805186818951611b1a8183886115d8565b81018b8152030190205460001995868201918211610a7557611b6091611b3f91611620565b5093825188818b51611b5281838a6115d8565b81018d815203019020611620565b9490946113a75784848895611b879703611c72575b505050518093819288519283916115d8565b8101878152030190209081548015611c5c570191611ba58383611620565b9590956113a757856000611bf097556000600192818484015581600284015582015560006004820155600580910191611bde8354611652565b9182611c17575b505050505055611864565b7fb2e6642ce17b2a48851ea5daf94f434d26f2d9bb7854a410487cb4588c118375600080a3565b600094601f90818511600114611c38575050505050555b3880808080611be5565b91859391611c5593889697875286209601901c85019085016117f5565b5555611c2e565b634e487b7160e01b600052603160045260246000fd5b611cd2928154166001600160601b0360a01b8354161782556001808201549083015560028082015490830155611cbc60ff8c830154168c84019060ff801983541691151516179055565b6004808201549083015560058091019101611964565b388080611b75565b505162461bcd60e51b815260206004820152601060248201526f13dc9858db19481b9bdd08199bdd5b9960821b6044820152606490fd5b60849250519062461bcd60e51b82526004820152602360248201527f43616e6e6f742072656d6f76652c206d696e206f7261636c65732072657175696044820152621c995960ea1b6064820152fd5b9180151580611e90575b611d73906118c6565b60005b6040805190855160209081880190611d8f8186846115d8565b84019382816003968781520301902054851015611e5857611dc985845184818c51611dbb8183896115d8565b810189815203019020611620565b50546001600160a01b038881169591168514611df2575050505050611ded90611903565b611d76565b839750611e488396611e3a89979b957f79b60be0b168551a45f10fb051c2769b31c72f185291f0533bf80cd7693245f29a95600495611e509951809481938b519283916115d8565b820190815203019020611620565b500155611864565b9351908152a3565b60405162461bcd60e51b815260206004820152601060248201526f13dc9858db19481b9bdd08199bdd5b9960821b6044820152606490fd5b506064811115611d6a565b9060005b60408051845160209081870190611eb78185846115d8565b83019282816003958681520301902054851015611e5857611ef185855184818b51611ee38183896115d8565b810188815203019020611620565b50546001600160a01b03878116911614611f175750505050611f1290611903565b611e9f565b83955090611f41916116ca9760ff85611f4f89611f64999a989a5187818751611f4181838c6115d8565b810186815203019020611620565b500154161597519384928392519283916115d8565b50019060ff801983541691151516179055565b611f80816121c4565b91906040908151938351946020958187809381890193611fa18183876115d8565b8101600681520301902054612013575b9483611ff7612007937f6e838f2a03741f5f2aff5480963b672fb0dd8430a4dc75db9b67ce009733c9fe98611fe787858761288d565b88518093819287519283916115d8565b8101600681520301902055611864565b948351928352820152a2565b8451828188516120248183876115d8565b81016006815203019020546103e861203c86836127e7565b116120475750611fb1565b93925094612084612007927f523ad613567fbc3e5ab031387463d6181666216d2aff6391c50871593021ef1e9787518093819286519283916115d8565b81016007815203019020600160ff19825416179055611864565b60ff600254166120aa57565b60405162461bcd60e51b815260206004820152601060248201526f14185d5cd8589b194e881c185d5cd95960821b6044820152606490fd5b156120e957565b60405162461bcd60e51b8152602060048201526014602482015273092dcecc2d8d2c840dee4c2c6d8ca40d2dcc8caf60631b6044820152606490fd5b90604051612132816114c7565b82546001600160a01b031681526001830154602082015260028301546040820152600383015460ff16151560608201526004830154608082015291829060a09061217e9060050161168c565b910152565b805182101561163c5760209160051b010190565b91908201809211610a7557565b81156121ae570490565b634e487b7160e01b600052601260045260246000fd5b90600080816040948551815191602097888201936121e38185876115d8565b83019289816003958681520301902054946121fd866117cb565b9561220a835197886114fd565b808752612219601f19916117cb565b01368b88013787805b83518c81875161223381838d6115d8565b810189815203019020548110156122ec578b60ff8761226284611f41858d8c8c519384928392519283916115d8565b50015416156122e25761049561048f83611b5261228b948c8b8b519384928392519283916115d8565b91909115806122d9575b6122aa575b50506122a590611903565b612222565b9a6122c0919b6122ba828c612183565b52611903565b998981116122cf575b8061229a565b98506122a56122c9565b50801515612295565b506122a590611903565b50969899939194929790998282106124d457875b865186818c5161231181838b6115d8565b810187815203019020548110156124645760ff8461234083611f418a8f8b908e519384928392519283916115d8565b500154161561245b578686868c61236a61049561048f878b87895180928851611e3a81848d6115d8565b90509490941580612452575b61238e575b505050505061238990611903565b612300565b6123ad6123c6946001946123bb948994519384928392519283916115d8565b81018c815203019020611620565b500154858b846126b6565b6123d4575b86868c8a61237b565b9b818b888a9c949c518092516123eb81838d6115d8565b810189815203019020906123fe91611620565b509c6004809e015461240f916117e2565b61241891612197565b9b898b888a5180925161242c81838d6115d8565b8101898152030190209061243f91611620565b50015461244b91612197565b97386123cb565b50841515612376565b61238990611903565b50999697505050509150831561248357505090612480916121a4565b91565b60849250519062461bcd60e51b82526004820152602560248201527f4e6f2076616c69642070726963657320616674657220646576696174696f6e20604482015264636865636b60d81b6064820152fd5b855162461bcd60e51b815260048101869052601a60248201527f496e73756666696369656e742076616c6964206f7261636c65730000000000006044820152606490fd5b519069ffffffffffffffffffff821682036101bd57565b8051604051633fabe5a360e21b81529060a090829060049082906001600160a01b03165afa600080918082948392612659575b50612577575050505050600090600090600190565b6000839694959613156126245784156125eb5769ffffffffffffffffffff8091169116036125b3579260406125ac8442611957565b9101511090565b60405162461bcd60e51b815260206004820152601060248201526f5374616c6520726f756e64206461746160801b6044820152606490fd5b60405162461bcd60e51b81526020600482015260116024820152700496e76616c69642074696d657374616d7607c1b6044820152606490fd5b60405162461bcd60e51b815260206004820152600d60248201526c496e76616c696420707269636560981b6044820152606490fd5b935093505060a0823d82116126ae575b8161267660a093836114fd565b810103126126ab575061268881612518565b916020820151906126a0608060608501519401612518565b939192939038612562565b80fd5b3d9150612669565b9060018311156126d7576126d2926126cd916126e0565b6127e7565b111590565b50505050600190565b916000905b60001990838201848111610a75578310156127935760005b6127078486611957565b838101908111610a7557811015612781576127228187612183565b519060018101808211610a755761274a9261273d828a612183565b511061274f575b50611903565b6126fd565b61277a61275c838a612183565b5191612768818b612183565b51612773858c612183565b5289612183565b5238612744565b509161278d9150611903565b906126e5565b9392915050600181166127d55760011c906000198201828111610a75576127cf926127c16127c89284612183565b5192612183565b5190612197565b60011c90565b906127e39160011c90612183565b5190565b908115612832578181811115612823579061280191611957565b905b61271091828102928184041490151715610a7557612820916121a4565b90565b61282c91611957565b90612803565b5050600090565b805482101561163c5760005260206000200190600090565b90815491600160401b831015610ebb57826128749160016116ca95018155612839565b90919082549060031b91821b91600019901b1916179055565b60206128a69181604051938285809451938492016115d8565b810160048152030190206003810180541561291f5760648154106000146128e4576001926128d391612851565b6128e08360048301612851565b0155565b6005820192835460018101809111610a755760019461291587936128746128e0966064612874960690818655612839565b5460048501612839565b9161292c81600194612851565b6129398460048401612851565b6000600583015581550155565b90602061295c60405193848151938492016115d8565b820191602081600494858152030190206003908181019182548015612ae1576002830154600090804211600014612ad957612998915042611957565b92935b6000948594908801855b848110612a085750600091505085156129cc57505050506129c79293506121a4565b904290565b92945060001982019350919083116129f557506129eb92939450612839565b9054911b1c904290565b634e487b7160e01b815260118652602490fd5b82612a138284612839565b905490881b1c1015612a2e575b612a2990611903565b6129a5565b9695600088612a745750612a6c612a55612a66612a2993612a608c60019485915b8b612839565b9054908d1b1c6117e2565b90612197565b98612197565b979050612a20565b612a7e8984612839565b905490881b1c906000198a01908a8211612ac65750612a66612a2993612a608c612abe612a6c968d612ab3612a55988c612839565b9054911b1c90611957565b948591612a4f565b634e487b7160e01b815260118d52602490fd5b50929361299b565b50505050905060009060009056fea2646970667358221220b31ad6458fe59334034bc565f019302d93748ebd16862a099badbb92a7e106a964736f6c63430008130033","opcodes":"PUSH1 0x80 DUP1 PUSH1 0x40 MSTORE CALLVALUE PUSH2 0x69 JUMPI PUSH1 0x0 DUP1 SLOAD CALLER PUSH1 0x1 PUSH1 0x1 PUSH1 0xA0 SHL SUB NOT DUP3 AND DUP2 OR DUP4 SSTORE SWAP2 PUSH1 0x1 PUSH1 0x1 PUSH1 0xA0 SHL SUB SWAP1 SWAP2 AND SWAP1 PUSH32 0x8BE0079C531659141344CD1FD0A4F28419497F9722A3DAAFE3B4186F6B6457E0 SWAP1 DUP1 LOG3 PUSH1 0x1 DUP1 SSTORE PUSH1 0xFF NOT PUSH1 0x2 SLOAD AND PUSH1 0x2 SSTORE PUSH2 0x2B25 SWAP1 DUP2 PUSH2 0x6F DUP3 CODECOPY RETURN JUMPDEST PUSH1 0x0 DUP1 REVERT INVALID PUSH1 0x80 PUSH1 0x40 MSTORE PUSH1 0x4 CALLDATASIZE LT ISZERO PUSH2 0x12 JUMPI PUSH1 0x0 DUP1 REVERT JUMPDEST PUSH1 0x0 CALLDATALOAD PUSH1 0xE0 SHR DUP1 PUSH4 0x503BC0A EQ PUSH2 0x1040 JUMPI DUP1 PUSH4 0xCA55CD7 EQ PUSH2 0x1023 JUMPI DUP1 PUSH4 0xDC32926 EQ PUSH2 0xF6E JUMPI DUP1 PUSH4 0x1BC7FFE9 EQ PUSH2 0xD01 JUMPI DUP1 PUSH4 0x31A6BE8C EQ PUSH2 0xCC9 JUMPI DUP1 PUSH4 0x3212F47F EQ PUSH2 0xC6A JUMPI DUP1 PUSH4 0x3F4BA83A EQ PUSH2 0xBD6 JUMPI DUP1 PUSH4 0x524F3889 EQ PUSH2 0xB07 JUMPI DUP1 PUSH4 0x5C975ABB EQ PUSH2 0xAE4 JUMPI DUP1 PUSH4 0x5FCB2120 EQ PUSH2 0x417 JUMPI DUP1 PUSH4 0x715018A6 EQ PUSH2 0xA8B JUMPI DUP1 PUSH4 0x759AF9EC EQ PUSH2 0x85A JUMPI DUP1 PUSH4 0x775F5D3C EQ PUSH2 0x7AF JUMPI DUP1 PUSH4 0x7D43EDFB EQ PUSH2 0x743 JUMPI DUP1 PUSH4 0x8456CB59 EQ PUSH2 0x6E9 JUMPI DUP1 PUSH4 0x8745C73C EQ PUSH2 0x658 JUMPI DUP1 PUSH4 0x8DA5CB5B EQ PUSH2 0x62F JUMPI DUP1 PUSH4 0xA47F474E EQ PUSH2 0x5E1 JUMPI DUP1 PUSH4 0xAB1E710C EQ PUSH2 0x5C5 JUMPI DUP1 PUSH4 0xAF72BA2E EQ PUSH2 0x519 JUMPI DUP1 PUSH4 0xBF146FE6 EQ PUSH2 0x4FD JUMPI DUP1 PUSH4 0xBFB9FFAC EQ PUSH2 0x4AF JUMPI DUP1 PUSH4 0xD312DED0 EQ PUSH2 0x41C JUMPI DUP1 PUSH4 0xD6913B32 EQ PUSH2 0x417 JUMPI DUP1 PUSH4 0xD7F47317 EQ PUSH2 0x3A0 JUMPI DUP1 PUSH4 0xDDAC2A80 EQ PUSH2 0x367 JUMPI DUP1 PUSH4 0xDFFD3734 EQ PUSH2 0x30B JUMPI DUP1 PUSH4 0xE1F1C4A7 EQ PUSH2 0x2EE JUMPI DUP1 PUSH4 0xE219AF5B EQ PUSH2 0x288 JUMPI DUP1 PUSH4 0xF2FDE38B EQ PUSH2 0x1C2 JUMPI PUSH4 0xFE618C78 EQ PUSH2 0x171 JUMPI PUSH1 0x0 DUP1 REVERT JUMPDEST CALLVALUE PUSH2 0x1BD JUMPI PUSH2 0x1BB PUSH2 0x182 CALLDATASIZE PUSH2 0x1732 JUMP JUMPDEST SWAP1 PUSH2 0x18B PUSH2 0x1773 JUMP JUMPDEST PUSH2 0x1B6 PUSH1 0xFF PUSH1 0x40 MLOAD PUSH1 0x20 DUP2 DUP6 MLOAD PUSH2 0x1A5 DUP2 DUP4 DUP6 DUP11 ADD PUSH2 0x15D8 JUMP JUMPDEST DUP2 ADD PUSH1 0x5 DUP2 MSTORE SUB ADD SWAP1 KECCAK256 SLOAD AND PUSH2 0x1884 JUMP JUMPDEST PUSH2 0x1A42 JUMP JUMPDEST STOP JUMPDEST PUSH1 0x0 DUP1 REVERT JUMPDEST CALLVALUE PUSH2 0x1BD JUMPI PUSH1 0x20 CALLDATASIZE PUSH1 0x3 NOT ADD SLT PUSH2 0x1BD JUMPI PUSH1 0x4 CALLDATALOAD PUSH1 0x1 PUSH1 0x1 PUSH1 0xA0 SHL SUB DUP2 DUP2 AND SWAP2 DUP3 SWAP1 SUB PUSH2 0x1BD JUMPI PUSH2 0x1F1 PUSH2 0x1773 JUMP JUMPDEST DUP2 ISZERO PUSH2 0x234 JUMPI PUSH1 0x0 SLOAD DUP3 PUSH1 0x1 PUSH1 0x1 PUSH1 0x60 SHL SUB PUSH1 0xA0 SHL DUP3 AND OR PUSH1 0x0 SSTORE AND PUSH32 0x8BE0079C531659141344CD1FD0A4F28419497F9722A3DAAFE3B4186F6B6457E0 PUSH1 0x0 DUP1 LOG3 STOP JUMPDEST PUSH1 0x40 MLOAD PUSH3 0x461BCD PUSH1 0xE5 SHL DUP2 MSTORE PUSH1 0x20 PUSH1 0x4 DUP3 ADD MSTORE PUSH1 0x26 PUSH1 0x24 DUP3 ADD MSTORE PUSH32 0x4F776E61626C653A206E6577206F776E657220697320746865207A65726F2061 PUSH1 0x44 DUP3 ADD MSTORE PUSH6 0x646472657373 PUSH1 0xD0 SHL PUSH1 0x64 DUP3 ADD MSTORE PUSH1 0x84 SWAP1 REVERT JUMPDEST CALLVALUE PUSH2 0x1BD JUMPI PUSH1 0x60 CALLDATASIZE PUSH1 0x3 NOT ADD SLT PUSH2 0x1BD JUMPI PUSH1 0x4 CALLDATALOAD PUSH1 0x1 PUSH1 0x1 PUSH1 0x40 SHL SUB DUP2 GT PUSH2 0x1BD JUMPI PUSH2 0x2BB PUSH2 0x1BB SWAP2 CALLDATASIZE SWAP1 PUSH1 0x4 ADD PUSH2 0x151E JUMP JUMPDEST PUSH2 0x2C3 PUSH2 0x1574 JUMP JUMPDEST PUSH2 0x2CB PUSH2 0x1773 JUMP JUMPDEST PUSH2 0x2E5 PUSH1 0xFF PUSH1 0x40 MLOAD PUSH1 0x20 DUP2 DUP7 MLOAD PUSH2 0x1A5 DUP2 DUP4 DUP6 DUP12 ADD PUSH2 0x15D8 JUMP JUMPDEST PUSH1 0x44 CALLDATALOAD SWAP2 PUSH2 0x1D60 JUMP JUMPDEST CALLVALUE PUSH2 0x1BD JUMPI PUSH1 0x0 CALLDATASIZE PUSH1 0x3 NOT ADD SLT PUSH2 0x1BD JUMPI PUSH1 0x20 PUSH1 0x40 MLOAD PUSH2 0x2710 DUP2 MSTORE RETURN JUMPDEST CALLVALUE PUSH2 0x1BD JUMPI PUSH1 0x20 CALLDATASIZE PUSH1 0x3 NOT ADD SLT PUSH2 0x1BD JUMPI PUSH1 0x4 CALLDATALOAD PUSH1 0x1 PUSH1 0x1 PUSH1 0x40 SHL SUB DUP2 GT PUSH2 0x1BD JUMPI PUSH2 0x354 PUSH1 0x20 PUSH2 0x341 DUP2 SWAP4 CALLDATASIZE SWAP1 PUSH1 0x4 ADD PUSH2 0x151E JUMP JUMPDEST DUP2 PUSH1 0x40 MLOAD SWAP4 DUP3 DUP6 DUP1 SWAP5 MLOAD SWAP4 DUP5 SWAP3 ADD PUSH2 0x15D8 JUMP JUMPDEST DUP2 ADD PUSH1 0x6 DUP2 MSTORE SUB ADD SWAP1 KECCAK256 SLOAD PUSH1 0x40 MLOAD SWAP1 DUP2 MSTORE RETURN JUMPDEST CALLVALUE PUSH2 0x1BD JUMPI PUSH2 0x1BB PUSH2 0x378 CALLDATASIZE PUSH2 0x1732 JUMP JUMPDEST SWAP1 PUSH2 0x381 PUSH2 0x1773 JUMP JUMPDEST PUSH2 0x39B PUSH1 0xFF PUSH1 0x40 MLOAD PUSH1 0x20 DUP2 DUP6 MLOAD PUSH2 0x1A5 DUP2 DUP4 DUP6 DUP11 ADD PUSH2 0x15D8 JUMP JUMPDEST PUSH2 0x1E9B JUMP JUMPDEST CALLVALUE PUSH2 0x1BD JUMPI PUSH1 0x20 CALLDATASIZE PUSH1 0x3 NOT ADD SLT PUSH2 0x1BD JUMPI PUSH1 0x4 CALLDATALOAD PUSH1 0x1 PUSH1 0x1 PUSH1 0x40 SHL SUB DUP2 GT PUSH2 0x1BD JUMPI PUSH2 0x404 PUSH1 0x20 PUSH2 0x3D6 DUP2 SWAP4 CALLDATASIZE SWAP1 PUSH1 0x4 ADD PUSH2 0x151E JUMP JUMPDEST PUSH1 0x40 MLOAD SWAP1 PUSH2 0x3F3 PUSH1 0xFF DUP3 MLOAD SWAP4 DUP6 DUP2 DUP2 DUP7 ADD SWAP7 PUSH2 0x1A5 DUP2 DUP4 DUP11 PUSH2 0x15D8 JUMP JUMPDEST PUSH1 0x40 MLOAD SWAP4 DUP5 SWAP3 DUP4 SWAP3 MLOAD SWAP3 DUP4 SWAP2 PUSH2 0x15D8 JUMP JUMPDEST DUP2 ADD PUSH1 0x3 DUP2 MSTORE SUB ADD SWAP1 KECCAK256 SLOAD PUSH1 0x40 MLOAD SWAP1 DUP2 MSTORE RETURN JUMPDEST PUSH2 0x15BB JUMP JUMPDEST CALLVALUE PUSH2 0x1BD JUMPI PUSH1 0x60 PUSH2 0x49A PUSH2 0x495 PUSH2 0x48F PUSH1 0x20 PUSH2 0x480 PUSH2 0x43A CALLDATASIZE PUSH2 0x158A JUMP JUMPDEST SWAP3 SWAP1 PUSH1 0x40 MLOAD SWAP1 PUSH2 0x459 PUSH1 0xFF DUP3 MLOAD SWAP4 DUP6 DUP2 DUP2 DUP7 ADD SWAP7 PUSH2 0x1A5 DUP2 DUP4 DUP11 PUSH2 0x15D8 JUMP JUMPDEST PUSH2 0x3F3 PUSH1 0x40 MLOAD DUP5 DUP2 DUP5 MLOAD PUSH2 0x46E DUP2 DUP4 DUP10 PUSH2 0x15D8 JUMP JUMPDEST DUP2 ADD PUSH1 0x3 DUP2 MSTORE SUB ADD SWAP1 KECCAK256 SLOAD DUP7 LT PUSH2 0x20E2 JUMP JUMPDEST DUP2 ADD PUSH1 0x3 DUP2 MSTORE SUB ADD SWAP1 KECCAK256 PUSH2 0x1620 JUMP JUMPDEST POP PUSH2 0x2125 JUMP JUMPDEST PUSH2 0x252F JUMP JUMPDEST SWAP1 PUSH1 0x40 MLOAD SWAP3 DUP4 MSTORE PUSH1 0x20 DUP4 ADD MSTORE ISZERO ISZERO PUSH1 0x40 DUP3 ADD MSTORE RETURN JUMPDEST CALLVALUE PUSH2 0x1BD JUMPI PUSH1 0x20 CALLDATASIZE PUSH1 0x3 NOT ADD SLT PUSH2 0x1BD JUMPI PUSH1 0x4 CALLDATALOAD PUSH1 0x1 PUSH1 0x1 PUSH1 0x40 SHL SUB DUP2 GT PUSH2 0x1BD JUMPI PUSH1 0xFF PUSH2 0x4E7 PUSH1 0x20 PUSH2 0x341 DUP2 SWAP5 CALLDATASIZE SWAP1 PUSH1 0x4 ADD PUSH2 0x151E JUMP JUMPDEST DUP2 ADD PUSH1 0x5 DUP2 MSTORE SUB ADD SWAP1 KECCAK256 SLOAD AND PUSH1 0x40 MLOAD SWAP1 ISZERO ISZERO DUP2 MSTORE RETURN JUMPDEST CALLVALUE PUSH2 0x1BD JUMPI PUSH1 0x0 CALLDATASIZE PUSH1 0x3 NOT ADD SLT PUSH2 0x1BD JUMPI PUSH1 0x20 PUSH1 0x40 MLOAD PUSH1 0xA DUP2 MSTORE RETURN JUMPDEST CALLVALUE PUSH2 0x1BD JUMPI PUSH1 0x20 PUSH2 0x541 PUSH2 0x52C CALLDATASIZE PUSH2 0x158A JUMP JUMPDEST SWAP3 SWAP1 DUP2 PUSH1 0x40 MLOAD SWAP4 DUP3 DUP6 DUP1 SWAP5 MLOAD SWAP4 DUP5 SWAP3 ADD PUSH2 0x15D8 JUMP JUMPDEST DUP2 ADD PUSH1 0x3 DUP2 MSTORE SUB ADD SWAP1 KECCAK256 SWAP1 DUP2 SLOAD DUP2 LT ISZERO PUSH2 0x1BD JUMPI PUSH2 0x55E SWAP2 PUSH2 0x1620 JUMP JUMPDEST POP PUSH1 0x1 DUP1 PUSH1 0xA0 SHL SUB DUP2 SLOAD AND PUSH2 0x5C1 PUSH1 0x1 DUP4 ADD SLOAD SWAP3 PUSH1 0x2 DUP2 ADD SLOAD SWAP1 PUSH1 0xFF PUSH1 0x3 DUP3 ADD SLOAD AND PUSH2 0x591 PUSH1 0x5 PUSH1 0x4 DUP5 ADD SLOAD SWAP4 ADD PUSH2 0x168C JUMP JUMPDEST SWAP3 PUSH1 0x40 MLOAD SWAP7 DUP8 SWAP7 DUP8 MSTORE PUSH1 0x20 DUP8 ADD MSTORE PUSH1 0x40 DUP7 ADD MSTORE ISZERO ISZERO PUSH1 0x60 DUP6 ADD MSTORE PUSH1 0x80 DUP5 ADD MSTORE PUSH1 0xC0 PUSH1 0xA0 DUP5 ADD MSTORE PUSH1 0xC0 DUP4 ADD SWAP1 PUSH2 0x15FB JUMP JUMPDEST SUB SWAP1 RETURN JUMPDEST CALLVALUE PUSH2 0x1BD JUMPI PUSH1 0x0 CALLDATASIZE PUSH1 0x3 NOT ADD SLT PUSH2 0x1BD JUMPI PUSH1 0x20 PUSH1 0x40 MLOAD PUSH1 0x3 DUP2 MSTORE RETURN JUMPDEST CALLVALUE PUSH2 0x1BD JUMPI PUSH1 0x20 CALLDATASIZE PUSH1 0x3 NOT ADD SLT PUSH2 0x1BD JUMPI PUSH1 0x4 CALLDATALOAD PUSH1 0x1 PUSH1 0x1 PUSH1 0x40 SHL SUB DUP2 GT PUSH2 0x1BD JUMPI PUSH1 0xFF PUSH2 0x619 PUSH1 0x20 PUSH2 0x341 DUP2 SWAP5 CALLDATASIZE SWAP1 PUSH1 0x4 ADD PUSH2 0x151E JUMP JUMPDEST DUP2 ADD PUSH1 0x7 DUP2 MSTORE SUB ADD SWAP1 KECCAK256 SLOAD AND PUSH1 0x40 MLOAD SWAP1 ISZERO ISZERO DUP2 MSTORE RETURN JUMPDEST CALLVALUE PUSH2 0x1BD JUMPI PUSH1 0x0 CALLDATASIZE PUSH1 0x3 NOT ADD SLT PUSH2 0x1BD JUMPI PUSH1 0x0 SLOAD PUSH1 0x40 MLOAD PUSH1 0x1 PUSH1 0x1 PUSH1 0xA0 SHL SUB SWAP1 SWAP2 AND DUP2 MSTORE PUSH1 0x20 SWAP1 RETURN JUMPDEST CALLVALUE PUSH2 0x1BD JUMPI PUSH1 0xFF PUSH2 0x693 PUSH2 0x48F PUSH2 0x480 PUSH2 0x671 CALLDATASIZE PUSH2 0x158A JUMP JUMPDEST SWAP2 SWAP1 PUSH1 0x40 MLOAD SWAP1 DUP1 MLOAD SWAP1 PUSH2 0x459 PUSH1 0x20 SWAP9 DUP5 DUP11 DUP1 SWAP7 DUP2 DUP7 ADD SWAP7 PUSH2 0x1A5 DUP2 DUP4 DUP11 PUSH2 0x15D8 JUMP JUMPDEST PUSH2 0x5C1 PUSH1 0x1 DUP1 PUSH1 0xA0 SHL SUB DUP3 MLOAD AND SWAP2 DUP4 DUP2 ADD MLOAD SWAP1 PUSH1 0x40 DUP2 ADD MLOAD PUSH1 0x60 DUP3 ADD MLOAD ISZERO ISZERO SWAP1 PUSH1 0xA0 PUSH1 0x80 DUP5 ADD MLOAD SWAP4 ADD MLOAD SWAP4 PUSH1 0x40 MLOAD SWAP8 DUP9 SWAP8 DUP9 MSTORE DUP8 ADD MSTORE PUSH1 0x40 DUP7 ADD MSTORE PUSH1 0x60 DUP6 ADD MSTORE PUSH1 0x80 DUP5 ADD MSTORE PUSH1 0xC0 PUSH1 0xA0 DUP5 ADD MSTORE PUSH1 0xC0 DUP4 ADD SWAP1 PUSH2 0x15FB JUMP JUMPDEST CALLVALUE PUSH2 0x1BD JUMPI PUSH1 0x0 CALLDATASIZE PUSH1 0x3 NOT ADD SLT PUSH2 0x1BD JUMPI PUSH2 0x702 PUSH2 0x1773 JUMP JUMPDEST PUSH2 0x70A PUSH2 0x209E JUMP JUMPDEST PUSH1 0x1 PUSH1 0xFF NOT PUSH1 0x2 SLOAD AND OR PUSH1 0x2 SSTORE PUSH32 0x62E78CEA01BEE320CD4E420270B5EA74000D11B0C9F74754EBDBFC544B05A258 PUSH1 0x20 PUSH1 0x40 MLOAD CALLER DUP2 MSTORE LOG1 STOP JUMPDEST CALLVALUE PUSH2 0x1BD JUMPI PUSH1 0x20 CALLDATASIZE PUSH1 0x3 NOT ADD SLT PUSH2 0x1BD JUMPI PUSH1 0x4 CALLDATALOAD PUSH1 0x1 PUSH1 0x1 PUSH1 0x40 SHL SUB DUP2 GT PUSH2 0x1BD JUMPI PUSH2 0x77A PUSH1 0x20 PUSH2 0x341 PUSH1 0x80 SWAP4 CALLDATASIZE SWAP1 PUSH1 0x4 ADD PUSH2 0x151E JUMP JUMPDEST DUP2 ADD PUSH1 0x4 DUP2 MSTORE SUB ADD SWAP1 KECCAK256 DUP1 SLOAD SWAP1 PUSH1 0x1 DUP2 ADD SLOAD SWAP1 PUSH1 0x5 PUSH1 0x2 DUP3 ADD SLOAD SWAP2 ADD SLOAD SWAP2 PUSH1 0x40 MLOAD SWAP4 DUP5 MSTORE PUSH1 0x20 DUP5 ADD MSTORE PUSH1 0x40 DUP4 ADD MSTORE PUSH1 0x60 DUP3 ADD MSTORE RETURN JUMPDEST CALLVALUE PUSH2 0x1BD JUMPI PUSH1 0x20 CALLDATASIZE PUSH1 0x3 NOT ADD SLT PUSH2 0x1BD JUMPI PUSH1 0x4 CALLDATALOAD PUSH1 0x1 PUSH1 0x1 PUSH1 0x40 SHL SUB DUP2 GT PUSH2 0x1BD JUMPI PUSH2 0x7E2 PUSH2 0x833 SWAP2 CALLDATASIZE SWAP1 PUSH1 0x4 ADD PUSH2 0x151E JUMP JUMPDEST PUSH2 0x7EA PUSH2 0x1773 JUMP JUMPDEST PUSH2 0x81C PUSH1 0x20 PUSH1 0x40 MLOAD PUSH2 0x80B PUSH1 0xFF DUP6 MLOAD SWAP3 DUP5 DUP2 DUP2 DUP10 ADD SWAP6 PUSH2 0x1A5 DUP2 DUP4 DUP10 PUSH2 0x15D8 JUMP JUMPDEST PUSH1 0x40 MLOAD DUP1 SWAP4 DUP2 SWAP3 DUP7 MLOAD SWAP3 DUP4 SWAP2 PUSH2 0x15D8 JUMP JUMPDEST DUP2 ADD PUSH1 0x7 DUP2 MSTORE SUB ADD SWAP1 KECCAK256 PUSH1 0xFF NOT DUP2 SLOAD AND SWAP1 SSTORE PUSH2 0x1864 JUMP JUMPDEST PUSH32 0xF9B6094402B8DD6AACDE1D951753F76A4087F721159A0C723C7CBFCC839367C4 PUSH1 0x0 DUP1 LOG2 STOP JUMPDEST CALLVALUE PUSH2 0x1BD JUMPI PUSH1 0x20 DUP1 PUSH1 0x3 NOT CALLDATASIZE ADD SLT PUSH2 0x1BD JUMPI PUSH1 0x4 CALLDATALOAD PUSH1 0x1 PUSH1 0x1 PUSH1 0x40 SHL SUB DUP2 GT PUSH2 0x1BD JUMPI PUSH2 0x88B SWAP1 CALLDATASIZE SWAP1 PUSH1 0x4 ADD PUSH2 0x151E JUMP JUMPDEST PUSH2 0x893 PUSH2 0x1773 JUMP JUMPDEST PUSH1 0x40 MLOAD SWAP2 DUP2 MLOAD SWAP1 PUSH2 0x8C4 PUSH1 0xFF DUP3 DUP6 ADD SWAP4 PUSH2 0x8AE DUP2 DUP9 DUP8 PUSH2 0x15D8 JUMP JUMPDEST DUP7 ADD SWAP6 DUP4 DUP2 PUSH1 0x5 SWAP9 DUP10 DUP2 MSTORE SUB ADD SWAP1 KECCAK256 SLOAD AND PUSH2 0x1884 JUMP JUMPDEST PUSH1 0x40 MLOAD DUP2 DUP2 DUP6 MLOAD PUSH2 0x8D6 DUP2 DUP4 DUP9 PUSH2 0x15D8 JUMP JUMPDEST DUP2 ADD DUP8 DUP2 MSTORE SUB ADD SWAP1 KECCAK256 SWAP4 PUSH1 0xFF NOT SWAP5 DUP6 DUP2 SLOAD AND SWAP1 SSTORE PUSH1 0x40 MLOAD DUP3 DUP2 DUP7 MLOAD PUSH2 0x8FC DUP2 DUP4 DUP10 PUSH2 0x15D8 JUMP JUMPDEST DUP2 ADD PUSH1 0x4 DUP2 MSTORE SUB ADD SWAP1 KECCAK256 SWAP1 PUSH1 0x0 DUP3 SSTORE PUSH1 0x1 SWAP2 PUSH1 0x0 DUP4 DUP3 ADD SSTORE PUSH2 0x997 DUP5 PUSH1 0x2 SWAP7 PUSH1 0x0 DUP9 DUP6 ADD SSTORE PUSH1 0x0 DUP6 PUSH1 0x3 SWAP6 PUSH2 0x932 DUP8 DUP3 ADD PUSH2 0x180C JUMP JUMPDEST PUSH2 0x93E PUSH1 0x4 DUP3 ADD PUSH2 0x180C JUMP JUMPDEST ADD SSTORE PUSH1 0x40 MLOAD SWAP10 PUSH1 0x0 DUP12 PUSH2 0x954 DUP13 MLOAD DUP1 SWAP3 DUP7 PUSH2 0x15D8 JUMP JUMPDEST DUP13 ADD SWAP12 DUP5 DUP2 PUSH1 0x6 SWAP15 DUP16 DUP2 MSTORE SUB ADD SWAP1 KECCAK256 SSTORE PUSH1 0x40 MLOAD DUP4 DUP2 DUP13 MLOAD PUSH2 0x976 DUP2 DUP4 DUP9 PUSH2 0x15D8 JUMP JUMPDEST DUP2 ADD PUSH1 0x7 DUP2 MSTORE SUB ADD SWAP1 KECCAK256 SWAP1 DUP2 SLOAD AND SWAP1 SSTORE PUSH1 0x40 MLOAD DUP1 SWAP4 DUP2 SWAP3 DUP12 MLOAD SWAP3 DUP4 SWAP2 PUSH2 0x15D8 JUMP JUMPDEST DUP2 ADD DUP5 DUP2 MSTORE SUB ADD SWAP1 KECCAK256 SWAP5 DUP6 SLOAD SWAP6 PUSH1 0x0 DUP2 SSTORE DUP7 PUSH2 0x9DE JUMPI JUMPDEST PUSH2 0x9B7 DUP9 PUSH2 0x1864 JUMP JUMPDEST PUSH32 0x7704A686B2FB3541AEA5FFDEB387F0119ACCDFAFD1824299E97EB81DEE7BE835 PUSH1 0x0 DUP1 LOG2 STOP JUMPDEST DUP7 DUP10 MUL SWAP7 DUP10 DUP9 DIV SUB PUSH2 0xA75 JUMPI PUSH1 0x0 MSTORE DUP5 PUSH1 0x0 KECCAK256 SWAP6 DUP7 ADD SWAP6 JUMPDEST DUP7 DUP2 LT ISZERO PUSH2 0x9AE JUMPI DUP1 PUSH1 0x0 DUP11 SWAP3 SSTORE PUSH1 0x0 DUP7 DUP3 ADD SSTORE PUSH1 0x0 DUP4 DUP3 ADD SSTORE PUSH1 0x0 DUP5 DUP3 ADD SSTORE PUSH1 0x0 PUSH1 0x4 DUP3 ADD SSTORE DUP5 DUP2 ADD PUSH2 0xA2A DUP2 SLOAD PUSH2 0x1652 JUMP JUMPDEST SWAP1 DUP2 PUSH2 0xA39 JUMPI JUMPDEST POP POP ADD PUSH2 0x9F6 JUMP JUMPDEST PUSH1 0x0 SWAP2 PUSH1 0x1F DUP1 DUP3 GT PUSH1 0x1 EQ PUSH2 0xA53 JUMPI POP POP SSTORE JUMPDEST DUP11 DUP1 PUSH2 0xA31 JUMP JUMPDEST SWAP2 PUSH2 0xA6E DUP5 SWAP3 SWAP4 DUP3 DUP5 MSTORE DUP13 DUP5 KECCAK256 SWAP5 ADD DUP11 SHR DUP5 ADD DUP12 DUP6 ADD PUSH2 0x17F5 JUMP JUMPDEST SSTORE SSTORE PUSH2 0xA4C JUMP JUMPDEST PUSH4 0x4E487B71 PUSH1 0xE0 SHL PUSH1 0x0 MSTORE PUSH1 0x11 PUSH1 0x4 MSTORE PUSH1 0x24 PUSH1 0x0 REVERT JUMPDEST CALLVALUE PUSH2 0x1BD JUMPI PUSH1 0x0 CALLDATASIZE PUSH1 0x3 NOT ADD SLT PUSH2 0x1BD JUMPI PUSH2 0xAA4 PUSH2 0x1773 JUMP JUMPDEST PUSH1 0x0 DUP1 SLOAD PUSH1 0x1 PUSH1 0x1 PUSH1 0xA0 SHL SUB NOT DUP2 AND DUP3 SSTORE PUSH1 0x1 PUSH1 0x1 PUSH1 0xA0 SHL SUB AND PUSH32 0x8BE0079C531659141344CD1FD0A4F28419497F9722A3DAAFE3B4186F6B6457E0 DUP3 DUP1 LOG3 STOP JUMPDEST CALLVALUE PUSH2 0x1BD JUMPI PUSH1 0x0 CALLDATASIZE PUSH1 0x3 NOT ADD SLT PUSH2 0x1BD JUMPI PUSH1 0x20 PUSH1 0xFF PUSH1 0x2 SLOAD AND PUSH1 0x40 MLOAD SWAP1 ISZERO ISZERO DUP2 MSTORE RETURN JUMPDEST CALLVALUE PUSH2 0x1BD JUMPI PUSH1 0x20 DUP1 PUSH1 0x3 NOT CALLDATASIZE ADD SLT PUSH2 0x1BD JUMPI PUSH1 0x4 CALLDATALOAD PUSH1 0x1 PUSH1 0x1 PUSH1 0x40 SHL SUB DUP2 GT PUSH2 0x1BD JUMPI PUSH2 0xB38 SWAP1 CALLDATASIZE SWAP1 PUSH1 0x4 ADD PUSH2 0x151E JUMP JUMPDEST SWAP1 PUSH1 0xFF PUSH2 0xB6B DUP3 PUSH1 0x40 MLOAD PUSH2 0xB5A DUP5 DUP8 MLOAD SWAP3 DUP5 DUP2 DUP2 DUP12 ADD SWAP6 PUSH2 0x1A5 DUP2 DUP4 DUP10 PUSH2 0x15D8 JUMP JUMPDEST PUSH1 0x40 MLOAD DUP1 SWAP4 DUP2 SWAP3 DUP9 MLOAD SWAP3 DUP4 SWAP2 PUSH2 0x15D8 JUMP JUMPDEST DUP2 ADD PUSH1 0x7 DUP2 MSTORE SUB ADD SWAP1 KECCAK256 SLOAD AND PUSH2 0xB92 JUMPI PUSH2 0xB86 PUSH1 0x40 SWAP3 PUSH2 0x21C4 JUMP JUMPDEST SWAP1 SWAP2 DUP4 MLOAD SWAP3 DUP4 MSTORE DUP3 ADD MSTORE RETURN JUMPDEST PUSH1 0x64 SWAP1 PUSH1 0x40 MLOAD SWAP1 PUSH3 0x461BCD PUSH1 0xE5 SHL DUP3 MSTORE PUSH1 0x4 DUP3 ADD MSTORE PUSH1 0x19 PUSH1 0x24 DUP3 ADD MSTORE PUSH32 0x4369726375697420627265616B65722074726967676572656400000000000000 PUSH1 0x44 DUP3 ADD MSTORE REVERT JUMPDEST CALLVALUE PUSH2 0x1BD JUMPI PUSH1 0x0 CALLDATASIZE PUSH1 0x3 NOT ADD SLT PUSH2 0x1BD JUMPI PUSH2 0xBEF PUSH2 0x1773 JUMP JUMPDEST PUSH1 0x2 SLOAD PUSH1 0xFF DUP2 AND ISZERO PUSH2 0xC2E JUMPI PUSH1 0xFF NOT AND PUSH1 0x2 SSTORE PUSH32 0x5DB9EE0A495BF2E6FF9C91A7834C1BA4FDD244A5E8AA4E537BD38AEAE4B073AA PUSH1 0x20 PUSH1 0x40 MLOAD CALLER DUP2 MSTORE LOG1 STOP JUMPDEST PUSH1 0x40 MLOAD PUSH3 0x461BCD PUSH1 0xE5 SHL DUP2 MSTORE PUSH1 0x20 PUSH1 0x4 DUP3 ADD MSTORE PUSH1 0x14 PUSH1 0x24 DUP3 ADD MSTORE PUSH20 0x14185D5CD8589B194E881B9BDD081C185D5CD959 PUSH1 0x62 SHL PUSH1 0x44 DUP3 ADD MSTORE PUSH1 0x64 SWAP1 REVERT JUMPDEST CALLVALUE PUSH2 0x1BD JUMPI PUSH1 0x20 CALLDATASIZE PUSH1 0x3 NOT ADD SLT PUSH2 0x1BD JUMPI PUSH1 0x4 CALLDATALOAD PUSH1 0x1 PUSH1 0x1 PUSH1 0x40 SHL SUB DUP2 GT PUSH2 0x1BD JUMPI PUSH2 0xCBD PUSH2 0xC9F PUSH1 0x40 SWAP3 CALLDATASIZE SWAP1 PUSH1 0x4 ADD PUSH2 0x151E JUMP JUMPDEST PUSH2 0xCB8 PUSH1 0xFF DUP5 MLOAD PUSH1 0x20 DUP2 DUP6 MLOAD PUSH2 0x1A5 DUP2 DUP4 DUP6 DUP11 ADD PUSH2 0x15D8 JUMP JUMPDEST PUSH2 0x2946 JUMP JUMPDEST DUP3 MLOAD SWAP2 DUP3 MSTORE PUSH1 0x20 DUP3 ADD MSTORE RETURN JUMPDEST CALLVALUE PUSH2 0x1BD JUMPI PUSH1 0x0 CALLDATASIZE PUSH1 0x3 NOT ADD SLT PUSH2 0x1BD JUMPI PUSH1 0x80 PUSH1 0xFF PUSH1 0x2 SLOAD AND PUSH1 0x40 MLOAD SWAP1 PUSH1 0x0 DUP3 MSTORE PUSH1 0x0 PUSH1 0x20 DUP4 ADD MSTORE PUSH1 0x0 PUSH1 0x40 DUP4 ADD MSTORE ISZERO ISZERO PUSH1 0x60 DUP3 ADD MSTORE RETURN JUMPDEST CALLVALUE PUSH2 0x1BD JUMPI PUSH2 0xD0F CALLDATASIZE PUSH2 0x158A JUMP JUMPDEST SWAP1 PUSH2 0xD18 PUSH2 0x1773 JUMP JUMPDEST PUSH1 0x40 MLOAD SWAP2 DUP2 MLOAD SWAP3 PUSH1 0xFF PUSH1 0x20 SWAP2 DUP3 DUP2 DUP2 DUP8 ADD SWAP8 PUSH2 0xD35 DUP2 DUP4 DUP12 PUSH2 0x15D8 JUMP JUMPDEST DUP2 ADD PUSH1 0x5 DUP2 MSTORE SUB ADD SWAP1 KECCAK256 SLOAD AND PUSH2 0xF2A JUMPI PUSH2 0x12C DUP3 LT ISZERO DUP1 PUSH2 0xF1D JUMPI JUMPDEST ISZERO PUSH2 0xEE3 JUMPI PUSH1 0x40 MLOAD DUP2 DUP2 DUP6 MLOAD PUSH2 0xD68 DUP2 DUP4 DUP11 PUSH2 0x15D8 JUMP JUMPDEST DUP2 ADD PUSH1 0x5 DUP2 MSTORE SUB ADD SWAP1 KECCAK256 SWAP1 PUSH1 0x1 SWAP2 DUP3 PUSH1 0xFF NOT DUP3 SLOAD AND OR SWAP1 SSTORE PUSH1 0x40 MLOAD SWAP1 PUSH2 0xD8D DUP3 PUSH2 0x14E2 JUMP JUMPDEST PUSH1 0x0 DUP3 MSTORE PUSH1 0x40 MLOAD SWAP1 PUSH2 0xD9E DUP3 PUSH2 0x14E2 JUMP JUMPDEST PUSH1 0x0 DUP3 MSTORE PUSH1 0x40 MLOAD SWAP5 PUSH2 0xDAF DUP7 PUSH2 0x14C7 JUMP JUMPDEST PUSH1 0x0 DUP7 MSTORE DUP2 DUP7 ADD TIMESTAMP DUP2 MSTORE PUSH1 0x40 DUP8 ADD SWAP2 DUP3 MSTORE PUSH1 0x60 DUP8 ADD SWAP5 DUP6 MSTORE PUSH1 0x80 DUP8 ADD SWAP4 DUP5 MSTORE PUSH2 0xDEC DUP4 PUSH1 0xA0 DUP10 ADD SWAP11 PUSH1 0x0 DUP13 MSTORE PUSH1 0x40 MLOAD DUP1 SWAP4 DUP2 SWAP3 DUP14 MLOAD SWAP3 DUP4 SWAP2 PUSH2 0x15D8 JUMP JUMPDEST DUP2 ADD PUSH1 0x4 DUP2 MSTORE SUB ADD SWAP1 KECCAK256 SWAP7 MLOAD DUP8 SSTORE MLOAD DUP6 DUP8 ADD SSTORE MLOAD PUSH1 0x2 DUP7 ADD SSTORE PUSH1 0x3 DUP6 ADD SWAP3 MLOAD SWAP3 DUP4 MLOAD SWAP1 PUSH1 0x1 PUSH1 0x1 PUSH1 0x40 SHL SUB SWAP5 DUP6 DUP4 GT PUSH2 0xEBB JUMPI DUP4 SWAP1 PUSH2 0xE2B DUP5 DUP5 PUSH2 0x1830 JUMP JUMPDEST ADD SWAP1 PUSH1 0x0 MSTORE DUP3 PUSH1 0x0 KECCAK256 DUP7 PUSH1 0x0 JUMPDEST DUP5 DUP2 LT PUSH2 0xED1 JUMPI POP POP POP POP POP PUSH1 0x4 DUP6 ADD SWAP2 MLOAD DUP1 MLOAD SWAP4 DUP5 GT PUSH2 0xEBB JUMPI DUP2 SWAP1 PUSH2 0xE5F DUP6 DUP6 PUSH2 0x1830 JUMP JUMPDEST ADD SWAP2 PUSH1 0x0 MSTORE DUP1 PUSH1 0x0 KECCAK256 SWAP1 PUSH1 0x0 JUMPDEST DUP5 DUP2 LT PUSH2 0xEAA JUMPI DUP9 MLOAD PUSH1 0x5 DUP9 ADD SSTORE PUSH2 0xE83 DUP9 PUSH2 0x1864 JUMP JUMPDEST PUSH32 0x724DF0596D75F7CCA867E95FDADD6C1397E175DC9A54F0A3F46167EC8577ECAE PUSH1 0x0 DUP1 LOG2 STOP JUMPDEST DUP4 MLOAD DUP4 DUP3 ADD SSTORE SWAP3 DUP2 ADD SWAP3 DUP6 ADD PUSH2 0xE6C JUMP JUMPDEST PUSH4 0x4E487B71 PUSH1 0xE0 SHL PUSH1 0x0 MSTORE PUSH1 0x41 PUSH1 0x4 MSTORE PUSH1 0x24 PUSH1 0x0 REVERT JUMPDEST DUP6 DUP5 MLOAD SWAP5 ADD SWAP4 DUP2 DUP5 ADD SSTORE ADD DUP8 SWAP1 PUSH2 0xE38 JUMP JUMPDEST PUSH1 0x64 SWAP1 PUSH1 0x40 MLOAD SWAP1 PUSH3 0x461BCD PUSH1 0xE5 SHL DUP3 MSTORE PUSH1 0x4 DUP3 ADD MSTORE PUSH1 0x13 PUSH1 0x24 DUP3 ADD MSTORE PUSH19 0x496E76616C696420545741502077696E646F77 PUSH1 0x68 SHL PUSH1 0x44 DUP3 ADD MSTORE REVERT JUMPDEST POP PUSH3 0x15180 DUP3 GT ISZERO PUSH2 0xD51 JUMP JUMPDEST PUSH1 0x64 SWAP1 PUSH1 0x40 MLOAD SWAP1 PUSH3 0x461BCD PUSH1 0xE5 SHL DUP3 MSTORE PUSH1 0x4 DUP3 ADD MSTORE PUSH1 0x17 PUSH1 0x24 DUP3 ADD MSTORE PUSH32 0x417373657420616C726561647920737570706F72746564000000000000000000 PUSH1 0x44 DUP3 ADD MSTORE REVERT JUMPDEST CALLVALUE PUSH2 0x1BD JUMPI PUSH1 0x20 CALLDATASIZE PUSH1 0x3 NOT ADD SLT PUSH2 0x1BD JUMPI PUSH1 0x4 CALLDATALOAD PUSH1 0x1 PUSH1 0x1 PUSH1 0x40 SHL SUB DUP2 GT PUSH2 0x1BD JUMPI PUSH2 0xF9E SWAP1 CALLDATASIZE SWAP1 PUSH1 0x4 ADD PUSH2 0x151E JUMP JUMPDEST PUSH1 0x2 PUSH1 0x1 SLOAD EQ PUSH2 0xFDE JUMPI PUSH2 0xFD8 SWAP1 PUSH1 0x2 PUSH1 0x1 SSTORE PUSH2 0xFB9 PUSH2 0x209E JUMP JUMPDEST PUSH2 0xFD3 PUSH1 0xFF PUSH1 0x40 MLOAD PUSH1 0x20 DUP2 DUP6 MLOAD PUSH2 0x1A5 DUP2 DUP4 DUP6 DUP11 ADD PUSH2 0x15D8 JUMP JUMPDEST PUSH2 0x1F77 JUMP JUMPDEST PUSH1 0x1 DUP1 SSTORE STOP JUMPDEST PUSH1 0x40 MLOAD PUSH3 0x461BCD PUSH1 0xE5 SHL DUP2 MSTORE PUSH1 0x20 PUSH1 0x4 DUP3 ADD MSTORE PUSH1 0x1F PUSH1 0x24 DUP3 ADD MSTORE PUSH32 0x5265656E7472616E637947756172643A207265656E7472616E742063616C6C00 PUSH1 0x44 DUP3 ADD MSTORE PUSH1 0x64 SWAP1 REVERT JUMPDEST CALLVALUE PUSH2 0x1BD JUMPI PUSH1 0x0 CALLDATASIZE PUSH1 0x3 NOT ADD SLT PUSH2 0x1BD JUMPI PUSH1 0x20 PUSH1 0x40 MLOAD PUSH2 0x3E8 DUP2 MSTORE RETURN JUMPDEST CALLVALUE PUSH2 0x1BD JUMPI PUSH1 0xC0 CALLDATASIZE PUSH1 0x3 NOT ADD SLT PUSH2 0x1BD JUMPI PUSH1 0x4 CALLDATALOAD PUSH1 0x1 PUSH1 0x1 PUSH1 0x40 SHL SUB DUP2 GT PUSH2 0x1BD JUMPI PUSH2 0x1070 SWAP1 CALLDATASIZE SWAP1 PUSH1 0x4 ADD PUSH2 0x151E JUMP JUMPDEST PUSH2 0x1078 PUSH2 0x1574 JUMP JUMPDEST PUSH1 0xA4 CALLDATALOAD PUSH1 0x1 PUSH1 0x1 PUSH1 0x40 SHL SUB DUP2 GT PUSH2 0x1BD JUMPI PUSH2 0x1097 SWAP1 CALLDATASIZE SWAP1 PUSH1 0x4 ADD PUSH2 0x151E JUMP JUMPDEST SWAP1 PUSH2 0x10A0 PUSH2 0x1773 JUMP JUMPDEST PUSH2 0x10BA PUSH1 0xFF PUSH1 0x40 MLOAD PUSH1 0x20 DUP2 DUP8 MLOAD PUSH2 0x1A5 DUP2 DUP4 DUP6 DUP13 ADD PUSH2 0x15D8 JUMP JUMPDEST PUSH1 0x1 PUSH1 0x1 PUSH1 0xA0 SHL SUB DUP2 AND ISZERO PUSH2 0x1489 JUMPI PUSH1 0xA PUSH1 0x40 MLOAD PUSH1 0x20 DUP2 DUP7 MLOAD PUSH2 0x10E0 DUP2 DUP4 DUP6 DUP12 ADD PUSH2 0x15D8 JUMP JUMPDEST DUP2 ADD PUSH1 0x3 DUP2 MSTORE SUB ADD SWAP1 KECCAK256 SLOAD LT ISZERO PUSH2 0x144E JUMPI PUSH1 0x84 CALLDATALOAD ISZERO ISZERO DUP1 PUSH2 0x1441 JUMPI JUMPDEST PUSH2 0x1105 SWAP1 PUSH2 0x18C6 JUMP JUMPDEST PUSH2 0x7D0 PUSH1 0x44 CALLDATALOAD GT PUSH2 0x1403 JUMPI PUSH1 0x64 SWAP3 PUSH1 0x3C DUP5 CALLDATALOAD LT ISZERO DUP1 PUSH2 0x13F5 JUMPI JUMPDEST ISZERO PUSH2 0x13BD JUMPI PUSH1 0x0 JUMPDEST PUSH1 0x40 MLOAD PUSH1 0x20 DUP2 DUP5 MLOAD PUSH2 0x113C DUP2 DUP4 DUP6 DUP10 ADD PUSH2 0x15D8 JUMP JUMPDEST DUP2 ADD PUSH1 0x3 DUP2 MSTORE SUB ADD SWAP1 KECCAK256 SLOAD DUP2 LT ISZERO PUSH2 0x11C5 JUMPI PUSH2 0x1167 DUP2 PUSH1 0x40 MLOAD PUSH1 0x20 DUP2 DUP7 MLOAD PUSH2 0x480 DUP2 DUP4 DUP6 DUP12 ADD PUSH2 0x15D8 JUMP JUMPDEST POP SLOAD PUSH1 0x1 PUSH1 0x1 PUSH1 0xA0 SHL SUB DUP5 DUP2 AND SWAP2 AND EQ PUSH2 0x1189 JUMPI PUSH2 0x1184 SWAP1 PUSH2 0x1903 JUMP JUMPDEST PUSH2 0x1127 JUMP JUMPDEST PUSH1 0x40 MLOAD PUSH3 0x461BCD PUSH1 0xE5 SHL DUP2 MSTORE PUSH1 0x20 PUSH1 0x4 DUP3 ADD MSTORE PUSH1 0x15 PUSH1 0x24 DUP3 ADD MSTORE PUSH21 0x4F7261636C6520616C726561647920657869737473 PUSH1 0x58 SHL PUSH1 0x44 DUP3 ADD MSTORE DUP6 SWAP1 REVERT JUMPDEST POP SWAP1 SWAP2 PUSH1 0x40 MLOAD PUSH1 0x20 DUP2 DUP5 MLOAD PUSH2 0x11DD DUP2 DUP4 DUP6 DUP10 ADD PUSH2 0x15D8 JUMP JUMPDEST DUP2 ADD PUSH1 0x3 DUP2 MSTORE SUB ADD SWAP1 KECCAK256 PUSH1 0x40 MLOAD SWAP5 PUSH2 0x11F4 DUP7 PUSH2 0x14C7 JUMP JUMPDEST PUSH1 0x1 DUP1 PUSH1 0xA0 SHL SUB DUP6 AND DUP7 MSTORE PUSH1 0x20 DUP7 ADD SWAP2 PUSH1 0x44 CALLDATALOAD DUP4 MSTORE PUSH1 0x40 DUP8 ADD SWAP2 CALLDATALOAD DUP3 MSTORE PUSH1 0x60 DUP8 ADD SWAP7 PUSH1 0x1 SWAP8 DUP9 DUP2 MSTORE PUSH1 0x80 DUP3 ADD SWAP3 PUSH1 0x84 CALLDATALOAD DUP5 MSTORE PUSH1 0xA0 DUP4 ADD SWAP7 DUP8 MSTORE DUP1 SLOAD PUSH1 0x1 PUSH1 0x40 SHL DUP2 LT ISZERO PUSH2 0xEBB JUMPI PUSH2 0x1249 SWAP2 DUP12 DUP3 ADD DUP2 SSTORE PUSH2 0x1620 JUMP JUMPDEST SWAP5 SWAP1 SWAP5 PUSH2 0x13A7 JUMPI PUSH1 0x5 SWAP6 PUSH2 0x1295 SWAP4 PUSH1 0x1 DUP1 PUSH1 0xA0 SHL SUB SWAP1 MLOAD AND PUSH1 0x1 PUSH1 0x1 PUSH1 0x60 SHL SUB PUSH1 0xA0 SHL DUP8 SLOAD AND OR DUP7 SSTORE MLOAD DUP11 DUP7 ADD SSTORE MLOAD PUSH1 0x2 DUP6 ADD SSTORE MLOAD ISZERO ISZERO PUSH1 0x3 DUP5 ADD SWAP1 PUSH1 0xFF DUP1 NOT DUP4 SLOAD AND SWAP2 ISZERO ISZERO AND OR SWAP1 SSTORE JUMP JUMPDEST MLOAD PUSH1 0x4 DUP3 ADD SSTORE ADD SWAP1 MLOAD SWAP4 DUP5 MLOAD SWAP5 PUSH1 0x1 PUSH1 0x1 PUSH1 0x40 SHL SUB DUP7 GT PUSH2 0xEBB JUMPI PUSH2 0x12C4 DUP7 PUSH2 0x12BE DUP6 SLOAD PUSH2 0x1652 JUMP JUMPDEST DUP6 PUSH2 0x1912 JUMP JUMPDEST PUSH1 0x20 SWAP1 PUSH1 0x1F DUP8 GT PUSH1 0x1 EQ PUSH2 0x1341 JUMPI SWAP6 DUP1 SWAP3 DUP2 SWAP3 PUSH2 0x12FA SWAP8 SWAP9 PUSH1 0x0 SWAP5 PUSH2 0x1336 JUMPI JUMPDEST POP POP SHL SWAP2 PUSH1 0x0 NOT SWAP1 PUSH1 0x3 SHL SHR NOT AND OR SWAP1 SSTORE PUSH2 0x1864 JUMP JUMPDEST PUSH1 0x40 MLOAD PUSH1 0x84 CALLDATALOAD DUP2 MSTORE PUSH1 0x1 PUSH1 0x1 PUSH1 0xA0 SHL SUB SWAP1 SWAP3 AND SWAP2 PUSH32 0x117D912ACCDA34E414B7F63575E19232386ECF2A297541D5EBB1DD0384319660 SWAP1 PUSH1 0x20 SWAP1 LOG3 STOP JUMPDEST ADD MLOAD SWAP3 POP DUP9 DUP1 PUSH2 0x12E4 JUMP JUMPDEST SWAP6 SWAP1 PUSH1 0x1F NOT DUP3 AND SWAP1 DUP5 PUSH1 0x0 MSTORE PUSH1 0x20 PUSH1 0x0 KECCAK256 SWAP2 PUSH1 0x0 JUMPDEST DUP2 DUP2 LT PUSH2 0x1391 JUMPI POP SWAP8 DUP4 PUSH2 0x12FA SWAP9 SWAP10 LT PUSH2 0x1378 JUMPI JUMPDEST POP POP POP DUP2 SHL ADD SWAP1 SSTORE PUSH2 0x1864 JUMP JUMPDEST ADD MLOAD PUSH1 0x0 NOT PUSH1 0xF8 DUP5 PUSH1 0x3 SHL AND SHR NOT AND SWAP1 SSTORE DUP7 DUP1 DUP1 PUSH2 0x136B JUMP JUMPDEST DUP10 DUP4 ADD MLOAD DUP5 SSTORE SWAP3 DUP6 ADD SWAP3 PUSH1 0x20 SWAP3 DUP4 ADD SWAP3 ADD PUSH2 0x1356 JUMP JUMPDEST PUSH4 0x4E487B71 PUSH1 0xE0 SHL PUSH1 0x0 MSTORE PUSH1 0x0 PUSH1 0x4 MSTORE PUSH1 0x24 PUSH1 0x0 REVERT JUMPDEST PUSH1 0x40 MLOAD PUSH3 0x461BCD PUSH1 0xE5 SHL DUP2 MSTORE PUSH1 0x20 PUSH1 0x4 DUP3 ADD MSTORE PUSH1 0x11 PUSH1 0x24 DUP3 ADD MSTORE PUSH17 0x125B9D985B1A59081A19585C9D1899585D PUSH1 0x7A SHL PUSH1 0x44 DUP3 ADD MSTORE DUP5 SWAP1 REVERT JUMPDEST POP PUSH3 0x15180 DUP5 CALLDATALOAD GT ISZERO PUSH2 0x111F JUMP JUMPDEST PUSH1 0x40 MLOAD PUSH3 0x461BCD PUSH1 0xE5 SHL DUP2 MSTORE PUSH1 0x20 PUSH1 0x4 DUP3 ADD MSTORE PUSH1 0x16 PUSH1 0x24 DUP3 ADD MSTORE PUSH22 0x9AC2F040C8CAECD2C2E8D2DEDC40E8DEDE40D0D2CED PUSH1 0x53 SHL PUSH1 0x44 DUP3 ADD MSTORE PUSH1 0x64 SWAP1 REVERT JUMPDEST POP PUSH1 0x64 PUSH1 0x84 CALLDATALOAD GT ISZERO PUSH2 0x10FC JUMP JUMPDEST PUSH1 0x40 MLOAD PUSH3 0x461BCD PUSH1 0xE5 SHL DUP2 MSTORE PUSH1 0x20 PUSH1 0x4 DUP3 ADD MSTORE PUSH1 0x13 PUSH1 0x24 DUP3 ADD MSTORE PUSH19 0x13585E081BDC9858DB195CC81C995858DA1959 PUSH1 0x6A SHL PUSH1 0x44 DUP3 ADD MSTORE PUSH1 0x64 SWAP1 REVERT JUMPDEST PUSH1 0x40 MLOAD PUSH3 0x461BCD PUSH1 0xE5 SHL DUP2 MSTORE PUSH1 0x20 PUSH1 0x4 DUP3 ADD MSTORE PUSH1 0x16 PUSH1 0x24 DUP3 ADD MSTORE PUSH22 0x496E76616C6964206F7261636C652061646472657373 PUSH1 0x50 SHL PUSH1 0x44 DUP3 ADD MSTORE PUSH1 0x64 SWAP1 REVERT JUMPDEST PUSH1 0xC0 DUP2 ADD SWAP1 DUP2 LT PUSH1 0x1 PUSH1 0x1 PUSH1 0x40 SHL SUB DUP3 GT OR PUSH2 0xEBB JUMPI PUSH1 0x40 MSTORE JUMP JUMPDEST PUSH1 0x20 DUP2 ADD SWAP1 DUP2 LT PUSH1 0x1 PUSH1 0x1 PUSH1 0x40 SHL SUB DUP3 GT OR PUSH2 0xEBB JUMPI PUSH1 0x40 MSTORE JUMP JUMPDEST SWAP1 PUSH1 0x1F DUP1 NOT SWAP2 ADD AND DUP2 ADD SWAP1 DUP2 LT PUSH1 0x1 PUSH1 0x1 PUSH1 0x40 SHL SUB DUP3 GT OR PUSH2 0xEBB JUMPI PUSH1 0x40 MSTORE JUMP JUMPDEST DUP2 PUSH1 0x1F DUP3 ADD SLT ISZERO PUSH2 0x1BD JUMPI DUP1 CALLDATALOAD SWAP1 PUSH1 0x1 PUSH1 0x1 PUSH1 0x40 SHL SUB DUP3 GT PUSH2 0xEBB JUMPI PUSH1 0x40 MLOAD SWAP3 PUSH2 0x1552 PUSH1 0x1F DUP5 ADD PUSH1 0x1F NOT AND PUSH1 0x20 ADD DUP6 PUSH2 0x14FD JUMP JUMPDEST DUP3 DUP5 MSTORE PUSH1 0x20 DUP4 DUP4 ADD ADD GT PUSH2 0x1BD JUMPI DUP2 PUSH1 0x0 SWAP3 PUSH1 0x20 DUP1 SWAP4 ADD DUP4 DUP7 ADD CALLDATACOPY DUP4 ADD ADD MSTORE SWAP1 JUMP JUMPDEST PUSH1 0x24 CALLDATALOAD SWAP1 PUSH1 0x1 PUSH1 0x1 PUSH1 0xA0 SHL SUB DUP3 AND DUP3 SUB PUSH2 0x1BD JUMPI JUMP JUMPDEST PUSH1 0x40 PUSH1 0x3 NOT DUP3 ADD SLT PUSH2 0x1BD JUMPI PUSH1 0x4 CALLDATALOAD SWAP1 PUSH1 0x1 PUSH1 0x1 PUSH1 0x40 SHL SUB DUP3 GT PUSH2 0x1BD JUMPI PUSH2 0x15B4 SWAP2 PUSH1 0x4 ADD PUSH2 0x151E JUMP JUMPDEST SWAP1 PUSH1 0x24 CALLDATALOAD SWAP1 JUMP JUMPDEST CALLVALUE PUSH2 0x1BD JUMPI PUSH1 0x0 CALLDATASIZE PUSH1 0x3 NOT ADD SLT PUSH2 0x1BD JUMPI PUSH1 0x20 PUSH1 0x40 MLOAD PUSH2 0xE10 DUP2 MSTORE RETURN JUMPDEST PUSH1 0x0 JUMPDEST DUP4 DUP2 LT PUSH2 0x15EB JUMPI POP POP PUSH1 0x0 SWAP2 ADD MSTORE JUMP JUMPDEST DUP2 DUP2 ADD MLOAD DUP4 DUP3 ADD MSTORE PUSH1 0x20 ADD PUSH2 0x15DB JUMP JUMPDEST SWAP1 PUSH1 0x20 SWAP2 PUSH2 0x1614 DUP2 MLOAD DUP1 SWAP3 DUP2 DUP6 MSTORE DUP6 DUP1 DUP7 ADD SWAP2 ADD PUSH2 0x15D8 JUMP JUMPDEST PUSH1 0x1F ADD PUSH1 0x1F NOT AND ADD ADD SWAP1 JUMP JUMPDEST DUP1 SLOAD DUP3 LT ISZERO PUSH2 0x163C JUMPI PUSH1 0x0 MSTORE PUSH1 0x6 PUSH1 0x20 PUSH1 0x0 KECCAK256 SWAP2 MUL ADD SWAP1 PUSH1 0x0 SWAP1 JUMP JUMPDEST PUSH4 0x4E487B71 PUSH1 0xE0 SHL PUSH1 0x0 MSTORE PUSH1 0x32 PUSH1 0x4 MSTORE PUSH1 0x24 PUSH1 0x0 REVERT JUMPDEST SWAP1 PUSH1 0x1 DUP3 DUP2 SHR SWAP3 AND DUP1 ISZERO PUSH2 0x1682 JUMPI JUMPDEST PUSH1 0x20 DUP4 LT EQ PUSH2 0x166C JUMPI JUMP JUMPDEST PUSH4 0x4E487B71 PUSH1 0xE0 SHL PUSH1 0x0 MSTORE PUSH1 0x22 PUSH1 0x4 MSTORE PUSH1 0x24 PUSH1 0x0 REVERT JUMPDEST SWAP2 PUSH1 0x7F AND SWAP2 PUSH2 0x1661 JUMP JUMPDEST SWAP1 PUSH1 0x40 MLOAD SWAP2 DUP3 PUSH1 0x0 DUP3 SLOAD SWAP3 PUSH2 0x16A0 DUP5 PUSH2 0x1652 JUMP JUMPDEST SWAP1 DUP2 DUP5 MSTORE PUSH1 0x1 SWAP5 DUP6 DUP2 AND SWAP1 DUP2 PUSH1 0x0 EQ PUSH2 0x170F JUMPI POP PUSH1 0x1 EQ PUSH2 0x16CC JUMPI JUMPDEST POP POP PUSH2 0x16CA SWAP3 POP SUB DUP4 PUSH2 0x14FD JUMP JUMPDEST JUMP JUMPDEST SWAP1 SWAP4 SWAP2 POP PUSH1 0x0 MSTORE PUSH1 0x20 SWAP1 DUP2 PUSH1 0x0 KECCAK256 SWAP4 PUSH1 0x0 SWAP2 JUMPDEST DUP2 DUP4 LT PUSH2 0x16F7 JUMPI POP POP PUSH2 0x16CA SWAP4 POP DUP3 ADD ADD CODESIZE DUP1 PUSH2 0x16BC JUMP JUMPDEST DUP6 SLOAD DUP9 DUP5 ADD DUP6 ADD MSTORE SWAP5 DUP6 ADD SWAP5 DUP8 SWAP5 POP SWAP2 DUP4 ADD SWAP2 PUSH2 0x16DF JUMP JUMPDEST SWAP2 POP POP PUSH2 0x16CA SWAP5 POP PUSH1 0x20 SWAP3 POP PUSH1 0xFF NOT AND DUP3 DUP5 ADD MSTORE ISZERO ISZERO PUSH1 0x5 SHL DUP3 ADD ADD CODESIZE DUP1 PUSH2 0x16BC JUMP JUMPDEST PUSH1 0x40 PUSH1 0x3 NOT DUP3 ADD SLT PUSH2 0x1BD JUMPI PUSH1 0x4 CALLDATALOAD SWAP1 PUSH1 0x1 PUSH1 0x1 PUSH1 0x40 SHL SUB DUP3 GT PUSH2 0x1BD JUMPI PUSH2 0x175C SWAP2 PUSH1 0x4 ADD PUSH2 0x151E JUMP JUMPDEST SWAP1 PUSH1 0x24 CALLDATALOAD PUSH1 0x1 PUSH1 0x1 PUSH1 0xA0 SHL SUB DUP2 AND DUP2 SUB PUSH2 0x1BD JUMPI SWAP1 JUMP JUMPDEST PUSH1 0x0 SLOAD PUSH1 0x1 PUSH1 0x1 PUSH1 0xA0 SHL SUB AND CALLER SUB PUSH2 0x1787 JUMPI JUMP JUMPDEST PUSH1 0x64 PUSH1 0x40 MLOAD PUSH3 0x461BCD PUSH1 0xE5 SHL DUP2 MSTORE PUSH1 0x20 PUSH1 0x4 DUP3 ADD MSTORE PUSH1 0x20 PUSH1 0x24 DUP3 ADD MSTORE PUSH32 0x4F776E61626C653A2063616C6C6572206973206E6F7420746865206F776E6572 PUSH1 0x44 DUP3 ADD MSTORE REVERT JUMPDEST PUSH1 0x1 PUSH1 0x1 PUSH1 0x40 SHL SUB DUP2 GT PUSH2 0xEBB JUMPI PUSH1 0x5 SHL PUSH1 0x20 ADD SWAP1 JUMP JUMPDEST DUP2 DUP2 MUL SWAP3 SWAP2 DUP2 ISZERO SWAP2 DUP5 DIV EQ OR ISZERO PUSH2 0xA75 JUMPI JUMP JUMPDEST DUP2 DUP2 LT PUSH2 0x1800 JUMPI POP POP JUMP JUMPDEST PUSH1 0x0 DUP2 SSTORE PUSH1 0x1 ADD PUSH2 0x17F5 JUMP JUMPDEST DUP1 SLOAD PUSH1 0x0 DUP3 SSTORE DUP1 PUSH2 0x181B JUMPI POP POP JUMP JUMPDEST PUSH2 0x16CA SWAP2 PUSH1 0x0 MSTORE PUSH1 0x20 PUSH1 0x0 KECCAK256 SWAP1 DUP2 ADD SWAP1 PUSH2 0x17F5 JUMP JUMPDEST SWAP1 PUSH1 0x1 PUSH1 0x40 SHL DUP2 GT PUSH2 0xEBB JUMPI DUP2 SLOAD SWAP1 DUP1 DUP4 SSTORE DUP2 DUP2 LT PUSH2 0x184E JUMPI POP POP POP JUMP JUMPDEST PUSH2 0x16CA SWAP3 PUSH1 0x0 MSTORE PUSH1 0x20 PUSH1 0x0 KECCAK256 SWAP2 DUP3 ADD SWAP2 ADD PUSH2 0x17F5 JUMP JUMPDEST PUSH2 0x187C SWAP1 PUSH1 0x20 PUSH1 0x40 MLOAD SWAP3 DUP3 DUP5 DUP1 SWAP5 MLOAD SWAP4 DUP5 SWAP3 ADD PUSH2 0x15D8 JUMP JUMPDEST DUP2 ADD SUB SWAP1 KECCAK256 SWAP1 JUMP JUMPDEST ISZERO PUSH2 0x188B JUMPI JUMP JUMPDEST PUSH1 0x40 MLOAD PUSH3 0x461BCD PUSH1 0xE5 SHL DUP2 MSTORE PUSH1 0x20 PUSH1 0x4 DUP3 ADD MSTORE PUSH1 0x13 PUSH1 0x24 DUP3 ADD MSTORE PUSH19 0x105CDCD95D081B9BDD081CDD5C1C1BDC9D1959 PUSH1 0x6A SHL PUSH1 0x44 DUP3 ADD MSTORE PUSH1 0x64 SWAP1 REVERT JUMPDEST ISZERO PUSH2 0x18CD JUMPI JUMP JUMPDEST PUSH1 0x40 MLOAD PUSH3 0x461BCD PUSH1 0xE5 SHL DUP2 MSTORE PUSH1 0x20 PUSH1 0x4 DUP3 ADD MSTORE PUSH1 0xE PUSH1 0x24 DUP3 ADD MSTORE PUSH14 0x125B9D985B1A59081DD95A59DA1D PUSH1 0x92 SHL PUSH1 0x44 DUP3 ADD MSTORE PUSH1 0x64 SWAP1 REVERT JUMPDEST PUSH1 0x0 NOT DUP2 EQ PUSH2 0xA75 JUMPI PUSH1 0x1 ADD SWAP1 JUMP JUMPDEST SWAP2 SWAP1 PUSH1 0x1F DUP2 GT PUSH2 0x1921 JUMPI POP POP POP JUMP JUMPDEST PUSH2 0x16CA SWAP3 PUSH1 0x0 MSTORE PUSH1 0x20 PUSH1 0x0 KECCAK256 SWAP1 PUSH1 0x20 PUSH1 0x1F DUP5 ADD PUSH1 0x5 SHR DUP4 ADD SWAP4 LT PUSH2 0x194D JUMPI JUMPDEST PUSH1 0x1F ADD PUSH1 0x5 SHR ADD SWAP1 PUSH2 0x17F5 JUMP JUMPDEST SWAP1 SWAP2 POP DUP2 SWAP1 PUSH2 0x1940 JUMP JUMPDEST SWAP2 SWAP1 DUP3 SUB SWAP2 DUP3 GT PUSH2 0xA75 JUMPI JUMP JUMPDEST SWAP1 DUP1 DUP3 EQ PUSH2 0x1A3E JUMPI PUSH2 0x1976 DUP2 SLOAD PUSH2 0x1652 JUMP JUMPDEST SWAP1 PUSH1 0x1 PUSH1 0x1 PUSH1 0x40 SHL SUB DUP3 GT PUSH2 0xEBB JUMPI DUP2 SWAP1 PUSH2 0x199B DUP3 PUSH2 0x1995 DUP7 SLOAD PUSH2 0x1652 JUMP JUMPDEST DUP7 PUSH2 0x1912 JUMP JUMPDEST PUSH1 0x0 SWAP1 PUSH1 0x1F DUP4 GT PUSH1 0x1 EQ PUSH2 0x19D2 JUMPI PUSH1 0x0 SWAP3 PUSH2 0x19C7 JUMPI JUMPDEST POP POP DUP2 PUSH1 0x1 SHL SWAP2 PUSH1 0x0 NOT SWAP1 PUSH1 0x3 SHL SHR NOT AND OR SWAP1 SSTORE JUMP JUMPDEST ADD SLOAD SWAP1 POP CODESIZE DUP1 PUSH2 0x19B1 JUMP JUMPDEST DUP2 MSTORE PUSH1 0x20 DUP1 DUP3 KECCAK256 DUP6 DUP4 MSTORE DUP2 DUP4 KECCAK256 SWAP4 POP SWAP1 PUSH1 0x1F NOT DUP6 AND SWAP1 DUP4 SWAP1 JUMPDEST DUP3 DUP3 LT PUSH2 0x1A25 JUMPI POP POP SWAP1 DUP5 PUSH1 0x1 SWAP6 SWAP5 SWAP4 SWAP3 LT PUSH2 0x1A0C JUMPI JUMPDEST POP POP POP DUP2 SHL ADD SWAP1 SSTORE JUMP JUMPDEST ADD SLOAD PUSH1 0x0 NOT PUSH1 0xF8 DUP5 PUSH1 0x3 SHL AND SHR NOT AND SWAP1 SSTORE CODESIZE DUP1 DUP1 PUSH2 0x1A02 JUMP JUMPDEST DUP5 SWAP6 DUP2 SWAP3 SWAP6 DUP6 ADD SLOAD DUP2 SSTORE PUSH1 0x1 DUP1 SWAP2 ADD SWAP7 ADD SWAP5 ADD SWAP1 PUSH2 0x19EB JUMP JUMPDEST POP POP JUMP JUMPDEST SWAP1 PUSH1 0x40 SWAP2 DUP3 MLOAD SWAP1 DUP1 MLOAD SWAP4 PUSH1 0x20 SWAP1 DUP2 DUP4 ADD SWAP6 PUSH2 0x1A5E DUP2 DUP7 DUP10 PUSH2 0x15D8 JUMP JUMPDEST DUP5 ADD DUP5 DUP4 PUSH1 0x3 SWAP7 DUP4 DUP9 DUP1 SWAP6 MSTORE SUB ADD SWAP1 KECCAK256 SLOAD GT ISZERO PUSH2 0x1D11 JUMPI PUSH1 0x0 JUMPDEST DUP2 MLOAD DUP4 DUP2 DUP7 MLOAD PUSH2 0x1A89 DUP2 DUP4 DUP14 PUSH2 0x15D8 JUMP JUMPDEST DUP2 ADD DUP9 DUP2 MSTORE SUB ADD SWAP1 KECCAK256 SLOAD DUP2 LT ISZERO PUSH2 0x1CDA JUMPI PUSH2 0x1ABF DUP2 DUP4 MLOAD DUP6 DUP2 DUP1 PUSH2 0x1AB1 DUP14 DUP12 MLOAD SWAP3 DUP4 SWAP2 PUSH2 0x15D8 JUMP JUMPDEST DUP2 ADD DUP11 DUP2 MSTORE SUB ADD SWAP1 KECCAK256 PUSH2 0x1620 JUMP JUMPDEST POP SLOAD PUSH1 0x1 PUSH1 0x1 PUSH1 0xA0 SHL SUB DUP8 DUP2 AND SWAP2 DUP2 AND DUP3 EQ PUSH2 0x1AE5 JUMPI POP POP PUSH2 0x1AE0 SWAP1 PUSH2 0x1903 JUMP JUMPDEST PUSH2 0x1A78 JUMP JUMPDEST SWAP3 DUP1 SWAP5 SWAP6 SWAP7 SWAP8 POP SWAP8 SWAP1 SWAP8 MLOAD DUP6 DUP2 DUP9 MLOAD PUSH2 0x1AFF DUP2 DUP4 DUP8 PUSH2 0x15D8 JUMP JUMPDEST DUP2 ADD DUP11 DUP2 MSTORE SUB ADD SWAP1 KECCAK256 SWAP4 DUP1 MLOAD DUP7 DUP2 DUP10 MLOAD PUSH2 0x1B1A DUP2 DUP4 DUP9 PUSH2 0x15D8 JUMP JUMPDEST DUP2 ADD DUP12 DUP2 MSTORE SUB ADD SWAP1 KECCAK256 SLOAD PUSH1 0x0 NOT SWAP6 DUP7 DUP3 ADD SWAP2 DUP3 GT PUSH2 0xA75 JUMPI PUSH2 0x1B60 SWAP2 PUSH2 0x1B3F SWAP2 PUSH2 0x1620 JUMP JUMPDEST POP SWAP4 DUP3 MLOAD DUP9 DUP2 DUP12 MLOAD PUSH2 0x1B52 DUP2 DUP4 DUP11 PUSH2 0x15D8 JUMP JUMPDEST DUP2 ADD DUP14 DUP2 MSTORE SUB ADD SWAP1 KECCAK256 PUSH2 0x1620 JUMP JUMPDEST SWAP5 SWAP1 SWAP5 PUSH2 0x13A7 JUMPI DUP5 DUP5 DUP9 SWAP6 PUSH2 0x1B87 SWAP8 SUB PUSH2 0x1C72 JUMPI JUMPDEST POP POP POP MLOAD DUP1 SWAP4 DUP2 SWAP3 DUP9 MLOAD SWAP3 DUP4 SWAP2 PUSH2 0x15D8 JUMP JUMPDEST DUP2 ADD DUP8 DUP2 MSTORE SUB ADD SWAP1 KECCAK256 SWAP1 DUP2 SLOAD DUP1 ISZERO PUSH2 0x1C5C JUMPI ADD SWAP2 PUSH2 0x1BA5 DUP4 DUP4 PUSH2 0x1620 JUMP JUMPDEST SWAP6 SWAP1 SWAP6 PUSH2 0x13A7 JUMPI DUP6 PUSH1 0x0 PUSH2 0x1BF0 SWAP8 SSTORE PUSH1 0x0 PUSH1 0x1 SWAP3 DUP2 DUP5 DUP5 ADD SSTORE DUP2 PUSH1 0x2 DUP5 ADD SSTORE DUP3 ADD SSTORE PUSH1 0x0 PUSH1 0x4 DUP3 ADD SSTORE PUSH1 0x5 DUP1 SWAP2 ADD SWAP2 PUSH2 0x1BDE DUP4 SLOAD PUSH2 0x1652 JUMP JUMPDEST SWAP2 DUP3 PUSH2 0x1C17 JUMPI JUMPDEST POP POP POP POP POP SSTORE PUSH2 0x1864 JUMP JUMPDEST PUSH32 0xB2E6642CE17B2A48851EA5DAF94F434D26F2D9BB7854A410487CB4588C118375 PUSH1 0x0 DUP1 LOG3 JUMP JUMPDEST PUSH1 0x0 SWAP5 PUSH1 0x1F SWAP1 DUP2 DUP6 GT PUSH1 0x1 EQ PUSH2 0x1C38 JUMPI POP POP POP POP POP SSTORE JUMPDEST CODESIZE DUP1 DUP1 DUP1 DUP1 PUSH2 0x1BE5 JUMP JUMPDEST SWAP2 DUP6 SWAP4 SWAP2 PUSH2 0x1C55 SWAP4 DUP9 SWAP7 SWAP8 DUP8 MSTORE DUP7 KECCAK256 SWAP7 ADD SWAP1 SHR DUP6 ADD SWAP1 DUP6 ADD PUSH2 0x17F5 JUMP JUMPDEST SSTORE SSTORE PUSH2 0x1C2E JUMP JUMPDEST PUSH4 0x4E487B71 PUSH1 0xE0 SHL PUSH1 0x0 MSTORE PUSH1 0x31 PUSH1 0x4 MSTORE PUSH1 0x24 PUSH1 0x0 REVERT JUMPDEST PUSH2 0x1CD2 SWAP3 DUP2 SLOAD AND PUSH1 0x1 PUSH1 0x1 PUSH1 0x60 SHL SUB PUSH1 0xA0 SHL DUP4 SLOAD AND OR DUP3 SSTORE PUSH1 0x1 DUP1 DUP3 ADD SLOAD SWAP1 DUP4 ADD SSTORE PUSH1 0x2 DUP1 DUP3 ADD SLOAD SWAP1 DUP4 ADD SSTORE PUSH2 0x1CBC PUSH1 0xFF DUP13 DUP4 ADD SLOAD AND DUP13 DUP5 ADD SWAP1 PUSH1 0xFF DUP1 NOT DUP4 SLOAD AND SWAP2 ISZERO ISZERO AND OR SWAP1 SSTORE JUMP JUMPDEST PUSH1 0x4 DUP1 DUP3 ADD SLOAD SWAP1 DUP4 ADD SSTORE PUSH1 0x5 DUP1 SWAP2 ADD SWAP2 ADD PUSH2 0x1964 JUMP JUMPDEST CODESIZE DUP1 DUP1 PUSH2 0x1B75 JUMP JUMPDEST POP MLOAD PUSH3 0x461BCD PUSH1 0xE5 SHL DUP2 MSTORE PUSH1 0x20 PUSH1 0x4 DUP3 ADD MSTORE PUSH1 0x10 PUSH1 0x24 DUP3 ADD MSTORE PUSH16 0x13DC9858DB19481B9BDD08199BDD5B99 PUSH1 0x82 SHL PUSH1 0x44 DUP3 ADD MSTORE PUSH1 0x64 SWAP1 REVERT JUMPDEST PUSH1 0x84 SWAP3 POP MLOAD SWAP1 PUSH3 0x461BCD PUSH1 0xE5 SHL DUP3 MSTORE PUSH1 0x4 DUP3 ADD MSTORE PUSH1 0x23 PUSH1 0x24 DUP3 ADD MSTORE PUSH32 0x43616E6E6F742072656D6F76652C206D696E206F7261636C6573207265717569 PUSH1 0x44 DUP3 ADD MSTORE PUSH3 0x1C9959 PUSH1 0xEA SHL PUSH1 0x64 DUP3 ADD MSTORE REVERT JUMPDEST SWAP2 DUP1 ISZERO ISZERO DUP1 PUSH2 0x1E90 JUMPI JUMPDEST PUSH2 0x1D73 SWAP1 PUSH2 0x18C6 JUMP JUMPDEST PUSH1 0x0 JUMPDEST PUSH1 0x40 DUP1 MLOAD SWAP1 DUP6 MLOAD PUSH1 0x20 SWAP1 DUP2 DUP9 ADD SWAP1 PUSH2 0x1D8F DUP2 DUP7 DUP5 PUSH2 0x15D8 JUMP JUMPDEST DUP5 ADD SWAP4 DUP3 DUP2 PUSH1 0x3 SWAP7 DUP8 DUP2 MSTORE SUB ADD SWAP1 KECCAK256 SLOAD DUP6 LT ISZERO PUSH2 0x1E58 JUMPI PUSH2 0x1DC9 DUP6 DUP5 MLOAD DUP5 DUP2 DUP13 MLOAD PUSH2 0x1DBB DUP2 DUP4 DUP10 PUSH2 0x15D8 JUMP JUMPDEST DUP2 ADD DUP10 DUP2 MSTORE SUB ADD SWAP1 KECCAK256 PUSH2 0x1620 JUMP JUMPDEST POP SLOAD PUSH1 0x1 PUSH1 0x1 PUSH1 0xA0 SHL SUB DUP9 DUP2 AND SWAP6 SWAP2 AND DUP6 EQ PUSH2 0x1DF2 JUMPI POP POP POP POP POP PUSH2 0x1DED SWAP1 PUSH2 0x1903 JUMP JUMPDEST PUSH2 0x1D76 JUMP JUMPDEST DUP4 SWAP8 POP PUSH2 0x1E48 DUP4 SWAP7 PUSH2 0x1E3A DUP10 SWAP8 SWAP12 SWAP6 PUSH32 0x79B60BE0B168551A45F10FB051C2769B31C72F185291F0533BF80CD7693245F2 SWAP11 SWAP6 PUSH1 0x4 SWAP6 PUSH2 0x1E50 SWAP10 MLOAD DUP1 SWAP5 DUP2 SWAP4 DUP12 MLOAD SWAP3 DUP4 SWAP2 PUSH2 0x15D8 JUMP JUMPDEST DUP3 ADD SWAP1 DUP2 MSTORE SUB ADD SWAP1 KECCAK256 PUSH2 0x1620 JUMP JUMPDEST POP ADD SSTORE PUSH2 0x1864 JUMP JUMPDEST SWAP4 MLOAD SWAP1 DUP2 MSTORE LOG3 JUMP JUMPDEST PUSH1 0x40 MLOAD PUSH3 0x461BCD PUSH1 0xE5 SHL DUP2 MSTORE PUSH1 0x20 PUSH1 0x4 DUP3 ADD MSTORE PUSH1 0x10 PUSH1 0x24 DUP3 ADD MSTORE PUSH16 0x13DC9858DB19481B9BDD08199BDD5B99 PUSH1 0x82 SHL PUSH1 0x44 DUP3 ADD MSTORE PUSH1 0x64 SWAP1 REVERT JUMPDEST POP PUSH1 0x64 DUP2 GT ISZERO PUSH2 0x1D6A JUMP JUMPDEST SWAP1 PUSH1 0x0 JUMPDEST PUSH1 0x40 DUP1 MLOAD DUP5 MLOAD PUSH1 0x20 SWAP1 DUP2 DUP8 ADD SWAP1 PUSH2 0x1EB7 DUP2 DUP6 DUP5 PUSH2 0x15D8 JUMP JUMPDEST DUP4 ADD SWAP3 DUP3 DUP2 PUSH1 0x3 SWAP6 DUP7 DUP2 MSTORE SUB ADD SWAP1 KECCAK256 SLOAD DUP6 LT ISZERO PUSH2 0x1E58 JUMPI PUSH2 0x1EF1 DUP6 DUP6 MLOAD DUP5 DUP2 DUP12 MLOAD PUSH2 0x1EE3 DUP2 DUP4 DUP10 PUSH2 0x15D8 JUMP JUMPDEST DUP2 ADD DUP9 DUP2 MSTORE SUB ADD SWAP1 KECCAK256 PUSH2 0x1620 JUMP JUMPDEST POP SLOAD PUSH1 0x1 PUSH1 0x1 PUSH1 0xA0 SHL SUB DUP8 DUP2 AND SWAP2 AND EQ PUSH2 0x1F17 JUMPI POP POP POP POP PUSH2 0x1F12 SWAP1 PUSH2 0x1903 JUMP JUMPDEST PUSH2 0x1E9F JUMP JUMPDEST DUP4 SWAP6 POP SWAP1 PUSH2 0x1F41 SWAP2 PUSH2 0x16CA SWAP8 PUSH1 0xFF DUP6 PUSH2 0x1F4F DUP10 PUSH2 0x1F64 SWAP10 SWAP11 SWAP9 SWAP11 MLOAD DUP8 DUP2 DUP8 MLOAD PUSH2 0x1F41 DUP2 DUP4 DUP13 PUSH2 0x15D8 JUMP JUMPDEST DUP2 ADD DUP7 DUP2 MSTORE SUB ADD SWAP1 KECCAK256 PUSH2 0x1620 JUMP JUMPDEST POP ADD SLOAD AND ISZERO SWAP8 MLOAD SWAP4 DUP5 SWAP3 DUP4 SWAP3 MLOAD SWAP3 DUP4 SWAP2 PUSH2 0x15D8 JUMP JUMPDEST POP ADD SWAP1 PUSH1 0xFF DUP1 NOT DUP4 SLOAD AND SWAP2 ISZERO ISZERO AND OR SWAP1 SSTORE JUMP JUMPDEST PUSH2 0x1F80 DUP2 PUSH2 0x21C4 JUMP JUMPDEST SWAP2 SWAP1 PUSH1 0x40 SWAP1 DUP2 MLOAD SWAP4 DUP4 MLOAD SWAP5 PUSH1 0x20 SWAP6 DUP2 DUP8 DUP1 SWAP4 DUP2 DUP10 ADD SWAP4 PUSH2 0x1FA1 DUP2 DUP4 DUP8 PUSH2 0x15D8 JUMP JUMPDEST DUP2 ADD PUSH1 0x6 DUP2 MSTORE SUB ADD SWAP1 KECCAK256 SLOAD PUSH2 0x2013 JUMPI JUMPDEST SWAP5 DUP4 PUSH2 0x1FF7 PUSH2 0x2007 SWAP4 PUSH32 0x6E838F2A03741F5F2AFF5480963B672FB0DD8430A4DC75DB9B67CE009733C9FE SWAP9 PUSH2 0x1FE7 DUP8 DUP6 DUP8 PUSH2 0x288D JUMP JUMPDEST DUP9 MLOAD DUP1 SWAP4 DUP2 SWAP3 DUP8 MLOAD SWAP3 DUP4 SWAP2 PUSH2 0x15D8 JUMP JUMPDEST DUP2 ADD PUSH1 0x6 DUP2 MSTORE SUB ADD SWAP1 KECCAK256 SSTORE PUSH2 0x1864 JUMP JUMPDEST SWAP5 DUP4 MLOAD SWAP3 DUP4 MSTORE DUP3 ADD MSTORE LOG2 JUMP JUMPDEST DUP5 MLOAD DUP3 DUP2 DUP9 MLOAD PUSH2 0x2024 DUP2 DUP4 DUP8 PUSH2 0x15D8 JUMP JUMPDEST DUP2 ADD PUSH1 0x6 DUP2 MSTORE SUB ADD SWAP1 KECCAK256 SLOAD PUSH2 0x3E8 PUSH2 0x203C DUP7 DUP4 PUSH2 0x27E7 JUMP JUMPDEST GT PUSH2 0x2047 JUMPI POP PUSH2 0x1FB1 JUMP JUMPDEST SWAP4 SWAP3 POP SWAP5 PUSH2 0x2084 PUSH2 0x2007 SWAP3 PUSH32 0x523AD613567FBC3E5AB031387463D6181666216D2AFF6391C50871593021EF1E SWAP8 DUP8 MLOAD DUP1 SWAP4 DUP2 SWAP3 DUP7 MLOAD SWAP3 DUP4 SWAP2 PUSH2 0x15D8 JUMP JUMPDEST DUP2 ADD PUSH1 0x7 DUP2 MSTORE SUB ADD SWAP1 KECCAK256 PUSH1 0x1 PUSH1 0xFF NOT DUP3 SLOAD AND OR SWAP1 SSTORE PUSH2 0x1864 JUMP JUMPDEST PUSH1 0xFF PUSH1 0x2 SLOAD AND PUSH2 0x20AA JUMPI JUMP JUMPDEST PUSH1 0x40 MLOAD PUSH3 0x461BCD PUSH1 0xE5 SHL DUP2 MSTORE PUSH1 0x20 PUSH1 0x4 DUP3 ADD MSTORE PUSH1 0x10 PUSH1 0x24 DUP3 ADD MSTORE PUSH16 0x14185D5CD8589B194E881C185D5CD959 PUSH1 0x82 SHL PUSH1 0x44 DUP3 ADD MSTORE PUSH1 0x64 SWAP1 REVERT JUMPDEST ISZERO PUSH2 0x20E9 JUMPI JUMP JUMPDEST PUSH1 0x40 MLOAD PUSH3 0x461BCD PUSH1 0xE5 SHL DUP2 MSTORE PUSH1 0x20 PUSH1 0x4 DUP3 ADD MSTORE PUSH1 0x14 PUSH1 0x24 DUP3 ADD MSTORE PUSH20 0x92DCECC2D8D2C840DEE4C2C6D8CA40D2DCC8CAF PUSH1 0x63 SHL PUSH1 0x44 DUP3 ADD MSTORE PUSH1 0x64 SWAP1 REVERT JUMPDEST SWAP1 PUSH1 0x40 MLOAD PUSH2 0x2132 DUP2 PUSH2 0x14C7 JUMP JUMPDEST DUP3 SLOAD PUSH1 0x1 PUSH1 0x1 PUSH1 0xA0 SHL SUB AND DUP2 MSTORE PUSH1 0x1 DUP4 ADD SLOAD PUSH1 0x20 DUP3 ADD MSTORE PUSH1 0x2 DUP4 ADD SLOAD PUSH1 0x40 DUP3 ADD MSTORE PUSH1 0x3 DUP4 ADD SLOAD PUSH1 0xFF AND ISZERO ISZERO PUSH1 0x60 DUP3 ADD MSTORE PUSH1 0x4 DUP4 ADD SLOAD PUSH1 0x80 DUP3 ADD MSTORE SWAP2 DUP3 SWAP1 PUSH1 0xA0 SWAP1 PUSH2 0x217E SWAP1 PUSH1 0x5 ADD PUSH2 0x168C JUMP JUMPDEST SWAP2 ADD MSTORE JUMP JUMPDEST DUP1 MLOAD DUP3 LT ISZERO PUSH2 0x163C JUMPI PUSH1 0x20 SWAP2 PUSH1 0x5 SHL ADD ADD SWAP1 JUMP JUMPDEST SWAP2 SWAP1 DUP3 ADD DUP1 SWAP3 GT PUSH2 0xA75 JUMPI JUMP JUMPDEST DUP2 ISZERO PUSH2 0x21AE JUMPI DIV SWAP1 JUMP JUMPDEST PUSH4 0x4E487B71 PUSH1 0xE0 SHL PUSH1 0x0 MSTORE PUSH1 0x12 PUSH1 0x4 MSTORE PUSH1 0x24 PUSH1 0x0 REVERT JUMPDEST SWAP1 PUSH1 0x0 DUP1 DUP2 PUSH1 0x40 SWAP5 DUP6 MLOAD DUP2 MLOAD SWAP2 PUSH1 0x20 SWAP8 DUP9 DUP3 ADD SWAP4 PUSH2 0x21E3 DUP2 DUP6 DUP8 PUSH2 0x15D8 JUMP JUMPDEST DUP4 ADD SWAP3 DUP10 DUP2 PUSH1 0x3 SWAP6 DUP7 DUP2 MSTORE SUB ADD SWAP1 KECCAK256 SLOAD SWAP5 PUSH2 0x21FD DUP7 PUSH2 0x17CB JUMP JUMPDEST SWAP6 PUSH2 0x220A DUP4 MLOAD SWAP8 DUP9 PUSH2 0x14FD JUMP JUMPDEST DUP1 DUP8 MSTORE PUSH2 0x2219 PUSH1 0x1F NOT SWAP2 PUSH2 0x17CB JUMP JUMPDEST ADD CALLDATASIZE DUP12 DUP9 ADD CALLDATACOPY DUP8 DUP1 JUMPDEST DUP4 MLOAD DUP13 DUP2 DUP8 MLOAD PUSH2 0x2233 DUP2 DUP4 DUP14 PUSH2 0x15D8 JUMP JUMPDEST DUP2 ADD DUP10 DUP2 MSTORE SUB ADD SWAP1 KECCAK256 SLOAD DUP2 LT ISZERO PUSH2 0x22EC JUMPI DUP12 PUSH1 0xFF DUP8 PUSH2 0x2262 DUP5 PUSH2 0x1F41 DUP6 DUP14 DUP13 DUP13 MLOAD SWAP4 DUP5 SWAP3 DUP4 SWAP3 MLOAD SWAP3 DUP4 SWAP2 PUSH2 0x15D8 JUMP JUMPDEST POP ADD SLOAD AND ISZERO PUSH2 0x22E2 JUMPI PUSH2 0x495 PUSH2 0x48F DUP4 PUSH2 0x1B52 PUSH2 0x228B SWAP5 DUP13 DUP12 DUP12 MLOAD SWAP4 DUP5 SWAP3 DUP4 SWAP3 MLOAD SWAP3 DUP4 SWAP2 PUSH2 0x15D8 JUMP JUMPDEST SWAP2 SWAP1 SWAP2 ISZERO DUP1 PUSH2 0x22D9 JUMPI JUMPDEST PUSH2 0x22AA JUMPI JUMPDEST POP POP PUSH2 0x22A5 SWAP1 PUSH2 0x1903 JUMP JUMPDEST PUSH2 0x2222 JUMP JUMPDEST SWAP11 PUSH2 0x22C0 SWAP2 SWAP12 PUSH2 0x22BA DUP3 DUP13 PUSH2 0x2183 JUMP JUMPDEST MSTORE PUSH2 0x1903 JUMP JUMPDEST SWAP10 DUP10 DUP2 GT PUSH2 0x22CF JUMPI JUMPDEST DUP1 PUSH2 0x229A JUMP JUMPDEST SWAP9 POP PUSH2 0x22A5 PUSH2 0x22C9 JUMP JUMPDEST POP DUP1 ISZERO ISZERO PUSH2 0x2295 JUMP JUMPDEST POP PUSH2 0x22A5 SWAP1 PUSH2 0x1903 JUMP JUMPDEST POP SWAP7 SWAP9 SWAP10 SWAP4 SWAP2 SWAP5 SWAP3 SWAP8 SWAP1 SWAP10 DUP3 DUP3 LT PUSH2 0x24D4 JUMPI DUP8 JUMPDEST DUP7 MLOAD DUP7 DUP2 DUP13 MLOAD PUSH2 0x2311 DUP2 DUP4 DUP12 PUSH2 0x15D8 JUMP JUMPDEST DUP2 ADD DUP8 DUP2 MSTORE SUB ADD SWAP1 KECCAK256 SLOAD DUP2 LT ISZERO PUSH2 0x2464 JUMPI PUSH1 0xFF DUP5 PUSH2 0x2340 DUP4 PUSH2 0x1F41 DUP11 DUP16 DUP12 SWAP1 DUP15 MLOAD SWAP4 DUP5 SWAP3 DUP4 SWAP3 MLOAD SWAP3 DUP4 SWAP2 PUSH2 0x15D8 JUMP JUMPDEST POP ADD SLOAD AND ISZERO PUSH2 0x245B JUMPI DUP7 DUP7 DUP7 DUP13 PUSH2 0x236A PUSH2 0x495 PUSH2 0x48F DUP8 DUP12 DUP8 DUP10 MLOAD DUP1 SWAP3 DUP9 MLOAD PUSH2 0x1E3A DUP2 DUP5 DUP14 PUSH2 0x15D8 JUMP JUMPDEST SWAP1 POP SWAP5 SWAP1 SWAP5 ISZERO DUP1 PUSH2 0x2452 JUMPI JUMPDEST PUSH2 0x238E JUMPI JUMPDEST POP POP POP POP POP PUSH2 0x2389 SWAP1 PUSH2 0x1903 JUMP JUMPDEST PUSH2 0x2300 JUMP JUMPDEST PUSH2 0x23AD PUSH2 0x23C6 SWAP5 PUSH1 0x1 SWAP5 PUSH2 0x23BB SWAP5 DUP10 SWAP5 MLOAD SWAP4 DUP5 SWAP3 DUP4 SWAP3 MLOAD SWAP3 DUP4 SWAP2 PUSH2 0x15D8 JUMP JUMPDEST DUP2 ADD DUP13 DUP2 MSTORE SUB ADD SWAP1 KECCAK256 PUSH2 0x1620 JUMP JUMPDEST POP ADD SLOAD DUP6 DUP12 DUP5 PUSH2 0x26B6 JUMP JUMPDEST PUSH2 0x23D4 JUMPI JUMPDEST DUP7 DUP7 DUP13 DUP11 PUSH2 0x237B JUMP JUMPDEST SWAP12 DUP2 DUP12 DUP9 DUP11 SWAP13 SWAP5 SWAP13 MLOAD DUP1 SWAP3 MLOAD PUSH2 0x23EB DUP2 DUP4 DUP14 PUSH2 0x15D8 JUMP JUMPDEST DUP2 ADD DUP10 DUP2 MSTORE SUB ADD SWAP1 KECCAK256 SWAP1 PUSH2 0x23FE SWAP2 PUSH2 0x1620 JUMP JUMPDEST POP SWAP13 PUSH1 0x4 DUP1 SWAP15 ADD SLOAD PUSH2 0x240F SWAP2 PUSH2 0x17E2 JUMP JUMPDEST PUSH2 0x2418 SWAP2 PUSH2 0x2197 JUMP JUMPDEST SWAP12 DUP10 DUP12 DUP9 DUP11 MLOAD DUP1 SWAP3 MLOAD PUSH2 0x242C DUP2 DUP4 DUP14 PUSH2 0x15D8 JUMP JUMPDEST DUP2 ADD DUP10 DUP2 MSTORE SUB ADD SWAP1 KECCAK256 SWAP1 PUSH2 0x243F SWAP2 PUSH2 0x1620 JUMP JUMPDEST POP ADD SLOAD PUSH2 0x244B SWAP2 PUSH2 0x2197 JUMP JUMPDEST SWAP8 CODESIZE PUSH2 0x23CB JUMP JUMPDEST POP DUP5 ISZERO ISZERO PUSH2 0x2376 JUMP JUMPDEST PUSH2 0x2389 SWAP1 PUSH2 0x1903 JUMP JUMPDEST POP SWAP10 SWAP7 SWAP8 POP POP POP POP SWAP2 POP DUP4 ISZERO PUSH2 0x2483 JUMPI POP POP SWAP1 PUSH2 0x2480 SWAP2 PUSH2 0x21A4 JUMP JUMPDEST SWAP2 JUMP JUMPDEST PUSH1 0x84 SWAP3 POP MLOAD SWAP1 PUSH3 0x461BCD PUSH1 0xE5 SHL DUP3 MSTORE PUSH1 0x4 DUP3 ADD MSTORE PUSH1 0x25 PUSH1 0x24 DUP3 ADD MSTORE PUSH32 0x4E6F2076616C69642070726963657320616674657220646576696174696F6E20 PUSH1 0x44 DUP3 ADD MSTORE PUSH5 0x636865636B PUSH1 0xD8 SHL PUSH1 0x64 DUP3 ADD MSTORE REVERT JUMPDEST DUP6 MLOAD PUSH3 0x461BCD PUSH1 0xE5 SHL DUP2 MSTORE PUSH1 0x4 DUP2 ADD DUP7 SWAP1 MSTORE PUSH1 0x1A PUSH1 0x24 DUP3 ADD MSTORE PUSH32 0x496E73756666696369656E742076616C6964206F7261636C6573000000000000 PUSH1 0x44 DUP3 ADD MSTORE PUSH1 0x64 SWAP1 REVERT JUMPDEST MLOAD SWAP1 PUSH10 0xFFFFFFFFFFFFFFFFFFFF DUP3 AND DUP3 SUB PUSH2 0x1BD JUMPI JUMP JUMPDEST DUP1 MLOAD PUSH1 0x40 MLOAD PUSH4 0x3FABE5A3 PUSH1 0xE2 SHL DUP2 MSTORE SWAP1 PUSH1 0xA0 SWAP1 DUP3 SWAP1 PUSH1 0x4 SWAP1 DUP3 SWAP1 PUSH1 0x1 PUSH1 0x1 PUSH1 0xA0 SHL SUB AND GAS STATICCALL PUSH1 0x0 DUP1 SWAP2 DUP1 DUP3 SWAP5 DUP4 SWAP3 PUSH2 0x2659 JUMPI JUMPDEST POP PUSH2 0x2577 JUMPI POP POP POP POP POP PUSH1 0x0 SWAP1 PUSH1 0x0 SWAP1 PUSH1 0x1 SWAP1 JUMP JUMPDEST PUSH1 0x0 DUP4 SWAP7 SWAP5 SWAP6 SWAP7 SGT ISZERO PUSH2 0x2624 JUMPI DUP5 ISZERO PUSH2 0x25EB JUMPI PUSH10 0xFFFFFFFFFFFFFFFFFFFF DUP1 SWAP2 AND SWAP2 AND SUB PUSH2 0x25B3 JUMPI SWAP3 PUSH1 0x40 PUSH2 0x25AC DUP5 TIMESTAMP PUSH2 0x1957 JUMP JUMPDEST SWAP2 ADD MLOAD LT SWAP1 JUMP JUMPDEST PUSH1 0x40 MLOAD PUSH3 0x461BCD PUSH1 0xE5 SHL DUP2 MSTORE PUSH1 0x20 PUSH1 0x4 DUP3 ADD MSTORE PUSH1 0x10 PUSH1 0x24 DUP3 ADD MSTORE PUSH16 0x5374616C6520726F756E642064617461 PUSH1 0x80 SHL PUSH1 0x44 DUP3 ADD MSTORE PUSH1 0x64 SWAP1 REVERT JUMPDEST PUSH1 0x40 MLOAD PUSH3 0x461BCD PUSH1 0xE5 SHL DUP2 MSTORE PUSH1 0x20 PUSH1 0x4 DUP3 ADD MSTORE PUSH1 0x11 PUSH1 0x24 DUP3 ADD MSTORE PUSH17 0x496E76616C69642074696D657374616D7 PUSH1 0x7C SHL PUSH1 0x44 DUP3 ADD MSTORE PUSH1 0x64 SWAP1 REVERT JUMPDEST PUSH1 0x40 MLOAD PUSH3 0x461BCD PUSH1 0xE5 SHL DUP2 MSTORE PUSH1 0x20 PUSH1 0x4 DUP3 ADD MSTORE PUSH1 0xD PUSH1 0x24 DUP3 ADD MSTORE PUSH13 0x496E76616C6964207072696365 PUSH1 0x98 SHL PUSH1 0x44 DUP3 ADD MSTORE PUSH1 0x64 SWAP1 REVERT JUMPDEST SWAP4 POP SWAP4 POP POP PUSH1 0xA0 DUP3 RETURNDATASIZE DUP3 GT PUSH2 0x26AE JUMPI JUMPDEST DUP2 PUSH2 0x2676 PUSH1 0xA0 SWAP4 DUP4 PUSH2 0x14FD JUMP JUMPDEST DUP2 ADD SUB SLT PUSH2 0x26AB JUMPI POP PUSH2 0x2688 DUP2 PUSH2 0x2518 JUMP JUMPDEST SWAP2 PUSH1 0x20 DUP3 ADD MLOAD SWAP1 PUSH2 0x26A0 PUSH1 0x80 PUSH1 0x60 DUP6 ADD MLOAD SWAP5 ADD PUSH2 0x2518 JUMP JUMPDEST SWAP4 SWAP2 SWAP3 SWAP4 SWAP1 CODESIZE PUSH2 0x2562 JUMP JUMPDEST DUP1 REVERT JUMPDEST RETURNDATASIZE SWAP2 POP PUSH2 0x2669 JUMP JUMPDEST SWAP1 PUSH1 0x1 DUP4 GT ISZERO PUSH2 0x26D7 JUMPI PUSH2 0x26D2 SWAP3 PUSH2 0x26CD SWAP2 PUSH2 0x26E0 JUMP JUMPDEST PUSH2 0x27E7 JUMP JUMPDEST GT ISZERO SWAP1 JUMP JUMPDEST POP POP POP POP PUSH1 0x1 SWAP1 JUMP JUMPDEST SWAP2 PUSH1 0x0 SWAP1 JUMPDEST PUSH1 0x0 NOT SWAP1 DUP4 DUP3 ADD DUP5 DUP2 GT PUSH2 0xA75 JUMPI DUP4 LT ISZERO PUSH2 0x2793 JUMPI PUSH1 0x0 JUMPDEST PUSH2 0x2707 DUP5 DUP7 PUSH2 0x1957 JUMP JUMPDEST DUP4 DUP2 ADD SWAP1 DUP2 GT PUSH2 0xA75 JUMPI DUP2 LT ISZERO PUSH2 0x2781 JUMPI PUSH2 0x2722 DUP2 DUP8 PUSH2 0x2183 JUMP JUMPDEST MLOAD SWAP1 PUSH1 0x1 DUP2 ADD DUP1 DUP3 GT PUSH2 0xA75 JUMPI PUSH2 0x274A SWAP3 PUSH2 0x273D DUP3 DUP11 PUSH2 0x2183 JUMP JUMPDEST MLOAD LT PUSH2 0x274F JUMPI JUMPDEST POP PUSH2 0x1903 JUMP JUMPDEST PUSH2 0x26FD JUMP JUMPDEST PUSH2 0x277A PUSH2 0x275C DUP4 DUP11 PUSH2 0x2183 JUMP JUMPDEST MLOAD SWAP2 PUSH2 0x2768 DUP2 DUP12 PUSH2 0x2183 JUMP JUMPDEST MLOAD PUSH2 0x2773 DUP6 DUP13 PUSH2 0x2183 JUMP JUMPDEST MSTORE DUP10 PUSH2 0x2183 JUMP JUMPDEST MSTORE CODESIZE PUSH2 0x2744 JUMP JUMPDEST POP SWAP2 PUSH2 0x278D SWAP2 POP PUSH2 0x1903 JUMP JUMPDEST SWAP1 PUSH2 0x26E5 JUMP JUMPDEST SWAP4 SWAP3 SWAP2 POP POP PUSH1 0x1 DUP2 AND PUSH2 0x27D5 JUMPI PUSH1 0x1 SHR SWAP1 PUSH1 0x0 NOT DUP3 ADD DUP3 DUP2 GT PUSH2 0xA75 JUMPI PUSH2 0x27CF SWAP3 PUSH2 0x27C1 PUSH2 0x27C8 SWAP3 DUP5 PUSH2 0x2183 JUMP JUMPDEST MLOAD SWAP3 PUSH2 0x2183 JUMP JUMPDEST MLOAD SWAP1 PUSH2 0x2197 JUMP JUMPDEST PUSH1 0x1 SHR SWAP1 JUMP JUMPDEST SWAP1 PUSH2 0x27E3 SWAP2 PUSH1 0x1 SHR SWAP1 PUSH2 0x2183 JUMP JUMPDEST MLOAD SWAP1 JUMP JUMPDEST SWAP1 DUP2 ISZERO PUSH2 0x2832 JUMPI DUP2 DUP2 DUP2 GT ISZERO PUSH2 0x2823 JUMPI SWAP1 PUSH2 0x2801 SWAP2 PUSH2 0x1957 JUMP JUMPDEST SWAP1 JUMPDEST PUSH2 0x2710 SWAP2 DUP3 DUP2 MUL SWAP3 DUP2 DUP5 DIV EQ SWAP1 ISZERO OR ISZERO PUSH2 0xA75 JUMPI PUSH2 0x2820 SWAP2 PUSH2 0x21A4 JUMP JUMPDEST SWAP1 JUMP JUMPDEST PUSH2 0x282C SWAP2 PUSH2 0x1957 JUMP JUMPDEST SWAP1 PUSH2 0x2803 JUMP JUMPDEST POP POP PUSH1 0x0 SWAP1 JUMP JUMPDEST DUP1 SLOAD DUP3 LT ISZERO PUSH2 0x163C JUMPI PUSH1 0x0 MSTORE PUSH1 0x20 PUSH1 0x0 KECCAK256 ADD SWAP1 PUSH1 0x0 SWAP1 JUMP JUMPDEST SWAP1 DUP2 SLOAD SWAP2 PUSH1 0x1 PUSH1 0x40 SHL DUP4 LT ISZERO PUSH2 0xEBB JUMPI DUP3 PUSH2 0x2874 SWAP2 PUSH1 0x1 PUSH2 0x16CA SWAP6 ADD DUP2 SSTORE PUSH2 0x2839 JUMP JUMPDEST SWAP1 SWAP2 SWAP1 DUP3 SLOAD SWAP1 PUSH1 0x3 SHL SWAP2 DUP3 SHL SWAP2 PUSH1 0x0 NOT SWAP1 SHL NOT AND OR SWAP1 SSTORE JUMP JUMPDEST PUSH1 0x20 PUSH2 0x28A6 SWAP2 DUP2 PUSH1 0x40 MLOAD SWAP4 DUP3 DUP6 DUP1 SWAP5 MLOAD SWAP4 DUP5 SWAP3 ADD PUSH2 0x15D8 JUMP JUMPDEST DUP2 ADD PUSH1 0x4 DUP2 MSTORE SUB ADD SWAP1 KECCAK256 PUSH1 0x3 DUP2 ADD DUP1 SLOAD ISZERO PUSH2 0x291F JUMPI PUSH1 0x64 DUP2 SLOAD LT PUSH1 0x0 EQ PUSH2 0x28E4 JUMPI PUSH1 0x1 SWAP3 PUSH2 0x28D3 SWAP2 PUSH2 0x2851 JUMP JUMPDEST PUSH2 0x28E0 DUP4 PUSH1 0x4 DUP4 ADD PUSH2 0x2851 JUMP JUMPDEST ADD SSTORE JUMP JUMPDEST PUSH1 0x5 DUP3 ADD SWAP3 DUP4 SLOAD PUSH1 0x1 DUP2 ADD DUP1 SWAP2 GT PUSH2 0xA75 JUMPI PUSH1 0x1 SWAP5 PUSH2 0x2915 DUP8 SWAP4 PUSH2 0x2874 PUSH2 0x28E0 SWAP7 PUSH1 0x64 PUSH2 0x2874 SWAP7 MOD SWAP1 DUP2 DUP7 SSTORE PUSH2 0x2839 JUMP JUMPDEST SLOAD PUSH1 0x4 DUP6 ADD PUSH2 0x2839 JUMP JUMPDEST SWAP2 PUSH2 0x292C DUP2 PUSH1 0x1 SWAP5 PUSH2 0x2851 JUMP JUMPDEST PUSH2 0x2939 DUP5 PUSH1 0x4 DUP5 ADD PUSH2 0x2851 JUMP JUMPDEST PUSH1 0x0 PUSH1 0x5 DUP4 ADD SSTORE DUP2 SSTORE ADD SSTORE JUMP JUMPDEST SWAP1 PUSH1 0x20 PUSH2 0x295C PUSH1 0x40 MLOAD SWAP4 DUP5 DUP2 MLOAD SWAP4 DUP5 SWAP3 ADD PUSH2 0x15D8 JUMP JUMPDEST DUP3 ADD SWAP2 PUSH1 0x20 DUP2 PUSH1 0x4 SWAP5 DUP6 DUP2 MSTORE SUB ADD SWAP1 KECCAK256 PUSH1 0x3 SWAP1 DUP2 DUP2 ADD SWAP2 DUP3 SLOAD DUP1 ISZERO PUSH2 0x2AE1 JUMPI PUSH1 0x2 DUP4 ADD SLOAD PUSH1 0x0 SWAP1 DUP1 TIMESTAMP GT PUSH1 0x0 EQ PUSH2 0x2AD9 JUMPI PUSH2 0x2998 SWAP2 POP TIMESTAMP PUSH2 0x1957 JUMP JUMPDEST SWAP3 SWAP4 JUMPDEST PUSH1 0x0 SWAP5 DUP6 SWAP5 SWAP1 DUP9 ADD DUP6 JUMPDEST DUP5 DUP2 LT PUSH2 0x2A08 JUMPI POP PUSH1 0x0 SWAP2 POP POP DUP6 ISZERO PUSH2 0x29CC JUMPI POP POP POP POP PUSH2 0x29C7 SWAP3 SWAP4 POP PUSH2 0x21A4 JUMP JUMPDEST SWAP1 TIMESTAMP SWAP1 JUMP JUMPDEST SWAP3 SWAP5 POP PUSH1 0x0 NOT DUP3 ADD SWAP4 POP SWAP2 SWAP1 DUP4 GT PUSH2 0x29F5 JUMPI POP PUSH2 0x29EB SWAP3 SWAP4 SWAP5 POP PUSH2 0x2839 JUMP JUMPDEST SWAP1 SLOAD SWAP2 SHL SHR SWAP1 TIMESTAMP SWAP1 JUMP JUMPDEST PUSH4 0x4E487B71 PUSH1 0xE0 SHL DUP2 MSTORE PUSH1 0x11 DUP7 MSTORE PUSH1 0x24 SWAP1 REVERT JUMPDEST DUP3 PUSH2 0x2A13 DUP3 DUP5 PUSH2 0x2839 JUMP JUMPDEST SWAP1 SLOAD SWAP1 DUP9 SHL SHR LT ISZERO PUSH2 0x2A2E JUMPI JUMPDEST PUSH2 0x2A29 SWAP1 PUSH2 0x1903 JUMP JUMPDEST PUSH2 0x29A5 JUMP JUMPDEST SWAP7 SWAP6 PUSH1 0x0 DUP9 PUSH2 0x2A74 JUMPI POP PUSH2 0x2A6C PUSH2 0x2A55 PUSH2 0x2A66 PUSH2 0x2A29 SWAP4 PUSH2 0x2A60 DUP13 PUSH1 0x1 SWAP5 DUP6 SWAP2 JUMPDEST DUP12 PUSH2 0x2839 JUMP JUMPDEST SWAP1 SLOAD SWAP1 DUP14 SHL SHR PUSH2 0x17E2 JUMP JUMPDEST SWAP1 PUSH2 0x2197 JUMP JUMPDEST SWAP9 PUSH2 0x2197 JUMP JUMPDEST SWAP8 SWAP1 POP PUSH2 0x2A20 JUMP JUMPDEST PUSH2 0x2A7E DUP10 DUP5 PUSH2 0x2839 JUMP JUMPDEST SWAP1 SLOAD SWAP1 DUP9 SHL SHR SWAP1 PUSH1 0x0 NOT DUP11 ADD SWAP1 DUP11 DUP3 GT PUSH2 0x2AC6 JUMPI POP PUSH2 0x2A66 PUSH2 0x2A29 SWAP4 PUSH2 0x2A60 DUP13 PUSH2 0x2ABE PUSH2 0x2A6C SWAP7 DUP14 PUSH2 0x2AB3 PUSH2 0x2A55 SWAP9 DUP13 PUSH2 0x2839 JUMP JUMPDEST SWAP1 SLOAD SWAP2 SHL SHR SWAP1 PUSH2 0x1957 JUMP JUMPDEST SWAP5 DUP6 SWAP2 PUSH2 0x2A4F JUMP JUMPDEST PUSH4 0x4E487B71 PUSH1 0xE0 SHL DUP2 MSTORE PUSH1 0x11 DUP14 MSTORE PUSH1 0x24 SWAP1 REVERT JUMPDEST POP SWAP3 SWAP4 PUSH2 0x299B JUMP JUMPDEST POP POP POP POP SWAP1 POP PUSH1 0x0 SWAP1 PUSH1 0x0 SWAP1 JUMP INVALID LOG2 PUSH5 0x6970667358 0x22 SLT KECCAK256 0xB3 BYTE 0xD6 GASLIMIT DUP16 0xE5 SWAP4 CALLVALUE SUB 0x4B 0xC5 PUSH6 0xF019302D9374 DUP15 0xBD AND DUP7 0x2A MULMOD SWAP12 0xAD 0xBB SWAP3 0xA7 0xE1 MOD 0xA9 PUSH5 0x736F6C6343 STOP ADDMOD SGT STOP CALLER "},"methodIdentifiers":{"BASIS_POINTS()":"e1f1c4a7","CIRCUIT_BREAKER_THRESHOLD()":"0ca55cd7","DEFAULT_TWAP_WINDOW()":"5fcb2120","MAX_ORACLE_COUNT()":"bf146fe6","MAX_PRICE_STALENESS()":"d6913b32","MIN_ORACLE_COUNT()":"ab1e710c","addAsset(string,uint256)":"1bc7ffe9","addOracle(string,address,uint256,uint256,uint256,string)":"0503bc0a","circuitBreakerTriggered(string)":"a47f474e","getOracleCount(string)":"d7f47317","getOracleData(string,uint256)":"8745c73c","getOraclePrice(string,uint256)":"d312ded0","getPrice(string)":"524f3889","getSystemHealth()":"31a6be8c","getTWAPPrice(string)":"3212f47f","lastValidPrices(string)":"dffd3734","oracles(string,uint256)":"af72ba2e","owner()":"8da5cb5b","pause()":"8456cb59","paused()":"5c975abb","removeAsset(string)":"759af9ec","removeOracle(string,address)":"fe618c78","renounceOwnership()":"715018a6","resetCircuitBreaker(string)":"775f5d3c","supportedAssets(string)":"bfb9ffac","toggleOracle(string,address)":"ddac2a80","transferOwnership(address)":"f2fde38b","twapData(string)":"7d43edfb","unpause()":"3f4ba83a","updateOracleWeight(string,address,uint256)":"e219af5b","updatePrice(string)":"0dc32926"}}}}}