{
  "_format": "hh-sol-artifact-1",
  "contractName": "PROPXTokenFactory",
  "sourceName": "contracts/PROPXTokenFactory.sol",
  "abi": [
    {
      "inputs": [],
      "stateMutability": "nonpayable",
      "type": "constructor"
    },
    {
      "anonymous": false,
      "inputs": [
        {
          "indexed": true,
          "internalType": "address",
          "name": "developer",
          "type": "address"
        },
        {
          "indexed": false,
          "internalType": "string",
          "name": "brandCode",
          "type": "string"
        },
        {
          "indexed": false,
          "internalType": "enum PROPXTokenFactory.DeveloperTier",
          "name": "tier",
          "type": "uint8"
        }
      ],
      "name": "DeveloperRegistered",
      "type": "event"
    },
    {
      "anonymous": false,
      "inputs": [
        {
          "indexed": true,
          "internalType": "uint256",
          "name": "tokenId",
          "type": "uint256"
        },
        {
          "indexed": true,
          "internalType": "address",
          "name": "developer",
          "type": "address"
        },
        {
          "indexed": false,
          "internalType": "address",
          "name": "tokenContract",
          "type": "address"
        },
        {
          "indexed": false,
          "internalType": "string",
          "name": "projectCode",
          "type": "string"
        }
      ],
      "name": "PROPXTokenCreated",
      "type": "event"
    },
    {
      "anonymous": false,
      "inputs": [
        {
          "indexed": true,
          "internalType": "uint256",
          "name": "tokenId",
          "type": "uint256"
        },
        {
          "indexed": false,
          "internalType": "uint256",
          "name": "totalRaised",
          "type": "uint256"
        }
      ],
      "name": "PROPXTokenFunded",
      "type": "event"
    },
    {
      "anonymous": false,
      "inputs": [
        {
          "indexed": true,
          "internalType": "bytes32",
          "name": "role",
          "type": "bytes32"
        },
        {
          "indexed": true,
          "internalType": "bytes32",
          "name": "previousAdminRole",
          "type": "bytes32"
        },
        {
          "indexed": true,
          "internalType": "bytes32",
          "name": "newAdminRole",
          "type": "bytes32"
        }
      ],
      "name": "RoleAdminChanged",
      "type": "event"
    },
    {
      "anonymous": false,
      "inputs": [
        {
          "indexed": true,
          "internalType": "bytes32",
          "name": "role",
          "type": "bytes32"
        },
        {
          "indexed": true,
          "internalType": "address",
          "name": "account",
          "type": "address"
        },
        {
          "indexed": true,
          "internalType": "address",
          "name": "sender",
          "type": "address"
        }
      ],
      "name": "RoleGranted",
      "type": "event"
    },
    {
      "anonymous": false,
      "inputs": [
        {
          "indexed": true,
          "internalType": "bytes32",
          "name": "role",
          "type": "bytes32"
        },
        {
          "indexed": true,
          "internalType": "address",
          "name": "account",
          "type": "address"
        },
        {
          "indexed": true,
          "internalType": "address",
          "name": "sender",
          "type": "address"
        }
      ],
      "name": "RoleRevoked",
      "type": "event"
    },
    {
      "inputs": [],
      "name": "ADMIN_ROLE",
      "outputs": [
        {
          "internalType": "bytes32",
          "name": "",
          "type": "bytes32"
        }
      ],
      "stateMutability": "view",
      "type": "function"
    },
    {
      "inputs": [],
      "name": "DEFAULT_ADMIN_ROLE",
      "outputs": [
        {
          "internalType": "bytes32",
          "name": "",
          "type": "bytes32"
        }
      ],
      "stateMutability": "view",
      "type": "function"
    },
    {
      "inputs": [],
      "name": "DEVELOPER_ROLE",
      "outputs": [
        {
          "internalType": "bytes32",
          "name": "",
          "type": "bytes32"
        }
      ],
      "stateMutability": "view",
      "type": "function"
    },
    {
      "inputs": [
        {
          "internalType": "uint256",
          "name": "tokenId",
          "type": "uint256"
        }
      ],
      "name": "activatePROPXToken",
      "outputs": [],
      "stateMutability": "nonpayable",
      "type": "function"
    },
    {
      "inputs": [
        {
          "internalType": "uint256",
          "name": "projectsDelivered",
          "type": "uint256"
        },
        {
          "internalType": "uint256",
          "name": "totalValueDelivered",
          "type": "uint256"
        },
        {
          "internalType": "enum PROPXTokenFactory.DeveloperTier",
          "name": "tier",
          "type": "uint8"
        }
      ],
      "name": "calculateReputationScore",
      "outputs": [
        {
          "internalType": "uint256",
          "name": "",
          "type": "uint256"
        }
      ],
      "stateMutability": "pure",
      "type": "function"
    },
    {
      "inputs": [
        {
          "internalType": "string",
          "name": "propertyName",
          "type": "string"
        },
        {
          "internalType": "string",
          "name": "propertyAddress",
          "type": "string"
        },
        {
          "internalType": "string",
          "name": "projectCode",
          "type": "string"
        },
        {
          "internalType": "string",
          "name": "cityCode",
          "type": "string"
        },
        {
          "internalType": "enum PROPXTokenFactory.PropertyCategory",
          "name": "category",
          "type": "uint8"
        },
        {
          "internalType": "uint256",
          "name": "totalTokens",
          "type": "uint256"
        },
        {
          "internalType": "uint256",
          "name": "pricePerToken",
          "type": "uint256"
        },
        {
          "internalType": "uint256",
          "name": "minimumRaise",
          "type": "uint256"
        },
        {
          "internalType": "uint256",
          "name": "fundingPeriodDays",
          "type": "uint256"
        },
        {
          "internalType": "string",
          "name": "ipfsDocumentHash",
          "type": "string"
        }
      ],
      "name": "createPROPXToken",
      "outputs": [
        {
          "internalType": "address",
          "name": "",
          "type": "address"
        }
      ],
      "stateMutability": "nonpayable",
      "type": "function"
    },
    {
      "inputs": [
        {
          "internalType": "address",
          "name": "",
          "type": "address"
        }
      ],
      "name": "developers",
      "outputs": [
        {
          "internalType": "address",
          "name": "developerAddress",
          "type": "address"
        },
        {
          "internalType": "string",
          "name": "companyName",
          "type": "string"
        },
        {
          "internalType": "string",
          "name": "brandCode",
          "type": "string"
        },
        {
          "internalType": "enum PROPXTokenFactory.DeveloperTier",
          "name": "tier",
          "type": "uint8"
        },
        {
          "internalType": "uint256",
          "name": "projectsDelivered",
          "type": "uint256"
        },
        {
          "internalType": "uint256",
          "name": "totalValueDelivered",
          "type": "uint256"
        },
        {
          "internalType": "uint256",
          "name": "reputationScore",
          "type": "uint256"
        },
        {
          "internalType": "bool",
          "name": "isActive",
          "type": "bool"
        },
        {
          "internalType": "uint256",
          "name": "registrationDate",
          "type": "uint256"
        }
      ],
      "stateMutability": "view",
      "type": "function"
    },
    {
      "inputs": [
        {
          "internalType": "string",
          "name": "",
          "type": "string"
        },
        {
          "internalType": "uint256",
          "name": "",
          "type": "uint256"
        }
      ],
      "name": "developersByCity",
      "outputs": [
        {
          "internalType": "address",
          "name": "",
          "type": "address"
        }
      ],
      "stateMutability": "view",
      "type": "function"
    },
    {
      "inputs": [
        {
          "internalType": "string",
          "name": "cityCode",
          "type": "string"
        }
      ],
      "name": "getCityDevelopers",
      "outputs": [
        {
          "internalType": "address[]",
          "name": "",
          "type": "address[]"
        }
      ],
      "stateMutability": "view",
      "type": "function"
    },
    {
      "inputs": [
        {
          "internalType": "address",
          "name": "developer",
          "type": "address"
        }
      ],
      "name": "getDeveloperPortfolio",
      "outputs": [
        {
          "internalType": "string",
          "name": "brandCode",
          "type": "string"
        },
        {
          "internalType": "uint256",
          "name": "activeProjects",
          "type": "uint256"
        },
        {
          "internalType": "uint256",
          "name": "totalRaised",
          "type": "uint256"
        },
        {
          "internalType": "uint256",
          "name": "averageRaise",
          "type": "uint256"
        },
        {
          "internalType": "enum PROPXTokenFactory.DeveloperTier",
          "name": "tier",
          "type": "uint8"
        }
      ],
      "stateMutability": "view",
      "type": "function"
    },
    {
      "inputs": [
        {
          "internalType": "enum PROPXTokenFactory.PropertyCategory",
          "name": "category",
          "type": "uint8"
        }
      ],
      "name": "getPROPXTokensByCategory",
      "outputs": [
        {
          "internalType": "uint256[]",
          "name": "",
          "type": "uint256[]"
        }
      ],
      "stateMutability": "view",
      "type": "function"
    },
    {
      "inputs": [
        {
          "internalType": "bytes32",
          "name": "role",
          "type": "bytes32"
        }
      ],
      "name": "getRoleAdmin",
      "outputs": [
        {
          "internalType": "bytes32",
          "name": "",
          "type": "bytes32"
        }
      ],
      "stateMutability": "view",
      "type": "function"
    },
    {
      "inputs": [],
      "name": "getTokenCount",
      "outputs": [
        {
          "internalType": "uint256",
          "name": "",
          "type": "uint256"
        }
      ],
      "stateMutability": "view",
      "type": "function"
    },
    {
      "inputs": [
        {
          "internalType": "uint256",
          "name": "tokenId",
          "type": "uint256"
        }
      ],
      "name": "getTokenInfo",
      "outputs": [
        {
          "components": [
            {
              "internalType": "address",
              "name": "tokenContract",
              "type": "address"
            },
            {
              "internalType": "address",
              "name": "developer",
              "type": "address"
            },
            {
              "internalType": "string",
              "name": "propertyName",
              "type": "string"
            },
            {
              "internalType": "string",
              "name": "propertyAddress",
              "type": "string"
            },
            {
              "internalType": "string",
              "name": "projectCode",
              "type": "string"
            },
            {
              "internalType": "uint256",
              "name": "totalTokens",
              "type": "uint256"
            },
            {
              "internalType": "uint256",
              "name": "pricePerToken",
              "type": "uint256"
            },
            {
              "internalType": "uint256",
              "name": "minimumRaise",
              "type": "uint256"
            },
            {
              "internalType": "uint256",
              "name": "raisedAmount",
              "type": "uint256"
            },
            {
              "internalType": "uint256",
              "name": "fundingDeadline",
              "type": "uint256"
            },
            {
              "internalType": "enum PROPXTokenFactory.PropertyTokenStatus",
              "name": "status",
              "type": "uint8"
            },
            {
              "internalType": "string",
              "name": "ipfsDocumentHash",
              "type": "string"
            },
            {
              "internalType": "string",
              "name": "cityCode",
              "type": "string"
            },
            {
              "internalType": "enum PROPXTokenFactory.PropertyCategory",
              "name": "category",
              "type": "uint8"
            }
          ],
          "internalType": "struct PROPXTokenFactory.PROPXTokenInfo",
          "name": "",
          "type": "tuple"
        }
      ],
      "stateMutability": "view",
      "type": "function"
    },
    {
      "inputs": [
        {
          "internalType": "bytes32",
          "name": "role",
          "type": "bytes32"
        },
        {
          "internalType": "address",
          "name": "account",
          "type": "address"
        }
      ],
      "name": "grantRole",
      "outputs": [],
      "stateMutability": "nonpayable",
      "type": "function"
    },
    {
      "inputs": [
        {
          "internalType": "bytes32",
          "name": "role",
          "type": "bytes32"
        },
        {
          "internalType": "address",
          "name": "account",
          "type": "address"
        }
      ],
      "name": "hasRole",
      "outputs": [
        {
          "internalType": "bool",
          "name": "",
          "type": "bool"
        }
      ],
      "stateMutability": "view",
      "type": "function"
    },
    {
      "inputs": [],
      "name": "propxTokenCount",
      "outputs": [
        {
          "internalType": "uint256",
          "name": "",
          "type": "uint256"
        }
      ],
      "stateMutability": "view",
      "type": "function"
    },
    {
      "inputs": [
        {
          "internalType": "uint256",
          "name": "",
          "type": "uint256"
        }
      ],
      "name": "propxTokens",
      "outputs": [
        {
          "internalType": "address",
          "name": "tokenContract",
          "type": "address"
        },
        {
          "internalType": "address",
          "name": "developer",
          "type": "address"
        },
        {
          "internalType": "string",
          "name": "propertyName",
          "type": "string"
        },
        {
          "internalType": "string",
          "name": "propertyAddress",
          "type": "string"
        },
        {
          "internalType": "string",
          "name": "projectCode",
          "type": "string"
        },
        {
          "internalType": "uint256",
          "name": "totalTokens",
          "type": "uint256"
        },
        {
          "internalType": "uint256",
          "name": "pricePerToken",
          "type": "uint256"
        },
        {
          "internalType": "uint256",
          "name": "minimumRaise",
          "type": "uint256"
        },
        {
          "internalType": "uint256",
          "name": "raisedAmount",
          "type": "uint256"
        },
        {
          "internalType": "uint256",
          "name": "fundingDeadline",
          "type": "uint256"
        },
        {
          "internalType": "enum PROPXTokenFactory.PropertyTokenStatus",
          "name": "status",
          "type": "uint8"
        },
        {
          "internalType": "string",
          "name": "ipfsDocumentHash",
          "type": "string"
        },
        {
          "internalType": "string",
          "name": "cityCode",
          "type": "string"
        },
        {
          "internalType": "enum PROPXTokenFactory.PropertyCategory",
          "name": "category",
          "type": "uint8"
        }
      ],
      "stateMutability": "view",
      "type": "function"
    },
    {
      "inputs": [
        {
          "internalType": "address",
          "name": "developerAddress",
          "type": "address"
        },
        {
          "internalType": "string",
          "name": "companyName",
          "type": "string"
        },
        {
          "internalType": "string",
          "name": "brandCode",
          "type": "string"
        },
        {
          "internalType": "enum PROPXTokenFactory.DeveloperTier",
          "name": "tier",
          "type": "uint8"
        },
        {
          "internalType": "uint256",
          "name": "projectsDelivered",
          "type": "uint256"
        },
        {
          "internalType": "uint256",
          "name": "totalValueDelivered",
          "type": "uint256"
        },
        {
          "internalType": "string",
          "name": "primaryCity",
          "type": "string"
        },
        {
          "internalType": "bytes32[]",
          "name": "verificationDocuments",
          "type": "bytes32[]"
        }
      ],
      "name": "registerDeveloper",
      "outputs": [],
      "stateMutability": "nonpayable",
      "type": "function"
    },
    {
      "inputs": [
        {
          "internalType": "bytes32",
          "name": "role",
          "type": "bytes32"
        },
        {
          "internalType": "address",
          "name": "account",
          "type": "address"
        }
      ],
      "name": "renounceRole",
      "outputs": [],
      "stateMutability": "nonpayable",
      "type": "function"
    },
    {
      "inputs": [
        {
          "internalType": "bytes32",
          "name": "role",
          "type": "bytes32"
        },
        {
          "internalType": "address",
          "name": "account",
          "type": "address"
        }
      ],
      "name": "revokeRole",
      "outputs": [],
      "stateMutability": "nonpayable",
      "type": "function"
    },
    {
      "inputs": [
        {
          "internalType": "bytes4",
          "name": "interfaceId",
          "type": "bytes4"
        }
      ],
      "name": "supportsInterface",
      "outputs": [
        {
          "internalType": "bool",
          "name": "",
          "type": "bool"
        }
      ],
      "stateMutability": "view",
      "type": "function"
    },
    {
      "inputs": [],
      "name": "tier1PlatformFee",
      "outputs": [
        {
          "internalType": "uint256",
          "name": "",
          "type": "uint256"
        }
      ],
      "stateMutability": "view",
      "type": "function"
    },
    {
      "inputs": [],
      "name": "tier2PlatformFee",
      "outputs": [
        {
          "internalType": "uint256",
          "name": "",
          "type": "uint256"
        }
      ],
      "stateMutability": "view",
      "type": "function"
    },
    {
      "inputs": [
        {
          "internalType": "string",
          "name": "",
          "type": "string"
        }
      ],
      "name": "usedProjectCodes",
      "outputs": [
        {
          "internalType": "bool",
          "name": "",
          "type": "bool"
        }
      ],
      "stateMutability": "view",
      "type": "function"
    }
  ],
  "bytecode": "0x6080604081815234620000f95760018055609660075560fa6008556000808052602091818352808220338352835260ff818320541615620000c1575b7fa49807205ce4d355092ef5a8a18f56e8913cf4a201fbe287825b095693c2177592838352828152818320338452815260ff82842054161562000086575b612a8e8581620000ff8239f35b83835282815281832090338452528120600160ff19825416179055339160008051602062002b8d833981519152339280a43880808062000079565b8180528183528082203383528352808220600160ff1982541617905533338360008051602062002b8d8339815191528180a46200003b565b600080fdfe608080604052600436101561001357600080fd5b600090813560e01c90816301ffc9a71461221b5750806307cda25b146121fd578063096b0acc146120e9578063248a9ca3146120bd57806328113216146119ff5780632c887755146118f35780632f2ff15d1461183c57806336568abe146117a95780634686e2741461158f578063538e3cfc146116d75780635b3356f3146116b957806361fd5c20146115e857806375b238fc146115ad57806378a895671461158f57806382c5f79c146108eb57806387d7f9ee146107085780638c7a63ae146104875780639103a0e01461044c57806391d1485414610401578063a217fddf146103e5578063b73a8a5d1461035a578063d547741f1461031a578063e2318c6f146102e2578063e6ad355c146102805763f809abab1461013457600080fd5b3461027d57602036600319011261027d576004358152600360205260409020805460018201546001600160a01b0390811692911690610175600282016123d2565b90610182600382016123d2565b61018e600483016123d2565b60058301549060068401546007850154600886015490600987015492600a88015460ff1694600b89016101c0906123d2565b976101cd600c8b016123d2565b99600d015460ff169a6040519d8e809e8152602001528c6101c06040819201528d016101f89161249b565b8c810360608e01526102099161249b565b8b810360808d015261021a9161249b565b9560a08b015260c08a015260e089015261010088015261012087015261023f816124e3565b6101408601528481036101608601526102579161249b565b8381036101808501526102699161249b565b90610273816124e3565b6101a08301520390f35b80fd5b503461027d57602036600319011261027d57600435906001600160401b03821161027d57602060ff6102cc826102b9366004880161232b565b8160405193828580945193849201612478565b8101600481520301902054166040519015158152f35b503461027d57606036600319011261027d5760443590600382101561027d576020610312836024356004356129b3565b604051908152f35b503461027d57604036600319011261027d5761035760043561033a61228b565b908084528360205261035260016040862001546126f3565b6127fd565b80f35b503461027d57604036600319011261027d576004356001600160401b0381116103e15761038b90369060040161232b565b906103a86020602435938160405193828580945193849201612478565b8101600581520301902090815483101561027d5760206103c884846124ed565b905460405160039290921b1c6001600160a01b03168152f35b5080fd5b503461027d578060031936011261027d57602090604051908152f35b503461027d57604036600319011261027d57604061041d61228b565b91600435815280602052209060018060a01b0316600052602052602060ff604060002054166040519015158152f35b503461027d578060031936011261027d5760206040517f4504b9dfd7400a1522f49a8b4a100552da9236849581fd59b7363eb48c6a474c8152f35b503461027d57602036600319011261027d57806040916101a083516104ab816122d3565b828152826020820152606085820152606080820152606060808201528260a08201528260c08201528260e082015282610100820152826101208201528261014082015260606101608201526060610180820152015260065461051260043591821115612974565b815260036020522060ff600d6040519261052b846122d3565b80546001600160a01b0390811685526001820154166020850152610551600282016123d2565b6040850152610562600382016123d2565b6060850152610573600482016123d2565b6080850152600581015460a0850152600681015460c0850152600781015460e08501526008810154610100850152600981015461012085015282600a820154166105bc816124e3565b6101408501526105ce600b82016123d2565b6101608501526105e0600c82016123d2565b6101808501520154166105f2816124e3565b6101a082015260405180916020825260018060a01b03815116602083015260018060a01b0360208201511660408301526101a06106f26106dc61067861066261064c60408701516101c060608a01526101e089019061249b565b6060870151888203601f190160808a015261249b565b6080860151878203601f190160a089015261249b565b60a085015160c087015260c085015160e087015260e08501516101008701526101008501516101208701526101208501516101408701526101408501516106be816124e3565b610160870152610160850151601f198783030161018088015261249b565b610180840151858203601f19018487015261249b565b9101516106fe816124e3565b6101c08301520390f35b503461027d576020908160031936011261027d576001600160a01b03918261072e612270565b1680835260028252604083209060405191610748836122a1565b858154168352600161075b8183016123d2565b8585015261076b600283016123d2565b906040850191825260ff9260039889928584840154169761079060608201998a612959565b60048401546080820152600584015460a0820152600684015460c082015286600785015416151560e082015261010060088095015491015289958a97828c600654975b8d89841115610869578a51908e8e8e868115806108615761084b57818304935b519687101561083757509161081b95916108339360405197889760a0895260a089019061249b565b958701526040860152606085015260808401906124c0565b0390f35b634e487b7160e01b81526021600452602490fd5b634e487b7160e01b600052601260045260246000fd5b5080936107f3565b8190848452528d604083208787878b83850154161492836108d1575b5050506108a0575b50505061089990612965565b8c8e6107d3565b60406108c693859e938b93610899979f6108b990612965565b9f83525220015490612871565b9990508c8e8d61088d565b600a0154919250166108e2816124e3565b14878738610885565b503461027d5761014036600319011261027d576004356001600160401b0381116103e15761091d90369060040161232b565b906024356001600160401b0381116103e15761093d90369060040161232b565b6044356001600160401b03811161158b5761095c90369060040161232b565b906064356001600160401b0381116115875761097c90369060040161232b565b60056084351015611587576001600160401b036101243511611587576109a8366101243560040161232b565b3360009081527fcf0e2fee954c1b210b650a2cee16f85c2d817015d3803a8d10b7d7ece2d53212602052604090205460ff16156113bb57338552600260205260ff6007604087200154161561137f578551156113415760ff6040516020818751610a158183858c01612478565b8101600481520301902054166112fc5760a4351515806112f1575b156112ac573385526002602052610af2610ad26027610a54600260408a20016123d2565b6040516550524f50582d60d01b6020820152610ab082519184818c6020870195610a82816026850189612478565b8201602d60f81b6026820152610aa18251809360208785019101612478565b0103600781018352019061230a565b604051938492650282927a82c160d51b60208501525180926026850190612478565b8101600160fd1b60268201528a5190610aa1828d60208785019101612478565b610afd600654612965565b9283600655610104356201518090808281020482148115171561129857610b25910242612871565b9060405197610b33896122d3565b8789523360208a01526040890152606088015284608088015260a43560a088015260c43560c088015260e43560e08801528561010088015261012087015284610140870152610160860152610180850152610b8f6084356124e3565b6084356101a08501528252600360209081526040808420855181546001600160a01b03199081166001600160a01b03928316178355938701516001830180549095169116179092558401518051919491906001600160401b038211610f5c578190610bfd6002880154612398565b601f8111611248575b50602090601f83116001146111d95786926111ce575b50508160011b916000199060031b1c19161760028501555b60608101518051906001600160401b038211610f5c578190610c596003880154612398565b601f811161117e575b50602090601f831160011461110f578692611104575b50508160011b916000199060031b1c19161760038501555b60808101518051906001600160401b038211610f5c578190610cb56004880154612398565b601f81116110b4575b50602090601f831160011461104557869261103a575b50508160011b916000199060031b1c19161760048501555b60a0810151600585015560c0810151600685015560e0810151600785015561010081015160088501556101208101516009850155600a8401610140820151610d33816124e3565b610d3c816124e3565b60ff801983541691161790556101608101518051906001600160401b038211610f5c578190610d6e600b880154612398565b601f8111610fea575b50602090601f8311600114610f7b578692610f70575b50508160011b916000199060031b1c191617600b8501555b6101808101519384516001600160401b038111610f5c57600c820190610dcb8254612398565b96601f8811610f17575b602097508790601f8311600114610eae579180600d94926101a096948a92610ea3575b50508160011b916000199060031b1c19161790555b01910151610e1a816124e3565b610e23816124e3565b60ff8019835416911617905560405183818351610e438183858801612478565b81016004815203019020600160ff198254161790556006547f5d0cc501b05d6cb44caf5ecb08228f7788dc9a72eebe4c42d9fadc1afc4ea14b60405184815260408682015280610e983395604083019061249b565b0390a3604051908152f35b015190503880610df8565b8388528888209190601f198416895b818110610f0057509260019285926101a09896600d989610610ee7575b505050811b019055610e0d565b015160001960f88460031b161c19169055388080610eda565b92938b600181928786015181550195019301610ebd565b82875260208720601f830160051c81019860208410610f52575b601f0160051c01975b888110610f475750610dd5565b878155600101610f3a565b9098508890610f31565b634e487b7160e01b85526041600452602485fd5b015190503880610d8d565b9250600b87018652602086209086935b601f1984168510610fcf576001945083601f19811610610fb6575b505050811b01600b850155610da5565b015160001960f88460031b161c19169055388080610fa6565b81810151835560209485019460019093019290910190610f8b565b909150600b8701865260208620601f840160051c810160208510611033575b90849392915b601f830160051c82018110611025575050610d77565b88815585945060010161100f565b5080611009565b015190503880610cd4565b9250600487018652602086209086935b601f1984168510611099576001945083601f19811610611080575b505050811b016004850155610cec565b015160001960f88460031b161c19169055388080611070565b81810151835560209485019460019093019290910190611055565b90915060048701865260208620601f840160051c8101602085106110fd575b90849392915b601f830160051c820181106110ef575050610cbe565b8881558594506001016110d9565b50806110d3565b015190503880610c78565b9250600387018652602086209086935b601f1984168510611163576001945083601f1981161061114a575b505050811b016003850155610c90565b015160001960f88460031b161c1916905538808061113a565b8181015183556020948501946001909301929091019061111f565b90915060038701865260208620601f840160051c8101602085106111c7575b90849392915b601f830160051c820181106111b9575050610c62565b8881558594506001016111a3565b508061119d565b015190503880610c1c565b9250600287018652602086209086935b601f198416851061122d576001945083601f19811610611214575b505050811b016002850155610c34565b015160001960f88460031b161c19169055388080611204565b818101518355602094850194600190930192909101906111e9565b90915060028701865260208620601f840160051c810160208510611291575b90849392915b601f830160051c82018110611283575050610c06565b88815585945060010161126d565b5080611267565b634e487b7160e01b88526011600452602488fd5b60405162461bcd60e51b815260206004820152601860248201527f496e76616c696420746f6b656e20706172616d657465727300000000000000006044820152606490fd5b5060c4351515610a30565b60405162461bcd60e51b815260206004820152601960248201527f50726f6a65637420636f646520616c72656164792075736564000000000000006044820152606490fd5b60405162461bcd60e51b8152602060048201526016602482015275141c9bdc195c9d1e481b985b59481c995c5d5a5c995960521b6044820152606490fd5b60405162461bcd60e51b8152602060048201526014602482015273446576656c6f706572206e6f742061637469766560601b6044820152606490fd5b6113c43361288f565b604051907f4504b9dfd7400a1522f49a8b4a100552da9236849581fd59b7363eb48c6a474c6113f2836122ef565b60428352602083019060603683378351156115715760308253835160019081101561157157607860218601536041905b8082116115175750506114d35760486114a0926114af926114cf9560405195869376020b1b1b2b9b9a1b7b73a3937b61d1030b1b1b7bab73a1604d1b6020860152611477815180926020603789019101612478565b8401917001034b99036b4b9b9b4b733903937b6329607d1b603784015251809386840190612478565b0103602881018452018261230a565b60405162461bcd60e51b815260206004820152918291602483019061249b565b0390fd5b606460405162461bcd60e51b815260206004820152602060248201527f537472696e67733a20686578206c656e67746820696e73756666696369656e746044820152fd5b9091600f81166010811015611571576f181899199a1a9b1b9c1cb0b131b232b360811b901a611546848861287e565b5360041c91801561155b576000190190611422565b634e487b7160e01b600052601160045260246000fd5b634e487b7160e01b600052603260045260246000fd5b8380fd5b8280fd5b503461027d578060031936011261027d576020600654604051908152f35b503461027d578060031936011261027d5760206040517fa49807205ce4d355092ef5a8a18f56e8913cf4a201fbe287825b095693c217758152f35b503461027d57602036600319011261027d576001600160a01b03906040908261160f612270565b16815260026020522090815416611628600183016123d2565b91611635600282016123d2565b60ff600383015416916004810154600582015460068301549161169961168e600860ff600788015416960154966116806040519b8c9b8c5260208c61012091829101528c019061249b565b908a820360408c015261249b565b9660608901906124c0565b608087015260a086015260c0850152151560e08401526101008301520390f35b503461027d578060031936011261027d576020600754604051908152f35b503461027d576020806003193601126103e1576004356001600160401b03811161158b57816102b961170d92369060040161232b565b8101600581520301902060405192838383549182815201908193835284832090835b81811061178c575050508461174591038561230a565b60405193838594850191818652518092526040850193925b82811061176c57505050500390f35b83516001600160a01b03168552869550938101939281019260010161175d565b82546001600160a01b03168452928601926001928301920161172f565b503461027d57604036600319011261027d576117c361228b565b336001600160a01b038216036117df57610357906004356127fd565b60405162461bcd60e51b815260206004820152602f60248201527f416363657373436f6e74726f6c3a2063616e206f6e6c792072656e6f756e636560448201526e103937b632b9903337b91039b2b63360891b6064820152608490fd5b503461027d57604036600319011261027d5760043561185961228b565b8183528260205261187060016040852001546126f3565b81600052600060205260406000209060018060a01b0316908160005260205260ff60406000205416156118a1578280f35b8160005260006020526040600020816000526020526040600020600160ff1982541617905533917f2f8788117e7eff1d82e926ec794901d17c78024a50270940304540a733656f0d600080a438808280f35b503461027d57602036600319011261027d57600435611910612505565b61191e600654821115612974565b808252600360205260ff600a6040842001541661193a816124e3565b6119c6578152600360205260408120600a8101805460ff191660011790555481906001600160a01b0316803b156119c3578190600460405180948193637caba0bf60e11b83525af180156119b857611990575080f35b6001600160401b0381116119a45760405280f35b634e487b7160e01b82526041600452602482fd5b6040513d84823e3d90fd5b50fd5b60405162461bcd60e51b8152602060048201526011602482015270546f6b656e206e6f742070656e64696e6760781b6044820152606490fd5b503461027d5761010036600319011261027d57611a1a612270565b6024356001600160401b03811161158b57611a3990369060040161232b565b6044356001600160401b03811161158757611a5890369060040161232b565b90600360643510156115875760c4356001600160401b0381116120b957611a8390369060040161232b565b906001600160401b0360e435116120b95736602360e4350112156120b95760e435600401356020611ab382612381565b611ac0604051918261230a565b828152013660248360051b60e4350101116120b557602460e43501905b60248360051b60e435010182106120a557505050611af9612505565b6001600160a01b03848116865260026020526040862054166120605780511561202357825115611fe857611b3460643560a4356084356129b3565b60405191611b41836122a1565b6001600160a01b0386168352602083015260408201849052611b6860643560608401612959565b608435608083015260a43560a083015260c0820152600160e0820152426101008201526001600160a01b0384811686526002602090815260408720835181546001600160a01b03191693169290921782558201518051919291906001600160401b038211611f0a578190611bdf6001860154612398565b601f8111611f98575b50602090601f8311600114611f29578992611f1e575b50508160011b916000199060031b1c19161760018301555b60408101518051906001600160401b038211611f0a578190611c3b6002860154612398565b601f8111611eba575b50602090601f8311600114611e4b578992611e40575b50508160011b916000199060031b1c19161760028301555b60608101516003811015611e2c57916008610100611ced959360209560ff801960038701541691161760038501556080810151600485015560a0810151600585015560c081015160068501556007840160e0820151151560ff8019835416911617905501519101558160405193828580945193849201612478565b8101600581520301902080549068010000000000000000821015610f5c5791611d40827f0bfef8d1a17ebc1779569b60c7c349b6ba106d24a1d47d14e5c5f962007f5a37946001611db7950181556124ed565b81546001600160a01b0387811660039390931b83811b91901b19909116179091557f4504b9dfd7400a1522f49a8b4a100552da9236849581fd59b7363eb48c6a474c808752602087815260408089209389529290529086205460ff1615611dd7575b5060405191829160408352604083019061249b565b93611dc7602083016064356124c0565b6001600160a01b0316930390a280f35b808652602086815260408088206001600160a01b038816808a5292528720805460ff1916600117905533917f2f8788117e7eff1d82e926ec794901d17c78024a50270940304540a733656f0d8880a438611da2565b634e487b7160e01b87526021600452602487fd5b015190503880611c5a565b9250600285018952602089209089935b601f1984168510611e9f576001945083601f19811610611e86575b505050811b016002830155611c72565b015160001960f88460031b161c19169055388080611e76565b81810151835560209485019460019093019290910190611e5b565b90915060028501895260208920601f840160051c810160208510611f03575b90849392915b601f830160051c82018110611ef5575050611c44565b8b8155859450600101611edf565b5080611ed9565b634e487b7160e01b88526041600452602488fd5b015190503880611bfe565b9250600185018952602089209089935b601f1984168510611f7d576001945083601f19811610611f64575b505050811b016001830155611c16565b015160001960f88460031b161c19169055388080611f54565b81810151835560209485019460019093019290910190611f39565b90915060018501895260208920601f840160051c810160208510611fe1575b90849392915b601f830160051c82018110611fd3575050611be8565b8b8155859450600101611fbd565b5080611fb7565b60405162461bcd60e51b8152602060048201526013602482015272109c985b990818dbd919481c995c5d5a5c9959606a1b6044820152606490fd5b60405162461bcd60e51b815260206004820152601560248201527410dbdb5c185b9e481b985b59481c995c5d5a5c9959605a1b6044820152606490fd5b60405162461bcd60e51b815260206004820152601c60248201527f446576656c6f70657220616c72656164792072656769737465726564000000006044820152606490fd5b8135815260209182019101611add565b8680fd5b8480fd5b503461027d57602036600319011261027d57600160406020926004358152808452200154604051908152f35b503461027d576020806003193601126103e15760043591600583101561027d57916006549261211784612a12565b938190600193845b828111156121a35750505061213381612a12565b94825b828110612179575050506040519280840190808552855180925280604086019601925b8281106121665785870386f35b8351875295810195928101928401612159565b8061218a61219b9284999799612a44565b516121958288612a44565b52612965565b959395612136565b808598969852600387528160ff600d604088200154166121c2826124e3565b6121cb816124e3565b146121e2575b6121da90612965565b96949661211f565b926121f581856121956121da948a612a44565b9390506121d1565b503461027d578060031936011261027d576020600854604051908152f35b9050346103e15760203660031901126103e15760043563ffffffff60e01b811680910361158b5760209250637965db0b60e01b811490811561225f575b5015158152f35b6301ffc9a760e01b14905038612258565b600435906001600160a01b038216820361228657565b600080fd5b602435906001600160a01b038216820361228657565b61012081019081106001600160401b038211176122bd57604052565b634e487b7160e01b600052604160045260246000fd5b6101c081019081106001600160401b038211176122bd57604052565b608081019081106001600160401b038211176122bd57604052565b90601f801991011681019081106001600160401b038211176122bd57604052565b81601f82011215612286578035906001600160401b0382116122bd576040519261235f601f8401601f19166020018561230a565b8284526020838301011161228657816000926020809301838601378301015290565b6001600160401b0381116122bd5760051b60200190565b90600182811c921680156123c8575b60208310146123b257565b634e487b7160e01b600052602260045260246000fd5b91607f16916123a7565b90604051918260008254926123e684612398565b9081845260019485811690816000146124555750600114612412575b50506124109250038361230a565b565b9093915060005260209081600020936000915b81831061243d57505061241093508201013880612402565b85548884018501529485019487945091830191612425565b91505061241094506020925060ff191682840152151560051b8201013880612402565b60005b83811061248b5750506000910152565b818101518382015260200161247b565b906020916124b481518092818552858086019101612478565b601f01601f1916010190565b9060038210156124cd5752565b634e487b7160e01b600052602160045260246000fd5b600511156124cd57565b80548210156115715760005260206000200190600090565b3360009081527f7d7ffb7a348e1c6a02869081a26547b49160dd3df72d1d75a570eb9b698292ec602090815260408083205490927fa49807205ce4d355092ef5a8a18f56e8913cf4a201fbe287825b095693c217759160ff16156125695750505050565b6125723361288f565b9184519061257f826122ef565b604282528482019260603685378251156126df57603084538251906001918210156126df5790607860218501536041915b8183116126715750505061262f5760486114cf93869361261393612604985198899376020b1b1b2b9b9a1b7b73a3937b61d1030b1b1b7bab73a1604d1b8a860152611477815180928c603789019101612478565b0103602881018752018561230a565b5192839262461bcd60e51b84526004840152602483019061249b565b60648486519062461bcd60e51b825280600483015260248201527f537472696e67733a20686578206c656e67746820696e73756666696369656e746044820152fd5b909192600f811660108110156126cb576f181899199a1a9b1b9c1cb0b131b232b360811b901a6126a1858761287e565b5360041c9280156126b7576000190191906125b0565b634e487b7160e01b82526011600452602482fd5b634e487b7160e01b83526032600452602483fd5b634e487b7160e01b81526032600452602490fd5b600090808252602090828252604092838120338252835260ff84822054161561271c5750505050565b6127253361288f565b91845190612732826122ef565b604282528482019260603685378251156126df57603084538251906001918210156126df5790607860218501536041915b8183116127b75750505061262f5760486114cf93869361261393612604985198899376020b1b1b2b9b9a1b7b73a3937b61d1030b1b1b7bab73a1604d1b8a860152611477815180928c603789019101612478565b909192600f811660108110156126cb576f181899199a1a9b1b9c1cb0b131b232b360811b901a6127e7858761287e565b5360041c9280156126b757600019019190612763565b9060009180835282602052604083209160018060a01b03169182845260205260ff60408420541661282d57505050565b80835282602052604083208284526020526040832060ff1981541690557ff6391f5c32d9c69d2a47ea670b442974b53935d1edc7fd64eb21e047a839171b339380a4565b9190820180921161155b57565b908151811015611571570160200190565b60405190606082018281106001600160401b038211176122bd57604052602a82526020820160403682378251156115715760309053815160019081101561157157607860218401536029905b8082116128eb5750506114d35790565b9091600f81166010811015612944576f181899199a1a9b1b9c1cb0b131b232b360811b901a61291a848661287e565b5360041c91801561292f5760001901906128db565b60246000634e487b7160e01b81526011600452fd5b60246000634e487b7160e01b81526032600452fd5b60038210156124cd5752565b600019811461155b5760010190565b1561297b57565b60405162461bcd60e51b815260206004820152601060248201526f125b9d985b1a59081d1bdad95b88125160821b6044820152606490fd5b600a810290808204600a149015171561155b57670de0b6b3a76400006129da920490612871565b9060038110156124cd57600203612a095760ff60965b169081810291818304149015171561155b576064900490565b60ff60646129f0565b90612a1c82612381565b612a29604051918261230a565b8281528092612a3a601f1991612381565b0190602036910137565b80518210156115715760209160051b01019056fea264697066735822122095884d8c451c3d7487e91d6af9995c90a99ab8564c74e432a605fe1284d5621d64736f6c634300081300332f8788117e7eff1d82e926ec794901d17c78024a50270940304540a733656f0d",
  "linkReferences": {},
  "deployedLinkReferences": {}
}