{
  "_format": "hh-sol-artifact-1",
  "contractName": "XERAToken",
  "sourceName": "contracts/XERAToken.sol",
  "abi": [
    {
      "inputs": [],
      "stateMutability": "nonpayable",
      "type": "constructor"
    },
    {
      "inputs": [],
      "name": "InvalidShortString",
      "type": "error"
    },
    {
      "inputs": [
        {
          "internalType": "string",
          "name": "str",
          "type": "string"
        }
      ],
      "name": "StringTooLong",
      "type": "error"
    },
    {
      "anonymous": false,
      "inputs": [
        {
          "indexed": true,
          "internalType": "address",
          "name": "owner",
          "type": "address"
        },
        {
          "indexed": true,
          "internalType": "address",
          "name": "spender",
          "type": "address"
        },
        {
          "indexed": false,
          "internalType": "uint256",
          "name": "value",
          "type": "uint256"
        }
      ],
      "name": "Approval",
      "type": "event"
    },
    {
      "anonymous": false,
      "inputs": [
        {
          "indexed": true,
          "internalType": "string",
          "name": "cityCode",
          "type": "string"
        },
        {
          "indexed": false,
          "internalType": "uint256",
          "name": "newValue",
          "type": "uint256"
        }
      ],
      "name": "CityPoolUpdated",
      "type": "event"
    },
    {
      "anonymous": false,
      "inputs": [
        {
          "indexed": true,
          "internalType": "address",
          "name": "delegator",
          "type": "address"
        },
        {
          "indexed": true,
          "internalType": "address",
          "name": "fromDelegate",
          "type": "address"
        },
        {
          "indexed": true,
          "internalType": "address",
          "name": "toDelegate",
          "type": "address"
        }
      ],
      "name": "DelegateChanged",
      "type": "event"
    },
    {
      "anonymous": false,
      "inputs": [
        {
          "indexed": true,
          "internalType": "address",
          "name": "delegate",
          "type": "address"
        },
        {
          "indexed": false,
          "internalType": "uint256",
          "name": "previousBalance",
          "type": "uint256"
        },
        {
          "indexed": false,
          "internalType": "uint256",
          "name": "newBalance",
          "type": "uint256"
        }
      ],
      "name": "DelegateVotesChanged",
      "type": "event"
    },
    {
      "anonymous": false,
      "inputs": [
        {
          "indexed": true,
          "internalType": "address",
          "name": "user",
          "type": "address"
        },
        {
          "indexed": false,
          "internalType": "uint256",
          "name": "amount",
          "type": "uint256"
        },
        {
          "indexed": false,
          "internalType": "uint256",
          "name": "periodId",
          "type": "uint256"
        }
      ],
      "name": "DividendClaimed",
      "type": "event"
    },
    {
      "anonymous": false,
      "inputs": [
        {
          "indexed": true,
          "internalType": "uint256",
          "name": "periodId",
          "type": "uint256"
        },
        {
          "indexed": false,
          "internalType": "uint256",
          "name": "totalAmount",
          "type": "uint256"
        }
      ],
      "name": "DividendDeclared",
      "type": "event"
    },
    {
      "anonymous": false,
      "inputs": [],
      "name": "EIP712DomainChanged",
      "type": "event"
    },
    {
      "anonymous": false,
      "inputs": [
        {
          "indexed": false,
          "internalType": "address",
          "name": "account",
          "type": "address"
        }
      ],
      "name": "Paused",
      "type": "event"
    },
    {
      "anonymous": false,
      "inputs": [
        {
          "indexed": true,
          "internalType": "uint256",
          "name": "propertyId",
          "type": "uint256"
        },
        {
          "indexed": true,
          "internalType": "address",
          "name": "owner",
          "type": "address"
        },
        {
          "indexed": false,
          "internalType": "uint256",
          "name": "valuation",
          "type": "uint256"
        },
        {
          "indexed": false,
          "internalType": "string",
          "name": "cityCode",
          "type": "string"
        },
        {
          "indexed": false,
          "internalType": "enum XERAToken.PropertyCategory",
          "name": "category",
          "type": "uint8"
        }
      ],
      "name": "PropertyAdded",
      "type": "event"
    },
    {
      "anonymous": false,
      "inputs": [
        {
          "indexed": true,
          "internalType": "uint256",
          "name": "propertyId",
          "type": "uint256"
        },
        {
          "indexed": false,
          "internalType": "uint256",
          "name": "oldValuation",
          "type": "uint256"
        },
        {
          "indexed": false,
          "internalType": "uint256",
          "name": "newValuation",
          "type": "uint256"
        }
      ],
      "name": "PropertyRevalued",
      "type": "event"
    },
    {
      "anonymous": false,
      "inputs": [
        {
          "indexed": true,
          "internalType": "uint256",
          "name": "propertyId",
          "type": "uint256"
        },
        {
          "indexed": false,
          "internalType": "uint256",
          "name": "salePrice",
          "type": "uint256"
        }
      ],
      "name": "PropertySold",
      "type": "event"
    },
    {
      "anonymous": false,
      "inputs": [
        {
          "indexed": true,
          "internalType": "bytes32",
          "name": "role",
          "type": "bytes32"
        },
        {
          "indexed": true,
          "internalType": "bytes32",
          "name": "previousAdminRole",
          "type": "bytes32"
        },
        {
          "indexed": true,
          "internalType": "bytes32",
          "name": "newAdminRole",
          "type": "bytes32"
        }
      ],
      "name": "RoleAdminChanged",
      "type": "event"
    },
    {
      "anonymous": false,
      "inputs": [
        {
          "indexed": true,
          "internalType": "bytes32",
          "name": "role",
          "type": "bytes32"
        },
        {
          "indexed": true,
          "internalType": "address",
          "name": "account",
          "type": "address"
        },
        {
          "indexed": true,
          "internalType": "address",
          "name": "sender",
          "type": "address"
        }
      ],
      "name": "RoleGranted",
      "type": "event"
    },
    {
      "anonymous": false,
      "inputs": [
        {
          "indexed": true,
          "internalType": "bytes32",
          "name": "role",
          "type": "bytes32"
        },
        {
          "indexed": true,
          "internalType": "address",
          "name": "account",
          "type": "address"
        },
        {
          "indexed": true,
          "internalType": "address",
          "name": "sender",
          "type": "address"
        }
      ],
      "name": "RoleRevoked",
      "type": "event"
    },
    {
      "anonymous": false,
      "inputs": [
        {
          "indexed": true,
          "internalType": "address",
          "name": "from",
          "type": "address"
        },
        {
          "indexed": true,
          "internalType": "address",
          "name": "to",
          "type": "address"
        },
        {
          "indexed": false,
          "internalType": "uint256",
          "name": "value",
          "type": "uint256"
        }
      ],
      "name": "Transfer",
      "type": "event"
    },
    {
      "anonymous": false,
      "inputs": [
        {
          "indexed": false,
          "internalType": "address",
          "name": "account",
          "type": "address"
        }
      ],
      "name": "Unpaused",
      "type": "event"
    },
    {
      "inputs": [],
      "name": "ADMIN_ROLE",
      "outputs": [
        {
          "internalType": "bytes32",
          "name": "",
          "type": "bytes32"
        }
      ],
      "stateMutability": "view",
      "type": "function"
    },
    {
      "inputs": [],
      "name": "CLOCK_MODE",
      "outputs": [
        {
          "internalType": "string",
          "name": "",
          "type": "string"
        }
      ],
      "stateMutability": "view",
      "type": "function"
    },
    {
      "inputs": [],
      "name": "DEFAULT_ADMIN_ROLE",
      "outputs": [
        {
          "internalType": "bytes32",
          "name": "",
          "type": "bytes32"
        }
      ],
      "stateMutability": "view",
      "type": "function"
    },
    {
      "inputs": [],
      "name": "DOMAIN_SEPARATOR",
      "outputs": [
        {
          "internalType": "bytes32",
          "name": "",
          "type": "bytes32"
        }
      ],
      "stateMutability": "view",
      "type": "function"
    },
    {
      "inputs": [],
      "name": "MAX_SUPPLY",
      "outputs": [
        {
          "internalType": "uint256",
          "name": "",
          "type": "uint256"
        }
      ],
      "stateMutability": "view",
      "type": "function"
    },
    {
      "inputs": [],
      "name": "PROPERTY_MANAGER_ROLE",
      "outputs": [
        {
          "internalType": "bytes32",
          "name": "",
          "type": "bytes32"
        }
      ],
      "stateMutability": "view",
      "type": "function"
    },
    {
      "inputs": [],
      "name": "VALUER_ROLE",
      "outputs": [
        {
          "internalType": "bytes32",
          "name": "",
          "type": "bytes32"
        }
      ],
      "stateMutability": "view",
      "type": "function"
    },
    {
      "inputs": [
        {
          "internalType": "address",
          "name": "propertyOwner",
          "type": "address"
        },
        {
          "internalType": "string",
          "name": "propertyAddress",
          "type": "string"
        },
        {
          "internalType": "uint256",
          "name": "valuationInWei",
          "type": "uint256"
        },
        {
          "internalType": "string",
          "name": "ipfsDocumentHash",
          "type": "string"
        },
        {
          "internalType": "enum XERAToken.PropertyCategory",
          "name": "category",
          "type": "uint8"
        },
        {
          "internalType": "string",
          "name": "cityCode",
          "type": "string"
        }
      ],
      "name": "addProperty",
      "outputs": [
        {
          "internalType": "uint256",
          "name": "",
          "type": "uint256"
        }
      ],
      "stateMutability": "nonpayable",
      "type": "function"
    },
    {
      "inputs": [
        {
          "internalType": "address",
          "name": "owner",
          "type": "address"
        },
        {
          "internalType": "address",
          "name": "spender",
          "type": "address"
        }
      ],
      "name": "allowance",
      "outputs": [
        {
          "internalType": "uint256",
          "name": "",
          "type": "uint256"
        }
      ],
      "stateMutability": "view",
      "type": "function"
    },
    {
      "inputs": [
        {
          "internalType": "address",
          "name": "spender",
          "type": "address"
        },
        {
          "internalType": "uint256",
          "name": "amount",
          "type": "uint256"
        }
      ],
      "name": "approve",
      "outputs": [
        {
          "internalType": "bool",
          "name": "",
          "type": "bool"
        }
      ],
      "stateMutability": "nonpayable",
      "type": "function"
    },
    {
      "inputs": [
        {
          "internalType": "uint256",
          "name": "propertyId",
          "type": "uint256"
        }
      ],
      "name": "approveProperty",
      "outputs": [],
      "stateMutability": "nonpayable",
      "type": "function"
    },
    {
      "inputs": [
        {
          "internalType": "address",
          "name": "account",
          "type": "address"
        }
      ],
      "name": "balanceOf",
      "outputs": [
        {
          "internalType": "uint256",
          "name": "",
          "type": "uint256"
        }
      ],
      "stateMutability": "view",
      "type": "function"
    },
    {
      "inputs": [],
      "name": "calculateDiversificationScore",
      "outputs": [
        {
          "internalType": "uint256",
          "name": "",
          "type": "uint256"
        }
      ],
      "stateMutability": "view",
      "type": "function"
    },
    {
      "inputs": [
        {
          "internalType": "uint256",
          "name": "propertyValue",
          "type": "uint256"
        },
        {
          "internalType": "enum XERAToken.PropertyCategory",
          "name": "category",
          "type": "uint8"
        },
        {
          "internalType": "string",
          "name": "cityCode",
          "type": "string"
        }
      ],
      "name": "calculateTokenAllocation",
      "outputs": [
        {
          "internalType": "uint256",
          "name": "",
          "type": "uint256"
        }
      ],
      "stateMutability": "view",
      "type": "function"
    },
    {
      "inputs": [
        {
          "internalType": "enum XERAToken.PropertyCategory",
          "name": "",
          "type": "uint8"
        }
      ],
      "name": "categoryValues",
      "outputs": [
        {
          "internalType": "uint256",
          "name": "",
          "type": "uint256"
        }
      ],
      "stateMutability": "view",
      "type": "function"
    },
    {
      "inputs": [
        {
          "internalType": "address",
          "name": "account",
          "type": "address"
        },
        {
          "internalType": "uint32",
          "name": "pos",
          "type": "uint32"
        }
      ],
      "name": "checkpoints",
      "outputs": [
        {
          "components": [
            {
              "internalType": "uint32",
              "name": "fromBlock",
              "type": "uint32"
            },
            {
              "internalType": "uint224",
              "name": "votes",
              "type": "uint224"
            }
          ],
          "internalType": "struct ERC20Votes.Checkpoint",
          "name": "",
          "type": "tuple"
        }
      ],
      "stateMutability": "view",
      "type": "function"
    },
    {
      "inputs": [
        {
          "internalType": "string",
          "name": "",
          "type": "string"
        }
      ],
      "name": "cityPoolValues",
      "outputs": [
        {
          "internalType": "uint256",
          "name": "",
          "type": "uint256"
        }
      ],
      "stateMutability": "view",
      "type": "function"
    },
    {
      "inputs": [
        {
          "internalType": "string",
          "name": "",
          "type": "string"
        },
        {
          "internalType": "uint256",
          "name": "",
          "type": "uint256"
        }
      ],
      "name": "cityProperties",
      "outputs": [
        {
          "internalType": "uint256",
          "name": "",
          "type": "uint256"
        }
      ],
      "stateMutability": "view",
      "type": "function"
    },
    {
      "inputs": [],
      "name": "claimAllAvailableDividends",
      "outputs": [],
      "stateMutability": "nonpayable",
      "type": "function"
    },
    {
      "inputs": [],
      "name": "clock",
      "outputs": [
        {
          "internalType": "uint48",
          "name": "",
          "type": "uint48"
        }
      ],
      "stateMutability": "view",
      "type": "function"
    },
    {
      "inputs": [],
      "name": "currentDividendPeriod",
      "outputs": [
        {
          "internalType": "uint256",
          "name": "",
          "type": "uint256"
        }
      ],
      "stateMutability": "view",
      "type": "function"
    },
    {
      "inputs": [],
      "name": "currentPropertyCount",
      "outputs": [
        {
          "internalType": "uint256",
          "name": "",
          "type": "uint256"
        }
      ],
      "stateMutability": "view",
      "type": "function"
    },
    {
      "inputs": [],
      "name": "decimals",
      "outputs": [
        {
          "internalType": "uint8",
          "name": "",
          "type": "uint8"
        }
      ],
      "stateMutability": "view",
      "type": "function"
    },
    {
      "inputs": [
        {
          "internalType": "string",
          "name": "source",
          "type": "string"
        }
      ],
      "name": "declareDividend",
      "outputs": [],
      "stateMutability": "payable",
      "type": "function"
    },
    {
      "inputs": [
        {
          "internalType": "address",
          "name": "spender",
          "type": "address"
        },
        {
          "internalType": "uint256",
          "name": "subtractedValue",
          "type": "uint256"
        }
      ],
      "name": "decreaseAllowance",
      "outputs": [
        {
          "internalType": "bool",
          "name": "",
          "type": "bool"
        }
      ],
      "stateMutability": "nonpayable",
      "type": "function"
    },
    {
      "inputs": [
        {
          "internalType": "address",
          "name": "delegatee",
          "type": "address"
        }
      ],
      "name": "delegate",
      "outputs": [],
      "stateMutability": "nonpayable",
      "type": "function"
    },
    {
      "inputs": [
        {
          "internalType": "address",
          "name": "delegatee",
          "type": "address"
        },
        {
          "internalType": "uint256",
          "name": "nonce",
          "type": "uint256"
        },
        {
          "internalType": "uint256",
          "name": "expiry",
          "type": "uint256"
        },
        {
          "internalType": "uint8",
          "name": "v",
          "type": "uint8"
        },
        {
          "internalType": "bytes32",
          "name": "r",
          "type": "bytes32"
        },
        {
          "internalType": "bytes32",
          "name": "s",
          "type": "bytes32"
        }
      ],
      "name": "delegateBySig",
      "outputs": [],
      "stateMutability": "nonpayable",
      "type": "function"
    },
    {
      "inputs": [
        {
          "internalType": "address",
          "name": "account",
          "type": "address"
        }
      ],
      "name": "delegates",
      "outputs": [
        {
          "internalType": "address",
          "name": "",
          "type": "address"
        }
      ],
      "stateMutability": "view",
      "type": "function"
    },
    {
      "inputs": [
        {
          "internalType": "uint256",
          "name": "",
          "type": "uint256"
        }
      ],
      "name": "dividendPeriods",
      "outputs": [
        {
          "internalType": "uint256",
          "name": "periodId",
          "type": "uint256"
        },
        {
          "internalType": "uint256",
          "name": "totalDividend",
          "type": "uint256"
        },
        {
          "internalType": "uint256",
          "name": "exDividendDate",
          "type": "uint256"
        },
        {
          "internalType": "uint256",
          "name": "paymentDate",
          "type": "uint256"
        }
      ],
      "stateMutability": "view",
      "type": "function"
    },
    {
      "inputs": [],
      "name": "eip712Domain",
      "outputs": [
        {
          "internalType": "bytes1",
          "name": "fields",
          "type": "bytes1"
        },
        {
          "internalType": "string",
          "name": "name",
          "type": "string"
        },
        {
          "internalType": "string",
          "name": "version",
          "type": "string"
        },
        {
          "internalType": "uint256",
          "name": "chainId",
          "type": "uint256"
        },
        {
          "internalType": "address",
          "name": "verifyingContract",
          "type": "address"
        },
        {
          "internalType": "bytes32",
          "name": "salt",
          "type": "bytes32"
        },
        {
          "internalType": "uint256[]",
          "name": "extensions",
          "type": "uint256[]"
        }
      ],
      "stateMutability": "view",
      "type": "function"
    },
    {
      "inputs": [],
      "name": "getCategoryBreakdown",
      "outputs": [
        {
          "internalType": "uint256",
          "name": "residential",
          "type": "uint256"
        },
        {
          "internalType": "uint256",
          "name": "commercial",
          "type": "uint256"
        },
        {
          "internalType": "uint256",
          "name": "mixedUse",
          "type": "uint256"
        },
        {
          "internalType": "uint256",
          "name": "land",
          "type": "uint256"
        },
        {
          "internalType": "uint256",
          "name": "industrial",
          "type": "uint256"
        }
      ],
      "stateMutability": "view",
      "type": "function"
    },
    {
      "inputs": [
        {
          "internalType": "enum XERAToken.PropertyCategory",
          "name": "category",
          "type": "uint8"
        }
      ],
      "name": "getCategoryMultiplier",
      "outputs": [
        {
          "internalType": "uint256",
          "name": "",
          "type": "uint256"
        }
      ],
      "stateMutability": "pure",
      "type": "function"
    },
    {
      "inputs": [
        {
          "internalType": "string",
          "name": "cityCode",
          "type": "string"
        }
      ],
      "name": "getCityMultiplier",
      "outputs": [
        {
          "internalType": "uint256",
          "name": "",
          "type": "uint256"
        }
      ],
      "stateMutability": "pure",
      "type": "function"
    },
    {
      "inputs": [
        {
          "internalType": "string",
          "name": "cityCode",
          "type": "string"
        }
      ],
      "name": "getCityPortfolio",
      "outputs": [
        {
          "internalType": "uint256",
          "name": "totalValue",
          "type": "uint256"
        },
        {
          "internalType": "uint256",
          "name": "propertyCount",
          "type": "uint256"
        },
        {
          "internalType": "uint256[]",
          "name": "propertyIds",
          "type": "uint256[]"
        }
      ],
      "stateMutability": "view",
      "type": "function"
    },
    {
      "inputs": [],
      "name": "getNetAssetValue",
      "outputs": [
        {
          "internalType": "uint256",
          "name": "",
          "type": "uint256"
        }
      ],
      "stateMutability": "view",
      "type": "function"
    },
    {
      "inputs": [
        {
          "internalType": "uint256",
          "name": "timepoint",
          "type": "uint256"
        }
      ],
      "name": "getPastTotalSupply",
      "outputs": [
        {
          "internalType": "uint256",
          "name": "",
          "type": "uint256"
        }
      ],
      "stateMutability": "view",
      "type": "function"
    },
    {
      "inputs": [
        {
          "internalType": "address",
          "name": "account",
          "type": "address"
        },
        {
          "internalType": "uint256",
          "name": "timepoint",
          "type": "uint256"
        }
      ],
      "name": "getPastVotes",
      "outputs": [
        {
          "internalType": "uint256",
          "name": "",
          "type": "uint256"
        }
      ],
      "stateMutability": "view",
      "type": "function"
    },
    {
      "inputs": [
        {
          "internalType": "uint256",
          "name": "propertyId",
          "type": "uint256"
        }
      ],
      "name": "getProperty",
      "outputs": [
        {
          "internalType": "uint256",
          "name": "id",
          "type": "uint256"
        },
        {
          "internalType": "address",
          "name": "owner",
          "type": "address"
        },
        {
          "internalType": "string",
          "name": "propertyAddress",
          "type": "string"
        },
        {
          "internalType": "uint256",
          "name": "valuationInWei",
          "type": "uint256"
        },
        {
          "internalType": "uint256",
          "name": "tokenAllocation",
          "type": "uint256"
        },
        {
          "internalType": "uint256",
          "name": "lastValuationDate",
          "type": "uint256"
        },
        {
          "internalType": "enum XERAToken.PropertyStatus",
          "name": "status",
          "type": "uint8"
        },
        {
          "internalType": "enum XERAToken.PropertyCategory",
          "name": "category",
          "type": "uint8"
        },
        {
          "internalType": "string",
          "name": "cityCode",
          "type": "string"
        }
      ],
      "stateMutability": "view",
      "type": "function"
    },
    {
      "inputs": [
        {
          "internalType": "bytes32",
          "name": "role",
          "type": "bytes32"
        }
      ],
      "name": "getRoleAdmin",
      "outputs": [
        {
          "internalType": "bytes32",
          "name": "",
          "type": "bytes32"
        }
      ],
      "stateMutability": "view",
      "type": "function"
    },
    {
      "inputs": [
        {
          "internalType": "address",
          "name": "account",
          "type": "address"
        }
      ],
      "name": "getVotes",
      "outputs": [
        {
          "internalType": "uint256",
          "name": "",
          "type": "uint256"
        }
      ],
      "stateMutability": "view",
      "type": "function"
    },
    {
      "inputs": [],
      "name": "getXERAMetrics",
      "outputs": [
        {
          "internalType": "uint256",
          "name": "netAssetValue",
          "type": "uint256"
        },
        {
          "internalType": "uint256",
          "name": "totalProperties",
          "type": "uint256"
        },
        {
          "internalType": "uint256",
          "name": "averagePropertyValue",
          "type": "uint256"
        },
        {
          "internalType": "uint256",
          "name": "diversificationScore",
          "type": "uint256"
        }
      ],
      "stateMutability": "view",
      "type": "function"
    },
    {
      "inputs": [
        {
          "internalType": "bytes32",
          "name": "role",
          "type": "bytes32"
        },
        {
          "internalType": "address",
          "name": "account",
          "type": "address"
        }
      ],
      "name": "grantRole",
      "outputs": [],
      "stateMutability": "nonpayable",
      "type": "function"
    },
    {
      "inputs": [
        {
          "internalType": "bytes32",
          "name": "role",
          "type": "bytes32"
        },
        {
          "internalType": "address",
          "name": "account",
          "type": "address"
        }
      ],
      "name": "hasRole",
      "outputs": [
        {
          "internalType": "bool",
          "name": "",
          "type": "bool"
        }
      ],
      "stateMutability": "view",
      "type": "function"
    },
    {
      "inputs": [
        {
          "internalType": "address",
          "name": "spender",
          "type": "address"
        },
        {
          "internalType": "uint256",
          "name": "addedValue",
          "type": "uint256"
        }
      ],
      "name": "increaseAllowance",
      "outputs": [
        {
          "internalType": "bool",
          "name": "",
          "type": "bool"
        }
      ],
      "stateMutability": "nonpayable",
      "type": "function"
    },
    {
      "inputs": [
        {
          "internalType": "address",
          "name": "",
          "type": "address"
        }
      ],
      "name": "lastClaimedDividend",
      "outputs": [
        {
          "internalType": "uint256",
          "name": "",
          "type": "uint256"
        }
      ],
      "stateMutability": "view",
      "type": "function"
    },
    {
      "inputs": [],
      "name": "minimumPropertyValue",
      "outputs": [
        {
          "internalType": "uint256",
          "name": "",
          "type": "uint256"
        }
      ],
      "stateMutability": "view",
      "type": "function"
    },
    {
      "inputs": [],
      "name": "name",
      "outputs": [
        {
          "internalType": "string",
          "name": "",
          "type": "string"
        }
      ],
      "stateMutability": "view",
      "type": "function"
    },
    {
      "inputs": [
        {
          "internalType": "address",
          "name": "owner",
          "type": "address"
        }
      ],
      "name": "nonces",
      "outputs": [
        {
          "internalType": "uint256",
          "name": "",
          "type": "uint256"
        }
      ],
      "stateMutability": "view",
      "type": "function"
    },
    {
      "inputs": [
        {
          "internalType": "address",
          "name": "account",
          "type": "address"
        }
      ],
      "name": "numCheckpoints",
      "outputs": [
        {
          "internalType": "uint32",
          "name": "",
          "type": "uint32"
        }
      ],
      "stateMutability": "view",
      "type": "function"
    },
    {
      "inputs": [],
      "name": "paused",
      "outputs": [
        {
          "internalType": "bool",
          "name": "",
          "type": "bool"
        }
      ],
      "stateMutability": "view",
      "type": "function"
    },
    {
      "inputs": [
        {
          "internalType": "address",
          "name": "owner",
          "type": "address"
        },
        {
          "internalType": "address",
          "name": "spender",
          "type": "address"
        },
        {
          "internalType": "uint256",
          "name": "value",
          "type": "uint256"
        },
        {
          "internalType": "uint256",
          "name": "deadline",
          "type": "uint256"
        },
        {
          "internalType": "uint8",
          "name": "v",
          "type": "uint8"
        },
        {
          "internalType": "bytes32",
          "name": "r",
          "type": "bytes32"
        },
        {
          "internalType": "bytes32",
          "name": "s",
          "type": "bytes32"
        }
      ],
      "name": "permit",
      "outputs": [],
      "stateMutability": "nonpayable",
      "type": "function"
    },
    {
      "inputs": [],
      "name": "platformFeePercentage",
      "outputs": [
        {
          "internalType": "uint256",
          "name": "",
          "type": "uint256"
        }
      ],
      "stateMutability": "view",
      "type": "function"
    },
    {
      "inputs": [
        {
          "internalType": "uint256",
          "name": "",
          "type": "uint256"
        }
      ],
      "name": "properties",
      "outputs": [
        {
          "internalType": "uint256",
          "name": "id",
          "type": "uint256"
        },
        {
          "internalType": "address",
          "name": "owner",
          "type": "address"
        },
        {
          "internalType": "string",
          "name": "propertyAddress",
          "type": "string"
        },
        {
          "internalType": "uint256",
          "name": "valuationInWei",
          "type": "uint256"
        },
        {
          "internalType": "uint256",
          "name": "tokenAllocation",
          "type": "uint256"
        },
        {
          "internalType": "uint256",
          "name": "lastValuationDate",
          "type": "uint256"
        },
        {
          "internalType": "enum XERAToken.PropertyStatus",
          "name": "status",
          "type": "uint8"
        },
        {
          "internalType": "string",
          "name": "ipfsDocumentHash",
          "type": "string"
        },
        {
          "internalType": "enum XERAToken.PropertyCategory",
          "name": "category",
          "type": "uint8"
        },
        {
          "internalType": "string",
          "name": "cityCode",
          "type": "string"
        }
      ],
      "stateMutability": "view",
      "type": "function"
    },
    {
      "inputs": [
        {
          "internalType": "bytes32",
          "name": "role",
          "type": "bytes32"
        },
        {
          "internalType": "address",
          "name": "account",
          "type": "address"
        }
      ],
      "name": "renounceRole",
      "outputs": [],
      "stateMutability": "nonpayable",
      "type": "function"
    },
    {
      "inputs": [],
      "name": "reserveRatio",
      "outputs": [
        {
          "internalType": "uint256",
          "name": "",
          "type": "uint256"
        }
      ],
      "stateMutability": "view",
      "type": "function"
    },
    {
      "inputs": [
        {
          "internalType": "bytes32",
          "name": "role",
          "type": "bytes32"
        },
        {
          "internalType": "address",
          "name": "account",
          "type": "address"
        }
      ],
      "name": "revokeRole",
      "outputs": [],
      "stateMutability": "nonpayable",
      "type": "function"
    },
    {
      "inputs": [
        {
          "internalType": "bytes4",
          "name": "interfaceId",
          "type": "bytes4"
        }
      ],
      "name": "supportsInterface",
      "outputs": [
        {
          "internalType": "bool",
          "name": "",
          "type": "bool"
        }
      ],
      "stateMutability": "view",
      "type": "function"
    },
    {
      "inputs": [],
      "name": "symbol",
      "outputs": [
        {
          "internalType": "string",
          "name": "",
          "type": "string"
        }
      ],
      "stateMutability": "view",
      "type": "function"
    },
    {
      "inputs": [],
      "name": "totalPropertyValue",
      "outputs": [
        {
          "internalType": "uint256",
          "name": "",
          "type": "uint256"
        }
      ],
      "stateMutability": "view",
      "type": "function"
    },
    {
      "inputs": [],
      "name": "totalSupply",
      "outputs": [
        {
          "internalType": "uint256",
          "name": "",
          "type": "uint256"
        }
      ],
      "stateMutability": "view",
      "type": "function"
    },
    {
      "inputs": [
        {
          "internalType": "address",
          "name": "to",
          "type": "address"
        },
        {
          "internalType": "uint256",
          "name": "amount",
          "type": "uint256"
        }
      ],
      "name": "transfer",
      "outputs": [
        {
          "internalType": "bool",
          "name": "",
          "type": "bool"
        }
      ],
      "stateMutability": "nonpayable",
      "type": "function"
    },
    {
      "inputs": [
        {
          "internalType": "address",
          "name": "from",
          "type": "address"
        },
        {
          "internalType": "address",
          "name": "to",
          "type": "address"
        },
        {
          "internalType": "uint256",
          "name": "amount",
          "type": "uint256"
        }
      ],
      "name": "transferFrom",
      "outputs": [
        {
          "internalType": "bool",
          "name": "",
          "type": "bool"
        }
      ],
      "stateMutability": "nonpayable",
      "type": "function"
    },
    {
      "inputs": [
        {
          "internalType": "address",
          "name": "",
          "type": "address"
        },
        {
          "internalType": "uint256",
          "name": "",
          "type": "uint256"
        }
      ],
      "name": "userProperties",
      "outputs": [
        {
          "internalType": "uint256",
          "name": "",
          "type": "uint256"
        }
      ],
      "stateMutability": "view",
      "type": "function"
    }
  ],
  "bytecode": "0x610160604052346200026e5762000015620002e0565b6200001f620002b6565b906020917f58455241205265616c2045737461746520496e646961000000000000000000008382015262000052620002e0565b6200005c620002cb565b603160f81b858201908152835190939192916001600160401b038211620002685762000095826200008f60035462000302565b6200033f565b8690601f8311600114620001d857620000cf93929160009183620001cc575b50508160011b916000199060031b1c191617600355620004a3565b620000da83620006df565b92610120938452620000ec82620007f2565b94610140958652815191012060e052519020916101009283524660a05262000113620009a3565b6080523060c052620001256001600c55565b6200013560ff19600d5416600d55565b6200014a6a0422ca8b0a00a425000000601255565b6200015560fa601355565b620001616103e8601455565b6200016c3362000596565b620001773362000629565b620001823362000a8b565b604051916147bb93846200127885396080518461349c015260a05184613557015260c05184613466015260e051846134eb01525183613511015251826113e4015251816114100152f35b015190503880620000b4565b6003600052601f19831691907fc2575a0e9e593c00f959f8c92f12db2869c3395a3b0502d05e2516446f71f85b9260005b8a82821062000251575050916001939185620000cf9796941062000237575b505050811b01600355620004a3565b015160001960f88460031b161c1916905538808062000228565b600185968293968601518155019501930162000209565b62000273565b600080fd5b634e487b7160e01b600052604160045260246000fd5b604081019081106001600160401b038211176200026857604052565b60405190620002b48262000289565b565b60405190620002c58262000289565b60168252565b60405190620002da8262000289565b60018252565b60405190620002ef8262000289565b60048252635845524160e01b6020830152565b90600182811c9216801562000334575b60208310146200031e57565b634e487b7160e01b600052602260045260246000fd5b91607f169162000312565b601f81116200034c575050565b6000906003825260208220906020601f850160051c830194106200038d575b601f0160051c01915b8281106200038157505050565b81815560010162000374565b90925082906200036b565b601f8111620003a5575050565b6000906004825260208220906020601f850160051c83019410620003e6575b601f0160051c01915b828110620003da57505050565b818155600101620003cd565b9092508290620003c4565b601f8111620003fe575050565b6000906005825260208220906020601f850160051c830194106200043f575b601f0160051c01915b8281106200043357505050565b81815560010162000426565b90925082906200041d565b601f811162000457575050565b6000906006825260208220906020601f850160051c8301941062000498575b601f0160051c01915b8281106200048c57505050565b8181556001016200047f565b909250829062000476565b80519091906001600160401b0381116200026857620004cf81620004c960045462000302565b62000398565b602080601f83116001146200050e575081929360009262000502575b50508160011b916000199060031b1c191617600455565b015190503880620004eb565b6004600052601f198316949091907f8a35acfbc15ff81a39ae7d344fd709f28e8600b4aa8c65c6b64bfe7fe36bd19b926000905b8782106200057d57505083600195961062000563575b505050811b01600455565b015160001960f88460031b161c1916905538808062000558565b8060018596829496860151815501950193019062000542565b6001600160a01b03811660009081527fe710864318d4a32f37d6ce54cb3fadbef648dd12d8dbdf53973564d56b7f881c602052604081205460ff1615620005db575050565b808052600e602090815260408083206001600160a01b038516600090815292529020805460ff1916600117905533916001600160a01b03169060008051602062005a338339815191528180a4565b6001600160a01b03811660009081527fffc6ee3e4785c143e1d4f7ff9785d2ddbd7bf0ad1148b890efdcfc74e32b5b6b60205260408120547fa49807205ce4d355092ef5a8a18f56e8913cf4a201fbe287825b095693c217759060ff16156200069157505050565b808252600e602090815260408084206001600160a01b038616600090815292529020805460ff1916600117905533926001600160a01b03169160008051602062005a338339815191529080a4565b90815160208082106000146200070057505090620006fd9062000926565b90565b6001600160401b038211620002685762000727826200072160055462000302565b620003f1565b80601f83116001146200076757508192936000926200075b575b50508160011b916000199060031b1c19161760055560ff90565b01519050388062000741565b6005600052601f198316949091907f036b6384b5eca791c62761152d0c79bb0604c104a5fb6f4eb0703f3154bb3db0926000905b878210620007d9575050836001959610620007bf575b505050811b0160055560ff90565b015160001960f88460031b161c19169055388080620007b1565b806001859682949686015181550195019301906200079b565b90815160208082106000146200081057505090620006fd9062000926565b6001600160401b038211620002685762000837826200083160065462000302565b6200044a565b80601f83116001146200087757508192936000926200086b575b50508160011b916000199060031b1c19161760065560ff90565b01519050388062000851565b6006600052601f198316949091907ff652222313e28459528d920b65115c16c04f3efc82aaedc97be59f3f377c0d3f926000905b878210620008e9575050836001959610620008cf575b505050811b0160065560ff90565b015160001960f88460031b161c19169055388080620008c1565b80600185968294968601518155019501930190620008ab565b60208151910151906020811062000917575090565b6000199060200360031b1b1690565b601f81511162000941576200093b8162000902565b90511790565b6040519063305a27a960e01b82528160208060048301528251908160248401526000935b82851062000989575050604492506000838284010152601f80199101168101030190fd5b848101820151868601604401529381019385935062000965565b60e051610100516040519060208201927f8b73c3c69bb8fe3d512ecc4cf759cc79239f7b179b0ffacaa9a75d522b39400f8452604083015260608201524660808201523060a082015260a0815260c0810181811060018060401b03821117620002685760405251902090565b634e487b7160e01b600052601160045260246000fd5b1562000a2d57565b60405162461bcd60e51b815260206004820152603060248201527f4552433230566f7465733a20746f74616c20737570706c79207269736b73206f60448201526f766572666c6f77696e6720766f74657360801b6064820152608490fd5b6001600160a01b03811690811562000b945760ff600d541662000b5c5762000b369162000ac362000abe60025462000bd9565b600255565b6001600160a01b03821660009081526020819052604090206a7c13bc4b2c133c56000000815401905560007fddf252ad1be2c89b69c2b068fc378daa952ba7f163c4a11628f55a4df523b3ef6040518062000b2d81906a7c13bc4b2c133c56000000602083019252565b0390a36200114b565b60025462000b4e906001600160e01b03101562000a25565b62000b5862000d02565b5050565b60405162461bcd60e51b815260206004820152601060248201526f14185d5cd8589b194e881c185d5cd95960821b6044820152606490fd5b60405162461bcd60e51b815260206004820152601f60248201527f45524332303a206d696e7420746f20746865207a65726f2061646472657373006044820152606490fd5b906a7c13bc4b2c133c56000000820180921162000bf257565b62000a0f565b604080519192919081016001600160401b038111828210176200026857604052602081935463ffffffff81168352811c910152565b600b54906801000000000000000082101562000268576001820180600b5582101562000c9b57600b600052805160209182015190911b63ffffffff191663ffffffff91909116177f0175b7a638427703f0dbe7bb9bbf987a2551717b34e79f33b5b1008d1fa01db990910155565b634e487b7160e01b600052603260045260246000fd5b9081546801000000000000000081101562000268576001810180845581101562000c9b57600092835260209283902082519284015190931b63ffffffff191663ffffffff9290921691909117910155565b600b5490811590811562000e495762000d1a620002a5565b6000815260006020820152925b602084015162000d47906001600160e01b03165b6001600160e01b031690565b9362000d538562001244565b9315908162000e22575b501562000dba57620002b49062000da362000d788562001013565b600b600052917f0175b7a638427703f0dbe7bb9bbf987a2551717b34e79f33b5b1008d1fa01db80190565b9063ffffffff82549181199060201b169116179055565b50620002b462000de362000ddd62000dd2436200107d565b65ffffffffffff1690565b620010e5565b62000e1c62000df28562001013565b62000e0c62000e00620002a5565b63ffffffff9094168452565b6001600160e01b03166020830152565b62000c2d565b5163ffffffff16905063ffffffff62000e3f62000dd2436200107d565b9116143862000d5d565b600b60005262000e817f0175b7a638427703f0dbe7bb9bbf987a2551717b34e79f33b5b1008d1fa01db8840162000bf8565b62000bf8565b9262000d27565b805491821591821562000f885762000e9f620002a5565b6000815260006020820152935b602085015162000ec5906001600160e01b031662000d3b565b9462000ed1866200125d565b9415908162000f61575b501562000f085762000da3620002b49262000ef68662001013565b92600019019060005260206000200190565b50620002b49062000f2162000ddd62000dd2436200107d565b9062000f5b62000f318662001013565b62000f4b62000f3f620002a5565b63ffffffff9095168552565b6001600160e01b03166020840152565b62000cb1565b5163ffffffff16905063ffffffff62000f7e62000dd2436200107d565b9116143862000edb565b62000fa262000e7b60001986018360005260206000200190565b9362000eac565b805491821591821562000ff25762000fc0620002a5565b6000815260006020820152935b602085015162000fe6906001600160e01b031662000d3b565b9462000ed18662001244565b6200100c62000e7b60001986018360005260206000200190565b9362000fcd565b6001600160e01b039081811162001028571690565b60405162461bcd60e51b815260206004820152602760248201527f53616665436173743a2076616c756520646f65736e27742066697420696e20326044820152663234206269747360c81b6064820152608490fd5b65ffffffffffff9081811162001091571690565b60405162461bcd60e51b815260206004820152602660248201527f53616665436173743a2076616c756520646f65736e27742066697420696e203460448201526538206269747360d01b6064820152608490fd5b63ffffffff90818111620010f7571690565b60405162461bcd60e51b815260206004820152602660248201527f53616665436173743a2076616c756520646f65736e27742066697420696e203360448201526532206269747360d01b6064820152608490fd5b60096020527fec8156718a8372b1db44bb411437d0870f3e3790d4a08526d024ce1b0b668f6b546001600160a01b03918216600090815260408120548316929091169081831415806200123b575b620011a357505050565b81620011fc575b505080620011b55750565b6001600160a01b0381166000908152600a6020526040902060008051602062005a5383398151915290620011e99062000fa9565b60408051928352602083019190915290a2565b620012226040828460008051602062005a538339815191529452600a6020522062000e88565b60408051928352602083019190915290a23880620011aa565b50600162001199565b6a7c13bc4b2c133c56000000810180911162000bf25790565b6a7c13bc4b2c133c55ffffff19810190811162000bf2579056fe6080604052600436101561001257600080fd5b60003560e01c806301ffc9a71461040757806306fdde0314610402578063095ea7b3146103fd5780630c7d5cd8146103f85780630e4d51ec146103f35780630fdb0c7d146103ee578063126063ac146103e957806318160ddd146103e45780631b1bddc1146103df57806323b872dd146103da578063248a9ca3146103d55780632f2ff15d146103d0578063300ccb51146103cb578063313ce567146103c657806332665ffb146103c157806332cb6b0c146103bc5780633644e515146103b757806336568abe146103b257806339509351146103ad5780633a46b1a8146103a85780633cb96391146103a357806347e646561461039e5780634bf5d7e914610399578063587cde1e146103945780635909d3c51461038f5780635981b7c01461038a5780635c19a95c146103855780635c975abb146103805780636639a81d1461037b5780636fcfff451461037657806370a0823114610371578063732fb0ed1461036c57806375b238fc146103675780637ecebe001461036257806384b0196e1461035d5780638b9eaf32146103585780638e539e8c1461035357806391d148541461034e57806391ddadf41461034957806395d89b41146103445780639ab24eb01461033f578063a0326d451461033a578063a217fddf14610335578063a457c2d714610330578063a9059cbb1461032b578063b596a6bf14610326578063bf645e8214610321578063c3cda5201461031c578063c686687414610317578063cb653aaa14610312578063cdd78cfc1461030d578063d505accf14610308578063d547741f14610303578063d7fac34b146102fe578063dd62ed3e146102f9578063e2271c9f146102f4578063e9b66f8c146102ef578063edef638b146102ea578063f1127ed8146102e5578063f2a3d623146102e0578063f366819d146102db578063f7b10808146102d65763fb2d4c53146102d157600080fd5b612325565b612290565b6120de565b6120a4565b61201d565b611fff565b611e99565b611e4f565b611e00565b611de2565b611da3565b611c5d565b611c3f565b611c05565b611b5b565b611a30565b6119b1565b61191e565b6118f8565b61184a565b61182e565b6117df565b61177d565b6116d6565b6116aa565b611658565b6114ff565b611495565b6113cb565b61135d565b611322565b611109565b6110cf565b611087565b61106c565b611049565b611027565b611009565b610fee565b610fb3565b610f01565b610ec6565b610ea5565b610cf1565b610c99565b610c05565b610bea565b610bc3565b610b3a565b610a95565b610a7d565b61098a565b61095b565b610890565b610865565b610847565b61080c565b610779565b61061e565b610600565b6105cf565b6104be565b3461045d57602036600319011261045d5760043563ffffffff60e01b811680910361045d57602090637965db0b60e01b811490811561044c575b506040519015158152f35b6301ffc9a760e01b14905038610441565b600080fd5b60005b8381106104755750506000910152565b8181015183820152602001610465565b9060209161049e81518092818552858086019101610462565b601f01601f1916010190565b9060206104bb928181520190610485565b90565b3461045d576000806003193601126105a05760405190806003546104e181612129565b80855291600191808316908115610576575060011461051b575b6105178561050b818703826106a8565b604051918291826104aa565b0390f35b9250600383527fc2575a0e9e593c00f959f8c92f12db2869c3395a3b0502d05e2516446f71f85b5b82841061055e57505050810160200161050b826105176104fb565b80546020858701810191909152909301928101610543565b8695506105179693506020925061050b94915060ff191682840152151560051b82010192936104fb565b80fd5b600435906001600160a01b038216820361045d57565b602435906001600160a01b038216820361045d57565b3461045d57604036600319011261045d576105f56105eb6105a3565b602435903361289e565b602060405160018152f35b3461045d57600036600319011261045d576020601454604051908152f35b3461045d57600036600319011261045d576020601054604051908152f35b634e487b7160e01b600052604160045260246000fd5b604081019081106001600160401b0382111761066d57604052565b61063c565b602081019081106001600160401b0382111761066d57604052565b60c081019081106001600160401b0382111761066d57604052565b90601f801991011681019081106001600160401b0382111761066d57604052565b604051906106d682610652565b565b6040519061014082018281106001600160401b0382111761066d57604052565b604051906106d68261068d565b81601f8201121561045d578035906001600160401b03821161066d5760405192610739601f8401601f1916602001856106a8565b8284526020838301011161045d57816000926020809301838601378301015290565b60843590600582101561045d57565b60043590600582101561045d57565b3461045d5760c036600319011261045d576107926105a3565b6001600160401b0360243581811161045d576107b2903690600401610705565b60643582811161045d576107ca903690600401610705565b6107d261075b565b9060a43593841161045d57610517946107f26107fc953690600401610705565b9360443591613a12565b6040519081529081906020820190565b3461045d57600036600319011261045d5760206040517fb45eae92260baf72ffda338588221db0509ad4d5064b052a6e9fea04988e38fa8152f35b3461045d57600036600319011261045d576020600254604051908152f35b3461045d57602036600319011261045d57602061088861088361076a565b6140c3565b604051908152f35b3461045d57606036600319011261045d576108a96105a3565b6108b16105b9565b6001600160a01b0382166000908152600160209081526040808320338452909152902060443591905492600184016108fa575b6108ee935061278a565b60405160018152602090f35b82841061091657610911836108ee9503338361289e565b6108e4565b60405162461bcd60e51b815260206004820152601d60248201527f45524332303a20696e73756666696369656e7420616c6c6f77616e63650000006044820152606490fd5b3461045d57602036600319011261045d57600435600052600e6020526020600160406000200154604051908152f35b3461045d57604036600319011261045d576004356109a66105b9565b600091808352600e6020526109c16001604085200154612534565b808352600e602090815260408085206001600160a01b0385166000908152925290205460ff16156109f0578280f35b808352600e602090815260408085206001600160a01b038516600090815292529020805460ff1916600117905533916001600160a01b0316907f2f8788117e7eff1d82e926ec794901d17c78024a50270940304540a733656f0d8480a438808280f35b602060031982011261045d57600435906001600160401b03821161045d576104bb91600401610705565b3461045d576020610888610a9036610a53565b61410c565b3461045d57600036600319011261045d57602060405160128152f35b60051115610abb57565b634e487b7160e01b600052602160045260246000fd5b95926104bb999794989592610b0092885260018060a01b03166020880152610120806040890152870190610485565b966060860152608085015260a0840152610b1981610ab1565b60c0830152610b2781610ab1565b60e0820152610100818403910152610485565b3461045d57602036600319011261045d5760043560005260186020526040600020805461051760018060a01b036001840154169260038101546004820154600583015460ff6006850154169160ff60088601541693610bb6600960405197610bb089610ba98160028501612163565b038a6106a8565b016121f9565b95604051998a998a610ad1565b3461045d57600036600319011261045d5760206040516b033b2e3c9fd0803ce80000008152f35b3461045d57600036600319011261045d576020610888613463565b3461045d57604036600319011261045d57610c1e6105b9565b336001600160a01b03821603610c3c57610c3a906004356125e7565b005b60405162461bcd60e51b815260206004820152602f60248201527f416363657373436f6e74726f6c3a2063616e206f6e6c792072656e6f756e636560448201526e103937b632b9903337b91039b2b63360891b6064820152608490fd5b3461045d57604036600319011261045d57610cb26105a3565b3360009081526001602090815260408083206001600160a01b03851684529091529020546024358101809111610cec576105f5913361289e565b61267a565b3461045d57604036600319011261045d57610d0a6105a3565b60243590610d2965ffffffffffff610d2143613946565b168310612a3c565b6001600160a01b03166000908152600a6020526040812080549290918360058111610df1575b50905b838210610da057505081610d79575050602060005b6040516001600160e01b039091168152f35b610d94610d9b91602093600019019060005260206000200190565b5460201c90565b610d67565b9092610dac8185613776565b908263ffffffff610dd1610dc7858860005260206000200190565b5463ffffffff1690565b161115610de15750925b90610d52565b9350610dec90612690565b610ddb565b80610e01610e079296939661378b565b90612a88565b908263ffffffff610e22610dc7858860005260206000200190565b161115610e325750925b38610d4f565b9350610e3d90612690565b610e2c565b90610e5560209282815194859201610462565b0190565b6020610e72918160405193828580945193849201610462565b8101601581520301902090565b6020610e98918160405193828580945193849201610462565b8101601681520301902090565b3461045d576020610ebd610eb836610a53565b610e59565b54604051908152f35b3461045d57600036600319011261045d5760206040517f5aa58c694aeb083df8754bf5e98675317e4137a5a8a2c6188d0228869e43da7e8152f35b3461045d57600036600319011261045d574365ffffffffffff610f2343613946565b1603610f6e57610517604051610f3881610652565b601d81527f6d6f64653d626c6f636b6e756d6265722666726f6d3d64656661756c740000006020820152604051918291826104aa565b60405162461bcd60e51b815260206004820152601d60248201527f4552433230566f7465733a2062726f6b656e20636c6f636b206d6f64650000006044820152606490fd5b3461045d57602036600319011261045d5760206001600160a01b0380610fd76105a3565b166000526009825260406000205416604051908152f35b3461045d57600036600319011261045d57602061088861436a565b3461045d57600036600319011261045d576020601154604051908152f35b3461045d57602036600319011261045d57610c3a6110436105a3565b33612ae1565b3461045d57600036600319011261045d57602060ff600d54166040519015158152f35b3461045d57600036600319011261045d57602061088861452d565b3461045d57602036600319011261045d576001600160a01b036110a86105a3565b16600052600a60205260206110c16040600020546139ad565b63ffffffff60405191168152f35b3461045d57602036600319011261045d576001600160a01b036110f06105a3565b1660005260006020526020604060002054604051908152f35b3461045d576000806003193601126105a057600280600c54146112dd57600c81905533600090815260208190526040902054826111478215156144ab565b336000908152601b602052604090206111609054612690565b601154811161125157600361117f826000526019602052604060002090565b015442101580611220575b61119d575b61119890613eaf565b611160565b906111d6611198916111d086546111cb8760016111c4896000526019602052604060002090565b015461302d565b613756565b906126ca565b9161121961120c3360046111f4856000526019602052604060002090565b019060018060a01b0316600052602052604060002090565b805460ff19166001179055565b905061118f565b5061124c6112486112413360046111f4866000526019602052604060002090565b5460ff1690565b1590565b61118a565b848281811561126081156144e8565b601154336000908152601b60205260409020558282916112d3575b8280929181923390f1156112ce5760115460408051928352602083019190915233917fa1c93169468f71ef26f4adf10bca8df21460f11843a01ed9c69da306e33c38479190a26112cb6001600c55565b80f35b6133d5565b6108fc915061127b565b60405162461bcd60e51b815260206004820152601f60248201527f5265656e7472616e637947756172643a207265656e7472616e742063616c6c006044820152606490fd5b3461045d57600036600319011261045d5760206040517fa49807205ce4d355092ef5a8a18f56e8913cf4a201fbe287825b095693c217758152f35b3461045d57602036600319011261045d576001600160a01b0361137e6105a3565b1660005260076020526020604060002054604051908152f35b90815180825260208080930193019160005b8281106113b7575050505090565b8351855293810193928101926001016113a9565b3461045d57600036600319011261045d576114666114087f00000000000000000000000000000000000000000000000000000000000000006135a3565b6105176114347f000000000000000000000000000000000000000000000000000000000000000061369c565b6114746040519161144483610672565b60008352604051958695600f60f81b875260e0602088015260e0870190610485565b908582036040870152610485565b90466060850152306080850152600060a085015283820360c0850152611397565b3461045d57600036600319011261045d576114ae61452d565b60105490600082156114f657506105176114ca83600f54613756565b6114d261436a565b90604051948594859094939260609260808301968352602083015260408201520152565b610517906114ca565b3461045d57602036600319011261045d5760043561152e65ffffffffffff61152643613946565b168210612a3c565b600b5490600082600581116115f1575b50905b82821061158e57828061155b575060405160008152602090f35b600b600052602090610d9b907f0175b7a638427703f0dbe7bb9bbf987a2551717b34e79f33b5b1008d1fa01db801610d94565b909161159a8184613776565b600b600052908263ffffffff6115d17f0175b7a638427703f0dbe7bb9bbf987a2551717b34e79f33b5b1008d1fa01db98501610dc7565b1611156115e15750915b90611541565b92506115ec90612690565b6115db565b80610e016116019295939561378b565b600b600052908263ffffffff6116387f0175b7a638427703f0dbe7bb9bbf987a2551717b34e79f33b5b1008d1fa01db98501610dc7565b1611156116485750915b3861153e565b925061165390612690565b611642565b3461045d57604036600319011261045d57602060ff61169e6116786105b9565b600435600052600e845260406000209060018060a01b0316600052602052604060002090565b54166040519015158152f35b3461045d57600036600319011261045d5760206116c643613946565b65ffffffffffff60405191168152f35b3461045d576000806003193601126105a05760405190806004546116f981612129565b808552916001918083169081156105765750600114611722576105178561050b818703826106a8565b9250600483527f8a35acfbc15ff81a39ae7d344fd709f28e8600b4aa8c65c6b64bfe7fe36bd19b5b82841061176557505050810160200161050b826105176104fb565b8054602085870181019190915290930192810161174a565b3461045d57602036600319011261045d576001600160a01b0361179e6105a3565b16600052600a6020526040600020805480156000146117c557505060405160008152602090f35b6020916117d6916000190190611994565b5054811c610d67565b3461045d57602036600319011261045d57600435600090815260196020908152604091829020805460018201546002830154600390930154855192835293820152928301526060820152608090f35b3461045d57600036600319011261045d57602060405160008152f35b3461045d57604036600319011261045d576118636105a3565b602435903360005260016020526118908160406000209060018060a01b0316600052602052604060002090565b54918083106118a5576108ee9203903361289e565b60405162461bcd60e51b815260206004820152602560248201527f45524332303a2064656372656173656420616c6c6f77616e63652062656c6f77604482015264207a65726f60d81b6064820152608490fd5b3461045d57604036600319011261045d576105f56119146105a3565b602435903361278a565b3461045d576000806003193601126105a057808060a0925260176020526040808220549160018152818120549160028252808220549060038352808084205493600481522054938151958652602086015284015260608301526080820152f35b634e487b7160e01b600052603260045260246000fd5b80548210156119ac5760005260206000200190600090565b61197e565b3461045d57604036600319011261045d576004356001600160401b03811161045d576119e1903690600401610705565b6119ed60243591610e7f565b805482101561045d57602091611a0291611994565b90546040519160031b1c8152f35b6064359060ff8216820361045d57565b6084359060ff8216820361045d57565b3461045d5760c036600319011261045d57611a496105a3565b60443590602435611a58611a10565b92804211611b1657611ae8611b1191610c3a9560405190611ad082611ac26020820195898b8860609194939260808201957fe48329057bfd03d55e49b547132e39cffd9c1820ad7b9d4c5307691425d15adf835260018060a01b0316602083015260408201520152565b03601f1981018452836106a8565b611ae360a435936084359351902061357d565b6132a3565b6001600160a01b0381166000908152600760205260409020805460018101909155909214612a95565b612ae1565b60405162461bcd60e51b815260206004820152601d60248201527f4552433230566f7465733a207369676e617475726520657870697265640000006044820152606490fd5b3461045d57611b6936610a53565b611b7281610e59565b54611b86611b7f83610e7f565b5492610e7f565b6040519283918054808652602080960191600052856000209060005b87828210611bd857876105178888611bbc828a03836106a8565b6040519485948552840152606060408401526060830190611397565b835485529093019260019283019201611ba2565b611bf581610ab1565b6000526017602052604060002090565b3461045d57602036600319011261045d57611c1e61076a565b611c2781610ab1565b60005260176020526020604060002054604051908152f35b3461045d57600036600319011261045d576020601354604051908152f35b3461045d5760e036600319011261045d57611c766105a3565b611c7e6105b9565b6044359060643592611c8e611a20565b93804211611d5e57611d46611d5991611ac2610c3a97611d33611ccc8760018060a01b03166000526007602052604060002090815491600183019055565b604080517f6e71edae12b1b97f4d1f60370fef10105fa2faae0126114a169c64845d6126c9602082019081526001600160a01b03808c1693830193909352918b166060820152608081018c905260a081019290925260c082019590955292839060e0820190565b611ae360c4359360a4359351902061357d565b6001600160a01b038381169116146129ce565b61289e565b60405162461bcd60e51b815260206004820152601d60248201527f45524332305065726d69743a206578706972656420646561646c696e650000006044820152606490fd5b3461045d57604036600319011261045d57610c3a600435611dc26105b9565b9080600052600e602052611ddd600160406000200154612534565b6125e7565b3461045d57600036600319011261045d576020600f54604051908152f35b3461045d57604036600319011261045d576020610ebd611e1e6105a3565b611e266105b9565b6001600160a01b0391821660009081526001855260408082209290931681526020919091522090565b3461045d57604036600319011261045d57611e686105a3565b6001600160a01b03166000908152601a602052604090208054602435919082101561045d57602091611a0291611994565b3461045d57602036600319011261045d57611f1a600435611eb86123fd565b611ed7611ecf826000526018602052604060002090565b541515613ee9565b611f0a611efb6006611ef3846000526018602052604060002090565b015460ff1690565b611f0481610ab1565b15613f35565b6000526018602052604060002090565b60068101805460ff191660011790556001810154611f46906001600160a01b0316600483015490614683565b600f54611f61611f5c60038401928354906126ca565b600f55565b611fb1611fab611f9860086009860195611f86611f7d88613ffa565b548754906126ca565b611f8f88613ffa565b55015460ff1690565b92611fa284611bec565b549054906126ca565b91611bec565b557fed030ee8c80bfa4f3fb2c7923a1bdb8f4604b1cab750b7ea3501c2293955dd77611ffa611fe9611fe284613ffa565b5493614017565b604051938452929081906020820190565b0390a2005b3461045d57600036600319011261045d576020601254604051908152f35b3461045d57604036600319011261045d576120366105a3565b63ffffffff602435818116810361045d576120806120869160409460006020875161206081610652565b82815201526001600160a01b03166000908152600a602052859020611994565b50612a1a565b8251815190921682526020908101516001600160e01b031690820152f35b3461045d57602036600319011261045d576001600160a01b036120c56105a3565b16600052601b6020526020604060002054604051908152f35b3461045d57606036600319011261045d57602435600581101561045d576044356001600160401b03811161045d57602091612120610888923690600401610705565b9060043561402d565b90600182811c92168015612159575b602083101461214357565b634e487b7160e01b600052602260045260246000fd5b91607f1691612138565b906000929180549161217483612129565b9182825260019384811690816000146121d65750600114612196575b50505050565b90919394506000526020928360002092846000945b8386106121c2575050505001019038808080612190565b8054858701830152940193859082016121ab565b9294505050602093945060ff191683830152151560051b01019038808080612190565b906106d661220d9260405193848092612163565b03836106a8565b96926122479061227297936104bb9c9a9697938a5260018060a01b031660208a01526101408060408b0152890190610485565b946060880152608087015260a086015261226081610ab1565b60c085015283820360e0850152610485565b9261227c81610ab1565b610100820152610120818403910152610485565b3461045d57602036600319011261045d5760043560005260186020526040600020805461051760018060a01b0360018401541692604051906122d98261220d8160028501612163565b60038101546004820154600583015460ff600685015416916122fd600786016121f9565b936123186009612311600889015460ff1690565b97016121f9565b966040519a8b9a8b612214565b61232e36610a53565b506123376123fd565b34156123b95761235061234b601154613eaf565b601155565b601154612367816000526019602052604060002090565b90815534600182015542600282015560036123814261269e565b9101556011546040513481527fae52e650e0d7846103a034e23a81f401f776de50bb5bb37a4c8900daa5e0f5b7908060208101611ffa565b606460405162461bcd60e51b815260206004820152602060248201527f4469766964656e6420616d6f756e74206d75737420626520706f7369746976656044820152fd5b3360009081527fffc6ee3e4785c143e1d4f7ff9785d2ddbd7bf0ad1148b890efdcfc74e32b5b6b602052604090205460ff161561243657565b6124db60486124c3612447336130f1565b6124b5612452613181565b6040519485937f416363657373436f6e74726f6c3a206163636f756e74200000000000000000006020860152612492815180926020603789019101610462565b84017001034b99036b4b9b9b4b733903937b6329607d1b60378201520190610e42565b03601f1981018352826106a8565b60405162461bcd60e51b8152918291600483016104aa565b0390fd5b3360009081527f3fd50133e5a3ff06752cde24e382b84d3e5a0a43ed2c34a28b62622aeb3ba920602052604090205460ff161561251857565b6124db60486124c3612529336130f1565b6124b5612452613212565b6000818152600e6020908152604080832033845290915290205460ff16156125595750565b612562336130f1565b61256a613040565b9160306125768461306b565b53607861258284613078565b5360415b600181116125a5576124db60486124c3856124b58861245288156130a6565b90600f81169060108210156119ac576125e2916f181899199a1a9b1b9c1cb0b131b232b360811b901a6125d88487613088565b5360041c91613099565b612586565b600090808252600e60205260ff61261384604085209060018060a01b0316600052602052604060002090565b541661261e57505050565b808252600e602090815260408084206001600160a01b038616600090815292529020805460ff1916905533926001600160a01b0316917ff6391f5c32d9c69d2a47ea670b442974b53935d1edc7fd64eb21e047a839171b9080a4565b634e487b7160e01b600052601160045260246000fd5b9060018201809211610cec57565b9062093a808201809211610cec57565b9060088201809211610cec57565b90600a8201809211610cec57565b91908201809211610cec57565b156126de57565b60405162461bcd60e51b815260206004820152602360248201527f45524332303a207472616e7366657220746f20746865207a65726f206164647260448201526265737360e81b6064820152608490fd5b1561273657565b60405162461bcd60e51b815260206004820152602660248201527f45524332303a207472616e7366657220616d6f756e7420657863656564732062604482015265616c616e636560d01b6064820152608490fd5b6001600160a01b03929190838116801561284b576106d6948316906127b08215156126d7565b6127b861455d565b6001600160a01b03831660009081526020819052604090208590546127df8282101561272f565b036127fc8460018060a01b03166000526000602052604060002090565b556001600160a01b0384166000908152602081815260409182902080548801905590518681527fddf252ad1be2c89b69c2b068fc378daa952ba7f163c4a11628f55a4df523b3ef9190a36145ec565b60405162461bcd60e51b815260206004820152602560248201527f45524332303a207472616e736665722066726f6d20746865207a65726f206164604482015264647265737360d81b6064820152608490fd5b6001600160a01b03808216929190831561297d57821693841561292d57806129177f8c5be1e5ebec7d5bd14f71427d1e84f3dd0314c0f7b2291e5b200ac8c7c3b925946129006129289560018060a01b03166000526001602052604060002090565b9060018060a01b0316600052602052604060002090565b556040519081529081906020820190565b0390a3565b60405162461bcd60e51b815260206004820152602260248201527f45524332303a20617070726f766520746f20746865207a65726f206164647265604482015261737360f01b6064820152608490fd5b60405162461bcd60e51b8152602060048201526024808201527f45524332303a20617070726f76652066726f6d20746865207a65726f206164646044820152637265737360e01b6064820152608490fd5b156129d557565b60405162461bcd60e51b815260206004820152601e60248201527f45524332305065726d69743a20696e76616c6964207369676e617475726500006044820152606490fd5b90604051612a2781610652565b602081935463ffffffff81168352811c910152565b15612a4357565b60405162461bcd60e51b815260206004820152601960248201527f4552433230566f7465733a20667574757265206c6f6f6b7570000000000000006044820152606490fd5b91908203918211610cec57565b15612a9c57565b60405162461bcd60e51b815260206004820152601960248201527f4552433230566f7465733a20696e76616c6964206e6f6e6365000000000000006044820152606490fd5b6001600160a01b039081166000818152600960208181526040808420805485845291852054939092528686166001600160a01b0319821681179092556106d69692959294921692909183917f3134e8a2e6d97e929a7e54011ea5485d7d196dd5f0ba4d4ef95803e8e3fc257f9080a45b6001600160a01b03808316939291168084141580612d63575b612b745750505050565b80612be2575b5082612b87575b80612190565b6001600160a01b03166000908152600a602052604090207fdec2bacdd2f05b59de34da9b523dff8be42e5e38e818c82fdb0bae774387a72491612bc991612e2d565b60408051928352602083019190915290a2388080612b81565b80600052600a6020527fdec2bacdd2f05b59de34da9b523dff8be42e5e38e818c82fdb0bae774387a7246040600020805480159182600014612d4057612c266106c9565b6000815260006020820152915b6020830151612c52906001600160e01b03165b6001600160e01b031690565b92612c5d898561476b565b94159081612d1d575b5015612cbb57612c8e612ca592612c7c866138dd565b92600019019060005260206000200190565b9063ffffffff82549181199060201b169116179055565b604080519182526020820192909252a238612b7a565b50612d1890612cdf612cda612ccf43613946565b65ffffffffffff1690565b6139ad565b90612d13612cec866138dd565b612d03612cf76106c9565b63ffffffff9095168552565b6001600160e01b03166020840152565b612dd3565b612ca5565b5163ffffffff16905063ffffffff612d37612ccf43613946565b91161438612c66565b612d5d612d5860001984018360005260206000200190565b612a1a565b91612c33565b50821515612b6a565b600b5490600160401b82101561066d576001820180600b558210156119ac57600b600052805160209182015190911b63ffffffff191663ffffffff91909116177f0175b7a638427703f0dbe7bb9bbf987a2551717b34e79f33b5b1008d1fa01db990910155565b8054600160401b81101561066d57612df091600182018155611994565b612e1757815160209283015190921b63ffffffff191663ffffffff92909216919091179055565b634e487b7160e01b600052600060045260246000fd5b909181549182159283600014612ec957612e456106c9565b60008152600060208201525b6020810151612e7390612e6c906001600160e01b0316612c46565b9687614778565b94159081612ea6575b5015612e9257612c8e6106d692612c7c866138dd565b506106d690612cdf612cda612ccf43613946565b5163ffffffff16905063ffffffff612ec0612ccf43613946565b91161438612e7c565b612ee1612d5860001983018460005260206000200190565b612e51565b600b5490918115918215612fe257612efc6106c9565b60008152600060208201525b6020810151612f2a90612f23906001600160e01b0316612c46565b9586614778565b93159081612fbf575b5015612f74576106d690612c8e612f49856138dd565b600b600052917f0175b7a638427703f0dbe7bb9bbf987a2551717b34e79f33b5b1008d1fa01db80190565b506106d6612f87612cda612ccf43613946565b612fba612f93856138dd565b612faa612f9e6106c9565b63ffffffff9094168452565b6001600160e01b03166020830152565b612d6c565b5163ffffffff16905063ffffffff612fd9612ccf43613946565b91161438612f33565b600b6000526130127f0175b7a638427703f0dbe7bb9bbf987a2551717b34e79f33b5b1008d1fa01db88201612a1a565b612f08565b90606482029180830460641490151715610cec57565b81810292918115918404141715610cec57565b60405190608082018281106001600160401b0382111761066d57604052604282526060366020840137565b8051156119ac5760200190565b8051600110156119ac5760210190565b9081518110156119ac570160200190565b8015610cec576000190190565b156130ad57565b606460405162461bcd60e51b815260206004820152602060248201527f537472696e67733a20686578206c656e67746820696e73756666696369656e746044820152fd5b60405190606082018281106001600160401b0382111761066d57604052602a8252604036602084013760306131258361306b565b53607861313183613078565b536029905b60018211613149576104bb9150156130a6565b600f81169060108210156119ac5761317b916f181899199a1a9b1b9c1cb0b131b232b360811b901a6125d88486613088565b90613136565b7fa49807205ce4d355092ef5a8a18f56e8913cf4a201fbe287825b095693c217756131aa613040565b9060306131b68361306b565b5360786131c283613078565b536041905b600182116131da576104bb9150156130a6565b600f81169060108210156119ac5761320c916f181899199a1a9b1b9c1cb0b131b232b360811b901a6125d88486613088565b906131c7565b7f5aa58c694aeb083df8754bf5e98675317e4137a5a8a2c6188d0228869e43da7e61323b613040565b9060306132478361306b565b53607861325383613078565b536041905b6001821161326b576104bb9150156130a6565b600f81169060108210156119ac5761329d916f181899199a1a9b1b9c1cb0b131b232b360811b901a6125d88486613088565b90613258565b916104bb93916132b2936133e1565b9190916132be81610ab1565b806132c65750565b6132cf81610ab1565b6001810361331c5760405162461bcd60e51b815260206004820152601860248201527f45434453413a20696e76616c6964207369676e617475726500000000000000006044820152606490fd5b61332581610ab1565b600281036133725760405162461bcd60e51b815260206004820152601f60248201527f45434453413a20696e76616c6964207369676e6174757265206c656e677468006044820152606490fd5b8061337e600392610ab1565b1461338557565b60405162461bcd60e51b815260206004820152602260248201527f45434453413a20696e76616c6964207369676e6174757265202773272076616c604482015261756560f01b6064820152608490fd5b6040513d6000823e3d90fd5b9291907f7fffffffffffffffffffffffffffffff5d576e7357a4501ddfe92f46681b20a083116134575791608094939160ff602094604051948552168484015260408301526060820152600093849182805260015afa156112ce5781516001600160a01b03811615613451579190565b50600190565b50505050600090600390565b307f00000000000000000000000000000000000000000000000000000000000000006001600160a01b03161480613554575b156134be577f000000000000000000000000000000000000000000000000000000000000000090565b60405160208101907f8b73c3c69bb8fe3d512ecc4cf759cc79239f7b179b0ffacaa9a75d522b39400f82527f000000000000000000000000000000000000000000000000000000000000000060408201527f000000000000000000000000000000000000000000000000000000000000000060608201524660808201523060a082015260a0815261354e8161068d565b51902090565b507f00000000000000000000000000000000000000000000000000000000000000004614613495565b604290613588613463565b906040519161190160f01b8352600283015260228201522090565b60ff81146135e15760ff811690601f82116135cf57604051916135c583610652565b8252602082015290565b604051632cd44ac360e21b8152600490fd5b506040516005548160006135f483612129565b8083529260019081811690811561367a575060011461361b575b506104bb925003826106a8565b6005600090815291507f036b6384b5eca791c62761152d0c79bb0604c104a5fb6f4eb0703f3154bb3db05b84831061365f57506104bb93505081016020013861360e565b81935090816020925483858901015201910190918492613646565b9050602092506104bb94915060ff191682840152151560051b8201013861360e565b60ff81146136be5760ff811690601f82116135cf57604051916135c583610652565b506040516006548160006136d183612129565b8083529260019081811690811561367a57506001146136f757506104bb925003826106a8565b6006600090815291507ff652222313e28459528d920b65115c16c04f3efc82aaedc97be59f3f377c0d3f5b84831061373b57506104bb93505081016020013861360e565b81935090816020925483858901015201910190918492613722565b8115613760570490565b634e487b7160e01b600052601260045260246000fd5b90808216911860011c8101809111610cec5790565b80156138c5578061385e61385761384d61384361383961382f61382561381b60016104bb9a6000908b60801c806138b9575b508060401c806138ac575b508060201c8061389f575b508060101c80613892575b508060081c80613885575b508060041c80613878575b508060021c8061386b575b50821c613864575b811c1b613814818b613756565b0160011c90565b613814818a613756565b6138148189613756565b6138148188613756565b6138148187613756565b6138148186613756565b6138148185613756565b8092613756565b906138cb565b8101613807565b60029150910190386137ff565b60049150910190386137f4565b60089150910190386137e9565b60109150910190386137de565b60209150910190386137d3565b60409150910190386137c8565b915050608090386137bd565b50600090565b90808210156138d8575090565b905090565b6001600160e01b03908181116138f1571690565b60405162461bcd60e51b815260206004820152602760248201527f53616665436173743a2076616c756520646f65736e27742066697420696e20326044820152663234206269747360c81b6064820152608490fd5b65ffffffffffff90818111613959571690565b60405162461bcd60e51b815260206004820152602660248201527f53616665436173743a2076616c756520646f65736e27742066697420696e203460448201526538206269747360d01b6064820152608490fd5b63ffffffff908181116139be571690565b60405162461bcd60e51b815260206004820152602660248201527f53616665436173743a2076616c756520646f65736e27742066697420696e203360448201526532206269747360d01b6064820152608490fd5b613b5d7f0832c747ae2a7bde86d5d19147bd5ce7024b9504050f3dcca5f0d9f61cd75e239395969296613a436124df565b613a51601254881015613b63565b613a5d88511515613baf565b613a6986511515613bfb565b613a7584511515613c40565b613afc613a83601054612690565b988997613a9187858c61402d565b613a996106d8565b8a81526001600160a01b03881660208201529260408401528a606084015260808301524260a0830152600060c083015260e0820152613adc836101008301613c81565b85610120820152613af7886000526018602052604060002090565b613dc7565b6001600160a01b0383166000908152601a60205260409020613b24908790613e7a565b613e7a565b613b3186613b1f86610e7f565b613b44613b3f601054613eaf565b601055565b6040516001600160a01b03909316969293849384613ebe565b0390a390565b15613b6a57565b60405162461bcd60e51b815260206004820152601c60248201527f50726f70657274792076616c75652062656c6f77206d696e696d756d000000006044820152606490fd5b15613bb657565b60405162461bcd60e51b815260206004820152601960248201527f50726f70657274792061646472657373207265717569726564000000000000006044820152606490fd5b15613c0257565b60405162461bcd60e51b8152602060048201526016602482015275111bd8dd5b595b9d081a185cda081c995c5d5a5c995960521b6044820152606490fd5b15613c4757565b60405162461bcd60e51b815260206004820152601260248201527110da5d1e4818dbd919481c995c5d5a5c995960721b6044820152606490fd5b613c8a82610ab1565b52565b90601f8111613c9b57505050565b600091825260208220906020601f850160051c83019410613cd7575b601f0160051c01915b828110613ccc57505050565b818155600101613cc0565b9092508290613cb7565b91909182516001600160401b03811161066d57613d0881613d028454612129565b84613c8d565b602080601f8311600114613d44575081929394600092613d39575b50508160011b916000199060031b1c1916179055565b015190503880613d23565b90601f19831695613d5a85600052602060002090565b926000905b888210613d9757505083600195969710613d7e575b505050811b019055565b015160001960f88460031b161c19169055388080613d74565b80600185968294968601518155019501930190613d5f565b90613db981610ab1565b60ff80198354169116179055565b8151815560208201516001820180546001600160a01b0319166001600160a01b039092169190911790556106d69160099061012090613e0d604082015160028601613ce1565b606081015160038501556080810151600485015560a08101516005850155613e4560c0820151613e3c81610ab1565b60068601613daf565b613e5660e082015160078601613ce1565b613e71610100820151613e6881610ab1565b60088601613daf565b01519101613ce1565b8054600160401b81101561066d57613e9791600182018155611994565b819291549060031b91821b91600019901b1916179055565b6000198114610cec5760010190565b939291613edb906040928652606060208701526060860190610485565b93613ee583610ab1565b0152565b15613ef057565b60405162461bcd60e51b815260206004820152601760248201527f50726f706572747920646f6573206e6f742065786973740000000000000000006044820152606490fd5b15613f3c57565b60405162461bcd60e51b815260206004820152601460248201527350726f7065727479206e6f742070656e64696e6760601b6044820152606490fd5b600092918154613f8781612129565b92600191808316908115613fdf5750600114613fa35750505050565b90919293945060005260209081600020906000915b858310613fce5750505050019038808080612190565b805485840152918301918101613fb8565b60ff1916845250505081151590910201915038808080612190565b602061400c9160405192838092613f78565b601581520301902090565b6140279060405191828092613f78565b03902090565b919091600f549081156140b157670de0b6b3a76400009182820291808304841481151715610cec578101809111610cec5761406e6140749161407a93613756565b946140c3565b9261410c565b906b0295be96e6406697200000009380850294850403610cec576140a76140ad936064959286930461302d565b0461302d565b0490565b5050505069a968163f0a57b400000090565b6140cc81610ab1565b60018114614106576140dd81610ab1565b6002811461410057806140f1600492610ab1565b146140fb57606490565b606990565b50606e90565b50607890565b604051614121816124b5602082018095610e42565b5190207f7565306c94e19ffadac91ff9491e0465bef48e2ce66079d3919a2e836c66caa281148015614274575b61426e577f7ce7ad787564a1a5b2de3174219d55c76367c05413ff67e2ac4f0a6973bba8a181148015614245575b801561421c575b614106577fa3ae6309d53d0ee7fd725a7482da89c8dcfeaa89a4055f51c2abc6b9c8f1d12581149081156141f2575b81156141c8575b506141c357606490565b606e90565b7ff4af7c06580393535c4e6c30aee4ff474f581b4eb6c2d2978966f968adcb9906915014386141b9565b7f2537590685e5f7ad8ba473de672bf96e801b06932ef9c77fb3149bff0cea9838811491506141b2565b507feed53daff12195494d0431c39fb1cc2078f56d22fc6d23c90b756f2f793948e28114614183565b507f05aba46f92e1186ca90d5093e19b47d6d21597a958eaef4af9ef7cd8052982f5811461417c565b50608290565b507f342e1b7d20f92e33ba7c6ebef5a7b50ebb59f7c23abdd1d63dd414420ab3c560811461414e565b604051906142aa82610652565b60038252624d554d60e81b6020830152565b604051906142c982610652565b600382526211115360ea1b6020830152565b604051906142e882610652565b600482526342414e4760e01b6020830152565b6040519061430882610652565b600482526321a422a760e11b6020830152565b6040519061432882610652565b600382526212165160ea1b6020830152565b6040519061434782610652565b6003825262282aa760e91b6020830152565b9060068110156119ac5760051b0190565b600f549081156144a557600061437e6106f8565b61438661429d565b81526143906142bc565b602082015261439d6142db565b60408201526143aa6142fb565b60608201526143b761431b565b60808201526143c461433a565b60a0820152815b6006811061444c575050600090815b600581106143ee57506104bb9293506126ca565b6143f781610ab1565b61440d856111cb61440784611bec565b54613017565b8015159081614440575b5061442b575b61442690613eaf565b6143da565b91614438614426916126bc565b92905061441d565b60289150111538614417565b614466856111cb6144076144608587614359565b51610e59565b8015159081614499575b50614484575b61447f90613eaf565b6143cb565b9161449161447f916126ae565b929050614476565b601e9150111538614470565b60009150565b156144b257565b60405162461bcd60e51b815260206004820152600e60248201526d139bc81d1bdad95b9cc81a195b1960921b6044820152606490fd5b156144ef57565b60405162461bcd60e51b81526020600482015260166024820152754e6f206469766964656e647320617661696c61626c6560501b6044820152606490fd5b60025480156138c557600f5490670de0b6b3a764000091828102928184041490151715610cec576104bb91613756565b60ff600d541661456957565b60405162461bcd60e51b815260206004820152601060248201526f14185d5cd8589b194e881c185d5cd95960821b6044820152606490fd5b60096020527fec8156718a8372b1db44bb411437d0870f3e3790d4a08526d024ce1b0b668f6b546001600160a01b03918216600090815260409020546106d693929081169116612b51565b6001600160a01b039081166000908152600960205260408082205493831682529020546106d693929082169116612b51565b1561462557565b60405162461bcd60e51b815260206004820152603060248201527f4552433230566f7465733a20746f74616c20737570706c79207269736b73206f60448201526f766572666c6f77696e6720766f74657360801b6064820152608490fd5b906001600160a01b03821680156147265761469c61455d565b600254828101809111610cec5761472293614707926146bb8593600255565b6001600160a01b038216600090815260208181526040808320805487019055518581527fddf252ad1be2c89b69c2b068fc378daa952ba7f163c4a11628f55a4df523b3ef9190a36145a1565b60025461471d906001600160e01b03101561461e565b612ee6565b5050565b60405162461bcd60e51b815260206004820152601f60248201527f45524332303a206d696e7420746f20746865207a65726f2061646472657373006044820152606490fd5b908103908111610cec5790565b908101809111610cec579056fea2646970667358221220494acc16f9ee2e16ee9cac149f3a8c3cb44c58c1de60ae5df394dde8a0c5cd5664736f6c634300081300332f8788117e7eff1d82e926ec794901d17c78024a50270940304540a733656f0ddec2bacdd2f05b59de34da9b523dff8be42e5e38e818c82fdb0bae774387a724",
  "linkReferences": {},
  "deployedLinkReferences": {}
}