{
  "_format": "hh-sol-artifact-1",
  "contractName": "UAEDualTokenClassifier",
  "sourceName": "contracts/UAE/UAEDualTokenClassifier.sol",
  "abi": [
    {
      "inputs": [],
      "stateMutability": "nonpayable",
      "type": "constructor"
    },
    {
      "anonymous": false,
      "inputs": [
        {
          "indexed": true,
          "internalType": "address",
          "name": "developer",
          "type": "address"
        },
        {
          "indexed": false,
          "internalType": "string",
          "name": "name",
          "type": "string"
        },
        {
          "indexed": false,
          "internalType": "enum UAEDualTokenClassifier.DeveloperTier",
          "name": "tier",
          "type": "uint8"
        },
        {
          "indexed": false,
          "internalType": "string",
          "name": "reraLicense",
          "type": "string"
        }
      ],
      "name": "DeveloperRegistered",
      "type": "event"
    },
    {
      "anonymous": false,
      "inputs": [
        {
          "indexed": true,
          "internalType": "address",
          "name": "previousOwner",
          "type": "address"
        },
        {
          "indexed": true,
          "internalType": "address",
          "name": "newOwner",
          "type": "address"
        }
      ],
      "name": "OwnershipTransferred",
      "type": "event"
    },
    {
      "anonymous": false,
      "inputs": [
        {
          "indexed": false,
          "internalType": "address",
          "name": "account",
          "type": "address"
        }
      ],
      "name": "Paused",
      "type": "event"
    },
    {
      "anonymous": false,
      "inputs": [
        {
          "indexed": true,
          "internalType": "uint256",
          "name": "propertyId",
          "type": "uint256"
        },
        {
          "indexed": false,
          "internalType": "enum UAEDualTokenClassifier.TokenType",
          "name": "tokenType",
          "type": "uint8"
        },
        {
          "indexed": false,
          "internalType": "uint256",
          "name": "valueInAED",
          "type": "uint256"
        },
        {
          "indexed": false,
          "internalType": "address",
          "name": "developer",
          "type": "address"
        },
        {
          "indexed": false,
          "internalType": "string",
          "name": "zone",
          "type": "string"
        }
      ],
      "name": "PropertyClassified",
      "type": "event"
    },
    {
      "anonymous": false,
      "inputs": [
        {
          "indexed": false,
          "internalType": "address",
          "name": "account",
          "type": "address"
        }
      ],
      "name": "Unpaused",
      "type": "event"
    },
    {
      "anonymous": false,
      "inputs": [
        {
          "indexed": false,
          "internalType": "string",
          "name": "zone",
          "type": "string"
        },
        {
          "indexed": false,
          "internalType": "bool",
          "name": "isPremium",
          "type": "bool"
        }
      ],
      "name": "ZoneClassificationUpdated",
      "type": "event"
    },
    {
      "inputs": [],
      "name": "LUXURY_THRESHOLD",
      "outputs": [
        {
          "internalType": "uint256",
          "name": "",
          "type": "uint256"
        }
      ],
      "stateMutability": "view",
      "type": "function"
    },
    {
      "inputs": [],
      "name": "MINIMUM_COMPLIANCE_SCORE",
      "outputs": [
        {
          "internalType": "uint256",
          "name": "",
          "type": "uint256"
        }
      ],
      "stateMutability": "view",
      "type": "function"
    },
    {
      "inputs": [],
      "name": "PROPX_MINIMUM_VALUE",
      "outputs": [
        {
          "internalType": "uint256",
          "name": "",
          "type": "uint256"
        }
      ],
      "stateMutability": "view",
      "type": "function"
    },
    {
      "inputs": [],
      "name": "XERA_MINIMUM_VALUE",
      "outputs": [
        {
          "internalType": "uint256",
          "name": "",
          "type": "uint256"
        }
      ],
      "stateMutability": "view",
      "type": "function"
    },
    {
      "inputs": [
        {
          "internalType": "string",
          "name": "zone",
          "type": "string"
        },
        {
          "internalType": "enum UAEDualTokenClassifier.UAEEmirate",
          "name": "emirate",
          "type": "uint8"
        }
      ],
      "name": "addPremiumZone",
      "outputs": [],
      "stateMutability": "nonpayable",
      "type": "function"
    },
    {
      "inputs": [
        {
          "internalType": "enum UAEDualTokenClassifier.PropertyCategory",
          "name": "",
          "type": "uint8"
        }
      ],
      "name": "categoryMultipliers",
      "outputs": [
        {
          "internalType": "uint256",
          "name": "",
          "type": "uint256"
        }
      ],
      "stateMutability": "view",
      "type": "function"
    },
    {
      "inputs": [
        {
          "components": [
            {
              "internalType": "uint256",
              "name": "valueInAED",
              "type": "uint256"
            },
            {
              "internalType": "enum UAEDualTokenClassifier.UAEEmirate",
              "name": "emirate",
              "type": "uint8"
            },
            {
              "internalType": "string",
              "name": "zone",
              "type": "string"
            },
            {
              "internalType": "enum UAEDualTokenClassifier.PropertyCategory",
              "name": "category",
              "type": "uint8"
            },
            {
              "internalType": "address",
              "name": "developer",
              "type": "address"
            },
            {
              "internalType": "uint256",
              "name": "complianceScore",
              "type": "uint256"
            },
            {
              "internalType": "bool",
              "name": "isOffPlan",
              "type": "bool"
            },
            {
              "internalType": "uint256",
              "name": "completionDate",
              "type": "uint256"
            },
            {
              "internalType": "bool",
              "name": "isVerified",
              "type": "bool"
            }
          ],
          "internalType": "struct UAEDualTokenClassifier.PropertyData",
          "name": "propertyData",
          "type": "tuple"
        }
      ],
      "name": "classifyProperty",
      "outputs": [
        {
          "components": [
            {
              "internalType": "enum UAEDualTokenClassifier.TokenType",
              "name": "tokenType",
              "type": "uint8"
            },
            {
              "internalType": "uint256",
              "name": "platformFeePercent",
              "type": "uint256"
            },
            {
              "internalType": "uint256",
              "name": "minimumInvestment",
              "type": "uint256"
            },
            {
              "internalType": "string[]",
              "name": "applicableFeatures",
              "type": "string[]"
            },
            {
              "internalType": "string",
              "name": "reason",
              "type": "string"
            }
          ],
          "internalType": "struct UAEDualTokenClassifier.ClassificationResult",
          "name": "result",
          "type": "tuple"
        }
      ],
      "stateMutability": "view",
      "type": "function"
    },
    {
      "inputs": [
        {
          "internalType": "string",
          "name": "",
          "type": "string"
        }
      ],
      "name": "developerByName",
      "outputs": [
        {
          "internalType": "address",
          "name": "",
          "type": "address"
        }
      ],
      "stateMutability": "view",
      "type": "function"
    },
    {
      "inputs": [
        {
          "internalType": "address",
          "name": "",
          "type": "address"
        }
      ],
      "name": "developers",
      "outputs": [
        {
          "internalType": "string",
          "name": "name",
          "type": "string"
        },
        {
          "internalType": "enum UAEDualTokenClassifier.DeveloperTier",
          "name": "tier",
          "type": "uint8"
        },
        {
          "internalType": "bool",
          "name": "isActive",
          "type": "bool"
        },
        {
          "internalType": "uint256",
          "name": "registrationDate",
          "type": "uint256"
        },
        {
          "internalType": "string",
          "name": "reraLicense",
          "type": "string"
        },
        {
          "internalType": "uint256",
          "name": "completedProjects",
          "type": "uint256"
        }
      ],
      "stateMutability": "view",
      "type": "function"
    },
    {
      "inputs": [
        {
          "internalType": "enum UAEDualTokenClassifier.UAEEmirate",
          "name": "",
          "type": "uint8"
        },
        {
          "internalType": "uint256",
          "name": "",
          "type": "uint256"
        }
      ],
      "name": "emirateZones",
      "outputs": [
        {
          "internalType": "string",
          "name": "",
          "type": "string"
        }
      ],
      "stateMutability": "view",
      "type": "function"
    },
    {
      "inputs": [
        {
          "internalType": "address",
          "name": "developer",
          "type": "address"
        }
      ],
      "name": "getDeveloperInfo",
      "outputs": [
        {
          "components": [
            {
              "internalType": "string",
              "name": "name",
              "type": "string"
            },
            {
              "internalType": "enum UAEDualTokenClassifier.DeveloperTier",
              "name": "tier",
              "type": "uint8"
            },
            {
              "internalType": "enum UAEDualTokenClassifier.UAEEmirate[]",
              "name": "operatingEmirates",
              "type": "uint8[]"
            },
            {
              "internalType": "bool",
              "name": "isActive",
              "type": "bool"
            },
            {
              "internalType": "uint256",
              "name": "registrationDate",
              "type": "uint256"
            },
            {
              "internalType": "string",
              "name": "reraLicense",
              "type": "string"
            },
            {
              "internalType": "uint256",
              "name": "completedProjects",
              "type": "uint256"
            }
          ],
          "internalType": "struct UAEDualTokenClassifier.DeveloperInfo",
          "name": "",
          "type": "tuple"
        }
      ],
      "stateMutability": "view",
      "type": "function"
    },
    {
      "inputs": [
        {
          "internalType": "enum UAEDualTokenClassifier.UAEEmirate",
          "name": "emirate",
          "type": "uint8"
        }
      ],
      "name": "getEmirateZones",
      "outputs": [
        {
          "internalType": "string[]",
          "name": "",
          "type": "string[]"
        }
      ],
      "stateMutability": "view",
      "type": "function"
    },
    {
      "inputs": [
        {
          "internalType": "enum UAEDualTokenClassifier.DeveloperTier",
          "name": "tier",
          "type": "uint8"
        }
      ],
      "name": "getTierFee",
      "outputs": [
        {
          "internalType": "uint256",
          "name": "",
          "type": "uint256"
        }
      ],
      "stateMutability": "view",
      "type": "function"
    },
    {
      "inputs": [
        {
          "internalType": "string",
          "name": "zone",
          "type": "string"
        }
      ],
      "name": "isPremiumZone",
      "outputs": [
        {
          "internalType": "bool",
          "name": "",
          "type": "bool"
        }
      ],
      "stateMutability": "view",
      "type": "function"
    },
    {
      "inputs": [],
      "name": "owner",
      "outputs": [
        {
          "internalType": "address",
          "name": "",
          "type": "address"
        }
      ],
      "stateMutability": "view",
      "type": "function"
    },
    {
      "inputs": [],
      "name": "paused",
      "outputs": [
        {
          "internalType": "bool",
          "name": "",
          "type": "bool"
        }
      ],
      "stateMutability": "view",
      "type": "function"
    },
    {
      "inputs": [
        {
          "internalType": "string",
          "name": "",
          "type": "string"
        }
      ],
      "name": "premiumZones",
      "outputs": [
        {
          "internalType": "bool",
          "name": "",
          "type": "bool"
        }
      ],
      "stateMutability": "view",
      "type": "function"
    },
    {
      "inputs": [
        {
          "internalType": "address",
          "name": "developerAddress",
          "type": "address"
        },
        {
          "internalType": "string",
          "name": "name",
          "type": "string"
        },
        {
          "internalType": "enum UAEDualTokenClassifier.DeveloperTier",
          "name": "tier",
          "type": "uint8"
        },
        {
          "internalType": "enum UAEDualTokenClassifier.UAEEmirate[]",
          "name": "operatingEmirates",
          "type": "uint8[]"
        },
        {
          "internalType": "string",
          "name": "reraLicense",
          "type": "string"
        }
      ],
      "name": "registerDeveloper",
      "outputs": [],
      "stateMutability": "nonpayable",
      "type": "function"
    },
    {
      "inputs": [
        {
          "internalType": "string",
          "name": "zone",
          "type": "string"
        }
      ],
      "name": "removePremiumZone",
      "outputs": [],
      "stateMutability": "nonpayable",
      "type": "function"
    },
    {
      "inputs": [],
      "name": "renounceOwnership",
      "outputs": [],
      "stateMutability": "nonpayable",
      "type": "function"
    },
    {
      "inputs": [
        {
          "internalType": "enum UAEDualTokenClassifier.DeveloperTier",
          "name": "",
          "type": "uint8"
        }
      ],
      "name": "tierFees",
      "outputs": [
        {
          "internalType": "uint256",
          "name": "",
          "type": "uint256"
        }
      ],
      "stateMutability": "view",
      "type": "function"
    },
    {
      "inputs": [
        {
          "internalType": "address",
          "name": "newOwner",
          "type": "address"
        }
      ],
      "name": "transferOwnership",
      "outputs": [],
      "stateMutability": "nonpayable",
      "type": "function"
    },
    {
      "inputs": [
        {
          "internalType": "address",
          "name": "developer",
          "type": "address"
        },
        {
          "internalType": "enum UAEDualTokenClassifier.DeveloperTier",
          "name": "newTier",
          "type": "uint8"
        }
      ],
      "name": "updateDeveloperTier",
      "outputs": [],
      "stateMutability": "nonpayable",
      "type": "function"
    }
  ],
  "bytecode": "0x6080806040523462001ce157602e906000543360018060a01b0382167f8be0079c531659141344cd1fd0a4f28419497f9722a3daafe3b4186f6b6457e0600080a36001600160a81b0319163360ff60a01b191617600090815560967f1471eb6eb2c5e789fc3de43f8ce62938c7d1836ec861730447e2ada8fd81017b5560fa7f89832631fb3c3307a103ba2c84ab569c64d6182a18893dcd163f0f1c2090733a5561015e7fa9bc9a3a348c357ba16b37005d7e6b3236198c0e939f4af8c5f19b8deeb8ebc05560066020526127107f54cdd369e4e8a8515e52ca72ec816c2101831ad1f18bf44102ed171459c9b4f855612ee07f3e5fec24aa4dc4e5aee2e025e51e1392c72a2500577559fae9665c6d52bd6a3155612af87f8819ef417987f8ae7a81f42cdfb18815282fe989326fbff903d13cf0e03ace29556132c87f75f96ab15d697e93042dc45b5c896c4b27e89bb6eaf39475c5c371cb2513f7d255612cec7fc5069e24aaadb2addc3e52e868fcf3f4f8acf5a87e24300992fd4540c2a87eed55600590526129047fbfd358e93f18da3ed276c3afdbdba00b8f0b6008a03476a6a86bd6320ee6938b556d446f776e746f776e20447562616960901b81526003600e80830182905292909120805460ff199081166001908117909255604080516b4475626169204d6172696e6160a01b8152600c808201869052602c91829020805485168617905582516b427573696e6573732042617960a01b81529081018690522080548316841790558051634449464360e01b81526004810185905260249020805483168417905580516c0a0c2d8da4094eadacad2e4c2d609b1b8152600d8101859052602d9020805483168417905580517f4a756d6569726168204265616368205265736964656e6365000000000000000081526018810185905260389020805483168417905580516d456d6972617465732048696c6c7360901b8152808601859052602e90819020805484168517905581517144756261692048696c6c732045737461746560701b815260128101869052603290208054841685179055815168436974792057616c6b60b81b81526009810186905260299020805484168517905581517f447562616920437265656b20486172626f757200000000000000000000000000815260138101869052603390208054841685179055815167436f726e6963686560c01b81526008808201879052602891829020805486168717905583516d105b081499595b48125cdb185b9960921b815297880187905291909620805484168517905581516916585cc8125cdb185b9960b21b8152600a8101869052602a9020805484168517905581516e14d858591a5e585d08125cdb185b99608a1b8152600f8101869052602f9020805484168517905581516f105b0813585c9e585a08125cdb185b9960821b81526010810186905260309020805484168517905581516720b61026b0b530bd60c11b815290810185905294909420805482168317905583516620b61025b430b760c91b8152600781019390935260279092208054909216179055516001600160401b0360608201908111908211176200112d57606081016040526002815260403660208301376000620004a68262001d26565b5280516001101562001ccb5760016040820152620004c362001ce6565b90620004ce62001d06565b601081526f454d4141522050726f7065727469657360801b6020820152825260016020830152806040830152600160608301524260808301526200051162001d06565b600e81526d524552412d454d4141522d30303160901b602082015260a0830152609660c083015273111111111111111111111111111111111111111160005260016020526040600020825192835160018060401b0381116200112d5782548060011c90600181161562001cc0575b60011660208210146200110c57601f811162001c8a575b506020601f821160011462001c1c57819293949560009262001c10575b50508160011b916000199060031b1c19161782555b602081015160048110156200119f57600183019060ff80198354169116179055604081015180519060018060401b0382116200112d576801000000000000000082116200112d57602090600285015483600287015580841062001bd7575b5001906002840160005260206000209060005b8160051c811062001b855750601f198116810362001b2a575b5050506200067560608201511515600384019060ff801983541691151516179055565b6080810151600483015560a08101518051906001600160401b0382116200112d576005840154600181811c9116801562001b1f575b60208210146200110c57601f811162001ae6575b50602090601f831160011462001a6c5791806006949260c09460009262001a60575b50508160011b916000199060031b1c19161760058501555b01519101556200070762001d06565b9060018252602036818401376000620007208362001d26565b526200072b62001ce6565b6200073562001d06565b600e81526d4d455241415320486f6c64696e6760901b6020820152815260016020820152826040820152600160608201524260808201526200077662001d06565b600f81526e524552412d4d45524141532d30303160881b602082015260a0820152605560c08201527322222222222222222222222222222222222222226000526001602052604060002090805180519060018060401b0382116200112d57835490600182811c9216801562001a55575b60208310146200110c5781601f84931162001a1f575b50602090601f8311600114620019ae57600092620019a2575b50508160011b916000199060031b1c19161782555b602081015160048110156200119f57600183019060ff80198354169116179055604081015180519060018060401b0382116200112d576801000000000000000082116200112d57602090600285015483600287015580841062001969575b5001906002840160005260206000209060005b8160051c8110620019175750601f1981168103620018bc575b505050620008d760608201511515600384019060ff801983541691151516179055565b6080810151600483015560a08101518051906001600160401b0382116200112d576005840154600181811c91168015620018b1575b60208210146200110c57601f811162001878575b50602090601f8311600114620017fe5791806006949260c094600092620017f2575b50508160011b916000199060031b1c19161760058501555b01519101556200096962001ce6565b916200097462001d06565b6007815266139052d211515360ca1b6020820152835260016020840152604083015260016060830152426080830152620009ad62001d06565b601081526f524552412d4e414b4845454c2d30303160801b602082015260a0830152607860c083015273333333333333333333333333333333333333333360005260016020526040600020825192835160018060401b0381116200112d578254600181811c91168015620017e7575b60208210146200110c57601f8111620017b1575b506020601f82116001146200174357819293949560009262001737575b50508160011b916000199060031b1c19161782555b602081015160048110156200119f57600183019060ff80198354169116179055604081015180519060018060401b0382116200112d576801000000000000000082116200112d576020906002850154836002870155808410620016fe575b5001906002840160005260206000209060005b8160051c8110620016ac5750601f198116810362001651575b50505062000b0f60608201511515600384019060ff801983541691151516179055565b6080810151600483015560a08101518051906001600160401b0382116200112d576005840154600181811c9116801562001646575b60208210146200110c57601f81116200160d575b50602090601f8311600114620015935791806006949260c09460009262001587575b50508160011b916000199060031b1c19161760058501555b015191015562000ba162001ce6565b9062000bac62001d06565b601081526f44414d41432050726f7065727469657360801b602082015282526002602083015260408201526001606082015242608082015262000bee62001d06565b600e81526d524552412d44414d41432d30303160901b602082015260a0820152605f60c082015273444444444444444444444444444444444444444460005260016020526040600020815191825160018060401b0381116200112d578254600181811c911680156200157c575b60208210146200110c57601f811162001546575b506020601f8211600114620014d95781929394600092620014cd575b50508160011b916000199060031b1c19161782555b602081015160048110156200119f57600183019060ff80198354169116179055604081015180519060018060401b0382116200112d576801000000000000000082116200112d57602090600285015483600287015580841062001494575b5001906002840160005260206000209060005b8160051c8110620014425750601f1981168103620013e7575b50505062000d4d60608201511515600384019060ff801983541691151516179055565b6080810151600483015560a08101518051906001600160401b0382116200112d576005840154600181811c91168015620013dc575b60208210146200110c57601f8111620013a3575b50602090601f8311600114620013295791806006949260c0946000926200131d575b50508160011b916000199060031b1c19161760058501555b015191015562000ddf62001d06565b6001815260203681830137600162000df78262001d26565b5262000e0262001ce6565b9062000e0d62001d06565b601081526f414c4441522050726f7065727469657360801b602082015282526001602083015260408201526001606082015242608082015262000e4f62001d06565b600e81526d414452412d414c4441522d30303160901b602082015260a082015260b460c08201527355555555555555555555555555555555555555556000526001602052604060002090805191825160018060401b0381116200112d578154600181811c9116801562001312575b60208210146200110c57601f8111620012dc575b506020601f82116001146200126f578192939460009262001263575b50508160011b916000199060031b1c19161781555b602082015160048110156200119f57600182019060ff80198354169116179055604082015180519060018060401b0382116200112d576801000000000000000082116200112d57602090600284015483600286015580841062001207575b5001906002830160005260206000209060005b8160051c8110620011b55750601f19811680820362001143575b5050505062000fb160608301511515600383019060ff801983541691151516179055565b6080820151600482015560a0820151805190929060058301906001600160401b0381116200112d578154600181811c9116801562001122575b60208210146200110c57601f8111620010ca575b506020601f82116001146200105757908060c0949392600696976000926200104b575b50508160011b916000199060031b1c19161790555b0151910155604051612c21908162001d4e8239f35b01519050388062001021565b601f198216958360005260206000209660005b818110620010b1575096600192849260c09796956006999a1062001097575b505050811b01905562001036565b015160001960f88460031b161c1916905538808062001089565b838301518955600190980197602093840193016200106a565b620010fa90836000526020600020601f840160051c8101916020851062001101575b601f0160051c019062001d34565b3862000ffe565b9091508190620010ec565b634e487b7160e01b600052602260045260246000fd5b90607f169062000fea565b634e487b7160e01b600052604160045260246000fd5b9260009360005b8184038110620011665750505060051c01553880808062000f8d565b909194855160078110156200119f5762001194602091846001949060ff809160031b9316831b921b19161790565b96019291016200114a565b634e487b7160e01b600052602160045260246000fd5b6000805b60208110620011d057508382015560010162000f73565b9490815160078110156200119f57620011fd602091886001949060ff809160031b9316831b921b19161790565b92019501620011b9565b6200123a9060028601600052601f84600020918187168062001241575b500160051c810190601f860160051c0162001d34565b3862000f60565b6000199081848a0160051c86010191825491890360031b1c1690553862001224565b01519050388062000eed565b8260005260206000209060005b601f1984168110620012c35750600193949583601f19811610620012a9575b505050811b01815562000f02565b015160001960f88460031b161c191690553880806200129b565b9091602060018192858a0151815501930191016200127c565b6200130b90836000526020600020601f840160051c810191602085106200110157601f0160051c019062001d34565b3862000ed1565b90607f169062000ebd565b01519050388062000db8565b906005850160005260206000209160005b601f19851681106200138a5750926006949260019260c09583601f1981161062001370575b505050811b01600585015562000dd0565b015160001960f88460031b161c191690553880806200135f565b919260206001819286850151815501940192016200133a565b620013d590600586016000526020600020601f850160051c810191602086106200110157601f0160051c019062001d34565b3862000d96565b90607f169062000d82565b60009260005b601f198316830381106200140b57505060051c015538808062000d2a565b9093845160078110156200119f5762001438602091846001949060ff809160031b9316831b921b19161790565b95019101620013ed565b6000805b602081106200145d57508382015560010162000d11565b9490815160078110156200119f576200148a602091886001949060ff809160031b9316831b921b19161790565b9201950162001446565b620014c69060028701600052601f8460002091818716806200124157500160051c810190601f860160051c0162001d34565b3862000cfe565b01519050388062000c8b565b8360005260206000209060005b601f19841681106200152d5750600193949583601f1981161062001513575b505050811b01825562000ca0565b015160001960f88460031b161c1916905538808062001505565b9091602060018192858a015181550193019101620014e6565b6200157590846000526020600020601f840160051c810191602085106200110157601f0160051c019062001d34565b3862000c6f565b90607f169062000c5b565b01519050388062000b7a565b906005850160005260206000209160005b601f1985168110620015f45750926006949260019260c09583601f19811610620015da575b505050811b01600585015562000b92565b015160001960f88460031b161c19169055388080620015c9565b91926020600181928685015181550194019201620015a4565b6200163f90600586016000526020600020601f850160051c810191602086106200110157601f0160051c019062001d34565b3862000b58565b90607f169062000b44565b60009260005b601f198316830381106200167557505060051c015538808062000aec565b9093845160078110156200119f57620016a2602091846001949060ff809160031b9316831b921b19161790565b9501910162001657565b6000805b60208110620016c757508382015560010162000ad3565b9490815160078110156200119f57620016f4602091886001949060ff809160031b9316831b921b19161790565b92019501620016b0565b620017309060028701600052601f8460002091818716806200124157500160051c810190601f860160051c0162001d34565b3862000ac0565b01519050388062000a4d565b8360005260206000209060005b601f198416811062001798575060019394959683601f198116106200177e575b505050811b01825562000a62565b015160001960f88460031b161c1916905538808062001770565b9091602060018192858b01518155019301910162001750565b620017e090846000526020600020601f840160051c810191602085106200110157601f0160051c019062001d34565b3862000a30565b90607f169062000a1c565b01519050388062000942565b906005850160005260206000209160005b601f19851681106200185f5750926006949260019260c09583601f1981161062001845575b505050811b0160058501556200095a565b015160001960f88460031b161c1916905538808062001834565b919260206001819286850151815501940192016200180f565b620018aa90600586016000526020600020601f850160051c810191602086106200110157601f0160051c019062001d34565b3862000920565b90607f16906200090c565b60009260005b601f19831683038110620018e057505060051c0155388080620008b4565b9093845160078110156200119f576200190d602091846001949060ff809160031b9316831b921b19161790565b95019101620018c2565b6000805b60208110620019325750838201556001016200089b565b9490815160078110156200119f576200195f602091886001949060ff809160031b9316831b921b19161790565b920195016200191b565b6200199b9060028701600052601f8460002091818716806200124157500160051c810190601f860160051c0162001d34565b3862000888565b01519050388062000815565b9250846000526020600020906000935b601f198416851062001a03576001945083601f19811610620019e9575b505050811b0182556200082a565b015160001960f88460031b161c19169055388080620019db565b81810151835560209485019460019093019290910190620019be565b62001a4e90866000526020600020601f850160051c810191602086106200110157601f0160051c019062001d34565b38620007fc565b91607f1691620007e6565b015190503880620006e0565b906005850160005260206000209160005b601f198516811062001acd5750926006949260019260c09583601f1981161062001ab3575b505050811b016005850155620006f8565b015160001960f88460031b161c1916905538808062001aa2565b9192602060018192868501518155019401920162001a7d565b62001b1890600586016000526020600020601f850160051c810191602086106200110157601f0160051c019062001d34565b38620006be565b90607f1690620006aa565b60009260005b601f1983168303811062001b4e57505060051c015538808062000652565b9093845160078110156200119f5762001b7b602091846001949060ff809160031b9316831b921b19161790565b9501910162001b30565b6000805b6020811062001ba057508382015560010162000639565b9490815160078110156200119f5762001bcd602091886001949060ff809160031b9316831b921b19161790565b9201950162001b89565b62001c099060028701600052601f8460002091818716806200124157500160051c810190601f860160051c0162001d34565b3862000626565b015190503880620005b3565b8360005260206000209060005b601f198416811062001c71575060019394959683601f1981161062001c57575b505050811b018255620005c8565b015160001960f88460031b161c1916905538808062001c49565b9091602060018192858b01518155019301910162001c29565b62001cb990846000526020600020601f840160051c810191602085106200110157601f0160051c019062001d34565b3862000596565b90607f16906200057f565b634e487b7160e01b600052603260045260246000fd5b600080fd5b6040519060e082016001600160401b038111838210176200112d57604052565b60408051919082016001600160401b038111838210176200112d57604052565b80511562001ccb5760200190565b81811062001d40575050565b6000815560010162001d3456fe6080604052600436101561001257600080fd5b60003560e01c80632899dacc1461160057806331d75ed214610e275780633621453d146115565780633704c9ed146115305780633a25bb161461150b5780635035951c1461146857806350a97ce9146114425780635124857b146114265780635c975abb1461140057806361fd5c2014611354578063715018a6146112fb57806373ef5d4014610e8857806376233c9e14610e275780638da5cb5b14610dfe57806390aa77b314610d205780639cb601f414610ceb5780639e42e1fc14610bee578063a324cae414610b74578063c342102c14610280578063d701de83146101e7578063e4b3c70814610218578063ebc471c4146101e75763f2fde38b1461011957600080fd5b346101e25760203660031901126101e257610132612506565b61013a6126e2565b6001600160a01b0390811690811561018e57600054826bffffffffffffffffffffffff60a01b821617600055167f8be0079c531659141344cd1fd0a4f28419497f9722a3daafe3b4186f6b6457e0600080a3005b60405162461bcd60e51b815260206004820152602660248201527f4f776e61626c653a206e6577206f776e657220697320746865207a65726f206160448201526564647265737360d01b6064820152608490fd5b600080fd5b346101e25760203660031901126101e25760043560048110156101e25761020f6020916126c9565b54604051908152f35b346101e25760203660031901126101e2576004356001600160401b0381116101e25761024a60209136906004016124bf565b8161025e6040519283815193849201612529565b600290820190815281900382019020546040516001600160a01b039091168152f35b346101e25760203660031901126101e257610299612506565b600060c06040516102a981612432565b6060815282602082015260606040820152826060820152826080820152606060a0820152015260018060a01b0316600052600160205260406000206040516102f081612432565b6102f9826125ab565b815261030f60ff60018401541660208301612767565b600282019160405180602085549182815201946000526020600020906000915b81601f8401106108f1579561044c9284926006979854918181106108d6575b8181106108b8575b81811061089a575b81811061087c575b81811061085f575b818110610841575b818110610823575b818110610805575b8181106107e7575b8181106107c9575b8181106107ab575b81811061078d575b81811061076f575b818110610751575b818110610733575b818110610715575b8181106106f7575b8181106106d9575b8181106106bb575b81811061069d575b81811061067f575b818110610661575b818110610643575b818110610625575b818110610607575b8181106105e9575b8181106105cb575b8181106105ad575b81811061058f575b818110610571575b818110610553575b1061053c575b500382612483565b604084015260ff6003820154161515606084015260048101546080840152610476600582016125ab565b60a0840152015460c0820152604051602081526104a0825160e0602084015261010083019061254c565b916104b360208201516040840190612651565b604081015192601f198382030160608401526020808551928381520194019060005b81811061051d5750505060c06105118394606084015115156080860152608084015160a086015260a0840151601f19868303018487015261254c565b91015160e08301520390f35b909194602080826105316001948a516126bc565b0196019291016104d5565b9061054c8160209360f81c6126bc565b0187610444565b9260208161056960019360ff8760f01c166126bc565b01930161043e565b9260208161058760019360ff8760e81c166126bc565b019301610436565b926020816105a560019360ff8760e01c166126bc565b01930161042e565b926020816105c360019360ff8760d81c166126bc565b019301610426565b926020816105e160019360ff8760d01c166126bc565b01930161041e565b926020816105ff60019360ff8760c81c166126bc565b019301610416565b9260208161061d60019360ff8760c01c166126bc565b01930161040e565b9260208161063b60019360ff8760b81c166126bc565b019301610406565b9260208161065960019360ff8760b01c166126bc565b0193016103fe565b9260208161067760019360ff8760a81c166126bc565b0193016103f6565b9260208161069560019360ff8760a01c166126bc565b0193016103ee565b926020816106b360019360ff8760981c166126bc565b0193016103e6565b926020816106d160019360ff8760901c166126bc565b0193016103de565b926020816106ef60019360ff8760881c166126bc565b0193016103d6565b9260208161070d60019360ff8760801c166126bc565b0193016103ce565b9260208161072b60019360ff8760781c166126bc565b0193016103c6565b9260208161074960019360ff8760701c166126bc565b0193016103be565b9260208161076760019360ff8760681c166126bc565b0193016103b6565b9260208161078560019360ff8760601c166126bc565b0193016103ae565b926020816107a360019360ff8760581c166126bc565b0193016103a6565b926020816107c160019360ff8760501c166126bc565b01930161039e565b926020816107df60019360ff8760481c166126bc565b019301610396565b926020816107fd60019360ff8760401c166126bc565b01930161038e565b9260208161081b60019360ff8760381c166126bc565b019301610386565b9260208161083960019360ff8760301c166126bc565b01930161037e565b9260208161085760019360ff8760281c166126bc565b019301610376565b9260208161087460019360ff87851c166126bc565b01930161036e565b9260208161089260019360ff8760181c166126bc565b019301610366565b926020816108b060019360ff8760101c166126bc565b01930161035e565b926020816108ce60019360ff8760081c166126bc565b019301610356565b926020816108e960019360ff87166126bc565b01930161034e565b956001610400602092610b698a5461090c8360ff83166126bc565b61091e86840160ff8360081c166126bc565b6109316040840160ff8360101c166126bc565b6109446060840160ff8360181c166126bc565b6109566080840160ff83891c166126bc565b61096960a0840160ff8360281c166126bc565b61097c60c0840160ff8360301c166126bc565b61098f60e0840160ff8360381c166126bc565b6109a3610100840160ff8360401c166126bc565b6109b7610120840160ff8360481c166126bc565b6109cb610140840160ff8360501c166126bc565b6109df610160840160ff8360581c166126bc565b6109f3610180840160ff8360601c166126bc565b610a076101a0840160ff8360681c166126bc565b610a1b6101c0840160ff8360701c166126bc565b610a2f6101e0840160ff8360781c166126bc565b610a43610200840160ff8360801c166126bc565b610a57610220840160ff8360881c166126bc565b610a6b610240840160ff8360901c166126bc565b610a7f610260840160ff8360981c166126bc565b610a93610280840160ff8360a01c166126bc565b610aa76102a0840160ff8360a81c166126bc565b610abb6102c0840160ff8360b01c166126bc565b610acf6102e0840160ff8360b81c166126bc565b610ae3610300840160ff8360c01c166126bc565b610af7610320840160ff8360c81c166126bc565b610b0b610340840160ff8360d01c166126bc565b610b1f610360840160ff8360d81c166126bc565b610b33610380840160ff8360e01c166126bc565b610b476103a0840160ff8360e81c166126bc565b610b5b6103c0840160ff8360f01c166126bc565b6103e083019060f81c6126bc565b01970192019161032f565b346101e25760403660031901126101e25760043560078110156101e257610b9d60243591612675565b9081548110156101e257610bb09161268e565b610bd857610bc0610bd4916125ab565b60405191829160208352602083019061254c565b0390f35b634e487b7160e01b600052600060045260246000fd5b346101e25760403660031901126101e2576004356001600160401b0381116101e257610c1e9036906004016124bf565b60243560078110156101e257610c6590610c366126e2565b6040516020818551610c4b8183858a01612529565b81016003815203019020600160ff19825416179055612675565b8054600160401b811015610cd557610c829160018201815561268e565b610bd85781610cb57f9644d3924374441a05a12b5ed9e37762704cbb51be65584b61f896565dded71d93610cc99361293d565b60405191829160408352604083019061254c565b600160208301520390a1005b634e487b7160e01b600052604160045260246000fd5b346101e25760203660031901126101e25760043560068110156101e25760005260066020526020604060002054604051908152f35b346101e2576020806003193601126101e25760043560078110156101e257610d4790612675565b90815491610d548361265e565b92610d626040519485612483565b8084528284018092600052836000206000915b838310610ddc5750505050604051918083019381845251809452604083019360408160051b85010192916000955b828710610db05785850386f35b909192938280610dcc600193603f198a8203018652885161254c565b9601920196019592919092610da3565b6001868192610ded859a999a6125ab565b815201920192019190959495610d75565b346101e25760003660031901126101e2576000546040516001600160a01b039091168152602090f35b346101e25760203660031901126101e2576004356001600160401b0381116101e25760ff610e726020610e5f819436906004016124bf565b8160405193828580945193849201612529565b8101600381520301902054166040519015158152f35b346101e25760a03660031901126101e257610ea1612506565b6001600160401b03906024358281116101e257610ec29036906004016124bf565b90600460443510156101e2576064358381116101e257366023820112156101e2578060040135610ef18161265e565b91610eff6040519384612483565b8183526024602084019260051b820101903682116101e257602401915b8183106112e2575050506084358481116101e257610f3e9036906004016124bf565b93610f476126e2565b6001600160a01b0383161561129d578351156112585784511561121b5760405190610f7182612432565b8482526020820192610f8560443585612767565b60408301908152600160608401524260808401528660a0840152600060c084015260018060a01b0385166000526001602052604060002093610fc884518661293d565b51600481101561116c57610fdf9060018601612a41565b51908151908111610cd557600160401b8111610cd5576020600285019283548385558084106111cf575b50019160005260206000209060005b8160051c81106111825750601f198116808203611113575b887fbbac4e248bee54382ca59562a25ba0e62b3557f67bd4ee28d47758fded6a07906110e78a61110e8b8b600660c08d600384016060820151151560ff801983541691161790556080810151600485015561109260a08201516005860161293d565b015191015560405160208185516110ac8183858a01612529565b60029082019081520301902080546001600160a01b0319166001600160a01b038316179055604051606080825290948594909185019061254c565b906110f760208501604435612651565b83820360408501526001600160a01b03169561254c565b0390a2005b9260009360005b81840381106111365750505060051c01558282600660c0611030565b9091948551600781101561116c57611162602091846001949060ff809160031b9316831b921b19161790565b960192910161111a565b634e487b7160e01b600052602160045260246000fd5b6000805b6020811061119b575083820155600101611018565b94908151600781101561116c576111c6602091886001949060ff809160031b9316831b921b19161790565b92019501611186565b6111fb908560005283600020601f80870160051c82019281881680611201575b500160051c0190612926565b89611009565b60001990818601918254918a0360031b1c1690558e6111ef565b60405162461bcd60e51b815260206004820152601560248201527414915490481b1a58d95b9cd9481c995c5d5a5c9959605a1b6044820152606490fd5b60405162461bcd60e51b815260206004820152601760248201527f446576656c6f706572206e616d652072657175697265640000000000000000006044820152606490fd5b60405162461bcd60e51b815260206004820152601960248201527f496e76616c696420646576656c6f7065722061646472657373000000000000006044820152606490fd5b823560078110156101e257815260209283019201610f1c565b346101e25760003660031901126101e2576113146126e2565b600080546001600160a01b0319811682556001600160a01b03167f8be0079c531659141344cd1fd0a4f28419497f9722a3daafe3b4186f6b6457e08280a3005b346101e25760203660031901126101e2576001600160a01b03611375612506565b1660005260016020526113d2604060002061138f816125ab565b906113f660ff60018301541660ff60038401541692600481015460066113b7600584016125ab565b920154946113dd60405198899860c08a5260c08a019061254c565b946020890190612651565b151560408701526060860152848203608086015261254c565b9060a08301520390f35b346101e25760003660031901126101e257602060ff60005460a01c166040519015158152f35b346101e25760003660031901126101e2576020604051604b8152f35b346101e25760003660031901126101e25760206040516a0422ca8b0a00a4250000008152f35b346101e25760203660031901126101e2576004356001600160401b0381116101e2576114ff6114bc7f9644d3924374441a05a12b5ed9e37762704cbb51be65584b61f896565dded71d9236906004016124bf565b6114c46126e2565b60405160208183516114d98183858801612529565b8101600381520301902060ff19815416905560405191829160408352604083019061254c565b600060208301520390a1005b346101e25760003660031901126101e257602060405169152d02c7e14af68000008152f35b346101e25760003660031901126101e25760206040516a084595161401484a0000008152f35b346101e25760403660031901126101e25761156f612506565b6024359060048210156101e2576115846126e2565b6001600160a01b031660008181526001602052604090206003015490919060ff16156115c5576115c39160005260016020526001604060002001612a41565b005b60405162461bcd60e51b815260206004820152601360248201527211195d995b1bdc195c881b9bdd08199bdd5b99606a1b6044820152606490fd5b346101e2576003196020368201126101e2576001600160401b03600435116101e25761012090600435360301126101e2576101a0604052600435600401356080526024600435013560078110156101e25760a052600435604401356001600160401b0381116101e25761167a9060043691813501016124bf565b60c0526004356064013560068110156101e25760e052600435608401356001600160a01b03811681036101e2576101005260043560a4810135610120526116c39060c40161251c565b6101405260043560e4810135610160526116e0906101040161251c565b6101809081526116ee61273a565b5069152d02c7e14af6800000608051106123ed5761012051604b116123a857511561235857610100516001600160a01b03166000908152600160205260409081902090519061173c82612432565b611745816125ab565b825261175b60ff60018301541660208401612767565b60028101604051808260208294549384815201906000526020600020926000905b80601f83011061232c57611891945491818110612311575b8181106122f3575b8181106122d5575b8181106122b7575b81811061229a575b81811061227c575b81811061225e575b818110612240575b818110612222575b818110612204575b8181106121e6575b8181106121c8575b8181106121aa575b81811061218c575b81811061216e575b818110612150575b818110612132575b818110612114575b8181106120f6575b8181106120d8575b8181106120ba575b81811061209c575b81811061207e575b818110612060575b818110612042575b818110612024575b818110612006575b818110611fe8575b818110611fca575b818110611fac575b818110611f8e575b10611f7757500382612483565b6040830152600660ff60038301541691606084019215158352600481015460808501526118c0600582016125ab565b60a0850152015460c08301525115611f26576118dd816080612773565b15611caa576118ea61273a565b50604051906118f882612432565b6006825260005b60c08110611c99575060405161191481612468565b601781527f494e444956494455414c5f544f4b454e495a4154494f4e0000000000000000006020820152611947836128c9565b52611951826128c9565b5060405161195e81612468565b601881527f5052454d49554d5f444556454c4f5045525f41434345535300000000000000006020820152611991836128d6565b5261199b826128d6565b506040516119a881612468565b601881527f494e535449545554494f4e414c5f494e564553544d454e54000000000000000060208201526119db836128e6565b526119e5826128e6565b506040516119f281612468565b6012815271414456414e4345445f414e414c595449435360701b6020820152611a1a836128f6565b52611a24826128f6565b50604051611a3181612468565b60128152715052494f524954595f4c495155494449545960701b6020820152611a5983612906565b52611a6382612906565b50604051611a7081612468565b60158152742224ab24a222a7222fa224a9aa2924a12aaa24a7a760591b6020820152611a9b83612916565b52611aa582612916565b506020810151600481101561116c57611abd906126c9565b5491608051611ae66103e8820469021e19e0c9bab2400000808211600014611c91575091612a59565b60208451940151600481101561116c57611bb991611b05604192612ab5565b60406080015190604051978893710283932b6b4bab690383937b832b93a3c9d160751b6020860152611b41815180926020603289019101612529565b84016501020a2a216160d51b6032820152611b66825180936020603885019101612529565b016510142a24a2a960d11b6038820152611b8a825180936020603e85019101612529565b016201496160ed1b603e820152611baa8251809360208785019101612529565b01036021810186520184612483565b60405193611bc68561244d565b6001855260208501526040840152606083015260808201525b604051906020825260c08201908051600281101561116c57908392916020840152602081015160408401526040810151606084015260608101519160a06080850152825180915260e0840190602060e08260051b8701019401916000905b828210611c60578680610bd4886080890151601f198483030160a085015261254c565b9193946001919396506020611c80819260df198b8203018652895161254c565b970192019201869594939192611c3d565b905091612a59565b8060606020809386010152016118ff565b611cb261273a565b506040519060c082018281106001600160401b03821117610cd5576040526005825260005b60a08110611f155750602090604051611cef81612468565b601981527f434954595f504f4f4c5f444956455253494649434154494f4e0000000000000083820152611d21846128c9565b52611d2b836128c9565b50604051611d3881612468565b600f81526e5354414b494e475f5245574152445360881b83820152611d5c846128d6565b52611d66836128d6565b50604051611d7381612468565b6011815270474f5645524e414e43455f564f54494e4760781b83820152611d99846128e6565b52611da3836128e6565b50604051611db081612468565b6013815272544945525f42415345445f42454e454649545360681b83820152611dd8846128f6565b52611de2836128f6565b50604051611def81612468565b601581527443524f53535f434841494e5f504f5254464f4c494f60581b83820152611e1984612906565b52611e2383612906565b500151600481101561116c57611e38906126c9565b549060328201809211611eff57611e50608051612a59565b90611ecb60546040518094720283630ba3337b93690383937b832b93a3c9d1606d1b6020830152611e8b815180926020603386019101612529565b81017f204145442c20646976657273696669656420706f6f6c20616c6c6f636174696f6033820152603760f91b6053820152036034810185520183612483565b60405192611ed88461244d565b600084526020840152683635c9adc5dea00000604084015260608301526080820152611bdf565b634e487b7160e01b600052601160045260246000fd5b806060602080938601015201611cd7565b60405162461bcd60e51b8152602060048201526024808201527f446576656c6f706572206e6f742072656769737465726564206f7220696e61636044820152637469766560e01b6064820152608490fd5b90611f878160209360f81c6126bc565b0186610444565b92602081611fa460019360ff8760f01c166126bc565b019301611884565b92602081611fc260019360ff8760e81c166126bc565b01930161187c565b92602081611fe060019360ff8760e01c166126bc565b019301611874565b92602081611ffe60019360ff8760d81c166126bc565b01930161186c565b9260208161201c60019360ff8760d01c166126bc565b019301611864565b9260208161203a60019360ff8760c81c166126bc565b01930161185c565b9260208161205860019360ff8760c01c166126bc565b019301611854565b9260208161207660019360ff8760b81c166126bc565b01930161184c565b9260208161209460019360ff8760b01c166126bc565b019301611844565b926020816120b260019360ff8760a81c166126bc565b01930161183c565b926020816120d060019360ff8760a01c166126bc565b019301611834565b926020816120ee60019360ff8760981c166126bc565b01930161182c565b9260208161210c60019360ff8760901c166126bc565b019301611824565b9260208161212a60019360ff8760881c166126bc565b01930161181c565b9260208161214860019360ff8760801c166126bc565b019301611814565b9260208161216660019360ff8760781c166126bc565b01930161180c565b9260208161218460019360ff8760701c166126bc565b019301611804565b926020816121a260019360ff8760681c166126bc565b0193016117fc565b926020816121c060019360ff8760601c166126bc565b0193016117f4565b926020816121de60019360ff8760581c166126bc565b0193016117ec565b926020816121fc60019360ff8760501c166126bc565b0193016117e4565b9260208161221a60019360ff8760481c166126bc565b0193016117dc565b9260208161223860019360ff8760401c166126bc565b0193016117d4565b9260208161225660019360ff8760381c166126bc565b0193016117cc565b9260208161227460019360ff8760301c166126bc565b0193016117c4565b9260208161229260019360ff8760281c166126bc565b0193016117bc565b926020816122af60019360ff87851c166126bc565b0193016117b4565b926020816122cd60019360ff8760181c166126bc565b0193016117ac565b926020816122eb60019360ff8760101c166126bc565b0193016117a4565b9260208161230960019360ff8760081c166126bc565b01930161179c565b9260208161232460019360ff87166126bc565b019301611794565b91602091935061040060019161234a875461090c8360ff83166126bc565b01940192018492939161177c565b60405162461bcd60e51b815260206004820152602260248201527f50726f7065727479206d75737420626520524552412f444c4420766572696669604482015261195960f21b6064820152608490fd5b60405162461bcd60e51b815260206004820152601d60248201527f496e73756666696369656e7420636f6d706c69616e63652073636f72650000006044820152606490fd5b60405162461bcd60e51b815260206004820152601c60248201527f50726f70657274792076616c75652062656c6f77206d696e696d756d000000006044820152606490fd5b60e081019081106001600160401b03821117610cd557604052565b60a081019081106001600160401b03821117610cd557604052565b604081019081106001600160401b03821117610cd557604052565b90601f801991011681019081106001600160401b03821117610cd557604052565b6001600160401b038111610cd557601f01601f191660200190565b81601f820112156101e2578035906124d6826124a4565b926124e46040519485612483565b828452602083830101116101e257816000926020809301838601378301015290565b600435906001600160a01b03821682036101e257565b359081151582036101e257565b60005b83811061253c5750506000910152565b818101518382015260200161252c565b9060209161256581518092818552858086019101612529565b601f01601f1916010190565b90600182811c921680156125a1575b602083101461258b57565b634e487b7160e01b600052602260045260246000fd5b91607f1691612580565b90604051918260008254926125bf84612571565b90818452600194858116908160001461262e57506001146125eb575b50506125e992500383612483565b565b9093915060005260209081600020936000915b8183106126165750506125e9935082010138806125db565b855488840185015294850194879450918301916125fe565b9150506125e994506020925060ff191682840152151560051b82010138806125db565b90600482101561116c5752565b6001600160401b038111610cd55760051b60200190565b600781101561116c576000526004602052604060002090565b80548210156126a65760005260206000200190600090565b634e487b7160e01b600052603260045260246000fd5b90600782101561116c5752565b600481101561116c576000526005602052604060002090565b6000546001600160a01b031633036126f657565b606460405162461bcd60e51b815260206004820152602060248201527f4f776e61626c653a2063616c6c6572206973206e6f7420746865206f776e65726044820152fd5b604051906127478261244d565b606060808360008152600060208201526000604082015282808201520152565b600482101561116c5752565b906a0422ca8b0a00a42500000082511061289b5760200180519060049182811015612872576003149081156128a2575b5061289b5760ff6127c7602060408501518160405193828580945193849201612529565b8101600381520301902054161561289b57605560a08301511061289b576060820180516006811015612872576001148015612887575b801561285f575b6128575751906006821015612842575015908161282b575b5061282657600190565b600190565b6a084595161401484a00000091505110153861281c565b602190634e487b7160e01b6000525260246000fd5b505050600190565b5080516006811015612872578214612804565b602183634e487b7160e01b6000525260246000fd5b5080516006811015612872576003146127fd565b5050600090565b905051818110156128b45715386127a3565b602182634e487b7160e01b6000525260246000fd5b8051156126a65760200190565b8051600110156126a65760400190565b8051600210156126a65760600190565b8051600310156126a65760800190565b8051600410156126a65760a00190565b8051600510156126a65760c00190565b818110612931575050565b60008155600101612926565b91909182516001600160401b038111610cd55761295a8254612571565b601f8111612a04575b50602080601f83116001146129a0575081929394600092612995575b50508160011b916000199060031b1c1916179055565b01519050388061297f565b90601f198316958460005282600020926000905b8882106129ec575050836001959697106129d3575b505050811b019055565b015160001960f88460031b161c191690553880806129c9565b806001859682949686015181550195019301906129b4565b612a3190836000526020600020601f840160051c81019160208510612a37575b601f0160051c0190612926565b38612963565b9091508190612a24565b90600481101561116c5760ff80198354169116179055565b670de0b6b3a7640000612a6c9104612b36565b612a95602060405183612a888295518092858086019101612529565b8101038084520182612483565b90565b60405190612aa582612468565b60018252600360fc1b6020830152565b600481101561116c5760018114612b185760028114612afa57600314612add57612a95612a98565b604051612ae981612468565b60018152603360f81b602082015290565b50604051612b0781612468565b60018152601960f91b602082015290565b50604051612b2581612468565b60018152603160f81b602082015290565b8015612be25780816000925b612bc85750612b50826124a4565b91612b5e6040519384612483565b80835281601f19612b6e836124a4565b013660208601375b612b7f57505090565b90600019820190828211611eff578192600a926030908484068201809211611eff57865111156126a65760f81b6001600160f81b03191660001a908501601f0153049081612b76565b90916000198114611eff576001019190600a900480612b42565b50612a95612a9856fea2646970667358221220c82832bd39dd35d0d20d3f18da24df94dbe41a4b8e2d314a7ccc0723291a8dfd64736f6c63430008130033",
  "linkReferences": {},
  "deployedLinkReferences": {}
}