{
  "_format": "hh-sol-artifact-1",
  "contractName": "PropertyToken",
  "sourceName": "contracts/PropertyToken.sol",
  "abi": [
    {
      "inputs": [],
      "stateMutability": "nonpayable",
      "type": "constructor"
    },
    {
      "anonymous": false,
      "inputs": [
        {
          "indexed": true,
          "internalType": "address",
          "name": "owner",
          "type": "address"
        },
        {
          "indexed": true,
          "internalType": "address",
          "name": "approved",
          "type": "address"
        },
        {
          "indexed": true,
          "internalType": "uint256",
          "name": "tokenId",
          "type": "uint256"
        }
      ],
      "name": "Approval",
      "type": "event"
    },
    {
      "anonymous": false,
      "inputs": [
        {
          "indexed": true,
          "internalType": "address",
          "name": "owner",
          "type": "address"
        },
        {
          "indexed": true,
          "internalType": "address",
          "name": "operator",
          "type": "address"
        },
        {
          "indexed": false,
          "internalType": "bool",
          "name": "approved",
          "type": "bool"
        }
      ],
      "name": "ApprovalForAll",
      "type": "event"
    },
    {
      "anonymous": false,
      "inputs": [
        {
          "indexed": true,
          "internalType": "address",
          "name": "previousOwner",
          "type": "address"
        },
        {
          "indexed": true,
          "internalType": "address",
          "name": "newOwner",
          "type": "address"
        }
      ],
      "name": "OwnershipTransferred",
      "type": "event"
    },
    {
      "anonymous": false,
      "inputs": [
        {
          "indexed": false,
          "internalType": "uint256",
          "name": "tokenId",
          "type": "uint256"
        },
        {
          "indexed": false,
          "internalType": "string",
          "name": "ipfsHash",
          "type": "string"
        },
        {
          "indexed": false,
          "internalType": "uint256",
          "name": "totalValue",
          "type": "uint256"
        },
        {
          "indexed": false,
          "internalType": "uint256",
          "name": "totalTokens",
          "type": "uint256"
        },
        {
          "indexed": false,
          "internalType": "address",
          "name": "developer",
          "type": "address"
        }
      ],
      "name": "PropertyTokenized",
      "type": "event"
    },
    {
      "anonymous": false,
      "inputs": [
        {
          "indexed": false,
          "internalType": "uint256",
          "name": "tokenId",
          "type": "uint256"
        },
        {
          "indexed": false,
          "internalType": "address",
          "name": "buyer",
          "type": "address"
        },
        {
          "indexed": false,
          "internalType": "uint256",
          "name": "amount",
          "type": "uint256"
        }
      ],
      "name": "TokensPurchased",
      "type": "event"
    },
    {
      "anonymous": false,
      "inputs": [
        {
          "indexed": false,
          "internalType": "uint256",
          "name": "tokenId",
          "type": "uint256"
        },
        {
          "indexed": false,
          "internalType": "address",
          "name": "seller",
          "type": "address"
        },
        {
          "indexed": false,
          "internalType": "uint256",
          "name": "amount",
          "type": "uint256"
        }
      ],
      "name": "TokensSold",
      "type": "event"
    },
    {
      "anonymous": false,
      "inputs": [
        {
          "indexed": true,
          "internalType": "address",
          "name": "from",
          "type": "address"
        },
        {
          "indexed": true,
          "internalType": "address",
          "name": "to",
          "type": "address"
        },
        {
          "indexed": true,
          "internalType": "uint256",
          "name": "tokenId",
          "type": "uint256"
        }
      ],
      "name": "Transfer",
      "type": "event"
    },
    {
      "inputs": [
        {
          "internalType": "address",
          "name": "to",
          "type": "address"
        },
        {
          "internalType": "uint256",
          "name": "tokenId",
          "type": "uint256"
        }
      ],
      "name": "approve",
      "outputs": [],
      "stateMutability": "nonpayable",
      "type": "function"
    },
    {
      "inputs": [
        {
          "internalType": "address",
          "name": "owner",
          "type": "address"
        }
      ],
      "name": "balanceOf",
      "outputs": [
        {
          "internalType": "uint256",
          "name": "",
          "type": "uint256"
        }
      ],
      "stateMutability": "view",
      "type": "function"
    },
    {
      "inputs": [
        {
          "internalType": "uint256",
          "name": "tokenId",
          "type": "uint256"
        }
      ],
      "name": "deactivateProperty",
      "outputs": [],
      "stateMutability": "nonpayable",
      "type": "function"
    },
    {
      "inputs": [
        {
          "internalType": "uint256",
          "name": "tokenId",
          "type": "uint256"
        }
      ],
      "name": "getApproved",
      "outputs": [
        {
          "internalType": "address",
          "name": "",
          "type": "address"
        }
      ],
      "stateMutability": "view",
      "type": "function"
    },
    {
      "inputs": [
        {
          "internalType": "address",
          "name": "owner",
          "type": "address"
        },
        {
          "internalType": "address",
          "name": "operator",
          "type": "address"
        }
      ],
      "name": "isApprovedForAll",
      "outputs": [
        {
          "internalType": "bool",
          "name": "",
          "type": "bool"
        }
      ],
      "stateMutability": "view",
      "type": "function"
    },
    {
      "inputs": [],
      "name": "name",
      "outputs": [
        {
          "internalType": "string",
          "name": "",
          "type": "string"
        }
      ],
      "stateMutability": "view",
      "type": "function"
    },
    {
      "inputs": [],
      "name": "owner",
      "outputs": [
        {
          "internalType": "address",
          "name": "",
          "type": "address"
        }
      ],
      "stateMutability": "view",
      "type": "function"
    },
    {
      "inputs": [
        {
          "internalType": "uint256",
          "name": "tokenId",
          "type": "uint256"
        }
      ],
      "name": "ownerOf",
      "outputs": [
        {
          "internalType": "address",
          "name": "",
          "type": "address"
        }
      ],
      "stateMutability": "view",
      "type": "function"
    },
    {
      "inputs": [
        {
          "internalType": "uint256",
          "name": "",
          "type": "uint256"
        }
      ],
      "name": "properties",
      "outputs": [
        {
          "internalType": "string",
          "name": "ipfsHash",
          "type": "string"
        },
        {
          "internalType": "uint256",
          "name": "totalValue",
          "type": "uint256"
        },
        {
          "internalType": "uint256",
          "name": "totalTokens",
          "type": "uint256"
        },
        {
          "internalType": "uint256",
          "name": "tokensSold",
          "type": "uint256"
        },
        {
          "internalType": "address",
          "name": "developer",
          "type": "address"
        },
        {
          "internalType": "bool",
          "name": "isActive",
          "type": "bool"
        }
      ],
      "stateMutability": "view",
      "type": "function"
    },
    {
      "inputs": [
        {
          "internalType": "uint256",
          "name": "tokenId",
          "type": "uint256"
        },
        {
          "internalType": "uint256",
          "name": "amount",
          "type": "uint256"
        }
      ],
      "name": "purchaseTokens",
      "outputs": [],
      "stateMutability": "payable",
      "type": "function"
    },
    {
      "inputs": [],
      "name": "renounceOwnership",
      "outputs": [],
      "stateMutability": "nonpayable",
      "type": "function"
    },
    {
      "inputs": [
        {
          "internalType": "address",
          "name": "from",
          "type": "address"
        },
        {
          "internalType": "address",
          "name": "to",
          "type": "address"
        },
        {
          "internalType": "uint256",
          "name": "tokenId",
          "type": "uint256"
        }
      ],
      "name": "safeTransferFrom",
      "outputs": [],
      "stateMutability": "nonpayable",
      "type": "function"
    },
    {
      "inputs": [
        {
          "internalType": "address",
          "name": "from",
          "type": "address"
        },
        {
          "internalType": "address",
          "name": "to",
          "type": "address"
        },
        {
          "internalType": "uint256",
          "name": "tokenId",
          "type": "uint256"
        },
        {
          "internalType": "bytes",
          "name": "data",
          "type": "bytes"
        }
      ],
      "name": "safeTransferFrom",
      "outputs": [],
      "stateMutability": "nonpayable",
      "type": "function"
    },
    {
      "inputs": [
        {
          "internalType": "uint256",
          "name": "tokenId",
          "type": "uint256"
        },
        {
          "internalType": "uint256",
          "name": "amount",
          "type": "uint256"
        }
      ],
      "name": "sellTokens",
      "outputs": [],
      "stateMutability": "nonpayable",
      "type": "function"
    },
    {
      "inputs": [
        {
          "internalType": "address",
          "name": "operator",
          "type": "address"
        },
        {
          "internalType": "bool",
          "name": "approved",
          "type": "bool"
        }
      ],
      "name": "setApprovalForAll",
      "outputs": [],
      "stateMutability": "nonpayable",
      "type": "function"
    },
    {
      "inputs": [
        {
          "internalType": "bytes4",
          "name": "interfaceId",
          "type": "bytes4"
        }
      ],
      "name": "supportsInterface",
      "outputs": [
        {
          "internalType": "bool",
          "name": "",
          "type": "bool"
        }
      ],
      "stateMutability": "view",
      "type": "function"
    },
    {
      "inputs": [],
      "name": "symbol",
      "outputs": [
        {
          "internalType": "string",
          "name": "",
          "type": "string"
        }
      ],
      "stateMutability": "view",
      "type": "function"
    },
    {
      "inputs": [
        {
          "internalType": "uint256",
          "name": "",
          "type": "uint256"
        },
        {
          "internalType": "address",
          "name": "",
          "type": "address"
        }
      ],
      "name": "tokenBalances",
      "outputs": [
        {
          "internalType": "uint256",
          "name": "",
          "type": "uint256"
        }
      ],
      "stateMutability": "view",
      "type": "function"
    },
    {
      "inputs": [
        {
          "internalType": "uint256",
          "name": "tokenId",
          "type": "uint256"
        }
      ],
      "name": "tokenURI",
      "outputs": [
        {
          "internalType": "string",
          "name": "",
          "type": "string"
        }
      ],
      "stateMutability": "view",
      "type": "function"
    },
    {
      "inputs": [
        {
          "internalType": "string",
          "name": "ipfsHash",
          "type": "string"
        },
        {
          "internalType": "uint256",
          "name": "totalValue",
          "type": "uint256"
        },
        {
          "internalType": "uint256",
          "name": "totalTokens",
          "type": "uint256"
        }
      ],
      "name": "tokenizeProperty",
      "outputs": [
        {
          "internalType": "uint256",
          "name": "",
          "type": "uint256"
        }
      ],
      "stateMutability": "nonpayable",
      "type": "function"
    },
    {
      "inputs": [
        {
          "internalType": "address",
          "name": "from",
          "type": "address"
        },
        {
          "internalType": "address",
          "name": "to",
          "type": "address"
        },
        {
          "internalType": "uint256",
          "name": "tokenId",
          "type": "uint256"
        }
      ],
      "name": "transferFrom",
      "outputs": [],
      "stateMutability": "nonpayable",
      "type": "function"
    },
    {
      "inputs": [
        {
          "internalType": "address",
          "name": "newOwner",
          "type": "address"
        }
      ],
      "name": "transferOwnership",
      "outputs": [],
      "stateMutability": "nonpayable",
      "type": "function"
    }
  ],
  "bytecode": "0x6080346200035b576001600160401b039060408181018381118382101762000345578152600d82526020916c283937b832b93a3caa37b5b2b760991b8382015281519382850185811082821117620003455783526004855263050524f560e41b84860152815181811162000345576000948554916001948584811c941680156200033a575b8385101462000326578190601f94858111620002d3575b5083908583116001146200026f57899262000263575b5050600019600383901b1c191690851b1786555b86519283116200024f5783548481811c9116801562000244575b828210146200023057828111620001e8575b50809183116001146200018157508495829394959262000175575b5050600019600383901b1c191690821b1790555b60068054336001600160a01b03198216811790925591519290916001600160a01b0316907f8be0079c531659141344cd1fd0a4f28419497f9722a3daafe3b4186f6b6457e09080a361185b9081620003618239f35b0151905038806200010c565b90601f198316968487528287209287905b898210620001d0575050838596979810620001b6575b505050811b01905562000120565b015160001960f88460031b161c19169055388080620001a8565b80878596829496860151815501950193019062000192565b8487528187208380860160051c82019284871062000226575b0160051c019085905b8281106200021a575050620000f1565b8881550185906200020a565b9250819262000201565b634e487b7160e01b87526022600452602487fd5b90607f1690620000df565b634e487b7160e01b86526041600452602486fd5b015190503880620000b1565b898052848a208894509190601f1984168b5b87828210620002bc5750508411620002a2575b505050811b018655620000c5565b015160001960f88460031b161c1916905538808062000294565b8385015186558b9790950194938401930162000281565b9091508880528389208580850160051c8201928686106200031c575b918991869594930160051c01915b8281106200030d5750506200009b565b8b8155859450899101620002fd565b92508192620002ef565b634e487b7160e01b88526022600452602488fd5b93607f169362000084565b634e487b7160e01b600052604160045260246000fd5b600080fdfe608080604052600436101561001357600080fd5b60003560e01c90816301ffc9a7146110415750806306fdde0314610f9e578063081812fc14610f80578063095ea7b314610e0657806323b872dd14610ddd57806342842e0e14610db557806355a24d3b14610a4d5780636352211e14610a1d578063661d49b0146109d557806370a082311461093e578063715018a6146108e15780637ca28bc6146108a85780638bf0af3e1461072a5780638da5cb5b1461070157806395d89b4114610622578063a22cb46514610550578063b88d4fde146104ee578063c87b56dd1461047d578063e985e9c514610427578063ed9772b6146102dc578063f2fde38b146102185763f7b108081461011157600080fd5b346102135760208060031936011261021357600435600052600881526040600020604051906000815490610144826111f4565b8085526001928084169081156101f857506001146101c5575b509160ff916101728561019a97950386611169565b810154906002810154600460038301549201549260405197889760c0895260c08901906110ac565b958701526040860152606085015260018060a01b038116608085015260a01c16151560a08301520390f35b60008481528681209092505b8183106101e55750508301840160ff61015d565b80548684018801529186019183016101d1565b60ff19168688015250151560051b84018501905060ff61015d565b600080fd5b34610213576020366003190112610213576102316110ec565b61023961122e565b6001600160a01b0390811690811561028857600654826001600160601b0360a01b821617600655167f8be0079c531659141344cd1fd0a4f28419497f9722a3daafe3b4186f6b6457e0600080a3005b60405162461bcd60e51b815260206004820152602660248201527f4f776e61626c653a206e6577206f776e657220697320746865207a65726f206160448201526564647265737360d01b6064820152608490fd5b34610213576102ea366111de565b8160005260206008815260406000209061030d60ff600484015460a01c1661179d565b8360005260098152604060002033600052815282604060002054106103e357600080610381819482948884526009815260408420903385525260408320610355888254611818565b905560038101610366888254611818565b90556002610378886001840154611805565b91015490611731565b8181156103da575b3390f1156103ce57604080519283523360208401528201527f5fb60baabe7cf733eb57af000c64fd127b00865bcc5f520b73e6d8290a37211c9080606081015b0390a1005b6040513d6000823e3d90fd5b506108fc610389565b6064906040519062461bcd60e51b82526004820152601a60248201527f496e73756666696369656e7420746f6b656e2062616c616e63650000000000006044820152fd5b34610213576040366003190112610213576104406110ec565b610448611102565b9060018060a01b03809116600052600560205260406000209116600052602052602060ff604060002054166040519015158152f35b34610213576020366003190112610213576004356000908152600260205260409020546104b4906001600160a01b03161515611286565b60006040516104c28161114d565b526104ea6040516104d28161114d565b600081526040519182916020835260208301906110ac565b0390f35b34610213576080366003190112610213576105076110ec565b61050f611102565b6064359167ffffffffffffffff831161021357366023840112156102135761054461054e9336906024816004013591016111a7565b9160443591611398565b005b34610213576040366003190112610213576105696110ec565b60243590811515809203610213576001600160a01b0316903382146105dd57336000526005602052604060002082600052602052604060002060ff1981541660ff83161790556040519081527f17307eab39ab6107e8899845ad3d59bd9653f200f220920489ca2b5937696c3160203392a3005b60405162461bcd60e51b815260206004820152601960248201527f4552433732313a20617070726f766520746f2063616c6c6572000000000000006044820152606490fd5b346102135760003660031901126102135760405160006001805490610646826111f4565b808552918181169081156106da5750600114610681575b6104ea8461066d81860382611169565b6040519182916020835260208301906110ac565b600081815292507fb10e2d527612073b26eecdfd717e6a320cf44b4afac2b0732d9fcbe2b7fa0cf65b8284106106c257505050810160200161066d8261065d565b805460208587018101919091529093019281016106aa565b60ff191660208087019190915292151560051b8501909201925061066d915083905061065d565b34610213576000366003190112610213576006546040516001600160a01b039091168152602090f35b610733366111de565b81600052600860205260406000206004810161075560ff825460a01c1661179d565b6003820180549261076685856117e2565b600282015480911161086357610783866001610788940154611805565b611731565b34106108275760008093928193926107a18784956117e2565b9055868252600960205260408220338352602052604082206107c48782546117e2565b90555481906001600160a01b0316341561081d575b3491f1156103ce57604080519283523360208401528201527faf357506555a8fdf38c81d9a8fa2c6bca372e817f179cf596c9645902a927aea9080606081016103c9565b6108fc91506107d9565b60405162461bcd60e51b8152602060048201526014602482015273125b9cdd59999a58da595b9d081c185e5b595b9d60621b6044820152606490fd5b60405162461bcd60e51b815260206004820152601b60248201527f4e6f7420656e6f75676820746f6b656e7320617661696c61626c6500000000006044820152606490fd5b34610213576020366003190112610213576108c161122e565b60048035600090815260086020526040902001805460ff60a01b19169055005b34610213576000366003190112610213576108fa61122e565b600680546001600160a01b031981169091556000906001600160a01b03167f8be0079c531659141344cd1fd0a4f28419497f9722a3daafe3b4186f6b6457e08280a3005b34610213576020366003190112610213576001600160a01b0361095f6110ec565b16801561097e5760005260036020526020604060002054604051908152f35b60405162461bcd60e51b815260206004820152602960248201527f4552433732313a2061646472657373207a65726f206973206e6f7420612076616044820152683634b21037bbb732b960b91b6064820152608490fd5b34610213576040366003190112610213576109ee611102565b600435600052600960205260406000209060018060a01b03166000526020526020604060002054604051908152f35b34610213576020366003190112610213576020610a3b6004356112d2565b6040516001600160a01b039091168152f35b346102135760603660031901126102135767ffffffffffffffff600435818111610213573660238201121561021357610a909036906024816004013591016111a7565b90610a9961122e565b60016007540190816007556040519060c0820182811082821117610d9f576040528382526024356020830152604435604083015260006060830152336080830152600160a083015282600052600860205260406000209082518051918211610d9f57610b0583546111f4565b601f8111610d5b575b50602090601f8311600114610cf057600493929160009183610ce5575b50508160011b916000199060031b1c19161781555b602083015160018201556040830151600282015560608301516003820155019060018060a01b0360808201511682549160a060ff811b910151151560a01b16916affffffffffffffffffffff60a81b16171790553315610ca1577f854ea451fa75d4e0651d4f321b0e94ee8e91a415f1b6e2d03821d0964097ef64610c80602093610be9610be385600052600260205260018060a01b0360406000205416151590565b15611751565b600084815260026020526040902054610c0c906001600160a01b03161515610be3565b336000526003855260406000206001815401905583600052600285526040600020336001600160601b0360a01b825416179055604051918291853360007fddf252ad1be2c89b69c2b068fc378daa952ba7f163c4a11628f55a4df523b3ef8180a485835260a08784015260a08301906110ac565b602435604083015260443560608301523360808301520390a1604051908152f35b606460405162461bcd60e51b815260206004820152602060248201527f4552433732313a206d696e7420746f20746865207a65726f20616464726573736044820152fd5b015190508780610b2b565b90601f198316918460005260206000209260005b818110610d435750916001939185600497969410610d2a575b505050811b018155610b40565b015160001960f88460031b161c19169055878080610d1d565b92936020600181928786015181550195019301610d04565b836000526020600020601f840160051c810160208510610d98575b601f830160051c82018110610d8c575050610b0e565b60008155600101610d76565b5080610d76565b634e487b7160e01b600052604160045260246000fd5b346102135761054e610dc636611118565b9060405192610dd48461114d565b60008452611398565b346102135761054e610dee36611118565b91610e01610dfc8433611433565b611336565b6114fb565b3461021357604036600319011261021357610e1f6110ec565b602435906001600160a01b038080610e36856112d2565b16921691808314610f3157803314908115610f0c575b5015610ea157600083815260046020526040902080546001600160a01b03191683179055610e79836112d2565b167f8c5be1e5ebec7d5bd14f71427d1e84f3dd0314c0f7b2291e5b200ac8c7c3b925600080a4005b60405162461bcd60e51b815260206004820152603d60248201527f4552433732313a20617070726f76652063616c6c6572206973206e6f7420746f60448201527f6b656e206f776e6572206f7220617070726f76656420666f7220616c6c0000006064820152608490fd5b9050600052600560205260406000203360005260205260ff6040600020541684610e4c565b60405162461bcd60e51b815260206004820152602160248201527f4552433732313a20617070726f76616c20746f2063757272656e74206f776e656044820152603960f91b6064820152608490fd5b34610213576020366003190112610213576020610a3b6004356112f8565b346102135760003660031901126102135760405160008054610fbf816111f4565b808452906001908181169081156106da5750600114610fe8576104ea8461066d81860382611169565b600080805292507f290decd9548b62a8d60345a988386fc84ba6bc95484008f6362f93160ef3e5635b82841061102957505050810160200161066d8261065d565b80546020858701810191909152909301928101611011565b34610213576020366003190112610213576004359063ffffffff60e01b8216809203610213576020916380ac58cd60e01b811490811561109b575b811561108a575b5015158152f35b6301ffc9a760e01b14905083611083565b635b5e139f60e01b8114915061107c565b919082519283825260005b8481106110d8575050826000602080949584010152601f8019910116010190565b6020818301810151848301820152016110b7565b600435906001600160a01b038216820361021357565b602435906001600160a01b038216820361021357565b6060906003190112610213576001600160a01b0390600435828116810361021357916024359081168103610213579060443590565b6020810190811067ffffffffffffffff821117610d9f57604052565b90601f8019910116810190811067ffffffffffffffff821117610d9f57604052565b67ffffffffffffffff8111610d9f57601f01601f191660200190565b9291926111b38261118b565b916111c16040519384611169565b829481845281830111610213578281602093846000960137010152565b6040906003190112610213576004359060243590565b90600182811c92168015611224575b602083101461120e57565b634e487b7160e01b600052602260045260246000fd5b91607f1691611203565b6006546001600160a01b0316330361124257565b606460405162461bcd60e51b815260206004820152602060248201527f4f776e61626c653a2063616c6c6572206973206e6f7420746865206f776e65726044820152fd5b1561128d57565b60405162461bcd60e51b815260206004820152601860248201527f4552433732313a20696e76616c696420746f6b656e20494400000000000000006044820152606490fd5b6000908152600260205260409020546001600160a01b03166112f5811515611286565b90565b60008181526002602052604090205461131b906001600160a01b03161515611286565b6000908152600460205260409020546001600160a01b031690565b1561133d57565b60405162461bcd60e51b815260206004820152602d60248201527f4552433732313a2063616c6c6572206973206e6f7420746f6b656e206f776e6560448201526c1c881bdc88185c1c1c9bdd9959609a1b6064820152608490fd5b906113bc9392916113ac610dfc8433611433565b6113b78383836114fb565b61160c565b156113c357565b60405162461bcd60e51b8152806113dc600482016113e0565b0390fd5b60809060208152603260208201527f4552433732313a207472616e7366657220746f206e6f6e20455243373231526560408201527131b2b4bb32b91034b6b83632b6b2b73a32b960711b60608201520190565b906001600160a01b038080611447846112d2565b1693169183831493841561147a575b508315611464575b50505090565b611470919293506112f8565b161438808061145e565b909350600052600560205260406000208260005260205260ff604060002054169238611456565b156114a857565b60405162461bcd60e51b815260206004820152602560248201527f4552433732313a207472616e736665722066726f6d20696e636f72726563742060448201526437bbb732b960d91b6064820152608490fd5b9061152391611509846112d2565b6001600160a01b03939184169284929091831684146114a1565b169182156115bb578161154091611539866112d2565b16146114a1565b7fddf252ad1be2c89b69c2b068fc378daa952ba7f163c4a11628f55a4df523b3ef60008481526004602052604081206001600160601b0360a01b9081815416905583825260036020526040822060001981540190558482526040822060018154019055858252600260205284604083209182541617905580a4565b60405162461bcd60e51b8152602060048201526024808201527f4552433732313a207472616e7366657220746f20746865207a65726f206164646044820152637265737360e01b6064820152608490fd5b9293600093909291803b15611726579484916116669660405180948193630a85bd0160e11b9788845233600485015260018060a01b0380921660248501526044840152608060648401528260209b8c9760848301906110ac565b0393165af18491816116e2575b506116d1575050503d6000146116c9573d61168d8161118b565b9061169b6040519283611169565b81528091833d92013e5b805191826116c65760405162461bcd60e51b8152806113dc600482016113e0565b01fd5b5060606116a5565b6001600160e01b0319161492509050565b9091508581813d831161171f575b6116fa8183611169565b8101031261171b57516001600160e01b03198116810361171b579038611673565b8480fd5b503d6116f0565b505050915050600190565b811561173b570490565b634e487b7160e01b600052601260045260246000fd5b1561175857565b60405162461bcd60e51b815260206004820152601c60248201527f4552433732313a20746f6b656e20616c7265616479206d696e746564000000006044820152606490fd5b156117a457565b60405162461bcd60e51b815260206004820152601660248201527550726f7065727479206973206e6f742061637469766560501b6044820152606490fd5b919082018092116117ef57565b634e487b7160e01b600052601160045260246000fd5b818102929181159184041417156117ef57565b919082039182116117ef5756fea264697066735822122038c56b01110ab7e363de121aba6594dd4fbac5f2a91ea8ce9586326653c04fec64736f6c63430008130033",
  "linkReferences": {},
  "deployedLinkReferences": {}
}