{
  "_format": "hh-sol-artifact-1",
  "contractName": "UAEPROPXFactory",
  "sourceName": "contracts/UAE/UAEPROPXFactory.sol",
  "abi": [
    {
      "inputs": [
        {
          "internalType": "address",
          "name": "_classifier",
          "type": "address"
        },
        {
          "internalType": "address",
          "name": "_feeRecipient",
          "type": "address"
        }
      ],
      "stateMutability": "nonpayable",
      "type": "constructor"
    },
    {
      "anonymous": false,
      "inputs": [
        {
          "indexed": true,
          "internalType": "address",
          "name": "developer",
          "type": "address"
        },
        {
          "indexed": false,
          "internalType": "string",
          "name": "name",
          "type": "string"
        },
        {
          "indexed": false,
          "internalType": "enum UAEDualTokenClassifier.DeveloperTier",
          "name": "tier",
          "type": "uint8"
        }
      ],
      "name": "DeveloperRegistered",
      "type": "event"
    },
    {
      "anonymous": false,
      "inputs": [
        {
          "indexed": true,
          "internalType": "uint256",
          "name": "tokenId",
          "type": "uint256"
        },
        {
          "indexed": true,
          "internalType": "address",
          "name": "investor",
          "type": "address"
        },
        {
          "indexed": false,
          "internalType": "uint256",
          "name": "amount",
          "type": "uint256"
        },
        {
          "indexed": false,
          "internalType": "uint256",
          "name": "tokensAllocated",
          "type": "uint256"
        }
      ],
      "name": "FundingReceived",
      "type": "event"
    },
    {
      "anonymous": false,
      "inputs": [
        {
          "indexed": true,
          "internalType": "uint256",
          "name": "tokenId",
          "type": "uint256"
        },
        {
          "indexed": false,
          "internalType": "enum UAEPROPXFactory.FundingStage",
          "name": "oldStage",
          "type": "uint8"
        },
        {
          "indexed": false,
          "internalType": "enum UAEPROPXFactory.FundingStage",
          "name": "newStage",
          "type": "uint8"
        }
      ],
      "name": "FundingStageChanged",
      "type": "event"
    },
    {
      "anonymous": false,
      "inputs": [
        {
          "indexed": true,
          "internalType": "uint256",
          "name": "tokenId",
          "type": "uint256"
        },
        {
          "indexed": true,
          "internalType": "address",
          "name": "tokenAddress",
          "type": "address"
        },
        {
          "indexed": false,
          "internalType": "string",
          "name": "name",
          "type": "string"
        },
        {
          "indexed": false,
          "internalType": "uint256",
          "name": "propertyValue",
          "type": "uint256"
        },
        {
          "indexed": false,
          "internalType": "address",
          "name": "developer",
          "type": "address"
        }
      ],
      "name": "PROPXTokenCreated",
      "type": "event"
    },
    {
      "anonymous": false,
      "inputs": [
        {
          "indexed": true,
          "internalType": "bytes32",
          "name": "role",
          "type": "bytes32"
        },
        {
          "indexed": true,
          "internalType": "bytes32",
          "name": "previousAdminRole",
          "type": "bytes32"
        },
        {
          "indexed": true,
          "internalType": "bytes32",
          "name": "newAdminRole",
          "type": "bytes32"
        }
      ],
      "name": "RoleAdminChanged",
      "type": "event"
    },
    {
      "anonymous": false,
      "inputs": [
        {
          "indexed": true,
          "internalType": "bytes32",
          "name": "role",
          "type": "bytes32"
        },
        {
          "indexed": true,
          "internalType": "address",
          "name": "account",
          "type": "address"
        },
        {
          "indexed": true,
          "internalType": "address",
          "name": "sender",
          "type": "address"
        }
      ],
      "name": "RoleGranted",
      "type": "event"
    },
    {
      "anonymous": false,
      "inputs": [
        {
          "indexed": true,
          "internalType": "bytes32",
          "name": "role",
          "type": "bytes32"
        },
        {
          "indexed": true,
          "internalType": "address",
          "name": "account",
          "type": "address"
        },
        {
          "indexed": true,
          "internalType": "address",
          "name": "sender",
          "type": "address"
        }
      ],
      "name": "RoleRevoked",
      "type": "event"
    },
    {
      "inputs": [],
      "name": "DEFAULT_ADMIN_ROLE",
      "outputs": [
        {
          "internalType": "bytes32",
          "name": "",
          "type": "bytes32"
        }
      ],
      "stateMutability": "view",
      "type": "function"
    },
    {
      "inputs": [],
      "name": "DEVELOPER_ROLE",
      "outputs": [
        {
          "internalType": "bytes32",
          "name": "",
          "type": "bytes32"
        }
      ],
      "stateMutability": "view",
      "type": "function"
    },
    {
      "inputs": [],
      "name": "PROPERTY_MANAGER_ROLE",
      "outputs": [
        {
          "internalType": "bytes32",
          "name": "",
          "type": "bytes32"
        }
      ],
      "stateMutability": "view",
      "type": "function"
    },
    {
      "inputs": [],
      "name": "classifier",
      "outputs": [
        {
          "internalType": "contract UAEDualTokenClassifier",
          "name": "",
          "type": "address"
        }
      ],
      "stateMutability": "view",
      "type": "function"
    },
    {
      "inputs": [
        {
          "internalType": "string",
          "name": "name",
          "type": "string"
        },
        {
          "internalType": "string",
          "name": "symbol",
          "type": "string"
        },
        {
          "internalType": "uint256",
          "name": "propertyValueAED",
          "type": "uint256"
        },
        {
          "internalType": "uint256",
          "name": "targetFundingAED",
          "type": "uint256"
        },
        {
          "internalType": "enum UAEPROPXFactory.PropertyType",
          "name": "propertyType",
          "type": "uint8"
        },
        {
          "internalType": "enum UAEDualTokenClassifier.UAEEmirate",
          "name": "emirate",
          "type": "uint8"
        },
        {
          "internalType": "string",
          "name": "zone",
          "type": "string"
        },
        {
          "internalType": "uint256",
          "name": "dividendRate",
          "type": "uint256"
        },
        {
          "internalType": "uint256",
          "name": "fundingDurationDays",
          "type": "uint256"
        },
        {
          "internalType": "uint256",
          "name": "expectedCompletionTimestamp",
          "type": "uint256"
        },
        {
          "internalType": "string",
          "name": "metadataURI",
          "type": "string"
        },
        {
          "internalType": "string",
          "name": "reraLicense",
          "type": "string"
        }
      ],
      "name": "createPROPXToken",
      "outputs": [
        {
          "internalType": "uint256",
          "name": "tokenId",
          "type": "uint256"
        }
      ],
      "stateMutability": "nonpayable",
      "type": "function"
    },
    {
      "inputs": [
        {
          "internalType": "address",
          "name": "",
          "type": "address"
        }
      ],
      "name": "developers",
      "outputs": [
        {
          "internalType": "string",
          "name": "name",
          "type": "string"
        },
        {
          "internalType": "enum UAEDualTokenClassifier.DeveloperTier",
          "name": "tier",
          "type": "uint8"
        },
        {
          "internalType": "uint256",
          "name": "platformFeePercent",
          "type": "uint256"
        },
        {
          "internalType": "uint256",
          "name": "totalProjects",
          "type": "uint256"
        },
        {
          "internalType": "uint256",
          "name": "totalValueTokenized",
          "type": "uint256"
        },
        {
          "internalType": "bool",
          "name": "isActive",
          "type": "bool"
        },
        {
          "internalType": "string",
          "name": "reraLicense",
          "type": "string"
        },
        {
          "internalType": "string",
          "name": "website",
          "type": "string"
        }
      ],
      "stateMutability": "view",
      "type": "function"
    },
    {
      "inputs": [],
      "name": "feeRecipient",
      "outputs": [
        {
          "internalType": "address",
          "name": "",
          "type": "address"
        }
      ],
      "stateMutability": "view",
      "type": "function"
    },
    {
      "inputs": [
        {
          "internalType": "address",
          "name": "developer",
          "type": "address"
        }
      ],
      "name": "getDeveloperProfile",
      "outputs": [
        {
          "components": [
            {
              "internalType": "string",
              "name": "name",
              "type": "string"
            },
            {
              "internalType": "enum UAEDualTokenClassifier.DeveloperTier",
              "name": "tier",
              "type": "uint8"
            },
            {
              "internalType": "uint256",
              "name": "platformFeePercent",
              "type": "uint256"
            },
            {
              "internalType": "uint256",
              "name": "totalProjects",
              "type": "uint256"
            },
            {
              "internalType": "uint256",
              "name": "totalValueTokenized",
              "type": "uint256"
            },
            {
              "internalType": "uint256[]",
              "name": "projectIds",
              "type": "uint256[]"
            },
            {
              "internalType": "bool",
              "name": "isActive",
              "type": "bool"
            },
            {
              "internalType": "string",
              "name": "reraLicense",
              "type": "string"
            },
            {
              "internalType": "string",
              "name": "website",
              "type": "string"
            },
            {
              "internalType": "enum UAEDualTokenClassifier.UAEEmirate[]",
              "name": "operatingEmirates",
              "type": "uint8[]"
            }
          ],
          "internalType": "struct UAEPROPXFactory.DeveloperProfile",
          "name": "",
          "type": "tuple"
        }
      ],
      "stateMutability": "view",
      "type": "function"
    },
    {
      "inputs": [
        {
          "internalType": "address",
          "name": "developer",
          "type": "address"
        }
      ],
      "name": "getDeveloperProjects",
      "outputs": [
        {
          "internalType": "uint256[]",
          "name": "",
          "type": "uint256[]"
        }
      ],
      "stateMutability": "view",
      "type": "function"
    },
    {
      "inputs": [
        {
          "internalType": "uint256",
          "name": "tokenId",
          "type": "uint256"
        },
        {
          "internalType": "address",
          "name": "investor",
          "type": "address"
        }
      ],
      "name": "getInvestorBalance",
      "outputs": [
        {
          "internalType": "uint256",
          "name": "",
          "type": "uint256"
        }
      ],
      "stateMutability": "view",
      "type": "function"
    },
    {
      "inputs": [
        {
          "internalType": "uint256",
          "name": "tokenId",
          "type": "uint256"
        }
      ],
      "name": "getPROPXToken",
      "outputs": [
        {
          "components": [
            {
              "internalType": "address",
              "name": "tokenAddress",
              "type": "address"
            },
            {
              "internalType": "string",
              "name": "name",
              "type": "string"
            },
            {
              "internalType": "string",
              "name": "symbol",
              "type": "string"
            },
            {
              "internalType": "uint256",
              "name": "totalSupply",
              "type": "uint256"
            },
            {
              "internalType": "uint256",
              "name": "propertyValue",
              "type": "uint256"
            },
            {
              "internalType": "uint256",
              "name": "minimumInvestment",
              "type": "uint256"
            },
            {
              "internalType": "uint256",
              "name": "targetFunding",
              "type": "uint256"
            },
            {
              "internalType": "uint256",
              "name": "currentFunding",
              "type": "uint256"
            },
            {
              "internalType": "uint256",
              "name": "dividendRate",
              "type": "uint256"
            },
            {
              "internalType": "enum UAEPROPXFactory.FundingStage",
              "name": "stage",
              "type": "uint8"
            },
            {
              "internalType": "enum UAEPROPXFactory.PropertyType",
              "name": "propertyType",
              "type": "uint8"
            },
            {
              "internalType": "enum UAEDualTokenClassifier.UAEEmirate",
              "name": "emirate",
              "type": "uint8"
            },
            {
              "internalType": "string",
              "name": "zone",
              "type": "string"
            },
            {
              "internalType": "address",
              "name": "developer",
              "type": "address"
            },
            {
              "internalType": "string",
              "name": "developerName",
              "type": "string"
            },
            {
              "internalType": "enum UAEDualTokenClassifier.DeveloperTier",
              "name": "developerTier",
              "type": "uint8"
            },
            {
              "internalType": "uint256",
              "name": "creationTime",
              "type": "uint256"
            },
            {
              "internalType": "uint256",
              "name": "fundingDeadline",
              "type": "uint256"
            },
            {
              "internalType": "bool",
              "name": "isActive",
              "type": "bool"
            },
            {
              "internalType": "string",
              "name": "metadataURI",
              "type": "string"
            },
            {
              "internalType": "uint256",
              "name": "expectedCompletion",
              "type": "uint256"
            },
            {
              "internalType": "string",
              "name": "reraLicense",
              "type": "string"
            }
          ],
          "internalType": "struct UAEPROPXFactory.UAEPROPXToken",
          "name": "",
          "type": "tuple"
        }
      ],
      "stateMutability": "view",
      "type": "function"
    },
    {
      "inputs": [],
      "name": "getPremiumDevelopers",
      "outputs": [
        {
          "internalType": "address[]",
          "name": "",
          "type": "address[]"
        }
      ],
      "stateMutability": "view",
      "type": "function"
    },
    {
      "inputs": [
        {
          "internalType": "uint256",
          "name": "tokenId",
          "type": "uint256"
        }
      ],
      "name": "getProjectMetrics",
      "outputs": [
        {
          "internalType": "uint256",
          "name": "totalInvestors",
          "type": "uint256"
        },
        {
          "internalType": "uint256",
          "name": "averageInvestment",
          "type": "uint256"
        },
        {
          "internalType": "uint256",
          "name": "institutionalInvestment",
          "type": "uint256"
        },
        {
          "internalType": "uint256",
          "name": "retailInvestment",
          "type": "uint256"
        }
      ],
      "stateMutability": "view",
      "type": "function"
    },
    {
      "inputs": [
        {
          "internalType": "bytes32",
          "name": "role",
          "type": "bytes32"
        }
      ],
      "name": "getRoleAdmin",
      "outputs": [
        {
          "internalType": "bytes32",
          "name": "",
          "type": "bytes32"
        }
      ],
      "stateMutability": "view",
      "type": "function"
    },
    {
      "inputs": [
        {
          "internalType": "bytes32",
          "name": "role",
          "type": "bytes32"
        },
        {
          "internalType": "address",
          "name": "account",
          "type": "address"
        }
      ],
      "name": "grantRole",
      "outputs": [],
      "stateMutability": "nonpayable",
      "type": "function"
    },
    {
      "inputs": [
        {
          "internalType": "bytes32",
          "name": "role",
          "type": "bytes32"
        },
        {
          "internalType": "address",
          "name": "account",
          "type": "address"
        }
      ],
      "name": "hasRole",
      "outputs": [
        {
          "internalType": "bool",
          "name": "",
          "type": "bool"
        }
      ],
      "stateMutability": "view",
      "type": "function"
    },
    {
      "inputs": [
        {
          "internalType": "uint256",
          "name": "tokenId",
          "type": "uint256"
        },
        {
          "internalType": "uint256",
          "name": "aedAmount",
          "type": "uint256"
        }
      ],
      "name": "investInPROPX",
      "outputs": [],
      "stateMutability": "payable",
      "type": "function"
    },
    {
      "inputs": [],
      "name": "nextTokenId",
      "outputs": [
        {
          "internalType": "uint256",
          "name": "",
          "type": "uint256"
        }
      ],
      "stateMutability": "view",
      "type": "function"
    },
    {
      "inputs": [],
      "name": "platformFeeCollected",
      "outputs": [
        {
          "internalType": "uint256",
          "name": "",
          "type": "uint256"
        }
      ],
      "stateMutability": "view",
      "type": "function"
    },
    {
      "inputs": [
        {
          "internalType": "uint256",
          "name": "",
          "type": "uint256"
        }
      ],
      "name": "premiumDevelopers",
      "outputs": [
        {
          "internalType": "address",
          "name": "",
          "type": "address"
        }
      ],
      "stateMutability": "view",
      "type": "function"
    },
    {
      "inputs": [
        {
          "internalType": "uint256",
          "name": "",
          "type": "uint256"
        }
      ],
      "name": "projectMetrics",
      "outputs": [
        {
          "internalType": "uint256",
          "name": "totalInvestors",
          "type": "uint256"
        },
        {
          "internalType": "uint256",
          "name": "averageInvestment",
          "type": "uint256"
        },
        {
          "internalType": "uint256",
          "name": "institutionalInvestment",
          "type": "uint256"
        },
        {
          "internalType": "uint256",
          "name": "retailInvestment",
          "type": "uint256"
        }
      ],
      "stateMutability": "view",
      "type": "function"
    },
    {
      "inputs": [
        {
          "internalType": "uint256",
          "name": "",
          "type": "uint256"
        }
      ],
      "name": "propxTokens",
      "outputs": [
        {
          "internalType": "address",
          "name": "tokenAddress",
          "type": "address"
        },
        {
          "internalType": "string",
          "name": "name",
          "type": "string"
        },
        {
          "internalType": "string",
          "name": "symbol",
          "type": "string"
        },
        {
          "internalType": "uint256",
          "name": "totalSupply",
          "type": "uint256"
        },
        {
          "internalType": "uint256",
          "name": "propertyValue",
          "type": "uint256"
        },
        {
          "internalType": "uint256",
          "name": "minimumInvestment",
          "type": "uint256"
        },
        {
          "internalType": "uint256",
          "name": "targetFunding",
          "type": "uint256"
        },
        {
          "internalType": "uint256",
          "name": "currentFunding",
          "type": "uint256"
        },
        {
          "internalType": "uint256",
          "name": "dividendRate",
          "type": "uint256"
        },
        {
          "internalType": "enum UAEPROPXFactory.FundingStage",
          "name": "stage",
          "type": "uint8"
        },
        {
          "internalType": "enum UAEPROPXFactory.PropertyType",
          "name": "propertyType",
          "type": "uint8"
        },
        {
          "internalType": "enum UAEDualTokenClassifier.UAEEmirate",
          "name": "emirate",
          "type": "uint8"
        },
        {
          "internalType": "string",
          "name": "zone",
          "type": "string"
        },
        {
          "internalType": "address",
          "name": "developer",
          "type": "address"
        },
        {
          "internalType": "string",
          "name": "developerName",
          "type": "string"
        },
        {
          "internalType": "enum UAEDualTokenClassifier.DeveloperTier",
          "name": "developerTier",
          "type": "uint8"
        },
        {
          "internalType": "uint256",
          "name": "creationTime",
          "type": "uint256"
        },
        {
          "internalType": "uint256",
          "name": "fundingDeadline",
          "type": "uint256"
        },
        {
          "internalType": "bool",
          "name": "isActive",
          "type": "bool"
        },
        {
          "internalType": "string",
          "name": "metadataURI",
          "type": "string"
        },
        {
          "internalType": "uint256",
          "name": "expectedCompletion",
          "type": "uint256"
        },
        {
          "internalType": "string",
          "name": "reraLicense",
          "type": "string"
        }
      ],
      "stateMutability": "view",
      "type": "function"
    },
    {
      "inputs": [
        {
          "internalType": "address",
          "name": "developerAddress",
          "type": "address"
        },
        {
          "internalType": "string",
          "name": "name",
          "type": "string"
        },
        {
          "internalType": "enum UAEDualTokenClassifier.DeveloperTier",
          "name": "tier",
          "type": "uint8"
        },
        {
          "internalType": "string",
          "name": "reraLicense",
          "type": "string"
        },
        {
          "internalType": "string",
          "name": "website",
          "type": "string"
        },
        {
          "internalType": "enum UAEDualTokenClassifier.UAEEmirate[]",
          "name": "operatingEmirates",
          "type": "uint8[]"
        }
      ],
      "name": "registerDeveloper",
      "outputs": [],
      "stateMutability": "nonpayable",
      "type": "function"
    },
    {
      "inputs": [
        {
          "internalType": "bytes32",
          "name": "role",
          "type": "bytes32"
        },
        {
          "internalType": "address",
          "name": "account",
          "type": "address"
        }
      ],
      "name": "renounceRole",
      "outputs": [],
      "stateMutability": "nonpayable",
      "type": "function"
    },
    {
      "inputs": [
        {
          "internalType": "bytes32",
          "name": "role",
          "type": "bytes32"
        },
        {
          "internalType": "address",
          "name": "account",
          "type": "address"
        }
      ],
      "name": "revokeRole",
      "outputs": [],
      "stateMutability": "nonpayable",
      "type": "function"
    },
    {
      "inputs": [
        {
          "internalType": "bytes4",
          "name": "interfaceId",
          "type": "bytes4"
        }
      ],
      "name": "supportsInterface",
      "outputs": [
        {
          "internalType": "bool",
          "name": "",
          "type": "bool"
        }
      ],
      "stateMutability": "view",
      "type": "function"
    },
    {
      "inputs": [
        {
          "internalType": "address",
          "name": "",
          "type": "address"
        }
      ],
      "name": "tokenToId",
      "outputs": [
        {
          "internalType": "uint256",
          "name": "",
          "type": "uint256"
        }
      ],
      "stateMutability": "view",
      "type": "function"
    },
    {
      "inputs": [],
      "name": "totalProjectsCreated",
      "outputs": [
        {
          "internalType": "uint256",
          "name": "",
          "type": "uint256"
        }
      ],
      "stateMutability": "view",
      "type": "function"
    },
    {
      "inputs": [],
      "name": "totalValueTokenized",
      "outputs": [
        {
          "internalType": "uint256",
          "name": "",
          "type": "uint256"
        }
      ],
      "stateMutability": "view",
      "type": "function"
    }
  ],
  "bytecode": "0x60a03462002a5057601f62006e1538819003918201601f19168301916001600160401b03831184841017620016ee57808492604094855283398101031262002a50576200005a6020620000528362002ad6565b920162002ad6565b60018080556006556001600160a01b039182169190821562002a0b5716908115620029c657608052600b80546001600160a01b03191691909117905533600090815260008051602062006dd5833981519152602052604090205460ff161562002983575b3360009081527f3a814d6eac3306bf154f1d02bc4f57bb4f0390c16247e6c5afa43a262f9bf19560205260409020547f5aa58c694aeb083df8754bf5e98675317e4137a5a8a2c6188d0228869e43da7e9060ff16156200293f575b506200012462002a76565b601081526f454d4141522050726f7065727469657360801b60208201526200014b62002a76565b600e81526d524552412d454d4141522d30303160901b60208201526200017062002a96565b9060028252604036602084013760006200018a8362002aeb565b526001620001988362002af9565b52620001a362002ab6565b60008152620001b162002a55565b9384526001602085015260966040850152600060608501526000608085015260a0840152600160c084015260e0830152620001eb62002ab6565b600081526101008301526101208201527311111111111111111111111111111111111111116000526004602052604060002090805191825160018060401b038111620016ee578154600181811c9116801562002934575b6020821014620017d057601f8111620028fe575b506020601f821160011462002891578192939460009262002885575b50508160011b916000199060031b1c19161781555b60208201516004811015620016355760ff8019600184015416911617600182015560408201516002820155606082015160038201556080820151600482015560a082015180519060018060401b038211620016ee57680100000000000000008211620016ee57602090600584015483600586015580841062002862575b500160058301600052602060002060005b8381106200284d5785856200033f60c08301511515600683019060ff801983541691151516179055565b60e082015180519092906001600160401b038111620016ee576007830154600181811c9116801562002842575b6020821014620017d057601f811162002809575b506020601f82116001146200279657819293946000926200278a575b50508160011b916000199060031b1c19161760078301555b6101008101518051906001600160401b038211620016ee576008840154600181811c911680156200277f575b6020821014620017d057601f811162002746575b50602090601f8311600114620026cd5761012093929160009183620026c1575b50508160011b916000199060031b1c19161760088401555b01518051906001600160401b038211620016ee57680100000000000000008211620016ee57602060099182850154848487015580851062002689575b5001920160005260206000209060005b8160051c8110620026375750601f1981168103620025dc575b50507311111111111111111111111111111111111111116000525060008051602062006d7583398151915260205260008051602062006d558339815191525460ff161562002567575b60095468010000000000000000811015620016ee576001810180600955811015620019a657600960005260008051602062006d958339815191520180546001600160a01b0319167311111111111111111111111111111111111111111790556200054362002a76565b600e81526d4d455241415320486f6c64696e6760901b60208201526200056862002a76565b600f81526e524552412d4d45524141532d30303160881b60208201526200058e62002a96565b906002825260403660208401376000620005a88362002aeb565b526001620005b68362002af9565b52620005c162002ab6565b60008152620005cf62002a55565b9384526001602085015260966040850152600060608501526000608085015260a0840152600160c084015260e08301526200060962002ab6565b600081526101008301526101208201527322222222222222222222222222222222222222226000526004602052604060002090805191825160018060401b038111620016ee578154600181811c911680156200255c575b6020821014620017d057601f811162002526575b506020601f8211600114620024b95781929394600092620024ad575b50508160011b916000199060031b1c19161781555b602082015160048110156200163557600182019060ff8019835416911617905560408201516002820155606082015160038201556080820151600482015560a082015180519060018060401b038211620016ee57680100000000000000008211620016ee5760209060058401548360058601558084106200248a575b500160058301600052602060002060005b838110620024755785856200075c60c08301511515600683019060ff801983541691151516179055565b60e082015180519092906001600160401b038111620016ee576007830154600181811c911680156200246a575b6020821014620017d057601f811162002431575b506020601f8211600114620023be5781929394600092620023b2575b50508160011b916000199060031b1c19161760078301555b6101008101518051906001600160401b038211620016ee576008840154600181811c91168015620023a7575b6020821014620017d057601f81116200236e575b50602090601f8311600114620022f55761012093929160009183620022e9575b50508160011b916000199060031b1c19161760088401555b01518051906001600160401b038211620016ee57680100000000000000008211620016ee576020600991828501548484870155808510620022b1575b5001920160005260206000209060005b8160051c81106200225f5750601f198116810362002204575b50507322222222222222222222222222222222222222226000525060008051602062006d7583398151915260205260008051602062006db58339815191525460ff16156200218f575b60095468010000000000000000811015620016ee576001810180600955811015620019a657600960005260008051602062006d958339815191520180546001600160a01b0319167322222222222222222222222222222222222222221790556200096062002a76565b6007815266139052d211515360ca1b60208201526200097e62002a76565b601081526f524552412d4e414b4845454c2d30303160801b6020820152620009a562002a96565b906002825260403660208401376000620009bf8362002aeb565b526001620009cd8362002af9565b52620009d862002ab6565b60008152620009e662002a55565b9384526001602085015260966040850152600060608501526000608085015260a0840152600160c084015260e083015262000a2062002ab6565b600081526101008301526101208201527333333333333333333333333333333333333333336000526004602052604060002090805191825160018060401b038111620016ee578154600181811c9116801562002184575b6020821014620017d057601f81116200214e575b506020601f8211600114620020e15781929394600092620020d5575b50508160011b916000199060031b1c19161781555b602082015160048110156200163557600182019060ff8019835416911617905560408201516002820155606082015160038201556080820151600482015560a082015180519060018060401b038211620016ee57680100000000000000008211620016ee576020906005840154836005860155808410620020b2575b500160058301600052602060002060005b8381106200209d57858562000b7360c08301511515600683019060ff801983541691151516179055565b60e082015180519092906001600160401b038111620016ee576007830154600181811c9116801562002092575b6020821014620017d057601f811162002059575b506020601f821160011462001fe6578192939460009262001fda575b50508160011b916000199060031b1c19161760078301555b6101008101518051906001600160401b038211620016ee576008840154600181811c9116801562001fcf575b6020821014620017d057601f811162001f96575b50602090601f831160011462001f1d576101209392916000918362001f11575b50508160011b916000199060031b1c19161760088401555b01518051906001600160401b038211620016ee57680100000000000000008211620016ee57602060099182850154848487015580851062001ed9575b5001920160005260206000209060005b8160051c811062001e875750601f198116810362001e2c575b50507333333333333333333333333333333333333333336000525060008051602062006d7583398151915260205260008051602062006df58339815191525460ff161562001db7575b60095468010000000000000000811015620016ee576001810180600955811015620019a657600960005260008051602062006d958339815191520180546001600160a01b03191673333333333333333333333333333333333333333317905562000d7762002a76565b601081526f414c4441522050726f7065727469657360801b602082015262000d9e62002a76565b600e81526d414452412d414c4441522d30303160901b602082015262000dc362002a96565b90600282526040366020840137600062000ddd8362002aeb565b52600162000deb8362002af9565b5262000df662002ab6565b6000815262000e0462002a55565b9384526001602085015260966040850152600060608501526000608085015260a0840152600160c084015260e083015262000e3e62002ab6565b600081526101008301526101208201527355555555555555555555555555555555555555556000526004602052604060002090805191825160018060401b038111620016ee578154600181811c9116801562001dac575b6020821014620017d057601f811162001d76575b506020601f821160011462001d09578192939460009262001cfd575b50508160011b916000199060031b1c19161781555b602082015160048110156200163557600182019060ff8019835416911617905560408201516002820155606082015160038201556080820151600482015560a082015180519060018060401b038211620016ee57680100000000000000008211620016ee57602090600584015483600586015580841062001cda575b500160058301600052602060002060005b83811062001cc557858562000f9160c08301511515600683019060ff801983541691151516179055565b60e082015180519092906001600160401b038111620016ee576007830154600181811c9116801562001cba575b6020821014620017d057601f811162001c81575b506020601f821160011462001c0e578192939460009262001c02575b50508160011b916000199060031b1c19161760078301555b6101008101518051906001600160401b038211620016ee576008840154600181811c9116801562001bf7575b6020821014620017d057601f811162001bbe575b50602090601f831160011462001b45576101209392916000918362001b39575b50508160011b916000199060031b1c19161760088401555b01518051906001600160401b038211620016ee57680100000000000000008211620016ee57602060099182850154848487015580851062001ade575b5001920160005260206000209060005b8160051c811062001a8c5750601f198116810362001a31575b50507355555555555555555555555555555555555555556000525060008051602062006d7583398151915260205260008051602062006d158339815191525460ff1615620019bc575b60095468010000000000000000811015620016ee576001810180600955811015620019a657600960005260008051602062006d958339815191520180546001600160a01b0319167355555555555555555555555555555555555555551790556200119562002a76565b601081526f44414d41432050726f7065727469657360801b6020820152620011bc62002a76565b600e81526d524552412d44414d41432d30303160901b6020820152620011e162002a96565b906002825260403660208401376000620011fb8362002aeb565b526001620012098362002af9565b526200121462002ab6565b600081526200122262002a55565b9384526002602085015260fa6040850152600060608501526000608085015260a0840152600160c084015260e08301526200125c62002ab6565b6000815261010083015261012082015273444444444444444444444444444444444444444460005260046020526040600020815191825160018060401b038111620016ee578254600181811c911680156200199b575b6020821014620017d057601f811162001965575b506020601f8211600114620018f85781929394600092620018ec575b50508160011b916000199060031b1c19161782555b602081015160048110156200163557600183019060ff8019835416911617905560408101516002830155606081015160038301556080810151600483015560a081015180519060018060401b038211620016ee57680100000000000000008211620016ee576020906005850154836005870155808410620018c9575b500160058401600052602060002060005b838110620018b4578585620013ae60c08201511515600684019060ff801983541691151516179055565b60e081015180519092906001600160401b038111620016ee576007820154600181811c91168015620018a9575b6020821014620017d057601f811162001870575b506020601f8211600114620017fd5781929394600092620017f1575b50508160011b916000199060031b1c19161760078201555b6101008201518051906001600160401b038211620016ee576008830154600181811c91168015620017e6575b6020821014620017d057601f81116200178b575b50602090601f831160011462001710579180610120949260099460009262001704575b50508160011b916000199060031b1c19161760088201555b0191015180519060018060401b038211620016ee57680100000000000000008211620016ee5760209083548385558084106200169d575b50019160005260206000208160051c9160005b8381106200164b5750601f198116900380620015de575b5050734444444444444444444444444444444444444444600052505060008051602062006d7583398151915260205260008051602062006d358339815191525460ff161562001569575b6040516141b1908162002b2482396080518181816107680152612b030152f35b734444444444444444444444444444444444444444600081815260008051602062006d7583398151915260205260008051602062006d35833981519152805460ff1916600117905533919060008051602062006cf58339815191529060008051602062006cd58339815191529080a462001549565b9260009360005b818110620015fc57505050015580808080620014ff565b9091948551600781101562001635576200162a602091846001949060ff809160031b9316831b921b19161790565b9601929101620015e5565b634e487b7160e01b600052602160045260246000fd5b6000805b6020811062001666575083820155600101620014e8565b959081516007811015620016355762001693602091896001949060ff809160031b9316831b921b19161790565b920196016200164f565b620016cc908560005283600020601f80870160051c82019281881680620016d3575b500160051c019062002b0a565b84620014d5565b60001990818601918254918a0360031b1c16905589620016bf565b634e487b7160e01b600052604160045260246000fd5b01519050868062001486565b906008840160005260206000209160005b601f198516811062001772575092610120949260019260099583601f1981161062001758575b505050811b0160088201556200149e565b015160001960f88460031b161c1916905586808062001747565b9192602060018192868501518155019401920162001721565b620017be90600885016000526020600020601f850160051c81019160208610620017c5575b601f0160051c019062002b0a565b8462001463565b9091508190620017b0565b634e487b7160e01b600052602260045260246000fd5b90607f16906200144f565b0151905084806200140b565b6007830160005260206000209060005b601f1984168110620018575750600193949583601f198116106200183d575b505050811b01600782015562001423565b015160001960f88460031b161c191690558480806200182c565b9091602060018192858a0151815501930191016200180d565b620018a290600784016000526020600020601f840160051c81019160208510620017c557601f0160051c019062002b0a565b84620013ef565b90607f1690620013db565b60019060208451940193818401550162001384565b620018e590600587016000528484600020918201910162002b0a565b8562001373565b015190508480620012e2565b8360005260206000209060005b601f19841681106200194c5750600193949583601f1981161062001932575b505050811b018255620012f7565b015160001960f88460031b161c1916905584808062001924565b9091602060018192858a01518155019301910162001905565b6200199490846000526020600020601f840160051c81019160208510620017c557601f0160051c019062002b0a565b84620012c6565b90607f1690620012b2565b634e487b7160e01b600052603260045260246000fd5b735555555555555555555555555555555555555555600081815260008051602062006d7583398151915260205260008051602062006d15833981519152805460ff1916600117905533919060008051602062006cf58339815191529060008051602062006cd58339815191529080a46200112c565b60009260005b601f1983168303811062001a5557505060051c0155808080620010e3565b909384516007811015620016355762001a82602091846001949060ff809160031b9316831b921b19161790565b9501910162001a37565b6000805b6020811062001aa7575083820155600101620010ca565b949081516007811015620016355762001ad4602091886001949060ff809160031b9316831b921b19161790565b9201950162001a90565b62001b1090848701600052601f84600020918188168062001b17575b500160051c810190601f870160051c0162002b0a565b85620010ba565b6000199081848b0160051c86010191825491890360031b1c1690558962001afa565b01519050858062001066565b906008850160005260206000209160005b601f198516811062001ba557509183916001936101209695601f1981161062001b8b575b505050811b0160088401556200107e565b015160001960f88460031b161c1916905585808062001b7a565b9192602060018192868501518155019401920162001b56565b62001bf090600886016000526020600020601f850160051c81019160208610620017c557601f0160051c019062002b0a565b8462001046565b90607f169062001032565b01519050848062000fee565b6007840160005260206000209060005b601f198416811062001c685750600193949583601f1981161062001c4e575b505050811b01600783015562001006565b015160001960f88460031b161c1916905584808062001c3d565b9091602060018192858a01518155019301910162001c1e565b62001cb390600785016000526020600020601f840160051c81019160208510620017c557601f0160051c019062002b0a565b8462000fd2565b90607f169062000fbe565b60019060208451940193818401550162000f67565b62001cf690600586016000528484600020918201910162002b0a565b8562000f56565b01519050848062000ec5565b8260005260206000209060005b601f198416811062001d5d5750600193949583601f1981161062001d43575b505050811b01815562000eda565b015160001960f88460031b161c1916905584808062001d35565b9091602060018192858a01518155019301910162001d16565b62001da590836000526020600020601f840160051c81019160208510620017c557601f0160051c019062002b0a565b8462000ea9565b90607f169062000e95565b733333333333333333333333333333333333333333600081815260008051602062006d7583398151915260205260008051602062006df5833981519152805460ff1916600117905533919060008051602062006cf58339815191529060008051602062006cd58339815191529080a462000d0e565b60009260005b601f1983168303811062001e5057505060051c015580808062000cc5565b909384516007811015620016355762001e7d602091846001949060ff809160031b9316831b921b19161790565b9501910162001e32565b6000805b6020811062001ea257508382015560010162000cac565b949081516007811015620016355762001ecf602091886001949060ff809160031b9316831b921b19161790565b9201950162001e8b565b62001f0a90848701600052601f84600020918188168062001b1757500160051c810190601f870160051c0162002b0a565b8562000c9c565b01519050858062000c48565b906008850160005260206000209160005b601f198516811062001f7d57509183916001936101209695601f1981161062001f63575b505050811b01600884015562000c60565b015160001960f88460031b161c1916905585808062001f52565b9192602060018192868501518155019401920162001f2e565b62001fc890600886016000526020600020601f850160051c81019160208610620017c557601f0160051c019062002b0a565b8462000c28565b90607f169062000c14565b01519050848062000bd0565b6007840160005260206000209060005b601f1984168110620020405750600193949583601f1981161062002026575b505050811b01600783015562000be8565b015160001960f88460031b161c1916905584808062002015565b9091602060018192858a01518155019301910162001ff6565b6200208b90600785016000526020600020601f840160051c81019160208510620017c557601f0160051c019062002b0a565b8462000bb4565b90607f169062000ba0565b60019060208451940193818401550162000b49565b620020ce90600586016000528484600020918201910162002b0a565b8562000b38565b01519050848062000aa7565b8260005260206000209060005b601f1984168110620021355750600193949583601f198116106200211b575b505050811b01815562000abc565b015160001960f88460031b161c191690558480806200210d565b9091602060018192858a015181550193019101620020ee565b6200217d90836000526020600020601f840160051c81019160208510620017c557601f0160051c019062002b0a565b8462000a8b565b90607f169062000a77565b732222222222222222222222222222222222222222600081815260008051602062006d7583398151915260205260008051602062006db5833981519152805460ff1916600117905533919060008051602062006cf58339815191529060008051602062006cd58339815191529080a4620008f7565b60009260005b601f198316830381106200222857505060051c0155808080620008ae565b909384516007811015620016355762002255602091846001949060ff809160031b9316831b921b19161790565b950191016200220a565b6000805b602081106200227a57508382015560010162000895565b9490815160078110156200163557620022a7602091886001949060ff809160031b9316831b921b19161790565b9201950162002263565b620022e290848701600052601f84600020918188168062001b1757500160051c810190601f870160051c0162002b0a565b8562000885565b01519050858062000831565b906008850160005260206000209160005b601f19851681106200235557509183916001936101209695601f198116106200233b575b505050811b01600884015562000849565b015160001960f88460031b161c191690558580806200232a565b9192602060018192868501518155019401920162002306565b620023a090600886016000526020600020601f850160051c81019160208610620017c557601f0160051c019062002b0a565b8462000811565b90607f1690620007fd565b015190508480620007b9565b6007840160005260206000209060005b601f1984168110620024185750600193949583601f19811610620023fe575b505050811b016007830155620007d1565b015160001960f88460031b161c19169055848080620023ed565b9091602060018192858a015181550193019101620023ce565b6200246390600785016000526020600020601f840160051c81019160208510620017c557601f0160051c019062002b0a565b846200079d565b90607f169062000789565b60019060208451940193818401550162000732565b620024a690600586016000528484600020918201910162002b0a565b8562000721565b01519050848062000690565b8260005260206000209060005b601f19841681106200250d5750600193949583601f19811610620024f3575b505050811b018155620006a5565b015160001960f88460031b161c19169055848080620024e5565b9091602060018192858a015181550193019101620024c6565b6200255590836000526020600020601f840160051c81019160208510620017c557601f0160051c019062002b0a565b8462000674565b90607f169062000660565b731111111111111111111111111111111111111111600081815260008051602062006d7583398151915260205260008051602062006d55833981519152805460ff1916600117905533919060008051602062006cf58339815191529060008051602062006cd58339815191529080a4620004da565b60009260005b601f198316830381106200260057505060051c015580808062000491565b90938451600781101562001635576200262d602091846001949060ff809160031b9316831b921b19161790565b95019101620025e2565b6000805b602081106200265257508382015560010162000478565b94908151600781101562001635576200267f602091886001949060ff809160031b9316831b921b19161790565b920195016200263b565b620026ba90848701600052601f84600020918188168062001b1757500160051c810190601f870160051c0162002b0a565b8562000468565b01519050858062000414565b906008850160005260206000209160005b601f19851681106200272d57509183916001936101209695601f1981161062002713575b505050811b0160088401556200042c565b015160001960f88460031b161c1916905585808062002702565b91926020600181928685015181550194019201620026de565b6200277890600886016000526020600020601f850160051c81019160208610620017c557601f0160051c019062002b0a565b84620003f4565b90607f1690620003e0565b0151905084806200039c565b6007840160005260206000209060005b601f1984168110620027f05750600193949583601f19811610620027d6575b505050811b016007830155620003b4565b015160001960f88460031b161c19169055848080620027c5565b9091602060018192858a015181550193019101620027a6565b6200283b90600785016000526020600020601f840160051c81019160208510620017c557601f0160051c019062002b0a565b8462000380565b90607f16906200036c565b60019060208451940193818401550162000315565b6200287e90600586016000528484600020918201910162002b0a565b3862000304565b01519050388062000272565b8260005260206000209060005b601f1984168110620028e55750600193949583601f19811610620028cb575b505050811b01815562000287565b015160001960f88460031b161c19169055388080620028bd565b9091602060018192858a0151815501930191016200289e565b6200292d90836000526020600020601f840160051c81019160208510620017c557601f0160051c019062002b0a565b3862000256565b90607f169062000242565b8060005260006020526040600020336000526020526040600020600160ff198254161790553390339060008051602062006cd5833981519152600080a43862000119565b33600081815260008051602062006dd583398151915260205260408120805460ff19166001179055819060008051602062006cd58339815191528180a4620000be565b60405162461bcd60e51b815260206004820152601560248201527f496e76616c69642066656520726563697069656e7400000000000000000000006044820152606490fd5b60405162461bcd60e51b815260206004820152601a60248201527f496e76616c696420636c617373696669657220616464726573730000000000006044820152606490fd5b600080fd5b6040519061014082016001600160401b03811183821017620016ee57604052565b60408051919082016001600160401b03811183821017620016ee57604052565b60405190606082016001600160401b03811183821017620016ee57604052565b60405190602082016001600160401b03811183821017620016ee57604052565b51906001600160a01b038216820362002a5057565b805115620019a65760200190565b805160011015620019a65760400190565b81811062002b16575050565b6000815560010162002b0a56fe61018080604052600436101561001457600080fd5b600090813560e01c90816301ffc9a7146139fe5750806307a873b214612f0e5780630ded369b14612b5057806313cd1c35146118385780631c91ecb614612b325780631cd90adc14612aed578063248a9ca314612ac15780632630d318146125a55780632f2ff15d146124ee57806336568abe1461245b5780633a6c363214612395578063469048401461236c57806347e646561461233157806361fd5c201461226157806364900f5f146118ec57806375794a3c146118ce5780637cf00f63146118855780638807379f146118385780638e61c67a146117f45780639103a0e0146117b957806391d148541461176e57806391f83cf1146104e4578063a217fddf146104c8578063ca5c5007146104aa578063ca82a01414610471578063d547741f14610431578063dbd0b271146103da578063f809abab146101815763ff3a3c251461016157600080fd5b3461017e578060031936011261017e576020600854604051908152f35b80fd5b503461017e57602036600319011261017e57600435815260026020526040902080546001600160a01b03919082166101bb60018301613c3a565b6080526101ca60028301613c3a565b60a052600382015492600483015460e0526005830154936006840154916007850154916008860154600987015490600a880161020590613c3a565b93600b8901541694600c890161021a90613c3a565b96600d8a015460ff1660c052600e8a01549a600f8b01549960108c015460ff169b6011810161024890613c3a565b6101005260128101546101605260130161026190613c3a565b610120526040518061014052526102c080610140516020015261014051016080519061028c91613b94565b61014051808203906040015260a051906102a591613b94565b95610140516060015260e05161014051608001526101405160a001526101405160c001526101405160e00152610140516101000152610140516101200160ff8216906102f091613bb9565b8060081c60ff1661030081613bdc565b61014051610140015261014051610160019060101c60ff169061032291613be6565b6101405180820390610180015261033891613b94565b90610140516101a0015261014051808203906101c0015261035891613b94565b92610140516101e00160c0519061036e91613bf3565b61014051610200015261014051610220015215156101405161024001526101405180820390610260015261010051906103a691613b94565b6101605161014051610280015261014051808203906102a00152610140519061012051906103d391613b94565b0361014051f35b503461017e57602036600319011261017e5761042d90610419906005906040906001600160a01b0361040a613a53565b1681526004602052200161412c565b604051918291602083526020830190613ce0565b0390f35b503461017e57604036600319011261017e5761046e600435610451613a6e565b90808452836020526104696001604086200154613d4b565b613ec2565b80f35b503461017e57602036600319011261017e576020906040906001600160a01b03610499613a53565b168152600383522054604051908152f35b503461017e578060031936011261017e576020600a54604051908152f35b503461017e578060031936011261017e57602090604051908152f35b503461017e5761018036600319011261017e576004356001600160401b03811161176a57610516903690600401613b13565b906024356001600160401b03811161176a57610536903690600401613b13565b6006608435101561176a57600760a435101561176a5760c4356001600160401b0381116117665761056b903690600401613b13565b91610144356001600160401b03811161176a5761058c903690600401613b13565b91610164356001600160401b038111611766576105ad903690600401613b13565b3360009081527fcf0e2fee954c1b210b650a2cee16f85c2d817015d3803a8d10b7d7ece2d53212602052604090205490919060ff16156115c6576a0422ca8b0a00a42500000060443510611582576044356064351161152f576107d060e435116114f1578551156114bc57805115611485573383526004602052604083209160ff60068401541615611434576106446084356140b7565b9460405195866101208101106001600160401b036101208901111761140b576101208701604052604435875261067f60a4356020890161401e565b87604088015261068e81613bdc565b6060870152336080870152605a60a087015242610124351160c08701526101243560e0870152600161010087015284604051808098630a2676b360e21b825260206004830152805160248301526106ed60208201516044840190613be6565b61010061070b60408301516101206064860152610144850190613b94565b91606081015161071a81613bdc565b608485015260808101516001600160a01b0390811660a486015260a082015160c486015260c0820151151560e486015260e082015161010486015291015115156101248401529190039082907f0000000000000000000000000000000000000000000000000000000000000000165afa95861561142957859661128b575b508551600281101561127757600103611219576006549660001988146112055760018801600655604080518a610809838360206107de8183019586815193849201613b71565b81018a51906107f4828d60208085019101613b71565b01426020820152036020810185520183613ad7565b60018060a01b0391519020169701519060ff6001870154169061010435620151809080828102048214811517156111f1576108e493929161084b910242613f36565b936040519761085989613aa0565b8b89528d60208a015260408901526064356060890152604435608089015260a088015260643560c08801528860e088015260e435610100880152886101208801526108a5608435613bdc565b6084356101408801526108be60a435610160890161401e565b610180870152336101a08701526108d487613c3a565b6101c08701526101e0860161406f565b426102008501526102208401526001610240840152610260830152610124356102808301526102a08201528483526002602052604083209060018060a01b038151166bffffffffffffffffffffffff60a01b83541617825560208101518051906001600160401b038211610f015781906109616001860154613c00565b601f81116111be575b50602090601f831160011461114f578792611144575b50508160011b916000199060031b1c19161760018301555b60408101518051906001600160401b038211610f015781906109bd6002860154613c00565b601f8111611111575b50602090601f83116001146110a2578792611097575b50508160011b916000199060031b1c19161760028301555b606081015160038301556080810151600483015560a0810151600583015560c0810151600683015560e0810151600783015561010081015160088301556101208101516005811015610f155760098301549061014083015191610a5683613bdc565b610a5f83613bdc565b61016084015160078110156110835761ff0062ff000060ff9260101b169460081b1692169062ffffff191617171760098301556101808101518051906001600160401b038211610f01578190610ab8600a860154613c00565b601f8111611050575b50602090601f8311600114610fe1578792610fd6575b50508160011b916000199060031b1c191617600a8301555b600b820160018060a01b036101a0830151166bffffffffffffffffffffffff60a01b8254161790556101c08101518051906001600160401b038211610f01578190610b3d600c860154613c00565b601f8111610fa3575b50602090601f8311600114610f34578792610f29575b50508160011b916000199060031b1c191617600c8301555b6101e08101516004811015610f1557610b9090600d8401614092565b610200810151600e830155610220810151600f830155610bc66102408201511515601084019060ff801983541691151516179055565b6102608101518051906001600160401b038211610f0157610bea6011850154613c00565b601f8111610ece575b50602090601f8311600114610e5d576102a0939291879183610e52575b50508160011b916000199060031b1c19161760118401555b61028081015160128401550151908151906001600160401b038211610e3e57601382910192610c578454613c00565b601f8111610e03575b50602090601f8311600114610d9f578692610d94575b50508160011b916000199060031b1c19161790555b82825260036020528360408320556003810180549060018201809211610d80575560050180549091600160401b821015610d6c575060018101808355811015610d565783916000526020600020015560075460018101809111610d40577f764dd9ac505ec672337c4f7562125a06d655ee17e39f3c98b7a7730ec3f0467d610d286020958593600755604051918291606083526060830190613b94565b604435888301523360408301520390a3604051908152f35b634e487b7160e01b600052601160045260246000fd5b634e487b7160e01b600052603260045260246000fd5b634e487b7160e01b81526041600452602490fd5b634e487b7160e01b84526011600452602484fd5b015190503880610c76565b848752602087209250601f198416875b818110610deb5750908460019594939210610dd2575b505050811b019055610c8b565b015160001960f88460031b161c19169055388080610dc5565b92936020600181928786015181550195019301610daf565b610e2e9085885260208820601f850160051c81019160208610610e34575b601f0160051c019061407b565b38610c60565b9091508190610e21565b634e487b7160e01b85526041600452602485fd5b015190503880610c10565b906011850187526020872091875b601f1985168110610eb657509183916001936102a09695601f19811610610e9d575b505050811b016011840155610c28565b015160001960f88460031b161c19169055388080610e8d565b91926020600181928685015181550194019201610e6b565b610efb9060118601885260208820601f850160051c81019160208610610e3457601f0160051c019061407b565b38610bf3565b634e487b7160e01b86526041600452602486fd5b634e487b7160e01b85526021600452602485fd5b015190503880610b5c565b9250600c85018752602087209087935b601f1984168510610f88576001945083601f19811610610f6f575b505050811b01600c830155610b74565b015160001960f88460031b161c19169055388080610f5f565b81810151835560209485019460019093019290910190610f44565b610fd090600c8701895260208920601f850160051c81019160208610610e3457601f0160051c019061407b565b38610b46565b015190503880610ad7565b9250600a85018752602087209087935b601f1984168510611035576001945083601f1981161061101c575b505050811b01600a830155610aef565b015160001960f88460031b161c1916905538808061100c565b81810151835560209485019460019093019290910190610ff1565b61107d90600a8701895260208920601f850160051c81019160208610610e3457601f0160051c019061407b565b38610ac1565b634e487b7160e01b88526021600452602488fd5b0151905038806109dc565b9250600285018752602087209087935b601f19841685106110f6576001945083601f198116106110dd575b505050811b0160028301556109f4565b015160001960f88460031b161c191690553880806110cd565b818101518355602094850194600190930192909101906110b2565b61113e9060028701895260208920601f850160051c81019160208610610e3457601f0160051c019061407b565b386109c6565b015190503880610980565b9250600185018752602087209087935b601f19841685106111a3576001945083601f1981161061118a575b505050811b016001830155610998565b015160001960f88460031b161c1916905538808061117a565b8181015183556020948501946001909301929091019061115f565b6111eb9060018701895260208920601f850160051c81019160208610610e3457601f0160051c019061407b565b3861096a565b634e487b7160e01b8a52601160045260248afd5b634e487b7160e01b86526011600452602486fd5b60405162461bcd60e51b815260206004820152603060248201527f50726f70657274792073686f756c6420626520636c617373696669656420617360448201526f040b08aa4825840dcdee840a0a49ea0b60831b6064820152608490fd5b634e487b7160e01b86526021600452602486fd5b9095503d908186823e61129e8282613ad7565b6020818381010312611425578051916001600160401b0383116114215760a0838301828401031261142157604051928360a08101106001600160401b0360a08601111761140b5760a084016040528083015160028110156113c85784528281016020818101519086015260408082015190860152606001516001600160401b0381116113c857828401601f82848701010112156113c8578082850101519061134582613b5a565b916113536040519384613ad7565b808352602083019185870160208360051b83888b0101010111611407576020818689010101925b60208360051b83888b0101010184106113cc5750505050606085015260808184010151916001600160401b0383116113c8576113bc939081019291010161402a565b60808201529438610798565b8880fd5b83516001600160401b03811161140357602080926113f68b838095888d8f8501940101010161402a565b815201940193905061137a565b8d80fd5b8b80fd5b634e487b7160e01b600052604160045260246000fd5b8680fd5b8580fd5b6040513d87823e3d90fd5b60405162461bcd60e51b8152602060048201526024808201527f446576656c6f706572206e6f742072656769737465726564206f7220696e61636044820152637469766560e01b6064820152608490fd5b60405162461bcd60e51b815260206004820152600f60248201526e14de5b589bdb081c995c5d5a5c9959608a1b6044820152606490fd5b60405162461bcd60e51b815260206004820152600d60248201526c13985b59481c995c5d5a5c9959609a1b6044820152606490fd5b60405162461bcd60e51b8152602060048201526016602482015275088d2ecd2c8cadcc840e4c2e8ca40e8dede40d0d2ced60531b6044820152606490fd5b60405162461bcd60e51b815260206004820152602560248201527f5461726765742066756e64696e6720657863656564732070726f70657274792060448201526476616c756560d81b6064820152608490fd5b606460405162461bcd60e51b815260206004820152602060248201527f50726f70657274792076616c756520746f6f206c6f7720666f722050524f50586044820152fd5b6115cf33613f54565b604051907f4504b9dfd7400a1522f49a8b4a100552da9236849581fd59b7363eb48c6a474c6115fd83613abc565b6042835260208301906060368337835115610d5657603082538351600190811015610d5657607860218601536041905b8082116117225750506116de5760486116ab926116ba926116da9560405195869376020b1b1b2b9b9a1b7b73a3937b61d1030b1b1b7bab73a1604d1b6020860152611682815180926020603789019101613b71565b8401917001034b99036b4b9b9b4b733903937b6329607d1b603784015251809386840190613b71565b01036028810184520182613ad7565b60405162461bcd60e51b8152602060048201529182916024830190613b94565b0390fd5b606460405162461bcd60e51b815260206004820152602060248201527f537472696e67733a20686578206c656e67746820696e73756666696369656e746044820152fd5b9091600f81166010811015610d56576f181899199a1a9b1b9c1cb0b131b232b360811b901a6117518488613f43565b5360041c918015610d4057600019019061162d565b8280fd5b5080fd5b503461017e57604036600319011261017e57604061178a613a6e565b91600435815280602052209060018060a01b0316600052602052602060ff604060002054166040519015158152f35b503461017e578060031936011261017e5760206040517f4504b9dfd7400a1522f49a8b4a100552da9236849581fd59b7363eb48c6a474c8152f35b503461017e57602036600319011261017e576004359060095482101561017e57602061181f83613d14565b905460405160039290921b1c6001600160a01b03168152f35b503461017e57602036600319011261017e57600435815260056020908152604091829020805460018201546002830154600390930154855192835293820152928301526060820152608090f35b503461017e57604036600319011261017e57600460406118a3613a6e565b9282358152600560205220019060018060a01b03166000526020526020604060002054604051908152f35b503461017e578060031936011261017e576020600654604051908152f35b503461017e57602036600319011261017e57611906613a53565b606061012060405161191781613a84565b82815284602082015284604082015284838201528460808201528260a08201528460c08201528260e082015282610100820152015260018060a01b031681526004602052604081209060096040519261196f84613a84565b61197881613c3a565b845261198e60ff6001830154166020860161406f565b6002810154604085015260038101546060850152600481015460808501526119b86005820161412c565b60a085015260ff600682015416151560c08501526119d860078201613c3a565b60e08501526119e960088201613c3a565b61010085015260405191018054808352908352602080842091839182019085905b80601f830110611fd857611b20945491818110611fbd575b818110611f9f575b818110611f81575b818110611f63575b818110611f46575b818110611f28575b818110611f0a575b818110611eec575b818110611ece575b818110611eb0575b818110611e92575b818110611e74575b818110611e56575b818110611e38575b818110611e1a575b818110611dfc575b818110611dde575b818110611dc0575b818110611da2575b818110611d84575b818110611d66575b818110611d48575b818110611d2a575b818110611d0c575b818110611cee575b818110611cd0575b818110611cb2575b818110611c94575b818110611c76575b818110611c58575b818110611c3a575b10611c23575b500382613ad7565b61012083015260405191829160208352610120611bd3611bbd611b9a611b54865161014060208a0152610160890190613b94565b611b66602088015160408a0190613bf3565b6040870151606089015260608701516080890152608087015160a089015260a0870151601f198983030160c08a0152613ce0565b60c0860151151560e088015260e0860151601f1988830301610100890152613b94565b610100850151868203601f190184880152613b94565b92015191601f1984820301610140850152602080845192838152019301915b818110611c00575050500390f35b9193509160208082611c156001948851613be6565b019401910191849392611bf2565b90611c338160209360f81c613be6565b0138611b18565b92602081611c5060019360ff8760f01c16613be6565b019301611b12565b92602081611c6e60019360ff8760e81c16613be6565b019301611b0a565b92602081611c8c60019360ff8760e01c16613be6565b019301611b02565b92602081611caa60019360ff8760d81c16613be6565b019301611afa565b92602081611cc860019360ff8760d01c16613be6565b019301611af2565b92602081611ce660019360ff8760c81c16613be6565b019301611aea565b92602081611d0460019360ff8760c01c16613be6565b019301611ae2565b92602081611d2260019360ff8760b81c16613be6565b019301611ada565b92602081611d4060019360ff8760b01c16613be6565b019301611ad2565b92602081611d5e60019360ff8760a81c16613be6565b019301611aca565b92602081611d7c60019360ff8760a01c16613be6565b019301611ac2565b92602081611d9a60019360ff8760981c16613be6565b019301611aba565b92602081611db860019360ff8760901c16613be6565b019301611ab2565b92602081611dd660019360ff8760881c16613be6565b019301611aaa565b92602081611df460019360ff8760801c16613be6565b019301611aa2565b92602081611e1260019360ff8760781c16613be6565b019301611a9a565b92602081611e3060019360ff8760701c16613be6565b019301611a92565b92602081611e4e60019360ff8760681c16613be6565b019301611a8a565b92602081611e6c60019360ff8760601c16613be6565b019301611a82565b92602081611e8a60019360ff8760581c16613be6565b019301611a7a565b92602081611ea860019360ff8760501c16613be6565b019301611a72565b92602081611ec660019360ff8760481c16613be6565b019301611a6a565b92602081611ee460019360ff8760401c16613be6565b019301611a62565b92602081611f0260019360ff8760381c16613be6565b019301611a5a565b92602081611f2060019360ff8760301c16613be6565b019301611a52565b92602081611f3e60019360ff8760281c16613be6565b019301611a4a565b92602081611f5b60019360ff87851c16613be6565b019301611a42565b92602081611f7960019360ff8760181c16613be6565b019301611a3a565b92602081611f9760019360ff8760101c16613be6565b019301611a32565b92602081611fb560019360ff8760081c16613be6565b019301611a2a565b92602081611fd060019360ff8716613be6565b019301611a22565b9160209193506104006001916122538754611ff68360ff8316613be6565b61200886840160ff8360081c16613be6565b61201b6040840160ff8360101c16613be6565b61202e6060840160ff8360181c16613be6565b6120406080840160ff83891c16613be6565b61205360a0840160ff8360281c16613be6565b61206660c0840160ff8360301c16613be6565b61207960e0840160ff8360381c16613be6565b61208d610100840160ff8360401c16613be6565b6120a1610120840160ff8360481c16613be6565b6120b5610140840160ff8360501c16613be6565b6120c9610160840160ff8360581c16613be6565b6120dd610180840160ff8360601c16613be6565b6120f16101a0840160ff8360681c16613be6565b6121056101c0840160ff8360701c16613be6565b6121196101e0840160ff8360781c16613be6565b61212d610200840160ff8360801c16613be6565b612141610220840160ff8360881c16613be6565b612155610240840160ff8360901c16613be6565b612169610260840160ff8360981c16613be6565b61217d610280840160ff8360a01c16613be6565b6121916102a0840160ff8360a81c16613be6565b6121a56102c0840160ff8360b01c16613be6565b6121b96102e0840160ff8360b81c16613be6565b6121cd610300840160ff8360c01c16613be6565b6121e1610320840160ff8360c81c16613be6565b6121f5610340840160ff8360d01c16613be6565b612209610360840160ff8360d81c16613be6565b61221d610380840160ff8360e01c16613be6565b6122316103a0840160ff8360e81c16613be6565b6122456103c0840160ff8360f01c16613be6565b6103e083019060f81c613be6565b019401920184929391611a0a565b503461017e57602036600319011261017e576122f5906040906001600160a01b0361228a613a53565b16815260046020522061042d61229f82613c3a565b9161232360ff6001830154166002830154926003810154600482015460ff600684015416916122dc60086122d560078701613c3a565b9501613c3a565b966123006040519b8c9b8c6101008091528d0190613b94565b9660208c0190613bf3565b60408a015260608901526080880152151560a087015285820360c0870152613b94565b9083820360e0850152613b94565b503461017e578060031936011261017e5760206040517f5aa58c694aeb083df8754bf5e98675317e4137a5a8a2c6188d0228869e43da7e8152f35b503461017e578060031936011261017e57600b546040516001600160a01b039091168152602090f35b503461017e578060031936011261017e5760405180916009549081835260208093018092600983527f6e1540171b6c0c960b71a7020d9f60077f6af931a8bbf590da0223dacf75c7af90835b81811061243e57505050846123f7910385613ad7565b60405193838594850191818652518092526040850193925b82811061241e57505050500390f35b83516001600160a01b03168552869550938101939281019260010161240f565b82546001600160a01b0316845292860192600192830192016123e1565b503461017e57604036600319011261017e57612475613a6e565b336001600160a01b038216036124915761046e90600435613ec2565b60405162461bcd60e51b815260206004820152602f60248201527f416363657373436f6e74726f6c3a2063616e206f6e6c792072656e6f756e636560448201526e103937b632b9903337b91039b2b63360891b6064820152608490fd5b503461017e57604036600319011261017e5760043561250b613a6e565b818352826020526125226001604085200154613d4b565b81600052600060205260406000209060018060a01b0316908160005260205260ff6040600020541615612553578280f35b8160005260006020526040600020816000526020526040600020600160ff1982541617905533917f2f8788117e7eff1d82e926ec794901d17c78024a50270940304540a733656f0d600080a438808280f35b50604036600319011261017e57600260015414612a7c576002600155600435815260026020526040812060ff60108201541615612a4457600981019060ff8254166005811015612881578015908115612a39575b5015612a0357600f81015442116129be576005810154602435106129795760068101908154600782019161262f835480936140aa565b6024351161293b57600b8101546001600160a01b031686526004602052604086206002015460243580820293918115918504141715612927576126869061267c61271085046024356140aa565b5060243590613f36565b83556004358652600560205260408620338752600481016020526040872054156128fd575b338752600481016020526126c56024356040892054613f36565b338852600482016020526040882055600581016020524260408820556969e10de76676d080000060243510156000146128e557600281016127096024358254613f36565b90555b61271f6002820154600383015490613f36565b81549081156128d157046001909101555485906001600160a01b0316803b1561176a5781906044604051809481936340c10f1960e01b835233600484015260243560248401525af180156128c657612895575b506127106127839104600a54613f36565b600a555490541161281e57805460ff198116600217909155604051906127ad90829060ff16613bb9565b600260208201527fa3faacdb08966166ca0be23ed578eb9af9e036f3d6808d0f793695e10c7cf3e1604060043592a25b6040516024358152602435602082015233907ff813449d3ec425cf9e85cfc22bc09f6aacbbd036a3254c904433b76e99c5fadb604060043592a36001805580f35b805460ff81166005811015612881571561283a575b50506127dd565b60019060ff191617905560405160008152600160208201527fa3faacdb08966166ca0be23ed578eb9af9e036f3d6808d0f793695e10c7cf3e1604060043592a23880612833565b634e487b7160e01b84526021600452602484fd5b6001600160401b0381969296116128b25760405293612710612772565b634e487b7160e01b82526041600452602482fd5b6040513d88823e3d90fd5b634e487b7160e01b89526012600452602489fd5b600381016128f66024358254613f36565b905561270c565b80546001810181116129135760010181556126ab565b634e487b7160e01b88526011600452602488fd5b634e487b7160e01b87526011600452602487fd5b60405162461bcd60e51b8152602060048201526016602482015275115e18d959591cc8199d5b991a5b99c81d185c99d95d60521b6044820152606490fd5b60405162461bcd60e51b815260206004820152601860248201527f42656c6f77206d696e696d756d20696e766573746d656e7400000000000000006044820152606490fd5b60405162461bcd60e51b815260206004820152601760248201527f46756e64696e6720646561646c696e65207061737365640000000000000000006044820152606490fd5b60405162461bcd60e51b815260206004820152600e60248201526d119d5b991a5b99c818db1bdcd95960921b6044820152606490fd5b6001915014386125f9565b60405162461bcd60e51b815260206004820152601060248201526f546f6b656e206e6f742061637469766560801b6044820152606490fd5b60405162461bcd60e51b815260206004820152601f60248201527f5265656e7472616e637947756172643a207265656e7472616e742063616c6c006044820152606490fd5b503461017e57602036600319011261017e57600160406020926004358152808452200154604051908152f35b503461017e578060031936011261017e576040517f00000000000000000000000000000000000000000000000000000000000000006001600160a01b03168152602090f35b503461017e578060031936011261017e576020600754604051908152f35b503461017e57602036600319011261017e5760606102a0604051612b7381613aa0565b83815282602082015282604082015283838201528360808201528360a08201528360c08201528360e08201528361010082015283610120820152836101408201528361016082015282610180820152836101a0820152826101c0820152836101e08201528361020082015283610220820152836102408201528261026082015283610280820152015260043581526002602052604081209060405190612c1882613aa0565b82546001600160a01b03168252612c3160018401613c3a565b6020830152612c4260028401613c3a565b60408301526003830154606083015260048301546080830152600583015460a0830152600683015460c0830152600783015460e08301526008830154610100830152600983015490600560ff83161015612efa5750601361042d93612cd260ff8481612d689616610120880152818160081c16612cbe81613bdc565b61014088015260101c16610160860161401e565b612cde600a8201613c3a565b610180850152600b8101546001600160a01b03166101a0850152612d04600c8201613c3a565b6101c0850152612d1f60ff600d830154166101e0860161406f565b600e810154610200850152600f81015461022085015260ff6010820154161515610240850152612d5160118201613c3a565b610260850152601281015461028085015201613c3a565b6102a08201526040519182916020835260018060a01b0381511660208401526102a0612edb612e89612e5b612dc7612db160208701516102c060408b01526102e08a0190613b94565b6040870151898203601f190160608b0152613b94565b60608601516080890152608086015160a089015260a086015160c089015260c086015160e089015260e0860151610100890152610100860151610120890152612e1a6101208701516101408a0190613bb9565b610140860151612e2981613bdc565b610160890152612e436101608701516101808a0190613be6565b610180860151888203601f19016101a08a0152613b94565b6101a08501516001600160a01b03166101c088810191909152850151878203601f19016101e0890152613b94565b612e9d6101e0850151610200880190613bf3565b6102008401516102208701526102208401516102408701526102408401511515610260870152610260840151601f1987830301610280880152613b94565b61028083015185830152910151838203601f19016102c0850152613b94565b634e487b7160e01b81526021600452602490fd5b503461017e5760c036600319011261017e57612f28613a53565b6024356001600160401b03811161176657612f47903690600401613b13565b60046044351015611766576064356001600160401b0381116139fa57612f71903690600401613b13565b6084356001600160401b0381116139f657612f90903690600401613b13565b9060a4356001600160401b0381116114255736602382011215611425578060040135612fbb81613b5a565b91612fc96040519384613ad7565b8183526024602084019260051b820101903682116113c857602401915b8183106139d957505050858052856020526040862033875260205260ff604087205416156138b7576001600160a01b03851615613872576001600160a01b03851686526004602052604086206006015460ff1661382d57859260443560010361380f576096925b6040518060208101106001600160401b036020830111176137fb57602081016040528881526040519461307f86613a84565b8786526130916044356020880161406f565b604086015288606086015288608086015260a0850152600160c085015260e084015261010083015261012082015260018060a01b03841685526004602052604085209080518051906001600160401b0382116136515781906130f38554613c00565b601f81116137cb575b50602090601f8311600114613762578992613757575b50508160011b916000199060031b1c19161782555b60208101516004811015613743576131429060018401614092565b60408101516002830155606081015160038301556080810151600483015560a08101518051906001600160401b03821161365157600160401b8211613651576020906005850154836005870155808410613726575b500160058401885260208820885b83811061371257505050506131cf60c08201511515600684019060ff801983541691151516179055565b60e08101518051906001600160401b0382116136515781906131f46007860154613c00565b601f81116136df575b50602090601f8311600114613670578992613665575b50508160011b916000199060031b1c19161760078301555b6101008101518051906001600160401b0382116136515761324f6008850154613c00565b601f811161361e575b50602090601f83116001146135ad576101209392918991836135a2575b50508160011b916000199060031b1c19161760088401555b01518051906001600160401b03821161358e57600160401b821161358e57602060099182850154848487015580851061353a575b5001920186526020862090865b8160051c81106134ed5750601f19811692838203613483575b505050507f4504b9dfd7400a1522f49a8b4a100552da9236849581fd59b7363eb48c6a474c808552846020526040852060018060a01b038516865260205260ff6040862054161561342e575b5061341a5760016044351461339c575b61337c7f0bfef8d1a17ebc1779569b60c7c349b6ba106d24a1d47d14e5c5f962007f5a3791604051918291604083526040830190613b94565b9361338c60208301604435613bf3565b6001600160a01b0316930390a280f35b600954600160401b811015613406577f0bfef8d1a17ebc1779569b60c7c349b6ba106d24a1d47d14e5c5f962007f5a37916133e082600161337c9401600955613d14565b81546001600160a01b0387811660039390931b92831b921b191617905591506133439050565b634e487b7160e01b84526041600452602484fd5b634e487b7160e01b83526021600452602483fd5b808552602085815260408087206001600160a01b03871680895292528620805460ff1916600117905533917f2f8788117e7eff1d82e926ec794901d17c78024a50270940304540a733656f0d8780a438613333565b879388905b80840382106134a25750505060051c0155388080806132e7565b90919485519060078210156134d9576134cf600192856020939060ff809160031b9316831b921b19161790565b9601920190613488565b634e487b7160e01b8b52602160045260248bfd5b87885b602081106135055750838201556001016132ce565b949081519060078210156134d957613531600192886020939060ff809160031b9316831b921b19161790565b920195016134f0565b613567908487018b52601f848c20918188168061356d575b500160051c810190601f870160051c0161407b565b386132c1565b6000199081848b0160051c86010191825491890360031b1c16905538613552565b634e487b7160e01b87526041600452602487fd5b015190503880613275565b906008850189526020892091895b601f198516811061360657509183916001936101209695601f198116106135ed575b505050811b01600884015561328d565b015160001960f88460031b161c191690553880806135dd565b919260206001819286850151815501940192016135bb565b61364b90600886018a5260208a20601f850160051c81019160208610610e3457601f0160051c019061407b565b38613258565b634e487b7160e01b88526041600452602488fd5b015190503880613213565b9250600785018952602089209089935b601f19841685106136c4576001945083601f198116106136ab575b505050811b01600783015561322b565b015160001960f88460031b161c1916905538808061369b565b81810151835560209485019460019093019290910190613680565b61370c90600787018b5260208b20601f850160051c81019160208610610e3457601f0160051c019061407b565b386131fd565b6001906020845194019381840155016131a5565b600586018a52828a2061373d91810190850161407b565b38613197565b634e487b7160e01b87526021600452602487fd5b015190503880613112565b9250848952602089209089935b601f19841685106137b0576001945083601f19811610613797575b505050811b018255613127565b015160001960f88460031b161c1916905538808061378a565b8181015183556020948501946001909301929091019061376f565b6137f590868b5260208b20601f850160051c81019160208610610e3457601f0160051c019061407b565b386130fc565b634e487b7160e01b89526041600452602489fd5b8693506044356002036138245760fa9261304d565b61015e9261304d565b60405162461bcd60e51b815260206004820152601c60248201527f446576656c6f70657220616c72656164792072656769737465726564000000006044820152606490fd5b60405162461bcd60e51b815260206004820152601960248201527f496e76616c696420646576656c6f7065722061646472657373000000000000006044820152606490fd5b856138c133613f54565b81604051926138cf84613abc565b60428452602084019160603684378451156139c557603083538451906001918210156139c55790607860218701536041915b818311613957575050506116de5760486116ab926116ba926116da9560405195869376020b1b1b2b9b9a1b7b73a3937b61d1030b1b1b7bab73a1604d1b6020860152611682815180926020603789019101613b71565b909192600f811660108110156139b1576f181899199a1a9b1b9c1cb0b131b232b360811b901a6139878589613f43565b5360041c92801561399d57600019019190613901565b634e487b7160e01b82526011600452602482fd5b634e487b7160e01b83526032600452602483fd5b634e487b7160e01b81526032600452602490fd5b823560078110156139f257815260209283019201612fe6565b8980fd5b8480fd5b8380fd5b90503461176a57602036600319011261176a5760043563ffffffff60e01b81168091036117665760209250637965db0b60e01b8114908115613a42575b5015158152f35b6301ffc9a760e01b14905038613a3b565b600435906001600160a01b0382168203613a6957565b600080fd5b602435906001600160a01b0382168203613a6957565b61014081019081106001600160401b0382111761140b57604052565b6102c081019081106001600160401b0382111761140b57604052565b608081019081106001600160401b0382111761140b57604052565b90601f801991011681019081106001600160401b0382111761140b57604052565b6001600160401b03811161140b57601f01601f191660200190565b81601f82011215613a6957803590613b2a82613af8565b92613b386040519485613ad7565b82845260208383010111613a6957816000926020809301838601378301015290565b6001600160401b03811161140b5760051b60200190565b60005b838110613b845750506000910152565b8181015183820152602001613b74565b90602091613bad81518092818552858086019101613b71565b601f01601f1916010190565b906005821015613bc65752565b634e487b7160e01b600052602160045260246000fd5b60061115613bc657565b906007821015613bc65752565b906004821015613bc65752565b90600182811c92168015613c30575b6020831014613c1a57565b634e487b7160e01b600052602260045260246000fd5b91607f1691613c0f565b9060405191826000825492613c4e84613c00565b908184526001948581169081600014613cbd5750600114613c7a575b5050613c7892500383613ad7565b565b9093915060005260209081600020936000915b818310613ca5575050613c7893508201013880613c6a565b85548884018501529485019487945091830191613c8d565b915050613c7894506020925060ff191682840152151560051b8201013880613c6a565b90815180825260208080930193019160005b828110613d00575050505090565b835185529381019392810192600101613cf2565b600954811015610d565760096000527f6e1540171b6c0c960b71a7020d9f60077f6af931a8bbf590da0223dacf75c7af0190600090565b600090808252602090828252604092838120338252835260ff848220541615613d745750505050565b613d7d33613f54565b91845190613d8a82613abc565b604282528482019260603685378251156139c557603084538251906001918210156139c55790607860218501536041915b818311613e7c57505050613e3a5760486116da938693613e1e93613e0f985198899376020b1b1b2b9b9a1b7b73a3937b61d1030b1b1b7bab73a1604d1b8a860152611682815180928c603789019101613b71565b01036028810187520185613ad7565b5192839262461bcd60e51b845260048401526024830190613b94565b60648486519062461bcd60e51b825280600483015260248201527f537472696e67733a20686578206c656e67746820696e73756666696369656e746044820152fd5b909192600f811660108110156139b1576f181899199a1a9b1b9c1cb0b131b232b360811b901a613eac8587613f43565b5360041c92801561399d57600019019190613dbb565b9060009180835282602052604083209160018060a01b03169182845260205260ff604084205416613ef257505050565b80835282602052604083208284526020526040832060ff1981541690557ff6391f5c32d9c69d2a47ea670b442974b53935d1edc7fd64eb21e047a839171b339380a4565b91908201809211610d4057565b908151811015610d56570160200190565b60405190606082018281106001600160401b0382111761140b57604052602a8252602082016040368237825115610d5657603090538151600190811015610d5657607860218401536029905b808211613fb05750506116de5790565b9091600f81166010811015614009576f181899199a1a9b1b9c1cb0b131b232b360811b901a613fdf8486613f43565b5360041c918015613ff4576000190190613fa0565b60246000634e487b7160e01b81526011600452fd5b60246000634e487b7160e01b81526032600452fd5b6007821015613bc65752565b81601f82011215613a6957805161404081613af8565b9261404e6040519485613ad7565b81845260208284010111613a695761406c9160208085019101613b71565b90565b6004821015613bc65752565b818110614086575050565b6000815560010161407b565b906004811015613bc65760ff80198354169116179055565b91908203918211610d4057565b6140c081613bdc565b8015614126576140cf81613bdc565b60018114614120576140e081613bdc565b6002811461411a576140f181613bdc565b600481146141145780614105600592613bdc565b1461410f57600090565b600590565b50600490565b50600290565b50600190565b50600090565b9060405191828154918282526020928383019160005283600020936000905b82821061416157505050613c7892500383613ad7565b85548452600195860195889550938101939091019061414b56fea2646970667358221220d31885570b9081077723865daee88c5cd611253402ceca4b03ed980de28c174b64736f6c634300081300332f8788117e7eff1d82e926ec794901d17c78024a50270940304540a733656f0d4504b9dfd7400a1522f49a8b4a100552da9236849581fd59b7363eb48c6a474c7738825a24d04bf35d2bf59a7e19fd6796a6e8017df89dec56a0568b864b4eeb4af78d333037e18e965353f2516dee481cb202b72068f1ca46ca3e75ce284ce8a34554088ad6867f2dfc9fa603bc5552a424e336b5b832d60c824b89d2afe69fcf0e2fee954c1b210b650a2cee16f85c2d817015d3803a8d10b7d7ece2d532126e1540171b6c0c960b71a7020d9f60077f6af931a8bbf590da0223dacf75c7af544c608c6ac15425a4787a3a4ad17209edca66df58b85c636a41715610469845ad3228b676f7d3cd4284a5443f17f1962b36e491b30a40b2405849e597ba5fb559830c25d35125d78709397515616a8b1eac46590a36db81e8f45a66626c8d99",
  "linkReferences": {},
  "deployedLinkReferences": {}
}