{
  "_format": "hh-sol-artifact-1",
  "contractName": "XERAToken",
  "sourceName": "contracts/XERAToken.sol",
  "abi": [
    {
      "inputs": [],
      "stateMutability": "nonpayable",
      "type": "constructor"
    },
    {
      "inputs": [],
      "name": "InvalidShortString",
      "type": "error"
    },
    {
      "inputs": [
        {
          "internalType": "string",
          "name": "str",
          "type": "string"
        }
      ],
      "name": "StringTooLong",
      "type": "error"
    },
    {
      "anonymous": false,
      "inputs": [
        {
          "indexed": true,
          "internalType": "address",
          "name": "owner",
          "type": "address"
        },
        {
          "indexed": true,
          "internalType": "address",
          "name": "spender",
          "type": "address"
        },
        {
          "indexed": false,
          "internalType": "uint256",
          "name": "value",
          "type": "uint256"
        }
      ],
      "name": "Approval",
      "type": "event"
    },
    {
      "anonymous": false,
      "inputs": [
        {
          "indexed": true,
          "internalType": "string",
          "name": "cityCode",
          "type": "string"
        },
        {
          "indexed": false,
          "internalType": "uint256",
          "name": "newValue",
          "type": "uint256"
        }
      ],
      "name": "CityPoolUpdated",
      "type": "event"
    },
    {
      "anonymous": false,
      "inputs": [
        {
          "indexed": true,
          "internalType": "address",
          "name": "delegator",
          "type": "address"
        },
        {
          "indexed": true,
          "internalType": "address",
          "name": "fromDelegate",
          "type": "address"
        },
        {
          "indexed": true,
          "internalType": "address",
          "name": "toDelegate",
          "type": "address"
        }
      ],
      "name": "DelegateChanged",
      "type": "event"
    },
    {
      "anonymous": false,
      "inputs": [
        {
          "indexed": true,
          "internalType": "address",
          "name": "delegate",
          "type": "address"
        },
        {
          "indexed": false,
          "internalType": "uint256",
          "name": "previousBalance",
          "type": "uint256"
        },
        {
          "indexed": false,
          "internalType": "uint256",
          "name": "newBalance",
          "type": "uint256"
        }
      ],
      "name": "DelegateVotesChanged",
      "type": "event"
    },
    {
      "anonymous": false,
      "inputs": [
        {
          "indexed": true,
          "internalType": "address",
          "name": "user",
          "type": "address"
        },
        {
          "indexed": false,
          "internalType": "uint256",
          "name": "amount",
          "type": "uint256"
        },
        {
          "indexed": false,
          "internalType": "uint256",
          "name": "periodId",
          "type": "uint256"
        }
      ],
      "name": "DividendClaimed",
      "type": "event"
    },
    {
      "anonymous": false,
      "inputs": [
        {
          "indexed": true,
          "internalType": "uint256",
          "name": "periodId",
          "type": "uint256"
        },
        {
          "indexed": false,
          "internalType": "uint256",
          "name": "totalAmount",
          "type": "uint256"
        }
      ],
      "name": "DividendDeclared",
      "type": "event"
    },
    {
      "anonymous": false,
      "inputs": [],
      "name": "EIP712DomainChanged",
      "type": "event"
    },
    {
      "anonymous": false,
      "inputs": [
        {
          "indexed": true,
          "internalType": "bytes4",
          "name": "selector",
          "type": "bytes4"
        },
        {
          "indexed": true,
          "internalType": "address",
          "name": "caller",
          "type": "address"
        }
      ],
      "name": "FunctionLocked",
      "type": "event"
    },
    {
      "anonymous": false,
      "inputs": [
        {
          "indexed": true,
          "internalType": "bytes4",
          "name": "selector",
          "type": "bytes4"
        },
        {
          "indexed": true,
          "internalType": "address",
          "name": "caller",
          "type": "address"
        }
      ],
      "name": "FunctionUnlocked",
      "type": "event"
    },
    {
      "anonymous": false,
      "inputs": [
        {
          "indexed": false,
          "internalType": "address",
          "name": "account",
          "type": "address"
        }
      ],
      "name": "Paused",
      "type": "event"
    },
    {
      "anonymous": false,
      "inputs": [
        {
          "indexed": true,
          "internalType": "uint256",
          "name": "propertyId",
          "type": "uint256"
        },
        {
          "indexed": true,
          "internalType": "address",
          "name": "owner",
          "type": "address"
        },
        {
          "indexed": false,
          "internalType": "uint256",
          "name": "valuation",
          "type": "uint256"
        },
        {
          "indexed": false,
          "internalType": "string",
          "name": "cityCode",
          "type": "string"
        },
        {
          "indexed": false,
          "internalType": "enum XERAToken.PropertyCategory",
          "name": "category",
          "type": "uint8"
        }
      ],
      "name": "PropertyAdded",
      "type": "event"
    },
    {
      "anonymous": false,
      "inputs": [
        {
          "indexed": true,
          "internalType": "uint256",
          "name": "propertyId",
          "type": "uint256"
        },
        {
          "indexed": false,
          "internalType": "uint256",
          "name": "oldValuation",
          "type": "uint256"
        },
        {
          "indexed": false,
          "internalType": "uint256",
          "name": "newValuation",
          "type": "uint256"
        }
      ],
      "name": "PropertyRevalued",
      "type": "event"
    },
    {
      "anonymous": false,
      "inputs": [
        {
          "indexed": true,
          "internalType": "uint256",
          "name": "propertyId",
          "type": "uint256"
        },
        {
          "indexed": false,
          "internalType": "uint256",
          "name": "salePrice",
          "type": "uint256"
        }
      ],
      "name": "PropertySold",
      "type": "event"
    },
    {
      "anonymous": false,
      "inputs": [
        {
          "indexed": true,
          "internalType": "address",
          "name": "caller",
          "type": "address"
        },
        {
          "indexed": true,
          "internalType": "bytes4",
          "name": "selector",
          "type": "bytes4"
        }
      ],
      "name": "ReentrancyAttempted",
      "type": "event"
    },
    {
      "anonymous": false,
      "inputs": [
        {
          "indexed": true,
          "internalType": "bytes32",
          "name": "role",
          "type": "bytes32"
        },
        {
          "indexed": true,
          "internalType": "bytes32",
          "name": "previousAdminRole",
          "type": "bytes32"
        },
        {
          "indexed": true,
          "internalType": "bytes32",
          "name": "newAdminRole",
          "type": "bytes32"
        }
      ],
      "name": "RoleAdminChanged",
      "type": "event"
    },
    {
      "anonymous": false,
      "inputs": [
        {
          "indexed": true,
          "internalType": "bytes32",
          "name": "role",
          "type": "bytes32"
        },
        {
          "indexed": true,
          "internalType": "address",
          "name": "account",
          "type": "address"
        },
        {
          "indexed": true,
          "internalType": "address",
          "name": "sender",
          "type": "address"
        }
      ],
      "name": "RoleGranted",
      "type": "event"
    },
    {
      "anonymous": false,
      "inputs": [
        {
          "indexed": true,
          "internalType": "bytes32",
          "name": "role",
          "type": "bytes32"
        },
        {
          "indexed": true,
          "internalType": "address",
          "name": "account",
          "type": "address"
        },
        {
          "indexed": true,
          "internalType": "address",
          "name": "sender",
          "type": "address"
        }
      ],
      "name": "RoleRevoked",
      "type": "event"
    },
    {
      "anonymous": false,
      "inputs": [
        {
          "indexed": true,
          "internalType": "address",
          "name": "from",
          "type": "address"
        },
        {
          "indexed": true,
          "internalType": "address",
          "name": "to",
          "type": "address"
        },
        {
          "indexed": false,
          "internalType": "uint256",
          "name": "value",
          "type": "uint256"
        }
      ],
      "name": "Transfer",
      "type": "event"
    },
    {
      "anonymous": false,
      "inputs": [
        {
          "indexed": false,
          "internalType": "address",
          "name": "account",
          "type": "address"
        }
      ],
      "name": "Unpaused",
      "type": "event"
    },
    {
      "inputs": [],
      "name": "ADMIN_ROLE",
      "outputs": [
        {
          "internalType": "bytes32",
          "name": "",
          "type": "bytes32"
        }
      ],
      "stateMutability": "view",
      "type": "function"
    },
    {
      "inputs": [],
      "name": "CLOCK_MODE",
      "outputs": [
        {
          "internalType": "string",
          "name": "",
          "type": "string"
        }
      ],
      "stateMutability": "view",
      "type": "function"
    },
    {
      "inputs": [],
      "name": "DEFAULT_ADMIN_ROLE",
      "outputs": [
        {
          "internalType": "bytes32",
          "name": "",
          "type": "bytes32"
        }
      ],
      "stateMutability": "view",
      "type": "function"
    },
    {
      "inputs": [],
      "name": "DOMAIN_SEPARATOR",
      "outputs": [
        {
          "internalType": "bytes32",
          "name": "",
          "type": "bytes32"
        }
      ],
      "stateMutability": "view",
      "type": "function"
    },
    {
      "inputs": [],
      "name": "MAX_SUPPLY",
      "outputs": [
        {
          "internalType": "uint256",
          "name": "",
          "type": "uint256"
        }
      ],
      "stateMutability": "view",
      "type": "function"
    },
    {
      "inputs": [],
      "name": "PROPERTY_MANAGER_ROLE",
      "outputs": [
        {
          "internalType": "bytes32",
          "name": "",
          "type": "bytes32"
        }
      ],
      "stateMutability": "view",
      "type": "function"
    },
    {
      "inputs": [],
      "name": "VALUER_ROLE",
      "outputs": [
        {
          "internalType": "bytes32",
          "name": "",
          "type": "bytes32"
        }
      ],
      "stateMutability": "view",
      "type": "function"
    },
    {
      "inputs": [
        {
          "internalType": "address",
          "name": "propertyOwner",
          "type": "address"
        },
        {
          "internalType": "string",
          "name": "propertyAddress",
          "type": "string"
        },
        {
          "internalType": "uint256",
          "name": "valuationInWei",
          "type": "uint256"
        },
        {
          "internalType": "string",
          "name": "ipfsDocumentHash",
          "type": "string"
        },
        {
          "internalType": "enum XERAToken.PropertyCategory",
          "name": "category",
          "type": "uint8"
        },
        {
          "internalType": "string",
          "name": "cityCode",
          "type": "string"
        }
      ],
      "name": "addProperty",
      "outputs": [
        {
          "internalType": "uint256",
          "name": "",
          "type": "uint256"
        }
      ],
      "stateMutability": "nonpayable",
      "type": "function"
    },
    {
      "inputs": [
        {
          "internalType": "address",
          "name": "owner",
          "type": "address"
        },
        {
          "internalType": "address",
          "name": "spender",
          "type": "address"
        }
      ],
      "name": "allowance",
      "outputs": [
        {
          "internalType": "uint256",
          "name": "",
          "type": "uint256"
        }
      ],
      "stateMutability": "view",
      "type": "function"
    },
    {
      "inputs": [
        {
          "internalType": "address",
          "name": "spender",
          "type": "address"
        },
        {
          "internalType": "uint256",
          "name": "amount",
          "type": "uint256"
        }
      ],
      "name": "approve",
      "outputs": [
        {
          "internalType": "bool",
          "name": "",
          "type": "bool"
        }
      ],
      "stateMutability": "nonpayable",
      "type": "function"
    },
    {
      "inputs": [
        {
          "internalType": "uint256",
          "name": "propertyId",
          "type": "uint256"
        }
      ],
      "name": "approveProperty",
      "outputs": [],
      "stateMutability": "nonpayable",
      "type": "function"
    },
    {
      "inputs": [
        {
          "internalType": "address",
          "name": "account",
          "type": "address"
        }
      ],
      "name": "balanceOf",
      "outputs": [
        {
          "internalType": "uint256",
          "name": "",
          "type": "uint256"
        }
      ],
      "stateMutability": "view",
      "type": "function"
    },
    {
      "inputs": [
        {
          "internalType": "address[]",
          "name": "recipients",
          "type": "address[]"
        },
        {
          "internalType": "uint256[]",
          "name": "amounts",
          "type": "uint256[]"
        }
      ],
      "name": "batchTransfer",
      "outputs": [
        {
          "internalType": "bool",
          "name": "",
          "type": "bool"
        }
      ],
      "stateMutability": "nonpayable",
      "type": "function"
    },
    {
      "inputs": [],
      "name": "calculateDiversificationScore",
      "outputs": [
        {
          "internalType": "uint256",
          "name": "",
          "type": "uint256"
        }
      ],
      "stateMutability": "view",
      "type": "function"
    },
    {
      "inputs": [
        {
          "internalType": "uint256",
          "name": "propertyValue",
          "type": "uint256"
        },
        {
          "internalType": "enum XERAToken.PropertyCategory",
          "name": "category",
          "type": "uint8"
        },
        {
          "internalType": "string",
          "name": "cityCode",
          "type": "string"
        }
      ],
      "name": "calculateTokenAllocation",
      "outputs": [
        {
          "internalType": "uint256",
          "name": "",
          "type": "uint256"
        }
      ],
      "stateMutability": "view",
      "type": "function"
    },
    {
      "inputs": [
        {
          "internalType": "enum XERAToken.PropertyCategory",
          "name": "",
          "type": "uint8"
        }
      ],
      "name": "categoryValues",
      "outputs": [
        {
          "internalType": "uint256",
          "name": "",
          "type": "uint256"
        }
      ],
      "stateMutability": "view",
      "type": "function"
    },
    {
      "inputs": [
        {
          "internalType": "address",
          "name": "account",
          "type": "address"
        },
        {
          "internalType": "uint32",
          "name": "pos",
          "type": "uint32"
        }
      ],
      "name": "checkpoints",
      "outputs": [
        {
          "components": [
            {
              "internalType": "uint32",
              "name": "fromBlock",
              "type": "uint32"
            },
            {
              "internalType": "uint224",
              "name": "votes",
              "type": "uint224"
            }
          ],
          "internalType": "struct ERC20Votes.Checkpoint",
          "name": "",
          "type": "tuple"
        }
      ],
      "stateMutability": "view",
      "type": "function"
    },
    {
      "inputs": [
        {
          "internalType": "string",
          "name": "",
          "type": "string"
        }
      ],
      "name": "cityPoolValues",
      "outputs": [
        {
          "internalType": "uint256",
          "name": "",
          "type": "uint256"
        }
      ],
      "stateMutability": "view",
      "type": "function"
    },
    {
      "inputs": [
        {
          "internalType": "string",
          "name": "",
          "type": "string"
        },
        {
          "internalType": "uint256",
          "name": "",
          "type": "uint256"
        }
      ],
      "name": "cityProperties",
      "outputs": [
        {
          "internalType": "uint256",
          "name": "",
          "type": "uint256"
        }
      ],
      "stateMutability": "view",
      "type": "function"
    },
    {
      "inputs": [],
      "name": "claimAllAvailableDividends",
      "outputs": [],
      "stateMutability": "nonpayable",
      "type": "function"
    },
    {
      "inputs": [],
      "name": "clock",
      "outputs": [
        {
          "internalType": "uint48",
          "name": "",
          "type": "uint48"
        }
      ],
      "stateMutability": "view",
      "type": "function"
    },
    {
      "inputs": [],
      "name": "currentDividendPeriod",
      "outputs": [
        {
          "internalType": "uint256",
          "name": "",
          "type": "uint256"
        }
      ],
      "stateMutability": "view",
      "type": "function"
    },
    {
      "inputs": [],
      "name": "currentPropertyCount",
      "outputs": [
        {
          "internalType": "uint256",
          "name": "",
          "type": "uint256"
        }
      ],
      "stateMutability": "view",
      "type": "function"
    },
    {
      "inputs": [],
      "name": "decimals",
      "outputs": [
        {
          "internalType": "uint8",
          "name": "",
          "type": "uint8"
        }
      ],
      "stateMutability": "view",
      "type": "function"
    },
    {
      "inputs": [
        {
          "internalType": "string",
          "name": "source",
          "type": "string"
        }
      ],
      "name": "declareDividend",
      "outputs": [],
      "stateMutability": "payable",
      "type": "function"
    },
    {
      "inputs": [
        {
          "internalType": "address",
          "name": "spender",
          "type": "address"
        },
        {
          "internalType": "uint256",
          "name": "subtractedValue",
          "type": "uint256"
        }
      ],
      "name": "decreaseAllowance",
      "outputs": [
        {
          "internalType": "bool",
          "name": "",
          "type": "bool"
        }
      ],
      "stateMutability": "nonpayable",
      "type": "function"
    },
    {
      "inputs": [
        {
          "internalType": "address",
          "name": "delegatee",
          "type": "address"
        }
      ],
      "name": "delegate",
      "outputs": [],
      "stateMutability": "nonpayable",
      "type": "function"
    },
    {
      "inputs": [
        {
          "internalType": "address",
          "name": "delegatee",
          "type": "address"
        },
        {
          "internalType": "uint256",
          "name": "nonce",
          "type": "uint256"
        },
        {
          "internalType": "uint256",
          "name": "expiry",
          "type": "uint256"
        },
        {
          "internalType": "uint8",
          "name": "v",
          "type": "uint8"
        },
        {
          "internalType": "bytes32",
          "name": "r",
          "type": "bytes32"
        },
        {
          "internalType": "bytes32",
          "name": "s",
          "type": "bytes32"
        }
      ],
      "name": "delegateBySig",
      "outputs": [],
      "stateMutability": "nonpayable",
      "type": "function"
    },
    {
      "inputs": [
        {
          "internalType": "address",
          "name": "account",
          "type": "address"
        }
      ],
      "name": "delegates",
      "outputs": [
        {
          "internalType": "address",
          "name": "",
          "type": "address"
        }
      ],
      "stateMutability": "view",
      "type": "function"
    },
    {
      "inputs": [
        {
          "internalType": "uint256",
          "name": "",
          "type": "uint256"
        }
      ],
      "name": "dividendPeriods",
      "outputs": [
        {
          "internalType": "uint256",
          "name": "periodId",
          "type": "uint256"
        },
        {
          "internalType": "uint256",
          "name": "totalDividend",
          "type": "uint256"
        },
        {
          "internalType": "uint256",
          "name": "exDividendDate",
          "type": "uint256"
        },
        {
          "internalType": "uint256",
          "name": "paymentDate",
          "type": "uint256"
        }
      ],
      "stateMutability": "view",
      "type": "function"
    },
    {
      "inputs": [],
      "name": "eip712Domain",
      "outputs": [
        {
          "internalType": "bytes1",
          "name": "fields",
          "type": "bytes1"
        },
        {
          "internalType": "string",
          "name": "name",
          "type": "string"
        },
        {
          "internalType": "string",
          "name": "version",
          "type": "string"
        },
        {
          "internalType": "uint256",
          "name": "chainId",
          "type": "uint256"
        },
        {
          "internalType": "address",
          "name": "verifyingContract",
          "type": "address"
        },
        {
          "internalType": "bytes32",
          "name": "salt",
          "type": "bytes32"
        },
        {
          "internalType": "uint256[]",
          "name": "extensions",
          "type": "uint256[]"
        }
      ],
      "stateMutability": "view",
      "type": "function"
    },
    {
      "inputs": [],
      "name": "emergencyPause",
      "outputs": [],
      "stateMutability": "nonpayable",
      "type": "function"
    },
    {
      "inputs": [],
      "name": "getCategoryBreakdown",
      "outputs": [
        {
          "internalType": "uint256",
          "name": "residential",
          "type": "uint256"
        },
        {
          "internalType": "uint256",
          "name": "commercial",
          "type": "uint256"
        },
        {
          "internalType": "uint256",
          "name": "mixedUse",
          "type": "uint256"
        },
        {
          "internalType": "uint256",
          "name": "land",
          "type": "uint256"
        },
        {
          "internalType": "uint256",
          "name": "industrial",
          "type": "uint256"
        }
      ],
      "stateMutability": "view",
      "type": "function"
    },
    {
      "inputs": [
        {
          "internalType": "enum XERAToken.PropertyCategory",
          "name": "category",
          "type": "uint8"
        }
      ],
      "name": "getCategoryMultiplier",
      "outputs": [
        {
          "internalType": "uint256",
          "name": "",
          "type": "uint256"
        }
      ],
      "stateMutability": "pure",
      "type": "function"
    },
    {
      "inputs": [
        {
          "internalType": "string",
          "name": "cityCode",
          "type": "string"
        }
      ],
      "name": "getCityMultiplier",
      "outputs": [
        {
          "internalType": "uint256",
          "name": "",
          "type": "uint256"
        }
      ],
      "stateMutability": "pure",
      "type": "function"
    },
    {
      "inputs": [
        {
          "internalType": "string",
          "name": "cityCode",
          "type": "string"
        }
      ],
      "name": "getCityPortfolio",
      "outputs": [
        {
          "internalType": "uint256",
          "name": "totalValue",
          "type": "uint256"
        },
        {
          "internalType": "uint256",
          "name": "propertyCount",
          "type": "uint256"
        },
        {
          "internalType": "uint256[]",
          "name": "propertyIds",
          "type": "uint256[]"
        }
      ],
      "stateMutability": "view",
      "type": "function"
    },
    {
      "inputs": [],
      "name": "getNetAssetValue",
      "outputs": [
        {
          "internalType": "uint256",
          "name": "",
          "type": "uint256"
        }
      ],
      "stateMutability": "view",
      "type": "function"
    },
    {
      "inputs": [
        {
          "internalType": "uint256",
          "name": "timepoint",
          "type": "uint256"
        }
      ],
      "name": "getPastTotalSupply",
      "outputs": [
        {
          "internalType": "uint256",
          "name": "",
          "type": "uint256"
        }
      ],
      "stateMutability": "view",
      "type": "function"
    },
    {
      "inputs": [
        {
          "internalType": "address",
          "name": "account",
          "type": "address"
        },
        {
          "internalType": "uint256",
          "name": "timepoint",
          "type": "uint256"
        }
      ],
      "name": "getPastVotes",
      "outputs": [
        {
          "internalType": "uint256",
          "name": "",
          "type": "uint256"
        }
      ],
      "stateMutability": "view",
      "type": "function"
    },
    {
      "inputs": [
        {
          "internalType": "uint256",
          "name": "propertyId",
          "type": "uint256"
        }
      ],
      "name": "getProperty",
      "outputs": [
        {
          "internalType": "uint256",
          "name": "id",
          "type": "uint256"
        },
        {
          "internalType": "address",
          "name": "owner",
          "type": "address"
        },
        {
          "internalType": "string",
          "name": "propertyAddress",
          "type": "string"
        },
        {
          "internalType": "uint256",
          "name": "valuationInWei",
          "type": "uint256"
        },
        {
          "internalType": "uint256",
          "name": "tokenAllocation",
          "type": "uint256"
        },
        {
          "internalType": "uint256",
          "name": "lastValuationDate",
          "type": "uint256"
        },
        {
          "internalType": "enum XERAToken.PropertyStatus",
          "name": "status",
          "type": "uint8"
        },
        {
          "internalType": "enum XERAToken.PropertyCategory",
          "name": "category",
          "type": "uint8"
        },
        {
          "internalType": "string",
          "name": "cityCode",
          "type": "string"
        }
      ],
      "stateMutability": "view",
      "type": "function"
    },
    {
      "inputs": [
        {
          "internalType": "bytes32",
          "name": "role",
          "type": "bytes32"
        }
      ],
      "name": "getRoleAdmin",
      "outputs": [
        {
          "internalType": "bytes32",
          "name": "",
          "type": "bytes32"
        }
      ],
      "stateMutability": "view",
      "type": "function"
    },
    {
      "inputs": [],
      "name": "getSecurityStatus",
      "outputs": [
        {
          "internalType": "bool",
          "name": "isPaused",
          "type": "bool"
        },
        {
          "internalType": "bool",
          "name": "isEmergencyLocked",
          "type": "bool"
        },
        {
          "internalType": "uint256",
          "name": "lockCounter",
          "type": "uint256"
        },
        {
          "internalType": "bool",
          "name": "reentrancyGuardEntered",
          "type": "bool"
        }
      ],
      "stateMutability": "view",
      "type": "function"
    },
    {
      "inputs": [
        {
          "internalType": "address",
          "name": "account",
          "type": "address"
        }
      ],
      "name": "getVotes",
      "outputs": [
        {
          "internalType": "uint256",
          "name": "",
          "type": "uint256"
        }
      ],
      "stateMutability": "view",
      "type": "function"
    },
    {
      "inputs": [],
      "name": "getXERAMetrics",
      "outputs": [
        {
          "internalType": "uint256",
          "name": "netAssetValue",
          "type": "uint256"
        },
        {
          "internalType": "uint256",
          "name": "totalProperties",
          "type": "uint256"
        },
        {
          "internalType": "uint256",
          "name": "averagePropertyValue",
          "type": "uint256"
        },
        {
          "internalType": "uint256",
          "name": "diversificationScore",
          "type": "uint256"
        }
      ],
      "stateMutability": "view",
      "type": "function"
    },
    {
      "inputs": [
        {
          "internalType": "bytes32",
          "name": "role",
          "type": "bytes32"
        },
        {
          "internalType": "address",
          "name": "account",
          "type": "address"
        }
      ],
      "name": "grantRole",
      "outputs": [],
      "stateMutability": "nonpayable",
      "type": "function"
    },
    {
      "inputs": [
        {
          "internalType": "bytes32",
          "name": "role",
          "type": "bytes32"
        },
        {
          "internalType": "address",
          "name": "account",
          "type": "address"
        }
      ],
      "name": "hasRole",
      "outputs": [
        {
          "internalType": "bool",
          "name": "",
          "type": "bool"
        }
      ],
      "stateMutability": "view",
      "type": "function"
    },
    {
      "inputs": [
        {
          "internalType": "address",
          "name": "spender",
          "type": "address"
        },
        {
          "internalType": "uint256",
          "name": "addedValue",
          "type": "uint256"
        }
      ],
      "name": "increaseAllowance",
      "outputs": [
        {
          "internalType": "bool",
          "name": "",
          "type": "bool"
        }
      ],
      "stateMutability": "nonpayable",
      "type": "function"
    },
    {
      "inputs": [
        {
          "internalType": "address",
          "name": "",
          "type": "address"
        }
      ],
      "name": "lastClaimedDividend",
      "outputs": [
        {
          "internalType": "uint256",
          "name": "",
          "type": "uint256"
        }
      ],
      "stateMutability": "view",
      "type": "function"
    },
    {
      "inputs": [],
      "name": "minimumPropertyValue",
      "outputs": [
        {
          "internalType": "uint256",
          "name": "",
          "type": "uint256"
        }
      ],
      "stateMutability": "view",
      "type": "function"
    },
    {
      "inputs": [],
      "name": "name",
      "outputs": [
        {
          "internalType": "string",
          "name": "",
          "type": "string"
        }
      ],
      "stateMutability": "view",
      "type": "function"
    },
    {
      "inputs": [
        {
          "internalType": "address",
          "name": "owner",
          "type": "address"
        }
      ],
      "name": "nonces",
      "outputs": [
        {
          "internalType": "uint256",
          "name": "",
          "type": "uint256"
        }
      ],
      "stateMutability": "view",
      "type": "function"
    },
    {
      "inputs": [
        {
          "internalType": "address",
          "name": "account",
          "type": "address"
        }
      ],
      "name": "numCheckpoints",
      "outputs": [
        {
          "internalType": "uint32",
          "name": "",
          "type": "uint32"
        }
      ],
      "stateMutability": "view",
      "type": "function"
    },
    {
      "inputs": [],
      "name": "paused",
      "outputs": [
        {
          "internalType": "bool",
          "name": "",
          "type": "bool"
        }
      ],
      "stateMutability": "view",
      "type": "function"
    },
    {
      "inputs": [
        {
          "internalType": "address",
          "name": "owner",
          "type": "address"
        },
        {
          "internalType": "address",
          "name": "spender",
          "type": "address"
        },
        {
          "internalType": "uint256",
          "name": "value",
          "type": "uint256"
        },
        {
          "internalType": "uint256",
          "name": "deadline",
          "type": "uint256"
        },
        {
          "internalType": "uint8",
          "name": "v",
          "type": "uint8"
        },
        {
          "internalType": "bytes32",
          "name": "r",
          "type": "bytes32"
        },
        {
          "internalType": "bytes32",
          "name": "s",
          "type": "bytes32"
        }
      ],
      "name": "permit",
      "outputs": [],
      "stateMutability": "nonpayable",
      "type": "function"
    },
    {
      "inputs": [],
      "name": "platformFeePercentage",
      "outputs": [
        {
          "internalType": "uint256",
          "name": "",
          "type": "uint256"
        }
      ],
      "stateMutability": "view",
      "type": "function"
    },
    {
      "inputs": [
        {
          "internalType": "uint256",
          "name": "",
          "type": "uint256"
        }
      ],
      "name": "properties",
      "outputs": [
        {
          "internalType": "uint256",
          "name": "id",
          "type": "uint256"
        },
        {
          "internalType": "address",
          "name": "owner",
          "type": "address"
        },
        {
          "internalType": "string",
          "name": "propertyAddress",
          "type": "string"
        },
        {
          "internalType": "uint256",
          "name": "valuationInWei",
          "type": "uint256"
        },
        {
          "internalType": "uint256",
          "name": "tokenAllocation",
          "type": "uint256"
        },
        {
          "internalType": "uint256",
          "name": "lastValuationDate",
          "type": "uint256"
        },
        {
          "internalType": "enum XERAToken.PropertyStatus",
          "name": "status",
          "type": "uint8"
        },
        {
          "internalType": "string",
          "name": "ipfsDocumentHash",
          "type": "string"
        },
        {
          "internalType": "enum XERAToken.PropertyCategory",
          "name": "category",
          "type": "uint8"
        },
        {
          "internalType": "string",
          "name": "cityCode",
          "type": "string"
        }
      ],
      "stateMutability": "view",
      "type": "function"
    },
    {
      "inputs": [
        {
          "internalType": "bytes32",
          "name": "role",
          "type": "bytes32"
        },
        {
          "internalType": "address",
          "name": "account",
          "type": "address"
        }
      ],
      "name": "renounceRole",
      "outputs": [],
      "stateMutability": "nonpayable",
      "type": "function"
    },
    {
      "inputs": [],
      "name": "reserveRatio",
      "outputs": [
        {
          "internalType": "uint256",
          "name": "",
          "type": "uint256"
        }
      ],
      "stateMutability": "view",
      "type": "function"
    },
    {
      "inputs": [
        {
          "internalType": "bytes32",
          "name": "role",
          "type": "bytes32"
        },
        {
          "internalType": "address",
          "name": "account",
          "type": "address"
        }
      ],
      "name": "revokeRole",
      "outputs": [],
      "stateMutability": "nonpayable",
      "type": "function"
    },
    {
      "inputs": [
        {
          "internalType": "address",
          "name": "to",
          "type": "address"
        },
        {
          "internalType": "uint256",
          "name": "amount",
          "type": "uint256"
        }
      ],
      "name": "secureTransfer",
      "outputs": [
        {
          "internalType": "bool",
          "name": "",
          "type": "bool"
        }
      ],
      "stateMutability": "nonpayable",
      "type": "function"
    },
    {
      "inputs": [
        {
          "internalType": "bytes4",
          "name": "interfaceId",
          "type": "bytes4"
        }
      ],
      "name": "supportsInterface",
      "outputs": [
        {
          "internalType": "bool",
          "name": "",
          "type": "bool"
        }
      ],
      "stateMutability": "view",
      "type": "function"
    },
    {
      "inputs": [],
      "name": "symbol",
      "outputs": [
        {
          "internalType": "string",
          "name": "",
          "type": "string"
        }
      ],
      "stateMutability": "view",
      "type": "function"
    },
    {
      "inputs": [],
      "name": "totalPropertyValue",
      "outputs": [
        {
          "internalType": "uint256",
          "name": "",
          "type": "uint256"
        }
      ],
      "stateMutability": "view",
      "type": "function"
    },
    {
      "inputs": [],
      "name": "totalSupply",
      "outputs": [
        {
          "internalType": "uint256",
          "name": "",
          "type": "uint256"
        }
      ],
      "stateMutability": "view",
      "type": "function"
    },
    {
      "inputs": [
        {
          "internalType": "address",
          "name": "to",
          "type": "address"
        },
        {
          "internalType": "uint256",
          "name": "amount",
          "type": "uint256"
        }
      ],
      "name": "transfer",
      "outputs": [
        {
          "internalType": "bool",
          "name": "",
          "type": "bool"
        }
      ],
      "stateMutability": "nonpayable",
      "type": "function"
    },
    {
      "inputs": [
        {
          "internalType": "address",
          "name": "from",
          "type": "address"
        },
        {
          "internalType": "address",
          "name": "to",
          "type": "address"
        },
        {
          "internalType": "uint256",
          "name": "amount",
          "type": "uint256"
        }
      ],
      "name": "transferFrom",
      "outputs": [
        {
          "internalType": "bool",
          "name": "",
          "type": "bool"
        }
      ],
      "stateMutability": "nonpayable",
      "type": "function"
    },
    {
      "inputs": [],
      "name": "unpause",
      "outputs": [],
      "stateMutability": "nonpayable",
      "type": "function"
    },
    {
      "inputs": [
        {
          "internalType": "address",
          "name": "",
          "type": "address"
        },
        {
          "internalType": "uint256",
          "name": "",
          "type": "uint256"
        }
      ],
      "name": "userProperties",
      "outputs": [
        {
          "internalType": "uint256",
          "name": "",
          "type": "uint256"
        }
      ],
      "stateMutability": "view",
      "type": "function"
    }
  ],
  "bytecode": "0x61016060405234620002795762000015620002eb565b6200001f620002c1565b906020917f58455241205265616c2045737461746520496e646961000000000000000000008382015262000052620002eb565b6200005c620002d6565b603160f81b858201908152835190939192916001600160401b038211620002735762000095826200008f6003546200030d565b6200034a565b8690601f8311600114620001e357620000cf93929160009183620001d7575b50508160011b916000199060031b1c191617600355620004ae565b620000da83620006ea565b92610120938452620000ec82620007fd565b94610140958652815191012060e052519020916101009283524660a05262000113620009ae565b6080523060c052620001256001600c55565b620001306000600d55565b6200014060ff19600f5416600f55565b620001556a0422ca8b0a00a425000000601455565b6200016060fa601555565b6200016c6103e8601655565b6200017733620005a1565b620001823362000634565b6200018d3362000a96565b60405191615216938462001283853960805184613765015260a05184613820015260c0518461372f015260e051846137b4015251836137da015251826115c6015251816115f20152f35b015190503880620000b4565b6003600052601f19831691907fc2575a0e9e593c00f959f8c92f12db2869c3395a3b0502d05e2516446f71f85b9260005b8a8282106200025c575050916001939185620000cf9796941062000242575b505050811b01600355620004ae565b015160001960f88460031b161c1916905538808062000233565b600185968293968601518155019501930162000214565b6200027e565b600080fd5b634e487b7160e01b600052604160045260246000fd5b604081019081106001600160401b038211176200027357604052565b60405190620002bf8262000294565b565b60405190620002d08262000294565b60168252565b60405190620002e58262000294565b60018252565b60405190620002fa8262000294565b60048252635845524160e01b6020830152565b90600182811c921680156200033f575b60208310146200032957565b634e487b7160e01b600052602260045260246000fd5b91607f16916200031d565b601f811162000357575050565b6000906003825260208220906020601f850160051c8301941062000398575b601f0160051c01915b8281106200038c57505050565b8181556001016200037f565b909250829062000376565b601f8111620003b0575050565b6000906004825260208220906020601f850160051c83019410620003f1575b601f0160051c01915b828110620003e557505050565b818155600101620003d8565b9092508290620003cf565b601f811162000409575050565b6000906005825260208220906020601f850160051c830194106200044a575b601f0160051c01915b8281106200043e57505050565b81815560010162000431565b909250829062000428565b601f811162000462575050565b6000906006825260208220906020601f850160051c83019410620004a3575b601f0160051c01915b8281106200049757505050565b8181556001016200048a565b909250829062000481565b80519091906001600160401b0381116200027357620004da81620004d46004546200030d565b620003a3565b602080601f83116001146200051957508192936000926200050d575b50508160011b916000199060031b1c191617600455565b015190503880620004f6565b6004600052601f198316949091907f8a35acfbc15ff81a39ae7d344fd709f28e8600b4aa8c65c6b64bfe7fe36bd19b926000905b878210620005885750508360019596106200056e575b505050811b01600455565b015160001960f88460031b161c1916905538808062000563565b806001859682949686015181550195019301906200054d565b6001600160a01b03811660009081527f6e0956cda88cad152e89927e53611735b61a5c762d1428573c6931b0a5efcb01602052604081205460ff1615620005e6575050565b8080526010602090815260408083206001600160a01b038516600090815292529020805460ff1916600117905533916001600160a01b031690600080516020620064998339815191528180a4565b6001600160a01b03811660009081527f3726556062ee1ffbc10b189c35772945abd5122213e6a9e19b5165d856bb876e60205260408120547fa49807205ce4d355092ef5a8a18f56e8913cf4a201fbe287825b095693c217759060ff16156200069c57505050565b8082526010602090815260408084206001600160a01b038616600090815292529020805460ff1916600117905533926001600160a01b031691600080516020620064998339815191529080a4565b90815160208082106000146200070b57505090620007089062000931565b90565b6001600160401b038211620002735762000732826200072c6005546200030d565b620003fc565b80601f831160011462000772575081929360009262000766575b50508160011b916000199060031b1c19161760055560ff90565b0151905038806200074c565b6005600052601f198316949091907f036b6384b5eca791c62761152d0c79bb0604c104a5fb6f4eb0703f3154bb3db0926000905b878210620007e4575050836001959610620007ca575b505050811b0160055560ff90565b015160001960f88460031b161c19169055388080620007bc565b80600185968294968601518155019501930190620007a6565b90815160208082106000146200081b57505090620007089062000931565b6001600160401b038211620002735762000842826200083c6006546200030d565b62000455565b80601f831160011462000882575081929360009262000876575b50508160011b916000199060031b1c19161760065560ff90565b0151905038806200085c565b6006600052601f198316949091907ff652222313e28459528d920b65115c16c04f3efc82aaedc97be59f3f377c0d3f926000905b878210620008f4575050836001959610620008da575b505050811b0160065560ff90565b015160001960f88460031b161c19169055388080620008cc565b80600185968294968601518155019501930190620008b6565b60208151910151906020811062000922575090565b6000199060200360031b1b1690565b601f8151116200094c5762000946816200090d565b90511790565b6040519063305a27a960e01b82528160208060048301528251908160248401526000935b82851062000994575050604492506000838284010152601f80199101168101030190fd5b848101820151868601604401529381019385935062000970565b60e051610100516040519060208201927f8b73c3c69bb8fe3d512ecc4cf759cc79239f7b179b0ffacaa9a75d522b39400f8452604083015260608201524660808201523060a082015260a0815260c0810181811060018060401b03821117620002735760405251902090565b634e487b7160e01b600052601160045260246000fd5b1562000a3857565b60405162461bcd60e51b815260206004820152603060248201527f4552433230566f7465733a20746f74616c20737570706c79207269736b73206f60448201526f766572666c6f77696e6720766f74657360801b6064820152608490fd5b6001600160a01b03811690811562000b9f5760ff600f541662000b675762000b419162000ace62000ac960025462000be4565b600255565b6001600160a01b03821660009081526020819052604090206a7c13bc4b2c133c56000000815401905560007fddf252ad1be2c89b69c2b068fc378daa952ba7f163c4a11628f55a4df523b3ef6040518062000b3881906a7c13bc4b2c133c56000000602083019252565b0390a362001156565b60025462000b59906001600160e01b03101562000a30565b62000b6362000d0d565b5050565b60405162461bcd60e51b815260206004820152601060248201526f14185d5cd8589b194e881c185d5cd95960821b6044820152606490fd5b60405162461bcd60e51b815260206004820152601f60248201527f45524332303a206d696e7420746f20746865207a65726f2061646472657373006044820152606490fd5b906a7c13bc4b2c133c56000000820180921162000bfd57565b62000a1a565b604080519192919081016001600160401b038111828210176200027357604052602081935463ffffffff81168352811c910152565b600b54906801000000000000000082101562000273576001820180600b5582101562000ca657600b600052805160209182015190911b63ffffffff191663ffffffff91909116177f0175b7a638427703f0dbe7bb9bbf987a2551717b34e79f33b5b1008d1fa01db990910155565b634e487b7160e01b600052603260045260246000fd5b9081546801000000000000000081101562000273576001810180845581101562000ca657600092835260209283902082519284015190931b63ffffffff191663ffffffff9290921691909117910155565b600b5490811590811562000e545762000d25620002b0565b6000815260006020820152925b602084015162000d52906001600160e01b03165b6001600160e01b031690565b9362000d5e856200124f565b9315908162000e2d575b501562000dc557620002bf9062000dae62000d83856200101e565b600b600052917f0175b7a638427703f0dbe7bb9bbf987a2551717b34e79f33b5b1008d1fa01db80190565b9063ffffffff82549181199060201b169116179055565b50620002bf62000dee62000de862000ddd4362001088565b65ffffffffffff1690565b620010f0565b62000e2762000dfd856200101e565b62000e1762000e0b620002b0565b63ffffffff9094168452565b6001600160e01b03166020830152565b62000c38565b5163ffffffff16905063ffffffff62000e4a62000ddd4362001088565b9116143862000d68565b600b60005262000e8c7f0175b7a638427703f0dbe7bb9bbf987a2551717b34e79f33b5b1008d1fa01db8840162000c03565b62000c03565b9262000d32565b805491821591821562000f935762000eaa620002b0565b6000815260006020820152935b602085015162000ed0906001600160e01b031662000d46565b9462000edc8662001268565b9415908162000f6c575b501562000f135762000dae620002bf9262000f01866200101e565b92600019019060005260206000200190565b50620002bf9062000f2c62000de862000ddd4362001088565b9062000f6662000f3c866200101e565b62000f5662000f4a620002b0565b63ffffffff9095168552565b6001600160e01b03166020840152565b62000cbc565b5163ffffffff16905063ffffffff62000f8962000ddd4362001088565b9116143862000ee6565b62000fad62000e8660001986018360005260206000200190565b9362000eb7565b805491821591821562000ffd5762000fcb620002b0565b6000815260006020820152935b602085015162000ff1906001600160e01b031662000d46565b9462000edc866200124f565b6200101762000e8660001986018360005260206000200190565b9362000fd8565b6001600160e01b039081811162001033571690565b60405162461bcd60e51b815260206004820152602760248201527f53616665436173743a2076616c756520646f65736e27742066697420696e20326044820152663234206269747360c81b6064820152608490fd5b65ffffffffffff908181116200109c571690565b60405162461bcd60e51b815260206004820152602660248201527f53616665436173743a2076616c756520646f65736e27742066697420696e203460448201526538206269747360d01b6064820152608490fd5b63ffffffff9081811162001102571690565b60405162461bcd60e51b815260206004820152602660248201527f53616665436173743a2076616c756520646f65736e27742066697420696e203360448201526532206269747360d01b6064820152608490fd5b60096020527fec8156718a8372b1db44bb411437d0870f3e3790d4a08526d024ce1b0b668f6b546001600160a01b039182166000908152604081205483169290911690818314158062001246575b620011ae57505050565b8162001207575b505080620011c05750565b6001600160a01b0381166000908152600a60205260409020600080516020620064b983398151915290620011f49062000fb4565b60408051928352602083019190915290a2565b6200122d60408284600080516020620064b98339815191529452600a6020522062000e93565b60408051928352602083019190915290a23880620011b5565b506001620011a4565b6a7c13bc4b2c133c56000000810180911162000bfd5790565b6a7c13bc4b2c133c55ffffff19810190811162000bfd579056fe6080604052600436101561001257600080fd5b60003560e01c806301ffc9a71461045757806306fdde0314610452578063095ea7b31461044d5780630c7d5cd8146104485780630e4d51ec146104435780630fdb0c7d1461043e578063126063ac1461043957806318160ddd146104345780631b1bddc11461042f57806323b872dd1461042a578063248a9ca3146104255780632f2ff15d14610420578063300ccb511461041b578063313ce5671461041657806332665ffb1461041157806332cb6b0c1461040c5780633644e5151461040757806336568abe1461040257806339509351146103fd5780633a46b1a8146103f85780633cb96391146103f35780633f4ba83a146103ee57806347e64656146103e95780634bf5d7e9146103e457806351858e27146103df578063587cde1e146103da5780635909d3c5146103d55780635981b7c0146103d05780635c19a95c146103cb5780635c975abb146103c65780636639a81d146103c15780636fcfff45146103bc57806370a08231146103b7578063732fb0ed146103b257806373efc9f2146103ad57806375b238fc146103a85780637ecebe00146103a357806384b0196e1461039e57806388d695b2146103995780638b9eaf32146103945780638e539e8c1461038f57806391d148541461038a57806391ddadf41461038557806395d89b41146103805780639ab24eb01461037b578063a0326d4514610376578063a217fddf14610371578063a457c2d71461036c578063a9059cbb14610367578063b596a6bf14610362578063bf645e821461035d578063c3cda52014610358578063c686687414610353578063cb653aaa1461034e578063cdd78cfc14610349578063d505accf14610344578063d547741f1461033f578063d7fac34b1461033a578063d8d1f38f14610335578063dd62ed3e14610330578063e2271c9f1461032b578063e9b66f8c14610326578063edef638b14610321578063f1127ed81461031c578063f2a3d62314610317578063f366819d14610312578063f7b108081461030d5763fb2d4c531461030857600080fd5b61279b565b612706565b612554565b612517565b61248c565b61246e565b6122fa565b6122ac565b612252565b61217a565b61215c565b61211a565b611fcc565b611fae565b611f74565b611eca565b611d9b565b611d1c565b611c89565b611c54565b611ba2565b611b86565b611b37565b611ad4565b611a2d565b611a01565b6119ab565b61184e565b6117e4565b6116a7565b6115ad565b61153c565b611501565b6114c2565b6112f6565b6112b9565b61126e565b611253565b611230565b61120a565b6111ec565b6111d1565b611192565b611133565b611081565b611046565b610fa5565b610f84565b610dcc565b610d65565b610ccd565b610cb2565b610c8b565b610c02565b610b5d565b610b45565b610a4e565b610a1f565b610942565b610917565b6108f9565b6108be565b610827565b6106cc565b6106ae565b610604565b61050e565b346104ad5760203660031901126104ad5760043563ffffffff60e01b81168091036104ad57602090637965db0b60e01b811490811561049c575b506040519015158152f35b6301ffc9a760e01b14905038610491565b600080fd5b60005b8381106104c55750506000910152565b81810151838201526020016104b5565b906020916104ee815180928185528580860191016104b2565b601f01601f1916010190565b90602061050b9281815201906104d5565b90565b346104ad576000806003193601126105f05760405190806003546105318161259f565b808552916001918083169081156105c6575060011461056b575b6105678561055b81870382610756565b604051918291826104fa565b0390f35b9250600383527fc2575a0e9e593c00f959f8c92f12db2869c3395a3b0502d05e2516446f71f85b5b8284106105ae57505050810160200161055b8261056761054b565b80546020858701810191909152909301928101610593565b8695506105679693506020925061055b94915060ff191682840152151560051b820101929361054b565b80fd5b6001600160a01b038116036104ad57565b346104ad5760403660031901126104ad57600435610621816105f3565b610629614fc3565b6106386003600c541415614f77565b6001600160a01b0381161561066957610655906024359033612b5d565b61065d615059565b60405160018152602090f35b60405162461bcd60e51b815260206004820152601760248201527f417070726f766520746f207a65726f20616464726573730000000000000000006044820152606490fd5b346104ad5760003660031901126104ad576020601654604051908152f35b346104ad5760003660031901126104ad576020601254604051908152f35b634e487b7160e01b600052604160045260246000fd5b604081019081106001600160401b0382111761071b57604052565b6106ea565b602081019081106001600160401b0382111761071b57604052565b60c081019081106001600160401b0382111761071b57604052565b90601f801991011681019081106001600160401b0382111761071b57604052565b6040519061078482610700565b565b6040519061014082018281106001600160401b0382111761071b57604052565b604051906107848261073b565b81601f820112156104ad578035906001600160401b03821161071b57604051926107e7601f8401601f191660200185610756565b828452602083830101116104ad57816000926020809301838601378301015290565b6084359060058210156104ad57565b6004359060058210156104ad57565b346104ad5760c03660031901126104ad57600435610844816105f3565b6001600160401b036024358181116104ad576108649036906004016107b3565b6064358281116104ad5761087c9036906004016107b3565b610884610809565b9060a4359384116104ad57610567946108a46108ae9536906004016107b3565b9360443591613cdb565b6040519081529081906020820190565b346104ad5760003660031901126104ad5760206040517fb45eae92260baf72ffda338588221db0509ad4d5064b052a6e9fea04988e38fa8152f35b346104ad5760003660031901126104ad576020600254604051908152f35b346104ad5760203660031901126104ad57602061093a610935610818565b614504565b604051908152f35b346104ad5760603660031901126104ad5760043561095f816105f3565b60243561096b816105f3565b60443590610977614fc3565b6109866003600c541415614f77565b6001600160a01b038316600090815260016020908152604080832033845290915290205492600184016109be575b6106559350614e36565b8284106109da576109d58361065595033383612b5d565b6109b4565b60405162461bcd60e51b815260206004820152601d60248201527f45524332303a20696e73756666696369656e7420616c6c6f77616e63650000006044820152606490fd5b346104ad5760203660031901126104ad5760043560005260106020526020600160406000200154604051908152f35b346104ad5760403660031901126104ad57600435602435610a6e816105f3565b6000918083526010602052610a8960016040852001546129b2565b8083526010602090815260408085206001600160a01b0385166000908152925290205460ff1615610ab8578280f35b8083526010602090815260408085206001600160a01b038516600090815292529020805460ff1916600117905533916001600160a01b0316907f2f8788117e7eff1d82e926ec794901d17c78024a50270940304540a733656f0d8480a438808280f35b60206003198201126104ad57600435906001600160401b0382116104ad5761050b916004016107b3565b346104ad57602061093a610b5836610b1b565b61454d565b346104ad5760003660031901126104ad57602060405160128152f35b60051115610b8357565b634e487b7160e01b600052602160045260246000fd5b959261050b999794989592610bc892885260018060a01b031660208801526101208060408901528701906104d5565b966060860152608085015260a0840152610be181610b79565b60c0830152610bef81610b79565b60e08201526101008184039101526104d5565b346104ad5760203660031901126104ad57600435600052601a6020526040600020805461056760018060a01b036001840154169260038101546004820154600583015460ff6006850154169160ff60088601541693610c7e600960405197610c7889610c7181600285016125d9565b038a610756565b0161266f565b95604051998a998a610b99565b346104ad5760003660031901126104ad5760206040516b033b2e3c9fd0803ce80000008152f35b346104ad5760003660031901126104ad57602061093a61372c565b346104ad5760403660031901126104ad57602435610cea816105f3565b336001600160a01b03821603610d0857610d0690600435612a6d565b005b60405162461bcd60e51b815260206004820152602f60248201527f416363657373436f6e74726f6c3a2063616e206f6e6c792072656e6f756e636560448201526e103937b632b9903337b91039b2b63360891b6064820152608490fd5b346104ad5760403660031901126104ad57600435610d82816105f3565b3360009081526001602090815260408083206001600160a01b03851684529091529020546024358101809111610dc757610dbc9133612b5d565b602060405160018152f35b612b00565b346104ad5760403660031901126104ad57600435610de9816105f3565b60243590610e0865ffffffffffff610e0043613c0f565b168310612cfb565b6001600160a01b03166000908152600a6020526040812080549290918360058111610ed0575b50905b838210610e7f57505081610e58575050602060005b6040516001600160e01b039091168152f35b610e73610e7a91602093600019019060005260206000200190565b5460201c90565b610e46565b9092610e8b8185613a3f565b908263ffffffff610eb0610ea6858860005260206000200190565b5463ffffffff1690565b161115610ec05750925b90610e31565b9350610ecb90612b16565b610eba565b80610ee0610ee692969396613a54565b90612d47565b908263ffffffff610f01610ea6858860005260206000200190565b161115610f115750925b38610e2e565b9350610f1c90612b16565b610f0b565b90610f34602092828151948592016104b2565b0190565b6020610f519181604051938285809451938492016104b2565b8101601781520301902090565b6020610f779181604051938285809451938492016104b2565b8101601881520301902090565b346104ad576020610f9c610f9736610b1b565b610f38565b54604051908152f35b346104ad5760003660031901126104ad57610fbe61287b565b600f5460ff81161561100a5760ff1916600f557f5db9ee0a495bf2e6ff9c91a7834c1ba4fdd244a5e8aa4e537bd38aeae4b073aa6020604051338152a1610d066001600c556000600d55565b60405162461bcd60e51b815260206004820152601460248201527314185d5cd8589b194e881b9bdd081c185d5cd95960621b6044820152606490fd5b346104ad5760003660031901126104ad5760206040517f5aa58c694aeb083df8754bf5e98675317e4137a5a8a2c6188d0228869e43da7e8152f35b346104ad5760003660031901126104ad574365ffffffffffff6110a343613c0f565b16036110ee576105676040516110b881610700565b601d81527f6d6f64653d626c6f636b6e756d6265722666726f6d3d64656661756c740000006020820152604051918291826104fa565b60405162461bcd60e51b815260206004820152601d60248201527f4552433230566f7465733a2062726f6b656e20636c6f636b206d6f64650000006044820152606490fd5b346104ad5760003660031901126104ad5761114c61287b565b611154614aeb565b600160ff19600f541617600f557f62e78cea01bee320cd4e420270b5ea74000d11b0c9f74754ebdbfc544b05a2586020604051338152a16003600c55005b346104ad5760203660031901126104ad5760206004356111b1816105f3565b60018060a01b038091166000526009825260406000205416604051908152f35b346104ad5760003660031901126104ad57602061093a6147ab565b346104ad5760003660031901126104ad576020601354604051908152f35b346104ad5760203660031901126104ad57610d0660043561122a816105f3565b33612da0565b346104ad5760003660031901126104ad57602060ff600f54166040519015158152f35b346104ad5760003660031901126104ad57602061093a61496e565b346104ad5760203660031901126104ad5760043561128b816105f3565b60018060a01b0316600052600a60205260206112ab604060002054613c76565b63ffffffff60405191168152f35b346104ad5760203660031901126104ad576004356112d6816105f3565b60018060a01b031660005260006020526020604060002054604051908152f35b346104ad576000806003193601126105f0576113106150b9565b33600090815260208190526040902081905461132d8115156148ec565b336000908152601d602052604090206113469054612b16565b601354811161143857600361136582600052601b602052604060002090565b015442101580611407575b611383575b61137e906141a7565b611346565b916113bd61137e916113b76002546113b28660016113ab8a600052601b602052604060002090565b01546132ec565b613a1f565b90612b50565b926114006113f33360046113db85600052601b602052604060002090565b019060018060a01b0316600052602052604060002090565b805460ff19166001179055565b9050611375565b5061143361142f6114283360046113db86600052601b602052604060002090565b5460ff1690565b1590565b611370565b50508181156114478115614929565b601354336000908152601d60205260409020558282916114b8575b8280929181923390f1156114b35760135460408051928352602083019190915233917fa1c93169468f71ef26f4adf10bca8df21460f11843a01ed9c69da306e33c38479190a26114b0615059565b80f35b61369e565b6108fc9150611462565b346104ad5760003660031901126104ad57608060ff600f54166002600c54600d5460405193151584526003821460208501526040840152146060820152f35b346104ad5760003660031901126104ad5760206040517fa49807205ce4d355092ef5a8a18f56e8913cf4a201fbe287825b095693c217758152f35b346104ad5760203660031901126104ad57600435611559816105f3565b60018060a01b031660005260076020526020604060002054604051908152f35b90815180825260208080930193019160005b828110611599575050505090565b83518552938101939281019260010161158b565b346104ad5760003660031901126104ad576116486115ea7f000000000000000000000000000000000000000000000000000000000000000061386c565b6105676116167f0000000000000000000000000000000000000000000000000000000000000000613965565b6116566040519161162683610720565b60008352604051958695600f60f81b875260e0602088015260e08701906104d5565b9085820360408701526104d5565b90466060850152306080850152600060a085015283820360c0850152611579565b9181601f840112156104ad578235916001600160401b0383116104ad576020808501948460051b0101116104ad57565b346104ad5760403660031901126104ad576001600160401b036004358181116104ad576116d8903690600401611677565b916024359081116104ad576116f1903690600401611677565b906116fa6150b9565b611705828514614c86565b6117126064851115614ccb565b6000805b8382106117bf573360009081526020819052604090206117399250541015614d1d565b60005b84811061174b5761065d615059565b8061177b6117746117686117636117ba958a8a614d0d565b614d79565b6001600160a01b031690565b1515614bac565b611791611789828686614d0d565b351515614bf8565b6117b56117a2611763838989614d0d565b6117ad838787614d0d565b359033614e36565b6141a7565b61173c565b6117d86117de916117d1848787614d0d565b3590612b50565b916141a7565b90611716565b346104ad5760003660031901126104ad576117fd61496e565b6012549060008215611845575061056761181983601154613a1f565b6118216147ab565b90604051948594859094939260609260808301968352602083015260408201520152565b61056790611819565b346104ad5760203660031901126104ad5760043561187d65ffffffffffff61187543613c0f565b168210612cfb565b600b549060008260058111611944575b50905b8282106118dd5782806118aa575060405160008152602090f35b600b600052602090610e7a907f0175b7a638427703f0dbe7bb9bbf987a2551717b34e79f33b5b1008d1fa01db801610e73565b90916118e98184613a3f565b600b60005290818363ffffffff6119217f0175b7a638427703f0dbe7bb9bbf987a2551717b34e79f33b5b1008d1fa01db98401610ea6565b161115611932575050915b90611890565b90935061193f9150612b16565b61192c565b80610ee061195492959395613a54565b600b600052908263ffffffff61198b7f0175b7a638427703f0dbe7bb9bbf987a2551717b34e79f33b5b1008d1fa01db98501610ea6565b16111561199b5750915b3861188d565b92506119a690612b16565b611995565b346104ad5760403660031901126104ad57602060ff6119f56024356119cf816105f3565b6004356000526010845260406000209060018060a01b0316600052602052604060002090565b54166040519015158152f35b346104ad5760003660031901126104ad576020611a1d43613c0f565b65ffffffffffff60405191168152f35b346104ad576000806003193601126105f0576040519080600454611a508161259f565b808552916001918083169081156105c65750600114611a79576105678561055b81870382610756565b9250600483527f8a35acfbc15ff81a39ae7d344fd709f28e8600b4aa8c65c6b64bfe7fe36bd19b5b828410611abc57505050810160200161055b8261056761054b565b80546020858701810191909152909301928101611aa1565b346104ad5760203660031901126104ad57600435611af1816105f3565b6001600160a01b03166000908152600a60205260409020805480611b1d57505060405160008152602090f35b602091611b2e916000190190611cff565b5054811c610e46565b346104ad5760203660031901126104ad576004356000908152601b6020908152604091829020805460018201546002830154600390930154855192835293820152928301526060820152608090f35b346104ad5760003660031901126104ad57602060405160008152f35b346104ad5760403660031901126104ad57600435611bbf816105f3565b60243590336000526001602052611bec8160406000209060018060a01b0316600052602052604060002090565b5491808310611c015761065d92039033612b5d565b60405162461bcd60e51b815260206004820152602560248201527f45524332303a2064656372656173656420616c6c6f77616e63652062656c6f77604482015264207a65726f60d81b6064820152608490fd5b346104ad5760403660031901126104ad576020611c7f600435611c76816105f3565b60243590614f4a565b6040519015158152f35b346104ad576000806003193601126105f057808060a0925260196020526040808220549160018152818120549160028252808220549060038352808084205493600481522054938151958652602086015284015260608301526080820152f35b634e487b7160e01b600052603260045260246000fd5b8054821015611d175760005260206000200190600090565b611ce9565b346104ad5760403660031901126104ad576004356001600160401b0381116104ad57611d4c9036906004016107b3565b611d5860243591610f5e565b80548210156104ad57602091611d6d91611cff565b90546040519160031b1c8152f35b6064359060ff821682036104ad57565b6084359060ff821682036104ad57565b346104ad5760c03660031901126104ad57600435611db8816105f3565b60443590602435611dc7611d7b565b92804211611e8557611e57611e8091610d069560405190611e3f82611e316020820195898b8860609194939260808201957fe48329057bfd03d55e49b547132e39cffd9c1820ad7b9d4c5307691425d15adf835260018060a01b0316602083015260408201520152565b03601f198101845283610756565b611e5260a4359360843593519020613846565b61356c565b6001600160a01b0381166000908152600760205260409020805460018101909155909214612d54565b612da0565b60405162461bcd60e51b815260206004820152601d60248201527f4552433230566f7465733a207369676e617475726520657870697265640000006044820152606490fd5b346104ad57611ed836610b1b565b611ee181610f38565b54611ef5611eee83610f5e565b5492610f5e565b6040519283918054808652602080960191600052856000209060005b87828210611f4757876105678888611f2b828a0383610756565b6040519485948552840152606060408401526060830190611579565b835485529093019260019283019201611f11565b611f6481610b79565b6000526019602052604060002090565b346104ad5760203660031901126104ad57611f8d610818565b611f9681610b79565b60005260196020526020604060002054604051908152f35b346104ad5760003660031901126104ad576020601554604051908152f35b346104ad5760e03660031901126104ad57600435611fe9816105f3565b602435611ff5816105f3565b6044359060643592612005611d8b565b938042116120d5576120bd6120d091611e31610d06976120aa6120438760018060a01b03166000526007602052604060002090815491600183019055565b604080517f6e71edae12b1b97f4d1f60370fef10105fa2faae0126114a169c64845d6126c9602082019081526001600160a01b03808c1693830193909352918b166060820152608081018c905260a081019290925260c082019590955292839060e0820190565b611e5260c4359360a43593519020613846565b6001600160a01b03838116911614612c8d565b612b5d565b60405162461bcd60e51b815260206004820152601d60248201527f45524332305065726d69743a206578706972656420646561646c696e650000006044820152606490fd5b346104ad5760403660031901126104ad57610d0660243560043561213d826105f3565b8060005260106020526121576001604060002001546129b2565b612a6d565b346104ad5760003660031901126104ad576020601154604051908152f35b346104ad5760403660031901126104ad57600435612197816105f3565b602435906121a36150b9565b6001600160a01b0381166121b8811515614bac565b301461220d57816121f3916121d1610567941515614bf8565b3360009081526020819052604090206121ee908390541015614c43565b614f4a565b6121fb615059565b60405190151581529081906020820190565b60405162461bcd60e51b815260206004820152601c60248201527f5472616e7366657220746f20636f6e74726163742061646472657373000000006044820152606490fd5b346104ad5760403660031901126104ad576020610f9c600435612274816105f3565b60243590612281826105f3565b60018060a01b03166000526001835260406000209060018060a01b0316600052602052604060002090565b346104ad5760403660031901126104ad576004356122c9816105f3565b6001600160a01b03166000908152601c60205260409020805460243591908210156104ad57602091611d6d91611cff565b346104ad5760203660031901126104ad5761238360043561231961287b565b6123216150b9565b61234061233882600052601a602052604060002090565b54151561432a565b612373612364600661235c84600052601a602052604060002090565b015460ff1690565b61236d81610b79565b15614376565b600052601a602052604060002090565b60068101805460ff1916600117905560018101546123af906001600160a01b0316600483015490614a03565b6011546123ca6123c56003840192835490612b50565b601155565b61241a612414612401600860098601956123ef6123e68861443b565b54875490612b50565b6123f88861443b565b55015460ff1690565b9261240b84611f5b565b54905490612b50565b91611f5b565b557fed030ee8c80bfa4f3fb2c7923a1bdb8f4604b1cab750b7ea3501c2293955dd7761246361245261244b8461443b565b5493614458565b604051938452929081906020820190565b0390a2610d06615059565b346104ad5760003660031901126104ad576020601454604051908152f35b346104ad5760403660031901126104ad576004356124a9816105f3565b63ffffffff60243581811681036104ad576124f36124f9916040946000602087516124d381610700565b82815201526001600160a01b03166000908152600a602052859020611cff565b50612cd9565b8251815190921682526020908101516001600160e01b031690820152f35b346104ad5760203660031901126104ad57600435612534816105f3565b60018060a01b0316600052601d6020526020604060002054604051908152f35b346104ad5760603660031901126104ad5760243560058110156104ad576044356001600160401b0381116104ad5760209161259661093a9236906004016107b3565b9060043561446e565b90600182811c921680156125cf575b60208310146125b957565b634e487b7160e01b600052602260045260246000fd5b91607f16916125ae565b90600092918054916125ea8361259f565b91828252600193848116908160001461264c575060011461260c575b50505050565b90919394506000526020928360002092846000945b838610612638575050505001019038808080612606565b805485870183015294019385908201612621565b9294505050602093945060ff191683830152151560051b01019038808080612606565b9061078461268392604051938480926125d9565b0383610756565b96926126bd906126e8979361050b9c9a9697938a5260018060a01b031660208a01526101408060408b01528901906104d5565b946060880152608087015260a08601526126d681610b79565b60c085015283820360e08501526104d5565b926126f281610b79565b6101008201526101208184039101526104d5565b346104ad5760203660031901126104ad57600435600052601a6020526040600020805461056760018060a01b03600184015416926040519061274f8261268381600285016125d9565b60038101546004820154600583015460ff600685015416916127736007860161266f565b9361278e6009612787600889015460ff1690565b970161266f565b966040519a8b9a8b61268a565b6127a436610b1b565b506127ad61287b565b6127b56150b9565b3415612837576127ce6127c96013546141a7565b601355565b6013546127e581600052601b602052604060002090565b90815534600182015542600282015560036127ff42612b24565b9101556013546040513481527fae52e650e0d7846103a034e23a81f401f776de50bb5bb37a4c8900daa5e0f5b7908060208101612463565b606460405162461bcd60e51b815260206004820152602060248201527f4469766964656e6420616d6f756e74206d75737420626520706f7369746976656044820152fd5b3360009081527f3726556062ee1ffbc10b189c35772945abd5122213e6a9e19b5165d856bb876e602052604090205460ff16156128b457565b61295960486129416128c5336133b0565b6129336128d061344a565b6040519485937f416363657373436f6e74726f6c3a206163636f756e742000000000000000000060208601526129108151809260206037890191016104b2565b84017001034b99036b4b9b9b4b733903937b6329607d1b60378201520190610f21565b03601f198101835282610756565b60405162461bcd60e51b8152918291600483016104fa565b0390fd5b3360009081527f9ca75fb9ff654cb5620ff8378bd0d8058183051e4d769b87527749860a9a8373602052604090205460ff161561299657565b61295960486129416129a7336133b0565b6129336128d06134db565b60008181526010602081815260408084203385529091529091205490919060ff16156129dc575050565b6129e5336133b0565b906129ee6132ff565b9260306129fa8561332a565b536078612a0685613337565b536041905b60018211612a2a57612959604861294186612933896128d08915613365565b9091600f81169082821015611d1757612a67916f181899199a1a9b1b9c1cb0b131b232b360811b901a612a5d8588613347565b5360041c92613358565b90612a0b565b600090808252601060205260ff612a9984604085209060018060a01b0316600052602052604060002090565b5416612aa457505050565b8082526010602090815260408084206001600160a01b038616600090815292529020805460ff1916905533926001600160a01b0316917ff6391f5c32d9c69d2a47ea670b442974b53935d1edc7fd64eb21e047a839171b9080a4565b634e487b7160e01b600052601160045260246000fd5b9060018201809211610dc757565b9062093a808201809211610dc757565b9060088201809211610dc757565b90600a8201809211610dc757565b91908201809211610dc757565b6001600160a01b038082169291908315612c3c578216938415612bec5780612bd67f8c5be1e5ebec7d5bd14f71427d1e84f3dd0314c0f7b2291e5b200ac8c7c3b92594612bbf612be79560018060a01b03166000526001602052604060002090565b9060018060a01b0316600052602052604060002090565b556040519081529081906020820190565b0390a3565b60405162461bcd60e51b815260206004820152602260248201527f45524332303a20617070726f766520746f20746865207a65726f206164647265604482015261737360f01b6064820152608490fd5b60405162461bcd60e51b8152602060048201526024808201527f45524332303a20617070726f76652066726f6d20746865207a65726f206164646044820152637265737360e01b6064820152608490fd5b15612c9457565b60405162461bcd60e51b815260206004820152601e60248201527f45524332305065726d69743a20696e76616c6964207369676e617475726500006044820152606490fd5b90604051612ce681610700565b602081935463ffffffff81168352811c910152565b15612d0257565b60405162461bcd60e51b815260206004820152601960248201527f4552433230566f7465733a20667574757265206c6f6f6b7570000000000000006044820152606490fd5b91908203918211610dc757565b15612d5b57565b60405162461bcd60e51b815260206004820152601960248201527f4552433230566f7465733a20696e76616c6964206e6f6e6365000000000000006044820152606490fd5b6001600160a01b039081166000818152600960208181526040808420805485845291852054939092528686166001600160a01b0319821681179092556107849692959294921692909183917f3134e8a2e6d97e929a7e54011ea5485d7d196dd5f0ba4d4ef95803e8e3fc257f9080a45b6001600160a01b03808316939291168084141580613022575b612e335750505050565b80612ea1575b5082612e46575b80612606565b6001600160a01b03166000908152600a602052604090207fdec2bacdd2f05b59de34da9b523dff8be42e5e38e818c82fdb0bae774387a72491612e88916130ec565b60408051928352602083019190915290a2388080612e40565b80600052600a6020527fdec2bacdd2f05b59de34da9b523dff8be42e5e38e818c82fdb0bae774387a7246040600020805480159182600014612fff57612ee5610777565b6000815260006020820152915b6020830151612f11906001600160e01b03165b6001600160e01b031690565b92612f1c89856151c6565b94159081612fdc575b5015612f7a57612f4d612f6492612f3b86613ba6565b92600019019060005260206000200190565b9063ffffffff82549181199060201b169116179055565b604080519182526020820192909252a238612e39565b50612fd790612f9e612f99612f8e43613c0f565b65ffffffffffff1690565b613c76565b90612fd2612fab86613ba6565b612fc2612fb6610777565b63ffffffff9095168552565b6001600160e01b03166020840152565b613092565b612f64565b5163ffffffff16905063ffffffff612ff6612f8e43613c0f565b91161438612f25565b61301c61301760001984018360005260206000200190565b612cd9565b91612ef2565b50821515612e29565b600b5490600160401b82101561071b576001820180600b55821015611d1757600b600052805160209182015190911b63ffffffff191663ffffffff91909116177f0175b7a638427703f0dbe7bb9bbf987a2551717b34e79f33b5b1008d1fa01db990910155565b8054600160401b81101561071b576130af91600182018155611cff565b6130d657815160209283015190921b63ffffffff191663ffffffff92909216919091179055565b634e487b7160e01b600052600060045260246000fd5b90918154918215928360001461318857613104610777565b60008152600060208201525b60208101516131329061312b906001600160e01b0316612f05565b96876151d3565b94159081613165575b501561315157612f4d61078492612f3b86613ba6565b5061078490612f9e612f99612f8e43613c0f565b5163ffffffff16905063ffffffff61317f612f8e43613c0f565b9116143861313b565b6131a061301760001983018460005260206000200190565b613110565b600b54909181159182156132a1576131bb610777565b60008152600060208201525b60208101516131e9906131e2906001600160e01b0316612f05565b95866151d3565b9315908161327e575b50156132335761078490612f4d61320885613ba6565b600b600052917f0175b7a638427703f0dbe7bb9bbf987a2551717b34e79f33b5b1008d1fa01db80190565b50610784613246612f99612f8e43613c0f565b61327961325285613ba6565b61326961325d610777565b63ffffffff9094168452565b6001600160e01b03166020830152565b61302b565b5163ffffffff16905063ffffffff613298612f8e43613c0f565b911614386131f2565b600b6000526132d17f0175b7a638427703f0dbe7bb9bbf987a2551717b34e79f33b5b1008d1fa01db88201612cd9565b6131c7565b90606482029180830460641490151715610dc757565b81810292918115918404141715610dc757565b60405190608082018281106001600160401b0382111761071b57604052604282526060366020840137565b805115611d175760200190565b805160011015611d175760210190565b908151811015611d17570160200190565b8015610dc7576000190190565b1561336c57565b606460405162461bcd60e51b815260206004820152602060248201527f537472696e67733a20686578206c656e67746820696e73756666696369656e746044820152fd5b60405190606082018281106001600160401b0382111761071b57604052602a8252604036602084013760306133e48361332a565b5360786133f083613337565b536029905b600182116134085761050b915015613365565b600f8116906010821015611d1757613444916f181899199a1a9b1b9c1cb0b131b232b360811b901a61343a8486613347565b5360041c91613358565b906133f5565b7fa49807205ce4d355092ef5a8a18f56e8913cf4a201fbe287825b095693c217756134736132ff565b90603061347f8361332a565b53607861348b83613337565b536041905b600182116134a35761050b915015613365565b600f8116906010821015611d17576134d5916f181899199a1a9b1b9c1cb0b131b232b360811b901a61343a8486613347565b90613490565b7f5aa58c694aeb083df8754bf5e98675317e4137a5a8a2c6188d0228869e43da7e6135046132ff565b9060306135108361332a565b53607861351c83613337565b536041905b600182116135345761050b915015613365565b600f8116906010821015611d1757613566916f181899199a1a9b1b9c1cb0b131b232b360811b901a61343a8486613347565b90613521565b9161050b939161357b936136aa565b91909161358781610b79565b8061358f5750565b61359881610b79565b600181036135e55760405162461bcd60e51b815260206004820152601860248201527f45434453413a20696e76616c6964207369676e617475726500000000000000006044820152606490fd5b6135ee81610b79565b6002810361363b5760405162461bcd60e51b815260206004820152601f60248201527f45434453413a20696e76616c6964207369676e6174757265206c656e677468006044820152606490fd5b80613647600392610b79565b1461364e57565b60405162461bcd60e51b815260206004820152602260248201527f45434453413a20696e76616c6964207369676e6174757265202773272076616c604482015261756560f01b6064820152608490fd5b6040513d6000823e3d90fd5b9291907f7fffffffffffffffffffffffffffffff5d576e7357a4501ddfe92f46681b20a083116137205791608094939160ff602094604051948552168484015260408301526060820152600093849182805260015afa156114b35781516001600160a01b0381161561371a579190565b50600190565b50505050600090600390565b307f00000000000000000000000000000000000000000000000000000000000000006001600160a01b0316148061381d575b15613787577f000000000000000000000000000000000000000000000000000000000000000090565b60405160208101907f8b73c3c69bb8fe3d512ecc4cf759cc79239f7b179b0ffacaa9a75d522b39400f82527f000000000000000000000000000000000000000000000000000000000000000060408201527f000000000000000000000000000000000000000000000000000000000000000060608201524660808201523060a082015260a081526138178161073b565b51902090565b507f0000000000000000000000000000000000000000000000000000000000000000461461375e565b60429061385161372c565b906040519161190160f01b8352600283015260228201522090565b60ff81146138aa5760ff811690601f8211613898576040519161388e83610700565b8252602082015290565b604051632cd44ac360e21b8152600490fd5b506040516005548160006138bd8361259f565b8083529260019081811690811561394357506001146138e4575b5061050b92500382610756565b6005600090815291507f036b6384b5eca791c62761152d0c79bb0604c104a5fb6f4eb0703f3154bb3db05b848310613928575061050b9350508101602001386138d7565b8193509081602092548385890101520191019091849261390f565b90506020925061050b94915060ff191682840152151560051b820101386138d7565b60ff81146139875760ff811690601f8211613898576040519161388e83610700565b5060405160065481600061399a8361259f565b8083529260019081811690811561394357506001146139c0575061050b92500382610756565b6006600090815291507ff652222313e28459528d920b65115c16c04f3efc82aaedc97be59f3f377c0d3f5b848310613a04575061050b9350508101602001386138d7565b819350908160209254838589010152019101909184926139eb565b8115613a29570490565b634e487b7160e01b600052601260045260246000fd5b90808216911860011c8101809111610dc75790565b8015613b8e5780613b27613b20613b16613b0c613b02613af8613aee613ae4600161050b9a6000908b60801c80613b82575b508060401c80613b75575b508060201c80613b68575b508060101c80613b5b575b508060081c80613b4e575b508060041c80613b41575b508060021c80613b34575b50821c613b2d575b811c1b613add818b613a1f565b0160011c90565b613add818a613a1f565b613add8189613a1f565b613add8188613a1f565b613add8187613a1f565b613add8186613a1f565b613add8185613a1f565b8092613a1f565b90613b94565b8101613ad0565b6002915091019038613ac8565b6004915091019038613abd565b6008915091019038613ab2565b6010915091019038613aa7565b6020915091019038613a9c565b6040915091019038613a91565b91505060809038613a86565b50600090565b9080821015613ba1575090565b905090565b6001600160e01b0390818111613bba571690565b60405162461bcd60e51b815260206004820152602760248201527f53616665436173743a2076616c756520646f65736e27742066697420696e20326044820152663234206269747360c81b6064820152608490fd5b65ffffffffffff90818111613c22571690565b60405162461bcd60e51b815260206004820152602660248201527f53616665436173743a2076616c756520646f65736e27742066697420696e203460448201526538206269747360d01b6064820152608490fd5b63ffffffff90818111613c87571690565b60405162461bcd60e51b815260206004820152602660248201527f53616665436173743a2076616c756520646f65736e27742066697420696e203360448201526532206269747360d01b6064820152608490fd5b9493929190613ce861295d565b600c546000356001600160e01b0319169690600214613e07576002613d208863ffffffff60e01b16600052600e602052604060002090565b5414613d8a579161050b959391613d849593613d58613d528a63ffffffff60e01b16600052600e602052604060002090565b60029055565b33897f6a08e51826d68756ea60263078c41a8b86d458d040ae9009a87a1165ae4765bd600080a36141e1565b91615076565b60405187337fc109ad9a3534bbaef02699376624e5e64449e8b2ccaebbc02348ca5550e1c276600080a362461bcd60e51b815260206004820152602860248201527f5265656e7472616e637947756172643a2066756e6374696f6e207265656e7472604482015267185b9d0818d85b1b60c21b6064820152608490fd5b60405162461bcd60e51b815260206004820152602660248201527f5265656e7472616e637947756172643a20676c6f62616c207265656e7472616e6044820152651d0818d85b1b60d21b6064820152608490fd5b15613e6257565b60405162461bcd60e51b815260206004820152601c60248201527f50726f70657274792076616c75652062656c6f77206d696e696d756d000000006044820152606490fd5b15613eae57565b60405162461bcd60e51b815260206004820152601960248201527f50726f70657274792061646472657373207265717569726564000000000000006044820152606490fd5b15613efa57565b60405162461bcd60e51b8152602060048201526016602482015275111bd8dd5b595b9d081a185cda081c995c5d5a5c995960521b6044820152606490fd5b15613f3f57565b60405162461bcd60e51b815260206004820152601260248201527110da5d1e4818dbd919481c995c5d5a5c995960721b6044820152606490fd5b613f8282610b79565b52565b90601f8111613f9357505050565b600091825260208220906020601f850160051c83019410613fcf575b601f0160051c01915b828110613fc457505050565b818155600101613fb8565b9092508290613faf565b91909182516001600160401b03811161071b5761400081613ffa845461259f565b84613f85565b602080601f831160011461403c575081929394600092614031575b50508160011b916000199060031b1c1916179055565b01519050388061401b565b90601f1983169561405285600052602060002090565b926000905b88821061408f57505083600195969710614076575b505050811b019055565b015160001960f88460031b161c1916905538808061406c565b80600185968294968601518155019501930190614057565b906140b181610b79565b60ff80198354169116179055565b8151815560208201516001820180546001600160a01b0319166001600160a01b039092169190911790556107849160099061012090614105604082015160028601613fd9565b606081015160038501556080810151600485015560a0810151600585015561413d60c082015161413481610b79565b600686016140a7565b61414e60e082015160078601613fd9565b61416961010082015161416081610b79565b600886016140a7565b01519101613fd9565b8054600160401b81101561071b5761418f91600182018155611cff565b819291549060031b91821b91600019901b1916179055565b6000198114610dc75760010190565b9392916141d39060409286526060602087015260608601906104d5565b936141dd83610b79565b0152565b6143247f0832c747ae2a7bde86d5d19147bd5ce7024b9504050f3dcca5f0d9f61cd75e239395969296614218601454881015613e5b565b61422488511515613ea7565b61423086511515613ef3565b61423c84511515613f38565b6142c361424a601254612b16565b98899761425887858c61446e565b614260610786565b8a81526001600160a01b03881660208201529260408401528a606084015260808301524260a0830152600060c083015260e08201526142a3836101008301613f79565b856101208201526142be88600052601a602052604060002090565b6140bf565b6001600160a01b0383166000908152601c602052604090206142eb908790614172565b614172565b6142f8866142e686610f5e565b61430b6143066012546141a7565b601255565b6040516001600160a01b039093169692938493846141b6565b0390a390565b1561433157565b60405162461bcd60e51b815260206004820152601760248201527f50726f706572747920646f6573206e6f742065786973740000000000000000006044820152606490fd5b1561437d57565b60405162461bcd60e51b815260206004820152601460248201527350726f7065727479206e6f742070656e64696e6760601b6044820152606490fd5b6000929181546143c88161259f565b9260019180831690811561442057506001146143e45750505050565b90919293945060005260209081600020906000915b85831061440f5750505050019038808080612606565b8054858401529183019181016143f9565b60ff1916845250505081151590910201915038808080612606565b602061444d91604051928380926143b9565b601781520301902090565b61446890604051918280926143b9565b03902090565b9190916011549081156144f257670de0b6b3a76400009182820291808304841481151715610dc7578101809111610dc7576144af6144b5916144bb93613a1f565b94614504565b9261454d565b906b0295be96e6406697200000009380850294850403610dc7576144e86144ee93606495928693046132ec565b046132ec565b0490565b5050505069a968163f0a57b400000090565b61450d81610b79565b600181146145475761451e81610b79565b600281146145415780614532600492610b79565b1461453c57606490565b606990565b50606e90565b50607890565b60405161456281612933602082018095610f21565b5190207f7565306c94e19ffadac91ff9491e0465bef48e2ce66079d3919a2e836c66caa2811480156146b5575b6146af577f7ce7ad787564a1a5b2de3174219d55c76367c05413ff67e2ac4f0a6973bba8a181148015614686575b801561465d575b614547577fa3ae6309d53d0ee7fd725a7482da89c8dcfeaa89a4055f51c2abc6b9c8f1d1258114908115614633575b8115614609575b5061460457606490565b606e90565b7ff4af7c06580393535c4e6c30aee4ff474f581b4eb6c2d2978966f968adcb9906915014386145fa565b7f2537590685e5f7ad8ba473de672bf96e801b06932ef9c77fb3149bff0cea9838811491506145f3565b507feed53daff12195494d0431c39fb1cc2078f56d22fc6d23c90b756f2f793948e281146145c4565b507f05aba46f92e1186ca90d5093e19b47d6d21597a958eaef4af9ef7cd8052982f581146145bd565b50608290565b507f342e1b7d20f92e33ba7c6ebef5a7b50ebb59f7c23abdd1d63dd414420ab3c560811461458f565b604051906146eb82610700565b60038252624d554d60e81b6020830152565b6040519061470a82610700565b600382526211115360ea1b6020830152565b6040519061472982610700565b600482526342414e4760e01b6020830152565b6040519061474982610700565b600482526321a422a760e11b6020830152565b6040519061476982610700565b600382526212165160ea1b6020830152565b6040519061478882610700565b6003825262282aa760e91b6020830152565b906006811015611d175760051b0190565b6011549081156148e65760006147bf6107a6565b6147c76146de565b81526147d16146fd565b60208201526147de61471c565b60408201526147eb61473c565b60608201526147f861475c565b608082015261480561477b565b60a0820152815b6006811061488d575050600090815b6005811061482f575061050b929350612b50565b61483881610b79565b61484e856113b261484884611f5b565b546132d6565b8015159081614881575b5061486c575b614867906141a7565b61481b565b9161487961486791612b42565b92905061485e565b60289150111538614858565b6148a7856113b26148486148a1858761479a565b51610f38565b80151590816148da575b506148c5575b6148c0906141a7565b61480c565b916148d26148c091612b34565b9290506148b7565b601e91501115386148b1565b60009150565b156148f357565b60405162461bcd60e51b815260206004820152600e60248201526d139bc81d1bdad95b9cc81a195b1960921b6044820152606490fd5b1561493057565b60405162461bcd60e51b81526020600482015260166024820152754e6f206469766964656e647320617661696c61626c6560501b6044820152606490fd5b6002548015613b8e5760115490670de0b6b3a764000091828102928184041490151715610dc75761050b91613a1f565b156149a557565b60405162461bcd60e51b815260206004820152603060248201527f4552433230566f7465733a20746f74616c20737570706c79207269736b73206f60448201526f766572666c6f77696e6720766f74657360801b6064820152608490fd5b906001600160a01b0382168015614aa657614a1c614aeb565b600254828101809111610dc757614aa293614a8792614a3b8593600255565b6001600160a01b038216600090815260208181526040808320805487019055518581527fddf252ad1be2c89b69c2b068fc378daa952ba7f163c4a11628f55a4df523b3ef9190a3614b2f565b600254614a9d906001600160e01b03101561499e565b6131a5565b5050565b60405162461bcd60e51b815260206004820152601f60248201527f45524332303a206d696e7420746f20746865207a65726f2061646472657373006044820152606490fd5b60ff600f5416614af757565b60405162461bcd60e51b815260206004820152601060248201526f14185d5cd8589b194e881c185d5cd95960821b6044820152606490fd5b60096020527fec8156718a8372b1db44bb411437d0870f3e3790d4a08526d024ce1b0b668f6b546001600160a01b039182166000908152604090205461078493929081169116612e10565b6001600160a01b0390811660009081526009602052604080822054938316825290205461078493929082169116612e10565b15614bb357565b60405162461bcd60e51b815260206004820152601860248201527f5472616e7366657220746f207a65726f206164647265737300000000000000006044820152606490fd5b15614bff57565b606460405162461bcd60e51b815260206004820152602060248201527f5472616e7366657220616d6f756e74206d75737420626520706f7369746976656044820152fd5b15614c4a57565b60405162461bcd60e51b8152602060048201526014602482015273496e73756666696369656e742062616c616e636560601b6044820152606490fd5b15614c8d57565b60405162461bcd60e51b8152602060048201526016602482015275082e4e4c2f2e640d8cadccee8d040dad2e6dac2e8c6d60531b6044820152606490fd5b15614cd257565b60405162461bcd60e51b8152602060048201526013602482015272546f6f206d616e7920726563697069656e747360681b6044820152606490fd5b9190811015611d175760051b0190565b15614d2457565b60405162461bcd60e51b815260206004820152602760248201527f496e73756666696369656e742062616c616e636520666f7220626174636820746044820152663930b739b332b960c91b6064820152608490fd5b3561050b816105f3565b15614d8a57565b60405162461bcd60e51b815260206004820152602360248201527f45524332303a207472616e7366657220746f20746865207a65726f206164647260448201526265737360e81b6064820152608490fd5b15614de257565b60405162461bcd60e51b815260206004820152602660248201527f45524332303a207472616e7366657220616d6f756e7420657863656564732062604482015265616c616e636560d01b6064820152608490fd5b6001600160a01b039291908381168015614ef75761078494831690614e5c821515614d83565b614e64614aeb565b6001600160a01b0383166000908152602081905260409020859054614e8b82821015614ddb565b03614ea88460018060a01b03166000526000602052604060002090565b556001600160a01b0384166000908152602081815260409182902080548801905590518681527fddf252ad1be2c89b69c2b068fc378daa952ba7f163c4a11628f55a4df523b3ef9190a3614b7a565b60405162461bcd60e51b815260206004820152602560248201527f45524332303a207472616e736665722066726f6d20746865207a65726f206164604482015264647265737360d81b6064820152608490fd5b90614f6c91614f57614fc3565b614f666003600c541415614f77565b33614e36565b600190610784615059565b15614f7e57565b60405162461bcd60e51b815260206004820152601c60248201527f436f6e747261637420697320656d657267656e6379206c6f636b6564000000006044820152606490fd5b6002600c5414614fe2576002600c55614fdd600d546141a7565b600d55565b60405163ffffffff60e01b60003516337fc109ad9a3534bbaef02699376624e5e64449e8b2ccaebbc02348ca5550e1c276600080a362461bcd60e51b815260206004820152601f60248201527f5265656e7472616e637947756172643a207265656e7472616e742063616c6c006044820152606490fd5b615064600d54613358565b80600d551561506f57565b6001600c55565b63ffffffff60e01b1680600052600e602052600160406000205533907f23a8a3a18b3abaf1e980da7c8afa4961ddf6bf32cf06d395a19850d5086bdfb3600080a3565b600c54600281146151815760031461513d57600d546150ea576150dc6002600c55565b610784614fdd600d546141a7565b60405162461bcd60e51b815260206004820152602560248201527f5265656e7472616e637947756172643a206e65737465642063616c6c206465746044820152641958dd195960da1b6064820152608490fd5b606460405162461bcd60e51b815260206004820152602060248201527f5265656e7472616e637947756172643a2066756e6374696f6e206c6f636b65646044820152fd5b60405162461bcd60e51b815260206004820152601f60248201527f5265656e7472616e637947756172643a207265656e7472616e742063616c6c006044820152606490fd5b908103908111610dc75790565b908101809111610dc7579056fea2646970667358221220705f7fe1660020f1595559c90d603bb2171ff21d830af5c79b662b06e78ba26264736f6c634300081300332f8788117e7eff1d82e926ec794901d17c78024a50270940304540a733656f0ddec2bacdd2f05b59de34da9b523dff8be42e5e38e818c82fdb0bae774387a724",
  "linkReferences": {},
  "deployedLinkReferences": {}
}