{
  "_format": "hh-sol-artifact-1",
  "contractName": "MultiOracleManager",
  "sourceName": "contracts/security/MultiOracleManager.sol",
  "abi": [
    {
      "inputs": [],
      "stateMutability": "nonpayable",
      "type": "constructor"
    },
    {
      "anonymous": false,
      "inputs": [
        {
          "indexed": true,
          "internalType": "string",
          "name": "symbol",
          "type": "string"
        }
      ],
      "name": "AssetAdded",
      "type": "event"
    },
    {
      "anonymous": false,
      "inputs": [
        {
          "indexed": true,
          "internalType": "string",
          "name": "symbol",
          "type": "string"
        }
      ],
      "name": "AssetRemoved",
      "type": "event"
    },
    {
      "anonymous": false,
      "inputs": [
        {
          "indexed": true,
          "internalType": "string",
          "name": "symbol",
          "type": "string"
        }
      ],
      "name": "CircuitBreakerReset",
      "type": "event"
    },
    {
      "anonymous": false,
      "inputs": [
        {
          "indexed": true,
          "internalType": "string",
          "name": "symbol",
          "type": "string"
        },
        {
          "indexed": false,
          "internalType": "uint256",
          "name": "oldPrice",
          "type": "uint256"
        },
        {
          "indexed": false,
          "internalType": "uint256",
          "name": "newPrice",
          "type": "uint256"
        }
      ],
      "name": "CircuitBreakerTriggered",
      "type": "event"
    },
    {
      "anonymous": false,
      "inputs": [
        {
          "indexed": true,
          "internalType": "string",
          "name": "symbol",
          "type": "string"
        },
        {
          "indexed": true,
          "internalType": "address",
          "name": "oracle",
          "type": "address"
        },
        {
          "indexed": false,
          "internalType": "uint256",
          "name": "weight",
          "type": "uint256"
        }
      ],
      "name": "OracleAdded",
      "type": "event"
    },
    {
      "anonymous": false,
      "inputs": [
        {
          "indexed": true,
          "internalType": "string",
          "name": "symbol",
          "type": "string"
        },
        {
          "indexed": true,
          "internalType": "address",
          "name": "oracle",
          "type": "address"
        }
      ],
      "name": "OracleRemoved",
      "type": "event"
    },
    {
      "anonymous": false,
      "inputs": [
        {
          "indexed": true,
          "internalType": "string",
          "name": "symbol",
          "type": "string"
        },
        {
          "indexed": true,
          "internalType": "address",
          "name": "oracle",
          "type": "address"
        },
        {
          "indexed": false,
          "internalType": "uint256",
          "name": "newWeight",
          "type": "uint256"
        }
      ],
      "name": "OracleUpdated",
      "type": "event"
    },
    {
      "anonymous": false,
      "inputs": [
        {
          "indexed": true,
          "internalType": "address",
          "name": "previousOwner",
          "type": "address"
        },
        {
          "indexed": true,
          "internalType": "address",
          "name": "newOwner",
          "type": "address"
        }
      ],
      "name": "OwnershipTransferred",
      "type": "event"
    },
    {
      "anonymous": false,
      "inputs": [
        {
          "indexed": false,
          "internalType": "address",
          "name": "account",
          "type": "address"
        }
      ],
      "name": "Paused",
      "type": "event"
    },
    {
      "anonymous": false,
      "inputs": [
        {
          "indexed": true,
          "internalType": "string",
          "name": "symbol",
          "type": "string"
        },
        {
          "indexed": false,
          "internalType": "uint256",
          "name": "price",
          "type": "uint256"
        },
        {
          "indexed": false,
          "internalType": "uint256",
          "name": "timestamp",
          "type": "uint256"
        }
      ],
      "name": "PriceUpdated",
      "type": "event"
    },
    {
      "anonymous": false,
      "inputs": [
        {
          "indexed": false,
          "internalType": "address",
          "name": "account",
          "type": "address"
        }
      ],
      "name": "Unpaused",
      "type": "event"
    },
    {
      "inputs": [],
      "name": "BASIS_POINTS",
      "outputs": [
        {
          "internalType": "uint256",
          "name": "",
          "type": "uint256"
        }
      ],
      "stateMutability": "view",
      "type": "function"
    },
    {
      "inputs": [],
      "name": "CIRCUIT_BREAKER_THRESHOLD",
      "outputs": [
        {
          "internalType": "uint256",
          "name": "",
          "type": "uint256"
        }
      ],
      "stateMutability": "view",
      "type": "function"
    },
    {
      "inputs": [],
      "name": "DEFAULT_TWAP_WINDOW",
      "outputs": [
        {
          "internalType": "uint256",
          "name": "",
          "type": "uint256"
        }
      ],
      "stateMutability": "view",
      "type": "function"
    },
    {
      "inputs": [],
      "name": "MAX_ORACLE_COUNT",
      "outputs": [
        {
          "internalType": "uint256",
          "name": "",
          "type": "uint256"
        }
      ],
      "stateMutability": "view",
      "type": "function"
    },
    {
      "inputs": [],
      "name": "MAX_PRICE_STALENESS",
      "outputs": [
        {
          "internalType": "uint256",
          "name": "",
          "type": "uint256"
        }
      ],
      "stateMutability": "view",
      "type": "function"
    },
    {
      "inputs": [],
      "name": "MIN_ORACLE_COUNT",
      "outputs": [
        {
          "internalType": "uint256",
          "name": "",
          "type": "uint256"
        }
      ],
      "stateMutability": "view",
      "type": "function"
    },
    {
      "inputs": [
        {
          "internalType": "string",
          "name": "symbol",
          "type": "string"
        },
        {
          "internalType": "uint256",
          "name": "twapWindow",
          "type": "uint256"
        }
      ],
      "name": "addAsset",
      "outputs": [],
      "stateMutability": "nonpayable",
      "type": "function"
    },
    {
      "inputs": [
        {
          "internalType": "string",
          "name": "symbol",
          "type": "string"
        },
        {
          "internalType": "address",
          "name": "oracleAddress",
          "type": "address"
        },
        {
          "internalType": "uint256",
          "name": "maxDeviation",
          "type": "uint256"
        },
        {
          "internalType": "uint256",
          "name": "heartbeat",
          "type": "uint256"
        },
        {
          "internalType": "uint256",
          "name": "weight",
          "type": "uint256"
        },
        {
          "internalType": "string",
          "name": "description",
          "type": "string"
        }
      ],
      "name": "addOracle",
      "outputs": [],
      "stateMutability": "nonpayable",
      "type": "function"
    },
    {
      "inputs": [
        {
          "internalType": "string",
          "name": "",
          "type": "string"
        }
      ],
      "name": "circuitBreakerTriggered",
      "outputs": [
        {
          "internalType": "bool",
          "name": "",
          "type": "bool"
        }
      ],
      "stateMutability": "view",
      "type": "function"
    },
    {
      "inputs": [
        {
          "internalType": "string",
          "name": "symbol",
          "type": "string"
        }
      ],
      "name": "getOracleCount",
      "outputs": [
        {
          "internalType": "uint256",
          "name": "",
          "type": "uint256"
        }
      ],
      "stateMutability": "view",
      "type": "function"
    },
    {
      "inputs": [
        {
          "internalType": "string",
          "name": "symbol",
          "type": "string"
        },
        {
          "internalType": "uint256",
          "name": "index",
          "type": "uint256"
        }
      ],
      "name": "getOracleData",
      "outputs": [
        {
          "internalType": "address",
          "name": "oracle",
          "type": "address"
        },
        {
          "internalType": "uint256",
          "name": "maxDeviation",
          "type": "uint256"
        },
        {
          "internalType": "uint256",
          "name": "heartbeat",
          "type": "uint256"
        },
        {
          "internalType": "bool",
          "name": "isActive",
          "type": "bool"
        },
        {
          "internalType": "uint256",
          "name": "weight",
          "type": "uint256"
        },
        {
          "internalType": "string",
          "name": "description",
          "type": "string"
        }
      ],
      "stateMutability": "view",
      "type": "function"
    },
    {
      "inputs": [
        {
          "internalType": "string",
          "name": "symbol",
          "type": "string"
        },
        {
          "internalType": "uint256",
          "name": "index",
          "type": "uint256"
        }
      ],
      "name": "getOraclePrice",
      "outputs": [
        {
          "internalType": "uint256",
          "name": "price",
          "type": "uint256"
        },
        {
          "internalType": "uint256",
          "name": "timestamp",
          "type": "uint256"
        },
        {
          "internalType": "bool",
          "name": "isStale",
          "type": "bool"
        }
      ],
      "stateMutability": "view",
      "type": "function"
    },
    {
      "inputs": [
        {
          "internalType": "string",
          "name": "symbol",
          "type": "string"
        }
      ],
      "name": "getPrice",
      "outputs": [
        {
          "internalType": "uint256",
          "name": "price",
          "type": "uint256"
        },
        {
          "internalType": "uint256",
          "name": "timestamp",
          "type": "uint256"
        }
      ],
      "stateMutability": "view",
      "type": "function"
    },
    {
      "inputs": [],
      "name": "getSystemHealth",
      "outputs": [
        {
          "internalType": "uint256",
          "name": "totalAssets",
          "type": "uint256"
        },
        {
          "internalType": "uint256",
          "name": "activeAssets",
          "type": "uint256"
        },
        {
          "internalType": "uint256",
          "name": "circuitBreakersTriggered",
          "type": "uint256"
        },
        {
          "internalType": "bool",
          "name": "systemPaused",
          "type": "bool"
        }
      ],
      "stateMutability": "view",
      "type": "function"
    },
    {
      "inputs": [
        {
          "internalType": "string",
          "name": "symbol",
          "type": "string"
        }
      ],
      "name": "getTWAPPrice",
      "outputs": [
        {
          "internalType": "uint256",
          "name": "price",
          "type": "uint256"
        },
        {
          "internalType": "uint256",
          "name": "timestamp",
          "type": "uint256"
        }
      ],
      "stateMutability": "view",
      "type": "function"
    },
    {
      "inputs": [
        {
          "internalType": "string",
          "name": "",
          "type": "string"
        }
      ],
      "name": "lastValidPrices",
      "outputs": [
        {
          "internalType": "uint256",
          "name": "",
          "type": "uint256"
        }
      ],
      "stateMutability": "view",
      "type": "function"
    },
    {
      "inputs": [
        {
          "internalType": "string",
          "name": "",
          "type": "string"
        },
        {
          "internalType": "uint256",
          "name": "",
          "type": "uint256"
        }
      ],
      "name": "oracles",
      "outputs": [
        {
          "internalType": "contract AggregatorV3Interface",
          "name": "priceFeed",
          "type": "address"
        },
        {
          "internalType": "uint256",
          "name": "maxDeviation",
          "type": "uint256"
        },
        {
          "internalType": "uint256",
          "name": "heartbeat",
          "type": "uint256"
        },
        {
          "internalType": "bool",
          "name": "isActive",
          "type": "bool"
        },
        {
          "internalType": "uint256",
          "name": "weight",
          "type": "uint256"
        },
        {
          "internalType": "string",
          "name": "description",
          "type": "string"
        }
      ],
      "stateMutability": "view",
      "type": "function"
    },
    {
      "inputs": [],
      "name": "owner",
      "outputs": [
        {
          "internalType": "address",
          "name": "",
          "type": "address"
        }
      ],
      "stateMutability": "view",
      "type": "function"
    },
    {
      "inputs": [],
      "name": "pause",
      "outputs": [],
      "stateMutability": "nonpayable",
      "type": "function"
    },
    {
      "inputs": [],
      "name": "paused",
      "outputs": [
        {
          "internalType": "bool",
          "name": "",
          "type": "bool"
        }
      ],
      "stateMutability": "view",
      "type": "function"
    },
    {
      "inputs": [
        {
          "internalType": "string",
          "name": "symbol",
          "type": "string"
        }
      ],
      "name": "removeAsset",
      "outputs": [],
      "stateMutability": "nonpayable",
      "type": "function"
    },
    {
      "inputs": [
        {
          "internalType": "string",
          "name": "symbol",
          "type": "string"
        },
        {
          "internalType": "address",
          "name": "oracleAddress",
          "type": "address"
        }
      ],
      "name": "removeOracle",
      "outputs": [],
      "stateMutability": "nonpayable",
      "type": "function"
    },
    {
      "inputs": [],
      "name": "renounceOwnership",
      "outputs": [],
      "stateMutability": "nonpayable",
      "type": "function"
    },
    {
      "inputs": [
        {
          "internalType": "string",
          "name": "symbol",
          "type": "string"
        }
      ],
      "name": "resetCircuitBreaker",
      "outputs": [],
      "stateMutability": "nonpayable",
      "type": "function"
    },
    {
      "inputs": [
        {
          "internalType": "string",
          "name": "",
          "type": "string"
        }
      ],
      "name": "supportedAssets",
      "outputs": [
        {
          "internalType": "bool",
          "name": "",
          "type": "bool"
        }
      ],
      "stateMutability": "view",
      "type": "function"
    },
    {
      "inputs": [
        {
          "internalType": "string",
          "name": "symbol",
          "type": "string"
        },
        {
          "internalType": "address",
          "name": "oracleAddress",
          "type": "address"
        }
      ],
      "name": "toggleOracle",
      "outputs": [],
      "stateMutability": "nonpayable",
      "type": "function"
    },
    {
      "inputs": [
        {
          "internalType": "address",
          "name": "newOwner",
          "type": "address"
        }
      ],
      "name": "transferOwnership",
      "outputs": [],
      "stateMutability": "nonpayable",
      "type": "function"
    },
    {
      "inputs": [
        {
          "internalType": "string",
          "name": "",
          "type": "string"
        }
      ],
      "name": "twapData",
      "outputs": [
        {
          "internalType": "uint256",
          "name": "cumulativePrice",
          "type": "uint256"
        },
        {
          "internalType": "uint256",
          "name": "lastUpdateTime",
          "type": "uint256"
        },
        {
          "internalType": "uint256",
          "name": "windowSize",
          "type": "uint256"
        },
        {
          "internalType": "uint256",
          "name": "currentIndex",
          "type": "uint256"
        }
      ],
      "stateMutability": "view",
      "type": "function"
    },
    {
      "inputs": [],
      "name": "unpause",
      "outputs": [],
      "stateMutability": "nonpayable",
      "type": "function"
    },
    {
      "inputs": [
        {
          "internalType": "string",
          "name": "symbol",
          "type": "string"
        },
        {
          "internalType": "address",
          "name": "oracleAddress",
          "type": "address"
        },
        {
          "internalType": "uint256",
          "name": "newWeight",
          "type": "uint256"
        }
      ],
      "name": "updateOracleWeight",
      "outputs": [],
      "stateMutability": "nonpayable",
      "type": "function"
    },
    {
      "inputs": [
        {
          "internalType": "string",
          "name": "symbol",
          "type": "string"
        }
      ],
      "name": "updatePrice",
      "outputs": [],
      "stateMutability": "nonpayable",
      "type": "function"
    }
  ],
  "bytecode": "0x608080604052346100695760008054336001600160a01b0319821681178355916001600160a01b03909116907f8be0079c531659141344cd1fd0a4f28419497f9722a3daafe3b4186f6b6457e09080a36001805560ff1960025416600255612b25908161006f8239f35b600080fdfe6080604052600436101561001257600080fd5b60003560e01c80630503bc0a146110405780630ca55cd7146110235780630dc3292614610f6e5780631bc7ffe914610d0157806331a6be8c14610cc95780633212f47f14610c6a5780633f4ba83a14610bd6578063524f388914610b075780635c975abb14610ae45780635fcb212014610417578063715018a614610a8b578063759af9ec1461085a578063775f5d3c146107af5780637d43edfb146107435780638456cb59146106e95780638745c73c146106585780638da5cb5b1461062f578063a47f474e146105e1578063ab1e710c146105c5578063af72ba2e14610519578063bf146fe6146104fd578063bfb9ffac146104af578063d312ded01461041c578063d6913b3214610417578063d7f47317146103a0578063ddac2a8014610367578063dffd37341461030b578063e1f1c4a7146102ee578063e219af5b14610288578063f2fde38b146101c25763fe618c781461017157600080fd5b346101bd576101bb61018236611732565b9061018b611773565b6101b660ff60405160208185516101a58183858a016115d8565b810160058152030190205416611884565b611a42565b005b600080fd5b346101bd5760203660031901126101bd576004356001600160a01b03818116918290036101bd576101f1611773565b811561023457600054826001600160601b0360a01b821617600055167f8be0079c531659141344cd1fd0a4f28419497f9722a3daafe3b4186f6b6457e0600080a3005b60405162461bcd60e51b815260206004820152602660248201527f4f776e61626c653a206e6577206f776e657220697320746865207a65726f206160448201526564647265737360d01b6064820152608490fd5b346101bd5760603660031901126101bd576004356001600160401b0381116101bd576102bb6101bb91369060040161151e565b6102c3611574565b6102cb611773565b6102e560ff60405160208186516101a58183858b016115d8565b60443591611d60565b346101bd5760003660031901126101bd5760206040516127108152f35b346101bd5760203660031901126101bd576004356001600160401b0381116101bd5761035460206103418193369060040161151e565b81604051938285809451938492016115d8565b8101600681520301902054604051908152f35b346101bd576101bb61037836611732565b90610381611773565b61039b60ff60405160208185516101a58183858a016115d8565b611e9b565b346101bd5760203660031901126101bd576004356001600160401b0381116101bd5761040460206103d68193369060040161151e565b604051906103f360ff8251938581818601966101a581838a6115d8565b6040519384928392519283916115d8565b8101600381520301902054604051908152f35b6115bb565b346101bd57606061049a61049561048f602061048061043a3661158a565b92906040519061045960ff8251938581818601966101a581838a6115d8565b6103f36040518481845161046e8183896115d8565b810160038152030190205486106120e2565b81016003815203019020611620565b50612125565b61252f565b90604051928352602083015215156040820152f35b346101bd5760203660031901126101bd576004356001600160401b0381116101bd5760ff6104e760206103418194369060040161151e565b8101600581520301902054166040519015158152f35b346101bd5760003660031901126101bd576020604051600a8152f35b346101bd57602061054161052c3661158a565b929081604051938285809451938492016115d8565b810160038152030190209081548110156101bd5761055e91611620565b5060018060a01b038154166105c160018301549260028101549060ff60038201541661059160056004840154930161168c565b9260405196879687526020870152604086015215156060850152608084015260c060a084015260c08301906115fb565b0390f35b346101bd5760003660031901126101bd57602060405160038152f35b346101bd5760203660031901126101bd576004356001600160401b0381116101bd5760ff61061960206103418194369060040161151e565b8101600781520301902054166040519015158152f35b346101bd5760003660031901126101bd576000546040516001600160a01b039091168152602090f35b346101bd5760ff61069361048f6104806106713661158a565b919060405190805190610459602098848a8096818601966101a581838a6115d8565b6105c160018060a01b038251169183810151906040810151606082015115159060a0608084015193015193604051978897885287015260408601526060850152608084015260c060a084015260c08301906115fb565b346101bd5760003660031901126101bd57610702611773565b61070a61209e565b600160ff1960025416176002557f62e78cea01bee320cd4e420270b5ea74000d11b0c9f74754ebdbfc544b05a2586020604051338152a1005b346101bd5760203660031901126101bd576004356001600160401b0381116101bd5761077a6020610341608093369060040161151e565b810160048152030190208054906001810154906005600282015491015491604051938452602084015260408301526060820152f35b346101bd5760203660031901126101bd576004356001600160401b0381116101bd576107e261083391369060040161151e565b6107ea611773565b61081c602060405161080b60ff8551928481818901956101a58183896115d8565b6040518093819286519283916115d8565b8101600781520301902060ff198154169055611864565b7ff9b6094402b8dd6aacde1d951753f76a4087f721159a0c723c7cbfcc839367c4600080a2005b346101bd576020806003193601126101bd576004356001600160401b0381116101bd5761088b90369060040161151e565b610893611773565b604051918151906108c460ff828501936108ae8188876115d8565b8601958381600598898152030190205416611884565b604051818185516108d68183886115d8565b8101878152030190209360ff1994858154169055604051828186516108fc8183896115d8565b8101600481520301902090600082556001916000838201556109978460029660008885015560008560039561093287820161180c565b61093e6004820161180c565b01556040519960008b6109548c518092866115d8565b8c019b848160069e8f8152030190205560405183818c516109768183886115d8565b81016007815203019020908154169055604051809381928b519283916115d8565b8101848152030190209485549560008155866109de575b6109b788611864565b7f7704a686b2fb3541aea5ffdeb387f0119accdfafd1824299e97eb81dee7be835600080a2005b8689029689880403610a755760005284600020958601955b868110156109ae578060008a925560008682015560008382015560008482015560006004820155848101610a2a8154611652565b9081610a39575b5050016109f6565b600091601f808211600114610a53575050555b8a80610a31565b91610a6e8492938284528c842094018a1c84018b85016117f5565b5555610a4c565b634e487b7160e01b600052601160045260246000fd5b346101bd5760003660031901126101bd57610aa4611773565b600080546001600160a01b0319811682556001600160a01b03167f8be0079c531659141344cd1fd0a4f28419497f9722a3daafe3b4186f6b6457e08280a3005b346101bd5760003660031901126101bd57602060ff600254166040519015158152f35b346101bd576020806003193601126101bd576004356001600160401b0381116101bd57610b3890369060040161151e565b9060ff610b6b82604051610b5a848751928481818b01956101a58183896115d8565b6040518093819288519283916115d8565b810160078152030190205416610b9257610b866040926121c4565b90918351928352820152f35b6064906040519062461bcd60e51b82526004820152601960248201527f4369726375697420627265616b657220747269676765726564000000000000006044820152fd5b346101bd5760003660031901126101bd57610bef611773565b60025460ff811615610c2e5760ff19166002557f5db9ee0a495bf2e6ff9c91a7834c1ba4fdd244a5e8aa4e537bd38aeae4b073aa6020604051338152a1005b60405162461bcd60e51b815260206004820152601460248201527314185d5cd8589b194e881b9bdd081c185d5cd95960621b6044820152606490fd5b346101bd5760203660031901126101bd576004356001600160401b0381116101bd57610cbd610c9f604092369060040161151e565b610cb860ff845160208185516101a58183858a016115d8565b612946565b82519182526020820152f35b346101bd5760003660031901126101bd57608060ff600254166040519060008252600060208301526000604083015215156060820152f35b346101bd57610d0f3661158a565b90610d18611773565b6040519181519260ff602091828181870197610d3581838b6115d8565b810160058152030190205416610f2a5761012c82101580610f1d575b15610ee35760405181818551610d6881838a6115d8565b81016005815203019020906001918260ff1982541617905560405190610d8d826114e2565b6000825260405190610d9e826114e2565b6000825260405194610daf866114c7565b60008652818601428152604087019182526060870194855260808701938452610dec8360a089019a60008c52604051809381928d519283916115d8565b81016004815203019020965187555185870155516002860155600385019251928351906001600160401b0394858311610ebb578390610e2b8484611830565b0190600052826000208660005b848110610ed15750505050506004850191518051938411610ebb578190610e5f8585611830565b0191600052806000209060005b848110610eaa5788516005880155610e8388611864565b7f724df0596d75f7cca867e95fdadd6c1397e175dc9a54f0a3f46167ec8577ecae600080a2005b835183820155928101928501610e6c565b634e487b7160e01b600052604160045260246000fd5b85845194019381840155018790610e38565b6064906040519062461bcd60e51b825260048201526013602482015272496e76616c696420545741502077696e646f7760681b6044820152fd5b5062015180821115610d51565b6064906040519062461bcd60e51b82526004820152601760248201527f417373657420616c726561647920737570706f727465640000000000000000006044820152fd5b346101bd5760203660031901126101bd576004356001600160401b0381116101bd57610f9e90369060040161151e565b600260015414610fde57610fd8906002600155610fb961209e565b610fd360ff60405160208185516101a58183858a016115d8565b611f77565b60018055005b60405162461bcd60e51b815260206004820152601f60248201527f5265656e7472616e637947756172643a207265656e7472616e742063616c6c006044820152606490fd5b346101bd5760003660031901126101bd5760206040516103e88152f35b346101bd5760c03660031901126101bd576004356001600160401b0381116101bd5761107090369060040161151e565b611078611574565b60a4356001600160401b0381116101bd5761109790369060040161151e565b906110a0611773565b6110ba60ff60405160208187516101a58183858c016115d8565b6001600160a01b0381161561148957600a60405160208186516110e08183858b016115d8565b8101600381520301902054101561144e57608435151580611441575b611105906118c6565b6107d06044351161140357606492603c84351015806113f5575b156113bd5760005b604051602081845161113c81838589016115d8565b81016003815203019020548110156111c5576111678160405160208186516104808183858b016115d8565b50546001600160a01b038481169116146111895761118490611903565b611127565b60405162461bcd60e51b81526020600482015260156024820152744f7261636c6520616c72656164792065786973747360581b60448201528590fd5b50909160405160208184516111dd81838589016115d8565b81016003815203019020604051946111f4866114c7565b60018060a01b038516865260208601916044358352604087019135825260608701966001978881526080820192608435845260a083019687528054600160401b811015610ebb57611249918b82018155611620565b9490946113a7576005956112959360018060a01b039051166001600160601b0360a01b875416178655518a860155516002850155511515600384019060ff801983541691151516179055565b516004820155019051938451946001600160401b038611610ebb576112c4866112be8554611652565b85611912565b602090601f87116001146113415795809281926112fa9798600094611336575b50501b916000199060031b1c1916179055611864565b60405160843581526001600160a01b03909216917f117d912accda34e414b7f63575e19232386ecf2a297541d5ebb1dd038431966090602090a3005b0151925088806112e4565b9590601f198216908460005260206000209160005b818110611391575097836112fa989910611378575b505050811b019055611864565b015160001960f88460031b161c1916905586808061136b565b8983015184559285019260209283019201611356565b634e487b7160e01b600052600060045260246000fd5b60405162461bcd60e51b8152602060048201526011602482015270125b9d985b1a59081a19585c9d1899585d607a1b60448201528490fd5b50620151808435111561111f565b60405162461bcd60e51b815260206004820152601660248201527509ac2f040c8caecd2c2e8d2dedc40e8dede40d0d2ced60531b6044820152606490fd5b50606460843511156110fc565b60405162461bcd60e51b815260206004820152601360248201527213585e081bdc9858db195cc81c995858da1959606a1b6044820152606490fd5b60405162461bcd60e51b8152602060048201526016602482015275496e76616c6964206f7261636c65206164647265737360501b6044820152606490fd5b60c081019081106001600160401b03821117610ebb57604052565b602081019081106001600160401b03821117610ebb57604052565b90601f801991011681019081106001600160401b03821117610ebb57604052565b81601f820112156101bd578035906001600160401b038211610ebb5760405192611552601f8401601f1916602001856114fd565b828452602083830101116101bd57816000926020809301838601378301015290565b602435906001600160a01b03821682036101bd57565b60406003198201126101bd57600435906001600160401b0382116101bd576115b49160040161151e565b9060243590565b346101bd5760003660031901126101bd576020604051610e108152f35b60005b8381106115eb5750506000910152565b81810151838201526020016115db565b90602091611614815180928185528580860191016115d8565b601f01601f1916010190565b805482101561163c576000526006602060002091020190600090565b634e487b7160e01b600052603260045260246000fd5b90600182811c92168015611682575b602083101461166c57565b634e487b7160e01b600052602260045260246000fd5b91607f1691611661565b90604051918260008254926116a084611652565b90818452600194858116908160001461170f57506001146116cc575b50506116ca925003836114fd565b565b9093915060005260209081600020936000915b8183106116f75750506116ca935082010138806116bc565b855488840185015294850194879450918301916116df565b9150506116ca94506020925060ff191682840152151560051b82010138806116bc565b60406003198201126101bd57600435906001600160401b0382116101bd5761175c9160040161151e565b906024356001600160a01b03811681036101bd5790565b6000546001600160a01b0316330361178757565b606460405162461bcd60e51b815260206004820152602060248201527f4f776e61626c653a2063616c6c6572206973206e6f7420746865206f776e65726044820152fd5b6001600160401b038111610ebb5760051b60200190565b81810292918115918404141715610a7557565b818110611800575050565b600081556001016117f5565b8054600082558061181b575050565b6116ca916000526020600020908101906117f5565b90600160401b8111610ebb5781549080835581811061184e57505050565b6116ca92600052602060002091820191016117f5565b61187c906020604051928284809451938492016115d8565b810103902090565b1561188b57565b60405162461bcd60e51b8152602060048201526013602482015272105cdcd95d081b9bdd081cdd5c1c1bdc9d1959606a1b6044820152606490fd5b156118cd57565b60405162461bcd60e51b815260206004820152600e60248201526d125b9d985b1a59081dd95a59da1d60921b6044820152606490fd5b6000198114610a755760010190565b9190601f811161192157505050565b6116ca926000526020600020906020601f840160051c8301931061194d575b601f0160051c01906117f5565b9091508190611940565b91908203918211610a7557565b90808214611a3e576119768154611652565b906001600160401b038211610ebb57819061199b826119958654611652565b86611912565b600090601f83116001146119d2576000926119c7575b50508160011b916000199060031b1c1916179055565b0154905038806119b1565b81526020808220858352818320935090601f1985169083905b828210611a25575050908460019594939210611a0c575b505050811b019055565b015460001960f88460031b161c19169055388080611a02565b84958192958501548155600180910196019401906119eb565b5050565b9060409182519080519360209081830195611a5e8186896115d8565b84018483600396838880955203019020541115611d115760005b815183818651611a8981838d6115d8565b81018881520301902054811015611cda57611abf818351858180611ab18d8b519283916115d8565b81018a815203019020611620565b50546001600160a01b038781169181168214611ae5575050611ae090611903565b611a78565b928094959697509790975185818851611aff8183876115d8565b81018a81520301902093805186818951611b1a8183886115d8565b81018b8152030190205460001995868201918211610a7557611b6091611b3f91611620565b5093825188818b51611b5281838a6115d8565b81018d815203019020611620565b9490946113a75784848895611b879703611c72575b505050518093819288519283916115d8565b8101878152030190209081548015611c5c570191611ba58383611620565b9590956113a757856000611bf097556000600192818484015581600284015582015560006004820155600580910191611bde8354611652565b9182611c17575b505050505055611864565b7fb2e6642ce17b2a48851ea5daf94f434d26f2d9bb7854a410487cb4588c118375600080a3565b600094601f90818511600114611c38575050505050555b3880808080611be5565b91859391611c5593889697875286209601901c85019085016117f5565b5555611c2e565b634e487b7160e01b600052603160045260246000fd5b611cd2928154166001600160601b0360a01b8354161782556001808201549083015560028082015490830155611cbc60ff8c830154168c84019060ff801983541691151516179055565b6004808201549083015560058091019101611964565b388080611b75565b505162461bcd60e51b815260206004820152601060248201526f13dc9858db19481b9bdd08199bdd5b9960821b6044820152606490fd5b60849250519062461bcd60e51b82526004820152602360248201527f43616e6e6f742072656d6f76652c206d696e206f7261636c65732072657175696044820152621c995960ea1b6064820152fd5b9180151580611e90575b611d73906118c6565b60005b6040805190855160209081880190611d8f8186846115d8565b84019382816003968781520301902054851015611e5857611dc985845184818c51611dbb8183896115d8565b810189815203019020611620565b50546001600160a01b038881169591168514611df2575050505050611ded90611903565b611d76565b839750611e488396611e3a89979b957f79b60be0b168551a45f10fb051c2769b31c72f185291f0533bf80cd7693245f29a95600495611e509951809481938b519283916115d8565b820190815203019020611620565b500155611864565b9351908152a3565b60405162461bcd60e51b815260206004820152601060248201526f13dc9858db19481b9bdd08199bdd5b9960821b6044820152606490fd5b506064811115611d6a565b9060005b60408051845160209081870190611eb78185846115d8565b83019282816003958681520301902054851015611e5857611ef185855184818b51611ee38183896115d8565b810188815203019020611620565b50546001600160a01b03878116911614611f175750505050611f1290611903565b611e9f565b83955090611f41916116ca9760ff85611f4f89611f64999a989a5187818751611f4181838c6115d8565b810186815203019020611620565b500154161597519384928392519283916115d8565b50019060ff801983541691151516179055565b611f80816121c4565b91906040908151938351946020958187809381890193611fa18183876115d8565b8101600681520301902054612013575b9483611ff7612007937f6e838f2a03741f5f2aff5480963b672fb0dd8430a4dc75db9b67ce009733c9fe98611fe787858761288d565b88518093819287519283916115d8565b8101600681520301902055611864565b948351928352820152a2565b8451828188516120248183876115d8565b81016006815203019020546103e861203c86836127e7565b116120475750611fb1565b93925094612084612007927f523ad613567fbc3e5ab031387463d6181666216d2aff6391c50871593021ef1e9787518093819286519283916115d8565b81016007815203019020600160ff19825416179055611864565b60ff600254166120aa57565b60405162461bcd60e51b815260206004820152601060248201526f14185d5cd8589b194e881c185d5cd95960821b6044820152606490fd5b156120e957565b60405162461bcd60e51b8152602060048201526014602482015273092dcecc2d8d2c840dee4c2c6d8ca40d2dcc8caf60631b6044820152606490fd5b90604051612132816114c7565b82546001600160a01b031681526001830154602082015260028301546040820152600383015460ff16151560608201526004830154608082015291829060a09061217e9060050161168c565b910152565b805182101561163c5760209160051b010190565b91908201809211610a7557565b81156121ae570490565b634e487b7160e01b600052601260045260246000fd5b90600080816040948551815191602097888201936121e38185876115d8565b83019289816003958681520301902054946121fd866117cb565b9561220a835197886114fd565b808752612219601f19916117cb565b01368b88013787805b83518c81875161223381838d6115d8565b810189815203019020548110156122ec578b60ff8761226284611f41858d8c8c519384928392519283916115d8565b50015416156122e25761049561048f83611b5261228b948c8b8b519384928392519283916115d8565b91909115806122d9575b6122aa575b50506122a590611903565b612222565b9a6122c0919b6122ba828c612183565b52611903565b998981116122cf575b8061229a565b98506122a56122c9565b50801515612295565b506122a590611903565b50969899939194929790998282106124d457875b865186818c5161231181838b6115d8565b810187815203019020548110156124645760ff8461234083611f418a8f8b908e519384928392519283916115d8565b500154161561245b578686868c61236a61049561048f878b87895180928851611e3a81848d6115d8565b90509490941580612452575b61238e575b505050505061238990611903565b612300565b6123ad6123c6946001946123bb948994519384928392519283916115d8565b81018c815203019020611620565b500154858b846126b6565b6123d4575b86868c8a61237b565b9b818b888a9c949c518092516123eb81838d6115d8565b810189815203019020906123fe91611620565b509c6004809e015461240f916117e2565b61241891612197565b9b898b888a5180925161242c81838d6115d8565b8101898152030190209061243f91611620565b50015461244b91612197565b97386123cb565b50841515612376565b61238990611903565b50999697505050509150831561248357505090612480916121a4565b91565b60849250519062461bcd60e51b82526004820152602560248201527f4e6f2076616c69642070726963657320616674657220646576696174696f6e20604482015264636865636b60d81b6064820152fd5b855162461bcd60e51b815260048101869052601a60248201527f496e73756666696369656e742076616c6964206f7261636c65730000000000006044820152606490fd5b519069ffffffffffffffffffff821682036101bd57565b8051604051633fabe5a360e21b81529060a090829060049082906001600160a01b03165afa600080918082948392612659575b50612577575050505050600090600090600190565b6000839694959613156126245784156125eb5769ffffffffffffffffffff8091169116036125b3579260406125ac8442611957565b9101511090565b60405162461bcd60e51b815260206004820152601060248201526f5374616c6520726f756e64206461746160801b6044820152606490fd5b60405162461bcd60e51b81526020600482015260116024820152700496e76616c69642074696d657374616d7607c1b6044820152606490fd5b60405162461bcd60e51b815260206004820152600d60248201526c496e76616c696420707269636560981b6044820152606490fd5b935093505060a0823d82116126ae575b8161267660a093836114fd565b810103126126ab575061268881612518565b916020820151906126a0608060608501519401612518565b939192939038612562565b80fd5b3d9150612669565b9060018311156126d7576126d2926126cd916126e0565b6127e7565b111590565b50505050600190565b916000905b60001990838201848111610a75578310156127935760005b6127078486611957565b838101908111610a7557811015612781576127228187612183565b519060018101808211610a755761274a9261273d828a612183565b511061274f575b50611903565b6126fd565b61277a61275c838a612183565b5191612768818b612183565b51612773858c612183565b5289612183565b5238612744565b509161278d9150611903565b906126e5565b9392915050600181166127d55760011c906000198201828111610a75576127cf926127c16127c89284612183565b5192612183565b5190612197565b60011c90565b906127e39160011c90612183565b5190565b908115612832578181811115612823579061280191611957565b905b61271091828102928184041490151715610a7557612820916121a4565b90565b61282c91611957565b90612803565b5050600090565b805482101561163c5760005260206000200190600090565b90815491600160401b831015610ebb57826128749160016116ca95018155612839565b90919082549060031b91821b91600019901b1916179055565b60206128a69181604051938285809451938492016115d8565b810160048152030190206003810180541561291f5760648154106000146128e4576001926128d391612851565b6128e08360048301612851565b0155565b6005820192835460018101809111610a755760019461291587936128746128e0966064612874960690818655612839565b5460048501612839565b9161292c81600194612851565b6129398460048401612851565b6000600583015581550155565b90602061295c60405193848151938492016115d8565b820191602081600494858152030190206003908181019182548015612ae1576002830154600090804211600014612ad957612998915042611957565b92935b6000948594908801855b848110612a085750600091505085156129cc57505050506129c79293506121a4565b904290565b92945060001982019350919083116129f557506129eb92939450612839565b9054911b1c904290565b634e487b7160e01b815260118652602490fd5b82612a138284612839565b905490881b1c1015612a2e575b612a2990611903565b6129a5565b9695600088612a745750612a6c612a55612a66612a2993612a608c60019485915b8b612839565b9054908d1b1c6117e2565b90612197565b98612197565b979050612a20565b612a7e8984612839565b905490881b1c906000198a01908a8211612ac65750612a66612a2993612a608c612abe612a6c968d612ab3612a55988c612839565b9054911b1c90611957565b948591612a4f565b634e487b7160e01b815260118d52602490fd5b50929361299b565b50505050905060009060009056fea2646970667358221220b31ad6458fe59334034bc565f019302d93748ebd16862a099badbb92a7e106a964736f6c63430008130033",
  "linkReferences": {},
  "deployedLinkReferences": {}
}